0029029110999991926010106004+63083+021617FM-12+000999999V0209991C000019999999N0000001N9-01061+99999098861ADDGF108991999999999999999999
0029029110999991926010113004+63083+021617FM-12+000999999V0203401N007219999999N0000001N9-00441+99999099621ADDGF100991999999999999999999
0029029110999991926010120004+63083+021617FM-12+000999999V0202901N003119999999N0000001N9-00721+99999100231ADDGF100991999999999999999999
0029029110999991926010206004+63083+021617FM-12+000999999V0202701N003119999999N0000001N9-00441+99999100281ADDGF100991999999999999999999
0029029110999991926010213004+63083+021617FM-12+000999999V0209991C000019999999N0000001N9-00441+99999100381ADDGF100991999999999999999999
0029029110999991926010220004+63083+021617FM-12+000999999V0202501N007219999999N0000001N9-00221+99999100271ADDGF104991999999999999999999
0029029110999991926010306004+63083+021617FM-12+000999999V0202701N003119999999N0000001N9-00391+99999100441ADDGF104991999999999999999999
0029029110999991926010313004+63083+021617FM-12+000999999V0209991C000019999999N0000001N9-00941+99999100941ADDGF100991999999999999999999
0029029110999991926010320004+63083+021617FM-12+000999999V0209991C000019999999N0000001N9-01611+99999101081ADDGF100991999999999999999999
0029029110999991926010406004+63083+021617FM-12+000999999V0200901N003119999999N0000001N9-01611+99999101241ADDGF100991999999999999999999
0029029110999991926010413004+63083+021617FM-12+000999999V0201101N003119999999N0000001N9-01561+99999101341ADDGF100991999999999999999999
0029029110999991926010420004+63083+021617FM-12+000999999V0209991C000019999999N0000001N9-01441+99999101511ADDGF108991999999999999999999
0029029110999991926010506004+63083+021617FM-12+000999999V0209991C000019999999N0000001N9-01111+99999101761ADDGF108991999999999999999999
0029029110999991926010513004+63083+021617FM-12+000999999V0209991C000019999999N0000001N9-00891+99999102141ADDGF108991999999999999999999
0029029110999991926010520004+63083+021617FM-12+000999999V0209991C000019999999N0000001N9-01061+99999102861ADDGF108991999999999999999999
0029029110999991926010606004+63083+021617FM-12+000999999V0201401N003119999999N0000001N9-01441+99999103511ADDGF108991999999999999999999
0029029110999991926010613004+63083+021617FM-12+000999999V0200901N003119999999N0000001N9-01831+99999103701ADDGF108991999999999999999999
0029029110999991926010620004+63083+021617FM-12+000999999V0200901N003119999999N0000001N9-01721+99999103461ADDGF108991999999999999999999
0029029110999991926010706004+63083+021617FM-12+000999999V0200901N003119999999N0000001N9-01391+99999102981ADDGF108991999999999999999999
0029029110999991926010713004+63083+021617FM-12+000999999V0201101N003119999999N0000001N9-01391+99999102751ADDGF108991999999999999999999
0029029110999991926010720004+63083+021617FM-12+000999999V0200901N003119999999N0000001N9-01061+99999102341ADDGF108991999999999999999999
0029029110999991926010806004+63083+021617FM-12+000999999V0201101N003119999999N0000001N9-00891+99999102151ADDGF108991999999999999999999
0035029110999991926010813004+63083+021617FM-12+000999999V0200901N002119999999N0000001N9-00831+99999102231ADDGF108991999999999999999999MW1701
0029029110999991926010820004+63083+021617FM-12+000999999V0209991C000019999999N0000001N9-00941+99999102391ADDGF108991999999999999999999
0029029110999991926010906004+63083+021617FM-12+000999999V0200901N003119999999N0000001N9-01061+99999102711ADDGF108991999999999999999999
0029029110999991926010913004+63083+021617FM-12+000999999V0200901N005119999999N0000001N9-01611+99999103021ADDGF108991999999999999999999
0029029110999991926010920004+63083+021617FM-12+000999999V0201401N005119999999N0000001N9-02111+99999103241ADDGF100991999999999999999999
0029029110999991926011006004+63083+021617FM-12+000999999V0201401N003119999999N0000001N9-02111+99999103511ADDGF100991999999999999999999
0029029110999991926011013004+63083+021617FM-12+000999999V0201601N005119999999N0000001N9-01721+99999103721ADDGF103991999999999999999999
0029029110999991926011020004+63083+021617FM-12+000999999V0201601N007219999999N0000001N9-01501+99999103581ADDGF108991999999999999999999
0029029110999991926011106004+63083+021617FM-12+000999999V0202301N008719999999N0000001N9-00891+99999103341ADDGF108991999999999999999999
0029029110999991926011113004+63083+021617FM-12+000999999V0202001N008719999999N0000001N9-00561+99999103361ADDGF108991999999999999999999
0029029110999991926011120004+63083+021617FM-12+000999999V0202701N011819999999N0000001N9-00221+99999103361ADDGF108991999999999999999999
0029029110999991926011206004+63083+021617FM-12+000999999V0202501N008719999999N0000001N9-00221+99999103431ADDGF108991999999999999999999
0029029110999991926011213004+63083+021617FM-12+000999999V0201801N007219999999N0000001N9-00221+99999103631ADDGF108991999999999999999999
0029029110999991926011220004+63083+021617FM-12+000999999V0202701N008719999999N0000001N9-00221+99999103741ADDGF108991999999999999999999
0029029110999991926011306004+63083+021617FM-12+000999999V0202001N007219999999N0000001N9-00331+99999103821ADDGF108991999999999999999999
0029029110999991926011313004+63083+021617FM-12+000999999V0202001N005119999999N0000001N9-00331+99999104001ADDGF108991999999999999999999
0029029110999991926011320004+63083+021617FM-12+000999999V0202001N007219999999N0000001N9-00331+99999104041ADDGF108991999999999999999999
0029029110999991926011406004+63083+021617FM-12+000999999V0201801N005119999999N0000001N9-00891+99999103991ADDGF100991999999999999999999
0029029110999991926011413004+63083+021617FM-12+000999999V0202001N005119999999N0000001N9-00891+99999103961ADDGF100991999999999999999999
0029029110999991926011420004+63083+021617FM-12+000999999V0202001N004119999999N0000001N9-00611+99999103791ADDGF108991999999999999999999
0029029110999991926011506004+63083+021617FM-12+000999999V0202001N003119999999N0000001N9-01111+99999103561ADDGF100991999999999999999999
0029029110999991926011513004+63083+021617FM-12+000999999V0201601N002119999999N0000001N9-00941+99999103341ADDGF108991999999999999999999
0029029110999991926011520004+63083+021617FM-12+000999999V0201401N003119999999N0000001N9-00941+99999103071ADDGF108991999999999999999999
0029029110999991926011606004+63083+021617FM-12+000999999V0201401N001019999999N0000001N9-00611+99999102591ADDGF108991999999999999999999
0029029110999991926011613004+63083+021617FM-12+000999999V0201101N003119999999N0000001N9-00501+99999102341ADDGF104991999999999999999999
0029029110999991926011620004+63083+021617FM-12+000999999V0201101N003119999999N0000001N9-00831+99999102181ADDGF108991999999999999999999
0035029110999991926011706004+63083+021617FM-12+000999999V0201101N001019999999N0000001N9-01001+99999102001ADDGF108991999999999999999999MW1741
0029029110999991926011713004+63083+021617FM-12+000999999V0201101N005119999999N0000001N9-01061+99999102061ADDGF108991999999999999999999
0035029110999991926011720004+63083+021617FM-12+000999999V0201401N003119999999N0000001N9-00941+99999102111ADDGF108991999999999999999999MW1741
0029029110999991926011806004+63083+021617FM-12+000999999V0201601N003119999999N0000001N9-01221+99999102221ADDGF108991999999999999999999
0029029110999991926011813004+63083+021617FM-12+000999999V0201801N005119999999N0000001N9-01171+99999102421ADDGF108991999999999999999999
0035029110999991926011820004+63083+021617FM-12+000999999V0202001N005119999999N0000001N9-01001+99999102431ADDGF108991999999999999999999MW1701
0029029110999991926011906004+63083+021617FM-12+000999999V0201801N003119999999N0000001N9-01171+99999102361ADDGF108991999999999999999999
0035029110999991926011913004+63083+021617FM-12+000999999V0201401N005119999999N0000001N9-01001+99999102151ADDGF108991999999999999999999MW1701
0029029110999991926011920004+63083+021617FM-12+000999999V0201401N005119999999N0000001N9-00891+99999102061ADDGF108991999999999999999999
0029029110999991926012006004+63083+021617FM-12+000999999V0201801N005119999999N0000001N9-01501+99999101911ADDGF108991999999999999999999
0029029110999991926012013004+63083+021617FM-12+000999999V0201601N005119999999N0000001N9-01281+99999101801ADDGF108991999999999999999999
0029029110999991926012020004+63083+021617FM-12+000999999V0201601N003119999999N0000001N9-01611+99999101671ADDGF108991999999999999999999
0029029110999991926012106004+63083+021617FM-12+000999999V0201601N003119999999N0000001N9-01781+99999101481ADDGF100991999999999999999999
0029029110999991926012113004+63083+021617FM-12+000999999V0201601N002119999999N0000001N9-02061+99999101501ADDGF108991999999999999999999
0029029110999991926012120004+63083+021617FM-12+000999999V0201601N003119999999N0000001N9-01721+99999101471ADDGF108991999999999999999999
0035029110999991926012206004+63083+021617FM-12+000999999V0201601N003119999999N0000001N9-01171+99999101521ADDGF108991999999999999999999MW1721
0035029110999991926012213004+63083+021617FM-12+000999999V0201601N003119999999N0000001N9-01001+99999101511ADDGF108991999999999999999999MW1721
0035029110999991926012220004+63083+021617FM-12+000999999V0201601N003119999999N0000001N9-00941+99999101511ADDGF108991999999999999999999MW1721
0035029110999991926012306004+63083+021617FM-12+000999999V0201801N007219999999N0000001N9-01001+99999101101ADDGF108991999999999999999999MW1721
0035029110999991926012313004+63083+021617FM-12+000999999V0201401N003119999999N0000001N9-00611+99999100871ADDGF108991999999999999999999MW1721
0035029110999991926012320004+63083+021617FM-12+000999999V0201601N003119999999N0000001N9-00331+99999100801ADDGF108991999999999999999999MW1721
0029029110999991926012406004+63083+021617FM-12+000999999V0201601N007219999999N0000001N9-00611+99999100561ADDGF108991999999999999999999
0035029110999991926012413004+63083+021617FM-12+000999999V0201401N008719999999N0000001N9-00721+99999099881ADDGF108991999999999999999999MW1721
0035029110999991926012420004+63083+021617FM-12+000999999V0200901N008719999999N0000001N9-01001+99999099351ADDGF108991999999999999999999MW1721
0029029110999991926012506004+63083+021617FM-12+000999999V0200501N007219999999N0000001N9-00831+99999099381ADDGF108991999999999999999999
0029029110999991926012513004+63083+021617FM-12+000999999V0200201N005119999999N0000001N9-00941+99999099751ADDGF108991999999999999999999
0029029110999991926012520004+63083+021617FM-12+000999999V0209991C000019999999N0000001N9-01111+99999099661ADDGF108991999999999999999999
0035029110999991926012606004+63083+021617FM-12+000999999V0200501N007219999999N0000001N9-01001+99999099301ADDGF108991999999999999999999MW1721
0035029110999991926012613004+63083+021617FM-12+000999999V0203601N005119999999N0000001N9-01111+99999099871ADDGF108991999999999999999999MW1721
0029029110999991926012620004+63083+021617FM-12+000999999V0203601N008719999999N0000001N9-01001+99999100701ADDGF108991999999999999999999
0029029110999991926012706004+63083+021617FM-12+000999999V0203601N005119999999N0000001N9-01501+99999101781ADDGF108991999999999999999999
0029029110999991926012713004+63083+021617FM-12+000999999V0200901N003119999999N0000001N9-01391+99999101751ADDGF108991999999999999999999
0029029110999991926012720004+63083+021617FM-12+000999999V0202001N003119999999N0000001N9-01111+99999101481ADDGF100991999999999999999999
0029029110999991926012806004+63083+021617FM-12+000999999V0201801N003119999999N0000001N9-00611+99999100861ADDGF108991999999999999999999
0035029110999991926012813004+63083+021617FM-12+000999999V0200201N005119999999N0000001N9-00561+99999100511ADDGF108991999999999999999999MW1721
0029029110999991926012820004+63083+021617FM-12+000999999V0200201N007219999999N0000001N9-01331+99999100961ADDGF100991999999999999999999
0029029110999991926012906004+63083+021617FM-12+000999999V0200501N005119999999N0000001N9-02001+99999101861ADDGF100991999999999999999999
0029029110999991926012913004+63083+021617FM-12+000999999V0209991C000019999999N0000001N9-02111+99999102221ADDGF100991999999999999999999
0029029110999991926012920004+63083+021617FM-12+000999999V0201601N002119999999N0000001N9-02171+99999102111ADDGF100991999999999999999999
0029029110999991926013006004+63083+021617FM-12+000999999V0202701N011819999999N0000001N9-01001+99999101681ADDGF108991999999999999999999
0029029110999991926013013004+63083+021617FM-12+000999999V0202501N007219999999N0000001N9-00671+99999101461ADDGF108991999999999999999999
0029029110999991926013020004+63083+021617FM-12+000999999V0202501N007219999999N0000001N9-00721+99999101191ADDGF108991999999999999999999
0029029110999991926013106004+63083+021617FM-12+000999999V0202501N007219999999N0000001N9-00391+99999100911ADDGF108991999999999999999999
0035029110999991926013113004+63083+021617FM-12+000999999V0209991C000019999999N0000001N9-00391+99999100991ADDGF108991999999999999999999MW1701
0029029110999991926013120004+63083+021617FM-12+000999999V0209991C000019999999N0000001N9-00611+99999101301ADDGF108991999999999999999999
0029029110999991926020106004+63083+021617FM-12+000999999V0209991C000019999999N0000001N9-00501+99999101151ADDGF108991999999999999999999
0029029110999991926020113004+63083+021617FM-12+000999999V0202301N005119999999N0000001N9-00331+99999100991ADDGF108991999999999999999999
0029029110999991926020120004+63083+021617FM-12+000999999V0202301N007219999999N0000001N9-00221+99999100791ADDGF108991999999999999999999
0029029110999991926020206004+63083+021617FM-12+000999999V0202301N007219999999N0000001N9-00331+99999100741ADDGF108991999999999999999999
0029029110999991926020213004+63083+021617FM-12+000999999V0202701N005119999999N0000001N9-00611+99999100821ADDGF108991999999999999999999
0029029110999991926020220004+63083+021617FM-12+000999999V0209991C000019999999N0000001N9-00441+99999100861ADDGF108991999999999999999999
0035029110999991926020306004+63083+021617FM-12+000999999V0201101N003119999999N0000001N9-00281+99999100921ADDGF108991999999999999999999MW1721
0035029110999991926020313004+63083+021617FM-12+000999999V0200901N007219999999N0000001N9-00331+99999101191ADDGF108991999999999999999999MW1721
0029029110999991926020320004+63083+021617FM-12+000999999V0200901N008719999999N0000001N9-00611+99999101581ADDGF108991999999999999999999
0029029110999991926020406004+63083+021617FM-12+000999999V0200501N005119999999N0000001N9-01441+99999102261ADDGF100991999999999999999999
0029029110999991926020413004+63083+021617FM-12+000999999V0200501N007219999999N0000001N9-01391+99999102701ADDGF100991999999999999999999
0029029110999991926020420004+63083+021617FM-12+000999999V0200901N005119999999N0000001N9-01781+99999103151ADDGF100991999999999999999999
0029029110999991926020506004+63083+021617FM-12+000999999V0200901N005119999999N0000001N9-02441+99999103671ADDGF100991999999999999999999
0029029110999991926020513004+63083+021617FM-12+000999999V0200701N003119999999N0000001N9-02001+99999103951ADDGF100991999999999999999999
0029029110999991926020520004+63083+021617FM-12+000999999V0200901N005119999999N0000001N9-02111+99999104081ADDGF100991999999999999999999
0029029110999991926020606004+63083+021617FM-12+000999999V0200901N002119999999N0000001N9-03061+99999104261ADDGF100991999999999999999999
0029029110999991926020613004+63083+021617FM-12+000999999V0209991C000019999999N0000001N9-02221+99999104281ADDGF100991999999999999999999
0029029110999991926020620004+63083+021617FM-12+000999999V0209991C000019999999N0000001N9-02441+99999104141ADDGF100991999999999999999999
0029029110999991926020706004+63083+021617FM-12+000999999V0200901N003119999999N0000001N9-02281+99999103831ADDGF108991999999999999999999
0029029110999991926020713004+63083+021617FM-12+000999999V0200901N002119999999N0000001N9-01831+99999103721ADDGF100991999999999999999999
0029029110999991926020720004+63083+021617FM-12+000999999V0200901N005119999999N0000001N9-02061+99999103721ADDGF100991999999999999999999
0029029110999991926020806004+63083+021617FM-12+000999999V0200901N003119999999N0000001N9-02221+99999103661ADDGF100991999999999999999999
0029029110999991926020813004+63083+021617FM-12+000999999V0200901N005119999999N0000001N9-01561+99999103621ADDGF100991999999999999999999
0029029110999991926020820004+63083+021617FM-12+000999999V0200901N005119999999N0000001N9-01941+99999103621ADDGF100991999999999999999999
0029029110999991926020906004+63083+021617FM-12+000999999V0200901N005119999999N0000001N9-02061+99999103661ADDGF100991999999999999999999
0029029110999991926020913004+63083+021617FM-12+000999999V0200901N005119999999N0000001N9-01501+99999103561ADDGF100991999999999999999999
0029029110999991926020920004+63083+021617FM-12+000999999V0200901N007219999999N0000001N9-01501+99999103441ADDGF100991999999999999999999
0029029110999991926021006004+63083+021617FM-12+000999999V0200901N005119999999N0000001N9-01831+99999103031ADDGF100991999999999999999999
0035029110999991926021013004+63083+021617FM-12+000999999V0200901N005119999999N0000001N9-01331+99999102711ADDGF108991999999999999999999MW1721
0029029110999991926021020004+63083+021617FM-12+000999999V0200901N003119999999N0000001N9-01111+99999102541ADDGF108991999999999999999999
0035029110999991926021106004+63083+021617FM-12+000999999V0200901N003119999999N0000001N9-01001+99999101681ADDGF108991999999999999999999MW1701
0035029110999991926021113004+63083+021617FM-12+000999999V0200901N003119999999N0000001N9-00831+99999101521ADDGF108991999999999999999999MW1701
0029029110999991926021120004+63083+021617FM-12+000999999V0202301N007219999999N0000001N9-00831+99999101501ADDGF100991999999999999999999
0029029110999991926021206004+63083+021617FM-12+000999999V0201801N005119999999N0000001N9-01331+99999101321ADDGF101991999999999999999999
0029029110999991926021213004+63083+021617FM-12+000999999V0202301N007219999999N0000001N9-00941+99999101401ADDGF100991999999999999999999
0029029110999991926021220004+63083+021617FM-12+000999999V0202001N005119999999N0000001N9-01111+99999101511ADDGF100991999999999999999999
0029029110999991926021306004+63083+021617FM-12+000999999V0201801N005119999999N0000001N9-01331+99999101551ADDGF100991999999999999999999
0029029110999991926021313004+63083+021617FM-12+000999999V0201801N005119999999N0000001N9-00721+99999101561ADDGF100991999999999999999999
0029029110999991926021320004+63083+021617FM-12+000999999V0209991C000019999999N0000001N9-01331+99999101661ADDGF100991999999999999999999
0029029110999991926021406004+63083+021617FM-12+000999999V0201801N002119999999N0000001N9-01331+99999101981ADDGF108991999999999999999999
0029029110999991926021413004+63083+021617FM-12+000999999V0200201N003119999999N0000001N9-01061+99999102271ADDGF108991999999999999999999
0029029110999991926021420004+63083+021617FM-12+000999999V0209991C000019999999N0000001N9-01281+99999102421ADDGF108991999999999999999999
0029029110999991926021506004+63083+021617FM-12+000999999V0202701N007219999999N0000001N9-00561+99999101401ADDGF108991999999999999999999
0029029110999991926021513004+63083+021617FM-12+000999999V0202301N013919999999N0000001N9-00441+99999101111ADDGF108991999999999999999999
0029029110999991926021520004+63083+021617FM-12+000999999V0202501N013919999999N0000001N9-00221+99999100701ADDGF108991999999999999999999
0035029110999991926021606004+63083+021617FM-12+000999999V0201801N018019999999N0000001N9+00001+99999099521ADDGF108991999999999999999999MW1721
0029029110999991926021613004+63083+021617FM-12+000999999V0202301N006219999999N0000001N9+00111+99999099661ADDGF104991999999999999999999
0029029110999991926021620004+63083+021617FM-12+000999999V0202301N003119999999N0000001N9-00111+99999099781ADDGF108991999999999999999999
0029029110999991926021706004+63083+021617FM-12+000999999V0201601N003119999999N0000001N9+00061+99999099751ADDGF108991999999999999999999
0029029110999991926021713004+63083+021617FM-12+000999999V0202301N008719999999N0000001N9+00111+99999099861ADDGF108991999999999999999999
0029029110999991926021720004+63083+021617FM-12+000999999V0201801N003119999999N0000001N9+00001+99999099871ADDGF108991999999999999999999
0029029110999991926021806004+63083+021617FM-12+000999999V0201601N005119999999N0000001N9+00061+99999099161ADDGF108991999999999999999999
0029029110999991926021813004+63083+021617FM-12+000999999V0201101N005119999999N0000001N9+00111+99999098861ADDGF108991999999999999999999
0035029110999991926021820004+63083+021617FM-12+000999999V0209991C000019999999N0000001N9+00001+99999098841ADDGF108991999999999999999999MW1701
0029029110999991926021906004+63083+021617FM-12+000999999V0203601N002119999999N0000001N9-00221+99999099351ADDGF108991999999999999999999
0029029110999991926021913004+63083+021617FM-12+000999999V0203601N007219999999N0000001N9-00501+99999099981ADDGF108991999999999999999999
0029029110999991926021920004+63083+021617FM-12+000999999V0200201N008719999999N0000001N9-01001+99999100681ADDGF108991999999999999999999
0029029110999991926022006004+63083+021617FM-12+000999999V0200201N008719999999N0000001N9-01611+99999101641ADDGF108991999999999999999999
0029029110999991926022013004+63083+021617FM-12+000999999V0200501N004119999999N0000001N9-01391+99999101991ADDGF104991999999999999999999
0029029110999991926022020004+63083+021617FM-12+000999999V0201401N008219999999N0000001N9-00941+99999101681ADDGF108991999999999999999999
0035029110999991926022106004+63083+021617FM-12+000999999V0201801N005119999999N0000001N9-00721+99999101231ADDGF108991999999999999999999MW1721
0035029110999991926022113004+63083+021617FM-12+000999999V0203201N007219999999N0000001N9-01221+99999101301ADDGF108991999999999999999999MW1721
0029029110999991926022120004+63083+021617FM-12+000999999V0203401N007219999999N0000001N9-01611+99999102031ADDGF100991999999999999999999
0029029110999991926022206004+63083+021617FM-12+000999999V0209991C000019999999N0000001N9-02441+99999102581ADDGF100991999999999999999999
0029029110999991926022213004+63083+021617FM-12+000999999V0209991C000019999999N0000001N9-01611+99999102551ADDGF100991999999999999999999
0029029110999991926022220004+63083+021617FM-12+000999999V0201601N006219999999N0000001N9-01671+99999102341ADDGF108991999999999999999999
0035029110999991926022306004+63083+021617FM-12+000999999V0201801N011819999999N0000001N9-01061+99999101821ADDGF108991999999999999999999MW1381
0035029110999991926022313004+63083+021617FM-12+000999999V0202301N015919999999N0000001N9-00671+99999101631ADDGF108991999999999999999999MW1381
0035029110999991926022320004+63083+021617FM-12+000999999V0202301N015919999999N0000001N9-00331+99999101261ADDGF108991999999999999999999MW1381
0029029110999991926022406004+63083+021617FM-12+000999999V0201801N008719999999N0000001N9-00281+99999101071ADDGF108991999999999999999999
0029029110999991926022413004+63083+021617FM-12+000999999V0203201N005119999999N0000001N9+00111+99999101641ADDGF100991999999999999999999
0029029110999991926022420004+63083+021617FM-12+000999999V0203401N005119999999N0000001N9-00441+99999102221ADDGF100991999999999999999999
0029029110999991926022506004+63083+021617FM-12+000999999V0201801N005119999999N0000001N9-00671+99999102481ADDGF101991999999999999999999
0029029110999991926022513004+63083+021617FM-12+000999999V0201801N005119999999N0000001N9-00331+99999102461ADDGF100991999999999999999999
0029029110999991926022520004+63083+021617FM-12+000999999V0202001N011819999999N0000001N9+00111+99999102441ADDGF108991999999999999999999
0029029110999991926022606004+63083+021617FM-12+000999999V0201801N015919999999N0000001N9+00111+99999102271ADDGF108991999999999999999999
0029029110999991926022613004+63083+021617FM-12+000999999V0202301N011819999999N0000001N9+00221+99999102231ADDGF108991999999999999999999
0029029110999991926022620004+63083+021617FM-12+000999999V0202501N026819999999N0000001N9+00221+99999102071ADDGF108991999999999999999999
0035029110999991926022706004+63083+021617FM-12+000999999V0201801N011819999999N0000001N9+00221+99999102401ADDGF108991999999999999999999MW1621
0035029110999991926022713004+63083+021617FM-12+000999999V0202301N006219999999N0000001N9+00111+99999102581ADDGF108991999999999999999999MW1621
0035029110999991926022720004+63083+021617FM-12+000999999V0202001N007219999999N0000001N9+00001+99999102471ADDGF108991999999999999999999MW1621
0035029110999991926022806004+63083+021617FM-12+000999999V0201801N020119999999N0000001N9-00111+99999101671ADDGF108991999999999999999999MW1861
0029029110999991926022813004+63083+021617FM-12+000999999V0202001N008219999999N0000001N9+00001+99999101911ADDGF108991999999999999999999
0029029110999991926022820004+63083+021617FM-12+000999999V0202001N007219999999N0000001N9-00061+99999102161ADDGF108991999999999999999999
0029029110999991926030106004+63083+021617FM-12+000999999V0202001N008719999999N0000001N9-00061+99999101471ADDGF108991999999999999999999
0029029110999991926030113004+63083+021617FM-12+000999999V0202501N023119999999N0000001N9+00001+99999100521ADDGF108991999999999999999999
0029029110999991926030120004+63083+021617FM-12+000999999V0202301N023119999999N0000001N9+00111+99999099621ADDGF108991999999999999999999
0029029110999991926030206004+63083+021617FM-12+000999999V0202301N023119999999N0000001N9+00221+99999098501ADDGF102991999999999999999999
0029029110999991926030213004+63083+021617FM-12+000999999V0202501N007219999999N0000001N9+00001+99999099221ADDGF108991999999999999999999
0035029110999991926030220004+63083+021617FM-12+000999999V0201401N007219999999N0000001N9-00111+99999098121ADDGF108991999999999999999999MW1721
0029029110999991926030306004+63083+021617FM-12+000999999V0202701N015919999999N0000001N9-00611+99999099241ADDGF100991999999999999999999
0029029110999991926030313004+63083+021617FM-12+000999999V0202501N004119999999N0000001N9-00221+99999099041ADDGF108991999999999999999999
0035029110999991926030320004+63083+021617FM-12+000999999V0201101N008719999999N0000001N9-00111+99999097461ADDGF108991999999999999999999MW1721
0029029110999991926030406004+63083+021617FM-12+000999999V0203201N007219999999N0000001N9-00111+99999096431ADDGF108991999999999999999999
0029029110999991926030413004+63083+021617FM-12+000999999V0202501N008719999999N0000001N9+00171+99999096711ADDGF100991999999999999999999
0029029110999991926030420004+63083+021617FM-12+000999999V0202001N005119999999N0000001N9-00331+99999096871ADDGF100991999999999999999999
0029029110999991926030506004+63083+021617FM-12+000999999V0202701N005119999999N0000001N9-00721+99999097821ADDGF102991999999999999999999
0029029110999991926030513004+63083+021617FM-12+000999999V0202701N005119999999N0000001N9-00111+99999098281ADDGF103991999999999999999999
0035029110999991926030520004+63083+021617FM-12+000999999V0202301N007219999999N0000001N9-00391+99999098681ADDGF100991999999999999999999MW1001
0029029110999991926030606004+63083+021617FM-12+000999999V0203601N005119999999N0000001N9-00561+99999098221ADDGF106991999999999999999999
0029029110999991926030613004+63083+021617FM-12+000999999V0202701N004119999999N0000001N9-00441+99999098641ADDGF101991999999999999999999
0029029110999991926030620004+63083+021617FM-12+000999999V0202701N007219999999N0000001N9-00441+99999098871ADDGF100991999999999999999999
0029029110999991926030706004+63083+021617FM-12+000999999V0201801N002119999999N0000001N9-01001+99999099431ADDGF101991999999999999999999
0029029110999991926030713004+63083+021617FM-12+000999999V0202701N002119999999N0000001N9-00671+99999099961ADDGF100991999999999999999999
0029029110999991926030720004+63083+021617FM-12+000999999V0202701N003119999999N0000001N9-00831+99999100261ADDGF100991999999999999999999
0029029110999991926030806004+63083+021617FM-12+000999999V0201401N005119999999N0000001N9-00831+99999100231ADDGF103991999999999999999999
0029029110999991926030813004+63083+021617FM-12+000999999V0201801N004119999999N0000001N9-00111+99999099831ADDGF108991999999999999999999
0029029110999991926030820004+63083+021617FM-12+000999999V0202001N007219999999N0000001N9-00281+99999099661ADDGF100991999999999999999999
0035029110999991926030906004+63083+021617FM-12+000999999V0202001N015919999999N0000001N9+00001+99999097322ADDGF108991999999999999999999MW1721
0029029110999991926030913004+63083+021617FM-12+000999999V0202301N011819999999N0000001N9+00281+99999097671ADDGF100991999999999999999999
0029029110999991926030920004+63083+021617FM-12+000999999V0202501N008719999999N0000001N9+00001+99999097471ADDGF100991999999999999999999
0029029110999991926031006004+63083+021617FM-12+000999999V0203201N005119999999N0000001N9-00391+99999097581ADDGF106991999999999999999999
0029029110999991926031013004+63083+021617FM-12+000999999V0203601N008719999999N0000001N9-00221+99999098621ADDGF108991999999999999999999
0029029110999991926031020004+63083+021617FM-12+000999999V0203201N011819999999N0000001N9-00391+99999099561ADDGF100991999999999999999999
0029029110999991926031106004+63083+021617FM-12+000999999V0202701N005119999999N0000001N9-00891+99999100271ADDGF102991999999999999999999
0029029110999991926031113004+63083+021617FM-12+000999999V0202001N008719999999N0000001N9-00111+99999099511ADDGF108991999999999999999999
0029029110999991926031120004+63083+021617FM-12+000999999V0202501N023119999999N0000001N9-00111+99999097911ADDGF108991999999999999999999
0029029110999991926031206004+63083+021617FM-12+000999999V0202701N007219999999N0000001N9-00781+99999098031ADDGF100991999999999999999999
0029029110999991926031213004+63083+021617FM-12+000999999V0202701N008719999999N0000001N9-00501+99999097961ADDGF100991999999999999999999
0029029110999991926031220004+63083+021617FM-12+000999999V0202701N007219999999N0000001N9-00891+99999098031ADDGF100991999999999999999999
0029029110999991926031306004+63083+021617FM-12+000999999V0203401N007219999999N0000001N9-00721+99999098781ADDGF102991999999999999999999
0029029110999991926031313004+63083+021617FM-12+000999999V0200201N008719999999N0000001N9-00221+99999099341ADDGF108991999999999999999999
0029029110999991926031320004+63083+021617FM-12+000999999V0203201N007219999999N0000001N9-00561+99999099901ADDGF100991999999999999999999
0029029110999991926031406004+63083+021617FM-12+000999999V0203401N008719999999N0000001N9-00721+99999100261ADDGF100991999999999999999999
0029029110999991926031413004+63083+021617FM-12+000999999V0203401N008719999999N0000001N9-00221+99999100391ADDGF103991999999999999999999
0029029110999991926031420004+63083+021617FM-12+000999999V0203201N007219999999N0000001N9-00561+99999100511ADDGF100991999999999999999999
0029029110999991926031506004+63083+021617FM-12+000999999V0203201N008719999999N0000001N9-00721+99999100601ADDGF100991999999999999999999
0029029110999991926031513004+63083+021617FM-12+000999999V0203401N011819999999N0000001N9-00061+99999100861ADDGF100991999999999999999999
0029029110999991926031520004+63083+021617FM-12+000999999V0203401N007219999999N0000001N9-00391+99999101021ADDGF100991999999999999999999
0029029110999991926031606004+63083+021617FM-12+000999999V0203601N005119999999N0000001N9-00391+99999101271ADDGF106991999999999999999999
0029029110999991926031613004+63083+021617FM-12+000999999V0200201N008719999999N0000001N9-00111+99999101421ADDGF100991999999999999999999
0029029110999991926031620004+63083+021617FM-12+000999999V0209991C000019999999N0000001N9-00561+99999101441ADDGF108991999999999999999999
0029029110999991926031706004+63083+021617FM-12+000999999V0201101N005119999999N0000001N9-00831+99999101591ADDGF101991999999999999999999
0029029110999991926031713004+63083+021617FM-12+000999999V0203601N005119999999N0000001N9-00221+99999101981ADDGF100991999999999999999999
0029029110999991926031720004+63083+021617FM-12+000999999V0203601N005119999999N0000001N9-00721+99999101801ADDGF100991999999999999999999
0029029110999991926031806004+63083+021617FM-12+000999999V0200201N007219999999N0000001N9-00831+99999101671ADDGF103991999999999999999999
0029029110999991926031813004+63083+021617FM-12+000999999V0200501N007219999999N0000001N9-00501+99999101661ADDGF106991999999999999999999
0029029110999991926031820004+63083+021617FM-12+000999999V0200201N003119999999N0000001N9-00561+99999101661ADDGF108991999999999999999999
0035029110999991926031906004+63083+021617FM-12+000999999V0200501N007219999999N0000001N9-00331+99999101741ADDGF108991999999999999999999MW1701
0029029110999991926031913004+63083+021617FM-12+000999999V0201101N007219999999N0000001N9-00111+99999102221ADDGF108991999999999999999999
0029029110999991926031920004+63083+021617FM-12+000999999V0209991C000019999999N0000001N9-00721+99999102721ADDGF102991999999999999999999
0029029110999991926032006004+63083+021617FM-12+000999999V0203601N003119999999N0000001N9-00501+99999102601ADDGF108991999999999999999999
0029029110999991926032013004+63083+021617FM-12+000999999V0200201N005119999999N0000001N9-00171+99999102031ADDGF108991999999999999999999
0035029110999991926032020004+63083+021617FM-12+000999999V0200201N011819999999N0000001N9-00221+99999102001ADDGF108991999999999999999999MW1701
0035029110999991926032106004+63083+021617FM-12+000999999V0200201N008719999999N0000001N9-00501+99999102441ADDGF108991999999999999999999MW1701
0029029110999991926032113004+63083+021617FM-12+000999999V0200201N013919999999N0000001N9-00391+99999102561ADDGF108991999999999999999999
0029029110999991926032120004+63083+021617FM-12+000999999V0203601N007219999999N0000001N9-00721+99999102721ADDGF100991999999999999999999
0029029110999991926032206004+63083+021617FM-12+000999999V0209991C000019999999N0000001N9-01001+99999102241ADDGF106991999999999999999999
0029029110999991926032213004+63083+021617FM-12+000999999V0202701N005119999999N0000001N9-00331+99999101961ADDGF100991999999999999999999
0029029110999991926032220004+63083+021617FM-12+000999999V0202301N005119999999N0000001N9-00331+99999101541ADDGF108991999999999999999999
0029029110999991926032306004+63083+021617FM-12+000999999V0202701N003119999999N0000001N9-00501+99999101081ADDGF108991999999999999999999
0029029110999991926032313004+63083+021617FM-12+000999999V0202701N003119999999N0000001N9+00281+99999100821ADDGF100991999999999999999999
0029029110999991926032320004+63083+021617FM-12+000999999V0202701N004119999999N0000001N9-00111+99999100641ADDGF100991999999999999999999
0029029110999991926032406004+63083+021617FM-12+000999999V0203201N018019999999N0000001N9+00061+99999099791ADDGF104991999999999999999999
0029029110999991926032413004+63083+021617FM-12+000999999V0203201N018019999999N0000001N9+00061+99999100241ADDGF100991999999999999999999
0029029110999991926032420004+63083+021617FM-12+000999999V0203401N005119999999N0000001N9-00111+99999100741ADDGF100991999999999999999999
0029029110999991926032506004+63083+021617FM-12+000999999V0203601N007219999999N0000001N9-00561+99999101541ADDGF100991999999999999999999
0029029110999991926032513004+63083+021617FM-12+000999999V0203601N008719999999N0000001N9-00281+99999101871ADDGF100991999999999999999999
0029029110999991926032520004+63083+021617FM-12+000999999V0209991C000019999999N0000001N9-00721+99999101911ADDGF102991999999999999999999
0029029110999991926032606004+63083+021617FM-12+000999999V0202701N005119999999N0000001N9-00721+99999101521ADDGF100991999999999999999999
0029029110999991926032613004+63083+021617FM-12+000999999V0202701N005119999999N0000001N9+00001+99999101551ADDGF100991999999999999999999
0029029110999991926032620004+63083+021617FM-12+000999999V0209991C000019999999N0000001N9-00221+99999101801ADDGF105991999999999999999999
0029029110999991926032706004+63083+021617FM-12+000999999V0201801N007219999999N0000001N9-00561+99999101951ADDGF108991999999999999999999
0029029110999991926032713004+63083+021617FM-12+000999999V0202701N008719999999N0000001N9+00111+99999101641ADDGF100991999999999999999999
0029029110999991926032720004+63083+021617FM-12+000999999V0202301N011819999999N0000001N9-00221+99999101361ADDGF100991999999999999999999
0029029110999991926032806004+63083+021617FM-12+000999999V0202001N007219999999N0000001N9-00441+99999101261ADDGF108991999999999999999999
0029029110999991926032813004+63083+021617FM-12+000999999V0202001N008719999999N0000001N9+00111+99999101101ADDGF108991999999999999999999
0029029110999991926032820004+63083+021617FM-12+000999999V0201801N005119999999N0000001N9+00001+99999101061ADDGF108991999999999999999999
0029029110999991926032906004+63083+021617FM-12+000999999V0201401N007219999999N0000001N9-00221+99999100981ADDGF108991999999999999999999
0029029110999991926032913004+63083+021617FM-12+000999999V0200901N007219999999N0000001N9+00171+99999100941ADDGF108991999999999999999999
0035029110999991926032920004+63083+021617FM-12+000999999V0202301N005119999999N0000001N9-00221+99999100951ADDGF108991999999999999999999MW1701
0035029110999991926033006004+63083+021617FM-12+000999999V0201101N007219999999N0000001N9-00221+99999100591ADDGF108991999999999999999999MW1701
0035029110999991926033013004+63083+021617FM-12+000999999V0201401N007219999999N0000001N9+00001+99999100281ADDGF108991999999999999999999MW1721
0035029110999991926033020004+63083+021617FM-12+000999999V0201601N007219999999N0000001N9-00111+99999100021ADDGF108991999999999999999999MW1741
0035029110999991926033106004+63083+021617FM-12+000999999V0201601N007219999999N0000001N9-00171+99999099221ADDGF108991999999999999999999MW1701
0029029110999991926033113004+63083+021617FM-12+000999999V0202701N005119999999N0000001N9+00001+99999099391ADDGF108991999999999999999999
0029029110999991926033120004+63083+021617FM-12+000999999V0209991C000019999999N0000001N9-00111+99999099751ADDGF108991999999999999999999
0029029110999991926040106004+63083+021617FM-12+000999999V0203201N003119999999N0000001N9-00941+99999100351ADDGF100991999999999999999999
0029029110999991926040113004+63083+021617FM-12+000999999V0203601N005119999999N0000001N9-00111+99999100801ADDGF108991999999999999999999
0035029110999991926040120004+63083+021617FM-12+000999999V0203401N007219999999N0000001N9-00111+99999101431ADDGF108991999999999999999999MW1701
0029029110999991926040206004+63083+021617FM-12+000999999V0200501N005119999999N0000001N9-00331+99999102501ADDGF101991999999999999999999
0029029110999991926040213004+63083+021617FM-12+000999999V0203601N011819999999N0000001N9+00001+99999103081ADDGF100991999999999999999999
0029029110999991926040220004+63083+021617FM-12+000999999V0209991C000019999999N0000001N9-00391+99999103581ADDGF100991999999999999999999
0029029110999991926040306004+63083+021617FM-12+000999999V0200501N005119999999N0000001N9-01001+99999103791ADDGF104991999999999999999999
0029029110999991926040313004+63083+021617FM-12+000999999V0200501N003119999999N0000001N9-00061+99999103501ADDGF100991999999999999999999
0035029110999991926040320004+63083+021617FM-12+000999999V0202501N007219999999N0000001N9-00221+99999102841ADDGF108991999999999999999999MW1721
0029029110999991926040406004+63083+021617FM-12+000999999V0203201N007219999999N0000001N9+00111+99999101861ADDGF108991999999999999999999
0029029110999991926040413004+63083+021617FM-12+000999999V0202701N003119999999N0000001N9+00501+99999101631ADDGF100991999999999999999999
0029029110999991926040420004+63083+021617FM-12+000999999V0202701N003119999999N0000001N9+00331+99999101281ADDGF108991999999999999999999
0035029110999991926040506004+63083+021617FM-12+000999999V0202701N007219999999N0000001N9+00281+99999100471ADDGF108991999999999999999999MW1621
0029029110999991926040513004+63083+021617FM-12+000999999V0202701N007219999999N0000001N9+00441+99999100271ADDGF107991999999999999999999
0029029110999991926040520004+63083+021617FM-12+000999999V0202701N007219999999N0000001N9+00331+99999100281ADDGF108991999999999999999999
0029029110999991926040606004+63083+021617FM-12+000999999V0200501N008719999999N0000001N9+00001+99999100441ADDGF108991999999999999999999
0029029110999991926040613004+63083+021617FM-12+000999999V0200901N011819999999N0000001N9+00001+99999100981ADDGF106991999999999999999999
0029029110999991926040620004+63083+021617FM-12+000999999V0200501N005119999999N0000001N9-00671+99999101911ADDGF100991999999999999999999
0029029110999991926040706004+63083+021617FM-12+000999999V0200501N003119999999N0000001N9-00941+99999102631ADDGF100991999999999999999999
0029029110999991926040713004+63083+021617FM-12+000999999V0203201N003119999999N0000001N9-00221+99999102551ADDGF100991999999999999999999
0029029110999991926040720004+63083+021617FM-12+000999999V0202301N005119999999N0000001N9-00611+99999102121ADDGF100991999999999999999999
0035029110999991926040806004+63083+021617FM-12+000999999V0201801N008719999999N0000001N9-00501+99999101471ADDGF108991999999999999999999MW1721
0029029110999991926040813004+63083+021617FM-12+000999999V0201801N008219999999N0000001N9-00111+99999101001ADDGF108991999999999999999999
0035029110999991926040820004+63083+021617FM-12+000999999V0201801N007219999999N0000001N9-00221+99999100661ADDGF108991999999999999999999MW1721
0029029110999991926040906004+63083+021617FM-12+000999999V0201801N007219999999N0000001N9-00221+99999100281ADDGF108991999999999999999999
0029029110999991926040913004+63083+021617FM-12+000999999V0202501N007219999999N0000001N9+00061+99999100181ADDGF108991999999999999999999
0029029110999991926040920004+63083+021617FM-12+000999999V0202501N008719999999N0000001N9+00001+99999100121ADDGF108991999999999999999999
0035029110999991926041006004+63083+021617FM-12+000999999V0201801N011819999999N0000001N9+00001+99999099991ADDGF108991999999999999999999MW1601
0029029110999991926041013004+63083+021617FM-12+000999999V0203601N006219999999N0000001N9+00221+99999100261ADDGF102991999999999999999999
0029029110999991926041020004+63083+021617FM-12+000999999V0203401N003119999999N0000001N9-00061+99999100591ADDGF106991999999999999999999
0029029110999991926041106004+63083+021617FM-12+000999999V0203601N003119999999N0000001N9-00721+99999100981ADDGF101991999999999999999999
0029029110999991926041113004+63083+021617FM-12+000999999V0202501N008219999999N0000001N9+00001+99999100921ADDGF100991999999999999999999
0029029110999991926041120004+63083+021617FM-12+000999999V0202301N008719999999N0000001N9-00061+99999100591ADDGF102991999999999999999999
0029029110999991926041206004+63083+021617FM-12+000999999V0203401N007219999999N0000001N9-00111+99999100461ADDGF106991999999999999999999
0029029110999991926041213004+63083+021617FM-12+000999999V0203201N005119999999N0000001N9+00001+99999100941ADDGF100991999999999999999999
0029029110999991926041220004+63083+021617FM-12+000999999V0202501N005119999999N0000001N9-00331+99999100911ADDGF102991999999999999999999
0035029110999991926041306004+63083+021617FM-12+000999999V0201801N003119999999N0000001N9-00221+99999100701ADDGF108991999999999999999999MW1721
0029029110999991926041313004+63083+021617FM-12+000999999V0203601N007219999999N0000001N9+00001+99999100841ADDGF106991999999999999999999
0029029110999991926041320004+63083+021617FM-12+000999999V0202701N003119999999N0000001N9-00441+99999101111ADDGF108991999999999999999999
0029029110999991926041406004+63083+021617FM-12+000999999V0202901N003119999999N0000001N9-00721+99999101401ADDGF101991999999999999999999
0029029110999991926041413004+63083+021617FM-12+000999999V0202701N002119999999N0000001N9+00001+99999101461ADDGF100991999999999999999999
0029029110999991926041420004+63083+021617FM-12+000999999V0209991C000019999999N0000001N9-00331+99999101391ADDGF100991999999999999999999
0029029110999991926041506004+63083+021617FM-12+000999999V0203201N005119999999N0000001N9-00441+99999101471ADDGF108991999999999999999999
0029029110999991926041513004+63083+021617FM-12+000999999V0201601N003119999999N0000001N9+00001+99999101461ADDGF108991999999999999999999
0035029110999991926041520004+63083+021617FM-12+000999999V0200901N008219999999N0000001N9-00111+99999101121ADDGF108991999999999999999999MW1721
0035029110999991926041606004+63083+021617FM-12+000999999V0201101N007219999999N0000001N9+00001+99999100201ADDGF108991999999999999999999MW1621
0029029110999991926041613004+63083+021617FM-12+000999999V0200901N005119999999N0000001N9+00111+99999100101ADDGF108991999999999999999999
0035029110999991926041620004+63083+021617FM-12+000999999V0209991C000019999999N0000001N9+00221+99999100231ADDGF108991999999999999999999MW1721
0029029110999991926041706004+63083+021617FM-12+000999999V0203601N003119999999N0000001N9+00001+99999100241ADDGF108991999999999999999999
0029029110999991926041713004+63083+021617FM-12+000999999V0203601N003119999999N0000001N9+00111+99999100641ADDGF108991999999999999999999
0029029110999991926041720004+63083+021617FM-12+000999999V0203601N002119999999N0000001N9+00001+99999100801ADDGF108991999999999999999999
0029029110999991926041806004+63083+021617FM-12+000999999V0200701N007219999999N0000001N9-00221+99999100781ADDGF108991999999999999999999
0029029110999991926041813004+63083+021617FM-12+000999999V0200501N007219999999N0000001N9+00111+99999100561ADDGF105991999999999999999999
0029029110999991926041820004+63083+021617FM-12+000999999V0200501N003119999999N0000001N9+00001+99999100351ADDGF108991999999999999999999
0029029110999991926041906004+63083+021617FM-12+000999999V0200901N007219999999N0000001N9+00221+99999100201ADDGF106991999999999999999999
0035029110999991926041913004+63083+021617FM-12+000999999V0209991C000019999999N0000001N9+00331+99999099901ADDGF108991999999999999999999MW1621
0029029110999991926041920004+63083+021617FM-12+000999999V0209991C000019999999N0000001N9+00061+99999099941ADDGF108991999999999999999999
0029029110999991926042006004+63083+021617FM-12+000999999V0202901N005119999999N0000001N9-00221+99999100261ADDGF102991999999999999999999
0029029110999991926042013004+63083+021617FM-12+000999999V0202901N005119999999N0000001N9+00221+99999100401ADDGF102991999999999999999999
0029029110999991926042020004+63083+021617FM-12+000999999V0200201N003119999999N0000001N9-00061+99999100431ADDGF100991999999999999999999
0035029110999991926042106004+63083+021617FM-12+000999999V0209991C000019999999N0000001N9+00061+99999100421ADDGF108991999999999999999999MW1621
0035029110999991926042113004+63083+021617FM-12+000999999V0200901N002119999999N0000001N9+00561+99999100351ADDGF108991999999999999999999MW1621
0035029110999991926042120004+63083+021617FM-12+000999999V0209991C000019999999N0000001N9+00331+99999100381ADDGF108991999999999999999999MW1621
0029029110999991926042206004+63083+021617FM-12+000999999V0200901N007219999999N0000001N9+00331+99999099981ADDGF108991999999999999999999
0035029110999991926042213004+63083+021617FM-12+000999999V0200901N007219999999N0000001N9+00441+99999099871ADDGF108991999999999999999999MW1621
0029029110999991926042220004+63083+021617FM-12+000999999V0201801N007219999999N0000001N9+00221+99999100341ADDGF108991999999999999999999
0029029110999991926042306004+63083+021617FM-12+000999999V0201101N008719999999N0000001N9+00331+99999101201ADDGF103991999999999999999999
0029029110999991926042313004+63083+021617FM-12+000999999V0209991C000019999999N0000001N9+00281+99999101591ADDGF108991999999999999999999
0029029110999991926042320004+63083+021617FM-12+000999999V0203401N004119999999N0000001N9+00111+99999101831ADDGF108991999999999999999999
0035029110999991926042406004+63083+021617FM-12+000999999V0209991C000019999999N0000001N9+00111+99999102181ADDGF108991999999999999999999MW1721
0029029110999991926042413004+63083+021617FM-12+000999999V0202701N003119999999N0000001N9+00111+99999102381ADDGF108991999999999999999999
0029029110999991926042420004+63083+021617FM-12+000999999V0209991C000019999999N0000001N9+00061+99999102561ADDGF108991999999999999999999
0029029110999991926042506004+63083+021617FM-12+000999999V0209991C000019999999N0000001N9+00001+99999102861ADDGF102991999999999999999999
0029029110999991926042513004+63083+021617FM-12+000999999V0202901N002119999999N0000001N9+00221+99999102961ADDGF100991999999999999999999
0029029110999991926042520004+63083+021617FM-12+000999999V0209991C000019999999N0000001N9+00001+99999103001ADDGF100991999999999999999999
0029029110999991926042606004+63083+021617FM-12+000999999V0209991C000019999999N0000001N9-00221+99999103151ADDGF100991999999999999999999
0029029110999991926042613004+63083+021617FM-12+000999999V0203201N003119999999N0000001N9-00611+99999103151ADDGF100991999999999999999999
0029029110999991926042620004+63083+021617FM-12+000999999V0203601N002119999999N0000001N9+00221+99999103141ADDGF100991999999999999999999
0029029110999991926042706004+63083+021617FM-12+000999999V0202701N003119999999N0000001N9+00061+99999103361ADDGF100991999999999999999999
0029029110999991926042713004+63083+021617FM-12+000999999V0200201N007219999999N0000001N9+00831+99999103321ADDGF100991999999999999999999
0029029110999991926042720004+63083+021617FM-12+000999999V0200701N005119999999N0000001N9+00441+99999103261ADDGF100991999999999999999999
0029029110999991926042806004+63083+021617FM-12+000999999V0200701N003119999999N0000001N9+00111+99999103401ADDGF100991999999999999999999
0029029110999991926042813004+63083+021617FM-12+000999999V0202901N003119999999N0000001N9+00721+99999103151ADDGF100991999999999999999999
0029029110999991926042820004+63083+021617FM-12+000999999V0209991C000019999999N0000001N9+00221+99999102881ADDGF100991999999999999999999
0029029110999991926042906004+63083+021617FM-12+000999999V0209991C000019999999N0000001N9+00171+99999102661ADDGF100991999999999999999999
0029029110999991926042913004+63083+021617FM-12+000999999V0202301N007219999999N0000001N9+00671+99999102511ADDGF100991999999999999999999
0029029110999991926042920004+63083+021617FM-12+000999999V0202301N004119999999N0000001N9+00221+99999102241ADDGF100991999999999999999999
0029029110999991926043006004+63083+021617FM-12+000999999V0201601N007219999999N0000001N9+00391+99999102101ADDGF100991999999999999999999
0029029110999991926043013004+63083+021617FM-12+000999999V0202301N005119999999N0000001N9+00941+99999102111ADDGF100991999999999999999999
0029029110999991926043020004+63083+021617FM-12+000999999V0209991C000019999999N0000001N9+00441+99999102061ADDGF100991999999999999999999
0029029110999991926050106004+63083+021617FM-12+000999999V0200501N003119999999N0000001N9+00331+99999999999ADDGF102991999999999999999999
0029029110999991926050113004+63083+021617FM-12+000999999V0200201N007219999999N0000001N9+00781+99999999999ADDGF103991999999999999999999
0029029110999991926050120004+63083+021617FM-12+000999999V0203601N007219999999N0000001N9+00281+99999999999ADDGF102991999999999999999999
0029029110999991926050206004+63083+021617FM-12+000999999V0203601N007219999999N0000001N9+00221+99999999999ADDGF102991999999999999999999
0029029110999991926050213004+63083+021617FM-12+000999999V0200201N011819999999N0000001N9+00441+99999999999ADDGF103991999999999999999999
0029029110999991926050220004+63083+021617FM-12+000999999V0200201N007219999999N0000001N9+00111+99999999999ADDGF102991999999999999999999
0029029110999991926050306004+63083+021617FM-12+000999999V0203601N005119999999N0000001N9+00221+99999999999ADDGF102991999999999999999999
0029029110999991926050313004+63083+021617FM-12+000999999V0203601N008719999999N0000001N9+00501+99999999999ADDGF103991999999999999999999
0029029110999991926050320004+63083+021617FM-12+000999999V0203601N004119999999N0000001N9+00111+99999999999ADDGF102991999999999999999999
0029029110999991926050406004+63083+021617FM-12+000999999V0200501N005119999999N0000001N9+00111+99999999999ADDGF102991999999999999999999
0029029110999991926050413004+63083+021617FM-12+000999999V0200501N003119999999N0000001N9+00721+99999999999ADDGF103991999999999999999999
0029029110999991926050420004+63083+021617FM-12+000999999V0201101N005119999999N0000001N9+00441+99999999999ADDGF103991999999999999999999
0029029110999991926050506004+63083+021617FM-12+000999999V0201601N007219999999N0000001N9+00111+99999999999ADDGF102991999999999999999999
0029029110999991926050513004+63083+021617FM-12+000999999V0202901N005119999999N0000001N9+00281+99999999999ADDGF102991999999999999999999
0029029110999991926050520004+63083+021617FM-12+000999999V0201101N007219999999N0000001N9+00281+99999999999ADDGF102991999999999999999999
0029029110999991926050606004+63083+021617FM-12+000999999V0201101N008719999999N0000001N9+00001+99999999999ADDGF102991999999999999999999
0029029110999991926050613004+63083+021617FM-12+000999999V0201601N005119999999N0000001N9+00561+99999999999ADDGF103991999999999999999999
0029029110999991926050620004+63083+021617FM-12+000999999V0200901N005119999999N0000001N9+00331+99999999999ADDGF102991999999999999999999
0029029110999991926050706004+63083+021617FM-12+000999999V0201101N007219999999N0000001N9+00111+99999999999ADDGF102991999999999999999999
0029029110999991926050713004+63083+021617FM-12+000999999V0200901N007219999999N0000001N9+00221+99999999999ADDGF102991999999999999999999
0029029110999991926050720004+63083+021617FM-12+000999999V0200901N003119999999N0000001N9+00111+99999999999ADDGF102991999999999999999999
0029029110999991926050806004+63083+021617FM-12+000999999V0209991C000019999999N0000001N9+00221+99999999999ADDGF102991999999999999999999
0029029110999991926050813004+63083+021617FM-12+000999999V0200701N003119999999N0000001N9+00501+99999999999ADDGF103991999999999999999999
0029029110999991926050820004+63083+021617FM-12+000999999V0209991C000019999999N0000001N9+00441+99999999999ADDGF103991999999999999999999
0029029110999991926050906004+63083+021617FM-12+000999999V0200901N005119999999N0000001N9+00391+99999999999ADDGF102991999999999999999999
0029029110999991926050913004+63083+021617FM-12+000999999V0200901N007219999999N0000001N9+00611+99999999999ADDGF103991999999999999999999
0029029110999991926050920004+63083+021617FM-12+000999999V0200701N005119999999N0000001N9+00441+99999999999ADDGF103991999999999999999999
0029029110999991926051006004+63083+021617FM-12+000999999V0200901N007219999999N0000001N9+00441+99999999999ADDGF103991999999999999999999
0029029110999991926051013004+63083+021617FM-12+000999999V0200901N008719999999N0000001N9+01001+99999999999ADDGF104991999999999999999999
0029029110999991926051020004+63083+021617FM-12+000999999V0200901N003119999999N0000001N9+00611+99999999999ADDGF103991999999999999999999
0029029110999991926051106004+63083+021617FM-12+000999999V0200901N005119999999N0000001N9+00501+99999999999ADDGF103991999999999999999999
0029029110999991926051113004+63083+021617FM-12+000999999V0200901N008719999999N0000001N9+01001+99999999999ADDGF104991999999999999999999
0029029110999991926051120004+63083+021617FM-12+000999999V0203201N003119999999N0000001N9+00441+99999999999ADDGF103991999999999999999999
0029029110999991926051206004+63083+021617FM-12+000999999V0202501N005119999999N0000001N9+00281+99999999999ADDGF102991999999999999999999
0029029110999991926051213004+63083+021617FM-12+000999999V0202501N003119999999N0000001N9+00611+99999999999ADDGF103991999999999999999999
0029029110999991926051220004+63083+021617FM-12+000999999V0209991C000019999999N0000001N9+00721+99999999999ADDGF103991999999999999999999
0029029110999991926051306004+63083+021617FM-12+000999999V0201601N008719999999N0000001N9+00781+99999999999ADDGF103991999999999999999999
0029029110999991926051313004+63083+021617FM-12+000999999V0202501N011819999999N0000001N9+00781+99999999999ADDGF103991999999999999999999
0029029110999991926051320004+63083+021617FM-12+000999999V0202301N005119999999N0000001N9+00561+99999999999ADDGF103991999999999999999999
0029029110999991926051406004+63083+021617FM-12+000999999V0201601N005119999999N0000001N9+00721+99999999999ADDGF103991999999999999999999
0029029110999991926051413004+63083+021617FM-12+000999999V0202901N005119999999N0000001N9+00831+99999999999ADDGF103991999999999999999999
0029029110999991926051420004+63083+021617FM-12+000999999V0201401N005119999999N0000001N9+00891+99999999999ADDGF103991999999999999999999
0029029110999991926051506004+63083+021617FM-12+000999999V0201601N008719999999N0000001N9+00721+99999999999ADDGF103991999999999999999999
0029029110999991926051513004+63083+021617FM-12+000999999V0202001N008719999999N0000001N9+01001+99999999999ADDGF104991999999999999999999
0029029110999991926051520004+63083+021617FM-12+000999999V0202301N007219999999N0000001N9+00561+99999999999ADDGF103991999999999999999999
0029029110999991926051606004+63083+021617FM-12+000999999V0201801N002119999999N0000001N9+00441+99999999999ADDGF103991999999999999999999
0029029110999991926051613004+63083+021617FM-12+000999999V0203201N005119999999N0000001N9+01061+99999999999ADDGF104991999999999999999999
0029029110999991926051620004+63083+021617FM-12+000999999V0200201N005119999999N0000001N9+00721+99999999999ADDGF103991999999999999999999
0029029110999991926051706004+63083+021617FM-12+000999999V0200501N005119999999N0000001N9+00611+99999999999ADDGF103991999999999999999999
0029029110999991926051713004+63083+021617FM-12+000999999V0203601N007219999999N0000001N9+00611+99999999999ADDGF103991999999999999999999
0029029110999991926051720004+63083+021617FM-12+000999999V0200901N007219999999N0000001N9+00611+99999999999ADDGF103991999999999999999999
0029029110999991926051806004+63083+021617FM-12+000999999V0201801N005119999999N0000001N9+00671+99999999999ADDGF103991999999999999999999
0029029110999991926051813004+63083+021617FM-12+000999999V0202701N007219999999N0000001N9+00721+99999999999ADDGF103991999999999999999999
0029029110999991926051820004+63083+021617FM-12+000999999V0202301N003119999999N0000001N9+00441+99999999999ADDGF103991999999999999999999
0029029110999991926051906004+63083+021617FM-12+000999999V0200501N007219999999N0000001N9+00501+99999999999ADDGF103991999999999999999999
0029029110999991926051913004+63083+021617FM-12+000999999V0200501N007219999999N0000001N9+00561+99999999999ADDGF103991999999999999999999
0029029110999991926051920004+63083+021617FM-12+000999999V0200501N007219999999N0000001N9+00501+99999999999ADDGF103991999999999999999999
0029029110999991926052006004+63083+021617FM-12+000999999V0200901N003119999999N0000001N9+00831+99999999999ADDGF103991999999999999999999
0029029110999991926052013004+63083+021617FM-12+000999999V0200901N007219999999N0000001N9+01671+99999999999ADDGF105991999999999999999999
0029029110999991926052020004+63083+021617FM-12+000999999V0200901N008719999999N0000001N9+01331+99999999999ADDGF104991999999999999999999
0029029110999991926052106004+63083+021617FM-12+000999999V0200901N008719999999N0000001N9+01171+99999999999ADDGF104991999999999999999999
0029029110999991926052113004+63083+021617FM-12+000999999V0200901N005119999999N0000001N9+00831+99999999999ADDGF103991999999999999999999
0029029110999991926052120004+63083+021617FM-12+000999999V0202501N005119999999N0000001N9+00831+99999999999ADDGF103991999999999999999999
0029029110999991926052206004+63083+021617FM-12+000999999V0202701N003119999999N0000001N9+00611+99999999999ADDGF103991999999999999999999
0029029110999991926052213004+63083+021617FM-12+000999999V0202501N005119999999N0000001N9+00891+99999999999ADDGF103991999999999999999999
0029029110999991926052220004+63083+021617FM-12+000999999V0202901N005119999999N0000001N9+00611+99999999999ADDGF103991999999999999999999
0029029110999991926052306004+63083+021617FM-12+000999999V0209991C000019999999N0000001N9+00501+99999999999ADDGF103991999999999999999999
0029029110999991926052313004+63083+021617FM-12+000999999V0209991C000019999999N0000001N9+01331+99999999999ADDGF104991999999999999999999
0029029110999991926052320004+63083+021617FM-12+000999999V0200201N003119999999N0000001N9+01111+99999999999ADDGF104991999999999999999999
0029029110999991926052406004+63083+021617FM-12+000999999V0200201N007219999999N0000001N9+00721+99999999999ADDGF103991999999999999999999
0029029110999991926052413004+63083+021617FM-12+000999999V0203201N003119999999N0000001N9+01111+99999999999ADDGF104991999999999999999999
0029029110999991926052420004+63083+021617FM-12+000999999V0209991C000019999999N0000001N9+00891+99999999999ADDGF103991999999999999999999
0029029110999991926052506004+63083+021617FM-12+000999999V0200501N008719999999N0000001N9+00391+99999999999ADDGF102991999999999999999999
0029029110999991926052513004+63083+021617FM-12+000999999V0203601N007219999999N0000001N9+00721+99999999999ADDGF103991999999999999999999
0029029110999991926052520004+63083+021617FM-12+000999999V0200501N003119999999N0000001N9+00611+99999999999ADDGF103991999999999999999999
0029029110999991926052606004+63083+021617FM-12+000999999V0200501N005119999999N0000001N9+00441+99999999999ADDGF103991999999999999999999
0029029110999991926052613004+63083+021617FM-12+000999999V0203601N005119999999N0000001N9+00781+99999999999ADDGF103991999999999999999999
0029029110999991926052620004+63083+021617FM-12+000999999V0209991C000019999999N0000001N9+00611+99999999999ADDGF103991999999999999999999
0029029110999991926052706004+63083+021617FM-12+000999999V0203601N007219999999N0000001N9+00441+99999999999ADDGF103991999999999999999999
0029029110999991926052713004+63083+021617FM-12+000999999V0203201N005119999999N0000001N9+00721+99999999999ADDGF103991999999999999999999
0029029110999991926052720004+63083+021617FM-12+000999999V0209991C000019999999N0000001N9+00611+99999999999ADDGF103991999999999999999999
0029029110999991926052806004+63083+021617FM-12+000999999V0200901N003119999999N0000001N9+00391+99999999999ADDGF102991999999999999999999
0029029110999991926052813004+63083+021617FM-12+000999999V0200901N005119999999N0000001N9+00671+99999999999ADDGF103991999999999999999999
0029029110999991926052820004+63083+021617FM-12+000999999V0200501N002119999999N0000001N9+00611+99999999999ADDGF103991999999999999999999
0029029110999991926052906004+63083+021617FM-12+000999999V0200901N007219999999N0000001N9+00611+99999999999ADDGF103991999999999999999999
0029029110999991926052913004+63083+021617FM-12+000999999V0200901N009819999999N0000001N9+01391+99999999999ADDGF104991999999999999999999
0029029110999991926052920004+63083+021617FM-12+000999999V0201101N008219999999N0000001N9+01221+99999999999ADDGF104991999999999999999999
0029029110999991926053006004+63083+021617FM-12+000999999V0201401N008719999999N0000001N9+01001+99999999999ADDGF104991999999999999999999
0029029110999991926053013004+63083+021617FM-12+000999999V0209991C000019999999N0000001N9+01501+99999999999ADDGF104991999999999999999999
0029029110999991926053020004+63083+021617FM-12+000999999V0201101N007219999999N0000001N9+01501+99999999999ADDGF104991999999999999999999
0029029110999991926053106004+63083+021617FM-12+000999999V0209991C000019999999N0000001N9+01001+99999999999ADDGF104991999999999999999999
0029029110999991926053113004+63083+021617FM-12+000999999V0201801N005119999999N0000001N9+01721+99999999999ADDGF105991999999999999999999
0029029110999991926053120004+63083+021617FM-12+000999999V0201401N007219999999N0000001N9+01611+99999999999ADDGF105991999999999999999999
0029029110999991926060106004+63083+021617FM-12+000999999V0201801N009819999999N0000001N9+01111+99999100501ADDGF106991999999999999999999
0029029110999991926060113004+63083+021617FM-12+000999999V0202301N008719999999N0000001N9+01501+99999100761ADDGF106991999999999999999999
0035029110999991926060120004+63083+021617FM-12+000999999V0202301N003119999999N0000001N9+01221+99999100761ADDGF108991999999999999999999MW1621
0029029110999991926060206004+63083+021617FM-12+000999999V0200501N001019999999N0000001N9+01001+99999100261ADDGF108991999999999999999999
0029029110999991926060213004+63083+021617FM-12+000999999V0202501N008719999999N0000001N9+01331+99999100911ADDGF103991999999999999999999
0029029110999991926060220004+63083+021617FM-12+000999999V0202301N007219999999N0000001N9+01221+99999101181ADDGF100991999999999999999999
0029029110999991926060306004+63083+021617FM-12+000999999V0209991C000019999999N0000001N9+01111+99999101521ADDGF101991999999999999999999
0029029110999991926060313004+63083+021617FM-12+000999999V0202501N007219999999N0000001N9+01611+99999101621ADDGF100991999999999999999999
0029029110999991926060320004+63083+021617FM-12+000999999V0209991C000019999999N0000001N9+01221+99999101631ADDGF100991999999999999999999
0029029110999991926060406004+63083+021617FM-12+000999999V0200701N001019999999N0000001N9+01221+99999101591ADDGF108991999999999999999999
0029029110999991926060413004+63083+021617FM-12+000999999V0200201N006219999999N0000001N9+01331+99999101681ADDGF108991999999999999999999
0029029110999991926060420004+63083+021617FM-12+000999999V0209991C000019999999N0000001N9+01331+99999101761ADDGF108991999999999999999999
0029029110999991926060506004+63083+021617FM-12+000999999V0200201N005119999999N0000001N9+01331+99999101901ADDGF104991999999999999999999
0029029110999991926060513004+63083+021617FM-12+000999999V0200201N007219999999N0000001N9+01831+99999101921ADDGF100991999999999999999999
0029029110999991926060520004+63083+021617FM-12+000999999V0200501N001019999999N0000001N9+01561+99999101921ADDGF100991999999999999999999
0029029110999991926060606004+63083+021617FM-12+000999999V0200901N002119999999N0000001N9+01781+99999101881ADDGF100991999999999999999999
0029029110999991926060613004+63083+021617FM-12+000999999V0203601N007219999999N0000001N9+02221+99999101841ADDGF100991999999999999999999
0029029110999991926060620004+63083+021617FM-12+000999999V0200201N002119999999N0000001N9+01721+99999101761ADDGF100991999999999999999999
0029029110999991926060706004+63083+021617FM-12+000999999V0209991C000019999999N0000001N9+01501+99999101681ADDGF100991999999999999999999
0029029110999991926060713004+63083+021617FM-12+000999999V0203201N002119999999N0000001N9+02061+99999101501ADDGF100991999999999999999999
0029029110999991926060720004+63083+021617FM-12+000999999V0209991C000019999999N0000001N9+01721+99999101321ADDGF100991999999999999999999
0029029110999991926060806004+63083+021617FM-12+000999999V0200501N007219999999N0000001N9+01441+99999101181ADDGF100991999999999999999999
0029029110999991926060813004+63083+021617FM-12+000999999V0200501N011819999999N0000001N9+01221+99999101301ADDGF100991999999999999999999
0029029110999991926060820004+63083+021617FM-12+000999999V0200501N008719999999N0000001N9+01061+99999101261ADDGF100991999999999999999999
0029029110999991926060906004+63083+021617FM-12+000999999V0200701N008719999999N0000001N9+00941+99999101601ADDGF108991999999999999999999
0029029110999991926060913004+63083+021617FM-12+000999999V0200501N008719999999N0000001N9+01221+99999101721ADDGF100991999999999999999999
0029029110999991926060920004+63083+021617FM-12+000999999V0200201N001019999999N0000001N9+01001+99999101721ADDGF100991999999999999999999
0029029110999991926061006004+63083+021617FM-12+000999999V0201101N005119999999N0000001N9+00891+99999101901ADDGF100991999999999999999999
0029029110999991926061013004+63083+021617FM-12+000999999V0201601N003119999999N0000001N9+01501+99999101801ADDGF100991999999999999999999
0029029110999991926061020004+63083+021617FM-12+000999999V0201401N001019999999N0000001N9+01391+99999101721ADDGF100991999999999999999999
0029029110999991926061106004+63083+021617FM-12+000999999V0201401N003119999999N0000001N9+01001+99999101921ADDGF100991999999999999999999
0029029110999991926061113004+63083+021617FM-12+000999999V0200901N003119999999N0000001N9+01671+99999101801ADDGF100991999999999999999999
0029029110999991926061120004+63083+021617FM-12+000999999V0201601N005119999999N0000001N9+01441+99999101741ADDGF100991999999999999999999
0029029110999991926061206004+63083+021617FM-12+000999999V0201401N005119999999N0000001N9+01111+99999101981ADDGF100991999999999999999999
0029029110999991926061213004+63083+021617FM-12+000999999V0203401N005119999999N0000001N9+01611+99999101881ADDGF100991999999999999999999
0029029110999991926061220004+63083+021617FM-12+000999999V0203601N003119999999N0000001N9+01221+99999101901ADDGF100991999999999999999999
0029029110999991926061306004+63083+021617FM-12+000999999V0209991C000019999999N0000001N9+01281+99999102111ADDGF100991999999999999999999
0029029110999991926061313004+63083+021617FM-12+000999999V0202701N005119999999N0000001N9+01441+99999102121ADDGF100991999999999999999999
0029029110999991926061320004+63083+021617FM-12+000999999V0202701N002119999999N0000001N9+01221+99999102101ADDGF100991999999999999999999
0029029110999991926061406004+63083+021617FM-12+000999999V0209991C000019999999N0000001N9+01221+99999102041ADDGF100991999999999999999999
0029029110999991926061413004+63083+021617FM-12+000999999V0202701N003119999999N0000001N9+01561+99999101861ADDGF100991999999999999999999
0029029110999991926061420004+63083+021617FM-12+000999999V0202901N002119999999N0000001N9+01331+99999101631ADDGF102991999999999999999999
0029029110999991926061506004+63083+021617FM-12+000999999V0202701N005119999999N0000001N9+01221+99999101321ADDGF107991999999999999999999
0029029110999991926061513004+63083+021617FM-12+000999999V0202301N003119999999N0000001N9+01611+99999101111ADDGF104991999999999999999999
0029029110999991926061520004+63083+021617FM-12+000999999V0209991C000019999999N0000001N9+01391+99999100961ADDGF100991999999999999999999
0029029110999991926061606004+63083+021617FM-12+000999999V0200501N015919999999N0000001N9+00941+99999100951ADDGF106991999999999999999999
0029029110999991926061613004+63083+021617FM-12+000999999V0200201N020119999999N0000001N9+01001+99999100941ADDGF100991999999999999999999
0029029110999991926061620004+63083+021617FM-12+000999999V0200201N008719999999N0000001N9+00941+99999100881ADDGF100991999999999999999999
0029029110999991926061706004+63083+021617FM-12+000999999V0200501N013919999999N0000001N9+00611+99999100761ADDGF100991999999999999999999
0029029110999991926061713004+63083+021617FM-12+000999999V0203601N013919999999N0000001N9+00671+99999100801ADDGF100991999999999999999999
0029029110999991926061720004+63083+021617FM-12+000999999V0200501N007219999999N0000001N9+00561+99999100621ADDGF100991999999999999999999
0029029110999991926061806004+63083+021617FM-12+000999999V0203601N007219999999N0000001N9+00671+99999100471ADDGF108991999999999999999999
0029029110999991926061813004+63083+021617FM-12+000999999V0200201N008719999999N0000001N9+00721+99999100471ADDGF108991999999999999999999
0029029110999991926061820004+63083+021617FM-12+000999999V0203401N003119999999N0000001N9+00561+99999100561ADDGF108991999999999999999999
0029029110999991926061906004+63083+021617FM-12+000999999V0203601N007219999999N0000001N9+00671+99999100381ADDGF105991999999999999999999
0029029110999991926061913004+63083+021617FM-12+000999999V0202301N011819999999N0000001N9+01001+99999100301ADDGF106991999999999999999999
0029029110999991926061920004+63083+021617FM-12+000999999V0202301N008719999999N0000001N9+01111+99999100161ADDGF100991999999999999999999
0029029110999991926062006004+63083+021617FM-12+000999999V0203201N007219999999N0000001N9+00941+99999100311ADDGF100991999999999999999999
0029029110999991926062013004+63083+021617FM-12+000999999V0203201N007219999999N0000001N9+01111+99999100391ADDGF100991999999999999999999
0029029110999991926062020004+63083+021617FM-12+000999999V0202701N003119999999N0000001N9+00891+99999100461ADDGF100991999999999999999999
0029029110999991926062106004+63083+021617FM-12+000999999V0200701N002119999999N0000001N9+00831+99999100581ADDGF100991999999999999999999
0029029110999991926062113004+63083+021617FM-12+000999999V0203201N005119999999N0000001N9+01331+99999100541ADDGF100991999999999999999999
0029029110999991926062120004+63083+021617FM-12+000999999V0203201N002119999999N0000001N9+01111+99999100431ADDGF106991999999999999999999
0035029110999991926062206004+63083+021617FM-12+000999999V0200501N003119999999N0000001N9+00941+99999100071ADDGF108991999999999999999999MW1601
0029029110999991926062213004+63083+021617FM-12+000999999V0203401N003119999999N0000001N9+01221+99999100191ADDGF108991999999999999999999
0029029110999991926062220004+63083+021617FM-12+000999999V0203601N005119999999N0000001N9+01061+99999100281ADDGF108991999999999999999999
0029029110999991926062306004+63083+021617FM-12+000999999V0200901N005119999999N0000001N9+01111+99999100101ADDGF108991999999999999999999
0035029110999991926062313004+63083+021617FM-12+000999999V0200501N005119999999N0000001N9+01171+99999099841ADDGF108991999999999999999999MW1641
0029029110999991926062320004+63083+021617FM-12+000999999V0202301N008719999999N0000001N9+00941+99999099981ADDGF108991999999999999999999
0029029110999991926062406004+63083+021617FM-12+000999999V0202001N007219999999N0000001N9+01001+99999100301ADDGF108991999999999999999999
0029029110999991926062413004+63083+021617FM-12+000999999V0202001N009819999999N0000001N9+01281+99999100781ADDGF100991999999999999999999
0029029110999991926062420004+63083+021617FM-12+000999999V0202501N003119999999N0000001N9+01221+99999101021ADDGF100991999999999999999999
0029029110999991926062506004+63083+021617FM-12+000999999V0201401N005119999999N0000001N9+01221+99999101191ADDGF100991999999999999999999
0029029110999991926062513004+63083+021617FM-12+000999999V0202501N007219999999N0000001N9+01561+99999101361ADDGF103991999999999999999999
0029029110999991926062520004+63083+021617FM-12+000999999V0203401N002119999999N0000001N9+01441+99999101621ADDGF100991999999999999999999
0029029110999991926062606004+63083+021617FM-12+000999999V0209991C000019999999N0000001N9+01331+99999101721ADDGF102991999999999999999999
0029029110999991926062613004+63083+021617FM-12+000999999V0203201N002119999999N0000001N9+01721+99999101801ADDGF107991999999999999999999
0029029110999991926062620004+63083+021617FM-12+000999999V0200501N003119999999N0000001N9+01611+99999101781ADDGF104991999999999999999999
0029029110999991926062706004+63083+021617FM-12+000999999V0200901N003119999999N0000001N9+01611+99999101681ADDGF107991999999999999999999
0035029110999991926062713004+63083+021617FM-12+000999999V0200501N007219999999N0000001N9+01611+99999101581ADDGF108991999999999999999999MW1601
0029029110999991926062720004+63083+021617FM-12+000999999V0200901N002119999999N0000001N9+01561+99999101561ADDGF103991999999999999999999
0029029110999991926062806004+63083+021617FM-12+000999999V0202501N003119999999N0000001N9+01221+99999101741ADDGF108991999999999999999999
0029029110999991926062813004+63083+021617FM-12+000999999V0202501N007219999999N0000001N9+01611+99999101871ADDGF100991999999999999999999
0029029110999991926062820004+63083+021617FM-12+000999999V0202301N005119999999N0000001N9+01391+99999101921ADDGF106991999999999999999999
0029029110999991926062906004+63083+021617FM-12+000999999V0201601N005119999999N0000001N9+01331+99999101981ADDGF100991999999999999999999
0029029110999991926062913004+63083+021617FM-12+000999999V0202501N007219999999N0000001N9+01831+99999102021ADDGF100991999999999999999999
0029029110999991926062920004+63083+021617FM-12+000999999V0202301N003119999999N0000001N9+01501+99999102031ADDGF100991999999999999999999
0029029110999991926063006004+63083+021617FM-12+000999999V0203401N007219999999N0000001N9+01501+99999102121ADDGF100991999999999999999999
0029029110999991926063013004+63083+021617FM-12+000999999V0202701N005119999999N0000001N9+01831+99999102191ADDGF100991999999999999999999
0029029110999991926063020004+63083+021617FM-12+000999999V0202701N003119999999N0000001N9+01501+99999102261ADDGF100991999999999999999999
0029029110999991926070106004+63083+021617FM-12+000999999V0209991C000019999999N0000001N9+01331+99999102391ADDGF100991999999999999999999
0029029110999991926070113004+63083+021617FM-12+000999999V0203601N005119999999N0000001N9+01941+99999102541ADDGF100991999999999999999999
0029029110999991926070120004+63083+021617FM-12+000999999V0209991C000019999999N0000001N9+01611+99999102601ADDGF100991999999999999999999
0029029110999991926070206004+63083+021617FM-12+000999999V0203201N005119999999N0000001N9+01671+99999102641ADDGF100991999999999999999999
0029029110999991926070213004+63083+021617FM-12+000999999V0202301N007219999999N0000001N9+02111+99999102481ADDGF100991999999999999999999
0029029110999991926070220004+63083+021617FM-12+000999999V0202701N002119999999N0000001N9+01611+99999102341ADDGF102991999999999999999999
0035029110999991926070306004+63083+021617FM-12+000999999V0203601N003119999999N0000001N9+01501+99999102231ADDGF108991999999999999999999MW1621
0029029110999991926070313004+63083+021617FM-12+000999999V0202701N003119999999N0000001N9+01781+99999102141ADDGF106991999999999999999999
0029029110999991926070320004+63083+021617FM-12+000999999V0200501N005119999999N0000001N9+01501+99999101831ADDGF103991999999999999999999
0029029110999991926070406004+63083+021617FM-12+000999999V0200201N005119999999N0000001N9+01331+99999101841ADDGF106991999999999999999999
0029029110999991926070413004+63083+021617FM-12+000999999V0203601N008219999999N0000001N9+01611+99999101871ADDGF102991999999999999999999
0029029110999991926070420004+63083+021617FM-12+000999999V0203601N002119999999N0000001N9+01441+99999101821ADDGF104991999999999999999999
0029029110999991926070506004+63083+021617FM-12+000999999V0200201N007219999999N0000001N9+01391+99999101871ADDGF100991999999999999999999
0029029110999991926070513004+63083+021617FM-12+000999999V0200201N003119999999N0000001N9+01671+99999101861ADDGF100991999999999999999999
0029029110999991926070520004+63083+021617FM-12+000999999V0203201N003119999999N0000001N9+01501+99999101641ADDGF104991999999999999999999
0029029110999991926070606004+63083+021617FM-12+000999999V0202501N008719999999N0000001N9+01561+99999101281ADDGF100991999999999999999999
0029029110999991926070613004+63083+021617FM-12+000999999V0202701N004119999999N0000001N9+01891+99999101271ADDGF100991999999999999999999
0029029110999991926070620004+63083+021617FM-12+000999999V0202501N002119999999N0000001N9+01611+99999101191ADDGF103991999999999999999999
0029029110999991926070706004+63083+021617FM-12+000999999V0200201N007219999999N0000001N9+01441+99999101301ADDGF100991999999999999999999
0029029110999991926070713004+63083+021617FM-12+000999999V0200501N011819999999N0000001N9+01501+99999101581ADDGF100991999999999999999999
0029029110999991926070720004+63083+021617FM-12+000999999V0209991C000019999999N0000001N9+01331+99999101601ADDGF102991999999999999999999
0029029110999991926070806004+63083+021617FM-12+000999999V0200901N003119999999N0000001N9+01331+99999101901ADDGF100991999999999999999999
0029029110999991926070813004+63083+021617FM-12+000999999V0202501N008719999999N0000001N9+01831+99999101911ADDGF102991999999999999999999
0029029110999991926070820004+63083+021617FM-12+000999999V0203601N003119999999N0000001N9+01561+99999101841ADDGF100991999999999999999999
0029029110999991926070906004+63083+021617FM-12+000999999V0201401N003119999999N0000001N9+01501+99999101821ADDGF100991999999999999999999
0029029110999991926070913004+63083+021617FM-12+000999999V0203201N007219999999N0000001N9+02001+99999101681ADDGF102991999999999999999999
0029029110999991926070920004+63083+021617FM-12+000999999V0202301N007219999999N0000001N9+01721+99999101471ADDGF100991999999999999999999
0029029110999991926071006004+63083+021617FM-12+000999999V0201801N008719999999N0000001N9+01671+99999101141ADDGF101991999999999999999999
0029029110999991926071013004+63083+021617FM-12+000999999V0202301N008719999999N0000001N9+01941+99999101021ADDGF101991999999999999999999
0029029110999991926071020004+63083+021617FM-12+000999999V0202301N003119999999N0000001N9+01721+99999101201ADDGF100991999999999999999999
0029029110999991926071106004+63083+021617FM-12+000999999V0201801N005119999999N0000001N9+01721+99999101201ADDGF105991999999999999999999
0029029110999991926071113004+63083+021617FM-12+000999999V0202301N007219999999N0000001N9+01941+99999101341ADDGF103991999999999999999999
0029029110999991926071120004+63083+021617FM-12+000999999V0201801N004119999999N0000001N9+01721+99999101301ADDGF104991999999999999999999
0035029110999991926071206004+63083+021617FM-12+000999999V0201801N003119999999N0000001N9+01671+99999101031ADDGF108991999999999999999999MW1601
0029029110999991926071213004+63083+021617FM-12+000999999V0202301N008719999999N0000001N9+01941+99999101081ADDGF105991999999999999999999
0029029110999991926071220004+63083+021617FM-12+000999999V0203201N005119999999N0000001N9+01721+99999101321ADDGF104991999999999999999999
0029029110999991926071306004+63083+021617FM-12+000999999V0202301N007219999999N0000001N9+01831+99999101301ADDGF108991999999999999999999
0029029110999991926071313004+63083+021617FM-12+000999999V0201801N008719999999N0000001N9+02391+99999101031ADDGF103991999999999999999999
0029029110999991926071320004+63083+021617FM-12+000999999V0203201N005119999999N0000001N9+01831+99999100901ADDGF107991999999999999999999
0029029110999991926071406004+63083+021617FM-12+000999999V0203201N008719999999N0000001N9+01561+99999101231ADDGF101991999999999999999999
0029029110999991926071413004+63083+021617FM-12+000999999V0202301N011819999999N0000001N9+01891+99999100981ADDGF106991999999999999999999
0035029110999991926071420004+63083+021617FM-12+000999999V0200901N005119999999N0000001N9+01331+99999100281ADDGF108991999999999999999999MW1641
0029029110999991926071506004+63083+021617FM-12+000999999V0203201N023119999999N0000001N9+01331+99999100341ADDGF101991999999999999999999
0029029110999991926071513004+63083+021617FM-12+000999999V0202701N008719999999N0000001N9+01671+99999100441ADDGF103991999999999999999999
0029029110999991926071520004+63083+021617FM-12+000999999V0203401N011819999999N0000001N9+01561+99999100541ADDGF102991999999999999999999
0029029110999991926071606004+63083+021617FM-12+000999999V0203601N008719999999N0000001N9+01111+99999101121ADDGF102991999999999999999999
0029029110999991926071613004+63083+021617FM-12+000999999V0203601N007219999999N0000001N9+01501+99999101281ADDGF102991999999999999999999
0029029110999991926071620004+63083+021617FM-12+000999999V0201801N007219999999N0000001N9+01331+99999101141ADDGF108991999999999999999999
0029029110999991926071706004+63083+021617FM-12+000999999V0203201N011819999999N0000001N9+01281+99999101221ADDGF102991999999999999999999
0029029110999991926071713004+63083+021617FM-12+000999999V0202001N008719999999N0000001N9+01611+99999101241ADDGF100991999999999999999999
0029029110999991926071720004+63083+021617FM-12+000999999V0202301N008719999999N0000001N9+01441+99999101261ADDGF100991999999999999999999
0029029110999991926071806004+63083+021617FM-12+000999999V0201801N007219999999N0000001N9+01501+99999101301ADDGF106991999999999999999999
0029029110999991926071813004+63083+021617FM-12+000999999V0201801N008719999999N0000001N9+01561+99999101341ADDGF108991999999999999999999
0029029110999991926071820004+63083+021617FM-12+000999999V0209991C000019999999N0000001N9+01561+99999101081ADDGF106991999999999999999999
0029029110999991926071906004+63083+021617FM-12+000999999V0201801N004119999999N0000001N9+01391+99999100821ADDGF102991999999999999999999
0029029110999991926071913004+63083+021617FM-12+000999999V0203201N005119999999N0000001N9+01721+99999100751ADDGF104991999999999999999999
0029029110999991926071920004+63083+021617FM-12+000999999V0202301N004119999999N0000001N9+01611+99999100681ADDGF108991999999999999999999
0029029110999991926072006004+63083+021617FM-12+000999999V0202701N006219999999N0000001N9+01391+99999100671ADDGF108991999999999999999999
0029029110999991926072013004+63083+021617FM-12+000999999V0203201N005119999999N0000001N9+01831+99999100551ADDGF103991999999999999999999
0029029110999991926072020004+63083+021617FM-12+000999999V0203201N004119999999N0000001N9+01441+99999100481ADDGF100991999999999999999999
0029029110999991926072106004+63083+021617FM-12+000999999V0203601N005119999999N0000001N9+01391+99999100431ADDGF100991999999999999999999
0029029110999991926072113004+63083+021617FM-12+000999999V0200501N009819999999N0000001N9+01891+99999100241ADDGF100991999999999999999999
0029029110999991926072120004+63083+021617FM-12+000999999V0200201N004119999999N0000001N9+01561+99999100151ADDGF107991999999999999999999
0029029110999991926072206004+63083+021617FM-12+000999999V0200901N004119999999N0000001N9+01501+99999100141ADDGF108991999999999999999999
0029029110999991926072213004+63083+021617FM-12+000999999V0201401N004119999999N0000001N9+02221+99999100041ADDGF105991999999999999999999
0029029110999991926072220004+63083+021617FM-12+000999999V0201101N003119999999N0000001N9+01781+99999100181ADDGF103991999999999999999999
0029029110999991926072306004+63083+021617FM-12+000999999V0201101N005119999999N0000001N9+01561+99999100191ADDGF108991999999999999999999
0029029110999991926072313004+63083+021617FM-12+000999999V0201401N008219999999N0000001N9+02111+99999100281ADDGF108991999999999999999999
0029029110999991926072320004+63083+021617FM-12+000999999V0201401N004119999999N0000001N9+02001+99999100161ADDGF108991999999999999999999
0029029110999991926072406004+63083+021617FM-12+000999999V0201601N003119999999N0000001N9+01671+99999100111ADDGF108991999999999999999999
0029029110999991926072413004+63083+021617FM-12+000999999V0203201N005119999999N0000001N9+01831+99999100191ADDGF104991999999999999999999
0029029110999991926072420004+63083+021617FM-12+000999999V0202901N004119999999N0000001N9+01611+99999100431ADDGF100991999999999999999999
0029029110999991926072506004+63083+021617FM-12+000999999V0203601N003119999999N0000001N9+01561+99999100521ADDGF100991999999999999999999
0029029110999991926072513004+63083+021617FM-12+000999999V0203601N006219999999N0000001N9+02001+99999100431ADDGF100991999999999999999999
0029029110999991926072520004+63083+021617FM-12+000999999V0203601N003119999999N0000001N9+01831+99999100061ADDGF107991999999999999999999
0029029110999991926072606004+63083+021617FM-12+000999999V0201401N006219999999N0000001N9+01721+99999099871ADDGF104991999999999999999999
0029029110999991926072613004+63083+021617FM-12+000999999V0201801N004119999999N0000001N9+01721+99999099871ADDGF108991999999999999999999
0035029110999991926072620004+63083+021617FM-12+000999999V0209991C000019999999N0000001N9+01611+99999099921ADDGF108991999999999999999999MW1601
0029029110999991926072706004+63083+021617FM-12+000999999V0209991C000019999999N0000001N9+01611+99999099981ADDGF108991999999999999999999
0035029110999991926072713004+63083+021617FM-12+000999999V0200501N005119999999N0000001N9+01501+99999100191ADDGF108991999999999999999999MW1641
0029029110999991926072720004+63083+021617FM-12+000999999V0200501N003119999999N0000001N9+01721+99999100271ADDGF107991999999999999999999
0029029110999991926072806004+63083+021617FM-12+000999999V0200501N003119999999N0000001N9+01721+99999100581ADDGF100991999999999999999999
0029029110999991926072813004+63083+021617FM-12+000999999V0200901N007219999999N0000001N9+02001+99999100711ADDGF108991999999999999999999
0029029110999991926072820004+63083+021617FM-12+000999999V0200501N003119999999N0000001N9+01781+99999100801ADDGF100991999999999999999999
0029029110999991926072906004+63083+021617FM-12+000999999V0209991C000019999999N0000001N9+01611+99999100951ADDGF100991999999999999999999
0029029110999991926072913004+63083+021617FM-12+000999999V0203401N007219999999N0000001N9+02111+99999100991ADDGF102991999999999999999999
0029029110999991926072920004+63083+021617FM-12+000999999V0200201N002119999999N0000001N9+01721+99999101041ADDGF100991999999999999999999
0029029110999991926073006004+63083+021617FM-12+000999999V0209991C000019999999N0000001N9+01721+99999101141ADDGF100991999999999999999999
0029029110999991926073013004+63083+021617FM-12+000999999V0203601N007219999999N0000001N9+02221+99999101181ADDGF103991999999999999999999
0029029110999991926073020004+63083+021617FM-12+000999999V0200201N006219999999N0000001N9+01611+99999101231ADDGF100991999999999999999999
0029029110999991926073106004+63083+021617FM-12+000999999V0200901N007219999999N0000001N9+01611+99999101271ADDGF102991999999999999999999
0029029110999991926073113004+63083+021617FM-12+000999999V0200501N011819999999N0000001N9+01831+99999101231ADDGF102991999999999999999999
0029029110999991926073120004+63083+021617FM-12+000999999V0200201N005119999999N0000001N9+01441+99999101361ADDGF100991999999999999999999
0029029110999991926080106004+63083+021617FM-12+000999999V0203601N007219999999N0000001N9+01611+99999101441ADDGF108991999999999999999999
0029029110999991926080113004+63083+021617FM-12+000999999V0203601N008719999999N0000001N9+01721+99999101681ADDGF106991999999999999999999
0029029110999991926080120004+63083+021617FM-12+000999999V0203601N004119999999N0000001N9+01501+99999101831ADDGF100991999999999999999999
0029029110999991926080206004+63083+021617FM-12+000999999V0200201N007219999999N0000001N9+01611+99999101981ADDGF102991999999999999999999
0029029110999991926080213004+63083+021617FM-12+000999999V0203601N008719999999N0000001N9+01721+99999102001ADDGF100991999999999999999999
0029029110999991926080220004+63083+021617FM-12+000999999V0203601N002119999999N0000001N9+01331+99999101911ADDGF100991999999999999999999
0029029110999991926080306004+63083+021617FM-12+000999999V0200901N005119999999N0000001N9+01391+99999101831ADDGF100991999999999999999999
0029029110999991926080313004+63083+021617FM-12+000999999V0203601N008219999999N0000001N9+01721+99999101781ADDGF100991999999999999999999
0029029110999991926080320004+63083+021617FM-12+000999999V0200501N007219999999N0000001N9+01441+99999101741ADDGF102991999999999999999999
0029029110999991926080406004+63083+021617FM-12+000999999V0209991C000019999999N0000001N9+01221+99999101921ADDGF106991999999999999999999
0029029110999991926080413004+63083+021617FM-12+000999999V0200201N004119999999N0000001N9+01891+99999101901ADDGF100991999999999999999999
0029029110999991926080420004+63083+021617FM-12+000999999V0200201N002119999999N0000001N9+01501+99999101941ADDGF104991999999999999999999
0029029110999991926080506004+63083+021617FM-12+000999999V0209991C000019999999N0000001N9+01501+99999102141ADDGF106991999999999999999999
0029029110999991926080513004+63083+021617FM-12+000999999V0200201N006219999999N0000001N9+01941+99999102221ADDGF106991999999999999999999
0029029110999991926080520004+63083+021617FM-12+000999999V0200201N002119999999N0000001N9+01611+99999102261ADDGF100991999999999999999999
0029029110999991926080606004+63083+021617FM-12+000999999V0201101N003119999999N0000001N9+01221+99999102351ADDGF100991999999999999999999
0029029110999991926080613004+63083+021617FM-12+000999999V0201101N002119999999N0000001N9+02061+99999102261ADDGF102991999999999999999999
0029029110999991926080620004+63083+021617FM-12+000999999V0202701N002119999999N0000001N9+01611+99999102141ADDGF100991999999999999999999
0029029110999991926080706004+63083+021617FM-12+000999999V0209991C000019999999N0000001N9+01331+99999102071ADDGF108991999999999999999999
0029029110999991926080713004+63083+021617FM-12+000999999V0202701N004119999999N0000001N9+01941+99999101881ADDGF100991999999999999999999
0029029110999991926080720004+63083+021617FM-12+000999999V0202501N003119999999N0000001N9+01611+99999101741ADDGF108991999999999999999999
0029029110999991926080806004+63083+021617FM-12+000999999V0202501N002119999999N0000001N9+01331+99999101661ADDGF100991999999999999999999
0029029110999991926080813004+63083+021617FM-12+000999999V0203201N005119999999N0000001N9+02111+99999101631ADDGF100991999999999999999999
0029029110999991926080820004+63083+021617FM-12+000999999V0209991C000019999999N0000001N9+01781+99999101621ADDGF100991999999999999999999
0029029110999991926080906004+63083+021617FM-12+000999999V0200701N003119999999N0000001N9+01501+99999101741ADDGF103991999999999999999999
0029029110999991926080913004+63083+021617FM-12+000999999V0200201N007219999999N0000001N9+01831+99999101661ADDGF100991999999999999999999
0029029110999991926080920004+63083+021617FM-12+000999999V0200501N002119999999N0000001N9+01441+99999101821ADDGF100991999999999999999999
0029029110999991926081006004+63083+021617FM-12+000999999V0203601N003119999999N0000001N9+01611+99999101861ADDGF100991999999999999999999
0029029110999991926081013004+63083+021617FM-12+000999999V0203601N002119999999N0000001N9+02061+99999101791ADDGF100991999999999999999999
0029029110999991926081020004+63083+021617FM-12+000999999V0209991C000019999999N0000001N9+01611+99999101681ADDGF100991999999999999999999
0029029110999991926081106004+63083+021617FM-12+000999999V0201601N003119999999N0000001N9+01391+99999101581ADDGF100991999999999999999999
0029029110999991926081113004+63083+021617FM-12+000999999V0202501N005119999999N0000001N9+02111+99999101431ADDGF102991999999999999999999
0029029110999991926081120004+63083+021617FM-12+000999999V0202301N002119999999N0000001N9+01781+99999101301ADDGF100991999999999999999999
0029029110999991926081206004+63083+021617FM-12+000999999V0201601N005119999999N0000001N9+01441+99999101181ADDGF100991999999999999999999
0029029110999991926081213004+63083+021617FM-12+000999999V0202701N002119999999N0000001N9+02221+99999101021ADDGF104991999999999999999999
0029029110999991926081220004+63083+021617FM-12+000999999V0209991C000019999999N0000001N9+01611+99999100881ADDGF106991999999999999999999
0029029110999991926081306004+63083+021617FM-12+000999999V0201401N005119999999N0000001N9+01501+99999100741ADDGF100991999999999999999999
0035029110999991926081313004+63083+021617FM-12+000999999V0201801N003119999999N0000001N9+01611+99999100751ADDGF108991999999999999999999MW1601
0029029110999991926081320004+63083+021617FM-12+000999999V0202301N005119999999N0000001N9+01501+99999100721ADDGF108991999999999999999999
0029029110999991926081406004+63083+021617FM-12+000999999V0201801N005119999999N0000001N9+01501+99999100681ADDGF108991999999999999999999
0029029110999991926081413004+63083+021617FM-12+000999999V0202001N013919999999N0000001N9+01831+99999100711ADDGF103991999999999999999999
0029029110999991926081420004+63083+021617FM-12+000999999V0201601N007219999999N0000001N9+01561+99999100561ADDGF103991999999999999999999
0029029110999991926081506004+63083+021617FM-12+000999999V0201601N007219999999N0000001N9+01501+99999100321ADDGF108991999999999999999999
0035029110999991926081513004+63083+021617FM-12+000999999V0201801N008219999999N0000001N9+01501+99999100181ADDGF108991999999999999999999MW1621
0029029110999991926081520004+63083+021617FM-12+000999999V0201401N005119999999N0000001N9+01441+99999099861ADDGF108991999999999999999999
0035029110999991926081606004+63083+021617FM-12+000999999V0201401N002119999999N0000001N9+01331+99999099671ADDGF108991999999999999999999MW1601
0029029110999991926081613004+63083+021617FM-12+000999999V0203601N005119999999N0000001N9+01721+99999099701ADDGF108991999999999999999999
0029029110999991926081620004+63083+021617FM-12+000999999V0200901N005119999999N0000001N9+01391+99999099721ADDGF104991999999999999999999
0029029110999991926081706004+63083+021617FM-12+000999999V0201101N007219999999N0000001N9+01221+99999100241ADDGF103991999999999999999999
0035029110999991926081713004+63083+021617FM-12+000999999V0200201N007219999999N0000001N9+01611+99999100541ADDGF108991999999999999999999MW1621
0029029110999991926081720004+63083+021617FM-12+000999999V0200201N007219999999N0000001N9+01331+99999100841ADDGF108991999999999999999999
0029029110999991926081806004+63083+021617FM-12+000999999V0200201N002119999999N0000001N9+01111+99999101031ADDGF108991999999999999999999
0029029110999991926081813004+63083+021617FM-12+000999999V0202701N003119999999N0000001N9+01611+99999101031ADDGF100991999999999999999999
0029029110999991926081820004+63083+021617FM-12+000999999V0202301N007219999999N0000001N9+01441+99999100871ADDGF100991999999999999999999
0029029110999991926081906004+63083+021617FM-12+000999999V0202301N005119999999N0000001N9+01501+99999100601ADDGF106991999999999999999999
0029029110999991926081913004+63083+021617FM-12+000999999V0202301N007219999999N0000001N9+01831+99999100341ADDGF100991999999999999999999
0029029110999991926081920004+63083+021617FM-12+000999999V0202001N005119999999N0000001N9+01561+99999100281ADDGF102991999999999999999999
0029029110999991926082006004+63083+021617FM-12+000999999V0201801N007219999999N0000001N9+01611+99999100261ADDGF108991999999999999999999
0029029110999991926082013004+63083+021617FM-12+000999999V0202301N009819999999N0000001N9+01831+99999100231ADDGF105991999999999999999999
0029029110999991926082020004+63083+021617FM-12+000999999V0201601N005119999999N0000001N9+01611+99999100031ADDGF100991999999999999999999
0029029110999991926082106004+63083+021617FM-12+000999999V0201601N007219999999N0000001N9+01441+99999099701ADDGF106991999999999999999999
0029029110999991926082113004+63083+021617FM-12+000999999V0202301N009819999999N0000001N9+01611+99999099461ADDGF108991999999999999999999
0035029110999991926082120004+63083+021617FM-12+000999999V0201801N006219999999N0000001N9+01441+99999098781ADDGF108991999999999999999999MW1641
0029029110999991926082206004+63083+021617FM-12+000999999V0201601N005119999999N0000001N9+01331+99999098021ADDGF108991999999999999999999
0029029110999991926082213004+63083+021617FM-12+000999999V0202501N008719999999N0000001N9+01561+99999097961ADDGF105991999999999999999999
0029029110999991926082220004+63083+021617FM-12+000999999V0202001N005119999999N0000001N9+01331+99999098061ADDGF102991999999999999999999
0035029110999991926082306004+63083+021617FM-12+000999999V0209991C000019999999N0000001N9+01111+99999098081ADDGF108991999999999999999999MW1601
0035029110999991926082313004+63083+021617FM-12+000999999V0203401N009819999999N0000001N9+01331+99999099201ADDGF108991999999999999999999MW1601
0029029110999991926082320004+63083+021617FM-12+000999999V0203401N008719999999N0000001N9+01221+99999099791ADDGF108991999999999999999999
0029029110999991926082406004+63083+021617FM-12+000999999V0202901N009819999999N0000001N9+01001+99999099791ADDGF108991999999999999999999
0029029110999991926082413004+63083+021617FM-12+000999999V0203201N005119999999N0000001N9+01221+99999099741ADDGF107991999999999999999999
0029029110999991926082420004+63083+021617FM-12+000999999V0209991C000019999999N0000001N9+01001+99999099751ADDGF100991999999999999999999
0029029110999991926082506004+63083+021617FM-12+000999999V0203201N003119999999N0000001N9+01171+99999099671ADDGF108991999999999999999999
0029029110999991926082513004+63083+021617FM-12+000999999V0202701N003119999999N0000001N9+01501+99999099661ADDGF100991999999999999999999
0029029110999991926082520004+63083+021617FM-12+000999999V0209991C000019999999N0000001N9+01171+99999099381ADDGF100991999999999999999999
0029029110999991926082606004+63083+021617FM-12+000999999V0201101N005119999999N0000001N9+00891+99999098981ADDGF108991999999999999999999
0029029110999991926082613004+63083+021617FM-12+000999999V0200701N003119999999N0000001N9+01441+99999098991ADDGF105991999999999999999999
0029029110999991926082620004+63083+021617FM-12+000999999V0203601N005119999999N0000001N9+01221+99999099191ADDGF106991999999999999999999
0029029110999991926082706004+63083+021617FM-12+000999999V0203601N007219999999N0000001N9+01221+99999099721ADDGF108991999999999999999999
0029029110999991926082713004+63083+021617FM-12+000999999V0200501N008719999999N0000001N9+01331+99999100181ADDGF106991999999999999999999
0035029110999991926082720004+63083+021617FM-12+000999999V0209991C000019999999N0000001N9+01281+99999100471ADDGF108991999999999999999999MW1621
0029029110999991926082806004+63083+021617FM-12+000999999V0200201N005119999999N0000001N9+01221+99999100781ADDGF106991999999999999999999
0029029110999991926082813004+63083+021617FM-12+000999999V0203401N006219999999N0000001N9+01441+99999101111ADDGF103991999999999999999999
0029029110999991926082820004+63083+021617FM-12+000999999V0203401N005119999999N0000001N9+01331+99999101301ADDGF108991999999999999999999
0029029110999991926082906004+63083+021617FM-12+000999999V0203601N005119999999N0000001N9+01111+99999101641ADDGF100991999999999999999999
0029029110999991926082913004+63083+021617FM-12+000999999V0203601N007219999999N0000001N9+01391+99999101961ADDGF100991999999999999999999
0029029110999991926082920004+63083+021617FM-12+000999999V0209991C000019999999N0000001N9+00941+99999102271ADDGF100991999999999999999999
0029029110999991926083006004+63083+021617FM-12+000999999V0201801N003119999999N0000001N9+00891+99999102391ADDGF100991999999999999999999
0029029110999991926083013004+63083+021617FM-12+000999999V0202301N008219999999N0000001N9+01501+99999102361ADDGF100991999999999999999999
0029029110999991926083020004+63083+021617FM-12+000999999V0201801N007219999999N0000001N9+01331+99999102221ADDGF100991999999999999999999
0029029110999991926083106004+63083+021617FM-12+000999999V0201601N007219999999N0000001N9+01221+99999101641ADDGF100991999999999999999999
0029029110999991926083113004+63083+021617FM-12+000999999V0202501N015919999999N0000001N9+01501+99999101401ADDGF100991999999999999999999
0029029110999991926083120004+63083+021617FM-12+000999999V0202301N008719999999N0000001N9+01501+99999101031ADDGF100991999999999999999999
0029029110999991926090106004+63083+021617FM-12+000999999V0202501N008719999999N0000001N9+01171+99999101181ADDGF100991999999999999999999
0029029110999991926090113004+63083+021617FM-12+000999999V0202701N015919999999N0000001N9+01281+99999101141ADDGF102991999999999999999999
0029029110999991926090120004+63083+021617FM-12+000999999V0202701N019019999999N0000001N9+01221+99999101161ADDGF100991999999999999999999
0029029110999991926090206004+63083+021617FM-12+000999999V0202701N019019999999N0000001N9+01111+99999100921ADDGF100991999999999999999999
0029029110999991926090213004+63083+021617FM-12+000999999V0203201N013919999999N0000001N9+01331+99999100941ADDGF101991999999999999999999
0029029110999991926090220004+63083+021617FM-12+000999999V0203201N008719999999N0000001N9+01221+99999100921ADDGF102991999999999999999999
0029029110999991926090306004+63083+021617FM-12+000999999V0203401N007219999999N0000001N9+00941+99999101161ADDGF100991999999999999999999
0029029110999991926090313004+63083+021617FM-12+000999999V0203201N006219999999N0000001N9+01221+99999101441ADDGF106991999999999999999999
