0029029350999991921010106004+62233+025733FM-12+009499999V0209991C000019999999N0000001N9-01941+99999100711ADDGF108991999999999999999999
0029029350999991921010113004+62233+025733FM-12+009499999V0200201N001019999999N0000001N9-02001+99999100791ADDGF100991999999999999999999
0029029350999991921010120004+62233+025733FM-12+009499999V0209991C000019999999N0000001N9-02281+99999100881ADDGF108991999999999999999999
0029029350999991921010206004+62233+025733FM-12+009499999V0209991C000019999999N0000001N9-02441+99999100841ADDGF100991999999999999999999
0029029350999991921010213004+62233+025733FM-12+009499999V0209991C000019999999N0000001N9-02171+99999101021ADDGF108991999999999999999999
0029029350999991921010220004+62233+025733FM-12+009499999V0200201N001019999999N0000001N9-01831+99999100921ADDGF108991999999999999999999
0035029350999991921010306004+62233+025733FM-12+009499999V0200201N001019999999N0000001N9-01391+99999100781ADDGF104991999999999999999999MW1721
0035029350999991921010313004+62233+025733FM-12+009499999V0201101N003119999999N0000001N9-01001+99999100861ADDGF108991999999999999999999MW1721
0029029350999991921010320004+62233+025733FM-12+009499999V0201801N003119999999N0000001N9-01001+99999100941ADDGF108991999999999999999999
0029029350999991921010406004+62233+025733FM-12+009499999V0201101N003119999999N0000001N9-01001+99999100841ADDGF108991999999999999999999
0029029350999991921010413004+62233+025733FM-12+009499999V0200901N001019999999N0000001N9-01001+99999100861ADDGF108991999999999999999999
0029029350999991921010420004+62233+025733FM-12+009499999V0209991C000019999999N0000001N9-01221+99999100591ADDGF108991999999999999999999
0035029350999991921010506004+62233+025733FM-12+009499999V0200901N003119999999N0000001N9-01061+99999099741ADDGF108991999999999999999999MW1721
0035029350999991921010513004+62233+025733FM-12+009499999V0201801N001019999999N0000001N9-00671+99999099041ADDGF108991999999999999999999MW1721
0029029350999991921010520004+62233+025733FM-12+009499999V0209991C000019999999N0000001N9-00501+99999099071ADDGF108991999999999999999999
0029029350999991921010606004+62233+025733FM-12+009499999V0203401N001019999999N0000001N9-00391+99999099441ADDGF108991999999999999999999
0029029350999991921010613004+62233+025733FM-12+009499999V0201801N003119999999N0000001N9-00221+99999099341ADDGF108991999999999999999999
0035029350999991921010620004+62233+025733FM-12+009499999V0202701N001019999999N0000001N9+00061+99999099121ADDGF108991999999999999999999MW1721
0029029350999991921010706004+62233+025733FM-12+009499999V0200201N003119999999N0000001N9+00171+99999098591ADDGF108991999999999999999999
0035029350999991921010713004+62233+025733FM-12+009499999V0202701N003119999999N0000001N9+00281+99999098161ADDGF108991999999999999999999MW1621
0035029350999991921010720004+62233+025733FM-12+009499999V0202701N005119999999N0000001N9+00281+99999098511ADDGF108991999999999999999999MW1621
0029029350999991921010806004+62233+025733FM-12+009499999V0202701N005119999999N0000001N9+00111+99999099231ADDGF100991999999999999999999
0029029350999991921010813004+62233+025733FM-12+009499999V0202701N001019999999N0000001N9+00001+99999099521ADDGF100991999999999999999999
0029029350999991921010820004+62233+025733FM-12+009499999V0201601N003119999999N0000001N9+00061+99999099231ADDGF108991999999999999999999
0035029350999991921010906004+62233+025733FM-12+009499999V0202901N003119999999N0000001N9+00171+99999098151ADDGF108991999999999999999999MW1601
0029029350999991921010913004+62233+025733FM-12+009499999V0202701N005119999999N0000001N9+00061+99999098261ADDGF108991999999999999999999
0029029350999991921010920004+62233+025733FM-12+009499999V0202701N001019999999N0000001N9+00001+99999098071ADDGF108991999999999999999999
0029029350999991921011006004+62233+025733FM-12+009499999V0202901N001019999999N0000001N9-00171+99999097601ADDGF108991999999999999999999
0029029350999991921011013004+62233+025733FM-12+009499999V0200501N003119999999N0000001N9-00171+99999097361ADDGF108991999999999999999999
0029029350999991921011020004+62233+025733FM-12+009499999V0203601N001019999999N0000001N9-00281+99999097511ADDGF108991999999999999999999
0035029350999991921011106004+62233+025733FM-12+009499999V0203601N003119999999N0000001N9-00501+99999097501ADDGF108991999999999999999999MW1721
0029029350999991921011113004+62233+025733FM-12+009499999V0200901N005119999999N0000001N9-00561+99999097521ADDGF108991999999999999999999
0035029350999991921011120004+62233+025733FM-12+009499999V0200701N007219999999N0000001N9-00671+99999097561ADDGF108991999999999999999999MW1721
0029029350999991921011206004+62233+025733FM-12+009499999V0201101N003119999999N0000001N9-01391+99999097961ADDGF100991999999999999999999
0029029350999991921011213004+62233+025733FM-12+009499999V0200201N001019999999N0000001N9-01391+99999098701ADDGF100991999999999999999999
0029029350999991921011220004+62233+025733FM-12+009499999V0200201N001019999999N0000001N9-01941+99999099261ADDGF100991999999999999999999
0029029350999991921011306004+62233+025733FM-12+009499999V0203601N001019999999N0000001N9-02331+99999099511ADDGF100991999999999999999999
0029029350999991921011313004+62233+025733FM-12+009499999V0201801N005119999999N0000001N9-01391+99999099631ADDGF106991999999999999999999
0029029350999991921011320004+62233+025733FM-12+009499999V0201801N005119999999N0000001N9-01061+99999099341ADDGF108991999999999999999999
0035029350999991921011406004+62233+025733FM-12+009499999V0200901N003119999999N0000001N9-01171+99999098461ADDGF108991999999999999999999MW1721
0035029350999991921011413004+62233+025733FM-12+009499999V0201101N001019999999N0000001N9-01221+99999097991ADDGF108991999999999999999999MW1721
0029029350999991921011420004+62233+025733FM-12+009499999V0202701N001019999999N0000001N9-01171+99999098271ADDGF102991999999999999999999
0029029350999991921011506004+62233+025733FM-12+009499999V0202901N001019999999N0000001N9-00941+99999099001ADDGF102991999999999999999999
0029029350999991921011513004+62233+025733FM-12+009499999V0203601N005119999999N0000001N9-00671+99999099941ADDGF108991999999999999999999
0029029350999991921011520004+62233+025733FM-12+009499999V0203401N005119999999N0000001N9-01441+99999101001ADDGF100991999999999999999999
0029029350999991921011606004+62233+025733FM-12+009499999V0203401N001019999999N0000001N9-01671+99999100861ADDGF100991999999999999999999
0029029350999991921011613004+62233+025733FM-12+009499999V0202301N005119999999N0000001N9-00391+99999099941ADDGF108991999999999999999999
0029029350999991921011620004+62233+025733FM-12+009499999V0202301N011819999999N0000001N9+00001+99999099071ADDGF108991999999999999999999
0029029350999991921011706004+62233+025733FM-12+009499999V0202301N011819999999N0000001N9+00221+99999099021ADDGF100991999999999999999999
0029029350999991921011713004+62233+025733FM-12+009499999V0202701N008719999999N0000001N9+00061+99999098831ADDGF108991999999999999999999
0035029350999991921011720004+62233+025733FM-12+009499999V0202901N005119999999N0000001N9+00111+99999098111ADDGF108991999999999999999999MW1721
0035029350999991921011806004+62233+025733FM-12+009499999V0201601N008719999999N0000001N9-00111+99999096791ADDGF108991999999999999999999MW1721
0035029350999991921011813004+62233+025733FM-12+009499999V0201601N003119999999N0000001N9-00171+99999095881ADDGF108991999999999999999999MW1721
0029029350999991921011820004+62233+025733FM-12+009499999V0201401N001019999999N0000001N9+00061+99999095671ADDGF108991999999999999999999
0035029350999991921011906004+62233+025733FM-12+009499999V0201801N001019999999N0000001N9-00061+99999095941ADDGF108991999999999999999999MW1721
0035029350999991921011913004+62233+025733FM-12+009499999V0201801N001019999999N0000001N9-00061+99999096271ADDGF108991999999999999999999MW1721
0029029350999991921011920004+62233+025733FM-12+009499999V0201801N003119999999N0000001N9-00061+99999096941ADDGF108991999999999999999999
0029029350999991921012006004+62233+025733FM-12+009499999V0202901N003119999999N0000001N9-00171+99999097741ADDGF108991999999999999999999
0029029350999991921012013004+62233+025733FM-12+009499999V0201601N007219999999N0000001N9-00171+99999097581ADDGF108991999999999999999999
0035029350999991921012020004+62233+025733FM-12+009499999V0202501N003119999999N0000001N9-00171+99999096151ADDGF108991999999999999999999MW1721
0029029350999991921012106004+62233+025733FM-12+009499999V0202901N008719999999N0000001N9-00441+99999096831ADDGF100991999999999999999999
0029029350999991921012113004+62233+025733FM-12+009499999V0203201N005119999999N0000001N9-00391+99999097821ADDGF106991999999999999999999
0029029350999991921012120004+62233+025733FM-12+009499999V0202701N003119999999N0000001N9-00781+99999098421ADDGF105991999999999999999999
0035029350999991921012206004+62233+025733FM-12+009499999V0201101N007219999999N0000001N9-00781+99999097021ADDGF108991999999999999999999MW1721
0029029350999991921012213004+62233+025733FM-12+009499999V0201401N003119999999N0000001N9-00721+99999096031ADDGF108991999999999999999999
0029029350999991921012220004+62233+025733FM-12+009499999V0201801N001019999999N0000001N9-00781+99999095461ADDGF108991999999999999999999
0035029350999991921012306004+62233+025733FM-12+009499999V0200501N001019999999N0000001N9-00941+99999096221ADDGF108991999999999999999999MW1721
0035029350999991921012313004+62233+025733FM-12+009499999V0203601N003119999999N0000001N9-00891+99999096921ADDGF108991999999999999999999MW1721
0035029350999991921012320004+62233+025733FM-12+009499999V0203601N001019999999N0000001N9-01111+99999097191ADDGF106991999999999999999999MW1721
0029029350999991921012406004+62233+025733FM-12+009499999V0203601N001019999999N0000001N9-01781+99999097221ADDGF100991999999999999999999
0029029350999991921012413004+62233+025733FM-12+009499999V0209991C000019999999N0000001N9-01611+99999097641ADDGF102991999999999999999999
0029029350999991921012420004+62233+025733FM-12+009499999V0202901N001019999999N0000001N9-01441+99999098101ADDGF108991999999999999999999
0029029350999991921012506004+62233+025733FM-12+009499999V0203401N001019999999N0000001N9-01171+99999098911ADDGF108991999999999999999999
0029029350999991921012513004+62233+025733FM-12+009499999V0203601N003119999999N0000001N9-00671+99999098981ADDGF108991999999999999999999
0029029350999991921012520004+62233+025733FM-12+009499999V0202901N005119999999N0000001N9-00781+99999099271ADDGF108991999999999999999999
0029029350999991921012606004+62233+025733FM-12+009499999V0203401N001019999999N0000001N9-01721+99999099151ADDGF100991999999999999999999
0029029350999991921012613004+62233+025733FM-12+009499999V0209991C000019999999N0000001N9-01501+99999099061ADDGF100991999999999999999999
0029029350999991921012620004+62233+025733FM-12+009499999V0203601N001019999999N0000001N9-02001+99999098661ADDGF108991999999999999999999
0029029350999991921012706004+62233+025733FM-12+009499999V0203401N001019999999N0000001N9-01611+99999098421ADDGF108991999999999999999999
0029029350999991921012713004+62233+025733FM-12+009499999V0209991C000019999999N0000001N9-01441+99999098641ADDGF105991999999999999999999
0029029350999991921012720004+62233+025733FM-12+009499999V0203601N003119999999N0000001N9-01331+99999098911ADDGF108991999999999999999999
0029029350999991921012806004+62233+025733FM-12+009499999V0203601N001019999999N0000001N9-02441+99999099741ADDGF100991999999999999999999
0029029350999991921012813004+62233+025733FM-12+009499999V0203601N001019999999N0000001N9-02281+99999100111ADDGF100991999999999999999999
0029029350999991921012820004+62233+025733FM-12+009499999V0203601N001019999999N0000001N9-02611+99999099881ADDGF100991999999999999999999
0029029350999991921012906004+62233+025733FM-12+009499999V0201601N005119999999N0000001N9-01331+99999098391ADDGF108991999999999999999999
0035029350999991921012913004+62233+025733FM-12+009499999V0201401N003119999999N0000001N9-01331+99999097991ADDGF108991999999999999999999MW1721
0029029350999991921012920004+62233+025733FM-12+009499999V0201401N001019999999N0000001N9-01501+99999098521ADDGF108991999999999999999999
0035029350999991921013006004+62233+025733FM-12+009499999V0201801N003119999999N0000001N9-01281+99999098521ADDGF108991999999999999999999MW1721
0029029350999991921013013004+62233+025733FM-12+009499999V0201801N003119999999N0000001N9-00781+99999098521ADDGF100991999999999999999999
0029029350999991921013020004+62233+025733FM-12+009499999V0202701N001019999999N0000001N9-00501+99999098321ADDGF108991999999999999999999
0035029350999991921013106004+62233+025733FM-12+009499999V0202701N001019999999N0000001N9-00501+99999097791ADDGF108991999999999999999999MW1721
0029029350999991921013113004+62233+025733FM-12+009499999V0203601N003119999999N0000001N9-00831+99999098511ADDGF100991999999999999999999
0029029350999991921013120004+62233+025733FM-12+009499999V0203601N001019999999N0000001N9-01331+99999099161ADDGF100991999999999999999999
0029029350999991921020106004+62233+025733FM-12+009499999V0203601N001019999999N0000001N9-02281+99999099621ADDGF100991999999999999999999
0029029350999991921020113004+62233+025733FM-12+009499999V0209991C000019999999N0000001N9-02001+99999100071ADDGF100991999999999999999999
0029029350999991921020120004+62233+025733FM-12+009499999V0203601N001019999999N0000001N9-02561+99999100511ADDGF100991999999999999999999
0029029350999991921020206004+62233+025733FM-12+009499999V0203601N001019999999N0000001N9-03001+99999101111ADDGF100991999999999999999999
0029029350999991921020213004+62233+025733FM-12+009499999V0209991C000019999999N0000001N9-02281+99999101631ADDGF100991999999999999999999
0029029350999991921020220004+62233+025733FM-12+009499999V0203601N001019999999N0000001N9-02561+99999102081ADDGF100991999999999999999999
0029029350999991921020306004+62233+025733FM-12+009499999V0203601N001019999999N0000001N9-02611+99999102561ADDGF100991999999999999999999
0029029350999991921020313004+62233+025733FM-12+009499999V0203601N001019999999N0000001N9-02001+99999102991ADDGF100991999999999999999999
0029029350999991921020320004+62233+025733FM-12+009499999V0209991C000019999999N0000001N9-02611+99999103271ADDGF100991999999999999999999
0029029350999991921020406004+62233+025733FM-12+009499999V0203601N001019999999N0000001N9-03001+99999103281ADDGF100991999999999999999999
0029029350999991921020413004+62233+025733FM-12+009499999V0203601N001019999999N0000001N9-01891+99999103241ADDGF100991999999999999999999
0029029350999991921020420004+62233+025733FM-12+009499999V0209991C000019999999N0000001N9-02221+99999103081ADDGF100991999999999999999999
0029029350999991921020506004+62233+025733FM-12+009499999V0203201N001019999999N0000001N9-02941+99999103031ADDGF100991999999999999999999
0029029350999991921020513004+62233+025733FM-12+009499999V0209991C000019999999N0000001N9-01831+99999103231ADDGF100991999999999999999999
0029029350999991921020520004+62233+025733FM-12+009499999V0201401N001019999999N0000001N9-02001+99999103191ADDGF100991999999999999999999
0029029350999991921020606004+62233+025733FM-12+009499999V0209991C000019999999N0000001N9-02061+99999103001ADDGF100991999999999999999999
0029029350999991921020613004+62233+025733FM-12+009499999V0201801N003119999999N0000001N9-01331+99999102741ADDGF105991999999999999999999
0029029350999991921020620004+62233+025733FM-12+009499999V0202301N003119999999N0000001N9-00561+99999102351ADDGF108991999999999999999999
0029029350999991921020706004+62233+025733FM-12+009499999V0202901N001019999999N0000001N9-00171+99999102231ADDGF108991999999999999999999
0029029350999991921020713004+62233+025733FM-12+009499999V0203401N002119999999N0000001N9-00111+99999102551ADDGF108991999999999999999999
0029029350999991921020720004+62233+025733FM-12+009499999V0203201N001019999999N0000001N9-00391+99999102781ADDGF108991999999999999999999
0029029350999991921020806004+62233+025733FM-12+009499999V0203401N001019999999N0000001N9-00721+99999102751ADDGF108991999999999999999999
0029029350999991921020813004+62233+025733FM-12+009499999V0202901N003119999999N0000001N9-00561+99999102791ADDGF108991999999999999999999
0029029350999991921020820004+62233+025733FM-12+009499999V0202701N003119999999N0000001N9-00561+99999102641ADDGF108991999999999999999999
0029029350999991921020906004+62233+025733FM-12+009499999V0202701N001019999999N0000001N9-00831+99999102421ADDGF108991999999999999999999
0029029350999991921020913004+62233+025733FM-12+009499999V0202501N003119999999N0000001N9-00831+99999102101ADDGF108991999999999999999999
0029029350999991921020920004+62233+025733FM-12+009499999V0202001N001019999999N0000001N9-00671+99999101621ADDGF108991999999999999999999
0029029350999991921021006004+62233+025733FM-12+009499999V0202701N003119999999N0000001N9-00281+99999101161ADDGF108991999999999999999999
0029029350999991921021013004+62233+025733FM-12+009499999V0202701N003119999999N0000001N9-00061+99999101241ADDGF100991999999999999999999
0029029350999991921021020004+62233+025733FM-12+009499999V0202701N007219999999N0000001N9-00171+99999100911ADDGF108991999999999999999999
0029029350999991921021106004+62233+025733FM-12+009499999V0202701N007219999999N0000001N9+00171+99999099701ADDGF108991999999999999999999
0029029350999991921021113004+62233+025733FM-12+009499999V0202701N005119999999N0000001N9+00111+99999099261ADDGF106991999999999999999999
0029029350999991921021120004+62233+025733FM-12+009499999V0202701N008719999999N0000001N9+00171+99999098381ADDGF100991999999999999999999
0029029350999991921021206004+62233+025733FM-12+009499999V0203201N008719999999N0000001N9-00561+99999098521ADDGF108991999999999999999999
0029029350999991921021213004+62233+025733FM-12+009499999V0203401N007219999999N0000001N9-00671+99999099681ADDGF100991999999999999999999
0029029350999991921021220004+62233+025733FM-12+009499999V0209991C000019999999N0000001N9-01171+99999099861ADDGF100991999999999999999999
0029029350999991921021306004+62233+025733FM-12+009499999V0201601N005119999999N0000001N9-01171+99999098911ADDGF108991999999999999999999
0035029350999991921021313004+62233+025733FM-12+009499999V0201601N003119999999N0000001N9-00891+99999097861ADDGF108991999999999999999999MW1721
0035029350999991921021320004+62233+025733FM-12+009499999V0201601N001019999999N0000001N9-00671+99999096601ADDGF108991999999999999999999MW1721
0035029350999991921021406004+62233+025733FM-12+009499999V0201601N001019999999N0000001N9-00891+99999096181ADDGF108991999999999999999999MW1721
0035029350999991921021413004+62233+025733FM-12+009499999V0200501N005119999999N0000001N9-01171+99999096871ADDGF108991999999999999999999MW1721
0029029350999991921021420004+62233+025733FM-12+009499999V0203601N007219999999N0000001N9-01441+99999097661ADDGF100991999999999999999999
0029029350999991921021506004+62233+025733FM-12+009499999V0203601N008719999999N0000001N9-01561+99999098621ADDGF100991999999999999999999
0029029350999991921021513004+62233+025733FM-12+009499999V0203601N003119999999N0000001N9-01281+99999099221ADDGF100991999999999999999999
0029029350999991921021520004+62233+025733FM-12+009499999V0209991C000019999999N0000001N9-02171+99999099401ADDGF100991999999999999999999
0029029350999991921021606004+62233+025733FM-12+009499999V0203601N001019999999N0000001N9-03061+99999099321ADDGF100991999999999999999999
0029029350999991921021613004+62233+025733FM-12+009499999V0209991C000019999999N0000001N9-01561+99999099471ADDGF108991999999999999999999
0029029350999991921021620004+62233+025733FM-12+009499999V0209991C000019999999N0000001N9-01561+99999099511ADDGF106991999999999999999999
0035029350999991921021706004+62233+025733FM-12+009499999V0201801N001019999999N0000001N9-01221+99999099431ADDGF108991999999999999999999MW1721
0029029350999991921021713004+62233+025733FM-12+009499999V0209991C000019999999N0000001N9-00941+99999099591ADDGF108991999999999999999999
0035029350999991921021720004+62233+025733FM-12+009499999V0201801N001019999999N0000001N9-01061+99999099701ADDGF108991999999999999999999MW1721
0035029350999991921021806004+62233+025733FM-12+009499999V0201801N003119999999N0000001N9-01171+99999099681ADDGF108991999999999999999999MW1721
0035029350999991921021813004+62233+025733FM-12+009499999V0200701N001019999999N0000001N9-01061+99999099991ADDGF108991999999999999999999MW1721
0029029350999991921021820004+62233+025733FM-12+009499999V0209991C000019999999N0000001N9-01671+99999100361ADDGF100991999999999999999999
0035029350999991921021906004+62233+025733FM-12+009499999V0200901N001019999999N0000001N9-02441+99999100741ADDGF108991999999999999999999MW1721
0029029350999991921021913004+62233+025733FM-12+009499999V0209991C000019999999N0000001N9-01171+99999100681ADDGF108991999999999999999999
0029029350999991921021920004+62233+025733FM-12+009499999V0209991C000019999999N0000001N9-01781+99999100431ADDGF100991999999999999999999
0029029350999991921022006004+62233+025733FM-12+009499999V0209991C000019999999N0000001N9-02331+99999100861ADDGF100991999999999999999999
0029029350999991921022013004+62233+025733FM-12+009499999V0201601N003119999999N0000001N9-00941+99999100761ADDGF108991999999999999999999
0035029350999991921022020004+62233+025733FM-12+009499999V0202701N003119999999N0000001N9-00281+99999100501ADDGF108991999999999999999999MW1721
0029029350999991921022106004+62233+025733FM-12+009499999V0202701N001019999999N0000001N9-00281+99999100461ADDGF100991999999999999999999
0029029350999991921022113004+62233+025733FM-12+009499999V0202701N001019999999N0000001N9+00221+99999100741ADDGF100991999999999999999999
0029029350999991921022120004+62233+025733FM-12+009499999V0209991C000019999999N0000001N9-00721+99999101061ADDGF100991999999999999999999
0029029350999991921022206004+62233+025733FM-12+009499999V0202701N001019999999N0000001N9-01171+99999101381ADDGF100991999999999999999999
0029029350999991921022213004+62233+025733FM-12+009499999V0209991C000019999999N0000001N9-00111+99999101431ADDGF100991999999999999999999
0029029350999991921022220004+62233+025733FM-12+009499999V0209991C000019999999N0000001N9-00721+99999101461ADDGF100991999999999999999999
0029029350999991921022306004+62233+025733FM-12+009499999V0203601N001019999999N0000001N9-01441+99999101561ADDGF100991999999999999999999
0029029350999991921022313004+62233+025733FM-12+009499999V0209991C000019999999N0000001N9-00391+99999101601ADDGF100991999999999999999999
0035029350999991921022320004+62233+025733FM-12+009499999V0209991C000019999999N0000001N9-00331+99999101661ADDGF108991999999999999999999MW1721
0029029350999991921022406004+62233+025733FM-12+009499999V0209991C000019999999N0000001N9-00281+99999101681ADDGF108991999999999999999999
0029029350999991921022413004+62233+025733FM-12+009499999V0202701N001019999999N0000001N9-00221+99999101841ADDGF108991999999999999999999
0029029350999991921022420004+62233+025733FM-12+009499999V0202701N001019999999N0000001N9-00281+99999101901ADDGF108991999999999999999999
0029029350999991921022506004+62233+025733FM-12+009499999V0202501N001019999999N0000001N9-00391+99999101801ADDGF108991999999999999999999
0029029350999991921022513004+62233+025733FM-12+009499999V0202701N001019999999N0000001N9-00061+99999101681ADDGF100991999999999999999999
0029029350999991921022520004+62233+025733FM-12+009499999V0209991C000019999999N0000001N9-00561+99999101551ADDGF100991999999999999999999
0029029350999991921022606004+62233+025733FM-12+009499999V0201601N003119999999N0000001N9-00561+99999101281ADDGF108991999999999999999999
0029029350999991921022613004+62233+025733FM-12+009499999V0202701N003119999999N0000001N9-00111+99999100951ADDGF108991999999999999999999
0029029350999991921022620004+62233+025733FM-12+009499999V0202701N003119999999N0000001N9-00061+99999100551ADDGF108991999999999999999999
0029029350999991921022706004+62233+025733FM-12+009499999V0202701N001019999999N0000001N9-00221+99999100231ADDGF108991999999999999999999
0029029350999991921022713004+62233+025733FM-12+009499999V0202301N003119999999N0000001N9+00171+99999099471ADDGF108991999999999999999999
0035029350999991921022720004+62233+025733FM-12+009499999V0209991C000019999999N0000001N9+00001+99999098901ADDGF108991999999999999999999MW1721
0029029350999991921022806004+62233+025733FM-12+009499999V0202901N003119999999N0000001N9+00001+99999098721ADDGF108991999999999999999999
0029029350999991921022813004+62233+025733FM-12+009499999V0203601N001019999999N0000001N9+00221+99999099281ADDGF108991999999999999999999
0035029350999991921022820004+62233+025733FM-12+009499999V0209991C000019999999N0000001N9+00001+99999099031ADDGF108991999999999999999999MW1721
0029029350999991921030106004+62233+025733FM-12+009499999V0202901N003119999999N0000001N9+00001+99999099141ADDGF100991999999999999999999
0029029350999991921030113004+62233+025733FM-12+009499999V0202501N003119999999N0000001N9+00441+99999099591ADDGF100991999999999999999999
0029029350999991921030120004+62233+025733FM-12+009499999V0203601N001019999999N0000001N9+00001+99999099581ADDGF100991999999999999999999
0035029350999991921030206004+62233+025733FM-12+009499999V0202701N003119999999N0000001N9+00171+99999098501ADDGF108991999999999999999999MW1621
0035029350999991921030213004+62233+025733FM-12+009499999V0202701N003119999999N0000001N9+00221+99999098111ADDGF108991999999999999999999MW1621
0035029350999991921030220004+62233+025733FM-12+009499999V0202301N005119999999N0000001N9+00331+99999097881ADDGF108991999999999999999999MW1621
0029029350999991921030306004+62233+025733FM-12+009499999V0209991C000019999999N0000001N9-00061+99999097961ADDGF108991999999999999999999
0029029350999991921030313004+62233+025733FM-12+009499999V0203401N005119999999N0000001N9+00061+99999098141ADDGF100991999999999999999999
0029029350999991921030320004+62233+025733FM-12+009499999V0202501N003119999999N0000001N9-00171+99999098661ADDGF108991999999999999999999
0029029350999991921030406004+62233+025733FM-12+009499999V0201401N003119999999N0000001N9-00501+99999098881ADDGF108991999999999999999999
0029029350999991921030413004+62233+025733FM-12+009499999V0201801N007219999999N0000001N9+00001+99999097981ADDGF108991999999999999999999
0035029350999991921030420004+62233+025733FM-12+009499999V0200901N023119999999N0000001N9-00061+99999096661ADDGF108991999999999999999999MW1721
0035029350999991921030506004+62233+025733FM-12+009499999V0202701N005119999999N0000001N9+00001+99999095681ADDGF108991999999999999999999MW1721
0035029350999991921030513004+62233+025733FM-12+009499999V0202701N007219999999N0000001N9-00671+99999096261ADDGF108991999999999999999999MW1721
0035029350999991921030520004+62233+025733FM-12+009499999V0202701N005119999999N0000001N9-00611+99999096911ADDGF108991999999999999999999MW1721
0035029350999991921030606004+62233+025733FM-12+009499999V0202701N007219999999N0000001N9-00781+99999097881ADDGF108991999999999999999999MW1721
0029029350999991921030613004+62233+025733FM-12+009499999V0202701N008719999999N0000001N9-00331+99999098861ADDGF100991999999999999999999
0029029350999991921030620004+62233+025733FM-12+009499999V0209991C000019999999N0000001N9-00891+99999099401ADDGF100991999999999999999999
0029029350999991921030706004+62233+025733FM-12+009499999V0209991C000019999999N0000001N9-02001+99999099561ADDGF100991999999999999999999
0029029350999991921030713004+62233+025733FM-12+009499999V0209991C000019999999N0000001N9-00221+99999099461ADDGF100991999999999999999999
0029029350999991921030720004+62233+025733FM-12+009499999V0209991C000019999999N0000001N9-01441+99999099481ADDGF100991999999999999999999
0029029350999991921030806004+62233+025733FM-12+009499999V0209991C000019999999N0000001N9-01611+99999099511ADDGF100991999999999999999999
0029029350999991921030813004+62233+025733FM-12+009499999V0203601N003119999999N0000001N9-00331+99999099621ADDGF100991999999999999999999
0029029350999991921030820004+62233+025733FM-12+009499999V0209991C000019999999N0000001N9-01001+99999099751ADDGF100991999999999999999999
0029029350999991921030906004+62233+025733FM-12+009499999V0203601N001019999999N0000001N9-01891+99999099661ADDGF100991999999999999999999
0035029350999991921030913004+62233+025733FM-12+009499999V0203401N001019999999N0000001N9-00391+99999099551ADDGF108991999999999999999999MW1721
0029029350999991921030920004+62233+025733FM-12+009499999V0209991C000019999999N0000001N9-00561+99999099561ADDGF108991999999999999999999
0035029350999991921031006004+62233+025733FM-12+009499999V0201801N003119999999N0000001N9+00001+99999098631ADDGF108991999999999999999999MW1721
0029029350999991921031013004+62233+025733FM-12+009499999V0202901N001019999999N0000001N9+00221+99999099071ADDGF106991999999999999999999
0029029350999991921031020004+62233+025733FM-12+009499999V0209991C000019999999N0000001N9-00391+99999099821ADDGF100991999999999999999999
0029029350999991921031106004+62233+025733FM-12+009499999V0203401N001019999999N0000001N9-00831+99999100181ADDGF108991999999999999999999
0029029350999991921031113004+62233+025733FM-12+009499999V0203201N003119999999N0000001N9+00221+99999100311ADDGF108991999999999999999999
0029029350999991921031120004+62233+025733FM-12+009499999V0203201N001019999999N0000001N9+00221+99999100311ADDGF104991999999999999999999
0029029350999991921031206004+62233+025733FM-12+009499999V0201601N001019999999N0000001N9-00171+99999100281ADDGF100991999999999999999999
0029029350999991921031213004+62233+025733FM-12+009499999V0202701N005119999999N0000001N9+00781+99999100341ADDGF100991999999999999999999
0029029350999991921031220004+62233+025733FM-12+009499999V0202701N003119999999N0000001N9+00281+99999100751ADDGF100991999999999999999999
0029029350999991921031306004+62233+025733FM-12+009499999V0202701N001019999999N0000001N9-00221+99999101241ADDGF108991999999999999999999
0029029350999991921031313004+62233+025733FM-12+009499999V0202701N001019999999N0000001N9+00001+99999101351ADDGF108991999999999999999999
0029029350999991921031320004+62233+025733FM-12+009499999V0209991C000019999999N0000001N9-00391+99999101391ADDGF108991999999999999999999
0029029350999991921031406004+62233+025733FM-12+009499999V0202701N001019999999N0000001N9-00611+99999101401ADDGF108991999999999999999999
0029029350999991921031413004+62233+025733FM-12+009499999V0202701N001019999999N0000001N9+00831+99999101381ADDGF100991999999999999999999
0029029350999991921031420004+62233+025733FM-12+009499999V0201101N001019999999N0000001N9+00061+99999101351ADDGF108991999999999999999999
0029029350999991921031506004+62233+025733FM-12+009499999V0201601N003119999999N0000001N9+00001+99999101181ADDGF108991999999999999999999
0029029350999991921031513004+62233+025733FM-12+009499999V0209991C000019999999N0000001N9+00611+99999101071ADDGF100991999999999999999999
0029029350999991921031520004+62233+025733FM-12+009499999V0202701N001019999999N0000001N9+00001+99999101301ADDGF100991999999999999999999
0029029350999991921031606004+62233+025733FM-12+009499999V0202301N003119999999N0000001N9+00221+99999101301ADDGF108991999999999999999999
0029029350999991921031613004+62233+025733FM-12+009499999V0202701N003119999999N0000001N9+00781+99999101121ADDGF100991999999999999999999
0029029350999991921031620004+62233+025733FM-12+009499999V0202701N003119999999N0000001N9+00331+99999101121ADDGF100991999999999999999999
0029029350999991921031706004+62233+025733FM-12+009499999V0202501N003119999999N0000001N9+00331+99999100751ADDGF108991999999999999999999
0029029350999991921031713004+62233+025733FM-12+009499999V0202701N003119999999N0000001N9+00781+99999100551ADDGF108991999999999999999999
0029029350999991921031720004+62233+025733FM-12+009499999V0202501N003119999999N0000001N9+00501+99999100511ADDGF108991999999999999999999
0029029350999991921031806004+62233+025733FM-12+009499999V0202701N001019999999N0000001N9+00221+99999100681ADDGF100991999999999999999999
0029029350999991921031813004+62233+025733FM-12+009499999V0202501N005119999999N0000001N9+00831+99999100911ADDGF100991999999999999999999
0029029350999991921031820004+62233+025733FM-12+009499999V0209991C000019999999N0000001N9+00281+99999101071ADDGF100991999999999999999999
0029029350999991921031906004+62233+025733FM-12+009499999V0202901N001019999999N0000001N9-00391+99999100761ADDGF100991999999999999999999
0029029350999991921031913004+62233+025733FM-12+009499999V0201601N003119999999N0000001N9+00831+99999100181ADDGF102991999999999999999999
0029029350999991921031920004+62233+025733FM-12+009499999V0209991C000019999999N0000001N9+00281+99999099661ADDGF106991999999999999999999
0029029350999991921032006004+62233+025733FM-12+009499999V0209991C000019999999N0000001N9-00111+99999099311ADDGF100991999999999999999999
0029029350999991921032013004+62233+025733FM-12+009499999V0202301N003119999999N0000001N9+00331+99999098991ADDGF108991999999999999999999
0035029350999991921032020004+62233+025733FM-12+009499999V0201601N003119999999N0000001N9+00061+99999098801ADDGF108991999999999999999999MW1621
0029029350999991921032106004+62233+025733FM-12+009499999V0209991C000019999999N0000001N9+00111+99999098741ADDGF108991999999999999999999
0029029350999991921032113004+62233+025733FM-12+009499999V0202501N005119999999N0000001N9+00221+99999098951ADDGF108991999999999999999999
0029029350999991921032120004+62233+025733FM-12+009499999V0203201N001019999999N0000001N9+00111+99999099121ADDGF107991999999999999999999
0029029350999991921032206004+62233+025733FM-12+009499999V0203201N001019999999N0000001N9+00061+99999099301ADDGF108991999999999999999999
0029029350999991921032213004+62233+025733FM-12+009499999V0201401N003119999999N0000001N9+00281+99999099191ADDGF108991999999999999999999
0035029350999991921032220004+62233+025733FM-12+009499999V0201401N003119999999N0000001N9+00171+99999098631ADDGF108991999999999999999999MW1621
0029029350999991921032306004+62233+025733FM-12+009499999V0202701N003119999999N0000001N9+00111+99999098831ADDGF100991999999999999999999
0029029350999991921032313004+62233+025733FM-12+009499999V0202701N007219999999N0000001N9+00781+99999099281ADDGF100991999999999999999999
0029029350999991921032320004+62233+025733FM-12+009499999V0202701N001019999999N0000001N9+00281+99999099471ADDGF100991999999999999999999
0035029350999991921032406004+62233+025733FM-12+009499999V0202501N001019999999N0000001N9+00061+99999098551ADDGF108991999999999999999999MW1721
0029029350999991921032413004+62233+025733FM-12+009499999V0202501N005119999999N0000001N9+00781+99999098601ADDGF108991999999999999999999
0029029350999991921032420004+62233+025733FM-12+009499999V0202701N003119999999N0000001N9+00331+99999098601ADDGF103991999999999999999999
0046029350999991921032506004+62233+025733FM-12+009499999V0202501N011819999999N0000001N9+00501+99999098081ADDAJ100009199999999GF108991999999999999999999
0029029350999991921032513004+62233+025733FM-12+009499999V0202701N011819999999N0000001N9+00781+99999098591ADDGF102991999999999999999999
0029029350999991921032520004+62233+025733FM-12+009499999V0202701N005119999999N0000001N9+00331+99999099141ADDGF100991999999999999999999
0046029350999991921032606004+62233+025733FM-12+009499999V0202701N005119999999N0000001N9+00001+99999099631ADDAJ100009199999999GF100991999999999999999999
0029029350999991921032613004+62233+025733FM-12+009499999V0202701N005119999999N0000001N9+00721+99999099791ADDGF100991999999999999999999
0029029350999991921032620004+62233+025733FM-12+009499999V0202701N001019999999N0000001N9+00111+99999099821ADDGF100991999999999999999999
0046029350999991921032706004+62233+025733FM-12+009499999V0209991C000019999999N0000001N9-00281+99999099711ADDAJ100009199999999GF100991999999999999999999
0029029350999991921032713004+62233+025733FM-12+009499999V0201601N005119999999N0000001N9+00721+99999099501ADDGF100991999999999999999999
0029029350999991921032720004+62233+025733FM-12+009499999V0201401N003119999999N0000001N9+00281+99999098831ADDGF108991999999999999999999
0046029350999991921032806004+62233+025733FM-12+009499999V0201601N007219999999N0000001N9+00171+99999097721ADDAJ100009199999999GF108991999999999999999999
0029029350999991921032813004+62233+025733FM-12+009499999V0201801N008719999999N0000001N9+00441+99999097711ADDGF108991999999999999999999
0029029350999991921032820004+62233+025733FM-12+009499999V0201401N007219999999N0000001N9+00111+99999097661ADDGF106991999999999999999999
0046029350999991921032906004+62233+025733FM-12+009499999V0202901N005119999999N0000001N9+00001+99999097821ADDAJ100009199999999GF100991999999999999999999
0029029350999991921032913004+62233+025733FM-12+009499999V0202701N005119999999N0000001N9+00781+99999098381ADDGF100991999999999999999999
0029029350999991921032920004+62233+025733FM-12+009499999V0202701N001019999999N0000001N9+00221+99999098801ADDGF108991999999999999999999
0052029350999991921033006004+62233+025733FM-12+009499999V0202301N003119999999N0000001N9+00281+99999098501ADDAJ100009199999999GF108991999999999999999999MW1621
0029029350999991921033013004+62233+025733FM-12+009499999V0202501N003119999999N0000001N9+00671+99999098911ADDGF104991999999999999999999
0029029350999991921033020004+62233+025733FM-12+009499999V0202501N003119999999N0000001N9+00281+99999098761ADDGF105991999999999999999999
0052029350999991921033106004+62233+025733FM-12+009499999V0201601N003119999999N0000001N9+00171+99999098071ADDAJ100009199999999GF108991999999999999999999MW1621
0009029350999991921033113004+62233+025733FM-12+009499999V0201601N003119999999N0000001N9+00221+99999097471ADDMW1621
0035029350999991921033120004+62233+025733FM-12+009499999V0201401N003119999999N0000001N9+00061+99999097231ADDGF108991999999999999999999MW1621
0046029350999991921040106004+62233+025733FM-12+009499999V0203401N005119999999N0000001N9+00111+99999098241ADDAJ100009199999999GF100991999999999999999999
0029029350999991921040113004+62233+025733FM-12+009499999V0203601N007219999999N0000001N9+00391+99999099271ADDGF100991999999999999999999
0029029350999991921040120004+62233+025733FM-12+009499999V0203601N001019999999N0000001N9-00061+99999100161ADDGF100991999999999999999999
0046029350999991921040206004+62233+025733FM-12+009499999V0200201N001019999999N0000001N9-00331+99999100621ADDAJ100009199999999GF100991999999999999999999
0029029350999991921040213004+62233+025733FM-12+009499999V0201801N003119999999N0000001N9+00441+99999100521ADDGF108991999999999999999999
0029029350999991921040220004+62233+025733FM-12+009499999V0201101N003119999999N0000001N9+00281+99999100281ADDGF100991999999999999999999
0046029350999991921040306004+62233+025733FM-12+009499999V0202001N003119999999N0000001N9+00281+99999999999ADDAJ100009199999999GF108991999999999999999999
0029029350999991921040313004+62233+025733FM-12+009499999V0202301N001019999999N0000001N9+00501+99999100261ADDGF108991999999999999999999
0035029350999991921040320004+62233+025733FM-12+009499999V0201601N005119999999N0000001N9+00281+99999100101ADDGF108991999999999999999999MW1621
0046029350999991921040406004+62233+025733FM-12+009499999V0201801N005119999999N0000001N9+00501+99999099941ADDAJ100009199999999GF104991999999999999999999
0029029350999991921040413004+62233+025733FM-12+009499999V0201401N007219999999N0000001N9+00721+99999100021ADDGF106991999999999999999999
0029029350999991921040420004+62233+025733FM-12+009499999V0201801N001019999999N0000001N9+00561+99999099781ADDGF100991999999999999999999
0052029350999991921040506004+62233+025733FM-12+009499999V0201401N007219999999N0000001N9+00501+99999099281ADDAJ100009199999999GF108991999999999999999999MW1621
0029029350999991921040513004+62233+025733FM-12+009499999V0202701N001019999999N0000001N9+00501+99999099621ADDGF108991999999999999999999
0029029350999991921040520004+62233+025733FM-12+009499999V0200901N001019999999N0000001N9+00061+99999099751ADDGF100991999999999999999999
0046029350999991921040606004+62233+025733FM-12+009499999V0201401N001019999999N0000001N9-00281+99999100041ADDAJ100009199999999GF108991999999999999999999
0029029350999991921040613004+62233+025733FM-12+009499999V0200201N001019999999N0000001N9+00891+99999100481ADDGF105991999999999999999999
0029029350999991921040620004+62233+025733FM-12+009499999V0203601N001019999999N0000001N9+00281+99999101151ADDGF100991999999999999999999
0046029350999991921040706004+62233+025733FM-12+009499999V0203601N005119999999N0000001N9-00061+99999101761ADDAJ100009199999999GF100991999999999999999999
0029029350999991921040713004+62233+025733FM-12+009499999V0200501N003119999999N0000001N9+00941+99999101981ADDGF100991999999999999999999
0029029350999991921040720004+62233+025733FM-12+009499999V0209991C000019999999N0000001N9+00111+99999102141ADDGF100991999999999999999999
0046029350999991921040806004+62233+025733FM-12+009499999V0209991C000019999999N0000001N9-00281+99999102231ADDAJ100009199999999GF100991999999999999999999
0029029350999991921040813004+62233+025733FM-12+009499999V0200701N003119999999N0000001N9+01331+99999102461ADDGF100991999999999999999999
0029029350999991921040820004+62233+025733FM-12+009499999V0209991C000019999999N0000001N9+00501+99999102821ADDGF100991999999999999999999
0046029350999991921040906004+62233+025733FM-12+009499999V0203201N001019999999N0000001N9-00111+99999103231ADDAJ100009199999999GF100991999999999999999999
0029029350999991921040913004+62233+025733FM-12+009499999V0202301N001019999999N0000001N9+01561+99999103021ADDGF100991999999999999999999
0029029350999991921040920004+62233+025733FM-12+009499999V0202701N001019999999N0000001N9+00781+99999102681ADDGF100991999999999999999999
0046029350999991921041006004+62233+025733FM-12+009499999V0202701N005119999999N0000001N9+00441+99999102191ADDAJ100009199999999GF100991999999999999999999
0029029350999991921041013004+62233+025733FM-12+009499999V0202701N005119999999N0000001N9+01561+99999101841ADDGF100991999999999999999999
0029029350999991921041020004+62233+025733FM-12+009499999V0202701N001019999999N0000001N9+00831+99999101421ADDGF100991999999999999999999
0046029350999991921041106004+62233+025733FM-12+009499999V0202701N001019999999N0000001N9+00391+99999100951ADDAJ100009199999999GF100991999999999999999999
0029029350999991921041113004+62233+025733FM-12+009499999V0202701N005119999999N0000001N9+01391+99999100381ADDGF100991999999999999999999
0029029350999991921041120004+62233+025733FM-12+009499999V0209991C000019999999N0000001N9+00561+99999100401ADDGF100991999999999999999999
0046029350999991921041206004+62233+025733FM-12+009499999V0202901N001019999999N0000001N9+00171+99999100161ADDAJ100009199999999GF108991999999999999999999
0029029350999991921041213004+62233+025733FM-12+009499999V0202301N005119999999N0000001N9+01281+99999099741ADDGF105991999999999999999999
0029029350999991921041220004+62233+025733FM-12+009499999V0202701N001019999999N0000001N9+00501+99999099231ADDGF100991999999999999999999
0052029350999991921041306004+62233+025733FM-12+009499999V0202701N003119999999N0000001N9+00331+99999098381ADDAJ100009199999999GF108991999999999999999999MW1621
0035029350999991921041313004+62233+025733FM-12+009499999V0202701N001019999999N0000001N9+00501+99999098061ADDGF108991999999999999999999MW1621
0035029350999991921041320004+62233+025733FM-12+009499999V0209991C000019999999N0000001N9+00171+99999097641ADDGF108991999999999999999999MW1621
0052029350999991921041406004+62233+025733FM-12+009499999V0202701N001019999999N0000001N9+00111+99999097161ADDAJ100009199999999GF108991999999999999999999MW1621
0035029350999991921041413004+62233+025733FM-12+009499999V0202701N003119999999N0000001N9+00331+99999097501ADDGF108991999999999999999999MW1621
0029029350999991921041420004+62233+025733FM-12+009499999V0209991C000019999999N0000001N9+00171+99999097781ADDGF103991999999999999999999
0052029350999991921041506004+62233+025733FM-12+009499999V0202901N001019999999N0000001N9+00221+99999097391ADDAJ100009199999999GF108991999999999999999999MW1621
0035029350999991921041513004+62233+025733FM-12+009499999V0202901N007219999999N0000001N9+00501+99999097241ADDGF108991999999999999999999MW1621
0035029350999991921041520004+62233+025733FM-12+009499999V0201401N007219999999N0000001N9+00281+99999097401ADDGF108991999999999999999999MW1621
0046029350999991921041606004+62233+025733FM-12+009499999V0202701N007219999999N0000001N9+00171+99999098161ADDAJ100009199999999GF102991999999999999999999
0029029350999991921041613004+62233+025733FM-12+009499999V0201401N005119999999N0000001N9+00721+99999098631ADDGF106991999999999999999999
0035029350999991921041620004+62233+025733FM-12+009499999V0201401N001019999999N0000001N9+00171+99999098901ADDGF108991999999999999999999MW1621
0046029350999991921041706004+62233+025733FM-12+009499999V0201401N003119999999N0000001N9+00221+99999099381ADDAJ100009199999999GF104991999999999999999999
0029029350999991921041713004+62233+025733FM-12+009499999V0201801N001019999999N0000001N9+00831+99999099681ADDGF108991999999999999999999
0029029350999991921041720004+62233+025733FM-12+009499999V0209991C000019999999N0000001N9+00331+99999099751ADDGF108991999999999999999999
0052029350999991921041806004+62233+025733FM-12+009499999V0200501N005119999999N0000001N9+00221+99999099341ADDAJ100009199999999GF108991999999999999999999MW1621
0029029350999991921041813004+62233+025733FM-12+009499999V0200501N003119999999N0000001N9+00221+99999098941ADDGF108991999999999999999999
0035029350999991921041820004+62233+025733FM-12+009499999V0200501N001019999999N0000001N9+00441+99999098621ADDGF108991999999999999999999MW1621
0046029350999991921041906004+62233+025733FM-12+009499999V0201401N008719999999N0000001N9+00611+99999099061ADDAJ100009199999999GF104991999999999999999999
0029029350999991921041913004+62233+025733FM-12+009499999V0201401N011819999999N0000001N9+00721+99999099831ADDGF107991999999999999999999
0029029350999991921041920004+62233+025733FM-12+009499999V0201601N003119999999N0000001N9+00501+99999100351ADDGF100991999999999999999999
0046029350999991921042006004+62233+025733FM-12+009499999V0209991C000019999999N0000001N9+00391+99999100751ADDAJ100009199999999GF100991999999999999999999
0029029350999991921042013004+62233+025733FM-12+009499999V0209991C000019999999N0000001N9+01221+99999100741ADDGF108991999999999999999999
0029029350999991921042020004+62233+025733FM-12+009499999V0201801N001019999999N0000001N9+00781+99999100631ADDGF108991999999999999999999
0046029350999991921042106004+62233+025733FM-12+009499999V0201801N003119999999N0000001N9+00501+99999100591ADDAJ100009199999999GF108991999999999999999999
0029029350999991921042113004+62233+025733FM-12+009499999V0203601N003119999999N0000001N9+01441+99999100471ADDGF103991999999999999999999
0029029350999991921042120004+62233+025733FM-12+009499999V0203601N001019999999N0000001N9+00891+99999100381ADDGF107991999999999999999999
0046029350999991921042206004+62233+025733FM-12+009499999V0209991C000019999999N0000001N9+00721+99999100631ADDAJ100009199999999GF104991999999999999999999
0029029350999991921042213004+62233+025733FM-12+009499999V0201401N003119999999N0000001N9+01781+99999100921ADDGF102991999999999999999999
0035029350999991921042220004+62233+025733FM-12+009499999V0209991C000019999999N0000001N9+00941+99999101111ADDGF108991999999999999999999MW1601
0046029350999991921042306004+62233+025733FM-12+009499999V0201401N001019999999N0000001N9+00781+99999101541ADDAJ100009199999999GF108991999999999999999999
0029029350999991921042313004+62233+025733FM-12+009499999V0201401N001019999999N0000001N9+01441+99999101631ADDGF105991999999999999999999
0029029350999991921042320004+62233+025733FM-12+009499999V0209991C000019999999N0000001N9+01001+99999101741ADDGF100991999999999999999999
0046029350999991921042406004+62233+025733FM-12+009499999V0201401N001019999999N0000001N9+00781+99999101981ADDAJ100009199999999GF104991999999999999999999
0029029350999991921042413004+62233+025733FM-12+009499999V0201401N003119999999N0000001N9+02331+99999101991ADDGF100991999999999999999999
0029029350999991921042420004+62233+025733FM-12+009499999V0200901N001019999999N0000001N9+01441+99999102241ADDGF100991999999999999999999
0046029350999991921042506004+62233+025733FM-12+009499999V0200901N001019999999N0000001N9+00941+99999102641ADDAJ100009199999999GF100991999999999999999999
0029029350999991921042513004+62233+025733FM-12+009499999V0200901N003119999999N0000001N9+02391+99999102721ADDGF106991999999999999999999
0029029350999991921042520004+62233+025733FM-12+009499999V0209991C000019999999N0000001N9+01501+99999102791ADDGF100991999999999999999999
0046029350999991921042606004+62233+025733FM-12+009499999V0200901N001019999999N0000001N9+01061+99999103021ADDAJ100009199999999GF100991999999999999999999
0029029350999991921042613004+62233+025733FM-12+009499999V0200901N003119999999N0000001N9+02501+99999102921ADDGF101991999999999999999999
0029029350999991921042620004+62233+025733FM-12+009499999V0209991C000019999999N0000001N9+01441+99999102791ADDGF100991999999999999999999
0046029350999991921042706004+62233+025733FM-12+009499999V0200901N001019999999N0000001N9+00941+99999102781ADDAJ100009199999999GF108991999999999999999999
0029029350999991921042713004+62233+025733FM-12+009499999V0200701N003119999999N0000001N9+02501+99999102511ADDGF103991999999999999999999
0029029350999991921042720004+62233+025733FM-12+009499999V0200901N001019999999N0000001N9+01611+99999102261ADDGF106991999999999999999999
0046029350999991921042806004+62233+025733FM-12+009499999V0209991C000019999999N0000001N9+01001+99999101941ADDAJ100009199999999GF100991999999999999999999
0029029350999991921042813004+62233+025733FM-12+009499999V0203601N003119999999N0000001N9+02281+99999101391ADDGF105991999999999999999999
0029029350999991921042820004+62233+025733FM-12+009499999V0203601N001019999999N0000001N9+01171+99999101351ADDGF100991999999999999999999
0046029350999991921042906004+62233+025733FM-12+009499999V0203601N007219999999N0000001N9+00391+99999101541ADDAJ100009199999999GF108991999999999999999999
0029029350999991921042913004+62233+025733FM-12+009499999V0203601N005119999999N0000001N9+00831+99999101641ADDGF104991999999999999999999
0029029350999991921042920004+62233+025733FM-12+009499999V0209991C000019999999N0000001N9+00501+99999101521ADDGF100991999999999999999999
0046029350999991921043006004+62233+025733FM-12+009499999V0200501N003119999999N0000001N9+00441+99999101381ADDAJ100009199999999GF100991999999999999999999
0029029350999991921043013004+62233+025733FM-12+009499999V0200201N003119999999N0000001N9+01671+99999101061ADDGF105991999999999999999999
0029029350999991921043020004+62233+025733FM-12+009499999V0203601N001019999999N0000001N9+00831+99999101021ADDGF100991999999999999999999
0046029350999991921050106004+62233+025733FM-12+009499999V0209991C000019999999N0000001N9+00501+99999100791ADDAJ100009199999999GF100991999999999999999999
0029029350999991921050113004+62233+025733FM-12+009499999V0202701N007219999999N0000001N9+01721+99999100221ADDGF105991999999999999999999
0029029350999991921050120004+62233+025733FM-12+009499999V0202701N003119999999N0000001N9+01171+99999099921ADDGF100991999999999999999999
0046029350999991921050206004+62233+025733FM-12+009499999V0202301N005119999999N0000001N9+00831+99999099301ADDAJ100009199999999GF102991999999999999999999
0029029350999991921050213004+62233+025733FM-12+009499999V0202701N007219999999N0000001N9+01611+99999098881ADDGF108991999999999999999999
0029029350999991921050220004+62233+025733FM-12+009499999V0202701N003119999999N0000001N9+00941+99999098761ADDGF103991999999999999999999
0046029350999991921050306004+62233+025733FM-12+009499999V0201601N003119999999N0000001N9+00721+99999098501ADDAJ100009199999999GF106991999999999999999999
0029029350999991921050313004+62233+025733FM-12+009499999V0200901N007219999999N0000001N9+01331+99999098261ADDGF104991999999999999999999
0029029350999991921050320004+62233+025733FM-12+009499999V0202701N001019999999N0000001N9+00671+99999098401ADDGF106991999999999999999999
0046029350999991921050406004+62233+025733FM-12+009499999V0203201N001019999999N0000001N9+00441+99999098671ADDAJ100009199999999GF107991999999999999999999
0029029350999991921050413004+62233+025733FM-12+009499999V0203201N001019999999N0000001N9+01171+99999098661ADDGF103991999999999999999999
0029029350999991921050420004+62233+025733FM-12+009499999V0203401N001019999999N0000001N9+00611+99999098661ADDGF108991999999999999999999
0046029350999991921050506004+62233+025733FM-12+009499999V0203601N001019999999N0000001N9+00501+99999098941ADDAJ100009199999999GF100991999999999999999999
0029029350999991921050513004+62233+025733FM-12+009499999V0203401N001019999999N0000001N9+01171+99999099181ADDGF108991999999999999999999
0029029350999991921050520004+62233+025733FM-12+009499999V0203601N001019999999N0000001N9+00611+99999099501ADDGF102991999999999999999999
0046029350999991921050606004+62233+025733FM-12+009499999V0203201N001019999999N0000001N9+00561+99999099951ADDAJ100009199999999GF100991999999999999999999
0029029350999991921050613004+62233+025733FM-12+009499999V0201401N001019999999N0000001N9+01111+99999099951ADDGF108991999999999999999999
0029029350999991921050620004+62233+025733FM-12+009499999V0209991C000019999999N0000001N9+00721+99999099761ADDGF108991999999999999999999
0046029350999991921050706004+62233+025733FM-12+009499999V0202701N001019999999N0000001N9+00721+99999099621ADDAJ100009199999999GF100991999999999999999999
0029029350999991921050713004+62233+025733FM-12+009499999V0202701N005119999999N0000001N9+01391+99999099711ADDGF104991999999999999999999
0029029350999991921050720004+62233+025733FM-12+009499999V0209991C000019999999N0000001N9+00781+99999100151ADDGF100991999999999999999999
0046029350999991921050806004+62233+025733FM-12+009499999V0201801N007219999999N0000001N9+00671+99999100461ADDAJ100009199999999GF106991999999999999999999
0029029350999991921050813004+62233+025733FM-12+009499999V0201601N007219999999N0000001N9+01391+99999100421ADDGF100991999999999999999999
0029029350999991921050820004+62233+025733FM-12+009499999V0201801N001019999999N0000001N9+01061+99999100421ADDGF100991999999999999999999
0046029350999991921050906004+62233+025733FM-12+009499999V0201601N005119999999N0000001N9+01001+99999100541ADDAJ100009199999999GF100991999999999999999999
0029029350999991921050913004+62233+025733FM-12+009499999V0201401N007219999999N0000001N9+02061+99999100351ADDGF101991999999999999999999
0029029350999991921050920004+62233+025733FM-12+009499999V0201801N001019999999N0000001N9+01331+99999100311ADDGF100991999999999999999999
0046029350999991921051006004+62233+025733FM-12+009499999V0202701N001019999999N0000001N9+01331+99999100591ADDAJ100009199999999GF102991999999999999999999
0035029350999991921051013004+62233+025733FM-12+009499999V0202701N001019999999N0000001N9+01781+99999100821ADDGF108991999999999999999999MW1621
0029029350999991921051020004+62233+025733FM-12+009499999V0202701N001019999999N0000001N9+01441+99999100621ADDGF105991999999999999999999
0046029350999991921051106004+62233+025733FM-12+009499999V0201801N003119999999N0000001N9+01501+99999100461ADDAJ100009199999999GF102991999999999999999999
0029029350999991921051113004+62233+025733FM-12+009499999V0202701N005119999999N0000001N9+02281+99999100381ADDGF105991999999999999999999
0029029350999991921051120004+62233+025733FM-12+009499999V0203401N001019999999N0000001N9+01171+99999100431ADDGF108991999999999999999999
0046029350999991921051206004+62233+025733FM-12+009499999V0203601N003119999999N0000001N9+01001+99999100401ADDAJ100009199999999GF108991999999999999999999
0029029350999991921051213004+62233+025733FM-12+009499999V0203601N003119999999N0000001N9+01061+99999100431ADDGF108991999999999999999999
0029029350999991921051220004+62233+025733FM-12+009499999V0203601N003119999999N0000001N9+00781+99999100461ADDGF108991999999999999999999
0046029350999991921051306004+62233+025733FM-12+009499999V0200201N003119999999N0000001N9+00721+99999100761ADDAJ100009199999999GF100991999999999999999999
0029029350999991921051313004+62233+025733FM-12+009499999V0200201N001019999999N0000001N9+01671+99999100871ADDGF100991999999999999999999
0029029350999991921051320004+62233+025733FM-12+009499999V0203601N001019999999N0000001N9+01111+99999100881ADDGF100991999999999999999999
0046029350999991921051406004+62233+025733FM-12+009499999V0202701N003119999999N0000001N9+01221+99999100911ADDAJ100009199999999GF101991999999999999999999
0000029350999991921051413004+62233+025733FM-12+009499999V0202701N005119999999N0000001N9+01831+99999100751
0029029350999991921051420004+62233+025733FM-12+009499999V0202501N005119999999N0000001N9+01441+99999100741ADDGF100991999999999999999999
0046029350999991921051506004+62233+025733FM-12+009499999V0201401N001019999999N0000001N9+01221+99999100751ADDAJ100009199999999GF103991999999999999999999
0029029350999991921051513004+62233+025733FM-12+009499999V0202701N005119999999N0000001N9+02331+99999100641ADDGF101991999999999999999999
0029029350999991921051520004+62233+025733FM-12+009499999V0202701N003119999999N0000001N9+01721+99999100541ADDGF100991999999999999999999
0046029350999991921051606004+62233+025733FM-12+009499999V0201801N003119999999N0000001N9+01281+99999100321ADDAJ100009199999999GF100991999999999999999999
0029029350999991921051613004+62233+025733FM-12+009499999V0201601N007219999999N0000001N9+02281+99999099741ADDGF100991999999999999999999
0029029350999991921051620004+62233+025733FM-12+009499999V0202701N005119999999N0000001N9+00671+99999099681ADDGF108991999999999999999999
0046029350999991921051706004+62233+025733FM-12+009499999V0203601N003119999999N0000001N9+00941+99999100141ADDAJ100009199999999GF100991999999999999999999
0029029350999991921051713004+62233+025733FM-12+009499999V0203601N003119999999N0000001N9+01781+99999100441ADDGF100991999999999999999999
0029029350999991921051720004+62233+025733FM-12+009499999V0203601N001019999999N0000001N9+01171+99999100581ADDGF100991999999999999999999
0046029350999991921051806004+62233+025733FM-12+009499999V0203601N001019999999N0000001N9+00831+99999100921ADDAJ100009199999999GF100991999999999999999999
0029029350999991921051813004+62233+025733FM-12+009499999V0201801N003119999999N0000001N9+02111+99999100861ADDGF102991999999999999999999
0029029350999991921051820004+62233+025733FM-12+009499999V0201801N003119999999N0000001N9+01441+99999100801ADDGF102991999999999999999999
0046029350999991921051906004+62233+025733FM-12+009499999V0201801N003119999999N0000001N9+01221+99999101001ADDAJ100009199999999GF106991999999999999999999
0029029350999991921051913004+62233+025733FM-12+009499999V0201801N003119999999N0000001N9+01891+99999100871ADDGF104991999999999999999999
0029029350999991921051920004+62233+025733FM-12+009499999V0201801N003119999999N0000001N9+01391+99999100701ADDGF100991999999999999999999
0046029350999991921052006004+62233+025733FM-12+009499999V0201801N001019999999N0000001N9+01221+99999100521ADDAJ100009199999999GF102991999999999999999999
0029029350999991921052013004+62233+025733FM-12+009499999V0201401N001019999999N0000001N9+01941+99999100341ADDGF108991999999999999999999
0029029350999991921052020004+62233+025733FM-12+009499999V0201801N003119999999N0000001N9+01561+99999100161ADDGF108991999999999999999999
0052029350999991921052106004+62233+025733FM-12+009499999V0201801N001019999999N0000001N9+01281+99999099781ADDAJ100009199999999GF108991999999999999999999MW1621
0029029350999991921052113004+62233+025733FM-12+009499999V0202701N003119999999N0000001N9+01721+99999099871ADDGF106991999999999999999999
0029029350999991921052120004+62233+025733FM-12+009499999V0203601N003119999999N0000001N9+01111+99999100321ADDGF106991999999999999999999
0046029350999991921052206004+62233+025733FM-12+009499999V0203601N001019999999N0000001N9+00891+99999100941ADDAJ100009199999999GF100991999999999999999999
0029029350999991921052213004+62233+025733FM-12+009499999V0202501N003119999999N0000001N9+02001+99999100831ADDGF100991999999999999999999
0029029350999991921052220004+62233+025733FM-12+009499999V0209991C000019999999N0000001N9+01501+99999100481ADDGF100991999999999999999999
0046029350999991921052306004+62233+025733FM-12+009499999V0203601N001019999999N0000001N9+01001+99999100431ADDAJ100009199999999GF108991999999999999999999
0029029350999991921052313004+62233+025733FM-12+009499999V0203401N008719999999N0000001N9+01611+99999100501ADDGF102991999999999999999999
0000029350999991921052320004+62233+025733FM-12+009499999V02099999999999999999N0000001N9+00891+99999100831
0046029350999991921052406004+62233+025733FM-12+009499999V0202701N005119999999N0000001N9+00781+99999101161ADDAJ100009199999999GF103991999999999999999999
0029029350999991921052413004+62233+025733FM-12+009499999V0200501N005119999999N0000001N9+01671+99999101021ADDGF105991999999999999999999
0029029350999991921052420004+62233+025733FM-12+009499999V0202701N003119999999N0000001N9+01281+99999100551ADDGF108991999999999999999999
0046029350999991921052506004+62233+025733FM-12+009499999V0202701N005119999999N0000001N9+01171+99999100151ADDAJ100009199999999GF108991999999999999999999
0029029350999991921052513004+62233+025733FM-12+009499999V0202701N003119999999N0000001N9+01501+99999100121ADDGF107991999999999999999999
0029029350999991921052520004+62233+025733FM-12+009499999V0209991C000019999999N0000001N9+01061+99999100311ADDGF102991999999999999999999
0046029350999991921052606004+62233+025733FM-12+009499999V0203201N001019999999N0000001N9+01221+99999100681ADDAJ100009199999999GF100991999999999999999999
0029029350999991921052613004+62233+025733FM-12+009499999V0201801N005119999999N0000001N9+02331+99999100661ADDGF100991999999999999999999
0029029350999991921052620004+62233+025733FM-12+009499999V0201601N005119999999N0000001N9+01781+99999100471ADDGF100991999999999999999999
0046029350999991921052706004+62233+025733FM-12+009499999V0201801N001019999999N0000001N9+01501+99999100591ADDAJ100009199999999GF101991999999999999999999
0029029350999991921052713004+62233+025733FM-12+009499999V0201801N007219999999N0000001N9+02561+99999100391ADDGF100991999999999999999999
0029029350999991921052720004+62233+025733FM-12+009499999V0201601N001019999999N0000001N9+01781+99999100261ADDGF100991999999999999999999
0046029350999991921052806004+62233+025733FM-12+009499999V0201801N001019999999N0000001N9+01671+99999100061ADDAJ100009199999999GF102991999999999999999999
0029029350999991921052813004+62233+025733FM-12+009499999V0201601N007219999999N0000001N9+02561+99999099781ADDGF104991999999999999999999
0029029350999991921052820004+62233+025733FM-12+009499999V0201801N007219999999N0000001N9+01941+99999099671ADDGF108991999999999999999999
0046029350999991921052906004+62233+025733FM-12+009499999V0201801N001019999999N0000001N9+01391+99999099421ADDAJ100009199999999GF108991999999999999999999
0029029350999991921052913004+62233+025733FM-12+009499999V0201801N003119999999N0000001N9+02221+99999099661ADDGF104991999999999999999999
0000029350999991921052920004+62233+025733FM-12+009499999V02099999999999999999N0000001N9+01941+99999099761
0046029350999991921053006004+62233+025733FM-12+009499999V0202701N003119999999N0000001N9+01391+99999099921ADDAJ100009199999999GF102991999999999999999999
0029029350999991921053013004+62233+025733FM-12+009499999V0202901N005119999999N0000001N9+01941+99999100261ADDGF105991999999999999999999
0029029350999991921053020004+62233+025733FM-12+009499999V0202701N001019999999N0000001N9+01391+99999100601ADDGF100991999999999999999999
0046029350999991921053106004+62233+025733FM-12+009499999V0202701N001019999999N0000001N9+01171+99999101151ADDAJ100009199999999GF100991999999999999999999
0029029350999991921053113004+62233+025733FM-12+009499999V0201801N003119999999N0000001N9+02281+99999101101ADDGF100991999999999999999999
0029029350999991921053120004+62233+025733FM-12+009499999V0202701N001019999999N0000001N9+01561+99999101081ADDGF100991999999999999999999
0046029350999991921060106004+62233+025733FM-12+009499999V0202701N003119999999N0000001N9+01501+99999101121ADDAJ100009199999999GF100991999999999999999999
0029029350999991921060113004+62233+025733FM-12+009499999V0201601N005119999999N0000001N9+02561+99999101031ADDGF100991999999999999999999
0029029350999991921060120004+62233+025733FM-12+009499999V0202701N003119999999N0000001N9+02001+99999101041ADDGF100991999999999999999999
0046029350999991921060206004+62233+025733FM-12+009499999V0202701N001019999999N0000001N9+01611+99999101271ADDAJ100009199999999GF100991999999999999999999
0029029350999991921060213004+62233+025733FM-12+009499999V0203401N001019999999N0000001N9+02501+99999101231ADDGF103991999999999999999999
0029029350999991921060220004+62233+025733FM-12+009499999V0209991C000019999999N0000001N9+01941+99999101031ADDGF102991999999999999999999
0046029350999991921060306004+62233+025733FM-12+009499999V0202701N001019999999N0000001N9+01611+99999100951ADDAJ100009199999999GF102991999999999999999999
0029029350999991921060313004+62233+025733FM-12+009499999V0202701N005119999999N0000001N9+02561+99999100551ADDGF103991999999999999999999
0029029350999991921060320004+62233+025733FM-12+009499999V0202701N003119999999N0000001N9+01561+99999100721ADDGF100991999999999999999999
0046029350999991921060406004+62233+025733FM-12+009499999V0203601N005119999999N0000001N9+01111+99999100881ADDAJ100009199999999GF100991999999999999999999
0029029350999991921060413004+62233+025733FM-12+009499999V0202701N005119999999N0000001N9+01831+99999100741ADDGF100991999999999999999999
0029029350999991921060420004+62233+025733FM-12+009499999V0202901N001019999999N0000001N9+01331+99999100351ADDGF108991999999999999999999
0046029350999991921060506004+62233+025733FM-12+009499999V0202701N001019999999N0000001N9+00941+99999099321ADDAJ100009199999999GF108991999999999999999999
0035029350999991921060513004+62233+025733FM-12+009499999V0200201N001019999999N0000001N9+01171+99999099381ADDGF108991999999999999999999MW1621
0029029350999991921060520004+62233+025733FM-12+009499999V0203601N003119999999N0000001N9+00781+99999099471ADDGF100991999999999999999999
0046029350999991921060606004+62233+025733FM-12+009499999V0200501N007219999999N0000001N9+00721+99999099711ADDAJ100009199999999GF102991999999999999999999
0029029350999991921060613004+62233+025733FM-12+009499999V0203601N003119999999N0000001N9+01111+99999099921ADDGF106991999999999999999999
0029029350999991921060620004+62233+025733FM-12+009499999V0209991C000019999999N0000001N9+00721+99999099911ADDGF101991999999999999999999
0046029350999991921060706004+62233+025733FM-12+009499999V0203601N001019999999N0000001N9+00891+99999099871ADDAJ100009199999999GF106991999999999999999999
0029029350999991921060713004+62233+025733FM-12+009499999V0202701N001019999999N0000001N9+01221+99999099721ADDGF108991999999999999999999
0029029350999991921060720004+62233+025733FM-12+009499999V0202701N001019999999N0000001N9+01171+99999099681ADDGF106991999999999999999999
0046029350999991921060806004+62233+025733FM-12+009499999V0203601N003119999999N0000001N9+01001+99999099741ADDAJ100009199999999GF104991999999999999999999
0029029350999991921060813004+62233+025733FM-12+009499999V0200501N001019999999N0000001N9+02061+99999099501ADDGF106991999999999999999999
0029029350999991921060820004+62233+025733FM-12+009499999V0200701N001019999999N0000001N9+01561+99999099391ADDGF108991999999999999999999
0046029350999991921060906004+62233+025733FM-12+009499999V0209991C000019999999N0000001N9+01221+99999099261ADDAJ100009199999999GF103991999999999999999999
0029029350999991921060913004+62233+025733FM-12+009499999V0209991C000019999999N0000001N9+02061+99999099231ADDGF100991999999999999999999
0029029350999991921060920004+62233+025733FM-12+009499999V0203201N001019999999N0000001N9+01561+99999099121ADDGF100991999999999999999999
0046029350999991921061006004+62233+025733FM-12+009499999V0203201N001019999999N0000001N9+01501+99999099231ADDAJ100009199999999GF105991999999999999999999
0029029350999991921061013004+62233+025733FM-12+009499999V0202701N003119999999N0000001N9+02331+99999099431ADDGF103991999999999999999999
0029029350999991921061020004+62233+025733FM-12+009499999V0201101N003119999999N0000001N9+01721+99999099471ADDGF102991999999999999999999
0046029350999991921061106004+62233+025733FM-12+009499999V0201801N003119999999N0000001N9+01611+99999099471ADDAJ100009199999999GF108991999999999999999999
0029029350999991921061113004+62233+025733FM-12+009499999V0201401N003119999999N0000001N9+01891+99999099621ADDGF105991999999999999999999
0029029350999991921061120004+62233+025733FM-12+009499999V0201601N001019999999N0000001N9+01721+99999099541ADDGF108991999999999999999999
0052029350999991921061206004+62233+025733FM-12+009499999V0201601N001019999999N0000001N9+01501+99999099521ADDAJ100009199999999GF108991999999999999999999MW1621
0029029350999991921061213004+62233+025733FM-12+009499999V0202701N001019999999N0000001N9+01611+99999099561ADDGF108991999999999999999999
0029029350999991921061220004+62233+025733FM-12+009499999V0201801N001019999999N0000001N9+01501+99999099551ADDGF108991999999999999999999
0046029350999991921061306004+62233+025733FM-12+009499999V0201801N003119999999N0000001N9+01441+99999099511ADDAJ100009199999999GF107991999999999999999999
0035029350999991921061313004+62233+025733FM-12+009499999V0201401N005119999999N0000001N9+01501+99999099601ADDGF108991999999999999999999MW1621
0029029350999991921061320004+62233+025733FM-12+009499999V0209991C000019999999N0000001N9+01331+99999099831ADDGF103991999999999999999999
0046029350999991921061406004+62233+025733FM-12+009499999V0201801N001019999999N0000001N9+01111+99999100061ADDAJ100009199999999GF100991999999999999999999
0029029350999991921061413004+62233+025733FM-12+009499999V0201401N001019999999N0000001N9+01891+99999100201ADDGF102991999999999999999999
0029029350999991921061420004+62233+025733FM-12+009499999V0209991C000019999999N0000001N9+01441+99999100311ADDGF100991999999999999999999
0046029350999991921061506004+62233+025733FM-12+009499999V0202501N003119999999N0000001N9+01171+99999100361ADDAJ100009199999999GF100991999999999999999999
0029029350999991921061513004+62233+025733FM-12+009499999V0202701N003119999999N0000001N9+02001+99999100151ADDGF100991999999999999999999
0029029350999991921061520004+62233+025733FM-12+009499999V0202701N003119999999N0000001N9+01561+99999099911ADDGF105991999999999999999999
0046029350999991921061606004+62233+025733FM-12+009499999V0203601N005119999999N0000001N9+01061+99999099951ADDAJ100009199999999GF108991999999999999999999
0029029350999991921061613004+62233+025733FM-12+009499999V0203601N005119999999N0000001N9+01441+99999100041ADDGF108991999999999999999999
0029029350999991921061620004+62233+025733FM-12+009499999V0203601N001019999999N0000001N9+01111+99999100161ADDGF100991999999999999999999
0046029350999991921061706004+62233+025733FM-12+009499999V0201401N003119999999N0000001N9+01061+99999100221ADDAJ100009199999999GF100991999999999999999999
0029029350999991921061713004+62233+025733FM-12+009499999V0209991C000019999999N0000001N9+01891+99999099961ADDGF101991999999999999999999
0029029350999991921061720004+62233+025733FM-12+009499999V0202701N001019999999N0000001N9+01441+99999099541ADDGF102991999999999999999999
0046029350999991921061806004+62233+025733FM-12+009499999V0202701N003119999999N0000001N9+01281+99999099301ADDAJ100009199999999GF100991999999999999999999
0029029350999991921061813004+62233+025733FM-12+009499999V0201801N003119999999N0000001N9+02221+99999098941ADDGF105991999999999999999999
0029029350999991921061820004+62233+025733FM-12+009499999V0209991C000019999999N0000001N9+01671+99999098841ADDGF108991999999999999999999
0052029350999991921061906004+62233+025733FM-12+009499999V0201401N003119999999N0000001N9+01221+99999098321ADDAJ100009199999999GF108991999999999999999999MW1621
0035029350999991921061913004+62233+025733FM-12+009499999V0201101N001019999999N0000001N9+01331+99999098031ADDGF108991999999999999999999MW1621
0029029350999991921061920004+62233+025733FM-12+009499999V0209991C000019999999N0000001N9+01281+99999098121ADDGF108991999999999999999999
0046029350999991921062006004+62233+025733FM-12+009499999V0201601N005119999999N0000001N9+01111+99999098191ADDAJ100009199999999GF108991999999999999999999
0029029350999991921062013004+62233+025733FM-12+009499999V0201801N005119999999N0000001N9+01331+99999098321ADDGF108991999999999999999999
0035029350999991921062020004+62233+025733FM-12+009499999V0202701N005119999999N0000001N9+00891+99999098641ADDGF108991999999999999999999MW1621
0046029350999991921062106004+62233+025733FM-12+009499999V0201601N005119999999N0000001N9+01061+99999098791ADDAJ100009199999999GF108991999999999999999999
0029029350999991921062113004+62233+025733FM-12+009499999V0201601N003119999999N0000001N9+01281+99999099221ADDGF106991999999999999999999
0029029350999991921062120004+62233+025733FM-12+009499999V0201601N003119999999N0000001N9+01281+99999099581ADDGF107991999999999999999999
0046029350999991921062206004+62233+025733FM-12+009499999V0202001N003119999999N0000001N9+01221+99999099601ADDAJ100009199999999GF108991999999999999999999
0029029350999991921062213004+62233+025733FM-12+009499999V0201801N001019999999N0000001N9+01671+99999099711ADDGF108991999999999999999999
0035029350999991921062220004+62233+025733FM-12+009499999V0209991C000019999999N0000001N9+01781+99999099621ADDGF108991999999999999999999MW1621
0052029350999991921062306004+62233+025733FM-12+009499999V0203601N003119999999N0000001N9+01061+99999099381ADDAJ100009199999999GF108991999999999999999999MW1621
0029029350999991921062313004+62233+025733FM-12+009499999V0209991C000019999999N0000001N9+01391+99999099511ADDGF108991999999999999999999
0029029350999991921062320004+62233+025733FM-12+009499999V0209991C000019999999N0000001N9+01331+99999099521ADDGF103991999999999999999999
0046029350999991921062406004+62233+025733FM-12+009499999V0202701N003119999999N0000001N9+01221+99999099951ADDAJ100009199999999GF101991999999999999999999
0029029350999991921062413004+62233+025733FM-12+009499999V0203601N001019999999N0000001N9+02171+99999999999ADDGF105991999999999999999999
0029029350999991921062420004+62233+025733FM-12+009499999V0203601N001019999999N0000001N9+01721+99999100061ADDGF103991999999999999999999
0046029350999991921062506004+62233+025733FM-12+009499999V0203601N005119999999N0000001N9+01331+99999100041ADDAJ100009199999999GF108991999999999999999999
0029029350999991921062513004+62233+025733FM-12+009499999V0200501N003119999999N0000001N9+02001+99999099741ADDGF108991999999999999999999
0029029350999991921062520004+62233+025733FM-12+009499999V0200501N003119999999N0000001N9+01561+99999099681ADDGF106991999999999999999999
0046029350999991921062606004+62233+025733FM-12+009499999V0200201N005119999999N0000001N9+01391+99999099641ADDAJ100009199999999GF102991999999999999999999
0029029350999991921062613004+62233+025733FM-12+009499999V0203601N001019999999N0000001N9+02221+99999099481ADDGF106991999999999999999999
0029029350999991921062620004+62233+025733FM-12+009499999V0201801N003119999999N0000001N9+01721+99999099501ADDGF106991999999999999999999
0046029350999991921062706004+62233+025733FM-12+009499999V0201801N005119999999N0000001N9+01561+99999099471ADDAJ100009199999999GF106991999999999999999999
0029029350999991921062713004+62233+025733FM-12+009499999V0201401N003119999999N0000001N9+02221+99999099391ADDGF107991999999999999999999
0029029350999991921062720004+62233+025733FM-12+009499999V0203601N001019999999N0000001N9+01721+99999099501ADDGF108991999999999999999999
0046029350999991921062806004+62233+025733FM-12+009499999V0203601N005119999999N0000001N9+01281+99999099241ADDAJ100009199999999GF108991999999999999999999
0029029350999991921062813004+62233+025733FM-12+009499999V0200201N003119999999N0000001N9+01671+99999099071ADDGF108991999999999999999999
0029029350999991921062820004+62233+025733FM-12+009499999V0200201N001019999999N0000001N9+01441+99999098881ADDGF108991999999999999999999
0052029350999991921062906004+62233+025733FM-12+009499999V0203601N005119999999N0000001N9+00831+99999098361ADDAJ100009199999999GF108991999999999999999999MW1621
0035029350999991921062913004+62233+025733FM-12+009499999V0200201N003119999999N0000001N9+01281+99999098071ADDGF108991999999999999999999MW1621
0029029350999991921062920004+62233+025733FM-12+009499999V0203601N001019999999N0000001N9+01391+99999098061ADDGF106991999999999999999999
0046029350999991921063006004+62233+025733FM-12+009499999V0200201N005119999999N0000001N9+01111+99999098421ADDAJ100009199999999GF108991999999999999999999
0029029350999991921063013004+62233+025733FM-12+009499999V0200501N003119999999N0000001N9+01611+99999098881ADDGF106991999999999999999999
0029029350999991921063020004+62233+025733FM-12+009499999V0200501N001019999999N0000001N9+01281+99999099281ADDGF104991999999999999999999
0046029350999991921070106004+62233+025733FM-12+009499999V0200501N005119999999N0000001N9+01171+99999099881ADDAJ100009199999999GF107991999999999999999999
0029029350999991921070113004+62233+025733FM-12+009499999V0200501N007219999999N0000001N9+01611+99999099981ADDGF108991999999999999999999
0029029350999991921070120004+62233+025733FM-12+009499999V0200201N003119999999N0000001N9+01331+99999100221ADDGF107991999999999999999999
0046029350999991921070206004+62233+025733FM-12+009499999V0200201N003119999999N0000001N9+01221+99999100381ADDAJ100009199999999GF108991999999999999999999
0029029350999991921070213004+62233+025733FM-12+009499999V0201401N003119999999N0000001N9+01891+99999100501ADDGF104991999999999999999999
0029029350999991921070220004+62233+025733FM-12+009499999V0209991C000019999999N0000001N9+01441+99999100441ADDGF100991999999999999999999
0046029350999991921070306004+62233+025733FM-12+009499999V0200501N003119999999N0000001N9+01441+99999100481ADDAJ100009199999999GF100991999999999999999999
0029029350999991921070313004+62233+025733FM-12+009499999V0203201N001019999999N0000001N9+02391+99999100441ADDGF101991999999999999999999
0029029350999991921070320004+62233+025733FM-12+009499999V0203201N001019999999N0000001N9+01721+99999100341ADDGF101991999999999999999999
0046029350999991921070406004+62233+025733FM-12+009499999V0203201N001019999999N0000001N9+01561+99999100351ADDAJ100009199999999GF101991999999999999999999
0029029350999991921070413004+62233+025733FM-12+009499999V0201801N003119999999N0000001N9+02441+99999100151ADDGF102991999999999999999999
0029029350999991921070420004+62233+025733FM-12+009499999V0209991C000019999999N0000001N9+01831+99999099991ADDGF106991999999999999999999
0046029350999991921070506004+62233+025733FM-12+009499999V0202301N003119999999N0000001N9+01501+99999099941ADDAJ100009199999999GF105991999999999999999999
0029029350999991921070513004+62233+025733FM-12+009499999V0202301N003119999999N0000001N9+02221+99999099831ADDGF105991999999999999999999
0029029350999991921070520004+62233+025733FM-12+009499999V0202701N001019999999N0000001N9+01501+99999099801ADDGF108991999999999999999999
0046029350999991921070606004+62233+025733FM-12+009499999V0203601N001019999999N0000001N9+01111+99999099911ADDAJ100009199999999GF106991999999999999999999
0029029350999991921070613004+62233+025733FM-12+009499999V0203601N001019999999N0000001N9+01611+99999099791ADDGF108991999999999999999999
0035029350999991921070620004+62233+025733FM-12+009499999V0203601N001019999999N0000001N9+01061+99999099831ADDGF108991999999999999999999MW1621
0046029350999991921070706004+62233+025733FM-12+009499999V0203601N005119999999N0000001N9+01061+99999100021ADDAJ100009199999999GF102991999999999999999999
0029029350999991921070713004+62233+025733FM-12+009499999V0203601N003119999999N0000001N9+01611+99999100141ADDGF106991999999999999999999
0029029350999991921070720004+62233+025733FM-12+009499999V0203601N001019999999N0000001N9+01281+99999100321ADDGF100991999999999999999999
0046029350999991921070806004+62233+025733FM-12+009499999V0203601N001019999999N0000001N9+01111+99999100671ADDAJ100009199999999GF102991999999999999999999
0029029350999991921070813004+62233+025733FM-12+009499999V0209991C000019999999N0000001N9+02061+99999100501ADDGF100991999999999999999999
0029029350999991921070820004+62233+025733FM-12+009499999V0201801N001019999999N0000001N9+01671+99999100271ADDGF102991999999999999999999
0046029350999991921070906004+62233+025733FM-12+009499999V0201801N003119999999N0000001N9+01561+99999099821ADDAJ100009199999999GF108991999999999999999999
0029029350999991921070913004+62233+025733FM-12+009499999V0201801N003119999999N0000001N9+02111+99999099741ADDGF102991999999999999999999
0029029350999991921070920004+62233+025733FM-12+009499999V0203601N003119999999N0000001N9+01671+99999099761ADDGF100991999999999999999999
0046029350999991921071006004+62233+025733FM-12+009499999V0202701N003119999999N0000001N9+01391+99999099831ADDAJ100009199999999GF102991999999999999999999
0035029350999991921071013004+62233+025733FM-12+009499999V0202701N001019999999N0000001N9+01221+99999099751ADDGF108991999999999999999999MW1621
0029029350999991921071020004+62233+025733FM-12+009499999V0209991C000019999999N0000001N9+01221+99999099591ADDGF108991999999999999999999
0046029350999991921071106004+62233+025733FM-12+009499999V0202901N003119999999N0000001N9+01221+99999099601ADDAJ100009199999999GF107991999999999999999999
0029029350999991921071113004+62233+025733FM-12+009499999V0202701N003119999999N0000001N9+01941+99999099311ADDGF108991999999999999999999
0035029350999991921071120004+62233+025733FM-12+009499999V0202701N003119999999N0000001N9+01281+99999098761ADDGF108991999999999999999999MW1621
0052029350999991921071206004+62233+025733FM-12+009499999V0202701N001019999999N0000001N9+01391+99999097501ADDAJ100009199999999GF108991999999999999999999MW1621
0029029350999991921071213004+62233+025733FM-12+009499999V0202001N003119999999N0000001N9+01671+99999097181ADDGF108991999999999999999999
0035029350999991921071220004+62233+025733FM-12+009499999V0202701N005119999999N0000001N9+01221+99999097111ADDGF108991999999999999999999MW1621
0052029350999991921071306004+62233+025733FM-12+009499999V0202901N007219999999N0000001N9+00941+99999097231ADDAJ100009199999999GF108991999999999999999999MW1621
0029029350999991921071313004+62233+025733FM-12+009499999V0203401N005119999999N0000001N9+01001+99999097671ADDGF108991999999999999999999
0035029350999991921071320004+62233+025733FM-12+009499999V0202901N003119999999N0000001N9+00831+99999097881ADDGF108991999999999999999999MW1621
0052029350999991921071406004+62233+025733FM-12+009499999V0203201N003119999999N0000001N9+01001+99999097941ADDAJ100009199999999GF108991999999999999999999MW1621
0029029350999991921071413004+62233+025733FM-12+009499999V0200201N007219999999N0000001N9+01171+99999098741ADDGF108991999999999999999999
0029029350999991921071420004+62233+025733FM-12+009499999V0200201N003119999999N0000001N9+01001+99999099191ADDGF108991999999999999999999
0046029350999991921071506004+62233+025733FM-12+009499999V0203601N008719999999N0000001N9+01061+99999099831ADDAJ100009199999999GF108991999999999999999999
0029029350999991921071513004+62233+025733FM-12+009499999V0200201N003119999999N0000001N9+01111+99999100101ADDGF108991999999999999999999
0029029350999991921071520004+62233+025733FM-12+009499999V0203401N001019999999N0000001N9+01061+99999100311ADDGF100991999999999999999999
0046029350999991921071606004+62233+025733FM-12+009499999V0203601N003119999999N0000001N9+01001+99999100581ADDAJ100009199999999GF102991999999999999999999
0029029350999991921071613004+62233+025733FM-12+009499999V0203601N001019999999N0000001N9+01671+99999100551ADDGF108991999999999999999999
0035029350999991921071620004+62233+025733FM-12+009499999V0203201N001019999999N0000001N9+01281+99999100431ADDGF108991999999999999999999MW1621
0046029350999991921071706004+62233+025733FM-12+009499999V0203601N008719999999N0000001N9+00941+99999100421ADDAJ100009199999999GF107991999999999999999999
0029029350999991921071713004+62233+025733FM-12+009499999V0200201N005119999999N0000001N9+01391+99999100361ADDGF105991999999999999999999
0029029350999991921071720004+62233+025733FM-12+009499999V0200201N001019999999N0000001N9+01281+99999100591ADDGF102991999999999999999999
0046029350999991921071806004+62233+025733FM-12+009499999V0200501N002119999999N0000001N9+01111+99999100761ADDAJ100009199999999GF101991999999999999999999
0029029350999991921071813004+62233+025733FM-12+009499999V0200701N005119999999N0000001N9+01721+99999100581ADDGF106991999999999999999999
0029029350999991921071820004+62233+025733FM-12+009499999V0209991C000019999999N0000001N9+01331+99999100351ADDGF108991999999999999999999
0052029350999991921071906004+62233+025733FM-12+009499999V0200501N005119999999N0000001N9+01111+99999100081ADDAJ100009199999999GF108991999999999999999999MW1621
0035029350999991921071913004+62233+025733FM-12+009499999V0203601N001019999999N0000001N9+01561+99999100121ADDGF108991999999999999999999MW1621
0029029350999991921071920004+62233+025733FM-12+009499999V0200501N001019999999N0000001N9+01171+99999100151ADDGF100991999999999999999999
0046029350999991921072006004+62233+025733FM-12+009499999V0200501N005119999999N0000001N9+01221+99999100221ADDAJ100009199999999GF106991999999999999999999
0029029350999991921072013004+62233+025733FM-12+009499999V0200201N003119999999N0000001N9+01831+99999100121ADDGF102991999999999999999999
0029029350999991921072020004+62233+025733FM-12+009499999V0209991C000019999999N0000001N9+01391+99999100031ADDGF108991999999999999999999
0046029350999991921072106004+62233+025733FM-12+009499999V0203601N005119999999N0000001N9+01281+99999099801ADDAJ100009199999999GF108991999999999999999999
0029029350999991921072113004+62233+025733FM-12+009499999V0203601N001019999999N0000001N9+01721+99999099601ADDGF108991999999999999999999
0029029350999991921072120004+62233+025733FM-12+009499999V0209991C000019999999N0000001N9+01391+99999099461ADDGF108991999999999999999999
0046029350999991921072206004+62233+025733FM-12+009499999V0203601N001019999999N0000001N9+01221+99999099311ADDAJ100009199999999GF108991999999999999999999
0029029350999991921072213004+62233+025733FM-12+009499999V0200201N001019999999N0000001N9+01941+99999099281ADDGF100991999999999999999999
0029029350999991921072220004+62233+025733FM-12+009499999V0209991C000019999999N0000001N9+01391+99999099181ADDGF102991999999999999999999
0046029350999991921072306004+62233+025733FM-12+009499999V0200501N001019999999N0000001N9+01221+99999098911ADDAJ100009199999999GF103991999999999999999999
0029029350999991921072313004+62233+025733FM-12+009499999V0201801N003119999999N0000001N9+01831+99999098301ADDGF108991999999999999999999
0035029350999991921072320004+62233+025733FM-12+009499999V0201101N003119999999N0000001N9+01221+99999097461ADDGF108991999999999999999999MW1621
0046029350999991921072406004+62233+025733FM-12+009499999V0203601N005119999999N0000001N9+01331+99999097381ADDAJ100009199999999GF106991999999999999999999
0029029350999991921072413004+62233+025733FM-12+009499999V0203601N001019999999N0000001N9+01671+99999097641ADDGF108991999999999999999999
0035029350999991921072420004+62233+025733FM-12+009499999V0200701N001019999999N0000001N9+01281+99999097581ADDGF108991999999999999999999MW1641
0052029350999991921072506004+62233+025733FM-12+009499999V0200501N005119999999N0000001N9+01111+99999097581ADDAJ100009199999999GF108991999999999999999999MW1621
0029029350999991921072513004+62233+025733FM-12+009499999V0200501N005119999999N0000001N9+01391+99999097901ADDGF108991999999999999999999
0029029350999991921072520004+62233+025733FM-12+009499999V0200501N005119999999N0000001N9+01391+99999098481ADDGF108991999999999999999999
0046029350999991921072606004+62233+025733FM-12+009499999V0203601N001019999999N0000001N9+01441+99999099501ADDAJ100009199999999GF100991999999999999999999
0029029350999991921072613004+62233+025733FM-12+009499999V0203601N001019999999N0000001N9+02281+99999099801ADDGF108991999999999999999999
0029029350999991921072620004+62233+025733FM-12+009499999V0202701N003119999999N0000001N9+01781+99999099861ADDGF101991999999999999999999
0046029350999991921072706004+62233+025733FM-12+009499999V0201601N005119999999N0000001N9+01441+99999099641ADDAJ100009199999999GF107991999999999999999999
0029029350999991921072713004+62233+025733FM-12+009499999V0202701N003119999999N0000001N9+02061+99999099231ADDGF106991999999999999999999
0029029350999991921072720004+62233+025733FM-12+009499999V0202301N001019999999N0000001N9+01561+99999099161ADDGF100991999999999999999999
0046029350999991921072806004+62233+025733FM-12+009499999V0202701N005119999999N0000001N9+01331+99999099191ADDAJ100009199999999GF100991999999999999999999
0035029350999991921072813004+62233+025733FM-12+009499999V0203601N005119999999N0000001N9+01611+99999099191ADDGF108991999999999999999999MW1641
0035029350999991921072820004+62233+025733FM-12+009499999V0200201N003119999999N0000001N9+01391+99999099351ADDGF108991999999999999999999MW1641
0046029350999991921072906004+62233+025733FM-12+009499999V0200501N005119999999N0000001N9+01111+99999099761ADDAJ100009199999999GF100991999999999999999999
0029029350999991921072913004+62233+025733FM-12+009499999V0203601N005119999999N0000001N9+02061+99999099921ADDGF102991999999999999999999
0029029350999991921072920004+62233+025733FM-12+009499999V0209991C000019999999N0000001N9+01501+99999100021ADDGF100991999999999999999999
0046029350999991921073006004+62233+025733FM-12+009499999V0200501N001019999999N0000001N9+01221+99999099941ADDAJ100009199999999GF108991999999999999999999
0029029350999991921073013004+62233+025733FM-12+009499999V0201801N005119999999N0000001N9+01221+99999099481ADDGF108991999999999999999999
0035029350999991921073020004+62233+025733FM-12+009499999V0201801N003119999999N0000001N9+01441+99999098841ADDGF108991999999999999999999MW1621
0046029350999991921073106004+62233+025733FM-12+009499999V0202701N005119999999N0000001N9+01061+99999098761ADDAJ100009199999999GF108991999999999999999999
0029029350999991921073113004+62233+025733FM-12+009499999V0202301N007219999999N0000001N9+01501+99999099191ADDGF107991999999999999999999
0029029350999991921073120004+62233+025733FM-12+009499999V0202701N005119999999N0000001N9+01281+99999099561ADDGF106991999999999999999999
0046029350999991921080106004+62233+025733FM-12+009499999V0203601N001019999999N0000001N9+01171+99999099861ADDAJ100009199999999GF104991999999999999999999
0029029350999991921080113004+62233+025733FM-12+009499999V0202701N003119999999N0000001N9+01831+99999099921ADDGF106991999999999999999999
0029029350999991921080120004+62233+025733FM-12+009499999V0201101N001019999999N0000001N9+01391+99999100021ADDGF108991999999999999999999
0046029350999991921080206004+62233+025733FM-12+009499999V0200701N001019999999N0000001N9+01281+99999100181ADDAJ100009199999999GF107991999999999999999999
0029029350999991921080213004+62233+025733FM-12+009499999V0201101N001019999999N0000001N9+02111+99999100301ADDGF103991999999999999999999
0029029350999991921080220004+62233+025733FM-12+009499999V0200701N001019999999N0000001N9+01561+99999100341ADDGF102991999999999999999999
0046029350999991921080306004+62233+025733FM-12+009499999V0200701N001019999999N0000001N9+01391+99999100391ADDAJ100009199999999GF108991999999999999999999
0029029350999991921080313004+62233+025733FM-12+009499999V0201801N003119999999N0000001N9+02441+99999100321ADDGF100991999999999999999999
0029029350999991921080320004+62233+025733FM-12+009499999V0209991C000019999999N0000001N9+02061+99999100161ADDGF108991999999999999999999
0046029350999991921080406004+62233+025733FM-12+009499999V0201801N001019999999N0000001N9+01721+99999100121ADDAJ100009199999999GF100991999999999999999999
0029029350999991921080413004+62233+025733FM-12+009499999V0201801N005119999999N0000001N9+02831+99999099901ADDGF104991999999999999999999
0029029350999991921080420004+62233+025733FM-12+009499999V0201801N003119999999N0000001N9+02281+99999099721ADDGF101991999999999999999999
0046029350999991921080506004+62233+025733FM-12+009499999V0202301N005119999999N0000001N9+01721+99999099431ADDAJ100009199999999GF106991999999999999999999
0029029350999991921080513004+62233+025733FM-12+009499999V0203401N003119999999N0000001N9+02001+99999099511ADDGF104991999999999999999999
0029029350999991921080520004+62233+025733FM-12+009499999V0202701N001019999999N0000001N9+01611+99999099361ADDGF103991999999999999999999
0046029350999991921080606004+62233+025733FM-12+009499999V0202701N001019999999N0000001N9+01221+99999099121ADDAJ100009199999999GF100991999999999999999999
0035029350999991921080613004+62233+025733FM-12+009499999V0201801N003119999999N0000001N9+01721+99999098741ADDGF108991999999999999999999MW1621
0035029350999991921080620004+62233+025733FM-12+009499999V0201601N003119999999N0000001N9+01441+99999097991ADDGF108991999999999999999999MW1621
0046029350999991921080706004+62233+025733FM-12+009499999V0201801N005119999999N0000001N9+01501+99999097271ADDAJ100009199999999GF108991999999999999999999
0035029350999991921080713004+62233+025733FM-12+009499999V0201101N001019999999N0000001N9+01441+99999097231ADDGF108991999999999999999999MW1641
0029029350999991921080720004+62233+025733FM-12+009499999V0209991C000019999999N0000001N9+01221+99999097401ADDGF108991999999999999999999
0046029350999991921080806004+62233+025733FM-12+009499999V0203601N001019999999N0000001N9+01391+99999097351ADDAJ100009199999999GF103991999999999999999999
0029029350999991921080813004+62233+025733FM-12+009499999V0202001N003119999999N0000001N9+01611+99999097421ADDGF105991999999999999999999
0029029350999991921080820004+62233+025733FM-12+009499999V0203601N001019999999N0000001N9+01061+99999097431ADDGF103991999999999999999999
0046029350999991921080906004+62233+025733FM-12+009499999V0203601N001019999999N0000001N9+01061+99999097431ADDAJ100009199999999GF108991999999999999999999
0035029350999991921080913004+62233+025733FM-12+009499999V0201801N001019999999N0000001N9+01391+99999097681ADDGF106991999999999999999999MW1621
0029029350999991921080920004+62233+025733FM-12+009499999V0201801N001019999999N0000001N9+01171+99999097991ADDGF100991999999999999999999
0046029350999991921081006004+62233+025733FM-12+009499999V0201801N001019999999N0000001N9+00941+99999098671ADDAJ100009199999999GF108991999999999999999999
0029029350999991921081013004+62233+025733FM-12+009499999V0201401N003119999999N0000001N9+01831+99999099021ADDGF105991999999999999999999
0029029350999991921081020004+62233+025733FM-12+009499999V0201401N001019999999N0000001N9+01221+99999099271ADDGF100991999999999999999999
0046029350999991921081106004+62233+025733FM-12+009499999V0201401N001019999999N0000001N9+01111+99999099661ADDAJ100009199999999GF106991999999999999999999
0029029350999991921081113004+62233+025733FM-12+009499999V0203401N003119999999N0000001N9+02001+99999099741ADDGF106991999999999999999999
0029029350999991921081120004+62233+025733FM-12+009499999V0209991C000019999999N0000001N9+01331+99999099911ADDGF100991999999999999999999
0046029350999991921081206004+62233+025733FM-12+009499999V0203601N001019999999N0000001N9+00941+99999100181ADDAJ100009199999999GF102991999999999999999999
0029029350999991921081213004+62233+025733FM-12+009499999V0203601N001019999999N0000001N9+01831+99999100231ADDGF106991999999999999999999
0029029350999991921081220004+62233+025733FM-12+009499999V0209991C000019999999N0000001N9+01391+99999100201ADDGF108991999999999999999999
0046029350999991921081306004+62233+025733FM-12+009499999V0203601N001019999999N0000001N9+01391+99999100281ADDAJ100009199999999GF108991999999999999999999
0029029350999991921081313004+62233+025733FM-12+009499999V0201601N005119999999N0000001N9+02221+99999099961ADDGF107991999999999999999999
0029029350999991921081320004+62233+025733FM-12+009499999V0201801N003119999999N0000001N9+01781+99999099781ADDGF106991999999999999999999
0046029350999991921081406004+62233+025733FM-12+009499999V0200701N001019999999N0000001N9+01611+99999099631ADDAJ100009199999999GF102991999999999999999999
0029029350999991921081413004+62233+025733FM-12+009499999V0201801N003119999999N0000001N9+02671+99999099591ADDGF100991999999999999999999
0029029350999991921081420004+62233+025733FM-12+009499999V0203601N001019999999N0000001N9+01941+99999099701ADDGF101991999999999999999999
0046029350999991921081506004+62233+025733FM-12+009499999V0203601N001019999999N0000001N9+01721+99999099781ADDAJ100009199999999GF101991999999999999999999
0029029350999991921081513004+62233+025733FM-12+009499999V0201801N001019999999N0000001N9+02671+99999099721ADDGF101991999999999999999999
0029029350999991921081520004+62233+025733FM-12+009499999V0202701N003119999999N0000001N9+01831+99999100041ADDGF104991999999999999999999
0046029350999991921081606004+62233+025733FM-12+009499999V0202001N001019999999N0000001N9+01331+99999100271ADDAJ100009199999999GF108991999999999999999999
0029029350999991921081613004+62233+025733FM-12+009499999V0201401N005119999999N0000001N9+02001+99999100361ADDGF106991999999999999999999
0029029350999991921081620004+62233+025733FM-12+009499999V0201801N001019999999N0000001N9+01501+99999100561ADDGF100991999999999999999999
0046029350999991921081706004+62233+025733FM-12+009499999V0201801N001019999999N0000001N9+01441+99999100541ADDAJ100009199999999GF106991999999999999999999
0029029350999991921081713004+62233+025733FM-12+009499999V0202701N003119999999N0000001N9+01831+99999100591ADDGF108991999999999999999999
0029029350999991921081720004+62233+025733FM-12+009499999V0202901N001019999999N0000001N9+01391+99999100601ADDGF103991999999999999999999
0046029350999991921081806004+62233+025733FM-12+009499999V0202301N005119999999N0000001N9+01331+99999100621ADDAJ100009199999999GF102991999999999999999999
0029029350999991921081813004+62233+025733FM-12+009499999V0202701N003119999999N0000001N9+01831+99999100761ADDGF104991999999999999999999
0029029350999991921081820004+62233+025733FM-12+009499999V0209991C000019999999N0000001N9+01391+99999100781ADDGF108991999999999999999999
0046029350999991921081906004+62233+025733FM-12+009499999V0202301N001019999999N0000001N9+01111+99999100871ADDAJ100009199999999GF100991999999999999999999
0029029350999991921081913004+62233+025733FM-12+009499999V0203601N001019999999N0000001N9+01781+99999100791ADDGF103991999999999999999999
0029029350999991921081920004+62233+025733FM-12+009499999V0209991C000019999999N0000001N9+01171+99999100821ADDGF105991999999999999999999
0046029350999991921082006004+62233+025733FM-12+009499999V0202901N001019999999N0000001N9+01001+99999100831ADDAJ100009199999999GF107991999999999999999999
0029029350999991921082013004+62233+025733FM-12+009499999V0202901N005119999999N0000001N9+01501+99999100791ADDGF108991999999999999999999
0029029350999991921082020004+62233+025733FM-12+009499999V0202901N001019999999N0000001N9+01391+99999100641ADDGF108991999999999999999999
0046029350999991921082106004+62233+025733FM-12+009499999V0202701N001019999999N0000001N9+01391+99999100721ADDAJ100009199999999GF108991999999999999999999
0029029350999991921082113004+62233+025733FM-12+009499999V0202701N001019999999N0000001N9+02331+99999100581ADDGF101991999999999999999999
0029029350999991921082120004+62233+025733FM-12+009499999V0202701N001019999999N0000001N9+01721+99999100521ADDGF100991999999999999999999
0046029350999991921082206004+62233+025733FM-12+009499999V0202701N001019999999N0000001N9+01281+99999100481ADDAJ100009199999999GF100991999999999999999999
0029029350999991921082213004+62233+025733FM-12+009499999V0203601N005119999999N0000001N9+01941+99999100561ADDGF102991999999999999999999
0029029350999991921082220004+62233+025733FM-12+009499999V0203601N001019999999N0000001N9+01441+99999100751ADDGF104991999999999999999999
0046029350999991921082306004+62233+025733FM-12+009499999V0203601N001019999999N0000001N9+00891+99999100991ADDAJ100009199999999GF100991999999999999999999
0029029350999991921082313004+62233+025733FM-12+009499999V0200501N003119999999N0000001N9+01721+99999101121ADDGF103991999999999999999999
0029029350999991921082320004+62233+025733FM-12+009499999V0203601N001019999999N0000001N9+01001+99999101101ADDGF100991999999999999999999
0046029350999991921082406004+62233+025733FM-12+009499999V0203601N001019999999N0000001N9+00721+99999101021ADDAJ100009199999999GF100991999999999999999999
0029029350999991921082413004+62233+025733FM-12+009499999V0201601N003119999999N0000001N9+01941+99999100981ADDGF101991999999999999999999
0029029350999991921082420004+62233+025733FM-12+009499999V0201801N001019999999N0000001N9+01331+99999100761ADDGF100991999999999999999999
0046029350999991921082506004+62233+025733FM-12+009499999V0200701N005119999999N0000001N9+01281+99999100701ADDAJ100009199999999GF101991999999999999999999
0029029350999991921082513004+62233+025733FM-12+009499999V0201801N005119999999N0000001N9+02061+99999100521ADDGF103991999999999999999999
0029029350999991921082520004+62233+025733FM-12+009499999V0201401N007219999999N0000001N9+01391+99999100311ADDGF100991999999999999999999
0046029350999991921082606004+62233+025733FM-12+009499999V0201801N001019999999N0000001N9+01001+99999100071ADDAJ100009199999999GF100991999999999999999999
0029029350999991921082613004+62233+025733FM-12+009499999V0201801N007219999999N0000001N9+01941+99999099801ADDGF106991999999999999999999
0029029350999991921082620004+62233+025733FM-12+009499999V0201801N001019999999N0000001N9+01331+99999099671ADDGF100991999999999999999999
0046029350999991921082706004+62233+025733FM-12+009499999V0201801N001019999999N0000001N9+01221+99999099481ADDAJ100009199999999GF101991999999999999999999
0029029350999991921082713004+62233+025733FM-12+009499999V0201801N005119999999N0000001N9+01781+99999099431ADDGF108991999999999999999999
0035029350999991921082720004+62233+025733FM-12+009499999V0201801N003119999999N0000001N9+01391+99999099381ADDGF108991999999999999999999MW1621
