0051032620999991927010106004+55017-001417FM-12+003399999V0202701N00671004501CN0100001N9+00781+99999101771ADDAY111999GF107991071051004501001001MD1810061+9999
0051032620999991927010306004+55017-001417FM-12+003399999V0202501N00261004501CN0100001N9+00781+99999100331ADDAY121999GF108991081011004501999999MD1610141+9999
0070032620999991927010406004+55017-001417FM-12+003399999V0202501N01231220001CN0100001N9+00221+99999100471ADDAY101999GF102991999001999999031001MD1310141+9999EQDQ01+000002SCOTLC
0057032620999991927010506004+55017-001417FM-12+003399999V0201801N00261004501CN0040001N9+00001+99999101431ADDAY171999GF108991081061004501999999MD1810141+9999MW1161
0057032620999991927010606004+55017-001417FM-12+003399999V0201801N00261004501CN0100001N9+00611+99999100561ADDAY121999GF108991081061004501999999MD1810401+9999MW1161
0072032620999991927010706004+55017-001417FM-12+003399999V0202701N00461004501CN0100001N9+00501+99999099901ADDAY101999GF106991061051004501001001EQDQ01+000032APCTENQ02+000002APC3  
0051032620999991927010806004+55017-001417FM-12+003399999V0202701N00261220001CN0040001N9+00221+99999101871ADDAY101999GF102991021051002501001001MD1310141+9999
0051032620999991927010906004+55017-001417FM-12+003399999V0202701N00671004501CN0100001N9+00781+99999101971ADDAY121999GF108991081061004501999999MD1310141+9999
0051032620999991927011006004+55017-001417FM-12+003399999V0202901N00261004501CN0100001N9+00891+99999102521ADDAY111999GF106991061051004501001001MD1310141+9999
0051032620999991927011106004+55017-001417FM-12+003399999V0202701N00261002401CN0100001N9+00781+99999102211ADDAY121999GF108991081051002501999999MD1810061+9999
0051032620999991927011206004+55017-001417FM-12+003399999V0202701N00261220001CN0100001N9+00391+99999101361ADDAY101999GF102991021051002501001001MD1310061+9999
0051032620999991927011306004+55017-001417FM-12+003399999V0202301N01231004501CN0100001N9+00391+99999097971ADDAY101999GF107991071061004501001001MD1210201+9999
0057032620999991927011406004+55017-001417FM-12+003399999V0202701N00261004501CN0040001N9+00391+99999999999ADDAY161999GF108991081061004501999999MD1810061+9999MW1211
0057032620999991927011506004+55017-001417FM-12+003399999V0202301N00101004501CN0100001N9+00281+99999098261ADDAY161999GF108991081061004501999999MD1310061+9999MW1161
0088032620999991927011606004+55017-001417FM-12+003399999V0202501N00101220001CN0100001N9+00111+99999099171ADDAY101999GF102991999001999999031001EQDQ01+000002SCOTLCQ02+000032APCTENQ03+000002APC3  
0072032620999991927011706004+55017-001417FM-12+003399999V0202301N00101220001CN0040001N9+00001+99999099591ADDAY101999GF104991041051002501001021EQDQ01+000032APCTENQ02+000002APC3  
0068032620999991927011906004+55017-001417FM-12+003399999V0203201N00461220001CN0100001N9+00281+99999101571ADDAA199002091AY181999GF104991041091008001001001MD1310061+9999MW1211
0051032620999991927012006004+55017-001417FM-12+003399999V0202701N00261220001CN0040001N9-00111+99999101101ADDAY101999GF102991021011004501001001MD1810201+9999
0068032620999991927012106004+55017-001417FM-12+003399999V0202301N00261004501CN0010001N9+00111+99999099911ADDAA199003091AY171999GF108991081061004501999999MD1610141+9999MW1701
0088032620999991927012206004+55017-001417FM-12+003399999V0201801N00101220001CN0100001N9-00111+99999099951ADDAY101999GF102991999001999999031001EQDQ01+000002SCOTLCQ02+000032APCTENQ03+000002APC3  
0072032620999991927012306004+55017-001417FM-12+003399999V0202301N00261220001CN0010001N9+00111+99999100061ADDAY111999GF104991041051002501001021EQDQ01+000032APCTENQ02+000002APC3  
0051032620999991927012406004+55017-001417FM-12+003399999V0201801N00261004501CN0100001N9+00391+99999100601ADDAY101999GF106991061061004501001001MD1110061+9999
0051032620999991927012506004+55017-001417FM-12+003399999V0202301N00261004501CN0100001N9+00781+99999100071ADDAY111999GF108991081061004501999999MD1410001+9999
0051032620999991927012606004+55017-001417FM-12+003399999V0201801N00461002401CN0200001N9+00611+99999100931ADDAY121999GF108991081051002501999999MD1810141+9999
0068032620999991927012706004+55017-001417FM-12+003399999V0202501N00931220001CN0100001N9+00611+99999100061ADDAA199003091AY181999GF104991041091004501001001MD1810061+9999MW1211
0083032620999991927012806004+55017-001417FM-12+003399999V0202301N00671220001CN0100001N9+00721+99999100041ADDAA199001091AY101999GF104991041011008001001001EQDQ01+000022APCTENQ02+000002APC3  
0087032620999991927012906004+55017-001417FM-12+003399999V0201801N00461004501CN0040001N9+00281+99999097201ADDAA199003091AY161999GF108991081061004501999999MD1814322+9999MW1161EQDQ01+004322APC3  
0072032620999991927013006004+55017-001417FM-12+003399999V0202301N00461220001CN0100001N9+00391+99999098611ADDAY101999GF104991041091004501001001EQDQ01+000032APCTENQ02+000002APC3  
0070032620999991927013106004+55017-001417FM-12+003399999V0202701N00671220001CN0100001N9+00501+99999098351ADDAY101999GF104991999011008001031001MD1810061+9999EQDQ01+000072SCOTLC
0051032620999991927020106004+55017-001417FM-12+003399999V0202701N00261220001CN0040001N9+00221+99999099551ADDAY111999GF104991041011004501001001MD1310141+9999
0051032620999991927020206004+55017-001417FM-12+003399999V0202901N00261220001CN0100001N9-00111+99999101231ADDAY101999GF102991021051002501001001MD1310261+9999
0089032620999991927020306004+55017-001417FM-12+003399999V0202501N00461004501CN0100001N9+00721+99999101541ADDAA199000591AY181999GF108991081051004501999999MW1211EQDQ01+000032APCTENQ02+000002APC3  
0051032620999991927020406004+55017-001417FM-12+003399999V0202701N01231220001CN0200001N9+00611+99999101861ADDAY101999GF102991021011002501001001MD1310341+9999
0051032620999991927020506004+55017-001417FM-12+003399999V0202301N00261220001CN0040001N9+00221+99999102701ADDAY101999GF102991021051002501001001MD1810061+9999
0088032620999991927020606004+55017-001417FM-12+003399999V0202701N00261220001CN0100001N9+00281+99999102741ADDAY101999GF102991999001999999031001EQDQ01+000002SCOTLCQ02+000032APCTENQ03+000002APC3  
0068032620999991927020706004+55017-001417FM-12+003399999V0202701N00261004501CN0040001N9+00611+99999103191ADDAA199000591AY161999GF108991081061004501999999MD1810061+9999MW1611
0083032620999991927020806004+55017-001417FM-12+003399999V0201801N00101004501CN0040001N9+00391+99999103471ADDAA199000391AY121999GF108991081061004501999999EQDQ01+000032APCTENQ02+000002APC3  
0072032620999991927021006004+55017-001417FM-12+003399999V0201801N00261004501CN0100001N9+00111+99999103531ADDAY111999GF107991071061004501001001EQDQ01+000032APCTENQ02+000002APC3  
0051032620999991927021106004+55017-001417FM-12+003399999V0202701N00261220001CN0020001N9-00391+99999103271ADDAY101999GF104991041051002501001001MD1310061+9999
0051032620999991927021206004+55017-001417FM-12+003399999V0202001N00101004501CN0020001N9+00221+99999102911ADDAY121999GF108991081051004501999999MD1810061+9999
0078032620999991927021306004+55017-001417FM-12+003399999V0202301N00261002401CN0000501N9-00281+99999102561ADDAY141999GF108991081051002501999999MW1451EQDQ01+000032APCTENQ02+000002APC3  
0051032620999991927021406004+55017-001417FM-12+003399999V0202701N00261220001CN0040001N9+00611+99999103101ADDAY101999GF104991041091004501001001MD1310261+9999
0072032620999991927021506004+55017-001417FM-12+003399999V0202501N00101004501CN0040001N9+00501+99999103191ADDAY111999GF106991061051004501001001EQDQ01+000032APCTENQ02+000002APC3  
0051032620999991927021606004+55017-001417FM-12+003399999V0202701N00261220001CN0040001N9+00781+99999103711ADDAY101999GF104991021051002501001021MD1810061+9999
0051032620999991927021706004+55017-001417FM-12+003399999V0202701N00261004501CN0100001N9+00391+99999102711ADDAY101999GF106991061091004501001001MD1810141+9999
0072032620999991927021806004+55017-001417FM-12+003399999V0202701N00101220001CN0100001N9+00281+99999102331ADDAY101999GF104991041091008001001001EQDQ01+000032APCTENQ02+000002APC3  
0072032620999991927021906004+55017-001417FM-12+003399999V0202701N00261220001CN0020001N9+00001+99999102521ADDAY101999GF104991021051002501001021EQDQ01+000032APCTENQ02+000002APC3  
0057032620999991927022006004+55017-001417FM-12+003399999V0202901N00261004501CN0100001N9+00721+99999101041ADDAY181999GF108991081061004501999999MD1810141+9999MW1211
0068032620999991927022106004+55017-001417FM-12+003399999V0202501N00101004501CN0010001N9+00611+99999100081ADDAA199000691AY141999GF108991081051004501999999MD1810141+9999MW1101
0068032620999991927022206004+55017-001417FM-12+003399999V0201801N00101004501CN0040001N9+00611+99999099041ADDAA199002091AY161999GF108991081061004501999999MD1810201+9999MW1211
0051032620999991927022306004+55017-001417FM-12+003399999V0201801N00261004501CN0100001N9+00611+99999098371ADDAY121999GF108991081061004501999999MD1310141+9999
0051032620999991927022406004+55017-001417FM-12+003399999V0201801N00461220001CN0005001N9+99999+99999099301ADDAY101999GF104991041051004501001001MD1310061+9999
0078032620999991927022506004+55017-001417FM-12+003399999V0202701N00261220001CN0005001N9-00111+99999099461ADDAY141999GF102991021051002501001001MW1441EQDQ01+000032APCTENQ02+000002APC3  
0068032620999991927022606004+55017-001417FM-12+003399999V0202301N00261004501CN0010001N9+00501+99999099551ADDAA199002091AY161999GF108991081061004501999999MD1310201+9999MW1211
0072032620999991927022706004+55017-001417FM-12+003399999V0201801N00101004501CN0100001N9+00611+99999098561ADDAY121999GF108991081051004501999999EQDQ01+000032APCTENQ02+000002APC3  
0057032620999991927022806004+55017-001417FM-12+003399999V0201801N00101002401CN0010001N9+00611+99999099511ADDAY141999GF108991081051002501999999MD1510061+9999MW1101
0051032620999991927060206004+55017-001417FM-12+003399999V0202701N00261220001CN0040001N9+01111+99999100901ADDAY101999GF102991021051002501001001MD1310141+9999
0051032620999991927060306004+55017-001417FM-12+003399999V0202701N00261220001CN0100001N9+01221+99999101471ADDAY101999GF104991021051002501031001MD1310141+9999
0072032620999991927060506004+55017-001417FM-12+003399999V0202701N00461220001CN0100001N9+01221+99999101071ADDAY101999GF104991021091004501031001EQDQ01+000032APCTENQ02+000002APC3  
0051032620999991927060606004+55017-001417FM-12+003399999V0203201N00261004501CN0100001N9+00891+99999101091ADDAY101999GF106991061061004501001001MD1310201+9999
0078032620999991927060706004+55017-001417FM-12+003399999V0202701N00261220001CN0100001N9+01001+99999101171ADDAY161999GF102991999999999999001021MW1211EQDQ01+000032APCTENQ02+000002APC3  
0051032620999991927060906004+55017-001417FM-12+003399999V0202901N00461220001CN0100001N9+00721+99999101631ADDAY101999GF104991041091004501031001MD1310201+9999
0072032620999991927061006004+55017-001417FM-12+003399999V0203201N00101220001CN0100001N9+00781+99999101661ADDAY101999GF104991021011008001031001EQDQ01+000032APCTENQ02+000002APC3  
0051032620999991927061106004+55017-001417FM-12+003399999V0203401N00261220001CN0040001N9+00111+99999101631ADDAY141999GF104991041051002501031001MD1310061+9999
0057032620999991927061906004+55017-001417FM-12+003399999V0202701N00461220001CN0200001N9+01221+99999099671ADDAY181999GF104991021011008001031001MD1110061+9999MW1211
0062032620999991927062006004+55017-001417FM-12+003399999V0202901N00671220001CN0200001N9+01281+99999101131ADDAA199004091AY101999GF104991021091004501031001MD1310341+9999
0068032620999991927062206004+55017-001417FM-12+003399999V0202701N00461220001CN0200001N9+00891+99999101861ADDAA199000691AY161999GF104991041091004501001001MD1310341+9999MW1211
0083032620999991927062306004+55017-001417FM-12+003399999V0202701N00461220001CN0200001N9+01111+99999100921ADDAA199001091AY101999GF104991041091008001001001EQDQ01+000032APCTENQ02+000002APC3  
0068032620999991927062506004+55017-001417FM-12+003399999V0202701N00261220001CN0100001N9+01111+99999101141ADDAA199000591AY161999GF104991021091004501031001MD1810061+9999MW1211
0068032620999991927062706004+55017-001417FM-12+003399999V0202701N00261004501CN0040001N9+01111+99999100081ADDAA199000391AY161999GF108991081061004501999999MD1310061+9999MW1611
0051032620999991927062806004+55017-001417FM-12+003399999V0202701N00101220001CN0100001N9+01221+99999100661ADDAY111999GF104991041091004501031001MD1610141+9999
0068032620999991927070706004+55017-001417FM-12+003399999V0203401N00261004501CN0100001N9+01221+99999100921ADDAA199000691AY161999GF108991081061004501999999MD1810261+9999MW1611
0051032620999991927071806004+55017-001417FM-12+003399999V0203401N00261004501CN0100001N9+01281+99999102041ADDAY101999GF106991061011004501001001MD1310141+9999
0062032620999991927072306004+55017-001417FM-12+003399999V0203201N00101004501CN0040001N9+01781+99999100371ADDAA199001091AY161999GF108991081061004501999999MD1310141+9999
0089032620999991927072806004+55017-001417FM-12+003399999V0202701N00101004501CN0100001N9+01391+99999099641ADDAA199000691AY161999GF107991071061004501001001MW1161EQDQ01+000032APCTENQ02+000002APC3  
0051032620999991927081006004+55017-001417FM-12+003399999V0202301N00261030001CN0040001N9+01611+99999100241ADDAY101999GF106991041051002501031001MD1310061+9999
0057032620999991927081106004+55017-001417FM-12+003399999V0202501N00261004501CN0000001N9+01611+99999100401ADDAY181999GF106991061061004501001001MD1310061+9999MW1161
0051032620999991927081306004+55017-001417FM-12+003399999V0203201N00101004501CN0040001N9+01281+99999100901ADDAY181999GF106991061061004501001001MD1310141+9999
0051032620999991927081606004+55017-001417FM-12+003399999V0202901N00261220001CN0200001N9+01221+99999100381ADDAY101999GF104991041091004501031001MD1310141+9999
0051032620999991927081706004+55017-001417FM-12+003399999V0202701N00461220001CN0100001N9+01281+99999100731ADDAY101999GF104991041091004501001021MD1310141+9999
0051032620999991927082006004+55017-001417FM-12+003399999V0202301N00261220001CN0005001N9+01111+99999100731ADDAY141999GF104991041051002501031001MD1810141+9999
0051032620999991927082106004+55017-001417FM-12+003399999V0202701N00101220001CN0040001N9+01281+99999099531ADDAY101999GF104991041061004501001001MD1010001+9999
0051032620999991927082306004+55017-001417FM-12+003399999V0202701N00261004501CN0040001N9+01391+99999099971ADDAY111999GF106991061061004501001001MD1110201+9999
0051032620999991927082606004+55017-001417FM-12+003399999V0202301N00261004501CN0040001N9+01221+99999101831ADDAY121999GF108991081061004501999999MD1810141+9999
0051032620999991927082706004+55017-001417FM-12+003399999V0202301N00671004501CN0100001N9+01501+99999100841ADDAY101999GF106991061061004501001001MD1810141+9999
0078032620999991927082806004+55017-001417FM-12+003399999V0202701N00101004501CN0040001N9+01281+99999100961ADDAY161999GF108991081061004501999999MW1611EQDQ01+000032APCTENQ02+000002APC3  
0057032620999991927082906004+55017-001417FM-12+003399999V0202301N00101004501CN0005001N9+01281+99999101501ADDAY161999GF106991061091004501001001MD1310141+9999MW1421
0057032620999991927083006004+55017-001417FM-12+003399999V0202501N00101220001CN0005001N9+00891+99999102861ADDAY141999GF102991021051004501001001MD1310141+9999MW1441
0057032620999991927090106004+55017-001417FM-12+003399999V0201401N00101002401CN0000501N9+01391+99999101941ADDAY141999GF108991081051002501999999MD1810141+9999MW1451
0051032620999991927090206004+55017-001417FM-12+003399999V0202701N00101220001CN0040001N9+01221+99999102261ADDAY101999GF101991011051004501001001MD1310141+9999
0078032620999991927090306004+55017-001417FM-12+003399999V0201801N00101220001CN0010001N9+01281+99999102561ADDAY141999GF104991021051002501031001MW1101EQDQ01+000032APCTENQ02+000002APC3  
0051032620999991927090406004+55017-001417FM-12+003399999V0202001N00101220001CN0040001N9+01111+99999102401ADDAY101999GF104991041051002501001001MD1610061+9999
0072032620999991927090506004+55017-001417FM-12+003399999V0203601N00101004501CN0100001N9+01391+99999101671ADDAY111999GF107991071051004501001001EQDQ01+000032APCTENQ02+000002APC3  
0072032620999991927090606004+55017-001417FM-12+003399999V0200901N00101004501CN0100001N9+01501+99999101491ADDAY121999GF108991081051004501999999EQDQ01+000082APCTENQ02+000002APC3  
0072032620999991927090706004+55017-001417FM-12+003399999V0202701N00261004501CN0040001N9+01501+99999100991ADDAY141999GF108991081061004501999999EQDQ01+000032APCTENQ02+000002APC3  
0057032620999991927090806004+55017-001417FM-12+003399999V0202001N00931004501CN0020001N9+01611+99999101501ADDAY161999GF108991081051004501999999MD1710261+9999MW1611
0072032620999991927090906004+55017-001417FM-12+003399999V0202701N01231004501CN0100001N9+01391+99999099791ADDAY111999GF107991071061004501001001EQDQ01+000042APCTENQ02+000062APC3  
0051032620999991927091006004+55017-001417FM-12+003399999V0202301N00261004501CN0040001N9+01001+99999100371ADDAY121999GF108991081061004501999999MD1610141+9999
0057032620999991927091106004+55017-001417FM-12+003399999V0203201N00261004501CN0100001N9+00891+99999100641ADDAY161999GF107991071061004501001001MD1310141+9999MW1601
0057032620999991927091206004+55017-001417FM-12+003399999V0203201N00261004501CN0200001N9+00891+99999101631ADDAY181999GF106991061061004501001001MD1310141+9999MW1161
0072032620999991927091306004+55017-001417FM-12+003399999V0202701N00101220001CN0100001N9+00891+99999101401ADDAY101999GF104991021051004501031001EQDQ01+000032APCTENQ02+000002APC3  
0068032620999991927091406004+55017-001417FM-12+003399999V0200501N00261004501CN0200001N9+01221+99999101231ADDAA199000691AY181999GF108991081061004501999999MD1310061+9999MW1211
0072032620999991927091506004+55017-001417FM-12+003399999V0200701N00261220001CN0200001N9+01221+99999101241ADDAY101999GF104991021091012501001021EQDQ01+000032APCTENQ02+000002APC3  
0051032620999991927091606004+55017-001417FM-12+003399999V0202701N00261220001CN0040001N9+00721+99999100421ADDAY101999GF104991041051002501001021MD1810261+9999
0070032620999991927091706004+55017-001417FM-12+003399999V0202701N00261220001CN0100001N9+00781+99999099841ADDAY101999GF102991999001999999031001MD1310141+9999EQDQ01+000002SCOTLC
0057032620999991927091806004+55017-001417FM-12+003399999V0202701N00461220001CN0100001N9+00781+99999099641ADDAY161999GF104991041051002501001001MD1510141+9999MW1211
0051032620999991927092006004+55017-001417FM-12+003399999V0202701N00261220001CN0040001N9+01111+99999100441ADDAY101999GF104991041091004501031001MD1310341+9999
0068032620999991927092106004+55017-001417FM-12+003399999V0203601N00261004501CN0040001N9+01221+99999099661ADDAA199021091AY161999GF108991081061004501999999MD1610061+9999MW1611
0068032620999991927092206004+55017-001417FM-12+003399999V0201101N00461004501CN0100001N9+01221+99999099431ADDAA199003091AY161999GF108991081061004501999999MD1810341+9999MW1601
0054032620999991927092306004+55017-001417FM-12+003399999V0202701N00461004501CN0100001N9+00721+99999098501ADDAA199006091AY161999GF108991081061004501999999MW1611
0068032620999991927092406004+55017-001417FM-12+003399999V0202901N00261004501CN0040001N9+00721+99999097991ADDAA199001091AY161999GF108991081061004501999999MD1610061+9999MW1161
0072032620999991927092506004+55017-001417FM-12+003399999V0202501N00101220001CN0100001N9+00781+99999098461ADDAY101999GF102991021051004501001021EQDQ01+000032APCTENQ02+000002APC3  
0062032620999991927092606004+55017-001417FM-12+003399999V0202701N00461004501CN0100001N9+00891+99999099311ADDAA199000691AY111999GF106991061061004501001001MD1310201+9999
0068032620999991927092706004+55017-001417FM-12+003399999V0202901N00261220001CN0200001N9+00721+99999101141ADDAA199002091AY121999GF102991021091008001031001MD1310401+9999MW1211
0051032620999991927092806004+55017-001417FM-12+003399999V0202501N00461004501CN0040001N9+00781+99999101771ADDAY101999GF106991061061004501001001MD1810141+9999
0068032620999991927092906004+55017-001417FM-12+003399999V0201801N00671004501CN0100001N9+01111+99999100031ADDAA199004091AY161999GF108991081061004501999999MD1810261+9999MW1611
0051032620999991927093006004+55017-001417FM-12+003399999V0202301N00261220001CN0020001N9+00721+99999100691ADDAY101999GF104991021051002501031001MD1310061+9999
0051032620999991927100106004+55017-001417FM-12+003399999V0202301N00261004501CN0100001N9+01111+99999100351ADDAY111999GF106991061051004501001001MD1810141+9999
0057032620999991927100206004+55017-001417FM-12+003399999V0201801N00101004501CN0100001N9+01001+99999099771ADDAY161999GF108991081061004501999999MD1810461+9999MW1161
0051032620999991927100306004+55017-001417FM-12+003399999V0202701N00261220001CN0100001N9+00721+99999102271ADDAY101999GF102991021011012501001001MD1310401+9999
0051032620999991927100406004+55017-001417FM-12+003399999V0202901N00261220001CN0100001N9+00611+99999102831ADDAY101999GF102991011051004501031001MD1310061+9999
0057032620999991927100506004+55017-001417FM-12+003399999V0202301N00101002401CN0000501N9+00281+99999103151ADDAY141999GF108991081051002501999999MD1310061+9999MW1451
0072032620999991927100606004+55017-001417FM-12+003399999V0202701N00261004501CN0040001N9+01221+99999103031ADDAY121999GF108991081061004501999999EQDQ01+000032APCTENQ02+000002APC3  
0072032620999991927100706004+55017-001417FM-12+003399999V0202701N00101220001CN0100001N9+01111+99999102791ADDAY101999GF102991021091008001001021EQDQ01+000032APCTENQ02+000002APC3  
0068032620999991927100806004+55017-001417FM-12+003399999V0203201N00101002401CN0002001N9+00891+99999103271ADDAA199000391AY141999GF108991081051002501999999MD1310061+9999MW1451
0072032620999991927100906004+55017-001417FM-12+003399999V0200701N00461220001CN0040001N9+01281+99999102751ADDAY101999GF104991041011008001001001EQDQ01+000032APCTENQ02+000002APC3  
0072032620999991927101006004+55017-001417FM-12+003399999V0201801N00101004501CN0040001N9+00891+99999103131ADDAY121999GF108991081051004501999999EQDQ01+000032APCTENQ02+000002APC3  
0072032620999991927101106004+55017-001417FM-12+003399999V0203401N00101002401CN0020001N9+00781+99999102991ADDAY121999GF108991081051002501999999EQDQ01+000032APCTENQ02+000002APC3  
0072032620999991927101206004+55017-001417FM-12+003399999V0202301N00101004501CN0040001N9+00721+99999103271ADDAY121999GF108991081061004501999999EQDQ01+000032APCTENQ02+000002APC3  
0051032620999991927101306004+55017-001417FM-12+003399999V0202501N00101030001CN0040001N9+00781+99999102351ADDAY101999GF106991021051004501031001MD1810141+9999
0089032620999991927101406004+55017-001417FM-12+003399999V0203601N00461004501CN0100001N9+00891+99999101701ADDAA199003091AY161999GF106991061061004501001001MW1161EQDQ01+000032APCTENQ02+000002APC3  
0057032620999991927101506004+55017-001417FM-12+003399999V0203201N00101004501CN0100001N9+00891+99999102131ADDAY121999GF108991081061004501999999MD1310061+9999MW1161
0051032620999991927101706004+55017-001417FM-12+003399999V0202701N01231004501CN0100001N9+01111+99999100161ADDAY101999GF106991061061004501001001MD1610141+9999
0051032620999991927101806004+55017-001417FM-12+003399999V0202701N00261220001CN0100001N9+00501+99999100901ADDAY101999GF104991021051002501031001MD1310141+9999
0068032620999991927101906004+55017-001417FM-12+003399999V0202501N00261004501CN0100001N9+00781+99999100161ADDAA199000391AY181999GF106991061061004501001001MD1810141+9999MW1161
0051032620999991927102006004+55017-001417FM-12+003399999V0202701N00261220001CN0040001N9+00221+99999101401ADDAY101999GF102991021051002501001001MD1310201+9999
0078032620999991927102106004+55017-001417FM-12+003399999V0202901N00261220001CN0005001N9+99999+99999101991ADDAY141999GF104991041051002501001001MW1211EQDQ01+000032APCTENQ02+000002APC3  
0068032620999991927102206004+55017-001417FM-12+003399999V0201601N00461004501CN0100001N9+01001+99999100101ADDAA199011091AY161999GF108991081061004501999999MD1810261+9999MW1211
0051032620999991927102306004+55017-001417FM-12+003399999V0200501N00931004501CN0100001N9+00891+99999099841ADDAY121999GF108991081061004501999999MD1310201+9999
0051032620999991927102406004+55017-001417FM-12+003399999V0202301N00261220001CN0040001N9+00501+99999100841ADDAY101999GF104991041051002501001001MD1310061+9999
0105032620999991927102506004+55017-001417FM-12+003399999V0202301N00101004501CN0100001N9+01391+99999100061ADDAA199000691AY161999GF108991999061004501001001MW1211EQDQ01+000072SCOTLCQ02+000032APCTENQ03+000002APC3  
0087032620999991927102706004+55017-001417FM-12+003399999V0202301N01231220001CN0100001N9+01611+99999099111ADDAA199000391AY181999GF104991041091004501001001MD1610542+9999MW1211EQDQ01+000542APC3  
0072032620999991927102806004+55017-001417FM-12+003399999V0201801N00101220001CN0100001N9+01001+99999100571ADDAY101999GF104991021051004501031001EQDQ01+000032APCTENQ02+000002APC3  
0068032620999991927102906004+55017-001417FM-12+003399999V0202701N01901220001CN0100001N9+01111+99999099901ADDAA199002091AY161999GF102991021011004501001001MD1310031+9999MW1211
0051032620999991927103006004+55017-001417FM-12+003399999V0202001N00461004501CN0100001N9+01221+99999100671ADDAY101999GF106991061061004501001001MD1810261+9999
0062032620999991927103106004+55017-001417FM-12+003399999V0202701N00101030001CN0100001N9+01111+99999100521ADDAA199000391AY111999GF106991041051004501031001MD1310201+9999
0051032620999991927110106004+55017-001417FM-12+003399999V0201801N00261075001CN0040001N9+01001+99999101891ADDAY111999GF106991041051002501001021MD1010001+9999
0087032620999991927110206004+55017-001417FM-12+003399999V0202301N00261004501CN0100001N9+99999+99999101131ADDAA199005091AY161999GF108991081061004501999999MD1610341+9999MW1161EQDQ01 -02503ATOT  
0068032620999991927110306004+55017-001417FM-12+003399999V0202301N00461004501CN0100001N9+01501+99999101271ADDAA199006091AY161999GF108991081061004501999999MD1010001+9999MW1611
0072032620999991927110406004+55017-001417FM-12+003399999V0202501N00261220001CN0040001N9+01221+99999100961ADDAY101999GF102991021011004501001001EQDQ01+000032APCTENQ02+000002APC3  
0051032620999991927110506004+55017-001417FM-12+003399999V0202701N00671004501CN0100001N9+00721+99999100701ADDAY121999GF108991081061004501999999MD1810461+9999
0072032620999991927110606004+55017-001417FM-12+003399999V0202701N00261220001CN0100001N9+00221+99999098751ADDAY101999GF104991021011008001031001EQDQ01+000022APCTENQ02+000002APC3  
0062032620999991927110806004+55017-001417FM-12+003399999V0202901N00261004501CN0100001N9+00111+99999100371ADDAA199000391AY101999GF107991071051004501001001MD1310201+9999
0051032620999991927110906004+55017-001417FM-12+003399999V0202701N00261004501CN0100001N9+00001+99999100121ADDAY101999GF106991061011004501001001MD1810201+9999
0068032620999991927111206004+55017-001417FM-12+003399999V0200201N00671220001CN0100001N9+00611+99999101831ADDAA199005091AY181999GF104991041061004501001001MD1310341+9999MW1161
0051032620999991927111306004+55017-001417FM-12+003399999V0202701N00261012301CN0040001N9+00111+99999102591ADDAY111999GF107991071051012501001001MD1810141+9999
0083032620999991927111406004+55017-001417FM-12+003399999V0202701N00101004501CN0100001N9+00501+99999102201ADDAA199000591AY121999GF108991081061004501999999EQDQ01+000032APCTENQ02+000002APC3  
0089032620999991927111606004+55017-001417FM-12+003399999V0202301N00101004501CN0010001N9+00721+99999101571ADDAA199002091AY161999GF107991071061004501001001MW1161EQDQ01+000032APCTENQ02+000002APC3  
0072032620999991927111706004+55017-001417FM-12+003399999V0202301N00261004501CN0040001N9+00611+99999101931ADDAY101999GF106991061061004501001001EQDQ01+000032APCTENQ02+000002APC3  
0089032620999991927111906004+55017-001417FM-12+003399999V0201401N01541004501CN0100001N9+00721+99999101031ADDAA199000691AY181999GF108991081061004501999999MW1211EQDQ01+000042APCTENQ02+000062APC3  
0062032620999991927112106004+55017-001417FM-12+003399999V0200901N01231004501CN0100001N9+00721+99999101101ADDAA199000391AY121999GF108991081061004501999999MD1310061+9999
0068032620999991927112206004+55017-001417FM-12+003399999V0201401N00671004501CN0040001N9+00781+99999101151ADDAA199002091AY161999GF108991081061004501999999MD1810061+9999MW1161
0051032620999991927112306004+55017-001417FM-12+003399999V0201801N00261004501CN0100001N9+00391+99999101271ADDAY121999GF108991081061004501999999MD1810141+9999
0068032620999991927112406004+55017-001417FM-12+003399999V0202701N00261220001CN0100001N9+00721+99999100471ADDAA199003091AY161999GF102991021051004501031001MD1310341+9999MW1211
0051032620999991927112506004+55017-001417FM-12+003399999V0202701N00261220001CN0040001N9+00611+99999102061ADDAY101999GF104991021051002501001021MD1310341+9999
0051032620999991927112606004+55017-001417FM-12+003399999V0202301N00461220001CN0100001N9+00781+99999102821ADDAY101999GF104991041091004501001001MD1810061+9999
0072032620999991927112706004+55017-001417FM-12+003399999V0202301N00101220001CN0100001N9+00501+99999102161ADDAY101999GF104991021051004501001021EQDQ01+000032APCTENQ02+000002APC3  
0051032620999991927112806004+55017-001417FM-12+003399999V0202301N00261220001CN0040001N9+00221+99999102461ADDAY101999GF104991021051002501001021MD1810141+9999
0083032620999991927113006004+55017-001417FM-12+003399999V0200501N00261004501CN0200001N9+00611+99999103371ADDAA199000691AY111999GF106991061091004501001001EQDQ01+000032APCTENQ02+000002APC3  
0051032620999991927120106004+55017-001417FM-12+003399999V0202301N00261002401CN0020001N9+00391+99999102741ADDAY101999GF106991061051002501001001MD1810061+9999
0062032620999991927120206004+55017-001417FM-12+003399999V0201101N00261004501CN0200001N9+00611+99999102611ADDAA199000691AY121999GF106991061061004501001001MD1610061+9999
0051032620999991927120306004+55017-001417FM-12+003399999V0202301N00101004501CN0040001N9+00501+99999102031ADDAY141999GF108991081061004501999999MD1810141+9999
0072032620999991927120406004+55017-001417FM-12+003399999V0201801N00101002401CN0100001N9+00281+99999101331ADDAY121999GF108991081051002501999999EQDQ01+000082APCTENQ02+000002APC3  
0037032620999991927120506004+55017-001417FM-12+003399999V0201801N00261004501CN0100001N9+00391+99999100861ADDAY121999GF108991081061004501999999
0051032620999991927120606004+55017-001417FM-12+003399999V0201801N00671004501CN0100001N9+00781+99999099831ADDAY121999GF108991081061004501999999MD1410001+9999
0068032620999991927120706004+55017-001417FM-12+003399999V0201401N00261004501CN0040001N9+00501+99999101041ADDAA199000391AY181999GF108991081061004501999999MD1310061+9999MW1161
0068032620999991927120806004+55017-001417FM-12+003399999V0200901N00101004501CN0100001N9+00611+99999101391ADDAA199000391AY161999GF108991081061004501999999MD1810061+9999MW1161
0083032620999991927120906004+55017-001417FM-12+003399999V0201801N00461004501CN0100001N9+00501+99999101131ADDAA199000691AY111999GF106991061061004501001001EQDQ01+000032APCTENQ02+000002APC3  
0068032620999991927121006004+55017-001417FM-12+003399999V0201601N00671004501CN0100001N9+01221+99999101791ADDAA199001091AY161999GF108991081061004501999999MD1310141+9999MW1811
0068032620999991927121106004+55017-001417FM-12+003399999V0201401N00461004501CN0200001N9+00611+99999101971ADDAA199001091AY121999GF108991081061004501999999MD1810061+9999MW1161
0068032620999991927121206004+55017-001417FM-12+003399999V0200901N00261004501CN0100001N9+00391+99999101591ADDAA199000591AY161999GF108991081061004501999999MD1810061+9999MW1601
0051032620999991927121306004+55017-001417FM-12+003399999V0203401N00261004501CN0100001N9+00281+99999101101ADDAY121999GF108991081061004501999999MD1810061+9999
0068032620999991927121506004+55017-001417FM-12+003399999V0201101N00671004501CN0200001N9+00391+99999101391ADDAA199024091AY161999GF108991081061004501999999MD1310401+9999MW1211
0068032620999991927121606004+55017-001417FM-12+003399999V0201101N00261004501CN0100001N9+00221+99999102961ADDAA199002091AY171999GF106991061091004501001001MD1310201+9999MW1161
0089032620999991927121706004+55017-001417FM-12+003399999V0200501N00101004501CN0200001N9+00221+99999103501ADDAA199000691AY171999GF108991081061004501999999MW1231EQDQ01+000032APCTENQ02+000002APC3  
0072032620999991927121806004+55017-001417FM-12+003399999V0200901N00261004501CN0200001N9+00221+99999103471ADDAY111999GF106991061061004501001001EQDQ01+000032APCTENQ02+000002APC3  
0068032620999991927121906004+55017-001417FM-12+003399999V0200901N00261220001CN0100001N9+00221+99999102901ADDAA199001091AY171999GF104991041091004501001001MD1610061+9999MW1231
0068032620999991927122006004+55017-001417FM-12+003399999V0201401N00461004501CN0100001N9+00221+99999102031ADDAA199006091AY171999GF108991081061004501999999MD1610141+9999MW1231
0051032620999991927122106004+55017-001417FM-12+003399999V0201801N00261004501CN0100001N9+00111+99999100391ADDAY121999GF108991081061004501999999MD1810261+9999
0087032620999991927122206004+55017-001417FM-12+003399999V0201401N00461004501CN0040001N9+00721+99999098111ADDAA199004091AY161999GF108991081061004501999999MD1810802+9999MW1631EQDQ01+000802APC3  
0068032620999991927122306004+55017-001417FM-12+003399999V0203601N00461004501CN0100001N9+00611+99999097361ADDAA199008091AY161999GF108991081061004501999999MD1310341+9999MW1621
0062032620999991927122406004+55017-001417FM-12+003399999V0200201N00461004501CN0200001N9+00611+99999099231ADDAA199001091AY121999GF108991081061004501999999MD1310061+9999
0068032620999991927122506004+55017-001417FM-12+003399999V0200901N00261004501CN0100001N9+00111+99999099871ADDAA199011091AY171999GF108991081061004501999999MD1310061+9999MW1711
0068032620999991927122606004+55017-001417FM-12+003399999V0200501N01231004501CN0100001N9+00221+99999100781ADDAA199003091AY171999GF108991081061004501999999MD1310341+9999MW1161
0068032620999991927122706004+55017-001417FM-12+003399999V0200501N00931220001CN0200001N9+00391+99999102731ADDAA199000391AY181999GF104991041061004501001001MD1310201+9999MW1161
0051032620999991927122906004+55017-001417FM-12+003399999V0200701N00461220001CN0200001N9+00391+99999103791ADDAY101999GF104991041091004501001001MD1610201+9999
0051032620999991927123106004+55017-001417FM-12+003399999V0201801N00261004501CN0040001N9+00221+99999102121ADDAY101999GF107991071061004501001001MD1810061+9999
