0035029350999991926010106004+62233+025733FM-12+009499999V0203401N006219999999N0000001N9-00721+99999097111ADDGF108991999999999999999999MW1381
0029029350999991926010113004+62233+025733FM-12+009499999V0203401N005119999999N0000001N9-00671+99999097831ADDGF108991999999999999999999
0029029350999991926010120004+62233+025733FM-12+009499999V0203401N004119999999N0000001N9-00611+99999098591ADDGF100991999999999999999999
0029029350999991926010206004+62233+025733FM-12+009499999V0209991C000019999999N0000001N9-01001+99999099101ADDGF108991999999999999999999
0029029350999991926010213004+62233+025733FM-12+009499999V0202301N004119999999N0000001N9-00441+99999099221ADDGF108991999999999999999999
0029029350999991926010220004+62233+025733FM-12+009499999V0202501N003119999999N0000001N9-00331+99999099271ADDGF108991999999999999999999
0029029350999991926010306004+62233+025733FM-12+009499999V0202701N002119999999N0000001N9-00561+99999099261ADDGF108991999999999999999999
0029029350999991926010313004+62233+025733FM-12+009499999V0203601N003119999999N0000001N9-00441+99999099641ADDGF108991999999999999999999
0029029350999991926010320004+62233+025733FM-12+009499999V0209991C000019999999N0000001N9-01331+99999099941ADDGF108991999999999999999999
0029029350999991926010406004+62233+025733FM-12+009499999V0203201N001019999999N0000001N9-01501+99999100101ADDGF108991999999999999999999
0029029350999991926010413004+62233+025733FM-12+009499999V0203201N001019999999N0000001N9-01671+99999100301ADDGF108991999999999999999999
0029029350999991926010420004+62233+025733FM-12+009499999V0203201N001019999999N0000001N9-01441+99999100341ADDGF108991999999999999999999
0029029350999991926010506004+62233+025733FM-12+009499999V0209991C000019999999N0000001N9-01061+99999100441ADDGF108991999999999999999999
0035029350999991926010513004+62233+025733FM-12+009499999V0209991C000019999999N0000001N9-01001+99999100821ADDGF108991999999999999999999MW1701
0029029350999991926010520004+62233+025733FM-12+009499999V0203601N001019999999N0000001N9-01391+99999101511ADDGF108991999999999999999999
0029029350999991926010606004+62233+025733FM-12+009499999V0203601N001019999999N0000001N9-02441+99999102271ADDGF100991999999999999999999
0029029350999991926010613004+62233+025733FM-12+009499999V0203601N001019999999N0000001N9-02611+99999102561ADDGF102991999999999999999999
0029029350999991926010620004+62233+025733FM-12+009499999V0203601N001019999999N0000001N9-02831+99999102581ADDGF100991999999999999999999
0035029350999991926010706004+62233+025733FM-12+009499999V0203601N001019999999N0000001N9-03001+99999102061ADDGF100991999999999999999999MW1481
0029029350999991926010713004+62233+025733FM-12+009499999V0203601N001019999999N0000001N9-02171+99999101671ADDGF108991999999999999999999
0035029350999991926010720004+62233+025733FM-12+009499999V0209991C000019999999N0000001N9-01781+99999101301ADDGF108991999999999999999999MW1481
0035029350999991926010806004+62233+025733FM-12+009499999V0203601N002119999999N0000001N9-01281+99999101001ADDGF108991999999999999999999MW1481
0035029350999991926010813004+62233+025733FM-12+009499999V0203601N001019999999N0000001N9-01171+99999101081ADDGF108991999999999999999999MW1481
0035029350999991926010820004+62233+025733FM-12+009499999V0200901N002119999999N0000001N9-01781+99999101381ADDGF100991999999999999999999MW1481
0035029350999991926010906004+62233+025733FM-12+009499999V0200901N002119999999N0000001N9-01941+99999101701ADDGF102991999999999999999999MW1481
0035029350999991926010913004+62233+025733FM-12+009499999V0209991C000019999999N0000001N9-02391+99999102031ADDGF100991999999999999999999MW1481
0035029350999991926010920004+62233+025733FM-12+009499999V0209991C000019999999N0000001N9-02941+99999102341ADDGF100991999999999999999999MW1481
0035029350999991926011006004+62233+025733FM-12+009499999V0209991C000019999999N0000001N9-03441+99999102671ADDGF100991999999999999999999MW1481
0035029350999991926011013004+62233+025733FM-12+009499999V0209991C000019999999N0000001N9-03061+99999102871ADDGF100991999999999999999999MW1481
0035029350999991926011020004+62233+025733FM-12+009499999V0209991C000019999999N0000001N9-02831+99999102981ADDGF100991999999999999999999MW1481
0035029350999991926011106004+62233+025733FM-12+009499999V0201401N002119999999N0000001N9-02061+99999102911ADDGF108991999999999999999999MW1481
0035029350999991926011113004+62233+025733FM-12+009499999V0201401N003119999999N0000001N9-01611+99999102981ADDGF108991999999999999999999MW1481
0035029350999991926011120004+62233+025733FM-12+009499999V0201401N004119999999N0000001N9-01391+99999102951ADDGF108991999999999999999999MW1481
0029029350999991926011206004+62233+025733FM-12+009499999V0201601N006219999999N0000001N9-01281+99999103081ADDGF108991999999999999999999
0029029350999991926011213004+62233+025733FM-12+009499999V0201601N004119999999N0000001N9-01281+99999103001ADDGF108991999999999999999999
0029029350999991926011220004+62233+025733FM-12+009499999V0201601N005119999999N0000001N9-01221+99999103021ADDGF108991999999999999999999
0029029350999991926011306004+62233+025733FM-12+009499999V0201601N004119999999N0000001N9-01171+99999102951ADDGF108991999999999999999999
0029029350999991926011313004+62233+025733FM-12+009499999V0201601N002119999999N0000001N9-01061+99999103031ADDGF108991999999999999999999
0029029350999991926011320004+62233+025733FM-12+009499999V0209991C000019999999N0000001N9-01061+99999103031ADDGF108991999999999999999999
0029029350999991926011406004+62233+025733FM-12+009499999V0209991C000019999999N0000001N9-01831+99999103021ADDGF100991999999999999999999
0029029350999991926011413004+62233+025733FM-12+009499999V0209991C000019999999N0000001N9-01611+99999102951ADDGF100991999999999999999999
0029029350999991926011420004+62233+025733FM-12+009499999V0209991C000019999999N0000001N9-01671+99999102841ADDGF100991999999999999999999
0029029350999991926011506004+62233+025733FM-12+009499999V0209991C000019999999N0000001N9-02111+99999102551ADDGF102991999999999999999999
0029029350999991926011513004+62233+025733FM-12+009499999V0209991C000019999999N0000001N9-01441+99999102351ADDGF108991999999999999999999
0029029350999991926011520004+62233+025733FM-12+009499999V0201401N001019999999N0000001N9-00831+99999102041ADDGF108991999999999999999999
0035029350999991926011606004+62233+025733FM-12+009499999V0201401N001019999999N0000001N9-00781+99999101551ADDGF107991999999999999999999MW1481
0029029350999991926011613004+62233+025733FM-12+009499999V0201401N001019999999N0000001N9-00781+99999101241ADDGF108991999999999999999999
0029029350999991926011620004+62233+025733FM-12+009499999V0201401N001019999999N0000001N9-01331+99999101031ADDGF108991999999999999999999
0029029350999991926011706004+62233+025733FM-12+009499999V0201401N002119999999N0000001N9-01391+99999101061ADDGF108991999999999999999999
0029029350999991926011713004+62233+025733FM-12+009499999V0209991C000019999999N0000001N9-01171+99999101111ADDGF108991999999999999999999
0029029350999991926011720004+62233+025733FM-12+009499999V0201601N001019999999N0000001N9-01391+99999101201ADDGF100991999999999999999999
0035029350999991926011806004+62233+025733FM-12+009499999V0201401N005119999999N0000001N9-01061+99999101201ADDGF108991999999999999999999MW1701
0035029350999991926011813004+62233+025733FM-12+009499999V0201401N005119999999N0000001N9-01061+99999101271ADDGF108991999999999999999999MW1701
0035029350999991926011820004+62233+025733FM-12+009499999V0201401N005119999999N0000001N9-01061+99999101381ADDGF108991999999999999999999MW1701
0035029350999991926011906004+62233+025733FM-12+009499999V0201401N001019999999N0000001N9-01171+99999101151ADDGF108991999999999999999999MW1701
0029029350999991926011913004+62233+025733FM-12+009499999V0201401N004119999999N0000001N9-01001+99999101141ADDGF104991999999999999999999
0029029350999991926011920004+62233+025733FM-12+009499999V0201401N001019999999N0000001N9-01391+99999101151ADDGF106991999999999999999999
0035029350999991926012006004+62233+025733FM-12+009499999V0209991C000019999999N0000001N9-01561+99999100911ADDGF108991999999999999999999MW1701
0029029350999991926012013004+62233+025733FM-12+009499999V0209991C000019999999N0000001N9-01221+99999100751ADDGF104991999999999999999999
0029029350999991926012020004+62233+025733FM-12+009499999V0209991C000019999999N0000001N9-02061+99999100631ADDGF100991999999999999999999
0035029350999991926012106004+62233+025733FM-12+009499999V0209991C000019999999N0000001N9-01941+99999100511ADDGF108991999999999999999999MW1701
0035029350999991926012113004+62233+025733FM-12+009499999V0209991C000019999999N0000001N9-01441+99999100311ADDGF108991999999999999999999MW1701
0035029350999991926012120004+62233+025733FM-12+009499999V0209991C000019999999N0000001N9-01281+99999100321ADDGF108991999999999999999999MW1701
0035029350999991926012206004+62233+025733FM-12+009499999V0209991C000019999999N0000001N9-01171+99999100281ADDGF108991999999999999999999MW1701
0035029350999991926012213004+62233+025733FM-12+009499999V0202701N001019999999N0000001N9-01171+99999100401ADDGF108991999999999999999999MW1701
0035029350999991926012220004+62233+025733FM-12+009499999V0209991C000019999999N0000001N9-01171+99999100431ADDGF108991999999999999999999MW1701
0035029350999991926012306004+62233+025733FM-12+009499999V0201401N002119999999N0000001N9-01111+99999100221ADDGF108991999999999999999999MW1701
0035029350999991926012313004+62233+025733FM-12+009499999V0201401N003119999999N0000001N9-00941+99999100031ADDGF108991999999999999999999MW1701
0035029350999991926012320004+62233+025733FM-12+009499999V0201801N005119999999N0000001N9-00831+99999100041ADDGF108991999999999999999999MW1701
0029029350999991926012406004+62233+025733FM-12+009499999V0201401N007219999999N0000001N9-01001+99999099961ADDGF108991999999999999999999
0035029350999991926012413004+62233+025733FM-12+009499999V0201401N007219999999N0000001N9-01001+99999099391ADDGF108991999999999999999999MW1701
0035029350999991926012420004+62233+025733FM-12+009499999V0201101N005119999999N0000001N9-01171+99999098721ADDGF108991999999999999999999MW1701
0035029350999991926012506004+62233+025733FM-12+009499999V0200901N002119999999N0000001N9-00721+99999098111ADDGF108991999999999999999999MW1721
0029029350999991926012513004+62233+025733FM-12+009499999V0203601N003119999999N0000001N9-00561+99999098191ADDGF108991999999999999999999
0029029350999991926012520004+62233+025733FM-12+009499999V0209991C000019999999N0000001N9-00721+99999098341ADDGF108991999999999999999999
0035029350999991926012606004+62233+025733FM-12+009499999V0203601N002119999999N0000001N9-00721+99999097701ADDGF108991999999999999999999MW1721
0035029350999991926012613004+62233+025733FM-12+009499999V0203601N003119999999N0000001N9-00671+99999098001ADDGF108991999999999999999999MW1701
0035029350999991926012620004+62233+025733FM-12+009499999V0203601N004119999999N0000001N9-01001+99999098961ADDGF108991999999999999999999MW1721
0029029350999991926012706004+62233+025733FM-12+009499999V0209991C000019999999N0000001N9-01561+99999100071ADDGF100991999999999999999999
0035029350999991926012713004+62233+025733FM-12+009499999V0209991C000019999999N0000001N9-01391+99999100401ADDGF102991999999999999999999MW1701
0029029350999991926012720004+62233+025733FM-12+009499999V0209991C000019999999N0000001N9-01941+99999100441ADDGF100991999999999999999999
0035029350999991926012806004+62233+025733FM-12+009499999V0209991C000019999999N0000001N9-01441+99999099991ADDGF108991999999999999999999MW1701
0035029350999991926012813004+62233+025733FM-12+009499999V0201801N002119999999N0000001N9-01061+99999099511ADDGF108991999999999999999999MW1721
0035029350999991926012820004+62233+025733FM-12+009499999V0203601N002119999999N0000001N9-01501+99999099401ADDGF108991999999999999999999MW1721
0029029350999991926012906004+62233+025733FM-12+009499999V0203401N004119999999N0000001N9-02171+99999100271ADDGF100991999999999999999999
0029029350999991926012913004+62233+025733FM-12+009499999V0203401N003119999999N0000001N9-01891+99999100701ADDGF100991999999999999999999
0029029350999991926012920004+62233+025733FM-12+009499999V0209991C000019999999N0000001N9-02721+99999100951ADDGF100991999999999999999999
0029029350999991926013006004+62233+025733FM-12+009499999V0200901N002119999999N0000001N9-03281+99999100661ADDGF100991999999999999999999
0029029350999991926013013004+62233+025733FM-12+009499999V0209991C000019999999N0000001N9-01441+99999100481ADDGF102991999999999999999999
0029029350999991926013020004+62233+025733FM-12+009499999V0202001N001019999999N0000001N9-01331+99999100311ADDGF108991999999999999999999
0035029350999991926013106004+62233+025733FM-12+009499999V0202001N001019999999N0000001N9-01111+99999099951ADDGF108991999999999999999999MW1701
0029029350999991926013113004+62233+025733FM-12+009499999V0201801N001019999999N0000001N9-00941+99999099821ADDGF108991999999999999999999
0029029350999991926013120004+62233+025733FM-12+009499999V0209991C000019999999N0000001N9-00941+99999099941ADDGF108991999999999999999999
0029029350999991926020106004+62233+025733FM-12+009499999V0209991C000019999999N0000001N9-00891+99999100071ADDGF108991999999999999999999
0029029350999991926020113004+62233+025733FM-12+009499999V0201801N002119999999N0000001N9-00781+99999100121ADDGF106991999999999999999999
0029029350999991926020120004+62233+025733FM-12+009499999V0201601N002119999999N0000001N9-00671+99999099881ADDGF108991999999999999999999
0029029350999991926020206004+62233+025733FM-12+009499999V0202301N006219999999N0000001N9-00171+99999099521ADDGF108991999999999999999999
0029029350999991926020213004+62233+025733FM-12+009499999V0202701N005119999999N0000001N9-00111+99999099591ADDGF108991999999999999999999
0029029350999991926020220004+62233+025733FM-12+009499999V0209991C000019999999N0000001N9-00221+99999099701ADDGF108991999999999999999999
0035029350999991926020306004+62233+025733FM-12+009499999V0200901N003119999999N0000001N9-00331+99999099761ADDGF108991999999999999999999MW1701
0029029350999991926020313004+62233+025733FM-12+009499999V0200901N005119999999N0000001N9-00561+99999100061ADDGF108991999999999999999999
0035029350999991926020320004+62233+025733FM-12+009499999V0200701N007219999999N0000001N9-00721+99999100351ADDGF108991999999999999999999MW1701
0029029350999991926020406004+62233+025733FM-12+009499999V0200501N006219999999N0000001N9-01611+99999100911ADDGF102991999999999999999999
0029029350999991926020413004+62233+025733FM-12+009499999V0200501N006219999999N0000001N9-01501+99999101241ADDGF100991999999999999999999
0029029350999991926020420004+62233+025733FM-12+009499999V0200501N004119999999N0000001N9-01831+99999101621ADDGF100991999999999999999999
0029029350999991926020506004+62233+025733FM-12+009499999V0203601N001019999999N0000001N9-02441+99999102301ADDGF100991999999999999999999
0029029350999991926020513004+62233+025733FM-12+009499999V0203601N001019999999N0000001N9-02061+99999102601ADDGF100991999999999999999999
0029029350999991926020520004+62233+025733FM-12+009499999V0209991C000019999999N0000001N9-02781+99999102871ADDGF100991999999999999999999
0029029350999991926020606004+62233+025733FM-12+009499999V0203601N001019999999N0000001N9-03391+99999102961ADDGF100991999999999999999999
0029029350999991926020613004+62233+025733FM-12+009499999V0209991C000019999999N0000001N9-01891+99999102841ADDGF100991999999999999999999
0029029350999991926020620004+62233+025733FM-12+009499999V0209991C000019999999N0000001N9-02281+99999102821ADDGF100991999999999999999999
0029029350999991926020706004+62233+025733FM-12+009499999V0209991C000019999999N0000001N9-02441+99999102631ADDGF108991999999999999999999
0035029350999991926020713004+62233+025733FM-12+009499999V0200501N001019999999N0000001N9-01561+99999102551ADDGF104991999999999999999999MW1481
0029029350999991926020720004+62233+025733FM-12+009499999V0209991C000019999999N0000001N9-02061+99999102471ADDGF102991999999999999999999
0029029350999991926020806004+62233+025733FM-12+009499999V0209991C000019999999N0000001N9-01781+99999102391ADDGF102991999999999999999999
0029029350999991926020813004+62233+025733FM-12+009499999V0200901N004119999999N0000001N9-01561+99999102441ADDGF102991999999999999999999
0029029350999991926020820004+62233+025733FM-12+009499999V0209991C000019999999N0000001N9-02281+99999102501ADDGF100991999999999999999999
0029029350999991926020906004+62233+025733FM-12+009499999V0203401N002119999999N0000001N9-03061+99999102581ADDGF100991999999999999999999
0029029350999991926020913004+62233+025733FM-12+009499999V0209991C000019999999N0000001N9-01671+99999102481ADDGF100991999999999999999999
0029029350999991926020920004+62233+025733FM-12+009499999V0209991C000019999999N0000001N9-02171+99999102361ADDGF100991999999999999999999
0029029350999991926021006004+62233+025733FM-12+009499999V0203201N001019999999N0000001N9-02781+99999102121ADDGF100991999999999999999999
0029029350999991926021013004+62233+025733FM-12+009499999V0209991C000019999999N0000001N9-01561+99999101831ADDGF100991999999999999999999
0029029350999991926021020004+62233+025733FM-12+009499999V0201401N003119999999N0000001N9-01281+99999101461ADDGF108991999999999999999999
0029029350999991926021106004+62233+025733FM-12+009499999V0201101N004119999999N0000001N9-01061+99999100791ADDGF108991999999999999999999
0035029350999991926021113004+62233+025733FM-12+009499999V0201601N004119999999N0000001N9-00941+99999100561ADDGF108991999999999999999999MW1721
0035029350999991926021120004+62233+025733FM-12+009499999V0201801N001019999999N0000001N9-00831+99999100481ADDGF108991999999999999999999MW1701
0035029350999991926021206004+62233+025733FM-12+009499999V0202001N003119999999N0000001N9-00671+99999100261ADDGF108991999999999999999999MW1701
0029029350999991926021213004+62233+025733FM-12+009499999V0202301N005119999999N0000001N9-00331+99999100271ADDGF100991999999999999999999
0035029350999991926021220004+62233+025733FM-12+009499999V0201801N003119999999N0000001N9-00941+99999100431ADDGF100991999999999999999999MW1001
0029029350999991926021306004+62233+025733FM-12+009499999V0209991C000019999999N0000001N9-01671+99999100521ADDGF100991999999999999999999
0035029350999991926021313004+62233+025733FM-12+009499999V0209991C000019999999N0000001N9-01061+99999100461ADDGF100991999999999999999999MW1481
0035029350999991926021320004+62233+025733FM-12+009499999V0209991C000019999999N0000001N9-01781+99999100501ADDGF100991999999999999999999MW1481
0035029350999991926021406004+62233+025733FM-12+009499999V0203601N001019999999N0000001N9-02281+99999100521ADDGF102991999999999999999999MW1481
0035029350999991926021413004+62233+025733FM-12+009499999V0203601N003119999999N0000001N9-01061+99999100741ADDGF108991999999999999999999MW1481
0035029350999991926021420004+62233+025733FM-12+009499999V0203401N001019999999N0000001N9-01221+99999101031ADDGF108991999999999999999999MW1481
0035029350999991926021506004+62233+025733FM-12+009499999V0202301N003119999999N0000001N9-01331+99999100871ADDGF108991999999999999999999MW1481
0029029350999991926021513004+62233+025733FM-12+009499999V0202001N015919999999N0000001N9-00501+99999100141ADDGF108991999999999999999999
0035029350999991926021520004+62233+025733FM-12+009499999V0202301N006219999999N0000001N9-00331+99999099901ADDGF108991999999999999999999MW1701
0035029350999991926021606004+62233+025733FM-12+009499999V0202001N008719999999N0000001N9-00171+99999098981ADDGF108991999999999999999999MW1721
0029029350999991926021613004+62233+025733FM-12+009499999V0202301N008219999999N0000001N9+00111+99999098631ADDGF108991999999999999999999
0029029350999991926021620004+62233+025733FM-12+009499999V0202701N002119999999N0000001N9+00111+99999098801ADDGF108991999999999999999999
0035029350999991926021706004+62233+025733FM-12+009499999V0202301N001019999999N0000001N9+00001+99999098701ADDGF108991999999999999999999MW1721
0029029350999991926021713004+62233+025733FM-12+009499999V0202301N002119999999N0000001N9+00111+99999098961ADDGF108991999999999999999999
0029029350999991926021720004+62233+025733FM-12+009499999V0202001N004119999999N0000001N9-00061+99999099101ADDGF108991999999999999999999
0029029350999991926021806004+62233+025733FM-12+009499999V0201601N004119999999N0000001N9-00061+99999098281ADDGF108991999999999999999999
0029029350999991926021813004+62233+025733FM-12+009499999V0201401N004119999999N0000001N9+00001+99999097861ADDGF108991999999999999999999
0029029350999991926021820004+62233+025733FM-12+009499999V0202301N002119999999N0000001N9-00061+99999097741ADDGF108991999999999999999999
0029029350999991926021906004+62233+025733FM-12+009499999V0209991C000019999999N0000001N9-00111+99999097941ADDGF108991999999999999999999
0035029350999991926021913004+62233+025733FM-12+009499999V0202701N005119999999N0000001N9+00061+99999098301ADDGF108991999999999999999999MW1701
0029029350999991926021920004+62233+025733FM-12+009499999V0203601N003119999999N0000001N9-00391+99999098961ADDGF108991999999999999999999
0029029350999991926022006004+62233+025733FM-12+009499999V0203601N005119999999N0000001N9-01001+99999099941ADDGF108991999999999999999999
0029029350999991926022013004+62233+025733FM-12+009499999V0200501N004119999999N0000001N9-01061+99999100541ADDGF100991999999999999999999
0029029350999991926022020004+62233+025733FM-12+009499999V0200901N002119999999N0000001N9-01501+99999100841ADDGF106991999999999999999999
0035029350999991926022106004+62233+025733FM-12+009499999V0201601N006219999999N0000001N9-01391+99999100551ADDGF108991999999999999999999MW1721
0035029350999991926022113004+62233+025733FM-12+009499999V0201601N004119999999N0000001N9-01221+99999100201ADDGF108991999999999999999999MW1721
0035029350999991926022120004+62233+025733FM-12+009499999V0209991C000019999999N0000001N9-01111+99999100061ADDGF108991999999999999999999MW1721
0029029350999991926022206004+62233+025733FM-12+009499999V0203601N004119999999N0000001N9-02001+99999100911ADDGF100991999999999999999999
0029029350999991926022213004+62233+025733FM-12+009499999V0203601N002119999999N0000001N9-01441+99999101281ADDGF100991999999999999999999
0029029350999991926022220004+62233+025733FM-12+009499999V0209991C000019999999N0000001N9-02331+99999101421ADDGF100991999999999999999999
0029029350999991926022306004+62233+025733FM-12+009499999V0201401N002119999999N0000001N9-01721+99999101361ADDGF108991999999999999999999
0029029350999991926022313004+62233+025733FM-12+009499999V0201801N007219999999N0000001N9-01061+99999100981ADDGF108991999999999999999999
0029029350999991926022320004+62233+025733FM-12+009499999V0201801N008219999999N0000001N9-01061+99999100661ADDGF108991999999999999999999
0029029350999991926022406004+62233+025733FM-12+009499999V0201801N003119999999N0000001N9-00831+99999100081ADDGF108991999999999999999999
0029029350999991926022413004+62233+025733FM-12+009499999V0202701N002119999999N0000001N9-00061+99999100161ADDGF108991999999999999999999
0029029350999991926022420004+62233+025733FM-12+009499999V0202701N003119999999N0000001N9-00281+99999100821ADDGF100991999999999999999999
0029029350999991926022506004+62233+025733FM-12+009499999V0209991C000019999999N0000001N9-01501+99999101471ADDGF108991999999999999999999
0029029350999991926022513004+62233+025733FM-12+009499999V0203201N001019999999N0000001N9-00441+99999101671ADDGF108991999999999999999999
0035029350999991926022520004+62233+025733FM-12+009499999V0201601N003119999999N0000001N9-00331+99999101791ADDGF108991999999999999999999MW1481
0029029350999991926022606004+62233+025733FM-12+009499999V0201801N005119999999N0000001N9-00221+99999101701ADDGF108991999999999999999999
0029029350999991926022613004+62233+025733FM-12+009499999V0202001N006219999999N0000001N9+00111+99999101751ADDGF108991999999999999999999
0029029350999991926022620004+62233+025733FM-12+009499999V0201801N006219999999N0000001N9+00001+99999101661ADDGF108991999999999999999999
0029029350999991926022706004+62233+025733FM-12+009499999V0202301N009819999999N0000001N9+00061+99999101631ADDGF108991999999999999999999
0035029350999991926022713004+62233+025733FM-12+009499999V0202001N006219999999N0000001N9+00111+99999101711ADDGF108991999999999999999999MW1701
0029029350999991926022720004+62233+025733FM-12+009499999V0202001N009819999999N0000001N9+00061+99999101751ADDGF108991999999999999999999
0029029350999991926022806004+62233+025733FM-12+009499999V0202001N008219999999N0000001N9-00391+99999101261ADDGF108991999999999999999999
0035029350999991926022813004+62233+025733FM-12+009499999V0202001N007219999999N0000001N9-00721+99999101141ADDGF108991999999999999999999MW1721
0029029350999991926022820004+62233+025733FM-12+009499999V0202301N001019999999N0000001N9-00331+99999101141ADDGF108991999999999999999999
0029029350999991926030106004+62233+025733FM-12+009499999V0201801N003119999999N0000001N9-00221+99999100821ADDGF108991999999999999999999
0029029350999991926030113004+62233+025733FM-12+009499999V0202301N007219999999N0000001N9-00111+99999099901ADDGF108991999999999999999999
0035029350999991926030120004+62233+025733FM-12+009499999V0202301N019019999999N0000001N9+00001+99999099061ADDGF108991999999999999999999MW1721
0035029350999991926030206004+62233+025733FM-12+009499999V0202301N007219999999N0000001N9+00061+99999097421ADDGF108991999999999999999999MW1601
0029029350999991926030213004+62233+025733FM-12+009499999V0203201N008219999999N0000001N9+00111+99999097821ADDGF100991999999999999999999
0029029350999991926030220004+62233+025733FM-12+009499999V0202301N005119999999N0000001N9-00281+99999097391ADDGF108991999999999999999999
0029029350999991926030306004+62233+025733FM-12+009499999V0202901N005119999999N0000001N9-00501+99999097681ADDGF100991999999999999999999
0029029350999991926030313004+62233+025733FM-12+009499999V0202701N007219999999N0000001N9-00221+99999098021ADDGF100991999999999999999999
0035029350999991926030320004+62233+025733FM-12+009499999V0201401N002119999999N0000001N9-00331+99999097031ADDGF108991999999999999999999MW1721
0035029350999991926030406004+62233+025733FM-12+009499999V0202301N007219999999N0000001N9+00111+99999095341ADDGF108991999999999999999999MW1621
0029029350999991926030413004+62233+025733FM-12+009499999V0202301N007219999999N0000001N9+00281+99999095601ADDGF104991999999999999999999
0035029350999991926030420004+62233+025733FM-12+009499999V0202301N001019999999N0000001N9-00111+99999095941ADDGF100991999999999999999999MW1001
0029029350999991926030506004+62233+025733FM-12+009499999V0202301N005119999999N0000001N9-00111+99999096261ADDGF108991999999999999999999
0029029350999991926030513004+62233+025733FM-12+009499999V0202301N007219999999N0000001N9+00001+99999097101ADDGF102991999999999999999999
0035029350999991926030520004+62233+025733FM-12+009499999V0202701N006219999999N0000001N9-00281+99999097551ADDGF102991999999999999999999MW1001
0035029350999991926030606004+62233+025733FM-12+009499999V0202001N006219999999N0000001N9-00561+99999097401ADDGF108991999999999999999999MW1701
0035029350999991926030613004+62233+025733FM-12+009499999V0202301N006219999999N0000001N9-00281+99999097481ADDGF108991999999999999999999MW1381
0029029350999991926030620004+62233+025733FM-12+009499999V0202301N005119999999N0000001N9-00281+99999097761ADDGF108991999999999999999999
0029029350999991926030706004+62233+025733FM-12+009499999V0209991C000019999999N0000001N9-01561+99999098381ADDGF104991999999999999999999
0029029350999991926030713004+62233+025733FM-12+009499999V0209991C000019999999N0000001N9-00441+99999098671ADDGF100991999999999999999999
0029029350999991926030720004+62233+025733FM-12+009499999V0209991C000019999999N0000001N9-01001+99999099101ADDGF100991999999999999999999
0029029350999991926030806004+62233+025733FM-12+009499999V0209991C000019999999N0000001N9-01671+99999099311ADDGF100991999999999999999999
0035029350999991926030813004+62233+025733FM-12+009499999V0201601N003119999999N0000001N9-00221+99999099121ADDGF104991999999999999999999MW1701
0029029350999991926030820004+62233+025733FM-12+009499999V0202001N004119999999N0000001N9-00221+99999098821ADDGF108991999999999999999999
0035029350999991926030906004+62233+025733FM-12+009499999V0201401N008719999999N0000001N9-00061+99999097191ADDGF108991999999999999999999MW1721
0029029350999991926030913004+62233+025733FM-12+009499999V0202301N009819999999N0000001N9+00441+99999096701ADDGF104991999999999999999999
0029029350999991926030920004+62233+025733FM-12+009499999V0202301N005119999999N0000001N9+00111+99999096741ADDGF100991999999999999999999
0029029350999991926031006004+62233+025733FM-12+009499999V0202301N005119999999N0000001N9-00331+99999096471ADDGF102991999999999999999999
0029029350999991926031013004+62233+025733FM-12+009499999V0203201N008219999999N0000001N9-00061+99999096671ADDGF108991999999999999999999
0035029350999991926031020004+62233+025733FM-12+009499999V0203201N008719999999N0000001N9-00611+99999097661ADDGF108991999999999999999999MW1701
0029029350999991926031106004+62233+025733FM-12+009499999V0202901N007219999999N0000001N9-00941+99999098781ADDGF100991999999999999999999
0029029350999991926031113004+62233+025733FM-12+009499999V0202701N007219999999N0000001N9-00111+99999098831ADDGF100991999999999999999999
0035029350999991926031120004+62233+025733FM-12+009499999V0201601N008719999999N0000001N9-00331+99999097541ADDGF108991999999999999999999MW1721
0029029350999991926031206004+62233+025733FM-12+009499999V0203201N008219999999N0000001N9-00391+99999096481ADDGF102991999999999999999999
0029029350999991926031213004+62233+025733FM-12+009499999V0202701N008719999999N0000001N9-00501+99999096471ADDGF104991999999999999999999
0029029350999991926031220004+62233+025733FM-12+009499999V0203201N006219999999N0000001N9-00671+99999096461ADDGF106991999999999999999999
0035029350999991926031306004+62233+025733FM-12+009499999V0203201N008719999999N0000001N9-00941+99999096791ADDGF106991999999999999999999MW1381
0035029350999991926031313004+62233+025733FM-12+009499999V0203401N013919999999N0000001N9-00281+99999097121ADDGF104991999999999999999999MW1381
0035029350999991926031320004+62233+025733FM-12+009499999V0203401N013919999999N0000001N9-00721+99999097821ADDGF100991999999999999999999MW1381
0035029350999991926031406004+62233+025733FM-12+009499999V0203201N011819999999N0000001N9-00831+99999098111ADDGF106991999999999999999999MW1381
0035029350999991926031413004+62233+025733FM-12+009499999V0203201N011819999999N0000001N9-00441+99999098381ADDGF102991999999999999999999MW1381
0035029350999991926031420004+62233+025733FM-12+009499999V0203201N011819999999N0000001N9-00561+99999098591ADDGF100991999999999999999999MW1381
0029029350999991926031506004+62233+025733FM-12+009499999V0203201N007219999999N0000001N9-00721+99999098641ADDGF102991999999999999999999
0029029350999991926031513004+62233+025733FM-12+009499999V0203401N009819999999N0000001N9-00281+99999098841ADDGF108991999999999999999999
0029029350999991926031520004+62233+025733FM-12+009499999V0203401N009819999999N0000001N9-00331+99999099261ADDGF108991999999999999999999
0029029350999991926031606004+62233+025733FM-12+009499999V0203201N005119999999N0000001N9-00831+99999099441ADDGF100991999999999999999999
0029029350999991926031613004+62233+025733FM-12+009499999V0203201N005119999999N0000001N9-00281+99999099641ADDGF106991999999999999999999
0029029350999991926031620004+62233+025733FM-12+009499999V0203601N003119999999N0000001N9-00671+99999099921ADDGF100991999999999999999999
0029029350999991926031706004+62233+025733FM-12+009499999V0203401N002119999999N0000001N9-01781+99999100161ADDGF100991999999999999999999
0029029350999991926031713004+62233+025733FM-12+009499999V0203601N005119999999N0000001N9-00441+99999100181ADDGF102991999999999999999999
0035029350999991926031720004+62233+025733FM-12+009499999V0203601N006219999999N0000001N9-00331+99999099961ADDGF108991999999999999999999MW1701
0035029350999991926031806004+62233+025733FM-12+009499999V0203601N004119999999N0000001N9-00441+99999099951ADDGF108991999999999999999999MW1701
0029029350999991926031813004+62233+025733FM-12+009499999V0203601N004119999999N0000001N9-00221+99999100041ADDGF108991999999999999999999
0035029350999991926031820004+62233+025733FM-12+009499999V0203601N004119999999N0000001N9-00331+99999100061ADDGF108991999999999999999999MW1701
0029029350999991926031906004+62233+025733FM-12+009499999V0201601N003119999999N0000001N9-00941+99999100501ADDGF102991999999999999999999
0029029350999991926031913004+62233+025733FM-12+009499999V0201101N002119999999N0000001N9-00501+99999100991ADDGF100991999999999999999999
0029029350999991926031920004+62233+025733FM-12+009499999V0203601N001019999999N0000001N9-01391+99999101391ADDGF100991999999999999999999
0029029350999991926032006004+62233+025733FM-12+009499999V0203601N001019999999N0000001N9-01441+99999101061ADDGF108991999999999999999999
0029029350999991926032013004+62233+025733FM-12+009499999V0202901N005119999999N0000001N9-00331+99999100581ADDGF108991999999999999999999
0035029350999991926032020004+62233+025733FM-12+009499999V0202901N002119999999N0000001N9-00501+99999100361ADDGF108991999999999999999999MW1701
0035029350999991926032106004+62233+025733FM-12+009499999V0203401N003119999999N0000001N9-00671+99999100641ADDGF108991999999999999999999MW1701
0029029350999991926032113004+62233+025733FM-12+009499999V0203601N005119999999N0000001N9-00281+99999100751ADDGF108991999999999999999999
0029029350999991926032120004+62233+025733FM-12+009499999V0203601N006219999999N0000001N9-00561+99999100821ADDGF100991999999999999999999
0029029350999991926032206004+62233+025733FM-12+009499999V0209991C000019999999N0000001N9-01111+99999100741ADDGF104991999999999999999999
0029029350999991926032213004+62233+025733FM-12+009499999V0203401N003119999999N0000001N9-00331+99999100541ADDGF104991999999999999999999
0035029350999991926032220004+62233+025733FM-12+009499999V0202901N001019999999N0000001N9-00611+99999100311ADDGF108991999999999999999999MW1701
0029029350999991926032306004+62233+025733FM-12+009499999V0209991C000019999999N0000001N9-01001+99999099801ADDGF104991999999999999999999
0029029350999991926032313004+62233+025733FM-12+009499999V0202701N005119999999N0000001N9+00281+99999099361ADDGF108991999999999999999999
0029029350999991926032320004+62233+025733FM-12+009499999V0202701N003119999999N0000001N9-00061+99999099351ADDGF100991999999999999999999
0029029350999991926032406004+62233+025733FM-12+009499999V0202701N008219999999N0000001N9-00281+99999098321ADDGF104991999999999999999999
0029029350999991926032413004+62233+025733FM-12+009499999V0203201N019019999999N0000001N9-00061+99999098301ADDGF100991999999999999999999
0029029350999991926032420004+62233+025733FM-12+009499999V0203201N019019999999N0000001N9-00221+99999098871ADDGF100991999999999999999999
0029029350999991926032506004+62233+025733FM-12+009499999V0203401N008219999999N0000001N9-00561+99999099431ADDGF108991999999999999999999
0029029350999991926032513004+62233+025733FM-12+009499999V0203401N009819999999N0000001N9-00221+99999999999ADDGF100991999999999999999999
0029029350999991926032520004+62233+025733FM-12+009499999V0202901N004119999999N0000001N9-00721+99999100421ADDGF100991999999999999999999
0029029350999991926032606004+62233+025733FM-12+009499999V0202701N004119999999N0000001N9-01001+99999100241ADDGF100991999999999999999999
0029029350999991926032613004+62233+025733FM-12+009499999V0202701N008219999999N0000001N9+00111+99999100031ADDGF100991999999999999999999
0029029350999991926032620004+62233+025733FM-12+009499999V0209991C000019999999N0000001N9-00281+99999100431ADDGF100991999999999999999999
0029029350999991926032706004+62233+025733FM-12+009499999V0209991C000019999999N0000001N9-01391+99999100901ADDGF100991999999999999999999
0029029350999991926032713004+62233+025733FM-12+009499999V0202001N006219999999N0000001N9+00281+99999100781ADDGF106991999999999999999999
0029029350999991926032720004+62233+025733FM-12+009499999V0201801N005119999999N0000001N9-00171+99999100471ADDGF108991999999999999999999
0029029350999991926032806004+62233+025733FM-12+009499999V0201801N006219999999N0000001N9-00611+99999100361ADDGF108991999999999999999999
0029029350999991926032813004+62233+025733FM-12+009499999V0201801N008219999999N0000001N9+00171+99999100311ADDGF104991999999999999999999
0029029350999991926032820004+62233+025733FM-12+009499999V0201801N004119999999N0000001N9-00281+99999100271ADDGF100991999999999999999999
0029029350999991926032906004+62233+025733FM-12+009499999V0201601N003119999999N0000001N9-00781+99999100181ADDGF100991999999999999999999
0029029350999991926032913004+62233+025733FM-12+009499999V0201401N005119999999N0000001N9+00001+99999100041ADDGF106991999999999999999999
0029029350999991926032920004+62233+025733FM-12+009499999V0201401N004119999999N0000001N9-00281+99999100101ADDGF108991999999999999999999
0035029350999991926033006004+62233+025733FM-12+009499999V0201401N003119999999N0000001N9-00561+99999099831ADDGF108991999999999999999999MW1701
0035029350999991926033013004+62233+025733FM-12+009499999V0201401N006219999999N0000001N9-00171+99999099781ADDGF108991999999999999999999MW1701
0029029350999991926033020004+62233+025733FM-12+009499999V0201401N008219999999N0000001N9-00221+99999099501ADDGF108991999999999999999999
0035029350999991926033106004+62233+025733FM-12+009499999V0201601N006219999999N0000001N9-00441+99999098631ADDGF108991999999999999999999MW1721
0035029350999991926033113004+62233+025733FM-12+009499999V0201601N003119999999N0000001N9-00221+99999098351ADDGF108991999999999999999999MW1721
0035029350999991926033120004+62233+025733FM-12+009499999V0202001N003119999999N0000001N9-00061+99999098341ADDGF108991999999999999999999MW1721
0029029350999991926040106004+62233+025733FM-12+009499999V0202901N005119999999N0000001N9-00281+99999098831ADDGF108991999999999999999999
0035029350999991926040113004+62233+025733FM-12+009499999V0202901N007219999999N0000001N9-00171+99999099101ADDGF108991999999999999999999MW1701
0035029350999991926040120004+62233+025733FM-12+009499999V0203201N005119999999N0000001N9-00331+99999099481ADDGF108991999999999999999999MW1701
0029029350999991926040206004+62233+025733FM-12+009499999V0203601N008219999999N0000001N9-00281+99999100591ADDGF108991999999999999999999
0029029350999991926040213004+62233+025733FM-12+009499999V0203601N008219999999N0000001N9+00061+99999101181ADDGF108991999999999999999999
0029029350999991926040220004+62233+025733FM-12+009499999V0203601N005119999999N0000001N9+00061+99999101751ADDGF108991999999999999999999
0029029350999991926040306004+62233+025733FM-12+009499999V0209991C000019999999N0000001N9-00831+99999102041ADDGF102991999999999999999999
0029029350999991926040313004+62233+025733FM-12+009499999V0203601N001019999999N0000001N9+00001+99999102161ADDGF100991999999999999999999
0029029350999991926040320004+62233+025733FM-12+009499999V0209991C000019999999N0000001N9-00501+99999101721ADDGF108991999999999999999999
0029029350999991926040406004+62233+025733FM-12+009499999V0202501N007219999999N0000001N9-00171+99999100471ADDGF108991999999999999999999
0029029350999991926040413004+62233+025733FM-12+009499999V0202701N001019999999N0000001N9+00721+99999100301ADDGF104991999999999999999999
0029029350999991926040420004+62233+025733FM-12+009499999V0209991C000019999999N0000001N9+00441+99999100031ADDGF108991999999999999999999
0035029350999991926040506004+62233+025733FM-12+009499999V0202701N003119999999N0000001N9+00221+99999099141ADDGF108991999999999999999999MW1601
0029029350999991926040513004+62233+025733FM-12+009499999V0203201N011819999999N0000001N9+00941+99999098561ADDGF104991999999999999999999
0029029350999991926040520004+62233+025733FM-12+009499999V0203201N005119999999N0000001N9+00501+99999098681ADDGF108991999999999999999999
0029029350999991926040606004+62233+025733FM-12+009499999V0203601N003119999999N0000001N9+00171+99999098871ADDGF108991999999999999999999
0029029350999991926040613004+62233+025733FM-12+009499999V0200201N007219999999N0000001N9-00391+99999099511ADDGF108991999999999999999999
0029029350999991926040620004+62233+025733FM-12+009499999V0200201N003119999999N0000001N9-00941+99999100311ADDGF100991999999999999999999
0029029350999991926040706004+62233+025733FM-12+009499999V0203401N005119999999N0000001N9-01061+99999101041ADDGF100991999999999999999999
0029029350999991926040713004+62233+025733FM-12+009499999V0203601N004119999999N0000001N9-00171+99999101071ADDGF100991999999999999999999
0029029350999991926040720004+62233+025733FM-12+009499999V0203601N001019999999N0000001N9-00611+99999100981ADDGF100991999999999999999999
0029029350999991926040806004+62233+025733FM-12+009499999V0209991C000019999999N0000001N9-01391+99999100581ADDGF106991999999999999999999
0029029350999991926040813004+62233+025733FM-12+009499999V0202001N004119999999N0000001N9+00061+99999100061ADDGF102991999999999999999999
0029029350999991926040820004+62233+025733FM-12+009499999V0202001N003119999999N0000001N9-00221+99999099661ADDGF108991999999999999999999
0029029350999991926040906004+62233+025733FM-12+009499999V0201801N003119999999N0000001N9-00331+99999099281ADDGF108991999999999999999999
0029029350999991926040913004+62233+025733FM-12+009499999V0201801N004119999999N0000001N9+00061+99999099151ADDGF108991999999999999999999
0029029350999991926040920004+62233+025733FM-12+009499999V0202001N003119999999N0000001N9-00061+99999099101ADDGF108991999999999999999999
0035029350999991926041006004+62233+025733FM-12+009499999V0201801N003119999999N0000001N9-00171+99999099001ADDGF108991999999999999999999MW1701
0029029350999991926041013004+62233+025733FM-12+009499999V0202001N005119999999N0000001N9+00221+99999098871ADDGF108991999999999999999999
0029029350999991926041020004+62233+025733FM-12+009499999V0203601N003119999999N0000001N9-00061+99999099081ADDGF108991999999999999999999
0029029350999991926041106004+62233+025733FM-12+009499999V0203201N001019999999N0000001N9-00611+99999099261ADDGF100991999999999999999999
0029029350999991926041113004+62233+025733FM-12+009499999V0203201N006219999999N0000001N9+00111+99999099551ADDGF100991999999999999999999
0029029350999991926041120004+62233+025733FM-12+009499999V0202901N002119999999N0000001N9-00391+99999099551ADDGF100991999999999999999999
0035029350999991926041206004+62233+025733FM-12+009499999V0202901N002119999999N0000001N9-00171+99999098741ADDGF106991999999999999999999MW1701
0029029350999991926041213004+62233+025733FM-12+009499999V0203201N009819999999N0000001N9+00001+99999099231ADDGF100991999999999999999999
0029029350999991926041220004+62233+025733FM-12+009499999V0203201N004119999999N0000001N9-00391+99999099631ADDGF100991999999999999999999
0029029350999991926041306004+62233+025733FM-12+009499999V0209991C000019999999N0000001N9-00781+99999099431ADDGF108991999999999999999999
0029029350999991926041313004+62233+025733FM-12+009499999V0201801N001019999999N0000001N9-00061+99999099401ADDGF106991999999999999999999
0029029350999991926041320004+62233+025733FM-12+009499999V0203201N007219999999N0000001N9-00281+99999099671ADDGF100991999999999999999999
0029029350999991926041406004+62233+025733FM-12+009499999V0203201N003119999999N0000001N9-00891+99999100081ADDGF100991999999999999999999
0029029350999991926041413004+62233+025733FM-12+009499999V0202701N005119999999N0000001N9+00221+99999100041ADDGF104991999999999999999999
0029029350999991926041420004+62233+025733FM-12+009499999V0209991C000019999999N0000001N9-00171+99999100041ADDGF108991999999999999999999
0029029350999991926041506004+62233+025733FM-12+009499999V0209991C000019999999N0000001N9-00781+99999100231ADDGF100991999999999999999999
0029029350999991926041513004+62233+025733FM-12+009499999V0209991C000019999999N0000001N9+00171+99999100271ADDGF104991999999999999999999
0035029350999991926041520004+62233+025733FM-12+009499999V0201401N002119999999N0000001N9-00171+99999100281ADDGF108991999999999999999999MW1701
0035029350999991926041606004+62233+025733FM-12+009499999V0201401N006219999999N0000001N9-00331+99999099711ADDGF108991999999999999999999MW1721
0035029350999991926041613004+62233+025733FM-12+009499999V0201401N006219999999N0000001N9-00221+99999099541ADDGF108991999999999999999999MW1601
0029029350999991926041620004+62233+025733FM-12+009499999V0201401N004119999999N0000001N9-00221+99999099431ADDGF108991999999999999999999
0029029350999991926041706004+62233+025733FM-12+009499999V0209991C000019999999N0000001N9+00001+99999099141ADDGF108991999999999999999999
0029029350999991926041713004+62233+025733FM-12+009499999V0209991C000019999999N0000001N9+00441+99999099321ADDGF108991999999999999999999
0029029350999991926041720004+62233+025733FM-12+009499999V0202901N001019999999N0000001N9+00221+99999099301ADDGF108991999999999999999999
0029029350999991926041806004+62233+025733FM-12+009499999V0200501N003119999999N0000001N9+00061+99999099421ADDGF108991999999999999999999
0029029350999991926041813004+62233+025733FM-12+009499999V0200501N006219999999N0000001N9+00441+99999099161ADDGF108991999999999999999999
0029029350999991926041820004+62233+025733FM-12+009499999V0209991C000019999999N0000001N9+00221+99999099221ADDGF100991999999999999999999
0029029350999991926041906004+62233+025733FM-12+009499999V0201401N002119999999N0000001N9+00061+99999098991ADDGF108991999999999999999999
0029029350999991926041913004+62233+025733FM-12+009499999V0201101N004119999999N0000001N9+00221+99999098821ADDGF108991999999999999999999
0029029350999991926041920004+62233+025733FM-12+009499999V0209991C000019999999N0000001N9+00061+99999098711ADDGF108991999999999999999999
0029029350999991926042006004+62233+025733FM-12+009499999V0209991C000019999999N0000001N9+00111+99999098871ADDGF108991999999999999999999
0029029350999991926042013004+62233+025733FM-12+009499999V0202001N001019999999N0000001N9+00721+99999099101ADDGF100991999999999999999999
0029029350999991926042020004+62233+025733FM-12+009499999V0209991C000019999999N0000001N9+00061+99999099221ADDGF100991999999999999999999
0029029350999991926042106004+62233+025733FM-12+009499999V0209991C000019999999N0000001N9-00061+99999099281ADDGF108991999999999999999999
0029029350999991926042113004+62233+025733FM-12+009499999V0209991C000019999999N0000001N9+00671+99999099321ADDGF108991999999999999999999
0029029350999991926042120004+62233+025733FM-12+009499999V0201401N002119999999N0000001N9+00441+99999099321ADDGF108991999999999999999999
0029029350999991926042206004+62233+025733FM-12+009499999V0201401N002119999999N0000001N9+00281+99999099141ADDGF108991999999999999999999
0035029350999991926042213004+62233+025733FM-12+009499999V0201401N004119999999N0000001N9+00441+99999098981ADDGF108991999999999999999999MW1601
0035029350999991926042220004+62233+025733FM-12+009499999V0201401N005119999999N0000001N9+00221+99999099601ADDGF108991999999999999999999MW1601
0029029350999991926042306004+62233+025733FM-12+009499999V0209991C000019999999N0000001N9+00171+99999100081ADDGF108991999999999999999999
0029029350999991926042313004+62233+025733FM-12+009499999V0209991C000019999999N0000001N9+00281+99999100151ADDGF108991999999999999999999
0029029350999991926042320004+62233+025733FM-12+009499999V0209991C000019999999N0000001N9+00221+99999100321ADDGF108991999999999999999999
0029029350999991926042406004+62233+025733FM-12+009499999V0203201N003119999999N0000001N9+00171+99999100621ADDGF108991999999999999999999
0029029350999991926042413004+62233+025733FM-12+009499999V0202701N004119999999N0000001N9+00331+99999100941ADDGF108991999999999999999999
0029029350999991926042420004+62233+025733FM-12+009499999V0203201N004119999999N0000001N9+00281+99999101141ADDGF108991999999999999999999
0029029350999991926042506004+62233+025733FM-12+009499999V0203201N005119999999N0000001N9+00281+99999101381ADDGF108991999999999999999999
0029029350999991926042513004+62233+025733FM-12+009499999V0203201N003119999999N0000001N9+00671+99999101601ADDGF108991999999999999999999
0029029350999991926042520004+62233+025733FM-12+009499999V0209991C000019999999N0000001N9+00391+99999101631ADDGF108991999999999999999999
0029029350999991926042606004+62233+025733FM-12+009499999V0203601N003119999999N0000001N9+00221+99999101781ADDGF100991999999999999999999
0029029350999991926042613004+62233+025733FM-12+009499999V0200501N003119999999N0000001N9+00891+99999101781ADDGF100991999999999999999999
0029029350999991926042620004+62233+025733FM-12+009499999V0209991C000019999999N0000001N9+00441+99999101801ADDGF100991999999999999999999
0029029350999991926042706004+62233+025733FM-12+009499999V0200501N003119999999N0000001N9+00171+99999102031ADDGF100991999999999999999999
0029029350999991926042713004+62233+025733FM-12+009499999V0203601N004119999999N0000001N9+01061+99999102001ADDGF100991999999999999999999
0029029350999991926042720004+62233+025733FM-12+009499999V0209991C000019999999N0000001N9+00391+99999102021ADDGF100991999999999999999999
0029029350999991926042806004+62233+025733FM-12+009499999V0209991C000019999999N0000001N9+00001+99999102071ADDGF102991999999999999999999
0029029350999991926042813004+62233+025733FM-12+009499999V0209991C000019999999N0000001N9+00941+99999101881ADDGF100991999999999999999999
0029029350999991926042820004+62233+025733FM-12+009499999V0209991C000019999999N0000001N9+00281+99999101641ADDGF100991999999999999999999
0029029350999991926042906004+62233+025733FM-12+009499999V0209991C000019999999N0000001N9-00061+99999101421ADDGF100991999999999999999999
0029029350999991926042913004+62233+025733FM-12+009499999V0201801N002119999999N0000001N9+01111+99999101231ADDGF100991999999999999999999
0029029350999991926042920004+62233+025733FM-12+009499999V0201801N002119999999N0000001N9+00441+99999101021ADDGF100991999999999999999999
0029029350999991926043006004+62233+025733FM-12+009499999V0209991C000019999999N0000001N9+00111+99999100991ADDGF100991999999999999999999
0029029350999991926043013004+62233+025733FM-12+009499999V0201401N003119999999N0000001N9+01221+99999100871ADDGF102991999999999999999999
0029029350999991926043020004+62233+025733FM-12+009499999V0209991C000019999999N0000001N9+00611+99999100711ADDGF108991999999999999999999
0046029350999991926050106004+62233+025733FM-12+009499999V0203401N002119999999N0000001N9+00391+99999100471ADDAJ100009199999999GF106991999999999999999999
0029029350999991926050113004+62233+025733FM-12+009499999V0200501N005119999999N0000001N9+01171+99999100341ADDGF102991999999999999999999
0029029350999991926050120004+62233+025733FM-12+009499999V0200501N002119999999N0000001N9+00721+99999100301ADDGF106991999999999999999999
0046029350999991926050206004+62233+025733FM-12+009499999V0203401N005119999999N0000001N9+00391+99999100311ADDAJ100009199999999GF104991999999999999999999
0029029350999991926050213004+62233+025733FM-12+009499999V0200501N005119999999N0000001N9+00721+99999100361ADDGF108991999999999999999999
0029029350999991926050220004+62233+025733FM-12+009499999V0200501N005119999999N0000001N9+00391+99999100351ADDGF108991999999999999999999
0046029350999991926050306004+62233+025733FM-12+009499999V0200501N007219999999N0000001N9+00171+99999100101ADDAJ100009199999999GF108991999999999999999999
0029029350999991926050313004+62233+025733FM-12+009499999V0200201N008719999999N0000001N9+00331+99999099871ADDGF104991999999999999999999
0029029350999991926050320004+62233+025733FM-12+009499999V0200201N005119999999N0000001N9+00221+99999099801ADDGF100991999999999999999999
0046029350999991926050406004+62233+025733FM-12+009499999V0200501N006219999999N0000001N9-00061+99999100281ADDAJ100009199999999GF102991999999999999999999
0029029350999991926050413004+62233+025733FM-12+009499999V0200501N004119999999N0000001N9+00391+99999100471ADDGF100991999999999999999999
0029029350999991926050420004+62233+025733FM-12+009499999V0200701N005119999999N0000001N9-00061+99999100661ADDGF102991999999999999999999
0046029350999991926050506004+62233+025733FM-12+009499999V0200701N004119999999N0000001N9-00221+99999100941ADDAJ100009199999999GF100991999999999999999999
0029029350999991926050513004+62233+025733FM-12+009499999V0201401N005119999999N0000001N9+00221+99999100901ADDGF100991999999999999999999
0029029350999991926050520004+62233+025733FM-12+009499999V0201101N003119999999N0000001N9-00061+99999100821ADDGF108991999999999999999999
0046029350999991926050606004+62233+025733FM-12+009499999V0201401N003119999999N0000001N9-00171+99999100801ADDAJ100009199999999GF108991999999999999999999
0029029350999991926050613004+62233+025733FM-12+009499999V0200901N006219999999N0000001N9+00441+99999100621ADDGF108991999999999999999999
0029029350999991926050620004+62233+025733FM-12+009499999V0200901N002119999999N0000001N9+00061+99999100481ADDGF108991999999999999999999
0046029350999991926050706004+62233+025733FM-12+009499999V0201401N004119999999N0000001N9+00001+99999100341ADDAJ100009199999999GF108991999999999999999999
0035029350999991926050713004+62233+025733FM-12+009499999V0201101N003119999999N0000001N9+00111+99999100311ADDGF108991999999999999999999MW1701
0035029350999991926050720004+62233+025733FM-12+009499999V0201101N002119999999N0000001N9-00061+99999100261ADDGF108991999999999999999999MW1601
0052029350999991926050806004+62233+025733FM-12+009499999V0209991C000019999999N0000001N9+00111+99999100181ADDAJ100009199999999GF108991999999999999999999MW1701
0035029350999991926050813004+62233+025733FM-12+009499999V0201101N003119999999N0000001N9+00391+99999100151ADDGF108991999999999999999999MW1601
0029029350999991926050820004+62233+025733FM-12+009499999V0201401N001019999999N0000001N9+00281+99999100151ADDGF108991999999999999999999
0052029350999991926050906004+62233+025733FM-12+009499999V0201401N001019999999N0000001N9+00221+99999099881ADDAJ100009199999999GF108991999999999999999999MW1601
0029029350999991926050913004+62233+025733FM-12+009499999V0200901N005119999999N0000001N9+00611+99999099721ADDGF108991999999999999999999
0029029350999991926050920004+62233+025733FM-12+009499999V0209991C000019999999N0000001N9+00501+99999099541ADDGF108991999999999999999999
0046029350999991926051006004+62233+025733FM-12+009499999V0200501N005119999999N0000001N9+00501+99999099221ADDAJ100009199999999GF108991999999999999999999
0029029350999991926051013004+62233+025733FM-12+009499999V0200901N005119999999N0000001N9+00671+99999099241ADDGF108991999999999999999999
0029029350999991926051020004+62233+025733FM-12+009499999V0201401N002119999999N0000001N9+00441+99999099391ADDGF108991999999999999999999
0046029350999991926051106004+62233+025733FM-12+009499999V0200901N003119999999N0000001N9+00441+99999099381ADDAJ100009199999999GF108991999999999999999999
0029029350999991926051113004+62233+025733FM-12+009499999V0200901N003119999999N0000001N9+00561+99999099391ADDGF108991999999999999999999
0035029350999991926051120004+62233+025733FM-12+009499999V0200901N001019999999N0000001N9+00441+99999099381ADDGF108991999999999999999999MW1621
0046029350999991926051206004+62233+025733FM-12+009499999V0202301N003119999999N0000001N9+00501+99999099421ADDAJ100009199999999GF108991999999999999999999
0029029350999991926051213004+62233+025733FM-12+009499999V0202301N005119999999N0000001N9+01061+99999099641ADDGF106991999999999999999999
0029029350999991926051220004+62233+025733FM-12+009499999V0202001N001019999999N0000001N9+00611+99999099831ADDGF102991999999999999999999
0046029350999991926051306004+62233+025733FM-12+009499999V0201601N007219999999N0000001N9+00671+99999099801ADDAJ100009199999999GF106991999999999999999999
0029029350999991926051313004+62233+025733FM-12+009499999V0202001N005119999999N0000001N9+00941+99999099631ADDGF108991999999999999999999
0029029350999991926051320004+62233+025733FM-12+009499999V0202001N004119999999N0000001N9+00831+99999099861ADDGF102991999999999999999999
0046029350999991926051406004+62233+025733FM-12+009499999V0209991C000019999999N0000001N9+00441+99999099921ADDAJ100009199999999GF102991999999999999999999
0035029350999991926051413004+62233+025733FM-12+009499999V0209991C000019999999N0000001N9+00831+99999099921ADDGF108991999999999999999999MW1621
0029029350999991926051420004+62233+025733FM-12+009499999V0209991C000019999999N0000001N9+00671+99999099761ADDGF108991999999999999999999
0046029350999991926051506004+62233+025733FM-12+009499999V0202001N003119999999N0000001N9+00781+99999099791ADDAJ100009199999999GF108991999999999999999999
0029029350999991926051513004+62233+025733FM-12+009499999V0202301N006219999999N0000001N9+01331+99999099881ADDGF104991999999999999999999
0029029350999991926051520004+62233+025733FM-12+009499999V0202301N003119999999N0000001N9+00941+99999099951ADDGF104991999999999999999999
0046029350999991926051606004+62233+025733FM-12+009499999V0209991C000019999999N0000001N9+00561+99999100081ADDAJ100009199999999GF108991999999999999999999
0029029350999991926051613004+62233+025733FM-12+009499999V0209991C000019999999N0000001N9+01391+99999099921ADDGF108991999999999999999999
0029029350999991926051620004+62233+025733FM-12+009499999V0209991C000019999999N0000001N9+00891+99999099881ADDGF108991999999999999999999
0052029350999991926051706004+62233+025733FM-12+009499999V0209991C000019999999N0000001N9+00671+99999099761ADDAJ100009199999999GF108991999999999999999999MW1621
0035029350999991926051713004+62233+025733FM-12+009499999V0200501N004119999999N0000001N9+00611+99999099541ADDGF108991999999999999999999MW1621
0029029350999991926051720004+62233+025733FM-12+009499999V0200701N002119999999N0000001N9+00611+99999099341ADDGF108991999999999999999999
0046029350999991926051806004+62233+025733FM-12+009499999V0209991C000019999999N0000001N9+01001+99999099391ADDAJ100009199999999GF104991999999999999999999
0029029350999991926051813004+62233+025733FM-12+009499999V0202301N007219999999N0000001N9+02281+99999099721ADDGF100991999999999999999999
0029029350999991926051820004+62233+025733FM-12+009499999V0202501N003119999999N0000001N9+01721+99999100041ADDGF106991999999999999999999
0046029350999991926051906004+62233+025733FM-12+009499999V0203401N002119999999N0000001N9+01001+99999100421ADDAJ100009199999999GF106991999999999999999999
0029029350999991926051913004+62233+025733FM-12+009499999V0203601N004119999999N0000001N9+01831+99999100551ADDGF100991999999999999999999
0029029350999991926051920004+62233+025733FM-12+009499999V0203601N003119999999N0000001N9+01171+99999100841ADDGF106991999999999999999999
0046029350999991926052006004+62233+025733FM-12+009499999V0200501N004119999999N0000001N9+00891+99999100981ADDAJ100009199999999GF104991999999999999999999
0029029350999991926052013004+62233+025733FM-12+009499999V0200501N006219999999N0000001N9+01391+99999101041ADDGF108991999999999999999999
0029029350999991926052020004+62233+025733FM-12+009499999V0200501N003119999999N0000001N9+01221+99999101021ADDGF102991999999999999999999
0052029350999991926052106004+62233+025733FM-12+009499999V0200501N002119999999N0000001N9+00941+99999101021ADDAJ100009199999999GF108991999999999999999999MW1601
0035029350999991926052113004+62233+025733FM-12+009499999V0201401N002119999999N0000001N9+01331+99999100761ADDGF108991999999999999999999MW1621
0029029350999991926052120004+62233+025733FM-12+009499999V0209991C000019999999N0000001N9+00941+99999100751ADDGF108991999999999999999999
0046029350999991926052206004+62233+025733FM-12+009499999V0209991C000019999999N0000001N9+01111+99999100721ADDAJ100009199999999GF108991999999999999999999
0029029350999991926052213004+62233+025733FM-12+009499999V0209991C000019999999N0000001N9+01561+99999100741ADDGF108991999999999999999999
0029029350999991926052220004+62233+025733FM-12+009499999V0209991C000019999999N0000001N9+01221+99999100631ADDGF100991999999999999999999
0046029350999991926052306004+62233+025733FM-12+009499999V0203401N004119999999N0000001N9+00831+99999100561ADDAJ100009199999999GF108991999999999999999999
0029029350999991926052313004+62233+025733FM-12+009499999V0209991C000019999999N0000001N9+01781+99999100401ADDGF108991999999999999999999
0029029350999991926052320004+62233+025733FM-12+009499999V0209991C000019999999N0000001N9+01391+99999100191ADDGF108991999999999999999999
0046029350999991926052406004+62233+025733FM-12+009499999V0209991C000019999999N0000001N9+01221+99999099721ADDAJ100009199999999GF108991999999999999999999
0029029350999991926052413004+62233+025733FM-12+009499999V0203401N003119999999N0000001N9+01441+99999099821ADDGF108991999999999999999999
0029029350999991926052420004+62233+025733FM-12+009499999V0203401N004119999999N0000001N9+01171+99999099911ADDGF108991999999999999999999
0046029350999991926052506004+62233+025733FM-12+009499999V0203601N005119999999N0000001N9+00781+99999999999ADDAJ100009199999999GF108991999999999999999999
0029029350999991926052513004+62233+025733FM-12+009499999V0203401N006219999999N0000001N9+01221+99999100151ADDGF100991999999999999999999
0029029350999991926052520004+62233+025733FM-12+009499999V0203201N004119999999N0000001N9+00721+99999100441ADDGF100991999999999999999999
0046029350999991926052606004+62233+025733FM-12+009499999V0209991C000019999999N0000001N9+00391+99999100621ADDAJ100009199999999GF108991999999999999999999
0029029350999991926052613004+62233+025733FM-12+009499999V0209991C000019999999N0000001N9+00501+99999100461ADDGF108991999999999999999999
0029029350999991926052620004+62233+025733FM-12+009499999V0203201N001019999999N0000001N9+00501+99999100521ADDGF100991999999999999999999
0046029350999991926052706004+62233+025733FM-12+009499999V0201401N003119999999N0000001N9+00441+99999100591ADDAJ100009199999999GF102991999999999999999999
0035029350999991926052713004+62233+025733FM-12+009499999V0202301N003119999999N0000001N9+00831+99999100501ADDGF108991999999999999999999MW1601
0035029350999991926052720004+62233+025733FM-12+009499999V0209991C000019999999N0000001N9+00501+99999100321ADDGF108991999999999999999999MW1601
0046029350999991926052806004+62233+025733FM-12+009499999V0209991C000019999999N0000001N9+00331+99999100391ADDAJ100009199999999GF108991999999999999999999
0029029350999991926052813004+62233+025733FM-12+009499999V0203601N002119999999N0000001N9+00331+99999100541ADDGF108991999999999999999999
0029029350999991926052820004+62233+025733FM-12+009499999V0200501N004119999999N0000001N9+00331+99999100511ADDGF108991999999999999999999
0046029350999991926052906004+62233+025733FM-12+009499999V0200501N005119999999N0000001N9+00501+99999100481ADDAJ100009199999999GF108991999999999999999999
0029029350999991926052913004+62233+025733FM-12+009499999V0200901N005119999999N0000001N9+00941+99999100471ADDGF108991999999999999999999
0029029350999991926052920004+62233+025733FM-12+009499999V0201401N003119999999N0000001N9+01001+99999100321ADDGF103991999999999999999999
0046029350999991926053006004+62233+025733FM-12+009499999V0201101N003119999999N0000001N9+01061+99999100201ADDAJ100009199999999GF100991999999999999999999
0029029350999991926053013004+62233+025733FM-12+009499999V0201401N006219999999N0000001N9+01781+99999099991ADDGF108991999999999999999999
0029029350999991926053020004+62233+025733FM-12+009499999V0201401N005119999999N0000001N9+01281+99999099801ADDGF108991999999999999999999
0046029350999991926053106004+62233+025733FM-12+009499999V0201601N004119999999N0000001N9+01331+99999099511ADDAJ100009199999999GF108991999999999999999999
0029029350999991926053113004+62233+025733FM-12+009499999V0201801N004119999999N0000001N9+01721+99999099541ADDGF108991999999999999999999
0029029350999991926053120004+62233+025733FM-12+009499999V0201801N001019999999N0000001N9+01501+99999099541ADDGF102991999999999999999999
0046029350999991926060106004+62233+025733FM-12+009499999V0201801N005119999999N0000001N9+01501+99999099621ADDAJ100009199999999GF104991999999999999999999
0029029350999991926060113004+62233+025733FM-12+009499999V0202001N006219999999N0000001N9+02001+99999099751ADDGF106991999999999999999999
0029029350999991926060120004+62233+025733FM-12+009499999V0209991C000019999999N0000001N9+01611+99999099721ADDGF102991999999999999999999
0046029350999991926060206004+62233+025733FM-12+009499999V0201601N006219999999N0000001N9+01781+99999099381ADDAJ100009199999999GF100991999999999999999999
0029029350999991926060213004+62233+025733FM-12+009499999V0202301N007219999999N0000001N9+01561+99999099841ADDGF108991999999999999999999
0029029350999991926060220004+62233+025733FM-12+009499999V0209991C000019999999N0000001N9+01331+99999100221ADDGF100991999999999999999999
0046029350999991926060306004+62233+025733FM-12+009499999V0209991C000019999999N0000001N9+01221+99999100501ADDAJ100009199999999GF100991999999999999999999
0029029350999991926060313004+62233+025733FM-12+009499999V0201601N002119999999N0000001N9+02061+99999100501ADDGF102991999999999999999999
0029029350999991926060320004+62233+025733FM-12+009499999V0202001N003119999999N0000001N9+01561+99999100381ADDGF106991999999999999999999
0046029350999991926060406004+62233+025733FM-12+009499999V0209991C000019999999N0000001N9+01441+99999100281ADDAJ100009199999999GF106991999999999999999999
0035029350999991926060413004+62233+025733FM-12+009499999V0209991C000019999999N0000001N9+01891+99999100281ADDGF106991999999999999999999MW1621
0029029350999991926060420004+62233+025733FM-12+009499999V0200201N003119999999N0000001N9+01561+99999100421ADDGF108991999999999999999999
0046029350999991926060506004+62233+025733FM-12+009499999V0200501N003119999999N0000001N9+01561+99999100561ADDAJ100009199999999GF104991999999999999999999
0029029350999991926060513004+62233+025733FM-12+009499999V0209991C000019999999N0000001N9+02171+99999100581ADDGF104991999999999999999999
0029029350999991926060520004+62233+025733FM-12+009499999V0209991C000019999999N0000001N9+01781+99999100631ADDGF106991999999999999999999
0046029350999991926060606004+62233+025733FM-12+009499999V0209991C000019999999N0000001N9+01671+99999100701ADDAJ100009199999999GF106991999999999999999999
0029029350999991926060613004+62233+025733FM-12+009499999V0209991C000019999999N0000001N9+02061+99999100641ADDGF106991999999999999999999
0029029350999991926060620004+62233+025733FM-12+009499999V0209991C000019999999N0000001N9+01781+99999100561ADDGF102991999999999999999999
0046029350999991926060706004+62233+025733FM-12+009499999V0209991C000019999999N0000001N9+01561+99999100581ADDAJ100009199999999GF106991999999999999999999
0029029350999991926060713004+62233+025733FM-12+009499999V0209991C000019999999N0000001N9+02221+99999100351ADDGF108991999999999999999999
0029029350999991926060720004+62233+025733FM-12+009499999V0209991C000019999999N0000001N9+01501+99999100111ADDGF102991999999999999999999
0046029350999991926060806004+62233+025733FM-12+009499999V0209991C000019999999N0000001N9+01721+99999099761ADDAJ100009199999999GF100991999999999999999999
0029029350999991926060813004+62233+025733FM-12+009499999V0203601N004119999999N0000001N9+02281+99999099591ADDGF104991999999999999999999
0029029350999991926060820004+62233+025733FM-12+009499999V0200501N006219999999N0000001N9+01441+99999099881ADDGF108991999999999999999999
0046029350999991926060906004+62233+025733FM-12+009499999V0200501N006219999999N0000001N9+00611+99999100351ADDAJ100009199999999GF108991999999999999999999
0029029350999991926060913004+62233+025733FM-12+009499999V0200501N006219999999N0000001N9+01111+99999100471ADDGF100991999999999999999999
0029029350999991926060920004+62233+025733FM-12+009499999V0200201N002119999999N0000001N9+00891+99999100561ADDGF100991999999999999999999
0046029350999991926061006004+62233+025733FM-12+009499999V0200501N003119999999N0000001N9+00721+99999100761ADDAJ100009199999999GF100991999999999999999999
0029029350999991926061013004+62233+025733FM-12+009499999V0200501N004119999999N0000001N9+01281+99999100741ADDGF100991999999999999999999
0029029350999991926061020004+62233+025733FM-12+009499999V0201101N001019999999N0000001N9+01111+99999100631ADDGF100991999999999999999999
0046029350999991926061106004+62233+025733FM-12+009499999V0201101N003119999999N0000001N9+00941+99999100861ADDAJ100009199999999GF100991999999999999999999
0029029350999991926061113004+62233+025733FM-12+009499999V0201401N003119999999N0000001N9+01441+99999100711ADDGF102991999999999999999999
0029029350999991926061120004+62233+025733FM-12+009499999V0201401N001019999999N0000001N9+01061+99999100671ADDGF100991999999999999999999
0046029350999991926061206004+62233+025733FM-12+009499999V0201401N002119999999N0000001N9+01061+99999100861ADDAJ100009199999999GF100991999999999999999999
0029029350999991926061213004+62233+025733FM-12+009499999V0201801N003119999999N0000001N9+01721+99999100711ADDGF100991999999999999999999
0029029350999991926061220004+62233+025733FM-12+009499999V0202001N003119999999N0000001N9+01221+99999100681ADDGF100991999999999999999999
0046029350999991926061306004+62233+025733FM-12+009499999V0202701N004119999999N0000001N9+01441+99999100881ADDAJ100009199999999GF100991999999999999999999
0029029350999991926061313004+62233+025733FM-12+009499999V0203401N003119999999N0000001N9+02061+99999100781ADDGF102991999999999999999999
0029029350999991926061320004+62233+025733FM-12+009499999V0202501N004119999999N0000001N9+01611+99999100601ADDGF100991999999999999999999
0046029350999991926061406004+62233+025733FM-12+009499999V0203401N005119999999N0000001N9+01501+99999100681ADDAJ100009199999999GF102991999999999999999999
0029029350999991926061413004+62233+025733FM-12+009499999V0209991C000019999999N0000001N9+02221+99999100401ADDGF104991999999999999999999
0029029350999991926061420004+62233+025733FM-12+009499999V0209991C000019999999N0000001N9+01561+99999100191ADDGF100991999999999999999999
0046029350999991926061506004+62233+025733FM-12+009499999V0203601N002119999999N0000001N9+01441+99999100141ADDAJ100009199999999GF104991999999999999999999
0029029350999991926061513004+62233+025733FM-12+009499999V0209991C000019999999N0000001N9+02061+99999099761ADDGF106991999999999999999999
0029029350999991926061520004+62233+025733FM-12+009499999V0203201N003119999999N0000001N9+01671+99999099591ADDGF108991999999999999999999
0046029350999991926061606004+62233+025733FM-12+009499999V0203601N005119999999N0000001N9+01501+99999099221ADDAJ100009199999999GF102991999999999999999999
0029029350999991926061613004+62233+025733FM-12+009499999V0200501N006219999999N0000001N9+01831+99999099041ADDGF106991999999999999999999
0029029350999991926061620004+62233+025733FM-12+009499999V0203601N006219999999N0000001N9+01281+99999099141ADDGF108991999999999999999999
0046029350999991926061706004+62233+025733FM-12+009499999V0203601N005119999999N0000001N9+00831+99999099111ADDAJ100009199999999GF108991999999999999999999
0029029350999991926061713004+62233+025733FM-12+009499999V0203401N006219999999N0000001N9+00891+99999099151ADDGF108991999999999999999999
0029029350999991926061720004+62233+025733FM-12+009499999V0203601N006219999999N0000001N9+00671+99999099121ADDGF108991999999999999999999
0046029350999991926061806004+62233+025733FM-12+009499999V0203401N005119999999N0000001N9+00721+99999098901ADDAJ100009199999999GF108991999999999999999999
0035029350999991926061813004+62233+025733FM-12+009499999V0203401N007219999999N0000001N9+00831+99999098761ADDGF108991999999999999999999MW1601
0029029350999991926061820004+62233+025733FM-12+009499999V0203201N004119999999N0000001N9+00611+99999098861ADDGF106991999999999999999999
0052029350999991926061906004+62233+025733FM-12+009499999V0202901N006219999999N0000001N9+00441+99999098881ADDAJ100009199999999GF108991999999999999999999MW1601
0029029350999991926061913004+62233+025733FM-12+009499999V0202701N007219999999N0000001N9+00941+99999099031ADDGF108991999999999999999999
0029029350999991926061920004+62233+025733FM-12+009499999V0202301N007219999999N0000001N9+01111+99999099001ADDGF102991999999999999999999
0046029350999991926062006004+62233+025733FM-12+009499999V0202301N004119999999N0000001N9+01061+99999099081ADDAJ100009199999999GF100991999999999999999999
0029029350999991926062013004+62233+025733FM-12+009499999V0202301N007219999999N0000001N9+01671+99999099061ADDGF106991999999999999999999
0029029350999991926062020004+62233+025733FM-12+009499999V0209991C000019999999N0000001N9+01061+99999099121ADDGF108991999999999999999999
0046029350999991926062106004+62233+025733FM-12+009499999V0203601N003119999999N0000001N9+01171+99999099161ADDAJ100009199999999GF100991999999999999999999
0029029350999991926062113004+62233+025733FM-12+009499999V0209991C000019999999N0000001N9+01561+99999099221ADDGF108991999999999999999999
0029029350999991926062120004+62233+025733FM-12+009499999V0209991C000019999999N0000001N9+01281+99999099231ADDGF108991999999999999999999
0046029350999991926062206004+62233+025733FM-12+009499999V0202301N002119999999N0000001N9+01221+99999099031ADDAJ100009199999999GF104991999999999999999999
0029029350999991926062213004+62233+025733FM-12+009499999V0201401N003119999999N0000001N9+01221+99999099001ADDGF108991999999999999999999
0029029350999991926062220004+62233+025733FM-12+009499999V0202301N003119999999N0000001N9+01171+99999099101ADDGF102991999999999999999999
0046029350999991926062306004+62233+025733FM-12+009499999V0209991C000019999999N0000001N9+01171+99999098991ADDAJ100009199999999GF108991999999999999999999
0029029350999991926062313004+62233+025733FM-12+009499999V0201401N003119999999N0000001N9+01281+99999098861ADDGF108991999999999999999999
0029029350999991926062320004+62233+025733FM-12+009499999V0202001N004119999999N0000001N9+01331+99999099101ADDGF102991999999999999999999
0046029350999991926062406004+62233+025733FM-12+009499999V0202001N005119999999N0000001N9+01171+99999099421ADDAJ100009199999999GF108991999999999999999999
0029029350999991926062413004+62233+025733FM-12+009499999V0202001N006219999999N0000001N9+01781+99999099631ADDGF104991999999999999999999
0029029350999991926062420004+62233+025733FM-12+009499999V0209991C000019999999N0000001N9+01391+99999099841ADDGF102991999999999999999999
0046029350999991926062506004+62233+025733FM-12+009499999V0201801N004119999999N0000001N9+01221+99999100081ADDAJ100009199999999GF104991999999999999999999
0029029350999991926062513004+62233+025733FM-12+009499999V0202301N003119999999N0000001N9+01781+99999100261ADDGF106991999999999999999999
0029029350999991926062520004+62233+025733FM-12+009499999V0209991C000019999999N0000001N9+01561+99999100391ADDGF102991999999999999999999
0046029350999991926062606004+62233+025733FM-12+009499999V0209991C000019999999N0000001N9+01441+99999100621ADDAJ100009199999999GF108991999999999999999999
0035029350999991926062613004+62233+025733FM-12+009499999V0201401N002119999999N0000001N9+01891+99999100581ADDGF108991999999999999999999MW1621
0035029350999991926062620004+62233+025733FM-12+009499999V0200201N004119999999N0000001N9+01331+99999100551ADDGF108991999999999999999999MW1621
0046029350999991926062706004+62233+025733FM-12+009499999V0209991C000019999999N0000001N9+01441+99999100421ADDAJ100009199999999GF108991999999999999999999
0029029350999991926062713004+62233+025733FM-12+009499999V0209991C000019999999N0000001N9+01781+99999100231ADDGF108991999999999999999999
0029029350999991926062720004+62233+025733FM-12+009499999V0209991C000019999999N0000001N9+01831+99999100311ADDGF106991999999999999999999
0046029350999991926062806004+62233+025733FM-12+009499999V0209991C000019999999N0000001N9+01721+99999100421ADDAJ100009199999999GF108991999999999999999999
0029029350999991926062813004+62233+025733FM-12+009499999V0203401N005119999999N0000001N9+01611+99999100541ADDGF108991999999999999999999
0029029350999991926062820004+62233+025733FM-12+009499999V0209991C000019999999N0000001N9+01671+99999100641ADDGF108991999999999999999999
0052029350999991926062906004+62233+025733FM-12+009499999V0202901N005119999999N0000001N9+01331+99999100961ADDAJ100009199999999GF108991999999999999999999MW1601
0029029350999991926062913004+62233+025733FM-12+009499999V0209991C000019999999N0000001N9+01831+99999100951ADDGF104991999999999999999999
0029029350999991926062920004+62233+025733FM-12+009499999V0202701N002119999999N0000001N9+01671+99999100711ADDGF108991999999999999999999
0046029350999991926063006004+62233+025733FM-12+009499999V0209991C000019999999N0000001N9+01611+99999100821ADDAJ100009199999999GF100991999999999999999999
0029029350999991926063013004+62233+025733FM-12+009499999V0202701N003119999999N0000001N9+02171+99999100741ADDGF106991999999999999999999
0029029350999991926063020004+62233+025733FM-12+009499999V0202901N005119999999N0000001N9+01831+99999100671ADDGF106991999999999999999999
0046029350999991926070106004+62233+025733FM-12+009499999V0203601N005119999999N0000001N9+01611+99999101041ADDAJ100009199999999GF100991999999999999999999
0029029350999991926070113004+62233+025733FM-12+009499999V0203201N005119999999N0000001N9+02061+99999101151ADDGF104991999999999999999999
0029029350999991926070120004+62233+025733FM-12+009499999V0209991C000019999999N0000001N9+01671+99999101301ADDGF100991999999999999999999
0046029350999991926070206004+62233+025733FM-12+009499999V0209991C000019999999N0000001N9+01671+99999101501ADDAJ100009199999999GF100991999999999999999999
0029029350999991926070213004+62233+025733FM-12+009499999V0202301N005119999999N0000001N9+02281+99999101281ADDGF104991999999999999999999
0029029350999991926070220004+62233+025733FM-12+009499999V0203201N002119999999N0000001N9+01941+99999101081ADDGF102991999999999999999999
0046029350999991926070306004+62233+025733FM-12+009499999V0203201N003119999999N0000001N9+01671+99999101071ADDAJ100009199999999GF106991999999999999999999
0035029350999991926070313004+62233+025733FM-12+009499999V0209991C000019999999N0000001N9+01501+99999100801ADDGF108991999999999999999999MW1621
0029029350999991926070320004+62233+025733FM-12+009499999V0202701N002119999999N0000001N9+01611+99999100471ADDGF100991999999999999999999
0046029350999991926070406004+62233+025733FM-12+009499999V0203201N005119999999N0000001N9+01331+99999100401ADDAJ100009199999999GF106991999999999999999999
0029029350999991926070413004+62233+025733FM-12+009499999V0203401N004119999999N0000001N9+01561+99999100191ADDGF104991999999999999999999
0029029350999991926070420004+62233+025733FM-12+009499999V0203401N003119999999N0000001N9+01281+99999100261ADDGF104991999999999999999999
0046029350999991926070506004+62233+025733FM-12+009499999V0203601N005119999999N0000001N9+01221+99999100461ADDAJ100009199999999GF102991999999999999999999
0029029350999991926070513004+62233+025733FM-12+009499999V0203401N006219999999N0000001N9+01721+99999100401ADDGF102991999999999999999999
0029029350999991926070520004+62233+025733FM-12+009499999V0209991C000019999999N0000001N9+01221+99999100311ADDGF100991999999999999999999
0046029350999991926070606004+62233+025733FM-12+009499999V0209991C000019999999N0000001N9+01391+99999100191ADDAJ100009199999999GF100991999999999999999999
0029029350999991926070613004+62233+025733FM-12+009499999V0202701N005119999999N0000001N9+02171+99999099831ADDGF104991999999999999999999
0029029350999991926070620004+62233+025733FM-12+009499999V0203201N004119999999N0000001N9+01671+99999099761ADDGF100991999999999999999999
0046029350999991926070706004+62233+025733FM-12+009499999V0203201N003119999999N0000001N9+01441+99999099791ADDAJ100009199999999GF100991999999999999999999
0029029350999991926070713004+62233+025733FM-12+009499999V0203401N006219999999N0000001N9+01891+99999099991ADDGF100991999999999999999999
0029029350999991926070720004+62233+025733FM-12+009499999V0203601N003119999999N0000001N9+01391+99999100191ADDGF100991999999999999999999
0046029350999991926070806004+62233+025733FM-12+009499999V0203401N001019999999N0000001N9+01221+99999100551ADDAJ100009199999999GF100991999999999999999999
0029029350999991926070813004+62233+025733FM-12+009499999V0200501N003119999999N0000001N9+01671+99999100621ADDGF106991999999999999999999
0029029350999991926070820004+62233+025733FM-12+009499999V0209991C000019999999N0000001N9+01281+99999100581ADDGF100991999999999999999999
0046029350999991926070906004+62233+025733FM-12+009499999V0209991C000019999999N0000001N9+01331+99999100671ADDAJ100009199999999GF106991999999999999999999
0029029350999991926070913004+62233+025733FM-12+009499999V0202001N003119999999N0000001N9+02001+99999100541ADDGF102991999999999999999999
0029029350999991926070920004+62233+025733FM-12+009499999V0202001N005119999999N0000001N9+01611+99999100311ADDGF100991999999999999999999
0046029350999991926071006004+62233+025733FM-12+009499999V0202301N005119999999N0000001N9+01561+99999100201ADDAJ100009199999999GF100991999999999999999999
0029029350999991926071013004+62233+025733FM-12+009499999V0202301N007219999999N0000001N9+02221+99999999999ADDGF102991999999999999999999
0029029350999991926071020004+62233+025733FM-12+009499999V0209991C000019999999N0000001N9+01671+99999100031ADDGF106991999999999999999999
0046029350999991926071106004+62233+025733FM-12+009499999V0203601N003119999999N0000001N9+01671+99999100201ADDAJ100009199999999GF100991999999999999999999
0029029350999991926071113004+62233+025733FM-12+009499999V0201601N004119999999N0000001N9+02331+99999100101ADDGF104991999999999999999999
0029029350999991926071120004+62233+025733FM-12+009499999V0209991C000019999999N0000001N9+01501+99999100151ADDGF104991999999999999999999
0046029350999991926071206004+62233+025733FM-12+009499999V0202301N004119999999N0000001N9+01721+99999100061ADDAJ100009199999999GF104991999999999999999999
0035029350999991926071213004+62233+025733FM-12+009499999V0209991C000019999999N0000001N9+01831+99999099911ADDGF108991999999999999999999MW1621
0029029350999991926071220004+62233+025733FM-12+009499999V0202901N006219999999N0000001N9+01781+99999099861ADDGF106991999999999999999999
0046029350999991926071306004+62233+025733FM-12+009499999V0202301N004119999999N0000001N9+01501+99999100161ADDAJ100009199999999GF108991999999999999999999
0029029350999991926071313004+62233+025733FM-12+009499999V0202301N007219999999N0000001N9+02561+99999099841ADDGF102991999999999999999999
0035029350999991926071320004+62233+025733FM-12+009499999V0203201N005119999999N0000001N9+02331+99999099481ADDGF106991999999999999999999MW1601
0046029350999991926071406004+62233+025733FM-12+009499999V0203201N006219999999N0000001N9+01561+99999099831ADDAJ100009199999999GF100991999999999999999999
0029029350999991926071413004+62233+025733FM-12+009499999V0203201N006219999999N0000001N9+02111+99999099711ADDGF102991999999999999999999
0029029350999991926071420004+62233+025733FM-12+009499999V0202701N003119999999N0000001N9+01781+99999099081ADDGF106991999999999999999999
0046029350999991926071506004+62233+025733FM-12+009499999V0202901N005119999999N0000001N9+01281+99999098841ADDAJ100009199999999GF102991999999999999999999
0029029350999991926071513004+62233+025733FM-12+009499999V0203201N008719999999N0000001N9+01781+99999098981ADDGF104991999999999999999999
0029029350999991926071520004+62233+025733FM-12+009499999V0202901N004119999999N0000001N9+01221+99999099101ADDGF100991999999999999999999
0046029350999991926071606004+62233+025733FM-12+009499999V0203201N003119999999N0000001N9+01281+99999099501ADDAJ100009199999999GF102991999999999999999999
0035029350999991926071613004+62233+025733FM-12+009499999V0203401N002119999999N0000001N9+01331+99999099761ADDGF108991999999999999999999MW1621
0029029350999991926071620004+62233+025733FM-12+009499999V0203201N001019999999N0000001N9+01111+99999099901ADDGF104991999999999999999999
0052029350999991926071706004+62233+025733FM-12+009499999V0202901N002119999999N0000001N9+01001+99999100041ADDAJ100009199999999GF108991999999999999999999MW1601
0029029350999991926071713004+62233+025733FM-12+009499999V0202301N002119999999N0000001N9+01561+99999099911ADDGF104991999999999999999999
0029029350999991926071720004+62233+025733FM-12+009499999V0209991C000019999999N0000001N9+01281+99999099921ADDGF106991999999999999999999
0046029350999991926071806004+62233+025733FM-12+009499999V0202301N005119999999N0000001N9+01391+99999100221ADDAJ100009199999999GF100991999999999999999999
0029029350999991926071813004+62233+025733FM-12+009499999V0202701N004119999999N0000001N9+02001+99999100111ADDGF104991999999999999999999
0029029350999991926071820004+62233+025733FM-12+009499999V0203201N001019999999N0000001N9+01501+99999099941ADDGF102991999999999999999999
0046029350999991926071906004+62233+025733FM-12+009499999V0202301N002119999999N0000001N9+01611+99999099661ADDAJ100009199999999GF104991999999999999999999
0029029350999991926071913004+62233+025733FM-12+009499999V0201801N004119999999N0000001N9+02221+99999099501ADDGF102991999999999999999999
0029029350999991926071920004+62233+025733FM-12+009499999V0203201N004119999999N0000001N9+01891+99999099311ADDGF102991999999999999999999
0052029350999991926072006004+62233+025733FM-12+009499999V0209991C000019999999N0000001N9+01281+99999099361ADDAJ100009199999999GF108991999999999999999999MW1621
0029029350999991926072013004+62233+025733FM-12+009499999V0202301N002119999999N0000001N9+01441+99999099391ADDGF108991999999999999999999
0029029350999991926072020004+62233+025733FM-12+009499999V0209991C000019999999N0000001N9+01221+99999099221ADDGF100991999999999999999999
0046029350999991926072106004+62233+025733FM-12+009499999V0203601N004119999999N0000001N9+01331+99999099111ADDAJ100009199999999GF100991999999999999999999
0029029350999991926072113004+62233+025733FM-12+009499999V0200901N001019999999N0000001N9+02001+99999098961ADDGF100991999999999999999999
0029029350999991926072120004+62233+025733FM-12+009499999V0200501N001019999999N0000001N9+01561+99999098881ADDGF104991999999999999999999
0046029350999991926072206004+62233+025733FM-12+009499999V0200201N005119999999N0000001N9+01501+99999098981ADDAJ100009199999999GF102991999999999999999999
0029029350999991926072213004+62233+025733FM-12+009499999V0200701N005119999999N0000001N9+01941+99999099021ADDGF100991999999999999999999
0029029350999991926072220004+62233+025733FM-12+009499999V0200901N004119999999N0000001N9+01611+99999099101ADDGF100991999999999999999999
0046029350999991926072306004+62233+025733FM-12+009499999V0200901N005119999999N0000001N9+01331+99999099201ADDAJ100009199999999GF104991999999999999999999
0029029350999991926072313004+62233+025733FM-12+009499999V0201101N005119999999N0000001N9+02171+99999099301ADDGF100991999999999999999999
0029029350999991926072320004+62233+025733FM-12+009499999V0201101N004119999999N0000001N9+01781+99999099261ADDGF100991999999999999999999
0046029350999991926072406004+62233+025733FM-12+009499999V0201101N003119999999N0000001N9+01441+99999099121ADDAJ100009199999999GF106991999999999999999999
0029029350999991926072413004+62233+025733FM-12+009499999V0200501N002119999999N0000001N9+01941+99999099071ADDGF108991999999999999999999
0029029350999991926072420004+62233+025733FM-12+009499999V0209991C000019999999N0000001N9+01611+99999099081ADDGF108991999999999999999999
0046029350999991926072506004+62233+025733FM-12+009499999V0203201N002119999999N0000001N9+01501+99999099321ADDAJ100009199999999GF108991999999999999999999
0029029350999991926072513004+62233+025733FM-12+009499999V0200701N003119999999N0000001N9+02111+99999099191ADDGF104991999999999999999999
0029029350999991926072520004+62233+025733FM-12+009499999V0209991C000019999999N0000001N9+01611+99999099111ADDGF100991999999999999999999
0046029350999991926072606004+62233+025733FM-12+009499999V0200901N002119999999N0000001N9+01671+99999098921ADDAJ100009199999999GF102991999999999999999999
0029029350999991926072613004+62233+025733FM-12+009499999V0200701N005119999999N0000001N9+02281+99999098791ADDGF104991999999999999999999
0029029350999991926072620004+62233+025733FM-12+009499999V0209991C000019999999N0000001N9+01561+99999098781ADDGF102991999999999999999999
0046029350999991926072706004+62233+025733FM-12+009499999V0201601N002119999999N0000001N9+01671+99999098821ADDAJ100009199999999GF108991999999999999999999
0029029350999991926072713004+62233+025733FM-12+009499999V0200501N004119999999N0000001N9+02281+99999098841ADDGF102991999999999999999999
0029029350999991926072720004+62233+025733FM-12+009499999V0209991C000019999999N0000001N9+01781+99999098981ADDGF102991999999999999999999
0046029350999991926072806004+62233+025733FM-12+009499999V0200201N002119999999N0000001N9+01721+99999099271ADDAJ100009199999999GF100991999999999999999999
0029029350999991926072813004+62233+025733FM-12+009499999V0200201N003119999999N0000001N9+02061+99999099341ADDGF104991999999999999999999
0029029350999991926072820004+62233+025733FM-12+009499999V0209991C000019999999N0000001N9+01501+99999099551ADDGF102991999999999999999999
0046029350999991926072906004+62233+025733FM-12+009499999V0203401N003119999999N0000001N9+01501+99999099881ADDAJ100009199999999GF108991999999999999999999
0029029350999991926072913004+62233+025733FM-12+009499999V0200501N005119999999N0000001N9+02061+99999099741ADDGF104991999999999999999999
0029029350999991926072920004+62233+025733FM-12+009499999V0209991C000019999999N0000001N9+01441+99999099791ADDGF100991999999999999999999
0046029350999991926073006004+62233+025733FM-12+009499999V0203401N004119999999N0000001N9+01561+99999099801ADDAJ100009199999999GF100991999999999999999999
0029029350999991926073013004+62233+025733FM-12+009499999V0203601N005119999999N0000001N9+02281+99999099751ADDGF106991999999999999999999
0029029350999991926073020004+62233+025733FM-12+009499999V0203601N003119999999N0000001N9+01721+99999099871ADDGF103991999999999999999999
0046029350999991926073106004+62233+025733FM-12+009499999V0203601N003119999999N0000001N9+01501+99999099921ADDAJ100009199999999GF108991999999999999999999
0029029350999991926073113004+62233+025733FM-12+009499999V0200501N005119999999N0000001N9+01891+99999099791ADDGF100991999999999999999999
0029029350999991926073120004+62233+025733FM-12+009499999V0203601N003119999999N0000001N9+01441+99999099911ADDGF100991999999999999999999
0046029350999991926080106004+62233+025733FM-12+009499999V0203201N003119999999N0000001N9+01391+99999100021ADDAJ100009199999999GF100991999999999999999999
0029029350999991926080113004+62233+025733FM-12+009499999V0203601N006219999999N0000001N9+02061+99999100101ADDGF102991999999999999999999
0029029350999991926080120004+62233+025733FM-12+009499999V0203601N003119999999N0000001N9+01611+99999100181ADDGF100991999999999999999999
0046029350999991926080206004+62233+025733FM-12+009499999V0203401N003119999999N0000001N9+01281+99999100551ADDAJ100009199999999GF104991999999999999999999
0029029350999991926080213004+62233+025733FM-12+009499999V0203401N004119999999N0000001N9+01891+99999100441ADDGF104991999999999999999999
0029029350999991926080220004+62233+025733FM-12+009499999V0209991C000019999999N0000001N9+01441+99999100441ADDGF108991999999999999999999
0046029350999991926080306004+62233+025733FM-12+009499999V0203601N002119999999N0000001N9+01391+99999100421ADDAJ100009199999999GF108991999999999999999999
0029029350999991926080313004+62233+025733FM-12+009499999V0200201N002119999999N0000001N9+01561+99999100431ADDGF108991999999999999999999
0029029350999991926080320004+62233+025733FM-12+009499999V0203601N003119999999N0000001N9+01221+99999100501ADDGF108991999999999999999999
0046029350999991926080406004+62233+025733FM-12+009499999V0203601N002119999999N0000001N9+01221+99999100591ADDAJ100009199999999GF108991999999999999999999
0029029350999991926080413004+62233+025733FM-12+009499999V0203601N002119999999N0000001N9+01671+99999100631ADDGF104991999999999999999999
0029029350999991926080420004+62233+025733FM-12+009499999V0209991C000019999999N0000001N9+01061+99999100741ADDGF100991999999999999999999
0046029350999991926080506004+62233+025733FM-12+009499999V0209991C000019999999N0000001N9+01111+99999100841ADDAJ100009199999999GF102991999999999999999999
0029029350999991926080513004+62233+025733FM-12+009499999V0209991C000019999999N0000001N9+01941+99999100981ADDGF104991999999999999999999
0029029350999991926080520004+62233+025733FM-12+009499999V0200501N005119999999N0000001N9+01331+99999101111ADDGF100991999999999999999999
0046029350999991926080606004+62233+025733FM-12+009499999V0200501N002119999999N0000001N9+00941+99999101261ADDAJ100009199999999GF102991999999999999999999
0029029350999991926080613004+62233+025733FM-12+009499999V0200501N002119999999N0000001N9+01831+99999101111ADDGF100991999999999999999999
0029029350999991926080620004+62233+025733FM-12+009499999V0209991C000019999999N0000001N9+01281+99999100991ADDGF108991999999999999999999
0046029350999991926080706004+62233+025733FM-12+009499999V0200501N003119999999N0000001N9+01391+99999100821ADDAJ100009199999999GF106991999999999999999999
0029029350999991926080713004+62233+025733FM-12+009499999V0203601N003119999999N0000001N9+02061+99999100631ADDGF108991999999999999999999
0029029350999991926080720004+62233+025733FM-12+009499999V0209991C000019999999N0000001N9+01441+99999100461ADDGF106991999999999999999999
0046029350999991926080806004+62233+025733FM-12+009499999V0209991C000019999999N0000001N9+01281+99999100431ADDAJ100009199999999GF100991999999999999999999
0029029350999991926080813004+62233+025733FM-12+009499999V0200201N004119999999N0000001N9+02171+99999100321ADDGF100991999999999999999999
0029029350999991926080820004+62233+025733FM-12+009499999V0209991C000019999999N0000001N9+01281+99999100351ADDGF100991999999999999999999
0046029350999991926080906004+62233+025733FM-12+009499999V0200501N002119999999N0000001N9+01281+99999100481ADDAJ100009199999999GF100991999999999999999999
0029029350999991926080913004+62233+025733FM-12+009499999V0201801N002119999999N0000001N9+02221+99999100431ADDGF102991999999999999999999
0029029350999991926080920004+62233+025733FM-12+009499999V0203401N001019999999N0000001N9+01721+99999100441ADDGF108991999999999999999999
0046029350999991926081006004+62233+025733FM-12+009499999V0203401N002119999999N0000001N9+01221+99999100481ADDAJ100009199999999GF100991999999999999999999
0029029350999991926081013004+62233+025733FM-12+009499999V0203401N002119999999N0000001N9+02111+99999100421ADDGF102991999999999999999999
0029029350999991926081020004+62233+025733FM-12+009499999V0209991C000019999999N0000001N9+01561+99999100421ADDGF100991999999999999999999
0046029350999991926081106004+62233+025733FM-12+009499999V0200501N002119999999N0000001N9+01221+99999100441ADDAJ100009199999999GF100991999999999999999999
0029029350999991926081113004+62233+025733FM-12+009499999V0202701N003119999999N0000001N9+02331+99999100301ADDGF100991999999999999999999
0029029350999991926081120004+62233+025733FM-12+009499999V0203201N002119999999N0000001N9+01721+99999100151ADDGF100991999999999999999999
0046029350999991926081206004+62233+025733FM-12+009499999V0209991C000019999999N0000001N9+01501+99999100141ADDAJ100009199999999GF100991999999999999999999
0029029350999991926081213004+62233+025733FM-12+009499999V0201801N003119999999N0000001N9+02331+99999999999ADDGF100991999999999999999999
0029029350999991926081220004+62233+025733FM-12+009499999V0202301N002119999999N0000001N9+01721+99999099881ADDGF100991999999999999999999
0046029350999991926081306004+62233+025733FM-12+009499999V0202001N001019999999N0000001N9+01671+99999099791ADDAJ100009199999999GF100991999999999999999999
0029029350999991926081313004+62233+025733FM-12+009499999V0201601N004119999999N0000001N9+02331+99999099741ADDGF100991999999999999999999
0029029350999991926081320004+62233+025733FM-12+009499999V0202001N003119999999N0000001N9+01891+99999099711ADDGF106991999999999999999999
0046029350999991926081406004+62233+025733FM-12+009499999V0202001N001019999999N0000001N9+01561+99999099721ADDAJ100009199999999GF106991999999999999999999
0029029350999991926081413004+62233+025733FM-12+009499999V0202301N006219999999N0000001N9+02061+99999099751ADDGF104991999999999999999999
0029029350999991926081420004+62233+025733FM-12+009499999V0209991C000019999999N0000001N9+01281+99999099721ADDGF100991999999999999999999
0046029350999991926081506004+62233+025733FM-12+009499999V0201401N003119999999N0000001N9+01501+99999099631ADDAJ100009199999999GF108991999999999999999999
0029029350999991926081513004+62233+025733FM-12+009499999V0201401N005119999999N0000001N9+02061+99999099341ADDGF104991999999999999999999
0035029350999991926081520004+62233+025733FM-12+009499999V0202001N003119999999N0000001N9+01501+99999099071ADDGF108991999999999999999999MW1601
0046029350999991926081606004+62233+025733FM-12+009499999V0201101N003119999999N0000001N9+01391+99999098591ADDAJ100009199999999GF108991999999999999999999
0035029350999991926081613004+62233+025733FM-12+009499999V0201801N003119999999N0000001N9+01331+99999098481ADDGF108991999999999999999999MW1621
0029029350999991926081620004+62233+025733FM-12+009499999V0201801N002119999999N0000001N9+01221+99999098581ADDGF106991999999999999999999
0046029350999991926081706004+62233+025733FM-12+009499999V0203601N003119999999N0000001N9+01331+99999098911ADDAJ100009199999999GF108991999999999999999999
0029029350999991926081713004+62233+025733FM-12+009499999V0200501N005119999999N0000001N9+01781+99999099221ADDGF104991999999999999999999
0029029350999991926081720004+62233+025733FM-12+009499999V0203601N004119999999N0000001N9+01441+99999099541ADDGF102991999999999999999999
0046029350999991926081806004+62233+025733FM-12+009499999V0203601N003119999999N0000001N9+01111+99999099791ADDAJ100009199999999GF100991999999999999999999
0029029350999991926081813004+62233+025733FM-12+009499999V0203601N003119999999N0000001N9+01891+99999099801ADDGF100991999999999999999999
0029029350999991926081820004+62233+025733FM-12+009499999V0202301N004119999999N0000001N9+01501+99999099661ADDGF100991999999999999999999
0046029350999991926081906004+62233+025733FM-12+009499999V0202701N003119999999N0000001N9+01281+99999099621ADDAJ100009199999999GF104991999999999999999999
0029029350999991926081913004+62233+025733FM-12+009499999V0202301N003119999999N0000001N9+01831+99999099481ADDGF104991999999999999999999
0029029350999991926081920004+62233+025733FM-12+009499999V0202001N004119999999N0000001N9+01391+99999099431ADDGF106991999999999999999999
0046029350999991926082006004+62233+025733FM-12+009499999V0202301N004119999999N0000001N9+01501+99999099431ADDAJ100009199999999GF106991999999999999999999
0029029350999991926082013004+62233+025733FM-12+009499999V0202001N006219999999N0000001N9+01941+99999099241ADDGF104991999999999999999999
0029029350999991926082020004+62233+025733FM-12+009499999V0202001N005119999999N0000001N9+01501+99999099141ADDGF108991999999999999999999
0046029350999991926082106004+62233+025733FM-12+009499999V0202301N005119999999N0000001N9+01441+99999098981ADDAJ100009199999999GF108991999999999999999999
0029029350999991926082113004+62233+025733FM-12+009499999V0201801N006219999999N0000001N9+01671+99999098741ADDGF108991999999999999999999
0035029350999991926082120004+62233+025733FM-12+009499999V0201601N005119999999N0000001N9+01441+99999098181ADDGF108991999999999999999999MW1601
0052029350999991926082206004+62233+025733FM-12+009499999V0202501N008219999999N0000001N9+01331+99999096921ADDAJ100009199999999GF108991999999999999999999MW1641
0029029350999991926082213004+62233+025733FM-12+009499999V0202001N003119999999N0000001N9+01281+99999097231ADDGF104991999999999999999999
0029029350999991926082220004+62233+025733FM-12+009499999V0201801N003119999999N0000001N9+01331+99999097261ADDGF108991999999999999999999
0046029350999991926082306004+62233+025733FM-12+009499999V0209991C000019999999N0000001N9+01281+99999097301ADDAJ100009199999999GF108991999999999999999999
0035029350999991926082313004+62233+025733FM-12+009499999V0209991C000019999999N0000001N9+01781+99999097641ADDGF104991999999999999999999MW1601
0029029350999991926082320004+62233+025733FM-12+009499999V0203201N005119999999N0000001N9+01391+99999098031ADDGF108991999999999999999999
0046029350999991926082406004+62233+025733FM-12+009499999V0203201N008219999999N0000001N9+01001+99999098151ADDAJ100009199999999GF108991999999999999999999
0035029350999991926082413004+62233+025733FM-12+009499999V0203201N007219999999N0000001N9+01001+99999098101ADDGF108991999999999999999999MW1621
0029029350999991926082420004+62233+025733FM-12+009499999V0203201N007219999999N0000001N9+00941+99999098231ADDGF108991999999999999999999
0046029350999991926082506004+62233+025733FM-12+009499999V0203201N005119999999N0000001N9+01001+99999098311ADDAJ100009199999999GF108991999999999999999999
0029029350999991926082513004+62233+025733FM-12+009499999V0203201N007219999999N0000001N9+01441+99999098311ADDGF106991999999999999999999
0029029350999991926082520004+62233+025733FM-12+009499999V0203201N001019999999N0000001N9+01061+99999098261ADDGF100991999999999999999999
0046029350999991926082606004+62233+025733FM-12+009499999V0209991C000019999999N0000001N9+00781+99999097961ADDAJ100009199999999GF108991999999999999999999
0029029350999991926082613004+62233+025733FM-12+009499999V0209991C000019999999N0000001N9+01501+99999097791ADDGF104991999999999999999999
0029029350999991926082620004+62233+025733FM-12+009499999V0203201N001019999999N0000001N9+00831+99999097841ADDGF102991999999999999999999
0052029350999991926082706004+62233+025733FM-12+009499999V0203201N005119999999N0000001N9+01061+99999098111ADDAJ100009199999999GF108991999999999999999999MW1601
0029029350999991926082713004+62233+025733FM-12+009499999V0203401N006219999999N0000001N9+01391+99999098431ADDGF108991999999999999999999
0029029350999991926082720004+62233+025733FM-12+009499999V0203401N004119999999N0000001N9+01171+99999098841ADDGF108991999999999999999999
0046029350999991926082806004+62233+025733FM-12+009499999V0203401N005119999999N0000001N9+01171+99999099191ADDAJ100009199999999GF108991999999999999999999
0029029350999991926082813004+62233+025733FM-12+009499999V0203601N005119999999N0000001N9+01441+99999099521ADDGF108991999999999999999999
