0029029700999991926010106004+60100+019950FM-12+001499999V0203201N003119999999N0000001N9-00111+99999099461ADDGF104991999999999999999999
0029029700999991926010113004+60100+019950FM-12+001499999V0203201N004119999999N0000001N9-00061+99999100181ADDGF102991999999999999999999
0029029700999991926010120004+60100+019950FM-12+001499999V0203201N001019999999N0000001N9-00171+99999100701ADDGF100991999999999999999999
0029029700999991926010206004+60100+019950FM-12+001499999V0202701N002119999999N0000001N9-00281+99999100861ADDGF100991999999999999999999
0029029700999991926010213004+60100+019950FM-12+001499999V0202001N003119999999N0000001N9-00221+99999100821ADDGF100991999999999999999999
0029029700999991926010220004+60100+019950FM-12+001499999V0202301N004119999999N0000001N9-00171+99999100941ADDGF102991999999999999999999
0029029700999991926010306004+60100+019950FM-12+001499999V0209991C000019999999N0000001N9-00561+99999100871ADDGF106991999999999999999999
0029029700999991926010313004+60100+019950FM-12+001499999V0209991C000019999999N0000001N9-00171+99999100801ADDGF108991999999999999999999
0029029700999991926010320004+60100+019950FM-12+001499999V0200901N003119999999N0000001N9-00331+99999100761ADDGF108991999999999999999999
0029029700999991926010406004+60100+019950FM-12+001499999V0201101N003119999999N0000001N9-00331+99999100901ADDGF108991999999999999999999
0029029700999991926010413004+60100+019950FM-12+001499999V0201101N004119999999N0000001N9-00441+99999101081ADDGF108991999999999999999999
0029029700999991926010420004+60100+019950FM-12+001499999V0201101N005119999999N0000001N9-00441+99999101271ADDGF108991999999999999999999
0035029700999991926010506004+60100+019950FM-12+001499999V0200901N003119999999N0000001N9-00441+99999101441ADDGF108991999999999999999999MW1701
0035029700999991926010513004+60100+019950FM-12+001499999V0200901N001019999999N0000001N9-00441+99999101961ADDGF108991999999999999999999MW1701
0029029700999991926010520004+60100+019950FM-12+001499999V0200701N001019999999N0000001N9-00501+99999102521ADDGF108991999999999999999999
0029029700999991926010606004+60100+019950FM-12+001499999V0200901N004119999999N0000001N9-00391+99999103031ADDGF108991999999999999999999
0029029700999991926010613004+60100+019950FM-12+001499999V0200901N005119999999N0000001N9-00331+99999103241ADDGF108991999999999999999999
0035029700999991926010620004+60100+019950FM-12+001499999V0201401N002119999999N0000001N9-00171+99999103161ADDGF108991999999999999999999MW1701
0029029700999991926010706004+60100+019950FM-12+001499999V0201401N003119999999N0000001N9-00171+99999102631ADDGF108991999999999999999999
0029029700999991926010713004+60100+019950FM-12+001499999V0201401N003119999999N0000001N9-00061+99999102231ADDGF108991999999999999999999
0035029700999991926010720004+60100+019950FM-12+001499999V0200901N003119999999N0000001N9-00061+99999101881ADDGF108991999999999999999999MW1721
0035029700999991926010806004+60100+019950FM-12+001499999V0200901N003119999999N0000001N9-00331+99999101631ADDGF108991999999999999999999MW1701
0035029700999991926010813004+60100+019950FM-12+001499999V0200901N001019999999N0000001N9-00391+99999101831ADDGF108991999999999999999999MW1701
0029029700999991926010820004+60100+019950FM-12+001499999V0200901N001019999999N0000001N9-00501+99999102101ADDGF108991999999999999999999
0029029700999991926010906004+60100+019950FM-12+001499999V0200901N004119999999N0000001N9-00671+99999102441ADDGF108991999999999999999999
0029029700999991926010913004+60100+019950FM-12+001499999V0201101N004119999999N0000001N9-01001+99999102831ADDGF108991999999999999999999
0035029700999991926010920004+60100+019950FM-12+001499999V0200901N008219999999N0000001N9-01111+99999103121ADDGF108991999999999999999999MW1701
0035029700999991926011006004+60100+019950FM-12+001499999V0200901N004119999999N0000001N9-01171+99999103401ADDGF108991999999999999999999MW1701
0029029700999991926011013004+60100+019950FM-12+001499999V0201401N006219999999N0000001N9-00781+99999103711ADDGF108991999999999999999999
0029029700999991926011020004+60100+019950FM-12+001499999V0201401N006219999999N0000001N9-00671+99999103901ADDGF108991999999999999999999
0035029700999991926011106004+60100+019950FM-12+001499999V0202001N011819999999N0000001N9-00501+99999103821ADDGF108991999999999999999999MW1381
0029029700999991926011113004+60100+019950FM-12+001499999V0202301N009819999999N0000001N9-00391+99999104071ADDGF108991999999999999999999
0029029700999991926011120004+60100+019950FM-12+001499999V0202301N008719999999N0000001N9-00281+99999104151ADDGF102991999999999999999999
0035029700999991926011206004+60100+019950FM-12+001499999V0202301N007219999999N0000001N9-00281+99999104111ADDGF108991999999999999999999MW1381
0029029700999991926011213004+60100+019950FM-12+001499999V0202301N003119999999N0000001N9-00221+99999104161ADDGF108991999999999999999999
0029029700999991926011220004+60100+019950FM-12+001499999V0202301N007219999999N0000001N9-00221+99999104121ADDGF104991999999999999999999
0029029700999991926011306004+60100+019950FM-12+001499999V0201801N004119999999N0000001N9-00281+99999104041ADDGF108991999999999999999999
0029029700999991926011313004+60100+019950FM-12+001499999V0201401N001019999999N0000001N9-00441+99999104301ADDGF103991999999999999999999
0035029700999991926011320004+60100+019950FM-12+001499999V0201101N001019999999N0000001N9-01001+99999104361ADDGF100991999999999999999999MW1001
0029029700999991926011406004+60100+019950FM-12+001499999V0200901N002119999999N0000001N9-00671+99999104161ADDGF108991999999999999999999
0029029700999991926011413004+60100+019950FM-12+001499999V0209991C000019999999N0000001N9-00331+99999104111ADDGF108991999999999999999999
0029029700999991926011420004+60100+019950FM-12+001499999V0201401N004119999999N0000001N9-00441+99999103881ADDGF108991999999999999999999
0029029700999991926011506004+60100+019950FM-12+001499999V0201401N001019999999N0000001N9-00501+99999103421ADDGF108991999999999999999999
0029029700999991926011513004+60100+019950FM-12+001499999V0201401N003119999999N0000001N9-00331+99999103101ADDGF108991999999999999999999
0029029700999991926011520004+60100+019950FM-12+001499999V0201401N004119999999N0000001N9-00221+99999102941ADDGF108991999999999999999999
0029029700999991926011606004+60100+019950FM-12+001499999V0201401N001019999999N0000001N9-00441+99999102271ADDGF108991999999999999999999
0029029700999991926011613004+60100+019950FM-12+001499999V0201101N003119999999N0000001N9-00671+99999102101ADDGF108991999999999999999999
0035029700999991926011620004+60100+019950FM-12+001499999V0200901N003119999999N0000001N9-00891+99999101801ADDGF108991999999999999999999MW1701
0029029700999991926011706004+60100+019950FM-12+001499999V0200901N003119999999N0000001N9-00941+99999101591ADDGF103991999999999999999999
0035029700999991926011713004+60100+019950FM-12+001499999V0201101N003119999999N0000001N9-00441+99999101711ADDGF108991999999999999999999MW1721
0029029700999991926011720004+60100+019950FM-12+001499999V0201101N003119999999N0000001N9-00611+99999102001ADDGF108991999999999999999999
0029029700999991926011806004+60100+019950FM-12+001499999V0200901N004119999999N0000001N9-00831+99999101951ADDGF108991999999999999999999
0029029700999991926011813004+60100+019950FM-12+001499999V0201401N003119999999N0000001N9-00561+99999102061ADDGF108991999999999999999999
0029029700999991926011820004+60100+019950FM-12+001499999V0200901N003119999999N0000001N9-00831+99999102181ADDGF108991999999999999999999
0029029700999991926011906004+60100+019950FM-12+001499999V0200901N003119999999N0000001N9-00611+99999102081ADDGF108991999999999999999999
0029029700999991926011913004+60100+019950FM-12+001499999V0200901N002119999999N0000001N9-00561+99999102001ADDGF108991999999999999999999
0029029700999991926011920004+60100+019950FM-12+001499999V0200901N003119999999N0000001N9-01061+99999102031ADDGF108991999999999999999999
0029029700999991926012006004+60100+019950FM-12+001499999V0209991C000019999999N0000001N9-01001+99999101861ADDGF108991999999999999999999
0029029700999991926012013004+60100+019950FM-12+001499999V0209991C000019999999N0000001N9-00781+99999101721ADDGF108991999999999999999999
0029029700999991926012020004+60100+019950FM-12+001499999V0200901N001019999999N0000001N9-00721+99999101561ADDGF108991999999999999999999
0035029700999991926012106004+60100+019950FM-12+001499999V0209991C000019999999N0000001N9-01281+99999101401ADDGF108991999999999999999999MW1701
0035029700999991926012113004+60100+019950FM-12+001499999V0209991C000019999999N0000001N9-01501+99999101431ADDGF107991999999999999999999MW1481
0035029700999991926012120004+60100+019950FM-12+001499999V0209991C000019999999N0000001N9-01501+99999101471ADDGF100991999999999999999999MW1481
0035029700999991926012206004+60100+019950FM-12+001499999V0209991C000019999999N0000001N9-01721+99999101591ADDGF100991999999999999999999MW1481
0035029700999991926012213004+60100+019950FM-12+001499999V0209991C000019999999N0000001N9-01391+99999101721ADDGF101991999999999999999999MW1481
0035029700999991926012220004+60100+019950FM-12+001499999V0202301N004119999999N0000001N9-00671+99999101591ADDGF108991999999999999999999MW1481
0035029700999991926012306004+60100+019950FM-12+001499999V0202301N005119999999N0000001N9-00281+99999101261ADDGF108991999999999999999999MW1721
0029029700999991926012313004+60100+019950FM-12+001499999V0202001N005119999999N0000001N9-00111+99999101071ADDGF108991999999999999999999
0029029700999991926012320004+60100+019950FM-12+001499999V0202001N006219999999N0000001N9-00171+99999100791ADDGF108991999999999999999999
0035029700999991926012406004+60100+019950FM-12+001499999V0201401N008719999999N0000001N9-00391+99999100151ADDGF108991999999999999999999MW1721
0035029700999991926012413004+60100+019950FM-12+001499999V0201801N008219999999N0000001N9+00061+99999099351ADDGF108991999999999999999999MW1691
0029029700999991926012420004+60100+019950FM-12+001499999V0202301N006219999999N0000001N9+00111+99999099321ADDGF104991999999999999999999
0029029700999991926012506004+60100+019950FM-12+001499999V0202901N007219999999N0000001N9-00221+99999099261ADDGF108991999999999999999999
0029029700999991926012513004+60100+019950FM-12+001499999V0202901N003119999999N0000001N9-00441+99999999999ADDGF108991999999999999999999
0029029700999991926012520004+60100+019950FM-12+001499999V0201101N002119999999N0000001N9-00501+99999099551ADDGF108991999999999999999999
0029029700999991926012606004+60100+019950FM-12+001499999V0209991C000019999999N0000001N9-00501+99999099381ADDGF108991999999999999999999
0029029700999991926012613004+60100+019950FM-12+001499999V0203401N003119999999N0000001N9-00781+99999099981ADDGF102991999999999999999999
0035029700999991926012620004+60100+019950FM-12+001499999V0203401N005119999999N0000001N9-00781+99999100621ADDGF108991999999999999999999MW1701
0029029700999991926012706004+60100+019950FM-12+001499999V0203401N001019999999N0000001N9-00501+99999101681ADDGF108991999999999999999999
0029029700999991926012713004+60100+019950FM-12+001499999V0203401N001019999999N0000001N9-00561+99999102041ADDGF108991999999999999999999
0029029700999991926012720004+60100+019950FM-12+001499999V0202301N003119999999N0000001N9-00781+99999102031ADDGF100991999999999999999999
0029029700999991926012806004+60100+019950FM-12+001499999V0202301N003119999999N0000001N9-00171+99999101241ADDGF108991999999999999999999
0029029700999991926012813004+60100+019950FM-12+001499999V0202301N005119999999N0000001N9+00001+99999100551ADDGF108991999999999999999999
0035029700999991926012820004+60100+019950FM-12+001499999V0202301N002119999999N0000001N9+00001+99999100151ADDGF108991999999999999999999MW1721
0029029700999991926012906004+60100+019950FM-12+001499999V0200701N002119999999N0000001N9-01331+99999101191ADDGF100991999999999999999999
0029029700999991926012913004+60100+019950FM-12+001499999V0200901N001019999999N0000001N9-01501+99999102071ADDGF101991999999999999999999
0029029700999991926012920004+60100+019950FM-12+001499999V0209991C000019999999N0000001N9-02061+99999102271ADDGF100991999999999999999999
0029029700999991926013006004+60100+019950FM-12+001499999V0209991C000019999999N0000001N9-01501+99999101921ADDGF107991999999999999999999
0035029700999991926013013004+60100+019950FM-12+001499999V0201801N006219999999N0000001N9-00221+99999101701ADDGF108991999999999999999999MW1481
0029029700999991926013020004+60100+019950FM-12+001499999V0201801N003119999999N0000001N9-00111+99999101361ADDGF108991999999999999999999
0035029700999991926013106004+60100+019950FM-12+001499999V0209991C000019999999N0000001N9+00001+99999100721ADDGF108991999999999999999999MW1701
0029029700999991926013113004+60100+019950FM-12+001499999V0202301N003119999999N0000001N9+00001+99999100951ADDGF108991999999999999999999
0029029700999991926013120004+60100+019950FM-12+001499999V0202501N001019999999N0000001N9-00061+99999101161ADDGF108991999999999999999999
0029029700999991926020106004+60100+019950FM-12+001499999V0209991C000019999999N0000001N9-00111+99999101261ADDGF108991999999999999999999
0035029700999991926020113004+60100+019950FM-12+001499999V0202001N002119999999N0000001N9+00061+99999101241ADDGF108991999999999999999999MW1721
0035029700999991926020120004+60100+019950FM-12+001499999V0202301N001019999999N0000001N9+00001+99999101141ADDGF108991999999999999999999MW1721
0035029700999991926020206004+60100+019950FM-12+001499999V0209991C000019999999N0000001N9+00001+99999100981ADDGF108991999999999999999999MW1701
0029029700999991926020213004+60100+019950FM-12+001499999V0201401N001019999999N0000001N9+00001+99999100901ADDGF108991999999999999999999
0035029700999991926020220004+60100+019950FM-12+001499999V0201401N001019999999N0000001N9-00111+99999100791ADDGF108991999999999999999999MW1701
0035029700999991926020306004+60100+019950FM-12+001499999V0201401N005119999999N0000001N9-00331+99999100311ADDGF108991999999999999999999MW1721
0035029700999991926020313004+60100+019950FM-12+001499999V0200901N004119999999N0000001N9-00331+99999100221ADDGF108991999999999999999999MW1721
0035029700999991926020320004+60100+019950FM-12+001499999V0201601N008219999999N0000001N9-00281+99999100271ADDGF108991999999999999999999MW1721
0035029700999991926020406004+60100+019950FM-12+001499999V0200701N015919999999N0000001N9-00391+99999100921ADDGF108991999999999999999999MW1721
0035029700999991926020413004+60100+019950FM-12+001499999V0200701N007219999999N0000001N9-00721+99999101661ADDGF108991999999999999999999MW1721
0035029700999991926020420004+60100+019950FM-12+001499999V0201101N013919999999N0000001N9-00891+99999102281ADDGF108991999999999999999999MW1381
0029029700999991926020506004+60100+019950FM-12+001499999V0200701N002119999999N0000001N9-01781+99999102911ADDGF100991999999999999999999
0029029700999991926020513004+60100+019950FM-12+001499999V0200701N004119999999N0000001N9-01671+99999103261ADDGF100991999999999999999999
0029029700999991926020520004+60100+019950FM-12+001499999V0200701N001019999999N0000001N9-02111+99999103521ADDGF100991999999999999999999
0029029700999991926020606004+60100+019950FM-12+001499999V0209991C000019999999N0000001N9-02281+99999103711ADDGF100991999999999999999999
0029029700999991926020613004+60100+019950FM-12+001499999V0200701N004119999999N0000001N9-01501+99999103741ADDGF100991999999999999999999
0029029700999991926020620004+60100+019950FM-12+001499999V0200901N004119999999N0000001N9-01781+99999103671ADDGF100991999999999999999999
0029029700999991926020706004+60100+019950FM-12+001499999V0200901N001019999999N0000001N9-01831+99999103461ADDGF105991999999999999999999
0029029700999991926020713004+60100+019950FM-12+001499999V0200901N003119999999N0000001N9-01671+99999103281ADDGF100991999999999999999999
0029029700999991926020720004+60100+019950FM-12+001499999V0200901N003119999999N0000001N9-01561+99999103261ADDGF108991999999999999999999
0035029700999991926020806004+60100+019950FM-12+001499999V0200901N004119999999N0000001N9-01171+99999103081ADDGF108991999999999999999999MW1701
0029029700999991926020813004+60100+019950FM-12+001499999V0200901N007219999999N0000001N9-01171+99999103081ADDGF108991999999999999999999
0029029700999991926020820004+60100+019950FM-12+001499999V0200701N007219999999N0000001N9-01441+99999103061ADDGF104991999999999999999999
0029029700999991926020906004+60100+019950FM-12+001499999V0200701N007219999999N0000001N9-01331+99999102861ADDGF108991999999999999999999
0035029700999991926020913004+60100+019950FM-12+001499999V0200701N007219999999N0000001N9-00941+99999102721ADDGF108991999999999999999999MW1701
0035029700999991926020920004+60100+019950FM-12+001499999V0200901N007219999999N0000001N9-01001+99999102601ADDGF108991999999999999999999MW1701
0029029700999991926021006004+60100+019950FM-12+001499999V0200901N004119999999N0000001N9-01001+99999102361ADDGF108991999999999999999999
0035029700999991926021013004+60100+019950FM-12+001499999V0201101N004119999999N0000001N9-00611+99999102191ADDGF108991999999999999999999MW1721
0035029700999991926021020004+60100+019950FM-12+001499999V0200901N001019999999N0000001N9-00781+99999101801ADDGF108991999999999999999999MW1721
0029029700999991926021106004+60100+019950FM-12+001499999V0201401N001019999999N0000001N9-00281+99999101261ADDGF108991999999999999999999
0035029700999991926021113004+60100+019950FM-12+001499999V0203601N001019999999N0000001N9-00561+99999101441ADDGF108991999999999999999999MW1721
0035029700999991926021120004+60100+019950FM-12+001499999V0209991C000019999999N0000001N9-01501+99999101721ADDGF100991999999999999999999MW1001
0029029700999991926021206004+60100+019950FM-12+001499999V0209991C000019999999N0000001N9-02171+99999101701ADDGF100991999999999999999999
0029029700999991926021213004+60100+019950FM-12+001499999V0209991C000019999999N0000001N9-01001+99999101741ADDGF106991999999999999999999
0029029700999991926021220004+60100+019950FM-12+001499999V0209991C000019999999N0000001N9-01281+99999101831ADDGF100991999999999999999999
0029029700999991926021306004+60100+019950FM-12+001499999V0209991C000019999999N0000001N9-00671+99999101701ADDGF108991999999999999999999
0029029700999991926021313004+60100+019950FM-12+001499999V0209991C000019999999N0000001N9-00501+99999101621ADDGF108991999999999999999999
0029029700999991926021320004+60100+019950FM-12+001499999V0209991C000019999999N0000001N9-00501+99999101581ADDGF108991999999999999999999
0029029700999991926021406004+60100+019950FM-12+001499999V0209991C000019999999N0000001N9-01331+99999101981ADDGF100991999999999999999999
0029029700999991926021413004+60100+019950FM-12+001499999V0203201N001019999999N0000001N9-00721+99999102311ADDGF100991999999999999999999
0029029700999991926021420004+60100+019950FM-12+001499999V0209991C000019999999N0000001N9-01331+99999102681ADDGF106991999999999999999999
0029029700999991926021506004+60100+019950FM-12+001499999V0202301N005119999999N0000001N9-00781+99999102301ADDGF108991999999999999999999
0029029700999991926021513004+60100+019950FM-12+001499999V0202301N007219999999N0000001N9-00331+99999101901ADDGF108991999999999999999999
0029029700999991926021520004+60100+019950FM-12+001499999V0202301N009819999999N0000001N9-00111+99999101381ADDGF108991999999999999999999
0035029700999991926021606004+60100+019950FM-12+001499999V0202301N009819999999N0000001N9+00061+99999100221ADDGF108991999999999999999999MW1721
0029029700999991926021613004+60100+019950FM-12+001499999V0202301N001019999999N0000001N9+00111+99999100221ADDGF108991999999999999999999
0035029700999991926021620004+60100+019950FM-12+001499999V0202301N004119999999N0000001N9+00061+99999100021ADDGF108991999999999999999999MW1621
0029029700999991926021706004+60100+019950FM-12+001499999V0202301N001019999999N0000001N9+00061+99999100151ADDGF108991999999999999999999
0029029700999991926021713004+60100+019950FM-12+001499999V0202301N003119999999N0000001N9+00001+99999100201ADDGF108991999999999999999999
0035029700999991926021720004+60100+019950FM-12+001499999V0201601N004119999999N0000001N9+00111+99999099741ADDGF108991999999999999999999MW1621
0029029700999991926021806004+60100+019950FM-12+001499999V0202301N003119999999N0000001N9+00001+99999098741ADDGF108991999999999999999999
0035029700999991926021813004+60100+019950FM-12+001499999V0202301N008719999999N0000001N9+00001+99999098631ADDGF108991999999999999999999MW1721
0035029700999991926021820004+60100+019950FM-12+001499999V0202301N007219999999N0000001N9+00001+99999098831ADDGF108991999999999999999999MW1721
0029029700999991926021906004+60100+019950FM-12+001499999V0209991C000019999999N0000001N9+00001+99999099561ADDGF108991999999999999999999
0029029700999991926021913004+60100+019950FM-12+001499999V0202501N001019999999N0000001N9-00171+99999100021ADDGF102991999999999999999999
0029029700999991926021920004+60100+019950FM-12+001499999V0209991C000019999999N0000001N9-00831+99999100461ADDGF100991999999999999999999
0029029700999991926022006004+60100+019950FM-12+001499999V0209991C000019999999N0000001N9-00331+99999101231ADDGF108991999999999999999999
0029029700999991926022013004+60100+019950FM-12+001499999V0200201N002119999999N0000001N9-00391+99999101591ADDGF108991999999999999999999
0029029700999991926022020004+60100+019950FM-12+001499999V0209991C000019999999N0000001N9-00611+99999101701ADDGF108991999999999999999999
0035029700999991926022106004+60100+019950FM-12+001499999V0209991C000019999999N0000001N9-00441+99999101521ADDGF108991999999999999999999MW1721
0029029700999991926022113004+60100+019950FM-12+001499999V0202301N002119999999N0000001N9-00331+99999101551ADDGF108991999999999999999999
0029029700999991926022120004+60100+019950FM-12+001499999V0203601N001019999999N0000001N9-01331+99999102141ADDGF100991999999999999999999
0029029700999991926022206004+60100+019950FM-12+001499999V0209991C000019999999N0000001N9-01891+99999102561ADDGF100991999999999999999999
0029029700999991926022213004+60100+019950FM-12+001499999V0209991C000019999999N0000001N9-01281+99999102551ADDGF102991999999999999999999
0029029700999991926022220004+60100+019950FM-12+001499999V0209991C000019999999N0000001N9-01831+99999102561ADDGF100991999999999999999999
0029029700999991926022306004+60100+019950FM-12+001499999V0202301N005119999999N0000001N9-00671+99999102311ADDGF108991999999999999999999
0029029700999991926022313004+60100+019950FM-12+001499999V0202301N005119999999N0000001N9-00281+99999102241ADDGF108991999999999999999999
0035029700999991926022320004+60100+019950FM-12+001499999V0202301N007219999999N0000001N9-00111+99999101751ADDGF108991999999999999999999MW1701
0029029700999991926022406004+60100+019950FM-12+001499999V0202901N004119999999N0000001N9-00061+99999101681ADDGF108991999999999999999999
0029029700999991926022413004+60100+019950FM-12+001499999V0202701N002119999999N0000001N9+00111+99999102081ADDGF100991999999999999999999
0029029700999991926022506004+60100+019950FM-12+001499999V0202501N003119999999N0000001N9-00501+99999102841ADDGF108991999999999999999999
0029029700999991926022513004+60100+019950FM-12+001499999V0202501N001019999999N0000001N9+00001+99999103001ADDGF108991999999999999999999
0029029700999991926022520004+60100+019950FM-12+001499999V0202301N003119999999N0000001N9+00061+99999103141ADDGF108991999999999999999999
0029029700999991926022606004+60100+019950FM-12+001499999V0202301N004119999999N0000001N9+00061+99999103181ADDGF107991999999999999999999
0029029700999991926022613004+60100+019950FM-12+001499999V0202001N006219999999N0000001N9+00111+99999103191ADDGF108991999999999999999999
0029029700999991926022620004+60100+019950FM-12+001499999V0202001N008719999999N0000001N9+00061+99999103221ADDGF108991999999999999999999
0029029700999991926022706004+60100+019950FM-12+001499999V0202301N008719999999N0000001N9+00061+99999103141ADDGF108991999999999999999999
0029029700999991926022713004+60100+019950FM-12+001499999V0202301N008719999999N0000001N9+00061+99999103191ADDGF108991999999999999999999
0029029700999991926022720004+60100+019950FM-12+001499999V0202301N008719999999N0000001N9+00001+99999102801ADDGF108991999999999999999999
0029029700999991926022806004+60100+019950FM-12+001499999V0202301N013919999999N0000001N9-00061+99999102301ADDGF108991999999999999999999
0035029700999991926022813004+60100+019950FM-12+001499999V0202301N006219999999N0000001N9-00061+99999102221ADDGF108991999999999999999999MW1721
0029029700999991926022820004+60100+019950FM-12+001499999V0202301N001019999999N0000001N9+00001+99999102561ADDGF108991999999999999999999
0029029700999991926030106004+60100+019950FM-12+001499999V0202301N002119999999N0000001N9+00001+99999102001ADDGF108991999999999999999999
0029029700999991926030113004+60100+019950FM-12+001499999V0202301N002119999999N0000001N9+00061+99999101481ADDGF108991999999999999999999
0029029700999991926030120004+60100+019950FM-12+001499999V0202301N005119999999N0000001N9+00111+99999100521ADDGF104991999999999999999999
0035029700999991926030206004+60100+019950FM-12+001499999V0202701N015919999999N0000001N9+00281+99999099461ADDGF102991999999999999999999MW1621
0029029700999991926030213004+60100+019950FM-12+001499999V0202501N001019999999N0000001N9+00331+99999099661ADDGF108991999999999999999999
0029029700999991926030220004+60100+019950FM-12+001499999V0202501N007219999999N0000001N9+00281+99999098521ADDGF102991999999999999999999
0029029700999991926030306004+60100+019950FM-12+001499999V0203201N001019999999N0000001N9-00061+99999099941ADDGF105991999999999999999999
0029029700999991926030313004+60100+019950FM-12+001499999V0201801N007219999999N0000001N9+00111+99999099221ADDGF108991999999999999999999
0029029700999991926030320004+60100+019950FM-12+001499999V0202301N008719999999N0000001N9+00171+99999098021ADDGF108991999999999999999999
0029029700999991926030406004+60100+019950FM-12+001499999V0202701N008719999999N0000001N9+00221+99999097521ADDGF102991999999999999999999
0029029700999991926030413004+60100+019950FM-12+001499999V0202301N003119999999N0000001N9+00221+99999097461ADDGF108991999999999999999999
0029029700999991926030420004+60100+019950FM-12+001499999V0202301N007219999999N0000001N9+00061+99999097431ADDGF102991999999999999999999
0029029700999991926030506004+60100+019950FM-12+001499999V0209991C000019999999N0000001N9-00221+99999098401ADDGF106991999999999999999999
0029029700999991926030513004+60100+019950FM-12+001499999V0202901N001019999999N0000001N9+00171+99999099111ADDGF102991999999999999999999
0035029700999991926030520004+60100+019950FM-12+001499999V0202301N002119999999N0000001N9-00281+99999099461ADDGF100991999999999999999999MW1001
0029029700999991926030606004+60100+019950FM-12+001499999V0202301N004119999999N0000001N9-00391+99999099161ADDGF102991999999999999999999
0029029700999991926030613004+60100+019950FM-12+001499999V0202301N004119999999N0000001N9-00111+99999099041ADDGF101991999999999999999999
0029029700999991926030620004+60100+019950FM-12+001499999V0209991C000019999999N0000001N9-00671+99999099161ADDGF100991999999999999999999
0029029700999991926030706004+60100+019950FM-12+001499999V0209991C000019999999N0000001N9-01331+99999099581ADDGF100991999999999999999999
0029029700999991926030713004+60100+019950FM-12+001499999V0202301N002119999999N0000001N9+00111+99999100221ADDGF100991999999999999999999
0029029700999991926030720004+60100+019950FM-12+001499999V0209991C000019999999N0000001N9-00831+99999100521ADDGF100991999999999999999999
0029029700999991926030806004+60100+019950FM-12+001499999V0202001N002119999999N0000001N9-00061+99999100421ADDGF108991999999999999999999
0029029700999991926030813004+60100+019950FM-12+001499999V0202301N003119999999N0000001N9+00111+99999100181ADDGF108991999999999999999999
0029029700999991926030820004+60100+019950FM-12+001499999V0202301N003119999999N0000001N9+00001+99999100081ADDGF100991999999999999999999
0029029700999991926030906004+60100+019950FM-12+001499999V0202301N006219999999N0000001N9+00331+99999098541ADDGF104991999999999999999999
0029029700999991926030913004+60100+019950FM-12+001499999V0202301N007219999999N0000001N9+00501+99999098631ADDGF100991999999999999999999
0035029700999991926030920004+60100+019950FM-12+001499999V0202301N006219999999N0000001N9+00221+99999098301ADDGF102991999999999999999999MW1001
0029029700999991926031006004+60100+019950FM-12+001499999V0203201N003119999999N0000001N9-00171+99999098021ADDGF108991999999999999999999
0029029700999991926031013004+60100+019950FM-12+001499999V0203201N008219999999N0000001N9+00171+99999098601ADDGF106991999999999999999999
0029029700999991926031020004+60100+019950FM-12+001499999V0203601N001019999999N0000001N9-00221+99999099921ADDGF100991999999999999999999
0029029700999991926031106004+60100+019950FM-12+001499999V0203201N003119999999N0000001N9-00331+99999100861ADDGF100991999999999999999999
0029029700999991926031113004+60100+019950FM-12+001499999V0202301N008719999999N0000001N9-00061+99999100191ADDGF108991999999999999999999
0029029700999991926031120004+60100+019950FM-12+001499999V0202301N006219999999N0000001N9+00001+99999098801ADDGF108991999999999999999999
0029029700999991926031206004+60100+019950FM-12+001499999V0203401N003119999999N0000001N9-00111+99999098711ADDGF102991999999999999999999
0029029700999991926031213004+60100+019950FM-12+001499999V0203201N006219999999N0000001N9+00061+99999098841ADDGF102991999999999999999999
0029029700999991926031220004+60100+019950FM-12+001499999V0202701N023119999999N0000001N9-00171+99999098741ADDGF104991999999999999999999
0029029700999991926031306004+60100+019950FM-12+001499999V0203201N007219999999N0000001N9-00171+99999099231ADDGF106991999999999999999999
0029029700999991926031313004+60100+019950FM-12+001499999V0203201N019019999999N0000001N9+00111+99999099471ADDGF108991999999999999999999
0029029700999991926031320004+60100+019950FM-12+001499999V0200501N004119999999N0000001N9-00221+99999100071ADDGF102991999999999999999999
0029029700999991926031406004+60100+019950FM-12+001499999V0203601N004119999999N0000001N9-00221+99999100511ADDGF106991999999999999999999
0029029700999991926031413004+60100+019950FM-12+001499999V0203401N008219999999N0000001N9-00061+99999100821ADDGF103991999999999999999999
0029029700999991926031420004+60100+019950FM-12+001499999V0203401N003119999999N0000001N9-00221+99999100861ADDGF100991999999999999999999
0029029700999991926031506004+60100+019950FM-12+001499999V0203601N002119999999N0000001N9-00561+99999100991ADDGF100991999999999999999999
0029029700999991926031513004+60100+019950FM-12+001499999V0203201N005119999999N0000001N9+00001+99999101241ADDGF102991999999999999999999
0029029700999991926031520004+60100+019950FM-12+001499999V0203201N001019999999N0000001N9-00331+99999101351ADDGF100991999999999999999999
0029029700999991926031606004+60100+019950FM-12+001499999V0203201N001019999999N0000001N9-00331+99999101461ADDGF102991999999999999999999
0029029700999991926031613004+60100+019950FM-12+001499999V0203601N005119999999N0000001N9+00061+99999101511ADDGF105991999999999999999999
0029029700999991926031620004+60100+019950FM-12+001499999V0209991C000019999999N0000001N9-00501+99999101551ADDGF100991999999999999999999
0035029700999991926031706004+60100+019950FM-12+001499999V0209991C000019999999N0000001N9-00331+99999101341ADDGF108991999999999999999999MW1721
0029029700999991926031713004+60100+019950FM-12+001499999V0200901N002119999999N0000001N9-00221+99999101591ADDGF100991999999999999999999
0029029700999991926031720004+60100+019950FM-12+001499999V0209991C000019999999N0000001N9-00441+99999101681ADDGF100991999999999999999999
0029029700999991926031806004+60100+019950FM-12+001499999V0200201N001019999999N0000001N9-00331+99999101521ADDGF105991999999999999999999
0029029700999991926031813004+60100+019950FM-12+001499999V0203601N004119999999N0000001N9-00111+99999101501ADDGF105991999999999999999999
0029029700999991926031820004+60100+019950FM-12+001499999V0203601N001019999999N0000001N9-00281+99999101481ADDGF106991999999999999999999
0035029700999991926031906004+60100+019950FM-12+001499999V0200201N003119999999N0000001N9-00331+99999101471ADDGF108991999999999999999999MW1701
0035029700999991926031913004+60100+019950FM-12+001499999V0201101N004119999999N0000001N9-00221+99999101881ADDGF108991999999999999999999MW1701
0029029700999991926031920004+60100+019950FM-12+001499999V0209991C000019999999N0000001N9-00941+99999102591ADDGF100991999999999999999999
0029029700999991926032006004+60100+019950FM-12+001499999V0209991C000019999999N0000001N9-01501+99999102911ADDGF106991999999999999999999
0029029700999991926032013004+60100+019950FM-12+001499999V0203201N002119999999N0000001N9-00171+99999102511ADDGF108991999999999999999999
0029029700999991926032020004+60100+019950FM-12+001499999V0203401N002119999999N0000001N9-00061+99999101911ADDGF108991999999999999999999
0035029700999991926032106004+60100+019950FM-12+001499999V0200201N004119999999N0000001N9-00281+99999102031ADDGF108991999999999999999999MW1701
0035029700999991926032113004+60100+019950FM-12+001499999V0200501N004119999999N0000001N9-00111+99999102311ADDGF108991999999999999999999MW1701
0029029700999991926032120004+60100+019950FM-12+001499999V0200201N006219999999N0000001N9-00441+99999102551ADDGF102991999999999999999999
0029029700999991926032206004+60100+019950FM-12+001499999V0203601N001019999999N0000001N9-00721+99999102361ADDGF101991999999999999999999
0029029700999991926032213004+60100+019950FM-12+001499999V0203201N003119999999N0000001N9-00111+99999102221ADDGF101991999999999999999999
0029029700999991926032220004+60100+019950FM-12+001499999V0209991C000019999999N0000001N9-00721+99999102041ADDGF100991999999999999999999
0029029700999991926032306004+60100+019950FM-12+001499999V0203201N003119999999N0000001N9+00061+99999101551ADDGF107991999999999999999999
0029029700999991926032313004+60100+019950FM-12+001499999V0202901N003119999999N0000001N9+00391+99999101381ADDGF108991999999999999999999
0029029700999991926032320004+60100+019950FM-12+001499999V0202301N004119999999N0000001N9+00221+99999101221ADDGF106991999999999999999999
0029029700999991926032406004+60100+019950FM-12+001499999V0202701N003119999999N0000001N9+00061+99999100741ADDGF103991999999999999999999
0029029700999991926032413004+60100+019950FM-12+001499999V0203201N011819999999N0000001N9+00441+99999100621ADDGF108991999999999999999999
0029029700999991926032420004+60100+019950FM-12+001499999V0202701N001019999999N0000001N9-00171+99999101161ADDGF100991999999999999999999
0029029700999991926032506004+60100+019950FM-12+001499999V0203401N001019999999N0000001N9-00281+99999101641ADDGF100991999999999999999999
0029029700999991926032513004+60100+019950FM-12+001499999V0203601N002119999999N0000001N9-00061+99999101981ADDGF100991999999999999999999
0029029700999991926032520004+60100+019950FM-12+001499999V0209991C000019999999N0000001N9-00671+99999102151ADDGF100991999999999999999999
0029029700999991926032606004+60100+019950FM-12+001499999V0202701N001019999999N0000001N9-00391+99999102071ADDGF100991999999999999999999
0029029700999991926032613004+60100+019950FM-12+001499999V0202701N004119999999N0000001N9+00391+99999101901ADDGF100991999999999999999999
0029029700999991926032620004+60100+019950FM-12+001499999V0209991C000019999999N0000001N9-00501+99999102031ADDGF100991999999999999999999
0029029700999991926032706004+60100+019950FM-12+001499999V0209991C000019999999N0000001N9-00831+99999102121ADDGF105991999999999999999999
0029029700999991926032713004+60100+019950FM-12+001499999V0201801N004119999999N0000001N9+00111+99999101991ADDGF102991999999999999999999
0029029700999991926032720004+60100+019950FM-12+001499999V0201801N004119999999N0000001N9-00111+99999101701ADDGF102991999999999999999999
0029029700999991926032806004+60100+019950FM-12+001499999V0201601N004119999999N0000001N9-00061+99999101231ADDGF108991999999999999999999
0029029700999991926032813004+60100+019950FM-12+001499999V0201401N004119999999N0000001N9+00111+99999101111ADDGF107991999999999999999999
0029029700999991926032820004+60100+019950FM-12+001499999V0201401N011819999999N0000001N9+00111+99999100911ADDGF108991999999999999999999
0029029700999991926032906004+60100+019950FM-12+001499999V0201401N004119999999N0000001N9-00111+99999100551ADDGF108991999999999999999999
0035029700999991926032913004+60100+019950FM-12+001499999V0201401N004119999999N0000001N9+00001+99999100471ADDGF108991999999999999999999MW1701
0035029700999991926032920004+60100+019950FM-12+001499999V0201401N006219999999N0000001N9+00001+99999100461ADDGF108991999999999999999999MW1721
0035029700999991926033006004+60100+019950FM-12+001499999V0201801N004119999999N0000001N9+00061+99999100301ADDGF108991999999999999999999MW1701
0035029700999991926033013004+60100+019950FM-12+001499999V0201801N011819999999N0000001N9+00001+99999100261ADDGF108991999999999999999999MW1721
0029029700999991926033020004+60100+019950FM-12+001499999V0201401N009819999999N0000001N9+00061+99999099951ADDGF108991999999999999999999
0029029700999991926033106004+60100+019950FM-12+001499999V0202301N006219999999N0000001N9+00061+99999099501ADDGF108991999999999999999999
0029029700999991926033113004+60100+019950FM-12+001499999V0202301N004119999999N0000001N9+00171+99999099721ADDGF108991999999999999999999
0029029700999991926033120004+60100+019950FM-12+001499999V0209991C000019999999N0000001N9+00001+99999100141ADDGF100991999999999999999999
0029029700999991926040106004+60100+019950FM-12+001499999V0202701N001019999999N0000001N9+00111+99999100631ADDGF100991999999999999999999
0029029700999991926040113004+60100+019950FM-12+001499999V0203201N002119999999N0000001N9+00441+99999101061ADDGF106991999999999999999999
0035029700999991926040120004+60100+019950FM-12+001499999V0203601N004119999999N0000001N9+00001+99999101591ADDGF108991999999999999999999MW1721
0029029700999991926040206004+60100+019950FM-12+001499999V0203601N004119999999N0000001N9+00001+99999102351ADDGF105991999999999999999999
0029029700999991926040213004+60100+019950FM-12+001499999V0200201N003119999999N0000001N9+00171+99999102911ADDGF106991999999999999999999
0029029700999991926040220004+60100+019950FM-12+001499999V0200201N001019999999N0000001N9-00171+99999103421ADDGF100991999999999999999999
0029029700999991926040306004+60100+019950FM-12+001499999V0203601N001019999999N0000001N9-00331+99999103781ADDGF108991999999999999999999
0029029700999991926040313004+60100+019950FM-12+001499999V0209991C000019999999N0000001N9+00391+99999103661ADDGF100991999999999999999999
0029029700999991926040320004+60100+019950FM-12+001499999V0202301N002119999999N0000001N9+00001+99999103241ADDGF104991999999999999999999
0029029700999991926040406004+60100+019950FM-12+001499999V0202901N004119999999N0000001N9+00171+99999102341ADDGF108991999999999999999999
0029029700999991926040413004+60100+019950FM-12+001499999V0202701N005119999999N0000001N9+00831+99999102031ADDGF105991999999999999999999
0029029700999991926040420004+60100+019950FM-12+001499999V0202301N004119999999N0000001N9+00441+99999101751ADDGF100991999999999999999999
0029029700999991926040506004+60100+019950FM-12+001499999V0202901N004119999999N0000001N9+00331+99999100961ADDGF108991999999999999999999
0029029700999991926040513004+60100+019950FM-12+001499999V0202901N004119999999N0000001N9+01061+99999100981ADDGF104991999999999999999999
0029029700999991926040520004+60100+019950FM-12+001499999V0203201N001019999999N0000001N9+00561+99999100901ADDGF100991999999999999999999
0029029700999991926040606004+60100+019950FM-12+001499999V0202901N001019999999N0000001N9+00561+99999100601ADDGF108991999999999999999999
0029029700999991926040613004+60100+019950FM-12+001499999V0203201N001019999999N0000001N9+00561+99999100401ADDGF108991999999999999999999
0029029700999991926040620004+60100+019950FM-12+001499999V0200701N004119999999N0000001N9+00061+99999101201ADDGF108991999999999999999999
0029029700999991926040706004+60100+019950FM-12+001499999V0200901N008219999999N0000001N9-00501+99999102381ADDGF108991999999999999999999
0029029700999991926040713004+60100+019950FM-12+001499999V0201601N004119999999N0000001N9-00111+99999102511ADDGF108991999999999999999999
0029029700999991926040720004+60100+019950FM-12+001499999V0201601N001019999999N0000001N9-00281+99999102141ADDGF100991999999999999999999
0029029700999991926040806004+60100+019950FM-12+001499999V0201801N007219999999N0000001N9-00061+99999101511ADDGF107991999999999999999999
0029029700999991926040813004+60100+019950FM-12+001499999V0201801N006219999999N0000001N9+00061+99999101031ADDGF108991999999999999999999
0029029700999991926040820004+60100+019950FM-12+001499999V0201401N001019999999N0000001N9+00001+99999100591ADDGF108991999999999999999999
0035029700999991926040906004+60100+019950FM-12+001499999V0201101N004119999999N0000001N9+00001+99999100101ADDGF108991999999999999999999MW1701
0029029700999991926040913004+60100+019950FM-12+001499999V0200901N004119999999N0000001N9+00061+99999100081ADDGF108991999999999999999999
0035029700999991926040920004+60100+019950FM-12+001499999V0200901N001019999999N0000001N9-00061+99999100121ADDGF108991999999999999999999MW1701
0029029700999991926041006004+60100+019950FM-12+001499999V0209991C000019999999N0000001N9+00001+99999100141ADDGF108991999999999999999999
0029029700999991926041013004+60100+019950FM-12+001499999V0203201N001019999999N0000001N9+00281+99999100321ADDGF108991999999999999999999
0029029700999991926041020004+60100+019950FM-12+001499999V0209991C000019999999N0000001N9-00061+99999100711ADDGF100991999999999999999999
0029029700999991926041106004+60100+019950FM-12+001499999V0203601N004119999999N0000001N9+00001+99999101141ADDGF100991999999999999999999
0029029700999991926041113004+60100+019950FM-12+001499999V0203201N004119999999N0000001N9+00391+99999101361ADDGF101991999999999999999999
0029029700999991926041120004+60100+019950FM-12+001499999V0202301N003119999999N0000001N9+00001+99999101261ADDGF100991999999999999999999
0035029700999991926041206004+60100+019950FM-12+001499999V0202901N003119999999N0000001N9+00061+99999100841ADDGF108991999999999999999999MW1701
0029029700999991926041213004+60100+019950FM-12+001499999V0203601N005119999999N0000001N9+00221+99999101241ADDGF102991999999999999999999
0029029700999991926041220004+60100+019950FM-12+001499999V0201401N003119999999N0000001N9+00001+99999101271ADDGF108991999999999999999999
0029029700999991926041306004+60100+019950FM-12+001499999V0202701N003119999999N0000001N9+00221+99999100281ADDGF108991999999999999999999
0029029700999991926041313004+60100+019950FM-12+001499999V0203601N005119999999N0000001N9+00171+99999100901ADDGF108991999999999999999999
0029029700999991926041320004+60100+019950FM-12+001499999V0209991C000019999999N0000001N9-00281+99999101461ADDGF100991999999999999999999
0029029700999991926041406004+60100+019950FM-12+001499999V0209991C000019999999N0000001N9+00111+99999101861ADDGF106991999999999999999999
0029029700999991926041413004+60100+019950FM-12+001499999V0201401N002119999999N0000001N9+00171+99999101431ADDGF107991999999999999999999
0029029700999991926041420004+60100+019950FM-12+001499999V0209991C000019999999N0000001N9+00061+99999101261ADDGF108991999999999999999999
0046029700999991926041506004+60100+019950FM-12+001499999V0201401N001019999999N0000001N9+00001+99999101261ADDAJ100009199999999GF108991999999999999999999
0029029700999991926041513004+60100+019950FM-12+001499999V0201601N004119999999N0000001N9+00111+99999101281ADDGF108991999999999999999999
0029029700999991926041520004+60100+019950FM-12+001499999V0201601N003119999999N0000001N9+00111+99999100911ADDGF108991999999999999999999
0046029700999991926041606004+60100+019950FM-12+001499999V0202301N006219999999N0000001N9+00501+99999100431ADDAJ100009199999999GF107991999999999999999999
0029029700999991926041613004+60100+019950FM-12+001499999V0202301N006219999999N0000001N9+00941+99999100381ADDGF100991999999999999999999
0029029700999991926041620004+60100+019950FM-12+001499999V0202301N004119999999N0000001N9+00281+99999100311ADDGF100991999999999999999999
0046029700999991926041706004+60100+019950FM-12+001499999V0202501N001019999999N0000001N9+00281+99999100521ADDAJ100009199999999GF102991999999999999999999
0029029700999991926041713004+60100+019950FM-12+001499999V0201601N001019999999N0000001N9+00891+99999100471ADDGF102991999999999999999999
0029029700999991926041720004+60100+019950FM-12+001499999V0209991C000019999999N0000001N9+00111+99999100431ADDGF100991999999999999999999
0046029700999991926041806004+60100+019950FM-12+001499999V0209991C000019999999N0000001N9+00111+99999100111ADDAJ100009199999999GF108991999999999999999999
0029029700999991926041813004+60100+019950FM-12+001499999V0200901N001019999999N0000001N9+00391+99999100041ADDGF108991999999999999999999
0035029700999991926041820004+60100+019950FM-12+001499999V0209991C000019999999N0000001N9+00221+99999099961ADDGF108991999999999999999999MW1621
0046029700999991926041906004+60100+019950FM-12+001499999V0203401N003119999999N0000001N9+00111+99999099801ADDAJ100009199999999GF108991999999999999999999
0029029700999991926041913004+60100+019950FM-12+001499999V0203201N001019999999N0000001N9+00111+99999099951ADDGF108991999999999999999999
0029029700999991926041920004+60100+019950FM-12+001499999V0209991C000019999999N0000001N9+00061+99999100141ADDGF108991999999999999999999
0046029700999991926042006004+60100+019950FM-12+001499999V0200501N001019999999N0000001N9-00061+99999100281ADDAJ100009199999999GF108991999999999999999999
0029029700999991926042013004+60100+019950FM-12+001499999V0200901N002119999999N0000001N9+00111+99999100361ADDGF108991999999999999999999
0029029700999991926042020004+60100+019950FM-12+001499999V0209991C000019999999N0000001N9+00061+99999100271ADDGF108991999999999999999999
0046029700999991926042106004+60100+019950FM-12+001499999V0201101N001019999999N0000001N9+00111+99999100061ADDAJ100009199999999GF108991999999999999999999
0035029700999991926042113004+60100+019950FM-12+001499999V0200901N004119999999N0000001N9+00171+99999100071ADDGF108991999999999999999999MW1621
0035029700999991926042120004+60100+019950FM-12+001499999V0200701N001019999999N0000001N9+00281+99999099961ADDGF108991999999999999999999MW1621
0052029700999991926042206004+60100+019950FM-12+001499999V0203201N001019999999N0000001N9+00221+99999099471ADDAJ100009199999999GF108991999999999999999999MW1601
0029029700999991926042213004+60100+019950FM-12+001499999V0202301N001019999999N0000001N9+00281+99999100031ADDGF108991999999999999999999
0029029700999991926042220004+60100+019950FM-12+001499999V0202301N001019999999N0000001N9+00221+99999100591ADDGF108991999999999999999999
0046029700999991926042306004+60100+019950FM-12+001499999V0201801N001019999999N0000001N9+00171+99999101101ADDAJ100009199999999GF108991999999999999999999
0029029700999991926042313004+60100+019950FM-12+001499999V0209991C000019999999N0000001N9+00331+99999101681ADDGF108991999999999999999999
0029029700999991926042320004+60100+019950FM-12+001499999V0202301N001019999999N0000001N9+00221+99999101911ADDGF108991999999999999999999
0052029700999991926042406004+60100+019950FM-12+001499999V0200901N002119999999N0000001N9+00111+99999102141ADDAJ100009199999999GF108991999999999999999999MW1601
0029029700999991926042413004+60100+019950FM-12+001499999V0200901N003119999999N0000001N9+00501+99999102231ADDGF106991999999999999999999
0029029700999991926042420004+60100+019950FM-12+001499999V0209991C000019999999N0000001N9+00111+99999102661ADDGF101991999999999999999999
0046029700999991926042506004+60100+019950FM-12+001499999V0200901N001019999999N0000001N9+00281+99999102861ADDAJ100009199999999GF108991999999999999999999
0029029700999991926042513004+60100+019950FM-12+001499999V0200901N001019999999N0000001N9+00501+99999102991ADDGF108991999999999999999999
0029029700999991926042520004+60100+019950FM-12+001499999V0209991C000019999999N0000001N9+00111+99999102981ADDGF108991999999999999999999
0046029700999991926042606004+60100+019950FM-12+001499999V0209991C000019999999N0000001N9+00221+99999102961ADDAJ100009199999999GF101991999999999999999999
0029029700999991926042613004+60100+019950FM-12+001499999V0200901N001019999999N0000001N9+00891+99999102901ADDGF100991999999999999999999
0029029700999991926042620004+60100+019950FM-12+001499999V0209991C000019999999N0000001N9+00331+99999102901ADDGF106991999999999999999999
0046029700999991926042706004+60100+019950FM-12+001499999V0200501N003119999999N0000001N9+00501+99999103061ADDAJ100009199999999GF100991999999999999999999
0029029700999991926042713004+60100+019950FM-12+001499999V0200901N004119999999N0000001N9+01111+99999103081ADDGF100991999999999999999999
0029029700999991926042720004+60100+019950FM-12+001499999V0209991C000019999999N0000001N9+00441+99999103071ADDGF100991999999999999999999
0046029700999991926042806004+60100+019950FM-12+001499999V0200901N004119999999N0000001N9+00281+99999103161ADDAJ100009199999999GF106991999999999999999999
0029029700999991926042813004+60100+019950FM-12+001499999V0200701N005119999999N0000001N9+00721+99999103041ADDGF100991999999999999999999
0029029700999991926042820004+60100+019950FM-12+001499999V0209991C000019999999N0000001N9+00061+99999102941ADDGF101991999999999999999999
0046029700999991926042906004+60100+019950FM-12+001499999V0200901N004119999999N0000001N9+00391+99999102841ADDAJ100009199999999GF101991999999999999999999
0029029700999991926042913004+60100+019950FM-12+001499999V0200901N001019999999N0000001N9+01061+99999102521ADDGF100991999999999999999999
0029029700999991926042920004+60100+019950FM-12+001499999V0209991C000019999999N0000001N9+00111+99999102301ADDGF100991999999999999999999
0046029700999991926043006004+60100+019950FM-12+001499999V0209991C000019999999N0000001N9+00501+99999102111ADDAJ100009199999999GF106991999999999999999999
0029029700999991926043013004+60100+019950FM-12+001499999V0201401N004119999999N0000001N9+01171+99999101991ADDGF101991999999999999999999
0029029700999991926043020004+60100+019950FM-12+001499999V0209991C000019999999N0000001N9+00561+99999101941ADDGF106991999999999999999999
0046029700999991926050106004+60100+019950FM-12+001499999V0203201N001019999999N0000001N9+00671+99999101791ADDAJ100009199999999GF108991999999999999999999
0029029700999991926050113004+60100+019950FM-12+001499999V0202301N001019999999N0000001N9+01111+99999101591ADDGF107991999999999999999999
0029029700999991926050120004+60100+019950FM-12+001499999V0203601N001019999999N0000001N9+00561+99999101471ADDGF102991999999999999999999
0046029700999991926050206004+60100+019950FM-12+001499999V0200501N004119999999N0000001N9+00781+99999101421ADDAJ100009199999999GF100991999999999999999999
0029029700999991926050213004+60100+019950FM-12+001499999V0200501N005119999999N0000001N9+00891+99999101391ADDGF100991999999999999999999
0029029700999991926050220004+60100+019950FM-12+001499999V0200501N006219999999N0000001N9+00391+99999101241ADDGF102991999999999999999999
0046029700999991926050306004+60100+019950FM-12+001499999V0203401N004119999999N0000001N9+00391+99999101101ADDAJ100009199999999GF108991999999999999999999
0029029700999991926050313004+60100+019950FM-12+001499999V0200201N008219999999N0000001N9+00611+99999101141ADDGF105991999999999999999999
0029029700999991926050320004+60100+019950FM-12+001499999V0209991C000019999999N0000001N9+00111+99999101161ADDGF100991999999999999999999
0046029700999991926050406004+60100+019950FM-12+001499999V0209991C000019999999N0000001N9+00281+99999101351ADDAJ100009199999999GF106991999999999999999999
0029029700999991926050413004+60100+019950FM-12+001499999V0209991C000019999999N0000001N9+00781+99999101541ADDGF106991999999999999999999
0029029700999991926050420004+60100+019950FM-12+001499999V0209991C000019999999N0000001N9-00061+99999101621ADDGF101991999999999999999999
0046029700999991926050506004+60100+019950FM-12+001499999V0201401N007219999999N0000001N9+00221+99999101681ADDAJ100009199999999GF108991999999999999999999
0029029700999991926050513004+60100+019950FM-12+001499999V0201401N007219999999N0000001N9+00221+99999101711ADDGF102991999999999999999999
0029029700999991926050520004+60100+019950FM-12+001499999V0201401N003119999999N0000001N9+00001+99999101661ADDGF102991999999999999999999
0046029700999991926050606004+60100+019950FM-12+001499999V0201401N003119999999N0000001N9+00171+99999101391ADDAJ100009199999999GF108991999999999999999999
0029029700999991926050613004+60100+019950FM-12+001499999V0201401N005119999999N0000001N9+00331+99999101311ADDGF108991999999999999999999
0029029700999991926050620004+60100+019950FM-12+001499999V0201401N005119999999N0000001N9+00281+99999101191ADDGF108991999999999999999999
0046029700999991926050706004+60100+019950FM-12+001499999V0201101N003119999999N0000001N9+00171+99999100951ADDAJ100009199999999GF108991999999999999999999
0035029700999991926050713004+60100+019950FM-12+001499999V0201401N001019999999N0000001N9+00331+99999101101ADDGF108991999999999999999999MW1601
0029029700999991926050720004+60100+019950FM-12+001499999V0201401N001019999999N0000001N9+00281+99999101071ADDGF108991999999999999999999
0052029700999991926050806004+60100+019950FM-12+001499999V0209991C000019999999N0000001N9+00331+99999100881ADDAJ100009199999999GF108991999999999999999999MW1621
0029029700999991926050813004+60100+019950FM-12+001499999V0209991C000019999999N0000001N9+00501+99999100921ADDGF108991999999999999999999
0035029700999991926050820004+60100+019950FM-12+001499999V0209991C000019999999N0000001N9+00441+99999100901ADDGF108991999999999999999999MW1601
0052029700999991926050906004+60100+019950FM-12+001499999V0200901N003119999999N0000001N9+00281+99999100671ADDAJ100009199999999GF108991999999999999999999MW1621
0035029700999991926050913004+60100+019950FM-12+001499999V0200901N004119999999N0000001N9+00441+99999100481ADDGF108991999999999999999999MW1621
0029029700999991926050920004+60100+019950FM-12+001499999V0200901N004119999999N0000001N9+00391+99999100241ADDGF108991999999999999999999
0052029700999991926051006004+60100+019950FM-12+001499999V0200501N005119999999N0000001N9+00391+99999099741ADDAJ100009199999999GF108991999999999999999999MW1621
0029029700999991926051013004+60100+019950FM-12+001499999V0200901N005119999999N0000001N9+00561+99999099671ADDGF107991999999999999999999
0035029700999991926051020004+60100+019950FM-12+001499999V0200901N005119999999N0000001N9+00281+99999099781ADDGF108991999999999999999999MW1601
0046029700999991926051106004+60100+019950FM-12+001499999V0201401N007219999999N0000001N9+00281+99999100041ADDAJ100009199999999GF108991999999999999999999
0029029700999991926051113004+60100+019950FM-12+001499999V0201601N003119999999N0000001N9+00391+99999100281ADDGF108991999999999999999999
0029029700999991926051120004+60100+019950FM-12+001499999V0201801N001019999999N0000001N9+00331+99999100381ADDGF108991999999999999999999
0046029700999991926051206004+60100+019950FM-12+001499999V0201801N003119999999N0000001N9+00561+99999100631ADDAJ100009199999999GF102991999999999999999999
0029029700999991926051213004+60100+019950FM-12+001499999V0201401N003119999999N0000001N9+00671+99999100791ADDGF106991999999999999999999
0029029700999991926051220004+60100+019950FM-12+001499999V0201401N001019999999N0000001N9+00441+99999100701ADDGF105991999999999999999999
0046029700999991926051306004+60100+019950FM-12+001499999V0202301N003119999999N0000001N9+00501+99999100551ADDAJ100009199999999GF108991999999999999999999
0029029700999991926051313004+60100+019950FM-12+001499999V0202301N003119999999N0000001N9+00941+99999100901ADDGF102991999999999999999999
0029029700999991926051320004+60100+019950FM-12+001499999V0209991C000019999999N0000001N9+00561+99999101041ADDGF108991999999999999999999
0046029700999991926051406004+60100+019950FM-12+001499999V0201401N002119999999N0000001N9+00611+99999100841ADDAJ100009199999999GF108991999999999999999999
0029029700999991926051413004+60100+019950FM-12+001499999V0202301N006219999999N0000001N9+01001+99999100841ADDGF106991999999999999999999
0029029700999991926051420004+60100+019950FM-12+001499999V0202301N005119999999N0000001N9+00611+99999100871ADDGF108991999999999999999999
0046029700999991926051506004+60100+019950FM-12+001499999V0202301N004119999999N0000001N9+00611+99999101081ADDAJ100009199999999GF101991999999999999999999
0029029700999991926051513004+60100+019950FM-12+001499999V0202301N006219999999N0000001N9+01061+99999101271ADDGF104991999999999999999999
0029029700999991926051520004+60100+019950FM-12+001499999V0209991C000019999999N0000001N9+00501+99999101341ADDGF107991999999999999999999
0046029700999991926051606004+60100+019950FM-12+001499999V0202001N001019999999N0000001N9+00721+99999101341ADDAJ100009199999999GF108991999999999999999999
0029029700999991926051613004+60100+019950FM-12+001499999V0209991C000019999999N0000001N9+01001+99999101041ADDGF108991999999999999999999
0029029700999991926051620004+60100+019950FM-12+001499999V0209991C000019999999N0000001N9+00721+99999100861ADDGF108991999999999999999999
0052029700999991926051706004+60100+019950FM-12+001499999V0200701N004119999999N0000001N9+00671+99999100161ADDAJ100009199999999GF108991999999999999999999MW1601
0029029700999991926051713004+60100+019950FM-12+001499999V0202001N001019999999N0000001N9+00941+99999099881ADDGF100991999999999999999999
0029029700999991926051720004+60100+019950FM-12+001499999V0201801N001019999999N0000001N9+00561+99999100181ADDGF102991999999999999999999
0046029700999991926051806004+60100+019950FM-12+001499999V0209991C000019999999N0000001N9+00721+99999100751ADDAJ100009199999999GF108991999999999999999999
0029029700999991926051813004+60100+019950FM-12+001499999V0202301N003119999999N0000001N9+00891+99999101191ADDGF108991999999999999999999
0029029700999991926051820004+60100+019950FM-12+001499999V0202301N003119999999N0000001N9+00781+99999101421ADDGF108991999999999999999999
0046029700999991926051906004+60100+019950FM-12+001499999V0200501N006219999999N0000001N9+00831+99999101591ADDAJ100009199999999GF104991999999999999999999
0029029700999991926051913004+60100+019950FM-12+001499999V0200701N001019999999N0000001N9+01001+99999101681ADDGF105991999999999999999999
0029029700999991926051920004+60100+019950FM-12+001499999V0200501N001019999999N0000001N9+00611+99999101761ADDGF108991999999999999999999
0046029700999991926052006004+60100+019950FM-12+001499999V0209991C000019999999N0000001N9+00941+99999101781ADDAJ100009199999999GF105991999999999999999999
0029029700999991926052013004+60100+019950FM-12+001499999V0201601N002119999999N0000001N9+01111+99999101801ADDGF108991999999999999999999
0035029700999991926052020004+60100+019950FM-12+001499999V0209991C000019999999N0000001N9+00941+99999101671ADDGF108991999999999999999999MW1601
0046029700999991926052106004+60100+019950FM-12+001499999V0201401N005119999999N0000001N9+00831+99999101631ADDAJ100009199999999GF106991999999999999999999
0029029700999991926052113004+60100+019950FM-12+001499999V0202501N001019999999N0000001N9+00891+99999101791ADDGF102991999999999999999999
0029029700999991926052120004+60100+019950FM-12+001499999V0203201N001019999999N0000001N9+00891+99999101921ADDGF108991999999999999999999
0052029700999991926052206004+60100+019950FM-12+001499999V0203201N001019999999N0000001N9+00831+99999102081ADDAJ100009199999999GF108991999999999999999999MW1601
0029029700999991926052213004+60100+019950FM-12+001499999V0200901N001019999999N0000001N9+01441+99999102021ADDGF106991999999999999999999
0029029700999991926052220004+60100+019950FM-12+001499999V0200501N001019999999N0000001N9+00831+99999101831ADDGF106991999999999999999999
0046029700999991926052306004+60100+019950FM-12+001499999V0200901N001019999999N0000001N9+01281+99999101561ADDAJ100009199999999GF106991999999999999999999
0029029700999991926052313004+60100+019950FM-12+001499999V0200701N001019999999N0000001N9+01441+99999101391ADDGF108991999999999999999999
0029029700999991926052320004+60100+019950FM-12+001499999V0209991C000019999999N0000001N9+00941+99999101201ADDGF104991999999999999999999
0046029700999991926052406004+60100+019950FM-12+001499999V0209991C000019999999N0000001N9+00891+99999101101ADDAJ100009199999999GF108991999999999999999999
0035029700999991926052413004+60100+019950FM-12+001499999V0200201N003119999999N0000001N9+01061+99999101151ADDGF108991999999999999999999MW1601
0029029700999991926052420004+60100+019950FM-12+001499999V0200201N003119999999N0000001N9+00721+99999101221ADDGF108991999999999999999999
0046029700999991926052506004+60100+019950FM-12+001499999V0203401N003119999999N0000001N9+00721+99999101441ADDAJ100009199999999GF106991999999999999999999
0029029700999991926052513004+60100+019950FM-12+001499999V0203601N006219999999N0000001N9+01001+99999101881ADDGF100991999999999999999999
0029029700999991926052520004+60100+019950FM-12+001499999V0209991C000019999999N0000001N9+00391+99999101951ADDGF103991999999999999999999
0046029700999991926052606004+60100+019950FM-12+001499999V0202301N003119999999N0000001N9+00781+99999101701ADDAJ100009199999999GF106991999999999999999999
0029029700999991926052613004+60100+019950FM-12+001499999V0203201N003119999999N0000001N9+01171+99999101801ADDGF106991999999999999999999
0029029700999991926052620004+60100+019950FM-12+001499999V0200501N001019999999N0000001N9+00611+99999101871ADDGF108991999999999999999999
0046029700999991926052706004+60100+019950FM-12+001499999V0201101N001019999999N0000001N9+00831+99999101741ADDAJ100009199999999GF102991999999999999999999
0029029700999991926052713004+60100+019950FM-12+001499999V0202301N002119999999N0000001N9+01061+99999101641ADDGF105991999999999999999999
0029029700999991926052720004+60100+019950FM-12+001499999V0209991C000019999999N0000001N9+00781+99999101511ADDGF108991999999999999999999
0046029700999991926052806004+60100+019950FM-12+001499999V0209991C000019999999N0000001N9+00781+99999101351ADDAJ100009199999999GF106991999999999999999999
0029029700999991926052813004+60100+019950FM-12+001499999V0202301N001019999999N0000001N9+01331+99999101301ADDGF102991999999999999999999
0029029700999991926052820004+60100+019950FM-12+001499999V0201401N003119999999N0000001N9+00781+99999101271ADDGF106991999999999999999999
0046029700999991926052906004+60100+019950FM-12+001499999V0201401N003119999999N0000001N9+01331+99999101001ADDAJ100009199999999GF102991999999999999999999
0029029700999991926052913004+60100+019950FM-12+001499999V0201401N005119999999N0000001N9+01001+99999100921ADDGF108991999999999999999999
0029029700999991926052920004+60100+019950FM-12+001499999V0201401N001019999999N0000001N9+01111+99999100791ADDGF108991999999999999999999
0046029700999991926053006004+60100+019950FM-12+001499999V0201101N002119999999N0000001N9+01221+99999100581ADDAJ100009199999999GF106991999999999999999999
0029029700999991926053013004+60100+019950FM-12+001499999V0201601N002119999999N0000001N9+01061+99999100551ADDGF108991999999999999999999
0029029700999991926053020004+60100+019950FM-12+001499999V0209991C000019999999N0000001N9+00781+99999100551ADDGF108991999999999999999999
0046029700999991926053106004+60100+019950FM-12+001499999V0202001N001019999999N0000001N9+01061+99999100431ADDAJ100009199999999GF106991999999999999999999
0029029700999991926053113004+60100+019950FM-12+001499999V0201601N004119999999N0000001N9+01061+99999100461ADDGF108991999999999999999999
0029029700999991926053120004+60100+019950FM-12+001499999V0201801N006219999999N0000001N9+00941+99999100421ADDGF108991999999999999999999
0046029700999991926060106004+60100+019950FM-12+001499999V0209991C000019999999N0000001N9+00781+99999100791ADDAJ100009199999999GF106991999999999999999999
0035029700999991926060113004+60100+019950FM-12+001499999V0201401N002119999999N0000001N9+01111+99999100881ADDGF108991999999999999999999MW1621
0029029700999991926060120004+60100+019950FM-12+001499999V0209991C000019999999N0000001N9+01221+99999100401ADDGF108991999999999999999999
0046029700999991926060206004+60100+019950FM-12+001499999V0202301N002119999999N0000001N9+00891+99999100881ADDAJ100009199999999GF108991999999999999999999
0029029700999991926060213004+60100+019950FM-12+001499999V0202001N003119999999N0000001N9+01331+99999101321ADDGF102991999999999999999999
0029029700999991926060220004+60100+019950FM-12+001499999V0202301N005119999999N0000001N9+00891+99999101561ADDGF101991999999999999999999
0046029700999991926060306004+60100+019950FM-12+001499999V0209991C000019999999N0000001N9+01171+99999101641ADDAJ100009199999999GF106991999999999999999999
0029029700999991926060313004+60100+019950FM-12+001499999V0200901N004119999999N0000001N9+01781+99999101581ADDGF106991999999999999999999
0029029700999991926060320004+60100+019950FM-12+001499999V0200901N001019999999N0000001N9+01221+99999101391ADDGF108991999999999999999999
0046029700999991926060406004+60100+019950FM-12+001499999V0200901N001019999999N0000001N9+01221+99999101181ADDAJ100009199999999GF108991999999999999999999
0029029700999991926060413004+60100+019950FM-12+001499999V0201401N001019999999N0000001N9+01671+99999101391ADDGF103991999999999999999999
0029029700999991926060420004+60100+019950FM-12+001499999V0209991C000019999999N0000001N9+01441+99999101521ADDGF108991999999999999999999
0046029700999991926060506004+60100+019950FM-12+001499999V0209991C000019999999N0000001N9+01721+99999101551ADDAJ100009199999999GF102991999999999999999999
0029029700999991926060513004+60100+019950FM-12+001499999V0201401N001019999999N0000001N9+01941+99999101671ADDGF100991999999999999999999
0029029700999991926060520004+60100+019950FM-12+001499999V0209991C000019999999N0000001N9+01561+99999101681ADDGF100991999999999999999999
0046029700999991926060606004+60100+019950FM-12+001499999V0209991C000019999999N0000001N9+01891+99999101711ADDAJ100009199999999GF100991999999999999999999
0029029700999991926060613004+60100+019950FM-12+001499999V0209991C000019999999N0000001N9+02441+99999101701ADDGF100991999999999999999999
0029029700999991926060620004+60100+019950FM-12+001499999V0202301N001019999999N0000001N9+01611+99999101741ADDGF101991999999999999999999
0046029700999991926060706004+60100+019950FM-12+001499999V0200501N001019999999N0000001N9+01941+99999101591ADDAJ100009199999999GF106991999999999999999999
0029029700999991926060713004+60100+019950FM-12+001499999V0209991C000019999999N0000001N9+02221+99999101441ADDGF102991999999999999999999
0029029700999991926060720004+60100+019950FM-12+001499999V0200901N001019999999N0000001N9+01721+99999101341ADDGF102991999999999999999999
0046029700999991926060806004+60100+019950FM-12+001499999V0209991C000019999999N0000001N9+02001+99999101061ADDAJ100009199999999GF100991999999999999999999
0029029700999991926060813004+60100+019950FM-12+001499999V0200201N003119999999N0000001N9+02441+99999100871ADDGF102991999999999999999999
0029029700999991926060820004+60100+019950FM-12+001499999V0200501N003119999999N0000001N9+01721+99999100701ADDGF105991999999999999999999
0046029700999991926060906004+60100+019950FM-12+001499999V0200701N001019999999N0000001N9+01561+99999100901ADDAJ100009199999999GF108991999999999999999999
0035029700999991926060913004+60100+019950FM-12+001499999V0209991C000019999999N0000001N9+01171+99999101301ADDGF108991999999999999999999MW1601
0029029700999991926060920004+60100+019950FM-12+001499999V0201401N003119999999N0000001N9+00941+99999101541ADDGF108991999999999999999999
0046029700999991926061006004+60100+019950FM-12+001499999V0200901N007219999999N0000001N9+01061+99999101561ADDAJ100009199999999GF100991999999999999999999
0029029700999991926061013004+60100+019950FM-12+001499999V0200901N015919999999N0000001N9+01391+99999101551ADDGF100991999999999999999999
0029029700999991926061020004+60100+019950FM-12+001499999V0200901N005119999999N0000001N9+00941+99999101551ADDGF100991999999999999999999
0046029700999991926061106004+60100+019950FM-12+001499999V0200901N006219999999N0000001N9+01111+99999101511ADDAJ100009199999999GF100991999999999999999999
0029029700999991926061113004+60100+019950FM-12+001499999V0200901N011819999999N0000001N9+01441+99999101501ADDGF100991999999999999999999
0029029700999991926061120004+60100+019950FM-12+001499999V0200901N008719999999N0000001N9+01111+99999101471ADDGF100991999999999999999999
0046029700999991926061206004+60100+019950FM-12+001499999V0200901N009819999999N0000001N9+01171+99999101551ADDAJ100009199999999GF100991999999999999999999
0029029700999991926061213004+60100+019950FM-12+001499999V0200901N009819999999N0000001N9+01441+99999101701ADDGF100991999999999999999999
0029029700999991926061220004+60100+019950FM-12+001499999V0201101N003119999999N0000001N9+01061+99999101781ADDGF100991999999999999999999
0046029700999991926061306004+60100+019950FM-12+001499999V0201101N003119999999N0000001N9+01331+99999101941ADDAJ100009199999999GF100991999999999999999999
0029029700999991926061313004+60100+019950FM-12+001499999V0201401N007219999999N0000001N9+01561+99999102081ADDGF100991999999999999999999
0029029700999991926061320004+60100+019950FM-12+001499999V0201401N001019999999N0000001N9+01111+99999102021ADDGF100991999999999999999999
0046029700999991926061406004+60100+019950FM-12+001499999V0201101N001019999999N0000001N9+01441+99999101941ADDAJ100009199999999GF100991999999999999999999
0029029700999991926061413004+60100+019950FM-12+001499999V0202301N002119999999N0000001N9+01781+99999101791ADDGF100991999999999999999999
0029029700999991926061420004+60100+019950FM-12+001499999V0209991C000019999999N0000001N9+01171+99999101551ADDGF100991999999999999999999
0046029700999991926061506004+60100+019950FM-12+001499999V0202301N001019999999N0000001N9+01671+99999101351ADDAJ100009199999999GF102991999999999999999999
0029029700999991926061513004+60100+019950FM-12+001499999V0200901N001019999999N0000001N9+02001+99999101191ADDGF100991999999999999999999
0029029700999991926061520004+60100+019950FM-12+001499999V0209991C000019999999N0000001N9+01331+99999100981ADDGF104991999999999999999999
0046029700999991926061606004+60100+019950FM-12+001499999V0209991C000019999999N0000001N9+01501+99999100721ADDAJ100009199999999GF108991999999999999999999
0029029700999991926061613004+60100+019950FM-12+001499999V0203601N007219999999N0000001N9+01561+99999100721ADDGF100991999999999999999999
0029029700999991926061620004+60100+019950FM-12+001499999V0203401N008219999999N0000001N9+00831+99999100671ADDGF102991999999999999999999
0046029700999991926061706004+60100+019950FM-12+001499999V0200201N007219999999N0000001N9+01111+99999100661ADDAJ100009199999999GF107991999999999999999999
0029029700999991926061713004+60100+019950FM-12+001499999V0202901N007219999999N0000001N9+01001+99999100741ADDGF108991999999999999999999
0029029700999991926061720004+60100+019950FM-12+001499999V0203601N001019999999N0000001N9+00561+99999100511ADDGF106991999999999999999999
0046029700999991926061806004+60100+019950FM-12+001499999V0200501N005119999999N0000001N9+00721+99999100431ADDAJ100009199999999GF106991999999999999999999
0029029700999991926061813004+60100+019950FM-12+001499999V0200501N006219999999N0000001N9+00941+99999100501ADDGF105991999999999999999999
0029029700999991926061820004+60100+019950FM-12+001499999V0209991C000019999999N0000001N9+00561+99999100621ADDGF100991999999999999999999
0046029700999991926061906004+60100+019950FM-12+001499999V0202301N003119999999N0000001N9+00941+99999100671ADDAJ100009199999999GF103991999999999999999999
0029029700999991926061913004+60100+019950FM-12+001499999V0202301N005119999999N0000001N9+01391+99999100711ADDGF106991999999999999999999
0029029700999991926061920004+60100+019950FM-12+001499999V0202301N001019999999N0000001N9+00941+99999100721ADDGF101991999999999999999999
0046029700999991926062006004+60100+019950FM-12+001499999V0202001N002119999999N0000001N9+01171+99999100541ADDAJ100009199999999GF108991999999999999999999
0029029700999991926062013004+60100+019950FM-12+001499999V0202301N006219999999N0000001N9+01331+99999100361ADDGF106991999999999999999999
0029029700999991926062020004+60100+019950FM-12+001499999V0209991C000019999999N0000001N9+00831+99999100401ADDGF106991999999999999999999
0046029700999991926062106004+60100+019950FM-12+001499999V0203601N001019999999N0000001N9+00941+99999100671ADDAJ100009199999999GF103991999999999999999999
0029029700999991926062113004+60100+019950FM-12+001499999V0202301N005119999999N0000001N9+01221+99999100641ADDGF102991999999999999999999
0029029700999991926062120004+60100+019950FM-12+001499999V0201801N005119999999N0000001N9+01001+99999100311ADDGF108991999999999999999999
0046029700999991926062206004+60100+019950FM-12+001499999V0202701N005119999999N0000001N9+01111+99999100081ADDAJ100009199999999GF108991999999999999999999
0029029700999991926062213004+60100+019950FM-12+001499999V0202701N001019999999N0000001N9+01441+99999100341ADDGF107991999999999999999999
0029029700999991926062220004+60100+019950FM-12+001499999V0201601N001019999999N0000001N9+01111+99999100261ADDGF101991999999999999999999
0046029700999991926062306004+60100+019950FM-12+001499999V0202301N005119999999N0000001N9+01171+99999099641ADDAJ100009199999999GF107991999999999999999999
0029029700999991926062313004+60100+019950FM-12+001499999V0202301N007219999999N0000001N9+01281+99999100151ADDGF102991999999999999999999
0029029700999991926062320004+60100+019950FM-12+001499999V0202301N007219999999N0000001N9+01061+99999100311ADDGF101991999999999999999999
0046029700999991926062406004+60100+019950FM-12+001499999V0202501N005119999999N0000001N9+01221+99999100741ADDAJ100009199999999GF100991999999999999999999
0029029700999991926062413004+60100+019950FM-12+001499999V0202301N005119999999N0000001N9+01441+99999101021ADDGF100991999999999999999999
0029029700999991926062420004+60100+019950FM-12+001499999V0201801N003119999999N0000001N9+01001+99999101031ADDGF103991999999999999999999
0046029700999991926062506004+60100+019950FM-12+001499999V0209991C000019999999N0000001N9+01171+99999101181ADDAJ100009199999999GF103991999999999999999999
0029029700999991926062513004+60100+019950FM-12+001499999V0202001N003119999999N0000001N9+01561+99999101381ADDGF100991999999999999999999
0029029700999991926062520004+60100+019950FM-12+001499999V0201601N001019999999N0000001N9+01111+99999101541ADDGF108991999999999999999999
0046029700999991926062606004+60100+019950FM-12+001499999V0201601N001019999999N0000001N9+01331+99999101621ADDAJ100009199999999GF100991999999999999999999
0029029700999991926062613004+60100+019950FM-12+001499999V0201601N001019999999N0000001N9+01501+99999101701ADDGF108991999999999999999999
0029029700999991926062620004+60100+019950FM-12+001499999V0209991C000019999999N0000001N9+01111+99999101751ADDGF104991999999999999999999
0046029700999991926062706004+60100+019950FM-12+001499999V0209991C000019999999N0000001N9+01281+99999101711ADDAJ100009199999999GF108991999999999999999999
0029029700999991926062713004+60100+019950FM-12+001499999V0202301N003119999999N0000001N9+01671+99999101701ADDGF108991999999999999999999
0029029700999991926062720004+60100+019950FM-12+001499999V0209991C000019999999N0000001N9+01331+99999101781ADDGF108991999999999999999999
0046029700999991926062806004+60100+019950FM-12+001499999V0202301N003119999999N0000001N9+01501+99999101921ADDAJ100009199999999GF104991999999999999999999
0029029700999991926062813004+60100+019950FM-12+001499999V0202301N003119999999N0000001N9+01831+99999102061ADDGF103991999999999999999999
0029029700999991926062820004+60100+019950FM-12+001499999V0202301N001019999999N0000001N9+01391+99999102141ADDGF102991999999999999999999
0046029700999991926062906004+60100+019950FM-12+001499999V0202301N001019999999N0000001N9+01561+99999102231ADDAJ100009199999999GF100991999999999999999999
0029029700999991926062913004+60100+019950FM-12+001499999V0202501N003119999999N0000001N9+01831+99999102281ADDGF102991999999999999999999
0029029700999991926062920004+60100+019950FM-12+001499999V0209991C000019999999N0000001N9+01331+99999102321ADDGF100991999999999999999999
0046029700999991926063006004+60100+019950FM-12+001499999V0209991C000019999999N0000001N9+01671+99999102421ADDAJ100009199999999GF100991999999999999999999
0029029700999991926063013004+60100+019950FM-12+001499999V0202901N005119999999N0000001N9+02061+99999102461ADDGF100991999999999999999999
0029029700999991926063020004+60100+019950FM-12+001499999V0209991C000019999999N0000001N9+01331+99999102481ADDGF100991999999999999999999
0046029700999991926070106004+60100+019950FM-12+001499999V0209991C000019999999N0000001N9+01781+99999102601ADDAJ100009199999999GF100991999999999999999999
0029029700999991926070113004+60100+019950FM-12+001499999V0202301N005119999999N0000001N9+02061+99999102701ADDGF100991999999999999999999
0029029700999991926070120004+60100+019950FM-12+001499999V0209991C000019999999N0000001N9+01501+99999102681ADDGF100991999999999999999999
0046029700999991926070206004+60100+019950FM-12+001499999V0209991C000019999999N0000001N9+01891+99999102751ADDAJ100009199999999GF100991999999999999999999
0029029700999991926070213004+60100+019950FM-12+001499999V0202301N002119999999N0000001N9+02221+99999102751ADDGF100991999999999999999999
0029029700999991926070220004+60100+019950FM-12+001499999V0209991C000019999999N0000001N9+01561+99999102471ADDGF106991999999999999999999
0046029700999991926070306004+60100+019950FM-12+001499999V0202301N002119999999N0000001N9+01721+99999102221ADDAJ100009199999999GF106991999999999999999999
0029029700999991926070313004+60100+019950FM-12+001499999V0203201N003119999999N0000001N9+02281+99999102101ADDGF107991999999999999999999
0029029700999991926070320004+60100+019950FM-12+001499999V0200201N001019999999N0000001N9+01501+99999102031ADDGF102991999999999999999999
0046029700999991926070406004+60100+019950FM-12+001499999V0203201N006219999999N0000001N9+01611+99999101921ADDAJ100009199999999GF100991999999999999999999
0029029700999991926070413004+60100+019950FM-12+001499999V0203401N006219999999N0000001N9+01781+99999101911ADDGF100991999999999999999999
0029029700999991926070420004+60100+019950FM-12+001499999V0203601N004119999999N0000001N9+01331+99999101841ADDGF100991999999999999999999
0046029700999991926070506004+60100+019950FM-12+001499999V0209991C000019999999N0000001N9+01671+99999101871ADDAJ100009199999999GF100991999999999999999999
0029029700999991926070513004+60100+019950FM-12+001499999V0203201N004119999999N0000001N9+02061+99999101831ADDGF100991999999999999999999
0029029700999991926070520004+60100+019950FM-12+001499999V0209991C000019999999N0000001N9+01331+99999101761ADDGF100991999999999999999999
0046029700999991926070606004+60100+019950FM-12+001499999V0200501N001019999999N0000001N9+01611+99999101621ADDAJ100009199999999GF100991999999999999999999
0029029700999991926070613004+60100+019950FM-12+001499999V0201401N004119999999N0000001N9+01781+99999101501ADDGF100991999999999999999999
0029029700999991926070620004+60100+019950FM-12+001499999V0202001N001019999999N0000001N9+01501+99999101271ADDGF100991999999999999999999
0046029700999991926070706004+60100+019950FM-12+001499999V0202001N001019999999N0000001N9+01781+99999101301ADDAJ100009199999999GF100991999999999999999999
0029029700999991926070713004+60100+019950FM-12+001499999V0202301N005119999999N0000001N9+02221+99999101541ADDGF101991999999999999999999
0029029700999991926070720004+60100+019950FM-12+001499999V0209991C000019999999N0000001N9+01441+99999101541ADDGF100991999999999999999999
0046029700999991926070806004+60100+019950FM-12+001499999V0200501N002119999999N0000001N9+01611+99999101661ADDAJ100009199999999GF102991999999999999999999
0029029700999991926070813004+60100+019950FM-12+001499999V0202001N007219999999N0000001N9+01831+99999101831ADDGF102991999999999999999999
0029029700999991926070820004+60100+019950FM-12+001499999V0209991C000019999999N0000001N9+01391+99999101801ADDGF102991999999999999999999
0046029700999991926070906004+60100+019950FM-12+001499999V0202301N003119999999N0000001N9+01501+99999101841ADDAJ100009199999999GF100991999999999999999999
0029029700999991926070913004+60100+019950FM-12+001499999V0202301N005119999999N0000001N9+01891+99999101841ADDGF100991999999999999999999
0029029700999991926070920004+60100+019950FM-12+001499999V0201801N001019999999N0000001N9+01501+99999101721ADDGF101991999999999999999999
0046029700999991926071006004+60100+019950FM-12+001499999V0201801N001019999999N0000001N9+01671+99999101581ADDAJ100009199999999GF101991999999999999999999
0029029700999991926071013004+60100+019950FM-12+001499999V0202301N002119999999N0000001N9+02001+99999101481ADDGF100991999999999999999999
0029029700999991926071020004+60100+019950FM-12+001499999V0209991C000019999999N0000001N9+01611+99999101391ADDGF100991999999999999999999
0046029700999991926071106004+60100+019950FM-12+001499999V0201801N005119999999N0000001N9+01781+99999101461ADDAJ100009199999999GF102991999999999999999999
0029029700999991926071113004+60100+019950FM-12+001499999V0202301N003119999999N0000001N9+02001+99999101501ADDGF103991999999999999999999
0029029700999991926071120004+60100+019950FM-12+001499999V0202301N003119999999N0000001N9+01721+99999101511ADDGF100991999999999999999999
0046029700999991926071206004+60100+019950FM-12+001499999V0202301N003119999999N0000001N9+01781+99999101421ADDAJ100009199999999GF107991999999999999999999
0029029700999991926071213004+60100+019950FM-12+001499999V0203201N003119999999N0000001N9+02561+99999101381ADDGF108991999999999999999999
0029029700999991926071220004+60100+019950FM-12+001499999V0209991C000019999999N0000001N9+01781+99999101661ADDGF106991999999999999999999
0046029700999991926071306004+60100+019950FM-12+001499999V0202301N005119999999N0000001N9+01941+99999101711ADDAJ100009199999999GF101991999999999999999999
0029029700999991926071313004+60100+019950FM-12+001499999V0202301N005119999999N0000001N9+02331+99999101431ADDGF100991999999999999999999
0029029700999991926071320004+60100+019950FM-12+001499999V0202301N002119999999N0000001N9+02221+99999101311ADDGF100991999999999999999999
0046029700999991926071406004+60100+019950FM-12+001499999V0200201N001019999999N0000001N9+02111+99999101541ADDAJ100009199999999GF100991999999999999999999
0029029700999991926071413004+60100+019950FM-12+001499999V0201601N002119999999N0000001N9+02391+99999101321ADDGF100991999999999999999999
0029029700999991926071420004+60100+019950FM-12+001499999V0202301N007219999999N0000001N9+02061+99999100431ADDGF100991999999999999999999
0046029700999991926071506004+60100+019950FM-12+001499999V0203201N007219999999N0000001N9+01671+99999100801ADDAJ100009199999999GF103991999999999999999999
0029029700999991926071513004+60100+019950FM-12+001499999V0202901N007219999999N0000001N9+01891+99999100961ADDGF106991999999999999999999
0029029700999991926071520004+60100+019950FM-12+001499999V0203201N001019999999N0000001N9+01441+99999100961ADDGF101991999999999999999999
0046029700999991926071606004+60100+019950FM-12+001499999V0203601N006219999999N0000001N9+01441+99999101261ADDAJ100009199999999GF107991999999999999999999
0029029700999991926071613004+60100+019950FM-12+001499999V0200701N008219999999N0000001N9+01441+99999101481ADDGF102991999999999999999999
0029029700999991926071620004+60100+019950FM-12+001499999V0203601N002119999999N0000001N9+01001+99999101461ADDGF103991999999999999999999
0046029700999991926071706004+60100+019950FM-12+001499999V0202301N003119999999N0000001N9+01391+99999101461ADDAJ100009199999999GF108991999999999999999999
0029029700999991926071713004+60100+019950FM-12+001499999V0202301N003119999999N0000001N9+01501+99999101401ADDGF106991999999999999999999
0029029700999991926071720004+60100+019950FM-12+001499999V0209991C000019999999N0000001N9+01501+99999101461ADDGF108991999999999999999999
0046029700999991926071806004+60100+019950FM-12+001499999V0201401N003119999999N0000001N9+01611+99999101511ADDAJ100009199999999GF100991999999999999999999
0029029700999991926071813004+60100+019950FM-12+001499999V0201601N004119999999N0000001N9+01781+99999101361ADDGF106991999999999999999999
0029029700999991926071820004+60100+019950FM-12+001499999V0209991C000019999999N0000001N9+01501+99999101121ADDGF101991999999999999999999
0046029700999991926071906004+60100+019950FM-12+001499999V0202301N005119999999N0000001N9+01671+99999100951ADDAJ100009199999999GF100991999999999999999999
0029029700999991926071913004+60100+019950FM-12+001499999V0202301N003119999999N0000001N9+02171+99999100911ADDGF100991999999999999999999
0029029700999991926071920004+60100+019950FM-12+001499999V0202301N003119999999N0000001N9+01721+99999100881ADDGF102991999999999999999999
0046029700999991926072006004+60100+019950FM-12+001499999V0202301N001019999999N0000001N9+01781+99999100381ADDAJ100009199999999GF108991999999999999999999
0029029700999991926072013004+60100+019950FM-12+001499999V0201801N001019999999N0000001N9+01891+99999100281ADDGF107991999999999999999999
0029029700999991926072020004+60100+019950FM-12+001499999V0201601N001019999999N0000001N9+01671+99999100181ADDGF103991999999999999999999
0046029700999991926072106004+60100+019950FM-12+001499999V0200701N001019999999N0000001N9+01781+99999099961ADDAJ100009199999999GF108991999999999999999999
0029029700999991926072113004+60100+019950FM-12+001499999V0200501N003119999999N0000001N9+02061+99999099911ADDGF108991999999999999999999
0035029700999991926072120004+60100+019950FM-12+001499999V0209991C000019999999N0000001N9+01671+99999099791ADDGF108991999999999999999999MW1601
0046029700999991926072206004+60100+019950FM-12+001499999V0200701N003119999999N0000001N9+01781+99999099551ADDAJ100009199999999GF108991999999999999999999
0029029700999991926072213004+60100+019950FM-12+001499999V0200501N003119999999N0000001N9+01831+99999099601ADDGF107991999999999999999999
0035029700999991926072220004+60100+019950FM-12+001499999V0200901N002119999999N0000001N9+01671+99999099721ADDGF108991999999999999999999MW1621
0046029700999991926072306004+60100+019950FM-12+001499999V0200901N002119999999N0000001N9+01721+99999099791ADDAJ100009199999999GF108991999999999999999999
0035029700999991926072313004+60100+019950FM-12+001499999V0209991C000019999999N0000001N9+01721+99999100031ADDGF108991999999999999999999MW1601
0029029700999991926072320004+60100+019950FM-12+001499999V0200901N001019999999N0000001N9+01611+99999100141ADDGF108991999999999999999999
0046029700999991926072406004+60100+019950FM-12+001499999V0202301N004119999999N0000001N9+01721+99999100241ADDAJ100009199999999GF102991999999999999999999
0029029700999991926072413004+60100+019950FM-12+001499999V0202301N004119999999N0000001N9+02221+99999100481ADDGF101991999999999999999999
0029029700999991926072420004+60100+019950FM-12+001499999V0202701N001019999999N0000001N9+01721+99999100641ADDGF101991999999999999999999
0046029700999991926072506004+60100+019950FM-12+001499999V0202701N001019999999N0000001N9+01721+99999100481ADDAJ100009199999999GF101991999999999999999999
0029029700999991926072513004+60100+019950FM-12+001499999V0201401N008719999999N0000001N9+01941+99999100191ADDGF106991999999999999999999
0029029700999991926072520004+60100+019950FM-12+001499999V0201401N007219999999N0000001N9+01891+99999099591ADDGF108991999999999999999999
0046029700999991926072606004+60100+019950FM-12+001499999V0201801N005119999999N0000001N9+01611+99999099521ADDAJ100009199999999GF106991999999999999999999
0029029700999991926072613004+60100+019950FM-12+001499999V0202001N005119999999N0000001N9+01941+99999099631ADDGF106991999999999999999999
0029029700999991926072620004+60100+019950FM-12+001499999V0201401N007219999999N0000001N9+01611+99999099621ADDGF102991999999999999999999
0046029700999991926072706004+60100+019950FM-12+001499999V0201401N003119999999N0000001N9+01721+99999099671ADDAJ100009199999999GF103991999999999999999999
0029029700999991926072713004+60100+019950FM-12+001499999V0201601N002119999999N0000001N9+01891+99999099961ADDGF108991999999999999999999
0029029700999991926072720004+60100+019950FM-12+001499999V0209991C000019999999N0000001N9+01561+99999100221ADDGF108991999999999999999999
0046029700999991926072806004+60100+019950FM-12+001499999V0209991C000019999999N0000001N9+01561+99999100431ADDAJ100009199999999GF108991999999999999999999
0029029700999991926072813004+60100+019950FM-12+001499999V0201801N003119999999N0000001N9+01941+99999100581ADDGF106991999999999999999999
0029029700999991926072820004+60100+019950FM-12+001499999V0209991C000019999999N0000001N9+01671+99999100661ADDGF107991999999999999999999
0046029700999991926072906004+60100+019950FM-12+001499999V0209991C000019999999N0000001N9+01781+99999100701ADDAJ100009199999999GF102991999999999999999999
0029029700999991926072913004+60100+019950FM-12+001499999V0200901N003119999999N0000001N9+02171+99999100781ADDGF105991999999999999999999
0029029700999991926072920004+60100+019950FM-12+001499999V0209991C000019999999N0000001N9+01561+99999100881ADDGF101991999999999999999999
0046029700999991926073006004+60100+019950FM-12+001499999V0200501N003119999999N0000001N9+01891+99999100981ADDAJ100009199999999GF100991999999999999999999
0029029700999991926073013004+60100+019950FM-12+001499999V0200901N001019999999N0000001N9+02171+99999101061ADDGF102991999999999999999999
0029029700999991926073020004+60100+019950FM-12+001499999V0203601N001019999999N0000001N9+01831+99999100981ADDGF101991999999999999999999
0046029700999991926073106004+60100+019950FM-12+001499999V0200501N003119999999N0000001N9+01941+99999100991ADDAJ100009199999999GF100991999999999999999999
0029029700999991926073113004+60100+019950FM-12+001499999V0200501N007219999999N0000001N9+01941+99999101021ADDGF104991999999999999999999
0029029700999991926073120004+60100+019950FM-12+001499999V0203601N008219999999N0000001N9+01561+99999101161ADDGF100991999999999999999999
0046029700999991926080106004+60100+019950FM-12+001499999V0200501N008219999999N0000001N9+01611+99999101361ADDAJ100009199999999GF101991999999999999999999
0029029700999991926080113004+60100+019950FM-12+001499999V0200501N008219999999N0000001N9+01891+99999101521ADDGF106991999999999999999999
0029029700999991926080120004+60100+019950FM-12+001499999V0203601N005119999999N0000001N9+01501+99999101711ADDGF100991999999999999999999
0046029700999991926080206004+60100+019950FM-12+001499999V0203601N005119999999N0000001N9+01611+99999101801ADDAJ100009199999999GF100991999999999999999999
0029029700999991926080213004+60100+019950FM-12+001499999V0202901N006219999999N0000001N9+02171+99999101861ADDGF103991999999999999999999
0029029700999991926080220004+60100+019950FM-12+001499999V0203601N002119999999N0000001N9+01561+99999101751ADDGF105991999999999999999999
0046029700999991926080306004+60100+019950FM-12+001499999V0203601N003119999999N0000001N9+01611+99999101661ADDAJ100009199999999GF100991999999999999999999
0029029700999991926080313004+60100+019950FM-12+001499999V0200501N002119999999N0000001N9+01941+99999101601ADDGF104991999999999999999999
0029029700999991926080320004+60100+019950FM-12+001499999V0203601N001019999999N0000001N9+01441+99999101591ADDGF108991999999999999999999
0046029700999991926080406004+60100+019950FM-12+001499999V0203601N001019999999N0000001N9+01501+99999101721ADDAJ100009199999999GF106991999999999999999999
0029029700999991926080413004+60100+019950FM-12+001499999V0200201N004119999999N0000001N9+01781+99999101841ADDGF106991999999999999999999
0029029700999991926080420004+60100+019950FM-12+001499999V0209991C000019999999N0000001N9+01331+99999101951ADDGF100991999999999999999999
0046029700999991926080506004+60100+019950FM-12+001499999V0200501N003119999999N0000001N9+01561+99999102161ADDAJ100009199999999GF105991999999999999999999
0029029700999991926080513004+60100+019950FM-12+001499999V0200901N001019999999N0000001N9+02111+99999102231ADDGF105991999999999999999999
0029029700999991926080520004+60100+019950FM-12+001499999V0209991C000019999999N0000001N9+01281+99999102301ADDGF100991999999999999999999
0046029700999991926080606004+60100+019950FM-12+001499999V0209991C000019999999N0000001N9+01281+99999102281ADDAJ100009199999999GF100991999999999999999999
0029029700999991926080613004+60100+019950FM-12+001499999V0202301N001019999999N0000001N9+02061+99999102231ADDGF102991999999999999999999
0029029700999991926080620004+60100+019950FM-12+001499999V0209991C000019999999N0000001N9+01281+99999102181ADDGF101991999999999999999999
0046029700999991926080706004+60100+019950FM-12+001499999V0209991C000019999999N0000001N9+01561+99999102141ADDAJ100009199999999GF100991999999999999999999
0029029700999991926080713004+60100+019950FM-12+001499999V0202301N006219999999N0000001N9+01891+99999102041ADDGF101991999999999999999999
0029029700999991926080720004+60100+019950FM-12+001499999V0202501N001019999999N0000001N9+01501+99999101871ADDGF100991999999999999999999
0046029700999991926080806004+60100+019950FM-12+001499999V0202501N001019999999N0000001N9+01671+99999101741ADDAJ100009199999999GF102991999999999999999999
0029029700999991926080813004+60100+019950FM-12+001499999V0202901N001019999999N0000001N9+02281+99999101601ADDGF102991999999999999999999
0029029700999991926080820004+60100+019950FM-12+001499999V0209991C000019999999N0000001N9+01561+99999101661ADDGF101991999999999999999999
0046029700999991926080906004+60100+019950FM-12+001499999V0202901N001019999999N0000001N9+01671+99999101741ADDAJ100009199999999GF104991999999999999999999
0029029700999991926080913004+60100+019950FM-12+001499999V0209991C000019999999N0000001N9+02391+99999101741ADDGF102991999999999999999999
0029029700999991926080920004+60100+019950FM-12+001499999V0209991C000019999999N0000001N9+01441+99999101821ADDGF100991999999999999999999
0046029700999991926081006004+60100+019950FM-12+001499999V0209991C000019999999N0000001N9+01671+99999101871ADDAJ100009199999999GF101991999999999999999999
0029029700999991926081013004+60100+019950FM-12+001499999V0202301N004119999999N0000001N9+02221+99999101821ADDGF101991999999999999999999
0029029700999991926081020004+60100+019950FM-12+001499999V0209991C000019999999N0000001N9+01671+99999101701ADDGF101991999999999999999999
0046029700999991926081106004+60100+019950FM-12+001499999V0202301N003119999999N0000001N9+01831+99999101641ADDAJ100009199999999GF100991999999999999999999
0029029700999991926081113004+60100+019950FM-12+001499999V0201801N007219999999N0000001N9+02221+99999101551ADDGF100991999999999999999999
0029029700999991926081120004+60100+019950FM-12+001499999V0201601N002119999999N0000001N9+01721+99999101311ADDGF100991999999999999999999
0046029700999991926081206004+60100+019950FM-12+001499999V0201601N003119999999N0000001N9+01941+99999100901ADDAJ100009199999999GF102991999999999999999999
0029029700999991926081213004+60100+019950FM-12+001499999V0201401N007219999999N0000001N9+02111+99999100661ADDGF106991999999999999999999
0029029700999991926081220004+60100+019950FM-12+001499999V0201801N006219999999N0000001N9+01721+99999100621ADDGF108991999999999999999999
0046029700999991926081306004+60100+019950FM-12+001499999V0201801N003119999999N0000001N9+01721+99999100641ADDAJ100009199999999GF102991999999999999999999
0029029700999991926081313004+60100+019950FM-12+001499999V0202301N003119999999N0000001N9+01891+99999100761ADDGF107991999999999999999999
0029029700999991926081320004+60100+019950FM-12+001499999V0202301N003119999999N0000001N9+01671+99999100821ADDGF108991999999999999999999
0046029700999991926081406004+60100+019950FM-12+001499999V0202501N001019999999N0000001N9+01671+99999100911ADDAJ100009199999999GF101991999999999999999999
0029029700999991926081413004+60100+019950FM-12+001499999V0202001N008219999999N0000001N9+01891+99999100941ADDGF107991999999999999999999
0029029700999991926081420004+60100+019950FM-12+001499999V0202001N008219999999N0000001N9+01781+99999100701ADDGF108991999999999999999999
0046029700999991926081506004+60100+019950FM-12+001499999V0202001N003119999999N0000001N9+01721+99999100311ADDAJ100009199999999GF102991999999999999999999
0029029700999991926081513004+60100+019950FM-12+001499999V0202001N007219999999N0000001N9+01891+99999100041ADDGF106991999999999999999999
0035029700999991926081520004+60100+019950FM-12+001499999V0202301N006219999999N0000001N9+01561+99999099781ADDGF107991999999999999999999MW1171
0046029700999991926081606004+60100+019950FM-12+001499999V0202301N003119999999N0000001N9+01501+99999099381ADDAJ100009199999999GF107991999999999999999999
0029029700999991926081613004+60100+019950FM-12+001499999V0202701N001019999999N0000001N9+01611+99999099391ADDGF107991999999999999999999
0029029700999991926081620004+60100+019950FM-12+001499999V0209991C000019999999N0000001N9+01281+99999099631ADDGF106991999999999999999999
0046029700999991926081706004+60100+019950FM-12+001499999V0200501N007219999999N0000001N9+01501+99999099621ADDAJ100009199999999GF106991999999999999999999
0029029700999991926081713004+60100+019950FM-12+001499999V0200701N007219999999N0000001N9+01781+99999100071ADDGF106991999999999999999999
0029029700999991926081720004+60100+019950FM-12+001499999V0209991C000019999999N0000001N9+01441+99999100621ADDGF100991999999999999999999
0046029700999991926081806004+60100+019950FM-12+001499999V0203601N001019999999N0000001N9+01561+99999100961ADDAJ100009199999999GF100991999999999999999999
0029029700999991926081813004+60100+019950FM-12+001499999V0202301N002119999999N0000001N9+02111+99999101101ADDGF103991999999999999999999
0029029700999991926081820004+60100+019950FM-12+001499999V0209991C000019999999N0000001N9+01611+99999101061ADDGF101991999999999999999999
0046029700999991926081906004+60100+019950FM-12+001499999V0202301N003119999999N0000001N9+01721+99999100901ADDAJ100009199999999GF103991999999999999999999
0029029700999991926081913004+60100+019950FM-12+001499999V0202301N007219999999N0000001N9+01941+99999100781ADDGF105991999999999999999999
0029029700999991926081920004+60100+019950FM-12+001499999V0202301N004119999999N0000001N9+01671+99999100661ADDGF101991999999999999999999
0046029700999991926082006004+60100+019950FM-12+001499999V0202301N007219999999N0000001N9+01721+99999100461ADDAJ100009199999999GF107991999999999999999999
0029029700999991926082013004+60100+019950FM-12+001499999V0202301N007219999999N0000001N9+01891+99999100391ADDGF106991999999999999999999
0029029700999991926082020004+60100+019950FM-12+001499999V0202501N007219999999N0000001N9+01781+99999100341ADDGF102991999999999999999999
0046029700999991926082106004+60100+019950FM-12+001499999V0202301N007219999999N0000001N9+01561+99999100081ADDAJ100009199999999GF108991999999999999999999
0029029700999991926082113004+60100+019950FM-12+001499999V0202301N008219999999N0000001N9+01671+99999099461ADDGF108991999999999999999999
0029029700999991926082120004+60100+019950FM-12+001499999V0202301N007219999999N0000001N9+01611+99999098901ADDGF105991999999999999999999
0052029700999991926082206004+60100+019950FM-12+001499999V0202501N007219999999N0000001N9+01391+99999098431ADDAJ100009199999999GF108991999999999999999999MW1621
0029029700999991926082213004+60100+019950FM-12+001499999V0202301N007219999999N0000001N9+01561+99999098401ADDGF107991999999999999999999
0029029700999991926082220004+60100+019950FM-12+001499999V0202301N004119999999N0000001N9+01501+99999098471ADDGF102991999999999999999999
0052029700999991926082306004+60100+019950FM-12+001499999V0203601N007219999999N0000001N9+01331+99999098791ADDAJ100009199999999GF108991999999999999999999MW1621
0029029700999991926082313004+60100+019950FM-12+001499999V0200501N013919999999N0000001N9+01501+99999099481ADDGF108991999999999999999999
0029029700999991926082320004+60100+019950FM-12+001499999V0203201N005119999999N0000001N9+01331+99999100151ADDGF100991999999999999999999
0046029700999991926082406004+60100+019950FM-12+001499999V0202701N005119999999N0000001N9+01111+99999100261ADDAJ100009199999999GF108991999999999999999999
0029029700999991926082413004+60100+019950FM-12+001499999V0202701N005119999999N0000001N9+01441+99999100061ADDGF102991999999999999999999
0029029700999991926082420004+60100+019950FM-12+001499999V0209991C000019999999N0000001N9+00831+99999999999ADDGF100991999999999999999999
0046029700999991926082506004+60100+019950FM-12+001499999V0202701N003119999999N0000001N9+01171+99999099911ADDAJ100009199999999GF100991999999999999999999
0029029700999991926082513004+60100+019950FM-12+001499999V0202301N003119999999N0000001N9+01721+99999099921ADDGF100991999999999999999999
0029029700999991926082520004+60100+019950FM-12+001499999V0202501N003119999999N0000001N9+01441+99999099681ADDGF106991999999999999999999
0046029700999991926082606004+60100+019950FM-12+001499999V0202301N004119999999N0000001N9+01221+99999099181ADDAJ100009199999999GF107991999999999999999999
0035029700999991926082613004+60100+019950FM-12+001499999V0202701N003119999999N0000001N9+01331+99999099191ADDGF108991999999999999999999MW1621
0029029700999991926082620004+60100+019950FM-12+001499999V0209991C000019999999N0000001N9+01061+99999099191ADDGF108991999999999999999999
0046029700999991926082706004+60100+019950FM-12+001499999V0203401N003119999999N0000001N9+01281+99999099661ADDAJ100009199999999GF106991999999999999999999
0029029700999991926082713004+60100+019950FM-12+001499999V0203601N008719999999N0000001N9+01561+99999100361ADDGF106991999999999999999999
0029029700999991926082720004+60100+019950FM-12+001499999V0203201N008719999999N0000001N9+01391+99999100701ADDGF108991999999999999999999
0046029700999991926082806004+60100+019950FM-12+001499999V0203401N007219999999N0000001N9+01331+99999101041ADDAJ100009199999999GF108991999999999999999999
0029029700999991926082813004+60100+019950FM-12+001499999V0202901N004119999999N0000001N9+01441+99999101361ADDGF105991999999999999999999
0029029700999991926082820004+60100+019950FM-12+001499999V0209991C000019999999N0000001N9+01061+99999101581ADDGF100991999999999999999999
