0029029110999991924020106004+63083+021617FM-12+000999999V0202301N002119999999N0000001N9+00001+99999099461ADDGF108991999999999999999999
0029029110999991924020113004+63083+021617FM-12+000999999V0203201N002119999999N0000001N9-00111+99999099321ADDGF100991999999999999999999
0029029110999991924020120004+63083+021617FM-12+000999999V0209991C000019999999N0000001N9-00111+99999099301ADDGF100991999999999999999999
0029029110999991924020206004+63083+021617FM-12+000999999V0202301N001019999999N0000001N9-00221+99999098581ADDGF108991999999999999999999
0029029110999991924020213004+63083+021617FM-12+000999999V0203201N002119999999N0000001N9-00221+99999097841ADDGF107991999999999999999999
0029029110999991924020220004+63083+021617FM-12+000999999V0209991C000019999999N0000001N9-00671+99999097701ADDGF104991999999999999999999
0035029110999991924020306004+63083+021617FM-12+000999999V0203601N007219999999N0000001N9-00561+99999098151ADDGF108991999999999999999999MW1701
0029029110999991924020313004+63083+021617FM-12+000999999V0200201N002119999999N0000001N9-00721+99999098921ADDGF108991999999999999999999
0029029110999991924020320004+63083+021617FM-12+000999999V0209991C000019999999N0000001N9-00831+99999099321ADDGF108991999999999999999999
0029029110999991924020406004+63083+021617FM-12+000999999V0209991C000019999999N0000001N9-00891+99999099321ADDGF108991999999999999999999
0029029110999991924020413004+63083+021617FM-12+000999999V0200501N001019999999N0000001N9-00831+99999099311ADDGF108991999999999999999999
0029029110999991924020420004+63083+021617FM-12+000999999V0209991C000019999999N0000001N9-00831+99999099581ADDGF108991999999999999999999
0029029110999991924020506004+63083+021617FM-12+000999999V0209991C000019999999N0000001N9-00941+99999099041ADDGF108991999999999999999999
0035029110999991924020513004+63083+021617FM-12+000999999V0201401N001019999999N0000001N9-00891+99999098641ADDGF108991999999999999999999MW1701
0029029110999991924020520004+63083+021617FM-12+000999999V0200901N001019999999N0000001N9-01111+99999098781ADDGF108991999999999999999999
0029029110999991924020606004+63083+021617FM-12+000999999V0200501N001019999999N0000001N9-01001+99999099191ADDGF108991999999999999999999
0035029110999991924020613004+63083+021617FM-12+000999999V0200501N001019999999N0000001N9-01001+99999099181ADDGF108991999999999999999999MW1701
0029029110999991924020620004+63083+021617FM-12+000999999V0200501N002119999999N0000001N9-01111+99999099311ADDGF108991999999999999999999
0029029110999991924020706004+63083+021617FM-12+000999999V0209991C000019999999N0000001N9-01501+99999099471ADDGF102991999999999999999999
0029029110999991924020713004+63083+021617FM-12+000999999V0209991C000019999999N0000001N9-01281+99999099601ADDGF104991999999999999999999
0029029110999991924020720004+63083+021617FM-12+000999999V0209991C000019999999N0000001N9-01611+99999099981ADDGF108991999999999999999999
0029029110999991924020806004+63083+021617FM-12+000999999V0200201N002119999999N0000001N9-01501+99999100421ADDGF108991999999999999999999
0029029110999991924020813004+63083+021617FM-12+000999999V0203601N001019999999N0000001N9-01441+99999100821ADDGF104991999999999999999999
0029029110999991924020820004+63083+021617FM-12+000999999V0209991C000019999999N0000001N9-01941+99999101081ADDGF100991999999999999999999
0035029110999991924020906004+63083+021617FM-12+000999999V0209991C000019999999N0000001N9-01941+99999101391ADDGF108991999999999999999999MW1481
0029029110999991924020913004+63083+021617FM-12+000999999V0200501N001019999999N0000001N9-01781+99999101551ADDGF100991999999999999999999
0029029110999991924020920004+63083+021617FM-12+000999999V0200501N001019999999N0000001N9-01831+99999101351ADDGF100991999999999999999999
0035029110999991924021006004+63083+021617FM-12+000999999V0209991C000019999999N0000001N9-01611+99999101111ADDGF108991999999999999999999MW1721
0035029110999991924021013004+63083+021617FM-12+000999999V0201401N002119999999N0000001N9-01331+99999101761ADDGF108991999999999999999999MW1721
0029029110999991924021020004+63083+021617FM-12+000999999V0201401N002119999999N0000001N9-01221+99999102301ADDGF101991999999999999999999
0029029110999991924021106004+63083+021617FM-12+000999999V0201401N004119999999N0000001N9-01331+99999103031ADDGF100991999999999999999999
0029029110999991924021113004+63083+021617FM-12+000999999V0201401N001019999999N0000001N9-01111+99999103101ADDGF108991999999999999999999
0029029110999991924021120004+63083+021617FM-12+000999999V0201401N007219999999N0000001N9-01501+99999102991ADDGF100991999999999999999999
0029029110999991924021206004+63083+021617FM-12+000999999V0200501N002119999999N0000001N9-01391+99999102711ADDGF107991999999999999999999
0029029110999991924021213004+63083+021617FM-12+000999999V0200901N001019999999N0000001N9-01061+99999102561ADDGF105991999999999999999999
0029029110999991924021220004+63083+021617FM-12+000999999V0200501N001019999999N0000001N9-01281+99999102511ADDGF108991999999999999999999
0029029110999991924021306004+63083+021617FM-12+000999999V0200201N004119999999N0000001N9-01221+99999102101ADDGF108991999999999999999999
0029029110999991924021313004+63083+021617FM-12+000999999V0200901N002119999999N0000001N9-01111+99999101761ADDGF106991999999999999999999
0029029110999991924021320004+63083+021617FM-12+000999999V0200701N001019999999N0000001N9-01331+99999101791ADDGF106991999999999999999999
0029029110999991924021406004+63083+021617FM-12+000999999V0200201N001019999999N0000001N9-01281+99999101901ADDGF108991999999999999999999
0035029110999991924021413004+63083+021617FM-12+000999999V0200201N002119999999N0000001N9-01001+99999101981ADDGF108991999999999999999999MW1721
0035029110999991924021420004+63083+021617FM-12+000999999V0203601N004119999999N0000001N9-01111+99999101791ADDGF108991999999999999999999MW1721
0035029110999991924021506004+63083+021617FM-12+000999999V0203401N002119999999N0000001N9-01221+99999101401ADDGF108991999999999999999999MW1701
0029029110999991924021513004+63083+021617FM-12+000999999V0202701N007219999999N0000001N9-01111+99999101911ADDGF108991999999999999999999
0035029110999991924021520004+63083+021617FM-12+000999999V0202301N002119999999N0000001N9-01171+99999102041ADDGF108991999999999999999999MW1701
0029029110999991924021606004+63083+021617FM-12+000999999V0202301N001019999999N0000001N9-01001+99999102231ADDGF108991999999999999999999
0029029110999991924021613004+63083+021617FM-12+000999999V0202701N001019999999N0000001N9-00221+99999102321ADDGF100991999999999999999999
0029029110999991924021620004+63083+021617FM-12+000999999V0202301N001019999999N0000001N9-00501+99999102301ADDGF104991999999999999999999
0029029110999991924021706004+63083+021617FM-12+000999999V0202701N002119999999N0000001N9-00501+99999101511ADDGF108991999999999999999999
0029029110999991924021713004+63083+021617FM-12+000999999V0202301N009819999999N0000001N9-00441+99999100821ADDGF108991999999999999999999
0029029110999991924021720004+63083+021617FM-12+000999999V0202701N001019999999N0000001N9-00221+99999100261ADDGF102991999999999999999999
0029029110999991924021806004+63083+021617FM-12+000999999V0202301N001019999999N0000001N9-00281+99999099901ADDGF102991999999999999999999
0029029110999991924021813004+63083+021617FM-12+000999999V0209991C000019999999N0000001N9-00061+99999100071ADDGF102991999999999999999999
0035029110999991924021820004+63083+021617FM-12+000999999V0202701N001019999999N0000001N9-00391+99999100271ADDGF108991999999999999999999MW1721
0029029110999991924021906004+63083+021617FM-12+000999999V0203401N001019999999N0000001N9-00501+99999100991ADDGF106991999999999999999999
0029029110999991924021913004+63083+021617FM-12+000999999V0209991C000019999999N0000001N9-00721+99999101391ADDGF100991999999999999999999
0029029110999991924021920004+63083+021617FM-12+000999999V0209991C000019999999N0000001N9-01391+99999101481ADDGF100991999999999999999999
0035029110999991924022006004+63083+021617FM-12+000999999V0202301N004119999999N0000001N9-00721+99999100711ADDGF108991999999999999999999MW1701
0029029110999991924022013004+63083+021617FM-12+000999999V0202701N002119999999N0000001N9-00501+99999100341ADDGF108991999999999999999999
0029029110999991924022020004+63083+021617FM-12+000999999V0202301N002119999999N0000001N9-00441+99999100061ADDGF108991999999999999999999
0029029110999991924022106004+63083+021617FM-12+000999999V0209991C000019999999N0000001N9-00721+99999099921ADDGF108991999999999999999999
0029029110999991924022113004+63083+021617FM-12+000999999V0203601N002119999999N0000001N9-00611+99999100141ADDGF108991999999999999999999
0029029110999991924022120004+63083+021617FM-12+000999999V0200501N004119999999N0000001N9-00941+99999100621ADDGF108991999999999999999999
0029029110999991924022206004+63083+021617FM-12+000999999V0203601N002119999999N0000001N9-01281+99999100821ADDGF108991999999999999999999
0029029110999991924022213004+63083+021617FM-12+000999999V0203601N002119999999N0000001N9-01111+99999100911ADDGF108991999999999999999999
0029029110999991924022220004+63083+021617FM-12+000999999V0200501N004119999999N0000001N9-01111+99999101161ADDGF108991999999999999999999
0029029110999991924022306004+63083+021617FM-12+000999999V0200501N004119999999N0000001N9-01221+99999101101ADDGF108991999999999999999999
0029029110999991924022313004+63083+021617FM-12+000999999V0203601N004119999999N0000001N9-01281+99999101261ADDGF103991999999999999999999
0029029110999991924022320004+63083+021617FM-12+000999999V0203601N002119999999N0000001N9-01331+99999101281ADDGF100991999999999999999999
0029029110999991924022406004+63083+021617FM-12+000999999V0203601N001019999999N0000001N9-01331+99999101281ADDGF108991999999999999999999
0029029110999991924022413004+63083+021617FM-12+000999999V0203601N002119999999N0000001N9-01221+99999101391ADDGF108991999999999999999999
0035029110999991924022420004+63083+021617FM-12+000999999V0203601N002119999999N0000001N9-01281+99999101671ADDGF108991999999999999999999MW1701
0035029110999991924022506004+63083+021617FM-12+000999999V0200501N002119999999N0000001N9-01331+99999102111ADDGF108991999999999999999999MW1721
0029029110999991924022513004+63083+021617FM-12+000999999V0200501N001019999999N0000001N9-01111+99999102351ADDGF100991999999999999999999
0029029110999991924022520004+63083+021617FM-12+000999999V0209991C000019999999N0000001N9-01281+99999102671ADDGF108991999999999999999999
0029029110999991924022606004+63083+021617FM-12+000999999V0209991C000019999999N0000001N9-01281+99999102641ADDGF108991999999999999999999
0035029110999991924022613004+63083+021617FM-12+000999999V0209991C000019999999N0000001N9-01111+99999102481ADDGF108991999999999999999999MW1701
0035029110999991924022620004+63083+021617FM-12+000999999V0202701N001019999999N0000001N9-01111+99999102301ADDGF108991999999999999999999MW1701
0029029110999991924022706004+63083+021617FM-12+000999999V0202301N002119999999N0000001N9-01221+99999101551ADDGF108991999999999999999999
0029029110999991924022713004+63083+021617FM-12+000999999V0202301N009819999999N0000001N9-00891+99999100751ADDGF108991999999999999999999
0035029110999991924022720004+63083+021617FM-12+000999999V0202301N007219999999N0000001N9-00721+99999100511ADDGF108991999999999999999999MW1861
0035029110999991924022806004+63083+021617FM-12+000999999V0202301N002119999999N0000001N9-00501+99999100071ADDGF108991999999999999999999MW1701
0029029110999991924022813004+63083+021617FM-12+000999999V0202301N002119999999N0000001N9-00391+99999100061ADDGF108991999999999999999999
0029029110999991924022820004+63083+021617FM-12+000999999V0202301N001019999999N0000001N9-00891+99999100161ADDGF104991999999999999999999
0029029110999991924022906004+63083+021617FM-12+000999999V0209991C000019999999N0000001N9-01831+99999099921ADDGF108991999999999999999999
0029029110999991924022913004+63083+021617FM-12+000999999V0209991C000019999999N0000001N9-00611+99999099951ADDGF108991999999999999999999
0035029110999991924022920004+63083+021617FM-12+000999999V0201401N001019999999N0000001N9-00721+99999099871ADDGF105991999999999999999999MW1721
0035029110999991924030106004+63083+021617FM-12+000999999V0201401N001019999999N0000001N9-01111+99999099901ADDGF108991999999999999999999MW1721
0029029110999991924030113004+63083+021617FM-12+000999999V0200501N002119999999N0000001N9-01061+99999099871ADDGF106991999999999999999999
0029029110999991924030120004+63083+021617FM-12+000999999V0209991C000019999999N0000001N9-01501+99999099871ADDGF100991999999999999999999
0029029110999991924030206004+63083+021617FM-12+000999999V0209991C000019999999N0000001N9-01501+99999099821ADDGF108991999999999999999999
0035029110999991924030213004+63083+021617FM-12+000999999V0203401N002119999999N0000001N9-01001+99999099871ADDGF108991999999999999999999MW1721
0029029110999991924030220004+63083+021617FM-12+000999999V0209991C000019999999N0000001N9-01221+99999100121ADDGF108991999999999999999999
0029029110999991924030306004+63083+021617FM-12+000999999V0201401N001019999999N0000001N9-01391+99999100301ADDGF104991999999999999999999
0029029110999991924030313004+63083+021617FM-12+000999999V0201401N001019999999N0000001N9-00831+99999100561ADDGF100991999999999999999999
0029029110999991924030320004+63083+021617FM-12+000999999V0200901N002119999999N0000001N9-01111+99999100791ADDGF100991999999999999999999
0035029110999991924030406004+63083+021617FM-12+000999999V0203201N004119999999N0000001N9-00671+99999100071ADDGF108991999999999999999999MW1721
0029029110999991924030413004+63083+021617FM-12+000999999V0202301N002119999999N0000001N9+00111+99999100201ADDGF108991999999999999999999
0035029110999991924030420004+63083+021617FM-12+000999999V0202501N007219999999N0000001N9-00111+99999100321ADDGF108991999999999999999999MW1721
0029029110999991924030506004+63083+021617FM-12+000999999V0202301N001019999999N0000001N9-00721+99999101121ADDGF100991999999999999999999
0029029110999991924030513004+63083+021617FM-12+000999999V0209991C000019999999N0000001N9-00221+99999101471ADDGF108991999999999999999999
0035029110999991924030520004+63083+021617FM-12+000999999V0200901N001019999999N0000001N9-00221+99999101361ADDGF108991999999999999999999MW1861
0035029110999991924030606004+63083+021617FM-12+000999999V0200901N001019999999N0000001N9-00111+99999101231ADDGF108991999999999999999999MW1721
0029029110999991924030613004+63083+021617FM-12+000999999V0209991C000019999999N0000001N9+00001+99999101401ADDGF108991999999999999999999
0035029110999991924030620004+63083+021617FM-12+000999999V0203401N001019999999N0000001N9-00611+99999101871ADDGF108991999999999999999999MW1721
0029029110999991924030706004+63083+021617FM-12+000999999V0209991C000019999999N0000001N9-00721+99999102601ADDGF108991999999999999999999
0029029110999991924030713004+63083+021617FM-12+000999999V0209991C000019999999N0000001N9-00391+99999102861ADDGF108991999999999999999999
0029029110999991924030720004+63083+021617FM-12+000999999V0202301N002119999999N0000001N9-00501+99999102711ADDGF108991999999999999999999
0029029110999991924030806004+63083+021617FM-12+000999999V0202301N004119999999N0000001N9-00501+99999101981ADDGF108991999999999999999999
0029029110999991924030813004+63083+021617FM-12+000999999V0202301N007219999999N0000001N9-00331+99999101551ADDGF108991999999999999999999
0029029110999991924030820004+63083+021617FM-12+000999999V0202701N007219999999N0000001N9+00001+99999100961ADDGF108991999999999999999999
0029029110999991924030906004+63083+021617FM-12+000999999V0202301N004119999999N0000001N9-00111+99999100701ADDGF101991999999999999999999
0029029110999991924030913004+63083+021617FM-12+000999999V0202301N002119999999N0000001N9+00171+99999100861ADDGF100991999999999999999999
0029029110999991924030920004+63083+021617FM-12+000999999V0202701N002119999999N0000001N9-00111+99999101071ADDGF100991999999999999999999
0029029110999991924031006004+63083+021617FM-12+000999999V0209991C000019999999N0000001N9-01111+99999101681ADDGF100991999999999999999999
0029029110999991924031013004+63083+021617FM-12+000999999V0200501N002119999999N0000001N9-00501+99999102041ADDGF100991999999999999999999
0029029110999991924031020004+63083+021617FM-12+000999999V0200501N004119999999N0000001N9-00941+99999102551ADDGF100991999999999999999999
0029029110999991924031106004+63083+021617FM-12+000999999V0200501N002119999999N0000001N9-01501+99999102861ADDGF100991999999999999999999
0029029110999991924031113004+63083+021617FM-12+000999999V0209991C000019999999N0000001N9-00561+99999103111ADDGF100991999999999999999999
0029029110999991924031120004+63083+021617FM-12+000999999V0209991C000019999999N0000001N9-01001+99999103231ADDGF100991999999999999999999
0029029110999991924031206004+63083+021617FM-12+000999999V0209991C000019999999N0000001N9-01391+99999103431ADDGF100991999999999999999999
0029029110999991924031213004+63083+021617FM-12+000999999V0209991C000019999999N0000001N9-00391+99999103471ADDGF100991999999999999999999
0029029110999991924031220004+63083+021617FM-12+000999999V0202301N002119999999N0000001N9-00781+99999103361ADDGF102991999999999999999999
0029029110999991924031306004+63083+021617FM-12+000999999V0202301N001019999999N0000001N9-00941+99999103081ADDGF100991999999999999999999
0029029110999991924031313004+63083+021617FM-12+000999999V0202301N001019999999N0000001N9-00221+99999102941ADDGF100991999999999999999999
0029029110999991924031320004+63083+021617FM-12+000999999V0202301N002119999999N0000001N9-00611+99999102631ADDGF100991999999999999999999
0029029110999991924031406004+63083+021617FM-12+000999999V0202301N001019999999N0000001N9-00561+99999102161ADDGF104991999999999999999999
0029029110999991924031413004+63083+021617FM-12+000999999V0202301N001019999999N0000001N9+00001+99999101791ADDGF100991999999999999999999
0029029110999991924031420004+63083+021617FM-12+000999999V0202701N004119999999N0000001N9-00221+99999101311ADDGF108991999999999999999999
0029029110999991924031506004+63083+021617FM-12+000999999V0202301N002119999999N0000001N9-00221+99999100231ADDGF108991999999999999999999
0035029110999991924031513004+63083+021617FM-12+000999999V0202301N001019999999N0000001N9-00111+99999099641ADDGF108991999999999999999999MW1701
0029029110999991924031520004+63083+021617FM-12+000999999V0209991C000019999999N0000001N9-00221+99999099401ADDGF108991999999999999999999
0029029110999991924031606004+63083+021617FM-12+000999999V0200501N002119999999N0000001N9-00391+99999099081ADDGF108991999999999999999999
0029029110999991924031613004+63083+021617FM-12+000999999V0200501N007219999999N0000001N9-00611+99999099521ADDGF108991999999999999999999
0035029110999991924031620004+63083+021617FM-12+000999999V0200501N007219999999N0000001N9-00611+99999099741ADDGF108991999999999999999999MW1701
0035029110999991924031706004+63083+021617FM-12+000999999V0200501N004119999999N0000001N9-01001+99999099751ADDGF108991999999999999999999MW1701
0035029110999991924031713004+63083+021617FM-12+000999999V0200201N007219999999N0000001N9-01001+99999099961ADDGF108991999999999999999999MW1701
0029029110999991924031720004+63083+021617FM-12+000999999V0200501N007219999999N0000001N9-00941+99999100221ADDGF108991999999999999999999
0035029110999991924031806004+63083+021617FM-12+000999999V0200501N004119999999N0000001N9-00831+99999100031ADDGF108991999999999999999999MW1701
0035029110999991924031813004+63083+021617FM-12+000999999V0200501N002119999999N0000001N9-00831+99999100081ADDGF108991999999999999999999MW1701
0035029110999991924031820004+63083+021617FM-12+000999999V0200201N001019999999N0000001N9-00781+99999100021ADDGF108991999999999999999999MW1701
0035029110999991924031906004+63083+021617FM-12+000999999V0200501N004119999999N0000001N9-00831+99999099921ADDGF108991999999999999999999MW1701
0035029110999991924031913004+63083+021617FM-12+000999999V0202901N004119999999N0000001N9-00721+99999100021ADDGF108991999999999999999999MW1701
0035029110999991924031920004+63083+021617FM-12+000999999V0203601N004119999999N0000001N9-00721+99999100231ADDGF108991999999999999999999MW1701
0029029110999991924032006004+63083+021617FM-12+000999999V0200501N002119999999N0000001N9-00941+99999100481ADDGF108991999999999999999999
0029029110999991924032013004+63083+021617FM-12+000999999V0203201N001019999999N0000001N9-00891+99999100761ADDGF104991999999999999999999
0029029110999991924032020004+63083+021617FM-12+000999999V0209991C000019999999N0000001N9-01391+99999100941ADDGF103991999999999999999999
0029029110999991924032106004+63083+021617FM-12+000999999V0209991C000019999999N0000001N9-01941+99999101121ADDGF100991999999999999999999
0029029110999991924032113004+63083+021617FM-12+000999999V0202701N002119999999N0000001N9-00441+99999101151ADDGF100991999999999999999999
0029029110999991924032120004+63083+021617FM-12+000999999V0202301N002119999999N0000001N9-00831+99999101021ADDGF108991999999999999999999
0035029110999991924032206004+63083+021617FM-12+000999999V0201401N002119999999N0000001N9-00561+99999100181ADDGF108991999999999999999999MW1721
0029029110999991924032213004+63083+021617FM-12+000999999V0202301N002119999999N0000001N9-00331+99999099991ADDGF108991999999999999999999
0035029110999991924032220004+63083+021617FM-12+000999999V0209991C000019999999N0000001N9-00441+99999099981ADDGF108991999999999999999999MW1721
0029029110999991924032306004+63083+021617FM-12+000999999V0209991C000019999999N0000001N9-01331+99999100421ADDGF100991999999999999999999
0029029110999991924032313004+63083+021617FM-12+000999999V0203201N001019999999N0000001N9-00611+99999100721ADDGF100991999999999999999999
0029029110999991924032320004+63083+021617FM-12+000999999V0209991C000019999999N0000001N9-01001+99999100981ADDGF100991999999999999999999
0029029110999991924032406004+63083+021617FM-12+000999999V0209991C000019999999N0000001N9-02391+99999101271ADDGF100991999999999999999999
0029029110999991924032413004+63083+021617FM-12+000999999V0201401N001019999999N0000001N9-00281+99999101431ADDGF106991999999999999999999
0029029110999991924032420004+63083+021617FM-12+000999999V0200901N001019999999N0000001N9-00441+99999101121ADDGF108991999999999999999999
0035029110999991924032506004+63083+021617FM-12+000999999V0200901N002119999999N0000001N9-00611+99999100711ADDGF108991999999999999999999MW1721
0035029110999991924032513004+63083+021617FM-12+000999999V0200901N002119999999N0000001N9-00391+99999100551ADDGF108991999999999999999999MW1721
0029029110999991924032520004+63083+021617FM-12+000999999V0200901N004119999999N0000001N9-00561+99999100641ADDGF100991999999999999999999
0029029110999991924032606004+63083+021617FM-12+000999999V0200501N002119999999N0000001N9-00941+99999100711ADDGF100991999999999999999999
0029029110999991924032613004+63083+021617FM-12+000999999V0200901N004119999999N0000001N9-00221+99999100841ADDGF108991999999999999999999
0029029110999991924032620004+63083+021617FM-12+000999999V0200901N004119999999N0000001N9-00221+99999100991ADDGF108991999999999999999999
0029029110999991924032706004+63083+021617FM-12+000999999V0200901N002119999999N0000001N9-00331+99999100801ADDGF108991999999999999999999
0029029110999991924032713004+63083+021617FM-12+000999999V0200501N002119999999N0000001N9-00111+99999100721ADDGF108991999999999999999999
0035029110999991924032720004+63083+021617FM-12+000999999V0200901N002119999999N0000001N9-00111+99999100261ADDGF108991999999999999999999MW1721
0029029110999991924032806004+63083+021617FM-12+000999999V0200901N002119999999N0000001N9+00111+99999100021ADDGF108991999999999999999999
0029029110999991924032813004+63083+021617FM-12+000999999V0202301N002119999999N0000001N9+00061+99999100221ADDGF108991999999999999999999
0029029110999991924032820004+63083+021617FM-12+000999999V0202301N004119999999N0000001N9-00111+99999100351ADDGF108991999999999999999999
0029029110999991924032906004+63083+021617FM-12+000999999V0209991C000019999999N0000001N9-00221+99999100501ADDGF107991999999999999999999
0029029110999991924032913004+63083+021617FM-12+000999999V0202301N001019999999N0000001N9+00001+99999100461ADDGF100991999999999999999999
0029029110999991924032920004+63083+021617FM-12+000999999V0209991C000019999999N0000001N9-00331+99999100551ADDGF100991999999999999999999
0029029110999991924033006004+63083+021617FM-12+000999999V0209991C000019999999N0000001N9-00831+99999100541ADDGF100991999999999999999999
0029029110999991924033013004+63083+021617FM-12+000999999V0203201N001019999999N0000001N9+00001+99999100461ADDGF102991999999999999999999
0029029110999991924033020004+63083+021617FM-12+000999999V0209991C000019999999N0000001N9-00281+99999100301ADDGF108991999999999999999999
0035029110999991924033106004+63083+021617FM-12+000999999V0209991C000019999999N0000001N9-00441+99999100561ADDGF108991999999999999999999MW1721
0029029110999991924033113004+63083+021617FM-12+000999999V0203601N002119999999N0000001N9+00281+99999101021ADDGF105991999999999999999999
0029029110999991924033120004+63083+021617FM-12+000999999V0203601N001019999999N0000001N9-00111+99999101301ADDGF102991999999999999999999
0029029110999991924040106004+63083+021617FM-12+000999999V0203601N005119999999N0000001N9-00281+99999101951ADDGF108991999999999999999999
0029029110999991924040113004+63083+021617FM-12+000999999V0200501N005119999999N0000001N9-00111+99999102381ADDGF104991999999999999999999
0029029110999991924040120004+63083+021617FM-12+000999999V0209991C000019999999N0000001N9-00611+99999102501ADDGF100991999999999999999999
0029029110999991924040206004+63083+021617FM-12+000999999V0209991C000019999999N0000001N9-00941+99999102511ADDGF100991999999999999999999
0029029110999991924040213004+63083+021617FM-12+000999999V0209991C000019999999N0000001N9-00061+99999102481ADDGF100991999999999999999999
0029029110999991924040220004+63083+021617FM-12+000999999V0203201N001019999999N0000001N9-00391+99999102321ADDGF100991999999999999999999
0029029110999991924040306004+63083+021617FM-12+000999999V0202301N003119999999N0000001N9-00111+99999101861ADDGF106991999999999999999999
0029029110999991924040313004+63083+021617FM-12+000999999V0200701N003119999999N0000001N9+00221+99999101321ADDGF108991999999999999999999
0029029110999991924040320004+63083+021617FM-12+000999999V0209991C000019999999N0000001N9+00111+99999101201ADDGF104991999999999999999999
0029029110999991924040406004+63083+021617FM-12+000999999V0200201N003119999999N0000001N9-00171+99999101631ADDGF108991999999999999999999
0029029110999991924040413004+63083+021617FM-12+000999999V0200201N003119999999N0000001N9-00111+99999101781ADDGF108991999999999999999999
0029029110999991924040420004+63083+021617FM-12+000999999V0209991C000019999999N0000001N9-00331+99999101721ADDGF108991999999999999999999
0029029110999991924040506004+63083+021617FM-12+000999999V0202301N003119999999N0000001N9-00221+99999101141ADDGF100991999999999999999999
0029029110999991924040513004+63083+021617FM-12+000999999V0200701N005119999999N0000001N9+00331+99999100661ADDGF106991999999999999999999
0029029110999991924040520004+63083+021617FM-12+000999999V0202701N003119999999N0000001N9+00221+99999100351ADDGF108991999999999999999999
0029029110999991924040606004+63083+021617FM-12+000999999V0202701N009819999999N0000001N9+00221+99999099241ADDGF108991999999999999999999
0029029110999991924040613004+63083+021617FM-12+000999999V0202701N009819999999N0000001N9+00221+99999098961ADDGF106991999999999999999999
0029029110999991924040620004+63083+021617FM-12+000999999V0202701N005119999999N0000001N9-00111+99999099041ADDGF100991999999999999999999
0029029110999991924040706004+63083+021617FM-12+000999999V0209991C000019999999N0000001N9-00111+99999098951ADDGF100991999999999999999999
0029029110999991924040713004+63083+021617FM-12+000999999V0200201N008219999999N0000001N9+00111+99999098581ADDGF108991999999999999999999
0029029110999991924040720004+63083+021617FM-12+000999999V0202701N005119999999N0000001N9+00001+99999098271ADDGF100991999999999999999999
0029029110999991924040806004+63083+021617FM-12+000999999V0201801N001019999999N0000001N9-00111+99999097741ADDGF102991999999999999999999
0029029110999991924040813004+63083+021617FM-12+000999999V0200201N005119999999N0000001N9-00391+99999097641ADDGF108991999999999999999999
0029029110999991924040820004+63083+021617FM-12+000999999V0209991C000019999999N0000001N9-00781+99999098511ADDGF107991999999999999999999
0029029110999991924040906004+63083+021617FM-12+000999999V0209991C000019999999N0000001N9-00831+99999099101ADDGF100991999999999999999999
0029029110999991924040913004+63083+021617FM-12+000999999V0202301N003119999999N0000001N9+00061+99999099351ADDGF100991999999999999999999
0029029110999991924040920004+63083+021617FM-12+000999999V0209991C000019999999N0000001N9-00441+99999099511ADDGF100991999999999999999999
0029029110999991924041006004+63083+021617FM-12+000999999V0209991C000019999999N0000001N9-00721+99999099791ADDGF100991999999999999999999
0029029110999991924041013004+63083+021617FM-12+000999999V0202301N001019999999N0000001N9+00111+99999099951ADDGF101991999999999999999999
0029029110999991924041020004+63083+021617FM-12+000999999V0209991C000019999999N0000001N9-00111+99999100181ADDGF108991999999999999999999
0029029110999991924041106004+63083+021617FM-12+000999999V0209991C000019999999N0000001N9-00221+99999100311ADDGF102991999999999999999999
0029029110999991924041113004+63083+021617FM-12+000999999V0200501N003119999999N0000001N9+00331+99999100111ADDGF108991999999999999999999
0029029110999991924041120004+63083+021617FM-12+000999999V0200501N008219999999N0000001N9+00001+99999099781ADDGF108991999999999999999999
0035029110999991924041206004+63083+021617FM-12+000999999V0200501N008219999999N0000001N9-00221+99999098981ADDGF108991999999999999999999MW1721
0035029110999991924041213004+63083+021617FM-12+000999999V0203401N005119999999N0000001N9-00171+99999098841ADDGF108991999999999999999999MW1721
0029029110999991924041220004+63083+021617FM-12+000999999V0202301N005119999999N0000001N9-00221+99999099551ADDGF108991999999999999999999
0029029110999991924041306004+63083+021617FM-12+000999999V0202301N001019999999N0000001N9-00441+99999100311ADDGF100991999999999999999999
0029029110999991924041313004+63083+021617FM-12+000999999V0209991C000019999999N0000001N9+00111+99999100561ADDGF105991999999999999999999
0029029110999991924041320004+63083+021617FM-12+000999999V0209991C000019999999N0000001N9-00391+99999100901ADDGF100991999999999999999999
0029029110999991924041406004+63083+021617FM-12+000999999V0209991C000019999999N0000001N9-01221+99999101061ADDGF100991999999999999999999
0029029110999991924041413004+63083+021617FM-12+000999999V0209991C000019999999N0000001N9+00111+99999101441ADDGF100991999999999999999999
0029029110999991924041420004+63083+021617FM-12+000999999V0209991C000019999999N0000001N9-00441+99999101631ADDGF100991999999999999999999
0029029110999991924041506004+63083+021617FM-12+000999999V0209991C000019999999N0000001N9-01111+99999101831ADDGF100991999999999999999999
0029029110999991924041513004+63083+021617FM-12+000999999V0201401N001019999999N0000001N9+00441+99999101781ADDGF100991999999999999999999
0029029110999991924041520004+63083+021617FM-12+000999999V0201401N001019999999N0000001N9+00001+99999101791ADDGF102991999999999999999999
0029029110999991924041606004+63083+021617FM-12+000999999V0201401N003119999999N0000001N9-00061+99999101711ADDGF107991999999999999999999
0029029110999991924041613004+63083+021617FM-12+000999999V0209991C000019999999N0000001N9+00331+99999101681ADDGF108991999999999999999999
0029029110999991924041620004+63083+021617FM-12+000999999V0201401N005119999999N0000001N9+00281+99999101461ADDGF108991999999999999999999
0035029110999991924041706004+63083+021617FM-12+000999999V0201401N001019999999N0000001N9+00221+99999101381ADDGF108991999999999999999999MW1621
0029029110999991924041713004+63083+021617FM-12+000999999V0201401N001019999999N0000001N9+00721+99999101601ADDGF108991999999999999999999
0029029110999991924041720004+63083+021617FM-12+000999999V0201401N001019999999N0000001N9+00611+99999101861ADDGF108991999999999999999999
0029029110999991924041806004+63083+021617FM-12+000999999V0201401N003119999999N0000001N9+00331+99999102191ADDGF100991999999999999999999
0029029110999991924041813004+63083+021617FM-12+000999999V0201401N001019999999N0000001N9+01061+99999102161ADDGF100991999999999999999999
0029029110999991924041820004+63083+021617FM-12+000999999V0202301N003119999999N0000001N9+00111+99999102261ADDGF108991999999999999999999
0029029110999991924041906004+63083+021617FM-12+000999999V0209991C000019999999N0000001N9+00111+99999102191ADDGF108991999999999999999999
0029029110999991924041913004+63083+021617FM-12+000999999V0209991C000019999999N0000001N9+00221+99999101911ADDGF108991999999999999999999
0029029110999991924041920004+63083+021617FM-12+000999999V0209991C000019999999N0000001N9+00001+99999101791ADDGF108991999999999999999999
0029029110999991924042006004+63083+021617FM-12+000999999V0209991C000019999999N0000001N9-00061+99999101921ADDGF108991999999999999999999
0029029110999991924042013004+63083+021617FM-12+000999999V0202301N003119999999N0000001N9+00221+99999101801ADDGF100991999999999999999999
0029029110999991924042020004+63083+021617FM-12+000999999V0202301N001019999999N0000001N9+00001+99999101071ADDGF101991999999999999999999
0029029110999991924042106004+63083+021617FM-12+000999999V0201401N003119999999N0000001N9+00111+99999099881ADDGF108991999999999999999999
0035029110999991924042113004+63083+021617FM-12+000999999V0201401N005119999999N0000001N9+00281+99999099741ADDGF108991999999999999999999MW1621
0029029110999991924042120004+63083+021617FM-12+000999999V0209991C000019999999N0000001N9+00221+99999099841ADDGF108991999999999999999999
0029029110999991924042206004+63083+021617FM-12+000999999V0200901N005119999999N0000001N9+00221+99999100031ADDGF106991999999999999999999
0029029110999991924042213004+63083+021617FM-12+000999999V0200501N005119999999N0000001N9+00331+99999100201ADDGF108991999999999999999999
0029029110999991924042220004+63083+021617FM-12+000999999V0200501N005119999999N0000001N9-00111+99999100261ADDGF100991999999999999999999
0029029110999991924042306004+63083+021617FM-12+000999999V0200501N008219999999N0000001N9-00561+99999100401ADDGF100991999999999999999999
0029029110999991924042313004+63083+021617FM-12+000999999V0203601N009819999999N0000001N9+00001+99999100401ADDGF100991999999999999999999
0029029110999991924042320004+63083+021617FM-12+000999999V0200501N003119999999N0000001N9-00221+99999100751ADDGF100991999999999999999999
0029029110999991924042406004+63083+021617FM-12+000999999V0200201N001019999999N0000001N9-00391+99999100951ADDGF100991999999999999999999
0029029110999991924042413004+63083+021617FM-12+000999999V0203601N003119999999N0000001N9-00221+99999101141ADDGF100991999999999999999999
0029029110999991924042420004+63083+021617FM-12+000999999V0209991C000019999999N0000001N9-00331+99999101511ADDGF100991999999999999999999
0029029110999991924042506004+63083+021617FM-12+000999999V0200501N003119999999N0000001N9-00331+99999101781ADDGF100991999999999999999999
0029029110999991924042513004+63083+021617FM-12+000999999V0200501N008219999999N0000001N9-00221+99999101961ADDGF103991999999999999999999
0029029110999991924042520004+63083+021617FM-12+000999999V0209991C000019999999N0000001N9-00281+99999101981ADDGF100991999999999999999999
0029029110999991924042606004+63083+021617FM-12+000999999V0203601N003119999999N0000001N9-00221+99999101881ADDGF108991999999999999999999
0029029110999991924042613004+63083+021617FM-12+000999999V0203601N001019999999N0000001N9-00061+99999101781ADDGF104991999999999999999999
0029029110999991924042620004+63083+021617FM-12+000999999V0209991C000019999999N0000001N9-00331+99999101641ADDGF100991999999999999999999
0029029110999991924042706004+63083+021617FM-12+000999999V0209991C000019999999N0000001N9-00611+99999101621ADDGF100991999999999999999999
0029029110999991924042713004+63083+021617FM-12+000999999V0203201N001019999999N0000001N9+00221+99999101521ADDGF101991999999999999999999
0029029110999991924042720004+63083+021617FM-12+000999999V0209991C000019999999N0000001N9-00221+99999101401ADDGF106991999999999999999999
0029029110999991924042806004+63083+021617FM-12+000999999V0209991C000019999999N0000001N9+00001+99999101111ADDGF107991999999999999999999
0029029110999991924042813004+63083+021617FM-12+000999999V0209991C000019999999N0000001N9+00441+99999100961ADDGF104991999999999999999999
0029029110999991924042820004+63083+021617FM-12+000999999V0200501N001019999999N0000001N9+00001+99999100831ADDGF100991999999999999999999
0029029110999991924042906004+63083+021617FM-12+000999999V0209991C000019999999N0000001N9-00221+99999100721ADDGF108991999999999999999999
0029029110999991924042913004+63083+021617FM-12+000999999V0209991C000019999999N0000001N9+00111+99999100431ADDGF108991999999999999999999
0035029110999991924042920004+63083+021617FM-12+000999999V0209991C000019999999N0000001N9-00111+99999100361ADDGF108991999999999999999999MW1721
0029029110999991924043006004+63083+021617FM-12+000999999V0209991C000019999999N0000001N9+00001+99999100461ADDGF103991999999999999999999
0029029110999991924043013004+63083+021617FM-12+000999999V0209991C000019999999N0000001N9+00281+99999100591ADDGF108991999999999999999999
0029029110999991924043020004+63083+021617FM-12+000999999V0200201N001019999999N0000001N9+00061+99999100711ADDGF108991999999999999999999
0029029110999991924050106004+63083+021617FM-12+000999999V0200501N001019999999N0000001N9+00001+99999999999ADDGF102991999999999999999999
0029029110999991924050113004+63083+021617FM-12+000999999V0200501N003119999999N0000001N9+00501+99999999999ADDGF103991999999999999999999
0029029110999991924050120004+63083+021617FM-12+000999999V0209991C000019999999N0000001N9-00061+99999999999ADDGF102991999999999999999999
0029029110999991924050206004+63083+021617FM-12+000999999V0209991C000019999999N0000001N9-00171+99999999999ADDGF102991999999999999999999
0029029110999991924050213004+63083+021617FM-12+000999999V0209991C000019999999N0000001N9+00561+99999999999ADDGF103991999999999999999999
0029029110999991924050220004+63083+021617FM-12+000999999V0209991C000019999999N0000001N9+00001+99999999999ADDGF102991999999999999999999
0029029110999991924050306004+63083+021617FM-12+000999999V0209991C000019999999N0000001N9+00221+99999999999ADDGF102991999999999999999999
0029029110999991924050313004+63083+021617FM-12+000999999V0203201N003119999999N0000001N9+00831+99999999999ADDGF103991999999999999999999
0029029110999991924050320004+63083+021617FM-12+000999999V0201801N001019999999N0000001N9+00441+99999999999ADDGF103991999999999999999999
0029029110999991924050406004+63083+021617FM-12+000999999V0209991C000019999999N0000001N9+00441+99999999999ADDGF103991999999999999999999
0029029110999991924050413004+63083+021617FM-12+000999999V0201401N003119999999N0000001N9+01061+99999999999ADDGF104991999999999999999999
0029029110999991924050420004+63083+021617FM-12+000999999V0201401N001019999999N0000001N9+00831+99999999999ADDGF103991999999999999999999
0029029110999991924050506004+63083+021617FM-12+000999999V0201401N003119999999N0000001N9+00721+99999999999ADDGF103991999999999999999999
0029029110999991924050513004+63083+021617FM-12+000999999V0201401N005119999999N0000001N9+01221+99999999999ADDGF104991999999999999999999
0029029110999991924050520004+63083+021617FM-12+000999999V0200901N003119999999N0000001N9+00781+99999999999ADDGF103991999999999999999999
0029029110999991924050606004+63083+021617FM-12+000999999V0201601N001019999999N0000001N9+00391+99999999999ADDGF102991999999999999999999
0029029110999991924050613004+63083+021617FM-12+000999999V0202301N001019999999N0000001N9+00501+99999999999ADDGF103991999999999999999999
0029029110999991924050620004+63083+021617FM-12+000999999V0202301N001019999999N0000001N9+00221+99999999999ADDGF102991999999999999999999
0029029110999991924050706004+63083+021617FM-12+000999999V0209991C000019999999N0000001N9+00111+99999999999ADDGF102991999999999999999999
0029029110999991924050713004+63083+021617FM-12+000999999V0202301N001019999999N0000001N9+00221+99999999999ADDGF102991999999999999999999
0029029110999991924050720004+63083+021617FM-12+000999999V0209991C000019999999N0000001N9+00061+99999999999ADDGF102991999999999999999999
0029029110999991924050806004+63083+021617FM-12+000999999V0209991C000019999999N0000001N9+00221+99999999999ADDGF102991999999999999999999
0029029110999991924050813004+63083+021617FM-12+000999999V0203401N003119999999N0000001N9+01111+99999999999ADDGF104991999999999999999999
0029029110999991924050820004+63083+021617FM-12+000999999V0200901N005119999999N0000001N9+00611+99999999999ADDGF103991999999999999999999
0029029110999991924050906004+63083+021617FM-12+000999999V0202301N005119999999N0000001N9+00331+99999999999ADDGF102991999999999999999999
0029029110999991924050913004+63083+021617FM-12+000999999V0202301N005119999999N0000001N9+00391+99999999999ADDGF102991999999999999999999
0029029110999991924050920004+63083+021617FM-12+000999999V0201801N001019999999N0000001N9+00331+99999999999ADDGF102991999999999999999999
0029029110999991924051006004+63083+021617FM-12+000999999V0202301N001019999999N0000001N9+00331+99999999999ADDGF102991999999999999999999
0029029110999991924051013004+63083+021617FM-12+000999999V0202301N005119999999N0000001N9+00721+99999999999ADDGF103991999999999999999999
0029029110999991924051020004+63083+021617FM-12+000999999V0202301N003119999999N0000001N9+00331+99999999999ADDGF102991999999999999999999
0029029110999991924051106004+63083+021617FM-12+000999999V0201801N001019999999N0000001N9+00441+99999999999ADDGF103991999999999999999999
0029029110999991924051113004+63083+021617FM-12+000999999V0202301N005119999999N0000001N9+01111+99999999999ADDGF104991999999999999999999
0029029110999991924051120004+63083+021617FM-12+000999999V0202301N003119999999N0000001N9+00611+99999999999ADDGF103991999999999999999999
0029029110999991924051206004+63083+021617FM-12+000999999V0209991C000019999999N0000001N9+00891+99999999999ADDGF103991999999999999999999
0029029110999991924051213004+63083+021617FM-12+000999999V0202301N003119999999N0000001N9+00391+99999999999ADDGF102991999999999999999999
0029029110999991924051220004+63083+021617FM-12+000999999V0209991C000019999999N0000001N9+00501+99999999999ADDGF103991999999999999999999
0029029110999991924051306004+63083+021617FM-12+000999999V0209991C000019999999N0000001N9+00331+99999999999ADDGF102991999999999999999999
0029029110999991924051313004+63083+021617FM-12+000999999V0209991C000019999999N0000001N9+00721+99999999999ADDGF103991999999999999999999
0029029110999991924051320004+63083+021617FM-12+000999999V0209991C000019999999N0000001N9+00441+99999999999ADDGF103991999999999999999999
0029029110999991924051406004+63083+021617FM-12+000999999V0209991C000019999999N0000001N9+00611+99999999999ADDGF103991999999999999999999
0029029110999991924051413004+63083+021617FM-12+000999999V0202301N001019999999N0000001N9+00891+99999999999ADDGF103991999999999999999999
0029029110999991924051420004+63083+021617FM-12+000999999V0202301N001019999999N0000001N9+00611+99999999999ADDGF103991999999999999999999
0029029110999991924051506004+63083+021617FM-12+000999999V0209991C000019999999N0000001N9+00671+99999999999ADDGF103991999999999999999999
0029029110999991924051513004+63083+021617FM-12+000999999V0202001N003119999999N0000001N9+00891+99999999999ADDGF103991999999999999999999
0029029110999991924051520004+63083+021617FM-12+000999999V0202301N003119999999N0000001N9+00441+99999999999ADDGF103991999999999999999999
0029029110999991924051606004+63083+021617FM-12+000999999V0202701N001019999999N0000001N9+00331+99999999999ADDGF102991999999999999999999
0029029110999991924051613004+63083+021617FM-12+000999999V0203201N003119999999N0000001N9+00831+99999999999ADDGF103991999999999999999999
0029029110999991924051620004+63083+021617FM-12+000999999V0209991C000019999999N0000001N9+00501+99999999999ADDGF103991999999999999999999
0029029110999991924051706004+63083+021617FM-12+000999999V0200901N001019999999N0000001N9+00441+99999999999ADDGF103991999999999999999999
0029029110999991924051713004+63083+021617FM-12+000999999V0200901N003119999999N0000001N9+00721+99999999999ADDGF103991999999999999999999
0029029110999991924051720004+63083+021617FM-12+000999999V0200501N001019999999N0000001N9+00391+99999999999ADDGF102991999999999999999999
0029029110999991924051806004+63083+021617FM-12+000999999V0209991C000019999999N0000001N9+00281+99999999999ADDGF102991999999999999999999
0029029110999991924051813004+63083+021617FM-12+000999999V0209991C000019999999N0000001N9+00721+99999999999ADDGF103991999999999999999999
0029029110999991924051820004+63083+021617FM-12+000999999V0209991C000019999999N0000001N9+00331+99999999999ADDGF102991999999999999999999
0029029110999991924051906004+63083+021617FM-12+000999999V0209991C000019999999N0000001N9+00331+99999999999ADDGF102991999999999999999999
0029029110999991924051913004+63083+021617FM-12+000999999V0203201N003119999999N0000001N9+01111+99999999999ADDGF104991999999999999999999
0029029110999991924051920004+63083+021617FM-12+000999999V0200501N001019999999N0000001N9+00611+99999999999ADDGF103991999999999999999999
0029029110999991924052006004+63083+021617FM-12+000999999V0200901N003119999999N0000001N9+00671+99999999999ADDGF103991999999999999999999
0029029110999991924052013004+63083+021617FM-12+000999999V0200201N005119999999N0000001N9+00831+99999999999ADDGF103991999999999999999999
0029029110999991924052020004+63083+021617FM-12+000999999V0209991C000019999999N0000001N9+00441+99999999999ADDGF103991999999999999999999
0029029110999991924052106004+63083+021617FM-12+000999999V0203401N001019999999N0000001N9+00441+99999999999ADDGF103991999999999999999999
0029029110999991924052113004+63083+021617FM-12+000999999V0203201N001019999999N0000001N9+00831+99999999999ADDGF103991999999999999999999
0029029110999991924052120004+63083+021617FM-12+000999999V0209991C000019999999N0000001N9+00331+99999999999ADDGF102991999999999999999999
0029029110999991924052206004+63083+021617FM-12+000999999V0203201N001019999999N0000001N9+00391+99999999999ADDGF102991999999999999999999
0029029110999991924052213004+63083+021617FM-12+000999999V0203201N001019999999N0000001N9+00721+99999999999ADDGF103991999999999999999999
0029029110999991924052220004+63083+021617FM-12+000999999V0209991C000019999999N0000001N9+00721+99999999999ADDGF103991999999999999999999
0029029110999991924052306004+63083+021617FM-12+000999999V0201801N001019999999N0000001N9+00611+99999999999ADDGF103991999999999999999999
0029029110999991924052313004+63083+021617FM-12+000999999V0202301N003119999999N0000001N9+00831+99999999999ADDGF103991999999999999999999
0029029110999991924052320004+63083+021617FM-12+000999999V0202501N003119999999N0000001N9+00611+99999999999ADDGF103991999999999999999999
0029029110999991924052406004+63083+021617FM-12+000999999V0203201N001019999999N0000001N9+00391+99999999999ADDGF102991999999999999999999
0029029110999991924052413004+63083+021617FM-12+000999999V0203201N001019999999N0000001N9+00891+99999999999ADDGF103991999999999999999999
0029029110999991924052420004+63083+021617FM-12+000999999V0209991C000019999999N0000001N9+00941+99999999999ADDGF103991999999999999999999
0029029110999991924052506004+63083+021617FM-12+000999999V0201401N001019999999N0000001N9+01111+99999999999ADDGF104991999999999999999999
0029029110999991924052513004+63083+021617FM-12+000999999V0201401N003119999999N0000001N9+01001+99999999999ADDGF104991999999999999999999
0029029110999991924052520004+63083+021617FM-12+000999999V0202301N005119999999N0000001N9+00941+99999999999ADDGF103991999999999999999999
0029029110999991924052606004+63083+021617FM-12+000999999V0202301N008219999999N0000001N9+00721+99999999999ADDGF103991999999999999999999
0029029110999991924052613004+63083+021617FM-12+000999999V0202301N009819999999N0000001N9+01061+99999999999ADDGF104991999999999999999999
0029029110999991924052620004+63083+021617FM-12+000999999V0202701N003119999999N0000001N9+00891+99999999999ADDGF103991999999999999999999
0029029110999991924052706004+63083+021617FM-12+000999999V0209991C000019999999N0000001N9+00721+99999999999ADDGF103991999999999999999999
0029029110999991924052713004+63083+021617FM-12+000999999V0203201N001019999999N0000001N9+01111+99999999999ADDGF104991999999999999999999
0029029110999991924052720004+63083+021617FM-12+000999999V0202301N001019999999N0000001N9+00721+99999999999ADDGF103991999999999999999999
0029029110999991924052806004+63083+021617FM-12+000999999V0202301N003119999999N0000001N9+00891+99999999999ADDGF103991999999999999999999
0029029110999991924052813004+63083+021617FM-12+000999999V0202301N005119999999N0000001N9+01111+99999999999ADDGF104991999999999999999999
0029029110999991924052820004+63083+021617FM-12+000999999V0202301N005119999999N0000001N9+00831+99999999999ADDGF103991999999999999999999
0029029110999991924052906004+63083+021617FM-12+000999999V0203201N003119999999N0000001N9+00721+99999999999ADDGF103991999999999999999999
0029029110999991924052913004+63083+021617FM-12+000999999V0202701N005119999999N0000001N9+01001+99999999999ADDGF104991999999999999999999
0029029110999991924052920004+63083+021617FM-12+000999999V0203201N003119999999N0000001N9+00721+99999999999ADDGF103991999999999999999999
0029029110999991924053006004+63083+021617FM-12+000999999V0209991C000019999999N0000001N9+00831+99999999999ADDGF103991999999999999999999
0029029110999991924053013004+63083+021617FM-12+000999999V0203201N001019999999N0000001N9+01221+99999999999ADDGF104991999999999999999999
0029029110999991924053020004+63083+021617FM-12+000999999V0209991C000019999999N0000001N9+01001+99999999999ADDGF104991999999999999999999
0029029110999991924053106004+63083+021617FM-12+000999999V0209991C000019999999N0000001N9+00891+99999999999ADDGF103991999999999999999999
0029029110999991924053113004+63083+021617FM-12+000999999V0202701N005119999999N0000001N9+01061+99999999999ADDGF104991999999999999999999
0029029110999991924053120004+63083+021617FM-12+000999999V0209991C000019999999N0000001N9+01001+99999999999ADDGF104991999999999999999999
0029029110999991924060106004+63083+021617FM-12+000999999V0203201N001019999999N0000001N9+00721+99999101621ADDGF100991999999999999999999
0029029110999991924060113004+63083+021617FM-12+000999999V0203201N003119999999N0000001N9+01001+99999101921ADDGF104991999999999999999999
0029029110999991924060120004+63083+021617FM-12+000999999V0209991C000019999999N0000001N9+00611+99999101711ADDGF108991999999999999999999
0035029110999991924060206004+63083+021617FM-12+000999999V0201401N003119999999N0000001N9+00611+99999101351ADDGF108991999999999999999999MW1621
0035029110999991924060213004+63083+021617FM-12+000999999V0201401N003119999999N0000001N9+00781+99999100801ADDGF108991999999999999999999MW1621
0035029110999991924060220004+63083+021617FM-12+000999999V0201401N003119999999N0000001N9+00831+99999100471ADDGF108991999999999999999999MW1621
0029029110999991924060306004+63083+021617FM-12+000999999V0202301N001019999999N0000001N9+00891+99999099701ADDGF108991999999999999999999
0029029110999991924060313004+63083+021617FM-12+000999999V0201801N004119999999N0000001N9+01111+99999099671ADDGF108991999999999999999999
0029029110999991924060320004+63083+021617FM-12+000999999V0202301N003119999999N0000001N9+00891+99999099561ADDGF108991999999999999999999
0035029110999991924060406004+63083+021617FM-12+000999999V0202001N003119999999N0000001N9+00671+99999099321ADDGF108991999999999999999999MW1621
0029029110999991924060413004+63083+021617FM-12+000999999V0202501N003119999999N0000001N9+00721+99999099521ADDGF108991999999999999999999
0035029110999991924060420004+63083+021617FM-12+000999999V0202701N005119999999N0000001N9+00671+99999099591ADDGF108991999999999999999999MW1621
0029029110999991924060506004+63083+021617FM-12+000999999V0202701N005119999999N0000001N9+00561+99999100031ADDGF100991999999999999999999
0029029110999991924060513004+63083+021617FM-12+000999999V0202701N009819999999N0000001N9+00941+99999100471ADDGF100991999999999999999999
0029029110999991924060520004+63083+021617FM-12+000999999V0202501N008219999999N0000001N9+00721+99999100711ADDGF106991999999999999999999
0029029110999991924060606004+63083+021617FM-12+000999999V0203201N003119999999N0000001N9+00721+99999101111ADDGF104991999999999999999999
0029029110999991924060613004+63083+021617FM-12+000999999V0203201N001019999999N0000001N9+01111+99999101501ADDGF102991999999999999999999
0029029110999991924060620004+63083+021617FM-12+000999999V0203601N003119999999N0000001N9+00611+99999101591ADDGF101991999999999999999999
0029029110999991924060706004+63083+021617FM-12+000999999V0203201N003119999999N0000001N9+00721+99999101951ADDGF100991999999999999999999
0029029110999991924060713004+63083+021617FM-12+000999999V0202701N005119999999N0000001N9+01001+99999102231ADDGF101991999999999999999999
0029029110999991924060720004+63083+021617FM-12+000999999V0202301N005119999999N0000001N9+00831+99999102121ADDGF102991999999999999999999
0029029110999991924060806004+63083+021617FM-12+000999999V0202301N005119999999N0000001N9+00891+99999102061ADDGF100991999999999999999999
0029029110999991924060813004+63083+021617FM-12+000999999V0202301N007219999999N0000001N9+01111+99999102081ADDGF105991999999999999999999
0029029110999991924060820004+63083+021617FM-12+000999999V0202301N005119999999N0000001N9+01001+99999101711ADDGF108991999999999999999999
0029029110999991924060906004+63083+021617FM-12+000999999V0202301N005119999999N0000001N9+01001+99999101821ADDGF108991999999999999999999
0029029110999991924060913004+63083+021617FM-12+000999999V0202501N007219999999N0000001N9+01331+99999101801ADDGF108991999999999999999999
0029029110999991924060920004+63083+021617FM-12+000999999V0202501N003119999999N0000001N9+01221+99999101791ADDGF108991999999999999999999
0029029110999991924061006004+63083+021617FM-12+000999999V0209991C000019999999N0000001N9+01281+99999101391ADDGF108991999999999999999999
0029029110999991924061013004+63083+021617FM-12+000999999V0200501N007219999999N0000001N9+01501+99999100901ADDGF108991999999999999999999
0035029110999991924061020004+63083+021617FM-12+000999999V0200501N003119999999N0000001N9+01001+99999100281ADDGF108991999999999999999999MW1621
0029029110999991924061106004+63083+021617FM-12+000999999V0202701N007219999999N0000001N9+00831+99999100181ADDGF108991999999999999999999
0029029110999991924061113004+63083+021617FM-12+000999999V0203201N003119999999N0000001N9+01111+99999100471ADDGF108991999999999999999999
0029029110999991924061120004+63083+021617FM-12+000999999V0209991C000019999999N0000001N9+00941+99999100591ADDGF103991999999999999999999
0029029110999991924061206004+63083+021617FM-12+000999999V0209991C000019999999N0000001N9+01061+99999100511ADDGF108991999999999999999999
0029029110999991924061213004+63083+021617FM-12+000999999V0202901N001019999999N0000001N9+01221+99999100641ADDGF108991999999999999999999
0029029110999991924061220004+63083+021617FM-12+000999999V0202701N003119999999N0000001N9+01001+99999100871ADDGF106991999999999999999999
0029029110999991924061306004+63083+021617FM-12+000999999V0200501N005119999999N0000001N9+00611+99999101041ADDGF108991999999999999999999
0029029110999991924061313004+63083+021617FM-12+000999999V0200501N003119999999N0000001N9+00831+99999101151ADDGF106991999999999999999999
0029029110999991924061320004+63083+021617FM-12+000999999V0200201N005119999999N0000001N9+00831+99999101161ADDGF102991999999999999999999
0029029110999991924061406004+63083+021617FM-12+000999999V0203601N005119999999N0000001N9+00891+99999101701ADDGF100991999999999999999999
0029029110999991924061413004+63083+021617FM-12+000999999V0203601N005119999999N0000001N9+01331+99999102061ADDGF100991999999999999999999
0029029110999991924061420004+63083+021617FM-12+000999999V0203601N005119999999N0000001N9+01001+99999102221ADDGF100991999999999999999999
0029029110999991924061506004+63083+021617FM-12+000999999V0209991C000019999999N0000001N9+01001+99999102271ADDGF104991999999999999999999
0029029110999991924061513004+63083+021617FM-12+000999999V0201101N003119999999N0000001N9+01781+99999101861ADDGF107991999999999999999999
0029029110999991924061520004+63083+021617FM-12+000999999V0201401N003119999999N0000001N9+01331+99999101521ADDGF108991999999999999999999
0035029110999991924061606004+63083+021617FM-12+000999999V0200701N001019999999N0000001N9+00831+99999100631ADDGF108991999999999999999999MW1621
0035029110999991924061613004+63083+021617FM-12+000999999V0200201N001019999999N0000001N9+01001+99999100461ADDGF108991999999999999999999MW1621
0029029110999991924061620004+63083+021617FM-12+000999999V0203601N005119999999N0000001N9+00781+99999100831ADDGF107991999999999999999999
0029029110999991924061706004+63083+021617FM-12+000999999V0209991C000019999999N0000001N9+01001+99999101541ADDGF100991999999999999999999
0029029110999991924061713004+63083+021617FM-12+000999999V0202501N005119999999N0000001N9+01391+99999101841ADDGF104991999999999999999999
0029029110999991924061720004+63083+021617FM-12+000999999V0202701N001019999999N0000001N9+01221+99999102001ADDGF100991999999999999999999
0029029110999991924061806004+63083+021617FM-12+000999999V0209991C000019999999N0000001N9+01221+99999102301ADDGF101991999999999999999999
0029029110999991924061813004+63083+021617FM-12+000999999V0203201N003119999999N0000001N9+02001+99999102521ADDGF101991999999999999999999
0029029110999991924061820004+63083+021617FM-12+000999999V0202701N005119999999N0000001N9+01391+99999102471ADDGF102991999999999999999999
0029029110999991924061906004+63083+021617FM-12+000999999V0202001N005119999999N0000001N9+01501+99999102311ADDGF102991999999999999999999
0029029110999991924061913004+63083+021617FM-12+000999999V0202001N007219999999N0000001N9+01831+99999102201ADDGF106991999999999999999999
0029029110999991924061920004+63083+021617FM-12+000999999V0203601N001019999999N0000001N9+01561+99999102111ADDGF107991999999999999999999
0029029110999991924062006004+63083+021617FM-12+000999999V0209991C000019999999N0000001N9+01501+99999102001ADDGF107991999999999999999999
0029029110999991924062013004+63083+021617FM-12+000999999V0200501N003119999999N0000001N9+02221+99999101831ADDGF108991999999999999999999
0035029110999991924062020004+63083+021617FM-12+000999999V0200701N003119999999N0000001N9+01721+99999101621ADDGF108991999999999999999999MW1621
0029029110999991924062106004+63083+021617FM-12+000999999V0200901N001019999999N0000001N9+01501+99999101321ADDGF108991999999999999999999
0029029110999991924062113004+63083+021617FM-12+000999999V0200201N005119999999N0000001N9+01721+99999101311ADDGF107991999999999999999999
0029029110999991924062120004+63083+021617FM-12+000999999V0201101N001019999999N0000001N9+01501+99999101431ADDGF108991999999999999999999
0029029110999991924062206004+63083+021617FM-12+000999999V0200901N001019999999N0000001N9+01221+99999101501ADDGF108991999999999999999999
0029029110999991924062213004+63083+021617FM-12+000999999V0200901N003119999999N0000001N9+01501+99999101581ADDGF107991999999999999999999
0029029110999991924062220004+63083+021617FM-12+000999999V0200201N001019999999N0000001N9+01391+99999101431ADDGF102991999999999999999999
0029029110999991924062306004+63083+021617FM-12+000999999V0209991C000019999999N0000001N9+01391+99999101141ADDGF108991999999999999999999
0035029110999991924062313004+63083+021617FM-12+000999999V0201101N001019999999N0000001N9+01611+99999100881ADDGF108991999999999999999999MW1621
0035029110999991924062320004+63083+021617FM-12+000999999V0200901N001019999999N0000001N9+01561+99999100601ADDGF108991999999999999999999MW1621
0035029110999991924062406004+63083+021617FM-12+000999999V0201101N003119999999N0000001N9+01441+99999099681ADDGF108991999999999999999999MW1621
0035029110999991924062413004+63083+021617FM-12+000999999V0209991C000019999999N0000001N9+01281+99999099741ADDGF108991999999999999999999MW1621
0035029110999991924062420004+63083+021617FM-12+000999999V0200501N005119999999N0000001N9+01001+99999100081ADDGF108991999999999999999999MW1621
0029029110999991924062506004+63083+021617FM-12+000999999V0200201N003119999999N0000001N9+00831+99999100741ADDGF104991999999999999999999
0029029110999991924062513004+63083+021617FM-12+000999999V0200201N005119999999N0000001N9+01111+99999101041ADDGF106991999999999999999999
0029029110999991924062520004+63083+021617FM-12+000999999V0200201N003119999999N0000001N9+00891+99999101191ADDGF106991999999999999999999
0029029110999991924062606004+63083+021617FM-12+000999999V0202701N003119999999N0000001N9+01001+99999101141ADDGF107991999999999999999999
0029029110999991924062613004+63083+021617FM-12+000999999V0203201N003119999999N0000001N9+01331+99999101041ADDGF105991999999999999999999
0029029110999991924062620004+63083+021617FM-12+000999999V0209991C000019999999N0000001N9+01221+99999101001ADDGF104991999999999999999999
0029029110999991924062706004+63083+021617FM-12+000999999V0200701N001019999999N0000001N9+01061+99999100961ADDGF101991999999999999999999
0029029110999991924062713004+63083+021617FM-12+000999999V0202901N001019999999N0000001N9+01721+99999100801ADDGF102991999999999999999999
0029029110999991924062720004+63083+021617FM-12+000999999V0200901N001019999999N0000001N9+01391+99999100471ADDGF106991999999999999999999
0035029110999991924062806004+63083+021617FM-12+000999999V0201101N005119999999N0000001N9+01001+99999099561ADDGF108991999999999999999999MW1621
0035029110999991924062813004+63083+021617FM-12+000999999V0209991C000019999999N0000001N9+01391+99999099301ADDGF108991999999999999999999MW1621
0029029110999991924062820004+63083+021617FM-12+000999999V0202901N001019999999N0000001N9+01111+99999099201ADDGF108991999999999999999999
0035029110999991924062906004+63083+021617FM-12+000999999V0203401N001019999999N0000001N9+01111+99999099141ADDGF108991999999999999999999MW1621
0029029110999991924062913004+63083+021617FM-12+000999999V0200201N003119999999N0000001N9+01281+99999099301ADDGF106991999999999999999999
0029029110999991924062920004+63083+021617FM-12+000999999V0203201N005119999999N0000001N9+00831+99999099581ADDGF107991999999999999999999
0029029110999991924063006004+63083+021617FM-12+000999999V0203201N001019999999N0000001N9+00941+99999099901ADDGF108991999999999999999999
0029029110999991924063013004+63083+021617FM-12+000999999V0202701N003119999999N0000001N9+01501+99999099821ADDGF102991999999999999999999
0029029110999991924063020004+63083+021617FM-12+000999999V0209991C000019999999N0000001N9+01331+99999099671ADDGF103991999999999999999999
0029029110999991924070106004+63083+021617FM-12+000999999V0201801N001019999999N0000001N9+01001+99999099541ADDGF108991999999999999999999
0029029110999991924070113004+63083+021617FM-12+000999999V0209991C000019999999N0000001N9+01441+99999099591ADDGF108991999999999999999999
0029029110999991924070120004+63083+021617FM-12+000999999V0202301N004119999999N0000001N9+01111+99999099551ADDGF108991999999999999999999
0029029110999991924070206004+63083+021617FM-12+000999999V0202501N001019999999N0000001N9+01221+99999099581ADDGF106991999999999999999999
0029029110999991924070213004+63083+021617FM-12+000999999V0202701N007219999999N0000001N9+01441+99999099721ADDGF102991999999999999999999
0029029110999991924070220004+63083+021617FM-12+000999999V0202301N001019999999N0000001N9+01221+99999099981ADDGF108991999999999999999999
0029029110999991924070306004+63083+021617FM-12+000999999V0202701N002119999999N0000001N9+01221+99999100401ADDGF101991999999999999999999
0029029110999991924070313004+63083+021617FM-12+000999999V0202901N002119999999N0000001N9+01831+99999100601ADDGF101991999999999999999999
0029029110999991924070320004+63083+021617FM-12+000999999V0202501N001019999999N0000001N9+01501+99999100821ADDGF108991999999999999999999
0029029110999991924070406004+63083+021617FM-12+000999999V0201101N002119999999N0000001N9+01391+99999100391ADDGF108991999999999999999999
0035029110999991924070413004+63083+021617FM-12+000999999V0201101N004119999999N0000001N9+01941+99999099941ADDGF108991999999999999999999MW1621
0035029110999991924070420004+63083+021617FM-12+000999999V0202301N004119999999N0000001N9+01331+99999099711ADDGF108991999999999999999999MW1621
0029029110999991924070506004+63083+021617FM-12+000999999V0202001N002119999999N0000001N9+01281+99999099641ADDGF108991999999999999999999
0029029110999991924070513004+63083+021617FM-12+000999999V0202001N007219999999N0000001N9+01441+99999100141ADDGF108991999999999999999999
0029029110999991924070520004+63083+021617FM-12+000999999V0202301N004119999999N0000001N9+01441+99999099941ADDGF108991999999999999999999
0035029110999991924070606004+63083+021617FM-12+000999999V0202301N002119999999N0000001N9+01171+99999099721ADDGF108991999999999999999999MW1601
0035029110999991924070613004+63083+021617FM-12+000999999V0202701N002119999999N0000001N9+01331+99999099801ADDGF107991999999999999999999MW1601
0029029110999991924070620004+63083+021617FM-12+000999999V0202701N009819999999N0000001N9+01331+99999100151ADDGF105991999999999999999999
0029029110999991924070706004+63083+021617FM-12+000999999V0202701N001019999999N0000001N9+01221+99999100111ADDGF100991999999999999999999
0029029110999991924070713004+63083+021617FM-12+000999999V0202901N004119999999N0000001N9+01611+99999100151ADDGF101991999999999999999999
0029029110999991924070720004+63083+021617FM-12+000999999V0202701N001019999999N0000001N9+01331+99999100081ADDGF102991999999999999999999
0029029110999991924070806004+63083+021617FM-12+000999999V0200501N001019999999N0000001N9+01441+99999100081ADDGF103991999999999999999999
0029029110999991924070813004+63083+021617FM-12+000999999V0202901N002119999999N0000001N9+01831+99999100081ADDGF103991999999999999999999
0029029110999991924070820004+63083+021617FM-12+000999999V0209991C000019999999N0000001N9+01441+99999100141ADDGF107991999999999999999999
0029029110999991924070906004+63083+021617FM-12+000999999V0200201N002119999999N0000001N9+01391+99999100071ADDGF104991999999999999999999
0029029110999991924070913004+63083+021617FM-12+000999999V0203201N004119999999N0000001N9+01891+99999100241ADDGF102991999999999999999999
0029029110999991924070920004+63083+021617FM-12+000999999V0203401N001019999999N0000001N9+01441+99999100501ADDGF106991999999999999999999
0029029110999991924071006004+63083+021617FM-12+000999999V0203201N002119999999N0000001N9+01221+99999100821ADDGF100991999999999999999999
0029029110999991924071013004+63083+021617FM-12+000999999V0203201N004119999999N0000001N9+01721+99999100951ADDGF104991999999999999999999
0029029110999991924071020004+63083+021617FM-12+000999999V0209991C000019999999N0000001N9+01391+99999101041ADDGF103991999999999999999999
0029029110999991924071106004+63083+021617FM-12+000999999V0200501N004119999999N0000001N9+01331+99999101351ADDGF106991999999999999999999
0029029110999991924071113004+63083+021617FM-12+000999999V0202701N002119999999N0000001N9+01721+99999101461ADDGF105991999999999999999999
0029029110999991924071120004+63083+021617FM-12+000999999V0202701N002119999999N0000001N9+01441+99999101461ADDGF101991999999999999999999
0029029110999991924071206004+63083+021617FM-12+000999999V0209991C000019999999N0000001N9+01501+99999101551ADDGF100991999999999999999999
0029029110999991924071213004+63083+021617FM-12+000999999V0202901N001019999999N0000001N9+02001+99999101631ADDGF100991999999999999999999
0029029110999991924071220004+63083+021617FM-12+000999999V0209991C000019999999N0000001N9+01561+99999101621ADDGF100991999999999999999999
0029029110999991924071306004+63083+021617FM-12+000999999V0201601N001019999999N0000001N9+01501+99999101701ADDGF102991999999999999999999
0029029110999991924071313004+63083+021617FM-12+000999999V0203201N004119999999N0000001N9+02111+99999101591ADDGF102991999999999999999999
0029029110999991924071320004+63083+021617FM-12+000999999V0200501N001019999999N0000001N9+01831+99999101461ADDGF100991999999999999999999
0029029110999991924071406004+63083+021617FM-12+000999999V0201101N001019999999N0000001N9+01441+99999101181ADDGF102991999999999999999999
0029029110999991924071413004+63083+021617FM-12+000999999V0200201N004119999999N0000001N9+02061+99999101121ADDGF107991999999999999999999
0035029110999991924071420004+63083+021617FM-12+000999999V0200201N004119999999N0000001N9+01611+99999101121ADDGF108991999999999999999999MW1601
0029029110999991924071506004+63083+021617FM-12+000999999V0203201N004119999999N0000001N9+01501+99999101191ADDGF100991999999999999999999
0029029110999991924071513004+63083+021617FM-12+000999999V0203601N007219999999N0000001N9+01831+99999101311ADDGF100991999999999999999999
0029029110999991924071520004+63083+021617FM-12+000999999V0209991C000019999999N0000001N9+01501+99999101271ADDGF100991999999999999999999
0029029110999991924071606004+63083+021617FM-12+000999999V0203201N001019999999N0000001N9+01611+99999101181ADDGF100991999999999999999999
0029029110999991924071613004+63083+021617FM-12+000999999V0202901N002119999999N0000001N9+02111+99999101241ADDGF101991999999999999999999
0029029110999991924071620004+63083+021617FM-12+000999999V0202701N001019999999N0000001N9+01721+99999101021ADDGF100991999999999999999999
0029029110999991924071706004+63083+021617FM-12+000999999V0202901N001019999999N0000001N9+01611+99999100861ADDGF100991999999999999999999
0029029110999991924071713004+63083+021617FM-12+000999999V0202301N002119999999N0000001N9+02221+99999101041ADDGF100991999999999999999999
0029029110999991924071720004+63083+021617FM-12+000999999V0202301N002119999999N0000001N9+01831+99999100921ADDGF100991999999999999999999
0029029110999991924071806004+63083+021617FM-12+000999999V0201801N001019999999N0000001N9+01611+99999101101ADDGF100991999999999999999999
0029029110999991924071813004+63083+021617FM-12+000999999V0202901N002119999999N0000001N9+02061+99999101071ADDGF104991999999999999999999
0029029110999991924071820004+63083+021617FM-12+000999999V0203601N001019999999N0000001N9+01831+99999101101ADDGF102991999999999999999999
0029029110999991924071906004+63083+021617FM-12+000999999V0209991C000019999999N0000001N9+01721+99999101121ADDGF100991999999999999999999
0029029110999991924071913004+63083+021617FM-12+000999999V0201401N002119999999N0000001N9+02721+99999101071ADDGF103991999999999999999999
0029029110999991924071920004+63083+021617FM-12+000999999V0209991C000019999999N0000001N9+02111+99999101061ADDGF100991999999999999999999
0029029110999991924072006004+63083+021617FM-12+000999999V0201401N001019999999N0000001N9+01831+99999101231ADDGF100991999999999999999999
0029029110999991924072013004+63083+021617FM-12+000999999V0203601N002119999999N0000001N9+02721+99999101121ADDGF100991999999999999999999
0029029110999991924072020004+63083+021617FM-12+000999999V0209991C000019999999N0000001N9+02061+99999101151ADDGF104991999999999999999999
0029029110999991924072106004+63083+021617FM-12+000999999V0209991C000019999999N0000001N9+02061+99999101461ADDGF100991999999999999999999
0029029110999991924072113004+63083+021617FM-12+000999999V0203401N001019999999N0000001N9+02781+99999101501ADDGF102991999999999999999999
0029029110999991924072120004+63083+021617FM-12+000999999V0200201N001019999999N0000001N9+02221+99999101381ADDGF101991999999999999999999
0029029110999991924072206004+63083+021617FM-12+000999999V0209991C000019999999N0000001N9+02001+99999101421ADDGF100991999999999999999999
0029029110999991924072213004+63083+021617FM-12+000999999V0203201N004119999999N0000001N9+02611+99999101441ADDGF104991999999999999999999
0029029110999991924072220004+63083+021617FM-12+000999999V0209991C000019999999N0000001N9+02061+99999101311ADDGF100991999999999999999999
0029029110999991924072306004+63083+021617FM-12+000999999V0209991C000019999999N0000001N9+01721+99999101191ADDGF101991999999999999999999
0029029110999991924072313004+63083+021617FM-12+000999999V0202001N001019999999N0000001N9+02501+99999100861ADDGF100991999999999999999999
0029029110999991924072320004+63083+021617FM-12+000999999V0209991C000019999999N0000001N9+02001+99999100711ADDGF102991999999999999999999
0029029110999991924072406004+63083+021617FM-12+000999999V0201401N004119999999N0000001N9+01721+99999100581ADDGF100991999999999999999999
0029029110999991924072413004+63083+021617FM-12+000999999V0201401N007219999999N0000001N9+02671+99999100621ADDGF100991999999999999999999
0029029110999991924072420004+63083+021617FM-12+000999999V0201401N004119999999N0000001N9+02111+99999100601ADDGF100991999999999999999999
0029029110999991924072506004+63083+021617FM-12+000999999V0200901N004119999999N0000001N9+01671+99999100821ADDGF100991999999999999999999
0029029110999991924072513004+63083+021617FM-12+000999999V0200901N002119999999N0000001N9+02501+99999100761ADDGF100991999999999999999999
0029029110999991924072520004+63083+021617FM-12+000999999V0209991C000019999999N0000001N9+02061+99999100941ADDGF100991999999999999999999
0029029110999991924072606004+63083+021617FM-12+000999999V0201401N001019999999N0000001N9+01721+99999101111ADDGF100991999999999999999999
0029029110999991924072613004+63083+021617FM-12+000999999V0200901N004119999999N0000001N9+02441+99999101161ADDGF106991999999999999999999
0029029110999991924072620004+63083+021617FM-12+000999999V0200501N002119999999N0000001N9+01891+99999101221ADDGF105991999999999999999999
0029029110999991924072706004+63083+021617FM-12+000999999V0209991C000019999999N0000001N9+01721+99999101141ADDGF100991999999999999999999
0029029110999991924072713004+63083+021617FM-12+000999999V0203601N004119999999N0000001N9+02441+99999101121ADDGF100991999999999999999999
0029029110999991924072720004+63083+021617FM-12+000999999V0203601N001019999999N0000001N9+01891+99999101071ADDGF100991999999999999999999
0029029110999991924072806004+63083+021617FM-12+000999999V0201401N001019999999N0000001N9+01501+99999101081ADDGF100991999999999999999999
0029029110999991924072813004+63083+021617FM-12+000999999V0201401N002119999999N0000001N9+02221+99999100981ADDGF101991999999999999999999
0029029110999991924072820004+63083+021617FM-12+000999999V0209991C000019999999N0000001N9+01721+99999100881ADDGF100991999999999999999999
0029029110999991924072906004+63083+021617FM-12+000999999V0200901N001019999999N0000001N9+01611+99999100861ADDGF106991999999999999999999
0029029110999991924072913004+63083+021617FM-12+000999999V0203601N002119999999N0000001N9+02221+99999100901ADDGF106991999999999999999999
0029029110999991924072920004+63083+021617FM-12+000999999V0200501N002119999999N0000001N9+01941+99999100841ADDGF101991999999999999999999
0029029110999991924073006004+63083+021617FM-12+000999999V0209991C000019999999N0000001N9+01611+99999101021ADDGF100991999999999999999999
0035029110999991924073013004+63083+021617FM-12+000999999V0203201N004119999999N0000001N9+02331+99999101141ADDGF103991999999999999999999MW1601
0029029110999991924073020004+63083+021617FM-12+000999999V0209991C000019999999N0000001N9+02111+99999101201ADDGF102991999999999999999999
0029029110999991924073106004+63083+021617FM-12+000999999V0209991C000019999999N0000001N9+01781+99999101271ADDGF100991999999999999999999
0029029110999991924073113004+63083+021617FM-12+000999999V0209991C000019999999N0000001N9+02331+99999101261ADDGF106991999999999999999999
0029029110999991924073120004+63083+021617FM-12+000999999V0203601N001019999999N0000001N9+02061+99999101261ADDGF100991999999999999999999
0029029110999991924080106004+63083+021617FM-12+000999999V0200901N002119999999N0000001N9+01721+99999101431ADDGF102991999999999999999999
0029029110999991924080113004+63083+021617FM-12+000999999V0202701N003119999999N0000001N9+02561+99999101441ADDGF104991999999999999999999
0029029110999991924080120004+63083+021617FM-12+000999999V0209991C000019999999N0000001N9+02061+99999101231ADDGF105991999999999999999999
0029029110999991924080206004+63083+021617FM-12+000999999V0209991C000019999999N0000001N9+01891+99999101281ADDGF106991999999999999999999
0029029110999991924080213004+63083+021617FM-12+000999999V0209991C000019999999N0000001N9+02111+99999101271ADDGF104991999999999999999999
0029029110999991924080220004+63083+021617FM-12+000999999V0209991C000019999999N0000001N9+01831+99999101231ADDGF102991999999999999999999
0029029110999991924080306004+63083+021617FM-12+000999999V0200901N001019999999N0000001N9+01611+99999101281ADDGF100991999999999999999999
0029029110999991924080313004+63083+021617FM-12+000999999V0203201N005119999999N0000001N9+02501+99999101321ADDGF104991999999999999999999
0029029110999991924080320004+63083+021617FM-12+000999999V0200901N003119999999N0000001N9+01721+99999101271ADDGF106991999999999999999999
0029029110999991924080406004+63083+021617FM-12+000999999V0201401N003119999999N0000001N9+01721+99999101191ADDGF108991999999999999999999
0029029110999991924080413004+63083+021617FM-12+000999999V0202301N005119999999N0000001N9+02391+99999101181ADDGF104991999999999999999999
0029029110999991924080420004+63083+021617FM-12+000999999V0201401N005119999999N0000001N9+01831+99999101201ADDGF107991999999999999999999
0029029110999991924080506004+63083+021617FM-12+000999999V0201401N005119999999N0000001N9+01831+99999101071ADDGF106991999999999999999999
0029029110999991924080513004+63083+021617FM-12+000999999V0201401N008219999999N0000001N9+02501+99999100841ADDGF106991999999999999999999
0029029110999991924080520004+63083+021617FM-12+000999999V0201401N005119999999N0000001N9+01721+99999100951ADDGF108991999999999999999999
0035029110999991924080606004+63083+021617FM-12+000999999V0201601N008219999999N0000001N9+01611+99999100641ADDGF108991999999999999999999MW1621
0035029110999991924080613004+63083+021617FM-12+000999999V0201801N005119999999N0000001N9+02061+99999100461ADDGF104991999999999999999999MW1621
0029029110999991924080620004+63083+021617FM-12+000999999V0201401N005119999999N0000001N9+01721+99999100321ADDGF108991999999999999999999
0029029110999991924080706004+63083+021617FM-12+000999999V0202301N005119999999N0000001N9+01611+99999100071ADDGF108991999999999999999999
0029029110999991924080713004+63083+021617FM-12+000999999V0202301N005119999999N0000001N9+01611+99999100361ADDGF100991999999999999999999
0029029110999991924080720004+63083+021617FM-12+000999999V0202501N008219999999N0000001N9+01561+99999100641ADDGF104991999999999999999999
0029029110999991924080806004+63083+021617FM-12+000999999V0202701N005119999999N0000001N9+01501+99999100941ADDGF102991999999999999999999
0029029110999991924080813004+63083+021617FM-12+000999999V0202701N005119999999N0000001N9+01721+99999101221ADDGF102991999999999999999999
0029029110999991924080820004+63083+021617FM-12+000999999V0202701N003119999999N0000001N9+01561+99999101401ADDGF104991999999999999999999
0029029110999991924080906004+63083+021617FM-12+000999999V0203201N003119999999N0000001N9+01331+99999101701ADDGF100991999999999999999999
0029029110999991924080913004+63083+021617FM-12+000999999V0202701N005119999999N0000001N9+01611+99999101941ADDGF102991999999999999999999
0029029110999991924080920004+63083+021617FM-12+000999999V0203201N005119999999N0000001N9+01611+99999102021ADDGF100991999999999999999999
0029029110999991924081006004+63083+021617FM-12+000999999V0202301N003119999999N0000001N9+01611+99999102001ADDGF100991999999999999999999
0029029110999991924081013004+63083+021617FM-12+000999999V0202501N008219999999N0000001N9+01941+99999101671ADDGF100991999999999999999999
0029029110999991924081020004+63083+021617FM-12+000999999V0202501N003119999999N0000001N9+01611+99999101541ADDGF101991999999999999999999
0029029110999991924081106004+63083+021617FM-12+000999999V0209991C000019999999N0000001N9+01441+99999101421ADDGF108991999999999999999999
0029029110999991924081113004+63083+021617FM-12+000999999V0200501N005119999999N0000001N9+01611+99999101501ADDGF108991999999999999999999
0029029110999991924081120004+63083+021617FM-12+000999999V0200901N003119999999N0000001N9+01331+99999101361ADDGF106991999999999999999999
0029029110999991924081206004+63083+021617FM-12+000999999V0209991C000019999999N0000001N9+01331+99999101181ADDGF106991999999999999999999
0029029110999991924081213004+63083+021617FM-12+000999999V0202701N003119999999N0000001N9+01831+99999101281ADDGF100991999999999999999999
0029029110999991924081220004+63083+021617FM-12+000999999V0209991C000019999999N0000001N9+01611+99999101281ADDGF100991999999999999999999
0029029110999991924081306004+63083+021617FM-12+000999999V0200901N001019999999N0000001N9+01281+99999101281ADDGF100991999999999999999999
0029029110999991924081313004+63083+021617FM-12+000999999V0202301N005119999999N0000001N9+02001+99999101481ADDGF104991999999999999999999
0029029110999991924081320004+63083+021617FM-12+000999999V0202301N001019999999N0000001N9+01721+99999101441ADDGF108991999999999999999999
0029029110999991924081406004+63083+021617FM-12+000999999V0201801N005119999999N0000001N9+01721+99999101351ADDGF108991999999999999999999
0029029110999991924081413004+63083+021617FM-12+000999999V0202501N008219999999N0000001N9+02221+99999101281ADDGF108991999999999999999999
0029029110999991924081420004+63083+021617FM-12+000999999V0202301N001019999999N0000001N9+01941+99999101221ADDGF108991999999999999999999
0029029110999991924081506004+63083+021617FM-12+000999999V0202301N003119999999N0000001N9+01831+99999101221ADDGF100991999999999999999999
0029029110999991924081513004+63083+021617FM-12+000999999V0209991C000019999999N0000001N9+02441+99999100991ADDGF104991999999999999999999
0029029110999991924081520004+63083+021617FM-12+000999999V0209991C000019999999N0000001N9+02061+99999100961ADDGF104991999999999999999999
0029029110999991924081606004+63083+021617FM-12+000999999V0201401N003119999999N0000001N9+01721+99999100981ADDGF100991999999999999999999
0029029110999991924081613004+63083+021617FM-12+000999999V0201801N003119999999N0000001N9+02611+99999100921ADDGF100991999999999999999999
0029029110999991924081620004+63083+021617FM-12+000999999V0209991C000019999999N0000001N9+01941+99999100941ADDGF108991999999999999999999
0029029110999991924081706004+63083+021617FM-12+000999999V0202001N003119999999N0000001N9+01611+99999101021ADDGF100991999999999999999999
0029029110999991924081713004+63083+021617FM-12+000999999V0201801N003119999999N0000001N9+01831+99999101151ADDGF102991999999999999999999
0029029110999991924081720004+63083+021617FM-12+000999999V0202501N001019999999N0000001N9+01611+99999101241ADDGF100991999999999999999999
0029029110999991924081806004+63083+021617FM-12+000999999V0200901N001019999999N0000001N9+01441+99999101221ADDGF100991999999999999999999
0029029110999991924081813004+63083+021617FM-12+000999999V0201401N003119999999N0000001N9+02331+99999100881ADDGF106991999999999999999999
0029029110999991924081820004+63083+021617FM-12+000999999V0209991C000019999999N0000001N9+01891+99999100581ADDGF107991999999999999999999
0029029110999991924081906004+63083+021617FM-12+000999999V0201401N001019999999N0000001N9+01721+99999100341ADDGF108991999999999999999999
0029029110999991924081913004+63083+021617FM-12+000999999V0202001N003119999999N0000001N9+02061+99999100471ADDGF106991999999999999999999
0029029110999991924081920004+63083+021617FM-12+000999999V0200701N001019999999N0000001N9+01721+99999100661ADDGF108991999999999999999999
0029029110999991924082006004+63083+021617FM-12+000999999V0202001N001019999999N0000001N9+01441+99999100501ADDGF106991999999999999999999
0029029110999991924082013004+63083+021617FM-12+000999999V0202901N001019999999N0000001N9+01831+99999100621ADDGF107991999999999999999999
0029029110999991924082020004+63083+021617FM-12+000999999V0202701N001019999999N0000001N9+01561+99999100461ADDGF108991999999999999999999
0035029110999991924082106004+63083+021617FM-12+000999999V0203601N001019999999N0000001N9+01441+99999099281ADDGF108991999999999999999999MW1621
0029029110999991924082113004+63083+021617FM-12+000999999V0202501N012919999999N0000001N9+01441+99999099461ADDGF107991999999999999999999
0029029110999991924082120004+63083+021617FM-12+000999999V0201801N003119999999N0000001N9+01331+99999099871ADDGF102991999999999999999999
0029029110999991924082206004+63083+021617FM-12+000999999V0201101N001019999999N0000001N9+01111+99999100061ADDGF100991999999999999999999
0029029110999991924082213004+63083+021617FM-12+000999999V0209991C000019999999N0000001N9+01721+99999100111ADDGF106991999999999999999999
0029029110999991924082220004+63083+021617FM-12+000999999V0209991C000019999999N0000001N9+01441+99999100201ADDGF108991999999999999999999
0029029110999991924082306004+63083+021617FM-12+000999999V0209991C000019999999N0000001N9+01281+99999100361ADDGF108991999999999999999999
0029029110999991924082313004+63083+021617FM-12+000999999V0200501N005119999999N0000001N9+01331+99999100841ADDGF108991999999999999999999
0035029110999991924082320004+63083+021617FM-12+000999999V0203601N001019999999N0000001N9+01001+99999100951ADDGF108991999999999999999999MW1601
0035029110999991924082406004+63083+021617FM-12+000999999V0200501N001019999999N0000001N9+01111+99999101201ADDGF108991999999999999999999MW1601
0029029110999991924082413004+63083+021617FM-12+000999999V0200501N005119999999N0000001N9+01281+99999101201ADDGF108991999999999999999999
0029029110999991924082420004+63083+021617FM-12+000999999V0200501N003119999999N0000001N9+01061+99999101181ADDGF102991999999999999999999
0029029110999991924082506004+63083+021617FM-12+000999999V0209991C000019999999N0000001N9+00721+99999101031ADDGF100991999999999999999999
0029029110999991924082513004+63083+021617FM-12+000999999V0203201N001019999999N0000001N9+01331+99999101001ADDGF102991999999999999999999
0029029110999991924082520004+63083+021617FM-12+000999999V0209991C000019999999N0000001N9+01001+99999101001ADDGF100991999999999999999999
0029029110999991924082606004+63083+021617FM-12+000999999V0200201N003119999999N0000001N9+01111+99999101041ADDGF100991999999999999999999
0029029110999991924082613004+63083+021617FM-12+000999999V0203601N003119999999N0000001N9+01441+99999101161ADDGF102991999999999999999999
0029029110999991924082620004+63083+021617FM-12+000999999V0209991C000019999999N0000001N9+01001+99999101391ADDGF100991999999999999999999
0029029110999991924082706004+63083+021617FM-12+000999999V0201101N001019999999N0000001N9+00721+99999101441ADDGF100991999999999999999999
0029029110999991924082713004+63083+021617FM-12+000999999V0201401N001019999999N0000001N9+01561+99999101441ADDGF106991999999999999999999
0029029110999991924082720004+63083+021617FM-12+000999999V0209991C000019999999N0000001N9+01061+99999101431ADDGF100991999999999999999999
0029029110999991924082806004+63083+021617FM-12+000999999V0202301N001019999999N0000001N9+00831+99999101471ADDGF100991999999999999999999
0029029110999991924082813004+63083+021617FM-12+000999999V0202301N003119999999N0000001N9+01611+99999101661ADDGF102991999999999999999999
0029029110999991924082820004+63083+021617FM-12+000999999V0201801N003119999999N0000001N9+01331+99999101661ADDGF106991999999999999999999
0029029110999991924082906004+63083+021617FM-12+000999999V0202001N001019999999N0000001N9+01221+99999101471ADDGF106991999999999999999999
0029029110999991924082913004+63083+021617FM-12+000999999V0201801N003119999999N0000001N9+01721+99999101561ADDGF102991999999999999999999
0029029110999991924082920004+63083+021617FM-12+000999999V0200901N003119999999N0000001N9+01331+99999101621ADDGF100991999999999999999999
0029029110999991924083006004+63083+021617FM-12+000999999V0201401N003119999999N0000001N9+01111+99999101711ADDGF100991999999999999999999
0029029110999991924083013004+63083+021617FM-12+000999999V0202501N001019999999N0000001N9+01611+99999101901ADDGF103991999999999999999999
0029029110999991924083020004+63083+021617FM-12+000999999V0209991C000019999999N0000001N9+01331+99999101741ADDGF100991999999999999999999
0029029110999991924083106004+63083+021617FM-12+000999999V0201601N001019999999N0000001N9+00941+99999101721ADDGF100991999999999999999999
0029029110999991924083113004+63083+021617FM-12+000999999V0209991C000019999999N0000001N9+01721+99999101601ADDGF104991999999999999999999
0029029110999991924083120004+63083+021617FM-12+000999999V0209991C000019999999N0000001N9+01221+99999101641ADDGF100991999999999999999999
0029029110999991924090106004+63083+021617FM-12+000999999V0209991C000019999999N0000001N9+00831+99999101661ADDGF100991999999999999999999
0029029110999991924090113004+63083+021617FM-12+000999999V0209991C000019999999N0000001N9+01561+99999101591ADDGF104991999999999999999999
0029029110999991924090120004+63083+021617FM-12+000999999V0209991C000019999999N0000001N9+01281+99999101631ADDGF100991999999999999999999
0029029110999991924090206004+63083+021617FM-12+000999999V0209991C000019999999N0000001N9+01111+99999102061ADDGF108991999999999999999999
0029029110999991924090213004+63083+021617FM-12+000999999V0202701N001019999999N0000001N9+01611+99999102101ADDGF100991999999999999999999
0029029110999991924090220004+63083+021617FM-12+000999999V0209991C000019999999N0000001N9+01331+99999102221ADDGF100991999999999999999999
0029029110999991924090306004+63083+021617FM-12+000999999V0203201N001019999999N0000001N9+01391+99999102301ADDGF100991999999999999999999
0029029110999991924090313004+63083+021617FM-12+000999999V0203201N001019999999N0000001N9+01671+99999102501ADDGF100991999999999999999999
0029029110999991924090320004+63083+021617FM-12+000999999V0209991C000019999999N0000001N9+01391+99999102501ADDGF100991999999999999999999
0029029110999991924090406004+63083+021617FM-12+000999999V0202701N007219999999N0000001N9+01501+99999102221ADDGF100991999999999999999999
0029029110999991924090413004+63083+021617FM-12+000999999V0202701N004119999999N0000001N9+01721+99999102081ADDGF100991999999999999999999
0029029110999991924090420004+63083+021617FM-12+000999999V0203201N002119999999N0000001N9+01721+99999102041ADDGF101991999999999999999999
0029029110999991924090506004+63083+021617FM-12+000999999V0203201N002119999999N0000001N9+01441+99999101801ADDGF100991999999999999999999
0029029110999991924090513004+63083+021617FM-12+000999999V0202701N001019999999N0000001N9+01781+99999101681ADDGF102991999999999999999999
0029029110999991924090520004+63083+021617FM-12+000999999V0202701N001019999999N0000001N9+01611+99999101431ADDGF100991999999999999999999
0029029110999991924090606004+63083+021617FM-12+000999999V0202901N004119999999N0000001N9+01221+99999101521ADDGF100991999999999999999999
0029029110999991924090613004+63083+021617FM-12+000999999V0202701N004119999999N0000001N9+01501+99999101321ADDGF100991999999999999999999
0029029110999991924090620004+63083+021617FM-12+000999999V0209991C000019999999N0000001N9+01331+99999101141ADDGF100991999999999999999999
0029029110999991924090706004+63083+021617FM-12+000999999V0209991C000019999999N0000001N9+01001+99999101071ADDGF108991999999999999999999
0029029110999991924090713004+63083+021617FM-12+000999999V0209991C000019999999N0000001N9+01561+99999101111ADDGF106991999999999999999999
0029029110999991924090720004+63083+021617FM-12+000999999V0209991C000019999999N0000001N9+01331+99999100981ADDGF108991999999999999999999
0029029110999991924090806004+63083+021617FM-12+000999999V0209991C000019999999N0000001N9+01221+99999100841ADDGF108991999999999999999999
0029029110999991924090813004+63083+021617FM-12+000999999V0202301N002119999999N0000001N9+01671+99999100701ADDGF108991999999999999999999
0029029110999991924090820004+63083+021617FM-12+000999999V0202301N001019999999N0000001N9+01331+99999100801ADDGF100991999999999999999999
0029029110999991924090906004+63083+021617FM-12+000999999V0201401N002119999999N0000001N9+01221+99999100201ADDGF108991999999999999999999
0029029110999991924090913004+63083+021617FM-12+000999999V0201401N007219999999N0000001N9+01441+99999099741ADDGF108991999999999999999999
0029029110999991924090920004+63083+021617FM-12+000999999V0202501N004119999999N0000001N9+01391+99999099281ADDGF108991999999999999999999
0029029110999991924091006004+63083+021617FM-12+000999999V0201801N004119999999N0000001N9+01331+99999098981ADDGF104991999999999999999999
0029029110999991924091013004+63083+021617FM-12+000999999V0200901N001019999999N0000001N9+01721+99999098441ADDGF104991999999999999999999
0029029110999991924091020004+63083+021617FM-12+000999999V0200901N004119999999N0000001N9+01281+99999097621ADDGF108991999999999999999999
0029029110999991924091106004+63083+021617FM-12+000999999V0201401N001019999999N0000001N9+01111+99999097591ADDGF108991999999999999999999
0029029110999991924091113004+63083+021617FM-12+000999999V0201401N001019999999N0000001N9+01331+99999097591ADDGF108991999999999999999999
0029029110999991924091120004+63083+021617FM-12+000999999V0203201N001019999999N0000001N9+01281+99999098031ADDGF108991999999999999999999
0029029110999991924091206004+63083+021617FM-12+000999999V0202701N007219999999N0000001N9+01061+99999098841ADDGF108991999999999999999999
0029029110999991924091213004+63083+021617FM-12+000999999V0202501N009819999999N0000001N9+01331+99999099581ADDGF102991999999999999999999
0029029110999991924091220004+63083+021617FM-12+000999999V0202701N009819999999N0000001N9+01221+99999100181ADDGF100991999999999999999999
0029029110999991924091306004+63083+021617FM-12+000999999V0201401N001019999999N0000001N9+00721+99999100541ADDGF100991999999999999999999
0029029110999991924091313004+63083+021617FM-12+000999999V0202501N007219999999N0000001N9+01391+99999100841ADDGF108991999999999999999999
0029029110999991924091320004+63083+021617FM-12+000999999V0202301N007219999999N0000001N9+01331+99999100831ADDGF100991999999999999999999
0029029110999991924091406004+63083+021617FM-12+000999999V0202301N011819999999N0000001N9+01501+99999100401ADDGF107991999999999999999999
0029029110999991924091413004+63083+021617FM-12+000999999V0202301N011819999999N0000001N9+01561+99999100501ADDGF108991999999999999999999
0029029110999991924091420004+63083+021617FM-12+000999999V0202301N007219999999N0000001N9+01441+99999100321ADDGF108991999999999999999999
0035029110999991924091506004+63083+021617FM-12+000999999V0201401N007219999999N0000001N9+01331+99999099111ADDGF108991999999999999999999MW1621
0035029110999991924091513004+63083+021617FM-12+000999999V0202501N011819999999N0000001N9+00891+99999098661ADDGF108991999999999999999999MW1621
0029029110999991924091520004+63083+021617FM-12+000999999V0202501N011819999999N0000001N9+01221+99999099541ADDGF100991999999999999999999
0029029110999991924091606004+63083+021617FM-12+000999999V0202701N007219999999N0000001N9+01061+99999100311ADDGF100991999999999999999999
0029029110999991924091613004+63083+021617FM-12+000999999V0202301N002119999999N0000001N9+01221+99999100321ADDGF108991999999999999999999
0029029110999991924091620004+63083+021617FM-12+000999999V0202301N007219999999N0000001N9+01111+99999100181ADDGF108991999999999999999999
0029029110999991924091706004+63083+021617FM-12+000999999V0202301N004119999999N0000001N9+01221+99999099541ADDGF108991999999999999999999
0029029110999991924091713004+63083+021617FM-12+000999999V0202301N009819999999N0000001N9+01281+99999099911ADDGF101991999999999999999999
0029029110999991924091720004+63083+021617FM-12+000999999V0201801N001019999999N0000001N9+01061+99999099861ADDGF100991999999999999999999
0029029110999991924091806004+63083+021617FM-12+000999999V0202301N004119999999N0000001N9+01221+99999099441ADDGF108991999999999999999999
0029029110999991924091813004+63083+021617FM-12+000999999V0202501N011819999999N0000001N9+01281+99999098871ADDGF104991999999999999999999
0029029110999991924091820004+63083+021617FM-12+000999999V0202501N011819999999N0000001N9+01221+99999098761ADDGF100991999999999999999999
0029029110999991924091906004+63083+021617FM-12+000999999V0202701N004119999999N0000001N9+01171+99999098781ADDGF102991999999999999999999
0029029110999991924091913004+63083+021617FM-12+000999999V0202701N015919999999N0000001N9+01281+99999099311ADDGF102991999999999999999999
0029029110999991924091920004+63083+021617FM-12+000999999V0202701N015919999999N0000001N9+01221+99999099721ADDGF107991999999999999999999
0029029110999991924092006004+63083+021617FM-12+000999999V0203201N007219999999N0000001N9+01111+99999100471ADDGF100991999999999999999999
0029029110999991924092013004+63083+021617FM-12+000999999V0202701N004119999999N0000001N9+01221+99999100671ADDGF100991999999999999999999
0029029110999991924092020004+63083+021617FM-12+000999999V0201801N002119999999N0000001N9+00941+99999100481ADDGF100991999999999999999999
0029029110999991924092106004+63083+021617FM-12+000999999V0201401N001019999999N0000001N9+00831+99999099991ADDGF104991999999999999999999
0035029110999991924092113004+63083+021617FM-12+000999999V0201401N002119999999N0000001N9+01061+99999099591ADDGF108991999999999999999999MW1621
0035029110999991924092120004+63083+021617FM-12+000999999V0201101N007219999999N0000001N9+01111+99999098701ADDGF108991999999999999999999MW1621
0035029110999991924092206004+63083+021617FM-12+000999999V0202001N004119999999N0000001N9+01111+99999098281ADDGF108991999999999999999999MW1621
0029029110999991924092213004+63083+021617FM-12+000999999V0202501N007219999999N0000001N9+01221+99999098661ADDGF108991999999999999999999
0029029110999991924092220004+63083+021617FM-12+000999999V0202301N004119999999N0000001N9+01221+99999099001ADDGF100991999999999999999999
0029029110999991924092306004+63083+021617FM-12+000999999V0200901N002119999999N0000001N9+00611+99999098711ADDGF104991999999999999999999
0029029110999991924092313004+63083+021617FM-12+000999999V0202701N001019999999N0000001N9+01001+99999099231ADDGF108991999999999999999999
0029029110999991924092320004+63083+021617FM-12+000999999V0202301N002119999999N0000001N9+00941+99999099911ADDGF100991999999999999999999
0029029110999991924092406004+63083+021617FM-12+000999999V0202301N002119999999N0000001N9+01111+99999100381ADDGF100991999999999999999999
0029029110999991924092413004+63083+021617FM-12+000999999V0202301N007219999999N0000001N9+01221+99999101001ADDGF102991999999999999999999
0029029110999991924092420004+63083+021617FM-12+000999999V0201601N002119999999N0000001N9+00831+99999101081ADDGF100991999999999999999999
0029029110999991924092506004+63083+021617FM-12+000999999V0201601N002119999999N0000001N9+00941+99999100861ADDGF108991999999999999999999
0029029110999991924092513004+63083+021617FM-12+000999999V0202301N002119999999N0000001N9+01111+99999100671ADDGF108991999999999999999999
0029029110999991924092520004+63083+021617FM-12+000999999V0202301N001019999999N0000001N9+00941+99999100641ADDGF104991999999999999999999
0029029110999991924092606004+63083+021617FM-12+000999999V0203201N001019999999N0000001N9+00891+99999100941ADDGF100991999999999999999999
0029029110999991924092613004+63083+021617FM-12+000999999V0203201N002119999999N0000001N9+01171+99999101361ADDGF100991999999999999999999
0029029110999991924092620004+63083+021617FM-12+000999999V0209991C000019999999N0000001N9+00831+99999101541ADDGF100991999999999999999999
0029029110999991924092706004+63083+021617FM-12+000999999V0209991C000019999999N0000001N9+00501+99999101481ADDGF108991999999999999999999
0029029110999991924092713004+63083+021617FM-12+000999999V0202901N001019999999N0000001N9+01111+99999101681ADDGF100991999999999999999999
0029029110999991924092720004+63083+021617FM-12+000999999V0209991C000019999999N0000001N9+00611+99999101441ADDGF100991999999999999999999
0029029110999991924092806004+63083+021617FM-12+000999999V0209991C000019999999N0000001N9+00391+99999101231ADDGF108991999999999999999999
0029029110999991924092813004+63083+021617FM-12+000999999V0202701N001019999999N0000001N9+01111+99999101401ADDGF101991999999999999999999
0029029110999991924092820004+63083+021617FM-12+000999999V0202701N001019999999N0000001N9+00781+99999101401ADDGF100991999999999999999999
0029029110999991924092906004+63083+021617FM-12+000999999V0209991C000019999999N0000001N9+00331+99999101271ADDGF100991999999999999999999
0029029110999991924092913004+63083+021617FM-12+000999999V0202301N001019999999N0000001N9+01111+99999100901ADDGF106991999999999999999999
0029029110999991924092920004+63083+021617FM-12+000999999V0202301N004119999999N0000001N9+00941+99999100751ADDGF108991999999999999999999
0029029110999991924093006004+63083+021617FM-12+000999999V0202501N001019999999N0000001N9+00831+99999101151ADDGF100991999999999999999999
0029029110999991924093013004+63083+021617FM-12+000999999V0202301N002119999999N0000001N9+01221+99999101481ADDGF106991999999999999999999
0029029110999991924093020004+63083+021617FM-12+000999999V0202301N004119999999N0000001N9+01061+99999101671ADDGF100991999999999999999999
0029029110999991924100106004+63083+021617FM-12+000999999V0202301N005119999999N0000001N9+01001+99999101821ADDGF108991999999999999999999
0029029110999991924100113004+63083+021617FM-12+000999999V0202301N007219999999N0000001N9+01221+99999101881ADDGF108991999999999999999999
0029029110999991924100120004+63083+021617FM-12+000999999V0201801N005119999999N0000001N9+01111+99999101941ADDGF108991999999999999999999
0035029110999991924100206004+63083+021617FM-12+000999999V0209991C000019999999N0000001N9+01111+99999102061ADDGF108991999999999999999999MW1621
0035029110999991924100213004+63083+021617FM-12+000999999V0209991C000019999999N0000001N9+01221+99999102141ADDGF108991999999999999999999MW1621
0035029110999991924100220004+63083+021617FM-12+000999999V0201601N003119999999N0000001N9+01171+99999102351ADDGF108991999999999999999999MW1621
0029029110999991924100306004+63083+021617FM-12+000999999V0209991C000019999999N0000001N9+01171+99999102501ADDGF108991999999999999999999
0029029110999991924100313004+63083+021617FM-12+000999999V0201801N003119999999N0000001N9+01441+99999102521ADDGF100991999999999999999999
