0057011060999991928010112004+67500+012067FM-12+001199999V0202001N012319999999N0500001N9+00281+99999102171ADDAY181999GF108991999999999999001001MD1710261+9999MW1801
0062011060999991928010206004+67500+012067FM-12+001199999V0201801N00931220001CN0200001N9+00281+99999100901ADDAA199002091AY121999GF101991999999017501999999MD1810461+9999
0108011060999991928010212004+67500+012067FM-12+001199999V0201601N009319999999N0100001N9+00111+99999100062ADDAY171999GF108991999011012501001001MD1810542+9999MW1681EQDQ01+000042SCOTLCQ02+100063APOSLPQ03+000542APC3  
0062014030999991929010106004+59300+004883FM-12+005799999V0203601N01231220001CN0500001N9+00221+99999101631ADDAA199003091AY111999GF101991011011012501001001MD1310341+9999
0051014030999991929010112004+59300+004883FM-12+005799999V0203201N00461220001CN0500001N9+00221+99999101901ADDAY101999GF104991021999999999001021MD1310141+9999
0070014030999991929010206004+59300+004883FM-12+005799999V0201101N00261220001CN0500001N9+00001+99999103261ADDAY101999GF104991011011999999031001MD1310261+9999EQDQ01+000992SCOLCB