0029028970999991924010106004+64217+027767FM-12+014699999V0209991C000019999999N0000001N9-01281+99999100841ADDGF108991999999999999999999
0029028970999991924010113004+64217+027767FM-12+014699999V0200701N003119999999N0000001N9-01171+99999100871ADDGF101991999999999999999999
0029028970999991924010120004+64217+027767FM-12+014699999V0209991C000019999999N0000001N9-01611+99999100641ADDGF100991999999999999999999
0029028970999991924010206004+64217+027767FM-12+014699999V0200701N002119999999N0000001N9-01221+99999100311ADDGF108991999999999999999999
0029028970999991924010213004+64217+027767FM-12+014699999V0201601N002119999999N0000001N9-01111+99999100881ADDGF100991999999999999999999
0029028970999991924010220004+64217+027767FM-12+014699999V0209991C000019999999N0000001N9-01611+99999101221ADDGF100991999999999999999999
0029028970999991924010306004+64217+027767FM-12+014699999V0209991C000019999999N0000001N9-01391+99999101101ADDGF108991999999999999999999
0029028970999991924010313004+64217+027767FM-12+014699999V0200701N001019999999N0000001N9-01171+99999100421ADDGF108991999999999999999999
0035028970999991924010320004+64217+027767FM-12+014699999V0201401N003119999999N0000001N9-01171+99999100221ADDGF108991999999999999999999MW1861
0029028970999991924010406004+64217+027767FM-12+014699999V0209991C000019999999N0000001N9-01111+99999100561ADDGF108991999999999999999999
0029028970999991924010413004+64217+027767FM-12+014699999V0209991C000019999999N0000001N9-01171+99999100661ADDGF108991999999999999999999
0029028970999991924010420004+64217+027767FM-12+014699999V0209991C000019999999N0000001N9-01671+99999100521ADDGF100991999999999999999999
0029028970999991924010506004+64217+027767FM-12+014699999V0209991C000019999999N0000001N9-01061+99999100361ADDGF108991999999999999999999
0029028970999991924010513004+64217+027767FM-12+014699999V0209991C000019999999N0000001N9-00941+99999100441ADDGF108991999999999999999999
0029028970999991924010520004+64217+027767FM-12+014699999V0201401N001019999999N0000001N9-00831+99999100671ADDGF108991999999999999999999
0029028970999991924010606004+64217+027767FM-12+014699999V0209991C000019999999N0000001N9-01441+99999100831ADDGF108991999999999999999999
0029028970999991924010613004+64217+027767FM-12+014699999V0209991C000019999999N0000001N9-01671+99999100901ADDGF100991999999999999999999
0029028970999991924010620004+64217+027767FM-12+014699999V0209991C000019999999N0000001N9-01941+99999101041ADDGF100991999999999999999999
0029028970999991924010706004+64217+027767FM-12+014699999V0209991C000019999999N0000001N9-02281+99999101271ADDGF100991999999999999999999
0029028970999991924010713004+64217+027767FM-12+014699999V0209991C000019999999N0000001N9-01721+99999101391ADDGF108991999999999999999999
0029028970999991924010720004+64217+027767FM-12+014699999V0209991C000019999999N0000001N9-01111+99999101471ADDGF108991999999999999999999
0029028970999991924010806004+64217+027767FM-12+014699999V0209991C000019999999N0000001N9-01501+99999101511ADDGF100991999999999999999999
0029028970999991924010813004+64217+027767FM-12+014699999V0209991C000019999999N0000001N9-01561+99999101711ADDGF108991999999999999999999
0029028970999991924010820004+64217+027767FM-12+014699999V0209991C000019999999N0000001N9-01171+99999101581ADDGF108991999999999999999999
0029028970999991924010906004+64217+027767FM-12+014699999V0209991C000019999999N0000001N9-00941+99999101461ADDGF108991999999999999999999
0029028970999991924010913004+64217+027767FM-12+014699999V0209991C000019999999N0000001N9-00721+99999101261ADDGF108991999999999999999999
0029028970999991924010920004+64217+027767FM-12+014699999V0209991C000019999999N0000001N9-00891+99999101311ADDGF108991999999999999999999
0029028970999991924011006004+64217+027767FM-12+014699999V0209991C000019999999N0000001N9-00611+99999101191ADDGF108991999999999999999999
0029028970999991924011013004+64217+027767FM-12+014699999V0209991C000019999999N0000001N9-00611+99999101071ADDGF107991999999999999999999
0029028970999991924011020004+64217+027767FM-12+014699999V0201601N003119999999N0000001N9-00831+99999101001ADDGF108991999999999999999999
0029028970999991924011106004+64217+027767FM-12+014699999V0209991C000019999999N0000001N9-00611+99999100791ADDGF108991999999999999999999
0029028970999991924011113004+64217+027767FM-12+014699999V0202001N001019999999N0000001N9-00671+99999100831ADDGF108991999999999999999999
0029028970999991924011120004+64217+027767FM-12+014699999V0202001N002119999999N0000001N9-00671+99999100741ADDGF108991999999999999999999
0029028970999991924011206004+64217+027767FM-12+014699999V0209991C000019999999N0000001N9-00611+99999100551ADDGF108991999999999999999999
0029028970999991924011213004+64217+027767FM-12+014699999V0209991C000019999999N0000001N9-00441+99999100441ADDGF108991999999999999999999
0029028970999991924011220004+64217+027767FM-12+014699999V0209991C000019999999N0000001N9-00391+99999100111ADDGF108991999999999999999999
0029028970999991924011306004+64217+027767FM-12+014699999V0202301N003119999999N0000001N9-00111+99999099001ADDGF108991999999999999999999
0029028970999991924011313004+64217+027767FM-12+014699999V0202701N007219999999N0000001N9+00061+99999098881ADDGF108991999999999999999999
0029028970999991924011320004+64217+027767FM-12+014699999V0209991C000019999999N0000001N9+00061+99999098871ADDGF108991999999999999999999
0029028970999991924011406004+64217+027767FM-12+014699999V0209991C000019999999N0000001N9+00061+99999098751ADDGF108991999999999999999999
0029028970999991924011413004+64217+027767FM-12+014699999V0202301N003119999999N0000001N9+00061+99999098711ADDGF108991999999999999999999
0029028970999991924011420004+64217+027767FM-12+014699999V0202501N007219999999N0000001N9+00111+99999098521ADDGF108991999999999999999999
0029028970999991924011506004+64217+027767FM-12+014699999V0202001N003119999999N0000001N9+00001+99999098741ADDGF108991999999999999999999
0029028970999991924011513004+64217+027767FM-12+014699999V0202501N006219999999N0000001N9+00061+99999098901ADDGF101991999999999999999999
0029028970999991924011520004+64217+027767FM-12+014699999V0202701N003119999999N0000001N9-00171+99999099391ADDGF101991999999999999999999
0029028970999991924011606004+64217+027767FM-12+014699999V0202301N003119999999N0000001N9-00501+99999100281ADDGF108991999999999999999999
0029028970999991924011613004+64217+027767FM-12+014699999V0209991C000019999999N0000001N9-00331+99999100701ADDGF108991999999999999999999
0029028970999991924011620004+64217+027767FM-12+014699999V0209991C000019999999N0000001N9-00671+99999100921ADDGF108991999999999999999999
0029028970999991924011706004+64217+027767FM-12+014699999V0209991C000019999999N0000001N9-00441+99999100871ADDGF108991999999999999999999
0029028970999991924011713004+64217+027767FM-12+014699999V0209991C000019999999N0000001N9-00281+99999100661ADDGF108991999999999999999999
0029028970999991924011720004+64217+027767FM-12+014699999V0202701N003119999999N0000001N9-00331+99999100621ADDGF108991999999999999999999
0029028970999991924011806004+64217+027767FM-12+014699999V0202301N002119999999N0000001N9-00331+99999100511ADDGF108991999999999999999999
0029028970999991924011813004+64217+027767FM-12+014699999V0202301N001019999999N0000001N9-00441+99999100511ADDGF108991999999999999999999
0035028970999991924011820004+64217+027767FM-12+014699999V0209991C000019999999N0000001N9-00441+99999100501ADDGF108991999999999999999999MW1721
0029028970999991924011906004+64217+027767FM-12+014699999V0201401N004119999999N0000001N9-00831+99999100441ADDGF108991999999999999999999
0029028970999991924011913004+64217+027767FM-12+014699999V0200701N002119999999N0000001N9-00941+99999100191ADDGF108991999999999999999999
0029028970999991924011920004+64217+027767FM-12+014699999V0200901N002119999999N0000001N9-01061+99999099841ADDGF108991999999999999999999
0029028970999991924012006004+64217+027767FM-12+014699999V0200501N007219999999N0000001N9-01561+99999099441ADDGF108991999999999999999999
0029028970999991924012013004+64217+027767FM-12+014699999V0200501N008719999999N0000001N9-01611+99999099231ADDGF108991999999999999999999
0029028970999991924012020004+64217+027767FM-12+014699999V0200901N008719999999N0000001N9-01721+99999099241ADDGF108991999999999999999999
0029028970999991924012106004+64217+027767FM-12+014699999V0200501N014919999999N0000001N9-01781+99999099701ADDGF100991999999999999999999
0029028970999991924012113004+64217+027767FM-12+014699999V0200701N007219999999N0000001N9-01721+99999100261ADDGF101991999999999999999999
0029028970999991924012120004+64217+027767FM-12+014699999V0209991C000019999999N0000001N9-02441+99999100761ADDGF100991999999999999999999
0029028970999991924012206004+64217+027767FM-12+014699999V0209991C000019999999N0000001N9-03171+99999101351ADDGF100991999999999999999999
0029028970999991924012213004+64217+027767FM-12+014699999V0209991C000019999999N0000001N9-02561+99999101621ADDGF100991999999999999999999
0029028970999991924012220004+64217+027767FM-12+014699999V0209991C000019999999N0000001N9-03221+99999101711ADDGF100991999999999999999999
0029028970999991924012306004+64217+027767FM-12+014699999V0209991C000019999999N0000001N9-02611+99999101231ADDGF108991999999999999999999
0029028970999991924012313004+64217+027767FM-12+014699999V0209991C000019999999N0000001N9-01831+99999100721ADDGF108991999999999999999999
0029028970999991924012320004+64217+027767FM-12+014699999V0209991C000019999999N0000001N9-01721+99999100741ADDGF108991999999999999999999
0029028970999991924012406004+64217+027767FM-12+014699999V0209991C000019999999N0000001N9-01941+99999101071ADDGF100991999999999999999999
0029028970999991924012413004+64217+027767FM-12+014699999V0209991C000019999999N0000001N9-01671+99999101311ADDGF108991999999999999999999
0029028970999991924012420004+64217+027767FM-12+014699999V0209991C000019999999N0000001N9-01331+99999101441ADDGF108991999999999999999999
0029028970999991924012506004+64217+027767FM-12+014699999V0201101N003119999999N0000001N9-01561+99999101621ADDGF104991999999999999999999
0029028970999991924012513004+64217+027767FM-12+014699999V0201801N003119999999N0000001N9-01561+99999101661ADDGF107991999999999999999999
0029028970999991924012520004+64217+027767FM-12+014699999V0200701N003119999999N0000001N9-01671+99999101621ADDGF108991999999999999999999
0029028970999991924012606004+64217+027767FM-12+014699999V0201601N007219999999N0000001N9-01671+99999101071ADDGF108991999999999999999999
0035028970999991924012613004+64217+027767FM-12+014699999V0201601N007219999999N0000001N9-01561+99999100501ADDGF108991999999999999999999MW1721
0029028970999991924012620004+64217+027767FM-12+014699999V0201601N007219999999N0000001N9-01331+99999100031ADDGF108991999999999999999999
0029028970999991924012706004+64217+027767FM-12+014699999V0201601N004119999999N0000001N9-01111+99999098711ADDGF108991999999999999999999
0035028970999991924012713004+64217+027767FM-12+014699999V0201801N004119999999N0000001N9-00831+99999098071ADDGF108991999999999999999999MW1721
0029028970999991924012720004+64217+027767FM-12+014699999V0209991C000019999999N0000001N9-00671+99999097791ADDGF108991999999999999999999
0029028970999991924012806004+64217+027767FM-12+014699999V0209991C000019999999N0000001N9-00781+99999098001ADDGF108991999999999999999999
0035028970999991924012813004+64217+027767FM-12+014699999V0201801N001019999999N0000001N9-00891+99999098381ADDGF108991999999999999999999MW1721
0029028970999991924012820004+64217+027767FM-12+014699999V0201801N001019999999N0000001N9-01061+99999098711ADDGF108991999999999999999999
0029028970999991924012906004+64217+027767FM-12+014699999V0209991C000019999999N0000001N9-01111+99999098901ADDGF108991999999999999999999
0029028970999991924012913004+64217+027767FM-12+014699999V0209991C000019999999N0000001N9-01171+99999099151ADDGF108991999999999999999999
0029028970999991924012920004+64217+027767FM-12+014699999V0209991C000019999999N0000001N9-01441+99999099191ADDGF100991999999999999999999
0029028970999991924013006004+64217+027767FM-12+014699999V0209991C000019999999N0000001N9-00561+99999098761ADDGF100991999999999999999999
0029028970999991924013013004+64217+027767FM-12+014699999V0209991C000019999999N0000001N9-00561+99999099031ADDGF101991999999999999999999
0029028970999991924013020004+64217+027767FM-12+014699999V0209991C000019999999N0000001N9-00441+99999098941ADDGF108991999999999999999999
0029028970999991924013106004+64217+027767FM-12+014699999V0202301N003119999999N0000001N9+00171+99999098191ADDGF100991999999999999999999
0029028970999991924013113004+64217+027767FM-12+014699999V0202301N002119999999N0000001N9+00001+99999098801ADDGF100991999999999999999999
0029028970999991924013120004+64217+027767FM-12+014699999V0202301N001019999999N0000001N9-00561+99999099041ADDGF100991999999999999999999
0029028970999991924020106004+64217+027767FM-12+014699999V0202001N004119999999N0000001N9-00501+99999098191ADDGF108991999999999999999999
0035028970999991924020113004+64217+027767FM-12+014699999V0202001N002119999999N0000001N9-00221+99999097121ADDGF108991999999999999999999MW1721
0029028970999991924020120004+64217+027767FM-12+014699999V0202001N002119999999N0000001N9-00331+99999096991ADDGF108991999999999999999999
0029028970999991924020206004+64217+027767FM-12+014699999V0209991C000019999999N0000001N9-00501+99999096861ADDGF108991999999999999999999
0029028970999991924020213004+64217+027767FM-12+014699999V0209991C000019999999N0000001N9-00501+99999096521ADDGF108991999999999999999999
0029028970999991924020220004+64217+027767FM-12+014699999V0201401N004119999999N0000001N9-00611+99999096191ADDGF108991999999999999999999
0029028970999991924020306004+64217+027767FM-12+014699999V0200501N007219999999N0000001N9-00611+99999096461ADDGF108991999999999999999999
0029028970999991924020313004+64217+027767FM-12+014699999V0200501N007219999999N0000001N9-00611+99999097141ADDGF108991999999999999999999
0029028970999991924020320004+64217+027767FM-12+014699999V0200501N003119999999N0000001N9-00781+99999097541ADDGF100991999999999999999999
0029028970999991924020406004+64217+027767FM-12+014699999V0200501N002119999999N0000001N9-01331+99999097711ADDGF107991999999999999999999
0029028970999991924020413004+64217+027767FM-12+014699999V0200501N002119999999N0000001N9-01391+99999097801ADDGF107991999999999999999999
0029028970999991924020420004+64217+027767FM-12+014699999V0200501N001019999999N0000001N9-01441+99999097881ADDGF100991999999999999999999
0029028970999991924020506004+64217+027767FM-12+014699999V0209991C000019999999N0000001N9-02061+99999097631ADDGF108991999999999999999999
0029028970999991924020513004+64217+027767FM-12+014699999V0209991C000019999999N0000001N9-01501+99999097421ADDGF106991999999999999999999
0029028970999991924020520004+64217+027767FM-12+014699999V0201401N003119999999N0000001N9-01391+99999097381ADDGF108991999999999999999999
0029028970999991924020606004+64217+027767FM-12+014699999V0209991C000019999999N0000001N9-01331+99999097391ADDGF108991999999999999999999
0035028970999991924020613004+64217+027767FM-12+014699999V0202701N001019999999N0000001N9-01171+99999097221ADDGF108991999999999999999999MW1721
0029028970999991924020620004+64217+027767FM-12+014699999V0209991C000019999999N0000001N9-01331+99999097241ADDGF102991999999999999999999
0029028970999991924020706004+64217+027767FM-12+014699999V0209991C000019999999N0000001N9-02331+99999097441ADDGF100991999999999999999999
0035028970999991924020713004+64217+027767FM-12+014699999V0209991C000019999999N0000001N9-02001+99999097701ADDGF108991999999999999999999MW1701
0029028970999991924020720004+64217+027767FM-12+014699999V0209991C000019999999N0000001N9-01721+99999097921ADDGF108991999999999999999999
0029028970999991924020806004+64217+027767FM-12+014699999V0209991C000019999999N0000001N9-01441+99999098151ADDGF108991999999999999999999
0029028970999991924020813004+64217+027767FM-12+014699999V0209991C000019999999N0000001N9-01501+99999098631ADDGF106991999999999999999999
0029028970999991924020820004+64217+027767FM-12+014699999V0209991C000019999999N0000001N9-02281+99999099121ADDGF100991999999999999999999
0029028970999991924020906004+64217+027767FM-12+014699999V0209991C000019999999N0000001N9-02171+99999099581ADDGF108991999999999999999999
0029028970999991924020913004+64217+027767FM-12+014699999V0209991C000019999999N0000001N9-01781+99999099581ADDGF106991999999999999999999
0035028970999991924020920004+64217+027767FM-12+014699999V0209991C000019999999N0000001N9-01281+99999099161ADDGF108991999999999999999999MW1721
0029028970999991924021006004+64217+027767FM-12+014699999V0200901N004119999999N0000001N9-01111+99999099841ADDGF107991999999999999999999
0029028970999991924021013004+64217+027767FM-12+014699999V0200901N007219999999N0000001N9-01061+99999100791ADDGF108991999999999999999999
0029028970999991924021020004+64217+027767FM-12+014699999V0200901N004119999999N0000001N9-01281+99999101311ADDGF108991999999999999999999
0029028970999991924021106004+64217+027767FM-12+014699999V0200501N001019999999N0000001N9-01561+99999101871ADDGF100991999999999999999999
0029028970999991924021113004+64217+027767FM-12+014699999V0200501N003119999999N0000001N9-01501+99999101941ADDGF108991999999999999999999
0029028970999991924021120004+64217+027767FM-12+014699999V0209991C000019999999N0000001N9-01171+99999101581ADDGF100991999999999999999999
0029028970999991924021206004+64217+027767FM-12+014699999V0200701N004119999999N0000001N9-01281+99999101241ADDGF108991999999999999999999
0035028970999991924021213004+64217+027767FM-12+014699999V0200701N003119999999N0000001N9-01391+99999101161ADDGF108991999999999999999999MW1701
0029028970999991924021220004+64217+027767FM-12+014699999V0200701N002119999999N0000001N9-01331+99999101031ADDGF108991999999999999999999
0029028970999991924021306004+64217+027767FM-12+014699999V0200201N002119999999N0000001N9-01391+99999100521ADDGF108991999999999999999999
0035028970999991924021313004+64217+027767FM-12+014699999V0201601N002119999999N0000001N9-01331+99999100231ADDGF108991999999999999999999MW1721
0029028970999991924021320004+64217+027767FM-12+014699999V0209991C000019999999N0000001N9-01391+99999100161ADDGF108991999999999999999999
0029028970999991924021406004+64217+027767FM-12+014699999V0209991C000019999999N0000001N9-01221+99999100281ADDGF108991999999999999999999
0029028970999991924021413004+64217+027767FM-12+014699999V0200901N002119999999N0000001N9-00941+99999100231ADDGF108991999999999999999999
0035028970999991924021420004+64217+027767FM-12+014699999V0200901N001019999999N0000001N9-00891+99999100191ADDGF108991999999999999999999MW1721
0029028970999991924021506004+64217+027767FM-12+014699999V0200901N003119999999N0000001N9-00721+99999099921ADDGF108991999999999999999999
0029028970999991924021513004+64217+027767FM-12+014699999V0201801N002119999999N0000001N9-00391+99999099961ADDGF108991999999999999999999
0029028970999991924021520004+64217+027767FM-12+014699999V0209991C000019999999N0000001N9-01331+99999100351ADDGF100991999999999999999999
0029028970999991924021606004+64217+027767FM-12+014699999V0202001N005119999999N0000001N9-01331+99999100181ADDGF104991999999999999999999
0029028970999991924021613004+64217+027767FM-12+014699999V0202001N002119999999N0000001N9-00891+99999100271ADDGF108991999999999999999999
0029028970999991924021620004+64217+027767FM-12+014699999V0209991C000019999999N0000001N9-00781+99999100421ADDGF104991999999999999999999
0029028970999991924021706004+64217+027767FM-12+014699999V0202501N008219999999N0000001N9-00671+99999099821ADDGF108991999999999999999999
0029028970999991924021713004+64217+027767FM-12+014699999V0202301N014919999999N0000001N9-00501+99999099181ADDGF108991999999999999999999
0029028970999991924021720004+64217+027767FM-12+014699999V0202301N014919999999N0000001N9-00391+99999098661ADDGF108991999999999999999999
0029028970999991924021806004+64217+027767FM-12+014699999V0202301N003119999999N0000001N9-00331+99999098071ADDGF108991999999999999999999
0029028970999991924021813004+64217+027767FM-12+014699999V0202301N002119999999N0000001N9-00171+99999098151ADDGF108991999999999999999999
0029028970999991924021820004+64217+027767FM-12+014699999V0202301N001019999999N0000001N9-00281+99999098431ADDGF108991999999999999999999
0035028970999991924021906004+64217+027767FM-12+014699999V0209991C000019999999N0000001N9-00561+99999098521ADDGF108991999999999999999999MW1721
0029028970999991924021913004+64217+027767FM-12+014699999V0203201N003119999999N0000001N9-01061+99999098941ADDGF100991999999999999999999
0029028970999991924021920004+64217+027767FM-12+014699999V0209991C000019999999N0000001N9-01061+99999099311ADDGF108991999999999999999999
0029028970999991924022006004+64217+027767FM-12+014699999V0209991C000019999999N0000001N9-01281+99999099441ADDGF108991999999999999999999
0035028970999991924022013004+64217+027767FM-12+014699999V0202001N002119999999N0000001N9-01061+99999099081ADDGF108991999999999999999999MW1721
0035028970999991924022020004+64217+027767FM-12+014699999V0201801N002119999999N0000001N9-00941+99999098761ADDGF108991999999999999999999MW1721
0029028970999991924022106004+64217+027767FM-12+014699999V0200901N002119999999N0000001N9-01061+99999098481ADDGF108991999999999999999999
0035028970999991924022113004+64217+027767FM-12+014699999V0200901N002119999999N0000001N9-00831+99999098481ADDGF108991999999999999999999MW1701
0029028970999991924022120004+64217+027767FM-12+014699999V0209991C000019999999N0000001N9-01001+99999098641ADDGF108991999999999999999999
0029028970999991924022206004+64217+027767FM-12+014699999V0209991C000019999999N0000001N9-01561+99999098841ADDGF108991999999999999999999
0029028970999991924022213004+64217+027767FM-12+014699999V0200501N002119999999N0000001N9-01111+99999099031ADDGF108991999999999999999999
0029028970999991924022220004+64217+027767FM-12+014699999V0209991C000019999999N0000001N9-01171+99999099151ADDGF108991999999999999999999
0029028970999991924022306004+64217+027767FM-12+014699999V0200501N003119999999N0000001N9-01281+99999099101ADDGF108991999999999999999999
0029028970999991924022313004+64217+027767FM-12+014699999V0200501N003119999999N0000001N9-01111+99999099151ADDGF106991999999999999999999
0029028970999991924022320004+64217+027767FM-12+014699999V0209991C000019999999N0000001N9-01331+99999099151ADDGF100991999999999999999999
0029028970999991924022406004+64217+027767FM-12+014699999V0209991C000019999999N0000001N9-01501+99999099151ADDGF104991999999999999999999
0029028970999991924022413004+64217+027767FM-12+014699999V0209991C000019999999N0000001N9-01111+99999099391ADDGF108991999999999999999999
0035028970999991924022420004+64217+027767FM-12+014699999V0209991C000019999999N0000001N9-01221+99999099781ADDGF108991999999999999999999MW1721
0029028970999991924022506004+64217+027767FM-12+014699999V0209991C000019999999N0000001N9-01331+99999100351ADDGF108991999999999999999999
0029028970999991924022513004+64217+027767FM-12+014699999V0200901N003119999999N0000001N9-00831+99999100751ADDGF104991999999999999999999
0029028970999991924022520004+64217+027767FM-12+014699999V0209991C000019999999N0000001N9-01281+99999101031ADDGF100991999999999999999999
0029028970999991924022606004+64217+027767FM-12+014699999V0209991C000019999999N0000001N9-01441+99999100831ADDGF100991999999999999999999
0029028970999991924022613004+64217+027767FM-12+014699999V0209991C000019999999N0000001N9-00941+99999100601ADDGF107991999999999999999999
0035028970999991924022620004+64217+027767FM-12+014699999V0202301N006219999999N0000001N9-01111+99999100481ADDGF108991999999999999999999MW1701
0029028970999991924022706004+64217+027767FM-12+014699999V0202501N006219999999N0000001N9-01171+99999999999ADDGF108991999999999999999999
0035028970999991924022713004+64217+027767FM-12+014699999V0202301N005119999999N0000001N9-01111+99999099621ADDGF108991999999999999999999MW1721
0035028970999991924022720004+64217+027767FM-12+014699999V0202301N008219999999N0000001N9-01001+99999099021ADDGF108991999999999999999999MW1721
0035028970999991924022806004+64217+027767FM-12+014699999V0202301N005119999999N0000001N9-01171+99999098761ADDGF108991999999999999999999MW1721
0035028970999991924022813004+64217+027767FM-12+014699999V0202301N004119999999N0000001N9-00831+99999098661ADDGF108991999999999999999999MW1721
0029028970999991924022820004+64217+027767FM-12+014699999V0202301N004119999999N0000001N9-00831+99999098581ADDGF108991999999999999999999
0029028970999991924022906004+64217+027767FM-12+014699999V0201801N003119999999N0000001N9-01001+99999098381ADDGF108991999999999999999999
0029028970999991924022913004+64217+027767FM-12+014699999V0201801N001019999999N0000001N9-00781+99999098361ADDGF108991999999999999999999
0029028970999991924022920004+64217+027767FM-12+014699999V0209991C000019999999N0000001N9-01111+99999098481ADDGF108991999999999999999999
0029028970999991924030106004+64217+027767FM-12+014699999V0201601N001019999999N0000001N9-01561+99999098551ADDGF108991999999999999999999
0035028970999991924030113004+64217+027767FM-12+014699999V0200501N002119999999N0000001N9-00941+99999098231ADDGF108991999999999999999999MW1721
0029028970999991924030120004+64217+027767FM-12+014699999V0209991C000019999999N0000001N9-01061+99999097981ADDGF108991999999999999999999
0035028970999991924030206004+64217+027767FM-12+014699999V0209991C000019999999N0000001N9-01171+99999097751ADDGF108991999999999999999999MW1721
0029028970999991924030213004+64217+027767FM-12+014699999V0209991C000019999999N0000001N9-00721+99999097821ADDGF108991999999999999999999
0029028970999991924030220004+64217+027767FM-12+014699999V0209991C000019999999N0000001N9-01001+99999098021ADDGF108991999999999999999999
0029028970999991924030306004+64217+027767FM-12+014699999V0209991C000019999999N0000001N9-01391+99999098661ADDGF108991999999999999999999
0029028970999991924030313004+64217+027767FM-12+014699999V0202301N001019999999N0000001N9-00891+99999099021ADDGF104991999999999999999999
0029028970999991924030320004+64217+027767FM-12+014699999V0209991C000019999999N0000001N9-01611+99999099261ADDGF104991999999999999999999
0029028970999991924030406004+64217+027767FM-12+014699999V0200701N006219999999N0000001N9-01391+99999099321ADDGF108991999999999999999999
0029028970999991924030413004+64217+027767FM-12+014699999V0200901N002119999999N0000001N9-00561+99999099041ADDGF108991999999999999999999
0029028970999991924030420004+64217+027767FM-12+014699999V0201801N006219999999N0000001N9-00111+99999099151ADDGF108991999999999999999999
0029028970999991924030506004+64217+027767FM-12+014699999V0202001N008219999999N0000001N9-00171+99999099461ADDGF108991999999999999999999
0029028970999991924030513004+64217+027767FM-12+014699999V0202001N001019999999N0000001N9-00111+99999099801ADDGF108991999999999999999999
0029028970999991924030520004+64217+027767FM-12+014699999V0209991C000019999999N0000001N9-00281+99999099981ADDGF108991999999999999999999
0035028970999991924030606004+64217+027767FM-12+014699999V0200901N001019999999N0000001N9-00281+99999099901ADDGF108991999999999999999999MW1721
0035028970999991924030613004+64217+027767FM-12+014699999V0209991C000019999999N0000001N9-00221+99999099871ADDGF108991999999999999999999MW1721
0035028970999991924030620004+64217+027767FM-12+014699999V0209991C000019999999N0000001N9-00391+99999099901ADDGF108991999999999999999999MW1721
0029028970999991924030706004+64217+027767FM-12+014699999V0209991C000019999999N0000001N9-00441+99999100401ADDGF108991999999999999999999
0029028970999991924030713004+64217+027767FM-12+014699999V0209991C000019999999N0000001N9-00441+99999100991ADDGF108991999999999999999999
0029028970999991924030720004+64217+027767FM-12+014699999V0209991C000019999999N0000001N9-00391+99999100981ADDGF108991999999999999999999
0035028970999991924030806004+64217+027767FM-12+014699999V0202001N004119999999N0000001N9-00331+99999100581ADDGF108991999999999999999999MW1721
0035028970999991924030813004+64217+027767FM-12+014699999V0202001N008219999999N0000001N9-00221+99999100041ADDGF108991999999999999999999MW1721
0029028970999991924030820004+64217+027767FM-12+014699999V0202001N007219999999N0000001N9-00281+99999099551ADDGF108991999999999999999999
0035028970999991924030906004+64217+027767FM-12+014699999V0202301N006219999999N0000001N9-00221+99999098701ADDGF108991999999999999999999MW1721
0029028970999991924030913004+64217+027767FM-12+014699999V0202301N003119999999N0000001N9+00111+99999098741ADDGF108991999999999999999999
0029028970999991924030920004+64217+027767FM-12+014699999V0202301N001019999999N0000001N9+00061+99999098901ADDGF108991999999999999999999
0029028970999991924031006004+64217+027767FM-12+014699999V0202501N001019999999N0000001N9-00891+99999099281ADDGF104991999999999999999999
0029028970999991924031013004+64217+027767FM-12+014699999V0202501N003119999999N0000001N9-00941+99999099581ADDGF108991999999999999999999
0029028970999991924031020004+64217+027767FM-12+014699999V0202501N001019999999N0000001N9-00671+99999100321ADDGF108991999999999999999999
0029028970999991924031106004+64217+027767FM-12+014699999V0209991C000019999999N0000001N9-02281+99999100901ADDGF100991999999999999999999
0029028970999991924031113004+64217+027767FM-12+014699999V0209991C000019999999N0000001N9-00611+99999101161ADDGF100991999999999999999999
0029028970999991924031120004+64217+027767FM-12+014699999V0209991C000019999999N0000001N9-01721+99999101401ADDGF100991999999999999999999
0029028970999991924031206004+64217+027767FM-12+014699999V0209991C000019999999N0000001N9-02061+99999101501ADDGF100991999999999999999999
0029028970999991924031213004+64217+027767FM-12+014699999V0202301N001019999999N0000001N9-00111+99999101391ADDGF100991999999999999999999
0029028970999991924031220004+64217+027767FM-12+014699999V0209991C000019999999N0000001N9-00891+99999101281ADDGF100991999999999999999999
0029028970999991924031306004+64217+027767FM-12+014699999V0209991C000019999999N0000001N9-01001+99999101151ADDGF108991999999999999999999
0029028970999991924031313004+64217+027767FM-12+014699999V0202301N006219999999N0000001N9+00061+99999100871ADDGF100991999999999999999999
0029028970999991924031320004+64217+027767FM-12+014699999V0202301N006219999999N0000001N9-00111+99999100661ADDGF108991999999999999999999
0029028970999991924031406004+64217+027767FM-12+014699999V0202301N004119999999N0000001N9-00441+99999100271ADDGF104991999999999999999999
0029028970999991924031413004+64217+027767FM-12+014699999V0202301N003119999999N0000001N9+00281+99999099721ADDGF106991999999999999999999
0029028970999991924031420004+64217+027767FM-12+014699999V0202301N019019999999N0000001N9+00001+99999099311ADDGF102991999999999999999999
0029028970999991924031506004+64217+027767FM-12+014699999V0202001N013919999999N0000001N9-00281+99999098361ADDGF107991999999999999999999
0035028970999991924031513004+64217+027767FM-12+014699999V0202001N011819999999N0000001N9-00171+99999097841ADDGF108991999999999999999999MW1721
0029028970999991924031520004+64217+027767FM-12+014699999V0209991C000019999999N0000001N9-00221+99999097561ADDGF108991999999999999999999
0029028970999991924031606004+64217+027767FM-12+014699999V0209991C000019999999N0000001N9-00281+99999097311ADDGF108991999999999999999999
0029028970999991924031613004+64217+027767FM-12+014699999V0209991C000019999999N0000001N9-00171+99999097351ADDGF108991999999999999999999
0029028970999991924031620004+64217+027767FM-12+014699999V0200501N004119999999N0000001N9-00941+99999097591ADDGF105991999999999999999999
0029028970999991924031706004+64217+027767FM-12+014699999V0200501N007219999999N0000001N9-01281+99999097701ADDGF108991999999999999999999
0029028970999991924031713004+64217+027767FM-12+014699999V0200501N005119999999N0000001N9-00941+99999097871ADDGF108991999999999999999999
0029028970999991924031720004+64217+027767FM-12+014699999V0200501N005119999999N0000001N9-01061+99999098201ADDGF108991999999999999999999
0029028970999991924031806004+64217+027767FM-12+014699999V0200501N002119999999N0000001N9-01171+99999098081ADDGF108991999999999999999999
0035028970999991924031813004+64217+027767FM-12+014699999V0203201N004119999999N0000001N9-00891+99999098021ADDGF108991999999999999999999MW1721
0035028970999991924031820004+64217+027767FM-12+014699999V0203201N001019999999N0000001N9-00941+99999098001ADDGF108991999999999999999999MW1721
0035028970999991924031906004+64217+027767FM-12+014699999V0209991C000019999999N0000001N9-01111+99999097871ADDGF108991999999999999999999MW1701
0035028970999991924031913004+64217+027767FM-12+014699999V0203201N002119999999N0000001N9-00671+99999098001ADDGF108991999999999999999999MW1701
0029028970999991924031920004+64217+027767FM-12+014699999V0209991C000019999999N0000001N9-01501+99999098161ADDGF100991999999999999999999
0029028970999991924032006004+64217+027767FM-12+014699999V0209991C000019999999N0000001N9-01611+99999098301ADDGF107991999999999999999999
0029028970999991924032013004+64217+027767FM-12+014699999V0202901N003119999999N0000001N9-00781+99999098431ADDGF106991999999999999999999
0029028970999991924032020004+64217+027767FM-12+014699999V0209991C000019999999N0000001N9-01061+99999098621ADDGF106991999999999999999999
0029028970999991924032106004+64217+027767FM-12+014699999V0209991C000019999999N0000001N9-02111+99999098871ADDGF104991999999999999999999
0029028970999991924032113004+64217+027767FM-12+014699999V0202501N001019999999N0000001N9-00671+99999099061ADDGF101991999999999999999999
0029028970999991924032120004+64217+027767FM-12+014699999V0209991C000019999999N0000001N9-01171+99999099071ADDGF102991999999999999999999
0029028970999991924032206004+64217+027767FM-12+014699999V0209991C000019999999N0000001N9-01781+99999098961ADDGF100991999999999999999999
0029028970999991924032213004+64217+027767FM-12+014699999V0201601N005119999999N0000001N9-00561+99999098671ADDGF108991999999999999999999
0029028970999991924032220004+64217+027767FM-12+014699999V0209991C000019999999N0000001N9-00671+99999098301ADDGF108991999999999999999999
0029028970999991924032306004+64217+027767FM-12+014699999V0209991C000019999999N0000001N9-00781+99999098121ADDGF108991999999999999999999
0035028970999991924032313004+64217+027767FM-12+014699999V0202501N003119999999N0000001N9-00671+99999098361ADDGF108991999999999999999999MW1721
0029028970999991924032320004+64217+027767FM-12+014699999V0209991C000019999999N0000001N9-01111+99999098821ADDGF100991999999999999999999
0029028970999991924032406004+64217+027767FM-12+014699999V0209991C000019999999N0000001N9-02061+99999099431ADDGF100991999999999999999999
0029028970999991924032413004+64217+027767FM-12+014699999V0209991C000019999999N0000001N9-00281+99999099711ADDGF100991999999999999999999
0029028970999991924032420004+64217+027767FM-12+014699999V0209991C000019999999N0000001N9-01281+99999099741ADDGF100991999999999999999999
0029028970999991924032506004+64217+027767FM-12+014699999V0200501N001019999999N0000001N9-01501+99999099751ADDGF108991999999999999999999
0029028970999991924032513004+64217+027767FM-12+014699999V0200501N006219999999N0000001N9-00441+99999099551ADDGF108991999999999999999999
0029028970999991924032520004+64217+027767FM-12+014699999V0200501N006219999999N0000001N9-00611+99999099421ADDGF108991999999999999999999
0029028970999991924032606004+64217+027767FM-12+014699999V0200501N006219999999N0000001N9-00831+99999099421ADDGF108991999999999999999999
0029028970999991924032613004+64217+027767FM-12+014699999V0200501N011819999999N0000001N9-00171+99999099511ADDGF100991999999999999999999
0029028970999991924032620004+64217+027767FM-12+014699999V0200501N011819999999N0000001N9-00561+99999099721ADDGF100991999999999999999999
0029028970999991924032706004+64217+027767FM-12+014699999V0200701N015919999999N0000001N9-00611+99999099761ADDGF108991999999999999999999
0029028970999991924032713004+64217+027767FM-12+014699999V0200701N007219999999N0000001N9-00171+99999099701ADDGF108991999999999999999999
0029028970999991924032720004+64217+027767FM-12+014699999V0200701N007219999999N0000001N9-00221+99999099441ADDGF108991999999999999999999
0029028970999991924032806004+64217+027767FM-12+014699999V0200901N008719999999N0000001N9-00221+99999098921ADDGF108991999999999999999999
0029028970999991924032813004+64217+027767FM-12+014699999V0200901N002119999999N0000001N9+00061+99999098841ADDGF108991999999999999999999
0029028970999991924032820004+64217+027767FM-12+014699999V0200901N001019999999N0000001N9+00111+99999098801ADDGF108991999999999999999999
0029028970999991924032906004+64217+027767FM-12+014699999V0202001N001019999999N0000001N9+00001+99999098791ADDGF108991999999999999999999
0029028970999991924032913004+64217+027767FM-12+014699999V0209991C000019999999N0000001N9+00221+99999098781ADDGF102991999999999999999999
0029028970999991924032920004+64217+027767FM-12+014699999V0209991C000019999999N0000001N9-00331+99999098821ADDGF100991999999999999999999
0029028970999991924033006004+64217+027767FM-12+014699999V0209991C000019999999N0000001N9-00831+99999098921ADDGF108991999999999999999999
0029028970999991924033013004+64217+027767FM-12+014699999V0209991C000019999999N0000001N9+00111+99999098631ADDGF108991999999999999999999
0035028970999991924033020004+64217+027767FM-12+014699999V0209991C000019999999N0000001N9-00221+99999098311ADDGF108991999999999999999999MW1721
0035028970999991924033106004+64217+027767FM-12+014699999V0209991C000019999999N0000001N9-00281+99999098341ADDGF108991999999999999999999MW1721
0035028970999991924033113004+64217+027767FM-12+014699999V0202501N001019999999N0000001N9-00171+99999098661ADDGF108991999999999999999999MW1721
0029028970999991924033120004+64217+027767FM-12+014699999V0209991C000019999999N0000001N9-00331+99999098911ADDGF100991999999999999999999
0029028970999991924040106004+64217+027767FM-12+014699999V0202701N001019999999N0000001N9-00501+99999099381ADDGF108991999999999999999999
0029028970999991924040113004+64217+027767FM-12+014699999V0203201N003119999999N0000001N9-00221+99999099901ADDGF108991999999999999999999
0029028970999991924040120004+64217+027767FM-12+014699999V0209991C000019999999N0000001N9-00281+99999100221ADDGF108991999999999999999999
0029028970999991924040206004+64217+027767FM-12+014699999V0209991C000019999999N0000001N9-00561+99999100511ADDGF100991999999999999999999
0029028970999991924040213004+64217+027767FM-12+014699999V0203201N001019999999N0000001N9+00001+99999100621ADDGF100991999999999999999999
0029028970999991924040220004+64217+027767FM-12+014699999V0209991C000019999999N0000001N9-00671+99999100521ADDGF100991999999999999999999
0029028970999991924040306004+64217+027767FM-12+014699999V0202301N004119999999N0000001N9-00671+99999099601ADDGF106991999999999999999999
0029028970999991924040313004+64217+027767FM-12+014699999V0202301N002119999999N0000001N9+00061+99999099121ADDGF108991999999999999999999
0029028970999991924040320004+64217+027767FM-12+014699999V0202301N001019999999N0000001N9+00221+99999099061ADDGF108991999999999999999999
0029028970999991924040406004+64217+027767FM-12+014699999V0209991C000019999999N0000001N9-00671+99999099631ADDGF108991999999999999999999
0029028970999991924040413004+64217+027767FM-12+014699999V0202901N002119999999N0000001N9-00331+99999099751ADDGF103991999999999999999999
0029028970999991924040420004+64217+027767FM-12+014699999V0209991C000019999999N0000001N9-01001+99999099681ADDGF100991999999999999999999
0029028970999991924040506004+64217+027767FM-12+014699999V0209991C000019999999N0000001N9-00941+99999099111ADDGF100991999999999999999999
0035028970999991924040513004+64217+027767FM-12+014699999V0202301N001019999999N0000001N9-00221+99999098621ADDGF108991999999999999999999MW1721
0029028970999991924040520004+64217+027767FM-12+014699999V0209991C000019999999N0000001N9+00171+99999098111ADDGF108991999999999999999999
0029028970999991924040606004+64217+027767FM-12+014699999V0202301N006219999999N0000001N9+00111+99999097081ADDGF108991999999999999999999
0029028970999991924040613004+64217+027767FM-12+014699999V0202501N015919999999N0000001N9+00281+99999096711ADDGF108991999999999999999999
0035028970999991924040620004+64217+027767FM-12+014699999V0202501N002119999999N0000001N9+00001+99999096641ADDGF108991999999999999999999MW1721
0029028970999991924040706004+64217+027767FM-12+014699999V0202501N008219999999N0000001N9-00221+99999096781ADDGF108991999999999999999999
0029028970999991924040713004+64217+027767FM-12+014699999V0202501N003119999999N0000001N9+00061+99999096831ADDGF104991999999999999999999
0029028970999991924040720004+64217+027767FM-12+014699999V0209991C000019999999N0000001N9-00061+99999096701ADDGF108991999999999999999999
0029028970999991924040806004+64217+027767FM-12+014699999V0202001N004119999999N0000001N9-00171+99999096071ADDGF108991999999999999999999
0029028970999991924040813004+64217+027767FM-12+014699999V0202001N003119999999N0000001N9+00441+99999095841ADDGF104991999999999999999999
0029028970999991924040820004+64217+027767FM-12+014699999V0202001N003119999999N0000001N9-00671+99999096041ADDGF108991999999999999999999
0029028970999991924040906004+64217+027767FM-12+014699999V0209991C000019999999N0000001N9-01061+99999097181ADDGF100991999999999999999999
0029028970999991924040913004+64217+027767FM-12+014699999V0202301N003119999999N0000001N9-00111+99999097601ADDGF104991999999999999999999
0029028970999991924040920004+64217+027767FM-12+014699999V0209991C000019999999N0000001N9-00281+99999097841ADDGF100991999999999999999999
0035028970999991924041006004+64217+027767FM-12+014699999V0209991C000019999999N0000001N9-00441+99999097911ADDGF108991999999999999999999MW1701
0029028970999991924041013004+64217+027767FM-12+014699999V0209991C000019999999N0000001N9+00441+99999098111ADDGF102991999999999999999999
0029028970999991924041020004+64217+027767FM-12+014699999V0209991C000019999999N0000001N9-00391+99999098461ADDGF100991999999999999999999
0029028970999991924041106004+64217+027767FM-12+014699999V0209991C000019999999N0000001N9-00831+99999098761ADDGF100991999999999999999999
0029028970999991924041113004+64217+027767FM-12+014699999V0200501N001019999999N0000001N9+00561+99999098581ADDGF100991999999999999999999
0035028970999991924041120004+64217+027767FM-12+014699999V0200701N008219999999N0000001N9-00061+99999097991ADDGF108991999999999999999999MW1721
0029028970999991924041206004+64217+027767FM-12+014699999V0201401N008219999999N0000001N9+00061+99999097231ADDGF108991999999999999999999
0029028970999991924041213004+64217+027767FM-12+014699999V0201601N006219999999N0000001N9+00281+99999097361ADDGF108991999999999999999999
0029028970999991924041220004+64217+027767FM-12+014699999V0201601N008219999999N0000001N9+00001+99999097751ADDGF108991999999999999999999
0029028970999991924041306004+64217+027767FM-12+014699999V0202001N019019999999N0000001N9-00061+99999098841ADDGF108991999999999999999999
0035028970999991924041313004+64217+027767FM-12+014699999V0201801N006219999999N0000001N9+00061+99999099241ADDGF108991999999999999999999MW1721
0029028970999991924041320004+64217+027767FM-12+014699999V0209991C000019999999N0000001N9+00061+99999099041ADDGF108991999999999999999999
0029028970999991924041406004+64217+027767FM-12+014699999V0200501N003119999999N0000001N9+00001+99999099031ADDGF104991999999999999999999
0029028970999991924041413004+64217+027767FM-12+014699999V0209991C000019999999N0000001N9+00221+99999099301ADDGF108991999999999999999999
0029028970999991924041420004+64217+027767FM-12+014699999V0209991C000019999999N0000001N9+00061+99999099431ADDGF108991999999999999999999
0029028970999991924041506004+64217+027767FM-12+014699999V0202501N003119999999N0000001N9+00001+99999099641ADDGF108991999999999999999999
0029028970999991924041513004+64217+027767FM-12+014699999V0202501N003119999999N0000001N9+00281+99999099831ADDGF101991999999999999999999
0029028970999991924041520004+64217+027767FM-12+014699999V0209991C000019999999N0000001N9-00281+99999100031ADDGF100991999999999999999999
0029028970999991924041606004+64217+027767FM-12+014699999V0209991C000019999999N0000001N9-00331+99999100281ADDGF104991999999999999999999
0029028970999991924041613004+64217+027767FM-12+014699999V0200501N005119999999N0000001N9+00721+99999100301ADDGF100991999999999999999999
0029028970999991924041620004+64217+027767FM-12+014699999V0209991C000019999999N0000001N9+00281+99999100281ADDGF100991999999999999999999
0029028970999991924041706004+64217+027767FM-12+014699999V0209991C000019999999N0000001N9+00221+99999100361ADDGF104991999999999999999999
0029028970999991924041713004+64217+027767FM-12+014699999V0201801N002119999999N0000001N9+00941+99999100461ADDGF101991999999999999999999
0029028970999991924041720004+64217+027767FM-12+014699999V0209991C000019999999N0000001N9+00281+99999100601ADDGF101991999999999999999999
0029028970999991924041806004+64217+027767FM-12+014699999V0209991C000019999999N0000001N9+00281+99999100761ADDGF100991999999999999999999
0029028970999991924041813004+64217+027767FM-12+014699999V0209991C000019999999N0000001N9+01061+99999100621ADDGF100991999999999999999999
0035028970999991924041820004+64217+027767FM-12+014699999V0209991C000019999999N0000001N9+00391+99999100541ADDGF108991999999999999999999MW1621
0029028970999991924041906004+64217+027767FM-12+014699999V0202301N001019999999N0000001N9+00171+99999100441ADDGF108991999999999999999999
0029028970999991924041913004+64217+027767FM-12+014699999V0209991C000019999999N0000001N9+00441+99999100381ADDGF106991999999999999999999
0029028970999991924041920004+64217+027767FM-12+014699999V0209991C000019999999N0000001N9+00001+99999100041ADDGF106991999999999999999999
0029028970999991924042006004+64217+027767FM-12+014699999V0209991C000019999999N0000001N9+00001+99999099871ADDGF108991999999999999999999
0029028970999991924042013004+64217+027767FM-12+014699999V0209991C000019999999N0000001N9+00501+99999099821ADDGF104991999999999999999999
0029028970999991924042020004+64217+027767FM-12+014699999V0209991C000019999999N0000001N9+00111+99999099421ADDGF106991999999999999999999
0029028970999991924042106004+64217+027767FM-12+014699999V0209991C000019999999N0000001N9+00111+99999098781ADDGF108991999999999999999999
0029028970999991924042113004+64217+027767FM-12+014699999V0201801N001019999999N0000001N9+00501+99999098601ADDGF108991999999999999999999
0029028970999991924042120004+64217+027767FM-12+014699999V0209991C000019999999N0000001N9+00111+99999098631ADDGF108991999999999999999999
0029028970999991924042206004+64217+027767FM-12+014699999V0200701N009819999999N0000001N9-00171+99999098871ADDGF108991999999999999999999
0029028970999991924042213004+64217+027767FM-12+014699999V0200701N006219999999N0000001N9-00221+99999099031ADDGF100991999999999999999999
0029028970999991924042220004+64217+027767FM-12+014699999V0200701N006219999999N0000001N9-00671+99999099041ADDGF100991999999999999999999
0029028970999991924042306004+64217+027767FM-12+014699999V0200701N019019999999N0000001N9-00611+99999098871ADDGF100991999999999999999999
0029028970999991924042313004+64217+027767FM-12+014699999V0200501N019019999999N0000001N9+00001+99999098791ADDGF100991999999999999999999
0029028970999991924042320004+64217+027767FM-12+014699999V0200501N008219999999N0000001N9-00391+99999098951ADDGF100991999999999999999999
0029028970999991924042406004+64217+027767FM-12+014699999V0200501N008219999999N0000001N9-00721+99999099201ADDGF108991999999999999999999
0029028970999991924042413004+64217+027767FM-12+014699999V0200201N007219999999N0000001N9-00111+99999099241ADDGF106991999999999999999999
0029028970999991924042420004+64217+027767FM-12+014699999V0200201N005119999999N0000001N9-00281+99999099381ADDGF106991999999999999999999
0029028970999991924042506004+64217+027767FM-12+014699999V0200201N006219999999N0000001N9-00721+99999099621ADDGF108991999999999999999999
0029028970999991924042513004+64217+027767FM-12+014699999V0200201N003119999999N0000001N9-00281+99999099681ADDGF108991999999999999999999
0029028970999991924042520004+64217+027767FM-12+014699999V0200201N001019999999N0000001N9-00281+99999099641ADDGF108991999999999999999999
0029028970999991924042606004+64217+027767FM-12+014699999V0209991C000019999999N0000001N9-00611+99999099551ADDGF104991999999999999999999
0029028970999991924042613004+64217+027767FM-12+014699999V0203201N004119999999N0000001N9-00171+99999099461ADDGF106991999999999999999999
0029028970999991924042620004+64217+027767FM-12+014699999V0203201N001019999999N0000001N9-00281+99999099461ADDGF108991999999999999999999
0029028970999991924042706004+64217+027767FM-12+014699999V0209991C000019999999N0000001N9-00501+99999099551ADDGF108991999999999999999999
0029028970999991924042713004+64217+027767FM-12+014699999V0209991C000019999999N0000001N9-00281+99999099621ADDGF108991999999999999999999
0029028970999991924042720004+64217+027767FM-12+014699999V0209991C000019999999N0000001N9-00391+99999099621ADDGF108991999999999999999999
0029028970999991924042806004+64217+027767FM-12+014699999V0209991C000019999999N0000001N9-00391+99999099551ADDGF108991999999999999999999
0029028970999991924042813004+64217+027767FM-12+014699999V0202701N003119999999N0000001N9+00001+99999099341ADDGF106991999999999999999999
0029028970999991924042820004+64217+027767FM-12+014699999V0209991C000019999999N0000001N9+00001+99999099001ADDGF106991999999999999999999
0029028970999991924042906004+64217+027767FM-12+014699999V0209991C000019999999N0000001N9-00061+99999098591ADDGF108991999999999999999999
0029028970999991924042913004+64217+027767FM-12+014699999V0202001N001019999999N0000001N9+00111+99999098601ADDGF108991999999999999999999
0029028970999991924042920004+64217+027767FM-12+014699999V0209991C000019999999N0000001N9+00001+99999098801ADDGF108991999999999999999999
0029028970999991924043006004+64217+027767FM-12+014699999V0200901N003119999999N0000001N9-00061+99999098871ADDGF104991999999999999999999
0029028970999991924043013004+64217+027767FM-12+014699999V0200901N001019999999N0000001N9+00221+99999098681ADDGF106991999999999999999999
0029028970999991924043020004+64217+027767FM-12+014699999V0209991C000019999999N0000001N9-00061+99999098871ADDGF102991999999999999999999
0029028970999991924050106004+64217+027767FM-12+014699999V0209991C000019999999N0000001N9-00221+99999098921ADDGF102991999999999999999999
0029028970999991924050113004+64217+027767FM-12+014699999V0200501N004119999999N0000001N9+00561+99999098831ADDGF108991999999999999999999
0029028970999991924050120004+64217+027767FM-12+014699999V0209991C000019999999N0000001N9+00281+99999098831ADDGF108991999999999999999999
0029028970999991924050206004+64217+027767FM-12+014699999V0209991C000019999999N0000001N9+00171+99999098831ADDGF108991999999999999999999
0029028970999991924050213004+64217+027767FM-12+014699999V0209991C000019999999N0000001N9+00561+99999099151ADDGF108991999999999999999999
0029028970999991924050220004+64217+027767FM-12+014699999V0209991C000019999999N0000001N9+00221+99999099391ADDGF108991999999999999999999
0029028970999991924050306004+64217+027767FM-12+014699999V0209991C000019999999N0000001N9+00171+99999099581ADDGF104991999999999999999999
0029028970999991924050313004+64217+027767FM-12+014699999V0202701N002119999999N0000001N9+00831+99999099801ADDGF102991999999999999999999
0029028970999991924050320004+64217+027767FM-12+014699999V0209991C000019999999N0000001N9+00501+99999099911ADDGF104991999999999999999999
0029028970999991924050406004+64217+027767FM-12+014699999V0209991C000019999999N0000001N9+00781+99999100111ADDGF100991999999999999999999
0029028970999991924050413004+64217+027767FM-12+014699999V0201801N007219999999N0000001N9+01221+99999100121ADDGF102991999999999999999999
0029028970999991924050420004+64217+027767FM-12+014699999V0209991C000019999999N0000001N9+00561+99999100021ADDGF100991999999999999999999
0029028970999991924050506004+64217+027767FM-12+014699999V0200501N003119999999N0000001N9+00221+99999100061ADDGF107991999999999999999999
0029028970999991924050513004+64217+027767FM-12+014699999V0200501N001019999999N0000001N9+01171+99999099911ADDGF102991999999999999999999
0029028970999991924050520004+64217+027767FM-12+014699999V0209991C000019999999N0000001N9+00561+99999099781ADDGF104991999999999999999999
0029028970999991924050606004+64217+027767FM-12+014699999V0209991C000019999999N0000001N9+00501+99999099301ADDGF108991999999999999999999
0035028970999991924050613004+64217+027767FM-12+014699999V0209991C000019999999N0000001N9+00611+99999099241ADDGF108991999999999999999999MW1621
0029028970999991924050620004+64217+027767FM-12+014699999V0209991C000019999999N0000001N9+00441+99999099521ADDGF108991999999999999999999
0029028970999991924050706004+64217+027767FM-12+014699999V0209991C000019999999N0000001N9+00391+99999099871ADDGF104991999999999999999999
0029028970999991924050713004+64217+027767FM-12+014699999V0201801N002119999999N0000001N9+00891+99999099701ADDGF106991999999999999999999
0029028970999991924050720004+64217+027767FM-12+014699999V0202301N001019999999N0000001N9+00281+99999099821ADDGF108991999999999999999999
0046028970999991924050806004+64217+027767FM-12+014699999V0203201N006219999999N0000001N9+00281+99999099991ADDAJ100009199999999GF107991999999999999999999
0029028970999991924050813004+64217+027767FM-12+014699999V0203201N002119999999N0000001N9+00781+99999100501ADDGF100991999999999999999999
0029028970999991924050820004+64217+027767FM-12+014699999V0209991C000019999999N0000001N9+00561+99999100391ADDGF108991999999999999999999
0052028970999991924050906004+64217+027767FM-12+014699999V0200901N005119999999N0000001N9+00331+99999099671ADDAJ100009199999999GF108991999999999999999999MW1621
0035028970999991924050913004+64217+027767FM-12+014699999V0200901N003119999999N0000001N9+00501+99999099641ADDGF108991999999999999999999MW1621
0029028970999991924050920004+64217+027767FM-12+014699999V0209991C000019999999N0000001N9+00441+99999099761ADDGF108991999999999999999999
0046028970999991924051006004+64217+027767FM-12+014699999V0209991C000019999999N0000001N9+00441+99999099801ADDAJ100009199999999GF108991999999999999999999
0029028970999991924051013004+64217+027767FM-12+014699999V0202701N006219999999N0000001N9+01061+99999099871ADDGF106991999999999999999999
0029028970999991924051020004+64217+027767FM-12+014699999V0209991C000019999999N0000001N9+00561+99999100041ADDGF100991999999999999999999
0046028970999991924051106004+64217+027767FM-12+014699999V0202501N003119999999N0000001N9+00501+99999100841ADDAJ100009199999999GF100991999999999999999999
0029028970999991924051113004+64217+027767FM-12+014699999V0202301N004119999999N0000001N9+01331+99999100861ADDGF100991999999999999999999
0029028970999991924051120004+64217+027767FM-12+014699999V0202301N003119999999N0000001N9+00941+99999100551ADDGF100991999999999999999999
0046028970999991924051206004+64217+027767FM-12+014699999V0209991C000019999999N0000001N9+00671+99999100391ADDAJ100009199999999GF108991999999999999999999
0029028970999991924051213004+64217+027767FM-12+014699999V0202001N007219999999N0000001N9+01611+99999099751ADDGF102991999999999999999999
0029028970999991924051220004+64217+027767FM-12+014699999V0202501N007219999999N0000001N9+00891+99999099621ADDGF108991999999999999999999
0046028970999991924051306004+64217+027767FM-12+014699999V0209991C000019999999N0000001N9+00501+99999099601ADDAJ100009199999999GF108991999999999999999999
0029028970999991924051313004+64217+027767FM-12+014699999V0209991C000019999999N0000001N9+00831+99999099581ADDGF108991999999999999999999
0029028970999991924051320004+64217+027767FM-12+014699999V0209991C000019999999N0000001N9+00891+99999099391ADDGF100991999999999999999999
0046028970999991924051406004+64217+027767FM-12+014699999V0209991C000019999999N0000001N9+00831+99999099801ADDAJ100009199999999GF100991999999999999999999
0029028970999991924051413004+64217+027767FM-12+014699999V0202501N006219999999N0000001N9+01221+99999099901ADDGF104991999999999999999999
0029028970999991924051420004+64217+027767FM-12+014699999V0209991C000019999999N0000001N9+00891+99999099801ADDGF108991999999999999999999
0046028970999991924051506004+64217+027767FM-12+014699999V0202501N003119999999N0000001N9+00441+99999099471ADDAJ100009199999999GF106991999999999999999999
0029028970999991924051513004+64217+027767FM-12+014699999V0202501N001019999999N0000001N9+00941+99999099791ADDGF106991999999999999999999
0035028970999991924051520004+64217+027767FM-12+014699999V0209991C000019999999N0000001N9+00671+99999099271ADDGF108991999999999999999999MW1621
0052028970999991924051606004+64217+027767FM-12+014699999V0202501N013919999999N0000001N9+00331+99999098421ADDAJ100009199999999GF108991999999999999999999MW1621
0029028970999991924051613004+64217+027767FM-12+014699999V0202501N013919999999N0000001N9+00671+99999099321ADDGF104991999999999999999999
0029028970999991924051620004+64217+027767FM-12+014699999V0209991C000019999999N0000001N9+00281+99999099761ADDGF100991999999999999999999
0046028970999991924051706004+64217+027767FM-12+014699999V0203601N003119999999N0000001N9+00501+99999099781ADDAJ100009199999999GF100991999999999999999999
0029028970999991924051713004+64217+027767FM-12+014699999V0209991C000019999999N0000001N9+00941+99999099421ADDGF108991999999999999999999
0029028970999991924051720004+64217+027767FM-12+014699999V0203201N003119999999N0000001N9+00501+99999099081ADDGF108991999999999999999999
0046028970999991924051806004+64217+027767FM-12+014699999V0203601N003119999999N0000001N9+00281+99999099161ADDAJ100009199999999GF108991999999999999999999
0029028970999991924051813004+64217+027767FM-12+014699999V0203201N003119999999N0000001N9+00561+99999099321ADDGF107991999999999999999999
0029028970999991924051820004+64217+027767FM-12+014699999V0209991C000019999999N0000001N9+00221+99999099431ADDGF108991999999999999999999
0046028970999991924051906004+64217+027767FM-12+014699999V0209991C000019999999N0000001N9+00111+99999099541ADDAJ100009199999999GF107991999999999999999999
0029028970999991924051913004+64217+027767FM-12+014699999V0209991C000019999999N0000001N9+00441+99999099591ADDGF108991999999999999999999
0029028970999991924051920004+64217+027767FM-12+014699999V0209991C000019999999N0000001N9+00281+99999099561ADDGF108991999999999999999999
0046028970999991924052006004+64217+027767FM-12+014699999V0202901N001019999999N0000001N9+00171+99999099631ADDAJ100009199999999GF108991999999999999999999
0029028970999991924052013004+64217+027767FM-12+014699999V0202701N002119999999N0000001N9+00501+99999099621ADDGF108991999999999999999999
0029028970999991924052020004+64217+027767FM-12+014699999V0203601N001019999999N0000001N9+00221+99999099711ADDGF108991999999999999999999
0046028970999991924052106004+64217+027767FM-12+014699999V0202901N002119999999N0000001N9+00221+99999099981ADDAJ100009199999999GF108991999999999999999999
0029028970999991924052113004+64217+027767FM-12+014699999V0202901N003119999999N0000001N9+00561+99999100161ADDGF107991999999999999999999
0029028970999991924052120004+64217+027767FM-12+014699999V0202901N003119999999N0000001N9+00331+99999100221ADDGF104991999999999999999999
0046028970999991924052206004+64217+027767FM-12+014699999V0209991C000019999999N0000001N9+00221+99999100311ADDAJ100009199999999GF104991999999999999999999
0029028970999991924052213004+64217+027767FM-12+014699999V0202701N007219999999N0000001N9+00781+99999100271ADDGF104991999999999999999999
0029028970999991924052220004+64217+027767FM-12+014699999V0209991C000019999999N0000001N9+00561+99999100041ADDGF100991999999999999999999
0046028970999991924052306004+64217+027767FM-12+014699999V0200501N001019999999N0000001N9+00561+99999099741ADDAJ100009199999999GF102991999999999999999999
0035028970999991924052313004+64217+027767FM-12+014699999V0202301N003119999999N0000001N9+00941+99999099281ADDGF108991999999999999999999MW1621
0035028970999991924052320004+64217+027767FM-12+014699999V0209991C000019999999N0000001N9+00561+99999098761ADDGF108991999999999999999999MW1621
0052028970999991924052406004+64217+027767FM-12+014699999V0200501N003119999999N0000001N9+00561+99999098081ADDAJ100009199999999GF108991999999999999999999MW1621
0029028970999991924052413004+64217+027767FM-12+014699999V0200501N001019999999N0000001N9+00721+99999098281ADDGF108991999999999999999999
0029028970999991924052420004+64217+027767FM-12+014699999V0209991C000019999999N0000001N9+00671+99999098581ADDGF108991999999999999999999
0046028970999991924052506004+64217+027767FM-12+014699999V0209991C000019999999N0000001N9+00561+99999098831ADDAJ100009199999999GF108991999999999999999999
0029028970999991924052513004+64217+027767FM-12+014699999V0200901N003119999999N0000001N9+01281+99999098641ADDGF107991999999999999999999
0035028970999991924052520004+64217+027767FM-12+014699999V0201801N003119999999N0000001N9+00891+99999098001ADDGF108991999999999999999999MW1621
0046028970999991924052606004+64217+027767FM-12+014699999V0202301N007219999999N0000001N9+00941+99999097721ADDAJ100009199999999GF108991999999999999999999
0029028970999991924052613004+64217+027767FM-12+014699999V0202501N007219999999N0000001N9+01391+99999097981ADDGF105991999999999999999999
0029028970999991924052620004+64217+027767FM-12+014699999V0202501N007219999999N0000001N9+00941+99999098481ADDGF106991999999999999999999
0046028970999991924052706004+64217+027767FM-12+014699999V0202301N001019999999N0000001N9+00891+99999098761ADDAJ100009199999999GF104991999999999999999999
0029028970999991924052713004+64217+027767FM-12+014699999V0202501N003119999999N0000001N9+01441+99999099001ADDGF104991999999999999999999
0029028970999991924052720004+64217+027767FM-12+014699999V0202501N003119999999N0000001N9+01061+99999099391ADDGF104991999999999999999999
0046028970999991924052806004+64217+027767FM-12+014699999V0209991C000019999999N0000001N9+00941+99999099751ADDAJ100009199999999GF100991999999999999999999
0029028970999991924052813004+64217+027767FM-12+014699999V0202301N004119999999N0000001N9+01611+99999099551ADDGF106991999999999999999999
0029028970999991924052820004+64217+027767FM-12+014699999V0202301N004119999999N0000001N9+00941+99999099481ADDGF106991999999999999999999
0046028970999991924052906004+64217+027767FM-12+014699999V0202301N002119999999N0000001N9+00831+99999099421ADDAJ100009199999999GF104991999999999999999999
0029028970999991924052913004+64217+027767FM-12+014699999V0202501N013919999999N0000001N9+01111+99999099541ADDGF107991999999999999999999
0029028970999991924052920004+64217+027767FM-12+014699999V0202501N006219999999N0000001N9+00721+99999099871ADDGF106991999999999999999999
0046028970999991924053006004+64217+027767FM-12+014699999V0209991C000019999999N0000001N9+00721+99999100321ADDAJ100009199999999GF100991999999999999999999
0029028970999991924053013004+64217+027767FM-12+014699999V0202701N006219999999N0000001N9+01171+99999100381ADDGF100991999999999999999999
0029028970999991924053020004+64217+027767FM-12+014699999V0209991C000019999999N0000001N9+01061+99999100101ADDGF108991999999999999999999
0052028970999991924053106004+64217+027767FM-12+014699999V0209991C000019999999N0000001N9+00781+99999099201ADDAJ100009199999999GF108991999999999999999999MW1621
0035028970999991924053113004+64217+027767FM-12+014699999V0202301N002119999999N0000001N9+01001+99999098461ADDGF108991999999999999999999MW1621
0029028970999991924053120004+64217+027767FM-12+014699999V0202301N003119999999N0000001N9+00781+99999098801ADDGF100991999999999999999999
0046028970999991924060106004+64217+027767FM-12+014699999V0202501N007219999999N0000001N9+00611+99999099471ADDAJ100009199999999GF100991999999999999999999
0029028970999991924060113004+64217+027767FM-12+014699999V0202501N004119999999N0000001N9+01061+99999099791ADDGF104991999999999999999999
0029028970999991924060120004+64217+027767FM-12+014699999V0209991C000019999999N0000001N9+00721+99999100031ADDGF102991999999999999999999
0046028970999991924060206004+64217+027767FM-12+014699999V0200501N003119999999N0000001N9+00671+99999100151ADDAJ100009199999999GF108991999999999999999999
0029028970999991924060213004+64217+027767FM-12+014699999V0200901N003119999999N0000001N9+00941+99999099871ADDGF108991999999999999999999
0035028970999991924060220004+64217+027767FM-12+014699999V0200701N001019999999N0000001N9+00611+99999099361ADDGF108991999999999999999999MW1621
0052028970999991924060306004+64217+027767FM-12+014699999V0200901N004119999999N0000001N9+00501+99999098601ADDAJ100009199999999GF108991999999999999999999MW1621
0035028970999991924060313004+64217+027767FM-12+014699999V0200901N004119999999N0000001N9+00781+99999098161ADDGF108991999999999999999999MW1621
0029028970999991924060320004+64217+027767FM-12+014699999V0209991C000019999999N0000001N9+01001+99999097841ADDGF107991999999999999999999
0046028970999991924060406004+64217+027767FM-12+014699999V0209991C000019999999N0000001N9+00831+99999097751ADDAJ100009199999999GF107991999999999999999999
0029028970999991924060413004+64217+027767FM-12+014699999V0202301N006219999999N0000001N9+01281+99999097781ADDGF106991999999999999999999
0029028970999991924060420004+64217+027767FM-12+014699999V0209991C000019999999N0000001N9+00831+99999097791ADDGF104991999999999999999999
0046028970999991924060506004+64217+027767FM-12+014699999V0209991C000019999999N0000001N9+00611+99999097921ADDAJ100009199999999GF108991999999999999999999
0035028970999991924060513004+64217+027767FM-12+014699999V0209991C000019999999N0000001N9+00831+99999098391ADDGF108991999999999999999999MW1621
0029028970999991924060520004+64217+027767FM-12+014699999V0209991C000019999999N0000001N9+00671+99999098801ADDGF104991999999999999999999
0046028970999991924060606004+64217+027767FM-12+014699999V0209991C000019999999N0000001N9+00391+99999099231ADDAJ100009199999999GF108991999999999999999999
0035028970999991924060613004+64217+027767FM-12+014699999V0202301N001019999999N0000001N9+00831+99999099741ADDGF108991999999999999999999MW1621
0029028970999991924060620004+64217+027767FM-12+014699999V0209991C000019999999N0000001N9+00781+99999099881ADDGF100991999999999999999999
0046028970999991924060706004+64217+027767FM-12+014699999V0209991C000019999999N0000001N9+01111+99999099951ADDAJ100009199999999GF100991999999999999999999
0029028970999991924060713004+64217+027767FM-12+014699999V0202701N004119999999N0000001N9+01281+99999999999ADDGF102991999999999999999999
0029028970999991924060720004+64217+027767FM-12+014699999V0202701N002119999999N0000001N9+00941+99999100231ADDGF100991999999999999999999
0046028970999991924060806004+64217+027767FM-12+014699999V0201801N004119999999N0000001N9+00941+99999100351ADDAJ100009199999999GF100991999999999999999999
0029028970999991924060813004+64217+027767FM-12+014699999V0202001N009819999999N0000001N9+01441+99999100271ADDGF106991999999999999999999
0029028970999991924060820004+64217+027767FM-12+014699999V0202001N003119999999N0000001N9+00941+99999100181ADDGF100991999999999999999999
0046028970999991924060906004+64217+027767FM-12+014699999V0202301N006219999999N0000001N9+01061+99999100021ADDAJ100009199999999GF106991999999999999999999
0029028970999991924060913004+64217+027767FM-12+014699999V0202301N008219999999N0000001N9+01501+99999099981ADDGF107991999999999999999999
0029028970999991924060920004+64217+027767FM-12+014699999V0202301N003119999999N0000001N9+01061+99999100061ADDGF108991999999999999999999
0046028970999991924061006004+64217+027767FM-12+014699999V0209991C000019999999N0000001N9+01281+99999099821ADDAJ100009199999999GF108991999999999999999999
0029028970999991924061013004+64217+027767FM-12+014699999V0209991C000019999999N0000001N9+01941+99999099511ADDGF107991999999999999999999
0029028970999991924061020004+64217+027767FM-12+014699999V0209991C000019999999N0000001N9+01561+99999098921ADDGF108991999999999999999999
0046028970999991924061106004+64217+027767FM-12+014699999V0202301N004119999999N0000001N9+01221+99999097961ADDAJ100009199999999GF104991999999999999999999
0035028970999991924061113004+64217+027767FM-12+014699999V0202301N004119999999N0000001N9+00941+99999098121ADDGF108991999999999999999999MW1621
0029028970999991924061120004+64217+027767FM-12+014699999V0202301N004119999999N0000001N9+00671+99999098521ADDGF108991999999999999999999
0046028970999991924061206004+64217+027767FM-12+014699999V0202701N004119999999N0000001N9+00501+99999098951ADDAJ100009199999999GF107991999999999999999999
0029028970999991924061213004+64217+027767FM-12+014699999V0209991C000019999999N0000001N9+01111+99999099151ADDGF104991999999999999999999
0029028970999991924061220004+64217+027767FM-12+014699999V0209991C000019999999N0000001N9+01171+99999099241ADDGF106991999999999999999999
0046028970999991924061306004+64217+027767FM-12+014699999V0209991C000019999999N0000001N9+01281+99999099281ADDAJ100009199999999GF108991999999999999999999
0035028970999991924061313004+64217+027767FM-12+014699999V0202701N003119999999N0000001N9+01221+99999099351ADDGF108991999999999999999999MW1621
0029028970999991924061320004+64217+027767FM-12+014699999V0209991C000019999999N0000001N9+00831+99999099301ADDGF108991999999999999999999
0046028970999991924061406004+64217+027767FM-12+014699999V0203201N008219999999N0000001N9+00441+99999099441ADDAJ100009199999999GF108991999999999999999999
0029028970999991924061413004+64217+027767FM-12+014699999V0200201N001019999999N0000001N9+01331+99999100031ADDGF102991999999999999999999
0029028970999991924061420004+64217+027767FM-12+014699999V0209991C000019999999N0000001N9+01171+99999100461ADDGF100991999999999999999999
0046028970999991924061506004+64217+027767FM-12+014699999V0209991C000019999999N0000001N9+01221+99999100831ADDAJ100009199999999GF100991999999999999999999
0029028970999991924061513004+64217+027767FM-12+014699999V0200501N002119999999N0000001N9+01671+99999100551ADDGF103991999999999999999999
0029028970999991924061520004+64217+027767FM-12+014699999V0209991C000019999999N0000001N9+01331+99999100281ADDGF106991999999999999999999
0052028970999991924061606004+64217+027767FM-12+014699999V0200501N004119999999N0000001N9+00721+99999099581ADDAJ100009199999999GF108991999999999999999999MW1621
0035028970999991924061613004+64217+027767FM-12+014699999V0200501N004119999999N0000001N9+00941+99999099001ADDGF108991999999999999999999MW1621
0035028970999991924061620004+64217+027767FM-12+014699999V0209991C000019999999N0000001N9+01221+99999098791ADDGF108991999999999999999999MW1621
0046028970999991924061706004+64217+027767FM-12+014699999V0202701N008719999999N0000001N9+00781+99999099271ADDAJ100009199999999GF108991999999999999999999
0029028970999991924061713004+64217+027767FM-12+014699999V0202501N008719999999N0000001N9+01111+99999099941ADDGF105991999999999999999999
0029028970999991924061720004+64217+027767FM-12+014699999V0209991C000019999999N0000001N9+01281+99999100311ADDGF100991999999999999999999
0046028970999991924061806004+64217+027767FM-12+014699999V0202701N004119999999N0000001N9+01221+99999100701ADDAJ100009199999999GF100991999999999999999999
0029028970999991924061813004+64217+027767FM-12+014699999V0202701N004119999999N0000001N9+01831+99999100861ADDGF102991999999999999999999
0029028970999991924061820004+64217+027767FM-12+014699999V0209991C000019999999N0000001N9+01721+99999100841ADDGF100991999999999999999999
0046028970999991924061906004+64217+027767FM-12+014699999V0201801N006219999999N0000001N9+01781+99999100621ADDAJ100009199999999GF100991999999999999999999
0029028970999991924061913004+64217+027767FM-12+014699999V0202701N008719999999N0000001N9+02001+99999100381ADDGF104991999999999999999999
0029028970999991924061920004+64217+027767FM-12+014699999V0209991C000019999999N0000001N9+01561+99999100461ADDGF103991999999999999999999
0046028970999991924062006004+64217+027767FM-12+014699999V0209991C000019999999N0000001N9+01331+99999100631ADDAJ100009199999999GF102991999999999999999999
0029028970999991924062013004+64217+027767FM-12+014699999V0200501N001019999999N0000001N9+01941+99999100501ADDGF102991999999999999999999
0029028970999991924062020004+64217+027767FM-12+014699999V0209991C000019999999N0000001N9+01561+99999100321ADDGF107991999999999999999999
0052028970999991924062106004+64217+027767FM-12+014699999V0201801N004119999999N0000001N9+01111+99999100281ADDAJ100009199999999GF108991999999999999999999MW1621
0035028970999991924062113004+64217+027767FM-12+014699999V0202701N004119999999N0000001N9+01061+99999100301ADDGF108991999999999999999999MW1621
0029028970999991924062120004+64217+027767FM-12+014699999V0201401N003119999999N0000001N9+01061+99999100191ADDGF108991999999999999999999
0046028970999991924062206004+64217+027767FM-12+014699999V0201801N004119999999N0000001N9+01061+99999100141ADDAJ100009199999999GF108991999999999999999999
0029028970999991924062213004+64217+027767FM-12+014699999V0209991C000019999999N0000001N9+01171+99999100041ADDGF108991999999999999999999
0029028970999991924062220004+64217+027767FM-12+014699999V0209991C000019999999N0000001N9+01221+99999099911ADDGF108991999999999999999999
0046028970999991924062306004+64217+027767FM-12+014699999V0209991C000019999999N0000001N9+01221+99999099631ADDAJ100009199999999GF108991999999999999999999
0029028970999991924062313004+64217+027767FM-12+014699999V0209991C000019999999N0000001N9+01721+99999099441ADDGF106991999999999999999999
0029028970999991924062320004+64217+027767FM-12+014699999V0203401N003119999999N0000001N9+01441+99999099391ADDGF106991999999999999999999
0052028970999991924062406004+64217+027767FM-12+014699999V0200501N011819999999N0000001N9+00891+99999099031ADDAJ100009199999999GF108991999999999999999999MW1621
0035028970999991924062413004+64217+027767FM-12+014699999V0200501N011819999999N0000001N9+00891+99999098801ADDGF108991999999999999999999MW1621
0029028970999991924062420004+64217+027767FM-12+014699999V0200501N004119999999N0000001N9+00611+99999098831ADDGF108991999999999999999999
0046028970999991924062506004+64217+027767FM-12+014699999V0200501N009819999999N0000001N9+00831+99999099161ADDAJ100009199999999GF102991999999999999999999
0029028970999991924062513004+64217+027767FM-12+014699999V0200201N004119999999N0000001N9+01171+99999099121ADDGF105991999999999999999999
0029028970999991924062520004+64217+027767FM-12+014699999V0209991C000019999999N0000001N9+00941+99999099201ADDGF108991999999999999999999
0046028970999991924062606004+64217+027767FM-12+014699999V0209991C000019999999N0000001N9+00781+99999099301ADDAJ100009199999999GF108991999999999999999999
0029028970999991924062613004+64217+027767FM-12+014699999V0209991C000019999999N0000001N9+01221+99999099241ADDGF107991999999999999999999
0029028970999991924062620004+64217+027767FM-12+014699999V0209991C000019999999N0000001N9+00891+99999099241ADDGF108991999999999999999999
0046028970999991924062706004+64217+027767FM-12+014699999V0209991C000019999999N0000001N9+01001+99999099151ADDAJ100009199999999GF108991999999999999999999
0029028970999991924062713004+64217+027767FM-12+014699999V0209991C000019999999N0000001N9+01061+99999099201ADDGF105991999999999999999999
0029028970999991924062720004+64217+027767FM-12+014699999V0209991C000019999999N0000001N9+01171+99999099121ADDGF106991999999999999999999
0046028970999991924062806004+64217+027767FM-12+014699999V0200501N003119999999N0000001N9+01171+99999098711ADDAJ100009199999999GF102991999999999999999999
0029028970999991924062813004+64217+027767FM-12+014699999V0200901N003119999999N0000001N9+01441+99999098361ADDGF108991999999999999999999
0035028970999991924062820004+64217+027767FM-12+014699999V0200901N003119999999N0000001N9+01001+99999098061ADDGF108991999999999999999999MW1621
0052028970999991924062906004+64217+027767FM-12+014699999V0200501N007219999999N0000001N9+00831+99999097741ADDAJ100009199999999GF108991999999999999999999MW1621
0029028970999991924062913004+64217+027767FM-12+014699999V0200501N007219999999N0000001N9+00831+99999097761ADDGF108991999999999999999999
0029028970999991924062920004+64217+027767FM-12+014699999V0200501N003119999999N0000001N9+00831+99999097841ADDGF108991999999999999999999
0046028970999991924063006004+64217+027767FM-12+014699999V0209991C000019999999N0000001N9+00781+99999097941ADDAJ100009199999999GF108991999999999999999999
0029028970999991924063013004+64217+027767FM-12+014699999V0203401N003119999999N0000001N9+01221+99999098061ADDGF107991999999999999999999
0029028970999991924063020004+64217+027767FM-12+014699999V0209991C000019999999N0000001N9+01111+99999098101ADDGF104991999999999999999999
0046028970999991924070106004+64217+027767FM-12+014699999V0209991C000019999999N0000001N9+01501+99999097991ADDAJ100009199999999GF102991999999999999999999
0029028970999991924070113004+64217+027767FM-12+014699999V0202001N003119999999N0000001N9+01561+99999097951ADDGF104991999999999999999999
0029028970999991924070120004+64217+027767FM-12+014699999V0209991C000019999999N0000001N9+01331+99999097961ADDGF104991999999999999999999
0046028970999991924070206004+64217+027767FM-12+014699999V0209991C000019999999N0000001N9+01221+99999098031ADDAJ100009199999999GF108991999999999999999999
0029028970999991924070213004+64217+027767FM-12+014699999V0209991C000019999999N0000001N9+01721+99999098151ADDGF107991999999999999999999
0029028970999991924070220004+64217+027767FM-12+014699999V0209991C000019999999N0000001N9+01221+99999098381ADDGF107991999999999999999999
0046028970999991924070306004+64217+027767FM-12+014699999V0209991C000019999999N0000001N9+01561+99999098741ADDAJ100009199999999GF104991999999999999999999
0029028970999991924070313004+64217+027767FM-12+014699999V0202001N003119999999N0000001N9+01781+99999099021ADDGF104991999999999999999999
0029028970999991924070320004+64217+027767FM-12+014699999V0209991C000019999999N0000001N9+01671+99999099181ADDGF102991999999999999999999
0046028970999991924070406004+64217+027767FM-12+014699999V0209991C000019999999N0000001N9+01781+99999099241ADDAJ100009199999999GF102991999999999999999999
0029028970999991924070413004+64217+027767FM-12+014699999V0200901N003119999999N0000001N9+02171+99999098961ADDGF102991999999999999999999
0029028970999991924070420004+64217+027767FM-12+014699999V0209991C000019999999N0000001N9+01671+99999098601ADDGF104991999999999999999999
0046028970999991924070506004+64217+027767FM-12+014699999V0209991C000019999999N0000001N9+01441+99999098361ADDAJ100009199999999GF106991999999999999999999
0029028970999991924070513004+64217+027767FM-12+014699999V0202701N007219999999N0000001N9+01941+99999098361ADDGF108991999999999999999999
0029028970999991924070520004+64217+027767FM-12+014699999V0209991C000019999999N0000001N9+01281+99999098441ADDGF108991999999999999999999
0046028970999991924070606004+64217+027767FM-12+014699999V0209991C000019999999N0000001N9+01221+99999098161ADDAJ100009199999999GF108991999999999999999999
0029028970999991924070613004+64217+027767FM-12+014699999V0202301N004119999999N0000001N9+01111+99999098081ADDGF108991999999999999999999
0029028970999991924070620004+64217+027767FM-12+014699999V0202301N004119999999N0000001N9+01221+99999097961ADDGF108991999999999999999999
0046028970999991924070706004+64217+027767FM-12+014699999V0202301N004119999999N0000001N9+01221+99999097951ADDAJ100009199999999GF106991999999999999999999
0029028970999991924070713004+64217+027767FM-12+014699999V0202701N011819999999N0000001N9+01561+99999098041ADDGF108991999999999999999999
0029028970999991924070720004+64217+027767FM-12+014699999V0202701N011819999999N0000001N9+01281+99999098081ADDGF108991999999999999999999
0046028970999991924070806004+64217+027767FM-12+014699999V0202701N006219999999N0000001N9+01111+99999098121ADDAJ100009199999999GF108991999999999999999999
0029028970999991924070813004+64217+027767FM-12+014699999V0202701N008219999999N0000001N9+01391+99999098141ADDGF107991999999999999999999
0029028970999991924070820004+64217+027767FM-12+014699999V0202701N006219999999N0000001N9+01331+99999098221ADDGF102991999999999999999999
0046028970999991924070906004+64217+027767FM-12+014699999V0209991C000019999999N0000001N9+01281+99999098421ADDAJ100009199999999GF100991999999999999999999
0029028970999991924070913004+64217+027767FM-12+014699999V0202001N001019999999N0000001N9+01891+99999098431ADDGF102991999999999999999999
0029028970999991924070920004+64217+027767FM-12+014699999V0209991C000019999999N0000001N9+01561+99999098601ADDGF100991999999999999999999
0046028970999991924071006004+64217+027767FM-12+014699999V0202301N004119999999N0000001N9+01111+99999098751ADDAJ100009199999999GF108991999999999999999999
0029028970999991924071013004+64217+027767FM-12+014699999V0202301N004119999999N0000001N9+02001+99999098761ADDGF104991999999999999999999
0029028970999991924071020004+64217+027767FM-12+014699999V0202301N003119999999N0000001N9+01501+99999098871ADDGF104991999999999999999999
0046028970999991924071106004+64217+027767FM-12+014699999V0202701N001019999999N0000001N9+01281+99999099001ADDAJ100009199999999GF108991999999999999999999
0029028970999991924071113004+64217+027767FM-12+014699999V0202701N004119999999N0000001N9+01501+99999099261ADDGF108991999999999999999999
0029028970999991924071120004+64217+027767FM-12+014699999V0202701N003119999999N0000001N9+01331+99999099471ADDGF107991999999999999999999
0046028970999991924071206004+64217+027767FM-12+014699999V0202701N001019999999N0000001N9+01221+99999099721ADDAJ100009199999999GF104991999999999999999999
0029028970999991924071213004+64217+027767FM-12+014699999V0203201N004119999999N0000001N9+01561+99999099821ADDGF105991999999999999999999
0029028970999991924071220004+64217+027767FM-12+014699999V0209991C000019999999N0000001N9+01441+99999099821ADDGF104991999999999999999999
0046028970999991924071306004+64217+027767FM-12+014699999V0209991C000019999999N0000001N9+01331+99999100021ADDAJ100009199999999GF104991999999999999999999
0029028970999991924071313004+64217+027767FM-12+014699999V0209991C000019999999N0000001N9+01611+99999099961ADDGF104991999999999999999999
0029028970999991924071320004+64217+027767FM-12+014699999V0209991C000019999999N0000001N9+01441+99999099871ADDGF102991999999999999999999
0046028970999991924071406004+64217+027767FM-12+014699999V0209991C000019999999N0000001N9+01331+99999099701ADDAJ100009199999999GF104991999999999999999999
0029028970999991924071413004+64217+027767FM-12+014699999V0209991C000019999999N0000001N9+01721+99999099541ADDGF102991999999999999999999
0029028970999991924071420004+64217+027767FM-12+014699999V0209991C000019999999N0000001N9+01111+99999099481ADDGF102991999999999999999999
0046028970999991924071506004+64217+027767FM-12+014699999V0209991C000019999999N0000001N9+01281+99999099471ADDAJ100009199999999GF105991999999999999999999
0029028970999991924071513004+64217+027767FM-12+014699999V0202701N003119999999N0000001N9+01721+99999099381ADDGF105991999999999999999999
0029028970999991924071520004+64217+027767FM-12+014699999V0209991C000019999999N0000001N9+01721+99999099351ADDGF103991999999999999999999
0046028970999991924071606004+64217+027767FM-12+014699999V0209991C000019999999N0000001N9+01441+99999099431ADDAJ100009199999999GF102991999999999999999999
0029028970999991924071613004+64217+027767FM-12+014699999V0202301N001019999999N0000001N9+02221+99999099321ADDGF102991999999999999999999
0029028970999991924071620004+64217+027767FM-12+014699999V0209991C000019999999N0000001N9+02001+99999099301ADDGF102991999999999999999999
0046028970999991924071706004+64217+027767FM-12+014699999V0209991C000019999999N0000001N9+01891+99999099361ADDAJ100009199999999GF102991999999999999999999
0029028970999991924071713004+64217+027767FM-12+014699999V0209991C000019999999N0000001N9+02441+99999099321ADDGF101991999999999999999999
0029028970999991924071720004+64217+027767FM-12+014699999V0209991C000019999999N0000001N9+02331+99999099271ADDGF100991999999999999999999
0046028970999991924071806004+64217+027767FM-12+014699999V0209991C000019999999N0000001N9+01891+99999099401ADDAJ100009199999999GF100991999999999999999999
0029028970999991924071813004+64217+027767FM-12+014699999V0200501N002119999999N0000001N9+02561+99999099421ADDGF100991999999999999999999
0029028970999991924071820004+64217+027767FM-12+014699999V0209991C000019999999N0000001N9+02061+99999099401ADDGF100991999999999999999999
0046028970999991924071906004+64217+027767FM-12+014699999V0209991C000019999999N0000001N9+02171+99999099471ADDAJ100009199999999GF100991999999999999999999
0029028970999991924071913004+64217+027767FM-12+014699999V0200501N001019999999N0000001N9+02671+99999099521ADDGF100991999999999999999999
0029028970999991924071920004+64217+027767FM-12+014699999V0209991C000019999999N0000001N9+02221+99999099441ADDGF100991999999999999999999
0046028970999991924072006004+64217+027767FM-12+014699999V0209991C000019999999N0000001N9+02221+99999099481ADDAJ100009199999999GF102991999999999999999999
0029028970999991924072013004+64217+027767FM-12+014699999V0202701N005119999999N0000001N9+02721+99999099401ADDGF102991999999999999999999
0029028970999991924072020004+64217+027767FM-12+014699999V0209991C000019999999N0000001N9+02111+99999099481ADDGF100991999999999999999999
0046028970999991924072106004+64217+027767FM-12+014699999V0209991C000019999999N0000001N9+02001+99999099791ADDAJ100009199999999GF100991999999999999999999
0029028970999991924072113004+64217+027767FM-12+014699999V0202701N004119999999N0000001N9+02561+99999099791ADDGF102991999999999999999999
0029028970999991924072120004+64217+027767FM-12+014699999V0209991C000019999999N0000001N9+02061+99999099801ADDGF100991999999999999999999
0046028970999991924072206004+64217+027767FM-12+014699999V0209991C000019999999N0000001N9+01941+99999100041ADDAJ100009199999999GF100991999999999999999999
0029028970999991924072213004+64217+027767FM-12+014699999V0203401N004119999999N0000001N9+02561+99999099861ADDGF100991999999999999999999
0029028970999991924072220004+64217+027767FM-12+014699999V0209991C000019999999N0000001N9+02061+99999099641ADDGF102991999999999999999999
0046028970999991924072306004+64217+027767FM-12+014699999V0209991C000019999999N0000001N9+02001+99999099631ADDAJ100009199999999GF102991999999999999999999
0029028970999991924072313004+64217+027767FM-12+014699999V0200501N004119999999N0000001N9+02671+99999099511ADDGF101991999999999999999999
0029028970999991924072320004+64217+027767FM-12+014699999V0209991C000019999999N0000001N9+01941+99999099361ADDGF100991999999999999999999
0046028970999991924072406004+64217+027767FM-12+014699999V0200501N001019999999N0000001N9+01721+99999099401ADDAJ100009199999999GF100991999999999999999999
0029028970999991924072413004+64217+027767FM-12+014699999V0200501N004119999999N0000001N9+02331+99999099321ADDGF100991999999999999999999
0029028970999991924072420004+64217+027767FM-12+014699999V0209991C000019999999N0000001N9+01891+99999099271ADDGF100991999999999999999999
0046028970999991924072506004+64217+027767FM-12+014699999V0200901N004119999999N0000001N9+01671+99999099431ADDAJ100009199999999GF100991999999999999999999
0029028970999991924072513004+64217+027767FM-12+014699999V0200901N006219999999N0000001N9+02281+99999099481ADDGF101991999999999999999999
0029028970999991924072520004+64217+027767FM-12+014699999V0209991C000019999999N0000001N9+01721+99999099401ADDGF102991999999999999999999
0046028970999991924072606004+64217+027767FM-12+014699999V0209991C000019999999N0000001N9+01671+99999099601ADDAJ100009199999999GF107991999999999999999999
0029028970999991924072613004+64217+027767FM-12+014699999V0202701N001019999999N0000001N9+02391+99999099591ADDGF107991999999999999999999
0029028970999991924072620004+64217+027767FM-12+014699999V0209991C000019999999N0000001N9+01941+99999099471ADDGF100991999999999999999999
0046028970999991924072706004+64217+027767FM-12+014699999V0209991C000019999999N0000001N9+02001+99999099401ADDAJ100009199999999GF100991999999999999999999
0029028970999991924072713004+64217+027767FM-12+014699999V0200201N007219999999N0000001N9+02331+99999099401ADDGF100991999999999999999999
0029028970999991924072720004+64217+027767FM-12+014699999V0209991C000019999999N0000001N9+01831+99999099471ADDGF100991999999999999999999
0046028970999991924072806004+64217+027767FM-12+014699999V0200501N003119999999N0000001N9+01171+99999099621ADDAJ100009199999999GF108991999999999999999999
0029028970999991924072813004+64217+027767FM-12+014699999V0200501N003119999999N0000001N9+01891+99999099551ADDGF100991999999999999999999
0029028970999991924072820004+64217+027767FM-12+014699999V0209991C000019999999N0000001N9+01671+99999099441ADDGF100991999999999999999999
0046028970999991924072906004+64217+027767FM-12+014699999V0200501N001019999999N0000001N9+01721+99999099471ADDAJ100009199999999GF100991999999999999999999
0029028970999991924072913004+64217+027767FM-12+014699999V0209991C000019999999N0000001N9+02501+99999099481ADDGF100991999999999999999999
0029028970999991924072920004+64217+027767FM-12+014699999V0209991C000019999999N0000001N9+01831+99999099441ADDGF100991999999999999999999
0046028970999991924073006004+64217+027767FM-12+014699999V0200501N002119999999N0000001N9+01781+99999099471ADDAJ100009199999999GF100991999999999999999999
0029028970999991924073013004+64217+027767FM-12+014699999V0200501N003119999999N0000001N9+02671+99999099461ADDGF100991999999999999999999
0029028970999991924073020004+64217+027767FM-12+014699999V0209991C000019999999N0000001N9+01941+99999099541ADDGF100991999999999999999999
0046028970999991924073106004+64217+027767FM-12+014699999V0209991C000019999999N0000001N9+01831+99999099781ADDAJ100009199999999GF100991999999999999999999
0029028970999991924073113004+64217+027767FM-12+014699999V0200501N003119999999N0000001N9+02721+99999099741ADDGF102991999999999999999999
0029028970999991924073120004+64217+027767FM-12+014699999V0209991C000019999999N0000001N9+01831+99999099761ADDGF100991999999999999999999
0046028970999991924080106004+64217+027767FM-12+014699999V0209991C000019999999N0000001N9+01781+99999099921ADDAJ100009199999999GF100991999999999999999999
0029028970999991924080113004+64217+027767FM-12+014699999V0200501N006219999999N0000001N9+02611+99999099861ADDGF100991999999999999999999
0029028970999991924080120004+64217+027767FM-12+014699999V0209991C000019999999N0000001N9+01781+99999099781ADDGF100991999999999999999999
0046028970999991924080206004+64217+027767FM-12+014699999V0209991C000019999999N0000001N9+02001+99999099861ADDAJ100009199999999GF100991999999999999999999
0029028970999991924080213004+64217+027767FM-12+014699999V0201801N005119999999N0000001N9+02781+99999099831ADDGF102991999999999999999999
0029028970999991924080220004+64217+027767FM-12+014699999V0209991C000019999999N0000001N9+01831+99999099801ADDGF100991999999999999999999
0046028970999991924080306004+64217+027767FM-12+014699999V0209991C000019999999N0000001N9+01831+99999099951ADDAJ100009199999999GF104991999999999999999999
0029028970999991924080313004+64217+027767FM-12+014699999V0201601N005119999999N0000001N9+02391+99999099841ADDGF104991999999999999999999
0029028970999991924080320004+64217+027767FM-12+014699999V0201601N001019999999N0000001N9+01941+99999099841ADDGF100991999999999999999999
0046028970999991924080406004+64217+027767FM-12+014699999V0202701N001019999999N0000001N9+01831+99999099911ADDAJ100009199999999GF104991999999999999999999
0029028970999991924080413004+64217+027767FM-12+014699999V0201801N005119999999N0000001N9+02331+99999099801ADDGF106991999999999999999999
0029028970999991924080420004+64217+027767FM-12+014699999V0209991C000019999999N0000001N9+01831+99999099871ADDGF108991999999999999999999
0046028970999991924080506004+64217+027767FM-12+014699999V0201101N006219999999N0000001N9+01891+99999099961ADDAJ100009199999999GF106991999999999999999999
0029028970999991924080513004+64217+027767FM-12+014699999V0201801N006219999999N0000001N9+02671+99999099901ADDGF107991999999999999999999
0029028970999991924080520004+64217+027767FM-12+014699999V0209991C000019999999N0000001N9+01941+99999099841ADDGF100991999999999999999999
0046028970999991924080606004+64217+027767FM-12+014699999V0200901N001019999999N0000001N9+02001+99999099751ADDAJ100009199999999GF104991999999999999999999
0029028970999991924080613004+64217+027767FM-12+014699999V0201601N019019999999N0000001N9+02441+99999099601ADDGF105991999999999999999999
0029028970999991924080620004+64217+027767FM-12+014699999V0201601N008219999999N0000001N9+02061+99999099391ADDGF102991999999999999999999
0052028970999991924080706004+64217+027767FM-12+014699999V0209991C000019999999N0000001N9+01391+99999098961ADDAJ100009199999999GF108991999999999999999999MW1621
0029028970999991924080713004+64217+027767FM-12+014699999V0201801N001019999999N0000001N9+01391+99999098821ADDGF107991999999999999999999
0029028970999991924080720004+64217+027767FM-12+014699999V0202301N001019999999N0000001N9+01331+99999099001ADDGF100991999999999999999999
0046028970999991924080806004+64217+027767FM-12+014699999V0202301N001019999999N0000001N9+01391+99999099201ADDAJ100009199999999GF100991999999999999999999
0029028970999991924080813004+64217+027767FM-12+014699999V0202301N001019999999N0000001N9+01391+99999099401ADDGF106991999999999999999999
0029028970999991924080820004+64217+027767FM-12+014699999V0209991C000019999999N0000001N9+01281+99999099541ADDGF100991999999999999999999
0046028970999991924080906004+64217+027767FM-12+014699999V0209991C000019999999N0000001N9+01061+99999099581ADDAJ100009199999999GF104991999999999999999999
0029028970999991924080913004+64217+027767FM-12+014699999V0202701N005119999999N0000001N9+01781+99999099861ADDGF104991999999999999999999
0029028970999991924080920004+64217+027767FM-12+014699999V0202301N001019999999N0000001N9+01391+99999100041ADDGF102991999999999999999999
0046028970999991924081006004+64217+027767FM-12+014699999V0209991C000019999999N0000001N9+01281+99999100071ADDAJ100009199999999GF100991999999999999999999
0029028970999991924081013004+64217+027767FM-12+014699999V0202301N006219999999N0000001N9+01781+99999099961ADDGF107991999999999999999999
0029028970999991924081020004+64217+027767FM-12+014699999V0209991C000019999999N0000001N9+01611+99999099681ADDGF104991999999999999999999
0046028970999991924081106004+64217+027767FM-12+014699999V0202301N005119999999N0000001N9+01441+99999099581ADDAJ100009199999999GF102991999999999999999999
0029028970999991924081113004+64217+027767FM-12+014699999V0202501N005119999999N0000001N9+01941+99999099601ADDGF104991999999999999999999
0029028970999991924081120004+64217+027767FM-12+014699999V0209991C000019999999N0000001N9+01331+99999099621ADDGF108991999999999999999999
0046028970999991924081206004+64217+027767FM-12+014699999V0209991C000019999999N0000001N9+01391+99999099671ADDAJ100009199999999GF100991999999999999999999
0029028970999991924081213004+64217+027767FM-12+014699999V0202701N001019999999N0000001N9+02001+99999099601ADDGF100991999999999999999999
0029028970999991924081220004+64217+027767FM-12+014699999V0209991C000019999999N0000001N9+01561+99999099591ADDGF106991999999999999999999
0046028970999991924081306004+64217+027767FM-12+014699999V0209991C000019999999N0000001N9+01441+99999099701ADDAJ100009199999999GF100991999999999999999999
0029028970999991924081313004+64217+027767FM-12+014699999V0201801N001019999999N0000001N9+02281+99999099701ADDGF105991999999999999999999
0029028970999991924081320004+64217+027767FM-12+014699999V0209991C000019999999N0000001N9+01561+99999099721ADDGF106991999999999999999999
0046028970999991924081406004+64217+027767FM-12+014699999V0202301N001019999999N0000001N9+01671+99999099821ADDAJ100009199999999GF106991999999999999999999
0029028970999991924081413004+64217+027767FM-12+014699999V0202001N006219999999N0000001N9+02221+99999099681ADDGF106991999999999999999999
0029028970999991924081420004+64217+027767FM-12+014699999V0209991C000019999999N0000001N9+01781+99999099551ADDGF108991999999999999999999
0046028970999991924081506004+64217+027767FM-12+014699999V0209991C000019999999N0000001N9+01721+99999099591ADDAJ100009199999999GF106991999999999999999999
0029028970999991924081513004+64217+027767FM-12+014699999V0202001N004119999999N0000001N9+02671+99999099461ADDGF106991999999999999999999
0029028970999991924081520004+64217+027767FM-12+014699999V0209991C000019999999N0000001N9+01221+99999099601ADDGF106991999999999999999999
0046028970999991924081606004+64217+027767FM-12+014699999V0209991C000019999999N0000001N9+02001+99999099541ADDAJ100009199999999GF100991999999999999999999
0029028970999991924081613004+64217+027767FM-12+014699999V0209991C000019999999N0000001N9+02831+99999099431ADDGF102991999999999999999999
0029028970999991924081620004+64217+027767FM-12+014699999V0209991C000019999999N0000001N9+01831+99999099381ADDGF100991999999999999999999
0046028970999991924081706004+64217+027767FM-12+014699999V0209991C000019999999N0000001N9+01941+99999099511ADDAJ100009199999999GF101991999999999999999999
0029028970999991924081713004+64217+027767FM-12+014699999V0202301N006219999999N0000001N9+02611+99999099561ADDGF104991999999999999999999
0029028970999991924081720004+64217+027767FM-12+014699999V0209991C000019999999N0000001N9+01781+99999099621ADDGF100991999999999999999999
0046028970999991924081806004+64217+027767FM-12+014699999V0209991C000019999999N0000001N9+01441+99999099681ADDAJ100009199999999GF108991999999999999999999
0029028970999991924081813004+64217+027767FM-12+014699999V0201801N004119999999N0000001N9+02561+99999099401ADDGF103991999999999999999999
0029028970999991924081820004+64217+027767FM-12+014699999V0209991C000019999999N0000001N9+01941+99999099281ADDGF100991999999999999999999
0046028970999991924081906004+64217+027767FM-12+014699999V0200501N001019999999N0000001N9+01781+99999099241ADDAJ100009199999999GF102991999999999999999999
0035028970999991924081913004+64217+027767FM-12+014699999V0200901N001019999999N0000001N9+02001+99999099241ADDGF107991999999999999999999MW1621
0029028970999991924081920004+64217+027767FM-12+014699999V0209991C000019999999N0000001N9+01561+99999099241ADDGF106991999999999999999999
0046028970999991924082006004+64217+027767FM-12+014699999V0209991C000019999999N0000001N9+01721+99999099121ADDAJ100009199999999GF108991999999999999999999
0035028970999991924082013004+64217+027767FM-12+014699999V0202301N001019999999N0000001N9+02331+99999099111ADDGF108991999999999999999999MW1171
0029028970999991924082020004+64217+027767FM-12+014699999V0209991C000019999999N0000001N9+01561+99999098981ADDGF108991999999999999999999
0046028970999991924082106004+64217+027767FM-12+014699999V0200901N006219999999N0000001N9+01561+99999098441ADDAJ100009199999999GF106991999999999999999999
0029028970999991924082113004+64217+027767FM-12+014699999V0201801N006219999999N0000001N9+01721+99999098181ADDGF108991999999999999999999
0029028970999991924082120004+64217+027767FM-12+014699999V0209991C000019999999N0000001N9+01221+99999098481ADDGF108991999999999999999999
0046028970999991924082206004+64217+027767FM-12+014699999V0209991C000019999999N0000001N9+01281+99999098711ADDAJ100009199999999GF100991999999999999999999
0029028970999991924082213004+64217+027767FM-12+014699999V0209991C000019999999N0000001N9+01561+99999098601ADDGF108991999999999999999999
0029028970999991924082220004+64217+027767FM-12+014699999V0209991C000019999999N0000001N9+01391+99999098351ADDGF108991999999999999999999
0052028970999991924082306004+64217+027767FM-12+014699999V0209991C000019999999N0000001N9+01171+99999098231ADDAJ100009199999999GF108991999999999999999999MW1621
0035028970999991924082313004+64217+027767FM-12+014699999V0209991C000019999999N0000001N9+00941+99999098701ADDGF108991999999999999999999MW1621
0035028970999991924082320004+64217+027767FM-12+014699999V0209991C000019999999N0000001N9+00941+99999099021ADDGF108991999999999999999999MW1621
0046028970999991924082406004+64217+027767FM-12+014699999V0203601N004119999999N0000001N9+00671+99999099351ADDAJ100009199999999GF108991999999999999999999
0029028970999991924082413004+64217+027767FM-12+014699999V0203601N003119999999N0000001N9+00781+99999099621ADDGF108991999999999999999999
0029028970999991924082420004+64217+027767FM-12+014699999V0209991C000019999999N0000001N9+00501+99999099461ADDGF100991999999999999999999
0046028970999991924082506004+64217+027767FM-12+014699999V0209991C000019999999N0000001N9+00391+99999099241ADDAJ100009199999999GF108991999999999999999999
0029028970999991924082513004+64217+027767FM-12+014699999V0202701N004119999999N0000001N9+01391+99999099111ADDGF102991999999999999999999
0029028970999991924082520004+64217+027767FM-12+014699999V0209991C000019999999N0000001N9+00721+99999099031ADDGF104991999999999999999999
0046028970999991924082606004+64217+027767FM-12+014699999V0203601N003119999999N0000001N9+00781+99999099311ADDAJ100009199999999GF108991999999999999999999
0029028970999991924082613004+64217+027767FM-12+014699999V0200501N001019999999N0000001N9+01111+99999099551ADDGF106991999999999999999999
0029028970999991924082620004+64217+027767FM-12+014699999V0209991C000019999999N0000001N9+00671+99999099701ADDGF100991999999999999999999
0046028970999991924082706004+64217+027767FM-12+014699999V0209991C000019999999N0000001N9+00781+99999099861ADDAJ100009199999999GF104991999999999999999999
0029028970999991924082713004+64217+027767FM-12+014699999V0209991C000019999999N0000001N9+00831+99999099911ADDGF106991999999999999999999
0029028970999991924082720004+64217+027767FM-12+014699999V0209991C000019999999N0000001N9+00831+99999099871ADDGF106991999999999999999999
0046028970999991924082806004+64217+027767FM-12+014699999V0202301N001019999999N0000001N9+00941+99999099911ADDAJ100009199999999GF106991999999999999999999
0029028970999991924082813004+64217+027767FM-12+014699999V0202001N008219999999N0000001N9+01671+99999099951ADDGF104991999999999999999999
0029028970999991924082820004+64217+027767FM-12+014699999V0209991C000019999999N0000001N9+01111+99999099951ADDGF106991999999999999999999
