0029029350999991924010106004+62233+025733FM-12+009499999V0209991C000019999999N0000001N9-01221+99999101271ADDGF108991999999999999999999
0029029350999991924010113004+62233+025733FM-12+009499999V0209991C000019999999N0000001N9-01331+99999101121ADDGF104991999999999999999999
0029029350999991924010120004+62233+025733FM-12+009499999V0209991C000019999999N0000001N9-01111+99999100741ADDGF108991999999999999999999
0035029350999991924010206004+62233+025733FM-12+009499999V0209991C000019999999N0000001N9-01001+99999100711ADDGF108991999999999999999999MW1721
0029029350999991924010213004+62233+025733FM-12+009499999V0209991C000019999999N0000001N9-01171+99999101301ADDGF106991999999999999999999
0029029350999991924010220004+62233+025733FM-12+009499999V0209991C000019999999N0000001N9-01111+99999101631ADDGF108991999999999999999999
0029029350999991924010306004+62233+025733FM-12+009499999V0209991C000019999999N0000001N9-01221+99999101161ADDGF108991999999999999999999
0035029350999991924010313004+62233+025733FM-12+009499999V0209991C000019999999N0000001N9-01061+99999100621ADDGF108991999999999999999999MW1701
0035029350999991924010320004+62233+025733FM-12+009499999V0209991C000019999999N0000001N9-00941+99999100561ADDGF108991999999999999999999MW1701
0029029350999991924010406004+62233+025733FM-12+009499999V0209991C000019999999N0000001N9-01111+99999100951ADDGF108991999999999999999999
0035029350999991924010413004+62233+025733FM-12+009499999V0209991C000019999999N0000001N9-01001+99999100961ADDGF108991999999999999999999MW1701
0035029350999991924010420004+62233+025733FM-12+009499999V0209991C000019999999N0000001N9-00941+99999100821ADDGF108991999999999999999999MW1701
0029029350999991924010506004+62233+025733FM-12+009499999V0209991C000019999999N0000001N9-00891+99999100871ADDGF108991999999999999999999
0035029350999991924010513004+62233+025733FM-12+009499999V0209991C000019999999N0000001N9-00891+99999100981ADDGF108991999999999999999999MW1701
0029029350999991924010520004+62233+025733FM-12+009499999V0209991C000019999999N0000001N9-01111+99999101461ADDGF108991999999999999999999
0029029350999991924010606004+62233+025733FM-12+009499999V0209991C000019999999N0000001N9-02001+99999101601ADDGF106991999999999999999999
0029029350999991924010613004+62233+025733FM-12+009499999V0209991C000019999999N0000001N9-02001+99999101591ADDGF100991999999999999999999
0029029350999991924010620004+62233+025733FM-12+009499999V0201801N001019999999N0000001N9-01781+99999101601ADDGF108991999999999999999999
0029029350999991924010706004+62233+025733FM-12+009499999V0209991C000019999999N0000001N9-01611+99999101681ADDGF108991999999999999999999
0029029350999991924010713004+62233+025733FM-12+009499999V0203601N001019999999N0000001N9-01721+99999101721ADDGF100991999999999999999999
0029029350999991924010720004+62233+025733FM-12+009499999V0203601N003119999999N0000001N9-01441+99999101671ADDGF100991999999999999999999
0029029350999991924010806004+62233+025733FM-12+009499999V0209991C000019999999N0000001N9-01171+99999101921ADDGF108991999999999999999999
0029029350999991924010813004+62233+025733FM-12+009499999V0209991C000019999999N0000001N9-01001+99999102191ADDGF108991999999999999999999
0029029350999991924010820004+62233+025733FM-12+009499999V0209991C000019999999N0000001N9-01061+99999102221ADDGF108991999999999999999999
0029029350999991924010906004+62233+025733FM-12+009499999V0209991C000019999999N0000001N9-00671+99999101741ADDGF108991999999999999999999
0029029350999991924010913004+62233+025733FM-12+009499999V0200501N001019999999N0000001N9-00501+99999101581ADDGF108991999999999999999999
0029029350999991924010920004+62233+025733FM-12+009499999V0201401N003119999999N0000001N9-00561+99999101661ADDGF108991999999999999999999
0029029350999991924011006004+62233+025733FM-12+009499999V0201601N003119999999N0000001N9-00561+99999101621ADDGF108991999999999999999999
0029029350999991924011013004+62233+025733FM-12+009499999V0201401N005119999999N0000001N9-00611+99999101631ADDGF108991999999999999999999
0029029350999991924011020004+62233+025733FM-12+009499999V0201401N003119999999N0000001N9-00441+99999101581ADDGF108991999999999999999999
0029029350999991924011106004+62233+025733FM-12+009499999V0201401N005119999999N0000001N9-00501+99999101401ADDGF108991999999999999999999
0029029350999991924011113004+62233+025733FM-12+009499999V0201801N001019999999N0000001N9-00561+99999101441ADDGF108991999999999999999999
0035029350999991924011120004+62233+025733FM-12+009499999V0201801N003119999999N0000001N9-00501+99999101341ADDGF108991999999999999999999MW1721
0029029350999991924011206004+62233+025733FM-12+009499999V0201801N001019999999N0000001N9-00441+99999101201ADDGF108991999999999999999999
0029029350999991924011213004+62233+025733FM-12+009499999V0209991C000019999999N0000001N9-00331+99999101181ADDGF108991999999999999999999
0029029350999991924011220004+62233+025733FM-12+009499999V0201801N001019999999N0000001N9-00221+99999100981ADDGF108991999999999999999999
0029029350999991924011306004+62233+025733FM-12+009499999V0202501N005119999999N0000001N9+00111+99999100161ADDGF108991999999999999999999
0029029350999991924011313004+62233+025733FM-12+009499999V0202901N003119999999N0000001N9+00171+99999100021ADDGF108991999999999999999999
0035029350999991924011320004+62233+025733FM-12+009499999V0202501N003119999999N0000001N9+00331+99999099951ADDGF108991999999999999999999MW1601
0029029350999991924011406004+62233+025733FM-12+009499999V0202701N007219999999N0000001N9+00171+99999099801ADDGF108991999999999999999999
0029029350999991924011413004+62233+025733FM-12+009499999V0202701N005119999999N0000001N9+00221+99999099791ADDGF106991999999999999999999
0029029350999991924011420004+62233+025733FM-12+009499999V0202301N007219999999N0000001N9+00221+99999099661ADDGF108991999999999999999999
0029029350999991924011506004+62233+025733FM-12+009499999V0202701N005119999999N0000001N9+00171+99999099951ADDGF108991999999999999999999
0029029350999991924011513004+62233+025733FM-12+009499999V0202701N005119999999N0000001N9+00111+99999100231ADDGF108991999999999999999999
0029029350999991924011520004+62233+025733FM-12+009499999V0209991C000019999999N0000001N9+00061+99999100601ADDGF108991999999999999999999
0029029350999991924011606004+62233+025733FM-12+009499999V0209991C000019999999N0000001N9-00111+99999101001ADDGF108991999999999999999999
0029029350999991924011613004+62233+025733FM-12+009499999V0202701N001019999999N0000001N9-00061+99999101231ADDGF108991999999999999999999
0029029350999991924011620004+62233+025733FM-12+009499999V0209991C000019999999N0000001N9-00061+99999101351ADDGF108991999999999999999999
0029029350999991924011706004+62233+025733FM-12+009499999V0209991C000019999999N0000001N9-00061+99999101471ADDGF108991999999999999999999
0029029350999991924011713004+62233+025733FM-12+009499999V0202901N001019999999N0000001N9-00061+99999101501ADDGF106991999999999999999999
0029029350999991924011720004+62233+025733FM-12+009499999V0209991C000019999999N0000001N9-00221+99999101501ADDGF108991999999999999999999
0029029350999991924011806004+62233+025733FM-12+009499999V0209991C000019999999N0000001N9-00561+99999101381ADDGF108991999999999999999999
0029029350999991924011813004+62233+025733FM-12+009499999V0202701N001019999999N0000001N9-00671+99999101201ADDGF108991999999999999999999
0029029350999991924011820004+62233+025733FM-12+009499999V0209991C000019999999N0000001N9-00721+99999101141ADDGF108991999999999999999999
0029029350999991924011906004+62233+025733FM-12+009499999V0209991C000019999999N0000001N9-00721+99999100801ADDGF108991999999999999999999
0029029350999991924011913004+62233+025733FM-12+009499999V0209991C000019999999N0000001N9-00671+99999100561ADDGF108991999999999999999999
0035029350999991924011920004+62233+025733FM-12+009499999V0209991C000019999999N0000001N9-00611+99999100111ADDGF108991999999999999999999MW1701
0029029350999991924012006004+62233+025733FM-12+009499999V0200901N003119999999N0000001N9-01001+99999099431ADDGF108991999999999999999999
0035029350999991924012013004+62233+025733FM-12+009499999V0200901N005119999999N0000001N9-01171+99999099161ADDGF108991999999999999999999MW1721
0035029350999991924012020004+62233+025733FM-12+009499999V0200901N005119999999N0000001N9-01441+99999099161ADDGF108991999999999999999999MW1721
0029029350999991924012106004+62233+025733FM-12+009499999V0200501N007219999999N0000001N9-01671+99999099681ADDGF108991999999999999999999
0029029350999991924012113004+62233+025733FM-12+009499999V0203601N007219999999N0000001N9-01721+99999100281ADDGF102991999999999999999999
0029029350999991924012120004+62233+025733FM-12+009499999V0203601N005119999999N0000001N9-01891+99999101001ADDGF100991999999999999999999
0029029350999991924012206004+62233+025733FM-12+009499999V0203601N005119999999N0000001N9-02441+99999101711ADDGF100991999999999999999999
0029029350999991924012213004+62233+025733FM-12+009499999V0203601N001019999999N0000001N9-02001+99999102111ADDGF100991999999999999999999
0029029350999991924012220004+62233+025733FM-12+009499999V0209991C000019999999N0000001N9-02281+99999102301ADDGF100991999999999999999999
0029029350999991924012306004+62233+025733FM-12+009499999V0209991C000019999999N0000001N9-02831+99999102121ADDGF100991999999999999999999
0029029350999991924012313004+62233+025733FM-12+009499999V0209991C000019999999N0000001N9-01721+99999101541ADDGF106991999999999999999999
0035029350999991924012320004+62233+025733FM-12+009499999V0209991C000019999999N0000001N9-01281+99999101271ADDGF108991999999999999999999MW1721
0029029350999991924012406004+62233+025733FM-12+009499999V0203601N003119999999N0000001N9-01281+99999101521ADDGF108991999999999999999999
0035029350999991924012413004+62233+025733FM-12+009499999V0201401N001019999999N0000001N9-01281+99999101751ADDGF108991999999999999999999MW1701
0029029350999991924012420004+62233+025733FM-12+009499999V0201401N001019999999N0000001N9-01221+99999101991ADDGF106991999999999999999999
0029029350999991924012506004+62233+025733FM-12+009499999V0201401N003119999999N0000001N9-01611+99999102231ADDGF108991999999999999999999
0029029350999991924012513004+62233+025733FM-12+009499999V0201801N001019999999N0000001N9-01441+99999102271ADDGF108991999999999999999999
0029029350999991924012520004+62233+025733FM-12+009499999V0201801N005119999999N0000001N9-01501+99999102281ADDGF108991999999999999999999
0029029350999991924012606004+62233+025733FM-12+009499999V0201801N005119999999N0000001N9-01781+99999101901ADDGF108991999999999999999999
0029029350999991924012613004+62233+025733FM-12+009499999V0201601N005119999999N0000001N9-01501+99999101551ADDGF108991999999999999999999
0035029350999991924012620004+62233+025733FM-12+009499999V0201801N005119999999N0000001N9-01171+99999101021ADDGF108991999999999999999999MW1721
0035029350999991924012706004+62233+025733FM-12+009499999V0201801N007219999999N0000001N9-00441+99999099521ADDGF108991999999999999999999MW1721
0035029350999991924012713004+62233+025733FM-12+009499999V0201801N007219999999N0000001N9-00221+99999098801ADDGF108991999999999999999999MW1721
0035029350999991924012720004+62233+025733FM-12+009499999V0201801N007219999999N0000001N9-00441+99999098481ADDGF108991999999999999999999MW1721
0035029350999991924012806004+62233+025733FM-12+009499999V0201801N003119999999N0000001N9-00391+99999098601ADDGF108991999999999999999999MW1721
0029029350999991924012813004+62233+025733FM-12+009499999V0201801N001019999999N0000001N9-00561+99999099031ADDGF108991999999999999999999
0029029350999991924012820004+62233+025733FM-12+009499999V0209991C000019999999N0000001N9-00721+99999099381ADDGF108991999999999999999999
0035029350999991924012906004+62233+025733FM-12+009499999V0209991C000019999999N0000001N9-00501+99999099561ADDGF108991999999999999999999MW1721
0029029350999991924012913004+62233+025733FM-12+009499999V0201801N001019999999N0000001N9-00781+99999099951ADDGF103991999999999999999999
0029029350999991924012920004+62233+025733FM-12+009499999V0209991C000019999999N0000001N9-01561+99999100151ADDGF100991999999999999999999
0029029350999991924013006004+62233+025733FM-12+009499999V0209991C000019999999N0000001N9-00391+99999099871ADDGF108991999999999999999999
0029029350999991924013013004+62233+025733FM-12+009499999V0209991C000019999999N0000001N9-00171+99999099961ADDGF102991999999999999999999
0029029350999991924013020004+62233+025733FM-12+009499999V0209991C000019999999N0000001N9-00281+99999099861ADDGF108991999999999999999999
0029029350999991924013106004+62233+025733FM-12+009499999V0202701N003119999999N0000001N9-00061+99999099541ADDGF108991999999999999999999
0029029350999991924013113004+62233+025733FM-12+009499999V0202701N001019999999N0000001N9+00001+99999099981ADDGF100991999999999999999999
0029029350999991924013120004+62233+025733FM-12+009499999V0209991C000019999999N0000001N9-00831+99999100151ADDGF100991999999999999999999
0029029350999991924020106004+62233+025733FM-12+009499999V0201801N003119999999N0000001N9-00331+99999099041ADDGF108991999999999999999999
0035029350999991924020113004+62233+025733FM-12+009499999V0201401N003119999999N0000001N9-00111+99999098021ADDGF108991999999999999999999MW1721
0029029350999991924020120004+62233+025733FM-12+009499999V0201401N005119999999N0000001N9-00221+99999098261ADDGF100991999999999999999999
0029029350999991924020206004+62233+025733FM-12+009499999V0209991C000019999999N0000001N9-00721+99999097761ADDGF108991999999999999999999
0029029350999991924020213004+62233+025733FM-12+009499999V0209991C000019999999N0000001N9-00501+99999097041ADDGF108991999999999999999999
0029029350999991924020220004+62233+025733FM-12+009499999V0202301N001019999999N0000001N9-00501+99999096501ADDGF100991999999999999999999
0029029350999991924020306004+62233+025733FM-12+009499999V0209991C000019999999N0000001N9-00781+99999096561ADDGF108991999999999999999999
0035029350999991924020313004+62233+025733FM-12+009499999V0203201N005119999999N0000001N9-00171+99999097161ADDGF108991999999999999999999MW1721
0035029350999991924020320004+62233+025733FM-12+009499999V0203601N003119999999N0000001N9-00501+99999097861ADDGF108991999999999999999999MW1701
0029029350999991924020406004+62233+025733FM-12+009499999V0203601N001019999999N0000001N9-00721+99999098021ADDGF108991999999999999999999
0035029350999991924020413004+62233+025733FM-12+009499999V0203601N001019999999N0000001N9-00561+99999098101ADDGF108991999999999999999999MW1701
0029029350999991924020420004+62233+025733FM-12+009499999V0209991C000019999999N0000001N9-01111+99999098301ADDGF100991999999999999999999
0029029350999991924020506004+62233+025733FM-12+009499999V0209991C000019999999N0000001N9-01831+99999098121ADDGF103991999999999999999999
0035029350999991924020513004+62233+025733FM-12+009499999V0203401N001019999999N0000001N9-01331+99999097751ADDGF108991999999999999999999MW1701
0035029350999991924020520004+62233+025733FM-12+009499999V0203401N001019999999N0000001N9-01171+99999097661ADDGF108991999999999999999999MW1701
0029029350999991924020606004+62233+025733FM-12+009499999V0203601N003119999999N0000001N9-01111+99999097721ADDGF108991999999999999999999
0035029350999991924020613004+62233+025733FM-12+009499999V0203601N005119999999N0000001N9-01061+99999097721ADDGF108991999999999999999999MW1701
0029029350999991924020620004+62233+025733FM-12+009499999V0203601N001019999999N0000001N9-01441+99999097831ADDGF100991999999999999999999
0029029350999991924020706004+62233+025733FM-12+009499999V0203601N001019999999N0000001N9-01501+99999098081ADDGF108991999999999999999999
0029029350999991924020713004+62233+025733FM-12+009499999V0200501N003119999999N0000001N9-01111+99999098231ADDGF108991999999999999999999
0029029350999991924020720004+62233+025733FM-12+009499999V0200501N003119999999N0000001N9-01281+99999098501ADDGF108991999999999999999999
0029029350999991924020806004+62233+025733FM-12+009499999V0203601N003119999999N0000001N9-01391+99999098881ADDGF108991999999999999999999
0029029350999991924020813004+62233+025733FM-12+009499999V0203601N001019999999N0000001N9-01221+99999099261ADDGF106991999999999999999999
0029029350999991924020820004+62233+025733FM-12+009499999V0203601N001019999999N0000001N9-01501+99999099751ADDGF100991999999999999999999
0029029350999991924020906004+62233+025733FM-12+009499999V0203601N003119999999N0000001N9-02111+99999100081ADDGF108991999999999999999999
0029029350999991924020913004+62233+025733FM-12+009499999V0203601N001019999999N0000001N9-01831+99999099981ADDGF105991999999999999999999
0035029350999991924020920004+62233+025733FM-12+009499999V0203401N001019999999N0000001N9-01721+99999099701ADDGF108991999999999999999999MW1721
0029029350999991924021006004+62233+025733FM-12+009499999V0209991C000019999999N0000001N9-01781+99999100321ADDGF108991999999999999999999
0035029350999991924021013004+62233+025733FM-12+009499999V0201601N005119999999N0000001N9-01281+99999100991ADDGF108991999999999999999999MW1701
0029029350999991924021020004+62233+025733FM-12+009499999V0201601N001019999999N0000001N9-01331+99999101551ADDGF108991999999999999999999
0029029350999991924021106004+62233+025733FM-12+009499999V0209991C000019999999N0000001N9-01891+99999102141ADDGF100991999999999999999999
0029029350999991924021113004+62233+025733FM-12+009499999V0201801N001019999999N0000001N9-01441+99999102141ADDGF105991999999999999999999
0035029350999991924021120004+62233+025733FM-12+009499999V0200501N001019999999N0000001N9-01221+99999101861ADDGF108991999999999999999999MW1701
0029029350999991924021206004+62233+025733FM-12+009499999V0200501N001019999999N0000001N9-01221+99999101541ADDGF108991999999999999999999
0035029350999991924021213004+62233+025733FM-12+009499999V0200501N001019999999N0000001N9-01111+99999101441ADDGF108991999999999999999999MW1721
0029029350999991924021220004+62233+025733FM-12+009499999V0200501N003119999999N0000001N9-01111+99999101341ADDGF108991999999999999999999
0035029350999991924021306004+62233+025733FM-12+009499999V0200501N005119999999N0000001N9-01281+99999100641ADDGF108991999999999999999999MW1721
0029029350999991924021313004+62233+025733FM-12+009499999V0209991C000019999999N0000001N9-01111+99999100561ADDGF108991999999999999999999
0029029350999991924021320004+62233+025733FM-12+009499999V0203601N001019999999N0000001N9-01171+99999100561ADDGF108991999999999999999999
0029029350999991924021406004+62233+025733FM-12+009499999V0209991C000019999999N0000001N9-01001+99999100671ADDGF108991999999999999999999
0035029350999991924021413004+62233+025733FM-12+009499999V0203601N001019999999N0000001N9-00721+99999100721ADDGF108991999999999999999999MW1721
0035029350999991924021420004+62233+025733FM-12+009499999V0209991C000019999999N0000001N9-00721+99999100581ADDGF108991999999999999999999MW1701
0035029350999991924021506004+62233+025733FM-12+009499999V0201801N001019999999N0000001N9-00441+99999100311ADDGF108991999999999999999999MW1721
0029029350999991924021513004+62233+025733FM-12+009499999V0202501N001019999999N0000001N9-00831+99999100941ADDGF108991999999999999999999
0029029350999991924021520004+62233+025733FM-12+009499999V0209991C000019999999N0000001N9-01001+99999101151ADDGF106991999999999999999999
0029029350999991924021606004+62233+025733FM-12+009499999V0203601N001019999999N0000001N9-01281+99999101201ADDGF108991999999999999999999
0029029350999991924021613004+62233+025733FM-12+009499999V0201801N001019999999N0000001N9-01001+99999101431ADDGF102991999999999999999999
0029029350999991924021620004+62233+025733FM-12+009499999V0209991C000019999999N0000001N9-00781+99999101421ADDGF108991999999999999999999
0029029350999991924021706004+62233+025733FM-12+009499999V0209991C000019999999N0000001N9-00941+99999100951ADDGF108991999999999999999999
0029029350999991924021713004+62233+025733FM-12+009499999V0201801N005119999999N0000001N9-00391+99999100421ADDGF108991999999999999999999
0035029350999991924021720004+62233+025733FM-12+009499999V0201801N007219999999N0000001N9-00391+99999099711ADDGF108991999999999999999999MW1381
0029029350999991924021806004+62233+025733FM-12+009499999V0202501N005119999999N0000001N9-00111+99999099081ADDGF108991999999999999999999
0029029350999991924021813004+62233+025733FM-12+009499999V0202701N001019999999N0000001N9+00061+99999099041ADDGF108991999999999999999999
0035029350999991924021820004+62233+025733FM-12+009499999V0209991C000019999999N0000001N9-00061+99999099101ADDGF108991999999999999999999MW1721
0029029350999991924021906004+62233+025733FM-12+009499999V0209991C000019999999N0000001N9-00281+99999099321ADDGF108991999999999999999999
0029029350999991924021913004+62233+025733FM-12+009499999V0209991C000019999999N0000001N9-00441+99999099881ADDGF100991999999999999999999
0029029350999991924021920004+62233+025733FM-12+009499999V0202701N003119999999N0000001N9-00941+99999100271ADDGF108991999999999999999999
0029029350999991924022006004+62233+025733FM-12+009499999V0209991C000019999999N0000001N9-01831+99999100231ADDGF106991999999999999999999
0035029350999991924022013004+62233+025733FM-12+009499999V0201401N005119999999N0000001N9-00831+99999099761ADDGF108991999999999999999999MW1721
0029029350999991924022020004+62233+025733FM-12+009499999V0201401N001019999999N0000001N9-00721+99999099261ADDGF108991999999999999999999
0035029350999991924022106004+62233+025733FM-12+009499999V0209991C000019999999N0000001N9-00671+99999098881ADDGF108991999999999999999999MW1721
0029029350999991924022113004+62233+025733FM-12+009499999V0209991C000019999999N0000001N9-00391+99999098871ADDGF108991999999999999999999
0029029350999991924022120004+62233+025733FM-12+009499999V0209991C000019999999N0000001N9-00501+99999099041ADDGF108991999999999999999999
0029029350999991924022206004+62233+025733FM-12+009499999V0203601N003119999999N0000001N9-01171+99999099231ADDGF108991999999999999999999
0035029350999991924022213004+62233+025733FM-12+009499999V0203601N001019999999N0000001N9-00891+99999099241ADDGF108991999999999999999999MW1701
0035029350999991924022220004+62233+025733FM-12+009499999V0203601N003119999999N0000001N9-00891+99999099311ADDGF108991999999999999999999MW1721
0035029350999991924022306004+62233+025733FM-12+009499999V0200201N005119999999N0000001N9-01111+99999099351ADDGF108991999999999999999999MW1381
0035029350999991924022313004+62233+025733FM-12+009499999V0200501N005119999999N0000001N9-01061+99999099521ADDGF108991999999999999999999MW1381
0029029350999991924022320004+62233+025733FM-12+009499999V0209991C000019999999N0000001N9-01331+99999099641ADDGF100991999999999999999999
0029029350999991924022406004+62233+025733FM-12+009499999V0209991C000019999999N0000001N9-01561+99999099681ADDGF106991999999999999999999
0035029350999991924022413004+62233+025733FM-12+009499999V0209991C000019999999N0000001N9-01171+99999099941ADDGF106991999999999999999999MW1701
0029029350999991924022420004+62233+025733FM-12+009499999V0209991C000019999999N0000001N9-01441+99999100311ADDGF100991999999999999999999
0029029350999991924022506004+62233+025733FM-12+009499999V0203601N001019999999N0000001N9-01611+99999100751ADDGF108991999999999999999999
0029029350999991924022513004+62233+025733FM-12+009499999V0203601N001019999999N0000001N9-01111+99999101121ADDGF103991999999999999999999
0029029350999991924022520004+62233+025733FM-12+009499999V0203601N001019999999N0000001N9-01501+99999101401ADDGF108991999999999999999999
0029029350999991924022606004+62233+025733FM-12+009499999V0203601N001019999999N0000001N9-01561+99999101391ADDGF108991999999999999999999
0029029350999991924022613004+62233+025733FM-12+009499999V0203601N001019999999N0000001N9-00941+99999101421ADDGF100991999999999999999999
0029029350999991924022620004+62233+025733FM-12+009499999V0209991C000019999999N0000001N9-01501+99999101391ADDGF100991999999999999999999
0035029350999991924022706004+62233+025733FM-12+009499999V0201801N003119999999N0000001N9-01221+99999100921ADDGF108991999999999999999999MW1701
0035029350999991924022713004+62233+025733FM-12+009499999V0201801N005119999999N0000001N9-00941+99999100541ADDGF108991999999999999999999MW1701
0029029350999991924022720004+62233+025733FM-12+009499999V0201801N005119999999N0000001N9-01111+99999100071ADDGF108991999999999999999999
0035029350999991924022806004+62233+025733FM-12+009499999V0201601N005119999999N0000001N9-01111+99999099591ADDGF108991999999999999999999MW1721
0035029350999991924022813004+62233+025733FM-12+009499999V0201601N003119999999N0000001N9-00561+99999099431ADDGF108991999999999999999999MW1721
0035029350999991924022820004+62233+025733FM-12+009499999V0201801N005119999999N0000001N9-00721+99999099361ADDGF108991999999999999999999MW1721
0029029350999991924022906004+62233+025733FM-12+009499999V0201601N005119999999N0000001N9-01061+99999099061ADDGF106991999999999999999999
0035029350999991924022913004+62233+025733FM-12+009499999V0201801N003119999999N0000001N9-00671+99999098961ADDGF108991999999999999999999MW1701
0029029350999991924022920004+62233+025733FM-12+009499999V0209991C000019999999N0000001N9-01001+99999099001ADDGF108991999999999999999999
0035029350999991924030106004+62233+025733FM-12+009499999V0201801N001019999999N0000001N9-01111+99999098831ADDGF108991999999999999999999MW1701
0035029350999991924030113004+62233+025733FM-12+009499999V0200901N003119999999N0000001N9-00781+99999098551ADDGF108991999999999999999999MW1701
0029029350999991924030120004+62233+025733FM-12+009499999V0200901N003119999999N0000001N9-01221+99999098441ADDGF106991999999999999999999
0035029350999991924030206004+62233+025733FM-12+009499999V0200901N001019999999N0000001N9-01281+99999098311ADDGF108991999999999999999999MW1701
0029029350999991924030213004+62233+025733FM-12+009499999V0209991C000019999999N0000001N9-00891+99999098471ADDGF108991999999999999999999
0029029350999991924030220004+62233+025733FM-12+009499999V0209991C000019999999N0000001N9-01221+99999098881ADDGF108991999999999999999999
0029029350999991924030306004+62233+025733FM-12+009499999V0209991C000019999999N0000001N9-01671+99999099431ADDGF102991999999999999999999
0029029350999991924030313004+62233+025733FM-12+009499999V0201101N001019999999N0000001N9-00781+99999099511ADDGF100991999999999999999999
0035029350999991924030320004+62233+025733FM-12+009499999V0209991C000019999999N0000001N9-01221+99999099781ADDGF108991999999999999999999MW1721
0029029350999991924030406004+62233+025733FM-12+009499999V0209991C000019999999N0000001N9-00611+99999099501ADDGF108991999999999999999999
0029029350999991924030413004+62233+025733FM-12+009499999V0201401N003119999999N0000001N9+00001+99999099601ADDGF106991999999999999999999
0029029350999991924030420004+62233+025733FM-12+009499999V0209991C000019999999N0000001N9+00001+99999099981ADDGF108991999999999999999999
0029029350999991924030506004+62233+025733FM-12+009499999V0209991C000019999999N0000001N9-00281+99999100361ADDGF108991999999999999999999
0029029350999991924030513004+62233+025733FM-12+009499999V0209991C000019999999N0000001N9-00111+99999100581ADDGF108991999999999999999999
0035029350999991924030520004+62233+025733FM-12+009499999V0201801N005119999999N0000001N9-00171+99999100541ADDGF108991999999999999999999MW1721
0035029350999991924030606004+62233+025733FM-12+009499999V0209991C000019999999N0000001N9-00221+99999100351ADDGF108991999999999999999999MW1721
0029029350999991924030613004+62233+025733FM-12+009499999V0201801N001019999999N0000001N9+00001+99999100441ADDGF106991999999999999999999
0035029350999991924030620004+62233+025733FM-12+009499999V0209991C000019999999N0000001N9-00331+99999100591ADDGF108991999999999999999999MW1721
0029029350999991924030706004+62233+025733FM-12+009499999V0209991C000019999999N0000001N9-00281+99999101351ADDGF108991999999999999999999
0029029350999991924030713004+62233+025733FM-12+009499999V0201801N001019999999N0000001N9-00061+99999101761ADDGF108991999999999999999999
0029029350999991924030720004+62233+025733FM-12+009499999V0209991C000019999999N0000001N9-00331+99999101821ADDGF108991999999999999999999
0029029350999991924030806004+62233+025733FM-12+009499999V0201601N003119999999N0000001N9-00441+99999101471ADDGF108991999999999999999999
0029029350999991924030813004+62233+025733FM-12+009499999V0201801N005119999999N0000001N9-00171+99999101031ADDGF105991999999999999999999
0029029350999991924030820004+62233+025733FM-12+009499999V0201401N005119999999N0000001N9-00221+99999100541ADDGF108991999999999999999999
0035029350999991924030906004+62233+025733FM-12+009499999V0202501N005119999999N0000001N9-00111+99999099941ADDGF108991999999999999999999MW1721
0029029350999991924030913004+62233+025733FM-12+009499999V0201101N005119999999N0000001N9+00111+99999999999ADDGF108991999999999999999999
0029029350999991924030920004+62233+025733FM-12+009499999V0202701N003119999999N0000001N9+00001+99999100061ADDGF108991999999999999999999
0029029350999991924031006004+62233+025733FM-12+009499999V0209991C000019999999N0000001N9-00611+99999100351ADDGF100991999999999999999999
0029029350999991924031013004+62233+025733FM-12+009499999V0203601N003119999999N0000001N9-00061+99999100671ADDGF100991999999999999999999
0029029350999991924031020004+62233+025733FM-12+009499999V0209991C000019999999N0000001N9-00561+99999101031ADDGF108991999999999999999999
0029029350999991924031106004+62233+025733FM-12+009499999V0200201N001019999999N0000001N9-00781+99999101361ADDGF100991999999999999999999
0029029350999991924031113004+62233+025733FM-12+009499999V0203601N003119999999N0000001N9-00281+99999101711ADDGF100991999999999999999999
0029029350999991924031120004+62233+025733FM-12+009499999V0209991C000019999999N0000001N9-01171+99999101991ADDGF100991999999999999999999
0029029350999991924031206004+62233+025733FM-12+009499999V0209991C000019999999N0000001N9-02391+99999102271ADDGF103991999999999999999999
0029029350999991924031213004+62233+025733FM-12+009499999V0200501N001019999999N0000001N9-00061+99999102301ADDGF101991999999999999999999
0029029350999991924031220004+62233+025733FM-12+009499999V0209991C000019999999N0000001N9-01171+99999102181ADDGF100991999999999999999999
0029029350999991924031306004+62233+025733FM-12+009499999V0209991C000019999999N0000001N9-01281+99999101981ADDGF106991999999999999999999
0029029350999991924031313004+62233+025733FM-12+009499999V0202701N003119999999N0000001N9+00061+99999101791ADDGF100991999999999999999999
0029029350999991924031320004+62233+025733FM-12+009499999V0209991C000019999999N0000001N9-00561+99999101661ADDGF100991999999999999999999
0029029350999991924031406004+62233+025733FM-12+009499999V0200501N001019999999N0000001N9-00391+99999101351ADDGF108991999999999999999999
0029029350999991924031413004+62233+025733FM-12+009499999V0201401N001019999999N0000001N9+00331+99999101021ADDGF100991999999999999999999
0029029350999991924031420004+62233+025733FM-12+009499999V0202501N001019999999N0000001N9-00171+99999100601ADDGF100991999999999999999999
0029029350999991924031506004+62233+025733FM-12+009499999V0201401N003119999999N0000001N9-00281+99999099521ADDGF108991999999999999999999
0029029350999991924031513004+62233+025733FM-12+009499999V0201801N005119999999N0000001N9-00061+99999098961ADDGF108991999999999999999999
0035029350999991924031520004+62233+025733FM-12+009499999V0202701N005119999999N0000001N9-00171+99999098441ADDGF108991999999999999999999MW1721
0035029350999991924031606004+62233+025733FM-12+009499999V0209991C000019999999N0000001N9-00171+99999097711ADDGF108991999999999999999999MW1721
0035029350999991924031613004+62233+025733FM-12+009499999V0202501N003119999999N0000001N9+00001+99999097841ADDGF108991999999999999999999MW1721
0035029350999991924031620004+62233+025733FM-12+009499999V0200701N001019999999N0000001N9-00281+99999097951ADDGF108991999999999999999999MW1721
0035029350999991924031706004+62233+025733FM-12+009499999V0203401N003119999999N0000001N9-01061+99999098111ADDGF108991999999999999999999MW1701
0035029350999991924031713004+62233+025733FM-12+009499999V0203601N001019999999N0000001N9-00781+99999098271ADDGF108991999999999999999999MW1701
0035029350999991924031720004+62233+025733FM-12+009499999V0203601N005119999999N0000001N9-00831+99999098471ADDGF108991999999999999999999MW1701
0035029350999991924031806004+62233+025733FM-12+009499999V0200201N003119999999N0000001N9-01171+99999098421ADDGF108991999999999999999999MW1721
0035029350999991924031813004+62233+025733FM-12+009499999V0203601N003119999999N0000001N9-00781+99999098361ADDGF108991999999999999999999MW1721
0035029350999991924031820004+62233+025733FM-12+009499999V0203601N001019999999N0000001N9-00941+99999098391ADDGF108991999999999999999999MW1721
0035029350999991924031906004+62233+025733FM-12+009499999V0203601N003119999999N0000001N9-01171+99999098341ADDGF108991999999999999999999MW1721
0029029350999991924031913004+62233+025733FM-12+009499999V0203601N001019999999N0000001N9-00501+99999098431ADDGF108991999999999999999999
0035029350999991924031920004+62233+025733FM-12+009499999V0209991C000019999999N0000001N9-01111+99999098721ADDGF102991999999999999999999MW1701
0029029350999991924032006004+62233+025733FM-12+009499999V0209991C000019999999N0000001N9-01781+99999099021ADDGF105991999999999999999999
0029029350999991924032013004+62233+025733FM-12+009499999V0203601N001019999999N0000001N9-00441+99999099191ADDGF106991999999999999999999
0029029350999991924032020004+62233+025733FM-12+009499999V0209991C000019999999N0000001N9-00941+99999099461ADDGF102991999999999999999999
0029029350999991924032106004+62233+025733FM-12+009499999V0209991C000019999999N0000001N9-01721+99999099781ADDGF100991999999999999999999
0029029350999991924032113004+62233+025733FM-12+009499999V0202701N001019999999N0000001N9-00281+99999099991ADDGF100991999999999999999999
0029029350999991924032120004+62233+025733FM-12+009499999V0209991C000019999999N0000001N9-01001+99999100081ADDGF100991999999999999999999
0035029350999991924032206004+62233+025733FM-12+009499999V0209991C000019999999N0000001N9-00941+99999099681ADDGF108991999999999999999999MW1721
0035029350999991924032213004+62233+025733FM-12+009499999V0201801N005119999999N0000001N9-00391+99999099281ADDGF108991999999999999999999MW1721
0035029350999991924032220004+62233+025733FM-12+009499999V0201601N005119999999N0000001N9-00561+99999099071ADDGF108991999999999999999999MW1721
0035029350999991924032306004+62233+025733FM-12+009499999V0209991C000019999999N0000001N9-00671+99999098911ADDGF108991999999999999999999MW1721
0029029350999991924032313004+62233+025733FM-12+009499999V0203601N003119999999N0000001N9-00501+99999099301ADDGF103991999999999999999999
0029029350999991924032320004+62233+025733FM-12+009499999V0209991C000019999999N0000001N9-00831+99999099711ADDGF108991999999999999999999
0029029350999991924032406004+62233+025733FM-12+009499999V0209991C000019999999N0000001N9-01831+99999100151ADDGF100991999999999999999999
0029029350999991924032413004+62233+025733FM-12+009499999V0209991C000019999999N0000001N9-00111+99999100271ADDGF105991999999999999999999
0029029350999991924032420004+62233+025733FM-12+009499999V0209991C000019999999N0000001N9-00611+99999100151ADDGF108991999999999999999999
0035029350999991924032506004+62233+025733FM-12+009499999V0200901N006219999999N0000001N9-00721+99999099541ADDGF108991999999999999999999MW1861
0035029350999991924032513004+62233+025733FM-12+009499999V0200701N008719999999N0000001N9-00611+99999099231ADDGF108991999999999999999999MW1861
0035029350999991924032520004+62233+025733FM-12+009499999V0200701N009819999999N0000001N9-00671+99999099191ADDGF108991999999999999999999MW1861
0029029350999991924032606004+62233+025733FM-12+009499999V0200501N003119999999N0000001N9-00611+99999099301ADDGF108991999999999999999999
0029029350999991924032613004+62233+025733FM-12+009499999V0200501N003119999999N0000001N9-00391+99999099591ADDGF108991999999999999999999
0035029350999991924032620004+62233+025733FM-12+009499999V0200501N003119999999N0000001N9-00391+99999099781ADDGF108991999999999999999999MW1721
0035029350999991924032706004+62233+025733FM-12+009499999V0200501N005119999999N0000001N9-00331+99999099721ADDGF108991999999999999999999MW1701
0029029350999991924032713004+62233+025733FM-12+009499999V0200901N003119999999N0000001N9-00111+99999099641ADDGF108991999999999999999999
0035029350999991924032720004+62233+025733FM-12+009499999V0200901N003119999999N0000001N9+00001+99999099361ADDGF108991999999999999999999MW1721
0029029350999991924032806004+62233+025733FM-12+009499999V0209991C000019999999N0000001N9+00111+99999099241ADDGF108991999999999999999999
0029029350999991924032813004+62233+025733FM-12+009499999V0201801N001019999999N0000001N9+00221+99999099321ADDGF108991999999999999999999
0029029350999991924032820004+62233+025733FM-12+009499999V0209991C000019999999N0000001N9+00061+99999099431ADDGF108991999999999999999999
0029029350999991924032906004+62233+025733FM-12+009499999V0209991C000019999999N0000001N9-00221+99999099471ADDGF105991999999999999999999
0029029350999991924032913004+62233+025733FM-12+009499999V0209991C000019999999N0000001N9+00561+99999099441ADDGF100991999999999999999999
0029029350999991924032920004+62233+025733FM-12+009499999V0209991C000019999999N0000001N9-00281+99999099511ADDGF100991999999999999999999
0029029350999991924033006004+62233+025733FM-12+009499999V0209991C000019999999N0000001N9-00891+99999099511ADDGF108991999999999999999999
0035029350999991924033013004+62233+025733FM-12+009499999V0203201N001019999999N0000001N9+00061+99999099121ADDGF108991999999999999999999MW1721
0029029350999991924033020004+62233+025733FM-12+009499999V0209991C000019999999N0000001N9-00111+99999099001ADDGF108991999999999999999999
0048029350999991924033106004+62233+025733FM-12+009499999V0202501N003119999999N0000001N9-00331+99999099281ADDGF108991999999999999999999EQDQ01+000622PRSWM1
0029029350999991924033113004+62233+025733FM-12+009499999V0202701N003119999999N0000001N9+00221+99999099521ADDGF106991999999999999999999
0029029350999991924033120004+62233+025733FM-12+009499999V0209991C000019999999N0000001N9-00061+99999099801ADDGF108991999999999999999999
0029029350999991924040106004+62233+025733FM-12+009499999V0203601N003119999999N0000001N9-00281+99999100221ADDGF107991999999999999999999
0029029350999991924040113004+62233+025733FM-12+009499999V0203601N003119999999N0000001N9+00061+99999100661ADDGF108991999999999999999999
0029029350999991924040120004+62233+025733FM-12+009499999V0209991C000019999999N0000001N9-00171+99999100981ADDGF108991999999999999999999
0029029350999991924040206004+62233+025733FM-12+009499999V0203601N001019999999N0000001N9-00441+99999101301ADDGF108991999999999999999999
0029029350999991924040213004+62233+025733FM-12+009499999V0203601N001019999999N0000001N9+00281+99999101321ADDGF103991999999999999999999
0029029350999991924040220004+62233+025733FM-12+009499999V0209991C000019999999N0000001N9-00441+99999101241ADDGF100991999999999999999999
0029029350999991924040306004+62233+025733FM-12+009499999V0209991C000019999999N0000001N9-01001+99999100841ADDGF100991999999999999999999
0035029350999991924040313004+62233+025733FM-12+009499999V0202701N005119999999N0000001N9+00281+99999100261ADDGF108991999999999999999999MW1721
0029029350999991924040320004+62233+025733FM-12+009499999V0209991C000019999999N0000001N9+00061+99999999999ADDGF100991999999999999999999
0029029350999991924040406004+62233+025733FM-12+009499999V0203601N005119999999N0000001N9-00171+99999100181ADDGF100991999999999999999999
0029029350999991924040413004+62233+025733FM-12+009499999V0203601N001019999999N0000001N9+00171+99999100361ADDGF103991999999999999999999
0029029350999991924040420004+62233+025733FM-12+009499999V0209991C000019999999N0000001N9-00441+99999100391ADDGF100991999999999999999999
0029029350999991924040506004+62233+025733FM-12+009499999V0209991C000019999999N0000001N9-00831+99999100121ADDGF108991999999999999999999
0029029350999991924040513004+62233+025733FM-12+009499999V0202701N003119999999N0000001N9+00501+99999099521ADDGF108991999999999999999999
0029029350999991924040520004+62233+025733FM-12+009499999V0202701N001019999999N0000001N9+00221+99999099221ADDGF100991999999999999999999
0029029350999991924040606004+62233+025733FM-12+009499999V0202701N001019999999N0000001N9+00171+99999098341ADDGF106991999999999999999999
0029029350999991924040613004+62233+025733FM-12+009499999V0202701N007219999999N0000001N9+00501+99999097831ADDGF104991999999999999999999
0029029350999991924040620004+62233+025733FM-12+009499999V0200201N005119999999N0000001N9-00061+99999097831ADDGF100991999999999999999999
0029029350999991924040706004+62233+025733FM-12+009499999V0202701N005119999999N0000001N9-00221+99999097831ADDGF102991999999999999999999
0029029350999991924040713004+62233+025733FM-12+009499999V0202701N003119999999N0000001N9+00501+99999097711ADDGF106991999999999999999999
0035029350999991924040720004+62233+025733FM-12+009499999V0202701N001019999999N0000001N9-00061+99999097561ADDGF108991999999999999999999MW1701
0029029350999991924040806004+62233+025733FM-12+009499999V0209991C000019999999N0000001N9-00111+99999097021ADDGF105991999999999999999999
0029029350999991924040813004+62233+025733FM-12+009499999V0202701N001019999999N0000001N9+00281+99999096701ADDGF108991999999999999999999
0029029350999991924040820004+62233+025733FM-12+009499999V0202701N007219999999N0000001N9+00111+99999096761ADDGF108991999999999999999999
0029029350999991924040906004+62233+025733FM-12+009499999V0209991C000019999999N0000001N9-00721+99999098181ADDGF100991999999999999999999
0029029350999991924040913004+62233+025733FM-12+009499999V0201801N003119999999N0000001N9+00111+99999098461ADDGF108991999999999999999999
0029029350999991924040920004+62233+025733FM-12+009499999V0209991C000019999999N0000001N9-00111+99999098511ADDGF108991999999999999999999
0029029350999991924041006004+62233+025733FM-12+009499999V0202301N001019999999N0000001N9-00111+99999098631ADDGF108991999999999999999999
0029029350999991924041013004+62233+025733FM-12+009499999V0202301N001019999999N0000001N9+00441+99999098861ADDGF106991999999999999999999
0029029350999991924041020004+62233+025733FM-12+009499999V0209991C000019999999N0000001N9-00171+99999099081ADDGF100991999999999999999999
0029029350999991924041106004+62233+025733FM-12+009499999V0209991C000019999999N0000001N9-00721+99999099191ADDGF106991999999999999999999
0029029350999991924041113004+62233+025733FM-12+009499999V0203601N005119999999N0000001N9+00441+99999098641ADDGF108991999999999999999999
0035029350999991924041120004+62233+025733FM-12+009499999V0203601N001019999999N0000001N9+00001+99999097991ADDGF108991999999999999999999MW1691
0029029350999991924041206004+62233+025733FM-12+009499999V0201601N001019999999N0000001N9+00061+99999097521ADDGF108991999999999999999999
0029029350999991924041213004+62233+025733FM-12+009499999V0201601N007219999999N0000001N9+00171+99999097921ADDGF108991999999999999999999
0029029350999991924041220004+62233+025733FM-12+009499999V0202301N007219999999N0000001N9-00111+99999098751ADDGF107991999999999999999999
0029029350999991924041306004+62233+025733FM-12+009499999V0209991C000019999999N0000001N9-00171+99999099601ADDGF108991999999999999999999
0035029350999991924041313004+62233+025733FM-12+009499999V0201601N003119999999N0000001N9+00061+99999099521ADDGF108991999999999999999999MW1721
0035029350999991924041320004+62233+025733FM-12+009499999V0201601N001019999999N0000001N9+00001+99999099561ADDGF108991999999999999999999MW1741
0029029350999991924041406004+62233+025733FM-12+009499999V0209991C000019999999N0000001N9-00061+99999099741ADDGF108991999999999999999999
0029029350999991924041413004+62233+025733FM-12+009499999V0203601N001019999999N0000001N9+00281+99999099941ADDGF108991999999999999999999
0035029350999991924041420004+62233+025733FM-12+009499999V0203401N005119999999N0000001N9+00111+99999100111ADDGF108991999999999999999999MW1701
0029029350999991924041506004+62233+025733FM-12+009499999V0203401N007219999999N0000001N9+00061+99999100311ADDGF105991999999999999999999
0029029350999991924041513004+62233+025733FM-12+009499999V0200201N003119999999N0000001N9+00781+99999100441ADDGF100991999999999999999999
0029029350999991924041520004+62233+025733FM-12+009499999V0209991C000019999999N0000001N9+00001+99999100601ADDGF100991999999999999999999
0029029350999991924041606004+62233+025733FM-12+009499999V0209991C000019999999N0000001N9-00441+99999100801ADDGF100991999999999999999999
0029029350999991924041613004+62233+025733FM-12+009499999V0201801N001019999999N0000001N9-00561+99999100881ADDGF108991999999999999999999
0029029350999991924041620004+62233+025733FM-12+009499999V0201401N005119999999N0000001N9+00171+99999100911ADDGF108991999999999999999999
0029029350999991924041706004+62233+025733FM-12+009499999V0201401N003119999999N0000001N9+00111+99999100921ADDGF100991999999999999999999
0029029350999991924041713004+62233+025733FM-12+009499999V0201401N005119999999N0000001N9+01061+99999100951ADDGF102991999999999999999999
0029029350999991924041720004+62233+025733FM-12+009499999V0209991C000019999999N0000001N9+00281+99999101061ADDGF100991999999999999999999
0029029350999991924041806004+62233+025733FM-12+009499999V0209991C000019999999N0000001N9+00001+99999101181ADDGF100991999999999999999999
0029029350999991924041813004+62233+025733FM-12+009499999V0201801N001019999999N0000001N9+01001+99999101121ADDGF106991999999999999999999
0029029350999991924041820004+62233+025733FM-12+009499999V0209991C000019999999N0000001N9+00331+99999101181ADDGF106991999999999999999999
0029029350999991924041906004+62233+025733FM-12+009499999V0209991C000019999999N0000001N9-00111+99999101281ADDGF105991999999999999999999
0035029350999991924041913004+62233+025733FM-12+009499999V0201101N001019999999N0000001N9+00281+99999100951ADDGF108991999999999999999999MW1601
0035029350999991924041920004+62233+025733FM-12+009499999V0201101N001019999999N0000001N9+00061+99999100701ADDGF108991999999999999999999MW1601
0035029350999991924042006004+62233+025733FM-12+009499999V0209991C000019999999N0000001N9+00061+99999100671ADDGF108991999999999999999999MW1601
0029029350999991924042013004+62233+025733FM-12+009499999V0202701N001019999999N0000001N9+00391+99999100631ADDGF108991999999999999999999
0029029350999991924042020004+62233+025733FM-12+009499999V0203601N001019999999N0000001N9+00221+99999100231ADDGF106991999999999999999999
0029029350999991924042106004+62233+025733FM-12+009499999V0203601N003119999999N0000001N9+00111+99999099301ADDGF108991999999999999999999
0029029350999991924042113004+62233+025733FM-12+009499999V0201801N003119999999N0000001N9+00441+99999099021ADDGF108991999999999999999999
0029029350999991924042120004+62233+025733FM-12+009499999V0201101N001019999999N0000001N9+00171+99999098881ADDGF108991999999999999999999
0029029350999991924042206004+62233+025733FM-12+009499999V0200901N005119999999N0000001N9+00171+99999098721ADDGF108991999999999999999999
0029029350999991924042213004+62233+025733FM-12+009499999V0200201N007219999999N0000001N9+00171+99999098791ADDGF108991999999999999999999
0029029350999991924042220004+62233+025733FM-12+009499999V0200901N008719999999N0000001N9-00221+99999098881ADDGF106991999999999999999999
0029029350999991924042306004+62233+025733FM-12+009499999V0200201N007219999999N0000001N9-00501+99999098881ADDGF104991999999999999999999
0029029350999991924042313004+62233+025733FM-12+009499999V0200201N007219999999N0000001N9-00061+99999098901ADDGF108991999999999999999999
0029029350999991924042320004+62233+025733FM-12+009499999V0200201N003119999999N0000001N9-00281+99999099241ADDGF108991999999999999999999
0029029350999991924042406004+62233+025733FM-12+009499999V0200201N007219999999N0000001N9-00501+99999099541ADDGF108991999999999999999999
0029029350999991924042413004+62233+025733FM-12+009499999V0203601N003119999999N0000001N9-00171+99999099781ADDGF108991999999999999999999
0029029350999991924042420004+62233+025733FM-12+009499999V0203601N001019999999N0000001N9-00281+99999099951ADDGF106991999999999999999999
0029029350999991924042506004+62233+025733FM-12+009499999V0203601N001019999999N0000001N9-00441+99999100101ADDGF100991999999999999999999
0029029350999991924042513004+62233+025733FM-12+009499999V0200201N005119999999N0000001N9-00331+99999100321ADDGF108991999999999999999999
0029029350999991924042520004+62233+025733FM-12+009499999V0209991C000019999999N0000001N9-00331+99999100381ADDGF100991999999999999999999
0029029350999991924042606004+62233+025733FM-12+009499999V0203601N003119999999N0000001N9-00331+99999100341ADDGF100991999999999999999999
0029029350999991924042613004+62233+025733FM-12+009499999V0203401N003119999999N0000001N9+00221+99999100271ADDGF105991999999999999999999
0029029350999991924042620004+62233+025733FM-12+009499999V0209991C000019999999N0000001N9-00281+99999100281ADDGF107991999999999999999999
0029029350999991924042706004+62233+025733FM-12+009499999V0209991C000019999999N0000001N9-00281+99999100321ADDGF100991999999999999999999
0029029350999991924042713004+62233+025733FM-12+009499999V0203601N003119999999N0000001N9+00281+99999100271ADDGF106991999999999999999999
0029029350999991924042720004+62233+025733FM-12+009499999V0209991C000019999999N0000001N9+00001+99999100161ADDGF106991999999999999999999
0029029350999991924042806004+62233+025733FM-12+009499999V0209991C000019999999N0000001N9-00281+99999100081ADDGF100991999999999999999999
0029029350999991924042813004+62233+025733FM-12+009499999V0200501N003119999999N0000001N9+00281+99999099871ADDGF103991999999999999999999
0029029350999991924042820004+62233+025733FM-12+009499999V0209991C000019999999N0000001N9-00221+99999099661ADDGF100991999999999999999999
0029029350999991924042906004+62233+025733FM-12+009499999V0209991C000019999999N0000001N9-00221+99999099401ADDGF104991999999999999999999
0029029350999991924042913004+62233+025733FM-12+009499999V0201101N003119999999N0000001N9+00331+99999099261ADDGF108991999999999999999999
0029029350999991924042920004+62233+025733FM-12+009499999V0209991C000019999999N0000001N9+00111+99999099281ADDGF106991999999999999999999
0029029350999991924043006004+62233+025733FM-12+009499999V0209991C000019999999N0000001N9+00001+99999099281ADDGF108991999999999999999999
0029029350999991924043013004+62233+025733FM-12+009499999V0200901N001019999999N0000001N9+00721+99999099281ADDGF104991999999999999999999
0029029350999991924043020004+62233+025733FM-12+009499999V0209991C000019999999N0000001N9+00221+99999099351ADDGF107991999999999999999999
0029029350999991924050106004+62233+025733FM-12+009499999V0203601N003119999999N0000001N9+00001+99999099311ADDGF108991999999999999999999
0035029350999991924050113004+62233+025733FM-12+009499999V0200201N003119999999N0000001N9+00171+99999099231ADDGF108991999999999999999999MW1701
0035029350999991924050120004+62233+025733FM-12+009499999V0200201N001019999999N0000001N9+00111+99999099241ADDGF108991999999999999999999MW1691
0029029350999991924050206004+62233+025733FM-12+009499999V0209991C000019999999N0000001N9+00221+99999099401ADDGF108991999999999999999999
0029029350999991924050213004+62233+025733FM-12+009499999V0203601N001019999999N0000001N9+00721+99999099591ADDGF106991999999999999999999
0029029350999991924050220004+62233+025733FM-12+009499999V0209991C000019999999N0000001N9+00391+99999099831ADDGF100991999999999999999999
0029029350999991924050306004+62233+025733FM-12+009499999V0209991C000019999999N0000001N9+00061+99999100241ADDGF106991999999999999999999
0029029350999991924050313004+62233+025733FM-12+009499999V0201801N001019999999N0000001N9+01331+99999100431ADDGF103991999999999999999999
0029029350999991924050320004+62233+025733FM-12+009499999V0209991C000019999999N0000001N9+00611+99999100541ADDGF100991999999999999999999
0029029350999991924050406004+62233+025733FM-12+009499999V0201801N001019999999N0000001N9+00331+99999100631ADDGF101991999999999999999999
0029029350999991924050413004+62233+025733FM-12+009499999V0201401N003119999999N0000001N9+01171+99999100581ADDGF103991999999999999999999
0029029350999991924050420004+62233+025733FM-12+009499999V0202001N001019999999N0000001N9+00671+99999100461ADDGF107991999999999999999999
0029029350999991924050506004+62233+025733FM-12+009499999V0209991C000019999999N0000001N9+00561+99999100341ADDGF106991999999999999999999
0029029350999991924050513004+62233+025733FM-12+009499999V0201801N005119999999N0000001N9+01221+99999100191ADDGF106991999999999999999999
0029029350999991924050520004+62233+025733FM-12+009499999V0200201N001019999999N0000001N9+00781+99999099961ADDGF108991999999999999999999
0029029350999991924050606004+62233+025733FM-12+009499999V0209991C000019999999N0000001N9+00331+99999099781ADDGF106991999999999999999999
0029029350999991924050613004+62233+025733FM-12+009499999V0203401N003119999999N0000001N9+00831+99999099961ADDGF106991999999999999999999
0029029350999991924050620004+62233+025733FM-12+009499999V0209991C000019999999N0000001N9+00281+99999100341ADDGF102991999999999999999999
0029029350999991924050706004+62233+025733FM-12+009499999V0209991C000019999999N0000001N9+00281+99999100201ADDGF108991999999999999999999
0029029350999991924050713004+62233+025733FM-12+009499999V0202701N001019999999N0000001N9+00331+99999100421ADDGF108991999999999999999999
0029029350999991924050720004+62233+025733FM-12+009499999V0209991C000019999999N0000001N9+00331+99999100621ADDGF103991999999999999999999
0029029350999991924050806004+62233+025733FM-12+009499999V0209991C000019999999N0000001N9+00331+99999100961ADDGF100991999999999999999999
0029029350999991924050813004+62233+025733FM-12+009499999V0201401N001019999999N0000001N9+01331+99999101141ADDGF101991999999999999999999
0035029350999991924050820004+62233+025733FM-12+009499999V0200901N001019999999N0000001N9+00721+99999100621ADDGF108991999999999999999999MW1621
0035029350999991924050906004+62233+025733FM-12+009499999V0209991C000019999999N0000001N9+00671+99999099911ADDGF108991999999999999999999MW1621
0029029350999991924050913004+62233+025733FM-12+009499999V0209991C000019999999N0000001N9+00671+99999100281ADDGF108991999999999999999999
0029029350999991924050920004+62233+025733FM-12+009499999V0209991C000019999999N0000001N9+00441+99999100471ADDGF101991999999999999999999
0029029350999991924051006004+62233+025733FM-12+009499999V0209991C000019999999N0000001N9+00391+99999100591ADDGF108991999999999999999999
0029029350999991924051013004+62233+025733FM-12+009499999V0200901N005119999999N0000001N9+01221+99999100621ADDGF108991999999999999999999
0029029350999991924051020004+62233+025733FM-12+009499999V0202501N003119999999N0000001N9+00781+99999101081ADDGF100991999999999999999999
0029029350999991924051106004+62233+025733FM-12+009499999V0209991C000019999999N0000001N9+00721+99999101711ADDGF100991999999999999999999
0029029350999991924051113004+62233+025733FM-12+009499999V0201601N003119999999N0000001N9+01671+99999101701ADDGF100991999999999999999999
0029029350999991924051120004+62233+025733FM-12+009499999V0209991C000019999999N0000001N9+00941+99999101471ADDGF106991999999999999999999
0029029350999991924051206004+62233+025733FM-12+009499999V0209991C000019999999N0000001N9+00891+99999100921ADDGF100991999999999999999999
0029029350999991924051213004+62233+025733FM-12+009499999V0201601N005119999999N0000001N9+02221+99999100351ADDGF101991999999999999999999
0029029350999991924051220004+62233+025733FM-12+009499999V0202701N001019999999N0000001N9+01501+99999100341ADDGF106991999999999999999999
0029029350999991924051306004+62233+025733FM-12+009499999V0209991C000019999999N0000001N9+00781+99999100181ADDGF108991999999999999999999
0029029350999991924051313004+62233+025733FM-12+009499999V0209991C000019999999N0000001N9+01061+99999100151ADDGF106991999999999999999999
0029029350999991924051320004+62233+025733FM-12+009499999V0209991C000019999999N0000001N9+01111+99999100221ADDGF103991999999999999999999
0029029350999991924051406004+62233+025733FM-12+009499999V0209991C000019999999N0000001N9+00831+99999100701ADDGF100991999999999999999999
0029029350999991924051413004+62233+025733FM-12+009499999V0202701N003119999999N0000001N9+01441+99999100711ADDGF108991999999999999999999
0029029350999991924051420004+62233+025733FM-12+009499999V0209991C000019999999N0000001N9+00891+99999100541ADDGF108991999999999999999999
0029029350999991924051506004+62233+025733FM-12+009499999V0209991C000019999999N0000001N9+00891+99999100581ADDGF106991999999999999999999
0029029350999991924051513004+62233+025733FM-12+009499999V0203201N003119999999N0000001N9+01611+99999100501ADDGF107991999999999999999999
0029029350999991924051520004+62233+025733FM-12+009499999V0209991C000019999999N0000001N9+00891+99999099961ADDGF108991999999999999999999
0029029350999991924051606004+62233+025733FM-12+009499999V0202701N003119999999N0000001N9+01001+99999099591ADDGF102991999999999999999999
0029029350999991924051613004+62233+025733FM-12+009499999V0203201N007219999999N0000001N9+01171+99999100101ADDGF103991999999999999999999
0029029350999991924051620004+62233+025733FM-12+009499999V0203601N001019999999N0000001N9+00671+99999100321ADDGF101991999999999999999999
0029029350999991924051706004+62233+025733FM-12+009499999V0203601N003119999999N0000001N9+00331+99999100041ADDGF108991999999999999999999
0035029350999991924051713004+62233+025733FM-12+009499999V0201101N005119999999N0000001N9+00281+99999099711ADDGF108991999999999999999999MW1691
0035029350999991924051720004+62233+025733FM-12+009499999V0200201N003119999999N0000001N9+00221+99999099431ADDGF108991999999999999999999MW1691
0029029350999991924051806004+62233+025733FM-12+009499999V0203601N003119999999N0000001N9+00441+99999099631ADDGF108991999999999999999999
0029029350999991924051813004+62233+025733FM-12+009499999V0203401N001019999999N0000001N9+00941+99999099921ADDGF106991999999999999999999
0029029350999991924051820004+62233+025733FM-12+009499999V0202701N001019999999N0000001N9+00671+99999100061ADDGF107991999999999999999999
0029029350999991924051906004+62233+025733FM-12+009499999V0203601N003119999999N0000001N9+00441+99999100221ADDGF100991999999999999999999
0029029350999991924051913004+62233+025733FM-12+009499999V0201401N005119999999N0000001N9+01061+99999100221ADDGF102991999999999999999999
0029029350999991924051920004+62233+025733FM-12+009499999V0209991C000019999999N0000001N9+00561+99999100161ADDGF100991999999999999999999
0029029350999991924052006004+62233+025733FM-12+009499999V0209991C000019999999N0000001N9+00391+99999100181ADDGF102991999999999999999999
0029029350999991924052013004+62233+025733FM-12+009499999V0200201N003119999999N0000001N9+00891+99999100201ADDGF108991999999999999999999
0029029350999991924052020004+62233+025733FM-12+009499999V0209991C000019999999N0000001N9+00281+99999100381ADDGF106991999999999999999999
0029029350999991924052106004+62233+025733FM-12+009499999V0203401N001019999999N0000001N9+00391+99999100721ADDGF105991999999999999999999
0029029350999991924052113004+62233+025733FM-12+009499999V0203601N003119999999N0000001N9+00781+99999100791ADDGF106991999999999999999999
0029029350999991924052120004+62233+025733FM-12+009499999V0209991C000019999999N0000001N9+00611+99999100901ADDGF103991999999999999999999
0029029350999991924052206004+62233+025733FM-12+009499999V0203601N001019999999N0000001N9+00501+99999101151ADDGF106991999999999999999999
0029029350999991924052213004+62233+025733FM-12+009499999V0202701N005119999999N0000001N9+01221+99999100951ADDGF106991999999999999999999
0029029350999991924052220004+62233+025733FM-12+009499999V0209991C000019999999N0000001N9+00891+99999100641ADDGF105991999999999999999999
0029029350999991924052306004+62233+025733FM-12+009499999V0209991C000019999999N0000001N9+00611+99999100341ADDGF108991999999999999999999
0029029350999991924052313004+62233+025733FM-12+009499999V0209991C000019999999N0000001N9+01221+99999099791ADDGF108991999999999999999999
0035029350999991924052320004+62233+025733FM-12+009499999V0201401N003119999999N0000001N9+00721+99999099281ADDGF108991999999999999999999MW1621
0029029350999991924052406004+62233+025733FM-12+009499999V0209991C000019999999N0000001N9+00781+99999098601ADDGF108991999999999999999999
0029029350999991924052413004+62233+025733FM-12+009499999V0203601N005119999999N0000001N9+01111+99999099021ADDGF106991999999999999999999
0029029350999991924052420004+62233+025733FM-12+009499999V0209991C000019999999N0000001N9+00941+99999099311ADDGF102991999999999999999999
0029029350999991924052506004+62233+025733FM-12+009499999V0201801N003119999999N0000001N9+01061+99999099381ADDGF102991999999999999999999
0035029350999991924052513004+62233+025733FM-12+009499999V0201801N005119999999N0000001N9+01221+99999098951ADDGF108991999999999999999999MW1621
0029029350999991924052520004+62233+025733FM-12+009499999V0201801N005119999999N0000001N9+01061+99999098591ADDGF105991999999999999999999
0029029350999991924052606004+62233+025733FM-12+009499999V0202701N005119999999N0000001N9+00941+99999098661ADDGF102991999999999999999999
0029029350999991924052613004+62233+025733FM-12+009499999V0202301N007219999999N0000001N9+01561+99999099001ADDGF104991999999999999999999
0029029350999991924052620004+62233+025733FM-12+009499999V0202701N001019999999N0000001N9+01281+99999099461ADDGF102991999999999999999999
0029029350999991924052706004+62233+025733FM-12+009499999V0202001N003119999999N0000001N9+00891+99999099551ADDGF108991999999999999999999
0029029350999991924052713004+62233+025733FM-12+009499999V0202701N003119999999N0000001N9+01281+99999099881ADDGF108991999999999999999999
0029029350999991924052720004+62233+025733FM-12+009499999V0202701N003119999999N0000001N9+01061+99999100231ADDGF106991999999999999999999
0029029350999991924052806004+62233+025733FM-12+009499999V0209991C000019999999N0000001N9+01001+99999100481ADDGF100991999999999999999999
0029029350999991924052813004+62233+025733FM-12+009499999V0202701N005119999999N0000001N9+01501+99999100461ADDGF108991999999999999999999
0029029350999991924052820004+62233+025733FM-12+009499999V0202701N001019999999N0000001N9+01221+99999100461ADDGF102991999999999999999999
0029029350999991924052906004+62233+025733FM-12+009499999V0203601N001019999999N0000001N9+00941+99999100321ADDGF108991999999999999999999
0029029350999991924052913004+62233+025733FM-12+009499999V0202701N005119999999N0000001N9+01501+99999100561ADDGF102991999999999999999999
0029029350999991924052920004+62233+025733FM-12+009499999V0209991C000019999999N0000001N9+01001+99999100751ADDGF106991999999999999999999
0029029350999991924053006004+62233+025733FM-12+009499999V0203601N001019999999N0000001N9+00891+99999101061ADDGF100991999999999999999999
0029029350999991924053013004+62233+025733FM-12+009499999V0201601N001019999999N0000001N9+01781+99999101061ADDGF100991999999999999999999
0029029350999991924053020004+62233+025733FM-12+009499999V0209991C000019999999N0000001N9+01331+99999100681ADDGF106991999999999999999999
0029029350999991924053106004+62233+025733FM-12+009499999V0201401N003119999999N0000001N9+01331+99999099621ADDGF108991999999999999999999
0029029350999991924053113004+62233+025733FM-12+009499999V0202701N001019999999N0000001N9+01441+99999099381ADDGF108991999999999999999999
0029029350999991924053120004+62233+025733FM-12+009499999V0203201N001019999999N0000001N9+01111+99999099791ADDGF100991999999999999999999
0029029350999991924060106004+62233+025733FM-12+009499999V0203601N001019999999N0000001N9+00941+99999100381ADDGF100991999999999999999999
0029029350999991924060113004+62233+025733FM-12+009499999V0203401N001019999999N0000001N9+01331+99999100521ADDGF108991999999999999999999
0029029350999991924060120004+62233+025733FM-12+009499999V0202701N001019999999N0000001N9+00941+99999100601ADDGF108991999999999999999999
0035029350999991924060206004+62233+025733FM-12+009499999V0209991C000019999999N0000001N9+00781+99999100471ADDGF108991999999999999999999MW1621
0035029350999991924060213004+62233+025733FM-12+009499999V0201401N003119999999N0000001N9+00831+99999099991ADDGF108991999999999999999999MW1621
0029029350999991924060220004+62233+025733FM-12+009499999V0209991C000019999999N0000001N9+01001+99999099501ADDGF108991999999999999999999
0035029350999991924060306004+62233+025733FM-12+009499999V0209991C000019999999N0000001N9+01001+99999098911ADDGF108991999999999999999999MW1621
0029029350999991924060313004+62233+025733FM-12+009499999V0201601N001019999999N0000001N9+01671+99999098671ADDGF102991999999999999999999
0029029350999991924060320004+62233+025733FM-12+009499999V0202701N005119999999N0000001N9+01001+99999098621ADDGF100991999999999999999999
0029029350999991924060406004+62233+025733FM-12+009499999V0201801N005119999999N0000001N9+00781+99999098561ADDGF108991999999999999999999
0029029350999991924060413004+62233+025733FM-12+009499999V0201601N005119999999N0000001N9+01281+99999098521ADDGF107991999999999999999999
0029029350999991924060420004+62233+025733FM-12+009499999V0209991C000019999999N0000001N9+00781+99999098521ADDGF105991999999999999999999
0029029350999991924060506004+62233+025733FM-12+009499999V0202701N005119999999N0000001N9+00721+99999098881ADDGF108991999999999999999999
0029029350999991924060513004+62233+025733FM-12+009499999V0202701N005119999999N0000001N9+01171+99999099261ADDGF105991999999999999999999
0029029350999991924060520004+62233+025733FM-12+009499999V0202701N001019999999N0000001N9+00831+99999099661ADDGF100991999999999999999999
0029029350999991924060606004+62233+025733FM-12+009499999V0203601N001019999999N0000001N9+00781+99999100181ADDGF105991999999999999999999
0029029350999991924060613004+62233+025733FM-12+009499999V0209991C000019999999N0000001N9+01281+99999100401ADDGF106991999999999999999999
0035029350999991924060620004+62233+025733FM-12+009499999V0202901N001019999999N0000001N9+00941+99999100401ADDGF107991999999999999999999MW1621
0029029350999991924060706004+62233+025733FM-12+009499999V0202701N003119999999N0000001N9+00831+99999100401ADDGF106991999999999999999999
0029029350999991924060713004+62233+025733FM-12+009499999V0202701N003119999999N0000001N9+01331+99999100791ADDGF107991999999999999999999
0029029350999991924060720004+62233+025733FM-12+009499999V0202901N007219999999N0000001N9+01061+99999101041ADDGF100991999999999999999999
0029029350999991924060806004+62233+025733FM-12+009499999V0201801N005119999999N0000001N9+00891+99999101181ADDGF108991999999999999999999
0035029350999991924060813004+62233+025733FM-12+009499999V0202701N003119999999N0000001N9+00941+99999101191ADDGF108991999999999999999999MW1621
0029029350999991924060820004+62233+025733FM-12+009499999V0202701N001019999999N0000001N9+01111+99999101021ADDGF104991999999999999999999
0029029350999991924060906004+62233+025733FM-12+009499999V0209991C000019999999N0000001N9+00941+99999101001ADDGF102991999999999999999999
0029029350999991924060913004+62233+025733FM-12+009499999V0201801N001019999999N0000001N9+02061+99999100911ADDGF101991999999999999999999
0029029350999991924060920004+62233+025733FM-12+009499999V0209991C000019999999N0000001N9+01501+99999100751ADDGF107991999999999999999999
0029029350999991924061006004+62233+025733FM-12+009499999V0209991C000019999999N0000001N9+01391+99999100391ADDGF100991999999999999999999
0029029350999991924061013004+62233+025733FM-12+009499999V0201601N003119999999N0000001N9+02111+99999099991ADDGF104991999999999999999999
0035029350999991924061020004+62233+025733FM-12+009499999V0201801N003119999999N0000001N9+01391+99999099321ADDGF108991999999999999999999MW1621
0029029350999991924061106004+62233+025733FM-12+009499999V0202701N007219999999N0000001N9+01111+99999099021ADDGF108991999999999999999999
0029029350999991924061113004+62233+025733FM-12+009499999V0202701N007219999999N0000001N9+01501+99999099101ADDGF107991999999999999999999
0029029350999991924061120004+62233+025733FM-12+009499999V0203601N001019999999N0000001N9+01221+99999099341ADDGF105991999999999999999999
0029029350999991924061206004+62233+025733FM-12+009499999V0203601N001019999999N0000001N9+01061+99999099561ADDGF107991999999999999999999
0029029350999991924061213004+62233+025733FM-12+009499999V0203601N001019999999N0000001N9+01441+99999099741ADDGF106991999999999999999999
0029029350999991924061220004+62233+025733FM-12+009499999V0209991C000019999999N0000001N9+01331+99999099751ADDGF102991999999999999999999
0029029350999991924061306004+62233+025733FM-12+009499999V0201601N001019999999N0000001N9+01281+99999099941ADDGF108991999999999999999999
0035029350999991924061313004+62233+025733FM-12+009499999V0203601N003119999999N0000001N9+01281+99999099721ADDGF108991999999999999999999MW1621
0035029350999991924061320004+62233+025733FM-12+009499999V0203601N003119999999N0000001N9+01171+99999099621ADDGF108991999999999999999999MW1621
0029029350999991924061406004+62233+025733FM-12+009499999V0200901N007219999999N0000001N9+00721+99999100101ADDGF100991999999999999999999
0029029350999991924061413004+62233+025733FM-12+009499999V0200201N005119999999N0000001N9+01561+99999100661ADDGF100991999999999999999999
0029029350999991924061420004+62233+025733FM-12+009499999V0209991C000019999999N0000001N9+01171+99999100991ADDGF100991999999999999999999
0029029350999991924061506004+62233+025733FM-12+009499999V0201101N003119999999N0000001N9+01001+99999101221ADDGF104991999999999999999999
0029029350999991924061513004+62233+025733FM-12+009499999V0201601N005119999999N0000001N9+01501+99999100921ADDGF107991999999999999999999
0029029350999991924061520004+62233+025733FM-12+009499999V0201101N003119999999N0000001N9+01281+99999100361ADDGF108991999999999999999999
0035029350999991924061606004+62233+025733FM-12+009499999V0200701N003119999999N0000001N9+00941+99999099591ADDGF108991999999999999999999MW1621
0035029350999991924061613004+62233+025733FM-12+009499999V0200701N003119999999N0000001N9+01391+99999099431ADDGF108991999999999999999999MW1601
0029029350999991924061620004+62233+025733FM-12+009499999V0202301N003119999999N0000001N9+01281+99999099521ADDGF108991999999999999999999
0029029350999991924061706004+62233+025733FM-12+009499999V0202701N005119999999N0000001N9+00891+99999100381ADDGF106991999999999999999999
0029029350999991924061713004+62233+025733FM-12+009499999V0201801N003119999999N0000001N9+01891+99999100711ADDGF103991999999999999999999
0029029350999991924061720004+62233+025733FM-12+009499999V0209991C000019999999N0000001N9+01721+99999100991ADDGF100991999999999999999999
0029029350999991924061806004+62233+025733FM-12+009499999V0209991C000019999999N0000001N9+01501+99999101361ADDGF100991999999999999999999
0029029350999991924061813004+62233+025733FM-12+009499999V0202701N001019999999N0000001N9+02331+99999101431ADDGF105991999999999999999999
0029029350999991924061820004+62233+025733FM-12+009499999V0209991C000019999999N0000001N9+01891+99999101421ADDGF101991999999999999999999
0029029350999991924061906004+62233+025733FM-12+009499999V0209991C000019999999N0000001N9+01721+99999101391ADDGF102991999999999999999999
0029029350999991924061913004+62233+025733FM-12+009499999V0202701N001019999999N0000001N9+02561+99999101101ADDGF102991999999999999999999
0029029350999991924061920004+62233+025733FM-12+009499999V0209991C000019999999N0000001N9+01941+99999100901ADDGF103991999999999999999999
0029029350999991924062006004+62233+025733FM-12+009499999V0209991C000019999999N0000001N9+01671+99999100921ADDGF105991999999999999999999
0029029350999991924062013004+62233+025733FM-12+009499999V0200201N003119999999N0000001N9+02331+99999100671ADDGF106991999999999999999999
0029029350999991924062020004+62233+025733FM-12+009499999V0200501N001019999999N0000001N9+01831+99999100721ADDGF107991999999999999999999
0035029350999991924062106004+62233+025733FM-12+009499999V0201801N001019999999N0000001N9+01281+99999100561ADDGF108991999999999999999999MW1641
0035029350999991924062113004+62233+025733FM-12+009499999V0200901N001019999999N0000001N9+01001+99999100521ADDGF108991999999999999999999MW1601
0029029350999991924062120004+62233+025733FM-12+009499999V0201401N001019999999N0000001N9+01061+99999100461ADDGF108991999999999999999999
0029029350999991924062206004+62233+025733FM-12+009499999V0201401N001019999999N0000001N9+01111+99999100501ADDGF108991999999999999999999
0029029350999991924062213004+62233+025733FM-12+009499999V0209991C000019999999N0000001N9+01611+99999100481ADDGF108991999999999999999999
0029029350999991924062220004+62233+025733FM-12+009499999V0209991C000019999999N0000001N9+01561+99999100391ADDGF108991999999999999999999
0029029350999991924062306004+62233+025733FM-12+009499999V0209991C000019999999N0000001N9+01561+99999100111ADDGF106991999999999999999999
0029029350999991924062313004+62233+025733FM-12+009499999V0201601N001019999999N0000001N9+02061+99999099871ADDGF108991999999999999999999
0029029350999991924062320004+62233+025733FM-12+009499999V0209991C000019999999N0000001N9+01671+99999099681ADDGF106991999999999999999999
0035029350999991924062406004+62233+025733FM-12+009499999V0209991C000019999999N0000001N9+01561+99999099021ADDGF108991999999999999999999MW1621
0029029350999991924062413004+62233+025733FM-12+009499999V0203601N001019999999N0000001N9+01501+99999098711ADDGF107991999999999999999999
0029029350999991924062420004+62233+025733FM-12+009499999V0203601N001019999999N0000001N9+01061+99999098701ADDGF108991999999999999999999
0035029350999991924062506004+62233+025733FM-12+009499999V0200501N005119999999N0000001N9+00721+99999099201ADDGF108991999999999999999999MW1621
0029029350999991924062513004+62233+025733FM-12+009499999V0203601N005119999999N0000001N9+01111+99999099621ADDGF107991999999999999999999
0029029350999991924062520004+62233+025733FM-12+009499999V0209991C000019999999N0000001N9+01001+99999099781ADDGF106991999999999999999999
0029029350999991924062606004+62233+025733FM-12+009499999V0203601N003119999999N0000001N9+00941+99999099981ADDGF108991999999999999999999
0029029350999991924062613004+62233+025733FM-12+009499999V0202701N003119999999N0000001N9+01441+99999099911ADDGF106991999999999999999999
0029029350999991924062620004+62233+025733FM-12+009499999V0202701N001019999999N0000001N9+01171+99999099861ADDGF108991999999999999999999
0029029350999991924062706004+62233+025733FM-12+009499999V0202701N005119999999N0000001N9+01171+99999099781ADDGF100991999999999999999999
0029029350999991924062713004+62233+025733FM-12+009499999V0201801N003119999999N0000001N9+01611+99999099711ADDGF106991999999999999999999
0029029350999991924062720004+62233+025733FM-12+009499999V0203601N001019999999N0000001N9+01281+99999099641ADDGF100991999999999999999999
0035029350999991924062806004+62233+025733FM-12+009499999V0201801N001019999999N0000001N9+01061+99999098981ADDGF108991999999999999999999MW1621
0029029350999991924062813004+62233+025733FM-12+009499999V0201401N003119999999N0000001N9+01171+99999098481ADDGF108991999999999999999999
0029029350999991924062820004+62233+025733FM-12+009499999V0209991C000019999999N0000001N9+01221+99999098261ADDGF105991999999999999999999
0029029350999991924062906004+62233+025733FM-12+009499999V0201401N003119999999N0000001N9+01221+99999097961ADDGF106991999999999999999999
0029029350999991924062913004+62233+025733FM-12+009499999V0202701N005119999999N0000001N9+01611+99999098111ADDGF105991999999999999999999
0035029350999991924062920004+62233+025733FM-12+009499999V0202701N001019999999N0000001N9+01331+99999098261ADDGF106991999999999999999999MW1601
0029029350999991924063006004+62233+025733FM-12+009499999V0202701N001019999999N0000001N9+01111+99999098521ADDGF108991999999999999999999
0029029350999991924063013004+62233+025733FM-12+009499999V0203601N001019999999N0000001N9+01671+99999098631ADDGF104991999999999999999999
0029029350999991924063020004+62233+025733FM-12+009499999V0202701N001019999999N0000001N9+01331+99999098781ADDGF103991999999999999999999
0035029350999991924070106004+62233+025733FM-12+009499999V0209991C000019999999N0000001N9+01221+99999999999ADDGF108991999999999999999999MW1621
0035029350999991924070113004+62233+025733FM-12+009499999V0202701N003119999999N0000001N9+01611+99999999999ADDGF106991999999999999999999MW1601
0029029350999991924070120004+62233+025733FM-12+009499999V0209991C000019999999N0000001N9+01331+99999999999ADDGF106991999999999999999999
0029029350999991924070206004+62233+025733FM-12+009499999V0202901N001019999999N0000001N9+01171+99999999999ADDGF102991999999999999999999
0029029350999991924070213004+62233+025733FM-12+009499999V0202701N003119999999N0000001N9+01281+99999999999ADDGF107991999999999999999999
0029029350999991924070220004+62233+025733FM-12+009499999V0209991C000019999999N0000001N9+01111+99999999999ADDGF101991999999999999999999
0029029350999991924070306004+62233+025733FM-12+009499999V0209991C000019999999N0000001N9+01111+99999999999ADDGF105991999999999999999999
0029029350999991924070313004+62233+025733FM-12+009499999V0203201N001019999999N0000001N9+02061+99999999999ADDGF105991999999999999999999
0029029350999991924070320004+62233+025733FM-12+009499999V0209991C000019999999N0000001N9+01611+99999999999ADDGF106991999999999999999999
0029029350999991924070406004+62233+025733FM-12+009499999V0209991C000019999999N0000001N9+01501+99999999999ADDGF108991999999999999999999
0029029350999991924070413004+62233+025733FM-12+009499999V0201801N003119999999N0000001N9+02281+99999999999ADDGF102991999999999999999999
0035029350999991924070420004+62233+025733FM-12+009499999V0200901N003119999999N0000001N9+01391+99999999999ADDGF108991999999999999999999MW1621
0029029350999991924070506004+62233+025733FM-12+009499999V0209991C000019999999N0000001N9+01331+99999999999ADDGF108991999999999999999999
0029029350999991924070513004+62233+025733FM-12+009499999V0202901N003119999999N0000001N9+01501+99999999999ADDGF108991999999999999999999
0029029350999991924070520004+62233+025733FM-12+009499999V0209991C000019999999N0000001N9+01331+99999999999ADDGF108991999999999999999999
0035029350999991924070606004+62233+025733FM-12+009499999V0202701N001019999999N0000001N9+01111+99999999999ADDGF108991999999999999999999MW1601
0029029350999991924070613004+62233+025733FM-12+009499999V0202301N003119999999N0000001N9+01611+99999999999ADDGF106991999999999999999999
0035029350999991924070620004+62233+025733FM-12+009499999V0202701N003119999999N0000001N9+01221+99999999999ADDGF106991999999999999999999MW1621
0029029350999991924070706004+62233+025733FM-12+009499999V0202701N003119999999N0000001N9+01281+99999999999ADDGF100991999999999999999999
0029029350999991924070713004+62233+025733FM-12+009499999V0202701N007219999999N0000001N9+02111+99999999999ADDGF102991999999999999999999
0029029350999991924070720004+62233+025733FM-12+009499999V0209991C000019999999N0000001N9+01671+99999999999ADDGF101991999999999999999999
0029029350999991924070806004+62233+025733FM-12+009499999V0202701N001019999999N0000001N9+01331+99999999999ADDGF104991999999999999999999
0029029350999991924070813004+62233+025733FM-12+009499999V0202701N001019999999N0000001N9+01891+99999999999ADDGF102991999999999999999999
0029029350999991924070820004+62233+025733FM-12+009499999V0209991C000019999999N0000001N9+01391+99999999999ADDGF105991999999999999999999
0029029350999991924070906004+62233+025733FM-12+009499999V0209991C000019999999N0000001N9+01331+99999999999ADDGF106991999999999999999999
0029029350999991924070913004+62233+025733FM-12+009499999V0209991C000019999999N0000001N9+02171+99999999999ADDGF102991999999999999999999
0029029350999991924070920004+62233+025733FM-12+009499999V0209991C000019999999N0000001N9+01561+99999999999ADDGF103991999999999999999999
0029029350999991924071006004+62233+025733FM-12+009499999V0203601N001019999999N0000001N9+01391+99999999999ADDGF100991999999999999999999
0029029350999991924071013004+62233+025733FM-12+009499999V0202701N001019999999N0000001N9+01781+99999999999ADDGF106991999999999999999999
0029029350999991924071020004+62233+025733FM-12+009499999V0209991C000019999999N0000001N9+01441+99999999999ADDGF106991999999999999999999
0029029350999991924071106004+62233+025733FM-12+009499999V0203401N001019999999N0000001N9+01111+99999999999ADDGF108991999999999999999999
0029029350999991924071113004+62233+025733FM-12+009499999V0203601N003119999999N0000001N9+01671+99999999999ADDGF108991999999999999999999
0029029350999991924071120004+62233+025733FM-12+009499999V0209991C000019999999N0000001N9+01441+99999999999ADDGF103991999999999999999999
0029029350999991924071206004+62233+025733FM-12+009499999V0203601N001019999999N0000001N9+01331+99999999999ADDGF101991999999999999999999
0029029350999991924071213004+62233+025733FM-12+009499999V0203401N001019999999N0000001N9+01941+99999999999ADDGF101991999999999999999999
0029029350999991924071220004+62233+025733FM-12+009499999V0209991C000019999999N0000001N9+01671+99999999999ADDGF101991999999999999999999
0029029350999991924071306004+62233+025733FM-12+009499999V0209991C000019999999N0000001N9+01441+99999999999ADDGF105991999999999999999999
0029029350999991924071313004+62233+025733FM-12+009499999V0203601N001019999999N0000001N9+02171+99999100501ADDGF102991999999999999999999
0029029350999991924071320004+62233+025733FM-12+009499999V0209991C000019999999N0000001N9+01611+99999100441ADDGF100991999999999999999999
0029029350999991924071406004+62233+025733FM-12+009499999V0209991C000019999999N0000001N9+01391+99999100361ADDGF100991999999999999999999
0029029350999991924071413004+62233+025733FM-12+009499999V0200501N001019999999N0000001N9+02391+99999099991ADDGF106991999999999999999999
0029029350999991924071420004+62233+025733FM-12+009499999V0209991C000019999999N0000001N9+01671+99999099861ADDGF105991999999999999999999
0035029350999991924071506004+62233+025733FM-12+009499999V0203601N001019999999N0000001N9+01331+99999099881ADDGF106991999999999999999999MW1621
0029029350999991924071513004+62233+025733FM-12+009499999V0203601N005119999999N0000001N9+01781+99999099991ADDGF106991999999999999999999
0029029350999991924071520004+62233+025733FM-12+009499999V0209991C000019999999N0000001N9+01611+99999099981ADDGF100991999999999999999999
0029029350999991924071606004+62233+025733FM-12+009499999V0209991C000019999999N0000001N9+01441+99999100031ADDGF100991999999999999999999
0029029350999991924071613004+62233+025733FM-12+009499999V0201801N003119999999N0000001N9+02441+99999099961ADDGF101991999999999999999999
0029029350999991924071620004+62233+025733FM-12+009499999V0209991C000019999999N0000001N9+01781+99999099951ADDGF100991999999999999999999
0029029350999991924071706004+62233+025733FM-12+009499999V0209991C000019999999N0000001N9+01501+99999999999ADDGF100991999999999999999999
0029029350999991924071713004+62233+025733FM-12+009499999V0203601N001019999999N0000001N9+02561+99999099951ADDGF101991999999999999999999
0029029350999991924071720004+62233+025733FM-12+009499999V0209991C000019999999N0000001N9+02001+99999099901ADDGF105991999999999999999999
0029029350999991924071806004+62233+025733FM-12+009499999V0209991C000019999999N0000001N9+01671+99999099941ADDGF100991999999999999999999
0029029350999991924071813004+62233+025733FM-12+009499999V0203601N003119999999N0000001N9+02781+99999099921ADDGF102991999999999999999999
0029029350999991924071820004+62233+025733FM-12+009499999V0209991C000019999999N0000001N9+02061+99999099961ADDGF102991999999999999999999
0029029350999991924071906004+62233+025733FM-12+009499999V0209991C000019999999N0000001N9+01721+99999100141ADDGF100991999999999999999999
0029029350999991924071913004+62233+025733FM-12+009499999V0201401N003119999999N0000001N9+02671+99999100061ADDGF100991999999999999999999
0029029350999991924071920004+62233+025733FM-12+009499999V0209991C000019999999N0000001N9+02061+99999099981ADDGF100991999999999999999999
0029029350999991924072006004+62233+025733FM-12+009499999V0209991C000019999999N0000001N9+01831+99999100081ADDGF100991999999999999999999
0029029350999991924072013004+62233+025733FM-12+009499999V0203401N001019999999N0000001N9+02941+99999099941ADDGF104991999999999999999999
0035029350999991924072020004+62233+025733FM-12+009499999V0200201N001019999999N0000001N9+01781+99999999999ADDGF106991999999999999999999MW1601
0029029350999991924072106004+62233+025733FM-12+009499999V0209991C000019999999N0000001N9+01831+99999100271ADDGF100991999999999999999999
0029029350999991924072113004+62233+025733FM-12+009499999V0200201N007219999999N0000001N9+02561+99999100321ADDGF100991999999999999999999
0029029350999991924072120004+62233+025733FM-12+009499999V0209991C000019999999N0000001N9+02171+99999100271ADDGF100991999999999999999999
0029029350999991924072206004+62233+025733FM-12+009499999V0209991C000019999999N0000001N9+01721+99999100551ADDGF100991999999999999999999
0029029350999991924072213004+62233+025733FM-12+009499999V0201101N001019999999N0000001N9+02561+99999100431ADDGF101991999999999999999999
0029029350999991924072220004+62233+025733FM-12+009499999V0209991C000019999999N0000001N9+02001+99999100261ADDGF101991999999999999999999
0029029350999991924072306004+62233+025733FM-12+009499999V0209991C000019999999N0000001N9+01781+99999100201ADDGF102991999999999999999999
0029029350999991924072313004+62233+025733FM-12+009499999V0209991C000019999999N0000001N9+02831+99999100041ADDGF102991999999999999999999
0029029350999991924072320004+62233+025733FM-12+009499999V0201101N003119999999N0000001N9+02221+99999099861ADDGF103991999999999999999999
0029029350999991924072406004+62233+025733FM-12+009499999V0209991C000019999999N0000001N9+01721+99999099831ADDGF100991999999999999999999
0029029350999991924072413004+62233+025733FM-12+009499999V0201401N007219999999N0000001N9+02501+99999099681ADDGF100991999999999999999999
0029029350999991924072420004+62233+025733FM-12+009499999V0201101N001019999999N0000001N9+01891+99999099681ADDGF100991999999999999999999
0029029350999991924072506004+62233+025733FM-12+009499999V0201101N003119999999N0000001N9+01721+99999099781ADDGF100991999999999999999999
0029029350999991924072513004+62233+025733FM-12+009499999V0201801N003119999999N0000001N9+02561+99999099801ADDGF102991999999999999999999
0029029350999991924072520004+62233+025733FM-12+009499999V0209991C000019999999N0000001N9+01891+99999099941ADDGF100991999999999999999999
0029029350999991924072606004+62233+025733FM-12+009499999V0209991C000019999999N0000001N9+01501+99999100111ADDGF103991999999999999999999
0029029350999991924072613004+62233+025733FM-12+009499999V0201801N001019999999N0000001N9+02331+99999100111ADDGF106991999999999999999999
0029029350999991924072620004+62233+025733FM-12+009499999V0209991C000019999999N0000001N9+01891+99999100081ADDGF101991999999999999999999
0029029350999991924072706004+62233+025733FM-12+009499999V0203601N001019999999N0000001N9+01611+99999100061ADDGF100991999999999999999999
0029029350999991924072713004+62233+025733FM-12+009499999V0203601N001019999999N0000001N9+02721+99999099821ADDGF103991999999999999999999
0029029350999991924072720004+62233+025733FM-12+009499999V0209991C000019999999N0000001N9+01721+99999099791ADDGF100991999999999999999999
0029029350999991924072806004+62233+025733FM-12+009499999V0200201N007219999999N0000001N9+01391+99999099921ADDGF105991999999999999999999
0029029350999991924072813004+62233+025733FM-12+009499999V0203601N007219999999N0000001N9+01671+99999099881ADDGF108991999999999999999999
0035029350999991924072820004+62233+025733FM-12+009499999V0209991C000019999999N0000001N9+01501+99999099781ADDGF108991999999999999999999MW1621
0029029350999991924072906004+62233+025733FM-12+009499999V0201801N003119999999N0000001N9+01611+99999099791ADDGF106991999999999999999999
0035029350999991924072913004+62233+025733FM-12+009499999V0201101N001019999999N0000001N9+02001+99999099901ADDGF106991999999999999999999MW1641
0029029350999991924072920004+62233+025733FM-12+009499999V0209991C000019999999N0000001N9+01891+99999099821ADDGF100991999999999999999999
0029029350999991924073006004+62233+025733FM-12+009499999V0209991C000019999999N0000001N9+01721+99999099981ADDGF100991999999999999999999
0029029350999991924073013004+62233+025733FM-12+009499999V0201401N001019999999N0000001N9+02781+99999099961ADDGF102991999999999999999999
0029029350999991924073020004+62233+025733FM-12+009499999V0209991C000019999999N0000001N9+01891+99999100081ADDGF100991999999999999999999
0029029350999991924073106004+62233+025733FM-12+009499999V0209991C000019999999N0000001N9+01561+99999100271ADDGF100991999999999999999999
0029029350999991924073113004+62233+025733FM-12+009499999V0201801N001019999999N0000001N9+02781+99999100261ADDGF100991999999999999999999
0029029350999991924073120004+62233+025733FM-12+009499999V0209991C000019999999N0000001N9+01941+99999100301ADDGF100991999999999999999999
0029029350999991924080106004+62233+025733FM-12+009499999V0209991C000019999999N0000001N9+01721+99999100381ADDGF102991999999999999999999
0029029350999991924080113004+62233+025733FM-12+009499999V0201801N003119999999N0000001N9+02831+99999100321ADDGF102991999999999999999999
0029029350999991924080120004+62233+025733FM-12+009499999V0209991C000019999999N0000001N9+02001+99999100311ADDGF100991999999999999999999
0029029350999991924080206004+62233+025733FM-12+009499999V0209991C000019999999N0000001N9+01831+99999100381ADDGF103991999999999999999999
0029029350999991924080213004+62233+025733FM-12+009499999V0209991C000019999999N0000001N9+02721+99999100281ADDGF102991999999999999999999
0029029350999991924080220004+62233+025733FM-12+009499999V0209991C000019999999N0000001N9+02001+99999100191ADDGF102991999999999999999999
0029029350999991924080306004+62233+025733FM-12+009499999V0209991C000019999999N0000001N9+01831+99999100361ADDGF100991999999999999999999
0029029350999991924080313004+62233+025733FM-12+009499999V0202001N003119999999N0000001N9+02391+99999100271ADDGF106991999999999999999999
0029029350999991924080320004+62233+025733FM-12+009499999V0209991C000019999999N0000001N9+02061+99999100201ADDGF100991999999999999999999
0029029350999991924080406004+62233+025733FM-12+009499999V0209991C000019999999N0000001N9+01831+99999100301ADDGF105991999999999999999999
0029029350999991924080413004+62233+025733FM-12+009499999V0200901N005119999999N0000001N9+02391+99999100261ADDGF106991999999999999999999
0029029350999991924080420004+62233+025733FM-12+009499999V0209991C000019999999N0000001N9+02001+99999100301ADDGF106991999999999999999999
0029029350999991924080506004+62233+025733FM-12+009499999V0209991C000019999999N0000001N9+01941+99999100301ADDGF100991999999999999999999
0029029350999991924080513004+62233+025733FM-12+009499999V0201601N007219999999N0000001N9+02721+99999100281ADDGF101991999999999999999999
0029029350999991924080520004+62233+025733FM-12+009499999V0209991C000019999999N0000001N9+02111+99999100261ADDGF104991999999999999999999
0029029350999991924080606004+62233+025733FM-12+009499999V0200901N007219999999N0000001N9+01941+99999100081ADDGF106991999999999999999999
0029029350999991924080613004+62233+025733FM-12+009499999V0201801N008719999999N0000001N9+02331+99999099881ADDGF107991999999999999999999
0035029350999991924080620004+62233+025733FM-12+009499999V0201601N007219999999N0000001N9+01561+99999099801ADDGF108991999999999999999999MW1621
0035029350999991924080706004+62233+025733FM-12+009499999V0201801N005119999999N0000001N9+01441+99999099541ADDGF108991999999999999999999MW1621
0029029350999991924080713004+62233+025733FM-12+009499999V0201601N005119999999N0000001N9+01941+99999099581ADDGF104991999999999999999999
0029029350999991924080720004+62233+025733FM-12+009499999V0202301N003119999999N0000001N9+01391+99999099821ADDGF103991999999999999999999
0029029350999991924080806004+62233+025733FM-12+009499999V0202501N005119999999N0000001N9+01441+99999100101ADDGF100991999999999999999999
0029029350999991924080813004+62233+025733FM-12+009499999V0201401N005119999999N0000001N9+01831+99999100151ADDGF106991999999999999999999
0029029350999991924080820004+62233+025733FM-12+009499999V0209991C000019999999N0000001N9+01221+99999100271ADDGF106991999999999999999999
0029029350999991924080906004+62233+025733FM-12+009499999V0209991C000019999999N0000001N9+01331+99999100431ADDGF100991999999999999999999
0029029350999991924080913004+62233+025733FM-12+009499999V0202701N007219999999N0000001N9+02001+99999100831ADDGF105991999999999999999999
0029029350999991924080920004+62233+025733FM-12+009499999V0209991C000019999999N0000001N9+01501+99999100901ADDGF100991999999999999999999
0029029350999991924081006004+62233+025733FM-12+009499999V0203401N003119999999N0000001N9+01221+99999100981ADDGF100991999999999999999999
0029029350999991924081013004+62233+025733FM-12+009499999V0202901N001019999999N0000001N9+01891+99999101031ADDGF106991999999999999999999
0029029350999991924081020004+62233+025733FM-12+009499999V0202901N001019999999N0000001N9+01671+99999100831ADDGF104991999999999999999999
0029029350999991924081106004+62233+025733FM-12+009499999V0209991C000019999999N0000001N9+01501+99999100421ADDGF100991999999999999999999
0029029350999991924081113004+62233+025733FM-12+009499999V0201101N003119999999N0000001N9+02331+99999100281ADDGF106991999999999999999999
0029029350999991924081120004+62233+025733FM-12+009499999V0209991C000019999999N0000001N9+01721+99999100231ADDGF105991999999999999999999
0029029350999991924081206004+62233+025733FM-12+009499999V0209991C000019999999N0000001N9+01501+99999100181ADDGF106991999999999999999999
0029029350999991924081213004+62233+025733FM-12+009499999V0203201N001019999999N0000001N9+02281+99999100161ADDGF103991999999999999999999
0029029350999991924081220004+62233+025733FM-12+009499999V0209991C000019999999N0000001N9+01611+99999100241ADDGF102991999999999999999999
0029029350999991924081306004+62233+025733FM-12+009499999V0209991C000019999999N0000001N9+01501+99999100441ADDGF100991999999999999999999
0029029350999991924081313004+62233+025733FM-12+009499999V0202701N001019999999N0000001N9+02331+99999100401ADDGF102991999999999999999999
0029029350999991924081320004+62233+025733FM-12+009499999V0209991C000019999999N0000001N9+01671+99999100441ADDGF105991999999999999999999
0029029350999991924081406004+62233+025733FM-12+009499999V0209991C000019999999N0000001N9+01501+99999100521ADDGF102991999999999999999999
0029029350999991924081413004+62233+025733FM-12+009499999V0201801N007219999999N0000001N9+02501+99999100401ADDGF105991999999999999999999
0029029350999991924081420004+62233+025733FM-12+009499999V0209991C000019999999N0000001N9+01891+99999100441ADDGF100991999999999999999999
0029029350999991924081506004+62233+025733FM-12+009499999V0201801N001019999999N0000001N9+01831+99999100311ADDGF100991999999999999999999
0029029350999991924081513004+62233+025733FM-12+009499999V0201801N001019999999N0000001N9+02721+99999100241ADDGF101991999999999999999999
0029029350999991924081520004+62233+025733FM-12+009499999V0209991C000019999999N0000001N9+02001+99999100201ADDGF100991999999999999999999
0029029350999991924081606004+62233+025733FM-12+009499999V0209991C000019999999N0000001N9+01671+99999100221ADDGF100991999999999999999999
0029029350999991924081613004+62233+025733FM-12+009499999V0201401N003119999999N0000001N9+02891+99999100061ADDGF100991999999999999999999
0029029350999991924081620004+62233+025733FM-12+009499999V0209991C000019999999N0000001N9+02061+99999099961ADDGF100991999999999999999999
0029029350999991924081706004+62233+025733FM-12+009499999V0209991C000019999999N0000001N9+01721+99999100241ADDGF100991999999999999999999
0029029350999991924081713004+62233+025733FM-12+009499999V0202701N001019999999N0000001N9+02331+99999100271ADDGF103991999999999999999999
0029029350999991924081720004+62233+025733FM-12+009499999V0209991C000019999999N0000001N9+01781+99999100221ADDGF100991999999999999999999
0029029350999991924081806004+62233+025733FM-12+009499999V0209991C000019999999N0000001N9+01671+99999100191ADDGF102991999999999999999999
0029029350999991924081813004+62233+025733FM-12+009499999V0201801N001019999999N0000001N9+02831+99999099921ADDGF103991999999999999999999
0029029350999991924081820004+62233+025733FM-12+009499999V0209991C000019999999N0000001N9+01721+99999099821ADDGF100991999999999999999999
0029029350999991924081906004+62233+025733FM-12+009499999V0209991C000019999999N0000001N9+01781+99999099711ADDGF100991999999999999999999
0035029350999991924081913004+62233+025733FM-12+009499999V0209991C000019999999N0000001N9+01781+99999099761ADDGF108991999999999999999999MW1621
0029029350999991924081920004+62233+025733FM-12+009499999V0209991C000019999999N0000001N9+01831+99999099681ADDGF108991999999999999999999
0029029350999991924082006004+62233+025733FM-12+009499999V0209991C000019999999N0000001N9+01611+99999099681ADDGF105991999999999999999999
0029029350999991924082013004+62233+025733FM-12+009499999V0201401N001019999999N0000001N9+01831+99999099661ADDGF106991999999999999999999
0029029350999991924082020004+62233+025733FM-12+009499999V0209991C000019999999N0000001N9+01781+99999099421ADDGF108991999999999999999999
0029029350999991924082106004+62233+025733FM-12+009499999V0201801N007219999999N0000001N9+01671+99999098381ADDGF108991999999999999999999
0029029350999991924082113004+62233+025733FM-12+009499999V0202301N008719999999N0000001N9+01671+99999099141ADDGF106991999999999999999999
0029029350999991924082120004+62233+025733FM-12+009499999V0202501N001019999999N0000001N9+01281+99999099241ADDGF102991999999999999999999
0029029350999991924082206004+62233+025733FM-12+009499999V0209991C000019999999N0000001N9+01171+99999099241ADDGF108991999999999999999999
0029029350999991924082213004+62233+025733FM-12+009499999V0203601N003119999999N0000001N9+01611+99999099101ADDGF108991999999999999999999
0029029350999991924082220004+62233+025733FM-12+009499999V0203601N003119999999N0000001N9+01331+99999099021ADDGF106991999999999999999999
0029029350999991924082306004+62233+025733FM-12+009499999V0200901N003119999999N0000001N9+01281+99999099081ADDGF108991999999999999999999
0029029350999991924082313004+62233+025733FM-12+009499999V0202701N003119999999N0000001N9+01561+99999099351ADDGF108991999999999999999999
0035029350999991924082320004+62233+025733FM-12+009499999V0203401N005119999999N0000001N9+01221+99999099721ADDGF108991999999999999999999MW1601
0029029350999991924082406004+62233+025733FM-12+009499999V0203401N005119999999N0000001N9+01061+99999099821ADDGF108991999999999999999999
0029029350999991924082413004+62233+025733FM-12+009499999V0200201N005119999999N0000001N9+01331+99999099871ADDGF108991999999999999999999
0035029350999991924082420004+62233+025733FM-12+009499999V0209991C000019999999N0000001N9+01061+99999099841ADDGF108991999999999999999999MW1601
0035029350999991924082506004+62233+025733FM-12+009499999V0203601N003119999999N0000001N9+00781+99999099831ADDGF108991999999999999999999MW1621
0029029350999991924082513004+62233+025733FM-12+009499999V0203601N003119999999N0000001N9+01611+99999099761ADDGF100991999999999999999999
0029029350999991924082520004+62233+025733FM-12+009499999V0209991C000019999999N0000001N9+01001+99999099751ADDGF102991999999999999999999
0029029350999991924082606004+62233+025733FM-12+009499999V0209991C000019999999N0000001N9+00781+99999099781ADDGF100991999999999999999999
0035029350999991924082613004+62233+025733FM-12+009499999V0203601N003119999999N0000001N9+01171+99999099921ADDGF108991999999999999999999MW1621
0029029350999991924082620004+62233+025733FM-12+009499999V0209991C000019999999N0000001N9+00941+99999100111ADDGF101991999999999999999999
0029029350999991924082706004+62233+025733FM-12+009499999V0209991C000019999999N0000001N9+00721+99999100421ADDGF100991999999999999999999
0029029350999991924082713004+62233+025733FM-12+009499999V0209991C000019999999N0000001N9+01721+99999100431ADDGF102991999999999999999999
0029029350999991924082720004+62233+025733FM-12+009499999V0209991C000019999999N0000001N9+00831+99999100431ADDGF102991999999999999999999
0029029350999991924082806004+62233+025733FM-12+009499999V0209991C000019999999N0000001N9+01061+99999100591ADDGF108991999999999999999999
0029029350999991924082813004+62233+025733FM-12+009499999V0201801N001019999999N0000001N9+01501+99999100641ADDGF105991999999999999999999
0029029350999991924082820004+62233+025733FM-12+009499999V0209991C000019999999N0000001N9+01111+99999100601ADDGF106991999999999999999999
0029029350999991924082906004+62233+025733FM-12+009499999V0209991C000019999999N0000001N9+01111+99999100701ADDGF108991999999999999999999
0029029350999991924082913004+62233+025733FM-12+009499999V0201601N001019999999N0000001N9+01831+99999100711ADDGF102991999999999999999999
0029029350999991924082920004+62233+025733FM-12+009499999V0209991C000019999999N0000001N9+01001+99999100751ADDGF100991999999999999999999
0029029350999991924083006004+62233+025733FM-12+009499999V0209991C000019999999N0000001N9+01001+99999100901ADDGF107991999999999999999999
0029029350999991924083013004+62233+025733FM-12+009499999V0202001N001019999999N0000001N9+01781+99999100871ADDGF103991999999999999999999
0029029350999991924083020004+62233+025733FM-12+009499999V0209991C000019999999N0000001N9+01111+99999100871ADDGF100991999999999999999999
0029029350999991924083106004+62233+025733FM-12+009499999V0209991C000019999999N0000001N9+01061+99999100801ADDGF100991999999999999999999
0029029350999991924083113004+62233+025733FM-12+009499999V0201601N001019999999N0000001N9+01501+99999100751ADDGF106991999999999999999999
0035029350999991924083120004+62233+025733FM-12+009499999V0201601N001019999999N0000001N9+01171+99999100631ADDGF108991999999999999999999MW1641
0029029350999991924090106004+62233+025733FM-12+009499999V0209991C000019999999N0000001N9+01061+99999100601ADDGF102991999999999999999999
0029029350999991924090113004+62233+025733FM-12+009499999V0201601N003119999999N0000001N9+01831+99999100601ADDGF104991999999999999999999
