0088034970999991927010106004+52583+001717FM-12+000299999V0202501N004619999999N0100001N9+00391+99999102301ADDAY101999GF108991999061004501001001EQDQ01+000042SCOTLCQ02+000032APCTENQ03+000002APC3  
0088034970999991927010406004+52583+001717FM-12+000299999V0202501N00461220001CN0500001N9+99999+99999100711ADDAY171999GF102991999001999999021001EQDQ01+000002SCOTLCQ02+000032APCTENQ03+000002APC3  
0088034970999991927010506004+52583+001717FM-12+000299999V0202501N00461220001CN0040001N9+00001+99999102101ADDAY101999GF108991999001999999021001EQDQ01+000002SCOTLCQ02+000032APCTENQ03+000002APC3  
0062034970999991927010606004+52583+001717FM-12+000299999V0202001N00261012301CN0040001N9+00391+99999101361ADDAA199000391AY111999GF107991071051012501001001MD1810061+9999
0070034970999991927010706004+52583+001717FM-12+000299999V0202501N00261220001CN0100001N9+00281+99999100531ADDAY101999GF104991999001999999021001MD1810201+9999EQDQ01+000002SCOTLC
0081034970999991927010806004+52583+001717FM-12+000299999V0202901N00101220001CN0020001N9+00281+99999102131ADDAA199001091AY101999GF101991999001999999021001MD1310401+9999EQDQ01+000002SCOTLC
0070034970999991927010906004+52583+001717FM-12+000299999V0202901N00461220001CN0100001N9+00721+99999102341ADDAY101999GF102991999001999999031001MD1310201+9999EQDQ01+000002SCOTLC
0072034970999991927011006004+52583+001717FM-12+000299999V0202901N00671220001CN0200001N9+00891+99999102631ADDAY101999GF104991021051017501021001EQDQ01+000032APCTENQ02+000002APC3  
0070034970999991927011106004+52583+001717FM-12+000299999V0202501N00261220001CN0100001N9+00281+99999102731ADDAY101999GF104991999001999999031001MD1990141+9999EQDQ01+000002SCOTLC
0083034970999991927011206004+52583+001717FM-12+000299999V0202701N00461220001CN0100001N9+00611+99999101891ADDAA199000391AY161999GF102991021051017501001021EQDQ01+000032APCTENQ02+000002APC3  
0070034970999991927011306004+52583+001717FM-12+000299999V0202301N00461220001CN0100001N9+00391+99999099171ADDAY161999GF104991999001999999021001MD1810201+9999EQDQ01+000002SCOTLC
0070034970999991927011406004+52583+001717FM-12+000299999V0202701N00261220001CN0100001N9+00221+99999098561ADDAY161999GF108991999001999999021001MD1610141+9999EQDQ01+000002SCOTLC
0057034970999991927011506004+52583+001717FM-12+000299999V0202001N00461012301CN0040001N9+00281+99999098831ADDAY161999GF108991081061012501999999MD1310141+9999MW1511
0070034970999991927011606004+52583+001717FM-12+000299999V0202501N00261220001CN0040001N9+00111+99999099701ADDAY101999GF102991999001999999021001MD1310061+9999EQDQ01+000002SCOTLC
0062034970999991927011706004+52583+001717FM-12+000299999V0209991C00001015001CN0010001N9+00221+99999099831ADDAA199000391AY111999GF107991071051017501001001MD1990061+9999
0062034970999991927011806004+52583+001717FM-12+000299999V0200501N00461220001CN0100001N9+00391+99999100341ADDAA199003091AY161999GF104991041011017501001001MD1310201+9999
0068034970999991927011906004+52583+001717FM-12+000299999V0202701N00461007801CN0100001N9+00221+99999101261ADDAA199001091AY181999GF108991081061008001999999MD1310061+9999MW1601
0083034970999991927012006004+52583+001717FM-12+000299999V0202701N00461004501CN0040001N9+00111+99999101321ADDAA199001091AY121999GF108991081051004501999999EQDQ01+000032APCTENQ02+000002APC3  
0070034970999991927012106004+52583+001717FM-12+000299999V0201801N00461220001CN0100001N9+00221+99999100531ADDAY111999GF108991999001999999021001MD1810201+9999EQDQ01+000002SCOTLC
0088034970999991927012206004+52583+001717FM-12+000299999V0202701N00261220001CN0040001N9-00111+99999100341ADDAY101999GF102991999001999999021001EQDQ01+000002SCOTLCQ02+000032APCTENQ03+000002APC3  
0072034970999991927012306004+52583+001717FM-12+000299999V0202701N00261015001CN0200001N9+00221+99999100421ADDAY111999GF108991081051017501999999EQDQ01+000032APCTENQ02+000002APC3  
0051034970999991927012406004+52583+001717FM-12+000299999V0201801N00261220001CN0040001N9+00221+99999101501ADDAY101999GF102991021051017501001001MD1310141+9999
0070034970999991927012506004+52583+001717FM-12+000299999V0201801N012319999999N0100001N9+00721+99999101261ADDAY111999GF108991999061008001001001MD1810061+9999EQDQ01+000042SCOTLC
0068034970999991927012606004+52583+001717FM-12+000299999V0201601N00671004501CN0002001N9+00611+99999101811ADDAA199000691AY141999GF108991081051004501999999MD1810141+9999MW1451
0051034970999991927012706004+52583+001717FM-12+000299999V0202001N00931220001CN0100001N9+00611+99999101411ADDAY101999GF102991021011012501001001MD1810141+9999
0062034970999991927012806004+52583+001717FM-12+000299999V0202001N01231220001CN0100001N9+00721+99999101581ADDAA199001091AY111999GF104991041061008001031001MD1810261+9999
0087034970999991927012906004+52583+001717FM-12+000299999V0202301N00931004501CN0040001N9+00721+99999098961ADDAA199002091AY161999GF108991081061004501999999MD1610662+9999MW1631EQDQ01+000662APC3  
0072034970999991927013006004+52583+001717FM-12+000299999V0202001N00671220001CN0100001N9+00221+99999099761ADDAY101999GF102991011011017501031001EQDQ01+000032APCTENQ02+000002APC3  
0083034970999991927013106004+52583+001717FM-12+000299999V0202301N00461220001CN0200001N9+00281+99999099281ADDAA199000691AY101999GF104991001001999999021091EQDQ01+000032APCTENQ02+000002APC3  
0051034970999991927020106004+52583+001717FM-12+000299999V0202501N00461220001CN0002001N9+00001+99999099971ADDAY101999GF102991021011017501001001MD1310141+9999
0051034970999991927020206004+52583+001717FM-12+000299999V0200201N00671220001CN0100001N9+00391+99999100991ADDAY111999GF104991041051017501031001MD1310201+9999
0088034970999991927020306004+52583+001717FM-12+000299999V0202301N006719999999N0040001N9+00281+99999102591ADDAY111999GF108991999051008001001001EQDQ01+000042SCOTLCQ02+000032APCTENQ03+000002APC3  
0051034970999991927020506004+52583+001717FM-12+000299999V0202501N00261220001CN0040001N9+00001+99999103031ADDAY101999GF102991001001999999001021MD1810061+9999
0057034970999991927020606004+52583+001717FM-12+000299999V0203401N01231007801CN0020001N9+00391+99999102231ADDAY161999GF108991081061008001999999MD1310141+9999MW1631
0089034970999991927020706004+52583+001717FM-12+000299999V0203201N00101004501CN0010001N9+00391+99999103271ADDAA199000691AY141999GF108991081051004501999999MW1101EQDQ01+000032APCTENQ02+000002APC3  
0083034970999991927020806004+52583+001717FM-12+000299999V0200901N00931220001CN0100001N9+00221+99999103491ADDAA199000691AY101999GF104991041011017501001001EQDQ01+000032APCTENQ02+000002APC3  
0088034970999991927020906004+52583+001717FM-12+000299999V0200901N01231012301CN0100001N9+00221+99999103331ADDAY111999GF108991999061012501001001EQDQ01+000062SCOTLCQ02+000032APCTENQ03+000002APC3  
0072034970999991927021006004+52583+001717FM-12+000299999V0203201N00261030001CN0040001N9-00111+99999103531ADDAY101999GF108991041011012501021001EQDQ01+000012APCTENQ02+000002APC3  
0051034970999991927021106004+52583+001717FM-12+000299999V0200701N00101220001CN0020001N9+00221+99999103231ADDAY101999GF104991041051004501001001MD1810061+9999
0062034970999991927021206004+52583+001717FM-12+000299999V0200701N00261004501CN0010001N9+00111+99999102991ADDAA199000691AY141999GF108991081051004501999999MD1810061+9999
0057034970999991927021306004+52583+001717FM-12+000299999V0209991C00001000151CN0000001N9-00221+99999102871ADDAY141999GF108991081051000251999999MD1310061+9999MW1451
0083034970999991927021406004+52583+001717FM-12+000299999V0202501N00461220001CN0040001N9+00111+99999103231ADDAA199000691AY111999GF104991001001999999001091EQDQ01+000032APCTENQ02+000002APC3  
0094034970999991927021506004+52583+001717FM-12+000299999V0202701N00261007801CN0010001N9+00281+99999103391ADDAY141999GF108991999051008001001001MW1101EQDQ01+000062SCOTLCQ02+000032APCTENQ03+000002APC3  
0057034970999991927021606004+52583+001717FM-12+000299999V0202301N00101001501CN0002001N9+00391+99999103041ADDAY141999GF108991081051001501999999MD1810141+9999MW1451
0057034970999991927021706004+52583+001717FM-12+000299999V0202901N00101002401CN0005001N9+00781+99999102591ADDAY141999GF108991081051002501999999MD1810141+9999MW1451
0070034970999991927021806004+52583+001717FM-12+000299999V0202901N004619999999N0020001N9+00501+99999102271ADDAY111999GF107991999051008001001001MD1810141+9999EQDQ01+000042SCOTLC
0081034970999991927021906004+52583+001717FM-12+000299999V0203201N002619999999N0040001N9+00111+99999102571ADDAA199004091AY161999GF106991999011017501001001MD1310141+9999EQDQ01+000022SCOTLC
0057034970999991927022006004+52583+001717FM-12+000299999V0202001N00671007801CN0040001N9+00281+99999101671ADDAY161999GF108991081061008001999999MD1810341+9999MW1611
0068034970999991927022106004+52583+001717FM-12+000299999V0202501N00261001501CN0002001N9+00391+99999100471ADDAA199000591AY161999GF108991081051001501999999MD1810141+9999MW1451
0062034970999991927022206004+52583+001717FM-12+000299999V0201801N00931007801CN0040001N9+00721+99999099711ADDAA199002091AY161999GF108991081061008001999999MD1610141+9999
0051034970999991927022306004+52583+001717FM-12+000299999V0201801N00671030001CN0040001N9+00611+99999099171ADDAY111999GF106991041051012501031001MD1310061+9999
0068034970999991927022406004+52583+001717FM-12+000299999V0201601N01541007801CN0040001N9+00501+99999099431ADDAA199001091AY161999GF108991081061008001999999MD1810261+9999MW1631
0062034970999991927022506004+52583+001717FM-12+000299999V0202001N00461220001CN0020001N9+00221+99999099941ADDAA199001091AY101999GF102991001001999999001091MD1310141+9999
0062034970999991927022606004+52583+001717FM-12+000299999V0202001N00461220001CN0040001N9+00501+99999100071ADDAA199002091AY111999GF104991041051017501031001MD1310341+9999
0051034970999991927022706004+52583+001717FM-12+000299999V0202001N00671220001CN0100001N9+00721+99999099231ADDAY101999GF104991021051017501001091MD1810061+9999
0073034970999991927022806004+52583+001717FM-12+000299999V0201601N00671007801CN0040001N9+00611+99999100161ADDAA199002091AY161999GF108991081061008001999999MW1631EQDQ01+000002APC3  
0072034970999991927060406004+52583+001717FM-12+000299999V0203201N00261220001CN0040001N9+01001+99999101731ADDAY101999GF104991041011008001001001EQDQ01+000032APCTENQ02+000002APC3  
0070034970999991927060606004+52583+001717FM-12+000299999V0203201N00671004501CN0100001N9+00891+99999100481ADDAY161999GF107991999061004501001001MD1310341+9999EQDQ01+000062SCOTLC
0051034970999991927060806004+52583+001717FM-12+000299999V0202901N00461220001CN0040001N9+00891+99999100921ADDAY161999GF104991041061008001001001MD1310201+9999
0088034970999991927060906004+52583+001717FM-12+000299999V0202701N004619999999N0100001N9+01001+99999101711ADDAY111999GF107991999061012501001001EQDQ01+000022SCOTLCQ02+000032APCTENQ03+000002APC3  
0051034970999991927061006004+52583+001717FM-12+000299999V0203401N00261220001CN0040001N9+00891+99999101631ADDAY101999GF104991021051004501031001MD1810061+9999
0072034970999991927061806004+52583+001717FM-12+000299999V0202501N00461220001CN0100001N9+01281+99999100921ADDAY101999GF104991001001999999001021EQDQ01+000032APCTENQ02+000002APC3  
0057034970999991927061906004+52583+001717FM-12+000299999V0202701N00931004501CN0100001N9+01281+99999099531ADDAY161999GF108991081061004501999999MD1990341+9999MW1601
0051034970999991927062006004+52583+001717FM-12+000299999V0202701N00671220001CN0100001N9+01221+99999101511ADDAY101999GF104991021011012501001021MD1310261+9999
0051034970999991927062206004+52583+001717FM-12+000299999V0202701N00671220001CN0100001N9+01111+99999101941ADDAY101999GF102991021011008001001001MD1310141+9999
0062034970999991927062506004+52583+001717FM-12+000299999V0202901N00461220001CN0040001N9+01111+99999101201ADDAA199001091AY101999GF104991041011012501001001MD1310141+9999
0072034970999991927070306004+52583+001717FM-12+000299999V0202501N00261220001CN0040001N9+01281+99999100751ADDAY101999GF104991021051002501031001EQDQ01+000032APCTENQ02+000002APC3  
0068034970999991927070706004+52583+001717FM-12+000299999V0202701N00671007801CN0040001N9+01501+99999100021ADDAA199013091AY161999GF108991081061008001999999MD1810461+9999MW1601
0051034970999991927071006004+52583+001717FM-12+000299999V0203401N00671220001CN0040001N9+01721+99999101001ADDAY101999GF102991001001999999001021MD1210341+9999
0057034970999991927071106004+52583+001717FM-12+000299999V0203201N00261001501CN0002001N9+01391+99999101531ADDAY141999GF108991081051001501999999MD1310141+9999MW1451
0057034970999991927071706004+52583+001717FM-12+000299999V0202901N00261002401CN0040001N9+01221+99999101701ADDAY161999GF108991081061002501999999MD1810141+9999MW1511
0081034970999991927071806004+52583+001717FM-12+000299999V0203201N006719999999N0040001N9+01281+99999101771ADDAA199001091AY161999GF107991999061012501001001MD1310141+9999EQDQ01+000022SCOTLC
0072034970999991927071906004+52583+001717FM-12+000299999V0203401N00261015001CN0100001N9+01221+99999102311ADDAY111999GF108991081051017501999999EQDQ01+000032APCTENQ02+000002APC3  
0062034970999991927072106004+52583+001717FM-12+000299999V0202001N00261012301CN0040001N9+01611+99999101501ADDAA199002091AY141999GF107991071051012501001001MD1810141+9999
0070034970999991927072406004+52583+001717FM-12+000299999V0202501N00461220001CN0020001N9+01281+99999101431ADDAY101999GF104991999001999999031001MD1310141+9999EQDQ01+000002SCOTLC
0062034970999991927072506004+52583+001717FM-12+000299999V0202701N00261220001CN0040001N9+01281+99999101721ADDAA199000691AY101999GF104991001001999999001021MD1310141+9999
0099034970999991927072806004+52583+001717FM-12+000299999V0202001N006719999999N0040001N9+01391+99999100031ADDAA199000691AY101999GF108991999061008001001001EQDQ01+000042SCOTLCQ02+000032APCTENQ03+000002APC3  
0037034970999991927072906004+52583+001717FM-12+000299999V0202301N002619999999N0100001N9+01281+99999100961ADDAY101999GF106991999999999999999999
0051034970999991927073106004+52583+001717FM-12+000299999V0202001N00461012301CN0040001N9+01391+99999101531ADDAY101999GF106991061051012501001001MD1310141+9999
0062034970999991927080106004+52583+001717FM-12+000299999V0202701N00261030001CN0040001N9+01611+99999101391ADDAA199000591AY161999GF107991041051017501031001MD1810141+9999
0062034970999991927080206004+52583+001717FM-12+000299999V0202701N00261220001CN0040001N9+01391+99999101701ADDAA199015091AY101999GF101991001001999999001091MD1310261+9999
0072034970999991927081106004+52583+001717FM-12+000299999V0202001N00671220001CN0100001N9+01391+99999100961ADDAY101999GF102991999999004501999999EQDQ01+000032APCTENQ02+000002APC3  
0051034970999991927081306004+52583+001717FM-12+000299999V0202701N00461012301CN0040001N9+01501+99999100841ADDAY111999GF108991081051012501999999MD1310141+9999
0051034970999991927081406004+52583+001717FM-12+000299999V0202301N00461012301CN0100001N9+01611+99999100601ADDAY111999GF106991061051012501001001MD1810061+9999
0088034970999991927081506004+52583+001717FM-12+000299999V0202301N004619999999N0040001N9+01501+99999100021ADDAY111999GF108991999061012501001001EQDQ01+000022SCOTLCQ02+000032APCTENQ03+000002APC3  
0051034970999991927081706004+52583+001717FM-12+000299999V0202501N00261220001CN0100001N9+01111+99999101031ADDAY101999GF101991001001999999001021MD1310061+9999
0088034970999991927081906004+52583+001717FM-12+000299999V0203201N002619999999N0040001N9+01221+99999100081ADDAY111999GF106991999051004501001001EQDQ01+000022SCOTLCQ02+000032APCTENQ03+000002APC3  
0072034970999991927082006004+52583+001717FM-12+000299999V0202001N00261015001CN0100001N9+01111+99999101141ADDAY101999GF107991071051017501001001EQDQ01+000032APCTENQ02+000002APC3  
0051034970999991927082306004+52583+001717FM-12+000299999V0202501N00461220001CN0100001N9+01391+99999100311ADDAY101999GF104991021011012501031001MD1310141+9999
0072034970999991927082406004+52583+001717FM-12+000299999V0202701N00261015001CN0040001N9+01281+99999101101ADDAY101999GF106991061011017501001001EQDQ01+000032APCTENQ02+000002APC3  
0070034970999991927082506004+52583+001717FM-12+000299999V0202701N002619999999N0020001N9+01001+99999101331ADDAY111999GF107991999051002501001001MD1310141+9999EQDQ01+000042SCOTLC
0051034970999991927082606004+52583+001717FM-12+000299999V0202701N00461220001CN0020001N9+01001+99999102061ADDAY101999GF100991001001999999001001MD1810061+9999
0072034970999991927082806004+52583+001717FM-12+000299999V0202001N00671030001CN0040001N9+01391+99999101751ADDAY111999GF106991021051017501031001EQDQ01+000032APCTENQ02+000002APC3  
0057034970999991927090106004+52583+001717FM-12+000299999V0202301N00101000601CN0000501N9+01611+99999101941ADDAY141999GF108991081051000751999999MD1810061+9999MW1451
0051034970999991927090206004+52583+001717FM-12+000299999V0202901N00101220001CN0040001N9+01391+99999102171ADDAY101999GF104991021051004501001021MD1310141+9999
0072034970999991927090306004+52583+001717FM-12+000299999V0200501N00461012301CN0040001N9+01611+99999102441ADDAY101999GF108991081051012501999999EQDQ01+000032APCTENQ02+000002APC3  
0070034970999991927090406004+52583+001717FM-12+000299999V0200501N006719999999N0040001N9+01611+99999101901ADDAY111999GF108991999061008001001001MD1810141+9999EQDQ01+000022SCOTLC
0062034970999991927090506004+52583+001717FM-12+000299999V0200701N00261012301CN0040001N9+01721+99999101301ADDAY111999GF108991999061012501001001MW1601EQDQ01+000072SCOTLC
0072034970999991927090606004+52583+001717FM-12+000299999V0209991C00001220001CN0020001N9+01721+99999101271ADDAY161999GF104991041061008001001001EQDQ01+000082APCTENQ02+000002APC3  
0088034970999991927090706004+52583+001717FM-12+000299999V0202301N00671220001CN0040001N9+01501+99999101241ADDAY111999GF104991041011999999001001EQDQ01+000992SCOLCBQ02+000032APCTENQ03+000002APC3  
0078034970999991927090806004+52583+001717FM-12+000299999V0202501N00461220001CN0040001N9+00781+99999101861ADDAY101999GF101991001001999999001021MW1161EQDQ01+000032APCTENQ02+000002APC3  
0051034970999991927090906004+52583+001717FM-12+000299999V0202501N00671030001CN0040001N9+01611+99999100481ADDAY161999GF107991041011012501031001MD1810061+9999
0037034970999991927091006004+52583+001717FM-12+000299999V0202501N001019999999N0100001N9+01001+99999100671ADDAY101999GF106991999999012501999999
0081034970999991927091206004+52583+001717FM-12+000299999V0202901N00671220001CN0100001N9+01111+99999101221ADDAA199008091AY181999GF104991999091002501001001MD1310201+9999EQDQ01+000022SCOTLC
0088034970999991927091306004+52583+001717FM-12+000299999V0202501N002619999999N0040001N9+01001+99999101581ADDAY111999GF108991999061008001001001EQDQ01+000022SCOTLCQ02+000032APCTENQ03+000002APC3  
0078034970999991927091406004+52583+001717FM-12+000299999V0200201N00671004501CN0040001N9+01221+99999100701ADDAY161999GF108991081061004501999999MW1631EQDQ01+000062APCTENQ02+000002APC3  
0068034970999991927091506004+52583+001717FM-12+000299999V0201101N01541002401CN0100001N9+01391+99999100551ADDAA199035091AY161999GF108991081061002501999999MD1810261+9999MW1631
0068034970999991927091706004+52583+001717FM-12+000299999V0202001N00461007801CN0040001N9+01001+99999099901ADDAA199000591AY161999GF108991081061008001999999MD1810061+9999MW1611
0057034970999991927091806004+52583+001717FM-12+000299999V0202501N00671030001CN0100001N9+99999+99999100071ADDAY161999GF106991041061008001031001MD1810141+9999MW1601
0051034970999991927092006004+52583+001717FM-12+000299999V0202501N00261012301CN0040001N9+01221+99999100881ADDAY101999GF107991071051012501001001MD1310261+9999
0062034970999991927092106004+52583+001717FM-12+000299999V0202001N00671002401CN0100001N9+01611+99999100311ADDAA199000591AY111999GF107991061061002501001091MD1810141+9999
0068034970999991927092206004+52583+001717FM-12+000299999V0201801N00261004501CN0040001N9+01501+99999099631ADDAA199002091AY161999GF108991081061004501999999MD1810201+9999MW1631
0051034970999991927092306004+52583+001717FM-12+000299999V0202301N00671220001CN0040001N9+01001+99999099101ADDAY101999GF102991021011017501001001MD1410001+9999
0062034970999991927092406004+52583+001717FM-12+000299999V0202501N00931030001CN0100001N9+00781+99999097981ADDAA199011091AY161999GF106991021061008001021001MD1310341+9999
0051034970999991927092506004+52583+001717FM-12+000299999V0202301N00461220001CN0100001N9+00721+99999098921ADDAY101999GF104991001001999999031091MD1310141+9999
0081034970999991927092606004+52583+001717FM-12+000299999V0202501N00461220001CN0040001N9+00721+99999099891ADDAA199000691AY101999GF101991999001999999031001MD1310261+9999EQDQ01+000002SCOTLC
0081034970999991927092706004+52583+001717FM-12+000299999V0202301N00461220001CN0100001N9+00501+99999100961ADDAA199000691AY101999GF101991999001999999031001MD1310201+9999EQDQ01+000002SCOTLC
0062034970999991927092806004+52583+001717FM-12+000299999V0202501N00261220001CN0040001N9+00391+99999102431ADDAA199000691AY101999GF104991021051002501031001MD1310061+9999
0051034970999991927092906004+52583+001717FM-12+000299999V0201801N00931075001CN0040001N9+01221+99999101321ADDAY111999GF107991041011008001001081MD1810401+9999
0062034970999991927093006004+52583+001717FM-12+000299999V0202501N00461220001CN0040001N9+00721+99999101221ADDAA199000391AY101999GF100991001001999999001001MD1310201+9999
0051034970999991927100106004+52583+001717FM-12+000299999V0202001N00461007801CN0100001N9+01001+99999101311ADDAY111999GF107991061061008001021001MD1810061+9999
0051034970999991927100206004+52583+001717FM-12+000299999V0202301N019019999999N0100001N9+01391+99999100831ADDAY161999GF108991999999999999021001MD1810261+9999
0051034970999991927100306004+52583+001717FM-12+000299999V0202701N00261220001CN0040001N9+00611+99999102191ADDAY101999GF102991021011012501001001MD1310401+9999
0072034970999991927100406004+52583+001717FM-12+000299999V0202701N00261220001CN0040001N9+00391+99999102831ADDAY101999GF104991041051004501001021EQDQ01+000032APCTENQ02+000002APC3  
0072034970999991927100506004+52583+001717FM-12+000299999V0202901N00261220001CN0040001N9+00391+99999103031ADDAY101999GF104991041011017501001001EQDQ01+000032APCTENQ02+000002APC3  
0051034970999991927100606004+52583+001717FM-12+000299999V0202701N00261220001CN0040001N9+00391+99999103101ADDAY101999GF100991001001999999001001MD1810061+9999
0057034970999991927100706004+52583+001717FM-12+000299999V0203201N00101030001CN0005001N9+01001+99999102801ADDAY141999GF108991041051004501031001MD1810061+9999MW1451
0083034970999991927100806004+52583+001717FM-12+000299999V0200201N00461004501CN0040001N9+01221+99999102961ADDAA199000691AY141999GF108991081051004501999999EQDQ01+000032APCTENQ02+000002APC3  
0072034970999991927100906004+52583+001717FM-12+000299999V0201101N00671220001CN0040001N9+01221+99999103321ADDAY101999GF100991001001999999001001EQDQ01+000032APCTENQ02+000002APC3  
0051034970999991927101006004+52583+001717FM-12+000299999V0201601N00261220001CN0040001N9+00891+99999103061ADDAY101999GF100991001001999999001001MD1810061+9999
0083034970999991927101106004+52583+001717FM-12+000299999V0200201N00461220001CN0040001N9+00891+99999102871ADDAA199000691AY111999GF104991041011017501001001EQDQ01+000032APCTENQ02+000002APC3  
0072034970999991927101206004+52583+001717FM-12+000299999V0200201N00461012301CN0040001N9+01111+99999102961ADDAY111999GF108991081051012501999999EQDQ01+000032APCTENQ02+000002APC3  
0062034970999991927101306004+52583+001717FM-12+000299999V0202901N00261002401CN0040001N9+00781+99999102331ADDAA199000391AY161999GF108991081061002501999999MD1810201+9999
0062034970999991927101406004+52583+001717FM-12+000299999V0202901N00261004501CN0040001N9+00891+99999101361ADDAA199001091AY101999GF108991081061004501999999MD1610061+9999
0081034970999991927101506004+52583+001717FM-12+000299999V0200701N006719999999N0040001N9+01221+99999101711ADDAA199001091AY181999GF106991999051004501001001MD1310061+9999EQDQ01+000042SCOTLC
0081034970999991927101706004+52583+001717FM-12+000299999V0202701N002619999999N0040001N9-00221+99999100501ADDAA199000391AY111999GF108991999061004501001001MD1610141+9999EQDQ01+000022SCOTLC
0051034970999991927101806004+52583+001717FM-12+000299999V0202501N00261220001CN0040001N9+00501+99999100971ADDAY101999GF102991001001999999001091MD1310141+9999
0070034970999991927101906004+52583+001717FM-12+000299999V0202301N004619999999N0100001N9+00781+99999100791ADDAY111999GF108991999061008001001001MD1810141+9999EQDQ01+000042SCOTLC
0051034970999991927102006004+52583+001717FM-12+000299999V0202501N00461220001CN0040001N9+00391+99999101441ADDAY101999GF104991001001999999001091MD1310141+9999
0088034970999991927102106004+52583+001717FM-12+000299999V0202701N00261220001CN0020001N9+00281+99999101971ADDAY101999GF102991999001999999031001EQDQ01+000002SCOTLCQ02+000082APCTENQ03+000002APC3  
0068034970999991927102206004+52583+001717FM-12+000299999V0201601N00931004501CN0040001N9+01111+99999100431ADDAA199005091AY161999GF108991081061004501999999MD1810401+9999MW1611
0088034970999991927102306004+52583+001717FM-12+000299999V0202001N002619999999N0040001N9+00721+99999098801ADDAY111999GF108991999061008001001001EQDQ01+000022SCOTLCQ02+000042APCTENQ03+000062APC3  
0062034970999991927102406004+52583+001717FM-12+000299999V0202701N00461007801CN0040001N9+00611+99999101181ADDAA199000391AY111999GF106991061011008001001001MD1310201+9999
0062034970999991927102506004+52583+001717FM-12+000299999V0202001N00671030001CN0040001N9+01281+99999100921ADDAA199001091AY161999GF106991041061008001021001MD1810141+9999
0062034970999991927102706004+52583+001717FM-12+000299999V0202001N00671012301CN0040001N9+01611+99999100671ADDAA199000691AY111999GF107991071051012501001001MD1810141+9999
0051034970999991927102806004+52583+001717FM-12+000299999V0201801N00461030001CN0200001N9+01001+99999101181ADDAY111999GF107991041051017501021001MD1810201+9999
0070034970999991927102906004+52583+001717FM-12+000299999V0202501N00931220001CN0100001N9+01111+99999100881ADDAY101999GF100991001001999999001001MD1310542+9999EQDQ01+000542APC3  
0087034970999991927103006004+52583+001717FM-12+000299999V0201601N009319999999N0040001N9+01221+99999101491ADDAA199002091AY161999GF107991999061012501001001MD1810201+9999MW1211EQDQ01+000042SCOTLC
0089034970999991927103106004+52583+001717FM-12+000299999V0202001N00461007801CN0040001N9+01391+99999100871ADDAA199002091AY161999GF108991081061008001999999MW1611EQDQ01+000032APCTENQ02+000002APC3  
0062034970999991927110106004+52583+001717FM-12+000299999V0202001N00461220001CN0040001N9-01501+99999102521ADDAA199000591AY101999GF104991001001999999001091MD1310261+9999
0062034970999991927110206004+52583+001717FM-12+000299999V0202301N00461007801CN0040001N9+01502+99999101791ADDAA199009091AY161999GF108991081061008001999999MD1410001+9999
0062034970999991927110306004+52583+001717FM-12+000299999V0202301N00671030001CN0040001N9+01391+99999102191ADDAA199000391AY161999GF108991041061008001021001MD1810061+9999
0081034970999991927110506004+52583+001717FM-12+000299999V0202501N00261220001CN0040001N9+00501+99999101431ADDAA199000691AY101999GF106991999001999999031001MD1810201+9999EQDQ01+000002SCOTLC
0062034970999991927110606004+52583+001717FM-12+000299999V0202001N00461030001CN0100001N9+00611+99999099111ADDAA199001091AY111999GF108991041061008001021001MD1610261+9999
0081034970999991927110706004+52583+001717FM-12+000299999V0203601N00671002401CN0100001N9-01501+99999098671ADDAA199020091AY161999GF108991081061002501999999MD1310061+9999EQDQ01+000212PRSWM1
0068034970999991927110806004+52583+001717FM-12+000299999V0202701N00461002401CN0005001N9+00111+99999100201ADDAA199000691AY141999GF108991081051002501999999MD1310201+9999MW1451
0051034970999991927110906004+52583+001717FM-12+000299999V0200501N00671030001CN0100001N9+00611+99999100021ADDAY111999GF107991041011008001031001MD1810061+9999
0089034970999991927111006004+52583+001717FM-12+000299999V0202501N00461220001CN0040001N9+00111+99999099501ADDAA199000391AY171999GF104991041091008001001001MW1701EQDQ01+000032APCTENQ02+000002APC3  
0089034970999991927111106004+52583+001717FM-12+000299999V0202901N00671002401CN0040001N9+00221+99999099901ADDAA199009091AY181999GF108991081061002501999999MW1771EQDQ01+000032APCTENQ02+000002APC3  
0081034970999991927111206004+52583+001717FM-12+000299999V0200201N009319999999N0100001N9+00611+99999100831ADDAA199010091AY181999GF106991999061002501001001MD1310201+9999EQDQ01+000022SCOTLC
0083034970999991927111306004+52583+001717FM-12+000299999V0203201N00261220001CN0100001N9+00281+99999102391ADDAA199011091AY161999GF104991999091001501001001EQDQ01+000022SCOTLCQ02+000002APC3  
0081034970999991927111406004+52583+001717FM-12+000299999V0202701N004619999999N0040001N9+00001+99999101971ADDAA199001091AY161999GF107991999061004501001001MD1610061+9999EQDQ01+000042SCOTLC
0062034970999991927111506004+52583+001717FM-12+000299999V0202501N00261004501CN0040001N9+00611+99999101871ADDAA199001091AY161999GF108991081061004501999999MD1810141+9999
0089034970999991927111606004+52583+001717FM-12+000299999V0202301N00261004501CN0040001N9+00611+99999102021ADDAA199000391AY161999GF108991081061004501999999MW1211EQDQ01+000032APCTENQ02+000002APC3  
0062034970999991927111706004+52583+001717FM-12+000299999V0202301N00261220001CN0040001N9+00391+99999102121ADDAA199000691AY111999GF104991021051012501031001MD1810061+9999
0070034970999991927111806004+52583+001717FM-12+000299999V0201101N012319999999N0040001N9+00781+99999101201ADDAY111999GF108991999061004501001001MD1810261+9999EQDQ01+000042SCOTLC
0051034970999991927111906004+52583+001717FM-12+000299999V0200901N01541030001CN0040001N9+00611+99999100661ADDAY111999GF108991041061002501021001MD1810141+9999
0089034970999991927112106004+52583+001717FM-12+000299999V0200901N01541001501CN0040001N9+00501+99999100331ADDAA199011091AY161999GF108991081061001501999999MW1631EQDQ01+000032APCTENQ02+000002APC3  
0062034970999991927112206004+52583+001717FM-12+000299999V0201401N00671007801CN0040001N9+00781+99999101301ADDAA199004091AY121999GF108991081061008001999999MD1310141+9999
0051034970999991927112306004+52583+001717FM-12+000299999V0200201N00461012301CN0100001N9+00281+99999101231ADDAY111999GF108991081051012501999999MD1810061+9999
0068034970999991927112406004+52583+001717FM-12+000299999V0202001N00931002401CN0040001N9+00781+99999100871ADDAA199002091AY161999GF108991081061002501999999MD1810141+9999MW1611
0070034970999991927112506004+52583+001717FM-12+000299999V0202501N00461220001CN0040001N9+00391+99999102461ADDAY101999GF101991999001999999031001MD1310341+9999EQDQ01+000002SCOTLC
0068034970999991927112606004+52583+001717FM-12+000299999V0202301N00261220001CN0010001N9+00281+99999103391ADDAA199000691AY141999GF104991041051004501001001MD1810061+9999MW1101
0051034970999991927112706004+52583+001717FM-12+000299999V0209991C00001030001CN0040001N9+00611+99999102381ADDAY111999GF108991041061004501021001MD1810261+9999
0068034970999991927112806004+52583+001717FM-12+000299999V0202501N00261002401CN0005001N9+00611+99999102701ADDAA199000691AY141999GF108991081051002501999999MD1310061+9999MW1471
0068034970999991927112906004+52583+001717FM-12+000299999V0202001N00461004501CN0040001N9+00721+99999102081ADDAA199002091AY161999GF108991081061004501999999MD1810061+9999MW1631
0062034970999991927113006004+52583+001717FM-12+000299999V0200901N00671004501CN0040001N9+00721+99999102801ADDAA199002091AY121999GF108991081061004501999999MD1310141+9999
0072034970999991927120106004+52583+001717FM-12+000299999V0200901N00931012301CN0100001N9+00391+99999102561ADDAY111999GF108991081051012501999999EQDQ01+000032APCTENQ02+000002APC3  
0088034970999991927120206004+52583+001717FM-12+000299999V0200901N00461220001CN0040001N9+00391+99999102431ADDAY111999GF108991999001999999021001EQDQ01+000002SCOTLCQ02+000082APCTENQ03+000002APC3  
0051034970999991927120306004+52583+001717FM-12+000299999V0202301N00101004501CN0040001N9+00501+99999102131ADDAY111999GF108991081061004501999999MD1810201+9999
0051034970999991927120406004+52583+001717FM-12+000299999V0201401N00461015001CN0040001N9+00391+99999101351ADDAY111999GF108991081051017501999999MD1810061+9999
0068034970999991927120506004+52583+001717FM-12+000299999V0201401N00461007801CN0040001N9+00611+99999101011ADDAA199000691AY121999GF108991081061008001999999MD1810061+9999MW1501
0051034970999991927120606004+52583+001717FM-12+000299999V0201601N00671220001CN0100001N9+00781+99999100461ADDAY101999GF100991001001999999001001MD1310141+9999
0062034970999991927120706004+52583+001717FM-12+000299999V0200901N00671012301CN0040001N9+00721+99999100871ADDAA199000691AY111999GF108991081051012501999999MD1310061+9999
0011034970999991927120806004+52583+001717FM-12+000299999V0203601N002619999999N0040001N9+00611+99999101171ADDAY111999
0068034970999991927120906004+52583+001717FM-12+000299999V0202701N00101002401CN0020001N9+00391+99999101281ADDAA199000691AY161999GF108991081061002501999999MD1310061+9999MW1511
0051034970999991927121006004+52583+001717FM-12+000299999V0200901N00671012301CN0040001N9+00611+99999101841ADDAY111999GF108991081051012501999999MD1310061+9999
0051034970999991927121106004+52583+001717FM-12+000299999V0201101N00931007801CN0040001N9+00391+99999101901ADDAY111999GF108991081051008001999999MD1810061+9999
0051034970999991927121206004+52583+001717FM-12+000299999V0200901N00931004501CN0040001N9+00281+99999101231ADDAY111999GF108991061091004501021001MD1810061+9999
0089034970999991927121306004+52583+001717FM-12+000299999V0202901N00461004501CN0040001N9+00221+99999100921ADDAA199000691AY181999GF107991071061004501001001MW1801EQDQ01+000032APCTENQ02+000002APC3  
0068034970999991927121606004+52583+001717FM-12+000299999V0203401N00461004501CN0040001N9-00111+99999102841ADDAA199009091AY171999GF108991081091004501999999MD1310141+9999MW1701
0087034970999991927121706004+52583+001717FM-12+000299999V0201101N006719999999N0100001N9+00111+99999103151ADDAA199003091AY171999GF107991999091008001001001MD1310061+9999MW1861EQDQ01+000022SCOTLC
0083034970999991927121806004+52583+001717FM-12+000299999V0202701N00261004501CN0040001N9-00391+99999103371ADDAA199000591AY171999GF106991061091004501001001EQDQ01+000032APCTENQ02+000002APC3  
0051034970999991927121906004+52583+001717FM-12+000299999V0201601N00461012301CN0100001N9-00391+99999102781ADDAY101999GF107991071051012501001001MD1810141+9999
0070034970999991927122006004+52583+001717FM-12+000299999V0201101N01231220001CN0100001N9-00111+99999101871ADDAY101999GF104991999091008001001001MD1810141+9999EQDQ01+000022SCOTLC
0087034970999991927122106004+52583+001717FM-12+000299999V0201601N00931004501CN0040001N9+00221+99999100471ADDAA199000591AY161999GF108991081061004501999999MD1810602+9999MW1601EQDQ01+000602APC3  
0087034970999991927122206004+52583+001717FM-12+000299999V0200701N01231002401CN0020001N9+00611+99999098371ADDAA199008091AY161999GF108991081061002501999999MD1810662+9999MW1651EQDQ01+000662APC3  
0068034970999991927122306004+52583+001717FM-12+000299999V0202501N00261007801CN0040001N9+00891+99999097031ADDAA199000591AY161999GF108991081061008001999999MD1310141+9999MW1511
0068034970999991927122406004+52583+001717FM-12+000299999V0209991C00001002401CN0040001N9+00391+99999099131ADDAA199000591AY161999GF108991081061002501999999MD1310201+9999MW1611
0089034970999991927122506004+52583+001717FM-12+000299999V0200901N01231004501CN0040001N9+00391+99999099271ADDAA199003091AY161999GF108991081061004501999999MW1611EQDQ01+000032APCTENQ02+000002APC3  
0068034970999991927122606004+52583+001717FM-12+000299999V0200501N01541002401CN0040001N9+00111+99999099501ADDAA199007091AY171999GF108991081061002501999999MD1310201+9999MW1681
0097034970999991927122706004+52583+001717FM-12+000299999V0200501N019019999999N0100001N9+00281+99999101951ADDAA199000691AY101999GF107991999091008001001001MD1310542+9999EQDQ01+000042SCOTLCQ02+000542APC3  
0051034970999991927122806004+52583+001717FM-12+000299999V0200901N01541220001CN0100001N9+00111+99999103591ADDAY101999GF104991041011012501001001MD1310141+9999
