0083014030999991930010106004+59300+004883FM-12+005799999V0202701N00461015001CN0500001N9+00391+99999100461ADDAA199000591AY181999GF108991081091017501999999EQDQ01+000032APCTENQ02+000002APC3  
0070014030999991930010112004+59300+004883FM-12+005799999V0202301N009319999999N0500001N9+00501+99999100071ADDAY181999GF106991041011999999031001MD1810261+9999EQDQ01+000992SCOLCB
0054014030999991930010118004+59300+004883FM-12+005699999V0201801N01541007801CN0200001N9+00501+99999099521ADDAA199001091GF108991081061008001999999MD1810361+9999
0062014030999991930010206004+59300+004883FM-12+005799999V0201401N009319999999N0500001N9+00501+99999097871ADDAA199004091AY161999GF199999081999999999999999MD1510141+9999
0075014030999991930010218004+59300+004883FM-12+005699999V0209999900931220001CN0500001N9+00611+99999099541ADDAA199004091GF102991021011000251999999EQDQ01+000032APCTENQ02+000002APC3  
0037014030999991930010312004+59300+004883FM-12+005799999V0202501N009319999999N0200001N9+00721+99999098951ADDAY181999GF106991999999012501999999
0054014030999991930010318004+59300+004883FM-12+005699999V0202501N01231220001CN0500001N9+00611+99999098921ADDAA199002091GF104991041011000251999999MD1810161+9999
0068014030999991930010406004+59300+004883FM-12+005799999V0202501N01541220001CN0200001N9+00501+99999099111ADDAA199000591AY181999GF104991041091008001001001MD1310141+9999MW1891
0054014030999991930010418004+59300+004883FM-12+005699999V0202701N00931220001CN0500001N9+00501+99999099521ADDAA199000391GF101991011011999999999999MD1310241+9999
0068014030999991930010506004+59300+004883FM-12+005799999V0201401N01541007801CN0200001N9+00391+99999099041ADDAA199003091AY161999GF108991081061008001999999MD1810461+9999MW1631
0043014030999991930010512004+59300+004883FM-12+005799999V0201601N01541007801CN0020001N9+00611+99999098771ADDAY161999GF108991081061008001999999MW1631
0054014030999991930010518004+59300+004883FM-12+005699999V0201801N01541007801CN9999999N9+00611+99999098581ADDAA199019091GF108991081061008001999999MD1810041+9999
0083014030999991930010606004+59300+004883FM-12+005799999V0209999901231220001CN0200001N9+00611+99999098701ADDAA199003091AY111999GF104991041091012501001001EQDQ01+000042APCTENQ02+000202APC3  
0054014030999991930010618004+59300+004883FM-12+005699999V0202901N00931220001CN0200001N9+00781+99999100271ADDAA199000591GF104991041031008001999999MD1310441+9999
0068014030999991930010706004+59300+004883FM-12+005799999V0202301N00931007801CN0100001N9+00721+99999100101ADDAA199003091AY161999GF108991081061008001999999MD1310141+9999MW1601
0057014030999991930010712004+59300+004883FM-12+005799999V0202001N01231007801CN0040001N9+00781+99999099861ADDAY161999GF108991081061008001999999MD1810201+9999MW1211
0054014030999991930010718004+59300+004883FM-12+005699999V0202001N01231007801CN0100001N9+00781+99999099981ADDAA199003091GF108991081061008001999999MD1310101+9999
0054014030999991930010806004+59300+004883FM-12+005699999V0202001N01231007801CN0100001N9+00721+99999099571ADDAA199008091GF108991081061008001999999MD1810101+9999
0057014030999991930010812004+59300+004883FM-12+005799999V0202001N01231007801CN0100001N9+00721+99999099441ADDAY161999GF108991081061008001999999MD1810141+9999MW1611
0054014030999991930010818004+59300+004883FM-12+005699999V0202501N012319999999N0500001N9+00501+99999099731ADDAA199006091GF106991021011999999999999MD1310201+9999
0054014030999991930010906004+59300+004883FM-12+005699999V0202001N01541007801CN0500001N9+00501+99999099721ADDAA199001091GF108991081031008001999999MD1810041+9999
0057014030999991930010912004+59300+004883FM-12+005799999V0202001N01541007801CN0100001N9+00501+99999099511ADDAY161999GF108991081061008001999999MD1610141+9999MW1611
0054014030999991930010918004+59300+004883FM-12+005699999V0202001N01541007801CN0200001N9+00391+99999099251ADDAA199005091GF107991071031008001999999MD1810161+9999
0057014030999991930011012004+59300+004883FM-12+005799999V0202001N00931007801CN0040001N9+00221+99999099011ADDAY181999GF108991081061008001999999MD1610201+9999MW1901
0075014030999991930011018004+59300+004883FM-12+005699999V0202301N00931220001CN0200001N9+00391+99999099031ADDAA199008091GF104991041031008001999999EQDQ01+000032APCTENQ02+000002APC3  
0087014030999991930011106004+59300+004883FM-12+005799999V0201601N01901007801CN0100001N9+00611+99999097431ADDAA199005091AY161999GF108991081061008001999999MD1810602+9999MW1631EQDQ01+000602APC3  
0054014030999991930011118004+59300+004883FM-12+005699999V0201801N01231000151CN0500001N9+00391+99999097571ADDAA199005091GF106991061031000251999999MD1810101+9999
0060014030999991930011206004+59300+004883FM-12+005699999V0202001N00931220001CN0200001N9+00281+99999097921ADDAA199002091GF102991021031012501999999MD1310101+9999MW1891
0054014030999991930011218004+59300+004883FM-12+005699999V0202301N01541007801CN0040001N9+99999+99999097721ADDAA199003091GF108991081061008001999999MD1810101+9999
0068014030999991930011306004+59300+004883FM-12+005799999V0202301N00931007801CN0020001N9+00111+99999098521ADDAA199009091AY161999GF108991081061008001999999MD1310461+9999MW1681
0057014030999991930011312004+59300+004883FM-12+005799999V0202001N01231007801CN0200001N9+00391+99999099171ADDAY161999GF108991081061008001999999MD1210401+9999MW1901
0043014030999991930011318004+59300+004883FM-12+005699999V0202501N00671220001CN0200001N9+00501+99999099641ADDGF104991041031012501999999MD1310301+9999
0089014030999991930011406004+59300+004883FM-12+005799999V0201801N00671007801CN0200001N9+00501+99999099991ADDAA199001091AY181999GF108991081061008001999999MW1601EQDQ01+000082APCTENQ02+000002APC3  
0078014030999991930011412004+59300+004883FM-12+005799999V0202001N00671007801CN0100001N9+00501+99999100031ADDAY161999GF199999081061008001999999MW1601EQDQ01+000032APCTENQ02+000002APC3  
0075014030999991930011418004+59300+004883FM-12+005699999V0201801N00101007801CN0500001N9+00391+99999099981ADDAA199004091GF108991081061008001999999EQDQ01+000032APCTENQ02+000002APC3  
0062014030999991930011506004+59300+004883FM-12+005799999V0200201N00101007801CN0500001N9+00391+99999099941ADDAA199000691AY161999GF108991081061008001999999MD1810261+9999
0054014030999991930011518004+59300+004883FM-12+005699999V0202701N00931220001CN0500001N9+00501+99999100501ADDAA199002091GF104991041031012501999999MD1310361+9999
0062014030999991930011606004+59300+004883FM-12+005799999V0202501N01231220001CN0200001N9+00611+99999101501ADDAA199003091AY181999GF102991021091012501001001MD1310461+9999
0092014030999991930011612004+59300+004883FM-12+005799999V0203201N00671220001CN0500001N9+00501+99999102372ADDAY181999GF104991041091012501001001MD1310602+9999MW1801EQDQ01+102373APOSLPQ02+000602APC3  
0054014030999991930011618004+59300+004883FM-12+005699999V0209991C00001220001CN0500001N9+00281+99999102751ADDAA199001091GF101991011011000251999999MD1310201+9999
0051014030999991930011706004+59300+004883FM-12+005799999V0201601N01541015001CN0500001N9+00501+99999102551ADDAY121999GF108991081051017501999999MD1810141+9999
0037014030999991930011712004+59300+004883FM-12+005799999V0200501N01901007801CN0200001N9+00501+99999102101ADDAY121999GF108991081061008001999999
0054014030999991930011718004+59300+004883FM-12+005699999V0201801N01901007801CN9999999N9+00501+99999101861ADDAA199004091GF108991081061008001999999MD1810161+9999
0068014030999991930011806004+59300+004883FM-12+005799999V0201801N01231007801CN0020001N9+00611+99999101231ADDAA199006091AY161999GF108991081061008001999999MD1810261+9999MW1631
0051014030999991930011812004+59300+004883FM-12+005799999V0201801N00671007801CN0040001N9+00721+99999101351ADDAY161999GF199999081061008001999999MD1310061+9999
0054014030999991930011818004+59300+004883FM-12+005699999V0201601N00671007801CN0040001N9+00611+99999101321ADDAA199003091GF108991081061008001999999MD1810101+9999
0068014030999991930011906004+59300+004883FM-12+005799999V0201601N01541007801CN0020001N9+00611+99999100611ADDAA199000391AY161999GF108991081061008001999999MD1810341+9999MW1511
0057014030999991930011912004+59300+004883FM-12+005799999V0201601N01231007801CN0040001N9+00721+99999100421ADDAY161999GF108991081061008001999999MD1810141+9999MW1501
0054014030999991930012006004+59300+004883FM-12+005699999V0202301N00671007801CN0100001N9+00611+99999100341ADDAA199001091GF108991081061008001999999MD1310101+9999
0072014030999991930012012004+59300+004883FM-12+005799999V0202301N01231012301CN0200001N9+00611+99999999999ADDAY111999GF106991061091012501001001EQDQ01+000032APCTENQ02+000002APC3  
0054014030999991930012018004+59300+004883FM-12+005699999V0202701N00931220001CN0200001N9+00501+99999100471ADDAA199001091GF102991021031012501999999MD1310041+9999
0054014030999991930012106004+59300+004883FM-12+005699999V0203601N00461220001CN0500001N9+00391+99999101461ADDAA199000691GF104991041011012501999999MD1310301+9999
0070014030999991930012112004+59300+004883FM-12+005799999V0201801N00461220001CN0500001N9+00391+99999101721ADDAY111999GF101991011011999999001001MD1310061+9999EQDQ01+000992SCOLCB
0064014030999991930012118004+59300+004883FM-12+005699999V0201801N00671220001CN0500001N9+00391+99999101731ADDGF102991021001999999999999EQDQ01+000032APCTENQ02+000002APC3  
0072014030999991930012206004+59300+004883FM-12+005799999V0201601N01231007801CN0100001N9+00501+99999101631ADDAY111999GF108991081061008001999999EQDQ01+000032APCTENQ02+000002APC3  
0072014030999991930012212004+59300+004883FM-12+005799999V0201601N01541007801CN0100001N9+99999+99999101671ADDAY111999GF108991081061008001999999EQDQ01+000032APCTENQ02+000002APC3  
0064014030999991930012218004+59300+004883FM-12+005699999V0201601N01231007801CN0100001N9+00281+99999101581ADDGF108991081061008001999999EQDQ01+000032APCTENQ02+000002APC3  
0068014030999991930012306004+59300+004883FM-12+005799999V0201601N01231007801CN0040001N9+00501+99999100841ADDAA199006091AY161999GF108991081061008001999999MD1810341+9999MW1631
0057014030999991930012312004+59300+004883FM-12+005799999V0201801N00931000151CN0005001N9+00611+99999100741ADDAY161999GF108991081051000251999999MD1990141+9999MW1451
0075014030999991930012318004+59300+004883FM-12+005699999V0202001N00461000151CN0002001N9+00611+99999100701ADDAA199007091GF108991081051000251999999EQDQ01+000032APCTENQ02+000002APC3  
0068014030999991930012406004+59300+004883FM-12+005799999V0201601N00671000151CN0010001N9+00501+99999100911ADDAA199000391AY141999GF108991081051000251999999MD1810061+9999MW1101
0057014030999991930012412004+59300+004883FM-12+005799999V0201401N00671007801CN0200001N9+00501+99999100731ADDAY141999GF108991081061008001999999MD1810261+9999MW1611
0054014030999991930012418004+59300+004883FM-12+005699999V0201601N01231007801CN0200001N9+00501+99999100511ADDAA199003091GF108991081061008001999999MD1810161+9999
0068014030999991930012506004+59300+004883FM-12+005799999V0201401N00931007801CN0100001N9+00611+99999100261ADDAA199003091AY161999GF108991081061008001999999MD1810061+9999MW1601
0062014030999991930012512004+59300+004883FM-12+005799999V0201401N00931007801CN0200001N9+00611+99999100271ADDAY161999GF108991081061008001999999MW1601EQDQ01+000002APC3  
0054014030999991930012518004+59300+004883FM-12+005699999V0201401N00931007801CN0500001N9+00611+99999100111ADDAA199001091GF108991081061008001999999MD1810101+9999
0068014030999991930012606004+59300+004883FM-12+005799999V0201801N00671007801CN0040001N9+00111+99999100131ADDAA199018091AY161999GF108991081061008001999999MD1310061+9999MW1681
0054014030999991930012618004+59300+004883FM-12+005699999V0202701N00261220001CN9999999N9+00501+99999100701ADDAA199007091GF104991041031012501999999MD1310201+9999
0043014030999991930012706004+59300+004883FM-12+005699999V0201101N00261220001CN0500001N9+00221+99999101031ADDGF104991011011999999999999MD1310101+9999
0051014030999991930012712004+59300+004883FM-12+005799999V0201601N00101015001CN0500001N9+00281+99999101181ADDAY111999GF108991081051017501999999MD1210061+9999
0043014030999991930012718004+59300+004883FM-12+005699999V0200901N00261015001CN0500001N9+00281+99999101051ADDGF108991081051017501999999MD1810201+9999
0068014030999991930012806004+59300+004883FM-12+005799999V0201601N01231007801CN0040001N9+00221+99999100381ADDAA199005091AY161999GF108991081061008001999999MD1810201+9999MW1681
0054014030999991930012818004+59300+004883FM-12+005699999V0203601N00101220001CN0200001N9+99999+99999100621ADDAA199003091GF102991021061008001999999MD1310101+9999
0083014030999991930012906004+59300+004883FM-12+005799999V0201401N00261015001CN0500001N9+00281+99999100751ADDAA199001091AY181999GF107991071051017501001001EQDQ01+000032APCTENQ02+000002APC3  
0075014030999991930012918004+59300+004883FM-12+005699999V0201601N00931220001CN0500001N9+00221+99999100821ADDAA199002091GF102991021051000251999999EQDQ01+000032APCTENQ02+000002APC3  
0072014030999991930013006004+59300+004883FM-12+005799999V0201101N009319999999N0500001N9+00001+99999100821ADDAY111999GF107991999999999999999999EQDQ01+000032APCTENQ02+000002APC3  
0051014030999991930013012004+59300+004883FM-12+005799999V0201101N00671075001CN0500001N9+00221+99999100731ADDAY111999GF106991041051017501001021MD1810061+9999
0064014030999991930013018004+59300+004883FM-12+005699999V0201101N00931220001CN0500001N9+00111+99999100691ADDGF101991001001999999999999EQDQ01+000032APCTENQ02+000002APC3  
0064014030999991930013106004+59300+004883FM-12+005699999V0201101N00931015001CN0500001N9+00221+99999100571ADDGF107991071051017501999999EQDQ01+000032APCTENQ02+000002APC3  
0051014030999991930013112004+59300+004883FM-12+005799999V0201101N00931015001CN0500001N9+00111+99999100471ADDAY111999GF107991071051017501001001MD1610141+9999
0043014030999991930013118004+59300+004883FM-12+005699999V0201401N00931015001CN0500001N9+00111+99999100301ADDGF107991071051017501999999MD1810101+9999
0051014030999991930020106004+59300+004883FM-12+005799999V0201101N00671015001CN0500001N9-00111+99999100021ADDAY111999GF106991061051017501001001MD1410001+9999
0037014030999991930020112004+59300+004883FM-12+005799999V0201101N01231015001CN0500001N9-00111+99999100081ADDAY111999GF107991071051017501001001
0043014030999991930020118004+59300+004883FM-12+005699999V0200901N00931220001CN0500001N9-00221+99999100161ADDGF102991001001999999999999MD1310041+9999
0051014030999991930020206004+59300+004883FM-12+005799999V0200901N00931015001CN0500001N9+00001+99999100461ADDAY111999GF108991081051017501999999MD1310141+9999
0070014030999991930020212004+59300+004883FM-12+005799999V0200901N01231220001CN0500001N9+00001+99999100691ADDAY121999GF108991999001999999021001MD1110141+9999EQDQ01+000002SCOTLC
0043014030999991930020218004+59300+004883FM-12+005699999V0200901N00931220001CN0500001N9+00001+99999100751ADDGF108991001001999999999999MD1310101+9999
0043014030999991930020306004+59300+004883FM-12+005699999V0200901N00671015001CN0500001N9+00001+99999100641ADDGF108991081051017501999999MD1810161+9999
0057014030999991930020312004+59300+004883FM-12+005799999V0200901N00931007801CN0200001N9-00111+99999100631ADDAY171999GF108991081061008001999999MD1990061+9999MW1231
0054014030999991930020318004+59300+004883FM-12+005699999V0200901N00931007801CN0500001N9+00001+99999100501ADDAA199000391GF108991081061008001999999MD1810101+9999
0075014030999991930020406004+59300+004883FM-12+005699999V0200701N00461015001CN0500001N9+00111+99999100431ADDAA199000691GF108991081051017501999999EQDQ01+000032APCTENQ02+000002APC3  
0064014030999991930020418004+59300+004883FM-12+005699999V0200701N00261220001CN0500001N9+00111+99999100451ADDGF107991001001999999999999EQDQ01+000032APCTENQ02+000002APC3  
0064014030999991930020506004+59300+004883FM-12+005699999V0201801N00101007801CN0500001N9+00001+99999100411ADDGF108991081061008001999999EQDQ01+000032APCTENQ02+000002APC3  
0054014030999991930020518004+59300+004883FM-12+005699999V0201101N00461007801CN0200001N9+00001+99999100801ADDAA199001091GF108991081061008001999999MD1310201+9999
0043014030999991930020606004+59300+004883FM-12+005699999V0200501N00461015001CN0500001N9+00001+99999101551ADDGF107991071051017501999999MD1310301+9999
0051014030999991930020612004+59300+004883FM-12+005799999V0200701N00261220001CN0500001N9+99999+99999102001ADDAY101999GF100991001001999999001001MD1310141+9999
0043014030999991930020618004+59300+004883FM-12+005699999V0200501N00461220001CN0500001N9-00111+99999102391ADDGF100991001001999999999999MD1310361+9999
0043014030999991930020706004+59300+004883FM-12+005699999V0200501N00101220001CN0500001N9-00221+99999103191ADDGF100991001001999999999999MD1310161+9999
0051014030999991930020712004+59300+004883FM-12+005799999V0200201N00261220001CN0500001N9+00001+99999103461ADDAY101999GF100991001001999999001001MD1310141+9999
0043014030999991930020718004+59300+004883FM-12+005699999V0203601N00461220001CN0500001N9+00001+99999103541ADDGF102991001001999999999999MD1310101+9999
0043014030999991930020806004+59300+004883FM-12+005699999V0203601N00461015001CN0500001N9+00111+99999103621ADDGF107991071051017501999999MD1310041+9999
0056014030999991930020812004+59300+004883FM-12+005799999V0203601N00461220001CN0500001N9+00221+99999103701ADDAY101999GF101991011011000251001001EQDQ01+000002APC3  
0043014030999991930020818004+59300+004883FM-12+005699999V0203401N00101220001CN0500001N9+00221+99999103781ADDGF104991041011017501999999MD1310101+9999
0072014030999991930020906004+59300+004883FM-12+005799999V0201401N00101007801CN0500001N9+00001+99999103871ADDAY111999GF108991081061008001999999EQDQ01+000082APCTENQ02+000002APC3  
0051014030999991930020912004+59300+004883FM-12+005799999V0202901N00261220001CN0500001N9+00281+99999103721ADDAY161999GF102991021091012501001001MD1990201+9999
0054014030999991930020918004+59300+004883FM-12+005699999V0202901N002619999999N0200001N9+00281+99999103651ADDAA199001091GF107991999999999999999999MD1810041+9999
0040014030999991930021006004+59300+004883FM-12+005799999V0202701N004619999999N0500001N9+00281+99999103501ADDAA199000591GF106991999999012501999999
0051014030999991930021012004+59300+004883FM-12+005799999V0202701N00671015001CN0100001N9+00391+99999103331ADDAY111999GF108991081051017501999999MD1990141+9999
0054014030999991930021018004+59300+004883FM-12+005699999V0203201N004619999999N0500001N9+00281+99999103281ADDAA199000691GF106991011011999999999999MD1310101+9999
0075014030999991930021106004+59300+004883FM-12+005699999V0203201N00461220001CN0200001N9+00281+99999103181ADDAA199000691GF104991041061008001999999EQDQ01+000032APCTENQ02+000002APC3  
0054014030999991930021118004+59300+004883FM-12+005699999V0202901N00671007801CN0100001N9+00391+99999102891ADDAA199000691GF108991081051008001999999MD1810161+9999
0051014030999991930021206004+59300+004883FM-12+005799999V0202701N00671007801CN0100001N9+00391+99999102671ADDAY111999GF108991081061008001999999MD1610061+9999
0051014030999991930021212004+59300+004883FM-12+005799999V0202701N00931012301CN0200001N9+00501+99999102561ADDAY111999GF106991061011012501001001MD1810141+9999
0043014030999991930021218004+59300+004883FM-12+005699999V0202701N00931015001CN0200001N9+00391+99999102451ADDGF108991081051017501999999MD1810101+9999
0043014030999991930021306004+59300+004883FM-12+005699999V0202501N00671220001CN0200001N9+00391+99999102321ADDGF104991021011999999999999MD1810041+9999
0037014030999991930021312004+59300+004883FM-12+005799999V0202301N00671015001CN0200001N9+00391+99999102241ADDAY101999GF107991071051017501001001
0043014030999991930021318004+59300+004883FM-12+005699999V0202001N00461015001CN0200001N9+00281+99999102041ADDGF108991081051017501999999MD1810101+9999
0043014030999991930021406004+59300+004883FM-12+005699999V0202001N00671015001CN0100001N9+00281+99999101311ADDGF108991081051017501999999MD1810201+9999
0037014030999991930021412004+59300+004883FM-12+005799999V0202001N00931015001CN0100001N9+00391+99999100781ADDAY141999GF108991081051017501999999
0043014030999991930021418004+59300+004883FM-12+005699999V0202301N01231002401CN0040001N9+00391+99999100261ADDGF108991081051002501999999MD1810241+9999
0062014030999991930021506004+59300+004883FM-12+005699999V0203601N01231007801CN0200001N9+00221+99999099691ADDAA199006091AY171999GF108991081061008001999999MD1310161+9999
0054014030999991930021518004+59300+004883FM-12+005699999V0203601N00671220001CN0500001N9+00111+99999100461ADDAA199000691GF102991021011012501999999MD1310201+9999
0054014030999991930021606004+59300+004883FM-12+005699999V0203601N01541220001CN0500001N9+00221+99999101521ADDAA199000391GF102991021011012501999999MD1310361+9999
0000014030999991930021618004+59300+004883FM-12+005699999V02099999999999999999N9999999N9+99999+99999999999
0051014030999991930021706004+59300+004883FM-12+005799999V0200901N00101220001CN0500001N9-00111+99999103101ADDAY101999GF100991001001999999001001MD1310261+9999
0051014030999991930021712004+59300+004883FM-12+005799999V0201101N00101220001CN0500001N9+00111+99999103411ADDAY101999GF100991001001999999001001MD1310141+9999
0043014030999991930021718004+59300+004883FM-12+005699999V0201601N00261220001CN0500001N9+00111+99999103681ADDGF102991021011012501999999MD1310161+9999
0051014030999991930021806004+59300+004883FM-12+005799999V0201101N00101220001CN0500001N9+00001+99999103901ADDAY101999GF100991001001999999001001MD1310141+9999
0072014030999991930021812004+59300+004883FM-12+005799999V0201601N00261220001CN0500001N9+00221+99999103931ADDAY101999GF100991001001999999001001EQDQ01+000032APCTENQ02+000002APC3  
0064014030999991930021818004+59300+004883FM-12+005699999V0202001N00101220001CN0500001N9+00111+99999103921ADDGF100991001001999999999999EQDQ01+000032APCTENQ02+000002APC3  
0043014030999991930021906004+59300+004883FM-12+005699999V0201401N00101220001CN0500001N9-00111+99999103711ADDGF101991011011999999999999MD1810041+9999
0043014030999991930021918004+59300+004883FM-12+005699999V0201401N00261220001CN0500001N9+00111+99999103461ADDGF100991001001999999999999MD1810101+9999
0051014030999991930022006004+59300+004883FM-12+005799999V0201401N00461220001CN0500001N9+00111+99999103151ADDAY101999GF100991001001999999001001MD1810061+9999
0072014030999991930022012004+59300+004883FM-12+005799999V0201601N00671220001CN0500001N9+00391+99999103131ADDAY101999GF101991001001999999001021EQDQ01+000062APCTENQ02+000002APC3  
0064014030999991930022018004+59300+004883FM-12+005699999V0201801N00461220001CN0500001N9+00281+99999103121ADDGF101991001001999999999999EQDQ01+000032APCTENQ02+000002APC3  
0088014030999991930022106004+59300+004883FM-12+005799999V0201801N00101220001CN0500001N9+00111+99999103011ADDAY101999GF102991011011999999001021EQDQ01+000992SCOLCBQ02+000032APCTENQ03+000002APC3  
0072014030999991930022112004+59300+004883FM-12+005799999V0201801N00261000151CN0500001N9+00221+99999103071ADDAY101999GF108991081051000251999999EQDQ01+000032APCTENQ02+000002APC3  
0043014030999991930022118004+59300+004883FM-12+005699999V0201801N00261007801CN0100001N9+00221+99999103121ADDGF108991081051008001999999MD1310041+9999
0051014030999991930022206004+59300+004883FM-12+005799999V0201401N00461015001CN0500001N9+00111+99999103301ADDAY121999GF108991081051017501999999MD1310141+9999
0043014030999991930022218004+59300+004883FM-12+005699999V0200901N00101015001CN0200001N9+00111+99999103541ADDGF108991081051017501999999MD1310101+9999
0000014030999991930022306004+59300+004883FM-12+005699999V02099999999999999999N9999999N9+99999+99999999999
0051014030999991930022312004+59300+004883FM-12+005799999V0202301N00101220001CN0200001N9+00221+99999103931ADDAY111999GF104991041051008001001001MD1310061+9999
0043014030999991930022318004+59300+004883FM-12+005699999V0202301N00101015001CN0200001N9+00111+99999104041ADDGF106991061051017501999999MD1310041+9999
0072014030999991930022406004+59300+004883FM-12+005799999V0209991C00001220001CN0200001N9+00001+99999104131ADDAY111999GF102991021051008001001001EQDQ01+000032APCTENQ02+000002APC3  
0051014030999991930022412004+59300+004883FM-12+005799999V0202001N00461015001CN0500001N9+00221+99999104061ADDAY111999GF107991071051017501001001MD1710141+9999
0043014030999991930022418004+59300+004883FM-12+005699999V0200901N00101007801CN0200001N9+00111+99999103761ADDGF107991071051008001999999MD1810201+9999
0070014030999991930022506004+59300+004883FM-12+005799999V0201101N00101220001CN0500001N9+00001+99999103171ADDAY111999GF101991011011999999001001MD1810201+9999EQDQ01+000992SCOLCB
0070014030999991930022512004+59300+004883FM-12+005799999V0201401N00671220001CN0500001N9+00221+99999102901ADDAY111999GF104991021011999999001021MD1810201+9999EQDQ01+000992SCOLCB
0043014030999991930022518004+59300+004883FM-12+005699999V0201601N00931015001CN0500001N9+00111+99999102661ADDGF107991071051017501999999MD1810201+9999
0043014030999991930022606004+59300+004883FM-12+005699999V0201101N01231015001CN0500001N9+00111+99999102001ADDGF108991081051017501999999MD1810201+9999
0051014030999991930022612004+59300+004883FM-12+005799999V0201601N01231012301CN0200001N9+00221+99999101901ADDAY171999GF108991081061012501999999MD1810061+9999
0075014030999991930022618004+59300+004883FM-12+005699999V0201601N00931012301CN0200001N9+00221+99999101841ADDAA199000691GF108991081061012501999999EQDQ01+000032APCTENQ02+000002APC3  
0043014030999991930022706004+59300+004883FM-12+005699999V0201801N00931015001CN0100001N9+00281+99999101951ADDGF108991081051017501999999MD1310101+9999
0051014030999991930022712004+59300+004883FM-12+005799999V0201801N00671015001CN0040001N9+00281+99999102261ADDAY121999GF108991081051017501999999MD1110141+9999
0043014030999991930022718004+59300+004883FM-12+005699999V0201801N00671015001CN0100001N9+00221+99999102481ADDGF106991061051017501999999MD1310161+9999
0043014030999991930022806004+59300+004883FM-12+005699999V0201401N00261007801CN0100001N9+00221+99999102931ADDGF108991081051008001999999MD1310201+9999
0064014030999991930030106004+59300+004883FM-12+005699999V0203601N00261000151CN0100001N9+00281+99999103381ADDGF108991081051000251999999EQDQ01+000032APCTENQ02+000002APC3  
0043014030999991930030118004+59300+004883FM-12+005699999V0203601N00461220001CN0200001N9+00391+99999103271ADDGF104991021999022501999999MD1810061+9999
0064014030999991930030206004+59300+004883FM-12+005699999V0203601N00671220001CN0200001N9+00391+99999103051ADDGF101991001001999999999999EQDQ01+000032APCTENQ02+000002APC3  
0072014030999991930030218004+59300+004883FM-12+005699999V0203601N00261220001CN0100001N9+00281+99999102951ADDAY151999GF104991001001999999999999EQDQ01+000032APCTENQ02+000002APC3  
0043014030999991930030306004+59300+004883FM-12+005699999V0202901N00101007801CN0100001N9+00001+99999102791ADDGF108991081051008001999999MD1810101+9999
0043014030999991930030318004+59300+004883FM-12+005699999V0202301N00101007801CN0100001N9+00221+99999102671ADDGF108991081051008001999999MD1810021+9999
0043014030999991930030406004+59300+004883FM-12+005699999V0200901N00101015001CN0500001N9+00221+99999102331ADDGF108991081051017501999999MD1810101+9999
0054014030999991930030418004+59300+004883FM-12+005699999V0201601N00101007801CN0100001N9+00111+99999101891ADDAA199000691GF108991081061008001999999MD1810101+9999
0054014030999991930030506004+59300+004883FM-12+005699999V0203601N01231220001CN0500001N9+00281+99999102281ADDAA199001091GF104991041011012501999999MD1310101+9999
0062014030999991930030518004+59300+004883FM-12+005699999V0203601N00931007801CN0100001N9+00281+99999102431ADDAA199001091AY131999GF108991081061008001999999MD1310061+9999
0054014030999991930030606004+59300+004883FM-12+005699999V0203401N00461015001CN0500001N9+00391+99999102491ADDAA199000591GF108991081061017501999999MD1810101+9999
0043014030999991930030618004+59300+004883FM-12+005699999V0202701N00101220001CN0500001N9+00281+99999102051ADDGF104991001001999999999999MD1810261+9999
0043014030999991930030706004+59300+004883FM-12+005699999V0201801N00461000151CN0002001N9+00391+99999101141ADDGF108991081051000251999999MD1810261+9999
0054014030999991930030718004+59300+004883FM-12+005699999V0202501N00931007801CN0040001N9+00391+99999100561ADDAA199001091GF108991081061008001999999MD1810201+9999
0075014030999991930030806004+59300+004883FM-12+005699999V0202701N00931007801CN0100001N9+00501+99999100321ADDAA199001091GF108991081061008001999999EQDQ01+000032APCTENQ02+000002APC3  
0054014030999991930030818004+59300+004883FM-12+005699999V0202701N00931000151CN0002001N9+00501+99999100201ADDAA199002091GF108991081051000251999999MD1810061+9999
0054014030999991930030906004+59300+004883FM-12+005699999V0202001N00931007801CN0040001N9+00391+99999099551ADDAA199002091GF108991081061008001999999MD1810201+9999
0054014030999991930030918004+59300+004883FM-12+005699999V0202301N01231007801CN0200001N9+00501+99999098701ADDAA199004091GF108991081061008001999999MD1810101+9999
0064014030999991930031006004+59300+004883FM-12+005699999V0202901N00931220001CN0500001N9+00221+99999099481ADDGF102991021011999999999999EQDQ01+000032APCTENQ02+000002APC3  
0054014030999991930031018004+59300+004883FM-12+005699999V0203401N00671220001CN0500001N9+00111+99999099691ADDAA199000591GF102991021031999999999999MD1310101+9999
0054014030999991930031106004+59300+004883FM-12+005699999V0203201N00671220001CN0500001N9+00221+99999099791ADDAA199000591GF104991021031012501999999MD1310061+9999
0054014030999991930031118004+59300+004883FM-12+005699999V0203601N00671220001CN0500001N9+00221+99999099981ADDAA199000391GF102991021031012501999999MD1310041+9999
0043014030999991930031206004+59300+004883FM-12+005699999V0201601N00931015001CN0500001N9+00111+99999099421ADDGF108991061051017501999999MD1810201+9999
0054014030999991930031218004+59300+004883FM-12+005699999V0202501N00261220001CN0500001N9+00001+99999098921ADDAA199006091GF104991041031008001999999MD1810061+9999
0062014030999991930031306004+59300+004883FM-12+005699999V0201401N01231007801CN0010001N9+00001+99999098641ADDAA199002091AY181999GF108991081061008001999999MD1310201+9999
0054014030999991930031318004+59300+004883FM-12+005699999V0200901N00461220001CN0500001N9+00111+99999099261ADDAA199000391GF101991011011012501999999MD1310161+9999
0043014030999991930031406004+59300+004883FM-12+005699999V0201401N00671220001CN0500001N9+00001+99999099491ADDGF102991021051022501999999MD1310101+9999
0043014030999991930031418004+59300+004883FM-12+005699999V0202001N00461220001CN0500001N9+00001+99999099851ADDGF104991011011012501999999MD1310161+9999
0075014030999991930031506004+59300+004883FM-12+005699999V0201401N00671007801CN0100001N9+00001+99999099981ADDAA199000691GF108991081061008001999999EQDQ01+000032APCTENQ02+000002APC3  
0054014030999991930031518004+59300+004883FM-12+005699999V0201401N01231220001CN0500001N9+00111+99999100161ADDAA199000691GF104991041011012501999999MD1310101+9999
0064014030999991930031606004+59300+004883FM-12+005699999V0201101N00931220001CN0500001N9+00001+99999100391ADDGF106991001001999999999999EQDQ01+000032APCTENQ02+000002APC3  
0043014030999991930031618004+59300+004883FM-12+005699999V0200901N00671220001CN0500001N9+00111+99999100461ADDGF102991001001999999999999MD1310061+9999
0043014030999991930031706004+59300+004883FM-12+005699999V0200701N00461220001CN0500001N9+00001+99999100331ADDGF100991001001999999999999MD1810101+9999
0043014030999991930031718004+59300+004883FM-12+005699999V0203601N00261220001CN0500001N9+00001+99999099841ADDGF101991001001999999999999MD1810161+9999
0043014030999991930031806004+59300+004883FM-12+005699999V0200901N00261012301CN0500001N9+00001+99999099311ADDGF108991081061012501999999MD1810101+9999
0054014030999991930031818004+59300+004883FM-12+005699999V0200201N00931007801CN0020001N9+00001+99999098901ADDAA199001091GF108991081061008001999999MD1810101+9999
0054014030999991930031906004+59300+004883FM-12+005699999V0203601N00461220001CN0500001N9+00001+99999098811ADDAA199000591GF104991021031012501999999MD1310061+9999
0043014030999991930031918004+59300+004883FM-12+005699999V0202701N006719999999N0500001N9+00111+99999099201ADDGF106991041031012501999999MD1310161+9999
0083014030999991930032006004+59300+004883FM-12+005699999V0202301N00671220001CN0500001N9+00001+99999099411ADDAA199000591AY131999GF104991041061012501999999EQDQ01+000032APCTENQ02+000002APC3  
0054014030999991930032018004+59300+004883FM-12+005699999V0201601N012319999999N0500001N9+00001+99999099081ADDAA199001091GF107991021011012501999999MD1810261+9999
0054014030999991930032106004+59300+004883FM-12+005699999V0202501N01231012301CN0500001N9+00221+99999097951ADDAA199004091GF106991061031012501999999MD1310161+9999
0054014030999991930032118004+59300+004883FM-12+005699999V0201801N00461007801CN0500001N9+00221+99999099371ADDAA199001091GF108991081061008001999999MD1810101+9999
0054014030999991930032206004+59300+004883FM-12+005699999V0202701N00671007801CN0500001N9+00221+99999099671ADDAA199002091GF108991081061008001999999MD1310361+9999
0054014030999991930032218004+59300+004883FM-12+005699999V0203201N00931220001CN0500001N9+00281+99999100511ADDAA199000691GF104991041031012501999999MD1310201+9999
0043014030999991930032306004+59300+004883FM-12+005699999V0202701N00671220001CN0500001N9+00281+99999101121ADDGF102991021031012501999999MD1310161+9999
0054014030999991930032318004+59300+004883FM-12+005699999V0203401N002619999999N0500001N9+00221+99999101571ADDAA199001091GF106991041031012501999999MD1310101+9999
0043014030999991930032406004+59300+004883FM-12+005699999V0203201N00671220001CN0500001N9+00111+99999102031ADDGF101991011011999999999999MD1310101+9999
0043014030999991930032418004+59300+004883FM-12+005699999V0202901N00101220001CN0500001N9+00221+99999102431ADDGF106991001001999999999999MD1310161+9999
0054014030999991930032506004+59300+004883FM-12+005699999V0201801N00931007801CN0200001N9+00281+99999101771ADDAA199000691GF108991081061008001999999MD1810361+9999
0054014030999991930032518004+59300+004883FM-12+005699999V0201601N01541007801CN0040001N9+00111+99999100601ADDAA199010091GF108991081061008001999999MD1810341+9999
0062014030999991930032606004+59300+004883FM-12+005699999V0203201N00931012301CN0100001N9+00391+99999100941ADDAA199003091AY131999GF106991061031012501999999MD1310161+9999
0062014030999991930032618004+59300+004883FM-12+005699999V0203201N01541007801CN0200001N9+00391+99999101251ADDAA199000691AY131999GF107991071061008001999999MD1310101+9999
0103014030999991930032706004+59300+004883FM-12+005699999V0203201N999999999999N0100001N9+99999+99999999999ADDAA199000691AY131999GF199999011051022501001031MD1014322+9999MW1391EQDQ01+004322APC3  Q02 097003APOSLP
0054014030999991930032718004+59300+004883FM-12+005699999V0201801N00671007801CN0020001N9+00281+99999101391ADDAA199000591GF108991081061008001999999MD1810201+9999
0054014030999991930032806004+59300+004883FM-12+005699999V0201601N00461007801CN0040001N9+00281+99999101001ADDAA199000591GF108991081051008001999999MD1810161+9999
0054014030999991930032818004+59300+004883FM-12+005699999V0201601N01231000151CN0002001N9+00391+99999100401ADDAA199000391GF108991081051000251999999MD1810161+9999
0043014030999991930032906004+59300+004883FM-12+005699999V0201601N01541220001CN0040001N9+00611+99999099561ADDGF104991041051008001999999MD1810201+9999
0054014030999991930032918004+59300+004883FM-12+005699999V0201801N00931000151CN0005001N9+00501+99999099741ADDAA199004091GF108991081051000251999999MD1310281+9999
0054014030999991930033006004+59300+004883FM-12+005699999V0201801N00931007801CN0200001N9+00391+99999100361ADDAA199001091GF108991081061008001999999MD1310261+9999
0043014030999991930033018004+59300+004883FM-12+005699999V0201801N00931220001CN0500001N9+00391+99999101321ADDGF104991021011999999999999MD1310161+9999
0075014030999991930033106004+59300+004883FM-12+005699999V0201601N01231007801CN0200001N9+00501+99999101451ADDAA199000691GF108991081061008001999999EQDQ01+000032APCTENQ02+000002APC3  
0064014030999991930033118004+59300+004883FM-12+005699999V0201601N012319999999N0100001N9+00611+99999101471ADDGF106991041051017501999999EQDQ01+000032APCTENQ02+000002APC3  
0043014030999991930040106004+59300+004883FM-12+005699999V0201401N01231220001CN0200001N9+00721+99999101491ADDGF100991001001999999999999MD1310061+9999
0043014030999991930040118004+59300+004883FM-12+005699999V0201401N01231021001CN0200001N9+00721+99999101501ADDGF108991081051022501999999MD1810061+9999
0075014030999991930040206004+59300+004883FM-12+005699999V0201101N01231220001CN0500001N9+00721+99999101641ADDAA199000691GF107991001001999999999999EQDQ01+000032APCTENQ02+000002APC3  
0043014030999991930040218004+59300+004883FM-12+005699999V0201101N012319999999N0500001N9+00611+99999101531ADDGF106991021011999999999999MD1810101+9999
0043014030999991930040306004+59300+004883FM-12+005699999V0201101N01231220001CN0500001N9+00391+99999101931ADDGF102991011011999999999999MD1310061+9999
0043014030999991930040318004+59300+004883FM-12+005699999V0201401N00461220001CN0500001N9+00391+99999102321ADDGF101991001001999999999999MD1310101+9999
0043014030999991930040406004+59300+004883FM-12+005699999V0200701N00671220001CN0500001N9+00501+99999102021ADDGF104991001001999999999999MD1810061+9999
0064014030999991930040418004+59300+004883FM-12+005699999V0201101N00671015001CN0500001N9+00501+99999101711ADDGF107991071051017501999999EQDQ01+000032APCTENQ02+000002APC3  
0075014030999991930040506004+59300+004883FM-12+005699999V0200501N00461220001CN0500001N9+00391+99999101531ADDAA199000691GF104991021011012501999999EQDQ01+000032APCTENQ02+000002APC3  
0043014030999991930040518004+59300+004883FM-12+005699999V0200701N006719999999N0500001N9+00721+99999101511ADDGF107991041051017501999999MD1810061+9999
0075014030999991930040606004+59300+004883FM-12+005699999V0200901N00671007801CN0500001N9+00721+99999101391ADDAA199000691GF108991081061008001999999EQDQ01+000032APCTENQ02+000002APC3  
0043014030999991930040618004+59300+004883FM-12+005699999V0201101N00461015001CN0500001N9+00781+99999101691ADDGF106991061051017501999999MD1310101+9999
0043014030999991930040706004+59300+004883FM-12+005699999V0200701N00101015001CN0500001N9+00611+99999102221ADDGF107991071051017501999999MD1310201+9999
0043014030999991930040718004+59300+004883FM-12+005699999V0203201N00101015001CN0500001N9+00611+99999102511ADDGF108991081051017501999999MD1310101+9999
0054014030999991930040806004+59300+004883FM-12+005699999V0201101N00261007801CN0200001N9+00391+99999102571ADDAA199000591GF108991081061008001999999MD1310061+9999
0054014030999991930040818004+59300+004883FM-12+005699999V0201601N00671007801CN0200001N9+00501+99999102221ADDAA199000391GF108991081061008001999999MD1810101+9999
0043014030999991930040906004+59300+004883FM-12+005699999V0209999900671007801CN0500001N9+00501+99999101921ADDGF108991081061008001999999MD1810061+9999
0043014030999991930040918004+59300+004883FM-12+005699999V0201801N00671007801CN0500001N9+00501+99999101781ADDGF108991081061008001999999MD1810061+9999
0000014030999991930041006004+59300+004883FM-12+005699999V02099999999999999999N9999999N9+99999+99999999999
0054014030999991930041018004+59300+004883FM-12+005699999V0202001N00671007801CN0200001N9+00501+99999101381ADDAA199000591GF108991081061008001999999MD1810101+9999
0062014030999991930041106004+59300+004883FM-12+005699999V0202301N00461007801CN0100001N9+00501+99999101041ADDAA199003091AY151999GF108991081061008001999999MD1810061+9999
0000014030999991930041118004+59300+004883FM-12+005699999V02099999999999999999N9999999N9+99999+99999999999
0054014030999991930041206004+59300+004883FM-12+005699999V0201601N00931007801CN0200001N9+00391+99999099911ADDAA199006091GF108991081061008001999999MD1810101+9999
0054014030999991930041218004+59300+004883FM-12+005699999V0201801N00931007801CN0040001N9+00501+99999099791ADDAA199003091GF108991081061008001999999MD1810061+9999
0075014030999991930041306004+59300+004883FM-12+005699999V0201601N00461220001CN0200001N9+00391+99999099611ADDAA199003091GF104991041051008001999999EQDQ01+000032APCTENQ02+000002APC3  
0075014030999991930041318004+59300+004883FM-12+005699999V0201801N00671220001CN0200001N9+00501+99999097612ADDAA199001091GF102991021011012501999999EQDQ01+000032APCTENQ02+000002APC3  
0000014030999991930041406004+59300+004883FM-12+005699999V02099999999999999999N9999999N9+99999+99999999999
0000014030999991930041418004+59300+004883FM-12+005699999V02099999999999999999N9999999N9+99999+99999999999
0043014030999991930041506004+59300+004883FM-12+005699999V0203601N00931220001CN0200001N9+00501+99999100871ADDGF102991011011012501999999MD1310061+9999
0064014030999991930041518004+59300+004883FM-12+005699999V0203601N01231220001CN0500001N9+00611+99999100891ADDGF101991001001999999999999EQDQ01+000032APCTENQ02+000002APC3  
0064014030999991930041606004+59300+004883FM-12+005699999V0203601N00461007801CN0500001N9+00501+99999100971ADDGF106991061051008001999999EQDQ01+000032APCTENQ02+000002APC3  
0062014030999991930041618004+59300+004883FM-12+005699999V0203601N00671007801CN0100001N9+00501+99999100741ADDAA199000391AY171999GF108991081061008001999999MD1810161+9999
0075014030999991930041706004+59300+004883FM-12+005699999V0203601N00461007801CN0100001N9+00501+99999100451ADDAA199000591GF108991081061008001999999EQDQ01+000032APCTENQ02+000002APC3  
0054014030999991930041718004+59300+004883FM-12+005699999V0203601N00671015001CN0200001N9+00611+99999100821ADDAA199001091GF106991061051017501999999MD1310061+9999
0043014030999991930041806004+59300+004883FM-12+005699999V0203601N01901007801CN0200001N9+00391+99999100921ADDGF108991081061008001999999MD1810201+9999
0054014030999991930041818004+59300+004883FM-12+005699999V0203601N00931007801CN0500001N9+00501+99999100581ADDAA199004091GF107991071061008001999999MD1310101+9999
0054014030999991930041906004+59300+004883FM-12+005699999V0200701N00261220001CN0500001N9+00501+99999100751ADDAA199000691GF101991001001999999999999MD1310101+9999
0043014030999991930041918004+59300+004883FM-12+005699999V0203601N00461220001CN0500001N9+00721+99999100981ADDGF101991011011999999999999MD1310101+9999
0000014030999991930042006004+59300+004883FM-12+005699999V02099999999999999999N9999999N9+99999+99999999999
0043014030999991930042018004+59300+004883FM-12+005699999V0203201N00461015001CN0500001N9+00501+99999100721ADDGF108991081051017501999999MD1810201+9999
0062014030999991930042106004+59300+004883FM-12+005699999V0203601N00671220001CN0500001N9+00391+99999100351ADDAA199001091AY131999GF104991041031012501999999MD1810061+9999
0075014030999991930042118004+59300+004883FM-12+005699999V0203601N00931220001CN0500001N9+00781+99999100251ADDAA199000691GF104991041011012501999999EQDQ01+000032APCTENQ02+000002APC3  
0064014030999991930042206004+59300+004883FM-12+005699999V0209991C00001220001CN0500001N9+00391+99999100301ADDGF106991001001999999999999EQDQ01+000032APCTENQ02+000002APC3  
0054014030999991930042218004+59300+004883FM-12+005699999V0201801N00931007801CN0500001N9+00391+99999100321ADDAA199002091GF109991091061008001999999MD1810061+9999
0054014030999991930042306004+59300+004883FM-12+005699999V0201601N00931007801CN0040001N9+00501+99999100651ADDAA199002091GF108991081061008001999999MD1310161+9999
0075014030999991930042318004+59300+004883FM-12+005699999V0201801N00931220001CN0200001N9+00721+99999101051ADDAA199000691GF100991001001999999999999EQDQ01+000032APCTENQ02+000002APC3  
0043014030999991930042406004+59300+004883FM-12+005699999V0201101N012319999999N0500001N9+00891+99999101171ADDGF106991021011999999999999MD1310161+9999
0064014030999991930042418004+59300+004883FM-12+005699999V0201101N00931220001CN0500001N9+01111+99999101401ADDGF104991001001999999999999EQDQ01+000032APCTENQ02+000002APC3  
0043014030999991930042506004+59300+004883FM-12+005699999V0200901N00671220001CN0500001N9+01221+99999101491ADDGF101991011011012501999999MD1310101+9999
0054014030999991930042518004+59300+004883FM-12+005699999V0200901N00931220001CN0500001N9+01221+99999101681ADDAA199000691GF104991021011012501999999MD1310061+9999
0054014030999991930042606004+59300+004883FM-12+005699999V0200901N004619999999N0500001N9+01111+99999102301ADDAA199002091GF106991041061999999999999MD1310201+9999
0043014030999991930042618004+59300+004883FM-12+005699999V0200701N00101015001CN0500001N9+01111+99999102611ADDGF106991061051017501999999MD1310101+9999
0043014030999991930042706004+59300+004883FM-12+005699999V0200901N00261220001CN0500001N9+01001+99999102841ADDGF104991011011999999999999MD1310061+9999
0043014030999991930042718004+59300+004883FM-12+005699999V0203201N00461220001CN0500001N9+00781+99999102631ADDGF104991001001999999999999MD1810161+9999
0043014030999991930042806004+59300+004883FM-12+005699999V0200201N00101000151CN0002001N9+00611+99999102011ADDGF108991081051000251999999MD1810101+9999
0029014030999991930042818004+59300+004883FM-12+005699999V0203601N004619999999N9999999N9+99999+99999101491ADDGF107991999999999999999999
0064014030999991930042906004+59300+004883FM-12+005699999V0200901N00261220001CN0200001N9+00891+99999101281ADDGF106991001001999999999999EQDQ01+000032APCTENQ02+000002APC3  
0000014030999991930042918004+59300+004883FM-12+005699999V02099999999999999999N9999999N9+99999+99999999999
0043014030999991930043006004+59300+004883FM-12+005699999V0200501N00101220001CN9999999N9+00891+99999101901ADDGF100991001001999999999999MD1310201+9999
0064014030999991930043018004+59300+004883FM-12+005699999V0203601N00671220001CN0500001N9+00781+99999102021ADDGF100991001001999999999999EQDQ01+000032APCTENQ02+000002APC3  
0043014030999991930050106004+59300+004883FM-12+005699999V0203601N00461000151CN0000501N9+00501+99999102201ADDGF108991081051000251999999MD1310061+9999
0043014030999991930050118004+59300+004883FM-12+005699999V0203601N00461000151CN0005001N9+00501+99999102191ADDGF108991081051000251999999MD1810101+9999
0064014030999991930050206004+59300+004883FM-12+005699999V0203601N00931007801CN0100001N9+00611+99999102051ADDGF108991081051008001999999EQDQ01+000032APCTENQ02+000002APC3  
0043014030999991930050218004+59300+004883FM-12+005699999V0203601N00461220001CN0500001N9+00781+99999101851ADDGF101991001001999999999999MD1810101+9999
0064014030999991930050306004+59300+004883FM-12+005699999V0203601N00671220001CN0100001N9+00721+99999101891ADDGF104991041051008001999999EQDQ01+000032APCTENQ02+000002APC3  
0043014030999991930050318004+59300+004883FM-12+005699999V0203601N00931220001CN0200001N9+00611+99999101761ADDGF102991021051008001999999MD1810101+9999
0043014030999991930050406004+59300+004883FM-12+005699999V0201801N00461007801CN0100001N9+00611+99999101641ADDGF108991081051008001999999MD1310101+9999
0043014030999991930050418004+59300+004883FM-12+005699999V0202001N00101012301CN0500001N9+00891+99999101651ADDGF106991061011012501999999MD1810101+9999
0043014030999991930050506004+59300+004883FM-12+005699999V0200501N00101220001CN0200001N9+00781+99999101661ADDGF104991001001999999999999MD1810061+9999
0043014030999991930050518004+59300+004883FM-12+005699999V0203201N00261021001CN0500001N9+00891+99999101441ADDGF106991061051022501999999MD1810061+9999
0043014030999991930050606004+59300+004883FM-12+005699999V0202301N00461007801CN0500001N9+00781+99999101491ADDGF108991081051008001999999MD1310061+9999
0043014030999991930050618004+59300+004883FM-12+005699999V0203601N00461220001CN0500001N9+00721+99999101531ADDGF104991041011017501999999MD1810101+9999
0043014030999991930050706004+59300+004883FM-12+005699999V0202301N001019999999N0500001N9+00721+99999101181ADDGF108991021011012501999999MD1810141+9999
0054014030999991930050718004+59300+004883FM-12+005699999V0200201N00101007801CN0100001N9+00501+99999100681ADDAA199001091GF108991081061008001999999MD1810101+9999
0054014030999991930050806004+59300+004883FM-12+005699999V0200501N00671007801CN0200001N9+00391+99999100161ADDAA199003091GF108991081061008001999999MD1810201+9999
0054014030999991930050818004+59300+004883FM-12+005699999V0202301N00101007801CN0500001N9+00501+99999099871ADDAA199001091GF108991081061008001999999MD1810061+9999
0062014030999991930050906004+59300+004883FM-12+005699999V0201801N00461007801CN0200001N9+00611+99999100011ADDAA199001091AY131999GF107991071031008001999999MD1310101+9999
0083014030999991930050918004+59300+004883FM-12+005699999V0202701N00101007801CN0200001N9+00721+99999101601ADDAA199002091AY131999GF106991061031008001999999EQDQ01+000032APCTENQ02+000002APC3  
0043014030999991930051006004+59300+004883FM-12+005699999V0200501N006719999999N0500001N9+00501+99999100071ADDGF107991041061008001999999MD1810061+9999
0054014030999991930051018004+59300+004883FM-12+005699999V0201801N00101015001CN0500001N9+00611+99999100261ADDAA199003091GF106991061061017501999999MD1310101+9999
0075014030999991930051106004+59300+004883FM-12+005699999V0200901N001019999999N0200001N9+00611+99999100371ADDAA199000691GF106991021011012501999999EQDQ01+000032APCTENQ02+000002APC3  
0083014030999991930051118004+59300+004883FM-12+005699999V0203401N00461007801CN0200001N9+00721+99999100351ADDAA199001091AY131999GF107991071061008001999999EQDQ01+000032APCTENQ02+000002APC3  
0054014030999991930051206004+59300+004883FM-12+005699999V0209991C00001007801CN0500001N9+00781+99999100401ADDAA199000591GF107991071061008001999999MD1310101+9999
0075014030999991930051218004+59300+004883FM-12+005699999V0203201N00261220001CN0500001N9+00891+99999100621ADDAA199000691GF101991011011999999999999EQDQ01+000032APCTENQ02+000002APC3  
0064014030999991930051306004+59300+004883FM-12+005699999V0200501N00461220001CN0500001N9+00781+99999100781ADDGF101991011011012501999999EQDQ01+000032APCTENQ02+000002APC3  
0043014030999991930051318004+59300+004883FM-12+005699999V0203201N00461220001CN0500001N9+00781+99999100791ADDGF100991001001999999999999MD1810061+9999
0043014030999991930051406004+59300+004883FM-12+005699999V0209999999999220001CN0500001N9+00721+99999100671ADDGF100991001001999999999999MD1310101+9999
0043014030999991930051418004+59300+004883FM-12+005699999V0203401N00461220001CN0500001N9+01001+99999101081ADDGF101991011011999999999999MD1310061+9999
0043014030999991930051506004+59300+004883FM-12+005699999V0200201N00261220001CN0500001N9+00891+99999101471ADDGF101991011011012501999999MD1310061+9999
0043014030999991930051518004+59300+004883FM-12+005699999V0201801N00261220001CN0500001N9+01001+99999101541ADDGF106991001001999999999999MD1810061+9999
0054014030999991930051606004+59300+004883FM-12+005699999V0201601N00931007801CN0200001N9+00781+99999101401ADDAA199001091GF108991081061008001999999MD1810061+9999
0075014030999991930051618004+59300+004883FM-12+005699999V0202001N00461220001CN0200001N9+01001+99999101611ADDAA199001091GF104991041051008001999999EQDQ01+000032APCTENQ02+000002APC3  
0043014030999991930051706004+59300+004883FM-12+005699999V0202301N00261220001CN0200001N9+01001+99999101921ADDGF102991011011012501999999MD1310141+9999
0062014030999991930051718004+59300+004883FM-12+005699999V0201801N006719999999N0200001N9+01001+99999101681ADDGF106991021011012501999999MD1814322+9999EQDQ01+004322APC3  
0054014030999991930051806004+59300+004883FM-12+005699999V0201601N01541007801CN0200001N9+00891+99999100401ADDAA199001091GF108991081061008001999999MD1810261+9999
0054014030999991930051818004+59300+004883FM-12+005699999V0201801N009319999999N0500001N9+00891+99999100361ADDAA199003091GF106991021011999999999999MD1810061+9999
0062014030999991930051906004+59300+004883FM-12+005699999V0202301N01231007801CN0100001N9+00781+99999100511ADDAA199000691AY131999GF108991081061008001999999MD1310201+9999
0054014030999991930051918004+59300+004883FM-12+005699999V0202701N00671220001CN0200001N9+00781+99999101201ADDAA199000691GF104991021011012501999999MD1310161+9999
0043014030999991930052006004+59300+004883FM-12+005699999V0202901N00101015001CN0500001N9+00781+99999999999ADDGF106991061031017501999999MD1310201+9999
0043014030999991930052018004+59300+004883FM-12+005699999V0203601N00931220001CN0500001N9+00781+99999101571ADDGF101991011011999999999999MD1310101+9999
0043014030999991930052106004+59300+004883FM-12+005699999V0203601N00461220001CN0500001N9+00891+99999101951ADDGF101991011051008001999999MD1310161+9999
0064014030999991930052118004+59300+004883FM-12+005699999V0203601N00461220001CN0500001N9+01001+99999102121ADDGF101991011011999999999999EQDQ01+000032APCTENQ02+000002APC3  
0043014030999991930052206004+59300+004883FM-12+005699999V0200901N00101220001CN0500001N9+01111+99999102511ADDGF102991001001999999999999MD1310061+9999
0043014030999991930052218004+59300+004883FM-12+005699999V0203601N00671220001CN0500001N9+01111+99999102491ADDGF104991001001999999999999MD1810101+9999
0043014030999991930052306004+59300+004883FM-12+005699999V0203601N00671015001CN0200001N9+01001+99999102131ADDGF107991071051017501999999MD1810061+9999
0043014030999991930052318004+59300+004883FM-12+005699999V0202701N00461220001CN0500001N9+01281+99999102281ADDGF104991021011012501999999MD1310101+9999
0064014030999991930052406004+59300+004883FM-12+005699999V0203601N00261220001CN0500001N9+01221+99999102481ADDGF102991001001999999999999EQDQ01+000032APCTENQ02+000002APC3  
0043014030999991930052418004+59300+004883FM-12+005699999V0203401N00261220001CN0500001N9+01111+99999102091ADDGF106991001001999999999999MD1810101+9999
0043014030999991930052506004+59300+004883FM-12+005699999V0200201N00261012301CN0500001N9+01391+99999101541ADDGF106991061011012501999999MD1810101+9999
0043014030999991930052518004+59300+004883FM-12+005699999V0202901N00261012301CN0500001N9+01501+99999101151ADDGF107991071011012501999999MD1810121+9999
0043014030999991930052606004+59300+004883FM-12+005699999V0203601N00101220001CN0500001N9+01281+99999100371ADDGF106991001001999999999999MD1810201+9999
0043014030999991930052618004+59300+004883FM-12+005699999V0203401N00461000151CN0000501N9+01001+99999100131ADDGF108991081051000251999999MD1810061+9999
0054014030999991930052706004+59300+004883FM-12+005699999V0202701N00101007801CN0100001N9+00891+99999100201ADDAA199000391GF108991081061008001999999MD1310061+9999
0043014030999991930052718004+59300+004883FM-12+005699999V0201801N00671007801CN0200001N9+01001+99999100181ADDGF108991081061008001999999MD1810061+9999
0054014030999991930052806004+59300+004883FM-12+005699999V0202001N00671007801CN0200001N9+01001+99999099691ADDAA199006091GF108991081061008001999999MD1810101+9999
0054014030999991930052818004+59300+004883FM-12+005699999V0202701N00671012301CN0500001N9+00891+99999100511ADDAA199003091GF107991071031012501999999MD1310201+9999
0054014030999991930052906004+59300+004883FM-12+005699999V0202901N00931220001CN0200001N9+00891+99999101351ADDAA199000591GF104991041031022501999999MD1310261+9999
0054014030999991930052918004+59300+004883FM-12+005699999V0203201N00671220001CN0500001N9+01001+99999101841ADDAA199000691GF104991041011012501999999MD1310041+9999
0043014030999991930053006004+59300+004883FM-12+005699999V0203601N00671015001CN0500001N9+01001+99999102141ADDGF108991081051017501999999MD1310061+9999
0000014030999991930053018004+59300+004883FM-12+005699999V02099999999999999999N9999999N9+99999+99999999999
0043014030999991930053106004+59300+004883FM-12+005699999V0203601N00461220001CN0500001N9+01001+99999102261ADDGF100991001001999999999999MD1310061+9999
0043014030999991930053118004+59300+004883FM-12+005699999V0203601N00461220001CN0500001N9+01111+99999102201ADDGF102991001001999999999999MD1810101+9999
0078014030999991930060106004+59300+004883FM-12+005799999V0203401N00461220001CN0500001N9+01111+99999102201ADDAY101999GF104991001001999999001081IA1009EQDQ01+000042APCTENQ02+000042APC3  
0043014030999991930060118004+59300+004883FM-12+005699999V0203601N00461220001CN0500001N9+01111+99999101361ADDGF101991001001999999999999MD1810101+9999
0064014030999991930060206004+59300+004883FM-12+005699999V0200901N00461220001CN0500001N9+01391+99999101351ADDGF101991011051999999999999EQDQ01+000032APCTENQ02+000002APC3  
0000014030999991930060218004+59300+004883FM-12+005699999V02099999999999999999N9999999N9+99999+99999999999
0000014030999991930060306004+59300+004883FM-12+005699999V02099999999999999999N9999999N9+99999+99999999999
0000014030999991930060318004+59300+004883FM-12+005699999V02099999999999999999N9999999N9+99999+99999999999
0043014030999991930060406004+59300+004883FM-12+005699999V0201801N00931015001CN0200001N9+01221+99999102531ADDGF108991081051017501999999MD1310101+9999
0064014030999991930060418004+59300+004883FM-12+005699999V0201801N00931220001CN0500001N9+01221+99999102591ADDGF102991011011012501999999EQDQ01+000032APCTENQ02+000002APC3  
0064014030999991930060506004+59300+004883FM-12+005699999V0201801N00931007801CN0200001N9+01221+99999102511ADDGF108991081061008001999999EQDQ01+000032APCTENQ02+000002APC3  
0000014030999991930060518004+59300+004883FM-12+005699999V02099999999999999999N9999999N9+99999+99999999999
0043014030999991930060606004+59300+004883FM-12+005699999V0201801N009319999999N0200001N9+01221+99999101791ADDGF108991041061008001999999MD1810161+9999
0043014030999991930060618004+59300+004883FM-12+005699999V0201801N00671220001CN0040001N9+01281+99999101391ADDGF106991001001999999999999MD1810201+9999
0000014030999991930060706004+59300+004883FM-12+005699999V02099999999999999999N9999999N9+99999+99999999999
0054014030999991930060718004+59300+004883FM-12+005699999V0202301N99999012301CN0500001N9+01111+99999101371ADDAA199000391GF106991061031012501999999MD1310061+9999
0043014030999991930060806004+59300+004883FM-12+005699999V0203401N01231015001CN0500001N9+00891+99999101661ADDGF108991081051017501999999MD1310161+9999
0064014030999991930060818004+59300+004883FM-12+005699999V0203201N00671015001CN0500001N9+00781+99999101811ADDGF107991071051017501999999EQDQ01+000032APCTENQ02+000002APC3  
0043014030999991930060906004+59300+004883FM-12+005699999V0201601N00671015001CN0500001N9+01001+99999101401ADDGF108991081051017501999999MD1810161+9999
0054014030999991930060918004+59300+004883FM-12+005699999V0201801N01231007801CN0040001N9+01111+99999100711ADDAA199000691GF108991081061008001999999MD1810301+9999
0054014030999991930061006004+59300+004883FM-12+005699999V0202301N00671015001CN0500001N9+01111+99999100221ADDAA199007091GF108991081051017501999999MD1310101+9999
0054014030999991930061018004+59300+004883FM-12+005699999V0202001N00931012301CN0500001N9+01111+99999100121ADDAA199001091GF108991081031012501999999MD1310101+9999
0043014030999991930061106004+59300+004883FM-12+005699999V0202301N00931220001CN0500001N9+01111+99999100041ADDGF104991041031012501999999MD1310201+9999
0043014030999991930061118004+59300+004883FM-12+005699999V0202001N00931220001CN0500001N9+01111+99999100911ADDGF102991021011999999999999MD1310201+9999
0043014030999991930061206004+59300+004883FM-12+005699999V0202001N00461220001CN0500001N9+01281+99999101581ADDGF104991041011017501999999MD1310361+9999
0035014030999991930061218004+59300+004883FM-12+005699999V0202001N001019999999N9999999N9+01281+99999102101EQDQ01+000032APCTENQ02+000002APC3  
0064014030999991930061306004+59300+004883FM-12+005699999V0203601N002619999999N0500001N9+01111+99999102181ADDGF106991041011012501999999EQDQ01+000032APCTENQ02+000002APC3  
0064014030999991930061318004+59300+004883FM-12+005699999V0203601N00671220001CN0500001N9+01221+99999102331ADDGF100991001001999999999999EQDQ01+000032APCTENQ02+000002APC3  
0043014030999991930061406004+59300+004883FM-12+005699999V0203601N00671220001CN0500001N9+01221+99999102651ADDGF100991001001999999999999MD1310061+9999
0043014030999991930061418004+59300+004883FM-12+005699999V0203601N00671220001CN0500001N9+01281+99999102751ADDGF100991001001999999999999MD1810061+9999
0043014030999991930061506004+59300+004883FM-12+005699999V0200201N00101220001CN0500001N9+01281+99999103081ADDGF100991001001999999999999MD1310061+9999
0017014030999991930061518004+59300+004883FM-12+005699999V0203601N001019999999N9999999N9+01501+99999102921ADDMD1310061+9999
0043014030999991930061606004+59300+004883FM-12+005699999V0201401N00261220001CN0500001N9+01501+99999103051ADDGF104991011011012501999999MD1310061+9999
0000014030999991930061618004+59300+004883FM-12+005699999V02099999999999999999N9999999N9+99999+99999999999
0043014030999991930061706004+59300+004883FM-12+005699999V0200901N00101220001CN0500001N9+01501+99999102741ADDGF101991001001999999999999MD1310061+9999
0029014030999991930061718004+59300+004883FM-12+005699999V0203601N00101220001CN0500001N9+01721+99999102351ADDGF100991001001999999999999
0000014030999991930061806004+59300+004883FM-12+005699999V02099999999999999999N9999999N9+99999+99999999999
0043014030999991930061818004+59300+004883FM-12+005699999V0201801N00671220001CN0500001N9+01721+99999101761ADDGF104991001001999999999999MD1810161+9999
0064014030999991930061906004+59300+004883FM-12+005699999V0201601N00671012301CN0500001N9+01781+99999101651ADDGF106991061061012501999999EQDQ01+000032APCTENQ02+000002APC3  
0075014030999991930061918004+59300+004883FM-12+005699999V0201801N00671220001CN0500001N9+01721+99999101561ADDAA199000691GF107991001001999999999999EQDQ01+000032APCTENQ02+000002APC3  
0043014030999991930062006004+59300+004883FM-12+005699999V0201101N00671220001CN0500001N9+01891+99999101311ADDGF104991001001999999999999MD1810061+9999
0064014030999991930062018004+59300+004883FM-12+005699999V0201801N00671220001CN0200001N9+01611+99999101271ADDGF104991011011012501999999EQDQ01+000032APCTENQ02+000002APC3  
0057014030999991930062106004+59300+004883FM-12+005799999V0203401N00931220001CN0500001N9+00891+99999100321ADDAY101999GF104991021021012501061031IA1009MD1310101+9999
0054014030999991930062118004+59300+004883FM-12+005699999V0202901N00261220001CN0500001N9+01391+99999101591ADDAA199001091GF102991001001999999999999MD1310061+9999
0043014030999991930062206004+59300+004883FM-12+005699999V0201401N00461015001CN0500001N9+01281+99999101171ADDGF108991081051017501999999MD1810121+9999
0064014030999991930062218004+59300+004883FM-12+005699999V0202001N99999220001CN0200001N9+99999+99999101111ADDGF104991041051012501999999EQDQ01+000032APCTENQ02+000002APC3  
0054014030999991930062306004+59300+004883FM-12+005699999V0209999999999007801CN0100001N9+01391+99999100561ADDAA199004091GF108991081061008001999999MD1810201+9999
0054014030999991930062318004+59300+004883FM-12+005699999V0202001N00931220001CN0500001N9+99999+99999100701ADDAA199005091GF102991021011999999999999MD1310161+9999
0043014030999991930062406004+59300+004883FM-12+005699999V0201401N00931012301CN0200001N9+01501+99999100721ADDGF106991061051012501999999MD1810061+9999
0043014030999991930062418004+59300+004883FM-12+005699999V0201801N00101007801CN0100001N9+01391+99999100441ADDGF108991081061008001999999MD1810101+9999
0054014030999991930062506004+59300+004883FM-12+005699999V0201601N00671007801CN0500001N9+01111+99999099911ADDAA199005091GF107991071061008001999999MD1310101+9999
0054014030999991930062518004+59300+004883FM-12+005699999V0202501N01231012301CN0500001N9+01221+99999099871ADDAA199003091GF108991081031012501999999MD1310101+9999
0054014030999991930062606004+59300+004883FM-12+005699999V0202701N00671220001CN0500001N9+01221+99999100521ADDAA199006091GF102991021011012501999999MD1310101+9999
0064014030999991930062618004+59300+004883FM-12+005699999V0201801N00261220001CN0500001N9+01391+99999100811ADDGF104991041011012501999999EQDQ01+000032APCTENQ02+000002APC3  
0075014030999991930062706004+59300+004883FM-12+005699999V0201801N00461220001CN0500001N9+01391+99999101091ADDAA199000391GF104991041011999999999999EQDQ01+000032APCTENQ02+000002APC3  
0043014030999991930062718004+59300+004883FM-12+005699999V0201801N00671015001CN0500001N9+01611+99999100701ADDGF108991081051017501999999MD1810101+9999
0054014030999991930062806004+59300+004883FM-12+005699999V0201401N00671007801CN0040001N9+01281+99999100281ADDAA199007091GF108991081061008001999999MD1810101+9999
0054014030999991930062818004+59300+004883FM-12+005699999V0202701N00671012301CN0500001N9+01391+99999100771ADDAA199001091GF106991061011012501999999MD1310161+9999
0043014030999991930062906004+59300+004883FM-12+005699999V0202501N00101220001CN0500001N9+01281+99999101041ADDGF104991041011012501999999MD1310101+9999
0043014030999991930062918004+59300+004883FM-12+005699999V0202701N00101220001CN0500001N9+01391+99999101431ADDGF106991001001999999999999MD1310061+9999
0043014030999991930063006004+59300+004883FM-12+005699999V0201801N00261015001CN0500001N9+01391+99999101671ADDGF107991071051017501999999MD1310061+9999
0043014030999991930063018004+59300+004883FM-12+005699999V0200701N00461220001CN0500001N9+01501+99999101571ADDGF106991001001999999999999MD1810161+9999
0064014030999991930070106004+59300+004883FM-12+005699999V0201401N00461220001CN0500001N9+01501+99999101541ADDGF102991001001999999999999EQDQ01+000032APCTENQ02+000002APC3  
0043014030999991930070206004+59300+004883FM-12+005699999V0201101N00931220001CN0500001N9+01891+99999101331ADDGF104991001001999999999999MD1810061+9999
0064014030999991930070218004+59300+004883FM-12+005699999V0209991C00001220001CN0500001N9+01721+99999101301ADDGF104991041011012501999999EQDQ01+000032APCTENQ02+000002APC3  
0043014030999991930070306004+59300+004883FM-12+005699999V0201401N00671220001CN0500001N9+01891+99999101291ADDGF102991001001999999999999MD1810061+9999
0043014030999991930070406004+59300+004883FM-12+005699999V0201601N00461220001CN0100001N9+01611+99999101601ADDGF104991021011012501999999MD1310101+9999
0043014030999991930070418004+59300+004883FM-12+005699999V0209999900461220001CN0200001N9+01721+99999101501ADDGF102991011021012501999999MD1810101+9999
0064014030999991930070506004+59300+004883FM-12+005699999V0201801N00261220001CN0100001N9+01611+99999101401ADDGF102991021011012501999999EQDQ01+000032APCTENQ02+000002APC3  
0043014030999991930070606004+59300+004883FM-12+005699999V0201801N00461007801CN0100001N9+01501+99999100911ADDGF108991081051008001999999MD1810101+9999
0075014030999991930070618004+59300+004883FM-12+005699999V0202901N00461007801CN0100001N9+01281+99999100721ADDAA199008091GF108991081061008001999999EQDQ01+000032APCTENQ02+000002APC3  
0075014030999991930070706004+59300+004883FM-12+005699999V0202701N00671220001CN0500001N9+01221+99999100971ADDAA199001091GF104991041031012501999999EQDQ01+000032APCTENQ02+000002APC3  
0054014030999991930070718004+59300+004883FM-12+005699999V0203201N00931220001CN0500001N9+01281+99999101301ADDAA199000591GF104991041031012501999999MD1310101+9999
0054014030999991930070806004+59300+004883FM-12+005699999V0203201N00931220001CN0500001N9+01221+99999101491ADDAA199000591GF102991021031012501999999MD1310061+9999
0043014030999991930070818004+59300+004883FM-12+005699999V0203201N00461012301CN0500001N9+01281+99999101471ADDGF107991071011012501999999MD1810061+9999
0054014030999991930070918004+59300+004883FM-12+005699999V0203201N00931220001CN0500001N9+01281+99999101641ADDAA199000591GF104991041011012501999999MD1310061+9999
0064014030999991930071006004+59300+004883FM-12+005699999V0203201N00671220001CN0500001N9+01221+99999101601ADDGF104991041011012501999999EQDQ01+000032APCTENQ02+000002APC3  
0043014030999991930071018004+59300+004883FM-12+005699999V0203601N00671220001CN0500001N9+01221+99999101291ADDGF104991041011012501999999MD1810161+9999
0049014030999991930071106004+59300+004883FM-12+005699999V0203601N00931012301CN0500001N9+01281+99999100491ADDGF107991071031012501999999MD1810201+9999MW1051
0043014030999991930071118004+59300+004883FM-12+005699999V0203601N00461220001CN0500001N9+01721+99999100431ADDGF104991041011012501999999MD1810061+9999
0043014030999991930071206004+59300+004883FM-12+005699999V0200901N00261220001CN0500001N9+01891+99999100541ADDGF101991011011999999999999MD1310101+9999
0054014030999991930071218004+59300+004883FM-12+005699999V0201801N00261007801CN0100001N9+01391+99999100971ADDAA199002091GF108991081061008001999999MD1310061+9999
0075014030999991930071306004+59300+004883FM-12+005699999V0201101N00101007801CN0200001N9+01391+99999101031ADDAA199001091GF108991081061008001999999EQDQ01+000032APCTENQ02+000002APC3  
0062014030999991930071318004+59300+004883FM-12+005699999V0202001N00101007801CN0200001N9+01501+99999100911ADDAA199004091AY131999GF107991071061008001999999MD1810061+9999
0054014030999991930071406004+59300+004883FM-12+005699999V0200701N00101007801CN0200001N9+01501+99999100761ADDAA199000591GF108991081061008001999999MD1810101+9999
0043014030999991930071418004+59300+004883FM-12+005699999V0203601N00261220001CN0200001N9+01611+99999100511ADDGF104991021011012501999999MD1810061+9999
0064014030999991930071506004+59300+004883FM-12+005699999V0200501N00101012301CN0200001N9+01501+99999100431ADDGF107991071031012501999999EQDQ01+000032APCTENQ02+000002APC3  
0064014030999991930071606004+59300+004883FM-12+005699999V0200901N00101220001CN0500001N9+01391+99999100401ADDGF104991041011012501999999EQDQ01+000032APCTENQ02+000002APC3  
0054014030999991930071706004+59300+004883FM-12+005699999V0200901N00261220001CN0500001N9+01721+99999099891ADDAA199000591GF106991001001999999999999MD1810161+9999
0054014030999991930071718004+59300+004883FM-12+005699999V0201801N00261012301CN0500001N9+01721+99999099741ADDAA199000691GF108991071061012501999999MD1810041+9999
0054014030999991930071806004+59300+004883FM-12+005699999V0201101N00671007801CN0500001N9+01501+99999099431ADDAA199000591GF108991081061008001999999MD1810041+9999
0062014030999991930071818004+59300+004883FM-12+005699999V0200901N00101007801CN0200001N9+01391+99999099661ADDAA199002091AY171999GF108991081061008001999999MD1310201+9999
0083014030999991930071906004+59300+004883FM-12+005699999V0200501N00261007801CN0500001N9+01501+99999099701ADDAA199002091AY131999GF108991081061008001999999EQDQ01+000032APCTENQ02+000002APC3  
0062014030999991930071918004+59300+004883FM-12+005699999V0203601N00101007801CN0200001N9+01611+99999099991ADDAA199003091AY131999GF108991081031008001999999MD1310061+9999
0054014030999991930072006004+59300+004883FM-12+005699999V0200701N00101012301CN0500001N9+01611+99999099791ADDAA199001091GF108991081051012501999999MD1810101+9999
0054014030999991930072018004+59300+004883FM-12+005699999V0203401N00461012301CN0500001N9+01611+99999099821ADDAA199001091GF107991061031012501999999MD1310161+9999
0043014030999991930072106004+59300+004883FM-12+005699999V0202701N00101012301CN0500001N9+01501+99999099971ADDGF108991081051012501999999MD1310101+9999
0043014030999991930072118004+59300+004883FM-12+005699999V0203601N00261220001CN0500001N9+01611+99999100171ADDGF102991001001999999999999MD1810021+9999
0043014030999991930072206004+59300+004883FM-12+005699999V0203601N00461220001CN0500001N9+01721+99999100381ADDGF104991041021017501999999MD1310101+9999
0043014030999991930072218004+59300+004883FM-12+005699999V0200501N00261012301CN0500001N9+01891+99999100571ADDGF108991081051012501999999MD1310041+9999
0043014030999991930072306004+59300+004883FM-12+005699999V0202701N00101220001CN0500001N9+01721+99999100821ADDGF104991041021012501999999MD1310101+9999
0017014030999991930072318004+59300+004883FM-12+005699999V0203401N004619999999N9999999N9+01611+99999100841ADDMD1810041+9999
0075014030999991930072406004+59300+004883FM-12+005699999V0203601N00461004501CN0040001N9+01391+99999100771ADDAA199000391GF108991081061004501999999EQDQ01+000032APCTENQ02+000002APC3  
0054014030999991930072418004+59300+004883FM-12+005699999V0203601N00671007801CN0500001N9+01611+99999100801ADDAA199000691GF108991081051008001999999MD1810041+9999
0043014030999991930072506004+59300+004883FM-12+005699999V0203601N00931012301CN0500001N9+01611+99999100831ADDGF108991081051012501999999MD1310061+9999
0043014030999991930072518004+59300+004883FM-12+005699999V0203601N00931220001CN0500001N9+01611+99999100841ADDGF102991011021017501999999MD1810041+9999
0064014030999991930072606004+59300+004883FM-12+005699999V0203601N00461012301CN0500001N9+01611+99999100861ADDGF108991071051012501999999EQDQ01+000032APCTENQ02+000002APC3  
0043014030999991930072618004+59300+004883FM-12+005699999V0202701N00461012301CN0500001N9+01501+99999100881ADDGF108991081051012501999999MD1310041+9999
0049014030999991930072706004+59300+004883FM-12+005699999V0201101N00261007801CN0200001N9+01501+99999100531ADDGF108991081031008001999999MD1810061+9999MW1161
0043014030999991930072718004+59300+004883FM-12+005699999V0203401N00101012301CN0500001N9+01721+99999100411ADDGF108991081081012501999999MD1810021+9999
0054014030999991930072806004+59300+004883FM-12+005699999V0201801N00261007801CN0040001N9+01391+99999100351ADDAA199002091GF108991081031008001999999MD1810041+9999
0054014030999991930072818004+59300+004883FM-12+005699999V0209999999999220001CN0500001N9+01721+99999100401ADDAA199000391GF102991021021017501999999MD1810041+9999
0062014030999991930072906004+59300+004883FM-12+005699999V0200901N00101220001CN0500001N9+01611+99999100301ADDGF107991999001999999999001MD1810041+9999EQDQ01+000002SCOTLC
0043014030999991930072918004+59300+004883FM-12+005699999V0203601N00261015001CN0500001N9+01611+99999100321ADDGF107991071051017501999999MD1310021+9999
0054014030999991930073006004+59300+004883FM-12+005699999V0203601N00461015001CN0500001N9+01611+99999100251ADDAA199014091GF106991061021017501999999MD1810061+9999
0043014030999991930073018004+59300+004883FM-12+005699999V0203601N009319999999N0500001N9+01611+99999100331ADDGF106991021071017501999999MD1310041+9999
0043014030999991930073106004+59300+004883FM-12+005699999V0203401N006719999999N0500001N9+01501+99999100471ADDGF107991041031012501999999MD1310081+9999
0043014030999991930073118004+59300+004883FM-12+005699999V0203201N00931015001CN0500001N9+01501+99999100681ADDGF108991081061017501999999MD1310101+9999
0054014030999991930080106004+59300+004883FM-12+005699999V0203401N00461220001CN0500001N9+01391+99999100931ADDAA199000591GF104991041061017501999999MD1310121+9999
0054014030999991930080118004+59300+004883FM-12+005699999V0203201N00261012301CN0500001N9+01391+99999101191ADDAA199001091GF107991071061012501999999MD1310021+9999
0043014030999991930080206004+59300+004883FM-12+005699999V0200201N00261220001CN0500001N9+01391+99999101031ADDGF104991011021017501999999MD1310081+9999
0043014030999991930080218004+59300+004883FM-12+005699999V0200501N00261220001CN0500001N9+01501+99999999999ADDGF104991001001999999999999MD1810141+9999
0054014030999991930080306004+59300+004883FM-12+005699999V0200901N009319999999N0100001N9+01391+99999100191ADDAA199001091GF108991999061008001999999MD1810101+9999
0075014030999991930080318004+59300+004883FM-12+005699999V0209999999999007801CN0500001N9+01611+99999100151ADDAA199000591GF108991081061008001999999EQDQ01+000032APCTENQ02+000002APC3  
0073014030999991930080406004+59300+004883FM-12+005699999V0201401N00101220001CN0200001N9+01501+99999999999ADDAA199001091GF104991021051999999999999MD1810121+9999EQDQ01+000001APOSP 
0000014030999991930080418004+59300+004883FM-12+005699999V02099999999999999999N9999999N9+99999+99999999999
0054014030999991930080506004+59300+004883FM-12+005699999V0200201N00671007801CN0500001N9+01501+99999099011ADDAA199004091GF107991071061008001999999MD1810261+9999
0060014030999991930080518004+59300+004883FM-12+005699999V0201801N01231007801CN0200001N9+01501+99999099221ADDAA199003091GF107991071061008001999999MD1310221+9999MW1161
0075014030999991930080606004+59300+004883FM-12+005699999V0201401N01231007801CN0200001N9+01221+99999099371ADDAA199009091GF108991081031008001999999EQDQ01+000032APCTENQ02+000002APC3  
0054014030999991930080618004+59300+004883FM-12+005699999V0201801N00671007801CN0500001N9+01281+99999100231ADDAA199011091GF108991081061008001999999MD1310321+9999
0054014030999991930080706004+59300+004883FM-12+005699999V0201801N00101007801CN0500001N9+01391+99999100621ADDAA199007091GF106991061031008001999999MD1310281+9999
0043014030999991930080718004+59300+004883FM-12+005699999V0203601N00101220001CN0500001N9+01611+99999100961ADDGF104991001001999999999999MD1310061+9999
0043014030999991930080806004+59300+004883FM-12+005699999V0203601N00101220001CN0500001N9+01501+99999101081ADDGF101991001001999999999999MD1310041+9999
0064014030999991930080818004+59300+004883FM-12+005699999V0203201N00461220001CN0500001N9+01501+99999101181ADDGF104991001001999999999999EQDQ01+000032APCTENQ02+000002APC3  
0043014030999991930080906004+59300+004883FM-12+005699999V0203601N00261007801CN0200001N9+01391+99999101351ADDGF106991061051008001999999MD1310061+9999
0043014030999991930080918004+59300+004883FM-12+005699999V0203601N00461220001CN0200001N9+01391+99999101401ADDGF101991011071008001999999MD1810021+9999
0043014030999991930081006004+59300+004883FM-12+005699999V0203201N00101220001CN0200001N9+01391+99999101341ADDGF101991011081008001999999MD1810041+9999
0043014030999991930081018004+59300+004883FM-12+005699999V0202001N00261012301CN0200001N9+01501+99999101041ADDGF106991061071012501999999MD1810121+9999
0000014030999991930081106004+59300+004883FM-12+005699999V02099999999999999999N9999999N9+99999+99999999999
0054014030999991930081118004+59300+004883FM-12+005699999V0202301N00461007801CN0200001N9+01501+99999100131ADDAA199003091GF106991061081008001999999MD1810041+9999
0043014030999991930081206004+59300+004883FM-12+005699999V0203601N00101220001CN0500001N9+01501+99999100061ADDGF102991021011017501999999MD1310081+9999
0043014030999991930081218004+59300+004883FM-12+005699999V0203601N006719999999N0500001N9+01501+99999099971ADDGF106991021021017501999999MD1810021+9999
0064014030999991930081306004+59300+004883FM-12+005699999V0203201N00671007801CN0500001N9+01501+99999099821ADDGF107991071081008001999999EQDQ01+000032APCTENQ02+000002APC3  
0043014030999991930081318004+59300+004883FM-12+005699999V0202701N00461220001CN0500001N9+01501+99999099591ADDGF102991021021012501999999MD1810121+9999
0054014030999991930081406004+59300+004883FM-12+005699999V0201401N00461007801CN0200001N9+01281+99999098791ADDAA199007091GF107991071999008001999999MD1810161+9999
0054014030999991930081418004+59300+004883FM-12+005699999V0201101N00101007801CN0200001N9+01391+99999099071ADDAA199004091GF108991081031008001999999MD1310161+9999
0054014030999991930081506004+59300+004883FM-12+005699999V0200901N002619999999N0500001N9+01501+99999099601ADDAA199000391GF107991041041999999999999MD1310161+9999
0091014030999991930081518004+59300+004883FM-12+005699999V0203601N006719999999N0500001N9+01611+99999999999ADDAA199000691GF107991041081012501999999EQDQ01+000001APOSP Q02+000032APCTENQ03+000002APC3  
0043014030999991930081606004+59300+004883FM-12+005699999V0203401N012319999999N9999999N9+01501+99999100251ADDGF107991999061008001999999MD1310021+9999
0043014030999991930081618004+59300+004883FM-12+005699999V0203401N00931007801CN0100001N9+01611+99999100391ADDGF106991061051008001999999MD1310081+9999
0054014030999991930081706004+59300+004883FM-12+005699999V0202901N00671007801CN0500001N9+01501+99999101101ADDAA199002091GF108991081031008001999999MD1310201+9999
0043014030999991930081718004+59300+004883FM-12+005699999V0203401N00461012301CN0500001N9+01501+99999101501ADDGF106991061081012501999999MD1310021+9999
0064014030999991930081806004+59300+004883FM-12+005699999V0203601N00461220001CN0500001N9+01501+99999101291ADDGF101991011011017501999999EQDQ01+000032APCTENQ02+000002APC3  
0043014030999991930081818004+59300+004883FM-12+005699999V0201601N00101220001CN0500001N9+01501+99999101101ADDGF104991041021017501999999MD1810061+9999
0043014030999991930081906004+59300+004883FM-12+005699999V0201101N00931021001CN0500001N9+01611+99999100661ADDGF106991061041022501999999MD1810121+9999
0054014030999991930081918004+59300+004883FM-12+005699999V0201801N01541220001CN0200001N9+01391+99999100761ADDAA199001091GF102991021021012501999999MD1310101+9999
0054014030999991930082006004+59300+004883FM-12+005699999V0202001N00931220001CN0500001N9+01391+99999101411ADDAA199001091GF102991021031999999999999MD1310181+9999
0075014030999991930082018004+59300+004883FM-12+005699999V0201801N00931220001CN0500001N9+01391+99999101711ADDAA199002091GF102991021031017501999999EQDQ01+000032APCTENQ02+000002APC3  
0043014030999991930082106004+59300+004883FM-12+005699999V0201101N00931012301CN0500001N9+01391+99999101631ADDGF106991061051012501999999MD1810101+9999
0043014030999991930082118004+59300+004883FM-12+005699999V0201101N01231007801CN0500001N9+01611+99999100821ADDGF108991081091008001999999MD1810221+9999
0075014030999991930082206004+59300+004883FM-12+005699999V0202001N01231220001CN0200001N9+01391+99999100151ADDAA199006091GF104991041031008001999999EQDQ01+000032APCTENQ02+000002APC3  
0000014030999991930082218004+59300+004883FM-12+005699999V02099999999999999999N9999999N9+99999+99999999999
0060014030999991930082306004+59300+004883FM-12+005699999V0202001N00261012301CN0500001N9+01391+99999101381ADDAA199000691GF106991061051012501999999MD1310041+9999MW1051
0043014030999991930082318004+59300+004883FM-12+005699999V0209991C00001220001CN0500001N9+01391+99999101361ADDGF102991011011017501999999MD1810101+9999
0043014030999991930082406004+59300+004883FM-12+005699999V0200201N00461220001CN0500001N9+01391+99999100811ADDGF107991001001999999999999MD1810101+9999
0043014030999991930082418004+59300+004883FM-12+005699999V0203201N00671012301CN0500001N9+01391+99999101111ADDGF107991071081012501999999MD1310081+9999
0054014030999991930082506004+59300+004883FM-12+005699999V0202701N001019999999N0500001N9+01281+99999101601ADDAA199004091GF107991041031012501999999MD1310161+9999
0054014030999991930082518004+59300+004883FM-12+005699999V0203201N00461220001CN0500001N9+01391+99999102221ADDAA199000391GF104991041081012501999999MD1310161+9999
0000014030999991930082606004+59300+004883FM-12+005699999V02099999999999999999N9999999N9+99999+99999999999
0054014030999991930082618004+59300+004883FM-12+005699999V0201801N01231007801CN0200001N9+01501+99999101961ADDAA199001091GF108991081091008001999999MD1810221+9999
0054014030999991930082706004+59300+004883FM-12+005699999V0201601N00671007801CN0100001N9+01611+99999102061ADDAA199000691GF107991071081008001999999MD1310061+9999
0043014030999991930082718004+59300+004883FM-12+005699999V0201601N00461220001CN0200001N9+01721+99999102101ADDGF102991011011012501999999MD1810041+9999
0000014030999991930082806004+59300+004883FM-12+005699999V02099999999999999999N9999999N9+99999+99999999999
0043014030999991930082818004+59300+004883FM-12+005699999V0201801N01231220001CN0100001N9+02001+99999102431ADDGF101991011011012501999999MD1310021+9999
0000014030999991930082906004+59300+004883FM-12+005699999V02099999999999999999N9999999N9+99999+99999999999
0000014030999991930082918004+59300+004883FM-12+005699999V02099999999999999999N9999999N9+99999+99999999999
0000014030999991930083006004+59300+004883FM-12+005699999V02099999999999999999N9999999N9+99999+99999999999
0000014030999991930083018004+59300+004883FM-12+005699999V02099999999999999999N9999999N9+99999+99999999999
0075014030999991930083106004+59300+004883FM-12+005699999V0203601N01231007801CN0500001N9+01391+99999101561ADDAA199000691GF108991081061008001999999EQDQ01+000032APCTENQ02+000002APC3  
0000014030999991930083118004+59300+004883FM-12+005699999V02099999999999999999N9999999N9+99999+99999999999
0075014030999991930090106004+59300+004883FM-12+005699999V0202901N006719999999N0500001N9+01221+99999101971ADDAA199000691GF106991041081012501999999EQDQ01+000032APCTENQ02+000002APC3  
0000014030999991930090118004+59300+004883FM-12+005699999V02099999999999999999N9999999N9+99999+99999999999
0062014030999991930090206004+59300+004883FM-12+005699999V0202701N00461012301CN0500001N9+01221+99999101801ADDAA199002091AY131999GF106991061091012501999999MD1810021+9999
0054014030999991930090218004+59300+004883FM-12+005699999V0203601N01231220001CN0500001N9+01221+99999102081ADDAA199000591GF104991041021012501999999MD1310101+9999
0062014030999991930090306004+59300+004883FM-12+005699999V0203601N00671220001CN0500001N9+01111+99999102391ADDAA199000591AY131999GF104991041081012501999999MD1310101+9999
0062014030999991930090318004+59300+004883FM-12+005699999V0203601N009319999999N0500001N9+01001+99999102521ADDAA199001091AY131999GF106991999031012501999999MD1810041+9999
0075014030999991930090406004+59300+004883FM-12+005699999V0203601N00671220001CN0500001N9+01221+99999102451ADDAA199002091GF101991011011012501999999EQDQ01+000032APCTENQ02+000002APC3  
0043014030999991930090418004+59300+004883FM-12+005699999V0203601N00461220001CN0500001N9+01221+99999102211ADDGF102991001001999999999999MD1810141+9999
0064014030999991930090506004+59300+004883FM-12+005699999V0201801N002619999999N0500001N9+01221+99999102031ADDGF108991041041012501999999EQDQ01+000032APCTENQ02+000002APC3  
0043014030999991930090518004+59300+004883FM-12+005699999V0201601N00931012301CN0500001N9+01281+99999101911ADDGF108991061081012501999999MD1810081+9999
0054014030999991930090606004+59300+004883FM-12+005699999V0201401N01231015001CN0500001N9+01281+99999101751ADDAA199000391GF107991071051017501999999MD1810041+9999
0054014030999991930090618004+59300+004883FM-12+005699999V0201401N00671015001CN0500001N9+01281+99999101561ADDAA199001091GF108991081051017501999999MD1810081+9999
0029014030999991930090706004+59300+004883FM-12+005699999V0200901N00461015001CN0500001N9+01281+99999100911ADDGF107991071051017501999999
0000014030999991930090718004+59300+004883FM-12+005699999V02099999999999999999N9999999N9+99999+99999999999
0000014030999991930090806004+59300+004883FM-12+005699999V02099999999999999999N9999999N9+99999+99999999999
0054014030999991930090818004+59300+004883FM-12+005699999V0200901N006719999999N0500001N9+01221+99999101341ADDAA199000691GF108991021081008001999999MD1310081+9999
0054014030999991930090906004+59300+004883FM-12+005699999V0201101N00931012301CN0500001N9+01221+99999101581ADDAA199000391GF107991071071012501999999MD1310101+9999
0043014030999991930090918004+59300+004883FM-12+005699999V0201601N00261220001CN0500001N9+01221+99999101781ADDGF101991011011017501999999MD1310041+9999
0054014030999991930091006004+59300+004883FM-12+005699999V0200901N00461220001CN0500001N9+01111+99999102091ADDAA199008091GF101991001001999999999999MD1310121+9999
0043014030999991930091018004+59300+004883FM-12+005699999V0209999999999012301CN0500001N9+01281+99999102151ADDGF107991061071012501999999MD1310041+9999
0043014030999991930091106004+59300+004883FM-12+005699999V0200901N00461220001CN0500001N9+01111+99999102331ADDGF101991011011012501999999MD1310081+9999
0043014030999991930091118004+59300+004883FM-12+005699999V0209991C00001012301CN0500001N9+01221+99999102431ADDGF107991061081012501999999MD1310081+9999
0043014030999991930091206004+59300+004883FM-12+005699999V0200901N00671012301CN0500001N9+01221+99999102591ADDGF107991071051012501999999MD1310061+9999
0043014030999991930091218004+59300+004883FM-12+005699999V0201101N00931220001CN0500001N9+01281+99999102401ADDGF107991001001999999999999MD1810021+9999
0043014030999991930091306004+59300+004883FM-12+005699999V0200901N009319999999N0100001N9+01391+99999101911ADDGF108991021071012501999999MD1810121+9999
0054014030999991930091318004+59300+004883FM-12+005699999V0200901N012319999999N0200001N9+01391+99999101411ADDAA199000691GF108991021061008001999999MD1810161+9999
0054014030999991930091406004+59300+004883FM-12+005699999V0200701N00671015001CN0500001N9+01391+99999100991ADDAA199001091GF107991071071017501999999MD1810041+9999
0054014030999991930091418004+59300+004883FM-12+005699999V0200501N006719999999N0500001N9+01391+99999101081ADDAA199000691GF108991021061008001999999MD1310081+9999
0054014030999991930091506004+59300+004883FM-12+005699999V0200201N009319999999N0200001N9+01111+99999101001ADDAA199004091GF108991041091008001999999MD1810041+9999
0054014030999991930091518004+59300+004883FM-12+005699999V0203601N00261015001CN0500001N9+01281+99999101101ADDAA199001091GF106991061061017501999999MD1810041+9999
0064014030999991930091606004+59300+004883FM-12+005699999V0203601N00101220001CN0500001N9+01221+99999101121ADDGF102991001001999999999999EQDQ01+000032APCTENQ02+000002APC3  
0043014030999991930091618004+59300+004883FM-12+005699999V0203201N00261220001CN0500001N9+01281+99999100971ADDGF101991011011012501999999MD1810081+9999
0043014030999991930091706004+59300+004883FM-12+005699999V0203601N00261007801CN0200001N9+01281+99999100681ADDGF107991071051008001999999MD1810061+9999
0043014030999991930091718004+59300+004883FM-12+005699999V0203201N00101012301CN0500001N9+01221+99999100681ADDGF106991061051012501999999MD1310021+9999
0075014030999991930091806004+59300+004883FM-12+005699999V0201101N00671012301CN0500001N9+01221+99999100731ADDAA199000591GF107991071051012501999999EQDQ01+000032APCTENQ02+000002APC3  
0043014030999991930091818004+59300+004883FM-12+005699999V0200901N012319999999N0500001N9+01281+99999100381ADDGF108991041071012501999999MD1810021+9999
0054014030999991930091906004+59300+004883FM-12+005699999V0200901N01541012301CN0500001N9+01221+99999100491ADDAA199002091GF107991071081012501999999MD1310081+9999
0043014030999991930091918004+59300+004883FM-12+005699999V0201101N01541220001CN0500001N9+01221+99999100601ADDGF104991001001999999999999MD1810041+9999
0054014030999991930092006004+59300+004883FM-12+005699999V0201101N01541220001CN0500001N9+01221+99999099701ADDAA199002091GF108991001001999999999999MD1810201+9999
0043014030999991930092018004+59300+004883FM-12+005699999V0200901N012319999999N0500001N9+01281+99999099281ADDGF108991041081012501999999MD1810201+9999
0054014030999991930092106004+59300+004883FM-12+005699999V0200901N006719999999N0500001N9+01281+99999099201ADDAA199001091GF107991041081012501999999MD1310101+9999
0000014030999991930092118004+59300+004883FM-12+005699999V02099999999999999999N9999999N9+99999+99999999999
0054014030999991930092206004+59300+004883FM-12+005699999V0203601N00261012301CN0500001N9+01281+99999100901ADDAA199000391GF108991081081012501999999MD1310241+9999
0043014030999991930092218004+59300+004883FM-12+005699999V0203601N00101220001CN0500001N9+01111+99999101391ADDGF102991011071012501999999MD1310141+9999
0043014030999991930092306004+59300+004883FM-12+005699999V0201601N01231012301CN0500001N9+01281+99999101551ADDGF107991071051012501999999MD1810101+9999
0054014030999991930092318004+59300+004883FM-12+005699999V0201401N01541007801CN0040001N9+01281+99999100771ADDAA199002091GF108991081061008001999999MD1810161+9999
0060014030999991930092406004+59300+004883FM-12+005699999V0201801N01541004501CN0200001N9+01281+99999100551ADDAA199000391GF108991081051004501999999MD1810181+9999MW1101
0054014030999991930092418004+59300+004883FM-12+005699999V0202001N00931220001CN0200001N9+01221+99999100641ADDAA199001091GF104991041081008001999999MD1310081+9999
0043014030999991930092506004+59300+004883FM-12+005699999V0201801N00931007801CN0200001N9+01221+99999100171ADDGF107991071091008001999999MD1810121+9999
0062014030999991930092518004+59300+004883FM-12+005699999V0201601N00931007801CN0100001N9+01221+99999099941ADDAA199000391AY131999GF108991081081008001999999MD1810121+9999
0054014030999991930092606004+59300+004883FM-12+005699999V0200701N00261220001CN0500001N9+01221+99999100621ADDAA199004091GF106991001001999999999999MD1310321+9999
0043014030999991930092618004+59300+004883FM-12+005699999V0200501N00101015001CN0500001N9+01281+99999101511ADDGF106991061041017501999999MD1310361+9999
0043014030999991930092706004+59300+004883FM-12+005699999V0201101N004619999999N0500001N9+01221+99999102301ADDGF106991061041999999999999MD1310241+9999
0043014030999991930092718004+59300+004883FM-12+005699999V0203601N00671220001CN0500001N9+01111+99999102541ADDGF102991001001999999999999MD1310041+9999
0043014030999991930092806004+59300+004883FM-12+005699999V0203601N00461012301CN0500001N9+01111+99999102481ADDGF107991061051012501999999MD1310021+9999
0043014030999991930092818004+59300+004883FM-12+005699999V0203601N00931220001CN0500001N9+01111+99999102521ADDGF102991021051008001999999MD1310061+9999
0029014030999991930092906004+59300+004883FM-12+005699999V0203601N00461220001CN0500001N9+01111+99999102441ADDGF104991041051008001999999
0043014030999991930092918004+59300+004883FM-12+005699999V0203601N00461012301CN0500001N9+01111+99999102321ADDGF106991061051012501999999MD1810021+9999
0043014030999991930093006004+59300+004883FM-12+005699999V0203601N00931220001CN0500001N9+01221+99999101941ADDGF101991011021017501999999MD1810021+9999
0051014030999991930093018004+59300+004883FM-12+005699999V0203601N01901220001CN0500001N9+01001+99999101921ADDAY171999GF100991001001999999999999MD1310081+9999
0043014030999991930100106004+59300+004883FM-12+005699999V0203601N00461220001CN0500001N9+00891+99999102481ADDGF102991001001999999999999MD1310201+9999
0043014030999991930100118004+59300+004883FM-12+005699999V0203601N00931220001CN0500001N9+01001+99999102751ADDGF102991011011017501999999MD1310101+9999
0043014030999991930100206004+59300+004883FM-12+005699999V0201401N00101220001CN0500001N9+00721+99999103111ADDGF101991011011022501999999MD1310181+9999
0043014030999991930100218004+59300+004883FM-12+005699999V0203201N001019999999N0500001N9+00891+99999103061ADDGF106991021021017501999999MD1810101+9999
0062014030999991930100306004+59300+004883FM-12+005699999V0202901N00671007801CN0500001N9+00891+99999102681ADDAA199002091AY131999GF106991061031008001999999MD1810121+9999
0054014030999991930100318004+59300+004883FM-12+005699999V0203601N00101007801CN0200001N9+01001+99999102541ADDAA199000391GF108991081081008001999999MD1810081+9999
0043014030999991930100406004+59300+004883FM-12+005699999V0202001N00461012301CN0500001N9+00891+99999101601ADDGF108991081051012501999999MD1810301+9999
0062014030999991930100418004+59300+004883FM-12+005699999V0201401N00931007801CN0200001N9+00781+99999100471ADDAA199001091AY181999GF108991081081008001999999MD1810161+9999
0054014030999991930100506004+59300+004883FM-12+005699999V0201101N006719999999N0200001N9+00891+99999098901ADDAA199008091GF108991041061008001999999MD1810361+9999
0054014030999991930100518004+59300+004883FM-12+005699999V0201101N004619999999N0200001N9+01001+99999098441ADDAA199002091GF108991041061008001999999MD1810101+9999
0054014030999991930100606004+59300+004883FM-12+005699999V0200901N002619999999N0100001N9+00781+99999098261ADDAA199004091GF108991041061008001999999MD1810021+9999
0054014030999991930100618004+59300+004883FM-12+005699999V0201401N009319999999N0100001N9+00721+99999098741ADDAA199002091GF108991041061008001999999MD1310201+9999
0029014030999991930100706004+59300+004883FM-12+005699999V0201401N00461007801CN0500001N9+00221+99999099321ADDGF106991061051008001999999
0054014030999991930100718004+59300+004883FM-12+005699999V0201601N01541007801CN0500001N9+00781+99999099621ADDAA199000591GF108991081081008001999999MD1810081+9999
0054014030999991930100806004+59300+004883FM-12+005699999V0209991C00001007801CN0500001N9+00721+99999099161ADDAA199004091GF107991071091008001999999MD1810181+9999
0054014030999991930100818004+59300+004883FM-12+005699999V0200201N01231004501CN0100001N9+00721+99999097491ADDAA199009091GF108991081061004501999999MD1810301+9999
0060014030999991930100906004+59300+004883FM-12+005699999V0203401N02261007801CN0100001N9+00501+99999098271ADDAA199003091GF107991071091008001999999MD1310361+9999MW1891
0062014030999991930100918004+59300+004883FM-12+005699999V0203201N01901007801CN0100001N9+00721+99999099281ADDAA199002091AY191999GF106991061091008001999999MD1310381+9999
0062014030999991930101006004+59300+004883FM-12+005699999V0202901N00671007801CN0500001N9+00611+99999100241ADDAA199003091AY131999GF106991061091008001999999MD1310301+9999
0054014030999991930101018004+59300+004883FM-12+005699999V0202701N00261220001CN0500001N9+00611+99999100881ADDAA199000591GF102991021011017501999999MD1310241+9999
0054014030999991930101106004+59300+004883FM-12+005699999V0202301N00931007801CN0100001N9+01001+99999100441ADDAA199007091GF108991061061008001999999MD1810101+9999
0054014030999991930101118004+59300+004883FM-12+005699999V0202001N00931012301CN0100001N9+01001+99999100311ADDAA199000591GF107991071081012501999999MD1810061+9999
0054014030999991930101206004+59300+004883FM-12+005699999V0201801N01231007801CN0200001N9+01001+99999099611ADDAA199000691GF108991061091008001999999MD1810261+9999
0062014030999991930101218004+59300+004883FM-12+005699999V0202301N00931012301CN0200001N9+00891+99999099531ADDAA199003091AY131999GF107991071031012501999999MD1310041+9999
0000014030999991930101306004+59300+004883FM-12+005699999V02099999999999999999N9999999N9+99999+99999999999
0062014030999991930101318004+59300+004883FM-12+005699999V0202001N00461007801CN0100001N9+00781+99999100751ADDAA199001091AY171999GF108991081051008001999999MD1310121+9999
0054014030999991930101406004+59300+004883FM-12+005699999V0202501N01231007801CN0200001N9+01111+99999100701ADDAA199007091GF108991081051008001999999MD1310041+9999
0043014030999991930101418004+59300+004883FM-12+005699999V0201801N00931220001CN0200001N9+01111+99999100931ADDGF108991001001999999999999MD1810041+9999
0054014030999991930101506004+59300+004883FM-12+005699999V0202701N004619999999N0020001N9+01111+99999101031ADDAA199006091GF108991041061008001999999MD1310101+9999
0043014030999991930101518004+59300+004883FM-12+005699999V0201601N00931012301CN0100001N9+01281+99999100981ADDGF108991081051012501999999MD1810101+9999
0043014030999991930101606004+59300+004883FM-12+005699999V0201601N00931007801CN0500001N9+01281+99999100501ADDGF108991081081008001999999MD1810101+9999
0054014030999991930101618004+59300+004883FM-12+005699999V0201601N00671220001CN0200001N9+01111+99999100911ADDAA199005091GF102991021051008001999999MD1310201+9999
0043014030999991930101706004+59300+004883FM-12+005699999V0201801N012319999999N0040001N9+01221+99999100801ADDGF108991041061008001999999MD1810121+9999
0054014030999991930101718004+59300+004883FM-12+005699999V0201401N00461007801CN0100001N9+01111+99999101091ADDAA199001091GF108991081051008001999999MD1810141+9999
0054014030999991930101806004+59300+004883FM-12+005699999V0201801N01541007801CN0040001N9+01281+99999099691ADDAA199018091GF108991081061008001999999MD1810201+9999
0054014030999991930101818004+59300+004883FM-12+005699999V0202001N01231220001CN0200001N9+01001+99999100581ADDAA199000691GF104991041051008001999999MD1310221+9999
0043014030999991930101906004+59300+004883FM-12+005699999V0202001N00931220001CN0500001N9+01001+99999101221ADDGF104991041051012501999999MD1310241+9999
0043014030999991930101918004+59300+004883FM-12+005699999V0201601N01231220001CN0500001N9+01111+99999101291ADDGF104991041091012501999999MD1810101+9999
0054014030999991930102006004+59300+004883FM-12+005699999V0201401N01231007801CN0500001N9+01111+99999100311ADDAA199005091GF108991081051008001999999MD1810081+9999
0054014030999991930102018004+59300+004883FM-12+005699999V0201601N012319999999N9999999N9+01111+99999100331ADDAA199020091GF108991081061999999999999MD1810021+9999
0054014030999991930102106004+59300+004883FM-12+005699999V0201801N00671220001CN0200001N9+00891+99999100481ADDAA199010091GF102991021081008001999999MD1310061+9999
0062014030999991930102118004+59300+004883FM-12+005699999V0201401N00671007801CN0040001N9+00891+99999100331ADDAA199008091AY131999GF108991081061008001999999MD1810061+9999
0054014030999991930102206004+59300+004883FM-12+005699999V0201401N00931220001CN0500001N9+00781+99999100631ADDAA199000691GF102991011999017501999999MD1310081+9999
0062014030999991930102218004+59300+004883FM-12+005699999V0201601N00461007801CN0100001N9+00891+99999100661ADDAA199003091AY131999GF106991061061008001999999MD1810021+9999
0062014030999991930102306004+59300+004883FM-12+005699999V0201601N00931007801CN0200001N9+01001+99999099941ADDAA199002091AY171999GF108991061061008001999999MD1810161+9999
0054014030999991930102318004+59300+004883FM-12+005699999V0202701N004619999999N9999999N9+00721+99999099521ADDAA199010091GF108991081999999999999999MD1810121+9999
0062014030999991930102406004+59300+004883FM-12+005699999V0202701N00671220001CN0500001N9+00721+99999098951ADDAA199004091AY131999GF104991041031012501999999MD1810081+9999
0083014030999991930102418004+59300+004883FM-12+005699999V0202701N00931012301CN0200001N9+00611+99999098881ADDAA199003091AY131999GF106991061031012501999999EQDQ01+000032APCTENQ02+000002APC3  
0043014030999991930102506004+59300+004883FM-12+005699999V0202301N00931012301CN0500001N9+00611+99999099221ADDGF106991061091012501999999MD1310161+9999
0054014030999991930102518004+59300+004883FM-12+005699999V0201601N00461220001CN0500001N9+00611+99999099531ADDAA199010091GF102991021091012501999999MD1310061+9999
0054014030999991930102606004+59300+004883FM-12+005699999V0202901N00101220001CN0500001N9+00611+99999099771ADDAA199007091GF104991001001017501999999MD1310161+9999
0062014030999991930102618004+59300+004883FM-12+005699999V0202901N00101007801CN0500001N9+00721+99999100581ADDAA199001091AY171999GF106991061091008001999999MD1310261+9999
0054014030999991930102706004+59300+004883FM-12+005699999V0201101N00461220001CN0500001N9+00611+99999101091ADDAA199000391GF101991011021012501999999MD1310201+9999
0064014030999991930102718004+59300+004883FM-12+005699999V0203601N00101220001CN0500001N9+00611+99999101261ADDGF101991011011012501999999EQDQ01+000032APCTENQ02+000002APC3  
0043014030999991930102806004+59300+004883FM-12+005699999V0201801N006719999999N0500001N9+00721+99999100731ADDGF106991041051012501999999MD1810201+9999
0054014030999991930102818004+59300+004883FM-12+005699999V0202501N00461220001CN0500001N9+00781+99999099911ADDAA199008091GF104991041091012501999999MD1810101+9999
0064014030999991930102906004+59300+004883FM-12+005699999V0202701N00931012301CN0500001N9+00721+99999100091ADDGF108991061081012501999999EQDQ01+000032APCTENQ02+000002APC3  
0054014030999991930102918004+59300+004883FM-12+005699999V0202701N001019999999N0200001N9+00721+99999100151ADDAA199001091GF108991081999999999999999MD1310021+9999
