0057011060999991928010112004+67500+012067FM-12+001199999V0202001N012319999999N0500001N9+00281+99999102171ADDAY181999GF108991999999999999001001MD1710261+9999MW1801
0062011060999991928010206004+67500+012067FM-12+001199999V0201801N00931220001CN0200001N9+00281+99999100901ADDAA199002091AY121999GF101991999999017501999999MD1810461+9999
0108011060999991928010212004+67500+012067FM-12+001199999V0201601N009319999999N0100001N9+00111+99999100062ADDAY171999GF108991999011012501001001MD1810542+9999MW1681EQDQ01+000042SCOTLCQ02+100063APOSLPQ03+000542APC3  
0087011060999991928010306004+67500+012067FM-12+001199999V0202001N022619999999N0100001N9+00501+99999098781ADDAA199001091AY161999GF108991999011004501001001MD1310061+9999MW1601EQDQ01+000042SCOTLC
0057011060999991928010312004+67500+012067FM-12+001199999V0202301N01541004501CN0040001N9+00001+99999098951ADDAY161999GF108991081061004501999999MD1210201+9999MW1601
0087011060999991928010406004+67500+012067FM-12+001199999V0202301N004619999999N0200001N9+00111+99999099311ADDAA199000591AY161999GF108991999011004501001001MD1810201+9999MW1211EQDQ01+000042SCOTLC
0092011060999991928010412004+67500+012067FM-12+001199999V0201401N009319999999N0040001N9+00221+99999098601ADDAY161999GF108991999011008001001001MD1810542+9999MW1161EQDQ01+000042SCOTLCQ02+000542APC3  
0068011060999991928010506004+67500+012067FM-12+001199999V0201601N00931004501CN0040001N9+00221+99999097591ADDAA199000591AY171999GF108991081061004501999999MD1610061+9999MW1681
0072011060999991928010512004+67500+012067FM-12+001199999V0200901N00931220001CN0500001N9+00111+99999097601ADDAY111999GF101991011011017501001001EQDQ01+000032APCTENQ02+000002APC3  
0051011060999991928010606004+67500+012067FM-12+001199999V0200901N00461220001CN0500001N9+00001+99999097981ADDAY101999GF101991011011017501001001MD1310141+9999
0051011060999991928010612004+67500+012067FM-12+001199999V0200901N00461220001CN0500001N9+00001+99999098131ADDAY101999GF102991021011017501001021MD1310141+9999
0087011060999991928010706004+67500+012067FM-12+001199999V0202701N015419999999N0100001N9+00221+99999098731ADDAA199000691AY171999GF108991999011004501001001MD1310201+9999MW1681EQDQ01+000042SCOTLC
0051011060999991928010712004+67500+012067FM-12+001199999V0202701N00931075001CN0100001N9+00001+99999099331ADDAY121999GF108991041011012501001081MD1310341+9999
0000011060999991928010806004+67500+012067FM-12+001199999V0202001N004619999999N9999999N9-00281+99999097311
0051011060999991928010812004+67500+012067FM-12+001199999V0201101N009319999999N0500001N9+00221+99999097671ADDAY121999GF108991999999017501999999MD1810201+9999
0068011060999991928010906004+67500+012067FM-12+001199999V0201601N01541220001CN0200001N9+00281+99999097581ADDAA199001091AY171999GF104991041011008001001001MD1610061+9999MW1231
0076011060999991928010912004+67500+012067FM-12+001199999V0201601N012319999999N0200001N9+00281+99999097771ADDAY171999GF106991999011008001001001MD1310061+9999MW1231EQDQ01+000022SCOTLC
0083011060999991928011006004+67500+012067FM-12+001199999V0201801N01231220001CN0200001N9+00281+99999098561ADDAA199002091AY161999GF104991041011012501001001EQDQ01+000032APCTENQ02+000002APC3  
0051011060999991928011012004+67500+012067FM-12+001199999V0201801N01231030001CN0500001N9+00221+99999098671ADDAY121999GF108991021011017501021001MD1310061+9999
0051011060999991928011106004+67500+012067FM-12+001199999V0200901N012319999999N0500001N9+00111+99999097731ADDAY111999GF108991999999017501999999MD1710201+9999
0051011060999991928011112004+67500+012067FM-12+001199999V0200901N01231030001CN0200001N9+00111+99999097581ADDAY121999GF106991021011012501021001MD1710141+9999
0068011060999991928011206004+67500+012067FM-12+001199999V0200901N00671030001CN0200001N9+00001+99999098341ADDAA199001091AY171999GF108991041061004501021001MD1310261+9999MW1161
0057011060999991928011212004+67500+012067FM-12+001199999V0201401N01231002401CN0020001N9+00001+99999098731ADDAY171999GF108991081061002501999999MD1310261+9999MW1711
0062011060999991928011306004+67500+012067FM-12+001199999V0201801N00261220001CN0500001N9+00111+99999098591ADDAA199001091AY181999GF104991041011012501001001MD1810141+9999
0076011060999991928011312004+67500+012067FM-12+001199999V0209991C00001012301CN0500001N9+00111+99999098511ADDAY121999GF107991999011012501001001MD1810061+9999MW1161EQDQ01+000062SCOTLC
0051011060999991928011406004+67500+012067FM-12+001199999V0201401N00261220001CN0500001N9+00001+99999099171ADDAY101999GF100991001001999999001001MD1310261+9999
0051011060999991928011412004+67500+012067FM-12+001199999V0201601N00261220001CN0500001N9+00001+99999099431ADDAY101999GF102991021011017501001001MD1310201+9999
0068011060999991928011506004+67500+012067FM-12+001199999V0200701N00261220001CN0500001N9+00001+99999099841ADDAA199001091AY171999GF104991041011012501001001MD1310141+9999MW1231
0056011060999991928011512004+67500+012067FM-12+001199999V0203201N00461220001CN0500001N9+00111+99999999999ADDAY111999GF104991041011012501999999EQDQ01+000001APOSP 
0051011060999991928011606004+67500+012067FM-12+001199999V0200501N00461220001CN0500001N9-00111+99999100841ADDAY101999GF100991001001999999001001MD1310341+9999
0057011060999991928011612004+67500+012067FM-12+001199999V0203201N00101220001CN0500001N9+00001+99999101191ADDAY101999GF102991021061012501001001MD1310141+9999MW1161
0087011060999991928011706004+67500+012067FM-12+001199999V0209991C000019999999N0500001N9+00001+99999102261ADDAA199000691AY181999GF108991999051012501001001MD1310261+9999MW1231EQDQ01+000042SCOTLC
0051011060999991928011712004+67500+012067FM-12+001199999V0202501N00461012301CN0500001N9+00001+99999102561ADDAY121999GF108991061051012501021001MD1310141+9999
0051011060999991928011806004+67500+012067FM-12+001199999V0202301N00261030001CN0500001N9+00111+99999102701ADDAY121999GF108991041011012501021001MD1510001+9999
0051011060999991928011812004+67500+012067FM-12+001199999V0202001N00671030001CN0500001N9+00111+99999102741ADDAY121999GF108991041051012501021001MD1010001+9999
0051011060999991928011912004+67500+012067FM-12+001199999V0201101N00671220001CN0500001N9+00001+99999101841ADDAY101999GF102991999999017501999999MD1810261+9999
0062011060999991928012012004+67500+012067FM-12+001199999V0202001N01541007801CN0040001N9+00281+99999100831ADDAY161999GF108991081061008001999999MW1621EQDQ01+000002APC3  
0068011060999991928012106004+67500+012067FM-12+001199999V0202001N00931007801CN0040001N9+00391+99999100641ADDAA199001091AY161999GF107991071061008001001001MD1310141+9999MW1621
0051011060999991928012112004+67500+012067FM-12+001199999V0202001N015419999999N0040001N9+00391+99999100701ADDAY161999GF107991999999017501999999MD1990141+9999
0070011060999991928012212004+67500+012067FM-12+001199999V0209991C00001075001CN0040001N9+00501+99999099751ADDAY121999GF108991041011012501001081MD1210061+9999EQDQ01+002002WODIR 
0068011060999991928012306004+67500+012067FM-12+001199999V0202301N01231000151CN0100001N9+00391+99999100731ADDAA199000391AY181999GF107991061061000251021001MD1310261+9999MW1801
0057011060999991928012312004+67500+012067FM-12+001199999V0202001N01231012301CN0100001N9+00391+99999100831ADDAY181999GF108991061011012501001081MD1710061+9999MW1161
0081011060999991928012406004+67500+012067FM-12+001199999V0201801N009319999999N0200001N9+00281+99999099461ADDAA199000691AY161999GF106991999999017501999999MD1810602+9999EQDQ01+000602APC3  
0051011060999991928012412004+67500+012067FM-12+001199999V0201801N01231030001CN0200001N9+00221+99999098901ADDAY121999GF108991041051017501021001MD1810201+9999
0062011060999991928012506004+67500+012067FM-12+001199999V0201801N01231030001CN0500001N9+00111+99999097951ADDAA199060091AY121999GF108991041051012501031001MD1810141+9999
0070011060999991928012512004+67500+012067FM-12+001199999V0201601N01541220001CN0100001N9+00221+99999097841ADDAY121999GF101991999011012501021001MD1810061+9999EQDQ01+000072SCOTLC
0062011060999991928012706004+67500+012067FM-12+001199999V0201801N00261220001CN0500001N9+00391+99999099761ADDAA199000691AY171999GF101991999999017501999999MD1310141+9999
0057011060999991928012712004+67500+012067FM-12+001199999V0201801N00671075001CN0200001N9+00391+99999100161ADDAY121999GF107991021061012501001021MD1310201+9999MW1161
0105011060999991928012806004+67500+012067FM-12+001199999V0201401N00461220001CN0500001N9+00281+99999100461ADDAA199000691AY161999GF104991999001999999021001MW1211EQDQ01+000002SCOTLCQ02+000032APCTENQ03+000002APC3  
0051011060999991928012812004+67500+012067FM-12+001199999V0200901N00671220001CN0500001N9+00611+99999100471ADDAY111999GF101991011011017501001001MD1610061+9999
0072011060999991928012906004+67500+012067FM-12+001199999V0201401N00101220001CN0500001N9+00111+99999100301ADDAY111999GF102991021011017501001001EQDQ01+000042APCTENQ02+000142APC3  
0051011060999991928012912004+67500+012067FM-12+001199999V0200901N00261220001CN0500001N9+00111+99999100371ADDAY101999GF101991011011017501001001MD1710061+9999
0051011060999991928013006004+67500+012067FM-12+001199999V0200901N00931220001CN0500001N9+00001+99999100741ADDAY101999GF100991001001999999001001MD1990141+9999
0037011060999991928013012004+67500+012067FM-12+001199999V0202301N00671220001CN0500001N9+00001+99999100671ADDAY101999GF104991021051022501999999
0051011060999991928013106004+67500+012067FM-12+001199999V0201601N012319999999N0500001N9+00221+99999100271ADDAY121999GF108991001999022501999999MD1810201+9999
0051011060999991928013112004+67500+012067FM-12+001199999V0201601N015419999999N0500001N9+00221+99999100381ADDAY121999GF108991999999017501999999MD1810061+9999
0062011060999991928020106004+67500+012067FM-12+001199999V0201401N012319999999N0500001N9+00281+99999099331ADDAA199000691AY171999GF107991999999017501999999MD1810401+9999
0051011060999991928020112004+67500+012067FM-12+001199999V0201401N01541030001CN0500001N9+00281+99999098831ADDAY121999GF108991011011017501021001MD1810341+9999
0068011060999991928020206004+67500+012067FM-12+001199999V0202001N01231030001CN0200001N9+00281+99999097771ADDAA199000691AY181999GF108991021011012501021001MD1510061+9999MW1231
0051011060999991928020212004+67500+012067FM-12+001199999V0201601N01231075001CN0500001N9+00391+99999098121ADDAY111999GF106991021011012501001081MD1310061+9999
0068011060999991928020306004+67500+012067FM-12+001199999V0202001N01231075001CN0100001N9+00391+99999099131ADDAA199003091AY161999GF106991041061008001001081MD1310461+9999MW1161
0068011060999991928020406004+67500+012067FM-12+001199999V0201801N01231012301CN0100001N9+00221+99999100231ADDAA199002091AY161999GF108991061061012501021001MD1610141+9999MW1631
0094011060999991928020412004+67500+012067FM-12+001199999V0201801N00671220001CN0100001N9+00221+99999100261ADDAY181999GF104991999011012501001001MW1901EQDQ01+000022SCOTLCQ02+000032APCTENQ03+000002APC3  
0070011060999991928020506004+67500+012067FM-12+001199999V0201601N01541030001CN0200001N9+00221+99999099321ADDAY121999GF108991021011012501021001MD1810542+9999EQDQ01+000542APC3  
0057011060999991928020512004+67500+012067FM-12+001199999V0201801N01541007801CN0040001N9+00221+99999098841ADDAY171999GF108991081061008001999999MD1810401+9999MW1681
0068011060999991928020606004+67500+012067FM-12+001199999V0201801N00671220001CN0200001N9+00281+99999098631ADDAA199000691AY181999GF104991041011012501001001MD1810061+9999MW1831
0078011060999991928020612004+67500+012067FM-12+001199999V0202301N00671075001CN0100001N9+00281+99999098671ADDAY181999GF106991041061008001001021MW1801EQDQ01+000042APCTENQ02+000062APC3  
0068011060999991928020706004+67500+012067FM-12+001199999V0201801N00931030001CN0200001N9+00281+99999098331ADDAA199000691AY161999GF108991041061012501021001MD1810261+9999MW1601
0092011060999991928020712004+67500+012067FM-12+001199999V0201801N01541007801CN0040001N9+00281+99999097462ADDAY161999GF108991081061008001999999MD1810542+9999MW1621EQDQ01+097463APOSLPQ02+000542APC3  
0105011060999991928020806004+67500+012067FM-12+001199999V0202901N004619999999N0040001N9+00281+99999097981ADDAA199004091AY161999GF108991999011008001001001MW1621EQDQ01+000042SCOTLCQ02+000042APCTENQ03+000062APC3  
0076011060999991928020812004+67500+012067FM-12+001199999V0203201N01541030001CN0100001N9+00281+99999098531ADDAY161999GF107991041011012501021001MD1310542+9999MW1161EQDQ01+000542APC3  
0086011060999991928020906004+67500+012067FM-12+001199999V0200901N00931220001CN0500001N9+00111+99999097581ADDAY101999GF104991999001999999031001MD1810802+9999EQDQ01+000002SCOTLCQ02+000802APC3  
0051011060999991928020912004+67500+012067FM-12+001199999V0200501N01231075001CN0500001N9+00001+99999097031ADDAY121999GF106991021011017501001081MD1610261+9999
0087011060999991928021006004+67500+012067FM-12+001199999V0202701N009319999999N0200001N9+00111+99999097791ADDAA199000691AY181999GF106991999011017501001001MD1310201+9999MW1161EQDQ01+000042SCOTLC
0057011060999991928021012004+67500+012067FM-12+001199999V0202501N00931000601CN0010001N9+00001+99999098041ADDAY181999GF108991081061000751999999MD1310141+9999MW1851
0048011060999991928021106004+67500+012067FM-12+001199999V0202501N006719999999N0500001N9-00221+99999098131ADDAA199000391AY111999GF106991999999012501999999
0072011060999991928021112004+67500+012067FM-12+001199999V0202001N00461220001CN0500001N9-00111+99999098071ADDAY101999GF102991021011017501001001EQDQ01+000062APCTENQ02+000002APC3  
0057011060999991928021212004+67500+012067FM-12+001199999V0202501N00461012301CN0040001N9+00001+99999098711ADDAY171999GF108991061061012501001081MD1210061+9999MW1741
0062011060999991928021306004+67500+012067FM-12+001199999V0200901N00461220001CN0500001N9+00001+99999099131ADDAA199000391AY181999GF104991021011012501021001MD1310201+9999
0051011060999991928021312004+67500+012067FM-12+001199999V0200901N00461220001CN0500001N9+00001+99999099321ADDAY111999GF102991011011017501001021MD1310061+9999
0051011060999991928021406004+67500+012067FM-12+001199999V0201101N00671220001CN0500001N9-00111+99999099891ADDAY101999GF104991999999017501999999MD1310201+9999
0051011060999991928021412004+67500+012067FM-12+001199999V0200701N00931220001CN0500001N9+00001+99999100161ADDAY101999GF102991001001999999001021MD1310201+9999
0072011060999991928021506004+67500+012067FM-12+001199999V0200701N01231220001CN0500001N9-00221+99999100771ADDAY101999GF102991021011017501001001EQDQ01+000022APCTENQ02+000002APC3  
0051011060999991928021512004+67500+012067FM-12+001199999V0200901N01541220001CN0500001N9-00221+99999100611ADDAY111999GF101991011011017501001001MD1810141+9999
0070011060999991928021606004+67500+012067FM-12+001199999V0200901N01541220001CN0500001N9-00111+99999099501ADDAY121999GF108991999001999999021001MD1810201+9999EQDQ01+000002SCOTLC
0051011060999991928021612004+67500+012067FM-12+001199999V0200901N015419999999N0200001N9+00001+99999099321ADDAY121999GF108991999999017501999999MD1810141+9999
0105011060999991928021706004+67500+012067FM-12+001199999V0201601N01231220001CN0020001N9+00001+99999098921ADDAA199000391AY171999GF108991999001999999021001MW1731EQDQ01+000002SCOTLCQ02+000032APCTENQ03+000002APC3  
0057011060999991928021712004+67500+012067FM-12+001199999V0201601N01541007801CN0040001N9+00001+99999099151ADDAY171999GF108991081061008001999999MD1310141+9999MW1711
0068011060999991928021806004+67500+012067FM-12+001199999V0201801N01541004501CN0010001N9-00111+99999100191ADDAA199000591AY171999GF108991081061004501999999MD1310141+9999MW1711
0057011060999991928021812004+67500+012067FM-12+001199999V0201801N01541030001CN0040001N9+00001+99999100311ADDAY171999GF108991041061004501021001MD1310141+9999MW1711
0087011060999991928021906004+67500+012067FM-12+001199999V0202001N006719999999N0100001N9+00001+99999101131ADDAA199001091AY171999GF106991999011008001001001MD1310341+9999MW1161EQDQ01+000042SCOTLC
0070011060999991928021912004+67500+012067FM-12+001199999V0202501N006719999999N0500001N9+00281+99999101701ADDAY111999GF106991999011012501001001MD1310401+9999EQDQ01+000022SCOTLC
0051011060999991928022006004+67500+012067FM-12+001199999V0209991C00001030001CN0500001N9+00111+99999103261ADDAY111999GF108991041051017501021001MD1310201+9999
0051011060999991928022012004+67500+012067FM-12+001199999V0201601N00461075001CN0500001N9+00221+99999103281ADDAY111999GF106991041051017501001081MD1610061+9999
0068011060999991928022106004+67500+012067FM-12+001199999V0201801N00931004501CN0040001N9+00221+99999102951ADDAA199000691AY161999GF108991081061004501999999MD1810141+9999MW1601
0070011060999991928022112004+67500+012067FM-12+001199999V0201801N00931220001CN0500001N9+00281+99999102871ADDAY161999GF108991999001999999021001MD1610061+9999EQDQ01+000002SCOTLC
0068011060999991928022206004+67500+012067FM-12+001199999V0202001N01231030001CN0020001N9+00281+99999102071ADDAA199000691AY141999GF108991041051004501021001MD1610141+9999MW1511
0076011060999991928022212004+67500+012067FM-12+001199999V0202301N004619999999N0100001N9+00501+99999102331ADDAY161999GF108991999061004501001001MD1310261+9999MW1211EQDQ01+000042SCOTLC
0070011060999991928022306004+67500+012067FM-12+001199999V0202001N015419999999N0100001N9+00501+99999102471ADDAY121999GF108991999051008001001001MD1610141+9999EQDQ01+000042SCOTLC
0076011060999991928022312004+67500+012067FM-12+001199999V0202301N00931007801CN0040001N9+00611+99999102521ADDAY161999GF108991999061008001001001MD1310141+9999MW1601EQDQ01+000062SCOTLC
0070011060999991928022406004+67500+012067FM-12+001199999V0202301N012319999999N0100001N9+00501+99999102441ADDAY121999GF108991999051001501001001MD1810201+9999EQDQ01+000022SCOTLC
0057011060999991928022412004+67500+012067FM-12+001199999V0202301N01901030001CN0040001N9+00611+99999102381ADDAY121999GF108991021061012501021001MD1710061+9999MW1161
0068011060999991928022506004+67500+012067FM-12+001199999V0202001N01541030001CN0040001N9+00501+99999101621ADDAA199002091AY161999GF108991021061012501021001MD1810401+9999MW1641
0057011060999991928022512004+67500+012067FM-12+001199999V0202301N01541012301CN0040001N9+00501+99999101111ADDAY161999GF108991081061012501999999MD1810341+9999MW1631
0076011060999991928022612004+67500+012067FM-12+001199999V0202701N01231220001CN0200001N9+00281+99999102341ADDAY181999GF102991999011012501001001MD1310141+9999MW1231EQDQ01+000042SCOTLC
0099011060999991928022706004+67500+012067FM-12+001199999V0202301N00931220001CN0100001N9+00391+99999102671ADDAA199000691AY161999GF108991999001999999021001EQDQ01+000002SCOTLCQ02+000042APCTENQ03+000062APC3  
0072011060999991928022712004+67500+012067FM-12+001199999V0202301N00461012301CN0500001N9+00501+99999102731ADDAY161999GF108991081051012501999999EQDQ01+000022APCTENQ02+000002APC3  
0068011060999991928022806004+67500+012067FM-12+001199999V0202001N00931075001CN0040001N9+00501+99999102691ADDAA199000691AY161999GF108991041051004501001021MD1310061+9999MW1211
0070011060999991928022812004+67500+012067FM-12+001199999V0202001N006719999999N0020001N9+00501+99999102901ADDAY121999GF108991999051017501001001MD1310141+9999EQDQ01+000022SCOTLC
0048011060999991928022906004+67500+012067FM-12+001199999V0201801N00671220001CN0040001N9+00391+99999103221ADDAA199003091AY141999GF104991999001999999999091
0051011060999991928022912004+67500+012067FM-12+001199999V0201801N00261015001CN0100001N9+00501+99999103361ADDAY121999GF108991081051017501999999MD1210061+9999
