0070033020999991927010106004+53317-004617FM-12+000899999V0209991C00001220001CN0200001N9+00781+99999102331ADDAY101999GF104991041051012501001001MD1710061+9999EQDQ01+002502WODIR 
0070033020999991927010306004+53317-004617FM-12+000899999V0202701N00931220001CN0200001N9+00781+99999100771ADDAY161999GF102991999051008001001001MD1610141+9999EQDQ01+000062SCOTLC
0051033020999991927010406004+53317-004617FM-12+000899999V0202901N01541007801CN0200001N9+00501+99999101071ADDAY101999GF106991061051008001001001MD1310141+9999
0057033020999991927010506004+53317-004617FM-12+000899999V0202501N00931002401CN0200001N9+00721+99999101321ADDAY161999GF107991071051002501001001MD1810461+9999MW1211
0062033020999991927010606004+53317-004617FM-12+000899999V0202701N01231220001CN0200001N9+00891+99999100771ADDAA199003091AY161999GF102991021051008001001001MD1510141+9999
0072033020999991927010706004+53317-004617FM-12+000899999V0202901N01231220001CN0100001N9+00611+99999100461ADDAY101999GF102991021051008001001001EQDQ01+000032APCTENQ02+000002APC3  
0068033020999991927010806004+53317-004617FM-12+000899999V0202301N00261002401CN0040001N9+00891+99999102121ADDAA199000691AY161999GF108991081061002501999999MD1310261+9999MW1601
0051033020999991927010906004+53317-004617FM-12+000899999V0202501N00461004501CN0100001N9+00891+99999102241ADDAY121999GF108991081051004501999999MD1310141+9999
0094033020999991927011006004+53317-004617FM-12+000899999V0202701N009319999999N0200001N9+00891+99999103241ADDAY161999GF107991999051004501001001MW1211EQDQ01+000042SCOTLCQ02+000022APCTENQ03+000002APC3  
0051033020999991927011106004+53317-004617FM-12+000899999V0202001N00461030001CN0100001N9+00781+99999102611ADDAY111999GF106991041051008001031001MD1710261+9999
0062033020999991927011206004+53317-004617FM-12+000899999V0202001N00461220001CN0100001N9+00721+99999101661ADDAA199000391AY101999GF104991041051008001001001MD1710341+9999
0051033020999991927011306004+53317-004617FM-12+000899999V0202701N01541220001CN0100001N9+00391+99999098911ADDAY101999GF102991021051008001001001MD1710201+9999
0051033020999991927011406004+53317-004617FM-12+000899999V0202901N01231075001CN0200001N9+00721+99999098631ADDAY181999GF106991041051008001001081MD1710061+9999
0072033020999991927011506004+53317-004617FM-12+000899999V0202501N00671220001CN0200001N9+00501+99999098631ADDAY101999GF104991041051008001001001EQDQ01+000032APCTENQ02+000002APC3  
0072033020999991927011606004+53317-004617FM-12+000899999V0202701N00931007801CN0200001N9+00611+99999099471ADDAY111999GF107991071051008001001001EQDQ01+000032APCTENQ02+000002APC3  
0089033020999991927011706004+53317-004617FM-12+000899999V0203601N00461004501CN0040001N9+00221+99999099671ADDAA199013091AY171999GF107991071061004501001001MW1681EQDQ01+000022APCTENQ02+000002APC3  
0081033020999991927011806004+53317-004617FM-12+000899999V0203601N00931220001CN0040001N9+00501+99999100871ADDAA199000691AY101999GF102991999051004501001001MD1310341+9999EQDQ01+000012SCOTLC
0051033020999991927011906004+53317-004617FM-12+000899999V0203601N00931220001CN0200001N9+00501+99999101871ADDAY101999GF102991011011008001001021MD1310061+9999
0062033020999991927012006004+53317-004617FM-12+000899999V0201401N00671075001CN0200001N9+00281+99999100991ADDAA199000691AY111999GF106991011051002501001081MD1810401+9999
0062033020999991927012106004+53317-004617FM-12+000899999V0202901N01231007801CN0200001N9+00391+99999100241ADDAA199009091AY181999GF107991071051008001001001MD1710061+9999
0068033020999991927012206004+53317-004617FM-12+000899999V0201801N00671004501CN0040001N9+00221+99999099971ADDAA199006091AY161999GF108991081061004501999999MD1810341+9999MW1681
0078033020999991927012306004+53317-004617FM-12+000899999V0202301N00461220001CN0200001N9+00611+99999100231ADDAY101999GF102991011051012501001081MW1211EQDQ01+000032APCTENQ02+000002APC3  
0051033020999991927012406004+53317-004617FM-12+000899999V0201601N00931075001CN0100001N9+00721+99999100561ADDAY111999GF106991021051002501001081MD1990201+9999
0089033020999991927012506004+53317-004617FM-12+000899999V0201801N00671002401CN0040001N9+00781+99999100081ADDAA199014091AY161999GF108991081061002501999999MW1601EQDQ01+000042APCTENQ02+000062APC3  
0068033020999991927012606004+53317-004617FM-12+000899999V0201601N00931004501CN0040001N9+00781+99999100341ADDAA199000391AY111999GF108991061061004501021001MD1810461+9999MW1621
0099033020999991927012706004+53317-004617FM-12+000899999V0202301N012319999999N0100001N9+00721+99999100261ADDAA199000591AY141999GF106991999051004501001001EQDQ01+000042SCOTLCQ02+000042APCTENQ03+000342APC3  
0070033020999991927012806004+53317-004617FM-12+000899999V0202001N01541007801CN0100001N9+00891+99999100311ADDAY111999GF108991081051008001999999MD1810542+9999EQDQ01+000542APC3  
0062033020999991927012906004+53317-004617FM-12+000899999V0202701N01901004501CN0200001N9+00391+99999097901ADDAA199008091AY161999GF107991071051004501001001MD1510201+9999
0051033020999991927013006004+53317-004617FM-12+000899999V0202301N00931220001CN0200001N9+00611+99999098931ADDAY101999GF102991021051008001001001MD1990061+9999
0051033020999991927013106004+53317-004617FM-12+000899999V0202501N01231030001CN0200001N9+00611+99999999999ADDAY101999GF106991021051008001021001MD1310061+9999
0062033020999991927020106004+53317-004617FM-12+000899999V0202701N00671220001CN0200001N9+00501+99999100071ADDAA199000691AY101999GF101991011011012501001001MD1310201+9999
0051033020999991927020206004+53317-004617FM-12+000899999V0200901N00261220001CN0500001N9+00281+99999101401ADDAY101999GF101991011051012501001001MD1310341+9999
0068033020999991927020306004+53317-004617FM-12+000899999V0202001N01231002401CN0040001N9+00781+99999101901ADDAA199002091AY161999GF108991081061002501999999MD1710141+9999MW1511
0062033020999991927020406004+53317-004617FM-12+000899999V0202701N00931220001CN0200001N9+00721+99999102551ADDAA199002091AY111999GF101991011011012501001001MD1310401+9999
0087033020999991927020506004+53317-004617FM-12+000899999V0201601N009319999999N0100001N9+00611+99999102561ADDAA199000691AY161999GF108991999061002501001001MD1810261+9999MW1211EQDQ01+000022SCOTLC
0070033020999991927020606004+53317-004617FM-12+000899999V0203201N00931220001CN0200001N9+00721+99999103131ADDAY101999GF101991999091012501001021MD1310201+9999EQDQ01+000062SCOTLC
0070033020999991927020706004+53317-004617FM-12+000899999V0202901N00671002401CN0100001N9+00611+99999103511ADDAY111999GF107991999051002501001001MD1810061+9999EQDQ01+000062SCOTLC
0083033020999991927020806004+53317-004617FM-12+000899999V0201101N00461220001CN0100001N9+00281+99999103221ADDAA199000591AY101999GF100991001001999999001001EQDQ01+000032APCTENQ02+000002APC3  
0072033020999991927021006004+53317-004617FM-12+000899999V0201401N00671220001CN0100001N9+00111+99999103301ADDAY101999GF101991011051012501001001EQDQ01+000032APCTENQ02+000002APC3  
0051033020999991927021106004+53317-004617FM-12+000899999V0201401N00261012301CN0040001N9+00221+99999103141ADDAY111999GF107991071051012501001001MD1810061+9999
0051033020999991927021206004+53317-004617FM-12+000899999V0209991C00001220001CN0020001N9+00001+99999102691ADDAY101999GF102991001001999999001021MD1810141+9999
0072033020999991927021306004+53317-004617FM-12+000899999V0201601N00101220001CN0020001N9-00111+99999102481ADDAY101999GF101991001001999999001021EQDQ01+000022APCTENQ02+000002APC3  
0068033020999991927021406004+53317-004617FM-12+000899999V0202001N00261002401CN0040001N9+00721+99999103101ADDAA199000391AY161999GF108991081051002501999999MD1310201+9999MW1501
0057033020999991927021506004+53317-004617FM-12+000899999V0201801N00671001501CN0010001N9+00721+99999103201ADDAY141999GF108991081051001501999999MD1810061+9999MW1451
0068033020999991927021606004+53317-004617FM-12+000899999V0202001N00261000151CN0002001N9+00611+99999103071ADDAA199000691AY141999GF108991081051000251999999MD1810061+9999MW1451
0051033020999991927021706004+53317-004617FM-12+000899999V0202301N00261002401CN0040001N9+00721+99999102841ADDAY111999GF108991081051002501999999MD1410001+9999
0072033020999991927021806004+53317-004617FM-12+000899999V0200201N00461220001CN0100001N9+00611+99999999999ADDAY111999GF106991001001999999031081EQDQ01+000022APCTENQ02+000002APC3  
0051033020999991927021906004+53317-004617FM-12+000899999V0201801N00461012301CN0500001N9+00501+99999102561ADDAY111999GF107991071051012501001001MD1710061+9999
0087033020999991927022106004+53317-004617FM-12+000899999V0202001N006719999999N0100001N9+00721+99999100161ADDAA199005091AY161999GF107991999051002501001001MD1810201+9999MW1211EQDQ01+000012SCOTLC
0087033020999991927022206004+53317-004617FM-12+000899999V0201601N006719999999N0200001N9+00721+99999098841ADDAA199003091AY181999GF107991999061008001001001MD1810201+9999MW1801EQDQ01+000042SCOTLC
0068033020999991927022306004+53317-004617FM-12+000899999V0201801N00671004501CN0100001N9+00611+99999098121ADDAA199001091AY161999GF108991081061004501999999MD1510061+9999MW1631
0062033020999991927022406004+53317-004617FM-12+000899999V0201601N00461220001CN0500001N9+00281+99999099111ADDAA199000591AY101999GF102991011011008001021001MD1310061+9999
0051033020999991927022506004+53317-004617FM-12+000899999V0200901N00461007801CN0500001N9+00391+99999099321ADDAY101999GF107991071051008001001001MD1810141+9999
0070033020999991927022606004+53317-004617FM-12+000899999V0202001N006719999999N0100001N9+00781+99999099461ADDAY111999GF106991999051002501001001MD1310061+9999EQDQ01+000042SCOTLC
0078033020999991927022706004+53317-004617FM-12+000899999V0201601N00671001501CN0040001N9+00781+99999098121ADDAY161999GF108991081061001501999999MW1601EQDQ01+000042APCTENQ02+000062APC3  
0068033020999991927022806004+53317-004617FM-12+000899999V0201601N00671004501CN0100001N9+00891+99999099031ADDAA199008091AY161999GF108991081061004501999999MD1810261+9999MW1601
0072033020999991927060106004+53317-004617FM-12+000899999V0203201N00101220001CN9999999N9+01111+99999100521ADDAY101999GF104991041051017501001001EQDQ01+000072APCTENQ02+000002APC3  
0070033020999991927060206004+53317-004617FM-12+000899999V0203201N001019999999N0040001N9+01111+99999101131ADDAY111999GF107991999051012501001001MD1310141+9999EQDQ01+000012SCOTLC
0051033020999991927060306004+53317-004617FM-12+000899999V0202701N00671220001CN0200001N9+01111+99999101751ADDAY101999GF102991011011012501001021MD1310061+9999
0070033020999991927060406004+53317-004617FM-12+000899999V0202501N006719999999N0200001N9+00891+99999101871ADDAY111999GF107991999051004501001001MD1410001+9999EQDQ01+000022SCOTLC
0051033020999991927060506004+53317-004617FM-12+000899999V0202901N00461030001CN0200001N9+01111+99999101441ADDAY101999GF106991011091008001021001MD1710061+9999
0076033020999991927060606004+53317-004617FM-12+000899999V0202901N009319999999N0100001N9+01111+99999101281ADDAY111999GF107991999061008001001001MD1310141+9999MW1801EQDQ01+000042SCOTLC
0070033020999991927060806004+53317-004617FM-12+000899999V0203201N004619999999N0200001N9+01001+99999101361ADDAY101999GF107991999011008001001001MD1310261+9999EQDQ01+000012SCOTLC
0051033020999991927060906004+53317-004617FM-12+000899999V0203401N00461075001CN0200001N9+01001+99999101971ADDAY101999GF106991021011012501001081MD1310141+9999
0072033020999991927061306004+53317-004617FM-12+000899999V0203401N00101220001CN0200001N9+01221+99999101771ADDAY101999GF101991011051017501001001EQDQ01+000022APCTENQ02+000002APC3  
0068033020999991927061706004+53317-004617FM-12+000899999V0202001N00671001501CN0040001N9+01221+99999100201ADDAA199017091AY161999GF107991071051001501001001MD1510141+9999MW1211
0083033020999991927061806004+53317-004617FM-12+000899999V0202301N00671021001CN0100001N9+01281+99999100631ADDAA199000591AY101999GF106991061051022501001001EQDQ01+000022APCTENQ02+000002APC3  
0051033020999991927061906004+53317-004617FM-12+000899999V0202701N01231220001CN0100001N9+01221+99999100301ADDAY101999GF101991011011004501001001MD1610201+9999
0062033020999991927062006004+53317-004617FM-12+000899999V0202701N00931012301CN0200001N9+01281+99999101671ADDAA199001091AY181999GF107991071051012501001001MD1310201+9999
0062033020999991927062106004+53317-004617FM-12+000899999V0202001N00931030001CN0100001N9+01221+99999101261ADDAA199002091AY161999GF107991041051012501031001MD1210061+9999
0051033020999991927062206004+53317-004617FM-12+000899999V0202901N00671220001CN0200001N9+01111+99999102271ADDAY101999GF102991011011004501001081MD1310201+9999
0062033020999991927062306004+53317-004617FM-12+000899999V0202501N00931030001CN0200001N9+01111+99999101411ADDAA199001091AY101999GF106991041051004501031001MD1410001+9999
0062033020999991927062406004+53317-004617FM-12+000899999V0202701N00931220001CN0200001N9+01221+99999100371ADDAA199013091AY161999GF104991021011004501031001MD1510061+9999
0051033020999991927062506004+53317-004617FM-12+000899999V0202501N00671030001CN0200001N9+01111+99999101431ADDAY101999GF108991011051004501021001MD1810061+9999
0068033020999991927062706004+53317-004617FM-12+000899999V0203201N01231002401CN0100001N9+01111+99999100701ADDAA199000391AY161999GF108991081061002501999999MD1310061+9999MW1601
0083033020999991927062806004+53317-004617FM-12+000899999V0202901N00671004501CN0200001N9+01111+99999101101ADDAA199000691AY111999GF107991071051004501001001EQDQ01+000042APCTENQ02+000062APC3  
0072033020999991927070306004+53317-004617FM-12+000899999V0202001N00461075001CN0100001N9+01281+99999100561ADDAY111999GF107991041051002501001021EQDQ01+000072APCTENQ02+000002APC3  
0051033020999991927071006004+53317-004617FM-12+000899999V0203401N00461030001CN0040001N9+01281+99999101261ADDAY101999GF106991041051001501031001MD1310141+9999
0051033020999991927071106004+53317-004617FM-12+000899999V0203401N00671000601CN0020001N9+01221+99999101701ADDAY121999GF108991081051000751999999MD1310061+9999
0089033020999991927071206004+53317-004617FM-12+000899999V0203201N00261001501CN0010001N9+01281+99999101571ADDAA199001091AY161999GF108991081061001501999999MW1611EQDQ01+000032APCTENQ02+000002APC3  
0083033020999991927071806004+53317-004617FM-12+000899999V0202001N00101220001CN0100001N9+01501+99999102101ADDAA199000691AY101999GF102991021051012501001001EQDQ01+000032APCTENQ02+000002APC3  
0062033020999991927072006004+53317-004617FM-12+000899999V0201601N00261004501CN0040001N9+01611+99999101901ADDAA199000691AY121999GF108991081051004501999999MD1610061+9999
0068033020999991927072106004+53317-004617FM-12+000899999V0201801N00261002401CN0040001N9+01391+99999100951ADDAA199000691AY161999GF108991081061002501999999MD1990201+9999MW1501
0068033020999991927072206004+53317-004617FM-12+000899999V0202001N00671002401CN0020001N9+01281+99999100231ADDAA199000591AY161999GF108991081061002501999999MD1810261+9999MW1511
0089033020999991927072306004+53317-004617FM-12+000899999V0202501N00461004501CN0040001N9+01391+99999100331ADDAA199001091AY161999GF108991081061004501999999MW1211EQDQ01+000042APCTENQ02+000062APC3  
0078033020999991927072406004+53317-004617FM-12+000899999V0202301N00461002401CN0020001N9+01391+99999101281ADDAY161999GF108991081061002501999999MW1521EQDQ01+000032APCTENQ02+000002APC3  
0088033020999991927072506004+53317-004617FM-12+000899999V0202301N001019999999N0100001N9+01391+99999101541ADDAY111999GF108991999051004501001001EQDQ01+000022SCOTLCQ02+000042APCTENQ03+000062APC3  
0088033020999991927072906004+53317-004617FM-12+000899999V0201601N00671007801CN0200001N9+01391+99999100561ADDAY111999GF107991999051008001001001EQDQ01+000062SCOTLCQ02+000032APCTENQ03+000002APC3  
0076033020999991927073106004+53317-004617FM-12+000899999V0202001N006719999999N0000001N9+01501+99999101041ADDAY181999GF107991999011008001001001MD1310141+9999MW1801EQDQ01+000012SCOTLC
0072033020999991927080106004+53317-004617FM-12+000899999V0202001N00671220001CN0100001N9+01391+99999101181ADDAY101999GF104991041051002501001001EQDQ01+000032APCTENQ02+000002APC3  
0062033020999991927080206004+53317-004617FM-12+000899999V0202001N00461075001CN0200001N9+01391+99999101751ADDAA199000691AY101999GF106991041051012501001091MD1210201+9999
0070033020999991927080306004+53317-004617FM-12+000899999V0202001N00461007801CN0100001N9+01391+99999102531ADDAY111999GF107991999051008001001001MD1310141+9999EQDQ01+000062SCOTLC
0070033020999991927081006004+53317-004617FM-12+000899999V0201601N006719999999N0200001N9+01391+99999100331ADDAY101999GF106991999051002501001001MD1010001+9999EQDQ01+000012SCOTLC
0051033020999991927081106004+53317-004617FM-12+000899999V0202001N00461075001CN0200001N9+01391+99999100661ADDAY101999GF107991041051012501001091MD1310061+9999
0051033020999991927081306004+53317-004617FM-12+000899999V0201601N00461220001CN0100001N9+01611+99999100831ADDAY101999GF102991011051002501031001MD1210061+9999
0057033020999991927081406004+53317-004617FM-12+000899999V0202001N00461001501CN0040001N9+01501+99999100261ADDAY161999GF108991081061001501999999MD1810061+9999MW1631
0070033020999991927081506004+53317-004617FM-12+000899999V0202001N004619999999N0100001N9+01391+99999099901ADDAY111999GF106991999051002501001001MD1610141+9999EQDQ01+000042SCOTLC
0057033020999991927081606004+53317-004617FM-12+000899999V0203201N00931002401CN0040001N9+01281+99999100661ADDAY161999GF108991081061002501999999MD1310141+9999MW1631
0076033020999991927081906004+53317-004617FM-12+000899999V0203401N009319999999N0100001N9+01391+99999100701ADDAY161999GF107991999051008001001001MD1210201+9999MW1801EQDQ01+000022SCOTLC
0062033020999991927082106004+53317-004617FM-12+000899999V0202001N006719999999N0100001N9+01391+99999099631ADDAA199000591AY111999GF199999041999002501999999MD1710061+9999
0051033020999991927082306004+53317-004617FM-12+000899999V0202701N00671002401CN0200001N9+01281+99999100431ADDAY111999GF107991061051002501021001MD1210141+9999
0057033020999991927082406004+53317-004617FM-12+000899999V0203201N00461002401CN0040001N9+01281+99999101041ADDAY161999GF107991071061002501001001MD1210061+9999MW1601
0070033020999991927082506004+53317-004617FM-12+000899999V0203401N006719999999N0200001N9+01391+99999101901ADDAY111999GF106991999091012501001001MD1310261+9999EQDQ01+000012SCOTLC
0051033020999991927082606004+53317-004617FM-12+000899999V0202301N00671030001CN0200001N9+01391+99999102161ADDAY111999GF106991041051008001021001MD1510001+9999
0051033020999991927082706004+53317-004617FM-12+000899999V0201601N01231004501CN0100001N9+01501+99999101231ADDAY111999GF107991061051004501021001MD1710141+9999
0078033020999991927082806004+53317-004617FM-12+000899999V0202001N01231001501CN0020001N9+01391+99999100911ADDAY161999GF108991081061001501999999MW1631EQDQ01+000062APCTENQ02+000002APC3  
0051033020999991927082906004+53317-004617FM-12+000899999V0202501N00461220001CN0100001N9+01281+99999101571ADDAY101999GF101991011011012501001001MD1310261+9999
0051033020999991927090106004+53317-004617FM-12+000899999V0201601N00461220001CN0100001N9+01501+99999101901ADDAY101999GF102991011051004501001021MD1210061+9999
0051033020999991927090206004+53317-004617FM-12+000899999V0209991C00001220001CN0040001N9+01281+99999102271ADDAY101999GF104991011011008001001021MD1310141+9999
0072033020999991927090306004+53317-004617FM-12+000899999V0201401N00101220001CN0100001N9+01111+99999102371ADDAY141999GF102991021051017501001021EQDQ01+000022APCTENQ02+000002APC3  
0072033020999991927090406004+53317-004617FM-12+000899999V0209991C00001220001CN0100001N9+01391+99999102041ADDAY101999GF101991011011017501001001EQDQ01+000032APCTENQ02+000002APC3  
0051033020999991927090506004+53317-004617FM-12+000899999V0203601N00101012301CN0020001N9+01281+99999101501ADDAY101999GF106991061051012501001001MD1410001+9999
0051033020999991927090606004+53317-004617FM-12+000899999V0201801N00101012301CN0020001N9+01501+99999101201ADDAY111999GF108991081051012501999999MD1410001+9999
0070033020999991927090706004+53317-004617FM-12+000899999V0202701N009319999999N0100001N9+01391+99999101531ADDAY111999GF108991999051002501001001MD1310261+9999EQDQ01+000042SCOTLC
0070033020999991927090906004+53317-004617FM-12+000899999V0202701N00931004501CN0200001N9+01391+99999100771ADDAY111999GF107991999051004501001001MD1210141+9999EQDQ01+000062SCOTLC
0051033020999991927091006004+53317-004617FM-12+000899999V0202701N00671030001CN0200001N9+01281+99999100591ADDAY111999GF106991041011012501031001MD1610061+9999
0076033020999991927091106004+53317-004617FM-12+000899999V0203601N009319999999N0200001N9+01281+99999100931ADDAY181999GF107991999091012501001001MD1310261+9999MW1211EQDQ01+000022SCOTLC
0068033020999991927091206004+53317-004617FM-12+000899999V0203401N00931030001CN0200001N9+01221+99999101911ADDAA199000691AY161999GF107991041091012501021001MD1210261+9999MW1601
0068033020999991927091306004+53317-004617FM-12+000899999V0202001N00461001501CN0010001N9+01281+99999101371ADDAA199005091AY161999GF108991081061001501999999MD1810201+9999MW1631
0067033020999991927091406004+53317-004617FM-12+000899999V0202901N004619999999N0200001N9+01281+99999100861ADDAA199000691AY111999GF107991999011012501001001EQDQ01+000042SCOTLC
0083033020999991927091506004+53317-004617FM-12+000899999V0200501N01541030001CN0200001N9+01281+99999100801ADDAA199000591AY161999GF107991041011008001021001EQDQ01+000042APCTENQ02+000062APC3  
0062033020999991927091606004+53317-004617FM-12+000899999V0203401N00461220001CN0200001N9+01221+99999100641ADDAA199000691AY101999GF104991011011012501031001MD1710061+9999
0081033020999991927091706004+53317-004617FM-12+000899999V0203201N006719999999N0200001N9+01221+99999100301ADDAA199004091AY111999GF106991999091008001001001MD1210261+9999EQDQ01+000022SCOTLC
0083033020999991927092106004+53317-004617FM-12+000899999V0202001N01231001501CN0040001N9+01501+99999099871ADDAA199003091AY161999GF108991081051001501999999EQDQ01+000082APCTENQ02+000002APC3  
0081033020999991927092206004+53317-004617FM-12+000899999V0202501N006719999999N0100001N9+01281+99999099141ADDAA199002091AY111999GF108991999051004501001001MD1610061+9999EQDQ01+000042SCOTLC
0099033020999991927092306004+53317-004617FM-12+000899999V0202901N009319999999N0200001N9+01001+99999099281ADDAA199001091AY101999GF106991999051008001001001EQDQ01+000022SCOTLCQ02+000032APCTENQ03+000002APC3  
0105033020999991927092406004+53317-004617FM-12+000899999V0202901N01231004501CN0100001N9+01111+99999098391ADDAA199003091AY181999GF108991999061004501001001MW1601EQDQ01+000062SCOTLCQ02+000032APCTENQ03+000002APC3  
0057033020999991927092506004+53317-004617FM-12+000899999V0203201N00671012301CN0200001N9+01111+99999098921ADDAY111999GF107991071051012501001001MD1310141+9999MW1621
0051033020999991927092606004+53317-004617FM-12+000899999V0202701N00931220001CN0200001N9+00891+99999099971ADDAY101999GF104991041011004501001001MD1310201+9999
0083033020999991927092806004+53317-004617FM-12+000899999V0202301N00931030001CN0200001N9+01221+99999101861ADDAA199077091AY101999GF107991021011008001021001EQDQ01+000072APCTENQ02+000002APC3  
0068033020999991927092906004+53317-004617FM-12+000899999V0202901N00931002401CN0100001N9+01001+99999100101ADDAA199024091AY161999GF108991061061002501021001MD1510201+9999MW1631
0051033020999991927093006004+53317-004617FM-12+000899999V0202701N00931030001CN0200001N9+01111+99999101181ADDAY101999GF107991021011012501031001MD1310201+9999
0068033020999991927100106004+53317-004617FM-12+000899999V0201801N01231004501CN0040001N9+01221+99999100481ADDAA199002091AY161999GF108991061061004501021001MD1710341+9999MW1631
0057033020999991927100206004+53317-004617FM-12+000899999V0202001N01231002401CN0040001N9+01501+99999099971ADDAY161999GF108991081051002501999999MD1710341+9999MW1501
0070033020999991927100306004+53317-004617FM-12+000899999V0203201N00261220001CN0200001N9+01111+99999102431ADDAY101999GF104991999051004501001001MD1210261+9999EQDQ01+000012SCOTLC
0051033020999991927100506004+53317-004617FM-12+000899999V0209991C00001021001CN0200001N9+00891+99999102991ADDAY101999GF107991071051022501001001MD1310061+9999
0062033020999991927100606004+53317-004617FM-12+000899999V0209991C00001220001CN0020001N9+01001+99999103141ADDAA199000691AY101999GF101991011051022501001001MD1510001+9999
0062033020999991927100706004+53317-004617FM-12+000899999V0202301N00101075001CN0020001N9+00891+99999102961ADDAA199000391AY101999GF106991011051002501001091MD1510001+9999
0062033020999991927100806004+53317-004617FM-12+000899999V0200701N00461220001CN0020001N9+01111+99999102921ADDAA199000691AY101999GF100991001001999999001001MD1210061+9999
0051033020999991927100906004+53317-004617FM-12+000899999V0209991C00001220001CN0040001N9+00391+99999103031ADDAY101999GF101991011051008001001001MD1310061+9999
0083033020999991927101006004+53317-004617FM-12+000899999V0200701N00101220001CN0020001N9+01001+99999102871ADDAA199000691AY141999GF101991001001999999001021EQDQ01+000062APCTENQ02+000002APC3  
0083033020999991927101106004+53317-004617FM-12+000899999V0200501N00261220001CN0020001N9+01111+99999102771ADDAA199000691AY101999GF101991001001999999001021EQDQ01+000032APCTENQ02+000002APC3  
0051033020999991927101206004+53317-004617FM-12+000899999V0200501N00461001501CN0020001N9+00891+99999103091ADDAY121999GF108991081051001501999999MD1310061+9999
0081033020999991927101306004+53317-004617FM-12+000899999V0203601N001019999999N0040001N9+01221+99999102561ADDAA199000691AY111999GF108991999051012501001001MD1810141+9999EQDQ01+000022SCOTLC
0105033020999991927101406004+53317-004617FM-12+000899999V0200501N004619999999N0200001N9+01221+99999101721ADDAA199000691AY111999GF107991999061008001001001MW1501EQDQ01+000042SCOTLCQ02+000042APCTENQ03+000062APC3  
0072033020999991927101506004+53317-004617FM-12+000899999V0209991C00001007801CN0100001N9+01111+99999102021ADDAY111999GF108991081051008001999999EQDQ01+000042APCTENQ02+000062APC3  
0037033020999991927101806004+53317-004617FM-12+000899999V0202901N009319999999N0200001N9+01111+99999101231ADDAY101999GF106991999999012501999999
0062033020999991927101906004+53317-004617FM-12+000899999V0202501N00931007801CN0200001N9+01111+99999100631ADDAA199002091AY161999GF106991061011008001031001MD1810141+9999
0037033020999991927102006004+53317-004617FM-12+000899999V0203201N00931015001CN0200001N9+00781+99999101591ADDAY101999GF108991081011017501999999
0051033020999991927102106004+53317-004617FM-12+000899999V0200901N006719999999N0500001N9+00781+99999101621ADDAY111999GF107991999999008001999999MD1710141+9999
0068033020999991927102206004+53317-004617FM-12+000899999V0201401N00461002401CN0100001N9+01111+99999099231ADDAA199005091AY111999GF108991061061002501021001MD1810461+9999MW1611
0070033020999991927102306004+53317-004617FM-12+000899999V0203601N009319999999N0100001N9+01221+99999099941ADDAY101999GF107991999051008001001001MD1210341+9999EQDQ01+000022SCOTLC
0081033020999991927102406004+53317-004617FM-12+000899999V0202501N001019999999N0100001N9+00891+99999100931ADDAA199000691AY111999GF106991999051004501001001MD1210141+9999EQDQ01+000042SCOTLC
0089033020999991927102506004+53317-004617FM-12+000899999V0202001N01231002401CN0040001N9+01391+99999100471ADDAA199003091AY161999GF108991081061002501999999MW1601EQDQ01+000022APCTENQ02+000002APC3  
0062033020999991927102706004+53317-004617FM-12+000899999V0202701N00931075001CN0100001N9+01391+99999099981ADDAA199004091AY161999GF106991021011008001001021MD1310401+9999
0087033020999991927102806004+53317-004617FM-12+000899999V0201401N006719999999N0100001N9+01221+99999100471ADDAA199001091AY161999GF107991999061002501001001MD1710261+9999MW1611EQDQ01+000022SCOTLC
0051033020999991927110106004+53317-004617FM-12+000899999V0201801N00931075001CN0200001N9+01221+99999101711ADDAY101999GF107991041051004501001081MD1710201+9999
0081033020999991927110206004+53317-004617FM-12+000899999V0202001N00931001501CN0020001N9+01391+99999101471ADDAA199009091AY161999GF108991081051001501999999MD1210141+9999EQDQ01+000682PRSWM1
0068033020999991927110306004+53317-004617FM-12+000899999V0202001N01231000601CN0010001N9+01281+99999101531ADDAA199021091AY161999GF108991081051000751999999MD1710141+9999MW1521
0070033020999991927110406004+53317-004617FM-12+000899999V0202001N00931220001CN0100001N9+01281+99999101491ADDAY101999GF101991999051004501031001MD1710201+9999EQDQ01+000042SCOTLC
0051033020999991927110506004+53317-004617FM-12+000899999V0202301N00931012301CN0200001N9+00891+99999101371ADDAY111999GF108991081051012501999999MD1710401+9999
0087033020999991927110606004+53317-004617FM-12+000899999V0202501N006719999999N0200001N9+00721+99999099061ADDAA199000591AY111999GF106991999091008001001001MD1810201+9999MW1801EQDQ01+000022SCOTLC
0087033020999991927110706004+53317-004617FM-12+000899999V0203201N006719999999N0100001N9+00611+99999099181ADDAA199001091AY181999GF107991999061004501001001MD1210201+9999MW1601EQDQ01+000042SCOTLC
0068033020999991927110806004+53317-004617FM-12+000899999V0200201N00461002401CN0020001N9+00281+99999100371ADDAA199001091AY161999GF108991081061002501999999MD1210261+9999MW1651
0070033020999991927110906004+53317-004617FM-12+000899999V0203601N00671220001CN0200001N9+00611+99999100611ADDAY101999GF102991999011008001001001MD1710061+9999EQDQ01+000012SCOTLC
0081033020999991927111006004+53317-004617FM-12+000899999V0203601N012319999999N0200001N9+00721+99999100391ADDAA199002091AY181999GF106991999091008001001001MD1210201+9999EQDQ01+000042SCOTLC
0081033020999991927111106004+53317-004617FM-12+000899999V0203601N00931220001CN0200001N9+99999+99999101091ADDAA199000391AY111999GF104991041011012501001001MD1210201+9999EQDQ01 +04113ATOT  
0062033020999991927111206004+53317-004617FM-12+000899999V0200501N00931007801CN0200001N9+00611+99999101831ADDAA199002091AY111999GF107991071051008001001001MD1310341+9999
0051033020999991927111306004+53317-004617FM-12+000899999V0202901N00101012301CN0500001N9+00391+99999102871ADDAY111999GF107991071051012501001001MD1610061+9999
0081033020999991927111406004+53317-004617FM-12+000899999V0202301N009319999999N0200001N9+00781+99999102501ADDAA199000691AY101999GF106991999011012501001001MD1990061+9999EQDQ01+000022SCOTLC
0083033020999991927111506004+53317-004617FM-12+000899999V0202701N00261220001CN0100001N9+00221+99999101901ADDAA199001091AY101999GF102991021051004501001001EQDQ01+000032APCTENQ02+000002APC3  
0099033020999991927111606004+53317-004617FM-12+000899999V0202301N00671220001CN0100001N9+01111+99999101721ADDAA199000591AY101999GF102991999051004501001001EQDQ01+000012SCOTLCQ02+000022APCTENQ03+000002APC3  
0062033020999991927111706004+53317-004617FM-12+000899999V0201401N00461030001CN0200001N9+00721+99999101501ADDAA199001091AY101999GF106991041051017501031001MD1810201+9999
0070033020999991927111806004+53317-004617FM-12+000899999V0201101N009319999999N0040001N9+00891+99999100171ADDAY101999GF106991999051017501001001MD1710141+9999EQDQ01+000042SCOTLC
0083033020999991927111906004+53317-004617FM-12+000899999V0200901N00671007801CN0040001N9+00781+99999100241ADDAA199001091AY111999GF108991061051008001021001EQDQ01+000042APCTENQ02+000062APC3  
0062033020999991927112106004+53317-004617FM-12+000899999V0200901N01541007801CN0040001N9+00611+99999100171ADDAA199003091AY161999GF108991081051008001999999MD1210141+9999
0070033020999991927112206004+53317-004617FM-12+000899999V0200701N004619999999N0040001N9+00611+99999100971ADDAY111999GF108991999051004501001001MD1210141+9999EQDQ01+000022SCOTLC
0051033020999991927112306004+53317-004617FM-12+000899999V0201601N00261007801CN0040001N9+00781+99999100961ADDAY111999GF107991071051008001001001MD1710141+9999
0062033020999991927112406004+53317-004617FM-12+000899999V0202901N00931220001CN0200001N9+00891+99999100831ADDAA199005091AY101999GF102991011051004501001021MD1310341+9999
0062033020999991927112606004+53317-004617FM-12+000899999V0202001N01231004501CN0200001N9+01111+99999102751ADDAA199005091AY111999GF107991071051004501001001MD1610141+9999
0089033020999991927112706004+53317-004617FM-12+000899999V0202001N00671004501CN0040001N9+01001+99999102171ADDAA199000391AY161999GF108991081061004501999999MW1511EQDQ01+000032APCTENQ02+000002APC3  
0051033020999991927112806004+53317-004617FM-12+000899999V0201601N00461220001CN0100001N9+00781+99999102391ADDAY101999GF104991041051008001001021MD1710201+9999
0062033020999991927112906004+53317-004617FM-12+000899999V0203401N01231220001CN0100001N9+00781+99999102531ADDAA199007091AY111999GF101991011051008001001001MD1210341+9999
0072033020999991927113006004+53317-004617FM-12+000899999V0200701N00461220001CN0100001N9+00611+99999103241ADDAY101999GF102991021051008001001001EQDQ01+000082APCTENQ02+000002APC3  
0089033020999991927120106004+53317-004617FM-12+000899999V0201401N00461030001CN0040001N9+00611+99999102521ADDAA199000691AY161999GF108991041061004501021001MW1501EQDQ01+000062APCTENQ02+000002APC3  
0037033020999991927120206004+53317-004617FM-12+000899999V0201401N004619999999N0040001N9+00501+99999102371ADDAY111999GF199999999999008001999999
0051033020999991927120406004+53317-004617FM-12+000899999V0201601N00461030001CN0100001N9+00611+99999100921ADDAY111999GF108991041051008001021001MD1410001+9999
0051033020999991927120506004+53317-004617FM-12+000899999V0201601N01231012301CN0040001N9+00721+99999100291ADDAY111999GF108991071051012501021001MD1710261+9999
0062033020999991927120606004+53317-004617FM-12+000899999V0201601N01231007801CN0100001N9+01111+99999099171ADDAA199000391AY161999GF108991081051008001999999MD1310141+9999
0062033020999991927120706004+53317-004617FM-12+000899999V0203201N00261012301CN0200001N9+00781+99999100801ADDAA199002091AY111999GF107991071051012501001001MD1310201+9999
0068033020999991927120806004+53317-004617FM-12+000899999V0201101N00101002401CN0010001N9+00721+99999101191ADDAA199000691AY141999GF107991071051002501001001MD1990061+9999MW1451
0099033020999991927120906004+53317-004617FM-12+000899999V0201601N006719999999N0040001N9+00891+99999100731ADDAA199000591AY161999GF106991999051002501001001EQDQ01+000022SCOTLCQ02+000022APCTENQ03+000002APC3  
0051033020999991927121006004+53317-004617FM-12+000899999V0201101N00461007801CN0100001N9+00891+99999101141ADDAY111999GF108991081051008001999999MD1210061+9999
0051033020999991927121106004+53317-004617FM-12+000899999V0200701N00671220001CN0040001N9+00391+99999101321ADDAY111999GF107991001001999999001081MD1210141+9999
0072033020999991927121206004+53317-004617FM-12+000899999V0200901N01541220001CN0040001N9+00391+99999100951ADDAY101999GF104991001001999999001021EQDQ01+000022APCTENQ02+000002APC3  
0062033020999991927121406004+53317-004617FM-12+000899999V0200901N00671075001CN0040001N9+00281+99999100271ADDAA199000691AY111999GF108991011051008001001081MD1810201+9999
0062033020999991927121506004+53317-004617FM-12+000899999V0200701N00671007801CN0020001N9+00391+99999100771ADDAA199000691AY121999GF108991081051008001999999MD1310261+9999
0051033020999991927121606004+53317-004617FM-12+000899999V0200901N00671012301CN0500001N9+00221+99999102611ADDAY111999GF106991061051012501001001MD1310141+9999
0072033020999991927121706004+53317-004617FM-12+000899999V0201101N00671220001CN0100001N9+00111+99999103231ADDAY111999GF107991001001999999001081EQDQ01+000042APCTENQ02+000062APC3  
0051033020999991927121806004+53317-004617FM-12+000899999V0200901N00671012301CN0040001N9+00221+99999103171ADDAY101999GF107991071051012501001001MD1710141+9999
0051033020999991927121906004+53317-004617FM-12+000899999V0200901N00931220001CN0040001N9-00221+99999102571ADDAY101999GF100991001001999999001001MD1810201+9999
0051033020999991927122006004+53317-004617FM-12+000899999V0200901N00461220001CN0040001N9-00111+99999101361ADDAY101999GF104991041051008001001001MD1710201+9999
0068033020999991927122106004+53317-004617FM-12+000899999V0201601N00671004501CN0040001N9+00611+99999099571ADDAA199016091AY161999GF108991071051004501021001MD1810341+9999MW1211
0068033020999991927122206004+53317-004617FM-12+000899999V0201601N00931004501CN0040001N9+00891+99999096831ADDAA199015091AY181999GF108991081061004501999999MD1710461+9999MW1601
0062033020999991927122306004+53317-004617FM-12+000899999V0203601N00931007801CN0100001N9+00781+99999097581ADDAA199012091AY161999GF108991081051008001999999MD1310461+9999
0068033020999991927122406004+53317-004617FM-12+000899999V0200701N01231002401CN0020001N9+00391+99999099001ADDAA199000591AY161999GF108991081061002501999999MD1310141+9999MW1611
0083033020999991927122506004+53317-004617FM-12+000899999V0200501N01541004501CN0040001N9+00391+99999099401ADDAA199003091AY121999GF108991081051004501999999EQDQ01+000022APCTENQ02+000002APC3  
0081033020999991927122606004+53317-004617FM-12+000899999V0200201N019019999999N0100001N9+00281+99999100701ADDAA199000391AY161999GF106991999051004501001001MD1310261+9999EQDQ01+000022SCOTLC
0068033020999991927122706004+53317-004617FM-12+000899999V0200201N01541007801CN0100001N9+00391+99999102601ADDAA199000691AY111999GF106991061051008001001001MD1310341+9999MW1801
0051033020999991927122806004+53317-004617FM-12+000899999V0200701N01231220001CN0100001N9+00281+99999103751ADDAY101999GF102991021051008001001001MD1210061+9999
0070033020999991927122906004+53317-004617FM-12+000899999V0200701N01541220001CN0100001N9+00281+99999103071ADDAY101999GF102991999011012501001001MD1710341+9999EQDQ01+000012SCOTLC
0062033020999991927123106004+53317-004617FM-12+000899999V0201101N00671012301CN0040001N9+00221+99999101571ADDAA199000691AY111999GF107991071051012501001001MD1810261+9999
