0062014030999991929010106004+59300+004883FM-12+005799999V0203601N01231220001CN0500001N9+00221+99999101631ADDAA199003091AY111999GF101991011011012501001001MD1310341+9999
0051014030999991929010112004+59300+004883FM-12+005799999V0203201N00461220001CN0500001N9+00221+99999101901ADDAY101999GF104991021999999999001021MD1310141+9999
0070014030999991929010206004+59300+004883FM-12+005799999V0201101N00261220001CN0500001N9+00001+99999103261ADDAY101999GF104991011011999999031001MD1310261+9999EQDQ01+000992SCOLCB
0051014030999991929010212004+59300+004883FM-12+005799999V0201401N00461015001CN0500001N9+00111+99999103541ADDAY101999GF107991071051017501001001MD1310141+9999
0051014030999991929010306004+59300+004883FM-12+005799999V0201401N00101220001CN0500001N9+00111+99999103701ADDAY111999GF104991041011012501001001MD1310061+9999
0070014030999991929010312004+59300+004883FM-12+005799999V0209991C000019999999N0500001N9+00001+99999103681ADDAY101999GF199999011011999999001021MD1810061+9999EQDQ01+000992SCOLCB
0051014030999991929010412004+59300+004883FM-12+005799999V0200901N00101012301CN0500001N9+00221+99999103411ADDAY111999GF106991061011012501001001MD1810061+9999
0051014030999991929010512004+59300+004883FM-12+005799999V0200701N00101220001CN0500001N9+00001+99999103571ADDAY101999GF102991001001999999001021MD1810141+9999
0072014030999991929010612004+59300+004883FM-12+005799999V0201801N00461220001CN0500001N9+00111+99999103531ADDAY101999GF100991001001999999001001EQDQ01+000032APCTENQ02+000002APC3  
0072014030999991929010712004+59300+004883FM-12+005799999V0209991C00001220001CN0500001N9+00001+99999103891ADDAY101999GF104991041051017501001001EQDQ01+000032APCTENQ02+000002APC3  
0072014030999991929010812004+59300+004883FM-12+005799999V0209999900461015001CN0500001N9+00111+99999104531ADDAY121999GF108991081051017501999999EQDQ01+000032APCTENQ02+000002APC3  
0057014030999991929010912004+59300+004883FM-12+005799999V0201401N01231007801CN0200001N9+00111+99999104371ADDAY171999GF108991081061008001999999MD1810141+9999MW1711
0056014030999991929011012004+59300+004883FM-12+005799999V0200501N00101220001CN0500001N9+00001+99999104231ADDAY101999GF100991001001999999001001EQDQ01+000002APC3  
0051014030999991929011106004+59300+004883FM-12+005799999V0203201N00101220001CN0500001N9+00001+99999104351ADDAY101999GF100991001001999999001001MD1990061+9999
0051014030999991929011112004+59300+004883FM-12+005799999V0203201N00261220001CN0500001N9+00221+99999104101ADDAY101999GF102991001001999999001021MD1990261+9999
0051014030999991929011206004+59300+004883FM-12+005799999V0203601N01231220001CN0500001N9+00501+99999103491ADDAY111999GF104991041011012501001001MD1610141+9999
0051014030999991929011212004+59300+004883FM-12+005799999V0203601N01231075001CN0200001N9+00501+99999103431ADDAY111999GF106991021011012501001021MD1990141+9999
0051014030999991929011306004+59300+004883FM-12+005799999V0203601N01541220001CN0200001N9+00281+99999102401ADDAY181999GF104991041011012501001001MD1610201+9999
0057014030999991929011312004+59300+004883FM-12+005799999V0203601N01231007801CN0200001N9+00281+99999102431ADDAY181999GF108991081091008001999999MD1210141+9999MW1891
0081014030999991929011406004+59300+004883FM-12+005799999V0203601N00931220001CN0500001N9+00111+99999102441ADDAA199000391AY171999GF101991011011999999001001MD1310141+9999EQDQ01+000992SCOLCB
0051014030999991929011412004+59300+004883FM-12+005799999V0203601N00461030001CN0500001N9+00111+99999102431ADDAY101999GF108991041011012501021001MD1610061+9999
0062014030999991929011506004+59300+004883FM-12+005799999V0203601N01231220001CN0500001N9+00111+99999100031ADDAA199008091AY181999GF102991021011012501001001MD1810141+9999
0070014030999991929011512004+59300+004883FM-12+005799999V0203601N01541220001CN0200001N9+99999+99999100061ADDAY101999GF102991021011999999001001MD1010061+9999EQDQ01+000992SCOLCB
0070014030999991929011606004+59300+004883FM-12+005799999V0200201N00101220001CN0500001N9-00501+99999100961ADDAY101999GF102991021011999999001001MD1710261+9999EQDQ01+000992SCOLCB
0051014030999991929011612004+59300+004883FM-12+005799999V0201801N00101012301CN0500001N9-00281+99999100631ADDAY101999GF106991061011012501999001MD1810261+9999
0088014030999991929011706004+59300+004883FM-12+005799999V0201101N00101220001CN0500001N9-00781+99999101101ADDAY101999GF101991999001999999031001EQDQ01+000002SCOTLCQ02+000042APCTENQ03+000262APC3  
0070014030999991929011712004+59300+004883FM-12+005799999V0201401N00101220001CN0500001N9-00501+99999101151ADDAY101999GF102991021011999999001021MD1990141+9999EQDQ01+000992SCOLCB
0089014030999991929011806004+59300+004883FM-12+005799999V0202901N01231007801CN0100001N9+00281+99999099721ADDAA199013091AY171999GF108991081061008001999999MW1621EQDQ01+000022APCTENQ02+000002APC3  
0057014030999991929011812004+59300+004883FM-12+005799999V0202901N01231007801CN0100001N9+00281+99999099991ADDAY171999GF107991071061008001001001MD1110061+9999MW1831
0062014030999991929011906004+59300+004883FM-12+005799999V0203401N002619999999N0500001N9+00281+99999101401ADDAA199000691AY111999GF108991999999999999999999MD1310261+9999
0057014030999991929011912004+59300+004883FM-12+005799999V0201601N00101007801CN0200001N9+00221+99999101681ADDAY161999GF108991081061008001999999MD1310141+9999MW1611
0089014030999991929012006004+59300+004883FM-12+005799999V0201601N01231007801CN0200001N9+00111+99999102041ADDAA199001091AY171999GF108991081061008001999999MW1601EQDQ01+000012APCTENQ02+000002APC3  
0057014030999991929012012004+59300+004883FM-12+005799999V0201601N01231007801CN0100001N9+00281+99999102111ADDAY171999GF108991081061008001999999MD1810061+9999MW1231
0062014030999991929012106004+59300+004883FM-12+005799999V0201801N006719999999N9999999N9+00391+99999102301ADDAA199000591AY121999GF108991999999999999999999MD1310061+9999
0051014030999991929012112004+59300+004883FM-12+005799999V0201801N00461220001CN0100001N9+00501+99999102431ADDAY121999GF104991021051008001031001MD1310141+9999
0072014030999991929012206004+59300+004883FM-12+005799999V0209991C000019999999N0100001N9+00281+99999102551ADDAY121999GF108991999999999999999999EQDQ01+000062APCTENQ02+000002APC3  
0072014030999991929012306004+59300+004883FM-12+005799999V0209991C00001220001CN0100001N9+00001+99999102511ADDAY101999GF100991001001999999001001EQDQ01+000032APCTENQ02+000002APC3  
0088014030999991929012406004+59300+004883FM-12+005799999V0200901N00261220001CN0500001N9-00111+99999102531ADDAY101999GF101991011011999999001001EQDQ01+000992SCOLCBQ02+000042APCTENQ03+000142APC3  
0070014030999991929012412004+59300+004883FM-12+005799999V0201601N001019999999N0500001N9+00001+99999102601ADDAY101999GF107991999011008001001001MD1990061+9999EQDQ01+000012SCOTLC
0068014030999991929012506004+59300+004883FM-12+005799999V0201601N00261007801CN0100001N9+00001+99999101871ADDAA199000691AY111999GF108991081061008001999999MD1810261+9999MW1711
0070014030999991929012606004+59300+004883FM-12+005799999V0201101N00261220001CN0500001N9-00501+99999102291ADDAY111999GF101991011011999999001001MD1410001+9999EQDQ01+000992SCOLCB
0057014030999991929012706004+59300+004883FM-12+005799999V0201601N00671007801CN0200001N9-00111+99999101831ADDAY171999GF108991081061008001999999MD1810141+9999MW1731
0083014030999991929012806004+59300+004883FM-12+005799999V0201601N00931015001CN0500001N9-00111+99999101671ADDAA199000691AY111999GF106991061051017501001001EQDQ01+000032APCTENQ02+000002APC3  
0072014030999991929012906004+59300+004883FM-12+005799999V0201601N00931220001CN0500001N9+00001+99999102271ADDAY101999GF102991021011012501001001EQDQ01+000042APCTENQ02+000142APC3  
0051014030999991929012912004+59300+004883FM-12+005799999V0201401N00931075001CN0500001N9+00111+99999102341ADDAY111999GF106991041011012501001081MD1110061+9999
0051014030999991929013006004+59300+004883FM-12+005799999V0201601N01901015001CN0200001N9+00221+99999102271ADDAY121999GF108991081051017501999999MD1410001+9999
0078014030999991929013112004+59300+004883FM-12+005799999V0201601N01541007801CN0500001N9+00001+99999102381ADDAY161999GF108991081061008001999999MW1601EQDQ01+000032APCTENQ02+000002APC3  
0051014030999991929020112004+59300+004883FM-12+005799999V0201401N01541015001CN0500001N9+00221+99999102111ADDAY111999GF107991071051017501001001MD1810061+9999
0072014030999991929020212004+59300+004883FM-12+005799999V0201401N01901015001CN0500001N9+00111+99999102041ADDAY121999GF106991061051017501001001EQDQ01+000042APCTENQ02+000142APC3  
0070014030999991929020312004+59300+004883FM-12+005799999V0201601N01231220001CN0200001N9+00001+99999102371ADDAY101999GF102991011011999999031001MD1110061+9999EQDQ01+000992SCOLCB
0051014030999991929020406004+59300+004883FM-12+005799999V0201601N00931015001CN0500001N9+00001+99999101981ADDAY111999GF108991081051017501999999MD1810141+9999
0051014030999991929020412004+59300+004883FM-12+005799999V0201401N00671012301CN0500001N9+00001+99999101801ADDAY121999GF108991081061012501999999MD1810141+9999
0062014030999991929020506004+59300+004883FM-12+005799999V0202001N00461007801CN0500001N9+00111+99999101971ADDAA199000391AY161999GF108991081061008001999999MD1310201+9999
0057014030999991929020512004+59300+004883FM-12+005799999V0201801N00671007801CN0010001N9+00001+99999102311ADDAY171999GF108991081061008001999999MD1310201+9999MW1711
0051014030999991929020612004+59300+004883FM-12+005799999V0201601N00671021001CN0500001N9+00001+99999102961ADDAY121999GF108991081051022501999999MD1110061+9999
0051014030999991929020706004+59300+004883FM-12+005799999V0201601N00671015001CN0500001N9+00001+99999103171ADDAY121999GF108991081051017501999999MD1990061+9999
0051014030999991929020712004+59300+004883FM-12+005799999V0201601N00671007801CN0200001N9+00001+99999103061ADDAY171999GF108991081061008001999999MD1810061+9999
0051014030999991929020806004+59300+004883FM-12+005799999V0201601N00671007801CN0200001N9+00111+99999102301ADDAY121999GF108991081061008001999999MD1810201+9999
0051014030999991929020812004+59300+004883FM-12+005799999V0201601N00931007801CN0200001N9+00111+99999102161ADDAY121999GF108991081051008001999999MD1710141+9999
0057014030999991929020912004+59300+004883FM-12+005799999V0201401N01541007801CN0020001N9+00001+99999101861ADDAY171999GF108991081061008001999999MD1810061+9999MW1701
0072014030999991929021206004+59300+004883FM-12+005799999V0201101N00671220001CN0500001N9-00611+99999103181ADDAY101999GF100991001001999999001001EQDQ01+000032APCTENQ02+000002APC3  
0051014030999991929021212004+59300+004883FM-12+005799999V0201401N00461220001CN0500001N9-00501+99999103271ADDAY101999GF100991001001999999001001MD1990061+9999
0037014030999991929021506004+59300+004883FM-12+005799999V0200901N00931015001CN0500001N9-00391+99999102331ADDAY101999GF107991071051017501999999
0072014030999991929021606004+59300+004883FM-12+005799999V0200901N01231015001CN0500001N9-00391+99999102061ADDAY121999GF108991081051017501999999EQDQ01+000042APCTENQ02+000062APC3  
0099014030999991929021706004+59300+004883FM-12+005799999V0200901N00671220001CN0500001N9-00281+99999102871ADDAA199000591AY171999GF106991999001999999021001EQDQ01+000002SCOTLCQ02+000042APCTENQ03+000202APC3  
0072014030999991929021806004+59300+004883FM-12+005799999V0200901N00931015001CN0500001N9-00391+99999103571ADDAY111999GF107991071051017501001001EQDQ01+000032APCTENQ02+000002APC3  
0072014030999991929021812004+59300+004883FM-12+005799999V0200901N01231015001CN0500001N9-00221+99999103571ADDAY111999GF107991071051017501001001EQDQ01+000032APCTENQ02+000002APC3  
0072014030999991929021906004+59300+004883FM-12+005799999V0201101N00671015001CN0500001N9-00221+99999103621ADDAY121999GF108991081051017501999999EQDQ01+000042APCTENQ02+000062APC3  
0072014030999991929021912004+59300+004883FM-12+005799999V0201401N00461015001CN0500001N9-00111+99999103671ADDAY111999GF106991061051017501001001EQDQ01+000032APCTENQ02+000002APC3  
0070014030999991929022012004+59300+004883FM-12+005799999V0201601N012319999999N0200001N9+00001+99999103681ADDAY161999GF106991999051001501001001MD1610201+9999EQDQ01+000012SCOTLC
0051014030999991929022106004+59300+004883FM-12+005799999V0201601N01231015001CN0200001N9+00001+99999103181ADDAY121999GF108991081051017501999999MD1810261+9999
0051014030999991929022112004+59300+004883FM-12+005799999V0201601N00931007801CN0100001N9+00111+99999102861ADDAY121999GF108991081061008001999999MD1810261+9999
0043014030999991929022212004+59300+004883FM-12+005799999V0202501N00101000151CN0000501N9+00281+99999101091ADDAY161999GF108991081051000251999999MW1451
0043014030999991929022312004+59300+004883FM-12+005799999V0201801N00461007801CN0100001N9+00001+99999101361ADDAY171999GF108991081061008001999999MW1701
0081014030999991929022606004+59300+004883FM-12+005799999V0201401N00101220001CN0500001N9-00721+99999102481ADDAA199000691AY101999GF101991011011999999001001MD1310061+9999EQDQ01+000992SCOLCB
0051014030999991929022706004+59300+004883FM-12+005799999V0200501N00101220001CN0500001N9-00501+99999102821ADDAY101999GF100991001001999999001001MD1310141+9999
0051014030999991929022712004+59300+004883FM-12+005799999V0200201N00101220001CN0500001N9-00221+99999103011ADDAY101999GF100991001001999999001001MD1310061+9999
0051014030999991929022806004+59300+004883FM-12+005799999V0200901N00101015001CN0500001N9-00221+99999103601ADDAY101999GF107991071051017501001001MD1310141+9999
0051014030999991929022812004+59300+004883FM-12+005799999V0201601N00101015001CN0500001N9+00001+99999103861ADDAY111999GF107991071051017501001001MD1810141+9999
0051014030999991929030812004+59300+004883FM-12+005799999V0203201N00931012301CN0200001N9+00501+99999101531ADDAY111999GF106991061011012501001001MD1810141+9999
0056014030999991929030912004+59300+004883FM-12+005799999V0203201N00261015001CN0500001N9+00391+99999102371ADDAY111999GF108991081051017501999999EQDQ01+000002APC3  
0057014030999991929031012004+59300+004883FM-12+005799999V0202901N00461000151CN0000501N9+00391+99999101871ADDAY141999GF108991081051000251999999MD1810061+9999MW1451
0072014030999991929031312004+59300+004883FM-12+005799999V0203401N00671007801CN0100001N9+00611+99999103031ADDAY111999GF107991071051008001001001EQDQ01+000012APCTENQ02+000002APC3  
0051014030999991929031412004+59300+004883FM-12+005799999V0203201N00671015001CN0500001N9+00501+99999102521ADDAY181999GF107991071051017501001001MD1810061+9999
0051014030999991929031512004+59300+004883FM-12+005799999V0203601N00461220001CN0500001N9+00391+99999102961ADDAY101999GF102991001001999999001021MD1310141+9999
0062014030999991929031912004+59300+004883FM-12+005799999V0202701N00261000151CN0005001N9+00221+99999102771ADDAY141999GF108991081051000251999999MW1431EQDQ01+000002APC3  
0051014030999991929032012004+59300+004883FM-12+005799999V0201801N00931007801CN0100001N9+00281+99999102231ADDAY121999GF108991081051008001999999MD1610141+9999
0057014030999991929032212004+59300+004883FM-12+005799999V0202001N00461000151CN0000001N9+00501+99999101171ADDAY141999GF108991081051000251999999MD1110061+9999MW1451
0062014030999991929032512004+59300+004883FM-12+005799999V0201801N00671000151CN0005001N9+00501+99999101671ADDAY141999GF108991081051000251999999MW1431EQDQ01+000002APC3  
0057014030999991929032712004+59300+004883FM-12+005799999V0202901N00461007801CN0100001N9+00721+99999102901ADDAY141999GF107991071061008001001001MD1310061+9999MW1501
0052014030999991929032812004+59300+004883FM-12+005799999V0202701N006719999999N0002001N9+00611+99999102971ADDAY141999MW1461EQDQ01+000032APCTENQ02+000002APC3  
0043014030999991929080106004+59300+004883FM-12+005699999V0200201N00461012301CN0500001N9+01281+99999098781ADDGF107991071051012501999999MD1810161+9999
0054014030999991929080118004+59300+004883FM-12+005699999V0203601N00261007801CN0500001N9+01281+99999098931ADDAA199005091GF108991081061008001999999MD1310101+9999
0054014030999991929080206004+59300+004883FM-12+005699999V0203401N01541007801CN0200001N9+01001+99999099641ADDAA199002091GF108991081061008001999999MD1810241+9999
0054014030999991929080218004+59300+004883FM-12+005699999V0203201N00931220001CN0500001N9+00891+99999100571ADDAA199000391GF104991041011012501999999MD1310101+9999
0075014030999991929080306004+59300+004883FM-12+005699999V0202501N00261012301CN0200001N9+01111+99999100711ADDAA199003091GF106991061031012501999999EQDQ01+000032APCTENQ02+000002APC3  
0040014030999991929080318004+59300+004883FM-12+005699999V0201801N00261007801CN0040001N9+01111+99999100501ADDAA199005091GF108991081061008001999999
0054014030999991929080418004+59300+004883FM-12+005699999V0201801N99999012301CN0100001N9+01391+99999100231ADDAA199005091GF108991081061012501999999MD1810101+9999
0054014030999991929080506004+59300+004883FM-12+005699999V0201401N00671007801CN0100001N9+01391+99999099861ADDAA199003091GF108991081061008001999999MD1210041+9999
0054014030999991929080518004+59300+004883FM-12+005699999V0203201N01231004501CN0020001N9+00781+99999100041ADDAA199016091GF108991081081004501999999MD1310241+9999
0054014030999991929080606004+59300+004883FM-12+005699999V0201601N00101007801CN0040001N9+00891+99999100941ADDAA199010091GF108991081061008001999999MD1310161+9999
0040014030999991929080618004+59300+004883FM-12+005699999V0201401N00671007801CN0040001N9+01221+99999100861ADDAA199005091GF108991081061008001999999
0054014030999991929080706004+59300+004883FM-12+005699999V0201801N00671007801CN0020001N9+01281+99999100151ADDAA199022091GF108991081061008001999999MD1810041+9999
0054014030999991929080806004+59300+004883FM-12+005699999V0202701N00101007801CN0200001N9+01111+99999101321ADDAA199001091GF108991081061008001999999MD1310041+9999
0043014030999991929080818004+59300+004883FM-12+005699999V0202701N00261220001CN0200001N9+01221+99999101331ADDGF102991021011012501999999MD1810041+9999
0075014030999991929080906004+59300+004883FM-12+005699999V0202001N00261007801CN0100001N9+01221+99999101121ADDAA199001091GF108991081061008001999999EQDQ01+000032APCTENQ02+000002APC3  
0064014030999991929080918004+59300+004883FM-12+005699999V0201801N00461012301CN0500001N9+01281+99999101141ADDGF106991061011012501999999EQDQ01+000032APCTENQ02+000002APC3  
0054014030999991929081006004+59300+004883FM-12+005699999V0202301N00461012301CN0500001N9+01281+99999101181ADDAA199003091GF107991071999012501999999MD1310101+9999
0062014030999991929081118004+59300+004883FM-12+005699999V0203201N00671007801CN0000501N9+01221+99999100601ADDAA199010091AY161999GF108991081061008001999999MD1310041+9999
0091014030999991929081206004+59300+004883FM-12+005699999V0202501N00461007801CN0100001N9+01391+99999100971ADDAA199005091GF107991999061008001999999EQDQ01+000082SCOTLCQ02+000032APCTENQ03+000002APC3  
0054014030999991929081218004+59300+004883FM-12+005699999V0202701N00461007801CN0500001N9+01221+99999101251ADDAA199000391GF106991061031008001999999MD1310101+9999
0054014030999991929081306004+59300+004883FM-12+005699999V0203201N00461007801CN0500001N9+01111+99999101591ADDAA199000591GF106991061031008001999999MD1310161+9999
0054014030999991929081318004+59300+004883FM-12+005699999V0200201N00101220001CN0500001N9+01111+99999101831ADDAA199000691GF104991011011012501999999MD1810041+9999
0075014030999991929081418004+59300+004883FM-12+005699999V0203601N00101007801CN0040001N9+01001+99999101101ADDAA199013091GF108991081061008001999999EQDQ01+000032APCTENQ02+000002APC3  
0043014030999991929081518004+59300+004883FM-12+005699999V0202001N00671012301CN0500001N9+01281+99999101191ADDGF107991071051012501999999MD1810101+9999
0054014030999991929081606004+59300+004883FM-12+005699999V0202501N00671220001CN0500001N9+01281+99999101171ADDAA199002091GF101991011011012501999999MD1310101+9999
0000014030999991929081618004+59300+004883FM-12+005699999V0201801N002619999999N9999999N9+99999+99999999999
0054014030999991929081706004+59300+004883FM-12+005699999V0200901N00461007801CN0100001N9+01221+99999101061ADDAA199001091GF108991081061008001999999MD1810161+9999
0054014030999991929081718004+59300+004883FM-12+005699999V0201101N00261004501CN0100001N9+01221+99999100181ADDAA199006091GF108991081061004501999999MD1810241+9999
0054014030999991929081806004+59300+004883FM-12+005699999V0202301N00461007801CN0100001N9+01221+99999100391ADDAA199007091GF107991071061008001999999MD1310101+9999
0043014030999991929081818004+59300+004883FM-12+005699999V0203601N012319999999N9999999N9+01111+99999101001ADDGF199999999001999999999999MD1310241+9999
0043014030999991929081918004+59300+004883FM-12+005699999V0203201N00101220001CN0500001N9+01221+99999101601ADDGF102991021011012501999999MD1310041+9999
0043014030999991929082006004+59300+004883FM-12+005699999V0201101N00261220001CN0500001N9+01111+99999101891ADDGF101991001001999999999999MD1310101+9999
0062014030999991929082018004+59300+004883FM-12+005699999V0201801N004619999999N0500001N9+01281+99999101911ADDGF107991999011012501999999MD1810041+9999EQDQ01+000002SCOTLC
0075014030999991929082106004+59300+004883FM-12+005699999V0201801N00931007801CN0200001N9+01281+99999101821ADDAA199000391GF108991081061008001999999EQDQ01+000032APCTENQ02+000002APC3  
0040014030999991929082118004+59300+004883FM-12+005699999V0201401N00931007801CN0100001N9+01281+99999101581ADDAA199002091GF108991081061008001999999
0054014030999991929082206004+59300+004883FM-12+005699999V0201601N00931007801CN0100001N9+01221+99999101161ADDAA199012091GF108991081061008001999999MD1810041+9999
0048014030999991929082218004+59300+004883FM-12+005699999V0202301N00261007801CN0100001N9+00111+99999999999ADDAA199020091AY101999GF199999081061008001999999
0043014030999991929082306004+59300+004883FM-12+005699999V0201801N009319999999N0200001N9+01281+99999100811ADDGF108991021011012501999999MD1810241+9999
0054014030999991929082318004+59300+004883FM-12+005699999V0202701N00461220001CN0200001N9+01281+99999100671ADDAA199013091GF104991011011012501999999MD1310201+9999
0043014030999991929082406004+59300+004883FM-12+005699999V0202301N00101220001CN0500001N9+01221+99999100661ADDGF102991021011999999999999MD1810041+9999
0054014030999991929082418004+59300+004883FM-12+005699999V0202701N00931012301CN0200001N9+01221+99999100401ADDAA199000591GF107991071031012501999999MD1810101+9999
0054014030999991929082506004+59300+004883FM-12+005699999V0202701N01231220001CN0500001N9+01111+99999100441ADDAA199003091GF104991041011012501999999MD1310101+9999
0060014030999991929082518004+59300+004883FM-12+005699999V0203201N00931007801CN0200001N9+01111+99999101221ADDAA199000391GF106991061031008001999999MD1310241+9999MW1161
0054014030999991929082606004+59300+004883FM-12+005699999V0203201N00461007801CN0500001N9+01001+99999101841ADDAA199001091GF107991071031008001999999MD1310201+9999
0000014030999991929082618004+59300+004883FM-12+005699999V0202701N004619999999N0500001N9+01111+99999102111
0054014030999991929082706004+59300+004883FM-12+005699999V0202001N00671007801CN0100001N9+01281+99999101491ADDAA199002091GF108991081061008001999999MD1810161+9999
0054014030999991929082718004+59300+004883FM-12+005699999V0209999900461007801CN0100001N9+01391+99999999999ADDAA199003091GF108991081061008001999999MD1810161+9999
0043014030999991929082806004+59300+004883FM-12+005699999V0201101N00461012301CN0500001N9+01391+99999100931ADDGF108991081061012501999999MD1810201+9999
0054014030999991929082818004+59300+004883FM-12+005699999V0201801N00931012301CN0500001N9+01501+99999100501ADDAA199004091GF106991061011012501999999MD1810161+9999
0075014030999991929082906004+59300+004883FM-12+005699999V0202301N00671015001CN0100001N9+01281+99999100561ADDAA199000591GF106991061051017501999999EQDQ01+000032APCTENQ02+000002APC3  
0054014030999991929082918004+59300+004883FM-12+005699999V0202301N006719999999N0500001N9+01281+99999100811ADDAA199002091GF106991999999008001999999MD1310041+9999
0043014030999991929083106004+59300+004883FM-12+005699999V0202001N00101012301CN0500001N9+01221+99999101561ADDGF106991061011012501999999MD1310101+9999
0043014030999991929083118004+59300+004883FM-12+005699999V0201401N002619999999N0500001N9+01501+99999101311ADDGF108991041061999999999999MD1810201+9999
0054014030999991929090106004+59300+004883FM-12+005699999V0201101N00671012301CN9999999N9+01501+99999100671ADDAA199003091GF106991061031012501999999MD1810041+9999
0075014030999991929090206004+59300+004883FM-12+005699999V0202301N01231007801CN0200001N9+01111+99999100791ADDAA199002091GF108991081061008001999999EQDQ01+000032APCTENQ02+000002APC3  
0054014030999991929090306004+59300+004883FM-12+005699999V0203201N00461015001CN0500001N9+01111+99999101841ADDAA199000391GF108991081051017501999999MD1310201+9999
0043014030999991929090406004+59300+004883FM-12+005699999V0201601N00261012301CN0000001N9+00111+99999999999ADDAY181999GF199999061061012501999999MW1081
0043014030999991929090506004+59300+004883FM-12+005699999V0203601N001019999999N0500001N9+01111+99999101471ADDGF106991041011012501999999MD1810041+9999
0040014030999991929090518004+59300+004883FM-12+005699999V0203601N00461007801CN0500001N9+01001+99999101421ADDAA199003091GF108991081031008001999999
0054014030999991929090606004+59300+004883FM-12+005699999V0203401N00931012301CN0200001N9+01001+99999101541ADDAA199001091GF106991061031012501999999MD1310101+9999
0054014030999991929090618004+59300+004883FM-12+005699999V0203201N00931220001CN0020001N9+01001+99999101631ADDAA199001091GF104991041031012501999999MD1310241+9999
0054014030999991929090706004+59300+004883FM-12+005699999V0203601N009319999999N0500001N9+01001+99999102321ADDAA199000391GF108991041011999999999999MD1310161+9999
0043014030999991929090718004+59300+004883FM-12+005699999V0203201N00261012301CN0500001N9+01111+99999102271ADDGF108991081051012501999999MD1810041+9999
0054014030999991929090806004+59300+004883FM-12+005699999V0202301N00261007801CN0020001N9+01221+99999101661ADDAA199003091GF108991081061008001999999MD1810201+9999
0054014030999991929090818004+59300+004883FM-12+005699999V0202701N00931007801CN0040001N9+01281+99999101091ADDAA199003091GF108991081061008001999999MD1810161+9999
0054014030999991929090906004+59300+004883FM-12+005699999V0203201N00671007801CN0500001N9+01111+99999100841ADDAA199003091GF106991061031008001999999MD1310041+9999
0054014030999991929090918004+59300+004883FM-12+005699999V0203401N01231012301CN0500001N9+01111+99999101051ADDAA199000591GF106991061051012501999999MD1310161+9999
0040014030999991929091006004+59300+004883FM-12+005699999V0203201N00461007801CN0500001N9+01111+99999101641ADDAA199000391GF107991071031008001999999
0054014030999991929091018004+59300+004883FM-12+005699999V0202901N00461220001CN0500001N9+01111+99999101941ADDAA199000591GF102991021031012501999999MD1310041+9999
0075014030999991929091106004+59300+004883FM-12+005699999V0201801N00461007801CN0500001N9+01111+99999102081ADDAA199000391GF108991081061008001999999EQDQ01+000032APCTENQ02+000002APC3  
0075014030999991929091118004+59300+004883FM-12+005699999V0201401N00671000151CN0100001N9+01281+99999102061ADDAA199000691GF108991081051000251999999EQDQ01+000032APCTENQ02+000002APC3  
0064014030999991929091206004+59300+004883FM-12+005699999V0201601N00671220001CN0200001N9+01281+99999102061ADDGF104991041051008001999999EQDQ01+000032APCTENQ02+000002APC3  
0043014030999991929091218004+59300+004883FM-12+005699999V0201601N01231220001CN0200001N9+01281+99999101611ADDGF104991021011012501999999MD1810101+9999
0075014030999991929091306004+59300+004883FM-12+005699999V0200201N00101007801CN0500001N9+99999+99999101611ADDAA199015091GF108991081061008001999999EQDQ01+000032APCTENQ02+000002APC3  
0043014030999991929091318004+59300+004883FM-12+005699999V0200201N00101021001CN0500001N9+01221+99999101571ADDGF107991071051022501999999MD1810041+9999
0075014030999991929091406004+59300+004883FM-12+005699999V0202001N00461007801CN0200001N9+01221+99999101351ADDAA199000691GF107991061011008001999999EQDQ01+000032APCTENQ02+000002APC3  
0043014030999991929091418004+59300+004883FM-12+005699999V0201801N00461015001CN0200001N9+01281+99999101491ADDGF106991061051017501999999MD1310041+9999
0054014030999991929091506004+59300+004883FM-12+005699999V0201801N00671007801CN0200001N9+01281+99999101731ADDAA199001091GF108991081061008001999999MD1310101+9999
0054014030999991929091518004+59300+004883FM-12+005699999V0202701N00931015001CN0500001N9+01221+99999101971ADDAA199000591GF107991071051017501999999MD1310101+9999
0049014030999991929091606004+59300+004883FM-12+005699999V0203201N00101007801CN0200001N9+01281+99999102521ADDGF106991061051008001999999MD1310201+9999MW1161
0064014030999991929091618004+59300+004883FM-12+005699999V0203601N00261220001CN0500001N9+01001+99999102641ADDGF102991001001999999999999EQDQ01+000032APCTENQ02+000002APC3  
0043014030999991929091706004+59300+004883FM-12+005699999V0201801N00261220001CN9999999N9+01001+99999102361ADDGF104991011011012501999999MD1810101+9999
0043014030999991929091806004+59300+004883FM-12+005699999V0201801N00931012301CN0200001N9+01781+99999101491ADDGF106991061011012501999999MD1810041+9999
0043014030999991929091818004+59300+004883FM-12+005699999V0201801N009319999999N0200001N9+01391+99999100781ADDGF107991041011012501999999MD1810241+9999
0075014030999991929091906004+59300+004883FM-12+005699999V0202301N004619999999N0500001N9+01111+99999100221ADDAA199006091GF107991021011012501999999EQDQ01+000032APCTENQ02+000002APC3  
0043014030999991929091918004+59300+004883FM-12+005699999V0202001N006719999999N9999999N9+01001+99999099511ADDGF108991081061999999999999MD1810361+9999
0054014030999991929092006004+59300+004883FM-12+005699999V0203601N00461220001CN0500001N9+99999+99999098741ADDAA199008091GF104991041011012501999999MD1810041+9999
0054014030999991929092018004+59300+004883FM-12+005699999V0203601N01541220001CN0500001N9+00891+99999099461ADDAA199000691GF104991041031008001999999MD1310201+9999
0054014030999991929092106004+59300+004883FM-12+005699999V0203401N006719999999N0500001N9+00781+99999099771ADDAA199000691GF107991041011012501999999MD1810041+9999
0054014030999991929092118004+59300+004883FM-12+005699999V0201101N00461007801CN0040001N9+00611+99999099071ADDAA199001091GF108991081061008001999999MD1810101+9999
0054014030999991929092206004+59300+004883FM-12+005699999V0202901N01231220001CN0200001N9+00781+99999100271ADDAA199001091GF104991041011012501999999MD1310361+9999
0054014030999991929092218004+59300+004883FM-12+005699999V0203201N00461220001CN0500001N9+00781+99999101231ADDAA199000391GF102991021031012501999999MD1310241+9999
0043014030999991929092306004+59300+004883FM-12+005699999V0201401N00461015001CN0500001N9+00891+99999101701ADDGF107991071051017501999999MD1310161+9999
0054014030999991929092318004+59300+004883FM-12+005699999V0201801N00931007801CN0100001N9+01221+99999102401ADDAA199000691GF108991081061008001999999MD1310041+9999
0054014030999991929092406004+59300+004883FM-12+005699999V0201801N00931007801CN0100001N9+01221+99999102431ADDAA199000691GF108991081061008001999999MD1310101+9999
0054014030999991929092418004+59300+004883FM-12+005699999V0201801N00461015001CN0100001N9+01221+99999102761ADDAA199000391GF108991081051017501999999MD1310041+9999
0043014030999991929092506004+59300+004883FM-12+005699999V0202001N00671015001CN0200001N9+01221+99999102891ADDGF108991081051017501999999MD1310101+9999
0043014030999991929092518004+59300+004883FM-12+005699999V0202301N00261015001CN0200001N9+01221+99999103121ADDGF107991071051017501999999MD1310041+9999
0043014030999991929092606004+59300+004883FM-12+005699999V0202001N00461015001CN0200001N9+01221+99999102931ADDGF108991081051017501999999MD1310041+9999
0043014030999991929092618004+59300+004883FM-12+005699999V0201801N00931007801CN0100001N9+01221+99999102471ADDGF108991081051008001999999MD1810101+9999
0062014030999991929092706004+59300+004883FM-12+005699999V0202301N00671220001CN0200001N9+01221+99999101791ADDGF104991021051999999999999MD1810101+9999EQDQ01+000992SCOLCB
0043014030999991929092718004+59300+004883FM-12+005699999V0203601N00671220001CN0500001N9+01001+99999101951ADDGF102991021011999999999999MD1310241+9999
0043014030999991929092806004+59300+004883FM-12+005699999V0201801N00931007801CN0200001N9+01221+99999101391ADDGF108991081061008001999999MD1810241+9999
0043014030999991929092818004+59300+004883FM-12+005699999V0202301N01231015001CN0200001N9+01281+99999101881ADDGF199999081051017501999999MD1810101+9999
0064014030999991929092906004+59300+004883FM-12+005699999V0202501N00261015001CN0500001N9+01111+99999100951ADDGF108991081051017501999999EQDQ01+000032APCTENQ02+000002APC3  
0054014030999991929092918004+59300+004883FM-12+005699999V0202501N00461220001CN0500001N9+00891+99999100911ADDAA199002091GF102991021011999999999999MD1310101+9999
0054014030999991929093006004+59300+004883FM-12+005699999V0202301N00931220001CN0500001N9+01111+99999100991ADDAA199000691GF104991021011012501999999MD1810041+9999
0043014030999991929100106004+59300+004883FM-12+005699999V0202701N00461220001CN0500001N9+00781+99999100301ADDGF102991021011999999999999MD1810041+9999
0073014030999991929100118004+59300+004883FM-12+005699999V0202901N00671220001CN0500001N9+00781+99999100451ADDAA199002091GF102991021011999999999999MD1310101+9999EQDQ01+000992SCOLCB
0073014030999991929100206004+59300+004883FM-12+005699999V0201401N01541007801CN0100001N9+00781+99999098581ADDAA199014091GF108991081061008001999999MD1810842+9999EQDQ01+000842APC3  
0054014030999991929100218004+59300+004883FM-12+005699999V0202501N01901220001CN0100001N9+01001+99999098251ADDAA199014091GF104991041031008001999999MD1310041+9999
0054014030999991929100306004+59300+004883FM-12+005699999V0202301N00931007801CN0200001N9+00891+99999098241ADDAA199004091GF106991061031008001999999MD1810101+9999
0028014030999991929100318004+59300+004883FM-12+005699999V0202501N019019999999N0100001N9+01001+99999098211ADDAA199010091MD1310041+9999
0054014030999991929100406004+59300+004883FM-12+005699999V0202501N00671220001CN0500001N9+00891+99999099901ADDAA199002091GF104991041031017501999999MD1310301+9999
0054014030999991929100506004+59300+004883FM-12+005699999V0202301N01231012301CN0200001N9+00781+99999100011ADDAA199002091GF107991071031012501999999MD1310201+9999
0054014030999991929100518004+59300+004883FM-12+005699999V0201601N01231007801CN0200001N9+00891+99999100271ADDAA199002091GF108991081061008001999999MD1310041+9999
0040014030999991929100718004+59300+004883FM-12+005699999V0202701N01541007801CN0200001N9+01001+99999099351ADDAA199003091GF108991081061008001999999
0054014030999991929100806004+59300+004883FM-12+005699999V0201801N012319999999N0100001N9+01001+99999100051ADDAA199001091GF108991041031008001999999MD1810101+9999
0054014030999991929100918004+59300+004883FM-12+005699999V0203601N01541007801CN0100001N9+00891+99999100251ADDAA199007091GF108991081061008001999999MD1310241+9999
0054014030999991929101006004+59300+004883FM-12+005699999V0202901N00671012301CN0500001N9+00781+99999100781ADDAA199000691GF106991061011012501999999MD1310161+9999
0054014030999991929101018004+59300+004883FM-12+005699999V0202301N01231007801CN0100001N9+01001+99999100291ADDAA199002091GF108991081061008001999999MD1810201+9999
0054014030999991929101118004+59300+004883FM-12+005699999V0202901N01541012301CN0200001N9+00891+99999099921ADDAA199001091GF106991061031012501999999MD1310201+9999
0040014030999991929101206004+59300+004883FM-12+005699999V0203201N00671220001CN0200001N9+00891+99999101251ADDAA199000591GF104991041031012501999999
0054014030999991929101218004+59300+004883FM-12+005699999V0201801N00931007801CN0040001N9+00891+99999101081ADDAA199003091GF108991081061008001999999MD1810401+9999
0054014030999991929101306004+59300+004883FM-12+005699999V0203201N00671220001CN0500001N9+00891+99999101661ADDAA199003091GF104991021011012501999999MD1310201+9999
0054014030999991929101318004+59300+004883FM-12+005699999V0201801N00671007801CN0500001N9+00891+99999101791ADDAA199000691GF108991081061008001999999MD1810101+9999
0075014030999991929101406004+59300+004883FM-12+005699999V0202701N00931007801CN0020001N9+01111+99999101131ADDAA199007091GF108991081061008001999999EQDQ01+000032APCTENQ02+000002APC3  
0054014030999991929101418004+59300+004883FM-12+005699999V0202701N01541007801CN0200001N9+01001+99999101071ADDAA199013091GF106991061061008001999999MD1310301+9999
0054014030999991929101506004+59300+004883FM-12+005699999V0203201N00671012301CN0500001N9+00721+99999102491ADDAA199000591GF106991061011012501999999MD1310301+9999
0043014030999991929101518004+59300+004883FM-12+005699999V0203601N00461220001CN0500001N9+00611+99999102621ADDGF104991041011012501999999MD1810041+9999
0043014030999991929101606004+59300+004883FM-12+005699999V0201601N00931220001CN0500001N9+00721+99999102031ADDGF108991001001999999999999MD1810241+9999
0054014030999991929101618004+59300+004883FM-12+005699999V0201101N01541220001CN0500001N9+00781+99999100241ADDAA199003091GF108991001001999999999999MD1810361+9999
0073014030999991929101706004+59300+004883FM-12+005699999V0201601N01541007801CN0100001N9+00781+99999999999ADDAA199015091GF108991081061008001999999MD1810101+9999EQDQ01+000001APOSP 
0054014030999991929101718004+59300+004883FM-12+005699999V0202301N00671007801CN0200001N9+00891+99999099831ADDAA199023091GF108991081061008001999999MD1310101+9999
0073014030999991929101806004+59300+004883FM-12+005699999V0202501N00931007801CN0200001N9+00891+99999999999ADDAA199002091GF107991071061008001999999MD1310101+9999EQDQ01+000001APOSP 
0075014030999991929101818004+59300+004883FM-12+005699999V0201801N00671012301CN0500001N9+00891+99999100281ADDAA199000691GF106991061031012501999999EQDQ01+000032APCTENQ02+000002APC3  
0054014030999991929101906004+59300+004883FM-12+005699999V0201401N00931012301CN0500001N9+00721+99999100081ADDAA199000591GF106991061031012501999999MD1810041+9999
0075014030999991929101918004+59300+004883FM-12+005699999V0201601N00671007801CN0200001N9+00721+99999099991ADDAA199000591GF108991081061008001999999EQDQ01+000032APCTENQ02+000002APC3  
0054014030999991929102006004+59300+004883FM-12+005699999V0201801N00671012301CN0200001N9+00721+99999099571ADDAA199002091GF106991061031012501999999MD1810241+9999
0054014030999991929102018004+59300+004883FM-12+005699999V0201101N00671220001CN0500001N9+00781+99999100141ADDAA199002091GF102991011011012501999999MD1310361+9999
0054014030999991929102106004+59300+004883FM-12+005699999V0201801N00461007801CN0200001N9+00891+99999100841ADDAA199000691GF107991071061008001999999MD1310041+9999
0054014030999991929102118004+59300+004883FM-12+005699999V0200901N00671220001CN0200001N9+00891+99999999999ADDAA199006091GF108991001001999999999999MD1810161+9999
0075014030999991929102206004+59300+004883FM-12+005699999V0202501N01231220001CN0500001N9+00891+99999099681ADDAA199002091GF104991041031012501999999EQDQ01+000032APCTENQ02+000002APC3  
0075014030999991929102218004+59300+004883FM-12+005699999V0202501N00931007801CN0200001N9+00891+99999099741ADDAA199001091GF108991081061008001999999EQDQ01+000032APCTENQ02+000002APC3  
0054014030999991929102306004+59300+004883FM-12+005699999V0202001N01231007801CN0200001N9+00891+99999099161ADDAA199001091GF108991081061008001999999MD1810201+9999
0054014030999991929102318004+59300+004883FM-12+005699999V0202301N01541007801CN0040001N9+00891+99999098831ADDAA199005091GF108991081061008001999999MD1810361+9999
0075014030999991929102406004+59300+004883FM-12+005699999V0202301N00931007801CN0100001N9+01001+99999098091ADDAA199004091GF108991081061008001999999EQDQ01+000032APCTENQ02+000002APC3  
0075014030999991929102418004+59300+004883FM-12+005699999V0202701N00461007801CN0100001N9+00781+99999098041ADDAA199013091GF108991081061008001999999EQDQ01+000032APCTENQ02+000002APC3  
0054014030999991929102506004+59300+004883FM-12+005699999V0201601N00101015001CN0500001N9+00611+99999098311ADDAA199009091GF108991081051017501999999MD1310041+9999
0054014030999991929102518004+59300+004883FM-12+005699999V0202501N00931007801CN0500001N9+00721+99999099141ADDAA199001091GF106991061031008001999999MD1310161+9999
0054014030999991929102606004+59300+004883FM-12+005699999V0202701N00461012301CN0500001N9+00501+99999099971ADDAA199010091GF106991061031012501999999MD1310201+9999
0075014030999991929102618004+59300+004883FM-12+005699999V0200501N00461007801CN0200001N9+00611+99999100111ADDAA199005091GF107991071061008001999999EQDQ01+000032APCTENQ02+000002APC3  
0043014030999991929102706004+59300+004883FM-12+005699999V0203601N01231220001CN0500001N9+00781+99999099781ADDGF104991041011012501999999MD1810101+9999
0054014030999991929102718004+59300+004883FM-12+005699999V0203601N01541220001CN0500001N9+00721+99999100041ADDAA199004091GF104991041011012501999999MD1310161+9999
0075014030999991929102806004+59300+004883FM-12+005699999V0202901N00671220001CN0500001N9+00501+99999100251ADDAA199000591GF104991041031012501999999EQDQ01+000032APCTENQ02+000002APC3  
0054014030999991929102818004+59300+004883FM-12+005699999V0201101N00671007801CN0200001N9+00501+99999099791ADDAA199000591GF108991081061008001999999MD1810241+9999
0054014030999991929102906004+59300+004883FM-12+005699999V0200701N00671007801CN0500001N9+00501+99999098931ADDAA199000591GF108991081061008001999999MD1810161+9999
0054014030999991929102918004+59300+004883FM-12+005699999V0200501N00261007801CN0500001N9+00721+99999099241ADDAA199002091GF108991081061008001999999MD1310161+9999
0054014030999991929103006004+59300+004883FM-12+005699999V0200201N00671007801CN0500001N9+00611+99999100331ADDAA199001091GF108991081061008001999999MD1310401+9999
0054014030999991929103018004+59300+004883FM-12+005699999V0203601N00261220001CN0500001N9+00721+99999101521ADDAA199000591GF100991001001999999999999MD1310401+9999
0043014030999991929103106004+59300+004883FM-12+005699999V0203601N00461220001CN9999999N9+99999+99999102631ADDGF100991001001999999999999MD1310301+9999
0043014030999991929103118004+59300+004883FM-12+005699999V0201801N00101220001CN0500001N9+00391+99999102951ADDGF100991001001999999999999MD1810041+9999
0043014030999991929110106004+59300+004883FM-12+005699999V0201601N01231015001CN0500001N9+00611+99999102881ADDGF107991071051017501999999MD1810041+9999
0054014030999991929110118004+59300+004883FM-12+005699999V0201801N00931007801CN0200001N9+00721+99999102661ADDAA199000691GF108991081061008001999999MD1810041+9999
0062014030999991929110206004+59300+004883FM-12+005699999V0201801N00931007801CN0200001N9+00781+99999102271ADDAA199003091AY161999GF108991081061008001999999MD1810201+9999
0054014030999991929110218004+59300+004883FM-12+005699999V0202001N01231007801CN0100001N9+00721+99999101441ADDAA199006091GF108991081061008001999999MD1810241+9999
0075014030999991929110306004+59300+004883FM-12+005699999V0202701N00671220001CN0500001N9+00781+99999100941ADDAA199010091GF108991001001999999999999EQDQ01+000032APCTENQ02+000002APC3  
0054014030999991929110318004+59300+004883FM-12+005699999V0202901N00931220001CN0500001N9+00721+99999101341ADDAA199000691GF104991041011012501999999MD1310201+9999
0054014030999991929110406004+59300+004883FM-12+005699999V0203201N00671220001CN0500001N9+00611+99999101741ADDAA199000391GF102991021011999999999999MD1310161+9999
0054014030999991929110418004+59300+004883FM-12+005699999V0202501N00671015001CN0500001N9+00781+99999101381ADDAA199000591GF108991081051017501999999MD1810201+9999
0054014030999991929110506004+59300+004883FM-12+005699999V0202301N00931007801CN0100001N9+01001+99999100481ADDAA199003091GF108991081061008001999999MD1810201+9999
0054014030999991929110518004+59300+004883FM-12+005699999V0202001N00931007801CN0100001N9+00891+99999100101ADDAA199002091GF108991081061008001999999MD1810101+9999
0054014030999991929110606004+59300+004883FM-12+005699999V0202001N00671007801CN0100001N9+00781+99999100161ADDAA199013091GF108991081061008001999999MD1310101+9999
0054014030999991929110618004+59300+004883FM-12+005699999V0201801N00671007801CN9999999N9+00891+99999100221ADDAA199003091GF108991081061008001999999MD1810101+9999
0054014030999991929110706004+59300+004883FM-12+005699999V0202001N00461007801CN0100001N9+00611+99999100081ADDAA199015091GF107991071061008001999999MD1310081+9999
0075014030999991929110718004+59300+004883FM-12+005699999V0202001N00671220001CN0500001N9+00721+99999100401ADDAA199000591GF102991021011012501999999EQDQ01+000032APCTENQ02+000002APC3  
0054014030999991929110806004+59300+004883FM-12+005699999V0201801N01901007801CN0040001N9+00891+99999099051ADDAA199009091GF108991081061008001999999MD1810301+9999
0054014030999991929110818004+59300+004883FM-12+005699999V0202901N00931220001CN0200001N9+00611+99999099781ADDAA199004091GF102991021011012501999999MD1310201+9999
0054014030999991929110906004+59300+004883FM-12+005699999V0202001N00671220001CN0500001N9+00611+99999099951ADDAA199000591GF102991021011999999999999MD1810041+9999
0075014030999991929110918004+59300+004883FM-12+005699999V0202501N00671012301CN0500001N9+00721+99999099741ADDAA199004091GF106991061031012501999999EQDQ01+000032APCTENQ02+000002APC3  
0054014030999991929111006004+59300+004883FM-12+005699999V0201601N00671007801CN0100001N9+00611+99999099441ADDAA199004091GF108991081061008001999999MD1810301+9999
0054014030999991929111018004+59300+004883FM-12+005699999V0202501N00461012301CN0500001N9+00611+99999099911ADDAA199004091GF106991061031012501999999MD1310101+9999
0054014030999991929111106004+59300+004883FM-12+005699999V0202301N00931220001CN0500001N9+00611+99999099801ADDAA199001091GF104991041031012501999999MD1810101+9999
0073014030999991929111118004+59300+004883FM-12+005699999V0202501N02261007801CN0040001N9+00721+99999097662ADDAA199014091GF108991081061008001999999MD1814362+9999EQDQ01+004362APC3  
0054014030999991929111218004+59300+004883FM-12+005699999V0202501N00671012301CN0500001N9+00501+99999098071ADDAA199001091GF106991061031012501999999MD1310241+9999
0054014030999991929111306004+59300+004883FM-12+005699999V0202301N01231220001CN0500001N9+00501+99999098521ADDAA199005091GF104991041031012501999999MD1310161+9999
0054014030999991929111318004+59300+004883FM-12+005699999V0202301N01231007801CN0200001N9+00391+99999099201ADDAA199002091GF108991081061008001999999MD1310241+9999
0054014030999991929111406004+59300+004883FM-12+005699999V0202001N00931220001CN0500001N9+00501+99999099791ADDAA199002091GF104991041031012501999999MD1310201+9999
0054014030999991929111418004+59300+004883FM-12+005699999V0201601N00931007801CN0100001N9+00281+99999100201ADDAA199004091GF108991081061008001999999MD1310101+9999
0054014030999991929111506004+59300+004883FM-12+005699999V0209991C00001220001CN0500001N9+00281+99999100131ADDAA199003091GF102991001001999999999999MD1810041+9999
0043014030999991929111518004+59300+004883FM-12+005699999V0203601N00931012301CN0500001N9+00611+99999099261ADDGF107991071031012501999999MD1810201+9999
0054014030999991929111606004+59300+004883FM-12+005699999V0203201N00461220001CN0500001N9+00501+99999099431ADDAA199000591GF104991041031012501999999MD1810201+9999
0054014030999991929111618004+59300+004883FM-12+005699999V0202701N00461220001CN0500001N9+00501+99999099851ADDAA199001091GF104991041011012501999999MD1310101+9999
0054014030999991929111706004+59300+004883FM-12+005699999V0203601N00671007801CN0500001N9+00281+99999100561ADDAA199004091GF106991061061008001999999MD1310201+9999
0054014030999991929111718004+59300+004883FM-12+005699999V0200501N00261007801CN0500001N9+00281+99999101061ADDAA199001091GF106991061061008001999999MD1310161+9999
0054014030999991929111806004+59300+004883FM-12+005699999V0200901N00101220001CN0500001N9+00111+99999101411ADDAA199001091GF102991021011999999999999MD1310101+9999
0064014030999991929111818004+59300+004883FM-12+005699999V0201601N00461220001CN0500001N9+00111+99999101561ADDGF101991011011999999999999EQDQ01+000032APCTENQ02+000002APC3  
0054014030999991929111918004+59300+004883FM-12+005699999V0201401N01901007801CN0040001N9+00501+99999100371ADDAA199000591GF108991081061008001999999MD1810101+9999
0075014030999991929112006004+59300+004883FM-12+005699999V0201401N01901007801CN0200001N9+00721+99999100261ADDAA199000591GF108991081061008001999999EQDQ01+000032APCTENQ02+000002APC3  
0054014030999991929112018004+59300+004883FM-12+005699999V0201601N01231007801CN0040001N9+00781+99999100891ADDAA199006091GF108991081061008001999999MD1310201+9999
0075014030999991929112106004+59300+004883FM-12+005699999V0201801N009319999999N0200001N9+00781+99999100901ADDAA199000391GF106991021051022501999999EQDQ01+000032APCTENQ02+000002APC3  
0064014030999991929112118004+59300+004883FM-12+005699999V0201601N00931220001CN0500001N9+00721+99999100941ADDGF102991001001999999999999EQDQ01+000032APCTENQ02+000002APC3  
0043014030999991929112206004+59300+004883FM-12+005699999V0202001N00671220001CN0500001N9+00721+99999101041ADDGF102991001001999999999999MD1310101+9999
0064014030999991929112218004+59300+004883FM-12+005699999V0201601N00671220001CN9999999N9+00721+99999101061ADDGF100991001001999999999999EQDQ01+000032APCTENQ02+000002APC3  
0029014030999991929112306004+59300+004883FM-12+005699999V0201801N00931220001CN9999999N9+00721+99999100611ADDGF104991001999999999999999
0054014030999991929112318004+59300+004883FM-12+005699999V0201401N012319999999N0500001N9+00781+99999100311ADDAA199001091GF106991999999999999999999MD1810041+9999
0054014030999991929112406004+59300+004883FM-12+005699999V0201601N00931220001CN0500001N9+00781+99999100231ADDAA199009091GF104991041031012501999999MD1310201+9999
0043014030999991929112418004+59300+004883FM-12+005699999V0201601N00671220001CN0500001N9+00781+99999100721ADDGF102991001001999999999999MD1310101+9999
0043014030999991929112506004+59300+004883FM-12+005699999V0201601N012319999999N0200001N9+00721+99999100651ADDGF108991021061012501999999MD1810041+9999
0054014030999991929112518004+59300+004883FM-12+005699999V0201401N01231007801CN0100001N9+00721+99999099671ADDAA199004091GF108991081061008001999999MD1810401+9999
0040014030999991929112606004+59300+004883FM-12+005699999V0201601N01231007801CN0100001N9+00781+99999099201ADDAA199005091GF106991061061008001999999
0054014030999991929112618004+59300+004883FM-12+005699999V0202301N00931007801CN0200001N9+00721+99999099751ADDAA199005091GF108991081061008001999999MD1310201+9999
0054014030999991929112706004+59300+004883FM-12+005699999V0201801N00671015001CN0500001N9+00721+99999100361ADDAA199000391GF108991081051017501999999MD1310201+9999
0043014030999991929112718004+59300+004883FM-12+005699999V0201801N00671220001CN0500001N9+00721+99999100731ADDGF104991041031012501999999MD1310101+9999
0064014030999991929112806004+59300+004883FM-12+005699999V0201801N00461220001CN0500001N9+00611+99999100871ADDGF102991021011999999999999EQDQ01+000032APCTENQ02+000002APC3  
0043014030999991929112818004+59300+004883FM-12+005699999V0201401N00671220001CN0500001N9+00611+99999100611ADDGF108991001001999999999999MD1810101+9999
0043014030999991929112906004+59300+004883FM-12+005699999V0200901N00461015001CN0500001N9+00611+99999100231ADDGF107991071051017501999999MD1810101+9999
0043014030999991929112918004+59300+004883FM-12+005699999V0200701N00671220001CN0500001N9+00501+99999100191ADDGF100991001001999999999999MD1810041+9999
0043014030999991929113006004+59300+004883FM-12+005699999V0200901N00101015001CN0500001N9+00501+99999100061ADDGF108991081031017501999999MD1810041+9999
0043014030999991929113018004+59300+004883FM-12+005699999V0200901N00461015001CN0500001N9+00611+99999099921ADDGF108991081051017501999999MD1810101+9999
0054014030999991929120106004+59300+004883FM-12+005699999V0200901N00671007801CN0500001N9+00611+99999099461ADDAA199002091GF108991081061008001999999MD1810101+9999
0054014030999991929120118004+59300+004883FM-12+005699999V0201401N00671007801CN0100001N9+00611+99999099541ADDAA199002091GF108991081061008001999999MD1310101+9999
0054014030999991929120206004+59300+004883FM-12+005699999V0201601N01231015001CN0100001N9+00611+99999099511ADDAA199001091GF108991081061017501999999MD1810101+9999
0043014030999991929120218004+59300+004883FM-12+005699999V0201601N019019999999N0200001N9+00781+99999098591ADDGF108991081051999999999999MD1810361+9999
0054014030999991929120306004+59300+004883FM-12+005699999V0202001N00931012301CN0500001N9+00721+99999099231ADDAA199015091GF108991081031012501999999MD1310241+9999
0054014030999991929120318004+59300+004883FM-12+005699999V0201801N00931007801CN0500001N9+00721+99999100391ADDAA199000591GF108991081061008001999999MD1310241+9999
0075014030999991929120406004+59300+004883FM-12+005699999V0201601N01231220001CN0500001N9+00611+99999100721ADDAA199000591GF102991001001999999999999EQDQ01+000032APCTENQ02+000002APC3  
0054014030999991929120418004+59300+004883FM-12+005699999V0201601N01541007801CN0200001N9+00721+99999099791ADDAA199001091GF108991081061008001999999MD1810301+9999
0054014030999991929120506004+59300+004883FM-12+005699999V0201601N01231007801CN0100001N9+00721+99999099731ADDAA199007091GF108991081061008001999999MD1810101+9999
0054014030999991929120518004+59300+004883FM-12+005699999V0201401N01541007801CN0200001N9+00781+99999098641ADDAA199000591GF108991081061008001999999MD1810401+9999
0043014030999991929120606004+59300+004883FM-12+005699999V0201401N01541007801CN0100001N9+00781+99999097981ADDGF108991081061008001999999MD1810101+9999
0054014030999991929120618004+59300+004883FM-12+005699999V0201801N01231015001CN0200001N9+00781+99999098631ADDAA199002091GF108991081051017501999999MD1310161+9999
0054014030999991929120706004+59300+004883FM-12+005699999V0201401N01901007801CN0100001N9+00611+99999097621ADDAA199001091GF108991081061008001999999MD1810401+9999
0054014030999991929120718004+59300+004883FM-12+005699999V0201101N01231007801CN0200001N9+00721+99999096781ADDAA199013091GF107991071061008001999999MD1810161+9999
0073014030999991929120806004+59300+004883FM-12+005699999V0202501N01901007801CN0100001N9+00611+99999098301ADDAA199010091GF106991061061008001999999MD1310642+9999EQDQ01+000642APC3  
0073014030999991929120818004+59300+004883FM-12+005699999V0201401N00931007801CN0200001N9+00611+99999097821ADDAA199000591GF108991081061008001999999MD1810502+9999EQDQ01+000502APC3  
0054014030999991929120906004+59300+004883FM-12+005699999V0202701N01231007801CN0100001N9+00281+99999097421ADDAA199007091GF108991081061008001999999MD1310101+9999
0075014030999991929120918004+59300+004883FM-12+005699999V0202301N00671220001CN0500001N9+00611+99999097811ADDAA199001091GF104991001001999999999999EQDQ01+000032APCTENQ02+000002APC3  
0054014030999991929121006004+59300+004883FM-12+005699999V0202901N00461220001CN0500001N9+00501+99999097751ADDAA199003091GF102991021011999999999999MD1310161+9999
0054014030999991929121018004+59300+004883FM-12+005699999V0202901N01231007801CN0200001N9+00611+99999098371ADDAA199001091GF108991081061008001999999MD1310241+9999
0054014030999991929121106004+59300+004883FM-12+005699999V0201801N00461220001CN0500001N9+00501+99999098971ADDAA199001091GF104991041031008001999999MD1810041+9999
0054014030999991929121118004+59300+004883FM-12+005699999V0201101N00671015001CN0500001N9+00391+99999098811ADDAA199002091GF107991071051017501999999MD1810101+9999
0054014030999991929121206004+59300+004883FM-12+005699999V0200501N00931007801CN0500001N9+00501+99999098071ADDAA199000691GF108991081061008001999999MD1810101+9999
0073014030999991929121218004+59300+004883FM-12+005699999V0203601N01231220001CN0500001N9+00611+99999099421ADDAA199001091GF101991001001999999999999MD1310502+9999EQDQ01+000502APC3  
0000014030999991929121306004+59300+004883FM-12+005699999V02099999999999999999N9999999N9+99999+99999999999
0054014030999991929121318004+59300+004883FM-12+005699999V0201601N01231007801CN0040001N9+00611+99999100521ADDAA199003091GF108991081061008001999999MD1810401+9999
0075014030999991929121406004+59300+004883FM-12+005699999V0202701N01541007801CN0100001N9+00501+99999099761ADDAA199010091GF106991061031008001999999EQDQ01+000032APCTENQ02+000002APC3  
0017014030999991929121418004+59300+004883FM-12+005699999V0202701N015419999999N9999999N9+00721+99999100031ADDMD1310101+9999
0075014030999991929121506004+59300+004883FM-12+005699999V0202901N00671220001CN0500001N9+00391+99999100831ADDAA199008091GF102991021011999999999999EQDQ01+000032APCTENQ02+000002APC3  
0054014030999991929121518004+59300+004883FM-12+005699999V0203601N00931220001CN0500001N9+00391+99999101431ADDAA199002091GF102991021031999999999999MD1310301+9999
0054014030999991929121606004+59300+004883FM-12+005699999V0203401N00931220001CN0500001N9+00391+99999101901ADDAA199003091GF102991021031999999999999MD1310201+9999
0054014030999991929121618004+59300+004883FM-12+005699999V0203401N01231220001CN0500001N9+00281+99999102271ADDAA199001091GF104991041031999999999999MD1310041+9999
0054014030999991929121706004+59300+004883FM-12+005699999V0203601N01231012301CN0500001N9+00391+99999102881ADDAA199000591GF107991071031012501999999MD1310241+9999
0054014030999991929121718004+59300+004883FM-12+005699999V0201101N00101220001CN0500001N9+00221+99999103301ADDAA199002091GF102991001001999999999999MD1310041+9999
0054014030999991929121806004+59300+004883FM-12+005699999V0202001N00931007801CN0500001N9+00501+99999102941ADDAA199000591GF108991081061008001999999MD1810101+9999
0054014030999991929121818004+59300+004883FM-12+005699999V0202301N00461220001CN0005001N9+00721+99999102781ADDAA199006091GF100991001001999999999999MD1810041+9999
0054014030999991929121906004+59300+004883FM-12+005699999V0202001N00671007801CN0040001N9+00721+99999102561ADDAA199001091GF108991081061008001999999MD1810041+9999
0043014030999991929121918004+59300+004883FM-12+005699999V0201801N012319999999N9999999N9+00611+99999102181ADDGF108991999999999999999999MD1810161+9999
0043014030999991929122006004+59300+004883FM-12+005699999V0201801N01541220001CN0100001N9+00501+99999101501ADDGF101991011011008001999999MD1810101+9999
0043014030999991929122018004+59300+004883FM-12+005699999V0201801N01541220001CN0200001N9+00501+99999101171ADDGF104991041011012501999999MD1810101+9999
0000014030999991929122106004+59300+004883FM-12+005699999V02099999999999999999N9999999N9+99999+99999999999
0043014030999991929122118004+59300+004883FM-12+005699999V0202301N00261220001CN0200001N9+00391+99999100311ADDGF102991001001999999999999MD1810041+9999
0064014030999991929122206004+59300+004883FM-12+005699999V0201401N01541220001CN0200001N9+00501+99999100501ADDGF102991001001999999999999EQDQ01+000032APCTENQ02+000002APC3  
0043014030999991929122218004+59300+004883FM-12+005699999V0201101N01541220001CN0500001N9+00391+99999100831ADDGF101991011011999999999999MD1310041+9999
0064014030999991929122306004+59300+004883FM-12+005699999V0201101N01541015001CN0500001N9+00281+99999100711ADDGF108991081051017501999999EQDQ01+000032APCTENQ02+000002APC3  
0000014030999991929122318004+59300+004883FM-12+005699999V02099999999999999999N9999999N9+99999+99999999999
0000014030999991929122406004+59300+004883FM-12+005699999V02099999999999999999N9999999N9+99999+99999999999
0000014030999991929122418004+59300+004883FM-12+005699999V02099999999999999999N9999999N9+99999+99999999999
0000014030999991929122506004+59300+004883FM-12+005699999V02099999999999999999N9999999N9+99999+99999999999
0054014030999991929122518004+59300+004883FM-12+005699999V0201101N01231007801CN0200001N9-00111+99999098781ADDAA199001091GF108991081061008001999999MD1810401+9999
0000014030999991929122606004+59300+004883FM-12+005699999V02099999999999999999N9999999N9+99999+99999999999
0073014030999991929122618004+59300+004883FM-12+005699999V0203401N01231007801CN0200001N9+00391+99999099571ADDAA199005091GF106991061061008001999999MD1310642+9999EQDQ01+000642APC3  
0043014030999991929122706004+59300+004883FM-12+005699999V0201401N00671012301CN0500001N9+00281+99999100171ADDGF108991081061012501999999MD1810101+9999
0054014030999991929122718004+59300+004883FM-12+005699999V0202001N01231007801CN9999999N9+00611+99999099471ADDAA199010091GF108991081061008001999999MD1810161+9999
0000014030999991929122806004+59300+004883FM-12+005699999V02099999999999999999N9999999N9+99999+99999999999
0075014030999991929122818004+59300+004883FM-12+005699999V0202301N00931220001CN0500001N9+00391+99999099911ADDAA199000391GF104991041031012501999999EQDQ01+000032APCTENQ02+000002APC3  
0073014030999991929122906004+59300+004883FM-12+005699999V0201401N01901007801CN0100001N9+00281+99999097901ADDAA199004091GF108991081061008001999999MD1810762+9999EQDQ01+000762APC3  
0054014030999991929122918004+59300+004883FM-12+005699999V0202301N01231007801CN0100001N9+00611+99999096921ADDAA199007091GF108991081061008001999999MD1310161+9999
0000014030999991929123006004+59300+004883FM-12+005699999V02099999999999999999N9999999N9+99999+99999999999
0054014030999991929123018004+59300+004883FM-12+005699999V0202701N01231220001CN0500001N9+00611+99999098681ADDAA199002091GF104991041031999999999999MD1310161+9999
0028014030999991929123106004+59300+004883FM-12+005699999V0202901N999999999999N9999999N9+99999+99999099461ADDAA199001091MD1310201+9999
0054014030999991929123118004+59300+004883FM-12+005699999V0202701N00671220001CN0500001N9+00391+99999100141ADDAA199001091GF102991021011012501999999MD1310161+9999
