0029029700999991922010106004+60100+019950FM-12+001499999V0209991C000019999999N0000001N9-00891+99999099591ADDGF103991999999999999999999
0029029700999991922010113004+60100+019950FM-12+001499999V0202301N005119999999N0000001N9-00111+99999099101ADDGF108991999999999999999999
0035029700999991922010120004+60100+019950FM-12+001499999V0202301N005119999999N0000001N9+00061+99999097581ADDGF108991999999999999999999MW1721
0029029700999991922010206004+60100+019950FM-12+001499999V0202901N001019999999N0000001N9+00061+99999096751ADDGF106991999999999999999999
0029029700999991922010213004+60100+019950FM-12+001499999V0202501N003119999999N0000001N9-00061+99999096271ADDGF102991999999999999999999
0029029700999991922010220004+60100+019950FM-12+001499999V0202701N002119999999N0000001N9-00061+99999096121ADDGF102991999999999999999999
0029029700999991922010306004+60100+019950FM-12+001499999V0203601N005119999999N0000001N9-00281+99999096481ADDGF108991999999999999999999
0029029700999991922010313004+60100+019950FM-12+001499999V0203201N004119999999N0000001N9-00221+99999096821ADDGF102991999999999999999999
0035029700999991922010320004+60100+019950FM-12+001499999V0209991C000019999999N0000001N9-00561+99999097201ADDGF108991999999999999999999MW1721
0029029700999991922010406004+60100+019950FM-12+001499999V0209991C000019999999N0000001N9-00561+99999097541ADDGF108991999999999999999999
0035029700999991922010413004+60100+019950FM-12+001499999V0203201N002119999999N0000001N9-00561+99999097841ADDGF103991999999999999999999MW1721
0029029700999991922010420004+60100+019950FM-12+001499999V0209991C000019999999N0000001N9-00441+99999098501ADDGF106991999999999999999999
0029029700999991922010506004+60100+019950FM-12+001499999V0209991C000019999999N0000001N9-00941+99999099021ADDGF108991999999999999999999
0029029700999991922010513004+60100+019950FM-12+001499999V0200501N001019999999N0000001N9-00441+99999099441ADDGF107991999999999999999999
0029029700999991922010520004+60100+019950FM-12+001499999V0200501N001019999999N0000001N9-00501+99999099831ADDGF108991999999999999999999
0035029700999991922010606004+60100+019950FM-12+001499999V0200501N001019999999N0000001N9-00671+99999100361ADDGF108991999999999999999999MW1721
0029029700999991922010613004+60100+019950FM-12+001499999V0200201N005119999999N0000001N9-00331+99999100511ADDGF106991999999999999999999
0029029700999991922010620004+60100+019950FM-12+001499999V0200201N006219999999N0000001N9-00331+99999100681ADDGF108991999999999999999999
0029029700999991922010706004+60100+019950FM-12+001499999V0202901N005119999999N0000001N9-00391+99999100871ADDGF108991999999999999999999
0029029700999991922010713004+60100+019950FM-12+001499999V0209991C000019999999N0000001N9-00611+99999101181ADDGF104991999999999999999999
0029029700999991922010720004+60100+019950FM-12+001499999V0209991C000019999999N0000001N9-01221+99999101311ADDGF103991999999999999999999
0035029700999991922010806004+60100+019950FM-12+001499999V0202001N001019999999N0000001N9-00221+99999100871ADDGF108991999999999999999999MW1721
0029029700999991922010813004+60100+019950FM-12+001499999V0202001N004119999999N0000001N9-00061+99999100801ADDGF108991999999999999999999
0035029700999991922010820004+60100+019950FM-12+001499999V0202001N008219999999N0000001N9-00221+99999100791ADDGF108991999999999999999999MW1721
0029029700999991922010906004+60100+019950FM-12+001499999V0202301N008719999999N0000001N9+00001+99999101061ADDGF108991999999999999999999
0029029700999991922010913004+60100+019950FM-12+001499999V0202001N007219999999N0000001N9+00001+99999101271ADDGF107991999999999999999999
0029029700999991922010920004+60100+019950FM-12+001499999V0202001N007219999999N0000001N9-00061+99999101081ADDGF108991999999999999999999
0035029700999991922011006004+60100+019950FM-12+001499999V0201601N007219999999N0000001N9-00171+99999099631ADDGF108991999999999999999999MW1721
0029029700999991922011013004+60100+019950FM-12+001499999V0202501N004119999999N0000001N9-00061+99999098901ADDGF108991999999999999999999
0029029700999991922011020004+60100+019950FM-12+001499999V0202301N004119999999N0000001N9+00061+99999099061ADDGF108991999999999999999999
0029029700999991922011106004+60100+019950FM-12+001499999V0209991C000019999999N0000001N9-00171+99999099201ADDGF108991999999999999999999
0035029700999991922011113004+60100+019950FM-12+001499999V0209991C000019999999N0000001N9-00061+99999099391ADDGF108991999999999999999999MW1721
0029029700999991922011120004+60100+019950FM-12+001499999V0209991C000019999999N0000001N9-00171+99999099791ADDGF108991999999999999999999
0035029700999991922011206004+60100+019950FM-12+001499999V0200201N001019999999N0000001N9-00391+99999100471ADDGF108991999999999999999999MW1721
0035029700999991922011213004+60100+019950FM-12+001499999V0200201N002119999999N0000001N9-00441+99999100951ADDGF108991999999999999999999MW1721
0029029700999991922011220004+60100+019950FM-12+001499999V0200501N002119999999N0000001N9-00221+99999101401ADDGF108991999999999999999999
0029029700999991922011306004+60100+019950FM-12+001499999V0200201N004119999999N0000001N9-00391+99999101921ADDGF108991999999999999999999
0029029700999991922011313004+60100+019950FM-12+001499999V0200901N007219999999N0000001N9-00061+99999102241ADDGF108991999999999999999999
0029029700999991922011320004+60100+019950FM-12+001499999V0200901N006219999999N0000001N9-00171+99999102541ADDGF108991999999999999999999
0029029700999991922011406004+60100+019950FM-12+001499999V0200701N006219999999N0000001N9-00441+99999102681ADDGF108991999999999999999999
0029029700999991922011413004+60100+019950FM-12+001499999V0200901N007219999999N0000001N9-00721+99999102471ADDGF108991999999999999999999
0035029700999991922011420004+60100+019950FM-12+001499999V0200901N008719999999N0000001N9-00671+99999102101ADDGF108991999999999999999999MW1861
0035029700999991922011506004+60100+019950FM-12+001499999V0200901N008219999999N0000001N9-00441+99999101881ADDGF108991999999999999999999MW1721
0029029700999991922011513004+60100+019950FM-12+001499999V0201101N004119999999N0000001N9-00391+99999101981ADDGF108991999999999999999999
0035029700999991922011520004+60100+019950FM-12+001499999V0201101N003119999999N0000001N9-00501+99999101881ADDGF108991999999999999999999MW1721
0029029700999991922011606004+60100+019950FM-12+001499999V0200901N004119999999N0000001N9-00721+99999101741ADDGF108991999999999999999999
0029029700999991922011613004+60100+019950FM-12+001499999V0200901N003119999999N0000001N9-00891+99999101551ADDGF108991999999999999999999
0035029700999991922011620004+60100+019950FM-12+001499999V0200901N006219999999N0000001N9-01061+99999101321ADDGF108991999999999999999999MW1721
0029029700999991922011706004+60100+019950FM-12+001499999V0200901N006219999999N0000001N9-01171+99999101261ADDGF108991999999999999999999
0035029700999991922011713004+60100+019950FM-12+001499999V0200901N006219999999N0000001N9-01001+99999101441ADDGF108991999999999999999999MW1701
0029029700999991922011720004+60100+019950FM-12+001499999V0200901N004119999999N0000001N9-01001+99999101641ADDGF108991999999999999999999
0029029700999991922011806004+60100+019950FM-12+001499999V0200701N003119999999N0000001N9-00831+99999101941ADDGF108991999999999999999999
0029029700999991922011813004+60100+019950FM-12+001499999V0200701N002119999999N0000001N9-01001+99999102111ADDGF108991999999999999999999
0029029700999991922011820004+60100+019950FM-12+001499999V0209991C000019999999N0000001N9-01171+99999102271ADDGF108991999999999999999999
0029029700999991922011906004+60100+019950FM-12+001499999V0209991C000019999999N0000001N9-01061+99999102441ADDGF108991999999999999999999
0029029700999991922011913004+60100+019950FM-12+001499999V0209991C000019999999N0000001N9-01221+99999102591ADDGF100991999999999999999999
0029029700999991922011920004+60100+019950FM-12+001499999V0200901N001019999999N0000001N9-01061+99999102821ADDGF108991999999999999999999
0029029700999991922012006004+60100+019950FM-12+001499999V0209991C000019999999N0000001N9-01331+99999103121ADDGF108991999999999999999999
0029029700999991922012013004+60100+019950FM-12+001499999V0200901N001019999999N0000001N9-01111+99999103311ADDGF108991999999999999999999
0029029700999991922012020004+60100+019950FM-12+001499999V0200901N001019999999N0000001N9-01061+99999103431ADDGF108991999999999999999999
0029029700999991922012106004+60100+019950FM-12+001499999V0200901N001019999999N0000001N9-00781+99999103621ADDGF108991999999999999999999
0029029700999991922012113004+60100+019950FM-12+001499999V0201401N001019999999N0000001N9-00561+99999103721ADDGF108991999999999999999999
0029029700999991922012120004+60100+019950FM-12+001499999V0201401N003119999999N0000001N9-00611+99999103831ADDGF108991999999999999999999
0029029700999991922012206004+60100+019950FM-12+001499999V0202001N001019999999N0000001N9-00221+99999103951ADDGF108991999999999999999999
0029029700999991922012213004+60100+019950FM-12+001499999V0202001N001019999999N0000001N9-00111+99999104201ADDGF107991999999999999999999
0029029700999991922012220004+60100+019950FM-12+001499999V0202001N002119999999N0000001N9-00171+99999104441ADDGF100991999999999999999999
0029029700999991922012306004+60100+019950FM-12+001499999V0209991C000019999999N0000001N9-00671+99999104681ADDGF100991999999999999999999
0029029700999991922012313004+60100+019950FM-12+001499999V0202501N001019999999N0000001N9-00221+99999104721ADDGF101991999999999999999999
0029029700999991922012320004+60100+019950FM-12+001499999V0202501N001019999999N0000001N9-00441+99999104521ADDGF100991999999999999999999
0029029700999991922012406004+60100+019950FM-12+001499999V0209991C000019999999N0000001N9-00941+99999103941ADDGF101991999999999999999999
0029029700999991922012413004+60100+019950FM-12+001499999V0209991C000019999999N0000001N9-00331+99999103641ADDGF107991999999999999999999
0029029700999991922012420004+60100+019950FM-12+001499999V0200901N005119999999N0000001N9-00501+99999103701ADDGF108991999999999999999999
0029029700999991922012506004+60100+019950FM-12+001499999V0200901N001019999999N0000001N9-00721+99999103861ADDGF108991999999999999999999
0029029700999991922012513004+60100+019950FM-12+001499999V0200901N001019999999N0000001N9-00941+99999103841ADDGF108991999999999999999999
0035029700999991922012520004+60100+019950FM-12+001499999V0209991C000019999999N0000001N9-01171+99999103791ADDGF108991999999999999999999MW1701
0029029700999991922012606004+60100+019950FM-12+001499999V0209991C000019999999N0000001N9-00721+99999103441ADDGF108991999999999999999999
0029029700999991922012613004+60100+019950FM-12+001499999V0203201N001019999999N0000001N9-00441+99999103321ADDGF108991999999999999999999
0029029700999991922012620004+60100+019950FM-12+001499999V0202301N003119999999N0000001N9-00721+99999103081ADDGF108991999999999999999999
0029029700999991922012706004+60100+019950FM-12+001499999V0202701N001019999999N0000001N9-00781+99999102621ADDGF108991999999999999999999
0029029700999991922012713004+60100+019950FM-12+001499999V0209991C000019999999N0000001N9-00831+99999102541ADDGF108991999999999999999999
0029029700999991922012720004+60100+019950FM-12+001499999V0200901N001019999999N0000001N9-00721+99999102271ADDGF108991999999999999999999
0029029700999991922012806004+60100+019950FM-12+001499999V0209991C000019999999N0000001N9-00831+99999102151ADDGF108991999999999999999999
0029029700999991922012813004+60100+019950FM-12+001499999V0201101N001019999999N0000001N9-00671+99999102041ADDGF108991999999999999999999
0029029700999991922012820004+60100+019950FM-12+001499999V0209991C000019999999N0000001N9-00611+99999101921ADDGF108991999999999999999999
0029029700999991922012906004+60100+019950FM-12+001499999V0209991C000019999999N0000001N9-00561+99999101741ADDGF108991999999999999999999
0029029700999991922012913004+60100+019950FM-12+001499999V0202301N003119999999N0000001N9-00501+99999101741ADDGF108991999999999999999999
0029029700999991922012920004+60100+019950FM-12+001499999V0202301N002119999999N0000001N9-00331+99999101581ADDGF108991999999999999999999
0029029700999991922013006004+60100+019950FM-12+001499999V0202301N001019999999N0000001N9-00331+99999101281ADDGF108991999999999999999999
0029029700999991922013013004+60100+019950FM-12+001499999V0202301N003119999999N0000001N9-00331+99999101121ADDGF108991999999999999999999
0029029700999991922013020004+60100+019950FM-12+001499999V0202301N003119999999N0000001N9-00331+99999100961ADDGF108991999999999999999999
0029029700999991922013106004+60100+019950FM-12+001499999V0201801N001019999999N0000001N9-00611+99999100821ADDGF108991999999999999999999
0029029700999991922013113004+60100+019950FM-12+001499999V0201101N001019999999N0000001N9-00781+99999100841ADDGF108991999999999999999999
0029029700999991922013120004+60100+019950FM-12+001499999V0201101N005119999999N0000001N9-01001+99999100921ADDGF108991999999999999999999
0035029700999991922020106004+60100+019950FM-12+001499999V0200901N001019999999N0000001N9-01331+99999101141ADDGF108991999999999999999999MW1701
0029029700999991922020113004+60100+019950FM-12+001499999V0200701N001019999999N0000001N9-01111+99999101391ADDGF101991999999999999999999
0029029700999991922020120004+60100+019950FM-12+001499999V0200501N002119999999N0000001N9-01281+99999101631ADDGF100991999999999999999999
0029029700999991922020206004+60100+019950FM-12+001499999V0209991C000019999999N0000001N9-01721+99999101911ADDGF100991999999999999999999
0029029700999991922020213004+60100+019950FM-12+001499999V0200501N001019999999N0000001N9-01221+99999101911ADDGF108991999999999999999999
0029029700999991922020220004+60100+019950FM-12+001499999V0200701N001019999999N0000001N9-01561+99999101951ADDGF100991999999999999999999
0029029700999991922020306004+60100+019950FM-12+001499999V0200501N003119999999N0000001N9-01671+99999101551ADDGF100991999999999999999999
0029029700999991922020313004+60100+019950FM-12+001499999V0200501N002119999999N0000001N9-01671+99999101351ADDGF102991999999999999999999
0029029700999991922020320004+60100+019950FM-12+001499999V0200701N005119999999N0000001N9-01671+99999101301ADDGF108991999999999999999999
0029029700999991922020406004+60100+019950FM-12+001499999V0200501N005119999999N0000001N9-01721+99999101231ADDGF108991999999999999999999
0029029700999991922020413004+60100+019950FM-12+001499999V0200701N006219999999N0000001N9-01831+99999101151ADDGF100991999999999999999999
0035029700999991922020420004+60100+019950FM-12+001499999V0200501N004119999999N0000001N9-01671+99999101061ADDGF108991999999999999999999MW1721
0029029700999991922020506004+60100+019950FM-12+001499999V0200701N004119999999N0000001N9-01501+99999101141ADDGF108991999999999999999999
0029029700999991922020513004+60100+019950FM-12+001499999V0200701N006219999999N0000001N9-01171+99999101391ADDGF107991999999999999999999
0029029700999991922020520004+60100+019950FM-12+001499999V0200701N008219999999N0000001N9-01111+99999101721ADDGF108991999999999999999999
0035029700999991922020606004+60100+019950FM-12+001499999V0200501N007219999999N0000001N9-01221+99999102311ADDGF108991999999999999999999MW1701
0029029700999991922020613004+60100+019950FM-12+001499999V0200701N001019999999N0000001N9-01171+99999102751ADDGF108991999999999999999999
0029029700999991922020620004+60100+019950FM-12+001499999V0209991C000019999999N0000001N9-01281+99999102941ADDGF100991999999999999999999
0029029700999991922020706004+60100+019950FM-12+001499999V0200901N001019999999N0000001N9-01391+99999102911ADDGF108991999999999999999999
0035029700999991922020713004+60100+019950FM-12+001499999V0200901N002119999999N0000001N9-01061+99999102721ADDGF108991999999999999999999MW1721
0029029700999991922020720004+60100+019950FM-12+001499999V0209991C000019999999N0000001N9-01331+99999102581ADDGF108991999999999999999999
0029029700999991922020806004+60100+019950FM-12+001499999V0202501N001019999999N0000001N9-01611+99999102521ADDGF108991999999999999999999
0029029700999991922020813004+60100+019950FM-12+001499999V0202301N001019999999N0000001N9-01281+99999102601ADDGF100991999999999999999999
0029029700999991922020820004+60100+019950FM-12+001499999V0202501N002119999999N0000001N9-00611+99999102511ADDGF108991999999999999999999
0029029700999991922020906004+60100+019950FM-12+001499999V0202301N002119999999N0000001N9-00441+99999102511ADDGF108991999999999999999999
0029029700999991922020913004+60100+019950FM-12+001499999V0202501N001019999999N0000001N9-00281+99999102781ADDGF107991999999999999999999
0029029700999991922020920004+60100+019950FM-12+001499999V0202501N001019999999N0000001N9-00781+99999103221ADDGF106991999999999999999999
0029029700999991922021006004+60100+019950FM-12+001499999V0209991C000019999999N0000001N9-01221+99999103661ADDGF106991999999999999999999
0029029700999991922021013004+60100+019950FM-12+001499999V0209991C000019999999N0000001N9-00221+99999103951ADDGF101991999999999999999999
0029029700999991922021020004+60100+019950FM-12+001499999V0202001N002119999999N0000001N9-00391+99999103861ADDGF108991999999999999999999
0035029700999991922021106004+60100+019950FM-12+001499999V0202701N005119999999N0000001N9-00111+99999103101ADDGF108991999999999999999999MW1481
0029029700999991922021113004+60100+019950FM-12+001499999V0202501N005119999999N0000001N9+00061+99999102591ADDGF108991999999999999999999
0029029700999991922021120004+60100+019950FM-12+001499999V0202701N005119999999N0000001N9+00061+99999102281ADDGF106991999999999999999999
0029029700999991922021206004+60100+019950FM-12+001499999V0209991C000019999999N0000001N9-00171+99999102041ADDGF107991999999999999999999
0029029700999991922021213004+60100+019950FM-12+001499999V0202701N001019999999N0000001N9+00171+99999102061ADDGF101991999999999999999999
0029029700999991922021220004+60100+019950FM-12+001499999V0202701N001019999999N0000001N9-00221+99999101961ADDGF102991999999999999999999
0035029700999991922021306004+60100+019950FM-12+001499999V0202701N001019999999N0000001N9-00611+99999101631ADDGF100991999999999999999999MW1481
0029029700999991922021313004+60100+019950FM-12+001499999V0202501N002119999999N0000001N9-00171+99999101461ADDGF100991999999999999999999
0029029700999991922021320004+60100+019950FM-12+001499999V0202501N004119999999N0000001N9-00501+99999101221ADDGF100991999999999999999999
0029029700999991922021406004+60100+019950FM-12+001499999V0202501N002119999999N0000001N9-00611+99999100761ADDGF102991999999999999999999
0029029700999991922021413004+60100+019950FM-12+001499999V0202301N002119999999N0000001N9-00221+99999100361ADDGF104991999999999999999999
0029029700999991922021420004+60100+019950FM-12+001499999V0202301N004119999999N0000001N9-00111+99999099701ADDGF108991999999999999999999
0029029700999991922021506004+60100+019950FM-12+001499999V0202501N001019999999N0000001N9-00171+99999099141ADDGF108991999999999999999999
0035029700999991922021513004+60100+019950FM-12+001499999V0202501N004119999999N0000001N9-00221+99999099061ADDGF108991999999999999999999MW1721
0035029700999991922021520004+60100+019950FM-12+001499999V0209991C000019999999N0000001N9-00221+99999099461ADDGF108991999999999999999999MW1721
0029029700999991922021606004+60100+019950FM-12+001499999V0200501N001019999999N0000001N9-00281+99999100231ADDGF108991999999999999999999
0029029700999991922021613004+60100+019950FM-12+001499999V0203601N001019999999N0000001N9-00281+99999100671ADDGF108991999999999999999999
0029029700999991922021620004+60100+019950FM-12+001499999V0200201N001019999999N0000001N9-00331+99999100951ADDGF108991999999999999999999
0029029700999991922021706004+60100+019950FM-12+001499999V0209991C000019999999N0000001N9-00611+99999101391ADDGF108991999999999999999999
0029029700999991922021713004+60100+019950FM-12+001499999V0200701N001019999999N0000001N9-00441+99999101461ADDGF108991999999999999999999
0029029700999991922021720004+60100+019950FM-12+001499999V0201401N001019999999N0000001N9-00441+99999101391ADDGF108991999999999999999999
0029029700999991922021806004+60100+019950FM-12+001499999V0201801N002119999999N0000001N9-00391+99999101001ADDGF108991999999999999999999
0035029700999991922021813004+60100+019950FM-12+001499999V0201401N006219999999N0000001N9-00441+99999100541ADDGF108991999999999999999999MW1721
0029029700999991922021820004+60100+019950FM-12+001499999V0201401N006219999999N0000001N9-00331+99999999999ADDGF108991999999999999999999
0029029700999991922021906004+60100+019950FM-12+001499999V0201401N001019999999N0000001N9-00281+99999099711ADDGF108991999999999999999999
0029029700999991922021913004+60100+019950FM-12+001499999V0201101N002119999999N0000001N9-00221+99999099751ADDGF108991999999999999999999
0029029700999991922021920004+60100+019950FM-12+001499999V0200901N003119999999N0000001N9-00391+99999099791ADDGF108991999999999999999999
0029029700999991922022006004+60100+019950FM-12+001499999V0200901N001019999999N0000001N9-00281+99999099631ADDGF108991999999999999999999
0029029700999991922022013004+60100+019950FM-12+001499999V0201101N001019999999N0000001N9-00061+99999099631ADDGF108991999999999999999999
0029029700999991922022020004+60100+019950FM-12+001499999V0201401N001019999999N0000001N9-00111+99999099671ADDGF108991999999999999999999
0029029700999991922022106004+60100+019950FM-12+001499999V0209991C000019999999N0000001N9-00171+99999099841ADDGF108991999999999999999999
0029029700999991922022113004+60100+019950FM-12+001499999V0209991C000019999999N0000001N9-00061+99999100321ADDGF108991999999999999999999
0029029700999991922022120004+60100+019950FM-12+001499999V0209991C000019999999N0000001N9-00221+99999100791ADDGF108991999999999999999999
0029029700999991922022206004+60100+019950FM-12+001499999V0202001N001019999999N0000001N9-00171+99999101101ADDGF108991999999999999999999
0029029700999991922022213004+60100+019950FM-12+001499999V0202001N001019999999N0000001N9-00061+99999101151ADDGF108991999999999999999999
0029029700999991922022220004+60100+019950FM-12+001499999V0201601N005119999999N0000001N9-00061+99999101001ADDGF108991999999999999999999
0035029700999991922022306004+60100+019950FM-12+001499999V0202301N001019999999N0000001N9+00001+99999100481ADDGF108991999999999999999999MW1721
0029029700999991922022313004+60100+019950FM-12+001499999V0202301N001019999999N0000001N9+00111+99999100501ADDGF102991999999999999999999
0029029700999991922022320004+60100+019950FM-12+001499999V0202301N002119999999N0000001N9-00061+99999100541ADDGF108991999999999999999999
0029029700999991922022406004+60100+019950FM-12+001499999V0202301N003119999999N0000001N9+00061+99999100711ADDGF108991999999999999999999
0029029700999991922022413004+60100+019950FM-12+001499999V0202501N002119999999N0000001N9+00171+99999100621ADDGF108991999999999999999999
0029029700999991922022420004+60100+019950FM-12+001499999V0202501N001019999999N0000001N9-00061+99999100921ADDGF100991999999999999999999
0029029700999991922022506004+60100+019950FM-12+001499999V0202001N003119999999N0000001N9+00111+99999100541ADDGF108991999999999999999999
0029029700999991922022513004+60100+019950FM-12+001499999V0202301N002119999999N0000001N9+00221+99999100421ADDGF108991999999999999999999
0029029700999991922022520004+60100+019950FM-12+001499999V0202301N001019999999N0000001N9+00221+99999100431ADDGF108991999999999999999999
0029029700999991922022606004+60100+019950FM-12+001499999V0202501N001019999999N0000001N9+00171+99999100501ADDGF108991999999999999999999
0029029700999991922022613004+60100+019950FM-12+001499999V0202001N002119999999N0000001N9+00111+99999100031ADDGF108991999999999999999999
0029029700999991922022620004+60100+019950FM-12+001499999V0202301N003119999999N0000001N9+00171+99999099621ADDGF100991999999999999999999
0029029700999991922022706004+60100+019950FM-12+001499999V0202701N001019999999N0000001N9+00171+99999099641ADDGF103991999999999999999999
0035029700999991922022713004+60100+019950FM-12+001499999V0202001N003119999999N0000001N9+00111+99999099241ADDGF108991999999999999999999MW1621
0029029700999991922022720004+60100+019950FM-12+001499999V0202301N005119999999N0000001N9+00111+99999099271ADDGF100991999999999999999999
0029029700999991922022806004+60100+019950FM-12+001499999V0202701N006219999999N0000001N9+00171+99999099261ADDGF101991999999999999999999
0029029700999991922022813004+60100+019950FM-12+001499999V0202501N002119999999N0000001N9+00221+99999099501ADDGF104991999999999999999999
0029029700999991922022820004+60100+019950FM-12+001499999V0202301N001019999999N0000001N9+00111+99999099221ADDGF108991999999999999999999
0035029700999991922030106004+60100+019950FM-12+001499999V0203201N001019999999N0000001N9+00061+99999099661ADDGF108991999999999999999999MW1721
0029029700999991922030113004+60100+019950FM-12+001499999V0209991C000019999999N0000001N9-00111+99999100151ADDGF108991999999999999999999
0029029700999991922030120004+60100+019950FM-12+001499999V0201801N001019999999N0000001N9-00061+99999099941ADDGF108991999999999999999999
0029029700999991922030206004+60100+019950FM-12+001499999V0209991C000019999999N0000001N9-00111+99999099791ADDGF108991999999999999999999
0029029700999991922030213004+60100+019950FM-12+001499999V0209991C000019999999N0000001N9+00061+99999099951ADDGF108991999999999999999999
0029029700999991922030220004+60100+019950FM-12+001499999V0209991C000019999999N0000001N9-00111+99999100241ADDGF108991999999999999999999
0029029700999991922030306004+60100+019950FM-12+001499999V0209991C000019999999N0000001N9-00111+99999100591ADDGF108991999999999999999999
0029029700999991922030313004+60100+019950FM-12+001499999V0209991C000019999999N0000001N9+00061+99999100831ADDGF108991999999999999999999
0029029700999991922030320004+60100+019950FM-12+001499999V0209991C000019999999N0000001N9-00171+99999100981ADDGF106991999999999999999999
0029029700999991922030406004+60100+019950FM-12+001499999V0202301N001019999999N0000001N9-00061+99999100541ADDGF108991999999999999999999
0035029700999991922030413004+60100+019950FM-12+001499999V0209991C000019999999N0000001N9+00061+99999100041ADDGF108991999999999999999999MW1701
0029029700999991922030420004+60100+019950FM-12+001499999V0209991C000019999999N0000001N9-00061+99999099761ADDGF100991999999999999999999
0029029700999991922030506004+60100+019950FM-12+001499999V0202501N001019999999N0000001N9-00171+99999099561ADDGF108991999999999999999999
0029029700999991922030513004+60100+019950FM-12+001499999V0202501N001019999999N0000001N9-00061+99999099621ADDGF108991999999999999999999
0029029700999991922030520004+60100+019950FM-12+001499999V0202501N001019999999N0000001N9-00111+99999099781ADDGF108991999999999999999999
0035029700999991922030606004+60100+019950FM-12+001499999V0209991C000019999999N0000001N9+00061+99999098721ADDGF108991999999999999999999MW1861
0035029700999991922030613004+60100+019950FM-12+001499999V0202501N005119999999N0000001N9+00111+99999098141ADDGF108991999999999999999999MW1621
0029029700999991922030620004+60100+019950FM-12+001499999V0209991C000019999999N0000001N9+00001+99999098921ADDGF108991999999999999999999
0029029700999991922030706004+60100+019950FM-12+001499999V0202301N001019999999N0000001N9+00001+99999099031ADDGF100991999999999999999999
0029029700999991922030713004+60100+019950FM-12+001499999V0209991C000019999999N0000001N9+00331+99999099321ADDGF107991999999999999999999
0029029700999991922030720004+60100+019950FM-12+001499999V0209991C000019999999N0000001N9+00001+99999099321ADDGF107991999999999999999999
0029029700999991922030806004+60100+019950FM-12+001499999V0202301N001019999999N0000001N9+00061+99999098671ADDGF108991999999999999999999
0029029700999991922030813004+60100+019950FM-12+001499999V0202501N002119999999N0000001N9+00221+99999098581ADDGF108991999999999999999999
0029029700999991922030820004+60100+019950FM-12+001499999V0203401N001019999999N0000001N9-00441+99999098901ADDGF108991999999999999999999
0029029700999991922030906004+60100+019950FM-12+001499999V0200701N002119999999N0000001N9-00561+99999099021ADDGF108991999999999999999999
0029029700999991922030913004+60100+019950FM-12+001499999V0203601N004119999999N0000001N9-00561+99999099391ADDGF107991999999999999999999
0029029700999991922030920004+60100+019950FM-12+001499999V0200201N005119999999N0000001N9-00501+99999100231ADDGF108991999999999999999999
0029029700999991922031006004+60100+019950FM-12+001499999V0202901N001019999999N0000001N9-00501+99999101081ADDGF108991999999999999999999
0029029700999991922031013004+60100+019950FM-12+001499999V0202501N002119999999N0000001N9-00221+99999101511ADDGF104991999999999999999999
0029029700999991922031020004+60100+019950FM-12+001499999V0209991C000019999999N0000001N9-01171+99999101621ADDGF100991999999999999999999
0029029700999991922031106004+60100+019950FM-12+001499999V0202301N005119999999N0000001N9-00281+99999101181ADDGF108991999999999999999999
0029029700999991922031113004+60100+019950FM-12+001499999V0202301N005119999999N0000001N9+00061+99999100821ADDGF101991999999999999999999
0029029700999991922031120004+60100+019950FM-12+001499999V0202001N007219999999N0000001N9+00111+99999100271ADDGF107991999999999999999999
0035029700999991922031206004+60100+019950FM-12+001499999V0200501N002119999999N0000001N9-00171+99999099831ADDGF108991999999999999999999MW1721
0029029700999991922031213004+60100+019950FM-12+001499999V0202901N005119999999N0000001N9+00001+99999099871ADDGF107991999999999999999999
0029029700999991922031220004+60100+019950FM-12+001499999V0202901N006219999999N0000001N9+00171+99999099911ADDGF108991999999999999999999
0029029700999991922031306004+60100+019950FM-12+001499999V0203401N003119999999N0000001N9-00061+99999100981ADDGF101991999999999999999999
0029029700999991922031313004+60100+019950FM-12+001499999V0203401N003119999999N0000001N9+00281+99999101361ADDGF107991999999999999999999
0029029700999991922031320004+60100+019950FM-12+001499999V0209991C000019999999N0000001N9+00001+99999101501ADDGF104991999999999999999999
0029029700999991922031406004+60100+019950FM-12+001499999V0209991C000019999999N0000001N9-00171+99999101111ADDGF108991999999999999999999
0035029700999991922031413004+60100+019950FM-12+001499999V0209991C000019999999N0000001N9+00001+99999100701ADDGF108991999999999999999999MW1721
0029029700999991922031420004+60100+019950FM-12+001499999V0209991C000019999999N0000001N9-00331+99999101121ADDGF101991999999999999999999
0029029700999991922031506004+60100+019950FM-12+001499999V0209991C000019999999N0000001N9-00781+99999101671ADDGF106991999999999999999999
0029029700999991922031513004+60100+019950FM-12+001499999V0202501N002119999999N0000001N9-00171+99999101701ADDGF108991999999999999999999
0029029700999991922031520004+60100+019950FM-12+001499999V0202301N005119999999N0000001N9-00111+99999101161ADDGF108991999999999999999999
0035029700999991922031606004+60100+019950FM-12+001499999V0203201N001019999999N0000001N9+00221+99999099901ADDGF108991999999999999999999MW1621
0029029700999991922031613004+60100+019950FM-12+001499999V0203601N006219999999N0000001N9-00171+99999100431ADDGF106991999999999999999999
0029029700999991922031620004+60100+019950FM-12+001499999V0203601N003119999999N0000001N9-00281+99999101161ADDGF100991999999999999999999
0029029700999991922031706004+60100+019950FM-12+001499999V0209991C000019999999N0000001N9-00671+99999101721ADDGF101991999999999999999999
0029029700999991922031713004+60100+019950FM-12+001499999V0202701N002119999999N0000001N9-00061+99999101671ADDGF107991999999999999999999
0029029700999991922031720004+60100+019950FM-12+001499999V0203201N001019999999N0000001N9-00281+99999101481ADDGF108991999999999999999999
0029029700999991922031806004+60100+019950FM-12+001499999V0200201N001019999999N0000001N9-00831+99999101831ADDGF100991999999999999999999
0029029700999991922031813004+60100+019950FM-12+001499999V0200501N001019999999N0000001N9-00281+99999101751ADDGF107991999999999999999999
0035029700999991922031820004+60100+019950FM-12+001499999V0202301N004119999999N0000001N9-00501+99999101381ADDGF108991999999999999999999MW1701
0029029700999991922031906004+60100+019950FM-12+001499999V0209991C000019999999N0000001N9-00501+99999100991ADDGF107991999999999999999999
0029029700999991922031913004+60100+019950FM-12+001499999V0203601N001019999999N0000001N9-00441+99999100941ADDGF107991999999999999999999
0029029700999991922031920004+60100+019950FM-12+001499999V0200901N003119999999N0000001N9-00721+99999100801ADDGF107991999999999999999999
0029029700999991922032006004+60100+019950FM-12+001499999V0200901N006219999999N0000001N9-01171+99999100641ADDGF108991999999999999999999
0029029700999991922032013004+60100+019950FM-12+001499999V0200901N007219999999N0000001N9-00721+99999100751ADDGF106991999999999999999999
0029029700999991922032020004+60100+019950FM-12+001499999V0200501N001019999999N0000001N9-01061+99999100981ADDGF100991999999999999999999
0029029700999991922032106004+60100+019950FM-12+001499999V0209991C000019999999N0000001N9-01391+99999101311ADDGF100991999999999999999999
0029029700999991922032113004+60100+019950FM-12+001499999V0209991C000019999999N0000001N9-00331+99999101461ADDGF100991999999999999999999
0029029700999991922032120004+60100+019950FM-12+001499999V0209991C000019999999N0000001N9-00501+99999101501ADDGF100991999999999999999999
0029029700999991922032206004+60100+019950FM-12+001499999V0209991C000019999999N0000001N9-00501+99999101561ADDGF106991999999999999999999
0029029700999991922032213004+60100+019950FM-12+001499999V0202301N001019999999N0000001N9+00001+99999101781ADDGF100991999999999999999999
0029029700999991922032220004+60100+019950FM-12+001499999V0202301N002119999999N0000001N9-00111+99999101781ADDGF100991999999999999999999
0029029700999991922032306004+60100+019950FM-12+001499999V0202501N002119999999N0000001N9-00111+99999101631ADDGF102991999999999999999999
0029029700999991922032313004+60100+019950FM-12+001499999V0202001N003119999999N0000001N9+00281+99999101601ADDGF107991999999999999999999
0029029700999991922032320004+60100+019950FM-12+001499999V0202301N005119999999N0000001N9+00001+99999101621ADDGF108991999999999999999999
0029029700999991922032406004+60100+019950FM-12+001499999V0202301N001019999999N0000001N9-00061+99999101481ADDGF107991999999999999999999
0029029700999991922032413004+60100+019950FM-12+001499999V0201401N002119999999N0000001N9-00061+99999101231ADDGF100991999999999999999999
0029029700999991922032420004+60100+019950FM-12+001499999V0200901N002119999999N0000001N9-00561+99999100751ADDGF100991999999999999999999
0029029700999991922032506004+60100+019950FM-12+001499999V0201101N001019999999N0000001N9-00281+99999100081ADDGF108991999999999999999999
0035029700999991922032513004+60100+019950FM-12+001499999V0201101N003119999999N0000001N9-00111+99999099911ADDGF108991999999999999999999MW1721
0035029700999991922032520004+60100+019950FM-12+001499999V0201101N005119999999N0000001N9-00331+99999099761ADDGF108991999999999999999999MW1721
0029029700999991922032606004+60100+019950FM-12+001499999V0209991C000019999999N0000001N9-00391+99999099511ADDGF108991999999999999999999
0035029700999991922032613004+60100+019950FM-12+001499999V0209991C000019999999N0000001N9+00061+99999099591ADDGF108991999999999999999999MW1701
0029029700999991922032620004+60100+019950FM-12+001499999V0209991C000019999999N0000001N9-00111+99999099741ADDGF108991999999999999999999
0029029700999991922032706004+60100+019950FM-12+001499999V0209991C000019999999N0000001N9-00331+99999099871ADDGF107991999999999999999999
0029029700999991922032713004+60100+019950FM-12+001499999V0200201N002119999999N0000001N9-00061+99999100161ADDGF108991999999999999999999
0029029700999991922032720004+60100+019950FM-12+001499999V0209991C000019999999N0000001N9-00721+99999100381ADDGF101991999999999999999999
0029029700999991922032806004+60100+019950FM-12+001499999V0200201N002119999999N0000001N9-00331+99999100391ADDGF108991999999999999999999
0029029700999991922032813004+60100+019950FM-12+001499999V0200201N004119999999N0000001N9-00061+99999100341ADDGF108991999999999999999999
0029029700999991922032820004+60100+019950FM-12+001499999V0203601N001019999999N0000001N9-00561+99999100321ADDGF100991999999999999999999
0035029700999991922032906004+60100+019950FM-12+001499999V0203601N002119999999N0000001N9-00501+99999100271ADDGF108991999999999999999999MW1701
0029029700999991922032913004+60100+019950FM-12+001499999V0203201N004119999999N0000001N9-00391+99999100241ADDGF108991999999999999999999
0029029700999991922032920004+60100+019950FM-12+001499999V0203601N005119999999N0000001N9-00391+99999100191ADDGF108991999999999999999999
0035029700999991922033006004+60100+019950FM-12+001499999V0203601N002119999999N0000001N9-00221+99999099711ADDGF108991999999999999999999MW1701
0035029700999991922033013004+60100+019950FM-12+001499999V0200201N002119999999N0000001N9-00061+99999099791ADDGF108991999999999999999999MW1701
0035029700999991922033020004+60100+019950FM-12+001499999V0209991C000019999999N0000001N9-00171+99999100031ADDGF108991999999999999999999MW1701
0035029700999991922033106004+60100+019950FM-12+001499999V0209991C000019999999N0000001N9-00111+99999100391ADDGF108991999999999999999999MW1701
0029029700999991922033113004+60100+019950FM-12+001499999V0202001N001019999999N0000001N9+00111+99999100761ADDGF102991999999999999999999
0029029700999991922033120004+60100+019950FM-12+001499999V0209991C000019999999N0000001N9-00221+99999100901ADDGF102991999999999999999999
0029029700999991922040106004+60100+019950FM-12+001499999V0209991C000019999999N0000001N9-00721+99999100671ADDGF100991999999999999999999
0029029700999991922040113004+60100+019950FM-12+001499999V0200901N002119999999N0000001N9-00061+99999100441ADDGF106991999999999999999999
0035029700999991922040120004+60100+019950FM-12+001499999V0200501N005119999999N0000001N9-00221+99999099981ADDGF108991999999999999999999MW1721
0029029700999991922040206004+60100+019950FM-12+001499999V0201401N001019999999N0000001N9-00061+99999099261ADDGF108991999999999999999999
0029029700999991922040213004+60100+019950FM-12+001499999V0200901N002119999999N0000001N9+00171+99999099191ADDGF107991999999999999999999
0029029700999991922040220004+60100+019950FM-12+001499999V0202501N002119999999N0000001N9-00111+99999099421ADDGF108991999999999999999999
0029029700999991922040306004+60100+019950FM-12+001499999V0202301N005119999999N0000001N9-00111+99999099741ADDGF108991999999999999999999
0029029700999991922040313004+60100+019950FM-12+001499999V0201801N002119999999N0000001N9+00171+99999100061ADDGF108991999999999999999999
0035029700999991922040320004+60100+019950FM-12+001499999V0201601N002119999999N0000001N9+00001+99999999999ADDGF108991999999999999999999MW1701
0029029700999991922040406004+60100+019950FM-12+001499999V0201801N001019999999N0000001N9+00001+99999099791ADDGF107991999999999999999999
0029029700999991922040413004+60100+019950FM-12+001499999V0201601N003119999999N0000001N9+00171+99999099741ADDGF106991999999999999999999
0029029700999991922040420004+60100+019950FM-12+001499999V0201601N001019999999N0000001N9-00171+99999099761ADDGF107991999999999999999999
0029029700999991922040506004+60100+019950FM-12+001499999V0209991C000019999999N0000001N9-00221+99999099621ADDGF108991999999999999999999
0029029700999991922040513004+60100+019950FM-12+001499999V0200501N002119999999N0000001N9+00111+99999099621ADDGF107991999999999999999999
0035029700999991922040520004+60100+019950FM-12+001499999V0200201N004119999999N0000001N9-00061+99999099641ADDGF108991999999999999999999MW1721
0035029700999991922040606004+60100+019950FM-12+001499999V0200701N003119999999N0000001N9-00061+99999099351ADDGF108991999999999999999999MW1721
0029029700999991922040613004+60100+019950FM-12+001499999V0200901N004119999999N0000001N9+00061+99999099351ADDGF108991999999999999999999
0029029700999991922040620004+60100+019950FM-12+001499999V0200901N004119999999N0000001N9+00001+99999099311ADDGF108991999999999999999999
0035029700999991922040706004+60100+019950FM-12+001499999V0200201N001019999999N0000001N9-00111+99999099081ADDGF108991999999999999999999MW1721
0035029700999991922040713004+60100+019950FM-12+001499999V0203201N001019999999N0000001N9+00061+99999099391ADDGF108991999999999999999999MW1721
0029029700999991922040720004+60100+019950FM-12+001499999V0202901N003119999999N0000001N9-00501+99999100041ADDGF104991999999999999999999
0029029700999991922040806004+60100+019950FM-12+001499999V0202901N001019999999N0000001N9-00561+99999100391ADDGF102991999999999999999999
0029029700999991922040813004+60100+019950FM-12+001499999V0202501N001019999999N0000001N9-00171+99999100751ADDGF101991999999999999999999
0029029700999991922040820004+60100+019950FM-12+001499999V0209991C000019999999N0000001N9-00941+99999100741ADDGF100991999999999999999999
0029029700999991922040906004+60100+019950FM-12+001499999V0209991C000019999999N0000001N9-01001+99999100481ADDGF101991999999999999999999
0029029700999991922040913004+60100+019950FM-12+001499999V0201801N001019999999N0000001N9-00061+99999100401ADDGF101991999999999999999999
0035029700999991922040920004+60100+019950FM-12+001499999V0200901N001019999999N0000001N9-00281+99999100361ADDGF108991999999999999999999MW1701
0029029700999991922041006004+60100+019950FM-12+001499999V0200201N003119999999N0000001N9-00331+99999100161ADDGF108991999999999999999999
0029029700999991922041013004+60100+019950FM-12+001499999V0203601N003119999999N0000001N9-00111+99999100231ADDGF102991999999999999999999
0029029700999991922041020004+60100+019950FM-12+001499999V0209991C000019999999N0000001N9-00611+99999100441ADDGF100991999999999999999999
0029029700999991922041106004+60100+019950FM-12+001499999V0202701N001019999999N0000001N9-00281+99999100351ADDGF103991999999999999999999
0029029700999991922041113004+60100+019950FM-12+001499999V0202301N001019999999N0000001N9+00111+99999100631ADDGF100991999999999999999999
0029029700999991922041120004+60100+019950FM-12+001499999V0202301N004119999999N0000001N9+00171+99999100671ADDGF102991999999999999999999
0029029700999991922041206004+60100+019950FM-12+001499999V0202501N003119999999N0000001N9-00061+99999101001ADDGF100991999999999999999999
0029029700999991922041213004+60100+019950FM-12+001499999V0202301N001019999999N0000001N9+00331+99999101391ADDGF100991999999999999999999
0029029700999991922041220004+60100+019950FM-12+001499999V0202301N002119999999N0000001N9+00001+99999101631ADDGF106991999999999999999999
0029029700999991922041306004+60100+019950FM-12+001499999V0201601N003119999999N0000001N9+00171+99999101471ADDGF108991999999999999999999
0029029700999991922041313004+60100+019950FM-12+001499999V0201401N005119999999N0000001N9+00281+99999101341ADDGF107991999999999999999999
0035029700999991922041320004+60100+019950FM-12+001499999V0201601N005119999999N0000001N9+00111+99999100861ADDGF108991999999999999999999MW1721
0029029700999991922041406004+60100+019950FM-12+001499999V0202001N002119999999N0000001N9+00111+99999100481ADDGF107991999999999999999999
0029029700999991922041413004+60100+019950FM-12+001499999V0202301N003119999999N0000001N9+00281+99999100391ADDGF106991999999999999999999
0029029700999991922041420004+60100+019950FM-12+001499999V0202501N003119999999N0000001N9+00391+99999100861ADDGF106991999999999999999999
0029029700999991922041506004+60100+019950FM-12+001499999V0209991C000019999999N0000001N9+00221+99999101361ADDGF106991999999999999999999
0029029700999991922041513004+60100+019950FM-12+001499999V0201401N001019999999N0000001N9+00561+99999101221ADDGF108991999999999999999999
0029029700999991922041520004+60100+019950FM-12+001499999V0201401N002119999999N0000001N9+00221+99999100861ADDGF102991999999999999999999
0029029700999991922041606004+60100+019950FM-12+001499999V0202301N001019999999N0000001N9+00331+99999100831ADDGF106991999999999999999999
0029029700999991922041613004+60100+019950FM-12+001499999V0209991C000019999999N0000001N9+01061+99999100701ADDGF102991999999999999999999
0029029700999991922041620004+60100+019950FM-12+001499999V0209991C000019999999N0000001N9+00281+99999100471ADDGF103991999999999999999999
0029029700999991922041706004+60100+019950FM-12+001499999V0209991C000019999999N0000001N9+00561+99999100801ADDGF100991999999999999999999
0029029700999991922041713004+60100+019950FM-12+001499999V0202501N001019999999N0000001N9+00721+99999101081ADDGF102991999999999999999999
0029029700999991922041720004+60100+019950FM-12+001499999V0209991C000019999999N0000001N9+00111+99999101441ADDGF102991999999999999999999
0029029700999991922041806004+60100+019950FM-12+001499999V0200201N003119999999N0000001N9+00391+99999101991ADDGF100991999999999999999999
0029029700999991922041813004+60100+019950FM-12+001499999V0203401N003119999999N0000001N9+00671+99999102231ADDGF100991999999999999999999
0029029700999991922041820004+60100+019950FM-12+001499999V0203201N001019999999N0000001N9+00171+99999102341ADDGF100991999999999999999999
0029029700999991922041906004+60100+019950FM-12+001499999V0200201N003119999999N0000001N9+00221+99999102441ADDGF100991999999999999999999
0029029700999991922041913004+60100+019950FM-12+001499999V0203601N007219999999N0000001N9+00171+99999102551ADDGF101991999999999999999999
0029029700999991922041920004+60100+019950FM-12+001499999V0200201N003119999999N0000001N9-00171+99999102621ADDGF100991999999999999999999
0029029700999991922042006004+60100+019950FM-12+001499999V0200501N003119999999N0000001N9-00171+99999102621ADDGF101991999999999999999999
0029029700999991922042013004+60100+019950FM-12+001499999V0200201N002119999999N0000001N9+00111+99999102581ADDGF100991999999999999999999
0029029700999991922042020004+60100+019950FM-12+001499999V0200201N001019999999N0000001N9-00281+99999102431ADDGF100991999999999999999999
0029029700999991922042106004+60100+019950FM-12+001499999V0209991C000019999999N0000001N9+00001+99999102241ADDGF100991999999999999999999
0029029700999991922042113004+60100+019950FM-12+001499999V0209991C000019999999N0000001N9+00501+99999102041ADDGF106991999999999999999999
0029029700999991922042120004+60100+019950FM-12+001499999V0209991C000019999999N0000001N9+00061+99999101861ADDGF107991999999999999999999
0029029700999991922042206004+60100+019950FM-12+001499999V0200201N001019999999N0000001N9+00001+99999101801ADDGF102991999999999999999999
0029029700999991922042213004+60100+019950FM-12+001499999V0201601N001019999999N0000001N9+00331+99999101871ADDGF102991999999999999999999
0029029700999991922042220004+60100+019950FM-12+001499999V0209991C000019999999N0000001N9-00111+99999101991ADDGF100991999999999999999999
0029029700999991922042306004+60100+019950FM-12+001499999V0201601N001019999999N0000001N9+00061+99999102041ADDGF108991999999999999999999
0029029700999991922042313004+60100+019950FM-12+001499999V0201401N003119999999N0000001N9+00441+99999102021ADDGF102991999999999999999999
0029029700999991922042320004+60100+019950FM-12+001499999V0209991C000019999999N0000001N9+00061+99999101901ADDGF100991999999999999999999
0029029700999991922042406004+60100+019950FM-12+001499999V0201101N001019999999N0000001N9+00221+99999101401ADDGF101991999999999999999999
0029029700999991922042413004+60100+019950FM-12+001499999V0201401N001019999999N0000001N9+00721+99999101221ADDGF101991999999999999999999
0029029700999991922042420004+60100+019950FM-12+001499999V0200901N001019999999N0000001N9+00281+99999100981ADDGF106991999999999999999999
0029029700999991922042506004+60100+019950FM-12+001499999V0209991C000019999999N0000001N9+00331+99999100681ADDGF102991999999999999999999
0029029700999991922042513004+60100+019950FM-12+001499999V0201601N003119999999N0000001N9+00501+99999100621ADDGF106991999999999999999999
0029029700999991922042520004+60100+019950FM-12+001499999V0201101N002119999999N0000001N9+00221+99999100641ADDGF102991999999999999999999
0046029700999991922042606004+60100+019950FM-12+001499999V0201601N001019999999N0000001N9+00331+99999100621ADDAJ100009199999999GF107991999999999999999999
0029029700999991922042613004+60100+019950FM-12+001499999V0201401N002119999999N0000001N9+00441+99999100791ADDGF108991999999999999999999
0029029700999991922042620004+60100+019950FM-12+001499999V0200901N001019999999N0000001N9+00111+99999100751ADDGF103991999999999999999999
0046029700999991922042706004+60100+019950FM-12+001499999V0201401N002119999999N0000001N9+00441+99999100381ADDAJ100009199999999GF107991999999999999999999
0029029700999991922042713004+60100+019950FM-12+001499999V0201401N005119999999N0000001N9+00941+99999100391ADDGF101991999999999999999999
0029029700999991922042720004+60100+019950FM-12+001499999V0201401N001019999999N0000001N9+00501+99999100401ADDGF108991999999999999999999
0046029700999991922042806004+60100+019950FM-12+001499999V0201801N001019999999N0000001N9+00221+99999100621ADDAJ100009199999999GF108991999999999999999999
0029029700999991922042813004+60100+019950FM-12+001499999V0200901N002119999999N0000001N9+00671+99999100841ADDGF107991999999999999999999
0035029700999991922042820004+60100+019950FM-12+001499999V0201401N004119999999N0000001N9+00671+99999100341ADDGF108991999999999999999999MW1621
0046029700999991922042906004+60100+019950FM-12+001499999V0202301N001019999999N0000001N9+00221+99999101061ADDAJ100009199999999GF108991999999999999999999
0029029700999991922042913004+60100+019950FM-12+001499999V0202301N001019999999N0000001N9+00721+99999101401ADDGF100991999999999999999999
0029029700999991922042920004+60100+019950FM-12+001499999V0201401N001019999999N0000001N9+00001+99999101461ADDGF103991999999999999999999
0046029700999991922043006004+60100+019950FM-12+001499999V0209991C000019999999N0000001N9+00331+99999101421ADDAJ100009199999999GF107991999999999999999999
0029029700999991922043013004+60100+019950FM-12+001499999V0202301N001019999999N0000001N9+00561+99999101471ADDGF101991999999999999999999
0029029700999991922043020004+60100+019950FM-12+001499999V0209991C000019999999N0000001N9-00061+99999101421ADDGF103991999999999999999999
0046029700999991922050106004+60100+019950FM-12+001499999V0200901N004119999999N0000001N9+00391+99999101041ADDAJ100009199999999GF108991999999999999999999
0035029700999991922050113004+60100+019950FM-12+001499999V0200901N005119999999N0000001N9+00441+99999100671ADDGF108991999999999999999999MW1621
0029029700999991922050120004+60100+019950FM-12+001499999V0201401N003119999999N0000001N9+00561+99999100361ADDGF108991999999999999999999
0046029700999991922050206004+60100+019950FM-12+001499999V0201601N003119999999N0000001N9+00441+99999100711ADDAJ100009199999999GF105991999999999999999999
0029029700999991922050213004+60100+019950FM-12+001499999V0201601N002119999999N0000001N9+00501+99999100981ADDGF102991999999999999999999
0029029700999991922050220004+60100+019950FM-12+001499999V0201801N001019999999N0000001N9+00281+99999100991ADDGF100991999999999999999999
0046029700999991922050306004+60100+019950FM-12+001499999V0202301N001019999999N0000001N9+00441+99999101111ADDAJ100009199999999GF100991999999999999999999
0029029700999991922050313004+60100+019950FM-12+001499999V0202301N003119999999N0000001N9+00781+99999101231ADDGF100991999999999999999999
0029029700999991922050320004+60100+019950FM-12+001499999V0202001N002119999999N0000001N9+00281+99999101231ADDGF101991999999999999999999
0046029700999991922050406004+60100+019950FM-12+001499999V0202001N001019999999N0000001N9+00441+99999101241ADDAJ100009199999999GF100991999999999999999999
0029029700999991922050413004+60100+019950FM-12+001499999V0202001N002119999999N0000001N9+00891+99999101161ADDGF100991999999999999999999
0029029700999991922050420004+60100+019950FM-12+001499999V0201601N001019999999N0000001N9+00391+99999100861ADDGF100991999999999999999999
0046029700999991922050506004+60100+019950FM-12+001499999V0209991C000019999999N0000001N9+00611+99999100581ADDAJ100009199999999GF107991999999999999999999
0029029700999991922050513004+60100+019950FM-12+001499999V0209991C000019999999N0000001N9+00831+99999100741ADDGF107991999999999999999999
0029029700999991922050520004+60100+019950FM-12+001499999V0209991C000019999999N0000001N9+00391+99999100901ADDGF106991999999999999999999
0046029700999991922050606004+60100+019950FM-12+001499999V0202301N001019999999N0000001N9+00611+99999101401ADDAJ100009199999999GF102991999999999999999999
0029029700999991922050613004+60100+019950FM-12+001499999V0202301N003119999999N0000001N9+00671+99999101661ADDGF102991999999999999999999
0029029700999991922050620004+60100+019950FM-12+001499999V0202301N004119999999N0000001N9+00501+99999101831ADDGF103991999999999999999999
0046029700999991922050706004+60100+019950FM-12+001499999V0202301N001019999999N0000001N9+00561+99999102021ADDAJ100009199999999GF104991999999999999999999
0029029700999991922050713004+60100+019950FM-12+001499999V0202301N001019999999N0000001N9+00831+99999102181ADDGF102991999999999999999999
0029029700999991922050720004+60100+019950FM-12+001499999V0209991C000019999999N0000001N9+00331+99999102231ADDGF100991999999999999999999
0046029700999991922050806004+60100+019950FM-12+001499999V0202001N003119999999N0000001N9+00611+99999101561ADDAJ100009199999999GF106991999999999999999999
0029029700999991922050813004+60100+019950FM-12+001499999V0202301N002119999999N0000001N9+01061+99999100961ADDGF106991999999999999999999
0029029700999991922050820004+60100+019950FM-12+001499999V0202301N001019999999N0000001N9+00721+99999100601ADDGF106991999999999999999999
0046029700999991922050906004+60100+019950FM-12+001499999V0202501N002119999999N0000001N9+00721+99999099751ADDAJ100009199999999GF102991999999999999999999
0029029700999991922050913004+60100+019950FM-12+001499999V0202901N003119999999N0000001N9+00721+99999099541ADDGF106991999999999999999999
0029029700999991922050920004+60100+019950FM-12+001499999V0203401N007219999999N0000001N9+00331+99999099821ADDGF103991999999999999999999
0046029700999991922051006004+60100+019950FM-12+001499999V0202901N004119999999N0000001N9+00171+99999099641ADDAJ100009199999999GF106991999999999999999999
0029029700999991922051013004+60100+019950FM-12+001499999V0202701N003119999999N0000001N9+00061+99999099661ADDGF108991999999999999999999
0029029700999991922051020004+60100+019950FM-12+001499999V0209991C000019999999N0000001N9+00391+99999099711ADDGF108991999999999999999999
0046029700999991922051106004+60100+019950FM-12+001499999V0202901N003119999999N0000001N9+00441+99999099581ADDAJ100009199999999GF101991999999999999999999
0029029700999991922051113004+60100+019950FM-12+001499999V0203601N003119999999N0000001N9+00941+99999099681ADDGF101991999999999999999999
0029029700999991922051120004+60100+019950FM-12+001499999V0202301N001019999999N0000001N9+00441+99999099671ADDGF106991999999999999999999
0046029700999991922051206004+60100+019950FM-12+001499999V0202901N002119999999N0000001N9+00501+99999099631ADDAJ100009199999999GF102991999999999999999999
0029029700999991922051213004+60100+019950FM-12+001499999V0202301N003119999999N0000001N9+00721+99999099861ADDGF106991999999999999999999
0029029700999991922051220004+60100+019950FM-12+001499999V0202301N001019999999N0000001N9+00441+99999999999ADDGF106991999999999999999999
0046029700999991922051306004+60100+019950FM-12+001499999V0203201N001019999999N0000001N9+00671+99999100111ADDAJ100009199999999GF101991999999999999999999
0029029700999991922051313004+60100+019950FM-12+001499999V0203201N001019999999N0000001N9+01061+99999100231ADDGF101991999999999999999999
0029029700999991922051320004+60100+019950FM-12+001499999V0202001N001019999999N0000001N9+00281+99999100361ADDGF101991999999999999999999
0046029700999991922051406004+60100+019950FM-12+001499999V0203401N002119999999N0000001N9+00501+99999100591ADDAJ100009199999999GF102991999999999999999999
0029029700999991922051413004+60100+019950FM-12+001499999V0203201N004119999999N0000001N9+00891+99999100881ADDGF100991999999999999999999
0029029700999991922051420004+60100+019950FM-12+001499999V0203201N001019999999N0000001N9+00331+99999100951ADDGF100991999999999999999999
0046029700999991922051506004+60100+019950FM-12+001499999V0202301N003119999999N0000001N9+00561+99999100461ADDAJ100009199999999GF107991999999999999999999
0029029700999991922051513004+60100+019950FM-12+001499999V0202301N003119999999N0000001N9+00611+99999099761ADDGF102991999999999999999999
0029029700999991922051520004+60100+019950FM-12+001499999V0202501N003119999999N0000001N9+00721+99999099871ADDGF104991999999999999999999
0046029700999991922051606004+60100+019950FM-12+001499999V0203401N002119999999N0000001N9+00891+99999100281ADDAJ100009199999999GF100991999999999999999999
0029029700999991922051613004+60100+019950FM-12+001499999V0202301N001019999999N0000001N9+01061+99999100621ADDGF103991999999999999999999
0029029700999991922051620004+60100+019950FM-12+001499999V0209991C000019999999N0000001N9+00501+99999100741ADDGF101991999999999999999999
0046029700999991922051706004+60100+019950FM-12+001499999V0201401N001019999999N0000001N9+00941+99999101021ADDAJ100009199999999GF103991999999999999999999
0029029700999991922051713004+60100+019950FM-12+001499999V0202301N001019999999N0000001N9+01171+99999101151ADDGF102991999999999999999999
0029029700999991922051720004+60100+019950FM-12+001499999V0209991C000019999999N0000001N9+00781+99999101181ADDGF107991999999999999999999
0046029700999991922051806004+60100+019950FM-12+001499999V0201801N002119999999N0000001N9+00831+99999101161ADDAJ100009199999999GF108991999999999999999999
0029029700999991922051813004+60100+019950FM-12+001499999V0201801N002119999999N0000001N9+01281+99999101181ADDGF100991999999999999999999
0029029700999991922051820004+60100+019950FM-12+001499999V0201801N002119999999N0000001N9+00721+99999101081ADDGF104991999999999999999999
0046029700999991922051906004+60100+019950FM-12+001499999V0202301N003119999999N0000001N9+00941+99999100951ADDAJ100009199999999GF108991999999999999999999
0029029700999991922051913004+60100+019950FM-12+001499999V0202301N001019999999N0000001N9+01061+99999101121ADDGF106991999999999999999999
0029029700999991922051920004+60100+019950FM-12+001499999V0202001N002119999999N0000001N9+00781+99999101041ADDGF102991999999999999999999
0046029700999991922052006004+60100+019950FM-12+001499999V0202301N001019999999N0000001N9+01001+99999100921ADDAJ100009199999999GF101991999999999999999999
0029029700999991922052013004+60100+019950FM-12+001499999V0202301N003119999999N0000001N9+01171+99999100961ADDGF102991999999999999999999
0029029700999991922052020004+60100+019950FM-12+001499999V0202301N001019999999N0000001N9+00781+99999101081ADDGF106991999999999999999999
0046029700999991922052106004+60100+019950FM-12+001499999V0202301N001019999999N0000001N9+01061+99999101421ADDAJ100009199999999GF102991999999999999999999
0029029700999991922052113004+60100+019950FM-12+001499999V0203601N003119999999N0000001N9+01391+99999101791ADDGF108991999999999999999999
0029029700999991922052120004+60100+019950FM-12+001499999V0202301N001019999999N0000001N9+00781+99999101801ADDGF107991999999999999999999
0046029700999991922052206004+60100+019950FM-12+001499999V0209991C000019999999N0000001N9+01111+99999101761ADDAJ100009199999999GF103991999999999999999999
0029029700999991922052213004+60100+019950FM-12+001499999V0202301N003119999999N0000001N9+01391+99999101841ADDGF102991999999999999999999
0029029700999991922052220004+60100+019950FM-12+001499999V0202301N001019999999N0000001N9+00891+99999101801ADDGF107991999999999999999999
0046029700999991922052306004+60100+019950FM-12+001499999V0201801N004119999999N0000001N9+01061+99999101561ADDAJ100009199999999GF107991999999999999999999
0029029700999991922052313004+60100+019950FM-12+001499999V0202301N005119999999N0000001N9+00891+99999101421ADDGF108991999999999999999999
0029029700999991922052320004+60100+019950FM-12+001499999V0209991C000019999999N0000001N9+00781+99999101341ADDGF101991999999999999999999
0046029700999991922052406004+60100+019950FM-12+001499999V0202501N001019999999N0000001N9+01561+99999101401ADDAJ100009199999999GF100991999999999999999999
0029029700999991922052413004+60100+019950FM-12+001499999V0203201N001019999999N0000001N9+01501+99999101581ADDGF104991999999999999999999
0029029700999991922052420004+60100+019950FM-12+001499999V0209991C000019999999N0000001N9+01061+99999101471ADDGF104991999999999999999999
0046029700999991922052506004+60100+019950FM-12+001499999V0209991C000019999999N0000001N9+01281+99999101231ADDAJ100009199999999GF104991999999999999999999
0029029700999991922052520004+60100+019950FM-12+001499999V0203601N001019999999N0000001N9+00831+99999101511ADDGF100991999999999999999999
0046029700999991922052606004+60100+019950FM-12+001499999V0201401N001019999999N0000001N9+01221+99999101881ADDAJ100009199999999GF102991999999999999999999
0029029700999991922052613004+60100+019950FM-12+001499999V0201601N002119999999N0000001N9+01441+99999101881ADDGF102991999999999999999999
0029029700999991922052620004+60100+019950FM-12+001499999V0201601N001019999999N0000001N9+01001+99999101471ADDGF104991999999999999999999
0052029700999991922052706004+60100+019950FM-12+001499999V0202301N004119999999N0000001N9+00781+99999100431ADDAJ100009199999999GF108991999999999999999999MW1621
0029029700999991922052713004+60100+019950FM-12+001499999V0202301N005119999999N0000001N9+01441+99999100121ADDGF102991999999999999999999
0029029700999991922052720004+60100+019950FM-12+001499999V0202501N003119999999N0000001N9+01061+99999100031ADDGF106991999999999999999999
0046029700999991922052806004+60100+019950FM-12+001499999V0203201N007219999999N0000001N9+01061+99999100391ADDAJ100009199999999GF106991999999999999999999
0029029700999991922052813004+60100+019950FM-12+001499999V0203401N007219999999N0000001N9+01331+99999101071ADDGF100991999999999999999999
0029029700999991922052820004+60100+019950FM-12+001499999V0203401N003119999999N0000001N9+00781+99999101521ADDGF101991999999999999999999
0046029700999991922052906004+60100+019950FM-12+001499999V0200201N007219999999N0000001N9+00671+99999102041ADDAJ100009199999999GF101991999999999999999999
0029029700999991922052913004+60100+019950FM-12+001499999V0202901N004119999999N0000001N9+01171+99999102221ADDGF101991999999999999999999
0029029700999991922052920004+60100+019950FM-12+001499999V0202301N002119999999N0000001N9+00611+99999102311ADDGF103991999999999999999999
0046029700999991922053006004+60100+019950FM-12+001499999V0202301N001019999999N0000001N9+00781+99999101961ADDAJ100009199999999GF107991999999999999999999
0029029700999991922053013004+60100+019950FM-12+001499999V0202301N003119999999N0000001N9+01221+99999101561ADDGF101991999999999999999999
0029029700999991922053020004+60100+019950FM-12+001499999V0202301N003119999999N0000001N9+01111+99999100871ADDGF104991999999999999999999
0052029700999991922053106004+60100+019950FM-12+001499999V0202301N002119999999N0000001N9+00891+99999099441ADDAJ100009199999999GF108991999999999999999999MW1621
0029029700999991922053113004+60100+019950FM-12+001499999V0203201N005119999999N0000001N9+01611+99999099401ADDGF102991999999999999999999
0029029700999991922053120004+60100+019950FM-12+001499999V0203401N004119999999N0000001N9+00941+99999099381ADDGF106991999999999999999999
0052029700999991922060106004+60100+019950FM-12+001499999V0203401N004119999999N0000001N9+00501+99999099791ADDAJ100009199999999GF108991999999999999999999MW1621
0029029700999991922060113004+60100+019950FM-12+001499999V0203401N006219999999N0000001N9+01061+99999100511ADDGF102991999999999999999999
0029029700999991922060120004+60100+019950FM-12+001499999V0203401N005119999999N0000001N9+00561+99999100791ADDGF102991999999999999999999
0046029700999991922060206004+60100+019950FM-12+001499999V0203601N008219999999N0000001N9+00781+99999101151ADDAJ100009199999999GF105991999999999999999999
0029029700999991922060213004+60100+019950FM-12+001499999V0203601N008219999999N0000001N9+01001+99999101481ADDGF100991999999999999999999
0029029700999991922060220004+60100+019950FM-12+001499999V0203201N001019999999N0000001N9+00561+99999101561ADDGF100991999999999999999999
0046029700999991922060306004+60100+019950FM-12+001499999V0202501N003119999999N0000001N9+01061+99999101581ADDAJ100009199999999GF100991999999999999999999
0029029700999991922060313004+60100+019950FM-12+001499999V0203601N004119999999N0000001N9+01391+99999101341ADDGF100991999999999999999999
0029029700999991922060320004+60100+019950FM-12+001499999V0209991C000019999999N0000001N9+00671+99999101341ADDGF100991999999999999999999
0046029700999991922060406004+60100+019950FM-12+001499999V0200901N001019999999N0000001N9+01111+99999101341ADDAJ100009199999999GF100991999999999999999999
0029029700999991922060413004+60100+019950FM-12+001499999V0201401N001019999999N0000001N9+01221+99999101311ADDGF102991999999999999999999
0029029700999991922060420004+60100+019950FM-12+001499999V0201801N002119999999N0000001N9+00891+99999101141ADDGF104991999999999999999999
0046029700999991922060506004+60100+019950FM-12+001499999V0201801N001019999999N0000001N9+01001+99999101151ADDAJ100009199999999GF101991999999999999999999
0029029700999991922060513004+60100+019950FM-12+001499999V0202301N002119999999N0000001N9+01111+99999101151ADDGF104991999999999999999999
0029029700999991922060520004+60100+019950FM-12+001499999V0202701N001019999999N0000001N9+00941+99999100991ADDGF106991999999999999999999
0046029700999991922060606004+60100+019950FM-12+001499999V0209991C000019999999N0000001N9+00721+99999100841ADDAJ100009199999999GF108991999999999999999999
0029029700999991922060613004+60100+019950FM-12+001499999V0202301N001019999999N0000001N9+01061+99999100681ADDGF103991999999999999999999
0029029700999991922060620004+60100+019950FM-12+001499999V0209991C000019999999N0000001N9+01001+99999100631ADDGF102991999999999999999999
0052029700999991922060706004+60100+019950FM-12+001499999V0203401N003119999999N0000001N9+00781+99999100661ADDAJ100009199999999GF108991999999999999999999MW1621
0029029700999991922060713004+60100+019950FM-12+001499999V0203201N003119999999N0000001N9+01331+99999100911ADDGF100991999999999999999999
0029029700999991922060720004+60100+019950FM-12+001499999V0203401N001019999999N0000001N9+00891+99999101031ADDGF100991999999999999999999
0046029700999991922060806004+60100+019950FM-12+001499999V0203201N001019999999N0000001N9+01281+99999101221ADDAJ100009199999999GF103991999999999999999999
0029029700999991922060813004+60100+019950FM-12+001499999V0209991C000019999999N0000001N9+01611+99999101301ADDGF102991999999999999999999
0029029700999991922060820004+60100+019950FM-12+001499999V0209991C000019999999N0000001N9+01111+99999101281ADDGF102991999999999999999999
0046029700999991922060906004+60100+019950FM-12+001499999V0203601N003119999999N0000001N9+01171+99999101161ADDAJ100009199999999GF100991999999999999999999
0029029700999991922060913004+60100+019950FM-12+001499999V0203601N007219999999N0000001N9+01281+99999101241ADDGF101991999999999999999999
0029029700999991922060920004+60100+019950FM-12+001499999V0203201N002119999999N0000001N9+00891+99999101241ADDGF101991999999999999999999
0046029700999991922061006004+60100+019950FM-12+001499999V0203601N001019999999N0000001N9+01391+99999101151ADDAJ100009199999999GF100991999999999999999999
0029029700999991922061013004+60100+019950FM-12+001499999V0203601N001019999999N0000001N9+01941+99999101061ADDGF100991999999999999999999
0029029700999991922061020004+60100+019950FM-12+001499999V0209991C000019999999N0000001N9+01061+99999100991ADDGF100991999999999999999999
0046029700999991922061106004+60100+019950FM-12+001499999V0203601N001019999999N0000001N9+01501+99999100841ADDAJ100009199999999GF100991999999999999999999
0029029700999991922061113004+60100+019950FM-12+001499999V0203601N003119999999N0000001N9+01891+99999100831ADDGF100991999999999999999999
0046029700999991922061206004+60100+019950FM-12+001499999V0203601N003119999999N0000001N9+01501+99999101021ADDAJ100009199999999GF100991999999999999999999
0029029700999991922061213004+60100+019950FM-12+001499999V0203401N004119999999N0000001N9+01671+99999101111ADDGF104991999999999999999999
0029029700999991922061220004+60100+019950FM-12+001499999V0202901N004119999999N0000001N9+01001+99999101121ADDGF104991999999999999999999
0046029700999991922061306004+60100+019950FM-12+001499999V0203401N001019999999N0000001N9+01281+99999100991ADDAJ100009199999999GF107991999999999999999999
0029029700999991922061313004+60100+019950FM-12+001499999V0201101N001019999999N0000001N9+01941+99999100961ADDGF104991999999999999999999
0046029700999991922061406004+60100+019950FM-12+001499999V0209991C000019999999N0000001N9+01221+99999100941ADDAJ100009199999999GF108991999999999999999999
0029029700999991922061413004+60100+019950FM-12+001499999V0202301N003119999999N0000001N9+01561+99999100871ADDGF104991999999999999999999
0029029700999991922061420004+60100+019950FM-12+001499999V0209991C000019999999N0000001N9+01001+99999100791ADDGF108991999999999999999999
0046029700999991922061506004+60100+019950FM-12+001499999V0209991C000019999999N0000001N9+01171+99999100801ADDAJ100009199999999GF107991999999999999999999
0029029700999991922061513004+60100+019950FM-12+001499999V0202301N002119999999N0000001N9+01781+99999100831ADDGF101991999999999999999999
0029029700999991922061520004+60100+019950FM-12+001499999V0202301N001019999999N0000001N9+01171+99999100801ADDGF102991999999999999999999
0046029700999991922061606004+60100+019950FM-12+001499999V0202701N002119999999N0000001N9+01281+99999100801ADDAJ100009199999999GF104991999999999999999999
0029029700999991922061613004+60100+019950FM-12+001499999V0202701N002119999999N0000001N9+01781+99999100941ADDGF102991999999999999999999
0029029700999991922061620004+60100+019950FM-12+001499999V0209991C000019999999N0000001N9+01281+99999101031ADDGF100991999999999999999999
0046029700999991922061706004+60100+019950FM-12+001499999V0201601N001019999999N0000001N9+01391+99999101081ADDAJ100009199999999GF101991999999999999999999
0029029700999991922061713004+60100+019950FM-12+001499999V0202301N005119999999N0000001N9+01611+99999101001ADDGF100991999999999999999999
0046029700999991922061806004+60100+019950FM-12+001499999V0201801N002119999999N0000001N9+01561+99999101041ADDAJ100009199999999GF103991999999999999999999
0029029700999991922061813004+60100+019950FM-12+001499999V0201401N004119999999N0000001N9+02061+99999100961ADDGF101991999999999999999999
0029029700999991922061820004+60100+019950FM-12+001499999V0209991C000019999999N0000001N9+01611+99999100951ADDGF103991999999999999999999
0046029700999991922061906004+60100+019950FM-12+001499999V0201401N002119999999N0000001N9+01671+99999100581ADDAJ100009199999999GF107991999999999999999999
0029029700999991922061913004+60100+019950FM-12+001499999V0202301N001019999999N0000001N9+01561+99999100431ADDGF108991999999999999999999
0029029700999991922061920004+60100+019950FM-12+001499999V0209991C000019999999N0000001N9+01281+99999100391ADDGF108991999999999999999999
0052029700999991922062006004+60100+019950FM-12+001499999V0203201N007219999999N0000001N9+01061+99999100341ADDAJ100009199999999GF108991999999999999999999MW1621
0029029700999991922062013004+60100+019950FM-12+001499999V0202901N007219999999N0000001N9+01391+99999100671ADDGF107991999999999999999999
0029029700999991922062020004+60100+019950FM-12+001499999V0203201N001019999999N0000001N9+01221+99999100881ADDGF107991999999999999999999
0046029700999991922062106004+60100+019950FM-12+001499999V0203401N003119999999N0000001N9+01171+99999100841ADDAJ100009199999999GF104991999999999999999999
0029029700999991922062113004+60100+019950FM-12+001499999V0203201N003119999999N0000001N9+01781+99999100751ADDGF100991999999999999999999
0029029700999991922062120004+60100+019950FM-12+001499999V0209991C000019999999N0000001N9+01221+99999100641ADDGF102991999999999999999999
0046029700999991922062206004+60100+019950FM-12+001499999V0202501N001019999999N0000001N9+01281+99999100381ADDAJ100009199999999GF102991999999999999999999
0029029700999991922062213004+60100+019950FM-12+001499999V0203201N002119999999N0000001N9+01441+99999100381ADDGF106991999999999999999999
0029029700999991922062220004+60100+019950FM-12+001499999V0202501N003119999999N0000001N9+01001+99999100401ADDGF104991999999999999999999
0046029700999991922062306004+60100+019950FM-12+001499999V0202501N002119999999N0000001N9+01221+99999100461ADDAJ100009199999999GF100991999999999999999999
0029029700999991922062313004+60100+019950FM-12+001499999V0202501N002119999999N0000001N9+01441+99999100591ADDGF104991999999999999999999
0029029700999991922062320004+60100+019950FM-12+001499999V0209991C000019999999N0000001N9+01171+99999100701ADDGF103991999999999999999999
0052029700999991922062406004+60100+019950FM-12+001499999V0209991C000019999999N0000001N9+01111+99999100581ADDAJ100009199999999GF108991999999999999999999MW1621
0029029700999991922062413004+60100+019950FM-12+001499999V0209991C000019999999N0000001N9+01281+99999100401ADDGF108991999999999999999999
0029029700999991922062420004+60100+019950FM-12+001499999V0209991C000019999999N0000001N9+01061+99999100281ADDGF108991999999999999999999
0046029700999991922062506004+60100+019950FM-12+001499999V0209991C000019999999N0000001N9+01001+99999100461ADDAJ100009199999999GF108991999999999999999999
0029029700999991922062513004+60100+019950FM-12+001499999V0202301N003119999999N0000001N9+01281+99999100601ADDGF101991999999999999999999
0029029700999991922062520004+60100+019950FM-12+001499999V0209991C000019999999N0000001N9+01171+99999100541ADDGF101991999999999999999999
0046029700999991922062606004+60100+019950FM-12+001499999V0201401N005119999999N0000001N9+01391+99999100081ADDAJ100009199999999GF107991999999999999999999
0029029700999991922062613004+60100+019950FM-12+001499999V0202301N004119999999N0000001N9+01441+99999099921ADDGF106991999999999999999999
0029029700999991922062620004+60100+019950FM-12+001499999V0201801N004119999999N0000001N9+01111+99999099911ADDGF101991999999999999999999
0046029700999991922062706004+60100+019950FM-12+001499999V0202301N005119999999N0000001N9+01221+99999099991ADDAJ100009199999999GF100991999999999999999999
0029029700999991922062713004+60100+019950FM-12+001499999V0201801N005119999999N0000001N9+01501+99999100191ADDGF101991999999999999999999
0029029700999991922062720004+60100+019950FM-12+001499999V0201801N003119999999N0000001N9+01171+99999100071ADDGF101991999999999999999999
0046029700999991922062806004+60100+019950FM-12+001499999V0202301N001019999999N0000001N9+01111+99999099661ADDAJ100009199999999GF108991999999999999999999
0029029700999991922062813004+60100+019950FM-12+001499999V0202301N005119999999N0000001N9+01441+99999099721ADDGF102991999999999999999999
0029029700999991922062820004+60100+019950FM-12+001499999V0202301N001019999999N0000001N9+01171+99999099741ADDGF101991999999999999999999
0046029700999991922062906004+60100+019950FM-12+001499999V0202301N002119999999N0000001N9+01171+99999099751ADDAJ100009199999999GF107991999999999999999999
0029029700999991922062913004+60100+019950FM-12+001499999V0202301N002119999999N0000001N9+01331+99999099841ADDGF108991999999999999999999
0029029700999991922062920004+60100+019950FM-12+001499999V0202001N005119999999N0000001N9+01221+99999099501ADDGF108991999999999999999999
0046029700999991922063006004+60100+019950FM-12+001499999V0202301N006219999999N0000001N9+01171+99999100221ADDAJ100009199999999GF100991999999999999999999
0029029700999991922063013004+60100+019950FM-12+001499999V0202301N004119999999N0000001N9+01281+99999100561ADDGF103991999999999999999999
0029029700999991922063020004+60100+019950FM-12+001499999V0202301N003119999999N0000001N9+01171+99999100831ADDGF103991999999999999999999
0046029700999991922070106004+60100+019950FM-12+001499999V0202301N002119999999N0000001N9+01221+99999101311ADDAJ100009199999999GF102991999999999999999999
0029029700999991922070113004+60100+019950FM-12+001499999V0202301N007219999999N0000001N9+01281+99999101461ADDGF107991999999999999999999
0029029700999991922070120004+60100+019950FM-12+001499999V0202301N003119999999N0000001N9+01171+99999101501ADDGF102991999999999999999999
0046029700999991922070206004+60100+019950FM-12+001499999V0202301N004119999999N0000001N9+01331+99999101901ADDAJ100009199999999GF104991999999999999999999
0029029700999991922070213004+60100+019950FM-12+001499999V0202301N005119999999N0000001N9+01561+99999101981ADDGF102991999999999999999999
0029029700999991922070220004+60100+019950FM-12+001499999V0201801N004119999999N0000001N9+01281+99999102001ADDGF100991999999999999999999
0046029700999991922070306004+60100+019950FM-12+001499999V0201401N003119999999N0000001N9+01501+99999101881ADDAJ100009199999999GF107991999999999999999999
0029029700999991922070313004+60100+019950FM-12+001499999V0201401N004119999999N0000001N9+01831+99999101781ADDGF102991999999999999999999
0029029700999991922070320004+60100+019950FM-12+001499999V0201801N003119999999N0000001N9+01561+99999101561ADDGF107991999999999999999999
0046029700999991922070406004+60100+019950FM-12+001499999V0209991C000019999999N0000001N9+01391+99999101581ADDAJ100009199999999GF104991999999999999999999
0029029700999991922070413004+60100+019950FM-12+001499999V0202001N005119999999N0000001N9+01891+99999101431ADDGF101991999999999999999999
0029029700999991922070420004+60100+019950FM-12+001499999V0201601N002119999999N0000001N9+01391+99999101191ADDGF104991999999999999999999
0046029700999991922070506004+60100+019950FM-12+001499999V0202301N003119999999N0000001N9+01391+99999101001ADDAJ100009199999999GF107991999999999999999999
0029029700999991922070513004+60100+019950FM-12+001499999V0202001N004119999999N0000001N9+01781+99999101031ADDGF101991999999999999999999
0029029700999991922070520004+60100+019950FM-12+001499999V0209991C000019999999N0000001N9+01281+99999100681ADDGF107991999999999999999999
0046029700999991922070606004+60100+019950FM-12+001499999V0209991C000019999999N0000001N9+01221+99999100961ADDAJ100009199999999GF108991999999999999999999
0029029700999991922070613004+60100+019950FM-12+001499999V0201801N002119999999N0000001N9+01441+99999100861ADDGF108991999999999999999999
0029029700999991922070620004+60100+019950FM-12+001499999V0201401N004119999999N0000001N9+01561+99999100501ADDGF106991999999999999999999
0046029700999991922070706004+60100+019950FM-12+001499999V0202001N003119999999N0000001N9+01611+99999100381ADDAJ100009199999999GF107991999999999999999999
0029029700999991922070713004+60100+019950FM-12+001499999V0202701N002119999999N0000001N9+01671+99999100741ADDGF108991999999999999999999
0029029700999991922070720004+60100+019950FM-12+001499999V0202301N003119999999N0000001N9+01281+99999100951ADDGF107991999999999999999999
0046029700999991922070806004+60100+019950FM-12+001499999V0202301N005119999999N0000001N9+01281+99999101201ADDAJ100009199999999GF106991999999999999999999
0029029700999991922070813004+60100+019950FM-12+001499999V0202301N005119999999N0000001N9+01561+99999101351ADDGF101991999999999999999999
0029029700999991922070820004+60100+019950FM-12+001499999V0209991C000019999999N0000001N9+01331+99999101521ADDGF103991999999999999999999
0046029700999991922070906004+60100+019950FM-12+001499999V0202501N001019999999N0000001N9+01281+99999101941ADDAJ100009199999999GF108991999999999999999999
0029029700999991922070913004+60100+019950FM-12+001499999V0202001N001019999999N0000001N9+01721+99999102001ADDGF102991999999999999999999
0029029700999991922070920004+60100+019950FM-12+001499999V0201601N001019999999N0000001N9+01331+99999101791ADDGF107991999999999999999999
0046029700999991922071006004+60100+019950FM-12+001499999V0202001N003119999999N0000001N9+01281+99999100911ADDAJ100009199999999GF108991999999999999999999
0029029700999991922071013004+60100+019950FM-12+001499999V0201801N004119999999N0000001N9+01561+99999101201ADDGF100991999999999999999999
0029029700999991922071020004+60100+019950FM-12+001499999V0202001N006219999999N0000001N9+01281+99999101181ADDGF101991999999999999999999
0046029700999991922071106004+60100+019950FM-12+001499999V0202301N004119999999N0000001N9+01281+99999101161ADDAJ100009199999999GF102991999999999999999999
0029029700999991922071113004+60100+019950FM-12+001499999V0202301N005119999999N0000001N9+01391+99999101401ADDGF108991999999999999999999
0029029700999991922071120004+60100+019950FM-12+001499999V0209991C000019999999N0000001N9+01281+99999101671ADDGF102991999999999999999999
0046029700999991922071206004+60100+019950FM-12+001499999V0203201N002119999999N0000001N9+01281+99999102031ADDAJ100009199999999GF100991999999999999999999
0029029700999991922071213004+60100+019950FM-12+001499999V0203201N002119999999N0000001N9+01501+99999102111ADDGF100991999999999999999999
0029029700999991922071220004+60100+019950FM-12+001499999V0209991C000019999999N0000001N9+00941+99999102021ADDGF100991999999999999999999
0046029700999991922071306004+60100+019950FM-12+001499999V0200701N001019999999N0000001N9+01441+99999102001ADDAJ100009199999999GF100991999999999999999999
0029029700999991922071313004+60100+019950FM-12+001499999V0200501N003119999999N0000001N9+01831+99999101831ADDGF100991999999999999999999
0029029700999991922071320004+60100+019950FM-12+001499999V0200201N001019999999N0000001N9+01171+99999101661ADDGF100991999999999999999999
0046029700999991922071406004+60100+019950FM-12+001499999V0209991C000019999999N0000001N9+01501+99999101391ADDAJ100009199999999GF100991999999999999999999
0029029700999991922071413004+60100+019950FM-12+001499999V0209991C000019999999N0000001N9+01941+99999101321ADDGF100991999999999999999999
0029029700999991922071420004+60100+019950FM-12+001499999V0209991C000019999999N0000001N9+01331+99999101141ADDGF106991999999999999999999
0046029700999991922071506004+60100+019950FM-12+001499999V0200501N001019999999N0000001N9+01501+99999100911ADDAJ100009199999999GF104991999999999999999999
0029029700999991922071513004+60100+019950FM-12+001499999V0200901N002119999999N0000001N9+01561+99999100831ADDGF108991999999999999999999
0035029700999991922071520004+60100+019950FM-12+001499999V0209991C000019999999N0000001N9+01331+99999100841ADDGF108991999999999999999999MW1621
0046029700999991922071606004+60100+019950FM-12+001499999V0200901N001019999999N0000001N9+01391+99999100551ADDAJ100009199999999GF108991999999999999999999
0029029700999991922071613004+60100+019950FM-12+001499999V0201101N001019999999N0000001N9+01561+99999100471ADDGF108991999999999999999999
0029029700999991922071620004+60100+019950FM-12+001499999V0209991C000019999999N0000001N9+01561+99999100391ADDGF107991999999999999999999
0046029700999991922071706004+60100+019950FM-12+001499999V0200901N003119999999N0000001N9+01671+99999099881ADDAJ100009199999999GF108991999999999999999999
0035029700999991922071713004+60100+019950FM-12+001499999V0200701N003119999999N0000001N9+01611+99999099581ADDGF108991999999999999999999MW1621
0035029700999991922071720004+60100+019950FM-12+001499999V0200901N007219999999N0000001N9+01611+99999099381ADDGF108991999999999999999999MW1621
0052029700999991922071806004+60100+019950FM-12+001499999V0209991C000019999999N0000001N9+01281+99999099421ADDAJ100009199999999GF108991999999999999999999MW1621
0029029700999991922071813004+60100+019950FM-12+001499999V0209991C000019999999N0000001N9+01561+99999099471ADDGF108991999999999999999999
0029029700999991922071820004+60100+019950FM-12+001499999V0209991C000019999999N0000001N9+01391+99999099561ADDGF101991999999999999999999
0046029700999991922071906004+60100+019950FM-12+001499999V0200201N001019999999N0000001N9+01501+99999099511ADDAJ100009199999999GF105991999999999999999999
0029029700999991922071913004+60100+019950FM-12+001499999V0200201N002119999999N0000001N9+01721+99999099711ADDGF108991999999999999999999
0029029700999991922071920004+60100+019950FM-12+001499999V0200201N001019999999N0000001N9+01441+99999099831ADDGF107991999999999999999999
0046029700999991922072006004+60100+019950FM-12+001499999V0203401N003119999999N0000001N9+01331+99999099951ADDAJ100009199999999GF108991999999999999999999
0029029700999991922072013004+60100+019950FM-12+001499999V0203201N003119999999N0000001N9+01501+99999100101ADDGF108991999999999999999999
0029029700999991922072020004+60100+019950FM-12+001499999V0202901N001019999999N0000001N9+01221+99999100261ADDGF102991999999999999999999
0046029700999991922072106004+60100+019950FM-12+001499999V0203401N003119999999N0000001N9+01171+99999100481ADDAJ100009199999999GF108991999999999999999999
0029029700999991922072113004+60100+019950FM-12+001499999V0203401N004119999999N0000001N9+01891+99999100631ADDGF102991999999999999999999
0029029700999991922072120004+60100+019950FM-12+001499999V0203201N001019999999N0000001N9+01441+99999100541ADDGF100991999999999999999999
0046029700999991922072206004+60100+019950FM-12+001499999V0202901N001019999999N0000001N9+01781+99999100151ADDAJ100009199999999GF101991999999999999999999
0029029700999991922072213004+60100+019950FM-12+001499999V0202901N001019999999N0000001N9+02441+99999099981ADDGF101991999999999999999999
0029029700999991922072220004+60100+019950FM-12+001499999V0209991C000019999999N0000001N9+01501+99999099941ADDGF100991999999999999999999
0046029700999991922072306004+60100+019950FM-12+001499999V0209991C000019999999N0000001N9+01441+99999099881ADDAJ100009199999999GF107991999999999999999999
0029029700999991922072313004+60100+019950FM-12+001499999V0202301N002119999999N0000001N9+01721+99999099981ADDGF107991999999999999999999
0029029700999991922072320004+60100+019950FM-12+001499999V0209991C000019999999N0000001N9+01441+99999100081ADDGF102991999999999999999999
0046029700999991922072406004+60100+019950FM-12+001499999V0201801N001019999999N0000001N9+01611+99999100221ADDAJ100009199999999GF102991999999999999999999
0029029700999991922072413004+60100+019950FM-12+001499999V0209991C000019999999N0000001N9+02001+99999100321ADDGF100991999999999999999999
0029029700999991922072420004+60100+019950FM-12+001499999V0209991C000019999999N0000001N9+01281+99999100321ADDGF101991999999999999999999
0046029700999991922072506004+60100+019950FM-12+001499999V0200501N001019999999N0000001N9+01501+99999100261ADDAJ100009199999999GF108991999999999999999999
0029029700999991922072513004+60100+019950FM-12+001499999V0200701N001019999999N0000001N9+02001+99999100261ADDGF105991999999999999999999
0029029700999991922072520004+60100+019950FM-12+001499999V0209991C000019999999N0000001N9+01721+99999100281ADDGF107991999999999999999999
0046029700999991922072606004+60100+019950FM-12+001499999V0209991C000019999999N0000001N9+01831+99999100261ADDAJ100009199999999GF102991999999999999999999
0029029700999991922072613004+60100+019950FM-12+001499999V0200201N001019999999N0000001N9+02281+99999100261ADDGF102991999999999999999999
0029029700999991922072620004+60100+019950FM-12+001499999V0209991C000019999999N0000001N9+01831+99999100391ADDGF106991999999999999999999
0046029700999991922072706004+60100+019950FM-12+001499999V0200201N002119999999N0000001N9+01831+99999100391ADDAJ100009199999999GF100991999999999999999999
0029029700999991922072713004+60100+019950FM-12+001499999V0203601N002119999999N0000001N9+02001+99999100351ADDGF102991999999999999999999
0029029700999991922072720004+60100+019950FM-12+001499999V0203401N001019999999N0000001N9+01221+99999100271ADDGF101991999999999999999999
0046029700999991922072806004+60100+019950FM-12+001499999V0203601N003119999999N0000001N9+01611+99999100121ADDAJ100009199999999GF100991999999999999999999
0029029700999991922072813004+60100+019950FM-12+001499999V0200501N004119999999N0000001N9+01781+99999100191ADDGF102991999999999999999999
0029029700999991922072820004+60100+019950FM-12+001499999V0203401N001019999999N0000001N9+01331+99999100261ADDGF100991999999999999999999
0046029700999991922072906004+60100+019950FM-12+001499999V0203401N001019999999N0000001N9+01671+99999100391ADDAJ100009199999999GF100991999999999999999999
0029029700999991922072913004+60100+019950FM-12+001499999V0203401N004119999999N0000001N9+01941+99999100551ADDGF100991999999999999999999
0029029700999991922072920004+60100+019950FM-12+001499999V0202301N002119999999N0000001N9+01501+99999100581ADDGF103991999999999999999999
0046029700999991922073006004+60100+019950FM-12+001499999V0202701N005119999999N0000001N9+01561+99999100511ADDAJ100009199999999GF108991999999999999999999
0029029700999991922073013004+60100+019950FM-12+001499999V0202501N002119999999N0000001N9+01831+99999100541ADDGF102991999999999999999999
0029029700999991922073020004+60100+019950FM-12+001499999V0202301N002119999999N0000001N9+01441+99999100501ADDGF103991999999999999999999
0046029700999991922073106004+60100+019950FM-12+001499999V0202501N001019999999N0000001N9+01501+99999100581ADDAJ100009199999999GF108991999999999999999999
0029029700999991922073113004+60100+019950FM-12+001499999V0202301N004119999999N0000001N9+01831+99999100621ADDGF103991999999999999999999
0029029700999991922073120004+60100+019950FM-12+001499999V0202501N001019999999N0000001N9+01611+99999100781ADDGF102991999999999999999999
0046029700999991922080106004+60100+019950FM-12+001499999V0202301N003119999999N0000001N9+01561+99999100951ADDAJ100009199999999GF103991999999999999999999
0029029700999991922080113004+60100+019950FM-12+001499999V0202301N005119999999N0000001N9+01831+99999100911ADDGF101991999999999999999999
0029029700999991922080120004+60100+019950FM-12+001499999V0209991C000019999999N0000001N9+01501+99999101071ADDGF103991999999999999999999
0046029700999991922080206004+60100+019950FM-12+001499999V0202501N004119999999N0000001N9+01441+99999101341ADDAJ100009199999999GF100991999999999999999999
0029029700999991922080213004+60100+019950FM-12+001499999V0202301N008219999999N0000001N9+01611+99999101461ADDGF106991999999999999999999
0029029700999991922080220004+60100+019950FM-12+001499999V0202301N002119999999N0000001N9+01441+99999101421ADDGF104991999999999999999999
0052029700999991922080306004+60100+019950FM-12+001499999V0202001N001019999999N0000001N9+01281+99999101381ADDAJ100009199999999GF108991999999999999999999MW1621
0029029700999991922080313004+60100+019950FM-12+001499999V0202301N001019999999N0000001N9+01611+99999101231ADDGF107991999999999999999999
0029029700999991922080320004+60100+019950FM-12+001499999V0209991C000019999999N0000001N9+01391+99999101151ADDGF106991999999999999999999
0046029700999991922080406004+60100+019950FM-12+001499999V0202701N001019999999N0000001N9+01391+99999101101ADDAJ100009199999999GF100991999999999999999999
0029029700999991922080413004+60100+019950FM-12+001499999V0202301N003119999999N0000001N9+01671+99999101081ADDGF100991999999999999999999
0029029700999991922080420004+60100+019950FM-12+001499999V0202301N001019999999N0000001N9+01331+99999101001ADDGF102991999999999999999999
0046029700999991922080506004+60100+019950FM-12+001499999V0202701N002119999999N0000001N9+01281+99999100951ADDAJ100009199999999GF102991999999999999999999
0029029700999991922080513004+60100+019950FM-12+001499999V0202001N001019999999N0000001N9+01671+99999100951ADDGF102991999999999999999999
0029029700999991922080520004+60100+019950FM-12+001499999V0209991C000019999999N0000001N9+01331+99999100991ADDGF108991999999999999999999
0052029700999991922080606004+60100+019950FM-12+001499999V0200901N004119999999N0000001N9+01441+99999100441ADDAJ100009199999999GF108991999999999999999999MW1621
0029029700999991922080613004+60100+019950FM-12+001499999V0201401N004119999999N0000001N9+01611+99999100381ADDGF105991999999999999999999
0029029700999991922080620004+60100+019950FM-12+001499999V0200901N002119999999N0000001N9+01391+99999100481ADDGF104991999999999999999999
0046029700999991922080706004+60100+019950FM-12+001499999V0201401N003119999999N0000001N9+01391+99999100391ADDAJ100009199999999GF106991999999999999999999
0029029700999991922080713004+60100+019950FM-12+001499999V0203601N004119999999N0000001N9+01611+99999100441ADDGF106991999999999999999999
0029029700999991922080720004+60100+019950FM-12+001499999V0209991C000019999999N0000001N9+01171+99999100661ADDGF107991999999999999999999
0046029700999991922080806004+60100+019950FM-12+001499999V0209991C000019999999N0000001N9+01441+99999100841ADDAJ100009199999999GF101991999999999999999999
0029029700999991922080813004+60100+019950FM-12+001499999V0202301N003119999999N0000001N9+01781+99999100991ADDGF100991999999999999999999
0029029700999991922080820004+60100+019950FM-12+001499999V0202301N001019999999N0000001N9+01391+99999101031ADDGF102991999999999999999999
0046029700999991922080906004+60100+019950FM-12+001499999V0209991C000019999999N0000001N9+01501+99999101071ADDAJ100009199999999GF102991999999999999999999
0029029700999991922080913004+60100+019950FM-12+001499999V0209991C000019999999N0000001N9+01941+99999100921ADDGF103991999999999999999999
0029029700999991922080920004+60100+019950FM-12+001499999V0200701N002119999999N0000001N9+01561+99999100701ADDGF106991999999999999999999
0046029700999991922081006004+60100+019950FM-12+001499999V0203601N001019999999N0000001N9+01501+99999100381ADDAJ100009199999999GF106991999999999999999999
0029029700999991922081013004+60100+019950FM-12+001499999V0200201N004119999999N0000001N9+01891+99999100481ADDGF102991999999999999999999
0029029700999991922081020004+60100+019950FM-12+001499999V0209991C000019999999N0000001N9+01331+99999100761ADDGF100991999999999999999999
0046029700999991922081106004+60100+019950FM-12+001499999V0209991C000019999999N0000001N9+01441+99999100951ADDAJ100009199999999GF100991999999999999999999
0029029700999991922081113004+60100+019950FM-12+001499999V0202901N002119999999N0000001N9+01721+99999101141ADDGF101991999999999999999999
0029029700999991922081120004+60100+019950FM-12+001499999V0209991C000019999999N0000001N9+01281+99999101111ADDGF100991999999999999999999
0046029700999991922081206004+60100+019950FM-12+001499999V0202501N003119999999N0000001N9+01331+99999100841ADDAJ100009199999999GF104991999999999999999999
0035029700999991922081213004+60100+019950FM-12+001499999V0202901N001019999999N0000001N9+01331+99999100821ADDGF108991999999999999999999MW1601
0029029700999991922081220004+60100+019950FM-12+001499999V0209991C000019999999N0000001N9+01111+99999101071ADDGF102991999999999999999999
0046029700999991922081306004+60100+019950FM-12+001499999V0209991C000019999999N0000001N9+01111+99999101271ADDAJ100009199999999GF107991999999999999999999
0029029700999991922081313004+60100+019950FM-12+001499999V0203201N002119999999N0000001N9+01561+99999101261ADDGF106991999999999999999999
0029029700999991922081320004+60100+019950FM-12+001499999V0209991C000019999999N0000001N9+00831+99999101151ADDGF104991999999999999999999
0046029700999991922081406004+60100+019950FM-12+001499999V0209991C000019999999N0000001N9+01281+99999100871ADDAJ100009199999999GF103991999999999999999999
0029029700999991922081413004+60100+019950FM-12+001499999V0209991C000019999999N0000001N9+01611+99999100761ADDGF103991999999999999999999
0029029700999991922081420004+60100+019950FM-12+001499999V0209991C000019999999N0000001N9+01111+99999100831ADDGF102991999999999999999999
0046029700999991922081506004+60100+019950FM-12+001499999V0209991C000019999999N0000001N9+01331+99999100861ADDAJ100009199999999GF103991999999999999999999
0029029700999991922081513004+60100+019950FM-12+001499999V0202501N001019999999N0000001N9+01611+99999100871ADDGF106991999999999999999999
0029029700999991922081520004+60100+019950FM-12+001499999V0209991C000019999999N0000001N9+01171+99999100961ADDGF107991999999999999999999
0046029700999991922081606004+60100+019950FM-12+001499999V0209991C000019999999N0000001N9+01281+99999100991ADDAJ100009199999999GF105991999999999999999999
0029029700999991922081613004+60100+019950FM-12+001499999V0202901N001019999999N0000001N9+01611+99999101181ADDGF106991999999999999999999
0029029700999991922081620004+60100+019950FM-12+001499999V0209991C000019999999N0000001N9+00941+99999101381ADDGF100991999999999999999999
0046029700999991922081706004+60100+019950FM-12+001499999V0209991C000019999999N0000001N9+01281+99999101431ADDAJ100009199999999GF103991999999999999999999
0029029700999991922081713004+60100+019950FM-12+001499999V0209991C000019999999N0000001N9+01561+99999101541ADDGF106991999999999999999999
0029029700999991922081720004+60100+019950FM-12+001499999V0202301N001019999999N0000001N9+01391+99999101381ADDGF103991999999999999999999
0046029700999991922081806004+60100+019950FM-12+001499999V0201801N001019999999N0000001N9+01501+99999101041ADDAJ100009199999999GF107991999999999999999999
0035029700999991922081813004+60100+019950FM-12+001499999V0202001N003119999999N0000001N9+01611+99999100831ADDGF108991999999999999999999MW1601
0029029700999991922081820004+60100+019950FM-12+001499999V0202301N003119999999N0000001N9+01441+99999100781ADDGF106991999999999999999999
0046029700999991922081906004+60100+019950FM-12+001499999V0209991C000019999999N0000001N9+01281+99999100661ADDAJ100009199999999GF105991999999999999999999
0029029700999991922081913004+60100+019950FM-12+001499999V0202501N004119999999N0000001N9+01671+99999100681ADDGF101991999999999999999999
0029029700999991922081920004+60100+019950FM-12+001499999V0209991C000019999999N0000001N9+01061+99999100641ADDGF101991999999999999999999
0046029700999991922082006004+60100+019950FM-12+001499999V0209991C000019999999N0000001N9+01221+99999100641ADDAJ100009199999999GF101991999999999999999999
0029029700999991922082013004+60100+019950FM-12+001499999V0209991C000019999999N0000001N9+01781+99999100761ADDGF104991999999999999999999
0029029700999991922082020004+60100+019950FM-12+001499999V0209991C000019999999N0000001N9+01001+99999100861ADDGF100991999999999999999999
0046029700999991922082106004+60100+019950FM-12+001499999V0203201N001019999999N0000001N9+01391+99999100781ADDAJ100009199999999GF104991999999999999999999
0029029700999991922082113004+60100+019950FM-12+001499999V0203201N004119999999N0000001N9+01561+99999100941ADDGF107991999999999999999999
0029029700999991922082120004+60100+019950FM-12+001499999V0209991C000019999999N0000001N9+01331+99999101081ADDGF107991999999999999999999
0046029700999991922082206004+60100+019950FM-12+001499999V0209991C000019999999N0000001N9+01281+99999101221ADDAJ100009199999999GF107991999999999999999999
0029029700999991922082213004+60100+019950FM-12+001499999V0201801N003119999999N0000001N9+01721+99999101281ADDGF103991999999999999999999
0029029700999991922082220004+60100+019950FM-12+001499999V0201801N001019999999N0000001N9+01441+99999101201ADDGF101991999999999999999999
0046029700999991922082306004+60100+019950FM-12+001499999V0201601N005119999999N0000001N9+01501+99999100741ADDAJ100009199999999GF108991999999999999999999
0035029700999991922082313004+60100+019950FM-12+001499999V0201401N005119999999N0000001N9+01501+99999100221ADDGF108991999999999999999999MW1621
0029029700999991922082320004+60100+019950FM-12+001499999V0201401N004119999999N0000001N9+01611+99999099791ADDGF108991999999999999999999
0046029700999991922082406004+60100+019950FM-12+001499999V0201601N004119999999N0000001N9+01611+99999099461ADDAJ100009199999999GF108991999999999999999999
0035029700999991922082413004+60100+019950FM-12+001499999V0201801N001019999999N0000001N9+01441+99999099461ADDGF108991999999999999999999MW1621
0029029700999991922082420004+60100+019950FM-12+001499999V0201601N005119999999N0000001N9+01391+99999099641ADDGF108991999999999999999999
0046029700999991922082506004+60100+019950FM-12+001499999V0202001N004119999999N0000001N9+01501+99999099801ADDAJ100009199999999GF105991999999999999999999
0029029700999991922082513004+60100+019950FM-12+001499999V0202001N004119999999N0000001N9+01611+99999100261ADDGF101991999999999999999999
0029029700999991922082520004+60100+019950FM-12+001499999V0202001N003119999999N0000001N9+01331+99999100541ADDGF104991999999999999999999
0046029700999991922082606004+60100+019950FM-12+001499999V0201401N002119999999N0000001N9+01391+99999100551ADDAJ100009199999999GF108991999999999999999999
0029029700999991922082613004+60100+019950FM-12+001499999V0201401N003119999999N0000001N9+01671+99999100631ADDGF107991999999999999999999
0029029700999991922082620004+60100+019950FM-12+001499999V0201601N002119999999N0000001N9+01441+99999100641ADDGF107991999999999999999999
0046029700999991922082706004+60100+019950FM-12+001499999V0202501N003119999999N0000001N9+01391+99999101061ADDAJ100009199999999GF107991999999999999999999
0029029700999991922082713004+60100+019950FM-12+001499999V0202301N005119999999N0000001N9+01671+99999101441ADDGF100991999999999999999999
0029029700999991922082720004+60100+019950FM-12+001499999V0202301N002119999999N0000001N9+01331+99999101631ADDGF100991999999999999999999
0046029700999991922082806004+60100+019950FM-12+001499999V0202301N001019999999N0000001N9+01391+99999101801ADDAJ100009199999999GF101991999999999999999999
0029029700999991922082813004+60100+019950FM-12+001499999V0202001N003119999999N0000001N9+01611+99999101901ADDGF105991999999999999999999
0029029700999991922082820004+60100+019950FM-12+001499999V0202301N004119999999N0000001N9+01441+99999101871ADDGF102991999999999999999999
0046029700999991922082906004+60100+019950FM-12+001499999V0202301N005119999999N0000001N9+01391+99999101791ADDAJ100009199999999GF106991999999999999999999
0029029700999991922082913004+60100+019950FM-12+001499999V0202001N004119999999N0000001N9+01611+99999101781ADDGF108991999999999999999999
0029029700999991922082920004+60100+019950FM-12+001499999V0202001N003119999999N0000001N9+01501+99999101621ADDGF108991999999999999999999
0046029700999991922083006004+60100+019950FM-12+001499999V0202001N001019999999N0000001N9+01501+99999101501ADDAJ100009199999999GF104991999999999999999999
0029029700999991922083013004+60100+019950FM-12+001499999V0202301N001019999999N0000001N9+01941+99999101621ADDGF100991999999999999999999
