0072038040999991927010106004+49933-006300FM-12+005099999V0209991C00001220001CN0200001N9+00721+99999102951ADDAY181999GF104991041011012501001001EQDQ01+000032APCTENQ02+000002APC3  
0057038040999991927010306004+49933-006300FM-12+005099999V0202301N01231012301CN0100001N9+00891+99999101361ADDAY161999GF108991081061012501999999MD1810261+9999MW1631
0051038040999991927010406004+49933-006300FM-12+005099999V0203201N01231220001CN0200001N9+00781+99999101771ADDAY101999GF104991041011012501001001MD1310141+9999
0057038040999991927010506004+49933-006300FM-12+005099999V0202501N01541002401CN0010001N9+00721+99999102201ADDAY161999GF108991081051002501999999MD1810261+9999MW1511
0068038040999991927010606004+49933-006300FM-12+005099999V0202701N01541004501CN0002001N9+01111+99999101711ADDAA199000591AY161999GF108991081051004501999999MD1810201+9999MW1551
0051038040999991927010706004+49933-006300FM-12+005099999V0202901N01231220001CN0200001N9+00721+99999101261ADDAY181999GF102991021011012501001001MD1510061+9999
0068038040999991927010806004+49933-006300FM-12+005099999V0203201N00931012301CN0040001N9+01001+99999102611ADDAA199000591AY161999GF108991081061012501999999MD1310201+9999MW1631
0051038040999991927010906004+49933-006300FM-12+005099999V0203201N01231220001CN0100001N9+00891+99999103391ADDAY111999GF104991041011012501001001MD1310141+9999
0051038040999991927011006004+49933-006300FM-12+005099999V0203201N00671220001CN0020001N9+00781+99999103871ADDAY161999GF104991041051012501001001MD1810141+9999
0057038040999991927011106004+49933-006300FM-12+005099999V0202301N00931001501CN0002001N9+00781+99999103191ADDAY161999GF108991081051001501999999MD1810201+9999MW1451
0068038040999991927011206004+49933-006300FM-12+005099999V0202301N00461002401CN0005001N9+00891+99999102271ADDAA199000591AY141999GF108991081051002501999999MD1810261+9999MW1451
0057038040999991927011306004+49933-006300FM-12+005099999V0202901N01901220001CN0200001N9+00221+99999100231ADDAY181999GF104991041091012501001001MD1610141+9999MW1901
0051038040999991927011406004+49933-006300FM-12+005099999V0202901N01231012301CN0100001N9+00721+99999099571ADDAY181999GF107991071051012501001001MD1810261+9999
0051038040999991927011506004+49933-006300FM-12+005099999V0202901N01541220001CN0200001N9+00721+99999099131ADDAY181999GF104991041091012501001001MD1990061+9999
0051038040999991927011606004+49933-006300FM-12+005099999V0202901N01231220001CN0200001N9+00721+99999100171ADDAY181999GF104991041091012501001001MD1310061+9999
0089038040999991927011706004+49933-006300FM-12+005099999V0203401N00671220001CN0200001N9+00281+99999100211ADDAA199004091AY181999GF104991041091012501001001MW1891EQDQ01+000032APCTENQ02+000002APC3  
0087038040999991927011806004+49933-006300FM-12+005099999V0200201N01541220001CN0100001N9+00611+99999100501ADDAA199002091AY181999GF104991999091012501001001MD1310341+9999MW1161EQDQ01+000022SCOTLC
0087038040999991927012006004+49933-006300FM-12+005099999V0201801N01231012301CN0200001N9+00611+99999101041ADDAA199001091AY161999GF108991081061012501999999MD1810542+9999MW1631EQDQ01+000542APC3  
0062038040999991927012106004+49933-006300FM-12+005099999V0203201N01231220001CN0200001N9+00611+99999101031ADDAA199001091AY181999GF104991041011012501001001MD1310061+9999
0062038040999991927012206004+49933-006300FM-12+005099999V0202301N01541220001CN0200001N9+00781+99999100931ADDAA199000691AY101999GF102991021011012501001001MD1810141+9999
0072038040999991927012306004+49933-006300FM-12+005099999V0202901N00461220001CN0200001N9+00721+99999100741ADDAY101999GF102991001001999999001021EQDQ01+000032APCTENQ02+000002APC3  
0051038040999991927012406004+49933-006300FM-12+005099999V0201801N01231012301CN0200001N9+00781+99999100901ADDAY101999GF107991071051012501001001MD1810201+9999
0068038040999991927012506004+49933-006300FM-12+005099999V0202301N00671007801CN0100001N9+00891+99999100481ADDAA199022091AY161999GF108991081061008001999999MD1310061+9999MW1631
0087038040999991927012606004+49933-006300FM-12+005099999V0201801N01901007801CN0040001N9+01001+99999100071ADDAA199001091AY181999GF107991071051008001001001MD1814382+9999MW1621EQDQ01+004382APC3  
0089038040999991927012706004+49933-006300FM-12+005099999V0202501N01541220001CN0100001N9+00891+99999101371ADDAA199004091AY181999GF102991021011012501001001MW1171EQDQ01+000032APCTENQ02+000002APC3  
0051038040999991927012806004+49933-006300FM-12+005099999V0202001N01901012301CN0100001N9+00891+99999101301ADDAY101999GF106991061051012501001001MD1810461+9999
0083038040999991927012906004+49933-006300FM-12+005099999V0202701N01541220001CN0200001N9+00721+99999099541ADDAA199017091AY161999GF104991041091012501001001EQDQ01+000042APCTENQ02+000602APC3  
0087038040999991927013006004+49933-006300FM-12+005099999V0202301N01231220001CN0100001N9+00721+99999999999ADDAA199064091AY181999GF104991999011012501001001MD1810341+9999MW1621EQDQ01+000022SCOTLC
0068038040999991927013106004+49933-006300FM-12+005099999V0202901N00931220001CN0200001N9+00611+99999099911ADDAA199001091AY181999GF104991041091012501001001MD1310141+9999MW1811
0062038040999991927020106004+49933-006300FM-12+005099999V0202701N00671220001CN0200001N9+00611+99999100631ADDAA199003091AY181999GF104991041091012501001001MD1310061+9999
0062038040999991927020206004+49933-006300FM-12+005099999V0203601N00931220001CN0100001N9+00611+99999101431ADDAA199003091AY161999GF104991041091012501001001MD1310341+9999
0072038040999991927020306004+49933-006300FM-12+005099999V0202301N00931012301CN0100001N9+00781+99999102571ADDAY101999GF106991061051012501001001EQDQ01+000032APCTENQ02+000002APC3  
0062038040999991927020406004+49933-006300FM-12+005099999V0202901N00261220001CN0100001N9+00781+99999103061ADDAA199001091AY161999GF102991021011012501001001MD1310141+9999
0062038040999991927020506004+49933-006300FM-12+005099999V0202301N00671012301CN0100001N9+00781+99999103031ADDAA199000591AY111999GF106991061051012501001001MD1810141+9999
0051038040999991927020606004+49933-006300FM-12+005099999V0203601N00671220001CN0200001N9+00721+99999103321ADDAY101999GF100991001001999999001001MD1110061+9999
0051038040999991927020706004+49933-006300FM-12+005099999V0200201N00461220001CN0100001N9+00611+99999103641ADDAY101999GF102991021011012501001001MD1810141+9999
0062038040999991927020806004+49933-006300FM-12+005099999V0200901N00931012301CN0100001N9+00721+99999102731ADDAA199000591AY161999GF106991061051012501001001MD1810061+9999
0037038040999991927020906004+49933-006300FM-12+005099999V0200701N009319999999N0100001N9+00221+99999102951ADDAY111999GF106991999999012501999999
0062038040999991927021006004+49933-006300FM-12+005099999V0201601N00671012301CN0100001N9+00281+99999103011ADDAA199000691AY111999GF106991061051012501001001MD1310061+9999
0037038040999991927021106004+49933-006300FM-12+005099999V0201601N004619999999N0100001N9+00391+99999102931ADDAY101999GF106991999999012501999999
0051038040999991927021206004+49933-006300FM-12+005099999V0201401N00931220001CN0100001N9+00611+99999102471ADDAY101999GF100991001001999999001001MD1990061+9999
0051038040999991927021306004+49933-006300FM-12+005099999V0201801N00671220001CN0040001N9+00781+99999102431ADDAY101999GF104991041051012501001001MD1310061+9999
0062038040999991927021406004+49933-006300FM-12+005099999V0201801N00671220001CN0100001N9+00781+99999103131ADDAA199000691AY101999GF104991041011012501001001MD1310061+9999
0083038040999991927021506004+49933-006300FM-12+005099999V0202301N00261220001CN0040001N9+00721+99999103431ADDAA199001091AY141999GF101991001001999999001021EQDQ01+000032APCTENQ02+000002APC3  
0057038040999991927021606004+49933-006300FM-12+005099999V0201601N00461004501CN0005001N9+00501+99999103131ADDAY141999GF108991081051004501999999MD1810061+9999MW1451
0051038040999991927021706004+49933-006300FM-12+005099999V0203201N00261012301CN0200001N9+00721+99999103071ADDAY111999GF108991081051012501999999MD1410001+9999
0068038040999991927021806004+49933-006300FM-12+005099999V0203601N00261012301CN0100001N9+00891+99999102701ADDAA199001091AY161999GF108991081051012501999999MD1610061+9999MW1211
0051038040999991927021906004+49933-006300FM-12+005099999V0201401N00261012301CN0100001N9+00721+99999102691ADDAY111999GF108991081051012501999999MD1810061+9999
0057038040999991927022006004+49933-006300FM-12+005099999V0202701N00671001501CN0002001N9+00891+99999100611ADDAY161999GF108991081051001501999999MD1810141+9999MW1451
0051038040999991927022106004+49933-006300FM-12+005099999V0202301N00671012301CN0200001N9+00781+99999100741ADDAY111999GF108991081051012501999999MD1810261+9999
0048038040999991927022206004+49933-006300FM-12+005099999V0202001N012319999999N0100001N9+00891+99999098531ADDAA199002091AY181999GF106991999999012501999999
0087038040999991927022306004+49933-006300FM-12+005099999V0202301N00931220001CN0100001N9+00501+99999098561ADDAA199003091AY181999GF104991999011012501001001MD1110341+9999MW1161EQDQ01+000022SCOTLC
0062038040999991927022406004+49933-006300FM-12+005099999V0203201N00461220001CN0500001N9+00501+99999099261ADDAA199000691AY101999GF104991041011012501001001MD1310141+9999
0068038040999991927022506004+49933-006300FM-12+005099999V0202501N00931012301CN0040001N9+00781+99999099191ADDAA199005091AY161999GF108991081061012501999999MD1810141+9999MW1631
0051038040999991927022606004+49933-006300FM-12+005099999V0202001N00931220001CN0100001N9+00891+99999099871ADDAY101999GF104991041011012501001001MD1810061+9999
0076038040999991927022706004+49933-006300FM-12+005099999V0202701N01901220001CN0040001N9+00891+99999099231ADDAY181999GF104991041051012501001001MD1310662+9999MW1161EQDQ01+000662APC3  
0048038040999991927022806004+49933-006300FM-12+005099999V0201801N019019999999N0040001N9+00891+99999098301ADDAA199002091AY181999GF106991999999012501999999
0057038040999991927060106004+49933-006300FM-12+005099999V0202701N00101000601CN0000501N9+01111+99999100671ADDAY141999GF108991081051000751999999MD1310061+9999MW1461
0072038040999991927060206004+49933-006300FM-12+005099999V0203201N00461012301CN0200001N9+01221+99999101301ADDAY101999GF106991061051012501001001EQDQ01+000042APCTENQ02+000142APC3  
0051038040999991927060306004+49933-006300FM-12+005099999V0203201N00671220001CN0200001N9+01221+99999102231ADDAY101999GF102991021011012501001001MD1310201+9999
0051038040999991927060406004+49933-006300FM-12+005099999V0202901N00461036001CN0500001N9+01111+99999102271ADDAY101999GF106991041011012501031001MD1310061+9999
0051038040999991927060606004+49933-006300FM-12+005099999V0202901N01231220001CN0100001N9+01221+99999101901ADDAY101999GF104991041051012501001001MD1310061+9999
0051038040999991927060806004+49933-006300FM-12+005099999V0202701N00461220001CN0500001N9+01221+99999101661ADDAY101999GF102991021011012501001001MD1310201+9999
0051038040999991927060906004+49933-006300FM-12+005099999V0202901N00261220001CN0500001N9+01221+99999102171ADDAY101999GF104991011011012501031001MD1310061+9999
0051038040999991927061906004+49933-006300FM-12+005099999V0202501N01231036001CN0100001N9+01281+99999100171ADDAY101999GF108991041011012501031001MD1310201+9999
0068038040999991927062106004+49933-006300FM-12+005099999V0202701N00671007801CN0040001N9+01221+99999102041ADDAA199005091AY161999GF108991081051008001999999MD1310061+9999MW1501
0051038040999991927062206004+49933-006300FM-12+005099999V0203201N00461220001CN0100001N9+01281+99999102661ADDAY101999GF104991041011012501001001MD1310061+9999
0062038040999991927062306004+49933-006300FM-12+005099999V0209999901231220001CN0200001N9+01281+99999102271ADDAA199000591AY101999GF104991021011012501031001MD1310061+9999
0062038040999991927062406004+49933-006300FM-12+005099999V0202501N01541012301CN0100001N9+01281+99999101411ADDAA199000691AY111999GF108991081051012501999999MD1810201+9999
0051038040999991927062506004+49933-006300FM-12+005099999V0202901N00671220001CN0200001N9+01281+99999101931ADDAY101999GF104991021011012501001021MD1310061+9999
0088038040999991927062606004+49933-006300FM-12+005099999V0203201N01541220001CN0200001N9+01221+99999100841ADDAY161999GF104991999011012501001001EQDQ01+000062SCOTLCQ02+000032APCTENQ03+000002APC3  
0062038040999991927062706004+49933-006300FM-12+005099999V0202901N01231012301CN0200001N9+01221+99999101321ADDAA199001091AY101999GF107991071051012501001001MD1310141+9999
0051038040999991927062806004+49933-006300FM-12+005099999V0202901N00461012301CN0500001N9+01111+99999101461ADDAY101999GF108991081051012501999999MD1310061+9999
0068038040999991927062906004+49933-006300FM-12+005099999V0202701N00671007801CN0040001N9+01221+99999100781ADDAA199001091AY161999GF108991081051008001999999MD1810201+9999MW1501
0072038040999991927070106004+49933-006300FM-12+005099999V0202701N00931012301CN0200001N9+01281+99999100111ADDAY101999GF106991061051012501001001EQDQ01+000032APCTENQ02+000002APC3  
0051038040999991927070206004+49933-006300FM-12+005099999V0202901N00931007801CN0020001N9+01281+99999100701ADDAY111999GF108991081051008001999999MD1310201+9999
0068038040999991927070506004+49933-006300FM-12+005099999V0209999900671220001CN0200001N9+01281+99999100131ADDAA199011091AY161999GF104991041051012501001001MD1310061+9999MW1211
0088038040999991927070906004+49933-006300FM-12+005099999V0203201N00671220001CN0100001N9+01501+99999101091ADDAY101999GF102991999001999999031001EQDQ01+000002SCOTLCQ02+000032APCTENQ03+000002APC3  
0051038040999991927071006004+49933-006300FM-12+005099999V0203401N00671012301CN0040001N9+01391+99999101401ADDAY101999GF108991081051012501999999MD1310141+9999
0051038040999991927071406004+49933-006300FM-12+005099999V0202901N00101012301CN0100001N9+01391+99999101941ADDAY111999GF108991081051012501999999MD1310141+9999
0051038040999991927071706004+49933-006300FM-12+005099999V0203401N00261007801CN0020001N9+01391+99999102131ADDAY111999GF108991081051008001999999MD1810061+9999
0062038040999991927072106004+49933-006300FM-12+005099999V0209999900671220001CN0100001N9+01501+99999101461ADDAA199002091AY141999GF104991021011012501001091MD1810201+9999
0083038040999991927072206004+49933-006300FM-12+005099999V0202901N00461012301CN0100001N9+01391+99999101091ADDAA199001091AY181999GF106991061051012501001001EQDQ01+000032APCTENQ02+000002APC3  
0048038040999991927072306004+49933-006300FM-12+005099999V0202701N009319999999N0200001N9+01391+99999101351ADDAA199000691AY181999GF106991999999012501999999
0070038040999991927072806004+49933-006300FM-12+005099999V02099999006719999999N0200001N9+99999+99999100551ADDAY181999GF106991999091012501001001MD1310061+9999EQDQ01+000042SCOTLC
0089038040999991927072906004+49933-006300FM-12+005099999V0209999900671000601CN0000501N9+01611+99999100611ADDAA199005091AY161999GF108991081051000751999999MW1451EQDQ01+000042APCTENQ02+000062APC3  
0070038040999991927073106004+49933-006300FM-12+005099999V02099999004619999999N0200001N9+01501+99999101401ADDAY181999GF107991999091012501001001MD1310061+9999EQDQ01+000042SCOTLC
0051038040999991927080106004+49933-006300FM-12+005099999V0202701N00261220001CN0200001N9+01391+99999101431ADDAY101999GF104991041011012501001001MD1610061+9999
0051038040999991927080806004+49933-006300FM-12+005099999V0202901N00261220001CN0200001N9+01391+99999102171ADDAY101999GF102991021011012501001001MD1310201+9999
0072038040999991927081106004+49933-006300FM-12+005099999V0209999900931012301CN0500001N9+01281+99999101151ADDAY181999GF106991061051012501001001EQDQ01+000032APCTENQ02+000002APC3  
0072038040999991927081206004+49933-006300FM-12+005099999V0209999901231220001CN0100001N9+01501+99999100921ADDAY111999GF104991041051012501031001EQDQ01+000032APCTENQ02+000002APC3  
0057038040999991927081306004+49933-006300FM-12+005099999V0209999900671001501CN0005001N9+01611+99999100921ADDAY161999GF108991081051001501999999MD1610061+9999MW1451
0051038040999991927081406004+49933-006300FM-12+005099999V0209999900931012301CN0100001N9+01501+99999100711ADDAY111999GF107991071051012501001001MD1810061+9999
0076038040999991927081506004+49933-006300FM-12+005099999V0202701N012319999999N0100001N9+01281+99999100921ADDAY161999GF106991999091012501001001MD1310061+9999MW1811EQDQ01+000022SCOTLC
0051038040999991927081606004+49933-006300FM-12+005099999V0209999900261220001CN0200001N9+01391+99999101261ADDAY181999GF104991021091012501031001MD1310061+9999
0051038040999991927081906004+49933-006300FM-12+005099999V0203201N00931220001CN0100001N9+01391+99999101331ADDAY101999GF102991021011012501001001MD1310401+9999
0057038040999991927082006004+49933-006300FM-12+005099999V0209999901231007801CN0040001N9+01501+99999100831ADDAY161999GF108991081061008001999999MD1810341+9999MW1651
0068038040999991927082106004+49933-006300FM-12+005099999V0209999900931012301CN0100001N9+01501+99999100131ADDAA199001091AY181999GF106991061011012501001001MD1810061+9999MW1161
0057038040999991927082206004+49933-006300FM-12+005099999V0209999901231220001CN0040001N9+01391+99999099791ADDAY181999GF104991041091012501001001MD1310141+9999MW1161
0051038040999991927082306004+49933-006300FM-12+005099999V0202701N00461220001CN0100001N9+01391+99999101011ADDAY101999GF104991041011012501001001MD1310141+9999
0037038040999991927082406004+49933-006300FM-12+005099999V0202701N006719999999N0500001N9+01281+99999101511ADDAY101999GF106991999999012501999999
0051038040999991927082506004+49933-006300FM-12+005099999V0203401N01231220001CN0200001N9+01281+99999101991ADDAY181999GF104991041011012501001001MD1310201+9999
0051038040999991927082606004+49933-006300FM-12+005099999V0202701N00461004501CN0040001N9+01391+99999102781ADDAY161999GF108991061061004501001081MD1810201+9999
0051038040999991927082706004+49933-006300FM-12+005099999V0209999900931090001CN0100001N9+01391+99999102081ADDAY101999GF106991021011012501001021MD1810201+9999
0051038040999991927082906004+49933-006300FM-12+005099999V0203401N00261220001CN0200001N9+01281+99999101771ADDAY161999GF104991021051012501001091MD1310141+9999
0051038040999991927090106004+49933-006300FM-12+005099999V0202001N00461220001CN0100001N9+01501+99999102031ADDAY101999GF104991041051012501031001MD1610061+9999
0051038040999991927090206004+49933-006300FM-12+005099999V0203401N00261220001CN0200001N9+01281+99999102371ADDAY101999GF101991011051012501001001MD1310061+9999
0051038040999991927090306004+49933-006300FM-12+005099999V0209999900461220001CN0200001N9+01281+99999102351ADDAY101999GF101991011051012501001001MD1410001+9999
0051038040999991927090406004+49933-006300FM-12+005099999V0209999900261012301CN0200001N9+01501+99999101891ADDAY111999GF107991071051012501001001MD1610061+9999
0070038040999991927090506004+49933-006300FM-12+005099999V0209991C00001090001CN0040001N9+01391+99999101461ADDAY101999GF107991041051012501001081MD1810061+9999EQDQ01+009992WODIR 
0051038040999991927090606004+49933-006300FM-12+005099999V0209999900101012301CN0040001N9+01391+99999101231ADDAY111999GF108991081051012501999999MD1810061+9999
0070038040999991927090706004+49933-006300FM-12+005099999V0202901N00461220001CN0200001N9+01281+99999102061ADDAY101999GF104991999091012501001001MD1310201+9999EQDQ01+000022SCOTLC
0057038040999991927090806004+49933-006300FM-12+005099999V0202301N00671007801CN0040001N9+01611+99999101721ADDAY161999GF108991081051008001999999MD1810141+9999MW1631
0088038040999991927090906004+49933-006300FM-12+005099999V0202501N006719999999N0200001N9+01281+99999101411ADDAY181999GF107991999091012501001001EQDQ01+000022SCOTLCQ02+000032APCTENQ03+000002APC3  
0051038040999991927091006004+49933-006300FM-12+005099999V0202501N00671220001CN0200001N9+01281+99999101001ADDAY161999GF104991041091012501001081MD1110061+9999
0070038040999991927091106004+49933-006300FM-12+005099999V0203401N01231220001CN0100001N9+01281+99999101131ADDAY101999GF104991999091012501001001MD1310341+9999EQDQ01+000022SCOTLC
0051038040999991927091206004+49933-006300FM-12+005099999V0203401N00671012301CN0500001N9+01281+99999102161ADDAY101999GF106991061051012501001001MD1310141+9999
0068038040999991927091306004+49933-006300FM-12+005099999V0202301N00931036001CN0100001N9+01281+99999101801ADDAA199000691AY161999GF108991041051012501021001MD1810261+9999MW1211
0068038040999991927091406004+49933-006300FM-12+005099999V0202001N00101036001CN0100001N9+01221+99999101131ADDAA199002091AY161999GF108991041061012501021001MD1810201+9999MW1621
0048038040999991927091506004+49933-006300FM-12+005099999V0203401N015419999999N0100001N9+01721+99999100031ADDAA199004091AY181999GF106991999999012501999999
0051038040999991927091606004+49933-006300FM-12+005099999V0203401N01231220001CN0100001N9+01221+99999100831ADDAY111999GF104991041011012501001001MD1110141+9999
0048038040999991927091706004+49933-006300FM-12+005099999V0203401N009319999999N0100001N9+01281+99999100421ADDAA199001091AY161999GF106991999999012501999999
0057038040999991927091806004+49933-006300FM-12+005099999V0202701N00931004501CN0020001N9+01391+99999100731ADDAY161999GF108991081051004501999999MD1810141+9999MW1611
0062038040999991927092006004+49933-006300FM-12+005099999V0202301N00461012301CN0200001N9+01281+99999101281ADDAA199000691AY101999GF108991081051012501999999MD1810061+9999
0062038040999991927092106004+49933-006300FM-12+005099999V0202001N01231007801CN0100001N9+01611+99999100631ADDAA199000691AY181999GF108991081051008001999999MD1810141+9999
0068038040999991927092206004+49933-006300FM-12+005099999V0202701N00671012301CN0100001N9+01281+99999099931ADDAA199027091AY161999GF108991081061012501999999MD1810061+9999MW1631
0083038040999991927092406004+49933-006300FM-12+005099999V0203201N00461220001CN0500001N9+01001+99999099171ADDAA199001091AY101999GF102991021011012501001001EQDQ01+000042APCTENQ02+000062APC3  
0078038040999991927092506004+49933-006300FM-12+005099999V0202901N01231220001CN0200001N9+01221+99999099311ADDAY181999GF104991041091012501001001MW1811EQDQ01+000032APCTENQ02+000002APC3  
0081038040999991927092606004+49933-006300FM-12+005099999V0202901N00931220001CN0200001N9+00891+99999100591ADDAA199001091AY181999GF104991999091012501001001MD1310061+9999EQDQ01+000022SCOTLC
0081038040999991927092706004+49933-006300FM-12+005099999V0203401N00931220001CN0200001N9+01111+99999101531ADDAA199002091AY101999GF104991999091012501001001MD1310401+9999EQDQ01+000022SCOTLC
0051038040999991927092806004+49933-006300FM-12+005099999V0202501N00671090001CN0500001N9+01111+99999102391ADDAY101999GF106991021011012501001081MD1310061+9999
0087038040999991927092906004+49933-006300FM-12+005099999V0202001N01901007801CN0040001N9+01281+99999100671ADDAA199009091AY161999GF108991081061008001999999MD1810542+9999MW1631EQDQ01+000542APC3  
0051038040999991927093006004+49933-006300FM-12+005099999V0202901N00931220001CN0200001N9+01221+99999101801ADDAY101999GF104991041011012501001001MD1310141+9999
0068038040999991927100106004+49933-006300FM-12+005099999V0202301N01541007801CN0020001N9+01281+99999101171ADDAA199001091AY161999GF108991081051008001999999MD1810401+9999MW1611
0051038040999991927100206004+49933-006300FM-12+005099999V0202301N01541012301CN0100001N9+01391+99999101171ADDAY161999GF108991081051012501999999MD1990141+9999
0051038040999991927100306004+49933-006300FM-12+005099999V0209999900671220001CN0200001N9+01001+99999102441ADDAY101999GF104991021051012501001021MD1310141+9999
0072038040999991927100406004+49933-006300FM-12+005099999V0209999900671012301CN0100001N9+01281+99999102421ADDAY111999GF108991081051012501999999EQDQ01+000032APCTENQ02+000002APC3  
0051038040999991927100506004+49933-006300FM-12+005099999V0209999900671220001CN0040001N9+01221+99999102831ADDAY101999GF100991001001999999001001MD1310061+9999
0072038040999991927100606004+49933-006300FM-12+005099999V0209999900671220001CN0040001N9+01221+99999103131ADDAY101999GF104991041051012501001001EQDQ01+000042APCTENQ02+000062APC3  
0051038040999991927100706004+49933-006300FM-12+005099999V0209999900461220001CN0040001N9+01001+99999102841ADDAY101999GF100991001001999999999001MD1810061+9999
0072038040999991927100806004+49933-006300FM-12+005099999V0209999900671220001CN0020001N9+01281+99999102511ADDAY141999GF100991001001999999001001EQDQ01+000032APCTENQ02+000002APC3  
0072038040999991927100906004+49933-006300FM-12+005099999V0209999900931012301CN0020001N9+01281+99999102601ADDAY101999GF107991071051012501001001EQDQ01+000032APCTENQ02+000002APC3  
0072038040999991927101006004+49933-006300FM-12+005099999V0209999900671220001CN0040001N9+01111+99999102471ADDAY101999GF100991001001999999001001EQDQ01+000032APCTENQ02+000002APC3  
0051038040999991927101106004+49933-006300FM-12+005099999V0209999900671220001CN0040001N9+01281+99999102501ADDAY141999GF101991011011012501001001MD1310061+9999
0072038040999991927101206004+49933-006300FM-12+005099999V0209999900671220001CN0040001N9+01001+99999102791ADDAY101999GF104991041011012501001001EQDQ01+000032APCTENQ02+000002APC3  
0051038040999991927101306004+49933-006300FM-12+005099999V0209999900671012301CN0040001N9+01111+99999102471ADDAY111999GF108991081051012501999999MD1810141+9999
0051038040999991927101406004+49933-006300FM-12+005099999V0209999900931036001CN0100001N9+01221+99999101491ADDAY111999GF106991021051012501031001MD1810141+9999
0051038040999991927101506004+49933-006300FM-12+005099999V0209999900671012301CN0100001N9+01111+99999101801ADDAY101999GF106991061051012501001001MD1310141+9999
0051038040999991927101706004+49933-006300FM-12+005099999V0203201N00931012301CN0100001N9+01221+99999101701ADDAY111999GF107991071051012501001001MD1210061+9999
0072038040999991927101806004+49933-006300FM-12+005099999V0202501N00931012301CN0200001N9+01111+99999101711ADDAY101999GF106991061051012501001001EQDQ01+000032APCTENQ02+000002APC3  
0083038040999991927101906004+49933-006300FM-12+005099999V0202701N00671220001CN0200001N9+01221+99999101351ADDAA199000391AY181999GF104991041051012501001001EQDQ01+000032APCTENQ02+000002APC3  
0070038040999991927102006004+49933-006300FM-12+005099999V02099999004619999999N0200001N9+00891+99999101681ADDAY181999GF106991999011012501001001MD1310061+9999EQDQ01+000022SCOTLC
0051038040999991927102106004+49933-006300FM-12+005099999V0202001N00671012301CN0100001N9+01221+99999101431ADDAY161999GF107991071051012501001001MD1810201+9999
0068038040999991927102206004+49933-006300FM-12+005099999V0202901N00261012301CN0100001N9+00891+99999099661ADDAA199010091AY161999GF108991081061012501999999MD1810201+9999MW1611
0076038040999991927102306004+49933-006300FM-12+005099999V0203401N015419999999N0100001N9+01111+99999100261ADDAY181999GF108991999091012501001001MD1310401+9999MW1801EQDQ01+000042SCOTLC
0062038040999991927102406004+49933-006300FM-12+005099999V0201601N00461012301CN0100001N9+01221+99999101191ADDAA199000691AY111999GF108991081051012501999999MD1310061+9999
0089038040999991927102506004+49933-006300FM-12+005099999V0202301N01231007801CN0020001N9+01391+99999101321ADDAA199000691AY161999GF108991081051008001999999MW1511EQDQ01+000032APCTENQ02+000002APC3  
0068038040999991927102706004+49933-006300FM-12+005099999V0202001N00671004501CN0100001N9+01111+99999097971ADDAA199011091AY161999GF108991081061004501999999MD1810401+9999MW1651
0068038040999991927102806004+49933-006300FM-12+005099999V0202001N01541001501CN0000501N9+01391+99999100771ADDAA199001091AY161999GF108991081051001501999999MD1610061+9999MW1451
0051038040999991927102906004+49933-006300FM-12+005099999V0202301N00671220001CN0040001N9+01221+99999101721ADDAY101999GF102991021011012501001001MD1310141+9999
0062038040999991927103006004+49933-006300FM-12+005099999V0201801N01231012301CN0100001N9+01281+99999100711ADDAA199009091AY161999GF108991081051012501999999MD1610141+9999
0062038040999991927103106004+49933-006300FM-12+005099999V0203201N00671220001CN0200001N9+01111+99999101001ADDAA199010091AY161999GF102991021051012501001001MD1310341+9999
0037038040999991927110106004+49933-006300FM-12+005099999V0202301N012319999999N0200001N9+01221+99999102031ADDAY101999GF106991999999012501999999
0068038040999991927110206004+49933-006300FM-12+005099999V0202501N01231001501CN0000501N9+01391+99999102341ADDAA199001091AY161999GF108991081051001501999999MD1610201+9999MW1451
0083038040999991927110306004+49933-006300FM-12+005099999V0202501N01231012301CN0100001N9+01281+99999102231ADDAA199000691AY111999GF108991081051012501999999EQDQ01+000032APCTENQ02+000002APC3  
0083038040999991927110406004+49933-006300FM-12+005099999V0202901N00671012301CN0100001N9+01221+99999102341ADDAA199000391AY141999GF108991081051012501999999EQDQ01+000032APCTENQ02+000002APC3  
0081038040999991927110506004+49933-006300FM-12+005099999V0203201N00931220001CN0200001N9+01001+99999102261ADDAA199000691AY101999GF104991999091012501001001MD1810061+9999EQDQ01+000022SCOTLC
0048038040999991927110606004+49933-006300FM-12+005099999V0203201N012319999999N0100001N9+00781+99999099891ADDAA199004091AY181999GF106991999999012501999999
0062038040999991927110706004+49933-006300FM-12+005099999V0203401N00931220001CN0500001N9+00611+99999099391ADDAA199002091AY181999GF104991041011012501001001MD1110061+9999
0083038040999991927110806004+49933-006300FM-12+005099999V0209999900931220001CN0200001N9+00721+99999100101ADDAA199000691AY101999GF104991041011012501001001EQDQ01+000032APCTENQ02+000002APC3  
0099038040999991927110906004+49933-006300FM-12+005099999V02099999019019999999N0100001N9+00781+99999099861ADDAA199000691AY181999GF107991999091012501001001EQDQ01+000042SCOTLCQ02+000032APCTENQ03+000002APC3  
0081038040999991927111006004+49933-006300FM-12+005099999V0203401N015419999999N0100001N9+00721+99999100731ADDAA199001091AY181999GF106991999091012501001001MD1310141+9999EQDQ01+000022SCOTLC
0083038040999991927111106004+49933-006300FM-12+005099999V0203401N01541012301CN0500001N9+00721+99999101231ADDAA199000691AY101999GF107991071051012501001001EQDQ01+000042APCTENQ02+000142APC3  
0089038040999991927111206004+49933-006300FM-12+005099999V0203401N01231220001CN0200001N9+00781+99999101601ADDAA199000391AY181999GF104991041091012501001001MW1801EQDQ01+000032APCTENQ02+000002APC3  
0051038040999991927111306004+49933-006300FM-12+005099999V0209999900261220001CN0200001N9+00501+99999102831ADDAY101999GF104991041011012501001001MD1310061+9999
0072038040999991927111406004+49933-006300FM-12+005099999V0203401N00671012301CN0200001N9+00721+99999102771ADDAY101999GF106991061051012501001001EQDQ01+000032APCTENQ02+000002APC3  
0072038040999991927111606004+49933-006300FM-12+005099999V0202001N00671220001CN0200001N9+01001+99999102201ADDAY111999GF104991041051012501001001EQDQ01+000032APCTENQ02+000002APC3  
0062038040999991927111706004+49933-006300FM-12+005099999V0201601N01541012301CN0100001N9+01111+99999101071ADDAA199000691AY181999GF108991081051012501999999MD1810341+9999
0086038040999991927111906004+49933-006300FM-12+005099999V0209999900671220001CN0500001N9+00891+99999999999ADDAY101999GF104991999051012501001001MD1610141+9999EQDQ01+000022SCOTLCQ02+000001APOSP 
0089038040999991927112106004+49933-006300FM-12+005099999V0209999900931012301CN0100001N9+00891+99999099261ADDAA199003091AY161999GF108991081061012501999999MW1211EQDQ01+000042APCTENQ02+000062APC3  
0051038040999991927112206004+49933-006300FM-12+005099999V0203401N00931012301CN0040001N9+01001+99999100871ADDAY111999GF108991081051012501999999MD1310201+9999
0083038040999991927112306004+49933-006300FM-12+005099999V0202301N00101012301CN0200001N9+00781+99999101241ADDAA199000691AY111999GF106991061051012501001001EQDQ01+000032APCTENQ02+000002APC3  
0062038040999991927112406004+49933-006300FM-12+005099999V0202901N00671012301CN0100001N9+01111+99999101201ADDAA199004091AY161999GF108991081051012501999999MD1310261+9999
0051038040999991927112506004+49933-006300FM-12+005099999V0202701N00461220001CN0200001N9+00891+99999102841ADDAY101999GF100991001001999999001001MD1310261+9999
0051038040999991927112606004+49933-006300FM-12+005099999V0202001N00671012301CN0200001N9+00891+99999103041ADDAY111999GF107991071051012501001001MD1810061+9999
0051038040999991927112706004+49933-006300FM-12+005099999V0202001N00461012301CN0200001N9+01001+99999102341ADDAY101999GF108991081051012501999999MD1810061+9999
0068038040999991927112806004+49933-006300FM-12+005099999V0202501N00461004501CN0010001N9+00891+99999102701ADDAA199000391AY161999GF108991081051004501999999MD1810061+9999MW1501
0062038040999991927112906004+49933-006300FM-12+005099999V0203401N01541220001CN0200001N9+00891+99999102701ADDAA199002091AY181999GF104991041011012501001001MD1310261+9999
0062038040999991927113006004+49933-006300FM-12+005099999V0209999901231012301CN0040001N9+00721+99999102781ADDAA199001091AY101999GF107991071051012501001001MD1810141+9999
0072038040999991927120106004+49933-006300FM-12+005099999V0200901N00461012301CN0100001N9+00781+99999102341ADDAY111999GF108991081051012501999999EQDQ01+000032APCTENQ02+000002APC3  
0051038040999991927120206004+49933-006300FM-12+005099999V0201101N00461012301CN0100001N9+00781+99999102111ADDAY111999GF108991081051012501999999MD1810061+9999
0051038040999991927120306004+49933-006300FM-12+005099999V0209991C00001012301CN0100001N9+00611+99999101801ADDAY111999GF107991071051012501001001MD1810201+9999
0051038040999991927120406004+49933-006300FM-12+005099999V0201101N01231012301CN0040001N9+00721+99999100481ADDAY181999GF108991081051012501999999MD1810141+9999
0051038040999991927120506004+49933-006300FM-12+005099999V0201401N01231012301CN0100001N9+00891+99999100071ADDAY111999GF108991081051012501999999MD1610201+9999
0083038040999991927120606004+49933-006300FM-12+005099999V0201801N00671007801CN0200001N9+00781+99999099221ADDAA199008091AY161999GF108991081051008001999999EQDQ01+000042APCTENQ02+000262APC3  
0051038040999991927120706004+49933-006300FM-12+005099999V0203401N00671220001CN0200001N9+00781+99999100901ADDAY101999GF101991011011012501001001MD1310201+9999
0051038040999991927120806004+49933-006300FM-12+005099999V0202301N00101220001CN0200001N9+00611+99999101431ADDAY101999GF101991011011012501001001MD1810061+9999
0099038040999991927120906004+49933-006300FM-12+005099999V0201801N00461220001CN0500001N9+00781+99999100901ADDAA199001091AY101999GF106991999001999999021001EQDQ01+000002SCOTLCQ02+000032APCTENQ03+000002APC3  
0083038040999991927121006004+49933-006300FM-12+005099999V0201601N01541012301CN0100001N9+01111+99999100841ADDAA199000391AY181999GF108991081051012501999999EQDQ01+000032APCTENQ02+000002APC3  
0051038040999991927121106004+49933-006300FM-12+005099999V0200901N01231012301CN0100001N9+00721+99999100611ADDAY111999GF108991081051012501999999MD1990141+9999
0062038040999991927121206004+49933-006300FM-12+005099999V0200901N01231012301CN0040001N9+00891+99999100231ADDAA199002091AY161999GF108991081051012501999999MD1310061+9999
0072038040999991927121306004+49933-006300FM-12+005099999V0200501N00671012301CN0100001N9+00501+99999101101ADDAY111999GF108991081051012501999999EQDQ01+000032APCTENQ02+000002APC3  
0083038040999991927121406004+49933-006300FM-12+005099999V0202501N00931036001CN0200001N9+01001+99999100161ADDAA199007091AY111999GF108991041051012501021001EQDQ01+000032APCTENQ02+000002APC3  
0062038040999991927121506004+49933-006300FM-12+005099999V0203601N00261036001CN0200001N9+00721+99999100921ADDAA199000591AY101999GF106991021011012501031001MD1310141+9999
0068038040999991927121606004+49933-006300FM-12+005099999V0200901N01231012301CN0040001N9+00721+99999101841ADDAA199001091AY161999GF108991081051012501999999MD1310141+9999MW1601
0072038040999991927121706004+49933-006300FM-12+005099999V0201101N01541012301CN0200001N9+00281+99999102501ADDAY111999GF106991061051012501001001EQDQ01+000032APCTENQ02+000002APC3  
0037038040999991927121906004+49933-006300FM-12+005099999V0200901N019019999999N0200001N9+00221+99999101321ADDAY111999GF106991999999012501999999
0062038040999991927122006004+49933-006300FM-12+005099999V0201401N01231012301CN0040001N9+00391+99999101711ADDAA199001091AY181999GF108991081051012501999999MD1810141+9999
0062038040999991927122106004+49933-006300FM-12+005099999V0202301N00931220001CN0100001N9+01001+99999099841ADDAA199005091AY181999GF102991021011012501001001MD1410001+9999
0062038040999991927122206004+49933-006300FM-12+005099999V0202001N01231220001CN0040001N9+01111+99999097331ADDAA199011091AY161999GF104991041051012501001001MD1810261+9999
0068038040999991927122306004+49933-006300FM-12+005099999V0202701N01901012301CN0100001N9+00891+99999098021ADDAA199015091AY161999GF108991081061012501999999MD1310461+9999MW1631
0051038040999991927122406004+49933-006300FM-12+005099999V0202501N00671220001CN0200001N9+00891+99999099151ADDAY101999GF104991041061012501001001MD1310061+9999
0068038040999991927122606004+49933-006300FM-12+005099999V0203601N02261007801CN0040001N9+00281+99999099841ADDAA199002091AY161999GF108991081061008001999999MD1310461+9999MW1601
0062038040999991927122706004+49933-006300FM-12+005099999V0200201N01901220001CN0200001N9+00391+99999101571ADDAA199000691AY101999GF104991041091012501001001MD1310201+9999
0051038040999991927122806004+49933-006300FM-12+005099999V0200501N01541220001CN0100001N9+00221+99999102841ADDAY101999GF101991011011012501001001MD1310061+9999
0051038040999991927122906004+49933-006300FM-12+005099999V0200501N01231012301CN0100001N9+00221+99999102111ADDAY111999GF108991081051012501999999MD1610141+9999
0062038040999991927123106004+49933-006300FM-12+005099999V0202001N00931220001CN0200001N9+00721+99999101701ADDAA199001091AY161999GF104991041011012501001001MD1810061+9999
