0029028970999991923010106004+64217+027767FM-12+014699999V0200901N004119999999N0000001N9-00331+99999098551ADDGF108991999999999999999999
0035028970999991923010113004+64217+027767FM-12+014699999V0200901N004119999999N0000001N9-00221+99999098041ADDGF108991999999999999999999MW1721
0035028970999991923010120004+64217+027767FM-12+014699999V0200901N003119999999N0000001N9-00111+99999097751ADDGF108991999999999999999999MW1721
0029028970999991923010206004+64217+027767FM-12+014699999V0200901N002119999999N0000001N9-00111+99999098271ADDGF108991999999999999999999
0035028970999991923010213004+64217+027767FM-12+014699999V0202701N002119999999N0000001N9-00221+99999098711ADDGF108991999999999999999999MW1721
0029028970999991923010220004+64217+027767FM-12+014699999V0209991C000019999999N0000001N9-00221+99999099141ADDGF108991999999999999999999
0029028970999991923010306004+64217+027767FM-12+014699999V0209991C000019999999N0000001N9-00111+99999099471ADDGF108991999999999999999999
0029028970999991923010313004+64217+027767FM-12+014699999V0202701N001019999999N0000001N9-00111+99999099431ADDGF108991999999999999999999
0029028970999991923010320004+64217+027767FM-12+014699999V0201401N004119999999N0000001N9+00001+99999099241ADDGF108991999999999999999999
0035028970999991923010406004+64217+027767FM-12+014699999V0201601N003119999999N0000001N9+00001+99999099381ADDGF108991999999999999999999MW1721
0035028970999991923010413004+64217+027767FM-12+014699999V0202001N003119999999N0000001N9-00061+99999099441ADDGF108991999999999999999999MW1721
0029028970999991923010420004+64217+027767FM-12+014699999V0202001N001019999999N0000001N9-00061+99999099471ADDGF108991999999999999999999
0029028970999991923010506004+64217+027767FM-12+014699999V0202301N001019999999N0000001N9+00061+99999099591ADDGF108991999999999999999999
0035028970999991923010513004+64217+027767FM-12+014699999V0202301N001019999999N0000001N9+00061+99999099761ADDGF108991999999999999999999MW1721
0029028970999991923010520004+64217+027767FM-12+014699999V0202301N001019999999N0000001N9+00061+99999100121ADDGF108991999999999999999999
0029028970999991923010606004+64217+027767FM-12+014699999V0202301N001019999999N0000001N9+00061+99999100311ADDGF108991999999999999999999
0029028970999991923010613004+64217+027767FM-12+014699999V0202301N001019999999N0000001N9-00061+99999100511ADDGF108991999999999999999999
0029028970999991923010620004+64217+027767FM-12+014699999V0209991C000019999999N0000001N9-00061+99999100551ADDGF108991999999999999999999
0029028970999991923010706004+64217+027767FM-12+014699999V0200501N001019999999N0000001N9-00061+99999100361ADDGF108991999999999999999999
0029028970999991923010713004+64217+027767FM-12+014699999V0202301N001019999999N0000001N9-00171+99999100261ADDGF108991999999999999999999
0029028970999991923010720004+64217+027767FM-12+014699999V0202301N001019999999N0000001N9-00391+99999100141ADDGF108991999999999999999999
0029028970999991923010806004+64217+027767FM-12+014699999V0202301N001019999999N0000001N9-00561+99999099741ADDGF108991999999999999999999
0029028970999991923010813004+64217+027767FM-12+014699999V0202001N001019999999N0000001N9-00561+99999099601ADDGF108991999999999999999999
0029028970999991923010820004+64217+027767FM-12+014699999V0200901N001019999999N0000001N9-00501+99999099101ADDGF108991999999999999999999
0035028970999991923010906004+64217+027767FM-12+014699999V0200901N007219999999N0000001N9-00171+99999098041ADDGF108991999999999999999999MW1721
0029028970999991923010913004+64217+027767FM-12+014699999V0201401N002119999999N0000001N9-00061+99999097921ADDGF108991999999999999999999
0029028970999991923010920004+64217+027767FM-12+014699999V0201401N003119999999N0000001N9+00061+99999097721ADDGF108991999999999999999999
0029028970999991923011006004+64217+027767FM-12+014699999V0201401N001019999999N0000001N9-00171+99999098361ADDGF108991999999999999999999
0029028970999991923011013004+64217+027767FM-12+014699999V0202001N002119999999N0000001N9+00001+99999098561ADDGF108991999999999999999999
0029028970999991923011020004+64217+027767FM-12+014699999V0202001N001019999999N0000001N9-00061+99999098511ADDGF108991999999999999999999
0029028970999991923011106004+64217+027767FM-12+014699999V0202301N001019999999N0000001N9-00171+99999098431ADDGF108991999999999999999999
0029028970999991923011113004+64217+027767FM-12+014699999V0201401N001019999999N0000001N9-00061+99999098391ADDGF108991999999999999999999
0029028970999991923011120004+64217+027767FM-12+014699999V0201401N003119999999N0000001N9-00061+99999098481ADDGF108991999999999999999999
0029028970999991923011206004+64217+027767FM-12+014699999V0201401N003119999999N0000001N9-00061+99999098351ADDGF108991999999999999999999
0035028970999991923011213004+64217+027767FM-12+014699999V0202001N001019999999N0000001N9+00001+99999098421ADDGF108991999999999999999999MW1721
0029028970999991923011220004+64217+027767FM-12+014699999V0209991C000019999999N0000001N9-00061+99999098511ADDGF108991999999999999999999
0029028970999991923011306004+64217+027767FM-12+014699999V0209991C000019999999N0000001N9-00221+99999098751ADDGF108991999999999999999999
0029028970999991923011313004+64217+027767FM-12+014699999V0202001N001019999999N0000001N9-00721+99999099041ADDGF108991999999999999999999
0029028970999991923011320004+64217+027767FM-12+014699999V0209991C000019999999N0000001N9-00611+99999099221ADDGF108991999999999999999999
0029028970999991923011406004+64217+027767FM-12+014699999V0209991C000019999999N0000001N9-00671+99999099341ADDGF108991999999999999999999
0029028970999991923011413004+64217+027767FM-12+014699999V0202301N001019999999N0000001N9-00671+99999099221ADDGF108991999999999999999999
0035028970999991923011420004+64217+027767FM-12+014699999V0200901N007219999999N0000001N9-00441+99999098671ADDGF108991999999999999999999MW1721
0035028970999991923011506004+64217+027767FM-12+014699999V0200901N007219999999N0000001N9-00391+99999098021ADDGF108991999999999999999999MW1721
0029028970999991923011513004+64217+027767FM-12+014699999V0200901N003119999999N0000001N9-00391+99999098041ADDGF108991999999999999999999
0029028970999991923011520004+64217+027767FM-12+014699999V0201401N003119999999N0000001N9-00441+99999098481ADDGF108991999999999999999999
0029028970999991923011606004+64217+027767FM-12+014699999V0200901N003119999999N0000001N9-00441+99999099621ADDGF108991999999999999999999
0029028970999991923011613004+64217+027767FM-12+014699999V0201401N001019999999N0000001N9-00441+99999100441ADDGF108991999999999999999999
0029028970999991923011620004+64217+027767FM-12+014699999V0201401N001019999999N0000001N9-00781+99999101021ADDGF108991999999999999999999
0029028970999991923011706004+64217+027767FM-12+014699999V0201401N001019999999N0000001N9-00941+99999101501ADDGF108991999999999999999999
0029028970999991923011713004+64217+027767FM-12+014699999V0201401N001019999999N0000001N9-01001+99999101701ADDGF108991999999999999999999
0029028970999991923011720004+64217+027767FM-12+014699999V0201401N001019999999N0000001N9-01171+99999101721ADDGF108991999999999999999999
0029028970999991923011806004+64217+027767FM-12+014699999V0201401N001019999999N0000001N9-01171+99999101631ADDGF108991999999999999999999
0029028970999991923011813004+64217+027767FM-12+014699999V0201401N001019999999N0000001N9-01391+99999101561ADDGF108991999999999999999999
0029028970999991923011820004+64217+027767FM-12+014699999V0201401N003119999999N0000001N9-01281+99999101321ADDGF108991999999999999999999
0029028970999991923011906004+64217+027767FM-12+014699999V0201401N003119999999N0000001N9-01111+99999100661ADDGF108991999999999999999999
0029028970999991923011913004+64217+027767FM-12+014699999V0201401N007219999999N0000001N9-00891+99999100081ADDGF108991999999999999999999
0035028970999991923011920004+64217+027767FM-12+014699999V0201401N008719999999N0000001N9-00891+99999099111ADDGF108991999999999999999999MW1721
0035028970999991923012006004+64217+027767FM-12+014699999V0200901N008719999999N0000001N9-00781+99999098061ADDGF108991999999999999999999MW1721
0029028970999991923012013004+64217+027767FM-12+014699999V0201101N008719999999N0000001N9-00671+99999097681ADDGF108991999999999999999999
0035028970999991923012020004+64217+027767FM-12+014699999V0200901N011819999999N0000001N9-00671+99999097621ADDGF108991999999999999999999MW1721
0029028970999991923012106004+64217+027767FM-12+014699999V0201401N011819999999N0000001N9-00561+99999097561ADDGF108991999999999999999999
0029028970999991923012113004+64217+027767FM-12+014699999V0202301N005119999999N0000001N9-00111+99999097801ADDGF108991999999999999999999
0029028970999991923012120004+64217+027767FM-12+014699999V0202301N003119999999N0000001N9-00331+99999097881ADDGF108991999999999999999999
0035028970999991923012206004+64217+027767FM-12+014699999V0201401N008719999999N0000001N9-00391+99999096751ADDGF108991999999999999999999MW1721
0029028970999991923012213004+64217+027767FM-12+014699999V0202301N003119999999N0000001N9-00171+99999096161ADDGF108991999999999999999999
0029028970999991923012220004+64217+027767FM-12+014699999V0201801N003119999999N0000001N9-00281+99999096241ADDGF108991999999999999999999
0029028970999991923012306004+64217+027767FM-12+014699999V0202001N001019999999N0000001N9-00331+99999096791ADDGF108991999999999999999999
0029028970999991923012313004+64217+027767FM-12+014699999V0202501N001019999999N0000001N9-00781+99999097311ADDGF108991999999999999999999
0029028970999991923012320004+64217+027767FM-12+014699999V0203401N001019999999N0000001N9-00941+99999097841ADDGF101991999999999999999999
0029028970999991923012406004+64217+027767FM-12+014699999V0200501N001019999999N0000001N9-01831+99999097461ADDGF100991999999999999999999
0029028970999991923012413004+64217+027767FM-12+014699999V0200501N001019999999N0000001N9-01501+99999097031ADDGF106991999999999999999999
0035028970999991923012420004+64217+027767FM-12+014699999V0200901N003119999999N0000001N9-01001+99999096751ADDGF108991999999999999999999MW1701
0029028970999991923012506004+64217+027767FM-12+014699999V0202301N001019999999N0000001N9-00561+99999097031ADDGF108991999999999999999999
0029028970999991923012513004+64217+027767FM-12+014699999V0202901N001019999999N0000001N9-01061+99999097461ADDGF108991999999999999999999
0029028970999991923012520004+64217+027767FM-12+014699999V0202901N001019999999N0000001N9-00561+99999096831ADDGF108991999999999999999999
0029028970999991923012606004+64217+027767FM-12+014699999V0202701N012919999999N0000001N9-00111+99999096001ADDGF104991999999999999999999
0029028970999991923012613004+64217+027767FM-12+014699999V0202301N012919999999N0000001N9-00331+99999096041ADDGF108991999999999999999999
0029028970999991923012620004+64217+027767FM-12+014699999V0202301N009819999999N0000001N9-00391+99999096061ADDGF108991999999999999999999
0029028970999991923012706004+64217+027767FM-12+014699999V0202301N005119999999N0000001N9-00561+99999096311ADDGF102991999999999999999999
0029028970999991923012713004+64217+027767FM-12+014699999V0202501N001019999999N0000001N9-00561+99999096311ADDGF106991999999999999999999
0029028970999991923012720004+64217+027767FM-12+014699999V0202301N001019999999N0000001N9-00941+99999095981ADDGF108991999999999999999999
0029028970999991923012806004+64217+027767FM-12+014699999V0202301N001019999999N0000001N9-01331+99999096361ADDGF108991999999999999999999
0029028970999991923012813004+64217+027767FM-12+014699999V0202701N001019999999N0000001N9-01611+99999096761ADDGF100991999999999999999999
0029028970999991923012820004+64217+027767FM-12+014699999V0202301N001019999999N0000001N9-01331+99999096711ADDGF103991999999999999999999
0029028970999991923012906004+64217+027767FM-12+014699999V0202301N001019999999N0000001N9-01221+99999096501ADDGF108991999999999999999999
0029028970999991923012913004+64217+027767FM-12+014699999V0202901N001019999999N0000001N9-01061+99999096541ADDGF108991999999999999999999
0029028970999991923012920004+64217+027767FM-12+014699999V0202901N003119999999N0000001N9-01331+99999096621ADDGF100991999999999999999999
0029028970999991923013006004+64217+027767FM-12+014699999V0202301N001019999999N0000001N9-00941+99999096901ADDGF108991999999999999999999
0029028970999991923013013004+64217+027767FM-12+014699999V0203201N001019999999N0000001N9-00721+99999097461ADDGF108991999999999999999999
0029028970999991923013020004+64217+027767FM-12+014699999V0203201N001019999999N0000001N9-01171+99999097871ADDGF100991999999999999999999
0029028970999991923013106004+64217+027767FM-12+014699999V0209991C000019999999N0000001N9-01721+99999098161ADDGF100991999999999999999999
0029028970999991923013113004+64217+027767FM-12+014699999V0209991C000019999999N0000001N9-01781+99999098431ADDGF100991999999999999999999
0029028970999991923013120004+64217+027767FM-12+014699999V0202301N001019999999N0000001N9-01391+99999098621ADDGF108991999999999999999999
0029028970999991923020106004+64217+027767FM-12+014699999V0209991C000019999999N0000001N9-02111+99999098831ADDGF100991999999999999999999
0029028970999991923020113004+64217+027767FM-12+014699999V0209991C000019999999N0000001N9-01781+99999098841ADDGF100991999999999999999999
0029028970999991923020120004+64217+027767FM-12+014699999V0209991C000019999999N0000001N9-02001+99999098541ADDGF100991999999999999999999
0035028970999991923020206004+64217+027767FM-12+014699999V0200901N003119999999N0000001N9-01391+99999097791ADDGF108991999999999999999999MW1721
0035028970999991923020213004+64217+027767FM-12+014699999V0201401N003119999999N0000001N9-01001+99999097101ADDGF108991999999999999999999MW1721
0029028970999991923020220004+64217+027767FM-12+014699999V0201401N003119999999N0000001N9-01001+99999096901ADDGF108991999999999999999999
0029028970999991923020306004+64217+027767FM-12+014699999V0209991C000019999999N0000001N9-01171+99999097231ADDGF108991999999999999999999
0029028970999991923020313004+64217+027767FM-12+014699999V0203201N001019999999N0000001N9-01331+99999097641ADDGF100991999999999999999999
0029028970999991923020320004+64217+027767FM-12+014699999V0209991C000019999999N0000001N9-02281+99999098151ADDGF100991999999999999999999
0029028970999991923020406004+64217+027767FM-12+014699999V0209991C000019999999N0000001N9-02891+99999098831ADDGF100991999999999999999999
0029028970999991923020413004+64217+027767FM-12+014699999V0209991C000019999999N0000001N9-02111+99999099231ADDGF100991999999999999999999
0029028970999991923020420004+64217+027767FM-12+014699999V0209991C000019999999N0000001N9-02611+99999099431ADDGF100991999999999999999999
0029028970999991923020506004+64217+027767FM-12+014699999V0201401N005119999999N0000001N9-01891+99999099431ADDGF108991999999999999999999
0035028970999991923020513004+64217+027767FM-12+014699999V0202001N003119999999N0000001N9-01331+99999099441ADDGF108991999999999999999999MW1721
0029028970999991923020520004+64217+027767FM-12+014699999V0202001N003119999999N0000001N9-01391+99999099391ADDGF108991999999999999999999
0029028970999991923020606004+64217+027767FM-12+014699999V0202301N007219999999N0000001N9-00891+99999099271ADDGF108991999999999999999999
0029028970999991923020613004+64217+027767FM-12+014699999V0202301N005119999999N0000001N9-00611+99999099301ADDGF108991999999999999999999
0029028970999991923020620004+64217+027767FM-12+014699999V0202301N001019999999N0000001N9-00281+99999099391ADDGF108991999999999999999999
0029028970999991923020706004+64217+027767FM-12+014699999V0202301N001019999999N0000001N9-00171+99999099641ADDGF108991999999999999999999
0029028970999991923020713004+64217+027767FM-12+014699999V0209991C000019999999N0000001N9-00061+99999099921ADDGF108991999999999999999999
0029028970999991923020720004+64217+027767FM-12+014699999V0209991C000019999999N0000001N9-00281+99999100261ADDGF108991999999999999999999
0029028970999991923020806004+64217+027767FM-12+014699999V0209991C000019999999N0000001N9-00441+99999100631ADDGF108991999999999999999999
0029028970999991923020813004+64217+027767FM-12+014699999V0209991C000019999999N0000001N9-00391+99999100991ADDGF108991999999999999999999
0029028970999991923020820004+64217+027767FM-12+014699999V0209991C000019999999N0000001N9-00611+99999101141ADDGF108991999999999999999999
0029028970999991923020906004+64217+027767FM-12+014699999V0209991C000019999999N0000001N9-00671+99999101481ADDGF108991999999999999999999
0029028970999991923020913004+64217+027767FM-12+014699999V0201401N001019999999N0000001N9-00561+99999101911ADDGF108991999999999999999999
0029028970999991923020920004+64217+027767FM-12+014699999V0201401N007219999999N0000001N9-00781+99999102341ADDGF108991999999999999999999
0029028970999991923021006004+64217+027767FM-12+014699999V0201401N001019999999N0000001N9-01001+99999102991ADDGF108991999999999999999999
0029028970999991923021013004+64217+027767FM-12+014699999V0201601N001019999999N0000001N9-01061+99999103221ADDGF108991999999999999999999
0029028970999991923021020004+64217+027767FM-12+014699999V0201601N001019999999N0000001N9-01281+99999103061ADDGF108991999999999999999999
0029028970999991923021106004+64217+027767FM-12+014699999V0209991C000019999999N0000001N9-01891+99999102661ADDGF108991999999999999999999
0029028970999991923021113004+64217+027767FM-12+014699999V0209991C000019999999N0000001N9-01061+99999102591ADDGF108991999999999999999999
0029028970999991923021120004+64217+027767FM-12+014699999V0209991C000019999999N0000001N9-01061+99999102751ADDGF108991999999999999999999
0029028970999991923021206004+64217+027767FM-12+014699999V0209991C000019999999N0000001N9-01171+99999103021ADDGF108991999999999999999999
0035028970999991923021213004+64217+027767FM-12+014699999V0202301N001019999999N0000001N9-01001+99999103261ADDGF108991999999999999999999MW1701
0029028970999991923021220004+64217+027767FM-12+014699999V0209991C000019999999N0000001N9-01941+99999103071ADDGF108991999999999999999999
0029028970999991923021306004+64217+027767FM-12+014699999V0209991C000019999999N0000001N9-02331+99999102781ADDGF100991999999999999999999
0029028970999991923021313004+64217+027767FM-12+014699999V0209991C000019999999N0000001N9-01391+99999102541ADDGF100991999999999999999999
0029028970999991923021320004+64217+027767FM-12+014699999V0209991C000019999999N0000001N9-02331+99999102181ADDGF100991999999999999999999
0029028970999991923021406004+64217+027767FM-12+014699999V0209991C000019999999N0000001N9-01891+99999101701ADDGF108991999999999999999999
0029028970999991923021413004+64217+027767FM-12+014699999V0201401N001019999999N0000001N9-01221+99999101471ADDGF108991999999999999999999
0029028970999991923021420004+64217+027767FM-12+014699999V0201401N001019999999N0000001N9-01111+99999101181ADDGF108991999999999999999999
0029028970999991923021506004+64217+027767FM-12+014699999V0201401N001019999999N0000001N9-01281+99999100911ADDGF108991999999999999999999
0029028970999991923021513004+64217+027767FM-12+014699999V0202501N001019999999N0000001N9-01281+99999100861ADDGF102991999999999999999999
0029028970999991923021520004+64217+027767FM-12+014699999V0209991C000019999999N0000001N9-02281+99999100761ADDGF108991999999999999999999
0029028970999991923021606004+64217+027767FM-12+014699999V0200501N001019999999N0000001N9-02391+99999100631ADDGF100991999999999999999999
0029028970999991923021613004+64217+027767FM-12+014699999V0200501N003119999999N0000001N9-01721+99999100601ADDGF100991999999999999999999
0029028970999991923021620004+64217+027767FM-12+014699999V0209991C000019999999N0000001N9-02111+99999100481ADDGF100991999999999999999999
0029028970999991923021706004+64217+027767FM-12+014699999V0209991C000019999999N0000001N9-02331+99999100361ADDGF108991999999999999999999
0029028970999991923021713004+64217+027767FM-12+014699999V0200501N001019999999N0000001N9-01781+99999100281ADDGF108991999999999999999999
0029028970999991923021720004+64217+027767FM-12+014699999V0200501N002119999999N0000001N9-01721+99999100121ADDGF108991999999999999999999
0029028970999991923021806004+64217+027767FM-12+014699999V0209991C000019999999N0000001N9-01781+99999099871ADDGF108991999999999999999999
0029028970999991923021813004+64217+027767FM-12+014699999V0209991C000019999999N0000001N9-01441+99999099711ADDGF108991999999999999999999
0029028970999991923021820004+64217+027767FM-12+014699999V0203601N001019999999N0000001N9-01501+99999099551ADDGF108991999999999999999999
0029028970999991923021906004+64217+027767FM-12+014699999V0200501N001019999999N0000001N9-02111+99999099341ADDGF102991999999999999999999
0029028970999991923021913004+64217+027767FM-12+014699999V0202301N001019999999N0000001N9-01171+99999099261ADDGF102991999999999999999999
0029028970999991923021920004+64217+027767FM-12+014699999V0202301N001019999999N0000001N9-01831+99999099201ADDGF100991999999999999999999
0029028970999991923022006004+64217+027767FM-12+014699999V0209991C000019999999N0000001N9-02171+99999099021ADDGF108991999999999999999999
0029028970999991923022013004+64217+027767FM-12+014699999V0201401N001019999999N0000001N9-01611+99999098961ADDGF108991999999999999999999
0029028970999991923022020004+64217+027767FM-12+014699999V0209991C000019999999N0000001N9-01671+99999098941ADDGF108991999999999999999999
0029028970999991923022106004+64217+027767FM-12+014699999V0209991C000019999999N0000001N9-01611+99999098901ADDGF108991999999999999999999
0029028970999991923022113004+64217+027767FM-12+014699999V0202301N001019999999N0000001N9-01001+99999098751ADDGF103991999999999999999999
0029028970999991923022120004+64217+027767FM-12+014699999V0209991C000019999999N0000001N9-01331+99999098701ADDGF104991999999999999999999
0029028970999991923022206004+64217+027767FM-12+014699999V0200901N001019999999N0000001N9-01331+99999098681ADDGF108991999999999999999999
0029028970999991923022213004+64217+027767FM-12+014699999V0202301N001019999999N0000001N9-01111+99999098941ADDGF108991999999999999999999
0029028970999991923022220004+64217+027767FM-12+014699999V0202301N001019999999N0000001N9-01171+99999099151ADDGF108991999999999999999999
0029028970999991923022306004+64217+027767FM-12+014699999V0202001N003119999999N0000001N9-01221+99999099421ADDGF108991999999999999999999
0029028970999991923022313004+64217+027767FM-12+014699999V0202301N001019999999N0000001N9-00891+99999099671ADDGF101991999999999999999999
0029028970999991923022320004+64217+027767FM-12+014699999V0202001N001019999999N0000001N9-01721+99999099831ADDGF101991999999999999999999
0029028970999991923022406004+64217+027767FM-12+014699999V0201601N001019999999N0000001N9-01441+99999099751ADDGF108991999999999999999999
0029028970999991923022413004+64217+027767FM-12+014699999V0201401N001019999999N0000001N9-01281+99999099631ADDGF107991999999999999999999
0029028970999991923022420004+64217+027767FM-12+014699999V0201401N003119999999N0000001N9-01501+99999099751ADDGF108991999999999999999999
0029028970999991923022506004+64217+027767FM-12+014699999V0201401N001019999999N0000001N9-01561+99999099671ADDGF108991999999999999999999
0029028970999991923022513004+64217+027767FM-12+014699999V0201601N001019999999N0000001N9-01331+99999099621ADDGF106991999999999999999999
0029028970999991923022520004+64217+027767FM-12+014699999V0201401N001019999999N0000001N9-01831+99999099541ADDGF100991999999999999999999
0029028970999991923022606004+64217+027767FM-12+014699999V0201401N003119999999N0000001N9-02001+99999099381ADDGF108991999999999999999999
0029028970999991923022613004+64217+027767FM-12+014699999V0201601N003119999999N0000001N9-01671+99999099361ADDGF108991999999999999999999
0029028970999991923022620004+64217+027767FM-12+014699999V0200901N001019999999N0000001N9-01781+99999099261ADDGF108991999999999999999999
0035028970999991923022706004+64217+027767FM-12+014699999V0200901N001019999999N0000001N9-01781+99999099041ADDGF108991999999999999999999MW1701
0029028970999991923022713004+64217+027767FM-12+014699999V0202001N001019999999N0000001N9-01391+99999099031ADDGF105991999999999999999999
0029028970999991923022720004+64217+027767FM-12+014699999V0200501N001019999999N0000001N9-02281+99999099061ADDGF100991999999999999999999
0029028970999991923022806004+64217+027767FM-12+014699999V0200501N001019999999N0000001N9-02891+99999099101ADDGF100991999999999999999999
0029028970999991923022813004+64217+027767FM-12+014699999V0202701N001019999999N0000001N9-01891+99999099361ADDGF100991999999999999999999
0029028970999991923022820004+64217+027767FM-12+014699999V0209991C000019999999N0000001N9-02721+99999099631ADDGF100991999999999999999999
0029028970999991923030106004+64217+027767FM-12+014699999V0209991C000019999999N0000001N9-03061+99999100061ADDGF100991999999999999999999
0029028970999991923030113004+64217+027767FM-12+014699999V0209991C000019999999N0000001N9-01331+99999100401ADDGF100991999999999999999999
0029028970999991923030120004+64217+027767FM-12+014699999V0209991C000019999999N0000001N9-02331+99999100741ADDGF100991999999999999999999
0029028970999991923030206004+64217+027767FM-12+014699999V0209991C000019999999N0000001N9-02611+99999100761ADDGF108991999999999999999999
0029028970999991923030213004+64217+027767FM-12+014699999V0200901N003119999999N0000001N9-01331+99999100791ADDGF100991999999999999999999
0029028970999991923030220004+64217+027767FM-12+014699999V0209991C000019999999N0000001N9-01611+99999100711ADDGF100991999999999999999999
0029028970999991923030306004+64217+027767FM-12+014699999V0200501N001019999999N0000001N9-01831+99999100681ADDGF100991999999999999999999
0029028970999991923030313004+64217+027767FM-12+014699999V0200901N003119999999N0000001N9-00941+99999100761ADDGF100991999999999999999999
0029028970999991923030320004+64217+027767FM-12+014699999V0200901N001019999999N0000001N9-01221+99999100751ADDGF100991999999999999999999
0029028970999991923030406004+64217+027767FM-12+014699999V0200901N003119999999N0000001N9-01831+99999100681ADDGF100991999999999999999999
0029028970999991923030413004+64217+027767FM-12+014699999V0200901N001019999999N0000001N9-00941+99999100711ADDGF100991999999999999999999
0029028970999991923030420004+64217+027767FM-12+014699999V0200501N001019999999N0000001N9-01391+99999100681ADDGF100991999999999999999999
0029028970999991923030506004+64217+027767FM-12+014699999V0200501N001019999999N0000001N9-02611+99999100551ADDGF100991999999999999999999
0029028970999991923030513004+64217+027767FM-12+014699999V0200501N001019999999N0000001N9-00941+99999100501ADDGF100991999999999999999999
0029028970999991923030520004+64217+027767FM-12+014699999V0200501N001019999999N0000001N9-01831+99999100431ADDGF100991999999999999999999
0029028970999991923030606004+64217+027767FM-12+014699999V0200501N001019999999N0000001N9-02281+99999100421ADDGF100991999999999999999999
0029028970999991923030613004+64217+027767FM-12+014699999V0202301N001019999999N0000001N9-00501+99999100441ADDGF100991999999999999999999
0029028970999991923030620004+64217+027767FM-12+014699999V0202301N001019999999N0000001N9-00941+99999100461ADDGF103991999999999999999999
0029028970999991923030706004+64217+027767FM-12+014699999V0202301N001019999999N0000001N9-01001+99999100351ADDGF108991999999999999999999
0029028970999991923030713004+64217+027767FM-12+014699999V0202301N001019999999N0000001N9-00501+99999100381ADDGF108991999999999999999999
0029028970999991923030720004+64217+027767FM-12+014699999V0202301N001019999999N0000001N9-00671+99999100421ADDGF108991999999999999999999
0029028970999991923030806004+64217+027767FM-12+014699999V0202301N001019999999N0000001N9-01171+99999100421ADDGF102991999999999999999999
0029028970999991923030813004+64217+027767FM-12+014699999V0202301N003119999999N0000001N9-00441+99999100481ADDGF102991999999999999999999
0029028970999991923030820004+64217+027767FM-12+014699999V0209991C000019999999N0000001N9-00891+99999100641ADDGF101991999999999999999999
0029028970999991923030906004+64217+027767FM-12+014699999V0209991C000019999999N0000001N9-00831+99999100881ADDGF108991999999999999999999
0029028970999991923030913004+64217+027767FM-12+014699999V0202301N001019999999N0000001N9-00441+99999101201ADDGF106991999999999999999999
0029028970999991923030920004+64217+027767FM-12+014699999V0202301N001019999999N0000001N9-00671+99999101361ADDGF108991999999999999999999
0029028970999991923031006004+64217+027767FM-12+014699999V0202501N001019999999N0000001N9-00611+99999101301ADDGF108991999999999999999999
0029028970999991923031013004+64217+027767FM-12+014699999V0202701N001019999999N0000001N9-00671+99999101351ADDGF108991999999999999999999
0029028970999991923031020004+64217+027767FM-12+014699999V0202701N001019999999N0000001N9-00781+99999101361ADDGF108991999999999999999999
0029028970999991923031106004+64217+027767FM-12+014699999V0202701N001019999999N0000001N9-01001+99999101481ADDGF108991999999999999999999
0029028970999991923031113004+64217+027767FM-12+014699999V0202701N001019999999N0000001N9-00281+99999101701ADDGF100991999999999999999999
0029028970999991923031120004+64217+027767FM-12+014699999V0209991C000019999999N0000001N9-01001+99999101791ADDGF100991999999999999999999
0029028970999991923031206004+64217+027767FM-12+014699999V0202701N001019999999N0000001N9-01001+99999101861ADDGF108991999999999999999999
0029028970999991923031213004+64217+027767FM-12+014699999V0202501N001019999999N0000001N9-00941+99999101921ADDGF104991999999999999999999
0029028970999991923031220004+64217+027767FM-12+014699999V0209991C000019999999N0000001N9-00781+99999101721ADDGF108991999999999999999999
0029028970999991923031306004+64217+027767FM-12+014699999V0202301N001019999999N0000001N9-00721+99999101471ADDGF108991999999999999999999
0029028970999991923031313004+64217+027767FM-12+014699999V0202301N001019999999N0000001N9-00331+99999101341ADDGF108991999999999999999999
0029028970999991923031320004+64217+027767FM-12+014699999V0202301N001019999999N0000001N9-00281+99999101101ADDGF108991999999999999999999
0029028970999991923031406004+64217+027767FM-12+014699999V0209991C000019999999N0000001N9-00941+99999100821ADDGF108991999999999999999999
0029028970999991923031413004+64217+027767FM-12+014699999V0202301N002119999999N0000001N9-00671+99999100741ADDGF108991999999999999999999
0029028970999991923031420004+64217+027767FM-12+014699999V0202301N003119999999N0000001N9-00281+99999100261ADDGF108991999999999999999999
0029028970999991923031506004+64217+027767FM-12+014699999V0202301N002119999999N0000001N9-00171+99999100031ADDGF108991999999999999999999
0029028970999991923031513004+64217+027767FM-12+014699999V0202701N002119999999N0000001N9+00391+99999100311ADDGF101991999999999999999999
0029028970999991923031520004+64217+027767FM-12+014699999V0202701N001019999999N0000001N9-00171+99999100501ADDGF103991999999999999999999
0029028970999991923031606004+64217+027767FM-12+014699999V0202701N001019999999N0000001N9-00331+99999100561ADDGF102991999999999999999999
0029028970999991923031613004+64217+027767FM-12+014699999V0202701N001019999999N0000001N9+00441+99999100781ADDGF100991999999999999999999
0029028970999991923031620004+64217+027767FM-12+014699999V0202701N001019999999N0000001N9-00061+99999100781ADDGF102991999999999999999999
0029028970999991923031706004+64217+027767FM-12+014699999V0202701N003119999999N0000001N9-00061+99999100301ADDGF106991999999999999999999
0029028970999991923031713004+64217+027767FM-12+014699999V0202701N003119999999N0000001N9+00331+99999100151ADDGF108991999999999999999999
0029028970999991923031720004+64217+027767FM-12+014699999V0202701N001019999999N0000001N9-00111+99999100521ADDGF100991999999999999999999
0029028970999991923031806004+64217+027767FM-12+014699999V0203201N001019999999N0000001N9-00891+99999100761ADDGF102991999999999999999999
0029028970999991923031813004+64217+027767FM-12+014699999V0202901N001019999999N0000001N9+00171+99999100471ADDGF108991999999999999999999
0029028970999991923031820004+64217+027767FM-12+014699999V0202901N001019999999N0000001N9+00061+99999100141ADDGF108991999999999999999999
0029028970999991923031906004+64217+027767FM-12+014699999V0202701N001019999999N0000001N9-00441+99999099711ADDGF101991999999999999999999
0029028970999991923031913004+64217+027767FM-12+014699999V0202701N001019999999N0000001N9+00391+99999099701ADDGF102991999999999999999999
0029028970999991923031920004+64217+027767FM-12+014699999V0202701N001019999999N0000001N9+00001+99999099421ADDGF101991999999999999999999
0029028970999991923032006004+64217+027767FM-12+014699999V0202501N001019999999N0000001N9+00001+99999099001ADDGF100991999999999999999999
0029028970999991923032013004+64217+027767FM-12+014699999V0203201N007219999999N0000001N9+00171+99999099561ADDGF100991999999999999999999
0029028970999991923032020004+64217+027767FM-12+014699999V0203201N003119999999N0000001N9-00281+99999099591ADDGF101991999999999999999999
0029028970999991923032106004+64217+027767FM-12+014699999V0203201N001019999999N0000001N9-00281+99999099681ADDGF108991999999999999999999
0029028970999991923032113004+64217+027767FM-12+014699999V0202901N001019999999N0000001N9+00281+99999099981ADDGF105991999999999999999999
0029028970999991923032120004+64217+027767FM-12+014699999V0202901N001019999999N0000001N9-00111+99999100101ADDGF100991999999999999999999
0029028970999991923032206004+64217+027767FM-12+014699999V0202701N001019999999N0000001N9-00221+99999099501ADDGF106991999999999999999999
0029028970999991923032213004+64217+027767FM-12+014699999V0202701N005119999999N0000001N9+00391+99999099321ADDGF102991999999999999999999
0029028970999991923032220004+64217+027767FM-12+014699999V0202701N001019999999N0000001N9-00061+99999099541ADDGF101991999999999999999999
0029028970999991923032306004+64217+027767FM-12+014699999V0202301N001019999999N0000001N9-00331+99999100121ADDGF108991999999999999999999
0029028970999991923032313004+64217+027767FM-12+014699999V0202701N001019999999N0000001N9+00281+99999100361ADDGF100991999999999999999999
0029028970999991923032320004+64217+027767FM-12+014699999V0202701N001019999999N0000001N9-00331+99999100391ADDGF100991999999999999999999
0029028970999991923032406004+64217+027767FM-12+014699999V0209991C000019999999N0000001N9-00331+99999100231ADDGF102991999999999999999999
0029028970999991923032413004+64217+027767FM-12+014699999V0202501N001019999999N0000001N9+00561+99999099901ADDGF101991999999999999999999
0029028970999991923032420004+64217+027767FM-12+014699999V0209991C000019999999N0000001N9+00001+99999099911ADDGF101991999999999999999999
0029028970999991923032506004+64217+027767FM-12+014699999V0209991C000019999999N0000001N9-00671+99999100381ADDGF100991999999999999999999
0029028970999991923032513004+64217+027767FM-12+014699999V0203201N003119999999N0000001N9+00171+99999100751ADDGF101991999999999999999999
0029028970999991923032520004+64217+027767FM-12+014699999V0203201N001019999999N0000001N9-00281+99999100901ADDGF100991999999999999999999
0029028970999991923032606004+64217+027767FM-12+014699999V0209991C000019999999N0000001N9-01171+99999101321ADDGF100991999999999999999999
0029028970999991923032613004+64217+027767FM-12+014699999V0209991C000019999999N0000001N9+00061+99999101381ADDGF100991999999999999999999
0029028970999991923032620004+64217+027767FM-12+014699999V0202701N001019999999N0000001N9-00441+99999101121ADDGF102991999999999999999999
0029028970999991923032706004+64217+027767FM-12+014699999V0209991C000019999999N0000001N9-00281+99999100721ADDGF108991999999999999999999
0029028970999991923032713004+64217+027767FM-12+014699999V0202701N001019999999N0000001N9+00331+99999100431ADDGF101991999999999999999999
0029028970999991923032720004+64217+027767FM-12+014699999V0209991C000019999999N0000001N9-00171+99999100341ADDGF100991999999999999999999
0029028970999991923032806004+64217+027767FM-12+014699999V0209991C000019999999N0000001N9-00611+99999100261ADDGF108991999999999999999999
0029028970999991923032813004+64217+027767FM-12+014699999V0202701N001019999999N0000001N9+00441+99999099951ADDGF102991999999999999999999
0029028970999991923032820004+64217+027767FM-12+014699999V0202701N005119999999N0000001N9+00221+99999099501ADDGF108991999999999999999999
0029028970999991923032906004+64217+027767FM-12+014699999V0209991C000019999999N0000001N9+00281+99999099921ADDGF100991999999999999999999
0029028970999991923032913004+64217+027767FM-12+014699999V0203201N005119999999N0000001N9+00001+99999100631ADDGF100991999999999999999999
0029028970999991923032920004+64217+027767FM-12+014699999V0209991C000019999999N0000001N9-00611+99999100861ADDGF100991999999999999999999
0029028970999991923033006004+64217+027767FM-12+014699999V0201401N003119999999N0000001N9-00611+99999100541ADDGF108991999999999999999999
0029028970999991923033013004+64217+027767FM-12+014699999V0200901N003119999999N0000001N9-00331+99999100621ADDGF108991999999999999999999
0029028970999991923033020004+64217+027767FM-12+014699999V0200501N002119999999N0000001N9-00611+99999100961ADDGF102991999999999999999999
0029028970999991923033106004+64217+027767FM-12+014699999V0209991C000019999999N0000001N9-01561+99999101431ADDGF100991999999999999999999
0029028970999991923033113004+64217+027767FM-12+014699999V0203201N001019999999N0000001N9-00221+99999101301ADDGF101991999999999999999999
0029028970999991923033120004+64217+027767FM-12+014699999V0209991C000019999999N0000001N9-00891+99999101031ADDGF100991999999999999999999
0029028970999991923040106004+64217+027767FM-12+014699999V0209991C000019999999N0000001N9-01001+99999100551ADDGF100991999999999999999999
0029028970999991923040113004+64217+027767FM-12+014699999V0202501N001019999999N0000001N9-00111+99999100361ADDGF101991999999999999999999
0029028970999991923040120004+64217+027767FM-12+014699999V0209991C000019999999N0000001N9-00391+99999100281ADDGF100991999999999999999999
0029028970999991923040206004+64217+027767FM-12+014699999V0203201N001019999999N0000001N9-00891+99999100551ADDGF101991999999999999999999
0029028970999991923040213004+64217+027767FM-12+014699999V0202301N001019999999N0000001N9-00061+99999100621ADDGF108991999999999999999999
0029028970999991923040220004+64217+027767FM-12+014699999V0209991C000019999999N0000001N9+00171+99999100501ADDGF108991999999999999999999
0029028970999991923040306004+64217+027767FM-12+014699999V0209991C000019999999N0000001N9+00001+99999100701ADDGF108991999999999999999999
0029028970999991923040313004+64217+027767FM-12+014699999V0202901N001019999999N0000001N9+00501+99999100751ADDGF105991999999999999999999
0029028970999991923040320004+64217+027767FM-12+014699999V0209991C000019999999N0000001N9+00001+99999100741ADDGF101991999999999999999999
0029028970999991923040406004+64217+027767FM-12+014699999V0209991C000019999999N0000001N9-00281+99999100661ADDGF108991999999999999999999
0029028970999991923040413004+64217+027767FM-12+014699999V0202901N001019999999N0000001N9+00441+99999100661ADDGF106991999999999999999999
0029028970999991923040420004+64217+027767FM-12+014699999V0209991C000019999999N0000001N9-00061+99999100711ADDGF108991999999999999999999
0029028970999991923040506004+64217+027767FM-12+014699999V0200501N001019999999N0000001N9-00611+99999100911ADDGF108991999999999999999999
0029028970999991923040513004+64217+027767FM-12+014699999V0203201N003119999999N0000001N9+00501+99999101021ADDGF106991999999999999999999
0029028970999991923040520004+64217+027767FM-12+014699999V0203201N001019999999N0000001N9+00061+99999100991ADDGF105991999999999999999999
0029028970999991923040606004+64217+027767FM-12+014699999V0209991C000019999999N0000001N9-00281+99999101101ADDGF107991999999999999999999
0029028970999991923040613004+64217+027767FM-12+014699999V0209991C000019999999N0000001N9+00391+99999101061ADDGF106991999999999999999999
0029028970999991923040620004+64217+027767FM-12+014699999V0209991C000019999999N0000001N9+00111+99999101021ADDGF108991999999999999999999
0029028970999991923040706004+64217+027767FM-12+014699999V0209991C000019999999N0000001N9+00001+99999100961ADDGF101991999999999999999999
0029028970999991923040713004+64217+027767FM-12+014699999V0203201N001019999999N0000001N9+00441+99999100881ADDGF100991999999999999999999
0029028970999991923040720004+64217+027767FM-12+014699999V0209991C000019999999N0000001N9-00281+99999100671ADDGF101991999999999999999999
0029028970999991923040806004+64217+027767FM-12+014699999V0203201N001019999999N0000001N9-00281+99999100241ADDGF102991999999999999999999
0029028970999991923040813004+64217+027767FM-12+014699999V0202501N003119999999N0000001N9+00501+99999100141ADDGF101991999999999999999999
0029028970999991923040820004+64217+027767FM-12+014699999V0203201N001019999999N0000001N9-00061+99999100151ADDGF106991999999999999999999
0029028970999991923040906004+64217+027767FM-12+014699999V0203201N001019999999N0000001N9-00671+99999100341ADDGF101991999999999999999999
0029028970999991923040913004+64217+027767FM-12+014699999V0202701N003119999999N0000001N9+00331+99999100201ADDGF101991999999999999999999
0029028970999991923040920004+64217+027767FM-12+014699999V0209991C000019999999N0000001N9-00171+99999099861ADDGF104991999999999999999999
0029028970999991923041006004+64217+027767FM-12+014699999V0203201N001019999999N0000001N9-00281+99999099471ADDGF104991999999999999999999
0029028970999991923041013004+64217+027767FM-12+014699999V0203201N001019999999N0000001N9+00221+99999099471ADDGF106991999999999999999999
0029028970999991923041020004+64217+027767FM-12+014699999V0203201N001019999999N0000001N9-00171+99999099591ADDGF107991999999999999999999
0035028970999991923041106004+64217+027767FM-12+014699999V0209991C000019999999N0000001N9-00441+99999099541ADDGF108991999999999999999999MW1701
0029028970999991923041113004+64217+027767FM-12+014699999V0200201N001019999999N0000001N9-00111+99999099401ADDGF106991999999999999999999
0029028970999991923041120004+64217+027767FM-12+014699999V0203201N001019999999N0000001N9-00501+99999099701ADDGF101991999999999999999999
0029028970999991923041206004+64217+027767FM-12+014699999V0209991C000019999999N0000001N9-01111+99999100151ADDGF100991999999999999999999
0029028970999991923041213004+64217+027767FM-12+014699999V0202901N003119999999N0000001N9-00171+99999100261ADDGF102991999999999999999999
0029028970999991923041220004+64217+027767FM-12+014699999V0209991C000019999999N0000001N9-00611+99999100191ADDGF100991999999999999999999
0029028970999991923041306004+64217+027767FM-12+014699999V0209991C000019999999N0000001N9-00941+99999100191ADDGF100991999999999999999999
0029028970999991923041313004+64217+027767FM-12+014699999V0200501N001019999999N0000001N9+00001+99999100061ADDGF101991999999999999999999
0029028970999991923041320004+64217+027767FM-12+014699999V0209991C000019999999N0000001N9-00441+99999099941ADDGF101991999999999999999999
0029028970999991923041406004+64217+027767FM-12+014699999V0200501N003119999999N0000001N9-00831+99999099781ADDGF107991999999999999999999
0029028970999991923041413004+64217+027767FM-12+014699999V0201401N003119999999N0000001N9+00061+99999099641ADDGF108991999999999999999999
0029028970999991923041420004+64217+027767FM-12+014699999V0201401N003119999999N0000001N9-00331+99999099461ADDGF108991999999999999999999
0029028970999991923041506004+64217+027767FM-12+014699999V0200501N003119999999N0000001N9-00441+99999099431ADDGF108991999999999999999999
0029028970999991923041513004+64217+027767FM-12+014699999V0200501N008719999999N0000001N9-00061+99999099311ADDGF107991999999999999999999
0029028970999991923041520004+64217+027767FM-12+014699999V0200501N002119999999N0000001N9-00391+99999099461ADDGF101991999999999999999999
0029028970999991923041606004+64217+027767FM-12+014699999V0200201N001019999999N0000001N9-00781+99999099741ADDGF100991999999999999999999
0029028970999991923041613004+64217+027767FM-12+014699999V0203201N001019999999N0000001N9+00001+99999099801ADDGF100991999999999999999999
0029028970999991923041620004+64217+027767FM-12+014699999V0209991C000019999999N0000001N9-00501+99999099991ADDGF101991999999999999999999
0029028970999991923041706004+64217+027767FM-12+014699999V0203201N001019999999N0000001N9-00611+99999100321ADDGF107991999999999999999999
0029028970999991923041713004+64217+027767FM-12+014699999V0203201N001019999999N0000001N9+00331+99999100401ADDGF100991999999999999999999
0029028970999991923041720004+64217+027767FM-12+014699999V0203201N001019999999N0000001N9-00061+99999100341ADDGF101991999999999999999999
0029028970999991923041806004+64217+027767FM-12+014699999V0209991C000019999999N0000001N9-00281+99999100151ADDGF100991999999999999999999
0029028970999991923041813004+64217+027767FM-12+014699999V0209991C000019999999N0000001N9+00561+99999099791ADDGF100991999999999999999999
0029028970999991923041820004+64217+027767FM-12+014699999V0209991C000019999999N0000001N9-00171+99999099421ADDGF100991999999999999999999
0029028970999991923041906004+64217+027767FM-12+014699999V0209991C000019999999N0000001N9-00611+99999098921ADDGF100991999999999999999999
0029028970999991923041913004+64217+027767FM-12+014699999V0203201N001019999999N0000001N9+00391+99999098671ADDGF101991999999999999999999
0029028970999991923041920004+64217+027767FM-12+014699999V0203201N001019999999N0000001N9+00221+99999098631ADDGF107991999999999999999999
0035028970999991923042006004+64217+027767FM-12+014699999V0200201N001019999999N0000001N9-00441+99999099021ADDGF108991999999999999999999MW1701
0035028970999991923042013004+64217+027767FM-12+014699999V0200501N008719999999N0000001N9-00331+99999099261ADDGF108991999999999999999999MW1701
0029028970999991923042020004+64217+027767FM-12+014699999V0203201N003119999999N0000001N9-00501+99999099301ADDGF108991999999999999999999
0035028970999991923042106004+64217+027767FM-12+014699999V0203201N003119999999N0000001N9-00611+99999099021ADDGF108991999999999999999999MW1721
0029028970999991923042113004+64217+027767FM-12+014699999V0203201N003119999999N0000001N9-00171+99999098751ADDGF106991999999999999999999
0029028970999991923042120004+64217+027767FM-12+014699999V0209991C000019999999N0000001N9-00721+99999098711ADDGF101991999999999999999999
0029028970999991923042206004+64217+027767FM-12+014699999V0209991C000019999999N0000001N9-00831+99999098681ADDGF104991999999999999999999
0029028970999991923042213004+64217+027767FM-12+014699999V0200501N001019999999N0000001N9-00281+99999098881ADDGF108991999999999999999999
0029028970999991923042220004+64217+027767FM-12+014699999V0209991C000019999999N0000001N9-00671+99999099071ADDGF102991999999999999999999
0029028970999991923042306004+64217+027767FM-12+014699999V0209991C000019999999N0000001N9-01281+99999099421ADDGF106991999999999999999999
0029028970999991923042313004+64217+027767FM-12+014699999V0202501N001019999999N0000001N9-00221+99999099511ADDGF107991999999999999999999
0029028970999991923042320004+64217+027767FM-12+014699999V0209991C000019999999N0000001N9-00391+99999099561ADDGF107991999999999999999999
0029028970999991923042406004+64217+027767FM-12+014699999V0203201N001019999999N0000001N9-00561+99999099701ADDGF100991999999999999999999
0029028970999991923042413004+64217+027767FM-12+014699999V0200501N003119999999N0000001N9-00111+99999099631ADDGF101991999999999999999999
0029028970999991923042420004+64217+027767FM-12+014699999V0200501N001019999999N0000001N9-00331+99999099401ADDGF107991999999999999999999
0029028970999991923042506004+64217+027767FM-12+014699999V0200501N001019999999N0000001N9-00611+99999099301ADDGF108991999999999999999999
0029028970999991923042513004+64217+027767FM-12+014699999V0200501N008719999999N0000001N9-00221+99999099081ADDGF101991999999999999999999
0029028970999991923042520004+64217+027767FM-12+014699999V0200501N003119999999N0000001N9-00561+99999099201ADDGF105991999999999999999999
0029028970999991923042606004+64217+027767FM-12+014699999V0200501N001019999999N0000001N9-00671+99999099441ADDGF100991999999999999999999
0029028970999991923042613004+64217+027767FM-12+014699999V0201401N001019999999N0000001N9+00001+99999099581ADDGF105991999999999999999999
0029028970999991923042620004+64217+027767FM-12+014699999V0200501N001019999999N0000001N9-00221+99999099591ADDGF108991999999999999999999
0029028970999991923042706004+64217+027767FM-12+014699999V0200501N003119999999N0000001N9-00331+99999099501ADDGF101991999999999999999999
0035028970999991923042713004+64217+027767FM-12+014699999V0200901N010819999999N0000001N9-00061+99999098821ADDGF108991999999999999999999MW1721
0035028970999991923042720004+64217+027767FM-12+014699999V0200501N008719999999N0000001N9-00171+99999097761ADDGF108991999999999999999999MW1721
0035028970999991923042806004+64217+027767FM-12+014699999V0202701N001019999999N0000001N9+00061+99999096871ADDGF108991999999999999999999MW1721
0029028970999991923042813004+64217+027767FM-12+014699999V0202301N005119999999N0000001N9+00001+99999097301ADDGF108991999999999999999999
0035028970999991923042820004+64217+027767FM-12+014699999V0202501N001019999999N0000001N9-00331+99999097801ADDGF108991999999999999999999MW1721
0035028970999991923042906004+64217+027767FM-12+014699999V0202301N001019999999N0000001N9-00391+99999097721ADDGF108991999999999999999999MW1701
0029028970999991923042913004+64217+027767FM-12+014699999V0202701N002119999999N0000001N9-00441+99999097951ADDGF108991999999999999999999
0029028970999991923042920004+64217+027767FM-12+014699999V0202701N001019999999N0000001N9-00611+99999098141ADDGF107991999999999999999999
0029028970999991923043006004+64217+027767FM-12+014699999V0202501N001019999999N0000001N9-00611+99999098501ADDGF106991999999999999999999
0029028970999991923043013004+64217+027767FM-12+014699999V0202501N001019999999N0000001N9-00061+99999098941ADDGF102991999999999999999999
0029028970999991923043020004+64217+027767FM-12+014699999V0209991C000019999999N0000001N9-00441+99999099151ADDGF102991999999999999999999
0035028970999991923050106004+64217+027767FM-12+014699999V0200901N001019999999N0000001N9-00441+99999099021ADDGF108991999999999999999999MW1741
0035028970999991923050113004+64217+027767FM-12+014699999V0200501N003119999999N0000001N9-00061+99999098941ADDGF108991999999999999999999MW1721
0029028970999991923050120004+64217+027767FM-12+014699999V0200501N001019999999N0000001N9-00171+99999098951ADDGF108991999999999999999999
0029028970999991923050206004+64217+027767FM-12+014699999V0200201N001019999999N0000001N9-00281+99999098901ADDGF101991999999999999999999
0029028970999991923050213004+64217+027767FM-12+014699999V0200501N003119999999N0000001N9+00331+99999098991ADDGF103991999999999999999999
0029028970999991923050220004+64217+027767FM-12+014699999V0200501N001019999999N0000001N9-00061+99999099181ADDGF108991999999999999999999
0029028970999991923050306004+64217+027767FM-12+014699999V0200501N001019999999N0000001N9-00391+99999099511ADDGF108991999999999999999999
0029028970999991923050313004+64217+027767FM-12+014699999V0200501N001019999999N0000001N9+00111+99999099561ADDGF106991999999999999999999
0029028970999991923050320004+64217+027767FM-12+014699999V0202901N001019999999N0000001N9-00281+99999099681ADDGF101991999999999999999999
0029028970999991923050406004+64217+027767FM-12+014699999V0200501N001019999999N0000001N9-00561+99999099951ADDGF101991999999999999999999
0029028970999991923050413004+64217+027767FM-12+014699999V0200501N001019999999N0000001N9+00331+99999100031ADDGF102991999999999999999999
0029028970999991923050420004+64217+027767FM-12+014699999V0200501N001019999999N0000001N9-00061+99999999999ADDGF106991999999999999999999
0029028970999991923050506004+64217+027767FM-12+014699999V0201601N003119999999N0000001N9+00001+99999099871ADDGF108991999999999999999999
0035028970999991923050513004+64217+027767FM-12+014699999V0201401N003119999999N0000001N9+00111+99999099561ADDGF108991999999999999999999MW1691
0035028970999991923050520004+64217+027767FM-12+014699999V0201601N001019999999N0000001N9+00171+99999099471ADDGF108991999999999999999999MW1621
0029028970999991923050606004+64217+027767FM-12+014699999V0201401N001019999999N0000001N9+00221+99999099711ADDGF108991999999999999999999
0029028970999991923050613004+64217+027767FM-12+014699999V0200901N001019999999N0000001N9+00281+99999999999ADDGF108991999999999999999999
0029028970999991923050620004+64217+027767FM-12+014699999V0200901N003119999999N0000001N9+00171+99999099841ADDGF108991999999999999999999
0029028970999991923050706004+64217+027767FM-12+014699999V0200901N007219999999N0000001N9+00061+99999099161ADDGF108991999999999999999999
0029028970999991923050713004+64217+027767FM-12+014699999V0200901N007219999999N0000001N9+00171+99999098461ADDGF108991999999999999999999
0029028970999991923050720004+64217+027767FM-12+014699999V0201801N003119999999N0000001N9+00221+99999098181ADDGF108991999999999999999999
0029028970999991923050806004+64217+027767FM-12+014699999V0202301N001019999999N0000001N9+00391+99999098271ADDGF103991999999999999999999
0029028970999991923050813004+64217+027767FM-12+014699999V0202301N001019999999N0000001N9+00611+99999098551ADDGF106991999999999999999999
0029028970999991923050820004+64217+027767FM-12+014699999V0202701N001019999999N0000001N9+00001+99999098741ADDGF101991999999999999999999
0029028970999991923050906004+64217+027767FM-12+014699999V0202901N001019999999N0000001N9+00061+99999098741ADDGF106991999999999999999999
0029028970999991923050913004+64217+027767FM-12+014699999V0202701N003119999999N0000001N9+00611+99999098781ADDGF102991999999999999999999
0029028970999991923050920004+64217+027767FM-12+014699999V0209991C000019999999N0000001N9+00281+99999098821ADDGF103991999999999999999999
0029028970999991923051006004+64217+027767FM-12+014699999V0203201N001019999999N0000001N9+00061+99999098791ADDGF101991999999999999999999
0029028970999991923051013004+64217+027767FM-12+014699999V0200501N001019999999N0000001N9+00721+99999098751ADDGF108991999999999999999999
0029028970999991923051020004+64217+027767FM-12+014699999V0203601N001019999999N0000001N9+00281+99999098831ADDGF101991999999999999999999
0029028970999991923051106004+64217+027767FM-12+014699999V0200501N001019999999N0000001N9+00061+99999099021ADDGF108991999999999999999999
0029028970999991923051113004+64217+027767FM-12+014699999V0201401N003119999999N0000001N9+00501+99999099101ADDGF107991999999999999999999
0029028970999991923051120004+64217+027767FM-12+014699999V0200501N001019999999N0000001N9+00281+99999099221ADDGF108991999999999999999999
0029028970999991923051206004+64217+027767FM-12+014699999V0200501N003119999999N0000001N9-00111+99999099421ADDGF108991999999999999999999
0029028970999991923051213004+64217+027767FM-12+014699999V0200501N003119999999N0000001N9+00281+99999099281ADDGF101991999999999999999999
0029028970999991923051220004+64217+027767FM-12+014699999V0209991C000019999999N0000001N9+00221+99999099581ADDGF100991999999999999999999
0029028970999991923051306004+64217+027767FM-12+014699999V0200501N001019999999N0000001N9+00281+99999099981ADDGF100991999999999999999999
0029028970999991923051313004+64217+027767FM-12+014699999V0202301N005119999999N0000001N9+01001+99999099801ADDGF101991999999999999999999
0029028970999991923051320004+64217+027767FM-12+014699999V0201401N005119999999N0000001N9+00561+99999099391ADDGF108991999999999999999999
0029028970999991923051406004+64217+027767FM-12+014699999V0202301N003119999999N0000001N9+00391+99999099241ADDGF107991999999999999999999
0035028970999991923051413004+64217+027767FM-12+014699999V0201401N005119999999N0000001N9+01061+99999099401ADDGF106991999999999999999999MW1601
0029028970999991923051420004+64217+027767FM-12+014699999V0202301N003119999999N0000001N9+00721+99999098951ADDGF108991999999999999999999
0029028970999991923051506004+64217+027767FM-12+014699999V0202001N003119999999N0000001N9+00331+99999098581ADDGF108991999999999999999999
0029028970999991923051513004+64217+027767FM-12+014699999V0202301N004119999999N0000001N9+00671+99999098861ADDGF108991999999999999999999
0029028970999991923051520004+64217+027767FM-12+014699999V0202001N003119999999N0000001N9+00721+99999099261ADDGF107991999999999999999999
0029028970999991923051606004+64217+027767FM-12+014699999V0209991C000019999999N0000001N9+00561+99999099581ADDGF108991999999999999999999
0035028970999991923051613004+64217+027767FM-12+014699999V0201401N001019999999N0000001N9+00441+99999099351ADDGF108991999999999999999999MW1601
0029028970999991923051620004+64217+027767FM-12+014699999V0200501N001019999999N0000001N9+00441+99999099431ADDGF101991999999999999999999
0046028970999991923051706004+64217+027767FM-12+014699999V0203201N001019999999N0000001N9+00781+99999099951ADDAJ100009199999999GF100991999999999999999999
0029028970999991923051713004+64217+027767FM-12+014699999V0202301N003119999999N0000001N9+01281+99999099941ADDGF102991999999999999999999
0029028970999991923051720004+64217+027767FM-12+014699999V0201101N003119999999N0000001N9+00781+99999099501ADDGF106991999999999999999999
0046028970999991923051806004+64217+027767FM-12+014699999V0201601N001019999999N0000001N9+00611+99999099201ADDAJ100009199999999GF106991999999999999999999
0029028970999991923051813004+64217+027767FM-12+014699999V0202501N005119999999N0000001N9+01221+99999099511ADDGF101991999999999999999999
0029028970999991923051820004+64217+027767FM-12+014699999V0201801N001019999999N0000001N9+00831+99999099521ADDGF100991999999999999999999
0046028970999991923051906004+64217+027767FM-12+014699999V0202301N001019999999N0000001N9+00721+99999099581ADDAJ100009199999999GF103991999999999999999999
0029028970999991923051913004+64217+027767FM-12+014699999V0202701N001019999999N0000001N9+01441+99999099551ADDGF101991999999999999999999
0029028970999991923051920004+64217+027767FM-12+014699999V0202701N001019999999N0000001N9+00941+99999099461ADDGF107991999999999999999999
0046028970999991923052006004+64217+027767FM-12+014699999V0202301N001019999999N0000001N9+00781+99999099471ADDAJ100009199999999GF108991999999999999999999
0029028970999991923052013004+64217+027767FM-12+014699999V0202001N003119999999N0000001N9+01561+99999099501ADDGF103991999999999999999999
0029028970999991923052020004+64217+027767FM-12+014699999V0201801N001019999999N0000001N9+01061+99999099401ADDGF105991999999999999999999
0046028970999991923052106004+64217+027767FM-12+014699999V0202301N001019999999N0000001N9+00831+99999099551ADDAJ100009199999999GF106991999999999999999999
0029028970999991923052113004+64217+027767FM-12+014699999V0202301N003119999999N0000001N9+01501+99999099581ADDGF106991999999999999999999
0029028970999991923052120004+64217+027767FM-12+014699999V0202301N001019999999N0000001N9+01061+99999099681ADDGF108991999999999999999999
0046028970999991923052206004+64217+027767FM-12+014699999V0201601N003119999999N0000001N9+00941+99999099801ADDAJ100009199999999GF102991999999999999999999
0029028970999991923052213004+64217+027767FM-12+014699999V0201801N001019999999N0000001N9+01721+99999099551ADDGF105991999999999999999999
0029028970999991923052220004+64217+027767FM-12+014699999V0202001N001019999999N0000001N9+01171+99999099271ADDGF102991999999999999999999
0046028970999991923052306004+64217+027767FM-12+014699999V0200901N001019999999N0000001N9+01061+99999098831ADDAJ100009199999999GF101991999999999999999999
0035028970999991923052313004+64217+027767FM-12+014699999V0202001N001019999999N0000001N9+01001+99999098781ADDGF108991999999999999999999MW1601
0029028970999991923052320004+64217+027767FM-12+014699999V0202301N001019999999N0000001N9+00721+99999098701ADDGF108991999999999999999999
0046028970999991923052406004+64217+027767FM-12+014699999V0202301N001019999999N0000001N9+00721+99999098701ADDAJ100009199999999GF106991999999999999999999
0029028970999991923052413004+64217+027767FM-12+014699999V0202301N001019999999N0000001N9+01171+99999098711ADDGF106991999999999999999999
0029028970999991923052420004+64217+027767FM-12+014699999V0200901N001019999999N0000001N9+00671+99999098741ADDGF108991999999999999999999
0046028970999991923052506004+64217+027767FM-12+014699999V0203201N001019999999N0000001N9+00501+99999098311ADDAJ100009199999999GF108991999999999999999999
0029028970999991923052513004+64217+027767FM-12+014699999V0203201N001019999999N0000001N9+01171+99999098671ADDGF107991999999999999999999
0029028970999991923052520004+64217+027767FM-12+014699999V0203201N001019999999N0000001N9+00671+99999099341ADDGF106991999999999999999999
0046028970999991923052606004+64217+027767FM-12+014699999V0209991C000019999999N0000001N9+00831+99999100071ADDAJ100009199999999GF100991999999999999999999
0029028970999991923052613004+64217+027767FM-12+014699999V0202301N001019999999N0000001N9+01611+99999100261ADDGF106991999999999999999999
0029028970999991923052620004+64217+027767FM-12+014699999V0209991C000019999999N0000001N9+01171+99999100241ADDGF107991999999999999999999
0046028970999991923052706004+64217+027767FM-12+014699999V0202301N001019999999N0000001N9+01001+99999099951ADDAJ100009199999999GF106991999999999999999999
0029028970999991923052713004+64217+027767FM-12+014699999V0202301N003119999999N0000001N9+01391+99999099401ADDGF106991999999999999999999
0029028970999991923052720004+64217+027767FM-12+014699999V0202301N001019999999N0000001N9+00941+99999098901ADDGF106991999999999999999999
0046028970999991923052806004+64217+027767FM-12+014699999V0202701N003119999999N0000001N9+00501+99999098681ADDAJ100009199999999GF100991999999999999999999
0029028970999991923052813004+64217+027767FM-12+014699999V0202301N007219999999N0000001N9+00831+99999098561ADDGF101991999999999999999999
0029028970999991923052820004+64217+027767FM-12+014699999V0202901N003119999999N0000001N9+00501+99999098631ADDGF102991999999999999999999
0046028970999991923052906004+64217+027767FM-12+014699999V0202501N001019999999N0000001N9+00221+99999098741ADDAJ100009199999999GF108991999999999999999999
0029028970999991923052913004+64217+027767FM-12+014699999V0203201N003119999999N0000001N9+00501+99999098921ADDGF106991999999999999999999
0029028970999991923052920004+64217+027767FM-12+014699999V0203201N001019999999N0000001N9+00171+99999099031ADDGF108991999999999999999999
0046028970999991923053006004+64217+027767FM-12+014699999V0202301N001019999999N0000001N9+00111+99999099261ADDAJ100009199999999GF104991999999999999999999
0029028970999991923053013004+64217+027767FM-12+014699999V0202701N001019999999N0000001N9+00501+99999099541ADDGF106991999999999999999999
0029028970999991923053020004+64217+027767FM-12+014699999V0203201N001019999999N0000001N9+00281+99999099831ADDGF102991999999999999999999
0046028970999991923053106004+64217+027767FM-12+014699999V0203201N001019999999N0000001N9+00171+99999100041ADDAJ100009199999999GF107991999999999999999999
0029028970999991923053113004+64217+027767FM-12+014699999V0202701N001019999999N0000001N9+00671+99999099951ADDGF108991999999999999999999
0029028970999991923053120004+64217+027767FM-12+014699999V0202301N001019999999N0000001N9+00501+99999099551ADDGF105991999999999999999999
0046028970999991923060106004+64217+027767FM-12+014699999V0202301N001019999999N0000001N9+00281+99999099101ADDAJ100009199999999GF108991999999999999999999
0029028970999991923060113004+64217+027767FM-12+014699999V0202701N001019999999N0000001N9+00891+99999098951ADDGF102991999999999999999999
0029028970999991923060120004+64217+027767FM-12+014699999V0203201N001019999999N0000001N9+00561+99999098951ADDGF102991999999999999999999
0046028970999991923060206004+64217+027767FM-12+014699999V0203601N001019999999N0000001N9+00561+99999099001ADDAJ100009199999999GF101991999999999999999999
0029028970999991923060213004+64217+027767FM-12+014699999V0202501N003119999999N0000001N9+00721+99999098981ADDGF107991999999999999999999
0029028970999991923060220004+64217+027767FM-12+014699999V0202501N003119999999N0000001N9+00441+99999098791ADDGF107991999999999999999999
0046028970999991923060306004+64217+027767FM-12+014699999V0202501N001019999999N0000001N9+00331+99999098401ADDAJ100009199999999GF106991999999999999999999
0029028970999991923060313004+64217+027767FM-12+014699999V0202701N001019999999N0000001N9+00721+99999098221ADDGF105991999999999999999999
0029028970999991923060320004+64217+027767FM-12+014699999V0202001N001019999999N0000001N9+00441+99999098001ADDGF105991999999999999999999
0046028970999991923060406004+64217+027767FM-12+014699999V0202701N001019999999N0000001N9+00281+99999097821ADDAJ100009199999999GF108991999999999999999999
0029028970999991923060413004+64217+027767FM-12+014699999V0202701N001019999999N0000001N9+00831+99999097751ADDGF106991999999999999999999
0029028970999991923060420004+64217+027767FM-12+014699999V0202701N001019999999N0000001N9+00441+99999097821ADDGF105991999999999999999999
0046028970999991923060506004+64217+027767FM-12+014699999V0200501N001019999999N0000001N9+00391+99999097761ADDAJ100009199999999GF106991999999999999999999
0029028970999991923060513004+64217+027767FM-12+014699999V0202701N001019999999N0000001N9+00891+99999097741ADDGF103991999999999999999999
0029028970999991923060520004+64217+027767FM-12+014699999V0202501N001019999999N0000001N9+00441+99999097981ADDGF102991999999999999999999
0046028970999991923060606004+64217+027767FM-12+014699999V0203201N001019999999N0000001N9+00441+99999098161ADDAJ100009199999999GF101991999999999999999999
0029028970999991923060613004+64217+027767FM-12+014699999V0202701N001019999999N0000001N9+00891+99999098181ADDGF101991999999999999999999
0029028970999991923060620004+64217+027767FM-12+014699999V0209991C000019999999N0000001N9+00611+99999098261ADDGF102991999999999999999999
0046028970999991923060706004+64217+027767FM-12+014699999V0202501N001019999999N0000001N9+00721+99999098321ADDAJ100009199999999GF106991999999999999999999
0029028970999991923060713004+64217+027767FM-12+014699999V0202001N001019999999N0000001N9+00941+99999098121ADDGF107991999999999999999999
0029028970999991923060720004+64217+027767FM-12+014699999V0202501N001019999999N0000001N9+00281+99999098221ADDGF106991999999999999999999
0046028970999991923060806004+64217+027767FM-12+014699999V0202701N001019999999N0000001N9+00441+99999098541ADDAJ100009199999999GF105991999999999999999999
0029028970999991923060813004+64217+027767FM-12+014699999V0202701N001019999999N0000001N9+00891+99999098591ADDGF106991999999999999999999
0029028970999991923060820004+64217+027767FM-12+014699999V0202701N001019999999N0000001N9+00891+99999098541ADDGF103991999999999999999999
0046028970999991923060906004+64217+027767FM-12+014699999V0202001N001019999999N0000001N9+00671+99999097321ADDAJ100009199999999GF108991999999999999999999
0035028970999991923060913004+64217+027767FM-12+014699999V0202301N001019999999N0000001N9+00941+99999096701ADDGF108991999999999999999999MW1621
0029028970999991923060920004+64217+027767FM-12+014699999V0202701N003119999999N0000001N9+00561+99999097041ADDGF108991999999999999999999
0046028970999991923061006004+64217+027767FM-12+014699999V0202701N001019999999N0000001N9+00611+99999097561ADDAJ100009199999999GF106991999999999999999999
0029028970999991923061013004+64217+027767FM-12+014699999V0202501N003119999999N0000001N9+01061+99999097881ADDGF107991999999999999999999
0029028970999991923061020004+64217+027767FM-12+014699999V0202701N003119999999N0000001N9+00781+99999098241ADDGF105991999999999999999999
0046028970999991923061106004+64217+027767FM-12+014699999V0200501N001019999999N0000001N9+00831+99999098201ADDAJ100009199999999GF107991999999999999999999
0029028970999991923061113004+64217+027767FM-12+014699999V0202001N001019999999N0000001N9+00941+99999097981ADDGF106991999999999999999999
0029028970999991923061120004+64217+027767FM-12+014699999V0201101N001019999999N0000001N9+00671+99999097961ADDGF108991999999999999999999
0046028970999991923061206004+64217+027767FM-12+014699999V0200501N003119999999N0000001N9+00671+99999098101ADDAJ100009199999999GF108991999999999999999999
0035028970999991923061213004+64217+027767FM-12+014699999V0200501N003119999999N0000001N9+00671+99999098351ADDGF108991999999999999999999MW1621
0029028970999991923061220004+64217+027767FM-12+014699999V0200201N001019999999N0000001N9+00721+99999098511ADDGF108991999999999999999999
0046028970999991923061306004+64217+027767FM-12+014699999V0200501N003119999999N0000001N9+00441+99999098581ADDAJ100009199999999GF108991999999999999999999
0029028970999991923061313004+64217+027767FM-12+014699999V0203201N001019999999N0000001N9+00781+99999098541ADDGF107991999999999999999999
0035028970999991923061320004+64217+027767FM-12+014699999V0209991C000019999999N0000001N9+00671+99999098481ADDGF108991999999999999999999MW1621
0046028970999991923061406004+64217+027767FM-12+014699999V0209991C000019999999N0000001N9+00561+99999098661ADDAJ100009199999999GF108991999999999999999999
0029028970999991923061413004+64217+027767FM-12+014699999V0209991C000019999999N0000001N9+01001+99999098961ADDGF106991999999999999999999
0029028970999991923061420004+64217+027767FM-12+014699999V0209991C000019999999N0000001N9+00941+99999099141ADDGF102991999999999999999999
0046028970999991923061506004+64217+027767FM-12+014699999V0200501N002119999999N0000001N9+00891+99999099221ADDAJ100009199999999GF108991999999999999999999
0029028970999991923061513004+64217+027767FM-12+014699999V0201401N007219999999N0000001N9+01391+99999099121ADDGF108991999999999999999999
0029028970999991923061520004+64217+027767FM-12+014699999V0201401N003119999999N0000001N9+01061+99999099061ADDGF108991999999999999999999
0046028970999991923061606004+64217+027767FM-12+014699999V0201401N001019999999N0000001N9+01061+99999098921ADDAJ100009199999999GF108991999999999999999999
0029028970999991923061613004+64217+027767FM-12+014699999V0202001N003119999999N0000001N9+01561+99999098901ADDGF105991999999999999999999
0029028970999991923061620004+64217+027767FM-12+014699999V0202301N003119999999N0000001N9+00941+99999099061ADDGF106991999999999999999999
0046028970999991923061706004+64217+027767FM-12+014699999V0202301N001019999999N0000001N9+00941+99999099341ADDAJ100009199999999GF106991999999999999999999
0029028970999991923061713004+64217+027767FM-12+014699999V0202301N003119999999N0000001N9+01221+99999099671ADDGF108991999999999999999999
0035028970999991923061720004+64217+027767FM-12+014699999V0202301N003119999999N0000001N9+00941+99999099801ADDGF108991999999999999999999MW1621
0046028970999991923061806004+64217+027767FM-12+014699999V0202301N003119999999N0000001N9+01001+99999100111ADDAJ100009199999999GF102991999999999999999999
0029028970999991923061813004+64217+027767FM-12+014699999V0202001N001019999999N0000001N9+01441+99999100061ADDGF106991999999999999999999
0029028970999991923061820004+64217+027767FM-12+014699999V0202001N001019999999N0000001N9+01001+99999099911ADDGF108991999999999999999999
0046028970999991923061906004+64217+027767FM-12+014699999V0203201N001019999999N0000001N9+01001+99999099801ADDAJ100009199999999GF106991999999999999999999
0029028970999991923061913004+64217+027767FM-12+014699999V0209991C000019999999N0000001N9+01671+99999099681ADDGF106991999999999999999999
0029028970999991923061920004+64217+027767FM-12+014699999V0209991C000019999999N0000001N9+01501+99999099521ADDGF106991999999999999999999
0046028970999991923062006004+64217+027767FM-12+014699999V0209991C000019999999N0000001N9+01441+99999099351ADDAJ100009199999999GF103991999999999999999999
0029028970999991923062013004+64217+027767FM-12+014699999V0202301N005119999999N0000001N9+02281+99999099081ADDGF106991999999999999999999
0029028970999991923062020004+64217+027767FM-12+014699999V0201601N001019999999N0000001N9+01721+99999099031ADDGF106991999999999999999999
0046028970999991923062106004+64217+027767FM-12+014699999V0209991C000019999999N0000001N9+01561+99999098561ADDAJ100009199999999GF108991999999999999999999
0029028970999991923062113004+64217+027767FM-12+014699999V0201801N007219999999N0000001N9+02061+99999098341ADDGF106991999999999999999999
0029028970999991923062120004+64217+027767FM-12+014699999V0202001N001019999999N0000001N9+01331+99999098151ADDGF106991999999999999999999
0046028970999991923062206004+64217+027767FM-12+014699999V0201401N003119999999N0000001N9+01171+99999098101ADDAJ100009199999999GF108991999999999999999999
0029028970999991923062213004+64217+027767FM-12+014699999V0200901N002119999999N0000001N9+01611+99999097721ADDGF108991999999999999999999
0035028970999991923062220004+64217+027767FM-12+014699999V0209991C000019999999N0000001N9+01221+99999097301ADDGF108991999999999999999999MW1621
0046028970999991923062306004+64217+027767FM-12+014699999V0202301N001019999999N0000001N9+00831+99999096981ADDAJ100009199999999GF108991999999999999999999
0035028970999991923062313004+64217+027767FM-12+014699999V0202501N003119999999N0000001N9+00831+99999097031ADDGF108991999999999999999999MW1621
0035028970999991923062320004+64217+027767FM-12+014699999V0202301N001019999999N0000001N9+00561+99999097001ADDGF108991999999999999999999MW1621
0046028970999991923062406004+64217+027767FM-12+014699999V0202301N001019999999N0000001N9+00721+99999096781ADDAJ100009199999999GF108991999999999999999999
0029028970999991923062413004+64217+027767FM-12+014699999V0202501N001019999999N0000001N9+01061+99999096751ADDGF106991999999999999999999
0029028970999991923062420004+64217+027767FM-12+014699999V0209991C000019999999N0000001N9+00891+99999096821ADDGF105991999999999999999999
0046028970999991923062506004+64217+027767FM-12+014699999V0202701N003119999999N0000001N9+00941+99999097101ADDAJ100009199999999GF100991999999999999999999
0029028970999991923062513004+64217+027767FM-12+014699999V0202301N003119999999N0000001N9+00941+99999097301ADDGF105991999999999999999999
0029028970999991923062520004+64217+027767FM-12+014699999V0202301N001019999999N0000001N9+00721+99999097681ADDGF103991999999999999999999
0046028970999991923062606004+64217+027767FM-12+014699999V0202301N001019999999N0000001N9+01001+99999098271ADDAJ100009199999999GF103991999999999999999999
0029028970999991923062613004+64217+027767FM-12+014699999V0202301N007219999999N0000001N9+01331+99999098591ADDGF106991999999999999999999
0029028970999991923062620004+64217+027767FM-12+014699999V0202001N001019999999N0000001N9+00941+99999098991ADDGF107991999999999999999999
0046028970999991923062706004+64217+027767FM-12+014699999V0202001N001019999999N0000001N9+00891+99999099351ADDAJ100009199999999GF108991999999999999999999
0029028970999991923062713004+64217+027767FM-12+014699999V0202301N003119999999N0000001N9+01171+99999099671ADDGF106991999999999999999999
0029028970999991923062720004+64217+027767FM-12+014699999V0209991C000019999999N0000001N9+01061+99999099921ADDGF105991999999999999999999
0046028970999991923062806004+64217+027767FM-12+014699999V0202301N001019999999N0000001N9+01331+99999100061ADDAJ100009199999999GF100991999999999999999999
0029028970999991923062813004+64217+027767FM-12+014699999V0200501N003119999999N0000001N9+01611+99999099961ADDGF107991999999999999999999
0035028970999991923062820004+64217+027767FM-12+014699999V0200501N001019999999N0000001N9+01171+99999099741ADDGF108991999999999999999999MW1621
0046028970999991923062906004+64217+027767FM-12+014699999V0202501N001019999999N0000001N9+00941+99999099471ADDAJ100009199999999GF108991999999999999999999
0029028970999991923062913004+64217+027767FM-12+014699999V0202301N001019999999N0000001N9+01331+99999099721ADDGF106991999999999999999999
0029028970999991923062920004+64217+027767FM-12+014699999V0202301N001019999999N0000001N9+01281+99999099681ADDGF105991999999999999999999
0046028970999991923063006004+64217+027767FM-12+014699999V0202001N001019999999N0000001N9+01281+99999099751ADDAJ100009199999999GF100991999999999999999999
0029028970999991923063013004+64217+027767FM-12+014699999V0202501N001019999999N0000001N9+01781+99999099661ADDGF103991999999999999999999
0029028970999991923063020004+64217+027767FM-12+014699999V0201401N001019999999N0000001N9+01441+99999099601ADDGF101991999999999999999999
0046028970999991923070106004+64217+027767FM-12+014699999V0201101N001019999999N0000001N9+01171+99999099601ADDAJ100009199999999GF102991999999999999999999
0029028970999991923070113004+64217+027767FM-12+014699999V0201601N001019999999N0000001N9+01941+99999099441ADDGF105991999999999999999999
0029028970999991923070120004+64217+027767FM-12+014699999V0202301N001019999999N0000001N9+01441+99999099311ADDGF105991999999999999999999
0046028970999991923070206004+64217+027767FM-12+014699999V0202301N003119999999N0000001N9+01171+99999099241ADDAJ100009199999999GF106991999999999999999999
0029028970999991923070213004+64217+027767FM-12+014699999V0202301N003119999999N0000001N9+01501+99999099401ADDGF106991999999999999999999
0029028970999991923070220004+64217+027767FM-12+014699999V0202301N005119999999N0000001N9+01441+99999099461ADDGF105991999999999999999999
0046028970999991923070306004+64217+027767FM-12+014699999V0202301N001019999999N0000001N9+01441+99999099871ADDAJ100009199999999GF108991999999999999999999
0029028970999991923070313004+64217+027767FM-12+014699999V0202301N003119999999N0000001N9+01781+99999099941ADDGF106991999999999999999999
0029028970999991923070320004+64217+027767FM-12+014699999V0202001N001019999999N0000001N9+01831+99999099961ADDGF103991999999999999999999
0046028970999991923070406004+64217+027767FM-12+014699999V0202001N003119999999N0000001N9+01671+99999100181ADDAJ100009199999999GF103991999999999999999999
0029028970999991923070413004+64217+027767FM-12+014699999V0202001N003119999999N0000001N9+02281+99999100191ADDGF102991999999999999999999
0029028970999991923070420004+64217+027767FM-12+014699999V0202301N003119999999N0000001N9+01891+99999100191ADDGF108991999999999999999999
0046028970999991923070506004+64217+027767FM-12+014699999V0202301N005119999999N0000001N9+01721+99999100341ADDAJ100009199999999GF101991999999999999999999
0035028970999991923070513004+64217+027767FM-12+014699999V0202301N003119999999N0000001N9+02001+99999100381ADDGF106991999999999999999999MW1601
0029028970999991923070520004+64217+027767FM-12+014699999V0202301N003119999999N0000001N9+01941+99999100341ADDGF102991999999999999999999
0046028970999991923070606004+64217+027767FM-12+014699999V0202301N001019999999N0000001N9+01611+99999100601ADDAJ100009199999999GF101991999999999999999999
0029028970999991923070613004+64217+027767FM-12+014699999V0209991C000019999999N0000001N9+01441+99999100631ADDGF108991999999999999999999
0029028970999991923070620004+64217+027767FM-12+014699999V0209991C000019999999N0000001N9+01501+99999100471ADDGF102991999999999999999999
0046028970999991923070706004+64217+027767FM-12+014699999V0202901N001019999999N0000001N9+01391+99999100391ADDAJ100009199999999GF100991999999999999999999
0029028970999991923070713004+64217+027767FM-12+014699999V0202501N002119999999N0000001N9+01781+99999100301ADDGF106991999999999999999999
0029028970999991923070720004+64217+027767FM-12+014699999V0203201N003119999999N0000001N9+01561+99999100191ADDGF101991999999999999999999
0046028970999991923070806004+64217+027767FM-12+014699999V0202501N003119999999N0000001N9+01281+99999100111ADDAJ100009199999999GF106991999999999999999999
0029028970999991923070813004+64217+027767FM-12+014699999V0200501N003119999999N0000001N9+01721+99999100281ADDGF103991999999999999999999
0029028970999991923070820004+64217+027767FM-12+014699999V0200201N003119999999N0000001N9+01391+99999100561ADDGF100991999999999999999999
0046028970999991923070906004+64217+027767FM-12+014699999V0203401N001019999999N0000001N9+01501+99999100901ADDAJ100009199999999GF100991999999999999999999
0029028970999991923070913004+64217+027767FM-12+014699999V0202701N003119999999N0000001N9+01891+99999100861ADDGF101991999999999999999999
0029028970999991923070920004+64217+027767FM-12+014699999V0202701N001019999999N0000001N9+01671+99999100741ADDGF101991999999999999999999
0046028970999991923071006004+64217+027767FM-12+014699999V0203201N001019999999N0000001N9+01671+99999100781ADDAJ100009199999999GF101991999999999999999999
0029028970999991923071013004+64217+027767FM-12+014699999V0203201N001019999999N0000001N9+02281+99999100681ADDGF101991999999999999999999
0029028970999991923071020004+64217+027767FM-12+014699999V0202901N001019999999N0000001N9+01831+99999100561ADDGF102991999999999999999999
0046028970999991923071106004+64217+027767FM-12+014699999V0209991C000019999999N0000001N9+01891+99999100591ADDAJ100009199999999GF100991999999999999999999
0029028970999991923071113004+64217+027767FM-12+014699999V0202901N003119999999N0000001N9+02611+99999100471ADDGF101991999999999999999999
0029028970999991923071120004+64217+027767FM-12+014699999V0209991C000019999999N0000001N9+02061+99999100391ADDGF100991999999999999999999
0046028970999991923071206004+64217+027767FM-12+014699999V0209991C000019999999N0000001N9+01781+99999100261ADDAJ100009199999999GF103991999999999999999999
0029028970999991923071213004+64217+027767FM-12+014699999V0202701N003119999999N0000001N9+02331+99999999999ADDGF108991999999999999999999
0029028970999991923071220004+64217+027767FM-12+014699999V0203201N003119999999N0000001N9+01891+99999099711ADDGF101991999999999999999999
0046028970999991923071306004+64217+027767FM-12+014699999V0209991C000019999999N0000001N9+01891+99999099631ADDAJ100009199999999GF100991999999999999999999
0029028970999991923071313004+64217+027767FM-12+014699999V0202701N003119999999N0000001N9+02391+99999099501ADDGF102991999999999999999999
0035028970999991923071320004+64217+027767FM-12+014699999V0202701N003119999999N0000001N9+01941+99999099241ADDGF108991999999999999999999MW1621
0046028970999991923071406004+64217+027767FM-12+014699999V0203201N003119999999N0000001N9+01331+99999099041ADDAJ100009199999999GF106991999999999999999999
0029028970999991923071413004+64217+027767FM-12+014699999V0202701N007219999999N0000001N9+01671+99999098781ADDGF104991999999999999999999
0029028970999991923071420004+64217+027767FM-12+014699999V0202701N003119999999N0000001N9+01281+99999098671ADDGF105991999999999999999999
0046028970999991923071506004+64217+027767FM-12+014699999V0203201N003119999999N0000001N9+01171+99999098861ADDAJ100009199999999GF106991999999999999999999
0029028970999991923071513004+64217+027767FM-12+014699999V0203201N003119999999N0000001N9+01611+99999099151ADDGF103991999999999999999999
0029028970999991923071520004+64217+027767FM-12+014699999V0203201N003119999999N0000001N9+01501+99999099301ADDGF106991999999999999999999
0046028970999991923071606004+64217+027767FM-12+014699999V0203401N001019999999N0000001N9+01331+99999099671ADDAJ100009199999999GF101991999999999999999999
0029028970999991923071613004+64217+027767FM-12+014699999V0203201N001019999999N0000001N9+01891+99999099681ADDGF100991999999999999999999
0029028970999991923071620004+64217+027767FM-12+014699999V0202901N001019999999N0000001N9+01331+99999099641ADDGF100991999999999999999999
0046028970999991923071706004+64217+027767FM-12+014699999V0202701N001019999999N0000001N9+01721+99999099661ADDAJ100009199999999GF100991999999999999999999
0029028970999991923071713004+64217+027767FM-12+014699999V0202301N003119999999N0000001N9+02281+99999099551ADDGF102991999999999999999999
0029028970999991923071720004+64217+027767FM-12+014699999V0202001N001019999999N0000001N9+01721+99999099501ADDGF100991999999999999999999
0046028970999991923071806004+64217+027767FM-12+014699999V0201401N001019999999N0000001N9+01831+99999099541ADDAJ100009199999999GF100991999999999999999999
0029028970999991923071813004+64217+027767FM-12+014699999V0200201N003119999999N0000001N9+02061+99999099481ADDGF102991999999999999999999
0029028970999991923071820004+64217+027767FM-12+014699999V0200901N003119999999N0000001N9+01781+99999099391ADDGF103991999999999999999999
0046028970999991923071906004+64217+027767FM-12+014699999V0200201N001019999999N0000001N9+01721+99999099311ADDAJ100009199999999GF100991999999999999999999
0029028970999991923071913004+64217+027767FM-12+014699999V0200501N003119999999N0000001N9+02171+99999099101ADDGF100991999999999999999999
0029028970999991923071920004+64217+027767FM-12+014699999V0209991C000019999999N0000001N9+01671+99999098841ADDGF100991999999999999999999
0052028970999991923072006004+64217+027767FM-12+014699999V0200901N003119999999N0000001N9+01281+99999098581ADDAJ100009199999999GF108991999999999999999999MW1621
0029028970999991923072013004+64217+027767FM-12+014699999V0202501N001019999999N0000001N9+01831+99999098481ADDGF106991999999999999999999
0029028970999991923072020004+64217+027767FM-12+014699999V0202301N001019999999N0000001N9+01831+99999098381ADDGF105991999999999999999999
0052028970999991923072106004+64217+027767FM-12+014699999V0209991C000019999999N0000001N9+01391+99999098231ADDAJ100009199999999GF108991999999999999999999MW1621
0029028970999991923072113004+64217+027767FM-12+014699999V0200901N001019999999N0000001N9+01501+99999098141ADDGF108991999999999999999999
0029028970999991923072120004+64217+027767FM-12+014699999V0200501N001019999999N0000001N9+01331+99999097981ADDGF108991999999999999999999
0052028970999991923072206004+64217+027767FM-12+014699999V0209991C000019999999N0000001N9+01221+99999097381ADDAJ100009199999999GF108991999999999999999999MW1621
0035028970999991923072213004+64217+027767FM-12+014699999V0202301N005119999999N0000001N9+01281+99999097361ADDGF108991999999999999999999MW1621
0029028970999991923072220004+64217+027767FM-12+014699999V0202301N003119999999N0000001N9+01111+99999097711ADDGF102991999999999999999999
0046028970999991923072306004+64217+027767FM-12+014699999V0202301N001019999999N0000001N9+01171+99999097781ADDAJ100009199999999GF100991999999999999999999
0029028970999991923072313004+64217+027767FM-12+014699999V0201401N003119999999N0000001N9+01441+99999097941ADDGF106991999999999999999999
0035028970999991923072320004+64217+027767FM-12+014699999V0209991C000019999999N0000001N9+01001+99999097921ADDGF108991999999999999999999MW1621
0046028970999991923072406004+64217+027767FM-12+014699999V0209991C000019999999N0000001N9+00941+99999097841ADDAJ100009199999999GF108991999999999999999999
0029028970999991923072413004+64217+027767FM-12+014699999V0200501N003119999999N0000001N9+01721+99999097831ADDGF104991999999999999999999
0029028970999991923072420004+64217+027767FM-12+014699999V0209991C000019999999N0000001N9+01391+99999097671ADDGF105991999999999999999999
0052028970999991923072506004+64217+027767FM-12+014699999V0201401N003119999999N0000001N9+01331+99999097441ADDAJ100009199999999GF108991999999999999999999MW1621
0029028970999991923072513004+64217+027767FM-12+014699999V0202301N003119999999N0000001N9+01831+99999097541ADDGF105991999999999999999999
0029028970999991923072520004+64217+027767FM-12+014699999V0202001N003119999999N0000001N9+01331+99999097681ADDGF107991999999999999999999
0046028970999991923072606004+64217+027767FM-12+014699999V0201601N003119999999N0000001N9+01221+99999097841ADDAJ100009199999999GF108991999999999999999999
0029028970999991923072613004+64217+027767FM-12+014699999V0202301N001019999999N0000001N9+01781+99999097981ADDGF105991999999999999999999
0029028970999991923072620004+64217+027767FM-12+014699999V0201401N001019999999N0000001N9+01501+99999097991ADDGF102991999999999999999999
0046028970999991923072706004+64217+027767FM-12+014699999V0209991C000019999999N0000001N9+01441+99999097961ADDAJ100009199999999GF102991999999999999999999
0029028970999991923072713004+64217+027767FM-12+014699999V0209991C000019999999N0000001N9+01781+99999098031ADDGF104991999999999999999999
0029028970999991923072720004+64217+027767FM-12+014699999V0209991C000019999999N0000001N9+01441+99999097991ADDGF102991999999999999999999
0046028970999991923072806004+64217+027767FM-12+014699999V0200201N003119999999N0000001N9+01501+99999097951ADDAJ100009199999999GF101991999999999999999999
0029028970999991923072813004+64217+027767FM-12+014699999V0200501N005119999999N0000001N9+01941+99999097901ADDGF106991999999999999999999
0035028970999991923072820004+64217+027767FM-12+014699999V0209991C000019999999N0000001N9+01331+99999097781ADDGF108991999999999999999999MW1601
0052028970999991923072906004+64217+027767FM-12+014699999V0203201N001019999999N0000001N9+01391+99999097761ADDAJ100009199999999GF108991999999999999999999MW1621
0035028970999991923072913004+64217+027767FM-12+014699999V0209991C000019999999N0000001N9+01441+99999097871ADDGF108991999999999999999999MW1621
0029028970999991923072920004+64217+027767FM-12+014699999V0203201N003119999999N0000001N9+01331+99999097871ADDGF108991999999999999999999
0052028970999991923073006004+64217+027767FM-12+014699999V0202701N003119999999N0000001N9+01221+99999097911ADDAJ100009199999999GF108991999999999999999999MW1621
0035028970999991923073013004+64217+027767FM-12+014699999V0209991C000019999999N0000001N9+01171+99999097981ADDGF108991999999999999999999MW1621
0029028970999991923073020004+64217+027767FM-12+014699999V0209991C000019999999N0000001N9+01171+99999097951ADDGF108991999999999999999999
0046028970999991923073106004+64217+027767FM-12+014699999V0200201N001019999999N0000001N9+01061+99999097881ADDAJ100009199999999GF108991999999999999999999
0029028970999991923073113004+64217+027767FM-12+014699999V0209991C000019999999N0000001N9+01331+99999097951ADDGF108991999999999999999999
0029028970999991923073120004+64217+027767FM-12+014699999V0209991C000019999999N0000001N9+01111+99999097921ADDGF108991999999999999999999
0046028970999991923080106004+64217+027767FM-12+014699999V0200501N003119999999N0000001N9+01001+99999098021ADDAJ100009199999999GF108991999999999999999999
0029028970999991923080113004+64217+027767FM-12+014699999V0200501N005119999999N0000001N9+01221+99999098301ADDGF108991999999999999999999
0029028970999991923080120004+64217+027767FM-12+014699999V0200501N001019999999N0000001N9+01061+99999098461ADDGF108991999999999999999999
0046028970999991923080206004+64217+027767FM-12+014699999V0200501N005119999999N0000001N9+00941+99999098551ADDAJ100009199999999GF108991999999999999999999
0029028970999991923080213004+64217+027767FM-12+014699999V0200501N005119999999N0000001N9+01281+99999098581ADDGF108991999999999999999999
0029028970999991923080220004+64217+027767FM-12+014699999V0200201N003119999999N0000001N9+01001+99999098681ADDGF108991999999999999999999
0046028970999991923080306004+64217+027767FM-12+014699999V0200501N003119999999N0000001N9+00721+99999098941ADDAJ100009199999999GF108991999999999999999999
0029028970999991923080313004+64217+027767FM-12+014699999V0200201N001019999999N0000001N9+01061+99999099081ADDGF108991999999999999999999
0029028970999991923080320004+64217+027767FM-12+014699999V0203201N001019999999N0000001N9+01001+99999099191ADDGF105991999999999999999999
0046028970999991923080406004+64217+027767FM-12+014699999V0203401N001019999999N0000001N9+01001+99999099271ADDAJ100009199999999GF105991999999999999999999
0029028970999991923080413004+64217+027767FM-12+014699999V0200201N003119999999N0000001N9+01501+99999099301ADDGF102991999999999999999999
0029028970999991923080420004+64217+027767FM-12+014699999V0200501N001019999999N0000001N9+01001+99999099461ADDGF100991999999999999999999
0046028970999991923080506004+64217+027767FM-12+014699999V0203201N001019999999N0000001N9+01001+99999099561ADDAJ100009199999999GF103991999999999999999999
0029028970999991923080513004+64217+027767FM-12+014699999V0203201N003119999999N0000001N9+01671+99999099481ADDGF106991999999999999999999
0029028970999991923080520004+64217+027767FM-12+014699999V0203201N001019999999N0000001N9+01061+99999099401ADDGF102991999999999999999999
0046028970999991923080606004+64217+027767FM-12+014699999V0203201N003119999999N0000001N9+01061+99999099401ADDAJ100009199999999GF102991999999999999999999
0029028970999991923080613004+64217+027767FM-12+014699999V0200201N005119999999N0000001N9+01281+99999099401ADDGF106991999999999999999999
0029028970999991923080620004+64217+027767FM-12+014699999V0209991C000019999999N0000001N9+00891+99999099441ADDGF107991999999999999999999
0046028970999991923080706004+64217+027767FM-12+014699999V0200201N001019999999N0000001N9+00941+99999099431ADDAJ100009199999999GF100991999999999999999999
0029028970999991923080713004+64217+027767FM-12+014699999V0203201N003119999999N0000001N9+01221+99999099401ADDGF101991999999999999999999
0029028970999991923080720004+64217+027767FM-12+014699999V0203201N001019999999N0000001N9+01061+99999099271ADDGF101991999999999999999999
0046028970999991923080806004+64217+027767FM-12+014699999V0203201N005119999999N0000001N9+00941+99999099161ADDAJ100009199999999GF100991999999999999999999
0029028970999991923080813004+64217+027767FM-12+014699999V0203201N008719999999N0000001N9+01331+99999099081ADDGF106991999999999999999999
0029028970999991923080820004+64217+027767FM-12+014699999V0203201N001019999999N0000001N9+01061+99999099101ADDGF108991999999999999999999
0046028970999991923080906004+64217+027767FM-12+014699999V0203201N001019999999N0000001N9+00831+99999099271ADDAJ100009199999999GF108991999999999999999999
0029028970999991923080913004+64217+027767FM-12+014699999V0203201N003119999999N0000001N9+01281+99999099361ADDGF107991999999999999999999
0029028970999991923080920004+64217+027767FM-12+014699999V0203201N001019999999N0000001N9+01061+99999099361ADDGF101991999999999999999999
0046028970999991923081006004+64217+027767FM-12+014699999V0200501N001019999999N0000001N9+00941+99999099241ADDAJ100009199999999GF100991999999999999999999
0029028970999991923081013004+64217+027767FM-12+014699999V0200501N002119999999N0000001N9+01501+99999098761ADDGF102991999999999999999999
0035028970999991923081020004+64217+027767FM-12+014699999V0202001N001019999999N0000001N9+01221+99999098621ADDGF108991999999999999999999MW1601
0052028970999991923081106004+64217+027767FM-12+014699999V0200501N002119999999N0000001N9+00721+99999098391ADDAJ100009199999999GF108991999999999999999999MW1621
0029028970999991923081113004+64217+027767FM-12+014699999V0200501N002119999999N0000001N9+00831+99999098621ADDGF108991999999999999999999
0029028970999991923081120004+64217+027767FM-12+014699999V0200501N002119999999N0000001N9+00891+99999098781ADDGF108991999999999999999999
0046028970999991923081206004+64217+027767FM-12+014699999V0200501N002119999999N0000001N9+00561+99999099311ADDAJ100009199999999GF108991999999999999999999
0029028970999991923081213004+64217+027767FM-12+014699999V0202701N002119999999N0000001N9+01111+99999099431ADDGF102991999999999999999999
0029028970999991923081220004+64217+027767FM-12+014699999V0203201N001019999999N0000001N9+01111+99999099441ADDGF101991999999999999999999
0046028970999991923081306004+64217+027767FM-12+014699999V0203201N001019999999N0000001N9+00831+99999099511ADDAJ100009199999999GF106991999999999999999999
0029028970999991923081313004+64217+027767FM-12+014699999V0203201N005119999999N0000001N9+01281+99999099481ADDGF106991999999999999999999
0029028970999991923081320004+64217+027767FM-12+014699999V0203201N002119999999N0000001N9+00941+99999099421ADDGF102991999999999999999999
0046028970999991923081406004+64217+027767FM-12+014699999V0203201N002119999999N0000001N9+00561+99999099201ADDAJ100009199999999GF101991999999999999999999
0029028970999991923081413004+64217+027767FM-12+014699999V0203201N002119999999N0000001N9+01331+99999099081ADDGF101991999999999999999999
0029028970999991923081420004+64217+027767FM-12+014699999V0203201N001019999999N0000001N9+00941+99999099061ADDGF108991999999999999999999
0046028970999991923081506004+64217+027767FM-12+014699999V0202701N001019999999N0000001N9+00941+99999098921ADDAJ100009199999999GF108991999999999999999999
0029028970999991923081513004+64217+027767FM-12+014699999V0203201N001019999999N0000001N9+01441+99999098801ADDGF106991999999999999999999
0029028970999991923081520004+64217+027767FM-12+014699999V0202501N001019999999N0000001N9+01061+99999098621ADDGF106991999999999999999999
0046028970999991923081606004+64217+027767FM-12+014699999V0200501N001019999999N0000001N9+00941+99999098401ADDAJ100009199999999GF106991999999999999999999
0029028970999991923081613004+64217+027767FM-12+014699999V0200501N002119999999N0000001N9+01671+99999098161ADDGF103991999999999999999999
0029028970999991923081620004+64217+027767FM-12+014699999V0200501N003119999999N0000001N9+00941+99999097721ADDGF101991999999999999999999
0046028970999991923081706004+64217+027767FM-12+014699999V0203401N004119999999N0000001N9+00781+99999097271ADDAJ100009199999999GF108991999999999999999999
0029028970999991923081713004+64217+027767FM-12+014699999V0200201N004119999999N0000001N9+01111+99999097381ADDGF107991999999999999999999
0029028970999991923081720004+64217+027767FM-12+014699999V0203601N002119999999N0000001N9+00941+99999097551ADDGF108991999999999999999999
0046028970999991923081806004+64217+027767FM-12+014699999V0203201N002119999999N0000001N9+00611+99999097601ADDAJ100009199999999GF108991999999999999999999
0029028970999991923081813004+64217+027767FM-12+014699999V0203201N002119999999N0000001N9+00721+99999097791ADDGF108991999999999999999999
0029028970999991923081820004+64217+027767FM-12+014699999V0203201N001019999999N0000001N9+00721+99999097921ADDGF108991999999999999999999
0046028970999991923081906004+64217+027767FM-12+014699999V0203201N001019999999N0000001N9+00781+99999098321ADDAJ100009199999999GF108991999999999999999999
0029028970999991923081913004+64217+027767FM-12+014699999V0203201N001019999999N0000001N9+01061+99999098621ADDGF108991999999999999999999
0029028970999991923081920004+64217+027767FM-12+014699999V0203201N002119999999N0000001N9+00831+99999098841ADDGF108991999999999999999999
0046028970999991923082006004+64217+027767FM-12+014699999V0200201N001019999999N0000001N9+00891+99999099071ADDAJ100009199999999GF105991999999999999999999
0029028970999991923082013004+64217+027767FM-12+014699999V0200501N001019999999N0000001N9+01391+99999099081ADDGF103991999999999999999999
0029028970999991923082020004+64217+027767FM-12+014699999V0203201N001019999999N0000001N9+00611+99999099061ADDGF100991999999999999999999
0046028970999991923082106004+64217+027767FM-12+014699999V0200501N001019999999N0000001N9+00781+99999099111ADDAJ100009199999999GF100991999999999999999999
0029028970999991923082113004+64217+027767FM-12+014699999V0200501N001019999999N0000001N9+01611+99999099071ADDGF101991999999999999999999
0029028970999991923082120004+64217+027767FM-12+014699999V0203201N001019999999N0000001N9+00721+99999099121ADDGF102991999999999999999999
0046028970999991923082206004+64217+027767FM-12+014699999V0202501N001019999999N0000001N9+00941+99999099351ADDAJ100009199999999GF101991999999999999999999
0029028970999991923082213004+64217+027767FM-12+014699999V0202001N001019999999N0000001N9+01611+99999099361ADDGF102991999999999999999999
0029028970999991923082220004+64217+027767FM-12+014699999V0201401N002119999999N0000001N9+01111+99999099241ADDGF105991999999999999999999
0052028970999991923082306004+64217+027767FM-12+014699999V0201401N003119999999N0000001N9+01111+99999098701ADDAJ100009199999999GF108991999999999999999999MW1621
0029028970999991923082313004+64217+027767FM-12+014699999V0201401N002119999999N0000001N9+01281+99999098621ADDGF108991999999999999999999
0029028970999991923082320004+64217+027767FM-12+014699999V0201601N001019999999N0000001N9+01171+99999098721ADDGF102991999999999999999999
0046028970999991923082406004+64217+027767FM-12+014699999V0202301N002119999999N0000001N9+01001+99999098831ADDAJ100009199999999GF108991999999999999999999
0029028970999991923082413004+64217+027767FM-12+014699999V0201801N002119999999N0000001N9+01501+99999098791ADDGF106991999999999999999999
0029028970999991923082420004+64217+027767FM-12+014699999V0202301N001019999999N0000001N9+01061+99999098961ADDGF102991999999999999999999
0046028970999991923082506004+64217+027767FM-12+014699999V0202301N001019999999N0000001N9+01001+99999099221ADDAJ100009199999999GF100991999999999999999999
0029028970999991923082513004+64217+027767FM-12+014699999V0202301N003119999999N0000001N9+01781+99999099311ADDGF102991999999999999999999
0029028970999991923082520004+64217+027767FM-12+014699999V0201601N001019999999N0000001N9+01331+99999099261ADDGF108991999999999999999999
0046028970999991923082606004+64217+027767FM-12+014699999V0201401N005119999999N0000001N9+01331+99999098541ADDAJ100009199999999GF107991999999999999999999
0029028970999991923082613004+64217+027767FM-12+014699999V0201601N003119999999N0000001N9+01281+99999098481ADDGF108991999999999999999999
0029028970999991923082620004+64217+027767FM-12+014699999V0202301N001019999999N0000001N9+01331+99999098541ADDGF106991999999999999999999
0046028970999991923082706004+64217+027767FM-12+014699999V0202301N003119999999N0000001N9+01111+99999098881ADDAJ100009199999999GF103991999999999999999999
0029028970999991923082713004+64217+027767FM-12+014699999V0202301N001019999999N0000001N9+01331+99999099181ADDGF108991999999999999999999
0029028970999991923082720004+64217+027767FM-12+014699999V0201801N001019999999N0000001N9+01221+99999099221ADDGF108991999999999999999999
0052028970999991923082806004+64217+027767FM-12+014699999V0202001N003119999999N0000001N9+01221+99999099141ADDAJ100009199999999GF108991999999999999999999MW1621
0029028970999991923082813004+64217+027767FM-12+014699999V0201401N005119999999N0000001N9+01831+99999099001ADDGF103991999999999999999999
0035028970999991923082820004+64217+027767FM-12+014699999V0201401N005119999999N0000001N9+01331+99999098781ADDGF108991999999999999999999MW1621
0052028970999991923082906004+64217+027767FM-12+014699999V0202301N001019999999N0000001N9+01281+99999098601ADDAJ100009199999999GF108991999999999999999999MW1621
0029028970999991923082913004+64217+027767FM-12+014699999V0202301N003119999999N0000001N9+01781+99999098961ADDGF104991999999999999999999
0029028970999991923082920004+64217+027767FM-12+014699999V0202301N001019999999N0000001N9+01221+99999099201ADDGF103991999999999999999999
0046028970999991923083006004+64217+027767FM-12+014699999V0202001N001019999999N0000001N9+00891+99999099521ADDAJ100009199999999GF108991999999999999999999
