0035028970999991922010106004+64217+027767FM-12+014699999V0202701N003119999999N0000001N9-01001+99999097521ADDGF108991999999999999999999MW1481
0035028970999991922010113004+64217+027767FM-12+014699999V0202301N003119999999N0000001N9-01001+99999097311ADDGF108991999999999999999999MW1481
0035028970999991922010120004+64217+027767FM-12+014699999V0202301N007219999999N0000001N9-01001+99999096681ADDGF108991999999999999999999MW1481
0035028970999991922010206004+64217+027767FM-12+014699999V0201401N007219999999N0000001N9-01001+99999095191ADDGF108991999999999999999999MW1721
0029028970999991922010213004+64217+027767FM-12+014699999V0201401N007219999999N0000001N9-00891+99999095041ADDGF108991999999999999999999
0048028970999991922010220004+64217+027767FM-12+014699999V0201401N005119999999N0000001N9-00831+99999999999ADDGF108991999999999999999999EQDQ01 104923APOSLP
0029028970999991922010306004+64217+027767FM-12+014699999V0201101N005119999999N0000001N9-01061+99999095111ADDGF108991999999999999999999
0035028970999991922010313004+64217+027767FM-12+014699999V0200901N007219999999N0000001N9-00831+99999095181ADDGF108991999999999999999999MW1721
0029028970999991922010320004+64217+027767FM-12+014699999V0200901N007219999999N0000001N9-01061+99999095351ADDGF108991999999999999999999
0035028970999991922010406004+64217+027767FM-12+014699999V0201801N007219999999N0000001N9-00671+99999095201ADDGF108991999999999999999999MW1721
0029028970999991922010413004+64217+027767FM-12+014699999V0200501N007219999999N0000001N9-01111+99999096001ADDGF106991999999999999999999
0029028970999991922010420004+64217+027767FM-12+014699999V0200501N003119999999N0000001N9-01441+99999096861ADDGF100991999999999999999999
0029028970999991922010506004+64217+027767FM-12+014699999V0200501N003119999999N0000001N9-01221+99999097821ADDGF108991999999999999999999
0029028970999991922010513004+64217+027767FM-12+014699999V0200701N003119999999N0000001N9-00941+99999098391ADDGF108991999999999999999999
0029028970999991922010520004+64217+027767FM-12+014699999V0200701N003119999999N0000001N9-01061+99999098781ADDGF108991999999999999999999
0029028970999991922010606004+64217+027767FM-12+014699999V0200701N003119999999N0000001N9-01061+99999099001ADDGF108991999999999999999999
0029028970999991922010613004+64217+027767FM-12+014699999V0203601N003119999999N0000001N9-00721+99999098821ADDGF108991999999999999999999
0029028970999991922010620004+64217+027767FM-12+014699999V0203601N007219999999N0000001N9-00671+99999098641ADDGF108991999999999999999999
0029028970999991922010706004+64217+027767FM-12+014699999V0203201N003119999999N0000001N9-00941+99999098551ADDGF108991999999999999999999
0029028970999991922010713004+64217+027767FM-12+014699999V0209991C000019999999N0000001N9-00831+99999098671ADDGF108991999999999999999999
0029028970999991922010720004+64217+027767FM-12+014699999V0209991C000019999999N0000001N9-01111+99999098801ADDGF108991999999999999999999
0029028970999991922010806004+64217+027767FM-12+014699999V0203601N001019999999N0000001N9-01331+99999098921ADDGF108991999999999999999999
0029028970999991922010813004+64217+027767FM-12+014699999V0200201N001019999999N0000001N9-01221+99999099061ADDGF108991999999999999999999
0029028970999991922010820004+64217+027767FM-12+014699999V0209991C000019999999N0000001N9-01111+99999099201ADDGF108991999999999999999999
0029028970999991922010906004+64217+027767FM-12+014699999V0200701N007219999999N0000001N9-00331+99999099101ADDGF108991999999999999999999
0035028970999991922010913004+64217+027767FM-12+014699999V0201801N008719999999N0000001N9-00331+99999099311ADDGF108991999999999999999999MW1721
0035028970999991922010920004+64217+027767FM-12+014699999V0201801N007219999999N0000001N9-00331+99999099511ADDGF108991999999999999999999MW1721
0029028970999991922011006004+64217+027767FM-12+014699999V0201801N005119999999N0000001N9-00721+99999099381ADDGF108991999999999999999999
0029028970999991922011013004+64217+027767FM-12+014699999V0201101N005119999999N0000001N9-01001+99999098881ADDGF104991999999999999999999
0029028970999991922011020004+64217+027767FM-12+014699999V0200901N011819999999N0000001N9-01061+99999098601ADDGF100991999999999999999999
0035028970999991922011106004+64217+027767FM-12+014699999V0200901N008719999999N0000001N9-01061+99999098501ADDGF108991999999999999999999MW1721
0029028970999991922011113004+64217+027767FM-12+014699999V0200901N005119999999N0000001N9-01281+99999098441ADDGF106991999999999999999999
0029028970999991922011120004+64217+027767FM-12+014699999V0200901N005119999999N0000001N9-01171+99999098711ADDGF108991999999999999999999
0029028970999991922011206004+64217+027767FM-12+014699999V0200501N003119999999N0000001N9-01611+99999099461ADDGF108991999999999999999999
0029028970999991922011213004+64217+027767FM-12+014699999V0200901N001019999999N0000001N9-01281+99999100111ADDGF108991999999999999999999
0029028970999991922011220004+64217+027767FM-12+014699999V0209991C000019999999N0000001N9-01111+99999100861ADDGF108991999999999999999999
0029028970999991922011306004+64217+027767FM-12+014699999V0200901N003119999999N0000001N9-01001+99999101321ADDGF108991999999999999999999
0029028970999991922011313004+64217+027767FM-12+014699999V0200901N003119999999N0000001N9-00941+99999101701ADDGF108991999999999999999999
0029028970999991922011320004+64217+027767FM-12+014699999V0200901N001019999999N0000001N9-01061+99999101871ADDGF108991999999999999999999
0029028970999991922011406004+64217+027767FM-12+014699999V0200901N003119999999N0000001N9-01111+99999101981ADDGF108991999999999999999999
0029028970999991922011413004+64217+027767FM-12+014699999V0200501N003119999999N0000001N9-00941+99999102001ADDGF108991999999999999999999
0029028970999991922011420004+64217+027767FM-12+014699999V0200501N003119999999N0000001N9-01061+99999101991ADDGF102991999999999999999999
0029028970999991922011506004+64217+027767FM-12+014699999V0200501N007219999999N0000001N9-01331+99999101951ADDGF104991999999999999999999
0029028970999991922011513004+64217+027767FM-12+014699999V0200901N008719999999N0000001N9-01391+99999101981ADDGF101991999999999999999999
0029028970999991922011520004+64217+027767FM-12+014699999V0200901N003119999999N0000001N9-01281+99999101921ADDGF100991999999999999999999
0029028970999991922011606004+64217+027767FM-12+014699999V0200501N003119999999N0000001N9-01501+99999101301ADDGF106991999999999999999999
0029028970999991922011613004+64217+027767FM-12+014699999V0200501N003119999999N0000001N9-01221+99999100881ADDGF108991999999999999999999
0029028970999991922011620004+64217+027767FM-12+014699999V0200501N008719999999N0000001N9-01001+99999100501ADDGF108991999999999999999999
0029028970999991922011706004+64217+027767FM-12+014699999V0200901N007219999999N0000001N9-01611+99999100881ADDGF108991999999999999999999
0029028970999991922011713004+64217+027767FM-12+014699999V0200701N007219999999N0000001N9-01611+99999101041ADDGF108991999999999999999999
0029028970999991922011720004+64217+027767FM-12+014699999V0200701N003119999999N0000001N9-01611+99999100921ADDGF108991999999999999999999
0029028970999991922011806004+64217+027767FM-12+014699999V0200901N005119999999N0000001N9-01331+99999100921ADDGF108991999999999999999999
0035028970999991922011813004+64217+027767FM-12+014699999V0200501N003119999999N0000001N9-01671+99999100921ADDGF108991999999999999999999MW1721
0029028970999991922011820004+64217+027767FM-12+014699999V0200501N003119999999N0000001N9-01561+99999101121ADDGF108991999999999999999999
0029028970999991922011906004+64217+027767FM-12+014699999V0200501N003119999999N0000001N9-01441+99999101061ADDGF108991999999999999999999
0035028970999991922011913004+64217+027767FM-12+014699999V0200901N003119999999N0000001N9-01391+99999101071ADDGF108991999999999999999999MW1701
0029028970999991922011920004+64217+027767FM-12+014699999V0200501N003119999999N0000001N9-01561+99999101081ADDGF108991999999999999999999
0029028970999991922012006004+64217+027767FM-12+014699999V0200501N003119999999N0000001N9-01501+99999101151ADDGF108991999999999999999999
0029028970999991922012013004+64217+027767FM-12+014699999V0209991C000019999999N0000001N9-01831+99999101401ADDGF100991999999999999999999
0029028970999991922012020004+64217+027767FM-12+014699999V0209991C000019999999N0000001N9-02281+99999101661ADDGF100991999999999999999999
0029028970999991922012106004+64217+027767FM-12+014699999V0209991C000019999999N0000001N9-01941+99999101981ADDGF108991999999999999999999
0029028970999991922012113004+64217+027767FM-12+014699999V0200901N001019999999N0000001N9-01501+99999102151ADDGF103991999999999999999999
0029028970999991922012120004+64217+027767FM-12+014699999V0200901N001019999999N0000001N9-01831+99999102231ADDGF100991999999999999999999
0029028970999991922012206004+64217+027767FM-12+014699999V0209991C000019999999N0000001N9-01561+99999102241ADDGF100991999999999999999999
0035028970999991922012213004+64217+027767FM-12+014699999V0202301N003119999999N0000001N9-01391+99999102231ADDGF108991999999999999999999MW1721
0029028970999991922012220004+64217+027767FM-12+014699999V0202301N003119999999N0000001N9-01001+99999102301ADDGF108991999999999999999999
0035028970999991922012306004+64217+027767FM-12+014699999V0202301N003119999999N0000001N9-00721+99999102361ADDGF108991999999999999999999MW1901
0029028970999991922012313004+64217+027767FM-12+014699999V0202301N003119999999N0000001N9-00561+99999102311ADDGF108991999999999999999999
0029028970999991922012320004+64217+027767FM-12+014699999V0209991C000019999999N0000001N9-00501+99999102061ADDGF108991999999999999999999
0029028970999991922012406004+64217+027767FM-12+014699999V0202301N001019999999N0000001N9-00721+99999101941ADDGF108991999999999999999999
0029028970999991922012413004+64217+027767FM-12+014699999V0203201N001019999999N0000001N9-00611+99999102231ADDGF108991999999999999999999
0029028970999991922012420004+64217+027767FM-12+014699999V0203201N001019999999N0000001N9-00721+99999102301ADDGF108991999999999999999999
0029028970999991922012506004+64217+027767FM-12+014699999V0209991C000019999999N0000001N9-00781+99999101991ADDGF108991999999999999999999
0029028970999991922012513004+64217+027767FM-12+014699999V0202901N003119999999N0000001N9-00671+99999101901ADDGF108991999999999999999999
0029028970999991922012520004+64217+027767FM-12+014699999V0202901N003119999999N0000001N9-00561+99999101441ADDGF108991999999999999999999
0035028970999991922012606004+64217+027767FM-12+014699999V0202901N003119999999N0000001N9-00611+99999101191ADDGF108991999999999999999999MW1481
0035028970999991922012613004+64217+027767FM-12+014699999V0202901N003119999999N0000001N9-00721+99999101021ADDGF108991999999999999999999MW1481
0029028970999991922012620004+64217+027767FM-12+014699999V0209991C000019999999N0000001N9-00891+99999100871ADDGF108991999999999999999999
0029028970999991922012706004+64217+027767FM-12+014699999V0202901N003119999999N0000001N9-00891+99999100581ADDGF108991999999999999999999
0029028970999991922012713004+64217+027767FM-12+014699999V0203201N003119999999N0000001N9-00781+99999100581ADDGF108991999999999999999999
0029028970999991922012720004+64217+027767FM-12+014699999V0203201N003119999999N0000001N9-00781+99999100441ADDGF108991999999999999999999
0029028970999991922012806004+64217+027767FM-12+014699999V0209991C000019999999N0000001N9-00671+99999100161ADDGF108991999999999999999999
0029028970999991922012813004+64217+027767FM-12+014699999V0202701N003119999999N0000001N9-00501+99999099941ADDGF108991999999999999999999
0029028970999991922012820004+64217+027767FM-12+014699999V0202701N003119999999N0000001N9-00561+99999099751ADDGF108991999999999999999999
0029028970999991922012906004+64217+027767FM-12+014699999V0202701N003119999999N0000001N9-00671+99999099541ADDGF108991999999999999999999
0029028970999991922012913004+64217+027767FM-12+014699999V0202701N001019999999N0000001N9-00781+99999099621ADDGF108991999999999999999999
0029028970999991922012920004+64217+027767FM-12+014699999V0202701N001019999999N0000001N9-00891+99999099551ADDGF108991999999999999999999
0029028970999991922013006004+64217+027767FM-12+014699999V0202701N001019999999N0000001N9-00891+99999099161ADDGF108991999999999999999999
0029028970999991922013013004+64217+027767FM-12+014699999V0202701N003119999999N0000001N9-00721+99999099061ADDGF108991999999999999999999
0029028970999991922013020004+64217+027767FM-12+014699999V0209991C000019999999N0000001N9-00721+99999099021ADDGF108991999999999999999999
0029028970999991922013106004+64217+027767FM-12+014699999V0209991C000019999999N0000001N9-00611+99999099101ADDGF108991999999999999999999
0035028970999991922013113004+64217+027767FM-12+014699999V0202701N001019999999N0000001N9-00611+99999099161ADDGF108991999999999999999999MW1701
0029028970999991922013120004+64217+027767FM-12+014699999V0209991C000019999999N0000001N9-01221+99999099471ADDGF100991999999999999999999
0029028970999991922020106004+64217+027767FM-12+014699999V0209991C000019999999N0000001N9-02441+99999099781ADDGF100991999999999999999999
0029028970999991922020113004+64217+027767FM-12+014699999V0200501N001019999999N0000001N9-01891+99999100071ADDGF100991999999999999999999
0029028970999991922020120004+64217+027767FM-12+014699999V0209991C000019999999N0000001N9-02611+99999100231ADDGF100991999999999999999999
0029028970999991922020206004+64217+027767FM-12+014699999V0200501N001019999999N0000001N9-01561+99999100751ADDGF108991999999999999999999
0029028970999991922020213004+64217+027767FM-12+014699999V0200501N001019999999N0000001N9-01561+99999100821ADDGF100991999999999999999999
0029028970999991922020220004+64217+027767FM-12+014699999V0209991C000019999999N0000001N9-02671+99999101071ADDGF100991999999999999999999
0029028970999991922020306004+64217+027767FM-12+014699999V0200501N003119999999N0000001N9-02561+99999100641ADDGF100991999999999999999999
0029028970999991922020313004+64217+027767FM-12+014699999V0200901N001019999999N0000001N9-02281+99999100601ADDGF100991999999999999999999
0029028970999991922020320004+64217+027767FM-12+014699999V0209991C000019999999N0000001N9-02941+99999100541ADDGF100991999999999999999999
0029028970999991922020406004+64217+027767FM-12+014699999V0209991C000019999999N0000001N9-02941+99999100421ADDGF100991999999999999999999
0029028970999991922020413004+64217+027767FM-12+014699999V0200901N003119999999N0000001N9-02331+99999100621ADDGF100991999999999999999999
0029028970999991922020420004+64217+027767FM-12+014699999V0200901N003119999999N0000001N9-02611+99999100661ADDGF100991999999999999999999
0029028970999991922020506004+64217+027767FM-12+014699999V0200901N003119999999N0000001N9-02611+99999100821ADDGF100991999999999999999999
0029028970999991922020513004+64217+027767FM-12+014699999V0209991C000019999999N0000001N9-01891+99999100781ADDGF100991999999999999999999
0029028970999991922020520004+64217+027767FM-12+014699999V0209991C000019999999N0000001N9-02441+99999100841ADDGF100991999999999999999999
0029028970999991922020606004+64217+027767FM-12+014699999V0201401N001019999999N0000001N9-02941+99999100961ADDGF100991999999999999999999
0029028970999991922020613004+64217+027767FM-12+014699999V0200901N001019999999N0000001N9-02281+99999101401ADDGF100991999999999999999999
0029028970999991922020620004+64217+027767FM-12+014699999V0200901N001019999999N0000001N9-02061+99999101561ADDGF108991999999999999999999
0029028970999991922020706004+64217+027767FM-12+014699999V0200901N001019999999N0000001N9-02611+99999101581ADDGF100991999999999999999999
0029028970999991922020713004+64217+027767FM-12+014699999V0200901N003119999999N0000001N9-01941+99999101421ADDGF106991999999999999999999
0029028970999991922020720004+64217+027767FM-12+014699999V0200901N001019999999N0000001N9-01891+99999100991ADDGF108991999999999999999999
0029028970999991922020806004+64217+027767FM-12+014699999V0209991C000019999999N0000001N9-01671+99999100281ADDGF108991999999999999999999
0035028970999991922020813004+64217+027767FM-12+014699999V0202301N003119999999N0000001N9-01611+99999100361ADDGF108991999999999999999999MW1721
0029028970999991922020820004+64217+027767FM-12+014699999V0202301N001019999999N0000001N9-01391+99999100321ADDGF108991999999999999999999
0029028970999991922020906004+64217+027767FM-12+014699999V0202301N001019999999N0000001N9-00941+99999099631ADDGF108991999999999999999999
0029028970999991922020913004+64217+027767FM-12+014699999V0202501N003119999999N0000001N9-00331+99999100111ADDGF100991999999999999999999
0029028970999991922020920004+64217+027767FM-12+014699999V0209991C000019999999N0000001N9-00611+99999100621ADDGF100991999999999999999999
0029028970999991922021006004+64217+027767FM-12+014699999V0209991C000019999999N0000001N9-01061+99999101241ADDGF100991999999999999999999
0029028970999991922021013004+64217+027767FM-12+014699999V0202701N001019999999N0000001N9-00391+99999101231ADDGF102991999999999999999999
0029028970999991922021020004+64217+027767FM-12+014699999V0202301N008719999999N0000001N9-00281+99999100911ADDGF104991999999999999999999
0029028970999991922021106004+64217+027767FM-12+014699999V0202301N007219999999N0000001N9-00221+99999099881ADDGF108991999999999999999999
0029028970999991922021113004+64217+027767FM-12+014699999V0202701N007219999999N0000001N9+00001+99999099441ADDGF108991999999999999999999
0029028970999991922021120004+64217+027767FM-12+014699999V0202701N003119999999N0000001N9+00061+99999099151ADDGF108991999999999999999999
0029028970999991922021206004+64217+027767FM-12+014699999V0209991C000019999999N0000001N9-00221+99999099321ADDGF108991999999999999999999
0029028970999991922021213004+64217+027767FM-12+014699999V0202701N001019999999N0000001N9+00171+99999099341ADDGF104991999999999999999999
0029028970999991922021220004+64217+027767FM-12+014699999V0209991C000019999999N0000001N9+00001+99999099241ADDGF104991999999999999999999
0029028970999991922021306004+64217+027767FM-12+014699999V0209991C000019999999N0000001N9-00221+99999099231ADDGF108991999999999999999999
0029028970999991922021313004+64217+027767FM-12+014699999V0202701N001019999999N0000001N9+00111+99999099351ADDGF102991999999999999999999
0029028970999991922021320004+64217+027767FM-12+014699999V0209991C000019999999N0000001N9-00441+99999099221ADDGF108991999999999999999999
0029028970999991922021406004+64217+027767FM-12+014699999V0200901N003119999999N0000001N9-00281+99999098701ADDGF108991999999999999999999
0029028970999991922021413004+64217+027767FM-12+014699999V0201601N001019999999N0000001N9-00331+99999098591ADDGF106991999999999999999999
0029028970999991922021420004+64217+027767FM-12+014699999V0209991C000019999999N0000001N9-00441+99999098421ADDGF108991999999999999999999
0035028970999991922021506004+64217+027767FM-12+014699999V0201401N001019999999N0000001N9-00391+99999098081ADDGF108991999999999999999999MW1701
0035028970999991922021513004+64217+027767FM-12+014699999V0201401N001019999999N0000001N9-00561+99999098181ADDGF108991999999999999999999MW1701
0029028970999991922021520004+64217+027767FM-12+014699999V0209991C000019999999N0000001N9-00721+99999098361ADDGF108991999999999999999999
0029028970999991922021606004+64217+027767FM-12+014699999V0200901N001019999999N0000001N9-00891+99999098871ADDGF108991999999999999999999
0035028970999991922021613004+64217+027767FM-12+014699999V0200901N001019999999N0000001N9-00831+99999099361ADDGF108991999999999999999999MW1701
0029028970999991922021620004+64217+027767FM-12+014699999V0209991C000019999999N0000001N9-00941+99999099481ADDGF108991999999999999999999
0029028970999991922021706004+64217+027767FM-12+014699999V0209991C000019999999N0000001N9-01111+99999099591ADDGF108991999999999999999999
0035028970999991922021713004+64217+027767FM-12+014699999V0203201N001019999999N0000001N9-00781+99999099511ADDGF108991999999999999999999MW1721
0029028970999991922021720004+64217+027767FM-12+014699999V0202701N001019999999N0000001N9-00891+99999099381ADDGF108991999999999999999999
0029028970999991922021806004+64217+027767FM-12+014699999V0209991C000019999999N0000001N9-01001+99999099151ADDGF108991999999999999999999
0029028970999991922021813004+64217+027767FM-12+014699999V0209991C000019999999N0000001N9-00891+99999099081ADDGF107991999999999999999999
0029028970999991922021820004+64217+027767FM-12+014699999V0209991C000019999999N0000001N9-01111+99999099031ADDGF108991999999999999999999
0029028970999991922021906004+64217+027767FM-12+014699999V0209991C000019999999N0000001N9-01221+99999098901ADDGF108991999999999999999999
0029028970999991922021913004+64217+027767FM-12+014699999V0200901N003119999999N0000001N9-00891+99999098621ADDGF108991999999999999999999
0035028970999991922021920004+64217+027767FM-12+014699999V0200901N003119999999N0000001N9-00891+99999098561ADDGF108991999999999999999999MW1721
0035028970999991922022006004+64217+027767FM-12+014699999V0200901N001019999999N0000001N9-00941+99999098541ADDGF108991999999999999999999MW1701
0035028970999991922022013004+64217+027767FM-12+014699999V0200901N003119999999N0000001N9-00721+99999098551ADDGF108991999999999999999999MW1701
0029028970999991922022020004+64217+027767FM-12+014699999V0209991C000019999999N0000001N9-00891+99999098701ADDGF108991999999999999999999
0029028970999991922022106004+64217+027767FM-12+014699999V0200501N003119999999N0000001N9-00891+99999098621ADDGF108991999999999999999999
0029028970999991922022113004+64217+027767FM-12+014699999V0200501N001019999999N0000001N9-00831+99999098801ADDGF108991999999999999999999
0029028970999991922022120004+64217+027767FM-12+014699999V0209991C000019999999N0000001N9-01831+99999099041ADDGF100991999999999999999999
0029028970999991922022206004+64217+027767FM-12+014699999V0200501N001019999999N0000001N9-01611+99999099321ADDGF108991999999999999999999
0035028970999991922022213004+64217+027767FM-12+014699999V0202301N001019999999N0000001N9-00891+99999099471ADDGF106991999999999999999999MW1721
0029028970999991922022220004+64217+027767FM-12+014699999V0201801N001019999999N0000001N9-00781+99999099441ADDGF108991999999999999999999
0029028970999991922022306004+64217+027767FM-12+014699999V0202001N001019999999N0000001N9-00331+99999099241ADDGF108991999999999999999999
0035028970999991922022313004+64217+027767FM-12+014699999V0201801N003119999999N0000001N9-00331+99999099041ADDGF108991999999999999999999MW1721
0029028970999991922022320004+64217+027767FM-12+014699999V0201801N001019999999N0000001N9-00331+99999098821ADDGF108991999999999999999999
0029028970999991922022406004+64217+027767FM-12+014699999V0201801N001019999999N0000001N9-00281+99999098761ADDGF108991999999999999999999
0029028970999991922022413004+64217+027767FM-12+014699999V0202301N003119999999N0000001N9-00111+99999098881ADDGF108991999999999999999999
0029028970999991922022420004+64217+027767FM-12+014699999V0202301N001019999999N0000001N9-00171+99999099111ADDGF108991999999999999999999
0029028970999991922022506004+64217+027767FM-12+014699999V0201801N003119999999N0000001N9-00111+99999098911ADDGF108991999999999999999999
0035028970999991922022513004+64217+027767FM-12+014699999V0201801N003119999999N0000001N9-00111+99999098541ADDGF108991999999999999999999MW1721
0029028970999991922022520004+64217+027767FM-12+014699999V0201801N005119999999N0000001N9+00061+99999098061ADDGF108991999999999999999999
0029028970999991922022606004+64217+027767FM-12+014699999V0202501N003119999999N0000001N9+00061+99999097861ADDGF106991999999999999999999
0029028970999991922022613004+64217+027767FM-12+014699999V0202701N003119999999N0000001N9+00281+99999097911ADDGF102991999999999999999999
0029028970999991922022620004+64217+027767FM-12+014699999V0209991C000019999999N0000001N9-00111+99999097461ADDGF108991999999999999999999
0029028970999991922022706004+64217+027767FM-12+014699999V0209991C000019999999N0000001N9-00941+99999097581ADDGF108991999999999999999999
0029028970999991922022713004+64217+027767FM-12+014699999V0209991C000019999999N0000001N9+00001+99999097801ADDGF100991999999999999999999
0029028970999991922022720004+64217+027767FM-12+014699999V0209991C000019999999N0000001N9-00611+99999097581ADDGF108991999999999999999999
0035028970999991922022806004+64217+027767FM-12+014699999V0200701N003119999999N0000001N9-00281+99999096991ADDGF108991999999999999999999MW1721
0029028970999991922022813004+64217+027767FM-12+014699999V0200501N001019999999N0000001N9+00111+99999097021ADDGF108991999999999999999999
0029028970999991922022820004+64217+027767FM-12+014699999V0200501N001019999999N0000001N9-00281+99999097441ADDGF108991999999999999999999
0029028970999991922030106004+64217+027767FM-12+014699999V0200501N003119999999N0000001N9-00721+99999097871ADDGF108991999999999999999999
0035028970999991922030113004+64217+027767FM-12+014699999V0200901N003119999999N0000001N9-00611+99999098151ADDGF108991999999999999999999MW1721
0029028970999991922030120004+64217+027767FM-12+014699999V0209991C000019999999N0000001N9-00611+99999098181ADDGF108991999999999999999999
0029028970999991922030206004+64217+027767FM-12+014699999V0209991C000019999999N0000001N9-01111+99999098351ADDGF108991999999999999999999
0029028970999991922030213004+64217+027767FM-12+014699999V0209991C000019999999N0000001N9-00501+99999098631ADDGF108991999999999999999999
0029028970999991922030220004+64217+027767FM-12+014699999V0209991C000019999999N0000001N9-00611+99999098761ADDGF108991999999999999999999
0029028970999991922030306004+64217+027767FM-12+014699999V0209991C000019999999N0000001N9-00831+99999099001ADDGF108991999999999999999999
0029028970999991922030313004+64217+027767FM-12+014699999V0200701N001019999999N0000001N9-00561+99999099181ADDGF108991999999999999999999
0029028970999991922030320004+64217+027767FM-12+014699999V0209991C000019999999N0000001N9-00671+99999099231ADDGF108991999999999999999999
0029028970999991922030406004+64217+027767FM-12+014699999V0200901N001019999999N0000001N9-00721+99999099041ADDGF108991999999999999999999
0029028970999991922030413004+64217+027767FM-12+014699999V0201401N001019999999N0000001N9-00501+99999098701ADDGF108991999999999999999999
0035028970999991922030420004+64217+027767FM-12+014699999V0201401N005119999999N0000001N9-00391+99999098181ADDGF108991999999999999999999MW1701
0035028970999991922030506004+64217+027767FM-12+014699999V0201401N005119999999N0000001N9-00441+99999097681ADDGF108991999999999999999999MW1721
0029028970999991922030513004+64217+027767FM-12+014699999V0202301N001019999999N0000001N9-00221+99999097471ADDGF108991999999999999999999
0029028970999991922030520004+64217+027767FM-12+014699999V0202301N003119999999N0000001N9-00561+99999097681ADDGF108991999999999999999999
0029028970999991922030606004+64217+027767FM-12+014699999V0209991C000019999999N0000001N9-00721+99999097601ADDGF108991999999999999999999
0029028970999991922030613004+64217+027767FM-12+014699999V0200501N001019999999N0000001N9-00441+99999097181ADDGF108991999999999999999999
0029028970999991922030620004+64217+027767FM-12+014699999V0200501N001019999999N0000001N9-00611+99999096981ADDGF108991999999999999999999
0035028970999991922030706004+64217+027767FM-12+014699999V0200701N003119999999N0000001N9-00831+99999097041ADDGF108991999999999999999999MW1721
0035028970999991922030713004+64217+027767FM-12+014699999V0200501N001019999999N0000001N9-00501+99999096661ADDGF108991999999999999999999MW1721
0029028970999991922030720004+64217+027767FM-12+014699999V0200501N001019999999N0000001N9-00941+99999097401ADDGF108991999999999999999999
0029028970999991922030806004+64217+027767FM-12+014699999V0209991C000019999999N0000001N9-01501+99999097841ADDGF106991999999999999999999
0029028970999991922030813004+64217+027767FM-12+014699999V0201101N001019999999N0000001N9-01001+99999097561ADDGF108991999999999999999999
0035028970999991922030820004+64217+027767FM-12+014699999V0200901N005119999999N0000001N9-00891+99999097241ADDGF108991999999999999999999MW1721
0035028970999991922030906004+64217+027767FM-12+014699999V0200201N003119999999N0000001N9-00831+99999097191ADDGF108991999999999999999999MW1721
0035028970999991922030913004+64217+027767FM-12+014699999V0203601N007219999999N0000001N9-00721+99999097501ADDGF108991999999999999999999MW1721
0029028970999991922030920004+64217+027767FM-12+014699999V0203601N005119999999N0000001N9-00831+99999098031ADDGF108991999999999999999999
0029028970999991922031006004+64217+027767FM-12+014699999V0209991C000019999999N0000001N9-00831+99999098721ADDGF108991999999999999999999
0029028970999991922031013004+64217+027767FM-12+014699999V0203201N003119999999N0000001N9-00441+99999098941ADDGF108991999999999999999999
0029028970999991922031020004+64217+027767FM-12+014699999V0203201N003119999999N0000001N9-00721+99999099201ADDGF104991999999999999999999
0029028970999991922031106004+64217+027767FM-12+014699999V0209991C000019999999N0000001N9-01611+99999099001ADDGF102991999999999999999999
0035028970999991922031113004+64217+027767FM-12+014699999V0202001N008719999999N0000001N9-00721+99999098151ADDGF108991999999999999999999MW1721
0029028970999991922031120004+64217+027767FM-12+014699999V0202001N007219999999N0000001N9-00281+99999097431ADDGF108991999999999999999999
0029028970999991922031206004+64217+027767FM-12+014699999V0202701N003119999999N0000001N9-00831+99999096861ADDGF100991999999999999999999
0029028970999991922031213004+64217+027767FM-12+014699999V0202701N005119999999N0000001N9-00611+99999096791ADDGF100991999999999999999999
0029028970999991922031220004+64217+027767FM-12+014699999V0202701N001019999999N0000001N9-00781+99999096881ADDGF108991999999999999999999
0029028970999991922031306004+64217+027767FM-12+014699999V0203201N007219999999N0000001N9-00891+99999097721ADDGF108991999999999999999999
0035028970999991922031313004+64217+027767FM-12+014699999V0203201N008719999999N0000001N9-00441+99999098471ADDGF108991999999999999999999MW1701
0029028970999991922031320004+64217+027767FM-12+014699999V0203201N003119999999N0000001N9-00441+99999098901ADDGF108991999999999999999999
0029028970999991922031406004+64217+027767FM-12+014699999V0203201N003119999999N0000001N9-00941+99999098961ADDGF108991999999999999999999
0029028970999991922031413004+64217+027767FM-12+014699999V0203201N003119999999N0000001N9-00501+99999099021ADDGF108991999999999999999999
0029028970999991922031420004+64217+027767FM-12+014699999V0209991C000019999999N0000001N9-00611+99999099181ADDGF108991999999999999999999
0029028970999991922031506004+64217+027767FM-12+014699999V0209991C000019999999N0000001N9-00671+99999099321ADDGF108991999999999999999999
0029028970999991922031513004+64217+027767FM-12+014699999V0203201N003119999999N0000001N9-00331+99999099341ADDGF108991999999999999999999
0029028970999991922031520004+64217+027767FM-12+014699999V0209991C000019999999N0000001N9-00561+99999099261ADDGF108991999999999999999999
0035028970999991922031606004+64217+027767FM-12+014699999V0203201N003119999999N0000001N9-01111+99999098511ADDGF108991999999999999999999MW1701
0035028970999991922031613004+64217+027767FM-12+014699999V0202901N003119999999N0000001N9-00561+99999098711ADDGF106991999999999999999999MW1701
0029028970999991922031620004+64217+027767FM-12+014699999V0209991C000019999999N0000001N9-00671+99999098941ADDGF100991999999999999999999
0029028970999991922031706004+64217+027767FM-12+014699999V0202901N003119999999N0000001N9-01111+99999099071ADDGF106991999999999999999999
0029028970999991922031713004+64217+027767FM-12+014699999V0202901N005119999999N0000001N9-00331+99999099281ADDGF102991999999999999999999
0029028970999991922031720004+64217+027767FM-12+014699999V0209991C000019999999N0000001N9-01001+99999099271ADDGF100991999999999999999999
0029028970999991922031806004+64217+027767FM-12+014699999V0202901N003119999999N0000001N9-01781+99999099341ADDGF100991999999999999999999
0029028970999991922031813004+64217+027767FM-12+014699999V0203201N003119999999N0000001N9-01001+99999099401ADDGF100991999999999999999999
0029028970999991922031820004+64217+027767FM-12+014699999V0202901N003119999999N0000001N9-01721+99999099391ADDGF100991999999999999999999
0029028970999991922031906004+64217+027767FM-12+014699999V0209991C000019999999N0000001N9-02281+99999099231ADDGF100991999999999999999999
0029028970999991922031913004+64217+027767FM-12+014699999V0202901N003119999999N0000001N9-01171+99999099161ADDGF100991999999999999999999
0029028970999991922031920004+64217+027767FM-12+014699999V0209991C000019999999N0000001N9-02061+99999099201ADDGF100991999999999999999999
0029028970999991922032006004+64217+027767FM-12+014699999V0202901N003119999999N0000001N9-01831+99999099121ADDGF107991999999999999999999
0029028970999991922032013004+64217+027767FM-12+014699999V0202901N005119999999N0000001N9-00891+99999099141ADDGF100991999999999999999999
0029028970999991922032020004+64217+027767FM-12+014699999V0209991C000019999999N0000001N9-01781+99999099221ADDGF100991999999999999999999
0029028970999991922032106004+64217+027767FM-12+014699999V0209991C000019999999N0000001N9-02221+99999098961ADDGF102991999999999999999999
0035028970999991922032113004+64217+027767FM-12+014699999V0202701N005119999999N0000001N9-01061+99999098951ADDGF108991999999999999999999MW1721
0029028970999991922032120004+64217+027767FM-12+014699999V0209991C000019999999N0000001N9-01061+99999099001ADDGF108991999999999999999999
0029028970999991922032206004+64217+027767FM-12+014699999V0202701N001019999999N0000001N9-01281+99999099381ADDGF108991999999999999999999
0029028970999991922032213004+64217+027767FM-12+014699999V0202701N001019999999N0000001N9-00671+99999099621ADDGF102991999999999999999999
0029028970999991922032220004+64217+027767FM-12+014699999V0202701N001019999999N0000001N9-00891+99999099741ADDGF108991999999999999999999
0029028970999991922032306004+64217+027767FM-12+014699999V0202301N003119999999N0000001N9-00501+99999099641ADDGF108991999999999999999999
0029028970999991922032313004+64217+027767FM-12+014699999V0202501N003119999999N0000001N9+00001+99999099031ADDGF108991999999999999999999
0029028970999991922032320004+64217+027767FM-12+014699999V0202301N001019999999N0000001N9+00111+99999098991ADDGF100991999999999999999999
0029028970999991922032406004+64217+027767FM-12+014699999V0202701N003119999999N0000001N9+00221+99999099031ADDGF108991999999999999999999
0029028970999991922032413004+64217+027767FM-12+014699999V0202501N003119999999N0000001N9+00441+99999099191ADDGF108991999999999999999999
0029028970999991922032420004+64217+027767FM-12+014699999V0209991C000019999999N0000001N9+00221+99999099281ADDGF108991999999999999999999
0029028970999991922032506004+64217+027767FM-12+014699999V0202701N003119999999N0000001N9+00001+99999099161ADDGF108991999999999999999999
0029028970999991922032513004+64217+027767FM-12+014699999V0202501N003119999999N0000001N9+00611+99999099101ADDGF104991999999999999999999
0029028970999991922032520004+64217+027767FM-12+014699999V0202701N003119999999N0000001N9-00281+99999098781ADDGF103991999999999999999999
0029028970999991922032606004+64217+027767FM-12+014699999V0200701N003119999999N0000001N9-00391+99999098361ADDGF108991999999999999999999
0035028970999991922032613004+64217+027767FM-12+014699999V0201401N003119999999N0000001N9+00001+99999098311ADDGF108991999999999999999999MW1721
0029028970999991922032620004+64217+027767FM-12+014699999V0201401N003119999999N0000001N9-00281+99999098201ADDGF108991999999999999999999
0029028970999991922032706004+64217+027767FM-12+014699999V0209991C000019999999N0000001N9-00441+99999098201ADDGF108991999999999999999999
0029028970999991922032713004+64217+027767FM-12+014699999V0202701N001019999999N0000001N9-00061+99999098391ADDGF108991999999999999999999
0029028970999991922032720004+64217+027767FM-12+014699999V0202701N001019999999N0000001N9-00221+99999098581ADDGF108991999999999999999999
0035028970999991922032806004+64217+027767FM-12+014699999V0202701N003119999999N0000001N9-00391+99999098801ADDGF108991999999999999999999MW1721
0029028970999991922032813004+64217+027767FM-12+014699999V0202701N003119999999N0000001N9+00171+99999098791ADDGF106991999999999999999999
0029028970999991922032820004+64217+027767FM-12+014699999V0209991C000019999999N0000001N9-00331+99999098621ADDGF108991999999999999999999
0035028970999991922032906004+64217+027767FM-12+014699999V0203201N003119999999N0000001N9-00331+99999098381ADDGF108991999999999999999999MW1701
0029028970999991922032913004+64217+027767FM-12+014699999V0200201N003119999999N0000001N9+00001+99999098561ADDGF108991999999999999999999
0029028970999991922032920004+64217+027767FM-12+014699999V0200501N003119999999N0000001N9-00171+99999098591ADDGF108991999999999999999999
0035028970999991922033006004+64217+027767FM-12+014699999V0203601N008719999999N0000001N9-00331+99999098461ADDGF108991999999999999999999MW1721
0035028970999991922033013004+64217+027767FM-12+014699999V0200201N011819999999N0000001N9-00061+99999098561ADDGF108991999999999999999999MW1721
0029028970999991922033020004+64217+027767FM-12+014699999V0200201N005119999999N0000001N9-00171+99999098711ADDGF108991999999999999999999
0035028970999991922033106004+64217+027767FM-12+014699999V0200201N003119999999N0000001N9-00221+99999098901ADDGF108991999999999999999999MW1721
0029028970999991922033113004+64217+027767FM-12+014699999V0200501N001019999999N0000001N9+00221+99999099151ADDGF108991999999999999999999
0035028970999991922033120004+64217+027767FM-12+014699999V0209991C000019999999N0000001N9+00001+99999099271ADDGF108991999999999999999999MW1721
0029028970999991922040106004+64217+027767FM-12+014699999V0209991C000019999999N0000001N9-00221+99999099351ADDGF108991999999999999999999
0029028970999991922040113004+64217+027767FM-12+014699999V0202301N001019999999N0000001N9+00001+99999099221ADDGF108991999999999999999999
0029028970999991922040120004+64217+027767FM-12+014699999V0202301N001019999999N0000001N9-00391+99999099261ADDGF102991999999999999999999
0029028970999991922040206004+64217+027767FM-12+014699999V0200501N003119999999N0000001N9-00891+99999099311ADDGF104991999999999999999999
0029028970999991922040213004+64217+027767FM-12+014699999V0200901N005119999999N0000001N9+00171+99999098981ADDGF108991999999999999999999
0029028970999991922040220004+64217+027767FM-12+014699999V0200901N007219999999N0000001N9-00111+99999098711ADDGF108991999999999999999999
0029028970999991922040306004+64217+027767FM-12+014699999V0201801N003119999999N0000001N9-00281+99999098511ADDGF108991999999999999999999
0035028970999991922040313004+64217+027767FM-12+014699999V0202001N008719999999N0000001N9+00001+99999098601ADDGF108991999999999999999999MW1701
0029028970999991922040320004+64217+027767FM-12+014699999V0202001N003119999999N0000001N9-00171+99999098751ADDGF100991999999999999999999
0029028970999991922040406004+64217+027767FM-12+014699999V0200901N003119999999N0000001N9-00781+99999098751ADDGF104991999999999999999999
0029028970999991922040413004+64217+027767FM-12+014699999V0201401N003119999999N0000001N9+00171+99999098481ADDGF103991999999999999999999
0029028970999991922040420004+64217+027767FM-12+014699999V0201401N001019999999N0000001N9-00111+99999098471ADDGF102991999999999999999999
0035028970999991922040506004+64217+027767FM-12+014699999V0203201N001019999999N0000001N9-00221+99999098151ADDGF108991999999999999999999MW1721
0035028970999991922040513004+64217+027767FM-12+014699999V0203201N001019999999N0000001N9+00001+99999098281ADDGF108991999999999999999999MW1721
0029028970999991922040520004+64217+027767FM-12+014699999V0203201N001019999999N0000001N9+00001+99999098391ADDGF108991999999999999999999
0035028970999991922040606004+64217+027767FM-12+014699999V0200201N003119999999N0000001N9-00111+99999098591ADDGF108991999999999999999999MW1721
0029028970999991922040613004+64217+027767FM-12+014699999V0200201N007219999999N0000001N9+00111+99999098701ADDGF108991999999999999999999
0029028970999991922040620004+64217+027767FM-12+014699999V0200501N011819999999N0000001N9-00171+99999098681ADDGF108991999999999999999999
0035028970999991922040706004+64217+027767FM-12+014699999V0200501N007219999999N0000001N9-00441+99999098101ADDGF108991999999999999999999MW1721
0035028970999991922040713004+64217+027767FM-12+014699999V0200501N005119999999N0000001N9-00171+99999098111ADDGF108991999999999999999999MW1721
0029028970999991922040720004+64217+027767FM-12+014699999V0200901N003119999999N0000001N9-00221+99999098151ADDGF108991999999999999999999
0035028970999991922040806004+64217+027767FM-12+014699999V0200501N003119999999N0000001N9-00221+99999097941ADDGF108991999999999999999999MW1721
0035028970999991922040813004+64217+027767FM-12+014699999V0202301N003119999999N0000001N9-00061+99999098241ADDGF108991999999999999999999MW1721
0029028970999991922040820004+64217+027767FM-12+014699999V0202301N003119999999N0000001N9-00611+99999098801ADDGF106991999999999999999999
0029028970999991922040906004+64217+027767FM-12+014699999V0209991C000019999999N0000001N9-00831+99999099111ADDGF108991999999999999999999
0029028970999991922040913004+64217+027767FM-12+014699999V0201801N001019999999N0000001N9-00221+99999099141ADDGF104991999999999999999999
0029028970999991922040920004+64217+027767FM-12+014699999V0209991C000019999999N0000001N9-00891+99999099101ADDGF104991999999999999999999
0029028970999991922041006004+64217+027767FM-12+014699999V0200501N003119999999N0000001N9-00611+99999098841ADDGF108991999999999999999999
0029028970999991922041013004+64217+027767FM-12+014699999V0203601N011819999999N0000001N9-00171+99999098471ADDGF108991999999999999999999
0029028970999991922041020004+64217+027767FM-12+014699999V0209991C000019999999N0000001N9-00441+99999097941ADDGF108991999999999999999999
0035028970999991922041106004+64217+027767FM-12+014699999V0201801N003119999999N0000001N9-00221+99999097741ADDGF108991999999999999999999MW1701
0035028970999991922041113004+64217+027767FM-12+014699999V0202701N005119999999N0000001N9-00331+99999098391ADDGF108991999999999999999999MW1701
0029028970999991922041120004+64217+027767FM-12+014699999V0202701N003119999999N0000001N9-00611+99999098801ADDGF108991999999999999999999
0029028970999991922041206004+64217+027767FM-12+014699999V0200501N003119999999N0000001N9-01001+99999099061ADDGF101991999999999999999999
0029028970999991922041213004+64217+027767FM-12+014699999V0203201N003119999999N0000001N9+00001+99999099381ADDGF101991999999999999999999
0029028970999991922041220004+64217+027767FM-12+014699999V0202901N001019999999N0000001N9-00721+99999099751ADDGF100991999999999999999999
0029028970999991922041306004+64217+027767FM-12+014699999V0200201N003119999999N0000001N9-01171+99999100111ADDGF100991999999999999999999
0029028970999991922041313004+64217+027767FM-12+014699999V0203201N003119999999N0000001N9+00391+99999100271ADDGF100991999999999999999999
0029028970999991922041320004+64217+027767FM-12+014699999V0201801N001019999999N0000001N9-00221+99999100281ADDGF100991999999999999999999
0029028970999991922041406004+64217+027767FM-12+014699999V0200901N005119999999N0000001N9-00391+99999099441ADDGF108991999999999999999999
0029028970999991922041413004+64217+027767FM-12+014699999V0201401N005119999999N0000001N9+00061+99999098741ADDGF108991999999999999999999
0029028970999991922041420004+64217+027767FM-12+014699999V0201801N001019999999N0000001N9+00111+99999098481ADDGF108991999999999999999999
0029028970999991922041506004+64217+027767FM-12+014699999V0209991C000019999999N0000001N9+00061+99999099241ADDGF108991999999999999999999
0029028970999991922041513004+64217+027767FM-12+014699999V0202701N003119999999N0000001N9+00171+99999099861ADDGF108991999999999999999999
0029028970999991922041520004+64217+027767FM-12+014699999V0200901N001019999999N0000001N9+00111+99999099911ADDGF108991999999999999999999
0029028970999991922041606004+64217+027767FM-12+014699999V0201801N005119999999N0000001N9+00281+99999098831ADDGF108991999999999999999999
0029028970999991922041613004+64217+027767FM-12+014699999V0202701N003119999999N0000001N9+00441+99999099041ADDGF108991999999999999999999
0029028970999991922041620004+64217+027767FM-12+014699999V0202701N003119999999N0000001N9+00281+99999099301ADDGF108991999999999999999999
0029028970999991922041706004+64217+027767FM-12+014699999V0200901N003119999999N0000001N9+00331+99999098631ADDGF108991999999999999999999
0029028970999991922041713004+64217+027767FM-12+014699999V0202501N005119999999N0000001N9+00941+99999098781ADDGF102991999999999999999999
0029028970999991922041720004+64217+027767FM-12+014699999V0209991C000019999999N0000001N9+00281+99999098951ADDGF100991999999999999999999
0029028970999991922041806004+64217+027767FM-12+014699999V0202301N005119999999N0000001N9+00111+99999099301ADDGF108991999999999999999999
0029028970999991922041813004+64217+027767FM-12+014699999V0202701N007219999999N0000001N9+00501+99999099621ADDGF101991999999999999999999
0029028970999991922041820004+64217+027767FM-12+014699999V0202701N003119999999N0000001N9+00281+99999099801ADDGF107991999999999999999999
0029028970999991922041906004+64217+027767FM-12+014699999V0203201N007219999999N0000001N9-00281+99999100581ADDGF108991999999999999999999
0029028970999991922041913004+64217+027767FM-12+014699999V0200201N007219999999N0000001N9-00221+99999100881ADDGF104991999999999999999999
0029028970999991922041920004+64217+027767FM-12+014699999V0209991C000019999999N0000001N9-00501+99999101071ADDGF100991999999999999999999
0029028970999991922042006004+64217+027767FM-12+014699999V0203201N003119999999N0000001N9-00391+99999101141ADDGF101991999999999999999999
0029028970999991922042013004+64217+027767FM-12+014699999V0202901N005119999999N0000001N9+00061+99999100941ADDGF101991999999999999999999
0029028970999991922042020004+64217+027767FM-12+014699999V0209991C000019999999N0000001N9-00281+99999100681ADDGF100991999999999999999999
0029028970999991922042106004+64217+027767FM-12+014699999V0202901N001019999999N0000001N9-00111+99999100501ADDGF108991999999999999999999
0029028970999991922042113004+64217+027767FM-12+014699999V0202501N003119999999N0000001N9+00441+99999100271ADDGF108991999999999999999999
0029028970999991922042120004+64217+027767FM-12+014699999V0209991C000019999999N0000001N9+00001+99999100151ADDGF106991999999999999999999
0029028970999991922042206004+64217+027767FM-12+014699999V0209991C000019999999N0000001N9+00001+99999100221ADDGF101991999999999999999999
0029028970999991922042213004+64217+027767FM-12+014699999V0202901N003119999999N0000001N9+01001+99999100191ADDGF101991999999999999999999
0029028970999991922042220004+64217+027767FM-12+014699999V0209991C000019999999N0000001N9+00171+99999100191ADDGF100991999999999999999999
0029028970999991922042306004+64217+027767FM-12+014699999V0200501N003119999999N0000001N9+00331+99999100281ADDGF100991999999999999999999
0029028970999991922042313004+64217+027767FM-12+014699999V0202701N003119999999N0000001N9+01001+99999100321ADDGF100991999999999999999999
0029028970999991922042320004+64217+027767FM-12+014699999V0209991C000019999999N0000001N9+00111+99999100421ADDGF100991999999999999999999
0029028970999991922042406004+64217+027767FM-12+014699999V0209991C000019999999N0000001N9-00171+99999100351ADDGF100991999999999999999999
0029028970999991922042413004+64217+027767FM-12+014699999V0200501N002119999999N0000001N9+01001+99999100141ADDGF100991999999999999999999
0029028970999991922042420004+64217+027767FM-12+014699999V0209991C000019999999N0000001N9+00331+99999099951ADDGF100991999999999999999999
0029028970999991922042506004+64217+027767FM-12+014699999V0200501N003119999999N0000001N9+00501+99999099831ADDGF101991999999999999999999
0029028970999991922042513004+64217+027767FM-12+014699999V0201801N005119999999N0000001N9+01171+99999099681ADDGF104991999999999999999999
0029028970999991922042520004+64217+027767FM-12+014699999V0201801N001019999999N0000001N9+00501+99999099721ADDGF103991999999999999999999
0029028970999991922042606004+64217+027767FM-12+014699999V0200501N003119999999N0000001N9+00281+99999099841ADDGF100991999999999999999999
0029028970999991922042613004+64217+027767FM-12+014699999V0201401N005119999999N0000001N9+01171+99999099841ADDGF101991999999999999999999
0029028970999991922042620004+64217+027767FM-12+014699999V0201601N003119999999N0000001N9+00501+99999099861ADDGF100991999999999999999999
0029028970999991922042706004+64217+027767FM-12+014699999V0209991C000019999999N0000001N9+00281+99999099901ADDGF100991999999999999999999
0029028970999991922042713004+64217+027767FM-12+014699999V0201401N007219999999N0000001N9+01281+99999099921ADDGF102991999999999999999999
0029028970999991922042720004+64217+027767FM-12+014699999V0209991C000019999999N0000001N9+00501+99999099821ADDGF104991999999999999999999
0029028970999991922042806004+64217+027767FM-12+014699999V0200901N003119999999N0000001N9+00441+99999099861ADDGF100991999999999999999999
0029028970999991922042813004+64217+027767FM-12+014699999V0201601N005119999999N0000001N9+01171+99999099951ADDGF104991999999999999999999
0029028970999991922042820004+64217+027767FM-12+014699999V0201401N005119999999N0000001N9+00671+99999100111ADDGF108991999999999999999999
0029028970999991922042906004+64217+027767FM-12+014699999V0200901N007219999999N0000001N9+00501+99999100181ADDGF108991999999999999999999
0029028970999991922042913004+64217+027767FM-12+014699999V0201401N007219999999N0000001N9+01331+99999100111ADDGF102991999999999999999999
0029028970999991922042920004+64217+027767FM-12+014699999V0201101N003119999999N0000001N9+00671+99999100071ADDGF106991999999999999999999
0029028970999991922043006004+64217+027767FM-12+014699999V0200701N005119999999N0000001N9+00501+99999099751ADDGF108991999999999999999999
0029028970999991922043013004+64217+027767FM-12+014699999V0201101N003119999999N0000001N9+00721+99999099721ADDGF108991999999999999999999
0029028970999991922043020004+64217+027767FM-12+014699999V0200901N003119999999N0000001N9+00611+99999099781ADDGF108991999999999999999999
0029028970999991922050106004+64217+027767FM-12+014699999V0209991C000019999999N0000001N9+00331+99999100021ADDGF108991999999999999999999
0029028970999991922050113004+64217+027767FM-12+014699999V0201401N001019999999N0000001N9+01171+99999100101ADDGF104991999999999999999999
0029028970999991922050120004+64217+027767FM-12+014699999V0200901N001019999999N0000001N9+00671+99999100141ADDGF102991999999999999999999
0029028970999991922050206004+64217+027767FM-12+014699999V0200901N003119999999N0000001N9+00611+99999100071ADDGF103991999999999999999999
0029028970999991922050213004+64217+027767FM-12+014699999V0201401N001019999999N0000001N9+01111+99999099941ADDGF108991999999999999999999
0029028970999991922050220004+64217+027767FM-12+014699999V0200901N003119999999N0000001N9+00721+99999099881ADDGF108991999999999999999999
0029028970999991922050306004+64217+027767FM-12+014699999V0201401N003119999999N0000001N9+00671+99999098961ADDGF105991999999999999999999
0035028970999991922050313004+64217+027767FM-12+014699999V0202001N003119999999N0000001N9+00671+99999098911ADDGF108991999999999999999999MW1621
0029028970999991922050320004+64217+027767FM-12+014699999V0202001N001019999999N0000001N9+00391+99999099261ADDGF108991999999999999999999
0029028970999991922050406004+64217+027767FM-12+014699999V0202301N007219999999N0000001N9+00441+99999099501ADDGF106991999999999999999999
0029028970999991922050413004+64217+027767FM-12+014699999V0202301N005119999999N0000001N9+01061+99999099581ADDGF106991999999999999999999
0029028970999991922050420004+64217+027767FM-12+014699999V0202301N003119999999N0000001N9+00501+99999099321ADDGF101991999999999999999999
0029028970999991922050506004+64217+027767FM-12+014699999V0200701N003119999999N0000001N9+00281+99999099231ADDGF104991999999999999999999
0035028970999991922050513004+64217+027767FM-12+014699999V0200201N003119999999N0000001N9+00941+99999099071ADDGF108991999999999999999999MW1601
0029028970999991922050520004+64217+027767FM-12+014699999V0203201N003119999999N0000001N9+00561+99999099041ADDGF108991999999999999999999
0029028970999991922050606004+64217+027767FM-12+014699999V0203201N003119999999N0000001N9+00501+99999099401ADDGF103991999999999999999999
0029028970999991922050613004+64217+027767FM-12+014699999V0203201N003119999999N0000001N9+00671+99999099711ADDGF108991999999999999999999
0029028970999991922050620004+64217+027767FM-12+014699999V0202301N001019999999N0000001N9+00561+99999999999ADDGF108991999999999999999999
0029028970999991922050706004+64217+027767FM-12+014699999V0202301N003119999999N0000001N9+00501+99999100031ADDGF108991999999999999999999
0029028970999991922050713004+64217+027767FM-12+014699999V0202301N003119999999N0000001N9+00781+99999100191ADDGF107991999999999999999999
0029028970999991922050720004+64217+027767FM-12+014699999V0203201N003119999999N0000001N9+00561+99999100311ADDGF102991999999999999999999
0029028970999991922050806004+64217+027767FM-12+014699999V0200501N003119999999N0000001N9+00721+99999099951ADDGF101991999999999999999999
0035028970999991922050813004+64217+027767FM-12+014699999V0202301N007219999999N0000001N9+01001+99999099361ADDGF108991999999999999999999MW1621
0035028970999991922050820004+64217+027767FM-12+014699999V0201601N005119999999N0000001N9+00501+99999098841ADDGF108991999999999999999999MW1621
0029028970999991922050906004+64217+027767FM-12+014699999V0202301N003119999999N0000001N9+00501+99999098221ADDGF108991999999999999999999
0029028970999991922050913004+64217+027767FM-12+014699999V0200501N003119999999N0000001N9+01171+99999098031ADDGF104991999999999999999999
0029028970999991922050920004+64217+027767FM-12+014699999V0209991C000019999999N0000001N9+00561+99999097831ADDGF103991999999999999999999
0035028970999991922051006004+64217+027767FM-12+014699999V0200201N007219999999N0000001N9+00391+99999097341ADDGF108991999999999999999999MW1621
0029028970999991922051013004+64217+027767FM-12+014699999V0203201N005119999999N0000001N9+00781+99999097231ADDGF104991999999999999999999
0035028970999991922051020004+64217+027767FM-12+014699999V0200901N003119999999N0000001N9+00281+99999097241ADDGF108991999999999999999999MW1621
0029028970999991922051106004+64217+027767FM-12+014699999V0203201N003119999999N0000001N9+00171+99999096561ADDGF108991999999999999999999
0035028970999991922051113004+64217+027767FM-12+014699999V0202001N003119999999N0000001N9+00281+99999096751ADDGF108991999999999999999999MW1621
0035028970999991922051120004+64217+027767FM-12+014699999V0202301N003119999999N0000001N9+00171+99999096861ADDGF108991999999999999999999MW1621
0029028970999991922051206004+64217+027767FM-12+014699999V0202501N003119999999N0000001N9+00111+99999097151ADDGF108991999999999999999999
0029028970999991922051213004+64217+027767FM-12+014699999V0202301N003119999999N0000001N9+00501+99999097511ADDGF106991999999999999999999
0029028970999991922051220004+64217+027767FM-12+014699999V0202001N003119999999N0000001N9+00331+99999097701ADDGF106991999999999999999999
0029028970999991922051306004+64217+027767FM-12+014699999V0209991C000019999999N0000001N9+00331+99999098021ADDGF106991999999999999999999
0029028970999991922051313004+64217+027767FM-12+014699999V0202301N003119999999N0000001N9+00721+99999098161ADDGF106991999999999999999999
0029028970999991922051320004+64217+027767FM-12+014699999V0202301N003119999999N0000001N9+00391+99999098351ADDGF102991999999999999999999
0029028970999991922051406004+64217+027767FM-12+014699999V0202001N003119999999N0000001N9+00561+99999098551ADDGF102991999999999999999999
0029028970999991922051413004+64217+027767FM-12+014699999V0203201N003119999999N0000001N9+01001+99999098661ADDGF104991999999999999999999
0029028970999991922051420004+64217+027767FM-12+014699999V0202901N001019999999N0000001N9+00391+99999098861ADDGF103991999999999999999999
0029028970999991922051506004+64217+027767FM-12+014699999V0200501N001019999999N0000001N9+00671+99999098901ADDGF100991999999999999999999
0029028970999991922051513004+64217+027767FM-12+014699999V0200501N003119999999N0000001N9+01111+99999098391ADDGF106991999999999999999999
0029028970999991922051520004+64217+027767FM-12+014699999V0201401N003119999999N0000001N9+00831+99999098161ADDGF106991999999999999999999
0029028970999991922051606004+64217+027767FM-12+014699999V0200201N003119999999N0000001N9+00611+99999097881ADDGF108991999999999999999999
0029028970999991922051613004+64217+027767FM-12+014699999V0202701N003119999999N0000001N9+00831+99999098071ADDGF108991999999999999999999
0035028970999991922051620004+64217+027767FM-12+014699999V0203201N003119999999N0000001N9+00671+99999098351ADDGF108991999999999999999999MW1621
0029028970999991922051706004+64217+027767FM-12+014699999V0203201N003119999999N0000001N9+00391+99999098661ADDGF108991999999999999999999
0029028970999991922051713004+64217+027767FM-12+014699999V0202901N007219999999N0000001N9+01061+99999098941ADDGF103991999999999999999999
0029028970999991922051720004+64217+027767FM-12+014699999V0203201N003119999999N0000001N9+00781+99999099151ADDGF101991999999999999999999
0029028970999991922051806004+64217+027767FM-12+014699999V0202501N003119999999N0000001N9+00501+99999099421ADDGF100991999999999999999999
0029028970999991922051813004+64217+027767FM-12+014699999V0202501N003119999999N0000001N9+01391+99999099441ADDGF102991999999999999999999
0029028970999991922051820004+64217+027767FM-12+014699999V0202501N001019999999N0000001N9+01001+99999099481ADDGF101991999999999999999999
0029028970999991922051906004+64217+027767FM-12+014699999V0200501N003119999999N0000001N9+00781+99999099561ADDGF108991999999999999999999
0029028970999991922051913004+64217+027767FM-12+014699999V0201801N003119999999N0000001N9+01611+99999099421ADDGF107991999999999999999999
0029028970999991922051920004+64217+027767FM-12+014699999V0201601N003119999999N0000001N9+01221+99999099431ADDGF108991999999999999999999
0035028970999991922052006004+64217+027767FM-12+014699999V0209991C000019999999N0000001N9+00831+99999099381ADDGF108991999999999999999999MW1621
0035028970999991922052013004+64217+027767FM-12+014699999V0201101N001019999999N0000001N9+00941+99999099391ADDGF108991999999999999999999MW1621
0035028970999991922052020004+64217+027767FM-12+014699999V0201101N001019999999N0000001N9+00831+99999099471ADDGF108991999999999999999999MW1621
0029028970999991922052106004+64217+027767FM-12+014699999V0200501N001019999999N0000001N9+00671+99999099751ADDGF108991999999999999999999
0029028970999991922052113004+64217+027767FM-12+014699999V0200701N001019999999N0000001N9+99999+99999099941ADDGF106991999999999999999999
0029028970999991922052120004+64217+027767FM-12+014699999V0209991C000019999999N0000001N9+01061+99999099981ADDGF108991999999999999999999
0029028970999991922052206004+64217+027767FM-12+014699999V0202701N001019999999N0000001N9+00941+99999100111ADDGF108991999999999999999999
0029028970999991922052213004+64217+027767FM-12+014699999V0202701N003119999999N0000001N9+01671+99999100121ADDGF104991999999999999999999
0029028970999991922052220004+64217+027767FM-12+014699999V0209991C000019999999N0000001N9+01171+99999100111ADDGF100991999999999999999999
0029028970999991922052306004+64217+027767FM-12+014699999V0202001N001019999999N0000001N9+01501+99999099951ADDGF108991999999999999999999
0035028970999991922052313004+64217+027767FM-12+014699999V0202301N003119999999N0000001N9+01331+99999099801ADDGF108991999999999999999999MW1621
0035028970999991922052320004+64217+027767FM-12+014699999V0201801N003119999999N0000001N9+01061+99999099471ADDGF108991999999999999999999MW1621
0029028970999991922052406004+64217+027767FM-12+014699999V0202701N001019999999N0000001N9+01001+99999099581ADDGF108991999999999999999999
0029028970999991922052413004+64217+027767FM-12+014699999V0203201N007219999999N0000001N9+01501+99999099661ADDGF101991999999999999999999
0029028970999991922052420004+64217+027767FM-12+014699999V0203201N003119999999N0000001N9+00941+99999099681ADDGF100991999999999999999999
0029028970999991922052506004+64217+027767FM-12+014699999V0200501N003119999999N0000001N9+00831+99999099631ADDGF108991999999999999999999
0035028970999991922052513004+64217+027767FM-12+014699999V0200501N003119999999N0000001N9+01221+99999099271ADDGF108991999999999999999999MW1621
0029028970999991922052520004+64217+027767FM-12+014699999V0202701N001019999999N0000001N9+00941+99999099121ADDGF108991999999999999999999
0029028970999991922052606004+64217+027767FM-12+014699999V0203201N003119999999N0000001N9+00671+99999099741ADDGF108991999999999999999999
0029028970999991922052613004+64217+027767FM-12+014699999V0203201N003119999999N0000001N9+00941+99999100071ADDGF106991999999999999999999
0029028970999991922052620004+64217+027767FM-12+014699999V0203201N001019999999N0000001N9+00781+99999100031ADDGF100991999999999999999999
0029028970999991922052706004+64217+027767FM-12+014699999V0201601N005119999999N0000001N9+00611+99999099481ADDGF108991999999999999999999
0035028970999991922052713004+64217+027767FM-12+014699999V0200901N007219999999N0000001N9+00781+99999098511ADDGF108991999999999999999999MW1621
0035028970999991922052720004+64217+027767FM-12+014699999V0202301N001019999999N0000001N9+00831+99999097841ADDGF108991999999999999999999MW1621
0029028970999991922052806004+64217+027767FM-12+014699999V0200901N001019999999N0000001N9+01001+99999097821ADDGF104991999999999999999999
0029028970999991922052813004+64217+027767FM-12+014699999V0202701N003119999999N0000001N9+00891+99999098141ADDGF106991999999999999999999
0029028970999991922052820004+64217+027767FM-12+014699999V0203201N003119999999N0000001N9+00781+99999098401ADDGF102991999999999999999999
0029028970999991922052906004+64217+027767FM-12+014699999V0203201N001019999999N0000001N9+00501+99999099081ADDGF101991999999999999999999
0029028970999991922052913004+64217+027767FM-12+014699999V0200901N009819999999N0000001N9+00721+99999099631ADDGF102991999999999999999999
0029028970999991922052920004+64217+027767FM-12+014699999V0203201N003119999999N0000001N9+00561+99999099721ADDGF101991999999999999999999
0029028970999991922053006004+64217+027767FM-12+014699999V0200901N003119999999N0000001N9+00781+99999099551ADDGF102991999999999999999999
0029028970999991922053013004+64217+027767FM-12+014699999V0200901N003119999999N0000001N9+00721+99999099231ADDGF108991999999999999999999
0029028970999991922053020004+64217+027767FM-12+014699999V0203201N001019999999N0000001N9+00671+99999098881ADDGF100991999999999999999999
0029028970999991922053106004+64217+027767FM-12+014699999V0200501N001019999999N0000001N9+00671+99999097961ADDGF106991999999999999999999
0035028970999991922053113004+64217+027767FM-12+014699999V0201101N003119999999N0000001N9+00891+99999097351ADDGF108991999999999999999999MW1621
0029028970999991922053120004+64217+027767FM-12+014699999V0203201N001019999999N0000001N9+00781+99999097271ADDGF108991999999999999999999
0029028970999991922060106004+64217+027767FM-12+014699999V0203201N005119999999N0000001N9+00781+99999097561ADDGF106991999999999999999999
0029028970999991922060113004+64217+027767FM-12+014699999V0200501N008719999999N0000001N9+00891+99999098001ADDGF108991999999999999999999
0029028970999991922060120004+64217+027767FM-12+014699999V0203201N001019999999N0000001N9+00891+99999098381ADDGF103991999999999999999999
0029028970999991922060206004+64217+027767FM-12+014699999V0200201N007219999999N0000001N9+00781+99999098941ADDGF105991999999999999999999
0029028970999991922060213004+64217+027767FM-12+014699999V0203201N005119999999N0000001N9+00831+99999099081ADDGF103991999999999999999999
0029028970999991922060220004+64217+027767FM-12+014699999V0203201N001019999999N0000001N9+00671+99999099321ADDGF106991999999999999999999
0029028970999991922060306004+64217+027767FM-12+014699999V0203201N005119999999N0000001N9+00611+99999099341ADDGF102991999999999999999999
0029028970999991922060313004+64217+027767FM-12+014699999V0203201N005119999999N0000001N9+00721+99999099381ADDGF107991999999999999999999
0029028970999991922060320004+64217+027767FM-12+014699999V0209991C000019999999N0000001N9+00671+99999099381ADDGF108991999999999999999999
0029028970999991922060406004+64217+027767FM-12+014699999V0203201N001019999999N0000001N9+00561+99999099431ADDGF108991999999999999999999
0029028970999991922060413004+64217+027767FM-12+014699999V0203201N001019999999N0000001N9+00941+99999099381ADDGF102991999999999999999999
0029028970999991922060420004+64217+027767FM-12+014699999V0209991C000019999999N0000001N9+00831+99999099521ADDGF100991999999999999999999
0029028970999991922060506004+64217+027767FM-12+014699999V0200701N001019999999N0000001N9+00891+99999099601ADDGF104991999999999999999999
0029028970999991922060513004+64217+027767FM-12+014699999V0209991C000019999999N0000001N9+01561+99999099641ADDGF106991999999999999999999
0029028970999991922060520004+64217+027767FM-12+014699999V0209991C000019999999N0000001N9+01061+99999099511ADDGF100991999999999999999999
0029028970999991922060606004+64217+027767FM-12+014699999V0209991C000019999999N0000001N9+01171+99999099321ADDGF107991999999999999999999
0029028970999991922060613004+64217+027767FM-12+014699999V0202001N001019999999N0000001N9+99999+99999099061ADDGF104991999999999999999999
0029028970999991922060620004+64217+027767FM-12+014699999V0202301N001019999999N0000001N9+99999+99999098911ADDGF105991999999999999999999
0029028970999991922060706004+64217+027767FM-12+014699999V0202301N001019999999N0000001N9+01331+99999098821ADDGF103991999999999999999999
0029028970999991922060713004+64217+027767FM-12+014699999V0202001N001019999999N0000001N9+01391+99999098981ADDGF106991999999999999999999
0029028970999991922060720004+64217+027767FM-12+014699999V0202701N001019999999N0000001N9+01331+99999099111ADDGF102991999999999999999999
0029028970999991922060806004+64217+027767FM-12+014699999V0200501N001019999999N0000001N9+01501+99999099471ADDGF104991999999999999999999
0029028970999991922060813004+64217+027767FM-12+014699999V0200501N001019999999N0000001N9+01391+99999099461ADDGF105991999999999999999999
0029028970999991922060820004+64217+027767FM-12+014699999V0202301N001019999999N0000001N9+01281+99999099421ADDGF104991999999999999999999
0029028970999991922060906004+64217+027767FM-12+014699999V0202701N001019999999N0000001N9+01061+99999099401ADDGF104991999999999999999999
0029028970999991922060913004+64217+027767FM-12+014699999V0200701N004119999999N0000001N9+02061+99999099361ADDGF103991999999999999999999
0029028970999991922060920004+64217+027767FM-12+014699999V0209991C000019999999N0000001N9+99999+99999099621ADDGF101991999999999999999999
0029028970999991922061006004+64217+027767FM-12+014699999V0200501N003119999999N0000001N9+01501+99999099751ADDGF102991999999999999999999
0035028970999991922061013004+64217+027767FM-12+014699999V0200501N003119999999N0000001N9+01941+99999099541ADDGF105991999999999999999999MW1171
0029028970999991922061020004+64217+027767FM-12+014699999V0209991C000019999999N0000001N9+01331+99999099521ADDGF106991999999999999999999
0029028970999991922061106004+64217+027767FM-12+014699999V0209991C000019999999N0000001N9+01331+99999099281ADDGF106991999999999999999999
0035028970999991922061113004+64217+027767FM-12+014699999V0203201N003119999999N0000001N9+99999+99999099041ADDGF108991999999999999999999MW1621
0029028970999991922061120004+64217+027767FM-12+014699999V0200201N003119999999N0000001N9+99999+99999099001ADDGF108991999999999999999999
0029028970999991922061206004+64217+027767FM-12+014699999V0200201N001019999999N0000001N9+01561+99999099241ADDGF106991999999999999999999
0029028970999991922061213004+64217+027767FM-12+014699999V0200501N001019999999N0000001N9+01671+99999099381ADDGF106991999999999999999999
0029028970999991922061220004+64217+027767FM-12+014699999V0209991C000019999999N0000001N9+01331+99999099601ADDGF107991999999999999999999
0029028970999991922061306004+64217+027767FM-12+014699999V0209991C000019999999N0000001N9+01561+99999099801ADDGF102991999999999999999999
0029028970999991922061313004+64217+027767FM-12+014699999V0200501N005119999999N0000001N9+01941+99999099801ADDGF105991999999999999999999
0029028970999991922061320004+64217+027767FM-12+014699999V0201401N001019999999N0000001N9+01561+99999099801ADDGF104991999999999999999999
0029028970999991922061406004+64217+027767FM-12+014699999V0200501N003119999999N0000001N9+01611+99999099871ADDGF102991999999999999999999
0029028970999991922061413004+64217+027767FM-12+014699999V0201401N003119999999N0000001N9+02221+99999099631ADDGF106991999999999999999999
0029028970999991922061420004+64217+027767FM-12+014699999V0203201N001019999999N0000001N9+01671+99999099521ADDGF103991999999999999999999
0029028970999991922061506004+64217+027767FM-12+014699999V0200701N003119999999N0000001N9+01781+99999099481ADDGF102991999999999999999999
0029028970999991922061513004+64217+027767FM-12+014699999V0201101N001019999999N0000001N9+02171+99999099381ADDGF106991999999999999999999
0029028970999991922061520004+64217+027767FM-12+014699999V0201401N001019999999N0000001N9+01671+99999099391ADDGF104991999999999999999999
0029028970999991922061606004+64217+027767FM-12+014699999V0201101N001019999999N0000001N9+01891+99999099161ADDGF101991999999999999999999
0029028970999991922061613004+64217+027767FM-12+014699999V0201401N011819999999N0000001N9+02171+99999098831ADDGF104991999999999999999999
0029028970999991922061620004+64217+027767FM-12+014699999V0201401N001019999999N0000001N9+01561+99999098961ADDGF106991999999999999999999
0029028970999991922061706004+64217+027767FM-12+014699999V0202701N003119999999N0000001N9+01221+99999099121ADDGF108991999999999999999999
0029028970999991922061713004+64217+027767FM-12+014699999V0203201N003119999999N0000001N9+01721+99999099461ADDGF101991999999999999999999
0029028970999991922061720004+64217+027767FM-12+014699999V0209991C000019999999N0000001N9+01561+99999099521ADDGF101991999999999999999999
0029028970999991922061806004+64217+027767FM-12+014699999V0200501N001019999999N0000001N9+01781+99999099791ADDGF100991999999999999999999
0029028970999991922061813004+64217+027767FM-12+014699999V0202001N001019999999N0000001N9+02331+99999099781ADDGF102991999999999999999999
0029028970999991922061820004+64217+027767FM-12+014699999V0209991C000019999999N0000001N9+02001+99999099781ADDGF100991999999999999999999
0029028970999991922061906004+64217+027767FM-12+014699999V0209991C000019999999N0000001N9+02111+99999099741ADDGF100991999999999999999999
0029028970999991922061913004+64217+027767FM-12+014699999V0203201N003119999999N0000001N9+02501+99999099461ADDGF102991999999999999999999
0029028970999991922061920004+64217+027767FM-12+014699999V0209991C000019999999N0000001N9+02061+99999099181ADDGF101991999999999999999999
0029028970999991922062006004+64217+027767FM-12+014699999V0200901N003119999999N0000001N9+02001+99999099031ADDGF101991999999999999999999
0029028970999991922062013004+64217+027767FM-12+014699999V0200501N008719999999N0000001N9+02331+99999099121ADDGF103991999999999999999999
0029028970999991922062020004+64217+027767FM-12+014699999V0200901N005119999999N0000001N9+01611+99999099321ADDGF103991999999999999999999
0029028970999991922062106004+64217+027767FM-12+014699999V0200501N005119999999N0000001N9+01331+99999099561ADDGF100991999999999999999999
0029028970999991922062113004+64217+027767FM-12+014699999V0202301N007219999999N0000001N9+01891+99999099481ADDGF101991999999999999999999
0029028970999991922062120004+64217+027767FM-12+014699999V0200501N003119999999N0000001N9+01501+99999099281ADDGF101991999999999999999999
0029028970999991922062206004+64217+027767FM-12+014699999V0200701N005119999999N0000001N9+01171+99999099001ADDGF102991999999999999999999
0029028970999991922062213004+64217+027767FM-12+014699999V0200901N002119999999N0000001N9+01391+99999098821ADDGF108991999999999999999999
0035028970999991922062220004+64217+027767FM-12+014699999V0200501N003119999999N0000001N9+01111+99999098761ADDGF108991999999999999999999MW1621
0029028970999991922062306004+64217+027767FM-12+014699999V0201401N005119999999N0000001N9+01111+99999098551ADDGF108991999999999999999999
0035028970999991922062313004+64217+027767FM-12+014699999V0200501N001019999999N0000001N9+01391+99999098511ADDGF108991999999999999999999MW1621
0029028970999991922062320004+64217+027767FM-12+014699999V0202701N001019999999N0000001N9+01111+99999098631ADDGF105991999999999999999999
0029028970999991922062406004+64217+027767FM-12+014699999V0202301N003119999999N0000001N9+01171+99999098701ADDGF102991999999999999999999
0029028970999991922062413004+64217+027767FM-12+014699999V0202701N003119999999N0000001N9+01671+99999098711ADDGF106991999999999999999999
0029028970999991922062420004+64217+027767FM-12+014699999V0202701N001019999999N0000001N9+01501+99999098741ADDGF105991999999999999999999
0035028970999991922062506004+64217+027767FM-12+014699999V0201601N001019999999N0000001N9+01221+99999098641ADDGF108991999999999999999999MW1621
0035028970999991922062513004+64217+027767FM-12+014699999V0203201N001019999999N0000001N9+01221+99999098591ADDGF108991999999999999999999MW1621
0029028970999991922062520004+64217+027767FM-12+014699999V0202901N001019999999N0000001N9+01331+99999098801ADDGF106991999999999999999999
0029028970999991922062606004+64217+027767FM-12+014699999V0203201N001019999999N0000001N9+01331+99999099031ADDGF100991999999999999999999
0029028970999991922062613004+64217+027767FM-12+014699999V0201401N001019999999N0000001N9+02111+99999099001ADDGF102991999999999999999999
0029028970999991922062620004+64217+027767FM-12+014699999V0201601N001019999999N0000001N9+01781+99999098821ADDGF101991999999999999999999
0035028970999991922062706004+64217+027767FM-12+014699999V0202701N001019999999N0000001N9+01111+99999098721ADDGF108991999999999999999999MW1621
0029028970999991922062713004+64217+027767FM-12+014699999V0201601N002119999999N0000001N9+01781+99999098841ADDGF106991999999999999999999
0029028970999991922062720004+64217+027767FM-12+014699999V0201601N001019999999N0000001N9+01611+99999098841ADDGF103991999999999999999999
0029028970999991922062806004+64217+027767FM-12+014699999V0201401N001019999999N0000001N9+01561+99999098721ADDGF101991999999999999999999
0029028970999991922062813004+64217+027767FM-12+014699999V0201401N001019999999N0000001N9+01331+99999098321ADDGF108991999999999999999999
0029028970999991922062820004+64217+027767FM-12+014699999V0203201N002119999999N0000001N9+01061+99999097661ADDGF108991999999999999999999
0029028970999991922062906004+64217+027767FM-12+014699999V0202301N002119999999N0000001N9+01061+99999097941ADDGF108991999999999999999999
0029028970999991922062913004+64217+027767FM-12+014699999V0202501N002119999999N0000001N9+01171+99999098381ADDGF107991999999999999999999
0029028970999991922062920004+64217+027767FM-12+014699999V0201801N002119999999N0000001N9+01391+99999098551ADDGF103991999999999999999999
0029028970999991922063006004+64217+027767FM-12+014699999V0201401N002119999999N0000001N9+01441+99999098381ADDGF108991999999999999999999
0029028970999991922063013004+64217+027767FM-12+014699999V0202301N002119999999N0000001N9+01891+99999098561ADDGF106991999999999999999999
0029028970999991922063020004+64217+027767FM-12+014699999V0202301N002119999999N0000001N9+01391+99999098781ADDGF106991999999999999999999
0029028970999991922070106004+64217+027767FM-12+014699999V0202301N003119999999N0000001N9+01221+99999099261ADDGF101991999999999999999999
0029028970999991922070113004+64217+027767FM-12+014699999V0202301N005119999999N0000001N9+01941+99999099521ADDGF106991999999999999999999
0029028970999991922070120004+64217+027767FM-12+014699999V0203201N002119999999N0000001N9+01221+99999099681ADDGF106991999999999999999999
0029028970999991922070206004+64217+027767FM-12+014699999V0202301N003119999999N0000001N9+01331+99999099991ADDGF101991999999999999999999
0029028970999991922070213004+64217+027767FM-12+014699999V0202701N004119999999N0000001N9+99999+99999100111ADDGF107991999999999999999999
0029028970999991922070220004+64217+027767FM-12+014699999V0202301N002119999999N0000001N9+01331+99999100481ADDGF107991999999999999999999
0029028970999991922070306004+64217+027767FM-12+014699999V0203401N001019999999N0000001N9+01281+99999100821ADDGF106991999999999999999999
0029028970999991922070313004+64217+027767FM-12+014699999V0202001N002119999999N0000001N9+02221+99999100791ADDGF104991999999999999999999
0029028970999991922070320004+64217+027767FM-12+014699999V0202001N001019999999N0000001N9+01561+99999100631ADDGF101991999999999999999999
0029028970999991922070406004+64217+027767FM-12+014699999V0201801N001019999999N0000001N9+01721+99999100321ADDGF106991999999999999999999
0029028970999991922070413004+64217+027767FM-12+014699999V0201801N001019999999N0000001N9+01891+99999100041ADDGF106991999999999999999999
0029028970999991922070420004+64217+027767FM-12+014699999V0202001N002119999999N0000001N9+01611+99999099921ADDGF107991999999999999999999
0029028970999991922070506004+64217+027767FM-12+014699999V0201401N002119999999N0000001N9+01561+99999099661ADDGF108991999999999999999999
0029028970999991922070513004+64217+027767FM-12+014699999V0201801N002119999999N0000001N9+99999+99999099441ADDGF106991999999999999999999
0029028970999991922070520004+64217+027767FM-12+014699999V0202001N002119999999N0000001N9+01781+99999099321ADDGF102991999999999999999999
0029028970999991922070606004+64217+027767FM-12+014699999V0201401N001019999999N0000001N9+01561+99999099161ADDGF101991999999999999999999
0029028970999991922070613004+64217+027767FM-12+014699999V0202701N002119999999N0000001N9+01891+99999099241ADDGF107991999999999999999999
0029028970999991922070620004+64217+027767FM-12+014699999V0202701N002119999999N0000001N9+01781+99999099381ADDGF101991999999999999999999
0029028970999991922070706004+64217+027767FM-12+014699999V0201401N002119999999N0000001N9+99999+99999099391ADDGF107991999999999999999999
0029028970999991922070713004+64217+027767FM-12+014699999V0201801N008719999999N0000001N9+02391+99999099121ADDGF106991999999999999999999
0029028970999991922070720004+64217+027767FM-12+014699999V0202001N001019999999N0000001N9+02171+99999099001ADDGF102991999999999999999999
0029028970999991922070806004+64217+027767FM-12+014699999V0202701N002119999999N0000001N9+99999+99999099281ADDGF108991999999999999999999
0029028970999991922070813004+64217+027767FM-12+014699999V0202001N001019999999N0000001N9+01501+99999099351ADDGF108991999999999999999999
0029028970999991922070820004+64217+027767FM-12+014699999V0202301N001019999999N0000001N9+01441+99999099361ADDGF105991999999999999999999
0029028970999991922070906004+64217+027767FM-12+014699999V0202701N002119999999N0000001N9+01501+99999099791ADDGF100991999999999999999999
0029028970999991922070913004+64217+027767FM-12+014699999V0203201N003119999999N0000001N9+01891+99999100161ADDGF106991999999999999999999
0029028970999991922070920004+64217+027767FM-12+014699999V0202701N001019999999N0000001N9+01501+99999100311ADDGF105991999999999999999999
0029028970999991922071006004+64217+027767FM-12+014699999V0200501N001019999999N0000001N9+01501+99999100111ADDGF107991999999999999999999
0029028970999991922071013004+64217+027767FM-12+014699999V0201801N008719999999N0000001N9+02281+99999099761ADDGF107991999999999999999999
0029028970999991922071020004+64217+027767FM-12+014699999V0202301N003119999999N0000001N9+99999+99999099641ADDGF103991999999999999999999
0029028970999991922071106004+64217+027767FM-12+014699999V0202301N003119999999N0000001N9+01331+99999099671ADDGF108991999999999999999999
0029028970999991922071113004+64217+027767FM-12+014699999V0202701N001019999999N0000001N9+01281+99999099401ADDGF106991999999999999999999
0029028970999991922071120004+64217+027767FM-12+014699999V0202501N003119999999N0000001N9+01171+99999099401ADDGF108991999999999999999999
0029028970999991922071206004+64217+027767FM-12+014699999V0202501N001019999999N0000001N9+01171+99999099591ADDGF108991999999999999999999
0029028970999991922071213004+64217+027767FM-12+014699999V0202501N007219999999N0000001N9+01501+99999099751ADDGF108991999999999999999999
0029028970999991922071220004+64217+027767FM-12+014699999V0203201N001019999999N0000001N9+01171+99999099921ADDGF108991999999999999999999
0029028970999991922071306004+64217+027767FM-12+014699999V0203201N007219999999N0000001N9+01001+99999100101ADDGF108991999999999999999999
0029028970999991922071313004+64217+027767FM-12+014699999V0203201N003119999999N0000001N9+01001+99999100111ADDGF108991999999999999999999
0029028970999991922071320004+64217+027767FM-12+014699999V0203201N001019999999N0000001N9+00941+99999100031ADDGF108991999999999999999999
0029028970999991922071406004+64217+027767FM-12+014699999V0203201N003119999999N0000001N9+01001+99999099941ADDGF108991999999999999999999
0029028970999991922071413004+64217+027767FM-12+014699999V0203401N003119999999N0000001N9+01441+99999099831ADDGF106991999999999999999999
0029028970999991922071420004+64217+027767FM-12+014699999V0202301N001019999999N0000001N9+01391+99999099701ADDGF104991999999999999999999
0029028970999991922071506004+64217+027767FM-12+014699999V0202701N001019999999N0000001N9+01441+99999099551ADDGF107991999999999999999999
0029028970999991922071513004+64217+027767FM-12+014699999V0203201N001019999999N0000001N9+01561+99999099501ADDGF108991999999999999999999
0029028970999991922071520004+64217+027767FM-12+014699999V0203401N001019999999N0000001N9+01611+99999099481ADDGF106991999999999999999999
0029028970999991922071606004+64217+027767FM-12+014699999V0209991C000019999999N0000001N9+01671+99999099361ADDGF105991999999999999999999
0029028970999991922071613004+64217+027767FM-12+014699999V0209991C000019999999N0000001N9+01831+99999099321ADDGF107991999999999999999999
0029028970999991922071620004+64217+027767FM-12+014699999V0200501N005119999999N0000001N9+01441+99999099321ADDGF106991999999999999999999
0029028970999991922071706004+64217+027767FM-12+014699999V0200501N002119999999N0000001N9+01441+99999099281ADDGF108991999999999999999999
0029028970999991922071713004+64217+027767FM-12+014699999V0200501N002119999999N0000001N9+02171+99999099151ADDGF102991999999999999999999
0029028970999991922071720004+64217+027767FM-12+014699999V0200501N003119999999N0000001N9+01781+99999099101ADDGF101991999999999999999999
0029028970999991922071806004+64217+027767FM-12+014699999V0200901N007219999999N0000001N9+01611+99999099071ADDGF100991999999999999999999
0029028970999991922071813004+64217+027767FM-12+014699999V0200501N008719999999N0000001N9+01671+99999098881ADDGF106991999999999999999999
0029028970999991922071820004+64217+027767FM-12+014699999V0200501N007219999999N0000001N9+01391+99999098821ADDGF108991999999999999999999
0029028970999991922071906004+64217+027767FM-12+014699999V0200201N003119999999N0000001N9+01281+99999098551ADDGF108991999999999999999999
0035028970999991922071913004+64217+027767FM-12+014699999V0200201N001019999999N0000001N9+01331+99999098471ADDGF108991999999999999999999MW1621
0029028970999991922071920004+64217+027767FM-12+014699999V0200501N001019999999N0000001N9+01281+99999098541ADDGF108991999999999999999999
0029028970999991922072006004+64217+027767FM-12+014699999V0200501N003119999999N0000001N9+01281+99999098551ADDGF108991999999999999999999
0029028970999991922072013004+64217+027767FM-12+014699999V0200501N001019999999N0000001N9+02001+99999098561ADDGF103991999999999999999999
0029028970999991922072020004+64217+027767FM-12+014699999V0200201N003119999999N0000001N9+01671+99999098601ADDGF101991999999999999999999
0029028970999991922072106004+64217+027767FM-12+014699999V0203201N003119999999N0000001N9+01501+99999098661ADDGF108991999999999999999999
0029028970999991922072113004+64217+027767FM-12+014699999V0203401N003119999999N0000001N9+01941+99999098561ADDGF106991999999999999999999
0029028970999991922072120004+64217+027767FM-12+014699999V0203201N003119999999N0000001N9+01831+99999098201ADDGF106991999999999999999999
0029028970999991922072206004+64217+027767FM-12+014699999V0200501N003119999999N0000001N9+01441+99999098031ADDGF108991999999999999999999
0029028970999991922072213004+64217+027767FM-12+014699999V0200501N003119999999N0000001N9+02001+99999098111ADDGF106991999999999999999999
0029028970999991922072220004+64217+027767FM-12+014699999V0200501N001019999999N0000001N9+99999+99999098301ADDGF107991999999999999999999
0029028970999991922072306004+64217+027767FM-12+014699999V0200501N001019999999N0000001N9+01721+99999098461ADDGF108991999999999999999999
0029028970999991922072313004+64217+027767FM-12+014699999V0200701N003119999999N0000001N9+02281+99999098501ADDGF103991999999999999999999
0029028970999991922072320004+64217+027767FM-12+014699999V0209991C000019999999N0000001N9+01671+99999098641ADDGF106991999999999999999999
0029028970999991922072406004+64217+027767FM-12+014699999V0200501N003119999999N0000001N9+01671+99999098801ADDGF103991999999999999999999
0029028970999991922072413004+64217+027767FM-12+014699999V0202701N003119999999N0000001N9+02501+99999098861ADDGF103991999999999999999999
0029028970999991922072420004+64217+027767FM-12+014699999V0209991C000019999999N0000001N9+01941+99999099001ADDGF104991999999999999999999
0029028970999991922072506004+64217+027767FM-12+014699999V0200501N003119999999N0000001N9+01721+99999099191ADDGF100991999999999999999999
0029028970999991922072513004+64217+027767FM-12+014699999V0200501N002119999999N0000001N9+02331+99999099201ADDGF102991999999999999999999
0029028970999991922072520004+64217+027767FM-12+014699999V0200501N003119999999N0000001N9+01721+99999099441ADDGF101991999999999999999999
0029028970999991922072606004+64217+027767FM-12+014699999V0200901N003119999999N0000001N9+01391+99999099511ADDGF100991999999999999999999
0029028970999991922072613004+64217+027767FM-12+014699999V0200901N003119999999N0000001N9+02061+99999099551ADDGF100991999999999999999999
0029028970999991922072620004+64217+027767FM-12+014699999V0200501N003119999999N0000001N9+01561+99999099551ADDGF101991999999999999999999
0029028970999991922072706004+64217+027767FM-12+014699999V0200501N003119999999N0000001N9+01061+99999099261ADDGF106991999999999999999999
0029028970999991922072713004+64217+027767FM-12+014699999V0200201N002119999999N0000001N9+01671+99999099101ADDGF105991999999999999999999
0029028970999991922072720004+64217+027767FM-12+014699999V0200501N002119999999N0000001N9+01441+99999098861ADDGF103991999999999999999999
0029028970999991922072806004+64217+027767FM-12+014699999V0203201N002119999999N0000001N9+01111+99999098581ADDGF102991999999999999999999
0035028970999991922072813004+64217+027767FM-12+014699999V0203401N002119999999N0000001N9+01331+99999098381ADDGF108991999999999999999999MW1621
0035028970999991922072820004+64217+027767FM-12+014699999V0203201N002119999999N0000001N9+01221+99999098031ADDGF108991999999999999999999MW1621
0029028970999991922072906004+64217+027767FM-12+014699999V0203201N002119999999N0000001N9+01391+99999097951ADDGF108991999999999999999999
0029028970999991922072913004+64217+027767FM-12+014699999V0202301N002119999999N0000001N9+01721+99999097941ADDGF108991999999999999999999
0035028970999991922072920004+64217+027767FM-12+014699999V0202901N002119999999N0000001N9+01561+99999097941ADDGF108991999999999999999999MW1621
0035028970999991922073006004+64217+027767FM-12+014699999V0202701N002119999999N0000001N9+01501+99999097961ADDGF108991999999999999999999MW1621
0029028970999991922073013004+64217+027767FM-12+014699999V0200701N002119999999N0000001N9+01671+99999098191ADDGF106991999999999999999999
0029028970999991922073020004+64217+027767FM-12+014699999V0200501N002119999999N0000001N9+01561+99999098341ADDGF107991999999999999999999
0029028970999991922073106004+64217+027767FM-12+014699999V0200501N002119999999N0000001N9+01561+99999098521ADDGF107991999999999999999999
0029028970999991922073113004+64217+027767FM-12+014699999V0202701N002119999999N0000001N9+01941+99999098681ADDGF106991999999999999999999
0029028970999991922073120004+64217+027767FM-12+014699999V0202701N002119999999N0000001N9+01501+99999098821ADDGF103991999999999999999999
0029028970999991922080106004+64217+027767FM-12+014699999V0202701N002119999999N0000001N9+01391+99999099031ADDGF105991999999999999999999
0029028970999991922080113004+64217+027767FM-12+014699999V0202301N002119999999N0000001N9+02171+99999099101ADDGF103991999999999999999999
0029028970999991922080120004+64217+027767FM-12+014699999V0202301N002119999999N0000001N9+01671+99999099111ADDGF106991999999999999999999
0029028970999991922080206004+64217+027767FM-12+014699999V0202001N002119999999N0000001N9+01441+99999099221ADDGF101991999999999999999999
0029028970999991922080213004+64217+027767FM-12+014699999V0202301N005119999999N0000001N9+01831+99999099341ADDGF104991999999999999999999
0029028970999991922080220004+64217+027767FM-12+014699999V0202301N002119999999N0000001N9+01441+99999099551ADDGF101991999999999999999999
0029028970999991922080306004+64217+027767FM-12+014699999V0202301N002119999999N0000001N9+01331+99999100241ADDGF100991999999999999999999
0029028970999991922080313004+64217+027767FM-12+014699999V0202301N002119999999N0000001N9+01831+99999099951ADDGF106991999999999999999999
0035028970999991922080320004+64217+027767FM-12+014699999V0201401N002119999999N0000001N9+01441+99999099591ADDGF108991999999999999999999MW1621
0029028970999991922080406004+64217+027767FM-12+014699999V0200901N002119999999N0000001N9+01441+99999098791ADDGF108991999999999999999999
0029028970999991922080413004+64217+027767FM-12+014699999V0202301N002119999999N0000001N9+01331+99999098871ADDGF108991999999999999999999
0029028970999991922080420004+64217+027767FM-12+014699999V0202501N002119999999N0000001N9+01221+99999098941ADDGF106991999999999999999999
0029028970999991922080506004+64217+027767FM-12+014699999V0202301N002119999999N0000001N9+01061+99999098941ADDGF106991999999999999999999
0029028970999991922080513004+64217+027767FM-12+014699999V0202301N003119999999N0000001N9+01721+99999098951ADDGF105991999999999999999999
0029028970999991922080520004+64217+027767FM-12+014699999V0202501N002119999999N0000001N9+01171+99999099241ADDGF103991999999999999999999
0029028970999991922080606004+64217+027767FM-12+014699999V0202701N002119999999N0000001N9+01281+99999099621ADDGF100991999999999999999999
0029028970999991922080613004+64217+027767FM-12+014699999V0200501N002119999999N0000001N9+01831+99999099661ADDGF102991999999999999999999
0029028970999991922080620004+64217+027767FM-12+014699999V0203401N002119999999N0000001N9+01501+99999099551ADDGF104991999999999999999999
0035028970999991922080706004+64217+027767FM-12+014699999V0203201N002119999999N0000001N9+01111+99999098921ADDGF108991999999999999999999MW1621
0035028970999991922080713004+64217+027767FM-12+014699999V0202901N002119999999N0000001N9+01001+99999098271ADDGF108991999999999999999999MW1621
0035028970999991922080720004+64217+027767FM-12+014699999V0202501N002119999999N0000001N9+00941+99999098101ADDGF108991999999999999999999MW1621
0029028970999991922080806004+64217+027767FM-12+014699999V0202301N002119999999N0000001N9+00721+99999098241ADDGF108991999999999999999999
0035028970999991922080813004+64217+027767FM-12+014699999V0202701N003119999999N0000001N9+01111+99999098671ADDGF108991999999999999999999MW1621
0029028970999991922080820004+64217+027767FM-12+014699999V0202301N002119999999N0000001N9+01111+99999098961ADDGF102991999999999999999999
0029028970999991922080906004+64217+027767FM-12+014699999V0203201N002119999999N0000001N9+01001+99999099261ADDGF101991999999999999999999
0029028970999991922080913004+64217+027767FM-12+014699999V0203201N002119999999N0000001N9+01781+99999099441ADDGF104991999999999999999999
0029028970999991922080920004+64217+027767FM-12+014699999V0202001N002119999999N0000001N9+01171+99999099471ADDGF101991999999999999999999
0029028970999991922081006004+64217+027767FM-12+014699999V0203201N002119999999N0000001N9+01171+99999099301ADDGF103991999999999999999999
0035028970999991922081013004+64217+027767FM-12+014699999V0203401N002119999999N0000001N9+01281+99999099031ADDGF107991999999999999999999MW1621
0029028970999991922081020004+64217+027767FM-12+014699999V0200501N001019999999N0000001N9+01281+99999098791ADDGF108991999999999999999999
0029028970999991922081106004+64217+027767FM-12+014699999V0203201N003119999999N0000001N9+01331+99999098841ADDGF107991999999999999999999
0029028970999991922081113004+64217+027767FM-12+014699999V0203201N002119999999N0000001N9+99999+99999098901ADDGF108991999999999999999999
0029028970999991922081120004+64217+027767FM-12+014699999V0203201N003119999999N0000001N9+01171+99999099061ADDGF108991999999999999999999
0029028970999991922081206004+64217+027767FM-12+014699999V0203201N005119999999N0000001N9+00941+99999098911ADDGF108991999999999999999999
0029028970999991922081213004+64217+027767FM-12+014699999V0203201N003119999999N0000001N9+00941+99999098991ADDGF108991999999999999999999
0029028970999991922081220004+64217+027767FM-12+014699999V0203201N002119999999N0000001N9+00941+99999098981ADDGF108991999999999999999999
0029028970999991922081306004+64217+027767FM-12+014699999V0203401N002119999999N0000001N9+00941+99999099121ADDGF108991999999999999999999
0029028970999991922081313004+64217+027767FM-12+014699999V0203201N002119999999N0000001N9+01281+99999099391ADDGF105991999999999999999999
0029028970999991922081320004+64217+027767FM-12+014699999V0203401N002119999999N0000001N9+00941+99999099221ADDGF108991999999999999999999
0035028970999991922081406004+64217+027767FM-12+014699999V0200501N002119999999N0000001N9+00941+99999099271ADDGF108991999999999999999999MW1601
0029028970999991922081413004+64217+027767FM-12+014699999V0200201N003119999999N0000001N9+01111+99999099321ADDGF108991999999999999999999
0029028970999991922081420004+64217+027767FM-12+014699999V0203201N001019999999N0000001N9+00891+99999099311ADDGF106991999999999999999999
0029028970999991922081506004+64217+027767FM-12+014699999V0203201N001019999999N0000001N9+00831+99999099351ADDGF103991999999999999999999
0029028970999991922081513004+64217+027767FM-12+014699999V0203401N001019999999N0000001N9+01061+99999099421ADDGF108991999999999999999999
0029028970999991922081520004+64217+027767FM-12+014699999V0200501N001019999999N0000001N9+00891+99999099421ADDGF106991999999999999999999
0029028970999991922081606004+64217+027767FM-12+014699999V0200201N001019999999N0000001N9+00941+99999099351ADDGF105991999999999999999999
0029028970999991922081613004+64217+027767FM-12+014699999V0203201N001019999999N0000001N9+01221+99999099461ADDGF104991999999999999999999
0029028970999991922081620004+64217+027767FM-12+014699999V0202901N001019999999N0000001N9+00831+99999099431ADDGF102991999999999999999999
0029028970999991922081706004+64217+027767FM-12+014699999V0203201N001019999999N0000001N9+00941+99999099581ADDGF107991999999999999999999
0029028970999991922081713004+64217+027767FM-12+014699999V0200501N002119999999N0000001N9+01331+99999099641ADDGF103991999999999999999999
0029028970999991922081720004+64217+027767FM-12+014699999V0209991C000019999999N0000001N9+00831+99999099631ADDGF101991999999999999999999
0029028970999991922081806004+64217+027767FM-12+014699999V0203201N001019999999N0000001N9+00611+99999099921ADDGF100991999999999999999999
0029028970999991922081813004+64217+027767FM-12+014699999V0200501N001019999999N0000001N9+01671+99999099751ADDGF101991999999999999999999
0029028970999991922081820004+64217+027767FM-12+014699999V0209991C000019999999N0000001N9+00941+99999099591ADDGF101991999999999999999999
0035028970999991922081906004+64217+027767FM-12+014699999V0200501N003119999999N0000001N9+01061+99999099511ADDGF108991999999999999999999MW1601
0029028970999991922081913004+64217+027767FM-12+014699999V0200901N001019999999N0000001N9+01441+99999099511ADDGF108991999999999999999999
0029028970999991922081920004+64217+027767FM-12+014699999V0201401N003119999999N0000001N9+01281+99999099431ADDGF104991999999999999999999
0029028970999991922082006004+64217+027767FM-12+014699999V0200901N005119999999N0000001N9+01061+99999099271ADDGF108991999999999999999999
0029028970999991922082013004+64217+027767FM-12+014699999V0200901N003119999999N0000001N9+01331+99999099381ADDGF108991999999999999999999
0029028970999991922082020004+64217+027767FM-12+014699999V0200901N003119999999N0000001N9+01441+99999099441ADDGF108991999999999999999999
0029028970999991922082106004+64217+027767FM-12+014699999V0200901N003119999999N0000001N9+01281+99999099501ADDGF104991999999999999999999
0029028970999991922082113004+64217+027767FM-12+014699999V0201401N002119999999N0000001N9+01781+99999099601ADDGF107991999999999999999999
0029028970999991922082120004+64217+027767FM-12+014699999V0201601N002119999999N0000001N9+01441+99999099741ADDGF105991999999999999999999
0029028970999991922082206004+64217+027767FM-12+014699999V0201401N002119999999N0000001N9+01331+99999099741ADDGF102991999999999999999999
0029028970999991922082213004+64217+027767FM-12+014699999V0201401N004119999999N0000001N9+01781+99999099591ADDGF106991999999999999999999
0029028970999991922082220004+64217+027767FM-12+014699999V0201401N001019999999N0000001N9+01281+99999099601ADDGF105991999999999999999999
0029028970999991922082306004+64217+027767FM-12+014699999V0202301N001019999999N0000001N9+01061+99999099711ADDGF102991999999999999999999
0029028970999991922082313004+64217+027767FM-12+014699999V0202301N003119999999N0000001N9+01941+99999099601ADDGF102991999999999999999999
0029028970999991922082320004+64217+027767FM-12+014699999V0209991C000019999999N0000001N9+01331+99999099471ADDGF101991999999999999999999
0029028970999991922082406004+64217+027767FM-12+014699999V0201401N003119999999N0000001N9+01331+99999099431ADDGF102991999999999999999999
0029028970999991922082413004+64217+027767FM-12+014699999V0201401N005119999999N0000001N9+01781+99999099321ADDGF106991999999999999999999
0029028970999991922082420004+64217+027767FM-12+014699999V0201401N003119999999N0000001N9+01441+99999099191ADDGF102991999999999999999999
0029028970999991922082506004+64217+027767FM-12+014699999V0200501N005119999999N0000001N9+01391+99999099121ADDGF100991999999999999999999
0029028970999991922082513004+64217+027767FM-12+014699999V0201401N002119999999N0000001N9+01501+99999099151ADDGF108991999999999999999999
0029028970999991922082520004+64217+027767FM-12+014699999V0201401N001019999999N0000001N9+01281+99999099271ADDGF108991999999999999999999
0029028970999991922082606004+64217+027767FM-12+014699999V0201401N001019999999N0000001N9+01221+99999099391ADDGF108991999999999999999999
0029028970999991922082613004+64217+027767FM-12+014699999V0202001N001019999999N0000001N9+02001+99999099541ADDGF106991999999999999999999
0029028970999991922082620004+64217+027767FM-12+014699999V0202301N001019999999N0000001N9+01281+99999099601ADDGF105991999999999999999999
0029028970999991922082706004+64217+027767FM-12+014699999V0200501N001019999999N0000001N9+01221+99999099561ADDGF108991999999999999999999
0029028970999991922082713004+64217+027767FM-12+014699999V0202301N003119999999N0000001N9+01561+99999099781ADDGF108991999999999999999999
0029028970999991922082720004+64217+027767FM-12+014699999V0202301N001019999999N0000001N9+01281+99999099841ADDGF108991999999999999999999
0029028970999991922082806004+64217+027767FM-12+014699999V0209991C000019999999N0000001N9+01111+99999099921ADDGF108991999999999999999999
0029028970999991922082813004+64217+027767FM-12+014699999V0202701N001019999999N0000001N9+01391+99999100081ADDGF106991999999999999999999
0029028970999991922082820004+64217+027767FM-12+014699999V0209991C000019999999N0000001N9+01061+99999099911ADDGF106991999999999999999999
0029028970999991922082906004+64217+027767FM-12+014699999V0202001N001019999999N0000001N9+01171+99999099841ADDGF108991999999999999999999
0029028970999991922082913004+64217+027767FM-12+014699999V0202301N003119999999N0000001N9+01561+99999099821ADDGF106991999999999999999999
0029028970999991922082920004+64217+027767FM-12+014699999V0202301N003119999999N0000001N9+01441+99999099821ADDGF106991999999999999999999
0029028970999991922083006004+64217+027767FM-12+014699999V0209991C000019999999N0000001N9+01221+99999100041ADDGF108991999999999999999999
0029028970999991922083013004+64217+027767FM-12+014699999V0202701N002119999999N0000001N9+01561+99999100121ADDGF106991999999999999999999
0029028970999991922083020004+64217+027767FM-12+014699999V0209991C000019999999N0000001N9+01281+99999099961ADDGF108991999999999999999999
0029028970999991922083106004+64217+027767FM-12+014699999V0200701N003119999999N0000001N9+01281+99999100221ADDGF102991999999999999999999
0029028970999991922083113004+64217+027767FM-12+014699999V0200501N002119999999N0000001N9+01781+99999100261ADDGF102991999999999999999999
0029028970999991922083120004+64217+027767FM-12+014699999V0209991C000019999999N0000001N9+01061+99999100381ADDGF101991999999999999999999
0029028970999991922090106004+64217+027767FM-12+014699999V0209991C000019999999N0000001N9+00941+99999100581ADDGF101991999999999999999999
0029028970999991922090113004+64217+027767FM-12+014699999V0200501N002119999999N0000001N9+01441+99999100561ADDGF101991999999999999999999
0029028970999991922090120004+64217+027767FM-12+014699999V0209991C000019999999N0000001N9+00831+99999100591ADDGF101991999999999999999999
0029028970999991922090206004+64217+027767FM-12+014699999V0209991C000019999999N0000001N9+00611+99999100751ADDGF108991999999999999999999
0029028970999991922090213004+64217+027767FM-12+014699999V0200501N003119999999N0000001N9+01501+99999100741ADDGF102991999999999999999999
0029028970999991922090220004+64217+027767FM-12+014699999V0209991C000019999999N0000001N9+00781+99999100741ADDGF100991999999999999999999
0029028970999991922090306004+64217+027767FM-12+014699999V0209991C000019999999N0000001N9+00891+99999100881ADDGF103991999999999999999999
