0051011060999991929010112004+67500+012067FM-12+001199999V0203201N00931012301CN0500001N9-00111+99999101541ADDAY171999GF106991061011012501001001MD1310401+9999
0068011060999991929010206004+67500+012067FM-12+001199999V0202301N01541030001CN0040001N9+00611+99999101361ADDAA199002091AY161999GF108991041061008001021001MD1610141+9999MW1621
0057011060999991929010212004+67500+012067FM-12+001199999V0202501N01231007801CN0040001N9+00611+99999101411ADDAY161999GF108991081061008001999999MD1210061+9999MW1631
0068011060999991929010306004+67500+012067FM-12+001199999V0202301N01541030001CN0100001N9+00721+99999101551ADDAA199000391AY161999GF108991041061008001021001MD1810061+9999MW1501
0070011060999991929010312004+67500+012067FM-12+001199999V0202501N012319999999N0100001N9+00721+99999101601ADDAY121999GF108991999011012501001001MD1310061+9999EQDQ01+000022SCOTLC
0103011060999991929010406004+67500+012067FM-12+001199999V0202701N009319999999N0100001N9+00281+99999101971ADDAA199001091AY181999GF108991999011008001001001MD1310542+9999MW1621EQDQ01+000022SCOTLCQ02+000542APC3  
0057011060999991929010412004+67500+012067FM-12+001199999V0203201N00671030001CN0200001N9+00281+99999102391ADDAY161999GF108991021061012501021001MD1310201+9999MW1161
0048011060999991929010506004+67500+012067FM-12+001199999V0202301N009319999999N0200001N9+00611+99999102701ADDAA199000591AY161999GF106991999999012501999999
0051011060999991929010512004+67500+012067FM-12+001199999V0202001N01231030001CN0100001N9+00611+99999102831ADDAY121999GF108991021051012501021001MD1310061+9999
0083011060999991929010606004+67500+012067FM-12+001199999V0202301N00931030001CN0200001N9+00611+99999103141ADDAA199000391AY121999GF108991021011012501021001EQDQ01+000032APCTENQ02+000002APC3  
0057011060999991929010612004+67500+012067FM-12+001199999V0202001N00671030001CN0200001N9+00501+99999103111ADDAY161999GF108991021061012501021001MD1990061+9999MW1501
0048011060999991929010706004+67500+012067FM-12+001199999V0203201N00671220001CN0200001N9+00391+99999104261ADDAA199000591AY181999GF102991011011017501021001
0051011060999991929010712004+67500+012067FM-12+001199999V0203201N00461075001CN0500001N9+00281+99999104591ADDAY111999GF106991021011012501001081MD1310201+9999
0051011060999991929010806004+67500+012067FM-12+001199999V0201801N01231220001CN0500001N9+00391+99999104061ADDAY101999GF101991001001999999001021MD1710201+9999
0057011060999991929010812004+67500+012067FM-12+001199999V0201801N01231030001CN0200001N9+00501+99999103831ADDAY121999GF106991021061008001021001MD1710261+9999MW1161
0068011060999991929010906004+67500+012067FM-12+001199999V0202301N00931220001CN0200001N9+00501+99999103581ADDAA199001091AY181999GF102991021061012501021001MD1810141+9999MW1161
0057011060999991929010912004+67500+012067FM-12+001199999V0203201N00931075001CN0100001N9+00501+99999103621ADDAY181999GF108991021061012501001081MD1010001+9999MW1621
0083011060999991929011006004+67500+012067FM-12+001199999V0202701N00931030001CN0200001N9+00501+99999103631ADDAA199000391AY121999GF108991021011017501021001EQDQ01+000082APCTENQ02+000002APC3  
0072011060999991929011012004+67500+012067FM-12+001199999V0202701N00931030001CN0500001N9+00501+99999103681ADDAY121999GF106991041011012501021001EQDQ01+000022APCTENQ02+000002APC3  
0051011060999991929011106004+67500+012067FM-12+001199999V0202901N01541030001CN0200001N9+00611+99999102631ADDAY121999GF108991021011012501021001MD1710061+9999
0072011060999991929011112004+67500+012067FM-12+001199999V0203201N01231030001CN0200001N9+00501+99999102831ADDAY121999GF108991021011008001021001EQDQ01+000022APCTENQ02+000002APC3  
0057011060999991929011206004+67500+012067FM-12+001199999V0202501N01231030001CN0100001N9+00501+99999101941ADDAY121999GF108991021061008001021001MD1810341+9999MW1161
0092011060999991929011212004+67500+012067FM-12+001199999V0202501N01541007801CN0020001N9+00501+99999100952ADDAY161999GF108991081061008001999999MD1810942+9999MW1621EQDQ01+100953APOSLPQ02+000942APC3  
0087011060999991929011306004+67500+012067FM-12+001199999V0209991C00001220001CN0100001N9+00001+99999100951ADDAA199001091AY181999GF102991021011012501001001MD1310061+9999MW1901EQDQ01+003602WODIR 
0057011060999991929011312004+67500+012067FM-12+001199999V0203401N01901004501CN0005001N9-00111+99999101671ADDAY181999GF108991081061004501999999MD1310141+9999MW1861
0092011060999991929011412004+67500+012067FM-12+001199999V0203401N015419999999N0200001N9-00111+99999100991ADDAY181999GF108991999011008001001001MD1810602+9999MW1851EQDQ01+000022SCOTLCQ02+000602APC3  
0087011060999991929011506004+67500+012067FM-12+001199999V0200501N006719999999N0100001N9-00391+99999100911ADDAA199001091AY171999GF106991999011012501001001MD1310201+9999MW1701EQDQ01+000022SCOTLC
0057011060999991929011512004+67500+012067FM-12+001199999V0200501N00931007801CN0010001N9-00501+99999101181ADDAY181999GF108991081061008001999999MD1310141+9999MW1721
0062011060999991929011606004+67500+012067FM-12+001199999V0200501N00461220001CN0200001N9-00501+99999101391ADDAA199001091AY171999GF102991021011012501001001MD1310141+9999
0051011060999991929011612004+67500+012067FM-12+001199999V0209991C00001075001CN0500001N9-00281+99999101131ADDAY111999GF106991021011012501001021MD1810141+9999
0068011060999991929011706004+67500+012067FM-12+001199999V0201601N00931007801CN0002001N9-00281+99999100121ADDAA199006091AY171999GF108991081061008001999999MD1810341+9999MW1741
0076011060999991929011712004+67500+012067FM-12+001199999V0201801N015419999999N0010001N9-00281+99999099811ADDAY171999GF108991999011008001001001MD1810201+9999MW1701EQDQ01+000022SCOTLC
0089011060999991929011806004+67500+012067FM-12+001199999V0200901N00931220001CN0500001N9-00391+99999099671ADDAA199000391AY181999GF102991021011017501001001MW1231EQDQ01+000042APCTENQ02+000202APC3  
0051011060999991929011812004+67500+012067FM-12+001199999V0200901N00671075001CN0500001N9-00501+99999099971ADDAY111999GF107991021011012501001081MD1310201+9999
0087011060999991929011906004+67500+012067FM-12+001199999V0202701N012319999999N0020001N9+00001+99999101241ADDAA199002091AY171999GF106991999011008001001001MD1310201+9999MW1161EQDQ01+000022SCOTLC
0076011060999991929011912004+67500+012067FM-12+001199999V0202701N00931220001CN0500001N9+00111+99999101441ADDAY181999GF104991999011012501001001MD1210201+9999MW1851EQDQ01+000022SCOTLC
0062011060999991929012006004+67500+012067FM-12+001199999V0201801N009319999999N0200001N9+00111+99999101761ADDAA199001091AY171999GF108991999999017501999999MD1710141+9999
0051011060999991929012012004+67500+012067FM-12+001199999V0201801N00931015001CN0500001N9+00111+99999101591ADDAY111999GF107991061051017501021001MD1710061+9999
0051011060999991929012106004+67500+012067FM-12+001199999V0201101N01231030001CN0500001N9+00111+99999101271ADDAY121999GF108991021011012501021001MD1810201+9999
0057011060999991929012112004+67500+012067FM-12+001199999V0200901N00931007801CN0010001N9+00001+99999101151ADDAY171999GF108991081061008001999999MD1810061+9999MW1681
0068011060999991929012206004+67500+012067FM-12+001199999V0202901N00461030001CN0100001N9+00221+99999102101ADDAA199002091AY161999GF106991021011012501021001MD1310201+9999MW1211
0057011060999991929012212004+67500+012067FM-12+001199999V0209991C00001012301CN0040001N9+00281+99999102341ADDAY161999GF108991081061012501999999MD1310141+9999MW1611
0062011060999991929012306004+67500+012067FM-12+001199999V0200901N00671030001CN0500001N9+00391+99999102831ADDAA199000691AY161999GF108991021011012501021001MD1310141+9999
0072011060999991929012312004+67500+012067FM-12+001199999V0200901N00261030001CN0500001N9+00001+99999102921ADDAY111999GF108991041051012501021001EQDQ01+000032APCTENQ02+000002APC3  
0068011060999991929012406004+67500+012067FM-12+001199999V0202301N00101004501CN0040001N9+00001+99999102481ADDAA199003091AY171999GF108991081061004501999999MD1810201+9999MW1681
0068011060999991929012506004+67500+012067FM-12+001199999V0201401N00101030001CN0200001N9+00001+99999102311ADDAA199002091AY181999GF106991041011012501031001MD1310141+9999MW1161
0051011060999991929012512004+67500+012067FM-12+001199999V0209991C00001220001CN0500001N9+00001+99999102381ADDAY111999GF102991011011012501001021MD1010061+9999
0068011060999991929012606004+67500+012067FM-12+001199999V0201801N00671012301CN0040001N9+00001+99999102161ADDAA199004091AY171999GF108991061061012501021001MD1610061+9999MW1681
0072011060999991929012612004+67500+012067FM-12+001199999V0201801N00931030001CN0200001N9+00001+99999102171ADDAY121999GF106991021011004501021001EQDQ01+000082APCTENQ02+000002APC3  
0072011060999991929012706004+67500+012067FM-12+001199999V0201601N00261030001CN0200001N9-00221+99999102241ADDAY111999GF107991021011012501021001EQDQ01+000032APCTENQ02+000002APC3  
0051011060999991929012712004+67500+012067FM-12+001199999V0200901N00461220001CN0500001N9-00221+99999102351ADDAY111999GF104991041011012501001001MD1010061+9999
0070011060999991929012806004+67500+012067FM-12+001199999V0201101N006719999999N0200001N9+00001+99999102661ADDAY121999GF108991999011012501001001MD1310141+9999EQDQ01+000042SCOTLC
0051011060999991929012812004+67500+012067FM-12+001199999V0200901N00931075001CN0500001N9+00001+99999102701ADDAY111999GF107991021011017501001081MD1990061+9999
0083011060999991929012906004+67500+012067FM-12+001199999V0201601N00931030001CN0500001N9+00001+99999102901ADDAA199000391AY111999GF106991041051017501021001EQDQ01+000022APCTENQ02+000002APC3  
0051011060999991929012912004+67500+012067FM-12+001199999V0201101N006719999999N0500001N9+00111+99999103011ADDAY111999GF107991999999017501999999MD1310061+9999
0087011060999991929013006004+67500+012067FM-12+001199999V0201601N012319999999N0200001N9+00001+99999102951ADDAA199000591AY181999GF107991999011008001001001MD1810141+9999MW1161EQDQ01+000042SCOTLC
0070011060999991929013012004+67500+012067FM-12+001199999V0201401N009319999999N0100001N9+00001+99999102831ADDAY111999GF106991999011012501001001MD1810061+9999EQDQ01+000022SCOTLC
0087011060999991929013106004+67500+012067FM-12+001199999V0201801N012319999999N0200001N9+00221+99999101761ADDAA199000391AY161999GF108991999011012501001001MD1810201+9999MW1161EQDQ01+000042SCOTLC
0070011060999991929013112004+67500+012067FM-12+001199999V0201801N01231220001CN0100001N9+00281+99999101581ADDAY121999GF108991999001999999021001MD1710141+9999EQDQ01+000002SCOTLC
0068011060999991929020106004+67500+012067FM-12+001199999V0202001N00931007801CN0040001N9+00611+99999101531ADDAA199003091AY161999GF108991081061008001999999MD1310061+9999MW1631
0057011060999991929020112004+67500+012067FM-12+001199999V0202001N00931007801CN0040001N9+00501+99999101671ADDAY161999GF108991081061008001999999MD1310061+9999MW1631
0089011060999991929020206004+67500+012067FM-12+001199999V0201801N002619999999N0500001N9+00501+99999101931ADDAA199000591AY161999GF107991999999012501999999MW1211EQDQ01+000032APCTENQ02+000002APC3  
0051011060999991929020212004+67500+012067FM-12+001199999V0209991C00001220001CN0500001N9+00501+99999101871ADDAY111999GF102991999999017501999999MD1810061+9999
0089011060999991929020306004+67500+012067FM-12+001199999V0202001N00461007801CN0040001N9+00501+99999101861ADDAA199001091AY161999GF108991081061008001999999MW1611EQDQ01+000022APCTENQ02+000002APC3  
0094011060999991929020312004+67500+012067FM-12+001199999V0202001N004619999999N0040001N9+00391+99999101791ADDAY161999GF108991999011008001001001MW1601EQDQ01+000022SCOTLCQ02+000022APCTENQ03+000002APC3  
0089011060999991929020406004+67500+012067FM-12+001199999V0202001N00671004501CN0040001N9+00391+99999101671ADDAA199005091AY161999GF108991081061004501999999MW1611EQDQ01+000082APCTENQ02+000002APC3  
0078011060999991929020412004+67500+012067FM-12+001199999V0201801N00931002401CN0040001N9+00391+99999101671ADDAY161999GF108991081061002501999999MW1611EQDQ01+000032APCTENQ02+000002APC3  
0068011060999991929020506004+67500+012067FM-12+001199999V0202001N00931004501CN0040001N9+00391+99999101731ADDAA199022091AY161999GF108991081061004501999999MD1310061+9999MW1631
0057011060999991929020512004+67500+012067FM-12+001199999V0202301N00671007801CN0040001N9+00391+99999101901ADDAY161999GF108991081061008001999999MD1310061+9999MW1611
0068011060999991929020606004+67500+012067FM-12+001199999V0202001N00931007801CN0040001N9+00221+99999101941ADDAA199000591AY161999GF108991081061008001999999MD1810061+9999MW1601
0057011060999991929020612004+67500+012067FM-12+001199999V0201801N00931007801CN0040001N9+00501+99999101861ADDAY161999GF108991081061008001999999MD1710061+9999MW1621
0087011060999991929020706004+67500+012067FM-12+001199999V0201801N002619999999N0200001N9+00391+99999101971ADDAA199001091AY161999GF107991999011008001001001MD1310061+9999MW1211EQDQ01+000022SCOTLC
0072011060999991929020712004+67500+012067FM-12+001199999V0202301N00671220001CN0500001N9+00501+99999102071ADDAY101999GF104991021011017501021001EQDQ01+000032APCTENQ02+000002APC3  
0072011060999991929020806004+67500+012067FM-12+001199999V0201801N00461030001CN0200001N9+00501+99999102021ADDAY121999GF108991021051012501021001EQDQ01+000082APCTENQ02+000002APC3  
0051011060999991929020812004+67500+012067FM-12+001199999V0201801N00931030001CN0100001N9+00391+99999101901ADDAY121999GF107991041011012501021001MD1810061+9999
0087011060999991929020906004+67500+012067FM-12+001199999V0202001N012319999999N0100001N9+00281+99999101431ADDAA199001091AY161999GF108991999011008001001001MD1310061+9999MW1621EQDQ01+000022SCOTLC
0051011060999991929020912004+67500+012067FM-12+001199999V0201801N015419999999N0100001N9+00221+99999101401ADDAY121999GF108991999999012501999999MD1810061+9999
0068011060999991929021006004+67500+012067FM-12+001199999V0201801N01231030001CN0040001N9+00111+99999101761ADDAA199000391AY161999GF108991041061012501021001MD1310141+9999MW1211
0078011060999991929021012004+67500+012067FM-12+001199999V0201601N012319999999N0100001N9+00111+99999101771ADDAY171999GF108991999999012501999999MW1701EQDQ01+000022APCTENQ02+000002APC3  
0068011060999991929021106004+67500+012067FM-12+001199999V0202001N01541004501CN0040001N9+00111+99999102161ADDAA199000591AY171999GF108991081061004501999999MD1310261+9999MW1681
0062011060999991929021112004+67500+012067FM-12+001199999V0202001N01231004501CN0040001N9+00221+99999102511ADDAY161999GF108991999061004501001001MW1601EQDQ01+000072SCOTLC
0087011060999991929021206004+67500+012067FM-12+001199999V0201801N006719999999N0100001N9+00111+99999103131ADDAA199001091AY171999GF108991999011008001001001MD1310141+9999MW1161EQDQ01+000042SCOTLC
0078011060999991929021212004+67500+012067FM-12+001199999V0200701N00671220001CN0500001N9+00111+99999103201ADDAY111999GF104991041011012501001001MW1161EQDQ01+000032APCTENQ02+000002APC3  
0062011060999991929021306004+67500+012067FM-12+001199999V0201801N00671220001CN0500001N9-00111+99999103461ADDAA199000691AY101999GF100991001001999999001001MD1310061+9999
0072011060999991929021312004+67500+012067FM-12+001199999V0201401N00671220001CN0500001N9+00001+99999103501ADDAY101999GF100991001001999999001001EQDQ01+000082APCTENQ02+000002APC3  
0072011060999991929021406004+67500+012067FM-12+001199999V0201101N00461220001CN0500001N9+00221+99999103431ADDAY101999GF100991001001999999001001EQDQ01+000082APCTENQ02+000002APC3  
0072011060999991929021412004+67500+012067FM-12+001199999V0201101N00261220001CN0500001N9+00281+99999103411ADDAY101999GF100991001001999999001001EQDQ01+000082APCTENQ02+000002APC3  
0051011060999991929021506004+67500+012067FM-12+001199999V0202001N00101220001CN0500001N9+00001+99999103301ADDAY101999GF100991001001999999001001MD1810061+9999
0072011060999991929021512004+67500+012067FM-12+001199999V0201601N00461220001CN0500001N9+00281+99999103321ADDAY101999GF100991001001999999001001EQDQ01+000032APCTENQ02+000002APC3  
0072011060999991929021606004+67500+012067FM-12+001199999V0201401N00461220001CN0500001N9+00111+99999103401ADDAY101999GF100991001001999999001001EQDQ01+000042APCTENQ02+000062APC3  
0051011060999991929021612004+67500+012067FM-12+001199999V0201601N00261220001CN0500001N9+00281+99999103501ADDAY101999GF100991001001999999001001MD1110061+9999
0051011060999991929021706004+67500+012067FM-12+001199999V0201601N00671220001CN0500001N9+00111+99999103551ADDAY101999GF101991001001999999001021MD1410001+9999
0051011060999991929021712004+67500+012067FM-12+001199999V0201801N00261220001CN0500001N9+00221+99999103641ADDAY101999GF104991999999022501999999MD1310061+9999
0088011060999991929021806004+67500+012067FM-12+001199999V0201601N00101220001CN0500001N9+00001+99999103661ADDAY111999GF104991999011012501001001EQDQ01+000022SCOTLCQ02+000032APCTENQ03+000002APC3  
0051011060999991929021812004+67500+012067FM-12+001199999V0201401N00101220001CN0500001N9+00111+99999103671ADDAY101999GF101991011011017501001001MD1010061+9999
0070011060999991929021906004+67500+012067FM-12+001199999V0201801N00461220001CN0500001N9+00001+99999103641ADDAY101999GF102991999001999999031001MD1010001+9999EQDQ01+000002SCOTLC
0072011060999991929021912004+67500+012067FM-12+001199999V0201801N00671030001CN0500001N9+00111+99999103671ADDAY121999GF108991041051012501021001EQDQ01+000032APCTENQ02+000002APC3  
0068011060999991929022006004+67500+012067FM-12+001199999V0202001N00931030001CN0100001N9+00221+99999103301ADDAA199001091AY171999GF108991021011008001021001MD1810201+9999MW1161
0057011060999991929022012004+67500+012067FM-12+001199999V0202001N00931007801CN0020001N9+00001+99999103061ADDAY171999GF108991081061008001999999MD1810201+9999MW1681
0087011060999991929022106004+67500+012067FM-12+001199999V0202301N004619999999N0100001N9+00391+99999101951ADDAA199003091AY161999GF108991999011008001001001MD1810141+9999MW1161EQDQ01+000042SCOTLC
0072011060999991929022112004+67500+012067FM-12+001199999V0203201N00101030001CN0500001N9+00391+99999101901ADDAY161999GF108991021011012501021001EQDQ01+000032APCTENQ02+000002APC3  
0070011060999991929022206004+67500+012067FM-12+001199999V0200701N006719999999N0200001N9+00111+99999101631ADDAY121999GF107991999011012501001001MD1610061+9999EQDQ01+000042SCOTLC
0051011060999991929022212004+67500+012067FM-12+001199999V0200901N00671220001CN0500001N9+00111+99999101701ADDAY111999GF102991021011012501001001MD1210061+9999
0051011060999991929022306004+67500+012067FM-12+001199999V0200901N00671220001CN0500001N9-00221+99999102171ADDAY101999GF101991011011017501001001MD1510001+9999
0070011060999991929022312004+67500+012067FM-12+001199999V0201401N001019999999N0500001N9-00111+99999102401ADDAY111999GF106991999011012501001001MD1310061+9999EQDQ01+000022SCOTLC
0051011060999991929022406004+67500+012067FM-12+001199999V0201801N00101220001CN0500001N9-00221+99999102741ADDAY111999GF104991021011012501001081MD1310061+9999
0051011060999991929022412004+67500+012067FM-12+001199999V0201601N00101220001CN0500001N9+00001+99999102861ADDAY101999GF104991011051017501001021MD1310061+9999
0072011060999991929022506004+67500+012067FM-12+001199999V0209991C00001030001CN0500001N9-00111+99999102871ADDAY101999GF108991021011012501021001EQDQ01+000032APCTENQ02+000002APC3  
0072011060999991929022512004+67500+012067FM-12+001199999V0201601N00101220001CN0500001N9+00111+99999102791ADDAY101999GF104991021051017501031001EQDQ01+000082APCTENQ02+000002APC3  
0068011060999991929022606004+67500+012067FM-12+001199999V0203201N00671030001CN0200001N9+00111+99999102341ADDAA199001091AY171999GF107991041011012501031001MD1810141+9999MW1231
0072011060999991929022612004+67500+012067FM-12+001199999V0203201N00461030001CN0500001N9+00111+99999102341ADDAY121999GF108991041051012501021001EQDQ01+000082APCTENQ02+000002APC3  
0068011060999991929022706004+67500+012067FM-12+001199999V0203201N00931007801CN0005001N9+00111+99999102101ADDAA199001091AY171999GF108991081061008001999999MD1510001+9999MW1681
0057011060999991929022712004+67500+012067FM-12+001199999V0203201N00931220001CN0500001N9+00281+99999102161ADDAY181999GF102991021061008001001001MD1310061+9999MW1851
0087011060999991929022806004+67500+012067FM-12+001199999V0202501N006719999999N0100001N9+00221+99999102601ADDAA199000591AY171999GF106991999011008001001001MD1310141+9999MW1161EQDQ01+000022SCOTLC
0076011060999991929022812004+67500+012067FM-12+001199999V0202501N00671220001CN0200001N9+00221+99999102771ADDAY181999GF104991999011008001001001MD1210061+9999MW1851EQDQ01+000022SCOTLC
