0051030910999991927010106004+57167-002100FM-12+002499999V0202501N00461030001CN0100001N9+00781+99999101181ADDAY101999GF107991011051008001021001MD1810141+9999
0088030910999991927010306004+57167-002100FM-12+002499999V0202001N00461220001CN0100001N9+00501+99999099721ADDAY111999GF101991999001999999021001EQDQ01+000002SCOTLCQ02+000022APCTENQ03+000002APC3  
0051030910999991927010406004+57167-002100FM-12+002499999V0202701N00261220001CN0100001N9+00111+99999100431ADDAY161999GF102991011091008001021001MD1310201+9999
0057030910999991927010506004+57167-002100FM-12+002499999V0202001N00261004501CN0020001N9-00221+99999101301ADDAY171999GF108991081061004501999999MD1810141+9999MW1701
0087030910999991927010606004+57167-002100FM-12+002499999V0201801N00461004501CN0040001N9+00501+99999099981ADDAA199001091AY161999GF108991081061004501999999MD1810602+9999MW1601EQDQ01+000602APC3  
0070030910999991927010706004+57167-002100FM-12+002499999V0202901N00101220001CN0020001N9-00111+99999099631ADDAY101999GF101991999001999999021001MD1310261+9999EQDQ01+000002SCOTLC
0051030910999991927010806004+57167-002100FM-12+002499999V0202001N00101007801CN0040001N9+00501+99999101321ADDAY111999GF107991071051008001001001MD1990141+9999
0051030910999991927011006004+57167-002100FM-12+002499999V0202701N00671220001CN0200001N9+01111+99999101801ADDAY101999GF101991011051004501001001MD1210141+9999
0051030910999991927011106004+57167-002100FM-12+002499999V0202001N00461220001CN0100001N9+00891+99999101571ADDAY111999GF104991041051012501001001MD1810341+9999
0083030910999991927011206004+57167-002100FM-12+002499999V0202001N00261220001CN0040001N9+00221+99999101091ADDAA199000691AY101999GF100991001001999999001001EQDQ01+000032APCTENQ02+000002APC3  
0057030910999991927011306004+57167-002100FM-12+002499999V0201801N00101030001CN0040001N9+00611+99999097101ADDAY161999GF108991021061002501021001MD1410001+9999MW1611
0072030910999991927011406004+57167-002100FM-12+002499999V0201101N00461004501CN0040001N9+00391+99999098131ADDAY161999GF108991061061004501021001EQDQ01+000032APCTENQ02+000002APC3  
0072030910999991927011506004+57167-002100FM-12+002499999V0202301N00101220001CN0040001N9-00111+99999098121ADDAY101999GF101991011051012501001001EQDQ01+000042APCTENQ02+000142APC3  
0051030910999991927011606004+57167-002100FM-12+002499999V0203201N00461220001CN0200001N9+00111+99999098841ADDAY161999GF102991021051012501021001MD1310061+9999
0051030910999991927011706004+57167-002100FM-12+002499999V0203201N00461220001CN0040001N9-00281+99999099351ADDAY101999GF102991021051012501001001MD1310141+9999
0051030910999991927011806004+57167-002100FM-12+002499999V0203201N00461220001CN0100001N9-03221+99999100691ADDAY101999GF104991041051012501001001MD1310141+9999
0062030910999991927011906004+57167-002100FM-12+002499999V0203201N00671220001CN0200001N9+00112+99999101791ADDAA199001091AY101999GF101991011051012501001001MD1310061+9999
0068030910999991927012006004+57167-002100FM-12+002499999V0209991C00001007801CN0040001N9+00111+99999101041ADDAA199000691AY181999GF108991061061008001021001MD1810201+9999MW1701
0062030910999991927012106004+57167-002100FM-12+002499999V0201801N00261004501CN0040001N9+00281+99999099671ADDAA199001091AY161999GF108991061061004501021001MD1810141+9999
0072030910999991927012206004+57167-002100FM-12+002499999V0201801N00261220001CN0040001N9-00111+99999099721ADDAY101999GF101991011051012501001001EQDQ01+000032APCTENQ02+000002APC3  
0062030910999991927012306004+57167-002100FM-12+002499999V0201801N00261024001CN0040001N9+01221+99999099791ADDAY111999GF108991999061999999001001MW1601EQDQ01+000072SCOTLC
0051030910999991927012406004+57167-002100FM-12+002499999V0201801N00261220001CN0040001N9+00281+99999100331ADDAY101999GF102991011051012501001081MD1210061+9999
0062030910999991927012506004+57167-002100FM-12+002499999V0202501N00101030001CN0040001N9+00611+99999099721ADDAA199003091AY161999GF108991041061008001021001MD1310201+9999
0062030910999991927012706004+57167-002100FM-12+002499999V0202001N00671220001CN0040001N9+00391+99999099231ADDAA199001091AY101999GF104991041051008001001001MD1810261+9999
0062030910999991927012806004+57167-002100FM-12+002499999V0202301N00931220001CN0100001N9+00781+99999099091ADDAA199000391AY111999GF104991021051004501021001MD1110201+9999
0081030910999991927012906004+57167-002100FM-12+002499999V0202301N00101030001CN0040001N9+00281+99999097621ADDAA199001091AY111999GF108991021051017501021001MD1810542+9999EQDQ01+000542APC3  
0051030910999991927013006004+57167-002100FM-12+002499999V0202301N00671030001CN0200001N9+00391+99999097871ADDAY111999GF106991021051012501031001MD1310261+9999
0081030910999991927013106004+57167-002100FM-12+002499999V0203201N004619999999N0100001N9+00391+99999097681ADDAA199000391AY181999GF107991999061008001001001MD1310141+9999EQDQ01+000042SCOTLC
0070030910999991927020106004+57167-002100FM-12+002499999V0202901N00461220001CN0200001N9+00281+99999099401ADDAY101999GF102991999011008001001001MD1310201+9999EQDQ01+000012SCOTLC
0051030910999991927020206004+57167-002100FM-12+002499999V0202901N00461220001CN0200001N9+00221+99999101181ADDAY101999GF101991011091008001001001MD1310141+9999
0062030910999991927020306004+57167-002100FM-12+002499999V0202001N00461220001CN0040001N9+00391+99999100781ADDAA199007091AY161999GF104991021051008001031001MD1610141+9999
0081030910999991927020406004+57167-002100FM-12+002499999V0202901N00671220001CN0200001N9+00501+99999101241ADDAA199000691AY101999GF101991011051012501001001MD1310542+9999EQDQ01+000542APC3  
0070030910999991927020506004+57167-002100FM-12+002499999V0209991C00001220001CN0020001N9+00111+99999102391ADDAY101999GF102991999001999999031001MD1990201+9999EQDQ01+000002SCOTLC
0051030910999991927020606004+57167-002100FM-12+002499999V0202901N00461220001CN0200001N9+00721+99999102631ADDAY101999GF101991011051012501001001MD1310341+9999
0068030910999991927020706004+57167-002100FM-12+002499999V0201801N00261007801CN0020001N9+00611+99999103041ADDAA199005091AY161999GF108991081061008001999999MD1610061+9999MW1631
0062030910999991927020806004+57167-002100FM-12+002499999V0201801N00261007801CN0100001N9+00611+99999103391ADDAA199000691AY111999GF108991081051008001999999MD1810061+9999
0051030910999991927020906004+57167-002100FM-12+002499999V0202001N00261007801CN0040001N9+00221+99999103621ADDAY111999GF107991071051008001001001MD1310061+9999
0051030910999991927021006004+57167-002100FM-12+002499999V0202001N00261007801CN0040001N9+00221+99999103411ADDAY111999GF107991071051008001001001MD1010001+9999
0051030910999991927021106004+57167-002100FM-12+002499999V0202301N00101220001CN0040001N9-00111+99999103091ADDAY101999GF100991001001999999001001MD1410001+9999
0051030910999991927021206004+57167-002100FM-12+002499999V0201101N00101220001CN0010001N9-00501+99999102951ADDAY101999GF104991041051008001001001MD1810061+9999
0051030910999991927021306004+57167-002100FM-12+002499999V0201801N00261220001CN0040001N9+00111+99999102301ADDAY111999GF101991011051008001001001MD1810061+9999
0062030910999991927021406004+57167-002100FM-12+002499999V0202701N00261220001CN0100001N9+00281+99999102821ADDAA199000391AY181999GF101991001001999999001081MD1310401+9999
0068030910999991927021506004+57167-002100FM-12+002499999V0202001N00101007801CN0010001N9+00721+99999102771ADDAA199002091AY161999GF108991071061008001021001MD1410001+9999MW1611
0089030910999991927021606004+57167-002100FM-12+002499999V0202901N00101220001CN0005001N9+00391+99999102821ADDAA199000691AY141999GF104991041051012501001001MW1441EQDQ01+000032APCTENQ02+000002APC3  
0057030910999991927021706004+57167-002100FM-12+002499999V0201601N00101007801CN0010001N9+00281+99999102481ADDAY111999GF107991071051008001001001MD1810141+9999MW1101
0072030910999991927021806004+57167-002100FM-12+002499999V0202701N00461220001CN0200001N9+00281+99999102291ADDAY101999GF101991011011008001001001EQDQ01+000032APCTENQ02+000002APC3  
0070030910999991927021906004+57167-002100FM-12+002499999V0202501N00261220001CN0040001N9+00111+99999102301ADDAY101999GF107991999001999999031001MD1990061+9999EQDQ01+000002SCOTLC
0051030910999991927022006004+57167-002100FM-12+002499999V0202501N00101012301CN0100001N9+00611+99999100751ADDAY161999GF106991061051012501001001MD1810141+9999
0068030910999991927022106004+57167-002100FM-12+002499999V0209991C00001004501CN0020001N9+00391+99999099941ADDAA199001091AY161999GF108991081061004501999999MD1810061+9999MW1521
0068030910999991927022206004+57167-002100FM-12+002499999V0201801N00101004501CN0020001N9+00501+99999099031ADDAA199000691AY161999GF108991081061004501999999MD1810141+9999MW1601
0068030910999991927022306004+57167-002100FM-12+002499999V0201601N00261002401CN0020001N9+00721+99999098371ADDAA199000591AY161999GF108991081061002501999999MD1810061+9999MW1601
0051030910999991927022406004+57167-002100FM-12+002499999V0201801N00461220001CN0040001N9+00501+99999099031ADDAY111999GF102991001001999999021081MD1310061+9999
0089030910999991927022606004+57167-002100FM-12+002499999V0201601N00461002401CN0040001N9+00611+99999099431ADDAA199003091AY161999GF108991081061002501999999MW1611EQDQ01+000032APCTENQ02+000002APC3  
0057030910999991927022706004+57167-002100FM-12+002499999V0200701N00671002401CN0040001N9+00611+99999098861ADDAY161999GF108991081061002501999999MD1610061+9999MW1611
0068030910999991927022806004+57167-002100FM-12+002499999V0201401N00261000151CN0000501N9+00611+99999099531ADDAA199000691AY141999GF108991081051000251999999MD1610061+9999MW1451
0057030910999991927060506004+57167-002100FM-12+002499999V0202901N00461007801CN0200001N9+00781+99999100901ADDAY181999GF106991061091008001001001MD1210061+9999MW1601
0070030910999991927060606004+57167-002100FM-12+002499999V0203201N004619999999N0200001N9+00891+99999101011ADDAY111999GF106991999011008001001001MD1310141+9999EQDQ01+000042SCOTLC
0072030910999991927060906004+57167-002100FM-12+002499999V0202901N00931220001CN0200001N9+00721+99999101321ADDAY101999GF101991011091008001001091EQDQ01+000022APCTENQ02+000002APC3  
0072030910999991927061006004+57167-002100FM-12+002499999V0203201N00461220001CN0200001N9+00721+99999101541ADDAY101999GF104991041011008001001001EQDQ01+000032APCTENQ02+000002APC3  
0051030910999991927061106004+57167-002100FM-12+002499999V0202901N00261220001CN0200001N9+00891+99999101661ADDAY101999GF101991011051012501001001MD1310061+9999
0087030910999991927062006004+57167-002100FM-12+002499999V0202901N006719999999N0100001N9+01281+99999100801ADDAA199002091AY111999GF106991999091008001001001MD1310341+9999MW1161EQDQ01+000042SCOTLC
0062030910999991927062206004+57167-002100FM-12+002499999V0202901N00671007801CN0200001N9+00781+99999101461ADDAA199000691AY111999GF106991061011008001001001MD1310201+9999
0062030910999991927062506004+57167-002100FM-12+002499999V0203401N00101030001CN0200001N9+00891+99999100931ADDAA199000591AY181999GF106991021091008001031001MD1810061+9999
0076030910999991927062606004+57167-002100FM-12+002499999V0203401N00671004501CN0200001N9+00781+99999100131ADDAY181999GF108991999061004501001001MD1310061+9999MW1601EQDQ01+000072SCOTLC
0068030910999991927062706004+57167-002100FM-12+002499999V0203201N00931004501CN0200001N9+00891+99999099861ADDAA199001091AY161999GF107991061091004501031001MD1710061+9999MW1621
0062030910999991927070206004+57167-002100FM-12+002499999V0203401N00461004501CN0100001N9+01001+99999100801ADDAA199000691AY121999GF108991081051004501999999MD1610061+9999
0072030910999991927070706004+57167-002100FM-12+002499999V0203201N00261002401CN0040001N9+01221+99999101401ADDAY111999GF107991071051002501001001EQDQ01+000012APCTENQ02+000002APC3  
0070030910999991927071006004+57167-002100FM-12+002499999V0202901N00261220001CN0200001N9+01611+99999101301ADDAY101999GF104991999001999999031001MD1310061+9999EQDQ01+000002SCOTLC
0051030910999991927071106004+57167-002100FM-12+002499999V0203201N00261030001CN0100001N9+01281+99999101901ADDAY111999GF108991021011002501021001MD1310141+9999
0072030910999991927071606004+57167-002100FM-12+002499999V0203401N00461220001CN0200001N9+01281+99999102731ADDAY101999GF101991011011008001001021EQDQ01+000032APCTENQ02+000002APC3  
0051030910999991927071806004+57167-002100FM-12+002499999V0203201N00671004501CN0200001N9+01281+99999102061ADDAY111999GF106991061051004501001001MD1210061+9999
0051030910999991927071906004+57167-002100FM-12+002499999V0203401N00101007801CN0200001N9+01281+99999102401ADDAY111999GF108991081051008001999999MD1310061+9999
0081030910999991927072306004+57167-002100FM-12+002499999V0202901N004619999999N0100001N9+01281+99999100371ADDAA199000691AY111999GF107991999051004501001001MD1310061+9999EQDQ01+000012SCOTLC
0072030910999991927072406004+57167-002100FM-12+002499999V0202901N00261030001CN0200001N9+01221+99999100751ADDAY111999GF106991041011008001031001EQDQ01+000032APCTENQ02+000002APC3  
0051030910999991927072506004+57167-002100FM-12+002499999V0202301N00461030001CN0200001N9+01281+99999101031ADDAY111999GF107991041051017501031001MD1110061+9999
0051030910999991927080206004+57167-002100FM-12+002499999V0202501N00101220001CN0200001N9+01391+99999101191ADDAY101999GF104991041051012501001001MD1310141+9999
0051030910999991927081206004+57167-002100FM-12+002499999V0203401N00101030001CN0040001N9+01391+99999100481ADDAY181999GF107991021061004501031001MD1310061+9999
0088030910999991927081306004+57167-002100FM-12+002499999V0202901N002619999999N0200001N9+01221+99999100961ADDAY101999GF107991999011008001001001EQDQ01+000012SCOTLCQ02+000042APCTENQ03+000142APC3  
0072030910999991927081606004+57167-002100FM-12+002499999V0202901N00461220001CN0200001N9+01221+99999100301ADDAY101999GF104991021051012501031001EQDQ01+000032APCTENQ02+000002APC3  
0051030910999991927081906004+57167-002100FM-12+002499999V0203201N00461075001CN0200001N9+01221+99999100631ADDAY111999GF106991021091004501001081MD1410001+9999
0051030910999991927082306004+57167-002100FM-12+002499999V0203201N00261075001CN0200001N9+01281+99999099901ADDAY181999GF106991021051004501001021MD1310261+9999
0051030910999991927082506004+57167-002100FM-12+002499999V0203201N00261220001CN0040001N9+01281+99999101951ADDAY101999GF101991001001999999001021MD1310141+9999
0057030910999991927090106004+57167-002100FM-12+002499999V0201601N00261000151CN0005001N9+01391+99999101811ADDAY141999GF108991081051000251999999MD1810061+9999MW1451
0051030910999991927090206004+57167-002100FM-12+002499999V0209991C00001220001CN0100001N9+01001+99999102171ADDAY101999GF101991011051012501031001MD1310141+9999
0051030910999991927090306004+57167-002100FM-12+002499999V0209991C00001220001CN0040001N9+01111+99999102511ADDAY111999GF106991001001999999031021MD1310061+9999
0072030910999991927090406004+57167-002100FM-12+002499999V0201601N00101220001CN0100001N9+01281+99999102351ADDAY101999GF102991021051004501001001EQDQ01+000062APCTENQ02+000002APC3  
0078030910999991927090506004+57167-002100FM-12+002499999V0200701N00261000151CN0010001N9+01391+99999101941ADDAY141999GF108991081051000251999999MW1101EQDQ01+000032APCTENQ02+000002APC3  
0072030910999991927090606004+57167-002100FM-12+002499999V0200901N00101002401CN0040001N9+01391+99999101711ADDAY121999GF107991071051002501001001EQDQ01+000032APCTENQ02+000002APC3  
0057030910999991927090706004+57167-002100FM-12+002499999V0200701N00101007801CN0040001N9+01391+99999101101ADDAY161999GF108991081061008001999999MD1210061+9999MW1601
0057030910999991927090806004+57167-002100FM-12+002499999V0209991C00001030001CN0040001N9+00891+99999101131ADDAY161999GF108991041061004501021001MD1810201+9999MW1601
0051030910999991927090906004+57167-002100FM-12+002499999V0203201N00461030001CN0200001N9+01221+99999099671ADDAY121999GF108991041061004501021001MD1310401+9999
0076030910999991927091006004+57167-002100FM-12+002499999V0202701N002619999999N0100001N9+01001+99999100131ADDAY111999GF106991999061004501001001MD1410001+9999MW1161EQDQ01+000042SCOTLC
0076030910999991927091106004+57167-002100FM-12+002499999V0203201N00671004501CN0100001N9+00781+99999100741ADDAY181999GF107991999091004501001001MD1310201+9999MW1621EQDQ01+000062SCOTLC
0094030910999991927091206004+57167-002100FM-12+002499999V0202901N00461004501CN0500001N9+00781+99999101671ADDAY181999GF107991999091004501001001MW1601EQDQ01+000062SCOTLCQ02+000042APCTENQ03+000142APC3  
0062030910999991927091306004+57167-002100FM-12+002499999V0202901N00261220001CN0100001N9+00781+99999101351ADDAA199001091AY181999GF104991011011004501001091MD1110061+9999
0087030910999991927091406004+57167-002100FM-12+002499999V0203401N00461220001CN0200001N9+00781+99999101431ADDAA199000391AY181999GF102991999091008001001001MD1210061+9999MW1801EQDQ01+000012SCOTLC
0072030910999991927091506004+57167-002100FM-12+002499999V0202901N00461220001CN0040001N9+00721+99999101591ADDAY101999GF101991011011008001001091EQDQ01+000032APCTENQ02+000002APC3  
0062030910999991927091706004+57167-002100FM-12+002499999V0202901N00671220001CN0200001N9+00891+99999099471ADDAA199001091AY121999GF101991011011008001001091MD1310261+9999
0062030910999991927092006004+57167-002100FM-12+002499999V0209991C00001220001CN0100001N9+00391+99999100301ADDAA199001091AY111999GF104991011051008001001081MD1310261+9999
0068030910999991927092106004+57167-002100FM-12+002499999V0203601N00261004501CN0100001N9+00781+99999100071ADDAA199003091AY161999GF108991061061004501021001MD1010001+9999MW1611
0068030910999991927092206004+57167-002100FM-12+002499999V0203601N00101004501CN0040001N9+00721+99999099831ADDAA199003091AY161999GF108991081061004501999999MD1710061+9999MW1631
0068030910999991927092306004+57167-002100FM-12+002499999V0203201N00931002401CN0100001N9+00781+99999097971ADDAA199031091AY161999GF108991071061002501021001MD1810341+9999MW1621
0051030910999991927092406004+57167-002100FM-12+002499999V0203201N00671007801CN0200001N9+00781+99999097871ADDAY111999GF107991061051008001031001MD1810061+9999
0076030910999991927092506004+57167-002100FM-12+002499999V0202901N00261002401CN0200001N9+00891+99999097981ADDAY111999GF107991999061002501001001MD1510061+9999MW1501EQDQ01+000062SCOTLC
0068030910999991927092606004+57167-002100FM-12+002499999V0203201N00461002401CN0100001N9+00891+99999099231ADDAA199002091AY161999GF106991061061002501001001MD1310341+9999MW1601
0087030910999991927092706004+57167-002100FM-12+002499999V0203201N002619999999N0040001N9+00721+99999101271ADDAA199000691AY101999GF106991999061004501001001MD1310461+9999MW1601EQDQ01+000042SCOTLC
0062030910999991927092806004+57167-002100FM-12+002499999V0202001N00461030001CN0040001N9+00781+99999101091ADDAA199000691AY111999GF108991021061004501021001MD1810261+9999
0068030910999991927092906004+57167-002100FM-12+002499999V0202001N00261004501CN0040001N9+00891+99999099751ADDAA199003091AY161999GF108991081061004501999999MD1810201+9999MW1631
0051030910999991927093006004+57167-002100FM-12+002499999V0202001N00261220001CN0100001N9+00721+99999100161ADDAY101999GF102991011051012501001091MD1210141+9999
0051030910999991927100406004+57167-002100FM-12+002499999V0202901N00261007801CN0100001N9+00611+99999102801ADDAY101999GF106991061051008001001001MD1310061+9999
0051030910999991927100506004+57167-002100FM-12+002499999V0202701N00261220001CN0020001N9+00111+99999103101ADDAY101999GF101991001001999999001021MD1310061+9999
0062030910999991927100706004+57167-002100FM-12+002499999V0209991C00001220001CN0040001N9+00611+99999102881ADDAA199000691AY101999GF101991011051012501001021MD1310141+9999
0072030910999991927101106004+57167-002100FM-12+002499999V0202901N00101004501CN0040001N9+00891+99999103091ADDAY111999GF107991071051004501001001EQDQ01+000022APCTENQ02+000002APC3  
0068030910999991927101306004+57167-002100FM-12+002499999V0202501N00101030001CN0040001N9+01111+99999102101ADDAA199000391AY161999GF106991041061004501031001MD1810341+9999MW1211
0087030910999991927101406004+57167-002100FM-12+002499999V0203601N004619999999N0100001N9+00891+99999101911ADDAA199002091AY161999GF107991999061002501001001MD1810061+9999MW1161EQDQ01+000042SCOTLC
0081030910999991927101706004+57167-002100FM-12+002499999V0202701N004619999999N0200001N9+04891+99999099871ADDAA199000591AY101999GF108991999051004501001001MD1810061+9999EQDQ01+000042SCOTLC
0068030910999991927101806004+57167-002100FM-12+002499999V0202901N00261220001CN0200001N9+00392+99999100731ADDAA199001091AY181999GF101991011091008001001001MD1310201+9999MW1161
0062030910999991927101906004+57167-002100FM-12+002499999V0202501N00461220001CN0200001N9+00501+99999099671ADDAA199000691AY181999GF101991011061008001001001MD1990061+9999
0051030910999991927102006004+57167-002100FM-12+002499999V0202501N00261220001CN0200001N9+00221+99999101191ADDAY101999GF101991011091008001001001MD1310141+9999
0072030910999991927102106004+57167-002100FM-12+002499999V0202901N00261220001CN0200001N9-00111+99999101841ADDAY101999GF101991011091008001001021EQDQ01+000032APCTENQ02+000002APC3  
0068030910999991927102206004+57167-002100FM-12+002499999V0200901N01231004501CN0100001N9+00611+99999100671ADDAA199003091AY161999GF108991081061004501999999MD1810341+9999MW1631
0051030910999991927102306004+57167-002100FM-12+002499999V0200701N00671004501CN0100001N9+00781+99999100371ADDAY161999GF108991081061004501999999MD1310141+9999
0062030910999991927102406004+57167-002100FM-12+002499999V0201801N00101012301CN0040001N9+00721+99999100591ADDAA199002091AY181999GF106991061051012501001001MD1210061+9999
0062030910999991927102506004+57167-002100FM-12+002499999V0209991C00001075001CN0100001N9+01221+99999099401ADDAA199002091AY111999GF106991041051008001001021MD1210341+9999
0087030910999991927102706004+57167-002100FM-12+002499999V0202001N00931220001CN0200001N9+01281+99999097831ADDAA199005091AY181999GF104991041051004501021001MD1310942+9999MW1621EQDQ01+000942APC3  
0051030910999991927102806004+57167-002100FM-12+002499999V0202001N00261220001CN0100001N9+00721+99999100171ADDAY101999GF104991001001999999031021MD1310201+9999
0081030910999991927102906004+57167-002100FM-12+002499999V0203201N00931002401CN0200001N9+01221+99999099131ADDAA199001091AY161999GF107991061061002501031001MD1314382+9999EQDQ01+004382APC3  
0062030910999991927103006004+57167-002100FM-12+002499999V0201801N00261030001CN0040001N9+01111+99999100441ADDAA199000691AY111999GF107991021051004501031001MD1810141+9999
0051030910999991927103106004+57167-002100FM-12+002499999V0202501N00101030001CN0100001N9+01111+99999100111ADDAY111999GF106991011051012501021001MD1310261+9999
0062030910999991927110706004+57167-002100FM-12+002499999V0203401N00461030001CN0200001N9+00281+99999099261ADDAA199000691AY181999GF107991021091004501021001MD1310141+9999
0068030910999991927110806004+57167-002100FM-12+002499999V0202901N004619999999N0100001N9+00001+99999100441ADDAA199003091AY181999GF107991999999008001999999MD1310261+9999MW1701
0103030910999991927110906004+57167-002100FM-12+002499999V0202901N006719999999N0100001N9+00221+99999999999ADDAA199002091AY181999GF106991999091004501001001MD1710141+9999MW1681EQDQ01+000042SCOTLCQ02+000001APOSP 
0057030910999991927111006004+57167-002100FM-12+002499999V0203401N00671007801CN0100001N9+00221+99999099551ADDAY181999GF108991081061008001999999MD1210141+9999MW1701
0087030910999991927111106004+57167-002100FM-12+002499999V0203201N022619999999N0200001N9+00111+99999100831ADDAA199007091AY181999GF106991999091008001001001MD1210061+9999MW1891EQDQ01+000022SCOTLC
0087030910999991927111206004+57167-002100FM-12+002499999V0202901N00461220001CN0200001N9+00221+99999102331ADDAA199006091AY181999GF104991999091008001001001MD1310401+9999MW1161EQDQ01+000022SCOTLC
0076030910999991927111306004+57167-002100FM-12+002499999V0202901N004619999999N0200001N9+00281+99999102351ADDAY161999GF107991999061004501001001MD1810201+9999MW1601EQDQ01+000022SCOTLC
0062030910999991927111406004+57167-002100FM-12+002499999V0209991C00001012301CN0100001N9+00391+99999102111ADDAA199001091AY111999GF106991061051012501001001MD1810141+9999
0062030910999991927111706004+57167-002100FM-12+002499999V0209991C00001012301CN0040001N9+00781+99999101671ADDAA199002091AY161999GF107991071051012501001001MD1310061+9999
0062030910999991927111906004+57167-002100FM-12+002499999V0201101N01231004501CN0100001N9+00721+99999101471ADDAA199000591AY161999GF108991061061004501021001MD1310061+9999
0068030910999991927112106004+57167-002100FM-12+002499999V0201101N01231004501CN0100001N9+00721+99999101831ADDAA199000391AY121999GF107991071061004501001001MD1310061+9999MW1211
0068030910999991927112306004+57167-002100FM-12+002499999V0201401N00931004501CN0040001N9+00611+99999101011ADDAA199001091AY161999GF108991081061004501999999MD1810341+9999MW1621
0070030910999991927112506004+57167-002100FM-12+002499999V0202501N00461220001CN0100001N9+00501+99999101431ADDAY101999GF101991999001999999031001MD1310401+9999EQDQ01+000002SCOTLC
0051030910999991927112606004+57167-002100FM-12+002499999V0202301N00931030001CN0100001N9+00891+99999102071ADDAY111999GF106991011051008001031001MD1710141+9999
0051030910999991927112906004+57167-002100FM-12+002499999V0202901N00461220001CN0200001N9+00391+99999102371ADDAY101999GF101991011051017501001001MD1310341+9999
0051030910999991927113006004+57167-002100FM-12+002499999V0203201N00261220001CN0040001N9-00111+99999103501ADDAY111999GF104991041051012501001001MD1610061+9999
0051030910999991927120106004+57167-002100FM-12+002499999V0202001N00461220001CN0100001N9+00281+99999102561ADDAY111999GF104991021051012501031001MD1410001+9999
0072030910999991927120206004+57167-002100FM-12+002499999V0202001N00261030001CN0040001N9+00501+99999102471ADDAY111999GF106991021051012501031001EQDQ01+000032APCTENQ02+000002APC3  
0062030910999991927120306004+57167-002100FM-12+002499999V0202301N00261004501CN0040001N9+00391+99999101931ADDAY111999GF108991999061004501001001MW1601EQDQ01+000072SCOTLC
0072030910999991927120406004+57167-002100FM-12+002499999V0201801N00461004501CN0040001N9+00391+99999101321ADDAY111999GF108991081051004501999999EQDQ01+000032APCTENQ02+000002APC3  
0068030910999991927120506004+57167-002100FM-12+002499999V0201601N004619999999N0040001N9+00391+99999100561ADDAA199000691AY161999GF108991041061004501001999MD1810201+9999MW1501
0037030910999991927120606004+57167-002100FM-12+002499999V0201401N01231004501CN0040001N9+00891+99999099671ADDAY121999GF108991081051004501999999
0051030910999991927120706004+57167-002100FM-12+002499999V0201401N00671004501CN0040001N9+00781+99999101321ADDAY121999GF108991081061004501999999MD1310201+9999
0068030910999991927120806004+57167-002100FM-12+002499999V0201601N00261004501CN0020001N9+00611+99999101431ADDAA199001091AY161999GF108991081061004501999999MD1610061+9999MW1611
0089030910999991927120906004+57167-002100FM-12+002499999V0201601N00461002401CN0040001N9+00611+99999101071ADDAA199001091AY161999GF108991061091002501021001MW1601EQDQ01+000032APCTENQ02+000002APC3  
0062030910999991927121006004+57167-002100FM-12+002499999V0201401N00671004501CN0100001N9+00721+99999101901ADDAA199003091AY161999GF108991081061004501999999MD1310201+9999
0088030910999991927121106004+57167-002100FM-12+002499999V0201101N006719999999N0100001N9+00501+99999102161ADDAY111999GF106991999061004501001001EQDQ01+000022SCOTLCQ02+000032APCTENQ03+000002APC3  
0087030910999991927121206004+57167-002100FM-12+002499999V0201101N00461004501CN0100001N9+00891+99999101931ADDAA199000691AY161999GF108991999061004501001001MD1810061+9999MW1601EQDQ01+000062SCOTLC
0087030910999991927121306004+57167-002100FM-12+002499999V0202901N00461220001CN0200001N9+00221+99999101011ADDAA199000691AY181999GF102991999061008001001001MD1610061+9999MW1211EQDQ01+000012SCOTLC
0081030910999991927121406004+57167-002100FM-12+002499999V0202901N00261220001CN0040001N9-00111+99999100751ADDAA199000691AY101999GF102991999001999999031001MD1810061+9999EQDQ01+000002SCOTLC
0068030910999991927121506004+57167-002100FM-12+002499999V0201101N009319999999N0100001N9+00281+99999101811ADDAA199008091AY181999GF107991021061004501001999MD1310401+9999MW1211
0081030910999991927121606004+57167-002100FM-12+002499999V0200901N004619999999N0100001N9+00221+99999103301ADDAA199001091AY171999GF106991999061008001001001MD1310141+9999EQDQ01+000022SCOTLC
0072030910999991927121706004+57167-002100FM-12+002499999V0202901N00461220001CN0040001N9-00611+99999103671ADDAY101999GF101991011051012501001001EQDQ01+000032APCTENQ02+000002APC3  
0072030910999991927121806004+57167-002100FM-12+002499999V0202901N00461220001CN0200001N9-00781+99999103631ADDAY101999GF102991021051008001031001EQDQ01+000032APCTENQ02+000002APC3  
0062030910999991927121906004+57167-002100FM-12+002499999V0200901N00671007801CN0200001N9+00111+99999103231ADDAA199000591AY111999GF106991061051008001001001MD1810201+9999
0068030910999991927122006004+57167-002100FM-12+002499999V0201401N00671004501CN0020001N9+00111+99999102171ADDAA199006091AY171999GF106991061091004501001001MD1810141+9999MW1721
0097030910999991927122106004+57167-002100FM-12+002499999V0209991C000019999999N0100001N9+00281+99999100561ADDAA199000591AY111999GF108991999061004501001001MD1810341+9999EQDQ01+001402WODIR Q02+000042SCOTLC
0087030910999991927122206004+57167-002100FM-12+002499999V0201101N01231002401CN0040001N9+00611+99999098631ADDAA199003091AY161999GF108991081061002501999999MD1810542+9999MW1601EQDQ01+000542APC3  
0068030910999991927122306004+57167-002100FM-12+002499999V0200701N01231004501CN0100001N9+00281+99999098131ADDAA199008091AY161999GF108991081061004501999999MD1310201+9999MW1621
0062030910999991927122406004+57167-002100FM-12+002499999V0200501N00671007801CN0200001N9+00391+99999099601ADDAA199000691AY111999GF107991071051008001001001MD1310141+9999
0081030910999991927122506004+57167-002100FM-12+002499999V0200201N01231220001CN0200001N9+00281+99999100421ADDAA199000391AY181999GF104991999011008001001001MD1210201+9999EQDQ01+000022SCOTLC
0062030910999991927122606004+57167-002100FM-12+002499999V0200201N00461220001CN0200001N9-00111+99999101351ADDAA199001091AY181999GF101991011091008001001001MD1310201+9999
0062030910999991927122706004+57167-002100FM-12+002499999V0202901N00261007801CN0100001N9+00001+99999103171ADDAA199000691AY111999GF106991061051008001001001MD1310261+9999
0062030910999991927122806004+57167-002100FM-12+002499999V0202901N00461220001CN0040001N9-00501+99999104471ADDAA199000691AY101999GF101991011051012501001001MD1310201+9999
0068030910999991927122906004+57167-002100FM-12+002499999V0202301N00261007801CN0010001N9-00111+99999104071ADDAA199000691AY141999GF107991071051008001001001MD1510061+9999MW1891
0068030910999991927123106004+57167-002100FM-12+002499999V0201601N00931004501CN0100001N9+00501+99999102121ADDAA199000691AY111999GF108991081051004501999999MD1810141+9999MW1801
