0046029700999991923010106004+60100+019950FM-12+001499999V0209991C000019999999N0000001N9+00171+99999099241ADDAJ100009199999999GF108991999999999999999999
0029029700999991923010113004+60100+019950FM-12+001499999V0202301N002119999999N0000001N9+00111+99999099581ADDGF108991999999999999999999
0029029700999991923010120004+60100+019950FM-12+001499999V0202301N002119999999N0000001N9+00221+99999100071ADDGF108991999999999999999999
0046029700999991923010206004+60100+019950FM-12+001499999V0202301N003119999999N0000001N9+00171+99999100721ADDAJ100009199999999GF108991999999999999999999
0029029700999991923010213004+60100+019950FM-12+001499999V0202301N001019999999N0000001N9+00171+99999100921ADDGF108991999999999999999999
0029029700999991923010220004+60100+019950FM-12+001499999V0202301N001019999999N0000001N9+00111+99999101221ADDGF108991999999999999999999
0046029700999991923010306004+60100+019950FM-12+001499999V0202001N007219999999N0000001N9+00221+99999101161ADDAJ100009199999999GF108991999999999999999999
0029029700999991923010313004+60100+019950FM-12+001499999V0202001N007219999999N0000001N9+00281+99999101121ADDGF108991999999999999999999
0035029700999991923010320004+60100+019950FM-12+001499999V0202001N005119999999N0000001N9+00221+99999101101ADDGF108991999999999999999999MW1621
0046029700999991923010406004+60100+019950FM-12+001499999V0202301N005119999999N0000001N9+00281+99999101161ADDAJ100009199999999GF108991999999999999999999
0029029700999991923010413004+60100+019950FM-12+001499999V0202301N005119999999N0000001N9+00281+99999101341ADDGF108991999999999999999999
0029029700999991923010420004+60100+019950FM-12+001499999V0202301N001019999999N0000001N9+00221+99999101581ADDGF108991999999999999999999
0046029700999991923010506004+60100+019950FM-12+001499999V0202301N002119999999N0000001N9+00111+99999101751ADDAJ100009199999999GF108991999999999999999999
0029029700999991923010513004+60100+019950FM-12+001499999V0202301N002119999999N0000001N9+00171+99999101861ADDGF108991999999999999999999
0029029700999991923010520004+60100+019950FM-12+001499999V0202001N001019999999N0000001N9+00221+99999101951ADDGF108991999999999999999999
0052029700999991923010606004+60100+019950FM-12+001499999V0201801N001019999999N0000001N9+00221+99999101991ADDAJ100009199999999GF108991999999999999999999MW1621
0035029700999991923010613004+60100+019950FM-12+001499999V0201801N001019999999N0000001N9+00061+99999101961ADDGF108991999999999999999999MW1701
0029029700999991923010620004+60100+019950FM-12+001499999V0202001N002119999999N0000001N9+00171+99999101961ADDGF108991999999999999999999
0046029700999991923010706004+60100+019950FM-12+001499999V0202001N001019999999N0000001N9+00061+99999101841ADDAJ100009199999999GF108991999999999999999999
0035029700999991923010713004+60100+019950FM-12+001499999V0202001N001019999999N0000001N9+00061+99999101681ADDGF108991999999999999999999MW1721
0035029700999991923010720004+60100+019950FM-12+001499999V0201601N003119999999N0000001N9+00061+99999101501ADDGF108991999999999999999999MW1721
0046029700999991923010806004+60100+019950FM-12+001499999V0201801N001019999999N0000001N9+00171+99999101121ADDAJ100009199999999GF108991999999999999999999
0029029700999991923010813004+60100+019950FM-12+001499999V0202001N001019999999N0000001N9+00221+99999100841ADDGF108991999999999999999999
0029029700999991923010820004+60100+019950FM-12+001499999V0202001N006219999999N0000001N9+00221+99999100381ADDGF108991999999999999999999
0046029700999991923010906004+60100+019950FM-12+001499999V0202301N003119999999N0000001N9+00281+99999099781ADDAJ100009199999999GF108991999999999999999999
0029029700999991923010913004+60100+019950FM-12+001499999V0202301N001019999999N0000001N9+00281+99999100071ADDGF100991999999999999999999
0029029700999991923010920004+60100+019950FM-12+001499999V0202301N003119999999N0000001N9+00171+99999100421ADDGF101991999999999999999999
0046029700999991923011006004+60100+019950FM-12+001499999V0202001N003119999999N0000001N9+00221+99999100111ADDAJ100009199999999GF108991999999999999999999
0029029700999991923011013004+60100+019950FM-12+001499999V0202301N001019999999N0000001N9+00171+99999099921ADDGF108991999999999999999999
0029029700999991923011020004+60100+019950FM-12+001499999V0202301N002119999999N0000001N9+00171+99999099981ADDGF102991999999999999999999
0046029700999991923011106004+60100+019950FM-12+001499999V0202301N002119999999N0000001N9+00171+99999999999ADDAJ100009199999999GF106991999999999999999999
0029029700999991923011113004+60100+019950FM-12+001499999V0209991C000019999999N0000001N9+00221+99999100061ADDGF108991999999999999999999
0029029700999991923011120004+60100+019950FM-12+001499999V0202301N001019999999N0000001N9+00221+99999100031ADDGF108991999999999999999999
0052029700999991923011206004+60100+019950FM-12+001499999V0201801N001019999999N0000001N9+00171+99999099841ADDAJ100009199999999GF108991999999999999999999MW1621
0035029700999991923011213004+60100+019950FM-12+001499999V0201801N001019999999N0000001N9+00111+99999099791ADDGF108991999999999999999999MW1621
0029029700999991923011220004+60100+019950FM-12+001499999V0203401N001019999999N0000001N9+00061+99999100151ADDGF108991999999999999999999
0046029700999991923011306004+60100+019950FM-12+001499999V0203401N001019999999N0000001N9-00061+99999100781ADDAJ100009199999999GF107991999999999999999999
0035029700999991923011313004+60100+019950FM-12+001499999V0209991C000019999999N0000001N9-00111+99999101161ADDGF108991999999999999999999MW1701
0029029700999991923011320004+60100+019950FM-12+001499999V0209991C000019999999N0000001N9-00221+99999101541ADDGF108991999999999999999999
0046029700999991923011406004+60100+019950FM-12+001499999V0202301N001019999999N0000001N9-00061+99999101231ADDAJ100009199999999GF108991999999999999999999
0035029700999991923011413004+60100+019950FM-12+001499999V0202001N007219999999N0000001N9+00061+99999100501ADDGF108991999999999999999999MW1721
0035029700999991923011420004+60100+019950FM-12+001499999V0202301N008219999999N0000001N9+00111+99999099591ADDGF108991999999999999999999MW1721
0046029700999991923011506004+60100+019950FM-12+001499999V0202301N002119999999N0000001N9+00171+99999098871ADDAJ100009199999999GF108991999999999999999999
0029029700999991923011513004+60100+019950FM-12+001499999V0202501N001019999999N0000001N9+00061+99999098991ADDGF108991999999999999999999
0029029700999991923011520004+60100+019950FM-12+001499999V0209991C000019999999N0000001N9-00061+99999099281ADDGF107991999999999999999999
0046029700999991923011606004+60100+019950FM-12+001499999V0201801N001019999999N0000001N9+00001+99999100431ADDAJ100009199999999GF108991999999999999999999
0029029700999991923011613004+60100+019950FM-12+001499999V0201801N004119999999N0000001N9-00171+99999101441ADDGF108991999999999999999999
0029029700999991923011620004+60100+019950FM-12+001499999V0200701N001019999999N0000001N9-00331+99999102341ADDGF100991999999999999999999
0046029700999991923011706004+60100+019950FM-12+001499999V0209991C000019999999N0000001N9-00561+99999102841ADDAJ100009199999999GF100991999999999999999999
0029029700999991923011713004+60100+019950FM-12+001499999V0200901N001019999999N0000001N9-00281+99999103031ADDGF100991999999999999999999
0029029700999991923011720004+60100+019950FM-12+001499999V0200901N001019999999N0000001N9-00331+99999103201ADDGF108991999999999999999999
0046029700999991923011806004+60100+019950FM-12+001499999V0209991C000019999999N0000001N9-00501+99999103271ADDAJ100009199999999GF108991999999999999999999
0035029700999991923011813004+60100+019950FM-12+001499999V0200901N001019999999N0000001N9-00391+99999103261ADDGF108991999999999999999999MW1701
0029029700999991923011820004+60100+019950FM-12+001499999V0209991C000019999999N0000001N9-00331+99999103151ADDGF108991999999999999999999
0046029700999991923011906004+60100+019950FM-12+001499999V0202301N004119999999N0000001N9-00221+99999102321ADDAJ100009199999999GF108991999999999999999999
0035029700999991923011913004+60100+019950FM-12+001499999V0202301N008219999999N0000001N9-00061+99999101551ADDGF108991999999999999999999MW1721
0029029700999991923011920004+60100+019950FM-12+001499999V0202301N008219999999N0000001N9+00061+99999100401ADDGF108991999999999999999999
0046029700999991923012006004+60100+019950FM-12+001499999V0202301N007219999999N0000001N9+00171+99999098441ADDAJ100009199999999GF108991999999999999999999
0029029700999991923012013004+60100+019950FM-12+001499999V0202301N005119999999N0000001N9+00221+99999098431ADDGF106991999999999999999999
0029029700999991923012020004+60100+019950FM-12+001499999V0202501N003119999999N0000001N9+00111+99999098981ADDGF100991999999999999999999
0046029700999991923012106004+60100+019950FM-12+001499999V0203201N001019999999N0000001N9+00061+99999100061ADDAJ100009199999999GF100991999999999999999999
0029029700999991923012113004+60100+019950FM-12+001499999V0202701N001019999999N0000001N9-00061+99999100541ADDGF102991999999999999999999
0029029700999991923012120004+60100+019950FM-12+001499999V0202301N006219999999N0000001N9+00061+99999100201ADDGF108991999999999999999999
0046029700999991923012206004+60100+019950FM-12+001499999V0202501N001019999999N0000001N9+00171+99999099001ADDAJ100009199999999GF108991999999999999999999
0029029700999991923012213004+60100+019950FM-12+001499999V0202701N002119999999N0000001N9+00111+99999099101ADDGF100991999999999999999999
0029029700999991923012220004+60100+019950FM-12+001499999V0209991C000019999999N0000001N9-00171+99999099231ADDGF100991999999999999999999
0029029700999991923012306004+60100+019950FM-12+001499999V0203201N005119999999N0000001N9-00111+99999099861ADDGF101991999999999999999999
0029029700999991923012313004+60100+019950FM-12+001499999V0203201N013919999999N0000001N9-00111+99999100521ADDGF102991999999999999999999
0029029700999991923012320004+60100+019950FM-12+001499999V0202901N003119999999N0000001N9-00281+99999100701ADDGF100991999999999999999999
0035029700999991923012406004+60100+019950FM-12+001499999V0202301N007219999999N0000001N9+00001+99999098502ADDGF108991999999999999999999MW1721
0029029700999991923012413004+60100+019950FM-12+001499999V0202901N002119999999N0000001N9+00061+99999098751ADDGF103991999999999999999999
0029029700999991923012420004+60100+019950FM-12+001499999V0202701N004119999999N0000001N9+00061+99999099301ADDGF100991999999999999999999
0029029700999991923012506004+60100+019950FM-12+001499999V0202901N003119999999N0000001N9+00171+99999100181ADDGF108991999999999999999999
0029029700999991923012513004+60100+019950FM-12+001499999V0202301N003119999999N0000001N9+00221+99999100221ADDGF107991999999999999999999
0029029700999991923012520004+60100+019950FM-12+001499999V0202501N006219999999N0000001N9+00441+99999099621ADDGF108991999999999999999999
0046029700999991923012606004+60100+019950FM-12+001499999V0202901N005119999999N0000001N9+00441+99999099561ADDAJ100009199999999GF102991999999999999999999
0029029700999991923012613004+60100+019950FM-12+001499999V0202301N002119999999N0000001N9+00281+99999099621ADDGF106991999999999999999999
0029029700999991923012620004+60100+019950FM-12+001499999V0202701N006219999999N0000001N9+00111+99999100121ADDGF104991999999999999999999
0046029700999991923012706004+60100+019950FM-12+001499999V0202301N002119999999N0000001N9+00061+99999099641ADDAJ100009199999999GF108991999999999999999999
0029029700999991923012713004+60100+019950FM-12+001499999V0202501N004119999999N0000001N9+00441+99999097602ADDGF107991999999999999999999
0029029700999991923012720004+60100+019950FM-12+001499999V0203201N002119999999N0000001N9-00061+99999098271ADDGF108991999999999999999999
0029029700999991923012806004+60100+019950FM-12+001499999V0202701N003119999999N0000001N9-00281+99999099241ADDGF108991999999999999999999
0029029700999991923012813004+60100+019950FM-12+001499999V0202701N003119999999N0000001N9-00281+99999099681ADDGF105991999999999999999999
0029029700999991923012820004+60100+019950FM-12+001499999V0202701N002119999999N0000001N9-00281+99999099751ADDGF101991999999999999999999
0029029700999991923012906004+60100+019950FM-12+001499999V0202701N001019999999N0000001N9-00441+99999099701ADDGF101991999999999999999999
0029029700999991923012913004+60100+019950FM-12+001499999V0202701N003119999999N0000001N9-00441+99999099521ADDGF102991999999999999999999
0029029700999991923012920004+60100+019950FM-12+001499999V0209991C000019999999N0000001N9-00281+99999099471ADDGF108991999999999999999999
0029029700999991923013006004+60100+019950FM-12+001499999V0203601N001019999999N0000001N9-00221+99999099751ADDGF106991999999999999999999
0029029700999991923013013004+60100+019950FM-12+001499999V0203401N003119999999N0000001N9-00171+99999100231ADDGF106991999999999999999999
0029029700999991923013020004+60100+019950FM-12+001499999V0202901N002119999999N0000001N9-00391+99999100441ADDGF100991999999999999999999
0029029700999991923013106004+60100+019950FM-12+001499999V0209991C000019999999N0000001N9-00611+99999100201ADDGF107991999999999999999999
0029029700999991923013113004+60100+019950FM-12+001499999V0209991C000019999999N0000001N9-00171+99999100271ADDGF101991999999999999999999
0029029700999991923013120004+60100+019950FM-12+001499999V0209991C000019999999N0000001N9-00721+99999100761ADDGF101991999999999999999999
0029029700999991923020106004+60100+019950FM-12+001499999V0209991C000019999999N0000001N9-01061+99999100751ADDGF107991999999999999999999
0029029700999991923020113004+60100+019950FM-12+001499999V0201801N003119999999N0000001N9-00111+99999100391ADDGF108991999999999999999999
0035029700999991923020120004+60100+019950FM-12+001499999V0201801N007219999999N0000001N9-00111+99999099661ADDGF108991999999999999999999MW1721
0035029700999991923020206004+60100+019950FM-12+001499999V0202301N001019999999N0000001N9+00061+99999098421ADDGF108991999999999999999999MW1721
0029029700999991923020213004+60100+019950FM-12+001499999V0209991C000019999999N0000001N9+00111+99999098101ADDGF108991999999999999999999
0029029700999991923020220004+60100+019950FM-12+001499999V0202901N001019999999N0000001N9-00061+99999098381ADDGF108991999999999999999999
0029029700999991923020306004+60100+019950FM-12+001499999V0203601N001019999999N0000001N9-00111+99999099181ADDGF108991999999999999999999
0029029700999991923020313004+60100+019950FM-12+001499999V0203601N001019999999N0000001N9-00331+99999099761ADDGF108991999999999999999999
0029029700999991923020320004+60100+019950FM-12+001499999V0209991C000019999999N0000001N9-00561+99999100151ADDGF107991999999999999999999
0029029700999991923020413004+60100+019950FM-12+001499999V0201101N001019999999N0000001N9-00781+99999100941ADDGF107991999999999999999999
0029029700999991923020420004+60100+019950FM-12+001499999V0209991C000019999999N0000001N9-00781+99999101241ADDGF108991999999999999999999
0029029700999991923020513004+60100+019950FM-12+001499999V0202301N003119999999N0000001N9-00061+99999101631ADDGF103991999999999999999999
0029029700999991923020520004+60100+019950FM-12+001499999V0202301N004119999999N0000001N9-00111+99999101671ADDGF108991999999999999999999
0029029700999991923020613004+60100+019950FM-12+001499999V0202001N013919999999N0000001N9+00001+99999101561ADDGF108991999999999999999999
0029029700999991923020620004+60100+019950FM-12+001499999V0202301N007219999999N0000001N9+00001+99999101671ADDGF106991999999999999999999
0029029700999991923020713004+60100+019950FM-12+001499999V0202301N003119999999N0000001N9-00061+99999102101ADDGF108991999999999999999999
0029029700999991923020720004+60100+019950FM-12+001499999V0202301N002119999999N0000001N9+00061+99999102271ADDGF108991999999999999999999
0029029700999991923020806004+60100+019950FM-12+001499999V0201601N002119999999N0000001N9+00001+99999102401ADDGF108991999999999999999999
0029029700999991923020813004+60100+019950FM-12+001499999V0201401N001019999999N0000001N9-00061+99999102481ADDGF104991999999999999999999
0029029700999991923020820004+60100+019950FM-12+001499999V0201401N001019999999N0000001N9-00221+99999102511ADDGF102991999999999999999999
0029029700999991923020906004+60100+019950FM-12+001499999V0209991C000019999999N0000001N9-00221+99999102671ADDGF102991999999999999999999
0029029700999991923020913004+60100+019950FM-12+001499999V0209991C000019999999N0000001N9-00061+99999103001ADDGF104991999999999999999999
0029029700999991923020920004+60100+019950FM-12+001499999V0201101N004119999999N0000001N9-00281+99999103191ADDGF108991999999999999999999
0029029700999991923021006004+60100+019950FM-12+001499999V0201101N003119999999N0000001N9-00441+99999103671ADDGF108991999999999999999999
0029029700999991923021013004+60100+019950FM-12+001499999V0201401N007219999999N0000001N9-00501+99999103951ADDGF108991999999999999999999
0029029700999991923021020004+60100+019950FM-12+001499999V0200901N007219999999N0000001N9-00561+99999104031ADDGF100991999999999999999999
0029029700999991923021106004+60100+019950FM-12+001499999V0200901N001019999999N0000001N9-00891+99999103951ADDGF100991999999999999999999
0029029700999991923021113004+60100+019950FM-12+001499999V0200901N001019999999N0000001N9-00501+99999103481ADDGF102991999999999999999999
0029029700999991923021120004+60100+019950FM-12+001499999V0209991C000019999999N0000001N9-00831+99999103761ADDGF108991999999999999999999
0029029700999991923021206004+60100+019950FM-12+001499999V0201101N001019999999N0000001N9-00671+99999104111ADDGF100991999999999999999999
0029029700999991923021213004+60100+019950FM-12+001499999V0201101N005119999999N0000001N9-00441+99999104311ADDGF100991999999999999999999
0029029700999991923021220004+60100+019950FM-12+001499999V0201101N005119999999N0000001N9-00831+99999104261ADDGF102991999999999999999999
0029029700999991923021306004+60100+019950FM-12+001499999V0200901N001019999999N0000001N9-00831+99999104121ADDGF100991999999999999999999
0029029700999991923021313004+60100+019950FM-12+001499999V0200901N001019999999N0000001N9-00391+99999104061ADDGF100991999999999999999999
0029029700999991923021320004+60100+019950FM-12+001499999V0200901N002119999999N0000001N9-00721+99999103781ADDGF108991999999999999999999
0029029700999991923021406004+60100+019950FM-12+001499999V0200901N001019999999N0000001N9-01001+99999103281ADDGF108991999999999999999999
0029029700999991923021413004+60100+019950FM-12+001499999V0200901N003119999999N0000001N9-01001+99999103071ADDGF100991999999999999999999
0029029700999991923021420004+60100+019950FM-12+001499999V0200901N005119999999N0000001N9-01171+99999102721ADDGF107991999999999999999999
0029029700999991923021506004+60100+019950FM-12+001499999V0200901N005119999999N0000001N9-01061+99999102241ADDGF108991999999999999999999
0029029700999991923021513004+60100+019950FM-12+001499999V0200901N006219999999N0000001N9-00941+99999102061ADDGF108991999999999999999999
0029029700999991923021520004+60100+019950FM-12+001499999V0200901N002119999999N0000001N9-00941+99999101911ADDGF108991999999999999999999
0029029700999991923021606004+60100+019950FM-12+001499999V0200901N003119999999N0000001N9-01111+99999101761ADDGF108991999999999999999999
0035029700999991923021613004+60100+019950FM-12+001499999V0200901N004119999999N0000001N9-01001+99999101761ADDGF108991999999999999999999MW1701
0029029700999991923021620004+60100+019950FM-12+001499999V0200901N002119999999N0000001N9-01171+99999101761ADDGF106991999999999999999999
0029029700999991923021706004+60100+019950FM-12+001499999V0200901N001019999999N0000001N9-01171+99999101671ADDGF108991999999999999999999
0035029700999991923021713004+60100+019950FM-12+001499999V0200901N003119999999N0000001N9-01001+99999101671ADDGF108991999999999999999999MW1701
0035029700999991923021720004+60100+019950FM-12+001499999V0201101N001019999999N0000001N9-01061+99999101701ADDGF108991999999999999999999MW1701
0029029700999991923021806004+60100+019950FM-12+001499999V0200701N001019999999N0000001N9-01171+99999101561ADDGF108991999999999999999999
0035029700999991923021813004+60100+019950FM-12+001499999V0200201N001019999999N0000001N9-01111+99999101421ADDGF108991999999999999999999MW1701
0029029700999991923021820004+60100+019950FM-12+001499999V0200901N004119999999N0000001N9-01221+99999101241ADDGF108991999999999999999999
0029029700999991923021906004+60100+019950FM-12+001499999V0200901N004119999999N0000001N9-01281+99999100981ADDGF108991999999999999999999
0029029700999991923021913004+60100+019950FM-12+001499999V0200901N002119999999N0000001N9-01171+99999100861ADDGF107991999999999999999999
0029029700999991923021920004+60100+019950FM-12+001499999V0209991C000019999999N0000001N9-01501+99999100921ADDGF100991999999999999999999
0029029700999991923022006004+60100+019950FM-12+001499999V0209991C000019999999N0000001N9-01331+99999100821ADDGF108991999999999999999999
0029029700999991923022013004+60100+019950FM-12+001499999V0203401N003119999999N0000001N9-00391+99999100841ADDGF106991999999999999999999
0029029700999991923022020004+60100+019950FM-12+001499999V0209991C000019999999N0000001N9-00831+99999100801ADDGF103991999999999999999999
0029029700999991923022106004+60100+019950FM-12+001499999V0209991C000019999999N0000001N9-01001+99999100681ADDGF106991999999999999999999
0029029700999991923022113004+60100+019950FM-12+001499999V0209991C000019999999N0000001N9-00391+99999100661ADDGF106991999999999999999999
0029029700999991923022120004+60100+019950FM-12+001499999V0202701N001019999999N0000001N9-00721+99999100671ADDGF107991999999999999999999
0029029700999991923022206004+60100+019950FM-12+001499999V0209991C000019999999N0000001N9-00781+99999100661ADDGF107991999999999999999999
0029029700999991923022213004+60100+019950FM-12+001499999V0202701N001019999999N0000001N9-00331+99999100751ADDGF107991999999999999999999
0029029700999991923022220004+60100+019950FM-12+001499999V0201401N001019999999N0000001N9-00561+99999100841ADDGF108991999999999999999999
0029029700999991923022306004+60100+019950FM-12+001499999V0200901N001019999999N0000001N9-00781+99999101001ADDGF108991999999999999999999
0029029700999991923022313004+60100+019950FM-12+001499999V0209991C000019999999N0000001N9-00611+99999101121ADDGF107991999999999999999999
0029029700999991923022320004+60100+019950FM-12+001499999V0201101N001019999999N0000001N9-01061+99999101221ADDGF108991999999999999999999
0029029700999991923022406004+60100+019950FM-12+001499999V0200901N001019999999N0000001N9-00561+99999101141ADDGF108991999999999999999999
0029029700999991923022413004+60100+019950FM-12+001499999V0201401N002119999999N0000001N9-00611+99999101181ADDGF108991999999999999999999
0029029700999991923022420004+60100+019950FM-12+001499999V0201101N004119999999N0000001N9-00941+99999101231ADDGF108991999999999999999999
0035029700999991923022506004+60100+019950FM-12+001499999V0200901N005119999999N0000001N9-01111+99999101191ADDGF108991999999999999999999MW1721
0035029700999991923022513004+60100+019950FM-12+001499999V0200901N005119999999N0000001N9-00941+99999101191ADDGF108991999999999999999999MW1721
0035029700999991923022520004+60100+019950FM-12+001499999V0201101N002119999999N0000001N9-01001+99999101181ADDGF108991999999999999999999MW1721
0029029700999991923022606004+60100+019950FM-12+001499999V0201101N001019999999N0000001N9-01221+99999101041ADDGF108991999999999999999999
0029029700999991923022613004+60100+019950FM-12+001499999V0209991C000019999999N0000001N9-00891+99999100981ADDGF100991999999999999999999
0029029700999991923022620004+60100+019950FM-12+001499999V0209991C000019999999N0000001N9-01281+99999100821ADDGF107991999999999999999999
0029029700999991923022706004+60100+019950FM-12+001499999V0209991C000019999999N0000001N9-01671+99999100721ADDGF104991999999999999999999
0029029700999991923022713004+60100+019950FM-12+001499999V0200901N001019999999N0000001N9-00941+99999100661ADDGF103991999999999999999999
0029029700999991923022720004+60100+019950FM-12+001499999V0200701N001019999999N0000001N9-01221+99999100661ADDGF102991999999999999999999
0029029700999991923022806004+60100+019950FM-12+001499999V0200701N002119999999N0000001N9-01391+99999100661ADDGF102991999999999999999999
0029029700999991923022813004+60100+019950FM-12+001499999V0200701N001019999999N0000001N9-00891+99999100881ADDGF102991999999999999999999
0029029700999991923022820004+60100+019950FM-12+001499999V0200901N005119999999N0000001N9-01221+99999100981ADDGF105991999999999999999999
0029029700999991923030106004+60100+019950FM-12+001499999V0201101N005119999999N0000001N9-01391+99999101081ADDGF107991999999999999999999
0029029700999991923030113004+60100+019950FM-12+001499999V0201101N006219999999N0000001N9-00831+99999101271ADDGF108991999999999999999999
0029029700999991923030120004+60100+019950FM-12+001499999V0201101N004119999999N0000001N9-00781+99999101471ADDGF108991999999999999999999
0029029700999991923030206004+60100+019950FM-12+001499999V0200901N003119999999N0000001N9-00941+99999101501ADDGF108991999999999999999999
0035029700999991923030213004+60100+019950FM-12+001499999V0200901N005119999999N0000001N9-00891+99999101421ADDGF108991999999999999999999MW1701
0029029700999991923030220004+60100+019950FM-12+001499999V0201101N007219999999N0000001N9-00781+99999101321ADDGF108991999999999999999999
0029029700999991923030306004+60100+019950FM-12+001499999V0200901N007219999999N0000001N9-00721+99999101221ADDGF108991999999999999999999
0029029700999991923030313004+60100+019950FM-12+001499999V0200901N004119999999N0000001N9-00561+99999101321ADDGF101991999999999999999999
0029029700999991923030320004+60100+019950FM-12+001499999V0200901N003119999999N0000001N9-00781+99999101541ADDGF108991999999999999999999
0029029700999991923030406004+60100+019950FM-12+001499999V0200701N001019999999N0000001N9-00671+99999101721ADDGF108991999999999999999999
0029029700999991923030413004+60100+019950FM-12+001499999V0200901N002119999999N0000001N9-00441+99999101961ADDGF108991999999999999999999
0029029700999991923030420004+60100+019950FM-12+001499999V0209991C000019999999N0000001N9-00501+99999102141ADDGF108991999999999999999999
0035029700999991923030506004+60100+019950FM-12+001499999V0209991C000019999999N0000001N9-00561+99999102261ADDGF108991999999999999999999MW1701
0035029700999991923030513004+60100+019950FM-12+001499999V0209991C000019999999N0000001N9-00331+99999102191ADDGF108991999999999999999999MW1701
0029029700999991923030520004+60100+019950FM-12+001499999V0209991C000019999999N0000001N9-00781+99999102161ADDGF100991999999999999999999
0029029700999991923030606004+60100+019950FM-12+001499999V0209991C000019999999N0000001N9-00611+99999102021ADDGF108991999999999999999999
0029029700999991923030613004+60100+019950FM-12+001499999V0201801N006219999999N0000001N9-00281+99999101981ADDGF108991999999999999999999
0029029700999991923030620004+60100+019950FM-12+001499999V0201801N003119999999N0000001N9-00561+99999101881ADDGF108991999999999999999999
0029029700999991923030706004+60100+019950FM-12+001499999V0209991C000019999999N0000001N9-00441+99999101801ADDGF108991999999999999999999
0029029700999991923030713004+60100+019950FM-12+001499999V0201401N003119999999N0000001N9-00441+99999101941ADDGF108991999999999999999999
0029029700999991923030720004+60100+019950FM-12+001499999V0201101N002119999999N0000001N9-00781+99999102101ADDGF108991999999999999999999
0029029700999991923030806004+60100+019950FM-12+001499999V0201101N001019999999N0000001N9-00611+99999102161ADDGF108991999999999999999999
0029029700999991923030813004+60100+019950FM-12+001499999V0201401N001019999999N0000001N9-00561+99999102321ADDGF108991999999999999999999
0029029700999991923030820004+60100+019950FM-12+001499999V0209991C000019999999N0000001N9-00721+99999102471ADDGF108991999999999999999999
0029029700999991923030906004+60100+019950FM-12+001499999V0209991C000019999999N0000001N9-00781+99999102671ADDGF108991999999999999999999
0035029700999991923030913004+60100+019950FM-12+001499999V0201101N001019999999N0000001N9-00671+99999102871ADDGF108991999999999999999999MW1701
0029029700999991923030920004+60100+019950FM-12+001499999V0201101N003119999999N0000001N9-00781+99999103071ADDGF108991999999999999999999
0029029700999991923031006004+60100+019950FM-12+001499999V0200901N001019999999N0000001N9-00831+99999103061ADDGF108991999999999999999999
0035029700999991923031013004+60100+019950FM-12+001499999V0200901N001019999999N0000001N9-00611+99999103111ADDGF108991999999999999999999MW1701
0029029700999991923031020004+60100+019950FM-12+001499999V0201101N001019999999N0000001N9-00781+99999103111ADDGF108991999999999999999999
0029029700999991923031106004+60100+019950FM-12+001499999V0209991C000019999999N0000001N9-00781+99999103241ADDGF108991999999999999999999
0029029700999991923031113004+60100+019950FM-12+001499999V0200901N001019999999N0000001N9-00611+99999103461ADDGF108991999999999999999999
0029029700999991923031120004+60100+019950FM-12+001499999V0200901N001019999999N0000001N9-00501+99999103601ADDGF108991999999999999999999
0029029700999991923031206004+60100+019950FM-12+001499999V0209991C000019999999N0000001N9-00501+99999103701ADDGF108991999999999999999999
0029029700999991923031213004+60100+019950FM-12+001499999V0201101N002119999999N0000001N9-00501+99999103541ADDGF108991999999999999999999
0029029700999991923031220004+60100+019950FM-12+001499999V0209991C000019999999N0000001N9-00671+99999103471ADDGF108991999999999999999999
0029029700999991923031306004+60100+019950FM-12+001499999V0209991C000019999999N0000001N9-00611+99999103151ADDGF108991999999999999999999
0029029700999991923031313004+60100+019950FM-12+001499999V0209991C000019999999N0000001N9-00441+99999103101ADDGF108991999999999999999999
0029029700999991923031320004+60100+019950FM-12+001499999V0202301N001019999999N0000001N9-00501+99999103061ADDGF108991999999999999999999
0029029700999991923031406004+60100+019950FM-12+001499999V0202301N001019999999N0000001N9-00441+99999102991ADDGF108991999999999999999999
0029029700999991923031413004+60100+019950FM-12+001499999V0202001N001019999999N0000001N9-00221+99999103021ADDGF108991999999999999999999
0029029700999991923031420004+60100+019950FM-12+001499999V0202301N001019999999N0000001N9-00331+99999102901ADDGF100991999999999999999999
0029029700999991923031506004+60100+019950FM-12+001499999V0209991C000019999999N0000001N9+00061+99999102701ADDGF101991999999999999999999
0029029700999991923031513004+60100+019950FM-12+001499999V0203601N001019999999N0000001N9+00721+99999102741ADDGF100991999999999999999999
0029029700999991923031520004+60100+019950FM-12+001499999V0203401N001019999999N0000001N9+00221+99999102841ADDGF100991999999999999999999
0029029700999991923031606004+60100+019950FM-12+001499999V0203201N001019999999N0000001N9+00001+99999102981ADDGF102991999999999999999999
0029029700999991923031613004+60100+019950FM-12+001499999V0203201N005119999999N0000001N9+00611+99999103241ADDGF100991999999999999999999
0029029700999991923031620004+60100+019950FM-12+001499999V0209991C000019999999N0000001N9+00001+99999103121ADDGF100991999999999999999999
0046029700999991923031706004+60100+019950FM-12+001499999V0209991C000019999999N0000001N9-00061+99999103121ADDAJ100009199999999GF100991999999999999999999
0029029700999991923031713004+60100+019950FM-12+001499999V0203201N001019999999N0000001N9+00501+99999102981ADDGF101991999999999999999999
0029029700999991923031720004+60100+019950FM-12+001499999V0209991C000019999999N0000001N9+00111+99999102951ADDGF100991999999999999999999
0046029700999991923031806004+60100+019950FM-12+001499999V0203201N001019999999N0000001N9-00111+99999102961ADDAJ100009199999999GF100991999999999999999999
0029029700999991923031813004+60100+019950FM-12+001499999V0203201N001019999999N0000001N9+00561+99999102871ADDGF100991999999999999999999
0029029700999991923031820004+60100+019950FM-12+001499999V0202701N001019999999N0000001N9+00111+99999102481ADDGF102991999999999999999999
0046029700999991923031906004+60100+019950FM-12+001499999V0209991C000019999999N0000001N9+00111+99999102441ADDAJ100009199999999GF100991999999999999999999
0029029700999991923031913004+60100+019950FM-12+001499999V0203401N005119999999N0000001N9+00561+99999102421ADDGF100991999999999999999999
0029029700999991923031920004+60100+019950FM-12+001499999V0202901N001019999999N0000001N9+00111+99999102341ADDGF100991999999999999999999
0046029700999991923032006004+60100+019950FM-12+001499999V0203201N002119999999N0000001N9+00221+99999102031ADDAJ100009199999999GF101991999999999999999999
0029029700999991923032013004+60100+019950FM-12+001499999V0203201N004119999999N0000001N9+00671+99999102221ADDGF102991999999999999999999
0029029700999991923032020004+60100+019950FM-12+001499999V0203201N001019999999N0000001N9+00221+99999102231ADDGF101991999999999999999999
0046029700999991923032106004+60100+019950FM-12+001499999V0203201N001019999999N0000001N9+00061+99999102281ADDAJ100009199999999GF100991999999999999999999
0029029700999991923032113004+60100+019950FM-12+001499999V0202901N001019999999N0000001N9+00671+99999102301ADDGF100991999999999999999999
0029029700999991923032120004+60100+019950FM-12+001499999V0209991C000019999999N0000001N9-00221+99999102321ADDGF100991999999999999999999
0046029700999991923032206004+60100+019950FM-12+001499999V0202901N001019999999N0000001N9-00111+99999102181ADDAJ100009199999999GF100991999999999999999999
0029029700999991923032213004+60100+019950FM-12+001499999V0202901N001019999999N0000001N9+00781+99999102041ADDGF100991999999999999999999
0029029700999991923032220004+60100+019950FM-12+001499999V0209991C000019999999N0000001N9-00281+99999102201ADDGF100991999999999999999999
0046029700999991923032306004+60100+019950FM-12+001499999V0209991C000019999999N0000001N9-00281+99999102311ADDAJ100009199999999GF102991999999999999999999
0029029700999991923032313004+60100+019950FM-12+001499999V0209991C000019999999N0000001N9+00671+99999102401ADDGF101991999999999999999999
0029029700999991923032320004+60100+019950FM-12+001499999V0209991C000019999999N0000001N9-00171+99999102481ADDGF100991999999999999999999
0046029700999991923032406004+60100+019950FM-12+001499999V0202301N001019999999N0000001N9+00001+99999102481ADDAJ100009199999999GF100991999999999999999999
0029029700999991923032413004+60100+019950FM-12+001499999V0202501N001019999999N0000001N9+00501+99999102471ADDGF102991999999999999999999
0029029700999991923032420004+60100+019950FM-12+001499999V0202301N001019999999N0000001N9+00001+99999102351ADDGF100991999999999999999999
0046029700999991923032506004+60100+019950FM-12+001499999V0209991C000019999999N0000001N9-00281+99999102201ADDAJ100009199999999GF100991999999999999999999
0029029700999991923032513004+60100+019950FM-12+001499999V0209991C000019999999N0000001N9+00941+99999102241ADDGF102991999999999999999999
0029029700999991923032520004+60100+019950FM-12+001499999V0209991C000019999999N0000001N9-00111+99999102461ADDGF100991999999999999999999
0046029700999991923032606004+60100+019950FM-12+001499999V0201801N001019999999N0000001N9-00111+99999102921ADDAJ100009199999999GF100991999999999999999999
0029029700999991923032613004+60100+019950FM-12+001499999V0201601N001019999999N0000001N9+00441+99999103241ADDGF100991999999999999999999
0029029700999991923032620004+60100+019950FM-12+001499999V0209991C000019999999N0000001N9+00001+99999103021ADDGF106991999999999999999999
0046029700999991923032706004+60100+019950FM-12+001499999V0202501N001019999999N0000001N9+00061+99999102631ADDAJ100009199999999GF108991999999999999999999
0029029700999991923032713004+60100+019950FM-12+001499999V0203401N001019999999N0000001N9+00501+99999102551ADDGF106991999999999999999999
0029029700999991923032720004+60100+019950FM-12+001499999V0209991C000019999999N0000001N9-00061+99999102521ADDGF107991999999999999999999
0046029700999991923032806004+60100+019950FM-12+001499999V0209991C000019999999N0000001N9+00061+99999102361ADDAJ100009199999999GF100991999999999999999999
0029029700999991923032813004+60100+019950FM-12+001499999V0202901N004119999999N0000001N9+00831+99999102401ADDGF100991999999999999999999
0029029700999991923032820004+60100+019950FM-12+001499999V0209991C000019999999N0000001N9+00001+99999102261ADDGF102991999999999999999999
0046029700999991923032906004+60100+019950FM-12+001499999V0209991C000019999999N0000001N9+00171+99999102151ADDAJ100009199999999GF105991999999999999999999
0029029700999991923032913004+60100+019950FM-12+001499999V0203601N001019999999N0000001N9+00781+99999102511ADDGF102991999999999999999999
0029029700999991923032920004+60100+019950FM-12+001499999V0209991C000019999999N0000001N9+00001+99999102741ADDGF107991999999999999999999
0046029700999991923033006004+60100+019950FM-12+001499999V0202301N001019999999N0000001N9+00111+99999102341ADDAJ100009199999999GF106991999999999999999999
0029029700999991923033013004+60100+019950FM-12+001499999V0203201N002119999999N0000001N9+00941+99999101711ADDGF107991999999999999999999
0029029700999991923033020004+60100+019950FM-12+001499999V0203601N007219999999N0000001N9-00061+99999101711ADDGF108991999999999999999999
0046029700999991923033106004+60100+019950FM-12+001499999V0200501N007219999999N0000001N9-00391+99999102631ADDAJ100009199999999GF104991999999999999999999
0029029700999991923033113004+60100+019950FM-12+001499999V0200901N004119999999N0000001N9-00061+99999102961ADDGF101991999999999999999999
0029029700999991923033120004+60100+019950FM-12+001499999V0209991C000019999999N0000001N9-00331+99999102941ADDGF100991999999999999999999
0046029700999991923040106004+60100+019950FM-12+001499999V0209991C000019999999N0000001N9-00501+99999102861ADDAJ100009199999999GF100991999999999999999999
0029029700999991923040113004+60100+019950FM-12+001499999V0202301N002119999999N0000001N9+00221+99999102791ADDGF100991999999999999999999
0029029700999991923040120004+60100+019950FM-12+001499999V0202301N001019999999N0000001N9-00061+99999102361ADDGF100991999999999999999999
0046029700999991923040206004+60100+019950FM-12+001499999V0203601N001019999999N0000001N9+00001+99999102421ADDAJ100009199999999GF102991999999999999999999
0029029700999991923040213004+60100+019950FM-12+001499999V0200501N004119999999N0000001N9+00501+99999102481ADDGF100991999999999999999999
0029029700999991923040220004+60100+019950FM-12+001499999V0203601N001019999999N0000001N9+00061+99999102521ADDGF100991999999999999999999
0046029700999991923040306004+60100+019950FM-12+001499999V0209991C000019999999N0000001N9-00061+99999102671ADDAJ100009199999999GF101991999999999999999999
0029029700999991923040313004+60100+019950FM-12+001499999V0200201N001019999999N0000001N9+00611+99999102781ADDGF108991999999999999999999
0029029700999991923040320004+60100+019950FM-12+001499999V0209991C000019999999N0000001N9+00171+99999102711ADDGF108991999999999999999999
0046029700999991923040406004+60100+019950FM-12+001499999V0209991C000019999999N0000001N9+00001+99999102561ADDAJ100009199999999GF108991999999999999999999
0029029700999991923040413004+60100+019950FM-12+001499999V0202301N001019999999N0000001N9+00281+99999102441ADDGF108991999999999999999999
0029029700999991923040420004+60100+019950FM-12+001499999V0202001N001019999999N0000001N9+00061+99999102461ADDGF107991999999999999999999
0046029700999991923040506004+60100+019950FM-12+001499999V0202001N001019999999N0000001N9-00061+99999102671ADDAJ100009199999999GF107991999999999999999999
0029029700999991923040513004+60100+019950FM-12+001499999V0201101N001019999999N0000001N9+00331+99999102841ADDGF108991999999999999999999
0029029700999991923040520004+60100+019950FM-12+001499999V0209991C000019999999N0000001N9+00111+99999102841ADDGF108991999999999999999999
0046029700999991923040606004+60100+019950FM-12+001499999V0209991C000019999999N0000001N9+00061+99999102751ADDAJ100009199999999GF108991999999999999999999
0029029700999991923040613004+60100+019950FM-12+001499999V0200901N001019999999N0000001N9+00671+99999102591ADDGF102991999999999999999999
0029029700999991923040620004+60100+019950FM-12+001499999V0209991C000019999999N0000001N9+00171+99999102541ADDGF108991999999999999999999
0046029700999991923040706004+60100+019950FM-12+001499999V0209991C000019999999N0000001N9+00061+99999102671ADDAJ100009199999999GF107991999999999999999999
0029029700999991923040713004+60100+019950FM-12+001499999V0209991C000019999999N0000001N9+00331+99999102821ADDGF100991999999999999999999
0029029700999991923040720004+60100+019950FM-12+001499999V0202501N001019999999N0000001N9-00281+99999102741ADDGF100991999999999999999999
0046029700999991923040806004+60100+019950FM-12+001499999V0209991C000019999999N0000001N9-00221+99999102721ADDAJ100009199999999GF100991999999999999999999
0029029700999991923040813004+60100+019950FM-12+001499999V0202301N001019999999N0000001N9+00501+99999102521ADDGF100991999999999999999999
0029029700999991923040820004+60100+019950FM-12+001499999V0202301N002119999999N0000001N9+00171+99999102301ADDGF100991999999999999999999
0046029700999991923040906004+60100+019950FM-12+001499999V0202701N001019999999N0000001N9+00001+99999102161ADDAJ100009199999999GF100991999999999999999999
0029029700999991923040913004+60100+019950FM-12+001499999V0202501N001019999999N0000001N9+00671+99999102221ADDGF100991999999999999999999
0029029700999991923040920004+60100+019950FM-12+001499999V0209991C000019999999N0000001N9-00281+99999102061ADDGF100991999999999999999999
0046029700999991923041006004+60100+019950FM-12+001499999V0202701N001019999999N0000001N9+00061+99999101801ADDAJ100009199999999GF101991999999999999999999
0029029700999991923041013004+60100+019950FM-12+001499999V0203601N001019999999N0000001N9+00721+99999101821ADDGF100991999999999999999999
0029029700999991923041020004+60100+019950FM-12+001499999V0209991C000019999999N0000001N9-00171+99999101831ADDGF100991999999999999999999
0046029700999991923041106004+60100+019950FM-12+001499999V0202301N002119999999N0000001N9+00111+99999101511ADDAJ100009199999999GF107991999999999999999999
0029029700999991923041113004+60100+019950FM-12+001499999V0203401N006219999999N0000001N9+00721+99999101351ADDGF100991999999999999999999
0029029700999991923041120004+60100+019950FM-12+001499999V0209991C000019999999N0000001N9-00111+99999101441ADDGF102991999999999999999999
0046029700999991923041206004+60100+019950FM-12+001499999V0200901N004119999999N0000001N9+00001+99999101881ADDAJ100009199999999GF107991999999999999999999
0029029700999991923041213004+60100+019950FM-12+001499999V0201401N001019999999N0000001N9+00221+99999102101ADDGF100991999999999999999999
0029029700999991923041220004+60100+019950FM-12+001499999V0202001N001019999999N0000001N9-00221+99999102031ADDGF100991999999999999999999
0046029700999991923041306004+60100+019950FM-12+001499999V0202001N001019999999N0000001N9+00061+99999101791ADDAJ100009199999999GF107991999999999999999999
0029029700999991923041313004+60100+019950FM-12+001499999V0201401N008219999999N0000001N9+00171+99999101601ADDGF104991999999999999999999
0029029700999991923041320004+60100+019950FM-12+001499999V0201601N005119999999N0000001N9+00061+99999101321ADDGF108991999999999999999999
0046029700999991923041406004+60100+019950FM-12+001499999V0202001N005119999999N0000001N9+00171+99999100791ADDAJ100009199999999GF108991999999999999999999
0029029700999991923041413004+60100+019950FM-12+001499999V0201601N003119999999N0000001N9+00221+99999100551ADDGF108991999999999999999999
0029029700999991923041420004+60100+019950FM-12+001499999V0209991C000019999999N0000001N9+00221+99999100351ADDGF108991999999999999999999
0046029700999991923041506004+60100+019950FM-12+001499999V0200201N001019999999N0000001N9+00061+99999100221ADDAJ100009199999999GF108991999999999999999999
0029029700999991923041513004+60100+019950FM-12+001499999V0200201N004119999999N0000001N9+00171+99999100301ADDGF108991999999999999999999
0029029700999991923041520004+60100+019950FM-12+001499999V0200501N006219999999N0000001N9+00001+99999100481ADDGF108991999999999999999999
0046029700999991923041606004+60100+019950FM-12+001499999V0200701N006219999999N0000001N9+00061+99999100901ADDAJ100009199999999GF108991999999999999999999
0029029700999991923041613004+60100+019950FM-12+001499999V0200501N005119999999N0000001N9+00391+99999101231ADDGF100991999999999999999999
0029029700999991923041620004+60100+019950FM-12+001499999V0200501N002119999999N0000001N9+00001+99999101581ADDGF100991999999999999999999
0046029700999991923041706004+60100+019950FM-12+001499999V0200501N001019999999N0000001N9+00001+99999101961ADDAJ100009199999999GF100991999999999999999999
0029029700999991923041713004+60100+019950FM-12+001499999V0200501N004119999999N0000001N9+00441+99999102021ADDGF100991999999999999999999
0029029700999991923041720004+60100+019950FM-12+001499999V0203601N001019999999N0000001N9-00061+99999101961ADDGF100991999999999999999999
0046029700999991923041806004+60100+019950FM-12+001499999V0200201N001019999999N0000001N9+00171+99999101741ADDAJ100009199999999GF100991999999999999999999
0029029700999991923041813004+60100+019950FM-12+001499999V0203601N004119999999N0000001N9+00441+99999101361ADDGF107991999999999999999999
0029029700999991923041820004+60100+019950FM-12+001499999V0200201N003119999999N0000001N9+00171+99999101041ADDGF102991999999999999999999
0046029700999991923041906004+60100+019950FM-12+001499999V0203401N002119999999N0000001N9+00281+99999100601ADDAJ100009199999999GF101991999999999999999999
0029029700999991923041913004+60100+019950FM-12+001499999V0203401N005119999999N0000001N9+00721+99999100551ADDGF100991999999999999999999
0029029700999991923041920004+60100+019950FM-12+001499999V0209991C000019999999N0000001N9-00171+99999100511ADDGF100991999999999999999999
0046029700999991923042006004+60100+019950FM-12+001499999V0209991C000019999999N0000001N9+00281+99999100511ADDAJ100009199999999GF102991999999999999999999
0029029700999991923042013004+60100+019950FM-12+001499999V0202901N001019999999N0000001N9+00561+99999100721ADDGF100991999999999999999999
0029029700999991923042020004+60100+019950FM-12+001499999V0203401N002119999999N0000001N9-00061+99999101031ADDGF102991999999999999999999
0046029700999991923042106004+60100+019950FM-12+001499999V0203401N003119999999N0000001N9-00221+99999101321ADDAJ100009199999999GF104991999999999999999999
0029029700999991923042113004+60100+019950FM-12+001499999V0203401N003119999999N0000001N9+00281+99999101121ADDGF100991999999999999999999
0029029700999991923042120004+60100+019950FM-12+001499999V0202501N004119999999N0000001N9+00221+99999100701ADDGF106991999999999999999999
0046029700999991923042206004+60100+019950FM-12+001499999V0203601N001019999999N0000001N9+00061+99999100801ADDAJ100009199999999GF100991999999999999999999
0029029700999991923042213004+60100+019950FM-12+001499999V0201101N001019999999N0000001N9+00441+99999100821ADDGF102991999999999999999999
0029029700999991923042220004+60100+019950FM-12+001499999V0209991C000019999999N0000001N9-00221+99999100871ADDGF100991999999999999999999
0046029700999991923042306004+60100+019950FM-12+001499999V0200901N001019999999N0000001N9+00061+99999100881ADDAJ100009199999999GF100991999999999999999999
0029029700999991923042313004+60100+019950FM-12+001499999V0201401N005119999999N0000001N9+00281+99999100941ADDGF102991999999999999999999
0029029700999991923042320004+60100+019950FM-12+001499999V0201401N001019999999N0000001N9+00001+99999100831ADDGF105991999999999999999999
0046029700999991923042406004+60100+019950FM-12+001499999V0200901N007219999999N0000001N9+00061+99999100461ADDAJ100009199999999GF106991999999999999999999
0029029700999991923042413004+60100+019950FM-12+001499999V0201101N006219999999N0000001N9+00391+99999100231ADDGF106991999999999999999999
0035029700999991923042420004+60100+019950FM-12+001499999V0200501N005119999999N0000001N9-00061+99999100111ADDGF108991999999999999999999MW1721
0029029700999991923042506004+60100+019950FM-12+001499999V0200501N003119999999N0000001N9-00111+99999100141ADDGF102991999999999999999999
0029029700999991923042513004+60100+019950FM-12+001499999V0202901N004119999999N0000001N9+00111+99999100581ADDGF106991999999999999999999
0029029700999991923042520004+60100+019950FM-12+001499999V0209991C000019999999N0000001N9-00331+99999100881ADDGF100991999999999999999999
0046029700999991923042606004+60100+019950FM-12+001499999V0201801N001019999999N0000001N9+00111+99999100941ADDAJ100009199999999GF105991999999999999999999
0035029700999991923042613004+60100+019950FM-12+001499999V0201401N004119999999N0000001N9+00111+99999100681ADDGF108991999999999999999999MW1701
0035029700999991923042620004+60100+019950FM-12+001499999V0201101N004119999999N0000001N9+00111+99999100261ADDGF108991999999999999999999MW1701
0046029700999991923042706004+60100+019950FM-12+001499999V0201801N004119999999N0000001N9+00441+99999099281ADDAJ100009199999999GF108991999999999999999999
0029029700999991923042713004+60100+019950FM-12+001499999V0202001N008219999999N0000001N9+00611+99999099191ADDGF108991999999999999999999
0029029700999991923042720004+60100+019950FM-12+001499999V0202301N005119999999N0000001N9+00391+99999099021ADDGF107991999999999999999999
0046029700999991923042806004+60100+019950FM-12+001499999V0202301N002119999999N0000001N9+00331+99999099591ADDAJ100009199999999GF100991999999999999999999
0029029700999991923042813004+60100+019950FM-12+001499999V0202301N002119999999N0000001N9+00781+99999099681ADDGF105991999999999999999999
0029029700999991923042820004+60100+019950FM-12+001499999V0209991C000019999999N0000001N9+00001+99999099781ADDGF100991999999999999999999
0046029700999991923042906004+60100+019950FM-12+001499999V0202701N002119999999N0000001N9+00061+99999099781ADDAJ100009199999999GF108991999999999999999999
0029029700999991923042913004+60100+019950FM-12+001499999V0203401N004119999999N0000001N9+00441+99999100271ADDGF101991999999999999999999
0029029700999991923042920004+60100+019950FM-12+001499999V0209991C000019999999N0000001N9+00171+99999100561ADDGF102991999999999999999999
0046029700999991923043006004+60100+019950FM-12+001499999V0209991C000019999999N0000001N9+00331+99999100761ADDAJ100009199999999GF100991999999999999999999
0029029700999991923043013004+60100+019950FM-12+001499999V0202301N003119999999N0000001N9+00721+99999100901ADDGF100991999999999999999999
0029029700999991923043020004+60100+019950FM-12+001499999V0202301N003119999999N0000001N9+00061+99999100981ADDGF104991999999999999999999
0046029700999991923050106004+60100+019950FM-12+001499999V0202001N002119999999N0000001N9+00281+99999100701ADDAJ100009199999999GF108991999999999999999999
0035029700999991923050113004+60100+019950FM-12+001499999V0201401N004119999999N0000001N9+00111+99999100461ADDGF108991999999999999999999MW1721
0029029700999991923050120004+60100+019950FM-12+001499999V0200501N001019999999N0000001N9+00111+99999100061ADDGF108991999999999999999999
0046029700999991923050206004+60100+019950FM-12+001499999V0209991C000019999999N0000001N9+00111+99999100581ADDAJ100009199999999GF108991999999999999999999
0035029700999991923050213004+60100+019950FM-12+001499999V0202901N001019999999N0000001N9+00221+99999100911ADDGF108991999999999999999999MW1621
0029029700999991923050220004+60100+019950FM-12+001499999V0202301N001019999999N0000001N9+00111+99999101161ADDGF108991999999999999999999
0046029700999991923050306004+60100+019950FM-12+001499999V0203201N001019999999N0000001N9+00281+99999101261ADDAJ100009199999999GF102991999999999999999999
0029029700999991923050313004+60100+019950FM-12+001499999V0202301N005119999999N0000001N9+00561+99999101401ADDGF103991999999999999999999
0029029700999991923050320004+60100+019950FM-12+001499999V0209991C000019999999N0000001N9+00001+99999101401ADDGF103991999999999999999999
0046029700999991923050406004+60100+019950FM-12+001499999V0209991C000019999999N0000001N9+00111+99999101441ADDAJ100009199999999GF108991999999999999999999
0029029700999991923050413004+60100+019950FM-12+001499999V0201601N003119999999N0000001N9+00391+99999101541ADDGF104991999999999999999999
0029029700999991923050420004+60100+019950FM-12+001499999V0201601N003119999999N0000001N9+00111+99999101581ADDGF108991999999999999999999
0046029700999991923050506004+60100+019950FM-12+001499999V0201801N003119999999N0000001N9+00391+99999101431ADDAJ100009199999999GF108991999999999999999999
0035029700999991923050513004+60100+019950FM-12+001499999V0202301N005119999999N0000001N9+00501+99999101281ADDGF108991999999999999999999MW1601
0029029700999991923050520004+60100+019950FM-12+001499999V0202301N001019999999N0000001N9+00331+99999101041ADDGF108991999999999999999999
0046029700999991923050606004+60100+019950FM-12+001499999V0202301N001019999999N0000001N9+00781+99999101181ADDAJ100009199999999GF101991999999999999999999
0035029700999991923050613004+60100+019950FM-12+001499999V0201401N001019999999N0000001N9+00671+99999101021ADDGF108991999999999999999999MW1621
0029029700999991923050620004+60100+019950FM-12+001499999V0201601N004119999999N0000001N9+00671+99999100301ADDGF108991999999999999999999
0046029700999991923050706004+60100+019950FM-12+001499999V0202501N004119999999N0000001N9+00781+99999100231ADDAJ100009199999999GF100991999999999999999999
0029029700999991923050713004+60100+019950FM-12+001499999V0202701N004119999999N0000001N9+01441+99999100351ADDGF100991999999999999999999
0029029700999991923050720004+60100+019950FM-12+001499999V0209991C000019999999N0000001N9+00831+99999100441ADDGF105991999999999999999999
0046029700999991923050806004+60100+019950FM-12+001499999V0203401N003119999999N0000001N9+00671+99999100901ADDAJ100009199999999GF100991999999999999999999
0029029700999991923050813004+60100+019950FM-12+001499999V0200901N002119999999N0000001N9+01061+99999100941ADDGF100991999999999999999999
0029029700999991923050820004+60100+019950FM-12+001499999V0209991C000019999999N0000001N9+00441+99999100741ADDGF107991999999999999999999
0046029700999991923050906004+60100+019950FM-12+001499999V0202701N003119999999N0000001N9+00221+99999100341ADDAJ100009199999999GF108991999999999999999999
0029029700999991923050913004+60100+019950FM-12+001499999V0203601N004119999999N0000001N9+00391+99999100441ADDGF108991999999999999999999
0029029700999991923050920004+60100+019950FM-12+001499999V0209991C000019999999N0000001N9-00061+99999100471ADDGF103991999999999999999999
0052029700999991923051006004+60100+019950FM-12+001499999V0209991C000019999999N0000001N9+00331+99999100311ADDAJ100009199999999GF108991999999999999999999MW1621
0029029700999991923051013004+60100+019950FM-12+001499999V0201601N001019999999N0000001N9+00671+99999100261ADDGF101991999999999999999999
0029029700999991923051020004+60100+019950FM-12+001499999V0209991C000019999999N0000001N9+00281+99999100301ADDGF106991999999999999999999
0046029700999991923051106004+60100+019950FM-12+001499999V0209991C000019999999N0000001N9+00611+99999100191ADDAJ100009199999999GF107991999999999999999999
0029029700999991923051113004+60100+019950FM-12+001499999V0209991C000019999999N0000001N9+01221+99999100271ADDGF102991999999999999999999
0029029700999991923051120004+60100+019950FM-12+001499999V0200201N001019999999N0000001N9+00441+99999100351ADDGF102991999999999999999999
0046029700999991923051206004+60100+019950FM-12+001499999V0209991C000019999999N0000001N9+00611+99999100511ADDAJ100009199999999GF106991999999999999999999
0029029700999991923051213004+60100+019950FM-12+001499999V0201601N001019999999N0000001N9+00941+99999100781ADDGF104991999999999999999999
0029029700999991923051220004+60100+019950FM-12+001499999V0201401N003119999999N0000001N9+00501+99999100871ADDGF101991999999999999999999
0046029700999991923051306004+60100+019950FM-12+001499999V0201401N007219999999N0000001N9+00831+99999100161ADDAJ100009199999999GF107991999999999999999999
0029029700999991923051313004+60100+019950FM-12+001499999V0201601N007219999999N0000001N9+00721+99999099941ADDGF102991999999999999999999
0029029700999991923051320004+60100+019950FM-12+001499999V0202301N006219999999N0000001N9+00441+99999100381ADDGF102991999999999999999999
0046029700999991923051406004+60100+019950FM-12+001499999V0201601N005119999999N0000001N9+00561+99999100501ADDAJ100009199999999GF108991999999999999999999
0035029700999991923051413004+60100+019950FM-12+001499999V0202301N003119999999N0000001N9+00441+99999100161ADDGF108991999999999999999999MW1621
0029029700999991923051420004+60100+019950FM-12+001499999V0202001N004119999999N0000001N9+00391+99999100111ADDGF102991999999999999999999
0046029700999991923051506004+60100+019950FM-12+001499999V0202301N004119999999N0000001N9+00561+99999100561ADDAJ100009199999999GF100991999999999999999999
0029029700999991923051513004+60100+019950FM-12+001499999V0202301N004119999999N0000001N9+00781+99999101061ADDGF100991999999999999999999
0029029700999991923051520004+60100+019950FM-12+001499999V0209991C000019999999N0000001N9+00501+99999101151ADDGF102991999999999999999999
0046029700999991923051606004+60100+019950FM-12+001499999V0202301N001019999999N0000001N9+00561+99999101001ADDAJ100009199999999GF102991999999999999999999
0029029700999991923051613004+60100+019950FM-12+001499999V0202301N003119999999N0000001N9+01001+99999101151ADDGF102991999999999999999999
0029029700999991923051620004+60100+019950FM-12+001499999V0209991C000019999999N0000001N9+00391+99999101231ADDGF108991999999999999999999
0046029700999991923051706004+60100+019950FM-12+001499999V0201401N006219999999N0000001N9+00781+99999100661ADDAJ100009199999999GF108991999999999999999999
0029029700999991923051713004+60100+019950FM-12+001499999V0201801N003119999999N0000001N9+00611+99999100711ADDGF108991999999999999999999
0029029700999991923051720004+60100+019950FM-12+001499999V0202001N003119999999N0000001N9+00441+99999100801ADDGF104991999999999999999999
0046029700999991923051806004+60100+019950FM-12+001499999V0202301N005119999999N0000001N9+00611+99999101161ADDAJ100009199999999GF102991999999999999999999
0029029700999991923051813004+60100+019950FM-12+001499999V0202301N005119999999N0000001N9+00941+99999101361ADDGF100991999999999999999999
0029029700999991923051820004+60100+019950FM-12+001499999V0201801N001019999999N0000001N9+00441+99999101351ADDGF101991999999999999999999
0046029700999991923051906004+60100+019950FM-12+001499999V0209991C000019999999N0000001N9+00611+99999101141ADDAJ100009199999999GF106991999999999999999999
0035029700999991923051913004+60100+019950FM-12+001499999V0209991C000019999999N0000001N9+00671+99999101111ADDGF108991999999999999999999MW1601
0029029700999991923051920004+60100+019950FM-12+001499999V0201801N002119999999N0000001N9+00501+99999101071ADDGF100991999999999999999999
0046029700999991923052006004+60100+019950FM-12+001499999V0202301N001019999999N0000001N9+00671+99999101201ADDAJ100009199999999GF104991999999999999999999
0029029700999991923052013004+60100+019950FM-12+001499999V0202301N005119999999N0000001N9+00831+99999101201ADDGF102991999999999999999999
0029029700999991923052020004+60100+019950FM-12+001499999V0202001N003119999999N0000001N9+00561+99999101191ADDGF100991999999999999999999
0046029700999991923052106004+60100+019950FM-12+001499999V0202001N003119999999N0000001N9+00721+99999101221ADDAJ100009199999999GF103991999999999999999999
0029029700999991923052113004+60100+019950FM-12+001499999V0202001N003119999999N0000001N9+01061+99999101321ADDGF102991999999999999999999
0029029700999991923052120004+60100+019950FM-12+001499999V0201801N004119999999N0000001N9+00781+99999101161ADDGF102991999999999999999999
0052029700999991923052206004+60100+019950FM-12+001499999V0201601N002119999999N0000001N9+00671+99999100791ADDAJ100009199999999GF108991999999999999999999MW1621
0035029700999991923052213004+60100+019950FM-12+001499999V0201801N001019999999N0000001N9+00561+99999100721ADDGF108991999999999999999999MW1621
0029029700999991923052220004+60100+019950FM-12+001499999V0202001N002119999999N0000001N9+00611+99999100641ADDGF106991999999999999999999
0046029700999991923052306004+60100+019950FM-12+001499999V0202001N001019999999N0000001N9+00671+99999100551ADDAJ100009199999999GF106991999999999999999999
0029029700999991923052313004+60100+019950FM-12+001499999V0202001N003119999999N0000001N9+00891+99999100541ADDGF102991999999999999999999
0029029700999991923052320004+60100+019950FM-12+001499999V0202301N002119999999N0000001N9+00611+99999100481ADDGF102991999999999999999999
0046029700999991923052406004+60100+019950FM-12+001499999V0202301N001019999999N0000001N9+00671+99999100341ADDAJ100009199999999GF106991999999999999999999
0029029700999991923052413004+60100+019950FM-12+001499999V0202301N001019999999N0000001N9+00831+99999100311ADDGF102991999999999999999999
0029029700999991923052420004+60100+019950FM-12+001499999V0202301N001019999999N0000001N9+00671+99999100241ADDGF107991999999999999999999
0046029700999991923052506004+60100+019950FM-12+001499999V0202501N001019999999N0000001N9+00831+99999100701ADDAJ100009199999999GF100991999999999999999999
0029029700999991923052513004+60100+019950FM-12+001499999V0202301N001019999999N0000001N9+01171+99999101181ADDGF101991999999999999999999
0029029700999991923052520004+60100+019950FM-12+001499999V0209991C000019999999N0000001N9+00671+99999101441ADDGF101991999999999999999999
0046029700999991923052606004+60100+019950FM-12+001499999V0202301N003119999999N0000001N9+00721+99999101801ADDAJ100009199999999GF102991999999999999999999
0029029700999991923052613004+60100+019950FM-12+001499999V0201401N001019999999N0000001N9+00891+99999101951ADDGF101991999999999999999999
0029029700999991923052620004+60100+019950FM-12+001499999V0201601N001019999999N0000001N9+00891+99999101871ADDGF105991999999999999999999
0052029700999991923052706004+60100+019950FM-12+001499999V0200201N002119999999N0000001N9+00781+99999101431ADDAJ100009199999999GF108991999999999999999999MW1621
0035029700999991923052713004+60100+019950FM-12+001499999V0200201N001019999999N0000001N9+00941+99999101101ADDGF108991999999999999999999MW1621
0029029700999991923052720004+60100+019950FM-12+001499999V0209991C000019999999N0000001N9+00781+99999100921ADDGF108991999999999999999999
0046029700999991923052806004+60100+019950FM-12+001499999V0203601N005119999999N0000001N9+00501+99999100951ADDAJ100009199999999GF104991999999999999999999
0029029700999991923052813004+60100+019950FM-12+001499999V0203201N004119999999N0000001N9+01061+99999101181ADDGF100991999999999999999999
0029029700999991923052820004+60100+019950FM-12+001499999V0202901N001019999999N0000001N9+00561+99999101301ADDGF102991999999999999999999
0046029700999991923052906004+60100+019950FM-12+001499999V0203401N004119999999N0000001N9+00781+99999101431ADDAJ100009199999999GF101991999999999999999999
0029029700999991923052913004+60100+019950FM-12+001499999V0202901N001019999999N0000001N9+00891+99999101541ADDGF107991999999999999999999
0035029700999991923052920004+60100+019950FM-12+001499999V0209991C000019999999N0000001N9+00561+99999101481ADDGF108991999999999999999999MW1621
0046029700999991923053006004+60100+019950FM-12+001499999V0202901N003119999999N0000001N9+00671+99999101541ADDAJ100009199999999GF106991999999999999999999
0029029700999991923053013004+60100+019950FM-12+001499999V0203401N001019999999N0000001N9+00781+99999101881ADDGF108991999999999999999999
0029029700999991923053020004+60100+019950FM-12+001499999V0209991C000019999999N0000001N9+00561+99999101881ADDGF107991999999999999999999
0046029700999991923053106004+60100+019950FM-12+001499999V0209991C000019999999N0000001N9+00671+99999102031ADDAJ100009199999999GF104991999999999999999999
0029029700999991923053113004+60100+019950FM-12+001499999V0202301N002119999999N0000001N9+00781+99999102031ADDGF107991999999999999999999
0035029700999991923053120004+60100+019950FM-12+001499999V0202301N003119999999N0000001N9+00611+99999101661ADDGF108991999999999999999999MW1621
0052029700999991923060106004+60100+019950FM-12+001499999V0209991C000019999999N0000001N9+00671+99999101081ADDAJ100009199999999GF108991999999999999999999MW1621
0029029700999991923060113004+60100+019950FM-12+001499999V0200201N003119999999N0000001N9+01061+99999100921ADDGF108991999999999999999999
0029029700999991923060120004+60100+019950FM-12+001499999V0203601N001019999999N0000001N9+00501+99999100901ADDGF102991999999999999999999
0046029700999991923060206004+60100+019950FM-12+001499999V0203201N002119999999N0000001N9+00781+99999101281ADDAJ100009199999999GF100991999999999999999999
0029029700999991923060213004+60100+019950FM-12+001499999V0202901N003119999999N0000001N9+00831+99999101361ADDGF104991999999999999999999
0029029700999991923060220004+60100+019950FM-12+001499999V0209991C000019999999N0000001N9+00501+99999101151ADDGF107991999999999999999999
0046029700999991923060306004+60100+019950FM-12+001499999V0209991C000019999999N0000001N9+00721+99999100471ADDAJ100009199999999GF108991999999999999999999
0035029700999991923060313004+60100+019950FM-12+001499999V0202301N001019999999N0000001N9+00611+99999100191ADDGF108991999999999999999999MW1601
0035029700999991923060320004+60100+019950FM-12+001499999V0201801N001019999999N0000001N9+00501+99999100031ADDGF108991999999999999999999MW1601
0046029700999991923060406004+60100+019950FM-12+001499999V0203601N002119999999N0000001N9+00611+99999099881ADDAJ100009199999999GF106991999999999999999999
0029029700999991923060413004+60100+019950FM-12+001499999V0202001N002119999999N0000001N9+01001+99999099781ADDGF104991999999999999999999
0029029700999991923060420004+60100+019950FM-12+001499999V0202701N001019999999N0000001N9+00391+99999099841ADDGF106991999999999999999999
0046029700999991923060506004+60100+019950FM-12+001499999V0203401N001019999999N0000001N9+00561+99999099961ADDAJ100009199999999GF104991999999999999999999
0029029700999991923060513004+60100+019950FM-12+001499999V0202701N003119999999N0000001N9+00831+99999100101ADDGF104991999999999999999999
0029029700999991923060520004+60100+019950FM-12+001499999V0202001N002119999999N0000001N9+00561+99999100031ADDGF102991999999999999999999
0046029700999991923060606004+60100+019950FM-12+001499999V0209991C000019999999N0000001N9+00781+99999099911ADDAJ100009199999999GF106991999999999999999999
0035029700999991923060613004+60100+019950FM-12+001499999V0203401N003119999999N0000001N9+00501+99999100151ADDGF108991999999999999999999MW1621
0029029700999991923060620004+60100+019950FM-12+001499999V0209991C000019999999N0000001N9+00331+99999100231ADDGF100991999999999999999999
0046029700999991923060706004+60100+019950FM-12+001499999V0203201N001019999999N0000001N9+00831+99999100441ADDAJ100009199999999GF101991999999999999999999
0029029700999991923060713004+60100+019950FM-12+001499999V0202301N003119999999N0000001N9+01061+99999100581ADDGF106991999999999999999999
0029029700999991923060720004+60100+019950FM-12+001499999V0209991C000019999999N0000001N9+00611+99999100781ADDGF106991999999999999999999
0046029700999991923060806004+60100+019950FM-12+001499999V0209991C000019999999N0000001N9+01001+99999100871ADDAJ100009199999999GF102991999999999999999999
0029029700999991923060813004+60100+019950FM-12+001499999V0201801N004119999999N0000001N9+01001+99999100751ADDGF106991999999999999999999
0035029700999991923060820004+60100+019950FM-12+001499999V0202301N003119999999N0000001N9+00831+99999100321ADDGF108991999999999999999999MW1601
0052029700999991923060906004+60100+019950FM-12+001499999V0202301N006219999999N0000001N9+00781+99999099401ADDAJ100009199999999GF108991999999999999999999MW1621
0029029700999991923060913004+60100+019950FM-12+001499999V0202301N003119999999N0000001N9+00941+99999099151ADDGF108991999999999999999999
0029029700999991923060920004+60100+019950FM-12+001499999V0202501N001019999999N0000001N9+00721+99999099111ADDGF103991999999999999999999
0046029700999991923061006004+60100+019950FM-12+001499999V0203401N003119999999N0000001N9+01061+99999100141ADDAJ100009199999999GF100991999999999999999999
0029029700999991923061013004+60100+019950FM-12+001499999V0202001N002119999999N0000001N9+01441+99999100501ADDGF101991999999999999999999
0035029700999991923061020004+60100+019950FM-12+001499999V0202301N002119999999N0000001N9+00891+99999100161ADDGF108991999999999999999999MW1621
0046029700999991923061106004+60100+019950FM-12+001499999V0202301N003119999999N0000001N9+00941+99999099501ADDAJ100009199999999GF108991999999999999999999
0029029700999991923061113004+60100+019950FM-12+001499999V0202301N003119999999N0000001N9+01061+99999099431ADDGF107991999999999999999999
0029029700999991923061120004+60100+019950FM-12+001499999V0202301N001019999999N0000001N9+00891+99999099351ADDGF107991999999999999999999
0046029700999991923061206004+60100+019950FM-12+001499999V0203401N001019999999N0000001N9+00671+99999099561ADDAJ100009199999999GF108991999999999999999999
0029029700999991923061213004+60100+019950FM-12+001499999V0203601N004119999999N0000001N9+01001+99999100241ADDGF106991999999999999999999
0029029700999991923061220004+60100+019950FM-12+001499999V0209991C000019999999N0000001N9+00611+99999100551ADDGF102991999999999999999999
0046029700999991923061306004+60100+019950FM-12+001499999V0209991C000019999999N0000001N9+00781+99999100461ADDAJ100009199999999GF106991999999999999999999
0029029700999991923061313004+60100+019950FM-12+001499999V0202301N001019999999N0000001N9+01061+99999100391ADDGF106991999999999999999999
0029029700999991923061320004+60100+019950FM-12+001499999V0209991C000019999999N0000001N9+00781+99999100231ADDGF105991999999999999999999
0052029700999991923061406004+60100+019950FM-12+001499999V0201101N003119999999N0000001N9+00781+99999100021ADDAJ100009199999999GF108991999999999999999999MW1621
0035029700999991923061413004+60100+019950FM-12+001499999V0201401N004119999999N0000001N9+00831+99999099791ADDGF108991999999999999999999MW1621
0029029700999991923061420004+60100+019950FM-12+001499999V0201801N003119999999N0000001N9+00671+99999099801ADDGF108991999999999999999999
0046029700999991923061506004+60100+019950FM-12+001499999V0201401N003119999999N0000001N9+00941+99999099861ADDAJ100009199999999GF108991999999999999999999
0029029700999991923061513004+60100+019950FM-12+001499999V0201401N004119999999N0000001N9+00781+99999100081ADDGF108991999999999999999999
0029029700999991923061520004+60100+019950FM-12+001499999V0201801N001019999999N0000001N9+00611+99999100191ADDGF108991999999999999999999
0052029700999991923061606004+60100+019950FM-12+001499999V0202001N002119999999N0000001N9+00671+99999100181ADDAJ100009199999999GF108991999999999999999999MW1621
0029029700999991923061613004+60100+019950FM-12+001499999V0201801N003119999999N0000001N9+00891+99999100351ADDGF107991999999999999999999
0029029700999991923061620004+60100+019950FM-12+001499999V0202301N003119999999N0000001N9+00781+99999100561ADDGF106991999999999999999999
0046029700999991923061706004+60100+019950FM-12+001499999V0202301N001019999999N0000001N9+00891+99999101001ADDAJ100009199999999GF103991999999999999999999
0029029700999991923061713004+60100+019950FM-12+001499999V0201801N004119999999N0000001N9+01171+99999101351ADDGF100991999999999999999999
0029029700999991923061720004+60100+019950FM-12+001499999V0209991C000019999999N0000001N9+00941+99999101471ADDGF101991999999999999999999
0052029700999991923061806004+60100+019950FM-12+001499999V0201601N001019999999N0000001N9+01001+99999101461ADDAJ100009199999999GF108991999999999999999999MW1621
0035029700999991923061813004+60100+019950FM-12+001499999V0209991C000019999999N0000001N9+01171+99999101441ADDGF108991999999999999999999MW1621
0029029700999991923061820004+60100+019950FM-12+001499999V0200501N001019999999N0000001N9+00941+99999101461ADDGF108991999999999999999999
0046029700999991923061906004+60100+019950FM-12+001499999V0203601N001019999999N0000001N9+01061+99999101221ADDAJ100009199999999GF108991999999999999999999
0029029700999991923061913004+60100+019950FM-12+001499999V0209991C000019999999N0000001N9+01561+99999101001ADDGF103991999999999999999999
0029029700999991923061920004+60100+019950FM-12+001499999V0203601N001019999999N0000001N9+01331+99999100801ADDGF107991999999999999999999
0046029700999991923062006004+60100+019950FM-12+001499999V0209991C000019999999N0000001N9+01391+99999100621ADDAJ100009199999999GF108991999999999999999999
0035029700999991923062013004+60100+019950FM-12+001499999V0200501N001019999999N0000001N9+01331+99999100501ADDGF108991999999999999999999MW1621
0029029700999991923062020004+60100+019950FM-12+001499999V0209991C000019999999N0000001N9+00941+99999100401ADDGF108991999999999999999999
0046029700999991923062106004+60100+019950FM-12+001499999V0203401N001019999999N0000001N9+01001+99999100101ADDAJ100009199999999GF108991999999999999999999
0029029700999991923062113004+60100+019950FM-12+001499999V0203201N001019999999N0000001N9+01281+99999100141ADDGF102991999999999999999999
0029029700999991923062120004+60100+019950FM-12+001499999V0202001N003119999999N0000001N9+00941+99999099911ADDGF101991999999999999999999
0046029700999991923062206004+60100+019950FM-12+001499999V0202501N004119999999N0000001N9+01001+99999099401ADDAJ100009199999999GF105991999999999999999999
0029029700999991923062213004+60100+019950FM-12+001499999V0203201N003119999999N0000001N9+01281+99999099711ADDGF102991999999999999999999
0029029700999991923062220004+60100+019950FM-12+001499999V0202301N001019999999N0000001N9+00831+99999099671ADDGF103991999999999999999999
0046029700999991923062306004+60100+019950FM-12+001499999V0203601N004119999999N0000001N9+00941+99999099661ADDAJ100009199999999GF102991999999999999999999
0029029700999991923062313004+60100+019950FM-12+001499999V0202001N001019999999N0000001N9+01221+99999099711ADDGF101991999999999999999999
0029029700999991923062320004+60100+019950FM-12+001499999V0202301N002119999999N0000001N9+01061+99999099321ADDGF107991999999999999999999
0046029700999991923062406004+60100+019950FM-12+001499999V0203201N004119999999N0000001N9+01001+99999099061ADDAJ100009199999999GF102991999999999999999999
0029029700999991923062413004+60100+019950FM-12+001499999V0203401N004119999999N0000001N9+01171+99999099321ADDGF106991999999999999999999
0029029700999991923062420004+60100+019950FM-12+001499999V0202501N004119999999N0000001N9+00781+99999099511ADDGF104991999999999999999999
0046029700999991923062506004+60100+019950FM-12+001499999V0203201N007219999999N0000001N9+00941+99999099671ADDAJ100009199999999GF102991999999999999999999
0029029700999991923062513004+60100+019950FM-12+001499999V0203201N001019999999N0000001N9+01221+99999099961ADDGF102991999999999999999999
0029029700999991923062520004+60100+019950FM-12+001499999V0209991C000019999999N0000001N9+00831+99999100071ADDGF102991999999999999999999
0046029700999991923062606004+60100+019950FM-12+001499999V0202001N002119999999N0000001N9+01061+99999100121ADDAJ100009199999999GF107991999999999999999999
0029029700999991923062613004+60100+019950FM-12+001499999V0201401N002119999999N0000001N9+01281+99999100381ADDGF102991999999999999999999
0029029700999991923062620004+60100+019950FM-12+001499999V0201601N001019999999N0000001N9+00891+99999100521ADDGF102991999999999999999999
0046029700999991923062706004+60100+019950FM-12+001499999V0201601N003119999999N0000001N9+00941+99999100831ADDAJ100009199999999GF107991999999999999999999
0029029700999991923062713004+60100+019950FM-12+001499999V0201601N003119999999N0000001N9+01111+99999101181ADDGF106991999999999999999999
0029029700999991923062720004+60100+019950FM-12+001499999V0201801N001019999999N0000001N9+00891+99999101401ADDGF100991999999999999999999
0046029700999991923062806004+60100+019950FM-12+001499999V0201801N001019999999N0000001N9+01111+99999101511ADDAJ100009199999999GF105991999999999999999999
0029029700999991923062813004+60100+019950FM-12+001499999V0201801N002119999999N0000001N9+01331+99999101581ADDGF102991999999999999999999
0029029700999991923062820004+60100+019950FM-12+001499999V0209991C000019999999N0000001N9+00891+99999101501ADDGF100991999999999999999999
0046029700999991923062906004+60100+019950FM-12+001499999V0202301N001019999999N0000001N9+01001+99999101481ADDAJ100009199999999GF106991999999999999999999
0029029700999991923062913004+60100+019950FM-12+001499999V0202301N002119999999N0000001N9+01221+99999101471ADDGF103991999999999999999999
0029029700999991923062920004+60100+019950FM-12+001499999V0202001N001019999999N0000001N9+00941+99999101461ADDGF102991999999999999999999
0046029700999991923063006004+60100+019950FM-12+001499999V0202001N002119999999N0000001N9+00941+99999101401ADDAJ100009199999999GF108991999999999999999999
0029029700999991923063013004+60100+019950FM-12+001499999V0202001N002119999999N0000001N9+01171+99999101391ADDGF102991999999999999999999
0029029700999991923063020004+60100+019950FM-12+001499999V0201801N002119999999N0000001N9+00941+99999101261ADDGF106991999999999999999999
0046029700999991923070106004+60100+019950FM-12+001499999V0201801N001019999999N0000001N9+01171+99999101111ADDAJ100009199999999GF103991999999999999999999
0029029700999991923070113004+60100+019950FM-12+001499999V0201401N001019999999N0000001N9+01391+99999101121ADDGF100991999999999999999999
0029029700999991923070120004+60100+019950FM-12+001499999V0201801N001019999999N0000001N9+01061+99999101151ADDGF108991999999999999999999
0046029700999991923070206004+60100+019950FM-12+001499999V0202301N001019999999N0000001N9+01281+99999101241ADDAJ100009199999999GF100991999999999999999999
0029029700999991923070213004+60100+019950FM-12+001499999V0201801N003119999999N0000001N9+01671+99999101321ADDGF100991999999999999999999
0029029700999991923070220004+60100+019950FM-12+001499999V0209991C000019999999N0000001N9+01281+99999101381ADDGF100991999999999999999999
0046029700999991923070306004+60100+019950FM-12+001499999V0209991C000019999999N0000001N9+01391+99999101511ADDAJ100009199999999GF108991999999999999999999
0029029700999991923070313004+60100+019950FM-12+001499999V0201601N001019999999N0000001N9+01831+99999101621ADDGF100991999999999999999999
0029029700999991923070320004+60100+019950FM-12+001499999V0209991C000019999999N0000001N9+01331+99999101591ADDGF100991999999999999999999
0046029700999991923070406004+60100+019950FM-12+001499999V0209991C000019999999N0000001N9+01171+99999101751ADDAJ100009199999999GF108991999999999999999999
0029029700999991923070413004+60100+019950FM-12+001499999V0202301N001019999999N0000001N9+01561+99999101991ADDGF107991999999999999999999
0029029700999991923070420004+60100+019950FM-12+001499999V0209991C000019999999N0000001N9+01281+99999102071ADDGF106991999999999999999999
0046029700999991923070506004+60100+019950FM-12+001499999V0202301N001019999999N0000001N9+01391+99999102311ADDAJ100009199999999GF103991999999999999999999
0029029700999991923070513004+60100+019950FM-12+001499999V0202001N001019999999N0000001N9+01611+99999102361ADDGF100991999999999999999999
0029029700999991923070520004+60100+019950FM-12+001499999V0202001N001019999999N0000001N9+01331+99999102381ADDGF100991999999999999999999
0052029700999991923070606004+60100+019950FM-12+001499999V0209991C000019999999N0000001N9+01561+99999102421ADDAJ100009199999999GF107991999999999999999999MW1621
0029029700999991923070613004+60100+019950FM-12+001499999V0202301N001019999999N0000001N9+01941+99999102381ADDGF101991999999999999999999
0029029700999991923070620004+60100+019950FM-12+001499999V0209991C000019999999N0000001N9+01671+99999102381ADDGF104991999999999999999999
0046029700999991923070706004+60100+019950FM-12+001499999V0209991C000019999999N0000001N9+01781+99999102421ADDAJ100009199999999GF102991999999999999999999
0029029700999991923070713004+60100+019950FM-12+001499999V0202301N001019999999N0000001N9+02111+99999102391ADDGF106991999999999999999999
0029029700999991923070720004+60100+019950FM-12+001499999V0209991C000019999999N0000001N9+01611+99999102301ADDGF105991999999999999999999
0052029700999991923070806004+60100+019950FM-12+001499999V0209991C000019999999N0000001N9+01501+99999102141ADDAJ100009199999999GF108991999999999999999999MW1621
0029029700999991923070813004+60100+019950FM-12+001499999V0203601N002119999999N0000001N9+01781+99999102191ADDGF101991999999999999999999
0029029700999991923070820004+60100+019950FM-12+001499999V0203601N001019999999N0000001N9+01221+99999102391ADDGF100991999999999999999999
0046029700999991923070906004+60100+019950FM-12+001499999V0200201N001019999999N0000001N9+01671+99999102641ADDAJ100009199999999GF100991999999999999999999
0029029700999991923070913004+60100+019950FM-12+001499999V0203201N002119999999N0000001N9+02061+99999102621ADDGF100991999999999999999999
0029029700999991923070920004+60100+019950FM-12+001499999V0209991C000019999999N0000001N9+01391+99999102521ADDGF102991999999999999999999
0046029700999991923071006004+60100+019950FM-12+001499999V0200201N001019999999N0000001N9+01781+99999102401ADDAJ100009199999999GF100991999999999999999999
0029029700999991923071013004+60100+019950FM-12+001499999V0201801N001019999999N0000001N9+02061+99999102381ADDGF100991999999999999999999
0029029700999991923071020004+60100+019950FM-12+001499999V0209991C000019999999N0000001N9+01501+99999102421ADDGF100991999999999999999999
0046029700999991923071106004+60100+019950FM-12+001499999V0209991C000019999999N0000001N9+01781+99999102511ADDAJ100009199999999GF100991999999999999999999
0029029700999991923071113004+60100+019950FM-12+001499999V0202301N001019999999N0000001N9+02171+99999102581ADDGF100991999999999999999999
0029029700999991923071120004+60100+019950FM-12+001499999V0209991C000019999999N0000001N9+01721+99999102351ADDGF101991999999999999999999
0046029700999991923071206004+60100+019950FM-12+001499999V0209991C000019999999N0000001N9+02111+99999102061ADDAJ100009199999999GF100991999999999999999999
0029029700999991923071213004+60100+019950FM-12+001499999V0202501N001019999999N0000001N9+02611+99999101901ADDGF101991999999999999999999
0029029700999991923071220004+60100+019950FM-12+001499999V0202501N001019999999N0000001N9+02171+99999101641ADDGF100991999999999999999999
0046029700999991923071306004+60100+019950FM-12+001499999V0202501N003119999999N0000001N9+02001+99999101431ADDAJ100009199999999GF100991999999999999999999
0029029700999991923071313004+60100+019950FM-12+001499999V0202501N005119999999N0000001N9+02611+99999101311ADDGF100991999999999999999999
0029029700999991923071320004+60100+019950FM-12+001499999V0209991C000019999999N0000001N9+01831+99999101161ADDGF101991999999999999999999
0046029700999991923071406004+60100+019950FM-12+001499999V0203201N002119999999N0000001N9+01891+99999101031ADDAJ100009199999999GF101991999999999999999999
0029029700999991923071413004+60100+019950FM-12+001499999V0203201N004119999999N0000001N9+01781+99999101441ADDGF102991999999999999999999
0029029700999991923071420004+60100+019950FM-12+001499999V0209991C000019999999N0000001N9+01441+99999101461ADDGF100991999999999999999999
0046029700999991923071506004+60100+019950FM-12+001499999V0203601N003119999999N0000001N9+01501+99999101621ADDAJ100009199999999GF100991999999999999999999
0029029700999991923071513004+60100+019950FM-12+001499999V0203201N005119999999N0000001N9+01721+99999101601ADDGF100991999999999999999999
0029029700999991923071520004+60100+019950FM-12+001499999V0209991C000019999999N0000001N9+01221+99999101401ADDGF101991999999999999999999
0046029700999991923071606004+60100+019950FM-12+001499999V0200901N001019999999N0000001N9+01561+99999101321ADDAJ100009199999999GF100991999999999999999999
0029029700999991923071613004+60100+019950FM-12+001499999V0201601N002119999999N0000001N9+01941+99999101221ADDGF101991999999999999999999
0029029700999991923071620004+60100+019950FM-12+001499999V0201101N001019999999N0000001N9+01611+99999101001ADDGF101991999999999999999999
0046029700999991923071706004+60100+019950FM-12+001499999V0201101N003119999999N0000001N9+01831+99999100581ADDAJ100009199999999GF102991999999999999999999
0029029700999991923071713004+60100+019950FM-12+001499999V0201401N001019999999N0000001N9+01611+99999100601ADDGF108991999999999999999999
0029029700999991923071720004+60100+019950FM-12+001499999V0201601N001019999999N0000001N9+01611+99999100621ADDGF108991999999999999999999
0046029700999991923071806004+60100+019950FM-12+001499999V0202501N003119999999N0000001N9+01611+99999100601ADDAJ100009199999999GF105991999999999999999999
0029029700999991923071813004+60100+019950FM-12+001499999V0202501N001019999999N0000001N9+01941+99999100701ADDGF106991999999999999999999
0029029700999991923071820004+60100+019950FM-12+001499999V0202501N001019999999N0000001N9+01781+99999100701ADDGF100991999999999999999999
0046029700999991923071906004+60100+019950FM-12+001499999V0209991C000019999999N0000001N9+01721+99999100541ADDAJ100009199999999GF107991999999999999999999
0029029700999991923071913004+60100+019950FM-12+001499999V0202301N001019999999N0000001N9+01941+99999100541ADDGF100991999999999999999999
0029029700999991923071920004+60100+019950FM-12+001499999V0202501N001019999999N0000001N9+01561+99999100441ADDGF101991999999999999999999
0046029700999991923072006004+60100+019950FM-12+001499999V0202901N003119999999N0000001N9+01441+99999100201ADDAJ100009199999999GF108991999999999999999999
0029029700999991923072013004+60100+019950FM-12+001499999V0202301N002119999999N0000001N9+01721+99999100181ADDGF104991999999999999999999
0029029700999991923072020004+60100+019950FM-12+001499999V0202301N002119999999N0000001N9+01611+99999100081ADDGF107991999999999999999999
0046029700999991923072106004+60100+019950FM-12+001499999V0203401N004119999999N0000001N9+01611+99999100111ADDAJ100009199999999GF106991999999999999999999
0029029700999991923072113004+60100+019950FM-12+001499999V0203401N011819999999N0000001N9+01721+99999100381ADDGF100991999999999999999999
0029029700999991923072120004+60100+019950FM-12+001499999V0202501N002119999999N0000001N9+01441+99999100271ADDGF106991999999999999999999
0046029700999991923072206004+60100+019950FM-12+001499999V0202501N002119999999N0000001N9+01561+99999099951ADDAJ100009199999999GF100991999999999999999999
0029029700999991923072213004+60100+019950FM-12+001499999V0203401N004119999999N0000001N9+01721+99999100031ADDGF104991999999999999999999
0029029700999991923072220004+60100+019950FM-12+001499999V0202901N001019999999N0000001N9+01281+99999100241ADDGF102991999999999999999999
0046029700999991923072306004+60100+019950FM-12+001499999V0202301N003119999999N0000001N9+01331+99999099921ADDAJ100009199999999GF107991999999999999999999
0029029700999991923072313004+60100+019950FM-12+001499999V0202301N004119999999N0000001N9+01781+99999099721ADDGF102991999999999999999999
0029029700999991923072320004+60100+019950FM-12+001499999V0202001N002119999999N0000001N9+01501+99999099431ADDGF102991999999999999999999
0046029700999991923072406004+60100+019950FM-12+001499999V0202301N001019999999N0000001N9+01561+99999099041ADDAJ100009199999999GF108991999999999999999999
0029029700999991923072413004+60100+019950FM-12+001499999V0202701N004119999999N0000001N9+01561+99999099071ADDGF108991999999999999999999
0029029700999991923072420004+60100+019950FM-12+001499999V0202701N001019999999N0000001N9+01281+99999099321ADDGF102991999999999999999999
0046029700999991923072506004+60100+019950FM-12+001499999V0202701N003119999999N0000001N9+01391+99999099641ADDAJ100009199999999GF103991999999999999999999
0029029700999991923072513004+60100+019950FM-12+001499999V0202301N001019999999N0000001N9+01721+99999099831ADDGF103991999999999999999999
0029029700999991923072520004+60100+019950FM-12+001499999V0209991C000019999999N0000001N9+01391+99999099761ADDGF106991999999999999999999
0046029700999991923072606004+60100+019950FM-12+001499999V0209991C000019999999N0000001N9+01331+99999099401ADDAJ100009199999999GF107991999999999999999999
0029029700999991923072613004+60100+019950FM-12+001499999V0202001N001019999999N0000001N9+01671+99999099361ADDGF103991999999999999999999
0029029700999991923072620004+60100+019950FM-12+001499999V0209991C000019999999N0000001N9+01391+99999099241ADDGF105991999999999999999999
0046029700999991923072706004+60100+019950FM-12+001499999V0209991C000019999999N0000001N9+01501+99999099111ADDAJ100009199999999GF108991999999999999999999
0029029700999991923072713004+60100+019950FM-12+001499999V0209991C000019999999N0000001N9+01441+99999099401ADDGF108991999999999999999999
0029029700999991923072720004+60100+019950FM-12+001499999V0200201N001019999999N0000001N9+01221+99999099701ADDGF102991999999999999999999
0046029700999991923072806004+60100+019950FM-12+001499999V0209991C000019999999N0000001N9+01501+99999099951ADDAJ100009199999999GF100991999999999999999999
0029029700999991923072813004+60100+019950FM-12+001499999V0203401N006219999999N0000001N9+01831+99999100161ADDGF101991999999999999999999
0029029700999991923072820004+60100+019950FM-12+001499999V0209991C000019999999N0000001N9+01281+99999100231ADDGF100991999999999999999999
0046029700999991923072906004+60100+019950FM-12+001499999V0209991C000019999999N0000001N9+01561+99999100191ADDAJ100009199999999GF100991999999999999999999
0029029700999991923072913004+60100+019950FM-12+001499999V0202501N005119999999N0000001N9+01781+99999100231ADDGF100991999999999999999999
0029029700999991923072920004+60100+019950FM-12+001499999V0202301N001019999999N0000001N9+01441+99999100141ADDGF108991999999999999999999
0046029700999991923073006004+60100+019950FM-12+001499999V0201101N001019999999N0000001N9+01561+99999099761ADDAJ100009199999999GF108991999999999999999999
0029029700999991923073013004+60100+019950FM-12+001499999V0201401N005119999999N0000001N9+01781+99999099641ADDGF107991999999999999999999
0029029700999991923073020004+60100+019950FM-12+001499999V0209991C000019999999N0000001N9+01501+99999099581ADDGF108991999999999999999999
0046029700999991923073106004+60100+019950FM-12+001499999V0209991C000019999999N0000001N9+01501+99999099421ADDAJ100009199999999GF108991999999999999999999
0029029700999991923073113004+60100+019950FM-12+001499999V0209991C000019999999N0000001N9+01781+99999099461ADDGF106991999999999999999999
0029029700999991923073120004+60100+019950FM-12+001499999V0209991C000019999999N0000001N9+01391+99999099501ADDGF107991999999999999999999
0046029700999991923080106004+60100+019950FM-12+001499999V0209991C000019999999N0000001N9+01501+99999099541ADDAJ100009199999999GF107991999999999999999999
0029029700999991923080113004+60100+019950FM-12+001499999V0209991C000019999999N0000001N9+01941+99999099501ADDGF102991999999999999999999
0029029700999991923080120004+60100+019950FM-12+001499999V0209991C000019999999N0000001N9+01611+99999099401ADDGF108991999999999999999999
0046029700999991923080206004+60100+019950FM-12+001499999V0200501N003119999999N0000001N9+01561+99999099301ADDAJ100009199999999GF108991999999999999999999
0029029700999991923080213004+60100+019950FM-12+001499999V0203401N006219999999N0000001N9+01561+99999099821ADDGF108991999999999999999999
0029029700999991923080220004+60100+019950FM-12+001499999V0203401N006219999999N0000001N9+01331+99999100391ADDGF107991999999999999999999
0046029700999991923080306004+60100+019950FM-12+001499999V0203201N001019999999N0000001N9+01331+99999100961ADDAJ100009199999999GF107991999999999999999999
0029029700999991923080313004+60100+019950FM-12+001499999V0203401N004119999999N0000001N9+01671+99999101151ADDGF102991999999999999999999
0029029700999991923080320004+60100+019950FM-12+001499999V0202301N001019999999N0000001N9+01391+99999101081ADDGF102991999999999999999999
0046029700999991923080406004+60100+019950FM-12+001499999V0201401N003119999999N0000001N9+01441+99999100681ADDAJ100009199999999GF108991999999999999999999
0035029700999991923080413004+60100+019950FM-12+001499999V0201401N001019999999N0000001N9+01441+99999100581ADDGF108991999999999999999999MW1621
0035029700999991923080420004+60100+019950FM-12+001499999V0200901N002119999999N0000001N9+01331+99999100671ADDGF108991999999999999999999MW1621
0046029700999991923080506004+60100+019950FM-12+001499999V0209991C000019999999N0000001N9+01441+99999101071ADDAJ100009199999999GF100991999999999999999999
0029029700999991923080513004+60100+019950FM-12+001499999V0200501N002119999999N0000001N9+01831+99999101281ADDGF100991999999999999999999
0029029700999991923080520004+60100+019950FM-12+001499999V0203201N001019999999N0000001N9+01171+99999101381ADDGF100991999999999999999999
0046029700999991923080606004+60100+019950FM-12+001499999V0209991C000019999999N0000001N9+01391+99999101321ADDAJ100009199999999GF102991999999999999999999
0029029700999991923080613004+60100+019950FM-12+001499999V0203401N005119999999N0000001N9+02001+99999101341ADDGF101991999999999999999999
0029029700999991923080620004+60100+019950FM-12+001499999V0209991C000019999999N0000001N9+01281+99999101221ADDGF102991999999999999999999
0046029700999991923080706004+60100+019950FM-12+001499999V0209991C000019999999N0000001N9+01441+99999101041ADDAJ100009199999999GF106991999999999999999999
0029029700999991923080713004+60100+019950FM-12+001499999V0202901N001019999999N0000001N9+01941+99999101041ADDGF104991999999999999999999
0029029700999991923080720004+60100+019950FM-12+001499999V0209991C000019999999N0000001N9+01501+99999101021ADDGF107991999999999999999999
0046029700999991923080806004+60100+019950FM-12+001499999V0209991C000019999999N0000001N9+01441+99999101001ADDAJ100009199999999GF108991999999999999999999
0029029700999991923080813004+60100+019950FM-12+001499999V0209991C000019999999N0000001N9+01891+99999101071ADDGF103991999999999999999999
0029029700999991923080820004+60100+019950FM-12+001499999V0209991C000019999999N0000001N9+01111+99999101201ADDGF100991999999999999999999
0046029700999991923080906004+60100+019950FM-12+001499999V0209991C000019999999N0000001N9+01331+99999101401ADDAJ100009199999999GF100991999999999999999999
0029029700999991923080913004+60100+019950FM-12+001499999V0202301N005119999999N0000001N9+01831+99999101441ADDGF102991999999999999999999
0035029700999991923080920004+60100+019950FM-12+001499999V0202301N004119999999N0000001N9+01561+99999101061ADDGF108991999999999999999999MW1621
0046029700999991923081006004+60100+019950FM-12+001499999V0202301N003119999999N0000001N9+01441+99999100311ADDAJ100009199999999GF108991999999999999999999
0029029700999991923081013004+60100+019950FM-12+001499999V0203201N001019999999N0000001N9+01781+99999100141ADDGF106991999999999999999999
0029029700999991923081020004+60100+019950FM-12+001499999V0209991C000019999999N0000001N9+01391+99999100071ADDGF108991999999999999999999
0046029700999991923081106004+60100+019950FM-12+001499999V0202701N001019999999N0000001N9+01441+99999099961ADDAJ100009199999999GF107991999999999999999999
0029029700999991923081113004+60100+019950FM-12+001499999V0203201N003119999999N0000001N9+01721+99999100191ADDGF103991999999999999999999
0029029700999991923081120004+60100+019950FM-12+001499999V0209991C000019999999N0000001N9+01281+99999100381ADDGF106991999999999999999999
0046029700999991923081206004+60100+019950FM-12+001499999V0203601N006219999999N0000001N9+01281+99999100951ADDAJ100009199999999GF108991999999999999999999
0029029700999991923081213004+60100+019950FM-12+001499999V0203601N006219999999N0000001N9+01441+99999101361ADDGF103991999999999999999999
0029029700999991923081220004+60100+019950FM-12+001499999V0203201N001019999999N0000001N9+01171+99999101581ADDGF100991999999999999999999
0046029700999991923081306004+60100+019950FM-12+001499999V0203201N004119999999N0000001N9+01221+99999101661ADDAJ100009199999999GF105991999999999999999999
0029029700999991923081313004+60100+019950FM-12+001499999V0202701N003119999999N0000001N9+01781+99999101661ADDGF102991999999999999999999
0029029700999991923081320004+60100+019950FM-12+001499999V0209991C000019999999N0000001N9+00941+99999101471ADDGF100991999999999999999999
0046029700999991923081406004+60100+019950FM-12+001499999V0209991C000019999999N0000001N9+01331+99999101031ADDAJ100009199999999GF108991999999999999999999
0029029700999991923081413004+60100+019950FM-12+001499999V0209991C000019999999N0000001N9+01671+99999101061ADDGF106991999999999999999999
0029029700999991923081420004+60100+019950FM-12+001499999V0209991C000019999999N0000001N9+01391+99999100921ADDGF108991999999999999999999
0046029700999991923081506004+60100+019950FM-12+001499999V0202501N001019999999N0000001N9+01441+99999100631ADDAJ100009199999999GF106991999999999999999999
0029029700999991923081513004+60100+019950FM-12+001499999V0202301N004119999999N0000001N9+01671+99999100521ADDGF106991999999999999999999
0029029700999991923081520004+60100+019950FM-12+001499999V0209991C000019999999N0000001N9+01281+99999100151ADDGF107991999999999999999999
0052029700999991923081606004+60100+019950FM-12+001499999V0200201N005119999999N0000001N9+01171+99999099261ADDAJ100009199999999GF108991999999999999999999MW1621
0035029700999991923081613004+60100+019950FM-12+001499999V0209991C000019999999N0000001N9+01221+99999098791ADDGF108991999999999999999999MW1621
0035029700999991923081620004+60100+019950FM-12+001499999V0203601N002119999999N0000001N9+01221+99999098761ADDGF108991999999999999999999MW1621
0046029700999991923081706004+60100+019950FM-12+001499999V0203601N007219999999N0000001N9+01221+99999099271ADDAJ100009199999999GF106991999999999999999999
0029029700999991923081713004+60100+019950FM-12+001499999V0203201N007219999999N0000001N9+01391+99999099701ADDGF105991999999999999999999
0029029700999991923081720004+60100+019950FM-12+001499999V0209991C000019999999N0000001N9+01001+99999099921ADDGF108991999999999999999999
0046029700999991923081806004+60100+019950FM-12+001499999V0209991C000019999999N0000001N9+00941+99999099881ADDAJ100009199999999GF108991999999999999999999
0029029700999991923081813004+60100+019950FM-12+001499999V0209991C000019999999N0000001N9+01331+99999099961ADDGF107991999999999999999999
0029029700999991923081820004+60100+019950FM-12+001499999V0209991C000019999999N0000001N9+00831+99999099991ADDGF103991999999999999999999
0046029700999991923081906004+60100+019950FM-12+001499999V0200901N003119999999N0000001N9+01171+99999100161ADDAJ100009199999999GF103991999999999999999999
0029029700999991923081913004+60100+019950FM-12+001499999V0200701N001019999999N0000001N9+01441+99999100351ADDGF102991999999999999999999
0029029700999991923081920004+60100+019950FM-12+001499999V0209991C000019999999N0000001N9+01001+99999100441ADDGF102991999999999999999999
0046029700999991923082006004+60100+019950FM-12+001499999V0209991C000019999999N0000001N9+01171+99999100421ADDAJ100009199999999GF106991999999999999999999
0029029700999991923082013004+60100+019950FM-12+001499999V0200501N001019999999N0000001N9+01331+99999100471ADDGF108991999999999999999999
0029029700999991923082020004+60100+019950FM-12+001499999V0209991C000019999999N0000001N9+01001+99999100551ADDGF107991999999999999999999
0046029700999991923082106004+60100+019950FM-12+001499999V0200501N001019999999N0000001N9+01061+99999100741ADDAJ100009199999999GF102991999999999999999999
0029029700999991923082113004+60100+019950FM-12+001499999V0203601N001019999999N0000001N9+01561+99999100911ADDGF106991999999999999999999
0029029700999991923082120004+60100+019950FM-12+001499999V0209991C000019999999N0000001N9+00781+99999100941ADDGF103991999999999999999999
0046029700999991923082206004+60100+019950FM-12+001499999V0201801N005119999999N0000001N9+01281+99999100801ADDAJ100009199999999GF106991999999999999999999
0029029700999991923082213004+60100+019950FM-12+001499999V0201401N006219999999N0000001N9+01441+99999100501ADDGF108991999999999999999999
0035029700999991923082220004+60100+019950FM-12+001499999V0202001N006219999999N0000001N9+01391+99999099901ADDGF108991999999999999999999MW1621
0046029700999991923082306004+60100+019950FM-12+001499999V0202301N004119999999N0000001N9+01281+99999100151ADDAJ100009199999999GF101991999999999999999999
0029029700999991923082313004+60100+019950FM-12+001499999V0202301N004119999999N0000001N9+01561+99999100341ADDGF101991999999999999999999
0029029700999991923082320004+60100+019950FM-12+001499999V0202301N005119999999N0000001N9+01331+99999100391ADDGF101991999999999999999999
0046029700999991923082406004+60100+019950FM-12+001499999V0202501N006219999999N0000001N9+01221+99999100561ADDAJ100009199999999GF101991999999999999999999
0029029700999991923082413004+60100+019950FM-12+001499999V0202301N001019999999N0000001N9+01671+99999100681ADDGF102991999999999999999999
0029029700999991923082420004+60100+019950FM-12+001499999V0202001N003119999999N0000001N9+01391+99999100871ADDGF107991999999999999999999
0046029700999991923082506004+60100+019950FM-12+001499999V0201401N004119999999N0000001N9+01501+99999100641ADDAJ100009199999999GF108991999999999999999999
0029029700999991923082513004+60100+019950FM-12+001499999V0201801N003119999999N0000001N9+01561+99999100441ADDGF108991999999999999999999
0035029700999991923082520004+60100+019950FM-12+001499999V0202301N001019999999N0000001N9+01391+99999100261ADDGF108991999999999999999999MW1621
0046029700999991923082606004+60100+019950FM-12+001499999V0202501N005119999999N0000001N9+01281+99999100201ADDAJ100009199999999GF102991999999999999999999
0029029700999991923082613004+60100+019950FM-12+001499999V0202501N004119999999N0000001N9+01391+99999100481ADDGF108991999999999999999999
0029029700999991923082620004+60100+019950FM-12+001499999V0202301N004119999999N0000001N9+01331+99999100601ADDGF108991999999999999999999
0046029700999991923082706004+60100+019950FM-12+001499999V0202001N003119999999N0000001N9+01391+99999100621ADDAJ100009199999999GF108991999999999999999999
0035029700999991923082713004+60100+019950FM-12+001499999V0202001N003119999999N0000001N9+01391+99999100541ADDGF108991999999999999999999MW1621
0029029700999991923082720004+60100+019950FM-12+001499999V0201801N003119999999N0000001N9+01331+99999100431ADDGF108991999999999999999999
0046029700999991923082806004+60100+019950FM-12+001499999V0201801N001019999999N0000001N9+01441+99999999999ADDAJ100009199999999GF108991999999999999999999
