0057014030999991928010212004+59300+004883FM-12+005799999V0201801N01901007801CN0020001N9+99999+99999999999ADDAY171999GF108991081061008001999999MD1810201+9999MW1681
0057014030999991928010312004+59300+004883FM-12+005799999V0209999900261012301CN0500001N9+00221+99999101231ADDAY161999GF107991071061012501001001MD1310141+9999MW1211
0087014030999991928010406004+59300+004883FM-12+005799999V0202001N012319999999N9999999N9+00281+99999099971ADDAA199002091AY161999GF108991999999999999001001MD1810742+9999MW1631EQDQ01+000742APC3  
0070014030999991928010412004+59300+004883FM-12+005799999V0202501N00671007801CN0100001N9+00391+99999099271ADDAY161999GF108991081061008001999999MD1810542+9999EQDQ01+000542APC3  
0083014030999991928010506004+59300+004883FM-12+005799999V0202901N00671220001CN0200001N9+00281+99999098781ADDAA199002091AY161999GF104991041091017501001001EQDQ01+000042APCTENQ02+000142APC3  
0078014030999991928010512004+59300+004883FM-12+005799999V0202901N00931220001CN0100001N9+00281+99999099031ADDAY181999GF104991041091012501001001MW1161EQDQ01+000042APCTENQ02+000142APC3  
0062014030999991928010606004+59300+004883FM-12+005799999V0201801N00101015001CN0500001N9+00221+99999099181ADDAA199001091AY181999GF107991071051017501001001MD1810461+9999
0062014030999991928010706004+59300+004883FM-12+005799999V0201801N001019999999N0500001N9+00001+99999100601ADDAA199001091AY101999GF107991999999999999999999MD1310061+9999
0068014030999991928010806004+59300+004883FM-12+005799999V0202701N00671007801CN9999999N9+00281+99999098271ADDAA199007091AY161999GF108991081061008001999999MD1510341+9999MW1631
0062014030999991928010906004+59300+004883FM-12+005799999V0202701N00931220001CN0200001N9+00391+99999099391ADDAA199003091AY161999GF104991041011017501001001MD1310401+9999
0070014030999991928010912004+59300+004883FM-12+005799999V0202301N00461220001CN0200001N9+00391+99999099581ADDAY101999GF102991021011999999001021MD1990061+9999EQDQ01+000992SCOLCB
0062014030999991928011006004+59300+004883FM-12+005799999V0202301N00671007801CN0100001N9+00391+99999099411ADDAA199002091AY101999GF106991061091008001001001MD1810061+9999
0070014030999991928011012004+59300+004883FM-12+005799999V0201801N00931007801CN0100001N9+00391+99999098921ADDAY181999GF108991081061008001999999MD1810542+9999EQDQ01+000542APC3  
0068014030999991928011106004+59300+004883FM-12+005799999V0202501N01231007801CN0100001N9+00391+99999098731ADDAA199001091AY181999GF108991081061008001999999MD1310261+9999MW1621
0078014030999991928011112004+59300+004883FM-12+005799999V0202501N01541220001CN0500001N9+00391+99999099001ADDAY181999GF104991021011012501001021MW1211EQDQ01+000042APCTENQ02+000062APC3  
0081014030999991928011206004+59300+004883FM-12+005799999V0202501N00931220001CN0200001N9+00391+99999100071ADDAA199001091AY181999GF104991041091999999001001MD1310141+9999EQDQ01+000992SCOLCB
0057014030999991928011212004+59300+004883FM-12+005799999V0201801N00671007801CN0100001N9+00391+99999099721ADDAY101999GF108991081061008001999999MD1810461+9999MW1611
0051014030999991928011312004+59300+004883FM-12+005799999V0202001N00461007801CN0200001N9+00501+99999097811ADDAY121999GF108991081061008001999999MD1810061+9999
0062014030999991928011406004+59300+004883FM-12+005799999V0203601N01231220001CN0200001N9+00281+99999099171ADDAA199000591AY111999GF101991011011012501001001MD1310461+9999
0062014030999991928011506004+59300+004883FM-12+005799999V0201401N01231007801CN0040001N9+00221+99999098831ADDAA199002091AY171999GF108991081061008001999999MD1610201+9999
0037014030999991928011512004+59300+004883FM-12+005799999V0202501N006719999999N0500001N9+00281+99999098951ADDAY181999GF106991999999012501999999
0062014030999991928011606004+59300+004883FM-12+005799999V0201101N00461220001CN0500001N9+00221+99999099721ADDAA199005091AY111999GF102991999999999999999999MD1310201+9999
0057014030999991928011612004+59300+004883FM-12+005799999V0201101N00101007801CN0500001N9+00221+99999100131ADDAY111999GF108991081061008001999999MD1310261+9999MW1611
0051014030999991928011712004+59300+004883FM-12+005799999V0200901N004619999999N0500001N9+00001+99999101671ADDAY121999GF199999041051017501021001MD1310141+9999
0051014030999991928011812004+59300+004883FM-12+005799999V0201101N00671220001CN0500001N9-00221+99999102841ADDAY111999GF199999001001999999001021MD1010001+9999
0072014030999991928011912004+59300+004883FM-12+005799999V0209999900931220001CN0500001N9-00111+99999999999ADDAY111999GF104991041011999999001021EQDQ01+000992SCOLCBQ02+000002APC3  
0051014030999991928012006004+59300+004883FM-12+005799999V0201601N012319999999N0500001N9+00001+99999102171ADDAY121999GF108991999999999999999999MD1990201+9999
0051014030999991928012012004+59300+004883FM-12+005799999V0201601N01541007801CN0040001N9+01501+99999101861ADDAY181999GF108991081061008001999999MD1810141+9999
0062014030999991928012106004+59300+004883FM-12+005799999V0201401N01231015001CN0200001N9+00281+99999101621ADDAA199002091AY161999GF108991081051017501999999MD1710141+9999
0051014030999991928012112004+59300+004883FM-12+005799999V0201601N01901015001CN0200001N9+00281+99999101141ADDAY121999GF199999081051017501999999MD1810401+9999
0051014030999991928012312004+59300+004883FM-12+005799999V0201601N01541007801CN0100001N9+00001+99999101471ADDAY171999GF108991081061008001999999MD1810141+9999
0051014030999991928012412004+59300+004883FM-12+005799999V0201401N01231007801CN0200001N9+00281+99999099261ADDAY141999GF108991081061008001999999MD1810341+9999
0068014030999991928012506004+59300+004883FM-12+005799999V0202701N01231220001CN0200001N9+00281+99999099581ADDAA199007091AY181999GF104991041091012501001001MD1310461+9999MW1801
0057014030999991928012512004+59300+004883FM-12+005799999V0202901N01231007801CN0100001N9+00221+99999100261ADDAY181999GF108991081061008001999999MD1310401+9999MW1801
0089014030999991928012706004+59300+004883FM-12+005799999V0201401N009319999999N0100001N9+00281+99999100101ADDAA199002091AY161999GF108991999999999999001001MW1611EQDQ01+000032APCTENQ02+000002APC3  
0057014030999991928012712004+59300+004883FM-12+005799999V0200901N00671007801CN0200001N9+00781+99999100171ADDAY161999GF108991081061008001999999MD1990061+9999MW1211
0083014030999991928012806004+59300+004883FM-12+005799999V0201601N001019999999N0100001N9+00221+99999100921ADDAA199000691AY111999GF107991999999999999999999EQDQ01+000032APCTENQ02+000002APC3  
0051014030999991928012812004+59300+004883FM-12+005799999V0201801N00461220001CN0200001N9+00281+99999100671ADDAY181999GF104991021011012501001021MD1990261+9999
0062014030999991928012906004+59300+004883FM-12+005799999V0202301N00101220001CN0100001N9+00281+99999100081ADDAA199009091AY181999GF104991999999999999999999MD1310261+9999
0057014030999991928012912004+59300+004883FM-12+005799999V0201601N00461000151CN0010001N9+00391+99999100391ADDAY141999GF108991081051000251999999MD1110141+9999MW1101
0062014030999991928013006004+59300+004883FM-12+005799999V0201101N012319999999N0200001N9+00221+99999100031ADDAA199002091AY161999GF108991999999999999999999MD1810201+9999
0070014030999991928013012004+59300+004883FM-12+005799999V0201601N012319999999N0500001N9+00281+99999099931ADDAY111999GF108991999011012501001001MD1990061+9999EQDQ01+000022SCOTLC
0048014030999991928013106004+59300+004883FM-12+005799999V0201801N002619999999N0100001N9+00281+99999100301ADDAA199002091AY111999GF106991999999012501999999
0070014030999991928013112004+59300+004883FM-12+005799999V0201801N006719999999N0200001N9+00281+99999100241ADDAY111999GF106991999011012501001001MD1990141+9999EQDQ01+000022SCOTLC
0051014030999991928020112004+59300+004883FM-12+005799999V0202001N00931015001CN0200001N9+00501+99999097931ADDAY121999GF107991071051017501001001MD1710261+9999
0057014030999991928020212004+59300+004883FM-12+005799999V0202301N00931220001CN0200001N9+00221+99999099201ADDAY181999GF104991999999999999001001MD1310141+9999MW1891
0081014030999991928020406004+59300+004883FM-12+005799999V0202001N00261220001CN0500001N9+00221+99999101511ADDAA199000591AY181999GF102991021011999999001001MD1310261+9999EQDQ01+000992SCOLCB
0051014030999991928020412004+59300+004883FM-12+005799999V0201801N00931012301CN0100001N9+00281+99999101431ADDAY101999GF106991061011012501001001MD1810201+9999
0037014030999991928020612004+59300+004883FM-12+005799999V0202701N012319999999N0200001N9+00391+99999100661ADDAY181999GF106991999999012501999999
0043014030999991928020712004+59300+004883FM-12+005799999V0202701N01541220001CN0200001N9+00501+99999100061ADDAY181999GF102991011011012501001081MW1211
0043014030999991928020812004+59300+004883FM-12+005799999V0202501N01231007801CN0100001N9+00611+99999100301ADDAY121999GF108991081061008001999999MW1611
0037014030999991928020912004+59300+004883FM-12+005799999V0202701N019019999999N0040001N9+00391+99999098801ADDAY181999GF106991999999012501999999
0037014030999991928021012004+59300+004883FM-12+005799999V0201801N00261030001CN0200001N9+00281+99999099551ADDAY111999GF107991021051017501021001
0073014030999991928021106004+59300+004883FM-12+005799999V0200501N00671007801CN0500001N9+00281+99999097401ADDAA199001091AY111999GF108991999061008001001001MW1601EQDQ01+000072SCOTLC
0037014030999991928021112004+59300+004883FM-12+005799999V0200201N00931015001CN0500001N9+00281+99999097661ADDAY121999GF108991081051017501999999
0037014030999991928021212004+59300+004883FM-12+005799999V0201401N00101021001CN0500001N9+00111+99999099181ADDAY101999GF107991071051022501001001
0037014030999991928021312004+59300+004883FM-12+005799999V0201601N00671015001CN0500001N9+00111+99999099711ADDAY101999GF106991061051017501001001
0043014030999991928021412004+59300+004883FM-12+005799999V0201401N00671007801CN0010001N9+00001+99999099271ADDAY171999GF108991081061008001999999MW1711
0043014030999991928021512004+59300+004883FM-12+005799999V0201601N01901007801CN0010001N9+00001+99999099671ADDAY171999GF108991081061008001999999MW1681
0037014030999991928021612004+59300+004883FM-12+005799999V0202501N00671075001CN0100001N9+00391+99999099411ADDAY181999GF106991041011012501001021
0089014030999991928021706004+59300+004883FM-12+005799999V0202701N00461007801CN0100001N9+00281+99999098771ADDAA199002091AY181999GF107991071061008001001001MW1801EQDQ01+000032APCTENQ02+000002APC3  
0057014030999991928021712004+59300+004883FM-12+005799999V0202301N00461012301CN0200001N9+00391+99999099061ADDAY111999GF107991071061012501001001MD1310061+9999MW1211
0062014030999991928021806004+59300+004883FM-12+005799999V0202701N00101220001CN0500001N9+00111+99999101181ADDAA199000591AY181999GF102991021011012501001001MD1310401+9999
0057014030999991928021812004+59300+004883FM-12+005799999V0202501N00671007801CN0100001N9+00281+99999101131ADDAY181999GF108991081061008001999999MD1990201+9999MW1611
0062014030999991928021906004+59300+004883FM-12+005799999V0202901N00671220001CN0200001N9+00501+99999101271ADDAA199000691AY181999GF104991041011022501001001MD1310141+9999
0072014030999991928021912004+59300+004883FM-12+005799999V0203401N00671075001CN0500001N9+00501+99999101721ADDAY111999GF106991041051017501001021EQDQ01+000042APCTENQ02+000142APC3  
0068014030999991928022006004+59300+004883FM-12+005799999V0201801N00671007801CN0100001N9+00111+99999103281ADDAA199000591AY141999GF108991081061008001999999MD1310401+9999MW1611
0051014030999991928022012004+59300+004883FM-12+005799999V0201801N00931015001CN0500001N9+00001+99999103441ADDAY171999GF106991061051017501001001MD1310061+9999
0051014030999991928022106004+59300+004883FM-12+005799999V0201601N00931015001CN0500001N9+00111+99999103361ADDAY111999GF108991081051017501999999MD1810201+9999
0072014030999991928022206004+59300+004883FM-12+005799999V0201601N00671015001CN0200001N9+00281+99999102921ADDAY121999GF108991081051017501999999EQDQ01+000042APCTENQ02+000142APC3  
0051014030999991928022312004+59300+004883FM-12+005799999V0201401N00101220001CN0200001N9+00391+99999103591ADDAY101999GF100991001001999999001001MD1610061+9999
0051014030999991928022412004+59300+004883FM-12+005799999V0201801N00931220001CN0500001N9+00221+99999103461ADDAY101999GF101991011011012501001001MD1990061+9999
0072014030999991928022512004+59300+004883FM-12+005799999V0201601N01231015001CN0200001N9+00221+99999103091ADDAY121999GF108991081051017501999999EQDQ01+000032APCTENQ02+000002APC3  
0051014030999991928022606004+59300+004883FM-12+005799999V0201601N00261004501CN0040001N9+00221+99999103191ADDAY121999GF108991081061004501999999MD1610061+9999
0070014030999991928022612004+59300+004883FM-12+005799999V0201601N00261220001CN0100001N9+00391+99999103191ADDAY111999GF108991999001999999021001MD1990061+9999EQDQ01+000002SCOTLC
0037014030999991928022712004+59300+004883FM-12+005799999V0201801N00671220001CN0040001N9+00281+99999103321ADDAY141999GF104991001001999999999021
0051014030999991928022812004+59300+004883FM-12+005799999V0201601N00461007801CN0100001N9+00221+99999103221ADDAY141999GF107991071051008001001001MD1990061+9999
0051014030999991928022906004+59300+004883FM-12+005799999V0200901N00261220001CN0500001N9+00001+99999102921ADDAY101999GF100991001001999999001001MD1810141+9999
0072014030999991928022912004+59300+004883FM-12+005799999V0201801N00101220001CN0500001N9+00281+99999102881ADDAY101999GF100991001001999999001001EQDQ01+000062APCTENQ02+000002APC3  
