0029029700999991924010106004+60100+019950FM-12+001499999V0209991C000019999999N0000001N9-01061+99999101991ADDGF100991999999999999999999
0029029700999991924010113004+60100+019950FM-12+001499999V0200501N001019999999N0000001N9-00941+99999102101ADDGF102991999999999999999999
0029029700999991924010120004+60100+019950FM-12+001499999V0203601N006219999999N0000001N9-00561+99999101701ADDGF102991999999999999999999
0029029700999991924010206004+60100+019950FM-12+001499999V0203601N006219999999N0000001N9-00781+99999101301ADDGF108991999999999999999999
0035029700999991924010213004+60100+019950FM-12+001499999V0201101N005119999999N0000001N9-00721+99999101521ADDGF108991999999999999999999MW1701
0035029700999991924010220004+60100+019950FM-12+001499999V0201101N002119999999N0000001N9-00561+99999101911ADDGF108991999999999999999999MW1701
0029029700999991924010306004+60100+019950FM-12+001499999V0200901N002119999999N0000001N9-00781+99999101681ADDGF106991999999999999999999
0035029700999991924010313004+60100+019950FM-12+001499999V0200701N003119999999N0000001N9-00721+99999101221ADDGF108991999999999999999999MW1701
0035029700999991924010320004+60100+019950FM-12+001499999V0209991C000019999999N0000001N9-00611+99999101161ADDGF108991999999999999999999MW1701
0035029700999991924010406004+60100+019950FM-12+001499999V0200901N002119999999N0000001N9-00671+99999101591ADDGF108991999999999999999999MW1701
0029029700999991924010413004+60100+019950FM-12+001499999V0200501N002119999999N0000001N9-00781+99999101921ADDGF107991999999999999999999
0029029700999991924010420004+60100+019950FM-12+001499999V0209991C000019999999N0000001N9-01111+99999102121ADDGF100991999999999999999999
0029029700999991924010506004+60100+019950FM-12+001499999V0200501N003119999999N0000001N9-00611+99999101951ADDGF108991999999999999999999
0029029700999991924010513004+60100+019950FM-12+001499999V0200501N001019999999N0000001N9-00721+99999102121ADDGF108991999999999999999999
0029029700999991924010520004+60100+019950FM-12+001499999V0201401N003119999999N0000001N9-00671+99999102421ADDGF108991999999999999999999
0029029700999991924010606004+60100+019950FM-12+001499999V0209991C000019999999N0000001N9-00721+99999102481ADDGF108991999999999999999999
0029029700999991924010613004+60100+019950FM-12+001499999V0201101N001019999999N0000001N9-00891+99999102471ADDGF102991999999999999999999
0029029700999991924010620004+60100+019950FM-12+001499999V0200501N003119999999N0000001N9-00941+99999102541ADDGF108991999999999999999999
0029029700999991924010706004+60100+019950FM-12+001499999V0200201N001019999999N0000001N9-00941+99999102391ADDGF108991999999999999999999
0029029700999991924010713004+60100+019950FM-12+001499999V0200501N003119999999N0000001N9-00831+99999102321ADDGF108991999999999999999999
0029029700999991924010720004+60100+019950FM-12+001499999V0200901N004119999999N0000001N9-00781+99999102111ADDGF108991999999999999999999
0029029700999991924010806004+60100+019950FM-12+001499999V0201401N004119999999N0000001N9-00501+99999102361ADDGF107991999999999999999999
0035029700999991924010813004+60100+019950FM-12+001499999V0200901N005119999999N0000001N9-00671+99999102801ADDGF108991999999999999999999MW1701
0029029700999991924010820004+60100+019950FM-12+001499999V0200901N007219999999N0000001N9-00781+99999102711ADDGF108991999999999999999999
0029029700999991924010906004+60100+019950FM-12+001499999V0201401N008219999999N0000001N9-00501+99999101681ADDGF108991999999999999999999
0035029700999991924010913004+60100+019950FM-12+001499999V0201401N008219999999N0000001N9-00391+99999101521ADDGF108991999999999999999999MW1861
0029029700999991924010920004+60100+019950FM-12+001499999V0201401N006219999999N0000001N9-00171+99999101791ADDGF108991999999999999999999
0029029700999991924011006004+60100+019950FM-12+001499999V0201401N005119999999N0000001N9-00111+99999101821ADDGF108991999999999999999999
0029029700999991924011013004+60100+019950FM-12+001499999V0201401N004119999999N0000001N9-00171+99999101921ADDGF108991999999999999999999
0029029700999991924011020004+60100+019950FM-12+001499999V0201401N007219999999N0000001N9-00111+99999101911ADDGF108991999999999999999999
0029029700999991924011106004+60100+019950FM-12+001499999V0201801N005119999999N0000001N9-00061+99999101881ADDGF108991999999999999999999
0029029700999991924011113004+60100+019950FM-12+001499999V0201801N003119999999N0000001N9+00061+99999101941ADDGF108991999999999999999999
0029029700999991924011120004+60100+019950FM-12+001499999V0201801N004119999999N0000001N9+00111+99999101981ADDGF108991999999999999999999
0029029700999991924011206004+60100+019950FM-12+001499999V0202001N002119999999N0000001N9+00111+99999102031ADDGF108991999999999999999999
0029029700999991924011213004+60100+019950FM-12+001499999V0202301N003119999999N0000001N9+00001+99999102141ADDGF108991999999999999999999
0029029700999991924011220004+60100+019950FM-12+001499999V0202001N003119999999N0000001N9+00171+99999101861ADDGF108991999999999999999999
0029029700999991924011306004+60100+019950FM-12+001499999V0202301N003119999999N0000001N9+00111+99999101681ADDGF108991999999999999999999
0029029700999991924011313004+60100+019950FM-12+001499999V0202301N005119999999N0000001N9+00221+99999101541ADDGF108991999999999999999999
0029029700999991924011320004+60100+019950FM-12+001499999V0202301N005119999999N0000001N9+00221+99999101401ADDGF104991999999999999999999
0029029700999991924011406004+60100+019950FM-12+001499999V0202301N006219999999N0000001N9+00171+99999101191ADDGF108991999999999999999999
0029029700999991924011420004+60100+019950FM-12+001499999V0202301N007219999999N0000001N9+00171+99999101271ADDGF104991999999999999999999
0029029700999991924011506004+60100+019950FM-12+001499999V0202301N006219999999N0000001N9+00061+99999101441ADDGF106991999999999999999999
0029029700999991924011513004+60100+019950FM-12+001499999V0202301N003119999999N0000001N9+00111+99999101781ADDGF108991999999999999999999
0029029700999991924011520004+60100+019950FM-12+001499999V0202301N002119999999N0000001N9+00061+99999102001ADDGF108991999999999999999999
0029029700999991924011606004+60100+019950FM-12+001499999V0202301N002119999999N0000001N9-00061+99999102161ADDGF108991999999999999999999
0029029700999991924011613004+60100+019950FM-12+001499999V0202301N004119999999N0000001N9+00001+99999102361ADDGF106991999999999999999999
0029029700999991924011620004+60100+019950FM-12+001499999V0202301N005119999999N0000001N9-00171+99999102511ADDGF108991999999999999999999
0029029700999991924011706004+60100+019950FM-12+001499999V0201801N001019999999N0000001N9-00171+99999102621ADDGF108991999999999999999999
0029029700999991924011713004+60100+019950FM-12+001499999V0209991C000019999999N0000001N9-00061+99999102701ADDGF108991999999999999999999
0029029700999991924011720004+60100+019950FM-12+001499999V0202301N003119999999N0000001N9-00171+99999102661ADDGF108991999999999999999999
0029029700999991924011806004+60100+019950FM-12+001499999V0201601N001019999999N0000001N9-00331+99999102391ADDGF108991999999999999999999
0029029700999991924011813004+60100+019950FM-12+001499999V0202301N001019999999N0000001N9-00281+99999102221ADDGF108991999999999999999999
0029029700999991924011820004+60100+019950FM-12+001499999V0201601N001019999999N0000001N9-00171+99999101951ADDGF108991999999999999999999
0035029700999991924011906004+60100+019950FM-12+001499999V0201401N001019999999N0000001N9-00061+99999101401ADDGF108991999999999999999999MW1701
0035029700999991924011913004+60100+019950FM-12+001499999V0201401N003119999999N0000001N9-00061+99999100831ADDGF108991999999999999999999MW1701
0035029700999991924011920004+60100+019950FM-12+001499999V0201101N003119999999N0000001N9+00001+99999100141ADDGF108991999999999999999999MW1701
0035029700999991924012006004+60100+019950FM-12+001499999V0201101N004119999999N0000001N9+00001+99999099111ADDGF108991999999999999999999MW1721
0029029700999991924012013004+60100+019950FM-12+001499999V0200901N002119999999N0000001N9+00061+99999098821ADDGF108991999999999999999999
0029029700999991924012020004+60100+019950FM-12+001499999V0200901N005119999999N0000001N9-00171+99999099111ADDGF108991999999999999999999
0029029700999991924012106004+60100+019950FM-12+001499999V0200501N005119999999N0000001N9-01061+99999100421ADDGF108991999999999999999999
0035029700999991924012113004+60100+019950FM-12+001499999V0200501N001019999999N0000001N9-01001+99999101261ADDGF108991999999999999999999MW1721
0029029700999991924012120004+60100+019950FM-12+001499999V0200501N002119999999N0000001N9-01331+99999102231ADDGF100991999999999999999999
0029029700999991924012206004+60100+019950FM-12+001499999V0209991C000019999999N0000001N9-01721+99999102951ADDGF100991999999999999999999
0029029700999991924012213004+60100+019950FM-12+001499999V0209991C000019999999N0000001N9-01561+99999103361ADDGF100991999999999999999999
0029029700999991924012220004+60100+019950FM-12+001499999V0209991C000019999999N0000001N9-01941+99999103641ADDGF100991999999999999999999
0029029700999991924012306004+60100+019950FM-12+001499999V0209991C000019999999N0000001N9-02331+99999103591ADDGF100991999999999999999999
0029029700999991924012313004+60100+019950FM-12+001499999V0202901N001019999999N0000001N9-00831+99999103301ADDGF100991999999999999999999
0029029700999991924012320004+60100+019950FM-12+001499999V0202701N007219999999N0000001N9-00831+99999102461ADDGF100991999999999999999999
0029029700999991924012406004+60100+019950FM-12+001499999V0202901N001019999999N0000001N9-00941+99999102381ADDGF108991999999999999999999
0029029700999991924012413004+60100+019950FM-12+001499999V0209991C000019999999N0000001N9-00781+99999102401ADDGF108991999999999999999999
0029029700999991924012420004+60100+019950FM-12+001499999V0201801N005119999999N0000001N9-00281+99999102441ADDGF108991999999999999999999
0029029700999991924012506004+60100+019950FM-12+001499999V0201601N006219999999N0000001N9-00331+99999102721ADDGF108991999999999999999999
0029029700999991924012513004+60100+019950FM-12+001499999V0201801N003119999999N0000001N9-00391+99999102951ADDGF106991999999999999999999
0029029700999991924012520004+60100+019950FM-12+001499999V0202001N002119999999N0000001N9-00391+99999103101ADDGF108991999999999999999999
0029029700999991924012606004+60100+019950FM-12+001499999V0202301N006219999999N0000001N9-00111+99999102801ADDGF108991999999999999999999
0029029700999991924012613004+60100+019950FM-12+001499999V0202301N004119999999N0000001N9-00061+99999102471ADDGF108991999999999999999999
0029029700999991924012620004+60100+019950FM-12+001499999V0202301N005119999999N0000001N9+00061+99999101911ADDGF108991999999999999999999
0029029700999991924012706004+60100+019950FM-12+001499999V0202501N007219999999N0000001N9+00171+99999100631ADDGF108991999999999999999999
0035029700999991924012713004+60100+019950FM-12+001499999V0202301N004119999999N0000001N9+00061+99999099671ADDGF108991999999999999999999MW1621
0035029700999991924012720004+60100+019950FM-12+001499999V0202301N002119999999N0000001N9+00061+99999099231ADDGF108991999999999999999999MW1721
0035029700999991924012806004+60100+019950FM-12+001499999V0203601N004119999999N0000001N9+00001+99999099501ADDGF108991999999999999999999MW1721
0029029700999991924012813004+60100+019950FM-12+001499999V0203601N003119999999N0000001N9-00061+99999100061ADDGF107991999999999999999999
0029029700999991924012820004+60100+019950FM-12+001499999V0203601N003119999999N0000001N9-00061+99999100721ADDGF100991999999999999999999
0029029700999991924012906004+60100+019950FM-12+001499999V0203601N002119999999N0000001N9-00331+99999101151ADDGF100991999999999999999999
0029029700999991924012913004+60100+019950FM-12+001499999V0203201N001019999999N0000001N9-00171+99999101391ADDGF100991999999999999999999
0029029700999991924012920004+60100+019950FM-12+001499999V0209991C000019999999N0000001N9-00721+99999101671ADDGF101991999999999999999999
0029029700999991924013006004+60100+019950FM-12+001499999V0202701N002119999999N0000001N9-00221+99999101481ADDGF107991999999999999999999
0029029700999991924013013004+60100+019950FM-12+001499999V0202501N002119999999N0000001N9-00111+99999101441ADDGF102991999999999999999999
0029029700999991924013020004+60100+019950FM-12+001499999V0202501N001019999999N0000001N9+00061+99999101271ADDGF108991999999999999999999
0029029700999991924013106004+60100+019950FM-12+001499999V0203201N002119999999N0000001N9+00061+99999101301ADDGF100991999999999999999999
0029029700999991924013113004+60100+019950FM-12+001499999V0209991C000019999999N0000001N9+00171+99999101701ADDGF100991999999999999999999
0029029700999991924013120004+60100+019950FM-12+001499999V0209991C000019999999N0000001N9-00561+99999101551ADDGF102991999999999999999999
0035029700999991924020106004+60100+019950FM-12+001499999V0202301N005119999999N0000001N9+00111+99999100151ADDGF108991999999999999999999MW1621
0029029700999991924020113004+60100+019950FM-12+001499999V0202701N003119999999N0000001N9+00221+99999100161ADDGF100991999999999999999999
0029029700999991924020120004+60100+019950FM-12+001499999V0202901N003119999999N0000001N9+00001+99999100181ADDGF100991999999999999999999
0029029700999991924020206004+60100+019950FM-12+001499999V0202501N005119999999N0000001N9+00061+99999099081ADDGF103991999999999999999999
0029029700999991924020213004+60100+019950FM-12+001499999V0200501N001019999999N0000001N9+00001+99999098391ADDGF104991999999999999999999
0029029700999991924020220004+60100+019950FM-12+001499999V0202901N005119999999N0000001N9-00111+99999098201ADDGF101991999999999999999999
0035029700999991924020306004+60100+019950FM-12+001499999V0203601N005119999999N0000001N9-00061+99999098281ADDGF107991999999999999999999MW1721
0029029700999991924020313004+60100+019950FM-12+001499999V0203601N005119999999N0000001N9-00281+99999098741ADDGF108991999999999999999999
0029029700999991924020320004+60100+019950FM-12+001499999V0200501N005119999999N0000001N9-00281+99999099271ADDGF108991999999999999999999
0029029700999991924020406004+60100+019950FM-12+001499999V0209991C000019999999N0000001N9-00331+99999099201ADDGF108991999999999999999999
0029029700999991924020413004+60100+019950FM-12+001499999V0203401N001019999999N0000001N9-00331+99999099001ADDGF108991999999999999999999
0029029700999991924020420004+60100+019950FM-12+001499999V0209991C000019999999N0000001N9-00561+99999099281ADDGF108991999999999999999999
0029029700999991924020506004+60100+019950FM-12+001499999V0200901N001019999999N0000001N9-00611+99999098961ADDGF108991999999999999999999
0035029700999991924020513004+60100+019950FM-12+001499999V0201401N004119999999N0000001N9-00171+99999097791ADDGF108991999999999999999999MW1861
0035029700999991924020520004+60100+019950FM-12+001499999V0200901N007219999999N0000001N9-00561+99999097641ADDGF108991999999999999999999MW1861
0029029700999991924020606004+60100+019950FM-12+001499999V0200701N003119999999N0000001N9-00891+99999098581ADDGF108991999999999999999999
0029029700999991924020613004+60100+019950FM-12+001499999V0200201N004119999999N0000001N9-00671+99999099071ADDGF107991999999999999999999
0035029700999991924020620004+60100+019950FM-12+001499999V0200501N001019999999N0000001N9-00781+99999099361ADDGF106991999999999999999999MW1701
0029029700999991924020706004+60100+019950FM-12+001499999V0209991C000019999999N0000001N9-00831+99999099461ADDGF108991999999999999999999
0035029700999991924020713004+60100+019950FM-12+001499999V0200501N001019999999N0000001N9-00561+99999099481ADDGF108991999999999999999999MW1721
0035029700999991924020720004+60100+019950FM-12+001499999V0200901N001019999999N0000001N9-00831+99999099721ADDGF108991999999999999999999MW1721
0029029700999991924020806004+60100+019950FM-12+001499999V0203601N005119999999N0000001N9-01171+99999100281ADDGF108991999999999999999999
0035029700999991924020813004+60100+019950FM-12+001499999V0203601N005119999999N0000001N9-01061+99999100711ADDGF108991999999999999999999MW1701
0029029700999991924020820004+60100+019950FM-12+001499999V0209991C000019999999N0000001N9-01501+99999101161ADDGF100991999999999999999999
0029029700999991924020906004+60100+019950FM-12+001499999V0209991C000019999999N0000001N9-01221+99999101281ADDGF108991999999999999999999
0029029700999991924020913004+60100+019950FM-12+001499999V0209991C000019999999N0000001N9-01061+99999101261ADDGF100991999999999999999999
0029029700999991924020920004+60100+019950FM-12+001499999V0209991C000019999999N0000001N9-01671+99999101161ADDGF100991999999999999999999
0029029700999991924021006004+60100+019950FM-12+001499999V0209991C000019999999N0000001N9-01281+99999101111ADDGF108991999999999999999999
0029029700999991924021013004+60100+019950FM-12+001499999V0209991C000019999999N0000001N9-01111+99999101501ADDGF107991999999999999999999
0035029700999991924021020004+60100+019950FM-12+001499999V0201401N004119999999N0000001N9-00561+99999101641ADDGF108991999999999999999999MW1721
0035029700999991924021106004+60100+019950FM-12+001499999V0201101N004119999999N0000001N9-00831+99999102191ADDGF108991999999999999999999MW1701
0029029700999991924021113004+60100+019950FM-12+001499999V0200901N004119999999N0000001N9-00781+99999102261ADDGF106991999999999999999999
0029029700999991924021120004+60100+019950FM-12+001499999V0200901N007219999999N0000001N9-01001+99999102311ADDGF108991999999999999999999
0035029700999991924021206004+60100+019950FM-12+001499999V0200901N007219999999N0000001N9-01001+99999102101ADDGF108991999999999999999999MW1721
0035029700999991924021213004+60100+019950FM-12+001499999V0200901N006219999999N0000001N9-00941+99999101941ADDGF108991999999999999999999MW1721
0035029700999991924021220004+60100+019950FM-12+001499999V0200501N004119999999N0000001N9-01001+99999101721ADDGF108991999999999999999999MW1721
0035029700999991924021306004+60100+019950FM-12+001499999V0200701N003119999999N0000001N9-01061+99999101311ADDGF108991999999999999999999MW1701
0035029700999991924021313004+60100+019950FM-12+001499999V0200701N001019999999N0000001N9-00941+99999101261ADDGF108991999999999999999999MW1701
0029029700999991924021320004+60100+019950FM-12+001499999V0200701N001019999999N0000001N9-01001+99999101361ADDGF108991999999999999999999
0029029700999991924021406004+60100+019950FM-12+001499999V0209991C000019999999N0000001N9-01331+99999101591ADDGF106991999999999999999999
0029029700999991924021413004+60100+019950FM-12+001499999V0200701N001019999999N0000001N9-00721+99999101661ADDGF108991999999999999999999
0035029700999991924021420004+60100+019950FM-12+001499999V0209991C000019999999N0000001N9-00781+99999101561ADDGF108991999999999999999999MW1701
0029029700999991924021506004+60100+019950FM-12+001499999V0203201N001019999999N0000001N9-01171+99999101981ADDGF108991999999999999999999
0029029700999991924021513004+60100+019950FM-12+001499999V0202301N001019999999N0000001N9-01001+99999102471ADDGF100991999999999999999999
0029029700999991924021520004+60100+019950FM-12+001499999V0202501N004119999999N0000001N9-00941+99999102581ADDGF106991999999999999999999
0029029700999991924021606004+60100+019950FM-12+001499999V0202501N003119999999N0000001N9-01061+99999102711ADDGF100991999999999999999999
0029029700999991924021613004+60100+019950FM-12+001499999V0202701N001019999999N0000001N9-00561+99999102951ADDGF100991999999999999999999
0029029700999991924021620004+60100+019950FM-12+001499999V0202301N001019999999N0000001N9-00721+99999102881ADDGF100991999999999999999999
0029029700999991924021706004+60100+019950FM-12+001499999V0202301N004119999999N0000001N9-00941+99999102361ADDGF101991999999999999999999
0029029700999991924021713004+60100+019950FM-12+001499999V0202301N004119999999N0000001N9-00391+99999101711ADDGF108991999999999999999999
0029029700999991924021720004+60100+019950FM-12+001499999V0202501N005119999999N0000001N9+00001+99999101001ADDGF108991999999999999999999
0029029700999991924021806004+60100+019950FM-12+001499999V0202301N003119999999N0000001N9+00061+99999100381ADDGF108991999999999999999999
0029029700999991924021813004+60100+019950FM-12+001499999V0202301N003119999999N0000001N9+00001+99999100151ADDGF108991999999999999999999
0035029700999991924021820004+60100+019950FM-12+001499999V0202501N003119999999N0000001N9-00061+99999100341ADDGF108991999999999999999999MW1721
0029029700999991924021906004+60100+019950FM-12+001499999V0203201N003119999999N0000001N9-00501+99999101221ADDGF108991999999999999999999
0029029700999991924021913004+60100+019950FM-12+001499999V0203401N002119999999N0000001N9-00441+99999101671ADDGF101991999999999999999999
0029029700999991924021920004+60100+019950FM-12+001499999V0209991C000019999999N0000001N9-01391+99999101911ADDGF100991999999999999999999
0029029700999991924022006004+60100+019950FM-12+001499999V0202301N003119999999N0000001N9-00721+99999101431ADDGF108991999999999999999999
0029029700999991924022013004+60100+019950FM-12+001499999V0202301N005119999999N0000001N9-00441+99999100781ADDGF108991999999999999999999
0029029700999991924022020004+60100+019950FM-12+001499999V0202501N001019999999N0000001N9-00221+99999100351ADDGF105991999999999999999999
0029029700999991924022106004+60100+019950FM-12+001499999V0202701N001019999999N0000001N9-00441+99999100281ADDGF102991999999999999999999
0029029700999991924022113004+60100+019950FM-12+001499999V0209991C000019999999N0000001N9-00061+99999100041ADDGF108991999999999999999999
0029029700999991924022120004+60100+019950FM-12+001499999V0200501N003119999999N0000001N9-00501+99999099941ADDGF108991999999999999999999
0029029700999991924022206004+60100+019950FM-12+001499999V0203601N006219999999N0000001N9-00671+99999100071ADDGF108991999999999999999999
0035029700999991924022213004+60100+019950FM-12+001499999V0203601N008219999999N0000001N9-00781+99999100261ADDGF108991999999999999999999MW1861
0035029700999991924022220004+60100+019950FM-12+001499999V0203401N008219999999N0000001N9-00941+99999100521ADDGF108991999999999999999999MW1861
0035029700999991924022306004+60100+019950FM-12+001499999V0203401N007219999999N0000001N9-00831+99999100741ADDGF108991999999999999999999MW1861
0035029700999991924022313004+60100+019950FM-12+001499999V0203601N007219999999N0000001N9-00781+99999101001ADDGF108991999999999999999999MW1861
0029029700999991924022320004+60100+019950FM-12+001499999V0200201N006219999999N0000001N9-00941+99999101201ADDGF108991999999999999999999
0029029700999991924022406004+60100+019950FM-12+001499999V0209991C000019999999N0000001N9-01501+99999101201ADDGF105991999999999999999999
0029029700999991924022413004+60100+019950FM-12+001499999V0203601N001019999999N0000001N9-00671+99999101351ADDGF107991999999999999999999
0029029700999991924022420004+60100+019950FM-12+001499999V0209991C000019999999N0000001N9-01001+99999101621ADDGF108991999999999999999999
0029029700999991924022506004+60100+019950FM-12+001499999V0209991C000019999999N0000001N9-01331+99999101791ADDGF108991999999999999999999
0029029700999991924022513004+60100+019950FM-12+001499999V0209991C000019999999N0000001N9-00941+99999102071ADDGF106991999999999999999999
0029029700999991924022520004+60100+019950FM-12+001499999V0209991C000019999999N0000001N9-01721+99999102341ADDGF103991999999999999999999
0029029700999991924022606004+60100+019950FM-12+001499999V0200701N001019999999N0000001N9-01171+99999102401ADDGF108991999999999999999999
0035029700999991924022613004+60100+019950FM-12+001499999V0209991C000019999999N0000001N9-00721+99999102471ADDGF108991999999999999999999MW1701
0029029700999991924022620004+60100+019950FM-12+001499999V0209991C000019999999N0000001N9-01941+99999102581ADDGF100991999999999999999999
0029029700999991924022706004+60100+019950FM-12+001499999V0202301N001019999999N0000001N9-01281+99999102141ADDGF100991999999999999999999
0035029700999991924022713004+60100+019950FM-12+001499999V0202301N003119999999N0000001N9-00721+99999101541ADDGF101991999999999999999999MW1381
0035029700999991924022720004+60100+019950FM-12+001499999V0202301N007219999999N0000001N9-00441+99999100941ADDGF108991999999999999999999MW1381
0029029700999991924022806004+60100+019950FM-12+001499999V0202301N007219999999N0000001N9-00561+99999100421ADDGF108991999999999999999999
0035029700999991924022813004+60100+019950FM-12+001499999V0202301N006219999999N0000001N9-00391+99999100321ADDGF108991999999999999999999MW1381
0035029700999991924022820004+60100+019950FM-12+001499999V0209991C000019999999N0000001N9-00561+99999100201ADDGF108991999999999999999999MW1721
0029029700999991924022906004+60100+019950FM-12+001499999V0209991C000019999999N0000001N9-00781+99999099751ADDGF108991999999999999999999
0029029700999991924022913004+60100+019950FM-12+001499999V0202501N002119999999N0000001N9-00441+99999099671ADDGF107991999999999999999999
0029029700999991924022920004+60100+019950FM-12+001499999V0202701N001019999999N0000001N9-01171+99999099671ADDGF108991999999999999999999
0029029700999991924030106004+60100+019950FM-12+001499999V0200701N001019999999N0000001N9-00831+99999099391ADDGF108991999999999999999999
0029029700999991924030113004+60100+019950FM-12+001499999V0200901N001019999999N0000001N9-00671+99999099431ADDGF108991999999999999999999
0035029700999991924030120004+60100+019950FM-12+001499999V0209991C000019999999N0000001N9-00891+99999099561ADDGF108991999999999999999999MW1701
0035029700999991924030206004+60100+019950FM-12+001499999V0209991C000019999999N0000001N9-01061+99999099661ADDGF108991999999999999999999MW1701
0029029700999991924030213004+60100+019950FM-12+001499999V0203201N001019999999N0000001N9-00831+99999099951ADDGF108991999999999999999999
0029029700999991924030220004+60100+019950FM-12+001499999V0209991C000019999999N0000001N9-01501+99999100221ADDGF108991999999999999999999
0035029700999991924030306004+60100+019950FM-12+001499999V0200901N007219999999N0000001N9-00781+99999099751ADDGF108991999999999999999999MW1861
0029029700999991924030313004+60100+019950FM-12+001499999V0209991C000019999999N0000001N9-00501+99999100231ADDGF108991999999999999999999
0035029700999991924030320004+60100+019950FM-12+001499999V0200701N001019999999N0000001N9-00561+99999100241ADDGF108991999999999999999999MW1701
0029029700999991924030406004+60100+019950FM-12+001499999V0202001N003119999999N0000001N9-00061+99999099991ADDGF101991999999999999999999
0029029700999991924030413004+60100+019950FM-12+001499999V0202001N004119999999N0000001N9+00111+99999100361ADDGF100991999999999999999999
0029029700999991924030420004+60100+019950FM-12+001499999V0202301N004119999999N0000001N9-00111+99999100951ADDGF100991999999999999999999
0029029700999991924030506004+60100+019950FM-12+001499999V0202301N001019999999N0000001N9-00221+99999101221ADDGF108991999999999999999999
0035029700999991924030513004+60100+019950FM-12+001499999V0201801N001019999999N0000001N9+00001+99999101041ADDGF108991999999999999999999MW1701
0029029700999991924030520004+60100+019950FM-12+001499999V0202001N001019999999N0000001N9+00001+99999101031ADDGF108991999999999999999999
0035029700999991924030606004+60100+019950FM-12+001499999V0209991C000019999999N0000001N9-00061+99999101021ADDGF108991999999999999999999MW1721
0035029700999991924030613004+60100+019950FM-12+001499999V0202901N003119999999N0000001N9-00061+99999101461ADDGF108991999999999999999999MW1701
0029029700999991924030620004+60100+019950FM-12+001499999V0202701N001019999999N0000001N9-00171+99999102151ADDGF108991999999999999999999
0029029700999991924030706004+60100+019950FM-12+001499999V0209991C000019999999N0000001N9-00501+99999102721ADDGF108991999999999999999999
0029029700999991924030713004+60100+019950FM-12+001499999V0209991C000019999999N0000001N9+00001+99999102981ADDGF101991999999999999999999
0029029700999991924030720004+60100+019950FM-12+001499999V0209991C000019999999N0000001N9-00941+99999103041ADDGF107991999999999999999999
0029029700999991924030806004+60100+019950FM-12+001499999V0202301N002119999999N0000001N9-00561+99999102631ADDGF100991999999999999999999
0029029700999991924030813004+60100+019950FM-12+001499999V0202301N003119999999N0000001N9-00281+99999102281ADDGF107991999999999999999999
0029029700999991924030820004+60100+019950FM-12+001499999V0202301N005119999999N0000001N9-00111+99999101841ADDGF108991999999999999999999
0029029700999991924030906004+60100+019950FM-12+001499999V0202301N003119999999N0000001N9+00001+99999101521ADDGF108991999999999999999999
0029029700999991924030913004+60100+019950FM-12+001499999V0202501N001019999999N0000001N9+00221+99999101541ADDGF100991999999999999999999
0029029700999991924030920004+60100+019950FM-12+001499999V0209991C000019999999N0000001N9-00171+99999101681ADDGF102991999999999999999999
0029029700999991924031006004+60100+019950FM-12+001499999V0209991C000019999999N0000001N9-00441+99999101741ADDGF102991999999999999999999
0035029700999991924031013004+60100+019950FM-12+001499999V0201101N002119999999N0000001N9+00061+99999101781ADDGF108991999999999999999999MW1701
0029029700999991924031020004+60100+019950FM-12+001499999V0200501N003119999999N0000001N9-00221+99999101701ADDGF108991999999999999999999
0029029700999991924031106004+60100+019950FM-12+001499999V0200501N005119999999N0000001N9-00721+99999102361ADDGF108991999999999999999999
0029029700999991924031113004+60100+019950FM-12+001499999V0203601N005119999999N0000001N9-00391+99999102841ADDGF100991999999999999999999
0029029700999991924031120004+60100+019950FM-12+001499999V0209991C000019999999N0000001N9-00831+99999103351ADDGF100991999999999999999999
0029029700999991924031206004+60100+019950FM-12+001499999V0209991C000019999999N0000001N9-01831+99999103551ADDGF100991999999999999999999
0029029700999991924031213004+60100+019950FM-12+001499999V0202501N002119999999N0000001N9-00171+99999103621ADDGF100991999999999999999999
0029029700999991924031220004+60100+019950FM-12+001499999V0209991C000019999999N0000001N9-01001+99999103621ADDGF100991999999999999999999
0029029700999991924031306004+60100+019950FM-12+001499999V0209991C000019999999N0000001N9-00671+99999103361ADDGF100991999999999999999999
0029029700999991924031313004+60100+019950FM-12+001499999V0202301N001019999999N0000001N9-00171+99999103161ADDGF100991999999999999999999
0029029700999991924031320004+60100+019950FM-12+001499999V0209991C000019999999N0000001N9-00671+99999103071ADDGF100991999999999999999999
0029029700999991924031406004+60100+019950FM-12+001499999V0202301N001019999999N0000001N9-00561+99999102721ADDGF100991999999999999999999
0029029700999991924031413004+60100+019950FM-12+001499999V0202001N004119999999N0000001N9-00111+99999102401ADDGF102991999999999999999999
0029029700999991924031420004+60100+019950FM-12+001499999V0202301N006219999999N0000001N9-00331+99999101881ADDGF106991999999999999999999
0029029700999991924031506004+60100+019950FM-12+001499999V0202301N006219999999N0000001N9-00171+99999100821ADDGF108991999999999999999999
0029029700999991924031513004+60100+019950FM-12+001499999V0202301N005119999999N0000001N9-00061+99999100221ADDGF108991999999999999999999
0029029700999991924031520004+60100+019950FM-12+001499999V0202301N003119999999N0000001N9+00171+99999099551ADDGF108991999999999999999999
0029029700999991924031606004+60100+019950FM-12+001499999V0209991C000019999999N0000001N9-00331+99999099321ADDGF100991999999999999999999
0035029700999991924031613004+60100+019950FM-12+001499999V0203401N002119999999N0000001N9-00061+99999099341ADDGF108991999999999999999999MW1721
0029029700999991924031620004+60100+019950FM-12+001499999V0200501N006219999999N0000001N9-00611+99999099641ADDGF108991999999999999999999
0035029700999991924031706004+60100+019950FM-12+001499999V0203201N006219999999N0000001N9-00781+99999099721ADDGF108991999999999999999999MW1861
0035029700999991924031713004+60100+019950FM-12+001499999V0203201N006219999999N0000001N9-00831+99999099831ADDGF108991999999999999999999MW1861
0029029700999991924031720004+60100+019950FM-12+001499999V0203601N003119999999N0000001N9-01001+99999099871ADDGF106991999999999999999999
0035029700999991924031806004+60100+019950FM-12+001499999V0203601N004119999999N0000001N9-00941+99999099791ADDGF108991999999999999999999MW1861
0035029700999991924031813004+60100+019950FM-12+001499999V0203601N015919999999N0000001N9-00781+99999099901ADDGF108991999999999999999999MW1861
0035029700999991924031820004+60100+019950FM-12+001499999V0202901N009819999999N0000001N9-00891+99999100041ADDGF108991999999999999999999MW1861
0029029700999991924031906004+60100+019950FM-12+001499999V0203201N006219999999N0000001N9-00781+99999099961ADDGF108991999999999999999999
0035029700999991924031913004+60100+019950FM-12+001499999V0203201N008219999999N0000001N9-00671+99999100191ADDGF108991999999999999999999MW1721
0029029700999991924031920004+60100+019950FM-12+001499999V0203201N002119999999N0000001N9-00831+99999100421ADDGF108991999999999999999999
0029029700999991924032006004+60100+019950FM-12+001499999V0203201N001019999999N0000001N9-00781+99999100561ADDGF108991999999999999999999
0029029700999991924032013004+60100+019950FM-12+001499999V0203401N003119999999N0000001N9-00501+99999100871ADDGF107991999999999999999999
0029029700999991924032020004+60100+019950FM-12+001499999V0209991C000019999999N0000001N9-01331+99999101151ADDGF100991999999999999999999
0029029700999991924032106004+60100+019950FM-12+001499999V0209991C000019999999N0000001N9-01611+99999101511ADDGF101991999999999999999999
0029029700999991924032113004+60100+019950FM-12+001499999V0202001N003119999999N0000001N9-00441+99999101661ADDGF105991999999999999999999
0029029700999991924032120004+60100+019950FM-12+001499999V0202001N003119999999N0000001N9-00331+99999101351ADDGF108991999999999999999999
0029029700999991924032206004+60100+019950FM-12+001499999V0202301N004119999999N0000001N9-00391+99999100621ADDGF102991999999999999999999
0029029700999991924032213004+60100+019950FM-12+001499999V0202001N003119999999N0000001N9-00111+99999100221ADDGF107991999999999999999999
0029029700999991924032220004+60100+019950FM-12+001499999V0209991C000019999999N0000001N9-00561+99999100151ADDGF100991999999999999999999
0029029700999991924032306004+60100+019950FM-12+001499999V0209991C000019999999N0000001N9-00891+99999100601ADDGF104991999999999999999999
0029029700999991924032313004+60100+019950FM-12+001499999V0200201N001019999999N0000001N9-00331+99999100871ADDGF108991999999999999999999
0029029700999991924032320004+60100+019950FM-12+001499999V0200201N001019999999N0000001N9-00941+99999100981ADDGF102991999999999999999999
0029029700999991924032406004+60100+019950FM-12+001499999V0200901N004119999999N0000001N9-00831+99999100921ADDGF108991999999999999999999
0035029700999991924032413004+60100+019950FM-12+001499999V0200901N004119999999N0000001N9-00561+99999100621ADDGF108991999999999999999999MW1701
0035029700999991924032420004+60100+019950FM-12+001499999V0200901N008219999999N0000001N9-00611+99999100031ADDGF108991999999999999999999MW1861
0029029700999991924032506004+60100+019950FM-12+001499999V0200501N003119999999N0000001N9-00561+99999099441ADDGF108991999999999999999999
0029029700999991924032513004+60100+019950FM-12+001499999V0200501N002119999999N0000001N9-00331+99999099641ADDGF108991999999999999999999
0029029700999991924032520004+60100+019950FM-12+001499999V0209991C000019999999N0000001N9-00441+99999099921ADDGF108991999999999999999999
0029029700999991924032606004+60100+019950FM-12+001499999V0200501N002119999999N0000001N9-00561+99999100081ADDGF108991999999999999999999
0029029700999991924032613004+60100+019950FM-12+001499999V0200201N004119999999N0000001N9-00281+99999100271ADDGF108991999999999999999999
0029029700999991924032620004+60100+019950FM-12+001499999V0200901N002119999999N0000001N9-00281+99999100241ADDGF108991999999999999999999
0029029700999991924032706004+60100+019950FM-12+001499999V0200901N004119999999N0000001N9-00171+99999099821ADDGF108991999999999999999999
0035029700999991924032713004+60100+019950FM-12+001499999V0201101N003119999999N0000001N9+00111+99999099671ADDGF108991999999999999999999MW1601
0029029700999991924032720004+60100+019950FM-12+001499999V0209991C000019999999N0000001N9+00001+99999099681ADDGF108991999999999999999999
0029029700999991924032806004+60100+019950FM-12+001499999V0202301N003119999999N0000001N9+00001+99999100021ADDGF108991999999999999999999
0029029700999991924032813004+60100+019950FM-12+001499999V0202301N003119999999N0000001N9+00171+99999100281ADDGF100991999999999999999999
0029029700999991924032820004+60100+019950FM-12+001499999V0209991C000019999999N0000001N9-00331+99999100521ADDGF100991999999999999999999
0029029700999991924032906004+60100+019950FM-12+001499999V0209991C000019999999N0000001N9-00721+99999100581ADDGF106991999999999999999999
0029029700999991924032913004+60100+019950FM-12+001499999V0209991C000019999999N0000001N9+00221+99999100671ADDGF100991999999999999999999
0029029700999991924032920004+60100+019950FM-12+001499999V0209991C000019999999N0000001N9-00501+99999100641ADDGF100991999999999999999999
0029029700999991924033006004+60100+019950FM-12+001499999V0209991C000019999999N0000001N9-00941+99999100501ADDGF104991999999999999999999
0029029700999991924033013004+60100+019950FM-12+001499999V0202301N003119999999N0000001N9+00171+99999100431ADDGF100991999999999999999999
0029029700999991924033020004+60100+019950FM-12+001499999V0209991C000019999999N0000001N9+00001+99999100421ADDGF106991999999999999999999
0029029700999991924033106004+60100+019950FM-12+001499999V0209991C000019999999N0000001N9-00221+99999100841ADDGF104991999999999999999999
0029029700999991924033113004+60100+019950FM-12+001499999V0202901N002119999999N0000001N9+00221+99999101271ADDGF106991999999999999999999
0029029700999991924033120004+60100+019950FM-12+001499999V0209991C000019999999N0000001N9-00221+99999101601ADDGF100991999999999999999999
0029029700999991924040106004+60100+019950FM-12+001499999V0209991C000019999999N0000001N9-00331+99999101921ADDGF102991999999999999999999
0029029700999991924040113004+60100+019950FM-12+001499999V0200201N003119999999N0000001N9+00061+99999102221ADDGF106991999999999999999999
0029029700999991924040120004+60100+019950FM-12+001499999V0209991C000019999999N0000001N9-00441+99999102511ADDGF100991999999999999999999
0029029700999991924040206004+60100+019950FM-12+001499999V0209991C000019999999N0000001N9-01001+99999102681ADDGF100991999999999999999999
0029029700999991924040213004+60100+019950FM-12+001499999V0202301N001019999999N0000001N9+00061+99999102701ADDGF100991999999999999999999
0029029700999991924040220004+60100+019950FM-12+001499999V0209991C000019999999N0000001N9-00671+99999102641ADDGF100991999999999999999999
0029029700999991924040306004+60100+019950FM-12+001499999V0202501N003119999999N0000001N9-00281+99999102381ADDGF100991999999999999999999
0029029700999991924040313004+60100+019950FM-12+001499999V0202301N002119999999N0000001N9+00281+99999101991ADDGF101991999999999999999999
0029029700999991924040320004+60100+019950FM-12+001499999V0209991C000019999999N0000001N9+00281+99999101681ADDGF108991999999999999999999
0029029700999991924040406004+60100+019950FM-12+001499999V0209991C000019999999N0000001N9+00171+99999101461ADDGF108991999999999999999999
0029029700999991924040413004+60100+019950FM-12+001499999V0209991C000019999999N0000001N9+00441+99999101561ADDGF100991999999999999999999
0029029700999991924040420004+60100+019950FM-12+001499999V0209991C000019999999N0000001N9+00001+99999101761ADDGF107991999999999999999999
0029029700999991924040506004+60100+019950FM-12+001499999V0202301N001019999999N0000001N9+00001+99999101581ADDGF108991999999999999999999
0029029700999991924040513004+60100+019950FM-12+001499999V0202501N001019999999N0000001N9+00501+99999101271ADDGF101991999999999999999999
0029029700999991924040520004+60100+019950FM-12+001499999V0202301N002119999999N0000001N9+00221+99999100761ADDGF100991999999999999999999
0029029700999991924040606004+60100+019950FM-12+001499999V0202701N004119999999N0000001N9+00061+99999100101ADDGF100991999999999999999999
0029029700999991924040613004+60100+019950FM-12+001499999V0202501N005119999999N0000001N9+00441+99999099761ADDGF102991999999999999999999
0029029700999991924040620004+60100+019950FM-12+001499999V0202501N001019999999N0000001N9+00001+99999099791ADDGF100991999999999999999999
0029029700999991924040706004+60100+019950FM-12+001499999V0202501N001019999999N0000001N9+00001+99999099481ADDGF102991999999999999999999
0029029700999991924040713004+60100+019950FM-12+001499999V0202301N005119999999N0000001N9+00331+99999098991ADDGF100991999999999999999999
0029029700999991924040720004+60100+019950FM-12+001499999V0202301N003119999999N0000001N9+00171+99999098871ADDGF100991999999999999999999
0029029700999991924040806004+60100+019950FM-12+001499999V0202301N006219999999N0000001N9+00171+99999098321ADDGF101991999999999999999999
0029029700999991924040813004+60100+019950FM-12+001499999V0202301N006219999999N0000001N9+00441+99999098071ADDGF101991999999999999999999
0029029700999991924040820004+60100+019950FM-12+001499999V0209991C000019999999N0000001N9-00061+99999098801ADDGF108991999999999999999999
0029029700999991924040906004+60100+019950FM-12+001499999V0202001N002119999999N0000001N9+00001+99999099061ADDGF102991999999999999999999
0029029700999991924040913004+60100+019950FM-12+001499999V0202301N001019999999N0000001N9+00171+99999099351ADDGF108991999999999999999999
0029029700999991924040920004+60100+019950FM-12+001499999V0209991C000019999999N0000001N9-00111+99999099551ADDGF104991999999999999999999
0029029700999991924041006004+60100+019950FM-12+001499999V0209991C000019999999N0000001N9-00111+99999099741ADDGF104991999999999999999999
0029029700999991924041013004+60100+019950FM-12+001499999V0202301N002119999999N0000001N9+00331+99999099901ADDGF100991999999999999999999
0029029700999991924041020004+60100+019950FM-12+001499999V0201601N001019999999N0000001N9-00221+99999100101ADDGF108991999999999999999999
0029029700999991924041106004+60100+019950FM-12+001499999V0200701N002119999999N0000001N9-00391+99999100021ADDGF108991999999999999999999
0029029700999991924041113004+60100+019950FM-12+001499999V0203201N002119999999N0000001N9+00061+99999099681ADDGF108991999999999999999999
0029029700999991924041120004+60100+019950FM-12+001499999V0203201N003119999999N0000001N9-00111+99999099401ADDGF108991999999999999999999
0035029700999991924041206004+60100+019950FM-12+001499999V0203201N006219999999N0000001N9-00171+99999099401ADDGF108991999999999999999999MW1721
0035029700999991924041213004+60100+019950FM-12+001499999V0202701N001019999999N0000001N9+00001+99999099841ADDGF108991999999999999999999MW1721
0029029700999991924041220004+60100+019950FM-12+001499999V0202301N002119999999N0000001N9-00061+99999100261ADDGF100991999999999999999999
0029029700999991924041306004+60100+019950FM-12+001499999V0209991C000019999999N0000001N9-00561+99999100351ADDGF100991999999999999999999
0029029700999991924041313004+60100+019950FM-12+001499999V0203201N001019999999N0000001N9+00501+99999100561ADDGF101991999999999999999999
0029029700999991924041320004+60100+019950FM-12+001499999V0209991C000019999999N0000001N9-00391+99999100871ADDGF100991999999999999999999
0029029700999991924041406004+60100+019950FM-12+001499999V0209991C000019999999N0000001N9-00501+99999101221ADDGF100991999999999999999999
0029029700999991924041413004+60100+019950FM-12+001499999V0203201N002119999999N0000001N9+00441+99999101421ADDGF100991999999999999999999
0029029700999991924041420004+60100+019950FM-12+001499999V0209991C000019999999N0000001N9-00221+99999101601ADDGF100991999999999999999999
0029029700999991924041506004+60100+019950FM-12+001499999V0203601N001019999999N0000001N9-00171+99999101681ADDGF100991999999999999999999
0029029700999991924041513004+60100+019950FM-12+001499999V0200701N001019999999N0000001N9+00501+99999101631ADDGF100991999999999999999999
0029029700999991924041520004+60100+019950FM-12+001499999V0209991C000019999999N0000001N9-00281+99999101641ADDGF100991999999999999999999
0029029700999991924041606004+60100+019950FM-12+001499999V0201401N004119999999N0000001N9+00061+99999101421ADDGF102991999999999999999999
0035029700999991924041613004+60100+019950FM-12+001499999V0201401N008719999999N0000001N9+00221+99999101321ADDGF108991999999999999999999MW1681
0035029700999991924041620004+60100+019950FM-12+001499999V0201401N004119999999N0000001N9+00221+99999101151ADDGF108991999999999999999999MW1621
0035029700999991924041706004+60100+019950FM-12+001499999V0201601N004119999999N0000001N9+00221+99999101231ADDGF108991999999999999999999MW1621
0029029700999991924041713004+60100+019950FM-12+001499999V0201401N003119999999N0000001N9+00561+99999101321ADDGF104991999999999999999999
0029029700999991924041720004+60100+019950FM-12+001499999V0201401N006219999999N0000001N9+00501+99999101401ADDGF105991999999999999999999
0029029700999991924041806004+60100+019950FM-12+001499999V0201401N005119999999N0000001N9+00171+99999101551ADDGF108991999999999999999999
0029029700999991924041813004+60100+019950FM-12+001499999V0201401N005119999999N0000001N9+00221+99999102041ADDGF108991999999999999999999
0029029700999991924041820004+60100+019950FM-12+001499999V0202001N003119999999N0000001N9+00171+99999102151ADDGF107991999999999999999999
0029029700999991924041906004+60100+019950FM-12+001499999V0201401N002119999999N0000001N9+00111+99999101801ADDGF108991999999999999999999
0029029700999991924041913004+60100+019950FM-12+001499999V0209991C000019999999N0000001N9+00171+99999101661ADDGF108991999999999999999999
0029029700999991924041920004+60100+019950FM-12+001499999V0209991C000019999999N0000001N9+00061+99999101881ADDGF108991999999999999999999
0046029700999991924042006004+60100+019950FM-12+001499999V0209991C000019999999N0000001N9-00061+99999102061ADDAJ100009199999999GF108991999999999999999999
0029029700999991924042013004+60100+019950FM-12+001499999V0202301N002119999999N0000001N9+00441+99999101951ADDGF105991999999999999999999
0029029700999991924042020004+60100+019950FM-12+001499999V0202301N002119999999N0000001N9+00111+99999101281ADDGF101991999999999999999999
0052029700999991924042106004+60100+019950FM-12+001499999V0201801N005119999999N0000001N9+00061+99999099581ADDAJ100009199999999GF108991999999999999999999MW1721
0035029700999991924042113004+60100+019950FM-12+001499999V0201101N002119999999N0000001N9+00061+99999098981ADDGF108991999999999999999999MW1721
0035029700999991924042120004+60100+019950FM-12+001499999V0200901N006219999999N0000001N9+00001+99999098821ADDGF108991999999999999999999MW1721
0035029700999991924042206004+60100+019950FM-12+001499999V0200901N006219999999N0000001N9+00001+99999098781ADDGF108991999999999999999999MW1721
0035029700999991924042213004+60100+019950FM-12+001499999V0200901N004119999999N0000001N9+00221+99999098921ADDGF108991999999999999999999MW1621
0035029700999991924042220004+60100+019950FM-12+001499999V0200501N004119999999N0000001N9+00001+99999099271ADDGF108991999999999999999999MW1701
0029029700999991924042306004+60100+019950FM-12+001499999V0200501N002119999999N0000001N9-00281+99999099641ADDGF108991999999999999999999
0029029700999991924042313004+60100+019950FM-12+001499999V0203601N003119999999N0000001N9-00171+99999100061ADDGF103991999999999999999999
0029029700999991924042320004+60100+019950FM-12+001499999V0203601N002119999999N0000001N9-00111+99999100361ADDGF108991999999999999999999
0029029700999991924042406004+60100+019950FM-12+001499999V0200201N001019999999N0000001N9-00061+99999100701ADDGF106991999999999999999999
0029029700999991924042413004+60100+019950FM-12+001499999V0203601N001019999999N0000001N9+00001+99999101061ADDGF108991999999999999999999
0029029700999991924042420004+60100+019950FM-12+001499999V0203201N001019999999N0000001N9-00281+99999101361ADDGF108991999999999999999999
0029029700999991924042506004+60100+019950FM-12+001499999V0203401N001019999999N0000001N9-00111+99999101621ADDGF101991999999999999999999
0029029700999991924042513004+60100+019950FM-12+001499999V0200201N005119999999N0000001N9+00001+99999101761ADDGF100991999999999999999999
0029029700999991924042520004+60100+019950FM-12+001499999V0209991C000019999999N0000001N9-00391+99999101791ADDGF100991999999999999999999
0029029700999991924042606004+60100+019950FM-12+001499999V0209991C000019999999N0000001N9-00111+99999101911ADDGF100991999999999999999999
0029029700999991924042613004+60100+019950FM-12+001499999V0200501N001019999999N0000001N9+00171+99999101831ADDGF102991999999999999999999
0029029700999991924042620004+60100+019950FM-12+001499999V0209991C000019999999N0000001N9-00281+99999101681ADDGF103991999999999999999999
0029029700999991924042706004+60100+019950FM-12+001499999V0209991C000019999999N0000001N9-00171+99999101511ADDGF102991999999999999999999
0029029700999991924042713004+60100+019950FM-12+001499999V0201401N002119999999N0000001N9+00111+99999101351ADDGF100991999999999999999999
0029029700999991924042720004+60100+019950FM-12+001499999V0209991C000019999999N0000001N9-00171+99999101161ADDGF100991999999999999999999
0046029700999991924042806004+60100+019950FM-12+001499999V0201101N001019999999N0000001N9+00001+99999100861ADDAJ100009199999999GF100991999999999999999999
0029029700999991924042813004+60100+019950FM-12+001499999V0201101N001019999999N0000001N9+00501+99999100761ADDGF100991999999999999999999
0029029700999991924042820004+60100+019950FM-12+001499999V0209991C000019999999N0000001N9-00221+99999100601ADDGF100991999999999999999999
0046029700999991924042906004+60100+019950FM-12+001499999V0209991C000019999999N0000001N9+00111+99999100341ADDAJ100009199999999GF100991999999999999999999
0029029700999991924042913004+60100+019950FM-12+001499999V0202301N002119999999N0000001N9+00281+99999100281ADDGF104991999999999999999999
0029029700999991924042920004+60100+019950FM-12+001499999V0209991C000019999999N0000001N9-00221+99999100261ADDGF100991999999999999999999
0046029700999991924043006004+60100+019950FM-12+001499999V0202301N001019999999N0000001N9+00001+99999100141ADDAJ100009199999999GF104991999999999999999999
0029029700999991924043013004+60100+019950FM-12+001499999V0209991C000019999999N0000001N9+00561+99999100241ADDGF101991999999999999999999
0029029700999991924043020004+60100+019950FM-12+001499999V0209991C000019999999N0000001N9+00111+99999100461ADDGF108991999999999999999999
0046029700999991924050106004+60100+019950FM-12+001499999V0203401N001019999999N0000001N9-00111+99999100591ADDAJ100009199999999GF107991999999999999999999
0029029700999991924050113004+60100+019950FM-12+001499999V0203401N001019999999N0000001N9+00611+99999100781ADDGF100991999999999999999999
0029029700999991924050120004+60100+019950FM-12+001499999V0209991C000019999999N0000001N9-00111+99999100881ADDGF100991999999999999999999
0046029700999991924050206004+60100+019950FM-12+001499999V0209991C000019999999N0000001N9+00281+99999101001ADDAJ100009199999999GF100991999999999999999999
0029029700999991924050213004+60100+019950FM-12+001499999V0202001N004119999999N0000001N9+00611+99999101121ADDGF100991999999999999999999
0029029700999991924050220004+60100+019950FM-12+001499999V0202001N001019999999N0000001N9+00281+99999101151ADDGF108991999999999999999999
0046029700999991924050306004+60100+019950FM-12+001499999V0202001N002119999999N0000001N9+00441+99999101271ADDAJ100009199999999GF101991999999999999999999
0029029700999991924050313004+60100+019950FM-12+001499999V0201601N003119999999N0000001N9+00561+99999101381ADDGF100991999999999999999999
0029029700999991924050320004+60100+019950FM-12+001499999V0209991C000019999999N0000001N9+00391+99999101301ADDGF100991999999999999999999
0046029700999991924050406004+60100+019950FM-12+001499999V0201401N004119999999N0000001N9+00671+99999100921ADDAJ100009199999999GF106991999999999999999999
0029029700999991924050413004+60100+019950FM-12+001499999V0201401N004119999999N0000001N9+00781+99999100901ADDGF108991999999999999999999
0029029700999991924050420004+60100+019950FM-12+001499999V0201101N002119999999N0000001N9+00441+99999100831ADDGF108991999999999999999999
0046029700999991924050506004+60100+019950FM-12+001499999V0201101N003119999999N0000001N9+00441+99999100461ADDAJ100009199999999GF108991999999999999999999
0029029700999991924050513004+60100+019950FM-12+001499999V0201601N001019999999N0000001N9+00331+99999100421ADDGF108991999999999999999999
0029029700999991924050520004+60100+019950FM-12+001499999V0202301N003119999999N0000001N9+00281+99999100501ADDGF108991999999999999999999
0046029700999991924050606004+60100+019950FM-12+001499999V0202301N004119999999N0000001N9+00441+99999100741ADDAJ100009199999999GF100991999999999999999999
0029029700999991924050613004+60100+019950FM-12+001499999V0201801N005119999999N0000001N9+00671+99999101071ADDGF102991999999999999999999
0035029700999991924050620004+60100+019950FM-12+001499999V0201801N002119999999N0000001N9+00221+99999101181ADDGF108991999999999999999999MW1621
0046029700999991924050706004+60100+019950FM-12+001499999V0202301N001019999999N0000001N9+00171+99999101381ADDAJ100009199999999GF107991999999999999999999
0029029700999991924050713004+60100+019950FM-12+001499999V0202301N006219999999N0000001N9+00671+99999101631ADDGF101991999999999999999999
0029029700999991924050720004+60100+019950FM-12+001499999V0209991C000019999999N0000001N9+00221+99999101841ADDGF100991999999999999999999
0046029700999991924050806004+60100+019950FM-12+001499999V0200701N005119999999N0000001N9+00391+99999101631ADDAJ100009199999999GF103991999999999999999999
0035029700999991924050813004+60100+019950FM-12+001499999V0201101N005119999999N0000001N9+00781+99999100921ADDGF108991999999999999999999MW1621
0029029700999991924050820004+60100+019950FM-12+001499999V0202001N003119999999N0000001N9+00441+99999100501ADDGF108991999999999999999999
0046029700999991924050906004+60100+019950FM-12+001499999V0209991C000019999999N0000001N9+00501+99999101181ADDAJ100009199999999GF106991999999999999999999
0029029700999991924050913004+60100+019950FM-12+001499999V0202301N001019999999N0000001N9+00721+99999101521ADDGF100991999999999999999999
0029029700999991924050920004+60100+019950FM-12+001499999V0209991C000019999999N0000001N9+00391+99999101671ADDGF105991999999999999999999
0046029700999991924051006004+60100+019950FM-12+001499999V0209991C000019999999N0000001N9+00611+99999101881ADDAJ100009199999999GF105991999999999999999999
0029029700999991924051013004+60100+019950FM-12+001499999V0202301N003119999999N0000001N9+00941+99999102261ADDGF103991999999999999999999
0029029700999991924051020004+60100+019950FM-12+001499999V0209991C000019999999N0000001N9+00441+99999102591ADDGF100991999999999999999999
0046029700999991924051106004+60100+019950FM-12+001499999V0202001N001019999999N0000001N9+00611+99999102841ADDAJ100009199999999GF102991999999999999999999
0029029700999991924051113004+60100+019950FM-12+001499999V0201601N001019999999N0000001N9+00831+99999102661ADDGF104991999999999999999999
0029029700999991924051120004+60100+019950FM-12+001499999V0201101N001019999999N0000001N9+00781+99999102191ADDGF108991999999999999999999
0046029700999991924051206004+60100+019950FM-12+001499999V0201801N005119999999N0000001N9+00781+99999101431ADDAJ100009199999999GF102991999999999999999999
0029029700999991924051213004+60100+019950FM-12+001499999V0203601N001019999999N0000001N9+01281+99999101701ADDGF104991999999999999999999
0035029700999991924051220004+60100+019950FM-12+001499999V0209991C000019999999N0000001N9+00671+99999101591ADDGF108991999999999999999999MW1601
0046029700999991924051306004+60100+019950FM-12+001499999V0209991C000019999999N0000001N9+00781+99999101441ADDAJ100009199999999GF103991999999999999999999
0029029700999991924051313004+60100+019950FM-12+001499999V0202301N005119999999N0000001N9+01111+99999101661ADDGF101991999999999999999999
0029029700999991924051320004+60100+019950FM-12+001499999V0209991C000019999999N0000001N9+00781+99999101831ADDGF101991999999999999999999
0052029700999991924051406004+60100+019950FM-12+001499999V0202301N001019999999N0000001N9+00561+99999101911ADDAJ100009199999999GF108991999999999999999999MW1621
0029029700999991924051413004+60100+019950FM-12+001499999V0202001N004119999999N0000001N9+01111+99999101881ADDGF101991999999999999999999
0029029700999991924051420004+60100+019950FM-12+001499999V0202301N002119999999N0000001N9+00781+99999101881ADDGF107991999999999999999999
0046029700999991924051506004+60100+019950FM-12+001499999V0202301N002119999999N0000001N9+00831+99999101881ADDAJ100009199999999GF107991999999999999999999
0029029700999991924051513004+60100+019950FM-12+001499999V0202001N004119999999N0000001N9+01001+99999101661ADDGF107991999999999999999999
0029029700999991924051520004+60100+019950FM-12+001499999V0202301N004119999999N0000001N9+00891+99999101161ADDGF108991999999999999999999
0046029700999991924051606004+60100+019950FM-12+001499999V0200501N001019999999N0000001N9+01001+99999101391ADDAJ100009199999999GF104991999999999999999999
0029029700999991924051613004+60100+019950FM-12+001499999V0201401N001019999999N0000001N9+01221+99999101501ADDGF102991999999999999999999
0029029700999991924051620004+60100+019950FM-12+001499999V0200701N002119999999N0000001N9+00671+99999101161ADDGF106991999999999999999999
0052029700999991924051706004+60100+019950FM-12+001499999V0200901N002119999999N0000001N9+00611+99999100121ADDAJ100009199999999GF108991999999999999999999MW1621
0035029700999991924051713004+60100+019950FM-12+001499999V0202501N006219999999N0000001N9+00441+99999099791ADDGF108991999999999999999999MW1621
0029029700999991924051720004+60100+019950FM-12+001499999V0203201N008719999999N0000001N9+00221+99999100441ADDGF108991999999999999999999
0046029700999991924051806004+60100+019950FM-12+001499999V0200501N004119999999N0000001N9+00561+99999101481ADDAJ100009199999999GF105991999999999999999999
0029029700999991924051813004+60100+019950FM-12+001499999V0202301N003119999999N0000001N9+00941+99999101561ADDGF101991999999999999999999
0029029700999991924051820004+60100+019950FM-12+001499999V0202001N002119999999N0000001N9+00561+99999101351ADDGF107991999999999999999999
0046029700999991924051906004+60100+019950FM-12+001499999V0209991C000019999999N0000001N9+00501+99999101201ADDAJ100009199999999GF107991999999999999999999
0029029700999991924051913004+60100+019950FM-12+001499999V0202001N004119999999N0000001N9+00781+99999101201ADDGF106991999999999999999999
0035029700999991924051920004+60100+019950FM-12+001499999V0209991C000019999999N0000001N9+00441+99999100981ADDGF108991999999999999999999MW1621
0052029700999991924052006004+60100+019950FM-12+001499999V0209991C000019999999N0000001N9+00501+99999100951ADDAJ100009199999999GF108991999999999999999999MW1621
0029029700999991924052013004+60100+019950FM-12+001499999V0209991C000019999999N0000001N9+00671+99999101511ADDGF108991999999999999999999
0029029700999991924052020004+60100+019950FM-12+001499999V0200201N001019999999N0000001N9+00281+99999101861ADDGF102991999999999999999999
0046029700999991924052106004+60100+019950FM-12+001499999V0203401N002119999999N0000001N9+00671+99999102231ADDAJ100009199999999GF100991999999999999999999
0029029700999991924052113004+60100+019950FM-12+001499999V0203201N002119999999N0000001N9+01001+99999102391ADDGF100991999999999999999999
0029029700999991924052120004+60100+019950FM-12+001499999V0209991C000019999999N0000001N9+00331+99999102431ADDGF100991999999999999999999
0029029700999991924052213004+60100+019950FM-12+001499999V0202301N008719999999N0000001N9+00941+99999102301ADDGF100991999999999999999999
0029029700999991924052220004+60100+019950FM-12+001499999V0202301N004119999999N0000001N9+00501+99999101951ADDGF101991999999999999999999
0035029700999991924052313004+60100+019950FM-12+001499999V0201801N002119999999N0000001N9+00561+99999100661ADDGF108991999999999999999999MW1621
0029029700999991924052320004+60100+019950FM-12+001499999V0202301N001019999999N0000001N9+00561+99999100041ADDGF108991999999999999999999
0046029700999991924052406004+60100+019950FM-12+001499999V0202501N001019999999N0000001N9+00781+99999100191ADDAJ100009199999999GF108991999999999999999999
0029029700999991924052413004+60100+019950FM-12+001499999V0202301N003119999999N0000001N9+01171+99999100361ADDGF105991999999999999999999
0029029700999991924052420004+60100+019950FM-12+001499999V0202301N001019999999N0000001N9+00721+99999100381ADDGF100991999999999999999999
0052029700999991924052506004+60100+019950FM-12+001499999V0201401N004119999999N0000001N9+00671+99999099821ADDAJ100009199999999GF108991999999999999999999MW1621
0029029700999991924052513004+60100+019950FM-12+001499999V0202001N004119999999N0000001N9+01001+99999099481ADDGF101991999999999999999999
0029029700999991924052520004+60100+019950FM-12+001499999V0202301N005119999999N0000001N9+00671+99999099671ADDGF100991999999999999999999
0046029700999991924052606004+60100+019950FM-12+001499999V0202301N006219999999N0000001N9+00781+99999100161ADDAJ100009199999999GF100991999999999999999999
0029029700999991924052613004+60100+019950FM-12+001499999V0202301N006219999999N0000001N9+01001+99999100511ADDGF101991999999999999999999
0029029700999991924052620004+60100+019950FM-12+001499999V0202001N002119999999N0000001N9+00721+99999100601ADDGF107991999999999999999999
0046029700999991924052706004+60100+019950FM-12+001499999V0202501N004119999999N0000001N9+00891+99999100921ADDAJ100009199999999GF100991999999999999999999
0029029700999991924052713004+60100+019950FM-12+001499999V0202301N002119999999N0000001N9+01111+99999101351ADDGF100991999999999999999999
0029029700999991924052720004+60100+019950FM-12+001499999V0202301N001019999999N0000001N9+01061+99999101591ADDGF100991999999999999999999
0046029700999991924052806004+60100+019950FM-12+001499999V0202301N005119999999N0000001N9+00941+99999101751ADDAJ100009199999999GF108991999999999999999999
0029029700999991924052813004+60100+019950FM-12+001499999V0202301N001019999999N0000001N9+01111+99999101791ADDGF102991999999999999999999
0029029700999991924052820004+60100+019950FM-12+001499999V0202501N002119999999N0000001N9+01001+99999101761ADDGF104991999999999999999999
0046029700999991924052906004+60100+019950FM-12+001499999V0202901N001019999999N0000001N9+01221+99999101881ADDAJ100009199999999GF108991999999999999999999
0029029700999991924052913004+60100+019950FM-12+001499999V0200701N002119999999N0000001N9+01171+99999102121ADDGF102991999999999999999999
0029029700999991924052920004+60100+019950FM-12+001499999V0200501N001019999999N0000001N9+00781+99999102111ADDGF106991999999999999999999
0046029700999991924053006004+60100+019950FM-12+001499999V0200901N005119999999N0000001N9+00831+99999102111ADDAJ100009199999999GF108991999999999999999999
0029029700999991924053013004+60100+019950FM-12+001499999V0201101N002119999999N0000001N9+01561+99999101841ADDGF104991999999999999999999
0029029700999991924053020004+60100+019950FM-12+001499999V0201101N004119999999N0000001N9+01281+99999101201ADDGF107991999999999999999999
0046029700999991924053106004+60100+019950FM-12+001499999V0202501N001019999999N0000001N9+00941+99999100511ADDAJ100009199999999GF102991999999999999999999
0029029700999991924053113004+60100+019950FM-12+001499999V0200201N001019999999N0000001N9+01061+99999101151ADDGF108991999999999999999999
0029029700999991924053120004+60100+019950FM-12+001499999V0209991C000019999999N0000001N9+00721+99999101461ADDGF102991999999999999999999
0046029700999991924060106004+60100+019950FM-12+001499999V0209991C000019999999N0000001N9+01061+99999101661ADDAJ100009199999999GF102991999999999999999999
0029029700999991924060113004+60100+019950FM-12+001499999V0209991C000019999999N0000001N9+01281+99999101701ADDGF104991999999999999999999
0029029700999991924060120004+60100+019950FM-12+001499999V0200701N003119999999N0000001N9+00831+99999101441ADDGF107991999999999999999999
0046029700999991924060206004+60100+019950FM-12+001499999V0209991C000019999999N0000001N9+00891+99999100761ADDAJ100009199999999GF108991999999999999999999
0029029700999991924060213004+60100+019950FM-12+001499999V0201801N003119999999N0000001N9+01171+99999100541ADDGF108991999999999999999999
0029029700999991924060220004+60100+019950FM-12+001499999V0202301N004119999999N0000001N9+00891+99999999999ADDGF106991999999999999999999
0046029700999991924060306004+60100+019950FM-12+001499999V0202301N006219999999N0000001N9+00831+99999099831ADDAJ100009199999999GF105991999999999999999999
0029029700999991924060313004+60100+019950FM-12+001499999V0202301N007219999999N0000001N9+00941+99999099761ADDGF102991999999999999999999
0029029700999991924060320004+60100+019950FM-12+001499999V0202001N005119999999N0000001N9+00671+99999099621ADDGF101991999999999999999999
0046029700999991924060406004+60100+019950FM-12+001499999V0202001N002119999999N0000001N9+00831+99999099351ADDAJ100009199999999GF107991999999999999999999
0029029700999991924060413004+60100+019950FM-12+001499999V0202901N005119999999N0000001N9+00671+99999099911ADDGF108991999999999999999999
0029029700999991924060420004+60100+019950FM-12+001499999V0202301N004119999999N0000001N9+00721+99999100231ADDGF108991999999999999999999
0046029700999991924060506004+60100+019950FM-12+001499999V0203201N001019999999N0000001N9+00831+99999100521ADDAJ100009199999999GF100991999999999999999999
0029029700999991924060513004+60100+019950FM-12+001499999V0202301N001019999999N0000001N9+00831+99999100871ADDGF103991999999999999999999
0035029700999991924060520004+60100+019950FM-12+001499999V0202301N001019999999N0000001N9+00721+99999101041ADDGF108991999999999999999999MW1601
0046029700999991924060606004+60100+019950FM-12+001499999V0202301N001019999999N0000001N9+00891+99999101191ADDAJ100009199999999GF104991999999999999999999
0029029700999991924060613004+60100+019950FM-12+001499999V0201101N001019999999N0000001N9+01171+99999101501ADDGF105991999999999999999999
0029029700999991924060620004+60100+019950FM-12+001499999V0209991C000019999999N0000001N9+00501+99999101781ADDGF100991999999999999999999
0046029700999991924060706004+60100+019950FM-12+001499999V0202901N001019999999N0000001N9+00941+99999102191ADDAJ100009199999999GF100991999999999999999999
0029029700999991924060713004+60100+019950FM-12+001499999V0202301N001019999999N0000001N9+01171+99999102431ADDGF100991999999999999999999
0029029700999991924060720004+60100+019950FM-12+001499999V0202301N002119999999N0000001N9+00831+99999102351ADDGF106991999999999999999999
0046029700999991924060806004+60100+019950FM-12+001499999V0202301N003119999999N0000001N9+00891+99999102361ADDAJ100009199999999GF108991999999999999999999
0029029700999991924060813004+60100+019950FM-12+001499999V0202301N005119999999N0000001N9+01221+99999102281ADDGF104991999999999999999999
0029029700999991924060820004+60100+019950FM-12+001499999V0202301N003119999999N0000001N9+00781+99999102151ADDGF102991999999999999999999
0046029700999991924060906004+60100+019950FM-12+001499999V0209991C000019999999N0000001N9+01171+99999102021ADDAJ100009199999999GF102991999999999999999999
0029029700999991924060913004+60100+019950FM-12+001499999V0201801N001019999999N0000001N9+01561+99999101861ADDGF100991999999999999999999
0029029700999991924060920004+60100+019950FM-12+001499999V0201601N001019999999N0000001N9+01171+99999101661ADDGF101991999999999999999999
0046029700999991924061006004+60100+019950FM-12+001499999V0209991C000019999999N0000001N9+01331+99999101061ADDAJ100009199999999GF107991999999999999999999
0029029700999991924061013004+60100+019950FM-12+001499999V0202301N001019999999N0000001N9+01111+99999100721ADDGF106991999999999999999999
0029029700999991924061020004+60100+019950FM-12+001499999V0209991C000019999999N0000001N9+00941+99999100551ADDGF101991999999999999999999
0046029700999991924061106004+60100+019950FM-12+001499999V0202501N004119999999N0000001N9+01221+99999100431ADDAJ100009199999999GF103991999999999999999999
0029029700999991924061113004+60100+019950FM-12+001499999V0202301N003119999999N0000001N9+01501+99999100481ADDGF102991999999999999999999
0029029700999991924061120004+60100+019950FM-12+001499999V0209991C000019999999N0000001N9+01061+99999100501ADDGF108991999999999999999999
0046029700999991924061206004+60100+019950FM-12+001499999V0202501N002119999999N0000001N9+01171+99999100521ADDAJ100009199999999GF102991999999999999999999
0029029700999991924061213004+60100+019950FM-12+001499999V0201801N001019999999N0000001N9+01561+99999100661ADDGF104991999999999999999999
0029029700999991924061220004+60100+019950FM-12+001499999V0209991C000019999999N0000001N9+01061+99999100721ADDGF103991999999999999999999
0052029700999991924061306004+60100+019950FM-12+001499999V0200901N001019999999N0000001N9+01111+99999100631ADDAJ100009199999999GF108991999999999999999999MW1621
0035029700999991924061313004+60100+019950FM-12+001499999V0203601N003119999999N0000001N9+01061+99999100541ADDGF108991999999999999999999MW1621
0029029700999991924061320004+60100+019950FM-12+001499999V0203601N005119999999N0000001N9+00831+99999100841ADDGF108991999999999999999999
0046029700999991924061406004+60100+019950FM-12+001499999V0200501N007219999999N0000001N9+00891+99999101461ADDAJ100009199999999GF100991999999999999999999
0029029700999991924061413004+60100+019950FM-12+001499999V0200201N005119999999N0000001N9+01221+99999101741ADDGF106991999999999999999999
0029029700999991924061420004+60100+019950FM-12+001499999V0200501N002119999999N0000001N9+01001+99999101791ADDGF102991999999999999999999
0046029700999991924061506004+60100+019950FM-12+001499999V0200901N007219999999N0000001N9+01111+99999101631ADDAJ100009199999999GF106991999999999999999999
0035029700999991924061513004+60100+019950FM-12+001499999V0209991C000019999999N0000001N9+01061+99999101341ADDGF108991999999999999999999MW1621
0035029700999991924061520004+60100+019950FM-12+001499999V0200701N004119999999N0000001N9+00831+99999100901ADDGF108991999999999999999999MW1621
0046029700999991924061606004+60100+019950FM-12+001499999V0200501N001019999999N0000001N9+00891+99999100431ADDAJ100009199999999GF108991999999999999999999
0029029700999991924061613004+60100+019950FM-12+001499999V0202701N001019999999N0000001N9+00891+99999100741ADDGF108991999999999999999999
0029029700999991924061620004+60100+019950FM-12+001499999V0209991C000019999999N0000001N9+00781+99999101281ADDGF100991999999999999999999
0046029700999991924061706004+60100+019950FM-12+001499999V0202001N004119999999N0000001N9+01221+99999101701ADDAJ100009199999999GF104991999999999999999999
0029029700999991924061713004+60100+019950FM-12+001499999V0202301N003119999999N0000001N9+01441+99999101871ADDGF100991999999999999999999
0029029700999991924061720004+60100+019950FM-12+001499999V0209991C000019999999N0000001N9+01001+99999102031ADDGF101991999999999999999999
0046029700999991924061806004+60100+019950FM-12+001499999V0209991C000019999999N0000001N9+01331+99999102401ADDAJ100009199999999GF100991999999999999999999
0029029700999991924061813004+60100+019950FM-12+001499999V0209991C000019999999N0000001N9+01721+99999102511ADDGF100991999999999999999999
0029029700999991924061820004+60100+019950FM-12+001499999V0209991C000019999999N0000001N9+01171+99999102391ADDGF102991999999999999999999
0046029700999991924061906004+60100+019950FM-12+001499999V0201601N001019999999N0000001N9+01721+99999102301ADDAJ100009199999999GF100991999999999999999999
0029029700999991924061913004+60100+019950FM-12+001499999V0201601N001019999999N0000001N9+02171+99999102151ADDGF102991999999999999999999
0029029700999991924061920004+60100+019950FM-12+001499999V0209991C000019999999N0000001N9+01501+99999101941ADDGF102991999999999999999999
0046029700999991924062006004+60100+019950FM-12+001499999V0201101N001019999999N0000001N9+01781+99999101631ADDAJ100009199999999GF102991999999999999999999
0029029700999991924062013004+60100+019950FM-12+001499999V0201601N002119999999N0000001N9+01941+99999101541ADDGF104991999999999999999999
0029029700999991924062020004+60100+019950FM-12+001499999V0201801N001019999999N0000001N9+01501+99999101381ADDGF102991999999999999999999
0046029700999991924062106004+60100+019950FM-12+001499999V0209991C000019999999N0000001N9+01561+99999101221ADDAJ100009199999999GF104991999999999999999999
0029029700999991924062113004+60100+019950FM-12+001499999V0203201N003119999999N0000001N9+02061+99999101181ADDGF108991999999999999999999
0029029700999991924062120004+60100+019950FM-12+001499999V0203601N001019999999N0000001N9+01281+99999101151ADDGF102991999999999999999999
0046029700999991924062206004+60100+019950FM-12+001499999V0209991C000019999999N0000001N9+01171+99999101321ADDAJ100009199999999GF108991999999999999999999
0029029700999991924062213004+60100+019950FM-12+001499999V0202501N002119999999N0000001N9+01671+99999101351ADDGF102991999999999999999999
0029029700999991924062220004+60100+019950FM-12+001499999V0209991C000019999999N0000001N9+01441+99999101311ADDGF100991999999999999999999
0046029700999991924062306004+60100+019950FM-12+001499999V0209991C000019999999N0000001N9+01441+99999101041ADDAJ100009199999999GF108991999999999999999999
0029029700999991924062313004+60100+019950FM-12+001499999V0201801N002119999999N0000001N9+01671+99999100871ADDGF108991999999999999999999
0029029700999991924062320004+60100+019950FM-12+001499999V0202001N001019999999N0000001N9+01281+99999100581ADDGF108991999999999999999999
0046029700999991924062406004+60100+019950FM-12+001499999V0202301N003119999999N0000001N9+01171+99999100031ADDAJ100009199999999GF108991999999999999999999
0029029700999991924062413004+60100+019950FM-12+001499999V0202901N004119999999N0000001N9+01281+99999100111ADDGF107991999999999999999999
0029029700999991924062420004+60100+019950FM-12+001499999V0203201N005119999999N0000001N9+00831+99999100421ADDGF108991999999999999999999
0046029700999991924062506004+60100+019950FM-12+001499999V0203601N006219999999N0000001N9+00671+99999100681ADDAJ100009199999999GF108991999999999999999999
0029029700999991924062513004+60100+019950FM-12+001499999V0203601N005119999999N0000001N9+01221+99999101081ADDGF103991999999999999999999
0029029700999991924062520004+60100+019950FM-12+001499999V0203201N002119999999N0000001N9+00671+99999101341ADDGF102991999999999999999999
0046029700999991924062606004+60100+019950FM-12+001499999V0203201N001019999999N0000001N9+01111+99999101311ADDAJ100009199999999GF107991999999999999999999
0029029700999991924062613004+60100+019950FM-12+001499999V0202301N003119999999N0000001N9+01391+99999101231ADDGF102991999999999999999999
0029029700999991924062620004+60100+019950FM-12+001499999V0209991C000019999999N0000001N9+01001+99999101141ADDGF102991999999999999999999
0046029700999991924062706004+60100+019950FM-12+001499999V0209991C000019999999N0000001N9+01281+99999100911ADDAJ100009199999999GF103991999999999999999999
0029029700999991924062713004+60100+019950FM-12+001499999V0201601N007219999999N0000001N9+01441+99999100861ADDGF103991999999999999999999
0035029700999991924062720004+60100+019950FM-12+001499999V0201401N004119999999N0000001N9+01111+99999100041ADDGF108991999999999999999999MW1621
0046029700999991924062806004+60100+019950FM-12+001499999V0202501N002119999999N0000001N9+01111+99999099501ADDAJ100009199999999GF108991999999999999999999
0029029700999991924062813004+60100+019950FM-12+001499999V0202501N005119999999N0000001N9+01221+99999099381ADDGF108991999999999999999999
0029029700999991924062820004+60100+019950FM-12+001499999V0202501N003119999999N0000001N9+01061+99999099321ADDGF108991999999999999999999
0046029700999991924062906004+60100+019950FM-12+001499999V0202701N006219999999N0000001N9+00941+99999099471ADDAJ100009199999999GF108991999999999999999999
0029029700999991924062913004+60100+019950FM-12+001499999V0202901N007219999999N0000001N9+01391+99999099801ADDGF108991999999999999999999
0029029700999991924062920004+60100+019950FM-12+001499999V0202301N001019999999N0000001N9+01111+99999099921ADDGF101991999999999999999999
0046029700999991924063006004+60100+019950FM-12+001499999V0202501N004119999999N0000001N9+01171+99999099881ADDAJ100009199999999GF108991999999999999999999
0029029700999991924063013004+60100+019950FM-12+001499999V0202301N002119999999N0000001N9+01441+99999099941ADDGF104991999999999999999999
0029029700999991924063020004+60100+019950FM-12+001499999V0202301N003119999999N0000001N9+01111+99999099751ADDGF106991999999999999999999
0046029700999991924070106004+60100+019950FM-12+001499999V0202301N004119999999N0000001N9+01111+99999099661ADDAJ100009199999999GF102991999999999999999999
0029029700999991924070113004+60100+019950FM-12+001499999V0202301N004119999999N0000001N9+01611+99999099861ADDGF102991999999999999999999
0029029700999991924070120004+60100+019950FM-12+001499999V0202501N004119999999N0000001N9+01281+99999099991ADDGF102991999999999999999999
0046029700999991924070206004+60100+019950FM-12+001499999V0202501N004119999999N0000001N9+01001+99999999999ADDAJ100009199999999GF104991999999999999999999
0029029700999991924070213004+60100+019950FM-12+001499999V0202301N002119999999N0000001N9+01611+99999100231ADDGF101991999999999999999999
0029029700999991924070220004+60100+019950FM-12+001499999V0209991C000019999999N0000001N9+01171+99999100431ADDGF100991999999999999999999
0046029700999991924070306004+60100+019950FM-12+001499999V0209991C000019999999N0000001N9+01281+99999100631ADDAJ100009199999999GF108991999999999999999999
0029029700999991924070313004+60100+019950FM-12+001499999V0201801N003119999999N0000001N9+01281+99999100741ADDGF108991999999999999999999
0035029700999991924070320004+60100+019950FM-12+001499999V0201401N002119999999N0000001N9+01281+99999100521ADDGF108991999999999999999999MW1621
0052029700999991924070406004+60100+019950FM-12+001499999V0201601N002119999999N0000001N9+01221+99999099861ADDAJ100009199999999GF108991999999999999999999MW1621
0029029700999991924070413004+60100+019950FM-12+001499999V0202001N009819999999N0000001N9+01221+99999099781ADDGF108991999999999999999999
0029029700999991924070420004+60100+019950FM-12+001499999V0202301N002119999999N0000001N9+01061+99999099741ADDGF108991999999999999999999
0046029700999991924070506004+60100+019950FM-12+001499999V0202301N004119999999N0000001N9+01171+99999100181ADDAJ100009199999999GF108991999999999999999999
0029029700999991924070513004+60100+019950FM-12+001499999V0202301N004119999999N0000001N9+01441+99999100381ADDGF104991999999999999999999
0029029700999991924070520004+60100+019950FM-12+001499999V0202301N004119999999N0000001N9+01111+99999100261ADDGF107991999999999999999999
0046029700999991924070606004+60100+019950FM-12+001499999V0202301N005119999999N0000001N9+01171+99999100281ADDAJ100009199999999GF101991999999999999999999
0029029700999991924070613004+60100+019950FM-12+001499999V0202501N004119999999N0000001N9+01671+99999100381ADDGF102991999999999999999999
0029029700999991924070620004+60100+019950FM-12+001499999V0202501N003119999999N0000001N9+01331+99999100441ADDGF102991999999999999999999
0046029700999991924070706004+60100+019950FM-12+001499999V0209991C000019999999N0000001N9+01281+99999100351ADDAJ100009199999999GF107991999999999999999999
0029029700999991924070713004+60100+019950FM-12+001499999V0202301N001019999999N0000001N9+01441+99999100281ADDGF108991999999999999999999
0029029700999991924070720004+60100+019950FM-12+001499999V0202301N001019999999N0000001N9+01061+99999100261ADDGF100991999999999999999999
0046029700999991924070806004+60100+019950FM-12+001499999V0202301N001019999999N0000001N9+01331+99999100281ADDAJ100009199999999GF100991999999999999999999
0029029700999991924070813004+60100+019950FM-12+001499999V0202301N002119999999N0000001N9+01611+99999100301ADDGF100991999999999999999999
0029029700999991924070820004+60100+019950FM-12+001499999V0209991C000019999999N0000001N9+01281+99999100181ADDGF103991999999999999999999
0046029700999991924070906004+60100+019950FM-12+001499999V0209991C000019999999N0000001N9+01611+99999100101ADDAJ100009199999999GF104991999999999999999999
0029029700999991924070913004+60100+019950FM-12+001499999V0203201N001019999999N0000001N9+01611+99999100301ADDGF103991999999999999999999
0029029700999991924070920004+60100+019950FM-12+001499999V0209991C000019999999N0000001N9+01111+99999100581ADDGF102991999999999999999999
0046029700999991924071006004+60100+019950FM-12+001499999V0200201N001019999999N0000001N9+01561+99999100831ADDAJ100009199999999GF101991999999999999999999
0029029700999991924071013004+60100+019950FM-12+001499999V0200201N003119999999N0000001N9+01721+99999100981ADDGF101991999999999999999999
0029029700999991924071020004+60100+019950FM-12+001499999V0209991C000019999999N0000001N9+01061+99999101111ADDGF100991999999999999999999
0046029700999991924071106004+60100+019950FM-12+001499999V0203601N002119999999N0000001N9+01441+99999101381ADDAJ100009199999999GF100991999999999999999999
0029029700999991924071113004+60100+019950FM-12+001499999V0203201N004119999999N0000001N9+01721+99999101631ADDGF100991999999999999999999
0029029700999991924071120004+60100+019950FM-12+001499999V0209991C000019999999N0000001N9+01171+99999101671ADDGF100991999999999999999999
0046029700999991924071206004+60100+019950FM-12+001499999V0209991C000019999999N0000001N9+01501+99999101681ADDAJ100009199999999GF100991999999999999999999
0029029700999991924071213004+60100+019950FM-12+001499999V0202301N003119999999N0000001N9+01781+99999101741ADDGF100991999999999999999999
0029029700999991924071220004+60100+019950FM-12+001499999V0209991C000019999999N0000001N9+01111+99999101781ADDGF100991999999999999999999
0046029700999991924071306004+60100+019950FM-12+001499999V0209991C000019999999N0000001N9+01561+99999101801ADDAJ100009199999999GF100991999999999999999999
0029029700999991924071313004+60100+019950FM-12+001499999V0202301N001019999999N0000001N9+01941+99999101661ADDGF100991999999999999999999
0029029700999991924071320004+60100+019950FM-12+001499999V0209991C000019999999N0000001N9+01501+99999101521ADDGF101991999999999999999999
0046029700999991924071406004+60100+019950FM-12+001499999V0202301N001019999999N0000001N9+01671+99999101201ADDAJ100009199999999GF100991999999999999999999
0029029700999991924071413004+60100+019950FM-12+001499999V0202001N001019999999N0000001N9+01831+99999101111ADDGF100991999999999999999999
0029029700999991924071420004+60100+019950FM-12+001499999V0209991C000019999999N0000001N9+01281+99999100981ADDGF100991999999999999999999
0046029700999991924071506004+60100+019950FM-12+001499999V0203201N001019999999N0000001N9+01611+99999100981ADDAJ100009199999999GF102991999999999999999999
0029029700999991924071513004+60100+019950FM-12+001499999V0203201N007219999999N0000001N9+02001+99999101071ADDGF100991999999999999999999
0029029700999991924071520004+60100+019950FM-12+001499999V0203401N002119999999N0000001N9+01331+99999101271ADDGF100991999999999999999999
0046029700999991924071606004+60100+019950FM-12+001499999V0209991C000019999999N0000001N9+01611+99999101321ADDAJ100009199999999GF100991999999999999999999
0029029700999991924071613004+60100+019950FM-12+001499999V0209991C000019999999N0000001N9+01941+99999101321ADDGF101991999999999999999999
0029029700999991924071620004+60100+019950FM-12+001499999V0209991C000019999999N0000001N9+01391+99999101181ADDGF100991999999999999999999
0046029700999991924071706004+60100+019950FM-12+001499999V0209991C000019999999N0000001N9+01671+99999101121ADDAJ100009199999999GF100991999999999999999999
0029029700999991924071713004+60100+019950FM-12+001499999V0209991C000019999999N0000001N9+01941+99999101031ADDGF100991999999999999999999
0029029700999991924071720004+60100+019950FM-12+001499999V0202001N001019999999N0000001N9+01441+99999100981ADDGF101991999999999999999999
0046029700999991924071806004+60100+019950FM-12+001499999V0202001N003119999999N0000001N9+01671+99999100881ADDAJ100009199999999GF100991999999999999999999
0029029700999991924071813004+60100+019950FM-12+001499999V0202301N005119999999N0000001N9+02001+99999100911ADDGF100991999999999999999999
0029029700999991924071820004+60100+019950FM-12+001499999V0209991C000019999999N0000001N9+01721+99999100801ADDGF100991999999999999999999
0046029700999991924071906004+60100+019950FM-12+001499999V0200901N005119999999N0000001N9+01941+99999100641ADDAJ100009199999999GF100991999999999999999999
0029029700999991924071913004+60100+019950FM-12+001499999V0201101N006219999999N0000001N9+02171+99999100711ADDGF100991999999999999999999
0029029700999991924071920004+60100+019950FM-12+001499999V0201101N003119999999N0000001N9+01781+99999100591ADDGF101991999999999999999999
0046029700999991924072006004+60100+019950FM-12+001499999V0209991C000019999999N0000001N9+01671+99999100791ADDAJ100009199999999GF104991999999999999999999
0029029700999991924072013004+60100+019950FM-12+001499999V0201601N002119999999N0000001N9+01781+99999101081ADDGF101991999999999999999999
0029029700999991924072020004+60100+019950FM-12+001499999V0209991C000019999999N0000001N9+01331+99999101221ADDGF101991999999999999999999
0046029700999991924072106004+60100+019950FM-12+001499999V0209991C000019999999N0000001N9+01561+99999101401ADDAJ100009199999999GF102991999999999999999999
0029029700999991924072113004+60100+019950FM-12+001499999V0203201N005119999999N0000001N9+02171+99999101501ADDGF101991999999999999999999
0029029700999991924072120004+60100+019950FM-12+001499999V0209991C000019999999N0000001N9+01611+99999101461ADDGF101991999999999999999999
0046029700999991924072206004+60100+019950FM-12+001499999V0209991C000019999999N0000001N9+01941+99999101461ADDAJ100009199999999GF100991999999999999999999
0029029700999991924072213004+60100+019950FM-12+001499999V0209991C000019999999N0000001N9+02391+99999101421ADDGF100991999999999999999999
0029029700999991924072220004+60100+019950FM-12+001499999V0209991C000019999999N0000001N9+01721+99999101221ADDGF101991999999999999999999
0046029700999991924072306004+60100+019950FM-12+001499999V0209991C000019999999N0000001N9+01831+99999101001ADDAJ100009199999999GF107991999999999999999999
0029029700999991924072313004+60100+019950FM-12+001499999V0202001N001019999999N0000001N9+02061+99999100871ADDGF100991999999999999999999
0029029700999991924072320004+60100+019950FM-12+001499999V0209991C000019999999N0000001N9+01721+99999100521ADDGF105991999999999999999999
0046029700999991924072406004+60100+019950FM-12+001499999V0201401N001019999999N0000001N9+02001+99999100101ADDAJ100009199999999GF106991999999999999999999
0029029700999991924072413004+60100+019950FM-12+001499999V0201401N005119999999N0000001N9+02281+99999100041ADDGF104991999999999999999999
0029029700999991924072420004+60100+019950FM-12+001499999V0200901N005119999999N0000001N9+01941+99999099981ADDGF102991999999999999999999
0052029700999991924072506004+60100+019950FM-12+001499999V0201401N001019999999N0000001N9+01671+99999100151ADDAJ100009199999999GF108991999999999999999999MW1621
0035029700999991924072513004+60100+019950FM-12+001499999V0209991C000019999999N0000001N9+01671+99999100541ADDGF108991999999999999999999MW1601
0029029700999991924072520004+60100+019950FM-12+001499999V0201101N001019999999N0000001N9+01611+99999100551ADDGF108991999999999999999999
0046029700999991924072606004+60100+019950FM-12+001499999V0200901N003119999999N0000001N9+01721+99999100591ADDAJ100009199999999GF108991999999999999999999
0029029700999991924072613004+60100+019950FM-12+001499999V0201401N003119999999N0000001N9+01831+99999100861ADDGF108991999999999999999999
0029029700999991924072620004+60100+019950FM-12+001499999V0209991C000019999999N0000001N9+01671+99999100991ADDGF108991999999999999999999
0046029700999991924072706004+60100+019950FM-12+001499999V0201601N001019999999N0000001N9+01831+99999100941ADDAJ100009199999999GF101991999999999999999999
0029029700999991924072713004+60100+019950FM-12+001499999V0209991C000019999999N0000001N9+02221+99999100991ADDGF102991999999999999999999
0029029700999991924072720004+60100+019950FM-12+001499999V0202301N001019999999N0000001N9+01671+99999100941ADDGF101991999999999999999999
0046029700999991924072806004+60100+019950FM-12+001499999V0203601N001019999999N0000001N9+01831+99999100541ADDAJ100009199999999GF105991999999999999999999
0029029700999991924072813004+60100+019950FM-12+001499999V0200901N003119999999N0000001N9+02111+99999100591ADDGF106991999999999999999999
0029029700999991924072820004+60100+019950FM-12+001499999V0200901N001019999999N0000001N9+01671+99999100601ADDGF107991999999999999999999
0046029700999991924072906004+60100+019950FM-12+001499999V0201401N001019999999N0000001N9+01561+99999100561ADDAJ100009199999999GF102991999999999999999999
0029029700999991924072913004+60100+019950FM-12+001499999V0209991C000019999999N0000001N9+02061+99999100741ADDGF102991999999999999999999
0029029700999991924072920004+60100+019950FM-12+001499999V0209991C000019999999N0000001N9+01561+99999100801ADDGF101991999999999999999999
0046029700999991924073006004+60100+019950FM-12+001499999V0209991C000019999999N0000001N9+01831+99999100881ADDAJ100009199999999GF100991999999999999999999
0029029700999991924073013004+60100+019950FM-12+001499999V0201101N001019999999N0000001N9+02441+99999100981ADDGF101991999999999999999999
0029029700999991924073020004+60100+019950FM-12+001499999V0209991C000019999999N0000001N9+01721+99999101061ADDGF100991999999999999999999
0046029700999991924073106004+60100+019950FM-12+001499999V0209991C000019999999N0000001N9+01941+99999101161ADDAJ100009199999999GF100991999999999999999999
0029029700999991924073113004+60100+019950FM-12+001499999V0209991C000019999999N0000001N9+02441+99999101271ADDGF101991999999999999999999
0029029700999991924073120004+60100+019950FM-12+001499999V0209991C000019999999N0000001N9+01561+99999101241ADDGF100991999999999999999999
0046029700999991924080106004+60100+019950FM-12+001499999V0209991C000019999999N0000001N9+01941+99999101221ADDAJ100009199999999GF100991999999999999999999
0029029700999991924080113004+60100+019950FM-12+001499999V0209991C000019999999N0000001N9+02281+99999101271ADDGF100991999999999999999999
0029029700999991924080120004+60100+019950FM-12+001499999V0209991C000019999999N0000001N9+01721+99999101231ADDGF100991999999999999999999
0046029700999991924080206004+60100+019950FM-12+001499999V0209991C000019999999N0000001N9+01941+99999101191ADDAJ100009199999999GF102991999999999999999999
0029029700999991924080213004+60100+019950FM-12+001499999V0202501N001019999999N0000001N9+02331+99999101161ADDGF101991999999999999999999
0029029700999991924080220004+60100+019950FM-12+001499999V0209991C000019999999N0000001N9+01611+99999101151ADDGF100991999999999999999999
0046029700999991924080306004+60100+019950FM-12+001499999V0209991C000019999999N0000001N9+01941+99999101081ADDAJ100009199999999GF101991999999999999999999
0029029700999991924080313004+60100+019950FM-12+001499999V0201801N003119999999N0000001N9+02061+99999101081ADDGF105991999999999999999999
0029029700999991924080320004+60100+019950FM-12+001499999V0209991C000019999999N0000001N9+01941+99999101001ADDGF106991999999999999999999
0046029700999991924080406004+60100+019950FM-12+001499999V0209991C000019999999N0000001N9+01941+99999100901ADDAJ100009199999999GF108991999999999999999999
0029029700999991924080413004+60100+019950FM-12+001499999V0201401N005119999999N0000001N9+02281+99999100761ADDGF103991999999999999999999
0029029700999991924080420004+60100+019950FM-12+001499999V0201401N005119999999N0000001N9+02171+99999100621ADDGF108991999999999999999999
0052029700999991924080506004+60100+019950FM-12+001499999V0209991C000019999999N0000001N9+01831+99999100621ADDAJ100009199999999GF108991999999999999999999MW1621
0035029700999991924080513004+60100+019950FM-12+001499999V0209991C000019999999N0000001N9+01721+99999100751ADDGF108991999999999999999999MW1621
0029029700999991924080520004+60100+019950FM-12+001499999V0201801N001019999999N0000001N9+01671+99999100741ADDGF108991999999999999999999
0046029700999991924080606004+60100+019950FM-12+001499999V0202001N006219999999N0000001N9+01781+99999100401ADDAJ100009199999999GF108991999999999999999999
0029029700999991924080613004+60100+019950FM-12+001499999V0202001N007219999999N0000001N9+01781+99999100351ADDGF107991999999999999999999
0029029700999991924080620004+60100+019950FM-12+001499999V0202301N004119999999N0000001N9+01611+99999100361ADDGF104991999999999999999999
0046029700999991924080706004+60100+019950FM-12+001499999V0202501N008219999999N0000001N9+01501+99999100561ADDAJ100009199999999GF103991999999999999999999
0029029700999991924080713004+60100+019950FM-12+001499999V0202501N008219999999N0000001N9+01891+99999100881ADDGF100991999999999999999999
0029029700999991924080720004+60100+019950FM-12+001499999V0202501N008719999999N0000001N9+01671+99999101071ADDGF100991999999999999999999
0046029700999991924080806004+60100+019950FM-12+001499999V0202501N006219999999N0000001N9+01441+99999101271ADDAJ100009199999999GF101991999999999999999999
0029029700999991924080813004+60100+019950FM-12+001499999V0202301N004119999999N0000001N9+01721+99999101401ADDGF105991999999999999999999
0029029700999991924080820004+60100+019950FM-12+001499999V0209991C000019999999N0000001N9+01281+99999101551ADDGF100991999999999999999999
0046029700999991924080906004+60100+019950FM-12+001499999V0203401N001019999999N0000001N9+01501+99999102061ADDAJ100009199999999GF102991999999999999999999
0029029700999991924080913004+60100+019950FM-12+001499999V0203401N006219999999N0000001N9+01721+99999102421ADDGF101991999999999999999999
0029029700999991924080920004+60100+019950FM-12+001499999V0209991C000019999999N0000001N9+00941+99999102351ADDGF100991999999999999999999
0046029700999991924081006004+60100+019950FM-12+001499999V0202901N001019999999N0000001N9+01611+99999102101ADDAJ100009199999999GF100991999999999999999999
0029029700999991924081013004+60100+019950FM-12+001499999V0202301N003119999999N0000001N9+02061+99999101901ADDGF100991999999999999999999
0029029700999991924081020004+60100+019950FM-12+001499999V0209991C000019999999N0000001N9+01671+99999101721ADDGF101991999999999999999999
0046029700999991924081106004+60100+019950FM-12+001499999V0202501N003119999999N0000001N9+01561+99999101471ADDAJ100009199999999GF106991999999999999999999
0029029700999991924081113004+60100+019950FM-12+001499999V0202301N003119999999N0000001N9+01831+99999101361ADDGF101991999999999999999999
0029029700999991924081120004+60100+019950FM-12+001499999V0202701N001019999999N0000001N9+01671+99999101301ADDGF104991999999999999999999
0046029700999991924081206004+60100+019950FM-12+001499999V0202501N002119999999N0000001N9+01561+99999101351ADDAJ100009199999999GF104991999999999999999999
0029029700999991924081213004+60100+019950FM-12+001499999V0202301N004119999999N0000001N9+01941+99999101401ADDGF100991999999999999999999
0029029700999991924081220004+60100+019950FM-12+001499999V0202301N003119999999N0000001N9+01671+99999101401ADDGF100991999999999999999999
0046029700999991924081306004+60100+019950FM-12+001499999V0202001N001019999999N0000001N9+01721+99999101471ADDAJ100009199999999GF102991999999999999999999
0029029700999991924081313004+60100+019950FM-12+001499999V0202001N003119999999N0000001N9+02171+99999101471ADDGF100991999999999999999999
0029029700999991924081320004+60100+019950FM-12+001499999V0201601N003119999999N0000001N9+01781+99999101481ADDGF101991999999999999999999
0046029700999991924081406004+60100+019950FM-12+001499999V0201601N001019999999N0000001N9+01941+99999101231ADDAJ100009199999999GF100991999999999999999999
0029029700999991924081413004+60100+019950FM-12+001499999V0201401N003119999999N0000001N9+02061+99999101151ADDGF100991999999999999999999
0029029700999991924081420004+60100+019950FM-12+001499999V0201601N001019999999N0000001N9+01941+99999101101ADDGF100991999999999999999999
0046029700999991924081506004+60100+019950FM-12+001499999V0201601N003119999999N0000001N9+02001+99999100951ADDAJ100009199999999GF100991999999999999999999
0029029700999991924081513004+60100+019950FM-12+001499999V0202301N005119999999N0000001N9+02221+99999100961ADDGF100991999999999999999999
0029029700999991924081520004+60100+019950FM-12+001499999V0201601N001019999999N0000001N9+02001+99999100821ADDGF100991999999999999999999
0046029700999991924081606004+60100+019950FM-12+001499999V0201401N005119999999N0000001N9+01941+99999100581ADDAJ100009199999999GF100991999999999999999999
0029029700999991924081613004+60100+019950FM-12+001499999V0201401N007219999999N0000001N9+02061+99999100671ADDGF103991999999999999999999
0029029700999991924081620004+60100+019950FM-12+001499999V0202301N003119999999N0000001N9+01721+99999100711ADDGF103991999999999999999999
0046029700999991924081706004+60100+019950FM-12+001499999V0209991C000019999999N0000001N9+01561+99999101241ADDAJ100009199999999GF100991999999999999999999
0029029700999991924081713004+60100+019950FM-12+001499999V0201401N001019999999N0000001N9+02001+99999101281ADDGF101991999999999999999999
0029029700999991924081720004+60100+019950FM-12+001499999V0201801N001019999999N0000001N9+01611+99999101111ADDGF100991999999999999999999
0046029700999991924081806004+60100+019950FM-12+001499999V0201401N004119999999N0000001N9+01891+99999100781ADDAJ100009199999999GF104991999999999999999999
0029029700999991924081813004+60100+019950FM-12+001499999V0201601N008219999999N0000001N9+02111+99999100591ADDGF102991999999999999999999
0029029700999991924081820004+60100+019950FM-12+001499999V0201101N003119999999N0000001N9+01831+99999100221ADDGF102991999999999999999999
0046029700999991924081906004+60100+019950FM-12+001499999V0202001N004119999999N0000001N9+01721+99999100221ADDAJ100009199999999GF106991999999999999999999
0029029700999991924081913004+60100+019950FM-12+001499999V0202301N005119999999N0000001N9+02001+99999100391ADDGF106991999999999999999999
0029029700999991924081920004+60100+019950FM-12+001499999V0202301N003119999999N0000001N9+01501+99999100361ADDGF108991999999999999999999
0046029700999991924082006004+60100+019950FM-12+001499999V0209991C000019999999N0000001N9+01561+99999100501ADDAJ100009199999999GF108991999999999999999999
0029029700999991924082013004+60100+019950FM-12+001499999V0201601N001019999999N0000001N9+01671+99999100681ADDGF108991999999999999999999
0029029700999991924082020004+60100+019950FM-12+001499999V0209991C000019999999N0000001N9+01281+99999100381ADDGF108991999999999999999999
0046029700999991924082106004+60100+019950FM-12+001499999V0202501N004119999999N0000001N9+01441+99999100071ADDAJ100009199999999GF103991999999999999999999
0029029700999991924082113004+60100+019950FM-12+001499999V0202301N006219999999N0000001N9+01721+99999100161ADDGF106991999999999999999999
0029029700999991924082120004+60100+019950FM-12+001499999V0202501N004119999999N0000001N9+01501+99999100201ADDGF100991999999999999999999
0046029700999991924082206004+60100+019950FM-12+001499999V0209991C000019999999N0000001N9+01391+99999100141ADDAJ100009199999999GF100991999999999999999999
0029029700999991924082213004+60100+019950FM-12+001499999V0202501N001019999999N0000001N9+01891+99999100341ADDGF101991999999999999999999
0029029700999991924082220004+60100+019950FM-12+001499999V0202301N003119999999N0000001N9+01561+99999100341ADDGF100991999999999999999999
0046029700999991924082306004+60100+019950FM-12+001499999V0202501N002119999999N0000001N9+01501+99999100581ADDAJ100009199999999GF102991999999999999999999
0029029700999991924082313004+60100+019950FM-12+001499999V0202501N001019999999N0000001N9+01831+99999100761ADDGF101991999999999999999999
0029029700999991924082320004+60100+019950FM-12+001499999V0209991C000019999999N0000001N9+01171+99999100861ADDGF100991999999999999999999
0046029700999991924082406004+60100+019950FM-12+001499999V0200501N003119999999N0000001N9+01391+99999100881ADDAJ100009199999999GF106991999999999999999999
0029029700999991924082413004+60100+019950FM-12+001499999V0203601N005119999999N0000001N9+01671+99999100881ADDGF106991999999999999999999
0029029700999991924082420004+60100+019950FM-12+001499999V0200701N004119999999N0000001N9+01281+99999100871ADDGF106991999999999999999999
0046029700999991924082506004+60100+019950FM-12+001499999V0200201N001019999999N0000001N9+01221+99999100901ADDAJ100009199999999GF106991999999999999999999
0029029700999991924082513004+60100+019950FM-12+001499999V0203601N003119999999N0000001N9+01441+99999100941ADDGF107991999999999999999999
0029029700999991924082520004+60100+019950FM-12+001499999V0209991C000019999999N0000001N9+00941+99999101001ADDGF100991999999999999999999
0046029700999991924082606004+60100+019950FM-12+001499999V0209991C000019999999N0000001N9+01171+99999101031ADDAJ100009199999999GF101991999999999999999999
0029029700999991924082613004+60100+019950FM-12+001499999V0203601N005119999999N0000001N9+01671+99999101101ADDGF106991999999999999999999
0029029700999991924082620004+60100+019950FM-12+001499999V0209991C000019999999N0000001N9+01001+99999101201ADDGF100991999999999999999999
0046029700999991924082706004+60100+019950FM-12+001499999V0209991C000019999999N0000001N9+01171+99999101271ADDAJ100009199999999GF102991999999999999999999
0035029700999991924082713004+60100+019950FM-12+001499999V0209991C000019999999N0000001N9+01441+99999101361ADDGF106991999999999999999999MW1601
0029029700999991924082720004+60100+019950FM-12+001499999V0209991C000019999999N0000001N9+00831+99999101401ADDGF101991999999999999999999
0046029700999991924082806004+60100+019950FM-12+001499999V0209991C000019999999N0000001N9+01061+99999101541ADDAJ100009199999999GF101991999999999999999999
0029029700999991924082813004+60100+019950FM-12+001499999V0202301N001019999999N0000001N9+01781+99999101631ADDGF105991999999999999999999
0029029700999991924082820004+60100+019950FM-12+001499999V0209991C000019999999N0000001N9+00941+99999101671ADDGF101991999999999999999999
