0029029350999991922010106004+62233+025733FM-12+009499999V0202301N001019999999N0000001N9-00831+99999098311ADDGF108991999999999999999999
0029029350999991922010113004+62233+025733FM-12+009499999V0201401N001019999999N0000001N9-00941+99999098081ADDGF108991999999999999999999
0035029350999991922010120004+62233+025733FM-12+009499999V0201601N003119999999N0000001N9-01001+99999097271ADDGF108991999999999999999999MW1721
0035029350999991922010206004+62233+025733FM-12+009499999V0201801N005119999999N0000001N9-00501+99999095511ADDGF108991999999999999999999MW1721
0035029350999991922010213004+62233+025733FM-12+009499999V0201801N001019999999N0000001N9-00331+99999095121ADDGF108991999999999999999999MW1721
0048029350999991922010220004+62233+025733FM-12+009499999V0201401N001019999999N0000001N9-00721+99999999999ADDGF108991999999999999999999EQDQ01 104873APOSLP
0029029350999991922010306004+62233+025733FM-12+009499999V0200901N001019999999N0000001N9-00781+99999095021ADDGF108991999999999999999999
0035029350999991922010313004+62233+025733FM-12+009499999V0203601N001019999999N0000001N9-00831+99999095341ADDGF108991999999999999999999MW1721
0029029350999991922010320004+62233+025733FM-12+009499999V0203401N001019999999N0000001N9-00721+99999095591ADDGF108991999999999999999999
0029029350999991922010406004+62233+025733FM-12+009499999V0203601N001019999999N0000001N9-01061+99999095841ADDGF108991999999999999999999
0035029350999991922010413004+62233+025733FM-12+009499999V0209991C000019999999N0000001N9-01061+99999096551ADDGF108991999999999999999999MW1721
0029029350999991922010420004+62233+025733FM-12+009499999V0209991C000019999999N0000001N9-01391+99999097261ADDGF108991999999999999999999
0029029350999991922010506004+62233+025733FM-12+009499999V0202501N005119999999N0000001N9-01171+99999098201ADDGF108991999999999999999999
0029029350999991922010513004+62233+025733FM-12+009499999V0202901N001019999999N0000001N9-00831+99999098781ADDGF108991999999999999999999
0029029350999991922010520004+62233+025733FM-12+009499999V0200501N001019999999N0000001N9-00781+99999099181ADDGF108991999999999999999999
0029029350999991922010606004+62233+025733FM-12+009499999V0200501N005119999999N0000001N9-00941+99999099221ADDGF108991999999999999999999
0029029350999991922010613004+62233+025733FM-12+009499999V0200501N008719999999N0000001N9-00721+99999099061ADDGF108991999999999999999999
0029029350999991922010620004+62233+025733FM-12+009499999V0203601N007219999999N0000001N9-00781+99999099061ADDGF108991999999999999999999
0029029350999991922010706004+62233+025733FM-12+009499999V0203601N005119999999N0000001N9-00781+99999099121ADDGF108991999999999999999999
0035029350999991922010713004+62233+025733FM-12+009499999V0203601N001019999999N0000001N9-01061+99999099361ADDGF106991999999999999999999MW1721
0035029350999991922010720004+62233+025733FM-12+009499999V0203601N001019999999N0000001N9-01171+99999099601ADDGF108991999999999999999999MW1721
0029029350999991922010806004+62233+025733FM-12+009499999V0203201N001019999999N0000001N9-00891+99999099801ADDGF108991999999999999999999
0029029350999991922010813004+62233+025733FM-12+009499999V0202901N001019999999N0000001N9-01061+99999099921ADDGF106991999999999999999999
0035029350999991922010820004+62233+025733FM-12+009499999V0209991C000019999999N0000001N9-00891+99999099741ADDGF108991999999999999999999MW1721
0035029350999991922010906004+62233+025733FM-12+009499999V0201801N007219999999N0000001N9-00281+99999099861ADDGF108991999999999999999999MW1721
0035029350999991922010913004+62233+025733FM-12+009499999V0201801N005119999999N0000001N9-00281+99999100221ADDGF108991999999999999999999MW1721
0029029350999991922010920004+62233+025733FM-12+009499999V0201801N007219999999N0000001N9-00441+99999100441ADDGF108991999999999999999999
0029029350999991922011006004+62233+025733FM-12+009499999V0201401N008719999999N0000001N9-00831+99999099841ADDGF108991999999999999999999
0035029350999991922011013004+62233+025733FM-12+009499999V0200501N007219999999N0000001N9-01111+99999099101ADDGF108991999999999999999999MW1721
0035029350999991922011020004+62233+025733FM-12+009499999V0201401N007219999999N0000001N9-00831+99999098621ADDGF108991999999999999999999MW1721
0035029350999991922011106004+62233+025733FM-12+009499999V0200901N005119999999N0000001N9-01001+99999098591ADDGF108991999999999999999999MW1721
0035029350999991922011113004+62233+025733FM-12+009499999V0201101N003119999999N0000001N9-00941+99999098641ADDGF108991999999999999999999MW1721
0035029350999991922011120004+62233+025733FM-12+009499999V0201101N001019999999N0000001N9-01061+99999098951ADDGF108991999999999999999999MW1721
0035029350999991922011206004+62233+025733FM-12+009499999V0200901N005119999999N0000001N9-00891+99999099591ADDGF108991999999999999999999MW1721
0035029350999991922011213004+62233+025733FM-12+009499999V0200901N001019999999N0000001N9-00671+99999098951ADDGF108991999999999999999999MW1721
0029029350999991922011220004+62233+025733FM-12+009499999V0201401N003119999999N0000001N9-00721+99999100941ADDGF108991999999999999999999
0029029350999991922011306004+62233+025733FM-12+009499999V0201101N001019999999N0000001N9-00721+99999101621ADDGF108991999999999999999999
0029029350999991922011313004+62233+025733FM-12+009499999V0200901N001019999999N0000001N9-00611+99999101951ADDGF108991999999999999999999
0029029350999991922011320004+62233+025733FM-12+009499999V0200901N001019999999N0000001N9-00721+99999102161ADDGF108991999999999999999999
0029029350999991922011406004+62233+025733FM-12+009499999V0200201N001019999999N0000001N9-01171+99999102151ADDGF102991999999999999999999
0029029350999991922011413004+62233+025733FM-12+009499999V0200501N001019999999N0000001N9-00941+99999102071ADDGF108991999999999999999999
0029029350999991922011420004+62233+025733FM-12+009499999V0200701N001019999999N0000001N9-00831+99999102031ADDGF108991999999999999999999
0029029350999991922011506004+62233+025733FM-12+009499999V0200501N005119999999N0000001N9-01281+99999102021ADDGF100991999999999999999999
0029029350999991922011513004+62233+025733FM-12+009499999V0200901N003119999999N0000001N9-01331+99999101991ADDGF100991999999999999999999
0029029350999991922011520004+62233+025733FM-12+009499999V0209991C000019999999N0000001N9-01671+99999101841ADDGF100991999999999999999999
0029029350999991922011606004+62233+025733FM-12+009499999V0200901N001019999999N0000001N9-01941+99999101511ADDGF100991999999999999999999
0029029350999991922011613004+62233+025733FM-12+009499999V0200501N001019999999N0000001N9-01941+99999101121ADDGF103991999999999999999999
0035029350999991922011620004+62233+025733FM-12+009499999V0200901N001019999999N0000001N9-01441+99999100721ADDGF108991999999999999999999MW1721
0029029350999991922011706004+62233+025733FM-12+009499999V0200901N005119999999N0000001N9-01501+99999100861ADDGF108991999999999999999999
0029029350999991922011713004+62233+025733FM-12+009499999V0200901N005119999999N0000001N9-01501+99999101151ADDGF108991999999999999999999
0029029350999991922011720004+62233+025733FM-12+009499999V0200501N001019999999N0000001N9-01501+99999101191ADDGF108991999999999999999999
0029029350999991922011806004+62233+025733FM-12+009499999V0200901N001019999999N0000001N9-01561+99999101201ADDGF107991999999999999999999
0035029350999991922011813004+62233+025733FM-12+009499999V0200901N001019999999N0000001N9-01501+99999101241ADDGF107991999999999999999999MW1721
0035029350999991922011820004+62233+025733FM-12+009499999V0209991C000019999999N0000001N9-01501+99999101341ADDGF108991999999999999999999MW1721
0035029350999991922011906004+62233+025733FM-12+009499999V0200901N001019999999N0000001N9-01561+99999101381ADDGF108991999999999999999999MW1721
0035029350999991922011913004+62233+025733FM-12+009499999V0200901N001019999999N0000001N9-01221+99999101341ADDGF107991999999999999999999MW1721
0029029350999991922011920004+62233+025733FM-12+009499999V0209991C000019999999N0000001N9-01221+99999101441ADDGF108991999999999999999999
0029029350999991922012006004+62233+025733FM-12+009499999V0200901N001019999999N0000001N9-01391+99999101781ADDGF108991999999999999999999
0029029350999991922012013004+62233+025733FM-12+009499999V0200901N001019999999N0000001N9-01671+99999102001ADDGF106991999999999999999999
0029029350999991922012020004+62233+025733FM-12+009499999V0209991C000019999999N0000001N9-01941+99999102271ADDGF100991999999999999999999
0029029350999991922012106004+62233+025733FM-12+009499999V0200901N001019999999N0000001N9-02061+99999102591ADDGF100991999999999999999999
0035029350999991922012113004+62233+025733FM-12+009499999V0200901N001019999999N0000001N9-01501+99999102831ADDGF108991999999999999999999MW1721
0029029350999991922012120004+62233+025733FM-12+009499999V0201801N001019999999N0000001N9-01441+99999102981ADDGF106991999999999999999999
0029029350999991922012206004+62233+025733FM-12+009499999V0201801N005119999999N0000001N9-01441+99999103041ADDGF108991999999999999999999
0035029350999991922012213004+62233+025733FM-12+009499999V0201801N001019999999N0000001N9-01171+99999103141ADDGF108991999999999999999999MW1721
0029029350999991922012220004+62233+025733FM-12+009499999V0201401N003119999999N0000001N9-00941+99999103201ADDGF108991999999999999999999
0029029350999991922012306004+62233+025733FM-12+009499999V0201801N001019999999N0000001N9-00561+99999103201ADDGF108991999999999999999999
0029029350999991922012313004+62233+025733FM-12+009499999V0202701N001019999999N0000001N9-00501+99999103141ADDGF104991999999999999999999
0029029350999991922012320004+62233+025733FM-12+009499999V0202701N001019999999N0000001N9-01171+99999102901ADDGF100991999999999999999999
0029029350999991922012406004+62233+025733FM-12+009499999V0202701N001019999999N0000001N9-00671+99999102391ADDGF108991999999999999999999
0029029350999991922012413004+62233+025733FM-12+009499999V0203601N001019999999N0000001N9-00721+99999102541ADDGF106991999999999999999999
0035029350999991922012420004+62233+025733FM-12+009499999V0209991C000019999999N0000001N9-01001+99999102831ADDGF108991999999999999999999MW1721
0029029350999991922012506004+62233+025733FM-12+009499999V0201401N001019999999N0000001N9-01061+99999102721ADDGF108991999999999999999999
0029029350999991922012513004+62233+025733FM-12+009499999V0201101N001019999999N0000001N9-00891+99999102461ADDGF108991999999999999999999
0029029350999991922012520004+62233+025733FM-12+009499999V0200901N001019999999N0000001N9-00781+99999102241ADDGF108991999999999999999999
0029029350999991922012606004+62233+025733FM-12+009499999V0200901N001019999999N0000001N9-01001+99999101871ADDGF108991999999999999999999
0029029350999991922012613004+62233+025733FM-12+009499999V0203601N001019999999N0000001N9-00831+99999101721ADDGF102991999999999999999999
0029029350999991922012620004+62233+025733FM-12+009499999V0203401N003119999999N0000001N9-00671+99999101541ADDGF108991999999999999999999
0029029350999991922012706004+62233+025733FM-12+009499999V0200501N001019999999N0000001N9-00671+99999101221ADDGF108991999999999999999999
0029029350999991922012713004+62233+025733FM-12+009499999V0200501N001019999999N0000001N9-00671+99999101141ADDGF108991999999999999999999
0029029350999991922012720004+62233+025733FM-12+009499999V0200501N001019999999N0000001N9-00671+99999101101ADDGF108991999999999999999999
0029029350999991922012806004+62233+025733FM-12+009499999V0200501N001019999999N0000001N9-00721+99999100901ADDGF108991999999999999999999
0029029350999991922012813004+62233+025733FM-12+009499999V0203201N001019999999N0000001N9-00501+99999100791ADDGF108991999999999999999999
0035029350999991922012820004+62233+025733FM-12+009499999V0202701N003119999999N0000001N9-00561+99999100641ADDGF108991999999999999999999MW1701
0029029350999991922012906004+62233+025733FM-12+009499999V0202701N005119999999N0000001N9-00721+99999100401ADDGF108991999999999999999999
0029029350999991922012913004+62233+025733FM-12+009499999V0202901N001019999999N0000001N9-00671+99999100381ADDGF108991999999999999999999
0029029350999991922012920004+62233+025733FM-12+009499999V0202901N001019999999N0000001N9-00781+99999100361ADDGF108991999999999999999999
0029029350999991922013006004+62233+025733FM-12+009499999V0202701N005119999999N0000001N9-00781+99999100111ADDGF108991999999999999999999
0029029350999991922013013004+62233+025733FM-12+009499999V0202701N005119999999N0000001N9-00611+99999099911ADDGF108991999999999999999999
0029029350999991922013020004+62233+025733FM-12+009499999V0202301N003119999999N0000001N9-00501+99999099741ADDGF108991999999999999999999
0029029350999991922013106004+62233+025733FM-12+009499999V0202701N001019999999N0000001N9-00671+99999099741ADDGF108991999999999999999999
0035029350999991922013113004+62233+025733FM-12+009499999V0202301N001019999999N0000001N9-00781+99999099871ADDGF108991999999999999999999MW1721
0029029350999991922013120004+62233+025733FM-12+009499999V0202701N001019999999N0000001N9-00891+99999999999ADDGF108991999999999999999999
0029029350999991922020106004+62233+025733FM-12+009499999V0200201N005119999999N0000001N9-00891+99999100151ADDGF107991999999999999999999
0029029350999991922020113004+62233+025733FM-12+009499999V0200201N001019999999N0000001N9-01391+99999100461ADDGF100991999999999999999999
0029029350999991922020120004+62233+025733FM-12+009499999V0200501N001019999999N0000001N9-01941+99999100751ADDGF100991999999999999999999
0029029350999991922020206004+62233+025733FM-12+009499999V0203601N005119999999N0000001N9-01721+99999100921ADDGF108991999999999999999999
0029029350999991922020213004+62233+025733FM-12+009499999V0200501N005119999999N0000001N9-01171+99999101081ADDGF106991999999999999999999
0029029350999991922020220004+62233+025733FM-12+009499999V0203601N001019999999N0000001N9-01781+99999101161ADDGF100991999999999999999999
0029029350999991922020306004+62233+025733FM-12+009499999V0202701N001019999999N0000001N9-02171+99999100911ADDGF100991999999999999999999
0029029350999991922020313004+62233+025733FM-12+009499999V0203601N001019999999N0000001N9-02111+99999100791ADDGF100991999999999999999999
0029029350999991922020320004+62233+025733FM-12+009499999V0200201N003119999999N0000001N9-02391+99999100791ADDGF100991999999999999999999
0029029350999991922020406004+62233+025733FM-12+009499999V0203601N001019999999N0000001N9-02501+99999100641ADDGF100991999999999999999999
0029029350999991922020413004+62233+025733FM-12+009499999V0203601N001019999999N0000001N9-02061+99999100721ADDGF104991999999999999999999
0029029350999991922020420004+62233+025733FM-12+009499999V0200501N003119999999N0000001N9-01941+99999100741ADDGF100991999999999999999999
0029029350999991922020506004+62233+025733FM-12+009499999V0200501N003119999999N0000001N9-02061+99999101071ADDGF100991999999999999999999
0029029350999991922020513004+62233+025733FM-12+009499999V0203601N003119999999N0000001N9-01671+99999101281ADDGF102991999999999999999999
0029029350999991922020520004+62233+025733FM-12+009499999V0200201N005119999999N0000001N9-01721+99999101311ADDGF105991999999999999999999
0029029350999991922020606004+62233+025733FM-12+009499999V0203601N001019999999N0000001N9-02221+99999101591ADDGF100991999999999999999999
0029029350999991922020613004+62233+025733FM-12+009499999V0203601N001019999999N0000001N9-01831+99999101841ADDGF100991999999999999999999
0029029350999991922020620004+62233+025733FM-12+009499999V0203601N001019999999N0000001N9-02221+99999101991ADDGF100991999999999999999999
0035029350999991922020706004+62233+025733FM-12+009499999V0209991C000019999999N0000001N9-02111+99999101991ADDGF108991999999999999999999MW1721
0029029350999991922020713004+62233+025733FM-12+009499999V0209991C000019999999N0000001N9-01721+99999101871ADDGF108991999999999999999999
0029029350999991922020720004+62233+025733FM-12+009499999V0209991C000019999999N0000001N9-01671+99999101541ADDGF108991999999999999999999
0029029350999991922020806004+62233+025733FM-12+009499999V0209991C000019999999N0000001N9-01611+99999101191ADDGF108991999999999999999999
0035029350999991922020813004+62233+025733FM-12+009499999V0202301N001019999999N0000001N9-01441+99999101271ADDGF108991999999999999999999MW1721
0029029350999991922020820004+62233+025733FM-12+009499999V0202501N005119999999N0000001N9-01221+99999101221ADDGF107991999999999999999999
0029029350999991922020906004+62233+025733FM-12+009499999V0201801N005119999999N0000001N9-00501+99999100751ADDGF108991999999999999999999
0029029350999991922020913004+62233+025733FM-12+009499999V0203201N001019999999N0000001N9-00221+99999101181ADDGF103991999999999999999999
0029029350999991922020920004+62233+025733FM-12+009499999V0202701N001019999999N0000001N9-00441+99999101621ADDGF100991999999999999999999
0029029350999991922021006004+62233+025733FM-12+009499999V0202701N001019999999N0000001N9-01391+99999102111ADDGF100991999999999999999999
0029029350999991922021013004+62233+025733FM-12+009499999V0209991C000019999999N0000001N9-00561+99999102351ADDGF107991999999999999999999
0029029350999991922021020004+62233+025733FM-12+009499999V0202701N001019999999N0000001N9-00331+99999102151ADDGF103991999999999999999999
0029029350999991922021106004+62233+025733FM-12+009499999V0202701N005119999999N0000001N9-00281+99999101231ADDGF108991999999999999999999
0029029350999991922021113004+62233+025733FM-12+009499999V0202501N005119999999N0000001N9+00001+99999100631ADDGF108991999999999999999999
0029029350999991922021120004+62233+025733FM-12+009499999V0202701N005119999999N0000001N9+00001+99999100271ADDGF107991999999999999999999
0029029350999991922021206004+62233+025733FM-12+009499999V0203201N001019999999N0000001N9-00061+99999100231ADDGF104991999999999999999999
0029029350999991922021213004+62233+025733FM-12+009499999V0202901N001019999999N0000001N9+00281+99999100271ADDGF100991999999999999999999
0029029350999991922021220004+62233+025733FM-12+009499999V0203201N001019999999N0000001N9+00061+99999100161ADDGF106991999999999999999999
0029029350999991922021306004+62233+025733FM-12+009499999V0203201N001019999999N0000001N9-00171+99999100061ADDGF106991999999999999999999
0029029350999991922021313004+62233+025733FM-12+009499999V0202901N001019999999N0000001N9+00001+99999099961ADDGF100991999999999999999999
0029029350999991922021320004+62233+025733FM-12+009499999V0203201N001019999999N0000001N9-00781+99999099821ADDGF100991999999999999999999
0029029350999991922021406004+62233+025733FM-12+009499999V0203201N001019999999N0000001N9-01171+99999099401ADDGF106991999999999999999999
0029029350999991922021413004+62233+025733FM-12+009499999V0202901N001019999999N0000001N9-00611+99999099281ADDGF104991999999999999999999
0029029350999991922021420004+62233+025733FM-12+009499999V0202901N001019999999N0000001N9-00611+99999098961ADDGF108991999999999999999999
0029029350999991922021506004+62233+025733FM-12+009499999V0201401N001019999999N0000001N9-00501+99999098511ADDGF108991999999999999999999
0035029350999991922021513004+62233+025733FM-12+009499999V0201601N001019999999N0000001N9-00331+99999098481ADDGF108991999999999999999999MW1721
0029029350999991922021520004+62233+025733FM-12+009499999V0201401N001019999999N0000001N9-00441+99999098751ADDGF108991999999999999999999
0029029350999991922021606004+62233+025733FM-12+009499999V0201401N001019999999N0000001N9-00671+99999099181ADDGF108991999999999999999999
0029029350999991922021613004+62233+025733FM-12+009499999V0200901N001019999999N0000001N9-00781+99999099701ADDGF108991999999999999999999
0029029350999991922021620004+62233+025733FM-12+009499999V0200901N001019999999N0000001N9-01001+99999100041ADDGF108991999999999999999999
0029029350999991922021706004+62233+025733FM-12+009499999V0200901N001019999999N0000001N9-01111+99999100281ADDGF108991999999999999999999
0035029350999991922021713004+62233+025733FM-12+009499999V0200901N001019999999N0000001N9-00941+99999100301ADDGF108991999999999999999999MW1721
0035029350999991922021720004+62233+025733FM-12+009499999V0200901N001019999999N0000001N9-01111+99999100231ADDGF108991999999999999999999MW1721
0035029350999991922021806004+62233+025733FM-12+009499999V0200901N001019999999N0000001N9-00941+99999099981ADDGF108991999999999999999999MW1721
0035029350999991922021813004+62233+025733FM-12+009499999V0200901N001019999999N0000001N9-00611+99999099841ADDGF108991999999999999999999MW1721
0029029350999991922021820004+62233+025733FM-12+009499999V0200901N001019999999N0000001N9-00721+99999099661ADDGF108991999999999999999999
0035029350999991922021906004+62233+025733FM-12+009499999V0201801N001019999999N0000001N9-00831+99999099141ADDGF108991999999999999999999MW1721
0035029350999991922021913004+62233+025733FM-12+009499999V0201801N001019999999N0000001N9-00611+99999098981ADDGF108991999999999999999999MW1721
0029029350999991922021920004+62233+025733FM-12+009499999V0209991C000019999999N0000001N9-00781+99999099001ADDGF108991999999999999999999
0035029350999991922022006004+62233+025733FM-12+009499999V0201801N001019999999N0000001N9-00671+99999098871ADDGF108991999999999999999999MW1721
0035029350999991922022013004+62233+025733FM-12+009499999V0201801N001019999999N0000001N9-00441+99999098871ADDGF108991999999999999999999MW1721
0029029350999991922022020004+62233+025733FM-12+009499999V0201801N001019999999N0000001N9-00671+99999099111ADDGF108991999999999999999999
0029029350999991922022106004+62233+025733FM-12+009499999V0201801N001019999999N0000001N9-00781+99999099071ADDGF108991999999999999999999
0029029350999991922022113004+62233+025733FM-12+009499999V0201801N001019999999N0000001N9-00501+99999099301ADDGF108991999999999999999999
0029029350999991922022120004+62233+025733FM-12+009499999V0201801N001019999999N0000001N9-00671+99999099621ADDGF108991999999999999999999
0029029350999991922022206004+62233+025733FM-12+009499999V0201801N001019999999N0000001N9-00891+99999099991ADDGF108991999999999999999999
0035029350999991922022213004+62233+025733FM-12+009499999V0201801N001019999999N0000001N9-00501+99999100181ADDGF108991999999999999999999MW1721
0035029350999991922022220004+62233+025733FM-12+009499999V0201801N001019999999N0000001N9-00331+99999100221ADDGF108991999999999999999999MW1721
0029029350999991922022306004+62233+025733FM-12+009499999V0201801N005119999999N0000001N9-00331+99999099921ADDGF108991999999999999999999
0029029350999991922022313004+62233+025733FM-12+009499999V0201101N005119999999N0000001N9-00281+99999099561ADDGF108991999999999999999999
0029029350999991922022320004+62233+025733FM-12+009499999V0201801N001019999999N0000001N9-00221+99999099481ADDGF108991999999999999999999
0029029350999991922022406004+62233+025733FM-12+009499999V0201801N001019999999N0000001N9-00221+99999099521ADDGF108991999999999999999999
0035029350999991922022413004+62233+025733FM-12+009499999V0201801N001019999999N0000001N9+00001+99999099521ADDGF108991999999999999999999MW1721
0029029350999991922022420004+62233+025733FM-12+009499999V0201801N001019999999N0000001N9-00061+99999099621ADDGF108991999999999999999999
0029029350999991922022506004+62233+025733FM-12+009499999V0201401N005119999999N0000001N9-00111+99999099621ADDGF108991999999999999999999
0035029350999991922022513004+62233+025733FM-12+009499999V0201801N003119999999N0000001N9+00061+99999099261ADDGF108991999999999999999999MW1691
0035029350999991922022520004+62233+025733FM-12+009499999V0201601N001019999999N0000001N9+00061+99999098991ADDGF108991999999999999999999MW1691
0029029350999991922022606004+62233+025733FM-12+009499999V0202701N001019999999N0000001N9+00111+99999098911ADDGF108991999999999999999999
0029029350999991922022613004+62233+025733FM-12+009499999V0209991C000019999999N0000001N9+00171+99999098831ADDGF108991999999999999999999
0035029350999991922022620004+62233+025733FM-12+009499999V0200901N001019999999N0000001N9+00061+99999098181ADDGF108991999999999999999999MW1691
0029029350999991922022706004+62233+025733FM-12+009499999V0202901N001019999999N0000001N9+00171+99999098201ADDGF108991999999999999999999
0029029350999991922022713004+62233+025733FM-12+009499999V0202901N001019999999N0000001N9+00221+99999098351ADDGF108991999999999999999999
0035029350999991922022720004+62233+025733FM-12+009499999V0201401N001019999999N0000001N9+00061+99999098001ADDGF108991999999999999999999MW1721
0029029350999991922022806004+62233+025733FM-12+009499999V0200901N001019999999N0000001N9+00061+99999097701ADDGF108991999999999999999999
0035029350999991922022813004+62233+025733FM-12+009499999V0202501N003119999999N0000001N9+00171+99999097631ADDGF108991999999999999999999MW1721
0029029350999991922022820004+62233+025733FM-12+009499999V0202701N001019999999N0000001N9+00061+99999098151ADDGF108991999999999999999999
0029029350999991922030106004+62233+025733FM-12+009499999V0202901N001019999999N0000001N9-00171+99999098361ADDGF108991999999999999999999
0035029350999991922030113004+62233+025733FM-12+009499999V0202701N001019999999N0000001N9+00001+99999098721ADDGF108991999999999999999999MW1721
0029029350999991922030120004+62233+025733FM-12+009499999V0209991C000019999999N0000001N9-00281+99999098861ADDGF108991999999999999999999
0029029350999991922030206004+62233+025733FM-12+009499999V0202701N001019999999N0000001N9-00561+99999099021ADDGF108991999999999999999999
0029029350999991922030213004+62233+025733FM-12+009499999V0202701N001019999999N0000001N9-00391+99999099111ADDGF108991999999999999999999
0029029350999991922030220004+62233+025733FM-12+009499999V0202701N001019999999N0000001N9-00501+99999099221ADDGF108991999999999999999999
0029029350999991922030306004+62233+025733FM-12+009499999V0200901N001019999999N0000001N9-00671+99999099521ADDGF108991999999999999999999
0029029350999991922030313004+62233+025733FM-12+009499999V0200501N001019999999N0000001N9-00441+99999099781ADDGF108991999999999999999999
0029029350999991922030320004+62233+025733FM-12+009499999V0200501N001019999999N0000001N9-00501+99999099871ADDGF108991999999999999999999
0029029350999991922030406004+62233+025733FM-12+009499999V0200501N001019999999N0000001N9-00501+99999099701ADDGF108991999999999999999999
0029029350999991922030413004+62233+025733FM-12+009499999V0201801N005119999999N0000001N9-00171+99999099311ADDGF108991999999999999999999
0035029350999991922030420004+62233+025733FM-12+009499999V0201601N005119999999N0000001N9-00171+99999098871ADDGF108991999999999999999999MW1721
0035029350999991922030506004+62233+025733FM-12+009499999V0201601N001019999999N0000001N9-00111+99999098151ADDGF108991999999999999999999MW1721
0035029350999991922030513004+62233+025733FM-12+009499999V0202501N001019999999N0000001N9+00061+99999098231ADDGF108991999999999999999999MW1721
0029029350999991922030520004+62233+025733FM-12+009499999V0202701N001019999999N0000001N9-00221+99999098511ADDGF108991999999999999999999
0029029350999991922030606004+62233+025733FM-12+009499999V0201801N001019999999N0000001N9-00281+99999098121ADDGF108991999999999999999999
0035029350999991922030613004+62233+025733FM-12+009499999V0201801N001019999999N0000001N9-00171+99999097401ADDGF108991999999999999999999MW1721
0035029350999991922030620004+62233+025733FM-12+009499999V0200901N001019999999N0000001N9-00331+99999097311ADDGF108991999999999999999999MW1721
0029029350999991922030706004+62233+025733FM-12+009499999V0201801N001019999999N0000001N9-00331+99999097631ADDGF108991999999999999999999
0029029350999991922030713004+62233+025733FM-12+009499999V0202701N007219999999N0000001N9-00221+99999097721ADDGF104991999999999999999999
0029029350999991922030720004+62233+025733FM-12+009499999V0203601N003119999999N0000001N9-00831+99999098361ADDGF104991999999999999999999
0035029350999991922030806004+62233+025733FM-12+009499999V0203601N001019999999N0000001N9-01001+99999098321ADDGF108991999999999999999999MW1721
0035029350999991922030813004+62233+025733FM-12+009499999V0203601N001019999999N0000001N9-00781+99999097641ADDGF108991999999999999999999MW1721
0029029350999991922030820004+62233+025733FM-12+009499999V0203601N001019999999N0000001N9-00721+99999097361ADDGF108991999999999999999999
0035029350999991922030906004+62233+025733FM-12+009499999V0203601N001019999999N0000001N9-00781+99999097661ADDGF108991999999999999999999MW1721
0035029350999991922030913004+62233+025733FM-12+009499999V0203601N001019999999N0000001N9-00561+99999098041ADDGF108991999999999999999999MW1721
0035029350999991922030920004+62233+025733FM-12+009499999V0203401N001019999999N0000001N9-00781+99999098511ADDGF108991999999999999999999MW1721
0035029350999991922031006004+62233+025733FM-12+009499999V0203601N001019999999N0000001N9-00831+99999099101ADDGF108991999999999999999999MW1721
0035029350999991922031013004+62233+025733FM-12+009499999V0203601N001019999999N0000001N9-00441+99999099541ADDGF108991999999999999999999MW1721
0029029350999991922031020004+62233+025733FM-12+009499999V0202701N001019999999N0000001N9-00891+99999100041ADDGF100991999999999999999999
0029029350999991922031106004+62233+025733FM-12+009499999V0202701N001019999999N0000001N9-01501+99999999999ADDGF100991999999999999999999
0029029350999991922031113004+62233+025733FM-12+009499999V0202701N005119999999N0000001N9-00281+99999099281ADDGF108991999999999999999999
0029029350999991922031120004+62233+025733FM-12+009499999V0202301N007219999999N0000001N9-00171+99999098701ADDGF108991999999999999999999
0029029350999991922031206004+62233+025733FM-12+009499999V0202701N003119999999N0000001N9-00501+99999097901ADDGF102991999999999999999999
0029029350999991922031213004+62233+025733FM-12+009499999V0202701N007219999999N0000001N9-00221+99999097801ADDGF100991999999999999999999
0029029350999991922031220004+62233+025733FM-12+009499999V0202701N005119999999N0000001N9-00331+99999097711ADDGF106991999999999999999999
0029029350999991922031306004+62233+025733FM-12+009499999V0203201N005119999999N0000001N9-00891+99999098701ADDGF100991999999999999999999
0029029350999991922031313004+62233+025733FM-12+009499999V0203601N007219999999N0000001N9-00281+99999099191ADDGF106991999999999999999999
0029029350999991922031320004+62233+025733FM-12+009499999V0203601N007219999999N0000001N9-00331+99999099621ADDGF107991999999999999999999
0029029350999991922031406004+62233+025733FM-12+009499999V0203401N005119999999N0000001N9-01061+99999099721ADDGF100991999999999999999999
0029029350999991922031413004+62233+025733FM-12+009499999V0203601N001019999999N0000001N9-00221+99999099641ADDGF106991999999999999999999
0029029350999991922031420004+62233+025733FM-12+009499999V0203601N005119999999N0000001N9-00501+99999099831ADDGF108991999999999999999999
0029029350999991922031506004+62233+025733FM-12+009499999V0203601N001019999999N0000001N9-00671+99999100071ADDGF108991999999999999999999
0029029350999991922031513004+62233+025733FM-12+009499999V0203601N001019999999N0000001N9-00221+99999100111ADDGF108991999999999999999999
0029029350999991922031520004+62233+025733FM-12+009499999V0203401N003119999999N0000001N9-00441+99999099881ADDGF108991999999999999999999
0035029350999991922031606004+62233+025733FM-12+009499999V0203601N001019999999N0000001N9-00831+99999098961ADDGF108991999999999999999999MW1721
0029029350999991922031613004+62233+025733FM-12+009499999V0200501N001019999999N0000001N9-00391+99999099141ADDGF105991999999999999999999
0029029350999991922031620004+62233+025733FM-12+009499999V0203601N001019999999N0000001N9-00501+99999099641ADDGF108991999999999999999999
0029029350999991922031706004+62233+025733FM-12+009499999V0203601N001019999999N0000001N9-01061+99999099881ADDGF104991999999999999999999
0029029350999991922031713004+62233+025733FM-12+009499999V0203601N001019999999N0000001N9-00391+99999099911ADDGF105991999999999999999999
0029029350999991922031720004+62233+025733FM-12+009499999V0209991C000019999999N0000001N9-00891+99999100021ADDGF104991999999999999999999
0029029350999991922031806004+62233+025733FM-12+009499999V0203601N005119999999N0000001N9-01501+99999100061ADDGF100991999999999999999999
0029029350999991922031813004+62233+025733FM-12+009499999V0200501N005119999999N0000001N9-00561+99999100161ADDGF100991999999999999999999
0029029350999991922031820004+62233+025733FM-12+009499999V0200501N001019999999N0000001N9-01221+99999100201ADDGF108991999999999999999999
0029029350999991922031906004+62233+025733FM-12+009499999V0203601N001019999999N0000001N9-01721+99999099881ADDGF100991999999999999999999
0029029350999991922031913004+62233+025733FM-12+009499999V0203601N001019999999N0000001N9-00501+99999099791ADDGF102991999999999999999999
0029029350999991922031920004+62233+025733FM-12+009499999V0209991C000019999999N0000001N9-01441+99999099781ADDGF100991999999999999999999
0029029350999991922032006004+62233+025733FM-12+009499999V0203601N001019999999N0000001N9-02441+99999099861ADDGF100991999999999999999999
0029029350999991922032013004+62233+025733FM-12+009499999V0203601N003119999999N0000001N9-00331+99999099781ADDGF105991999999999999999999
0029029350999991922032020004+62233+025733FM-12+009499999V0203601N001019999999N0000001N9-01221+99999099841ADDGF100991999999999999999999
0029029350999991922032106004+62233+025733FM-12+009499999V0203601N001019999999N0000001N9-02281+99999099981ADDGF100991999999999999999999
0029029350999991922032113004+62233+025733FM-12+009499999V0202701N001019999999N0000001N9-00561+99999099881ADDGF108991999999999999999999
0029029350999991922032120004+62233+025733FM-12+009499999V0209991C000019999999N0000001N9-01111+99999099951ADDGF100991999999999999999999
0029029350999991922032206004+62233+025733FM-12+009499999V0202701N001019999999N0000001N9-01611+99999100151ADDGF100991999999999999999999
0029029350999991922032213004+62233+025733FM-12+009499999V0202701N001019999999N0000001N9-00061+99999100391ADDGF100991999999999999999999
0029029350999991922032220004+62233+025733FM-12+009499999V0202701N001019999999N0000001N9-00941+99999100391ADDGF100991999999999999999999
0029029350999991922032306004+62233+025733FM-12+009499999V0202901N001019999999N0000001N9-00561+99999100031ADDGF108991999999999999999999
0029029350999991922032313004+62233+025733FM-12+009499999V0202701N003119999999N0000001N9+00281+99999099961ADDGF104991999999999999999999
0029029350999991922032320004+62233+025733FM-12+009499999V0202501N003119999999N0000001N9+00171+99999100021ADDGF108991999999999999999999
0029029350999991922032406004+62233+025733FM-12+009499999V0202301N001019999999N0000001N9+00061+99999100041ADDGF108991999999999999999999
0029029350999991922032413004+62233+025733FM-12+009499999V0202701N001019999999N0000001N9+00441+99999100111ADDGF108991999999999999999999
0029029350999991922032420004+62233+025733FM-12+009499999V0209991C000019999999N0000001N9+00171+99999100041ADDGF108991999999999999999999
0029029350999991922032506004+62233+025733FM-12+009499999V0202701N001019999999N0000001N9-00721+99999099681ADDGF102991999999999999999999
0029029350999991922032513004+62233+025733FM-12+009499999V0200901N005119999999N0000001N9+00061+99999099321ADDGF108991999999999999999999
0029029350999991922032520004+62233+025733FM-12+009499999V0209991C000019999999N0000001N9-00221+99999099221ADDGF100991999999999999999999
0035029350999991922032606004+62233+025733FM-12+009499999V0201801N001019999999N0000001N9-00391+99999098801ADDGF108991999999999999999999MW1721
0029029350999991922032613004+62233+025733FM-12+009499999V0201801N001019999999N0000001N9-00061+99999098751ADDGF108991999999999999999999
0035029350999991922032620004+62233+025733FM-12+009499999V0201801N001019999999N0000001N9-00281+99999098751ADDGF108991999999999999999999MW1721
0035029350999991922032706004+62233+025733FM-12+009499999V0201801N001019999999N0000001N9-00221+99999098761ADDGF108991999999999999999999MW1721
0029029350999991922032713004+62233+025733FM-12+009499999V0201801N001019999999N0000001N9+00111+99999098981ADDGF108991999999999999999999
0035029350999991922032720004+62233+025733FM-12+009499999V0209991C000019999999N0000001N9-00061+99999099221ADDGF108991999999999999999999MW1721
0035029350999991922032806004+62233+025733FM-12+009499999V0201801N001019999999N0000001N9-00221+99999099301ADDGF108991999999999999999999MW1721
0029029350999991922032813004+62233+025733FM-12+009499999V0203601N003119999999N0000001N9+00221+99999099181ADDGF105991999999999999999999
0035029350999991922032820004+62233+025733FM-12+009499999V0203601N001019999999N0000001N9-00111+99999098991ADDGF108991999999999999999999MW1721
0029029350999991922032906004+62233+025733FM-12+009499999V0203601N005119999999N0000001N9-00441+99999098721ADDGF108991999999999999999999
0029029350999991922032913004+62233+025733FM-12+009499999V0203601N001019999999N0000001N9+00061+99999098831ADDGF108991999999999999999999
0029029350999991922032920004+62233+025733FM-12+009499999V0203601N003119999999N0000001N9-00061+99999098801ADDGF108991999999999999999999
0035029350999991922033006004+62233+025733FM-12+009499999V0200201N005119999999N0000001N9-00221+99999098421ADDGF108991999999999999999999MW1721
0035029350999991922033013004+62233+025733FM-12+009499999V0200201N005119999999N0000001N9+00001+99999098561ADDGF108991999999999999999999MW1721
0029029350999991922033020004+62233+025733FM-12+009499999V0203601N001019999999N0000001N9+00061+99999098881ADDGF108991999999999999999999
0035029350999991922033106004+62233+025733FM-12+009499999V0200201N001019999999N0000001N9-00061+99999099431ADDGF108991999999999999999999MW1721
0035029350999991922033113004+62233+025733FM-12+009499999V0201801N001019999999N0000001N9+00061+99999099791ADDGF108991999999999999999999MW1721
0029029350999991922033120004+62233+025733FM-12+009499999V0209991C000019999999N0000001N9-00171+99999099941ADDGF108991999999999999999999
0029029350999991922040106004+62233+025733FM-12+009499999V0201801N001019999999N0000001N9-00941+99999099911ADDGF100991999999999999999999
0029029350999991922040113004+62233+025733FM-12+009499999V0201801N001019999999N0000001N9+00281+99999099781ADDGF102991999999999999999999
0029029350999991922040120004+62233+025733FM-12+009499999V0201801N001019999999N0000001N9-00171+99999099661ADDGF108991999999999999999999
0029029350999991922040206004+62233+025733FM-12+009499999V0202301N001019999999N0000001N9-00221+99999099271ADDGF107991999999999999999999
0035029350999991922040213004+62233+025733FM-12+009499999V0200901N005119999999N0000001N9-00061+99999098881ADDGF108991999999999999999999MW1721
0029029350999991922040220004+62233+025733FM-12+009499999V0200901N001019999999N0000001N9-00111+99999098901ADDGF106991999999999999999999
0035029350999991922040306004+62233+025733FM-12+009499999V0200501N005119999999N0000001N9-00831+99999098951ADDGF108991999999999999999999MW1721
0035029350999991922040313004+62233+025733FM-12+009499999V0201401N003119999999N0000001N9+00061+99999099181ADDGF108991999999999999999999MW1721
0029029350999991922040320004+62233+025733FM-12+009499999V0201801N001019999999N0000001N9-00111+99999099381ADDGF106991999999999999999999
0029029350999991922040406004+62233+025733FM-12+009499999V0201801N001019999999N0000001N9-01001+99999099141ADDGF103991999999999999999999
0029029350999991922040413004+62233+025733FM-12+009499999V0200901N001019999999N0000001N9+00391+99999098841ADDGF106991999999999999999999
0035029350999991922040420004+62233+025733FM-12+009499999V0200501N001019999999N0000001N9+00001+99999098701ADDGF108991999999999999999999MW1721
0035029350999991922040506004+62233+025733FM-12+009499999V0203601N001019999999N0000001N9-00171+99999098551ADDGF108991999999999999999999MW1721
0035029350999991922040513004+62233+025733FM-12+009499999V0200501N001019999999N0000001N9+00281+99999098701ADDGF108991999999999999999999MW1721
0035029350999991922040520004+62233+025733FM-12+009499999V0203601N001019999999N0000001N9+00061+99999098721ADDGF108991999999999999999999MW1721
0029029350999991922040606004+62233+025733FM-12+009499999V0203601N001019999999N0000001N9+00111+99999098701ADDGF108991999999999999999999
0029029350999991922040613004+62233+025733FM-12+009499999V0200901N001019999999N0000001N9+00221+99999098841ADDGF108991999999999999999999
0035029350999991922040620004+62233+025733FM-12+009499999V0200901N001019999999N0000001N9+00061+99999098721ADDGF108991999999999999999999MW1621
0035029350999991922040706004+62233+025733FM-12+009499999V0201101N001019999999N0000001N9-00061+99999098401ADDGF108991999999999999999999MW1721
0035029350999991922040713004+62233+025733FM-12+009499999V0201101N001019999999N0000001N9+00111+99999098541ADDGF108991999999999999999999MW1721
0029029350999991922040720004+62233+025733FM-12+009499999V0201101N001019999999N0000001N9-00111+99999098431ADDGF108991999999999999999999
0035029350999991922040806004+62233+025733FM-12+009499999V0202701N005119999999N0000001N9-00171+99999098591ADDGF108991999999999999999999MW1721
0029029350999991922040813004+62233+025733FM-12+009499999V0202701N007219999999N0000001N9-00061+99999099281ADDGF106991999999999999999999
0035029350999991922040820004+62233+025733FM-12+009499999V0202701N001019999999N0000001N9-00391+99999099541ADDGF108991999999999999999999MW1721
0029029350999991922040906004+62233+025733FM-12+009499999V0202701N001019999999N0000001N9-01111+99999099671ADDGF105991999999999999999999
0029029350999991922040913004+62233+025733FM-12+009499999V0202701N001019999999N0000001N9+00061+99999099591ADDGF106991999999999999999999
0029029350999991922040920004+62233+025733FM-12+009499999V0202701N001019999999N0000001N9-00281+99999099501ADDGF108991999999999999999999
0029029350999991922041006004+62233+025733FM-12+009499999V0203601N001019999999N0000001N9-00501+99999099031ADDGF108991999999999999999999
0035029350999991922041013004+62233+025733FM-12+009499999V0200201N005119999999N0000001N9-00221+99999098581ADDGF108991999999999999999999MW1721
0035029350999991922041020004+62233+025733FM-12+009499999V0203601N003119999999N0000001N9-00391+99999098301ADDGF108991999999999999999999MW1721
0029029350999991922041106004+62233+025733FM-12+009499999V0202701N001019999999N0000001N9-00721+99999098721ADDGF102991999999999999999999
0029029350999991922041113004+62233+025733FM-12+009499999V0202701N005119999999N0000001N9-00171+99999099241ADDGF108991999999999999999999
0029029350999991922041120004+62233+025733FM-12+009499999V0202701N001019999999N0000001N9-00561+99999099471ADDGF100991999999999999999999
0035029350999991922041206004+62233+025733FM-12+009499999V0202901N001019999999N0000001N9-00441+99999099591ADDGF106991999999999999999999MW1721
0029029350999991922041213004+62233+025733FM-12+009499999V0203401N003119999999N0000001N9+00331+99999100081ADDGF106991999999999999999999
0029029350999991922041220004+62233+025733FM-12+009499999V0209991C000019999999N0000001N9-00221+99999100361ADDGF100991999999999999999999
0029029350999991922041306004+62233+025733FM-12+009499999V0202701N001019999999N0000001N9-01001+99999100791ADDGF105991999999999999999999
0029029350999991922041313004+62233+025733FM-12+009499999V0202701N001019999999N0000001N9+00671+99999100831ADDGF102991999999999999999999
0029029350999991922041320004+62233+025733FM-12+009499999V0201801N001019999999N0000001N9+00171+99999100701ADDGF106991999999999999999999
0035029350999991922041406004+62233+025733FM-12+009499999V0201801N001019999999N0000001N9-00061+99999099641ADDGF108991999999999999999999MW1721
0029029350999991922041413004+62233+025733FM-12+009499999V0200901N001019999999N0000001N9+00331+99999099281ADDGF108991999999999999999999
0035029350999991922041420004+62233+025733FM-12+009499999V0202701N003119999999N0000001N9+00221+99999099231ADDGF108991999999999999999999MW1621
0029029350999991922041506004+62233+025733FM-12+009499999V0203201N003119999999N0000001N9+00171+99999100041ADDGF108991999999999999999999
0029029350999991922041513004+62233+025733FM-12+009499999V0202701N001019999999N0000001N9+00941+99999100471ADDGF101991999999999999999999
0029029350999991922041520004+62233+025733FM-12+009499999V0201801N001019999999N0000001N9+00501+99999100351ADDGF108991999999999999999999
0029029350999991922041606004+62233+025733FM-12+009499999V0201801N001019999999N0000001N9+00391+99999099591ADDGF108991999999999999999999
0029029350999991922041613004+62233+025733FM-12+009499999V0201601N001019999999N0000001N9+01171+99999099681ADDGF104991999999999999999999
0029029350999991922041620004+62233+025733FM-12+009499999V0201601N001019999999N0000001N9+00441+99999099701ADDGF102991999999999999999999
0029029350999991922041706004+62233+025733FM-12+009499999V0202301N001019999999N0000001N9+00501+99999099341ADDGF108991999999999999999999
0029029350999991922041713004+62233+025733FM-12+009499999V0202701N001019999999N0000001N9+01391+99999099561ADDGF100991999999999999999999
0029029350999991922041720004+62233+025733FM-12+009499999V0202701N001019999999N0000001N9+00611+99999099881ADDGF100991999999999999999999
0029029350999991922041806004+62233+025733FM-12+009499999V0202701N003119999999N0000001N9+00221+99999100281ADDGF100991999999999999999999
0029029350999991922041813004+62233+025733FM-12+009499999V0203201N001019999999N0000001N9+00831+99999100481ADDGF100991999999999999999999
0029029350999991922041820004+62233+025733FM-12+009499999V0203401N001019999999N0000001N9+00331+99999100621ADDGF100991999999999999999999
0029029350999991922041906004+62233+025733FM-12+009499999V0203601N005119999999N0000001N9+00171+99999100791ADDGF108991999999999999999999
0029029350999991922041913004+62233+025733FM-12+009499999V0200201N007219999999N0000001N9+00171+99999101161ADDGF108991999999999999999999
0029029350999991922041920004+62233+025733FM-12+009499999V0203601N001019999999N0000001N9-00281+99999101401ADDGF106991999999999999999999
0029029350999991922042006004+62233+025733FM-12+009499999V0203601N003119999999N0000001N9-00501+99999101521ADDGF100991999999999999999999
0029029350999991922042013004+62233+025733FM-12+009499999V0200501N003119999999N0000001N9+00331+99999101351ADDGF100991999999999999999999
0029029350999991922042020004+62233+025733FM-12+009499999V0200901N001019999999N0000001N9-00111+99999101181ADDGF100991999999999999999999
0029029350999991922042106004+62233+025733FM-12+009499999V0200501N001019999999N0000001N9-00281+99999101101ADDGF108991999999999999999999
0029029350999991922042113004+62233+025733FM-12+009499999V0200501N001019999999N0000001N9+00671+99999100911ADDGF106991999999999999999999
0029029350999991922042120004+62233+025733FM-12+009499999V0200501N001019999999N0000001N9+00221+99999100751ADDGF106991999999999999999999
0029029350999991922042206004+62233+025733FM-12+009499999V0200501N001019999999N0000001N9-00061+99999100781ADDGF104991999999999999999999
0029029350999991922042213004+62233+025733FM-12+009499999V0200501N003119999999N0000001N9+01061+99999100751ADDGF100991999999999999999999
0029029350999991922042220004+62233+025733FM-12+009499999V0209991C000019999999N0000001N9+00331+99999100791ADDGF102991999999999999999999
0029029350999991922042306004+62233+025733FM-12+009499999V0200501N001019999999N0000001N9-00111+99999100901ADDGF102991999999999999999999
0029029350999991922042313004+62233+025733FM-12+009499999V0201801N001019999999N0000001N9+01061+99999100881ADDGF100991999999999999999999
0029029350999991922042320004+62233+025733FM-12+009499999V0201801N001019999999N0000001N9+00281+99999100871ADDGF100991999999999999999999
0029029350999991922042406004+62233+025733FM-12+009499999V0201801N001019999999N0000001N9-00061+99999100781ADDGF100991999999999999999999
0029029350999991922042413004+62233+025733FM-12+009499999V0201801N001019999999N0000001N9+01281+99999100511ADDGF100991999999999999999999
0029029350999991922042420004+62233+025733FM-12+009499999V0209991C000019999999N0000001N9+00501+99999100311ADDGF102991999999999999999999
0029029350999991922042506004+62233+025733FM-12+009499999V0201801N001019999999N0000001N9+00441+99999100061ADDGF101991999999999999999999
0029029350999991922042513004+62233+025733FM-12+009499999V0201601N003119999999N0000001N9+00891+99999100041ADDGF106991999999999999999999
0029029350999991922042520004+62233+025733FM-12+009499999V0201801N001019999999N0000001N9+00611+99999100121ADDGF108991999999999999999999
0029029350999991922042606004+62233+025733FM-12+009499999V0201801N001019999999N0000001N9+00441+99999100141ADDGF101991999999999999999999
0029029350999991922042613004+62233+025733FM-12+009499999V0201601N003119999999N0000001N9+01331+99999100151ADDGF102991999999999999999999
0029029350999991922042620004+62233+025733FM-12+009499999V0201601N001019999999N0000001N9+00611+99999100301ADDGF100991999999999999999999
0029029350999991922042706004+62233+025733FM-12+009499999V0201601N001019999999N0000001N9+00441+99999100201ADDGF100991999999999999999999
0029029350999991922042713004+62233+025733FM-12+009499999V0201601N007219999999N0000001N9+01501+99999100241ADDGF105991999999999999999999
0029029350999991922042720004+62233+025733FM-12+009499999V0201101N001019999999N0000001N9+00611+99999100121ADDGF100991999999999999999999
0029029350999991922042806004+62233+025733FM-12+009499999V0201101N001019999999N0000001N9+00441+99999100101ADDGF105991999999999999999999
0029029350999991922042813004+62233+025733FM-12+009499999V0201801N001019999999N0000001N9+00831+99999100231ADDGF108991999999999999999999
0029029350999991922042820004+62233+025733FM-12+009499999V0209991C000019999999N0000001N9+00781+99999100321ADDGF108991999999999999999999
0029029350999991922042906004+62233+025733FM-12+009499999V0201801N001019999999N0000001N9+00781+99999100301ADDGF104991999999999999999999
0029029350999991922042913004+62233+025733FM-12+009499999V0201401N003119999999N0000001N9+01061+99999100311ADDGF108991999999999999999999
0035029350999991922042920004+62233+025733FM-12+009499999V0201401N001019999999N0000001N9+00671+99999100241ADDGF108991999999999999999999MW1621
0029029350999991922043006004+62233+025733FM-12+009499999V0201401N001019999999N0000001N9+00501+99999999999ADDGF108991999999999999999999
0029029350999991922043013004+62233+025733FM-12+009499999V0202501N005119999999N0000001N9+00781+99999100221ADDGF108991999999999999999999
0029029350999991922043020004+62233+025733FM-12+009499999V0209991C000019999999N0000001N9+00441+99999100351ADDGF100991999999999999999999
0029029350999991922050106004+62233+025733FM-12+009499999V0203601N001019999999N0000001N9+00111+99999100641ADDGF100991999999999999999999
0029029350999991922050113004+62233+025733FM-12+009499999V0200501N001019999999N0000001N9+01001+99999100421ADDGF106991999999999999999999
0029029350999991922050120004+62233+025733FM-12+009499999V0200501N001019999999N0000001N9+00891+99999100281ADDGF108991999999999999999999
0035029350999991922050206004+62233+025733FM-12+009499999V0200901N003119999999N0000001N9+00561+99999100151ADDGF108991999999999999999999MW1621
0035029350999991922050213004+62233+025733FM-12+009499999V0201401N003119999999N0000001N9+00671+99999100241ADDGF108991999999999999999999MW1621
0035029350999991922050220004+62233+025733FM-12+009499999V0209991C000019999999N0000001N9+00671+99999099991ADDGF108991999999999999999999MW1621
0035029350999991922050306004+62233+025733FM-12+009499999V0203201N001019999999N0000001N9+00501+99999099511ADDGF108991999999999999999999MW1621
0029029350999991922050313004+62233+025733FM-12+009499999V0202701N003119999999N0000001N9+00781+99999099871ADDGF108991999999999999999999
0029029350999991922050320004+62233+025733FM-12+009499999V0209991C000019999999N0000001N9+00561+99999100191ADDGF100991999999999999999999
0029029350999991922050406004+62233+025733FM-12+009499999V0202701N001019999999N0000001N9+00441+99999100261ADDGF106991999999999999999999
0029029350999991922050413004+62233+025733FM-12+009499999V0202701N001019999999N0000001N9+01111+99999100161ADDGF102991999999999999999999
0029029350999991922050420004+62233+025733FM-12+009499999V0209991C000019999999N0000001N9+00721+99999100031ADDGF106991999999999999999999
0029029350999991922050506004+62233+025733FM-12+009499999V0201401N001019999999N0000001N9+00331+99999099581ADDGF108991999999999999999999
0029029350999991922050513004+62233+025733FM-12+009499999V0201401N001019999999N0000001N9+01171+99999099561ADDGF108991999999999999999999
0029029350999991922050520004+62233+025733FM-12+009499999V0201401N001019999999N0000001N9+00721+99999099701ADDGF106991999999999999999999
0029029350999991922050606004+62233+025733FM-12+009499999V0201401N001019999999N0000001N9+00561+99999100071ADDGF108991999999999999999999
0029029350999991922050613004+62233+025733FM-12+009499999V0202701N001019999999N0000001N9+01281+99999100481ADDGF106991999999999999999999
0029029350999991922050620004+62233+025733FM-12+009499999V0202701N001019999999N0000001N9+00671+99999100741ADDGF105991999999999999999999
0029029350999991922050706004+62233+025733FM-12+009499999V0202301N001019999999N0000001N9+00391+99999100761ADDGF108991999999999999999999
0029029350999991922050713004+62233+025733FM-12+009499999V0202701N001019999999N0000001N9+01001+99999100881ADDGF106991999999999999999999
0029029350999991922050720004+62233+025733FM-12+009499999V0201801N001019999999N0000001N9+00671+99999100901ADDGF100991999999999999999999
0029029350999991922050806004+62233+025733FM-12+009499999V0201401N001019999999N0000001N9+00611+99999100641ADDGF106991999999999999999999
0035029350999991922050813004+62233+025733FM-12+009499999V0201401N001019999999N0000001N9+00721+99999099911ADDGF108991999999999999999999MW1621
0035029350999991922050820004+62233+025733FM-12+009499999V0201601N001019999999N0000001N9+00611+99999099381ADDGF108991999999999999999999MW1621
0029029350999991922050906004+62233+025733FM-12+009499999V0202001N001019999999N0000001N9+00501+99999099061ADDGF108991999999999999999999
0029029350999991922050913004+62233+025733FM-12+009499999V0202001N001019999999N0000001N9+01221+99999098391ADDGF108991999999999999999999
0029029350999991922050920004+62233+025733FM-12+009499999V0201601N001019999999N0000001N9+00561+99999098021ADDGF107991999999999999999999
0035029350999991922051006004+62233+025733FM-12+009499999V0203601N001019999999N0000001N9+00111+99999097361ADDGF108991999999999999999999MW1721
0029029350999991922051013004+62233+025733FM-12+009499999V0201101N003119999999N0000001N9+00781+99999097521ADDGF105991999999999999999999
0035029350999991922051020004+62233+025733FM-12+009499999V0200901N001019999999N0000001N9+00391+99999097641ADDGF108991999999999999999999MW1621
0035029350999991922051106004+62233+025733FM-12+009499999V0203201N003119999999N0000001N9+00221+99999097541ADDGF108991999999999999999999MW1621
0035029350999991922051113004+62233+025733FM-12+009499999V0202901N003119999999N0000001N9+00611+99999097721ADDGF108991999999999999999999MW1621
0035029350999991922051120004+62233+025733FM-12+009499999V0202901N005119999999N0000001N9+00501+99999097831ADDGF108991999999999999999999MW1621
0035029350999991922051206004+62233+025733FM-12+009499999V0202501N003119999999N0000001N9+00281+99999098061ADDGF108991999999999999999999MW1621
0035029350999991922051213004+62233+025733FM-12+009499999V0202701N003119999999N0000001N9+00561+99999098351ADDGF108991999999999999999999MW1621
0029029350999991922051220004+62233+025733FM-12+009499999V0202501N001019999999N0000001N9+00331+99999098561ADDGF104991999999999999999999
0029029350999991922051306004+62233+025733FM-12+009499999V0202501N001019999999N0000001N9+00391+99999098781ADDGF108991999999999999999999
0029029350999991922051313004+62233+025733FM-12+009499999V0201601N003119999999N0000001N9+00891+99999098991ADDGF108991999999999999999999
0029029350999991922051320004+62233+025733FM-12+009499999V0201601N001019999999N0000001N9+00561+99999099061ADDGF105991999999999999999999
0029029350999991922051406004+62233+025733FM-12+009499999V0201401N001019999999N0000001N9+00501+99999099241ADDGF100991999999999999999999
0029029350999991922051413004+62233+025733FM-12+009499999V0201401N001019999999N0000001N9+01331+99999099261ADDGF104991999999999999999999
0029029350999991922051420004+62233+025733FM-12+009499999V0202901N001019999999N0000001N9+00781+99999099471ADDGF102991999999999999999999
0029029350999991922051506004+62233+025733FM-12+009499999V0203201N001019999999N0000001N9+00441+99999099461ADDGF100991999999999999999999
0029029350999991922051513004+62233+025733FM-12+009499999V0201801N001019999999N0000001N9+01441+99999098961ADDGF103991999999999999999999
0035029350999991922051520004+62233+025733FM-12+009499999V0202701N001019999999N0000001N9+00561+99999098681ADDGF108991999999999999999999MW1621
0035029350999991922051606004+62233+025733FM-12+009499999V0202701N001019999999N0000001N9+00441+99999098321ADDGF108991999999999999999999MW1621
0029029350999991922051613004+62233+025733FM-12+009499999V0203601N003119999999N0000001N9+01001+99999098881ADDGF102991999999999999999999
0029029350999991922051620004+62233+025733FM-12+009499999V0203201N001019999999N0000001N9+00671+99999099201ADDGF100991999999999999999999
0029029350999991922051706004+62233+025733FM-12+009499999V0202701N005119999999N0000001N9+00611+99999099511ADDGF108991999999999999999999
0029029350999991922051713004+62233+025733FM-12+009499999V0202701N001019999999N0000001N9+01171+99999099791ADDGF106991999999999999999999
0029029350999991922051720004+62233+025733FM-12+009499999V0209991C000019999999N0000001N9+01061+99999099941ADDGF100991999999999999999999
0029029350999991922051806004+62233+025733FM-12+009499999V0202701N001019999999N0000001N9+00721+99999100031ADDGF102991999999999999999999
0029029350999991922051813004+62233+025733FM-12+009499999V0200901N001019999999N0000001N9+01831+99999100061ADDGF103991999999999999999999
0029029350999991922051820004+62233+025733FM-12+009499999V0200901N001019999999N0000001N9+01281+99999100041ADDGF106991999999999999999999
0029029350999991922051906004+62233+025733FM-12+009499999V0200901N001019999999N0000001N9+01061+99999100081ADDGF108991999999999999999999
0029029350999991922051913004+62233+025733FM-12+009499999V0202701N003119999999N0000001N9+01501+99999999999ADDGF108991999999999999999999
0035029350999991922051920004+62233+025733FM-12+009499999V0202701N001019999999N0000001N9+01111+99999099961ADDGF108991999999999999999999MW1621
0029029350999991922052006004+62233+025733FM-12+009499999V0202701N001019999999N0000001N9+01061+99999099901ADDGF108991999999999999999999
0029029350999991922052013004+62233+025733FM-12+009499999V0202501N001019999999N0000001N9+01721+99999099801ADDGF106991999999999999999999
0029029350999991922052020004+62233+025733FM-12+009499999V0202701N001019999999N0000001N9+01171+99999099861ADDGF108991999999999999999999
0029029350999991922052106004+62233+025733FM-12+009499999V0202701N001019999999N0000001N9+01061+99999100221ADDGF106991999999999999999999
0029029350999991922052113004+62233+025733FM-12+009499999V0200701N003119999999N0000001N9+01721+99999100361ADDGF103991999999999999999999
0029029350999991922052120004+62233+025733FM-12+009499999V0209991C000019999999N0000001N9+01331+99999100481ADDGF102991999999999999999999
0029029350999991922052206004+62233+025733FM-12+009499999V0202901N001019999999N0000001N9+01171+99999100631ADDGF100991999999999999999999
0029029350999991922052213004+62233+025733FM-12+009499999V0202701N001019999999N0000001N9+01941+99999100631ADDGF104991999999999999999999
0029029350999991922052220004+62233+025733FM-12+009499999V0201801N001019999999N0000001N9+01561+99999100641ADDGF100991999999999999999999
0029029350999991922052306004+62233+025733FM-12+009499999V0201801N001019999999N0000001N9+01281+99999100601ADDGF105991999999999999999999
0035029350999991922052313004+62233+025733FM-12+009499999V0201801N001019999999N0000001N9+01331+99999100501ADDGF108991999999999999999999MW1621
0035029350999991922052320004+62233+025733FM-12+009499999V0202301N001019999999N0000001N9+01171+99999100231ADDGF108991999999999999999999MW1621
0029029350999991922052406004+62233+025733FM-12+009499999V0202701N001019999999N0000001N9+01281+99999100321ADDGF108991999999999999999999
0029029350999991922052413004+62233+025733FM-12+009499999V0202001N001019999999N0000001N9+01891+99999100301ADDGF105991999999999999999999
0029029350999991922052420004+62233+025733FM-12+009499999V0202001N001019999999N0000001N9+01721+99999100191ADDGF102991999999999999999999
0029029350999991922052506004+62233+025733FM-12+009499999V0202301N001019999999N0000001N9+01331+99999100151ADDGF108991999999999999999999
0035029350999991922052513004+62233+025733FM-12+009499999V0201801N005119999999N0000001N9+02001+99999099671ADDGF108991999999999999999999MW1951
0029029350999991922052520004+62233+025733FM-12+009499999V0203601N001019999999N0000001N9+01441+99999099761ADDGF106991999999999999999999
0029029350999991922052606004+62233+025733FM-12+009499999V0203601N005119999999N0000001N9+01171+99999100311ADDGF100991999999999999999999
0029029350999991922052613004+62233+025733FM-12+009499999V0203401N001019999999N0000001N9+01671+99999100501ADDGF103991999999999999999999
0029029350999991922052620004+62233+025733FM-12+009499999V0209991C000019999999N0000001N9+01281+99999100461ADDGF103991999999999999999999
0029029350999991922052706004+62233+025733FM-12+009499999V0201801N005119999999N0000001N9+01171+99999099821ADDGF107991999999999999999999
0035029350999991922052713004+62233+025733FM-12+009499999V0201601N005119999999N0000001N9+01111+99999099031ADDGF108991999999999999999999MW1621
0029029350999991922052720004+62233+025733FM-12+009499999V0201801N001019999999N0000001N9+01111+99999098621ADDGF101991999999999999999999
0029029350999991922052806004+62233+025733FM-12+009499999V0202701N001019999999N0000001N9+01061+99999098561ADDGF106991999999999999999999
0035029350999991922052813004+62233+025733FM-12+009499999V0202901N003119999999N0000001N9+01171+99999098941ADDGF106991999999999999999999MW1621
0029029350999991922052820004+62233+025733FM-12+009499999V0203601N001019999999N0000001N9+00941+99999099431ADDGF103991999999999999999999
0029029350999991922052906004+62233+025733FM-12+009499999V0203601N005119999999N0000001N9+00561+99999100071ADDGF105991999999999999999999
0029029350999991922052913004+62233+025733FM-12+009499999V0202901N005119999999N0000001N9+00781+99999100391ADDGF106991999999999999999999
0029029350999991922052920004+62233+025733FM-12+009499999V0203601N001019999999N0000001N9+00671+99999100561ADDGF101991999999999999999999
0029029350999991922053006004+62233+025733FM-12+009499999V0202701N001019999999N0000001N9+00781+99999100511ADDGF108991999999999999999999
0029029350999991922053013004+62233+025733FM-12+009499999V0202701N005119999999N0000001N9+01281+99999100041ADDGF108991999999999999999999
0035029350999991922053020004+62233+025733FM-12+009499999V0202701N001019999999N0000001N9+00781+99999099741ADDGF108991999999999999999999MW1641
0035029350999991922053106004+62233+025733FM-12+009499999V0201801N001019999999N0000001N9+00721+99999098341ADDGF108991999999999999999999MW1621
0035029350999991922053113004+62233+025733FM-12+009499999V0201801N001019999999N0000001N9+01001+99999097471ADDGF108991999999999999999999MW1621
0035029350999991922053120004+62233+025733FM-12+009499999V0201801N005119999999N0000001N9+00781+99999097401ADDGF108991999999999999999999MW1621
0029029350999991922060106004+62233+025733FM-12+009499999V0200501N007219999999N0000001N9+00831+99999097871ADDGF104991999999999999999999
0029029350999991922060113004+62233+025733FM-12+009499999V0200201N005119999999N0000001N9+01281+99999098391ADDGF105991999999999999999999
0029029350999991922060120004+62233+025733FM-12+009499999V0200901N005119999999N0000001N9+00891+99999098881ADDGF102991999999999999999999
0029029350999991922060206004+62233+025733FM-12+009499999V0203601N005119999999N0000001N9+00721+99999099401ADDGF107991999999999999999999
0029029350999991922060213004+62233+025733FM-12+009499999V0203601N005119999999N0000001N9+01171+99999099711ADDGF104991999999999999999999
0029029350999991922060220004+62233+025733FM-12+009499999V0200201N001019999999N0000001N9+00831+99999099941ADDGF106991999999999999999999
0029029350999991922060306004+62233+025733FM-12+009499999V0203401N001019999999N0000001N9+00831+99999100061ADDGF106991999999999999999999
0029029350999991922060313004+62233+025733FM-12+009499999V0200201N001019999999N0000001N9+01331+99999099921ADDGF102991999999999999999999
0029029350999991922060320004+62233+025733FM-12+009499999V0200201N003119999999N0000001N9+00781+99999099941ADDGF102991999999999999999999
0029029350999991922060406004+62233+025733FM-12+009499999V0200701N003119999999N0000001N9+00721+99999100081ADDGF102991999999999999999999
0029029350999991922060413004+62233+025733FM-12+009499999V0203401N003119999999N0000001N9+01331+99999100081ADDGF100991999999999999999999
0029029350999991922060420004+62233+025733FM-12+009499999V0209991C000019999999N0000001N9+01001+99999100031ADDGF100991999999999999999999
0029029350999991922060506004+62233+025733FM-12+009499999V0203601N001019999999N0000001N9+01111+99999100111ADDGF108991999999999999999999
0029029350999991922060513004+62233+025733FM-12+009499999V0202701N001019999999N0000001N9+01611+99999100101ADDGF108991999999999999999999
0029029350999991922060520004+62233+025733FM-12+009499999V0209991C000019999999N0000001N9+01281+99999100061ADDGF107991999999999999999999
0029029350999991922060606004+62233+025733FM-12+009499999V0202301N001019999999N0000001N9+01281+99999099781ADDGF102991999999999999999999
0029029350999991922060613004+62233+025733FM-12+009499999V0201601N003119999999N0000001N9+01671+99999099631ADDGF106991999999999999999999
0035029350999991922060620004+62233+025733FM-12+009499999V0202701N001019999999N0000001N9+01111+99999099471ADDGF108991999999999999999999MW1621
0029029350999991922060706004+62233+025733FM-12+009499999V0202701N001019999999N0000001N9+01171+99999099431ADDGF106991999999999999999999
0029029350999991922060713004+62233+025733FM-12+009499999V0203601N001019999999N0000001N9+01781+99999099521ADDGF102991999999999999999999
0029029350999991922060720004+62233+025733FM-12+009499999V0200201N001019999999N0000001N9+01331+99999099661ADDGF101991999999999999999999
0029029350999991922060806004+62233+025733FM-12+009499999V0203601N001019999999N0000001N9+01111+99999099901ADDGF103991999999999999999999
0029029350999991922060813004+62233+025733FM-12+009499999V0202701N005119999999N0000001N9+01561+99999099941ADDGF106991999999999999999999
0029029350999991922060820004+62233+025733FM-12+009499999V0202701N001019999999N0000001N9+01561+99999099881ADDGF104991999999999999999999
0029029350999991922060906004+62233+025733FM-12+009499999V0202701N001019999999N0000001N9+01061+99999099821ADDGF107991999999999999999999
0029029350999991922060913004+62233+025733FM-12+009499999V0202001N001019999999N0000001N9+01611+99999099831ADDGF102991999999999999999999
0029029350999991922060920004+62233+025733FM-12+009499999V0203601N001019999999N0000001N9+01281+99999099901ADDGF102991999999999999999999
0029029350999991922061006004+62233+025733FM-12+009499999V0203601N001019999999N0000001N9+01391+99999099941ADDGF100991999999999999999999
0029029350999991922061013004+62233+025733FM-12+009499999V0200201N005119999999N0000001N9+02221+99999099821ADDGF100991999999999999999999
0029029350999991922061020004+62233+025733FM-12+009499999V0203601N001019999999N0000001N9+01671+99999099801ADDGF103991999999999999999999
0029029350999991922061106004+62233+025733FM-12+009499999V0203601N001019999999N0000001N9+01441+99999099591ADDGF102991999999999999999999
0035029350999991922061113004+62233+025733FM-12+009499999V0200201N007219999999N0000001N9+01941+99999099311ADDGF106991999999999999999999MW1621
0029029350999991922061120004+62233+025733FM-12+009499999V0200201N001019999999N0000001N9+01331+99999099311ADDGF107991999999999999999999
0029029350999991922061206004+62233+025733FM-12+009499999V0203601N003119999999N0000001N9+01441+99999099501ADDGF108991999999999999999999
0029029350999991922061213004+62233+025733FM-12+009499999V0200501N001019999999N0000001N9+02061+99999099641ADDGF105991999999999999999999
0029029350999991922061220004+62233+025733FM-12+009499999V0200201N001019999999N0000001N9+01611+99999099881ADDGF104991999999999999999999
0029029350999991922061306004+62233+025733FM-12+009499999V0203601N001019999999N0000001N9+01391+99999100031ADDGF107991999999999999999999
0029029350999991922061313004+62233+025733FM-12+009499999V0203601N001019999999N0000001N9+01611+99999100061ADDGF106991999999999999999999
0029029350999991922061320004+62233+025733FM-12+009499999V0209991C000019999999N0000001N9+01611+99999099981ADDGF102991999999999999999999
0029029350999991922061406004+62233+025733FM-12+009499999V0203201N001019999999N0000001N9+01441+99999099991ADDGF108991999999999999999999
0029029350999991922061413004+62233+025733FM-12+009499999V0203601N001019999999N0000001N9+02391+99999099821ADDGF105991999999999999999999
0035029350999991922061420004+62233+025733FM-12+009499999V0202901N001019999999N0000001N9+01561+99999099861ADDGF108991999999999999999999MW1621
0029029350999991922061506004+62233+025733FM-12+009499999V0202901N001019999999N0000001N9+01501+99999099791ADDGF108991999999999999999999
0029029350999991922061513004+62233+025733FM-12+009499999V0202701N001019999999N0000001N9+01891+99999099741ADDGF106991999999999999999999
0029029350999991922061520004+62233+025733FM-12+009499999V0201601N001019999999N0000001N9+01721+99999099621ADDGF106991999999999999999999
0029029350999991922061606004+62233+025733FM-12+009499999V0201401N001019999999N0000001N9+01611+99999099521ADDGF108991999999999999999999
0029029350999991922061613004+62233+025733FM-12+009499999V0202701N003119999999N0000001N9+01671+99999099361ADDGF108991999999999999999999
0029029350999991922061620004+62233+025733FM-12+009499999V0202701N005119999999N0000001N9+01501+99999099561ADDGF103991999999999999999999
0029029350999991922061706004+62233+025733FM-12+009499999V0202701N001019999999N0000001N9+01221+99999099961ADDGF100991999999999999999999
0029029350999991922061713004+62233+025733FM-12+009499999V0203401N001019999999N0000001N9+02171+99999100061ADDGF101991999999999999999999
0029029350999991922061720004+62233+025733FM-12+009499999V0201601N001019999999N0000001N9+01671+99999100061ADDGF100991999999999999999999
0029029350999991922061806004+62233+025733FM-12+009499999V0201601N001019999999N0000001N9+01671+99999100281ADDGF100991999999999999999999
0029029350999991922061813004+62233+025733FM-12+009499999V0201801N001019999999N0000001N9+02561+99999100271ADDGF100991999999999999999999
0029029350999991922061820004+62233+025733FM-12+009499999V0201801N001019999999N0000001N9+01941+99999100191ADDGF100991999999999999999999
0029029350999991922061906004+62233+025733FM-12+009499999V0201801N001019999999N0000001N9+01781+99999100151ADDGF102991999999999999999999
0029029350999991922061913004+62233+025733FM-12+009499999V0201401N003119999999N0000001N9+02061+99999099821ADDGF108991999999999999999999
0029029350999991922061920004+62233+025733FM-12+009499999V0201401N001019999999N0000001N9+02061+99999099441ADDGF108991999999999999999999
0029029350999991922062006004+62233+025733FM-12+009499999V0201801N001019999999N0000001N9+01671+99999099161ADDGF108991999999999999999999
0035029350999991922062013004+62233+025733FM-12+009499999V0209991C000019999999N0000001N9+01941+99999099111ADDGF108991999999999999999999MW1621
0029029350999991922062020004+62233+025733FM-12+009499999V0201401N003119999999N0000001N9+01781+99999099381ADDGF108991999999999999999999
0029029350999991922062106004+62233+025733FM-12+009499999V0200201N003119999999N0000001N9+01561+99999099601ADDGF100991999999999999999999
0029029350999991922062113004+62233+025733FM-12+009499999V0200501N003119999999N0000001N9+02391+99999099591ADDGF100991999999999999999999
0029029350999991922062120004+62233+025733FM-12+009499999V0200901N001019999999N0000001N9+01941+99999099591ADDGF100991999999999999999999
0029029350999991922062206004+62233+025733FM-12+009499999V0200501N001019999999N0000001N9+01611+99999099341ADDGF106991999999999999999999
0035029350999991922062213004+62233+025733FM-12+009499999V0200701N001019999999N0000001N9+01561+99999099391ADDGF108991999999999999999999MW1621
0029029350999991922062220004+62233+025733FM-12+009499999V0200701N001019999999N0000001N9+01561+99999099151ADDGF108991999999999999999999
0029029350999991922062306004+62233+025733FM-12+009499999V0200701N001019999999N0000001N9+01561+99999098951ADDGF108991999999999999999999
0029029350999991922062313004+62233+025733FM-12+009499999V0202701N001019999999N0000001N9+01671+99999099121ADDGF102991999999999999999999
0029029350999991922062320004+62233+025733FM-12+009499999V0202701N001019999999N0000001N9+01331+99999099351ADDGF100991999999999999999999
0029029350999991922062406004+62233+025733FM-12+009499999V0202701N001019999999N0000001N9+01331+99999099501ADDGF105991999999999999999999
0029029350999991922062413004+62233+025733FM-12+009499999V0201401N005119999999N0000001N9+01671+99999099431ADDGF108991999999999999999999
0029029350999991922062420004+62233+025733FM-12+009499999V0200501N001019999999N0000001N9+01281+99999099231ADDGF108991999999999999999999
0029029350999991922062506004+62233+025733FM-12+009499999V0200701N001019999999N0000001N9+01171+99999099041ADDGF108991999999999999999999
0029029350999991922062513004+62233+025733FM-12+009499999V0201401N001019999999N0000001N9+01391+99999099191ADDGF108991999999999999999999
0029029350999991922062520004+62233+025733FM-12+009499999V0201601N001019999999N0000001N9+01391+99999099321ADDGF101991999999999999999999
0029029350999991922062606004+62233+025733FM-12+009499999V0209991C000019999999N0000001N9+01221+99999099541ADDGF100991999999999999999999
0029029350999991922062613004+62233+025733FM-12+009499999V0201801N005119999999N0000001N9+02221+99999099401ADDGF100991999999999999999999
0029029350999991922062620004+62233+025733FM-12+009499999V0201801N001019999999N0000001N9+01611+99999098961ADDGF108991999999999999999999
0029029350999991922062706004+62233+025733FM-12+009499999V0200901N005119999999N0000001N9+01171+99999099271ADDGF104991999999999999999999
0029029350999991922062713004+62233+025733FM-12+009499999V0201401N003119999999N0000001N9+01831+99999099351ADDGF104991999999999999999999
0029029350999991922062720004+62233+025733FM-12+009499999V0209991C000019999999N0000001N9+01441+99999099361ADDGF102991999999999999999999
0029029350999991922062806004+62233+025733FM-12+009499999V0201601N001019999999N0000001N9+01281+99999099101ADDGF108991999999999999999999
0035029350999991922062813004+62233+025733FM-12+009499999V0201601N001019999999N0000001N9+01281+99999098701ADDGF108991999999999999999999MW1621
0029029350999991922062820004+62233+025733FM-12+009499999V0201601N001019999999N0000001N9+01221+99999098461ADDGF106991999999999999999999
0029029350999991922062906004+62233+025733FM-12+009499999V0201401N005119999999N0000001N9+01171+99999098761ADDGF108991999999999999999999
0029029350999991922062913004+62233+025733FM-12+009499999V0201401N005119999999N0000001N9+01611+99999098991ADDGF106991999999999999999999
0029029350999991922062920004+62233+025733FM-12+009499999V0201601N003119999999N0000001N9+01561+99999098961ADDGF108991999999999999999999
0029029350999991922063006004+62233+025733FM-12+009499999V0202301N002119999999N0000001N9+01331+99999098901ADDGF106991999999999999999999
0029029350999991922063013004+62233+025733FM-12+009499999V0202701N001019999999N0000001N9+01891+99999099241ADDGF104991999999999999999999
0029029350999991922063020004+62233+025733FM-12+009499999V0202301N001019999999N0000001N9+01281+99999099581ADDGF106991999999999999999999
0029029350999991922070106004+62233+025733FM-12+009499999V0202701N005119999999N0000001N9+01281+99999100041ADDGF102991999999999999999999
0029029350999991922070113004+62233+025733FM-12+009499999V0201401N005119999999N0000001N9+01831+99999100271ADDGF105991999999999999999999
0029029350999991922070120004+62233+025733FM-12+009499999V0201601N001019999999N0000001N9+01501+99999100401ADDGF103991999999999999999999
0029029350999991922070206004+62233+025733FM-12+009499999V0202301N003119999999N0000001N9+01221+99999100701ADDGF107991999999999999999999
0029029350999991922070213004+62233+025733FM-12+009499999V0201101N003119999999N0000001N9+01891+99999100831ADDGF106991999999999999999999
0029029350999991922070220004+62233+025733FM-12+009499999V0202701N001019999999N0000001N9+01561+99999100981ADDGF105991999999999999999999
0029029350999991922070306004+62233+025733FM-12+009499999V0202701N001019999999N0000001N9+01501+99999101241ADDGF100991999999999999999999
0029029350999991922070313004+62233+025733FM-12+009499999V0201601N003119999999N0000001N9+02331+99999101181ADDGF102991999999999999999999
0029029350999991922070320004+62233+025733FM-12+009499999V0209991C000019999999N0000001N9+01721+99999100921ADDGF101991999999999999999999
0029029350999991922070406004+62233+025733FM-12+009499999V0201601N001019999999N0000001N9+01501+99999100661ADDGF108991999999999999999999
0029029350999991922070413004+62233+025733FM-12+009499999V0201801N005119999999N0000001N9+02171+99999100481ADDGF105991999999999999999999
0029029350999991922070420004+62233+025733FM-12+009499999V0201401N001019999999N0000001N9+01721+99999100281ADDGF107991999999999999999999
0029029350999991922070506004+62233+025733FM-12+009499999V0202301N001019999999N0000001N9+01501+99999100141ADDGF106991999999999999999999
0029029350999991922070513004+62233+025733FM-12+009499999V0201801N003119999999N0000001N9+02171+99999099951ADDGF105991999999999999999999
0029029350999991922070520004+62233+025733FM-12+009499999V0201601N001019999999N0000001N9+01721+99999099821ADDGF106991999999999999999999
0029029350999991922070606004+62233+025733FM-12+009499999V0201601N001019999999N0000001N9+01561+99999099681ADDGF108991999999999999999999
0029029350999991922070613004+62233+025733FM-12+009499999V0202501N001019999999N0000001N9+01781+99999099871ADDGF108991999999999999999999
0029029350999991922070620004+62233+025733FM-12+009499999V0202701N001019999999N0000001N9+01721+99999099941ADDGF102991999999999999999999
0029029350999991922070706004+62233+025733FM-12+009499999V0201601N003119999999N0000001N9+01781+99999099761ADDGF108991999999999999999999
0029029350999991922070713004+62233+025733FM-12+009499999V0201801N003119999999N0000001N9+02781+99999099541ADDGF105991999999999999999999
0029029350999991922070720004+62233+025733FM-12+009499999V0202701N001019999999N0000001N9+02391+99999099521ADDGF100991999999999999999999
0035029350999991922070806004+62233+025733FM-12+009499999V0202301N001019999999N0000001N9+01331+99999099911ADDGF108991999999999999999999MW1621
0029029350999991922070813004+62233+025733FM-12+009499999V0202501N001019999999N0000001N9+01441+99999100021ADDGF108991999999999999999999
0029029350999991922070820004+62233+025733FM-12+009499999V0202701N001019999999N0000001N9+01501+99999100061ADDGF102991999999999999999999
0029029350999991922070906004+62233+025733FM-12+009499999V0202301N005119999999N0000001N9+01501+99999100601ADDGF100991999999999999999999
0029029350999991922070913004+62233+025733FM-12+009499999V0202001N003119999999N0000001N9+02061+99999100821ADDGF100991999999999999999999
0029029350999991922070920004+62233+025733FM-12+009499999V0202501N001019999999N0000001N9+01671+99999100821ADDGF100991999999999999999999
0029029350999991922071006004+62233+025733FM-12+009499999V0202001N003119999999N0000001N9+01561+99999100641ADDGF102991999999999999999999
0029029350999991922071013004+62233+025733FM-12+009499999V0201401N005119999999N0000001N9+01831+99999100241ADDGF108991999999999999999999
0029029350999991922071020004+62233+025733FM-12+009499999V0203601N003119999999N0000001N9+01561+99999100231ADDGF103991999999999999999999
0029029350999991922071106004+62233+025733FM-12+009499999V0201801N005119999999N0000001N9+01501+99999100151ADDGF108991999999999999999999
0029029350999991922071113004+62233+025733FM-12+009499999V0202301N001019999999N0000001N9+01331+99999100081ADDGF105991999999999999999999
0029029350999991922071120004+62233+025733FM-12+009499999V0202901N003119999999N0000001N9+01331+99999100041ADDGF107991999999999999999999
0029029350999991922071206004+62233+025733FM-12+009499999V0202901N001019999999N0000001N9+01171+99999100341ADDGF108991999999999999999999
0029029350999991922071213004+62233+025733FM-12+009499999V0203601N005119999999N0000001N9+01831+99999100391ADDGF104991999999999999999999
0029029350999991922071220004+62233+025733FM-12+009499999V0203601N001019999999N0000001N9+01331+99999100481ADDGF100991999999999999999999
0029029350999991922071306004+62233+025733FM-12+009499999V0203601N001019999999N0000001N9+01281+99999100561ADDGF106991999999999999999999
0029029350999991922071313004+62233+025733FM-12+009499999V0203601N003119999999N0000001N9+01441+99999100581ADDGF108991999999999999999999
0029029350999991922071320004+62233+025733FM-12+009499999V0200201N003119999999N0000001N9+01171+99999100541ADDGF106991999999999999999999
0029029350999991922071406004+62233+025733FM-12+009499999V0203601N003119999999N0000001N9+01061+99999100501ADDGF108991999999999999999999
0035029350999991922071413004+62233+025733FM-12+009499999V0203601N001019999999N0000001N9+01391+99999100341ADDGF108991999999999999999999MW1621
0029029350999991922071420004+62233+025733FM-12+009499999V0203601N001019999999N0000001N9+01281+99999100191ADDGF106991999999999999999999
0029029350999991922071506004+62233+025733FM-12+009499999V0209991C000019999999N0000001N9+01281+99999100041ADDGF106991999999999999999999
0029029350999991922071513004+62233+025733FM-12+009499999V0200901N003119999999N0000001N9+02221+99999099881ADDGF104991999999999999999999
0029029350999991922071520004+62233+025733FM-12+009499999V0201101N001019999999N0000001N9+01441+99999099901ADDGF101991999999999999999999
0029029350999991922071606004+62233+025733FM-12+009499999V0200901N001019999999N0000001N9+01441+99999099761ADDGF107991999999999999999999
0029029350999991922071613004+62233+025733FM-12+009499999V0200901N001019999999N0000001N9+02221+99999099671ADDGF102991999999999999999999
0029029350999991922071620004+62233+025733FM-12+009499999V0200901N001019999999N0000001N9+01611+99999099601ADDGF100991999999999999999999
0029029350999991922071706004+62233+025733FM-12+009499999V0209991C000019999999N0000001N9+01611+99999099541ADDGF103991999999999999999999
0029029350999991922071713004+62233+025733FM-12+009499999V0200901N003119999999N0000001N9+01831+99999099391ADDGF108991999999999999999999
0029029350999991922071720004+62233+025733FM-12+009499999V0200501N001019999999N0000001N9+01611+99999099231ADDGF104991999999999999999999
0029029350999991922071806004+62233+025733FM-12+009499999V0203601N005119999999N0000001N9+01561+99999098981ADDGF108991999999999999999999
0035029350999991922071813004+62233+025733FM-12+009499999V0200701N003119999999N0000001N9+01561+99999098871ADDGF108991999999999999999999MW1621
0035029350999991922071820004+62233+025733FM-12+009499999V0200201N003119999999N0000001N9+01441+99999098921ADDGF108991999999999999999999MW1621
0035029350999991922071906004+62233+025733FM-12+009499999V0200201N001019999999N0000001N9+01281+99999098681ADDGF108991999999999999999999MW1621
0029029350999991922071913004+62233+025733FM-12+009499999V0203601N001019999999N0000001N9+01611+99999098681ADDGF105991999999999999999999
0029029350999991922071920004+62233+025733FM-12+009499999V0200201N001019999999N0000001N9+01671+99999098751ADDGF106991999999999999999999
0029029350999991922072006004+62233+025733FM-12+009499999V0203601N001019999999N0000001N9+01501+99999098801ADDGF107991999999999999999999
0029029350999991922072013004+62233+025733FM-12+009499999V0200501N003119999999N0000001N9+02061+99999098911ADDGF106991999999999999999999
0029029350999991922072020004+62233+025733FM-12+009499999V0209991C000019999999N0000001N9+01721+99999099031ADDGF103991999999999999999999
0029029350999991922072106004+62233+025733FM-12+009499999V0203601N003119999999N0000001N9+01671+99999099071ADDGF100991999999999999999999
0029029350999991922072113004+62233+025733FM-12+009499999V0200501N003119999999N0000001N9+02111+99999099111ADDGF102991999999999999999999
0029029350999991922072120004+62233+025733FM-12+009499999V0203601N001019999999N0000001N9+01891+99999098911ADDGF103991999999999999999999
0029029350999991922072206004+62233+025733FM-12+009499999V0203601N003119999999N0000001N9+01501+99999098511ADDGF108991999999999999999999
0035029350999991922072213004+62233+025733FM-12+009499999V0203401N001019999999N0000001N9+01891+99999098501ADDGF108991999999999999999999MW1621
0029029350999991922072220004+62233+025733FM-12+009499999V0203401N001019999999N0000001N9+01671+99999098511ADDGF106991999999999999999999
0029029350999991922072306004+62233+025733FM-12+009499999V0203401N001019999999N0000001N9+01721+99999098671ADDGF102991999999999999999999
0029029350999991922072313004+62233+025733FM-12+009499999V0200501N001019999999N0000001N9+01941+99999098801ADDGF104991999999999999999999
0029029350999991922072320004+62233+025733FM-12+009499999V0203601N001019999999N0000001N9+01611+99999098941ADDGF103991999999999999999999
0029029350999991922072406004+62233+025733FM-12+009499999V0209991C000019999999N0000001N9+01721+99999099101ADDGF102991999999999999999999
0029029350999991922072413004+62233+025733FM-12+009499999V0203601N003119999999N0000001N9+02391+99999099191ADDGF105991999999999999999999
0029029350999991922072420004+62233+025733FM-12+009499999V0209991C000019999999N0000001N9+01941+99999099281ADDGF107991999999999999999999
0029029350999991922072506004+62233+025733FM-12+009499999V0203601N001019999999N0000001N9+01721+99999099401ADDGF103991999999999999999999
0029029350999991922072513004+62233+025733FM-12+009499999V0200501N001019999999N0000001N9+02501+99999099381ADDGF104991999999999999999999
0029029350999991922072520004+62233+025733FM-12+009499999V0200501N001019999999N0000001N9+01671+99999099431ADDGF100991999999999999999999
0029029350999991922072606004+62233+025733FM-12+009499999V0200501N001019999999N0000001N9+01721+99999099511ADDGF108991999999999999999999
0029029350999991922072613004+62233+025733FM-12+009499999V0200501N003119999999N0000001N9+02171+99999099561ADDGF106991999999999999999999
0029029350999991922072620004+62233+025733FM-12+009499999V0200501N001019999999N0000001N9+01671+99999099591ADDGF102991999999999999999999
0029029350999991922072706004+62233+025733FM-12+009499999V0200201N003119999999N0000001N9+01441+99999099421ADDGF102991999999999999999999
0029029350999991922072713004+62233+025733FM-12+009499999V0200501N003119999999N0000001N9+02221+99999099231ADDGF101991999999999999999999
0029029350999991922072720004+62233+025733FM-12+009499999V0209991C000019999999N0000001N9+01721+99999099121ADDGF101991999999999999999999
0029029350999991922072806004+62233+025733FM-12+009499999V0203601N003119999999N0000001N9+01501+99999098861ADDGF100991999999999999999999
0029029350999991922072813004+62233+025733FM-12+009499999V0200501N001019999999N0000001N9+02171+99999098871ADDGF104991999999999999999999
0029029350999991922072820004+62233+025733FM-12+009499999V0209991C000019999999N0000001N9+01611+99999098721ADDGF102991999999999999999999
0029029350999991922072906004+62233+025733FM-12+009499999V0203201N003119999999N0000001N9+01331+99999098711ADDGF108991999999999999999999
0035029350999991922072913004+62233+025733FM-12+009499999V0202701N001019999999N0000001N9+01561+99999098831ADDGF108991999999999999999999MW1601
0029029350999991922072920004+62233+025733FM-12+009499999V0202701N001019999999N0000001N9+01391+99999098901ADDGF101991999999999999999999
0035029350999991922073006004+62233+025733FM-12+009499999V0203201N001019999999N0000001N9+01391+99999098831ADDGF108991999999999999999999MW1601
0035029350999991922073013004+62233+025733FM-12+009499999V0202701N003119999999N0000001N9+01561+99999099071ADDGF108991999999999999999999MW1601
0029029350999991922073020004+62233+025733FM-12+009499999V0209991C000019999999N0000001N9+01561+99999099191ADDGF108991999999999999999999
0029029350999991922073106004+62233+025733FM-12+009499999V0203201N003119999999N0000001N9+01441+99999099321ADDGF107991999999999999999999
0029029350999991922073113004+62233+025733FM-12+009499999V0201801N003119999999N0000001N9+01941+99999099441ADDGF103991999999999999999999
0029029350999991922073120004+62233+025733FM-12+009499999V0202901N001019999999N0000001N9+01561+99999099521ADDGF106991999999999999999999
0029029350999991922080106004+62233+025733FM-12+009499999V0202701N001019999999N0000001N9+01441+99999099751ADDGF105991999999999999999999
0029029350999991922080113004+62233+025733FM-12+009499999V0201801N003119999999N0000001N9+02171+99999099801ADDGF104991999999999999999999
0029029350999991922080120004+62233+025733FM-12+009499999V0209991C000019999999N0000001N9+01671+99999099821ADDGF106991999999999999999999
0029029350999991922080206004+62233+025733FM-12+009499999V0202701N003119999999N0000001N9+01441+99999099991ADDGF102991999999999999999999
0029029350999991922080213004+62233+025733FM-12+009499999V0202301N005119999999N0000001N9+02001+99999100141ADDGF106991999999999999999999
0029029350999991922080220004+62233+025733FM-12+009499999V0202301N001019999999N0000001N9+01501+99999100321ADDGF106991999999999999999999
0029029350999991922080306004+62233+025733FM-12+009499999V0209991C000019999999N0000001N9+01221+99999100441ADDGF108991999999999999999999
0035029350999991922080313004+62233+025733FM-12+009499999V0209991C000019999999N0000001N9+01561+99999100321ADDGF108991999999999999999999MW1601
0035029350999991922080320004+62233+025733FM-12+009499999V0203601N003119999999N0000001N9+01281+99999099721ADDGF108991999999999999999999MW1601
0029029350999991922080406004+62233+025733FM-12+009499999V0203201N003119999999N0000001N9+01221+99999099641ADDGF108991999999999999999999
0029029350999991922080413004+62233+025733FM-12+009499999V0202001N003119999999N0000001N9+01781+99999099681ADDGF106991999999999999999999
0029029350999991922080420004+62233+025733FM-12+009499999V0209991C000019999999N0000001N9+01331+99999099751ADDGF108991999999999999999999
0029029350999991922080506004+62233+025733FM-12+009499999V0202901N003119999999N0000001N9+01221+99999099741ADDGF100991999999999999999999
0029029350999991922080513004+62233+025733FM-12+009499999V0202301N003119999999N0000001N9+01891+99999099751ADDGF102991999999999999999999
0029029350999991922080520004+62233+025733FM-12+009499999V0209991C000019999999N0000001N9+01281+99999099901ADDGF100991999999999999999999
0029029350999991922080606004+62233+025733FM-12+009499999V0209991C000019999999N0000001N9+00941+99999100061ADDGF100991999999999999999999
0029029350999991922080613004+62233+025733FM-12+009499999V0202901N001019999999N0000001N9+02001+99999099991ADDGF102991999999999999999999
0029029350999991922080620004+62233+025733FM-12+009499999V0209991C000019999999N0000001N9+01441+99999099841ADDGF103991999999999999999999
0029029350999991922080706004+62233+025733FM-12+009499999V0200501N001019999999N0000001N9+01331+99999099481ADDGF108991999999999999999999
0029029350999991922080713004+62233+025733FM-12+009499999V0203601N001019999999N0000001N9+01611+99999099261ADDGF108991999999999999999999
0029029350999991922080720004+62233+025733FM-12+009499999V0203601N001019999999N0000001N9+01171+99999099181ADDGF108991999999999999999999
0029029350999991922080806004+62233+025733FM-12+009499999V0202701N001019999999N0000001N9+01221+99999099241ADDGF105991999999999999999999
0035029350999991922080813004+62233+025733FM-12+009499999V0202701N001019999999N0000001N9+01501+99999099581ADDGF107991999999999999999999MW1951
0029029350999991922080820004+62233+025733FM-12+009499999V0209991C000019999999N0000001N9+01391+99999099761ADDGF100991999999999999999999
0029029350999991922080906004+62233+025733FM-12+009499999V0202701N001019999999N0000001N9+01171+99999100071ADDGF102991999999999999999999
0029029350999991922080913004+62233+025733FM-12+009499999V0202501N001019999999N0000001N9+02111+99999100201ADDGF102991999999999999999999
0029029350999991922080920004+62233+025733FM-12+009499999V0202701N001019999999N0000001N9+01441+99999099881ADDGF102991999999999999999999
0029029350999991922081006004+62233+025733FM-12+009499999V0203601N003119999999N0000001N9+01221+99999099391ADDGF108991999999999999999999
0029029350999991922081013004+62233+025733FM-12+009499999V0200201N001019999999N0000001N9+01441+99999099061ADDGF108991999999999999999999
0035029350999991922081020004+62233+025733FM-12+009499999V0203601N003119999999N0000001N9+01331+99999099001ADDGF108991999999999999999999MW1621
0029029350999991922081106004+62233+025733FM-12+009499999V0203601N001019999999N0000001N9+01281+99999099111ADDGF108991999999999999999999
0035029350999991922081113004+62233+025733FM-12+009499999V0202901N001019999999N0000001N9+01561+99999099341ADDGF108991999999999999999999MW1621
0035029350999991922081120004+62233+025733FM-12+009499999V0209991C000019999999N0000001N9+01281+99999099541ADDGF108991999999999999999999MW1621
0029029350999991922081206004+62233+025733FM-12+009499999V0203601N003119999999N0000001N9+01171+99999099541ADDGF106991999999999999999999
0035029350999991922081213004+62233+025733FM-12+009499999V0203601N003119999999N0000001N9+01221+99999099551ADDGF108991999999999999999999MW1621
0029029350999991922081220004+62233+025733FM-12+009499999V0203601N003119999999N0000001N9+01001+99999099601ADDGF108991999999999999999999
0035029350999991922081306004+62233+025733FM-12+009499999V0203601N003119999999N0000001N9+00891+99999099581ADDGF108991999999999999999999MW1621
0035029350999991922081313004+62233+025733FM-12+009499999V0200501N001019999999N0000001N9+01171+99999099671ADDGF108991999999999999999999MW1621
0029029350999991922081320004+62233+025733FM-12+009499999V0200501N001019999999N0000001N9+01111+99999099791ADDGF107991999999999999999999
0029029350999991922081406004+62233+025733FM-12+009499999V0203601N001019999999N0000001N9+01111+99999099781ADDGF106991999999999999999999
0029029350999991922081413004+62233+025733FM-12+009499999V0200201N001019999999N0000001N9+01441+99999099781ADDGF107991999999999999999999
0029029350999991922081420004+62233+025733FM-12+009499999V0209991C000019999999N0000001N9+01111+99999099751ADDGF105991999999999999999999
0029029350999991922081506004+62233+025733FM-12+009499999V0203601N001019999999N0000001N9+01001+99999099781ADDGF108991999999999999999999
0029029350999991922081513004+62233+025733FM-12+009499999V0202901N003119999999N0000001N9+01501+99999099841ADDGF107991999999999999999999
0029029350999991922081520004+62233+025733FM-12+009499999V0209991C000019999999N0000001N9+01061+99999099921ADDGF105991999999999999999999
0029029350999991922081606004+62233+025733FM-12+009499999V0200201N001019999999N0000001N9+01001+99999099951ADDGF106991999999999999999999
0029029350999991922081613004+62233+025733FM-12+009499999V0203201N001019999999N0000001N9+01671+99999100021ADDGF104991999999999999999999
0029029350999991922081620004+62233+025733FM-12+009499999V0209991C000019999999N0000001N9+01061+99999100061ADDGF100991999999999999999999
0029029350999991922081706004+62233+025733FM-12+009499999V0203401N001019999999N0000001N9+00781+99999100281ADDGF100991999999999999999999
0029029350999991922081713004+62233+025733FM-12+009499999V0202901N001019999999N0000001N9+01891+99999100381ADDGF100991999999999999999999
0029029350999991922081720004+62233+025733FM-12+009499999V0209991C000019999999N0000001N9+01171+99999100321ADDGF100991999999999999999999
0029029350999991922081806004+62233+025733FM-12+009499999V0209991C000019999999N0000001N9+00781+99999100301ADDGF100991999999999999999999
0035029350999991922081813004+62233+025733FM-12+009499999V0202901N001019999999N0000001N9+01781+99999100191ADDGF107991999999999999999999MW1601
0035029350999991922081820004+62233+025733FM-12+009499999V0202301N001019999999N0000001N9+01331+99999100071ADDGF108991999999999999999999MW1601
0029029350999991922081906004+62233+025733FM-12+009499999V0201801N001019999999N0000001N9+01391+99999099861ADDGF106991999999999999999999
0035029350999991922081913004+62233+025733FM-12+009499999V0201101N001019999999N0000001N9+01781+99999099681ADDGF107991999999999999999999MW1621
0035029350999991922081920004+62233+025733FM-12+009499999V0203601N001019999999N0000001N9+01281+99999099561ADDGF108991999999999999999999MW1621
0029029350999991922082006004+62233+025733FM-12+009499999V0202701N001019999999N0000001N9+01171+99999099511ADDGF107991999999999999999999
0029029350999991922082013004+62233+025733FM-12+009499999V0202901N001019999999N0000001N9+01391+99999099631ADDGF108991999999999999999999
0035029350999991922082020004+62233+025733FM-12+009499999V0200501N001019999999N0000001N9+01441+99999099521ADDGF108991999999999999999999MW1621
0029029350999991922082106004+62233+025733FM-12+009499999V0202001N003119999999N0000001N9+01441+99999099641ADDGF108991999999999999999999
0029029350999991922082113004+62233+025733FM-12+009499999V0201801N003119999999N0000001N9+01561+99999099941ADDGF108991999999999999999999
0029029350999991922082120004+62233+025733FM-12+009499999V0201401N001019999999N0000001N9+01331+99999100061ADDGF108991999999999999999999
0029029350999991922082206004+62233+025733FM-12+009499999V0201801N005119999999N0000001N9+01331+99999100161ADDGF108991999999999999999999
0029029350999991922082213004+62233+025733FM-12+009499999V0202501N005119999999N0000001N9+01831+99999100111ADDGF104991999999999999999999
0035029350999991922082220004+62233+025733FM-12+009499999V0202301N003119999999N0000001N9+01281+99999100221ADDGF108991999999999999999999MW1621
0029029350999991922082306004+62233+025733FM-12+009499999V0202301N001019999999N0000001N9+01221+99999100191ADDGF108991999999999999999999
0029029350999991922082313004+62233+025733FM-12+009499999V0201801N001019999999N0000001N9+02001+99999099961ADDGF103991999999999999999999
0029029350999991922082320004+62233+025733FM-12+009499999V0209991C000019999999N0000001N9+01441+99999099761ADDGF102991999999999999999999
0029029350999991922082406004+62233+025733FM-12+009499999V0201401N003119999999N0000001N9+01441+99999099551ADDGF106991999999999999999999
0029029350999991922082413004+62233+025733FM-12+009499999V0201601N003119999999N0000001N9+02221+99999099381ADDGF103991999999999999999999
0029029350999991922082420004+62233+025733FM-12+009499999V0201801N003119999999N0000001N9+01671+99999099301ADDGF101991999999999999999999
0035029350999991922082506004+62233+025733FM-12+009499999V0201401N001019999999N0000001N9+01501+99999099341ADDGF108991999999999999999999MW1621
0035029350999991922082513004+62233+025733FM-12+009499999V0201801N005119999999N0000001N9+01501+99999099601ADDGF108991999999999999999999MW1621
0029029350999991922082520004+62233+025733FM-12+009499999V0209991C000019999999N0000001N9+01331+99999099711ADDGF104991999999999999999999
0029029350999991922082606004+62233+025733FM-12+009499999V0201801N001019999999N0000001N9+01281+99999099951ADDGF103991999999999999999999
0029029350999991922082613004+62233+025733FM-12+009499999V0201401N001019999999N0000001N9+02001+99999100081ADDGF100991999999999999999999
0029029350999991922082620004+62233+025733FM-12+009499999V0209991C000019999999N0000001N9+01391+99999100071ADDGF107991999999999999999999
0029029350999991922082706004+62233+025733FM-12+009499999V0209991C000019999999N0000001N9+01281+99999100141ADDGF108991999999999999999999
0029029350999991922082713004+62233+025733FM-12+009499999V0202301N003119999999N0000001N9+01561+99999100301ADDGF108991999999999999999999
0029029350999991922082720004+62233+025733FM-12+009499999V0201401N001019999999N0000001N9+01391+99999100381ADDGF108991999999999999999999
0029029350999991922082806004+62233+025733FM-12+009499999V0209991C000019999999N0000001N9+01111+99999100671ADDGF108991999999999999999999
0029029350999991922082813004+62233+025733FM-12+009499999V0202501N003119999999N0000001N9+01671+99999100801ADDGF106991999999999999999999
0029029350999991922082820004+62233+025733FM-12+009499999V0202701N001019999999N0000001N9+01281+99999100741ADDGF100991999999999999999999
0029029350999991922082906004+62233+025733FM-12+009499999V0201801N001019999999N0000001N9+01221+99999100641ADDGF108991999999999999999999
0029029350999991922082913004+62233+025733FM-12+009499999V0201801N003119999999N0000001N9+01561+99999100641ADDGF108991999999999999999999
0029029350999991922082920004+62233+025733FM-12+009499999V0209991C000019999999N0000001N9+01281+99999100591ADDGF103991999999999999999999
0029029350999991922083006004+62233+025733FM-12+009499999V0202701N001019999999N0000001N9+01281+99999100601ADDGF108991999999999999999999
0029029350999991922083013004+62233+025733FM-12+009499999V0202701N001019999999N0000001N9+02001+99999100621ADDGF106991999999999999999999
0029029350999991922083020004+62233+025733FM-12+009499999V0202701N001019999999N0000001N9+01611+99999100541ADDGF103991999999999999999999
0029029350999991922083106004+62233+025733FM-12+009499999V0209991C000019999999N0000001N9+01391+99999100481ADDGF108991999999999999999999
0029029350999991922083113004+62233+025733FM-12+009499999V0202501N001019999999N0000001N9+01781+99999100551ADDGF107991999999999999999999
0029029350999991922083120004+62233+025733FM-12+009499999V0209991C000019999999N0000001N9+01561+99999100621ADDGF106991999999999999999999
0029029350999991922090106004+62233+025733FM-12+009499999V0200501N001019999999N0000001N9+01061+99999100901ADDGF106991999999999999999999
0029029350999991922090113004+62233+025733FM-12+009499999V0200901N001019999999N0000001N9+01331+99999100941ADDGF107991999999999999999999
0029029350999991922090120004+62233+025733FM-12+009499999V0200901N001019999999N0000001N9+01111+99999100981ADDGF108991999999999999999999
0029029350999991922090206004+62233+025733FM-12+009499999V0209991C000019999999N0000001N9+01061+99999101081ADDGF102991999999999999999999
0029029350999991922090213004+62233+025733FM-12+009499999V0200901N001019999999N0000001N9+01671+99999101111ADDGF104991999999999999999999
