0076012620999991928010206004+64800+010550FM-12+003799999V0201401N00671030001CN0200001N9+00001+99999100701ADDAY121999GF108991011061008001021001MD1810602+9999MW1161EQDQ01+000602APC3  
0087012620999991928010306004+64800+010550FM-12+003799999V0202701N009319999999N0200001N9+00501+99999100191ADDAA199000691AY181999GF107991999061004501001001MD1310201+9999MW1161EQDQ01+000022SCOTLC
0087012620999991928010406004+64800+010550FM-12+003799999V0201601N00461030001CN0200001N9+00221+99999099531ADDAA199000591AY161999GF108991021061008001021001MD1810542+9999MW1161EQDQ01+000542APC3  
0087012620999991928010706004+64800+010550FM-12+003799999V0203601N00931001501CN0100001N9+00111+99999099581ADDAA199002091AY171999GF107991999061001501001001MD1310261+9999MW1161EQDQ01+000062SCOTLC
0081012620999991928010806004+64800+010550FM-12+003799999V0201401N00931015001CN0200001N9+00001+99999097841ADDAA199003091AY121999GF108991061051017501021001MD1810602+9999EQDQ01+000602APC3  
0068012620999991928010906004+64800+010550FM-12+003799999V0201601N00931004501CN0020001N9+00111+99999097471ADDAA199000691AY121999GF108991081061004501999999MD1810201+9999MW1681
0057012620999991928011006004+64800+010550FM-12+003799999V0201601N00461030001CN0200001N9+00221+99999098741ADDAY121999GF108991011061004501021001MD1410001+9999MW1161
0068012620999991928011106004+64800+010550FM-12+003799999V0201101N00931001501CN0002001N9+00001+99999999999ADDAA199004091AY171999GF108991081061001501999999MD1510141+9999MW1751
0048012620999991928011206004+64800+010550FM-12+003799999V0202501N009319999999N0200001N9+00281+99999098401ADDAA199002091AY171999GF106991999999012501999999
0062012620999991928011306004+64800+010550FM-12+003799999V0201101N00461220001CN0500001N9+00111+99999098191ADDAA199000591AY101999GF102991999999022501999999MD1810341+9999
0051012620999991928011406004+64800+010550FM-12+003799999V0201401N00101012301CN0500001N9-00111+99999099271ADDAY121999GF108991081051012501999999MD1310201+9999
0070012620999991928011506004+64800+010550FM-12+003799999V0201101N00461220001CN0500001N9-00221+99999099891ADDAY101999GF101991999001999999021001MD1610061+9999EQDQ01+000002SCOTLC
0068012620999991928011606004+64800+010550FM-12+003799999V0200901N00261004501CN0010001N9-00391+99999100521ADDAA199000391AY101999GF108991081061004501999999MD1310201+9999MW1721
0051012620999991928011706004+64800+010550FM-12+003799999V0201101N00261030001CN0500001N9-00501+99999102351ADDAY111999GF107991021061012501021001MD1310201+9999
0072012620999991928011806004+64800+010550FM-12+003799999V0201401N00261220001CN0500001N9-00391+99999102791ADDAY101999GF100991001001999999001001EQDQ01+000032APCTENQ02+000002APC3  
0051012620999991928012006004+64800+010550FM-12+003799999V0201601N00461030001CN0200001N9+00001+99999101591ADDAY121999GF108991011061008001021001MD1610141+9999
0062012620999991928012106004+64800+010550FM-12+003799999V0201801N00261030001CN0200001N9+00391+99999101261ADDAA199000691AY181999GF107991021051004501021001MD1310061+9999
0051012620999991928012206004+64800+010550FM-12+003799999V0201801N00671030001CN0200001N9+00391+99999100171ADDAY121999GF108991021051022501021001MD1310261+9999
0078012620999991928012406004+64800+010550FM-12+003799999V0201601N00931030001CN0200001N9+00111+99999099261ADDAY121999GF107991021061004501021001MW1161EQDQ01+000082APCTENQ02+000002APC3  
0068012620999991928012506004+64800+010550FM-12+003799999V0202301N00671002401CN0005001N9+00111+99999098231ADDAA199000591AY121999GF108991081061002501999999MD1990341+9999MW1771
0068012620999991928012706004+64800+010550FM-12+003799999V0201801N00461030001CN0200001N9+00391+99999100311ADDAA199000591AY161999GF108991011061008001021001MD1310141+9999MW1161
0057012620999991928012806004+64800+010550FM-12+003799999V0202501N00671220001CN0000001N9+00281+99999100591ADDAY171999GF104991041051022501031001MD1510001+9999MW1611
0062012620999991928012906004+64800+010550FM-12+003799999V0201401N00461220001CN0500001N9+00111+99999100071ADDAA199001091AY101999GF104991001001999999021021MD1810141+9999
0051012620999991928013006004+64800+010550FM-12+003799999V0201101N00931220001CN0500001N9-00111+99999100351ADDAY101999GF102991001001999999021021MD1810261+9999
0051012620999991928013106004+64800+010550FM-12+003799999V0201801N01231030001CN0500001N9+00221+99999100101ADDAY111999GF108991041011012501021001MD1110141+9999
0051012620999991928020106004+64800+010550FM-12+003799999V0201601N01541030001CN0200001N9+00221+99999098641ADDAY121999GF108991011061008001021001MD1810461+9999
0087012620999991928020306004+64800+010550FM-12+003799999V0202301N006719999999N0200001N9+00281+99999099761ADDAA199000591AY111999GF106991999061004501001001MD1310401+9999MW1161EQDQ01+000042SCOTLC
0087012620999991928020406004+64800+010550FM-12+003799999V0202301N00931004501CN0200001N9+00281+99999100691ADDAA199003091AY171999GF108991999061004501001001MD1310201+9999MW1161EQDQ01+000062SCOTLC
0068012620999991928020506004+64800+010550FM-12+003799999V0201601N00461004501CN0100001N9+00221+99999099141ADDAA199002091AY161999GF108991081061004501999999MD1810401+9999MW1681
0057012620999991928020606004+64800+010550FM-12+003799999V0202501N01231030001CN0100001N9+00281+99999098971ADDAY121999GF108991041061004501021001MD1810061+9999MW1161
0087012620999991928020706004+64800+010550FM-12+003799999V0201601N00931030001CN0200001N9+00281+99999098431ADDAA199001091AY181999GF108991041061004501021001MD1810862+9999MW1161EQDQ01+000862APC3  
0087012620999991928020806004+64800+010550FM-12+003799999V0202901N012319999999N0100001N9+00391+99999098961ADDAA199000691AY181999GF108991999061002501001001MD1310141+9999MW1771EQDQ01+000042SCOTLC
0087012620999991928020906004+64800+010550FM-12+003799999V0201401N00671002401CN0010001N9+00111+99999097011ADDAA199002091AY171999GF108991081061002501999999MD1810742+9999MW1681EQDQ01+000742APC3  
0068012620999991928021006004+64800+010550FM-12+003799999V0203201N00101030001CN0200001N9+00001+99999098271ADDAA199000391AY181999GF107991021061002501021001MD1310461+9999MW1161
0087012620999991928021106004+64800+010550FM-12+003799999V0202701N004619999999N0200001N9+00001+99999098271ADDAA199001091AY181999GF108991999061002501001001MD1610201+9999MW1161EQDQ01+000042SCOTLC
0105012620999991928021306004+64800+010550FM-12+003799999V0201801N00261220001CN0500001N9+00001+99999099471ADDAA199001091AY111999GF102991999061002501001001MW1161EQDQ01+000012SCOTLCQ02+000032APCTENQ03+000002APC3  
0070012620999991928021406004+64800+010550FM-12+003799999V0201401N00461220001CN0500001N9-00391+99999099621ADDAY101999GF101991999001999999021001MD1990061+9999EQDQ01+000002SCOTLC
0051012620999991928021506004+64800+010550FM-12+003799999V0201401N00671220001CN0500001N9-00391+99999100351ADDAY111999GF107991001001999999021021MD1010001+9999
0068012620999991928021606004+64800+010550FM-12+003799999V0201401N01541002401CN0010001N9-00111+99999098301ADDAA199000391AY171999GF108991081061002501999999MD1710141+9999MW1711
0068012620999991928021706004+64800+010550FM-12+003799999V0201401N01541030001CN0100001N9-00281+99999098741ADDAA199004091AY171999GF108991041061002501021001MD1310141+9999MW1161
0068012620999991928021806004+64800+010550FM-12+003799999V0201401N00931004501CN0040001N9-00501+99999100431ADDAA199000591AY171999GF108991081061004501999999MD1310201+9999MW1711
0070012620999991928021906004+64800+010550FM-12+003799999V0201401N00671220001CN0500001N9-00391+99999101141ADDAY101999GF101991999001999999021001MD1310401+9999EQDQ01+000002SCOTLC
0068012620999991928022006004+64800+010550FM-12+003799999V0201401N00461030001CN0200001N9+00111+99999103321ADDAA199073091AY181999GF107991041061004501021001MD1310141+9999MW1161
0057012620999991928022106004+64800+010550FM-12+003799999V0201601N00671030001CN0200001N9+00111+99999103151ADDAY121999GF108991021061008001021001MD1810141+9999MW1161
0068012620999991928022206004+64800+010550FM-12+003799999V0201601N00671004501CN0040001N9+00111+99999102661ADDAA199000691AY121999GF108991081061004501999999MD1110061+9999MW1511
0068012620999991928022306004+64800+010550FM-12+003799999V0202501N00671075001CN0100001N9+00391+99999103301ADDAA199000391AY181999GF106991041061004501001021MD1410001+9999MW1161
0051012620999991928022406004+64800+010550FM-12+003799999V0202001N00461075001CN0200001N9+00281+99999103271ADDAY111999GF106991011051004501001021MD1810141+9999
0076012620999991928022506004+64800+010550FM-12+003799999V0202301N006719999999N0100001N9+00281+99999102611ADDAY121999GF108991999061004501001001MD1810201+9999MW1161EQDQ01+000022SCOTLC
0068012620999991928022706004+64800+010550FM-12+003799999V0201801N00461030001CN0100001N9+00281+99999103171ADDAA199000691AY161999GF108991041061004501021001MD1610061+9999MW1501
0072012620999991928022806004+64800+010550FM-12+003799999V0202301N00461030001CN0100001N9+00391+99999103171ADDAY121999GF108991021051004501021001EQDQ01+000032APCTENQ02+000002APC3  
