0029029110999991921010106004+63083+021617FM-12+000999999V0201401N001019999999N0000001N9-01221+99999101901ADDGF108991999999999999999999
0029029110999991921010113004+63083+021617FM-12+000999999V0201401N001019999999N0000001N9-01391+99999102021ADDGF106991999999999999999999
0029029110999991921010120004+63083+021617FM-12+000999999V0200501N001019999999N0000001N9-01781+99999101961ADDGF108991999999999999999999
0029029110999991921010206004+63083+021617FM-12+000999999V0201401N001019999999N0000001N9-01721+99999101951ADDGF106991999999999999999999
0029029110999991921010213004+63083+021617FM-12+000999999V0201101N001019999999N0000001N9-01171+99999101941ADDGF108991999999999999999999
0035029110999991921010220004+63083+021617FM-12+000999999V0200901N002119999999N0000001N9-01221+99999101821ADDGF108991999999999999999999MW1701
0029029110999991921010306004+63083+021617FM-12+000999999V0200501N004119999999N0000001N9-01281+99999101821ADDGF108991999999999999999999
0029029110999991921010313004+63083+021617FM-12+000999999V0200901N002119999999N0000001N9-01221+99999101941ADDGF103991999999999999999999
0029029110999991921010320004+63083+021617FM-12+000999999V0200701N002119999999N0000001N9-01001+99999102041ADDGF106991999999999999999999
0029029110999991921010406004+63083+021617FM-12+000999999V0200701N004119999999N0000001N9-00941+99999102001ADDGF108991999999999999999999
0029029110999991921010413004+63083+021617FM-12+000999999V0201101N002119999999N0000001N9-00891+99999101841ADDGF108991999999999999999999
0029029110999991921010420004+63083+021617FM-12+000999999V0201101N002119999999N0000001N9-00891+99999101281ADDGF108991999999999999999999
0035029110999991921010506004+63083+021617FM-12+000999999V0201401N002119999999N0000001N9-00501+99999100101ADDGF108991999999999999999999MW1721
0029029110999991921010513004+63083+021617FM-12+000999999V0201801N001019999999N0000001N9-00221+99999099911ADDGF108991999999999999999999
0029029110999991921010520004+63083+021617FM-12+000999999V0202901N001019999999N0000001N9-00671+99999100391ADDGF100991999999999999999999
0029029110999991921010606004+63083+021617FM-12+000999999V0201801N004119999999N0000001N9-00281+99999100201ADDGF106991999999999999999999
0029029110999991921010613004+63083+021617FM-12+000999999V0202301N004119999999N0000001N9+00111+99999099981ADDGF108991999999999999999999
0029029110999991921010620004+63083+021617FM-12+000999999V0202301N004119999999N0000001N9+00171+99999099801ADDGF108991999999999999999999
0029029110999991921010706004+63083+021617FM-12+000999999V0202301N006219999999N0000001N9+00281+99999099071ADDGF108991999999999999999999
0029029110999991921010713004+63083+021617FM-12+000999999V0202301N006219999999N0000001N9+00331+99999099141ADDGF106991999999999999999999
0029029110999991921010720004+63083+021617FM-12+000999999V0202301N008219999999N0000001N9+00281+99999099711ADDGF100991999999999999999999
0029029110999991921010806004+63083+021617FM-12+000999999V0202301N006219999999N0000001N9+00281+99999100381ADDGF102991999999999999999999
0029029110999991921010813004+63083+021617FM-12+000999999V0202001N002119999999N0000001N9+00111+99999100401ADDGF106991999999999999999999
0035029110999991921010820004+63083+021617FM-12+000999999V0201401N002119999999N0000001N9+00061+99999999999ADDGF108991999999999999999999MW1721
0029029110999991921010906004+63083+021617FM-12+000999999V0202301N001019999999N0000001N9+00001+99999099191ADDGF108991999999999999999999
0029029110999991921010913004+63083+021617FM-12+000999999V0202701N001019999999N0000001N9-00111+99999099381ADDGF108991999999999999999999
0029029110999991921010920004+63083+021617FM-12+000999999V0200701N001019999999N0000001N9-00171+99999099261ADDGF108991999999999999999999
0029029110999991921011006004+63083+021617FM-12+000999999V0200701N001019999999N0000001N9-00331+99999098901ADDGF108991999999999999999999
0029029110999991921011013004+63083+021617FM-12+000999999V0200501N001019999999N0000001N9-00391+99999098741ADDGF108991999999999999999999
0029029110999991921011020004+63083+021617FM-12+000999999V0200501N002119999999N0000001N9-00501+99999098921ADDGF108991999999999999999999
0029029110999991921011106004+63083+021617FM-12+000999999V0200901N002119999999N0000001N9-00611+99999098781ADDGF108991999999999999999999
0035029110999991921011113004+63083+021617FM-12+000999999V0200501N002119999999N0000001N9-00611+99999098741ADDGF108991999999999999999999MW1701
0029029110999991921011120004+63083+021617FM-12+000999999V0200501N006219999999N0000001N9-00891+99999099071ADDGF100991999999999999999999
0029029110999991921011206004+63083+021617FM-12+000999999V0200701N002119999999N0000001N9-01501+99999099621ADDGF100991999999999999999999
0029029110999991921011213004+63083+021617FM-12+000999999V0200901N002119999999N0000001N9-01561+99999100021ADDGF100991999999999999999999
0029029110999991921011220004+63083+021617FM-12+000999999V0200901N002119999999N0000001N9-01781+99999100311ADDGF100991999999999999999999
0029029110999991921011306004+63083+021617FM-12+000999999V0201601N006219999999N0000001N9-01391+99999100271ADDGF108991999999999999999999
0029029110999991921011313004+63083+021617FM-12+000999999V0201601N006219999999N0000001N9-00831+99999100041ADDGF108991999999999999999999
0029029110999991921011320004+63083+021617FM-12+000999999V0201601N008219999999N0000001N9-00941+99999099741ADDGF100991999999999999999999
0035029110999991921011406004+63083+021617FM-12+000999999V0200901N002119999999N0000001N9-01001+99999099351ADDGF108991999999999999999999MW1721
0035029110999991921011413004+63083+021617FM-12+000999999V0202701N001019999999N0000001N9-01001+99999099401ADDGF108991999999999999999999MW1721
0029029110999991921011420004+63083+021617FM-12+000999999V0203201N001019999999N0000001N9-01221+99999099781ADDGF100991999999999999999999
0029029110999991921011506004+63083+021617FM-12+000999999V0202701N002119999999N0000001N9-01281+99999100561ADDGF100991999999999999999999
0029029110999991921011513004+63083+021617FM-12+000999999V0200201N001019999999N0000001N9-00501+99999101761ADDGF107991999999999999999999
0029029110999991921011520004+63083+021617FM-12+000999999V0201101N001019999999N0000001N9-01001+99999102471ADDGF100991999999999999999999
0035029110999991921011606004+63083+021617FM-12+000999999V0201601N007219999999N0000001N9-00171+99999101591ADDGF108991999999999999999999MW1861
0029029110999991921011613004+63083+021617FM-12+000999999V0202001N006219999999N0000001N9-00061+99999100621ADDGF106991999999999999999999
0029029110999991921011620004+63083+021617FM-12+000999999V0202301N008219999999N0000001N9+00221+99999099981ADDGF108991999999999999999999
0029029110999991921011706004+63083+021617FM-12+000999999V0202501N006219999999N0000001N9+00331+99999100101ADDGF100991999999999999999999
0029029110999991921011713004+63083+021617FM-12+000999999V0202301N006219999999N0000001N9+00281+99999099681ADDGF108991999999999999999999
0029029110999991921011720004+63083+021617FM-12+000999999V0202001N006219999999N0000001N9+00221+99999098681ADDGF108991999999999999999999
0029029110999991921011806004+63083+021617FM-12+000999999V0202301N007219999999N0000001N9+00001+99999097181ADDGF108991999999999999999999
0029029110999991921011813004+63083+021617FM-12+000999999V0201801N004119999999N0000001N9+00061+99999096501ADDGF108991999999999999999999
0029029110999991921011820004+63083+021617FM-12+000999999V0201801N004119999999N0000001N9+00111+99999096311ADDGF108991999999999999999999
0029029110999991921011906004+63083+021617FM-12+000999999V0201801N001019999999N0000001N9+00001+99999096951ADDGF108991999999999999999999
0029029110999991921011913004+63083+021617FM-12+000999999V0201401N001019999999N0000001N9+00001+99999097541ADDGF106991999999999999999999
0029029110999991921011920004+63083+021617FM-12+000999999V0203601N001019999999N0000001N9+00001+99999098471ADDGF108991999999999999999999
0029029110999991921012006004+63083+021617FM-12+000999999V0202301N004119999999N0000001N9-00171+99999098951ADDGF106991999999999999999999
0035029110999991921012013004+63083+021617FM-12+000999999V0202001N007219999999N0000001N9+00001+99999097921ADDGF108991999999999999999999MW1701
0029029110999991921012020004+63083+021617FM-12+000999999V0202701N007219999999N0000001N9+00061+99999097341ADDGF106991999999999999999999
0029029110999991921012106004+63083+021617FM-12+000999999V0202701N008219999999N0000001N9-00331+99999098741ADDGF100991999999999999999999
0029029110999991921012113004+63083+021617FM-12+000999999V0203201N007219999999N0000001N9-00331+99999099621ADDGF100991999999999999999999
0029029110999991921012120004+63083+021617FM-12+000999999V0202001N002119999999N0000001N9-00721+99999099481ADDGF108991999999999999999999
0035029110999991921012206004+63083+021617FM-12+000999999V0201401N006219999999N0000001N9-00561+99999097541ADDGF108991999999999999999999MW1721
0029029110999991921012213004+63083+021617FM-12+000999999V0202001N004119999999N0000001N9-00221+99999096621ADDGF106991999999999999999999
0035029110999991921012220004+63083+021617FM-12+000999999V0200501N009819999999N0000001N9-00391+99999096461ADDGF108991999999999999999999MW1861
0029029110999991921012306004+63083+021617FM-12+000999999V0200501N008219999999N0000001N9-00611+99999097881ADDGF106991999999999999999999
0029029110999991921012313004+63083+021617FM-12+000999999V0203201N007219999999N0000001N9-00721+99999098541ADDGF106991999999999999999999
0029029110999991921012320004+63083+021617FM-12+000999999V0203201N006219999999N0000001N9-00891+99999098681ADDGF108991999999999999999999
0029029110999991921012406004+63083+021617FM-12+000999999V0203201N001019999999N0000001N9-01441+99999098701ADDGF105991999999999999999999
0029029110999991921012413004+63083+021617FM-12+000999999V0203201N004119999999N0000001N9-00941+99999099151ADDGF106991999999999999999999
0029029110999991921012420004+63083+021617FM-12+000999999V0200501N006219999999N0000001N9-00501+99999099801ADDGF108991999999999999999999
0029029110999991921012506004+63083+021617FM-12+000999999V0202901N002119999999N0000001N9-00561+99999100191ADDGF104991999999999999999999
0029029110999991921012513004+63083+021617FM-12+000999999V0203201N002119999999N0000001N9-00671+99999100511ADDGF100991999999999999999999
0029029110999991921012520004+63083+021617FM-12+000999999V0202901N001019999999N0000001N9-00891+99999100701ADDGF100991999999999999999999
0029029110999991921012606004+63083+021617FM-12+000999999V0202701N001019999999N0000001N9-01001+99999100351ADDGF100991999999999999999999
0029029110999991921012613004+63083+021617FM-12+000999999V0202901N001019999999N0000001N9-00781+99999100071ADDGF101991999999999999999999
0029029110999991921012620004+63083+021617FM-12+000999999V0202701N001019999999N0000001N9-01611+99999099791ADDGF100991999999999999999999
0029029110999991921012706004+63083+021617FM-12+000999999V0200501N001019999999N0000001N9-01561+99999099761ADDGF108991999999999999999999
0029029110999991921012713004+63083+021617FM-12+000999999V0203401N001019999999N0000001N9-01111+99999100071ADDGF100991999999999999999999
0029029110999991921012720004+63083+021617FM-12+000999999V0203201N001019999999N0000001N9-01611+99999100591ADDGF100991999999999999999999
0029029110999991921012806004+63083+021617FM-12+000999999V0202301N001019999999N0000001N9-01171+99999101111ADDGF108991999999999999999999
0029029110999991921012813004+63083+021617FM-12+000999999V0201801N004119999999N0000001N9-01171+99999101021ADDGF106991999999999999999999
0029029110999991921012820004+63083+021617FM-12+000999999V0201601N006219999999N0000001N9-00831+99999100301ADDGF108991999999999999999999
0029029110999991921012906004+63083+021617FM-12+000999999V0201101N009819999999N0000001N9-00561+99999098341ADDGF108991999999999999999999
0029029110999991921012913004+63083+021617FM-12+000999999V0201601N007219999999N0000001N9-00671+99999098511ADDGF108991999999999999999999
0029029110999991921012920004+63083+021617FM-12+000999999V0202001N006219999999N0000001N9-00831+99999099281ADDGF100991999999999999999999
0029029110999991921013006004+63083+021617FM-12+000999999V0202501N004119999999N0000001N9-00281+99999099361ADDGF100991999999999999999999
0029029110999991921013013004+63083+021617FM-12+000999999V0202501N004119999999N0000001N9-00221+99999099501ADDGF100991999999999999999999
0029029110999991921013020004+63083+021617FM-12+000999999V0202501N001019999999N0000001N9-00561+99999099261ADDGF100991999999999999999999
0029029110999991921013106004+63083+021617FM-12+000999999V0200201N004119999999N0000001N9-00611+99999099261ADDGF108991999999999999999999
0029029110999991921013113004+63083+021617FM-12+000999999V0200201N002119999999N0000001N9-00781+99999100031ADDGF107991999999999999999999
0029029110999991921013120004+63083+021617FM-12+000999999V0200501N002119999999N0000001N9-01171+99999100541ADDGF108991999999999999999999
0029029110999991921020106004+63083+021617FM-12+000999999V0200701N002119999999N0000001N9-01441+99999100911ADDGF108991999999999999999999
0029029110999991921020113004+63083+021617FM-12+000999999V0201401N001019999999N0000001N9-01561+99999101311ADDGF106991999999999999999999
0029029110999991921020120004+63083+021617FM-12+000999999V0202501N001019999999N0000001N9-01501+99999101661ADDGF100991999999999999999999
0029029110999991921020206004+63083+021617FM-12+000999999V0202501N001019999999N0000001N9-01331+99999102281ADDGF106991999999999999999999
0029029110999991921020213004+63083+021617FM-12+000999999V0201801N001019999999N0000001N9-01111+99999102781ADDGF104991999999999999999999
0029029110999991921020220004+63083+021617FM-12+000999999V0200901N001019999999N0000001N9-01561+99999103281ADDGF106991999999999999999999
0029029110999991921020306004+63083+021617FM-12+000999999V0200901N002119999999N0000001N9-01831+99999103751ADDGF106991999999999999999999
0029029110999991921020313004+63083+021617FM-12+000999999V0201101N002119999999N0000001N9-01281+99999103961ADDGF106991999999999999999999
0029029110999991921020320004+63083+021617FM-12+000999999V0201401N002119999999N0000001N9-01501+99999104221ADDGF100991999999999999999999
0029029110999991921020406004+63083+021617FM-12+000999999V0201101N002119999999N0000001N9-01721+99999104191ADDGF100991999999999999999999
0029029110999991921020413004+63083+021617FM-12+000999999V0201401N002119999999N0000001N9-00941+99999104101ADDGF102991999999999999999999
0029029110999991921020420004+63083+021617FM-12+000999999V0201401N001019999999N0000001N9-01561+99999104031ADDGF100991999999999999999999
0029029110999991921020506004+63083+021617FM-12+000999999V0201401N002119999999N0000001N9-01721+99999104061ADDGF100991999999999999999999
0029029110999991921020513004+63083+021617FM-12+000999999V0201601N002119999999N0000001N9-01171+99999104141ADDGF106991999999999999999999
0029029110999991921020520004+63083+021617FM-12+000999999V0201801N004119999999N0000001N9-00941+99999104151ADDGF108991999999999999999999
0029029110999991921020606004+63083+021617FM-12+000999999V0201601N006219999999N0000001N9-00721+99999103821ADDGF108991999999999999999999
0029029110999991921020613004+63083+021617FM-12+000999999V0202001N004119999999N0000001N9-00441+99999103591ADDGF108991999999999999999999
0029029110999991921020620004+63083+021617FM-12+000999999V0202301N006219999999N0000001N9-00061+99999103381ADDGF108991999999999999999999
0029029110999991921020706004+63083+021617FM-12+000999999V0202501N002119999999N0000001N9-00501+99999103621ADDGF104991999999999999999999
0029029110999991921020713004+63083+021617FM-12+000999999V0202701N002119999999N0000001N9-00221+99999103791ADDGF103991999999999999999999
0029029110999991921020720004+63083+021617FM-12+000999999V0201101N001019999999N0000001N9-01061+99999104031ADDGF100991999999999999999999
0029029110999991921020806004+63083+021617FM-12+000999999V0202301N004119999999N0000001N9-00221+99999104001ADDGF108991999999999999999999
0029029110999991921020813004+63083+021617FM-12+000999999V0202301N004119999999N0000001N9-00171+99999104021ADDGF108991999999999999999999
0029029110999991921020820004+63083+021617FM-12+000999999V0202301N004119999999N0000001N9-00281+99999103831ADDGF108991999999999999999999
0029029110999991921020906004+63083+021617FM-12+000999999V0202301N006219999999N0000001N9-00281+99999103401ADDGF108991999999999999999999
0029029110999991921020913004+63083+021617FM-12+000999999V0202001N007219999999N0000001N9-00171+99999102981ADDGF103991999999999999999999
0029029110999991921020920004+63083+021617FM-12+000999999V0202001N008719999999N0000001N9-00221+99999102591ADDGF108991999999999999999999
0029029110999991921021006004+63083+021617FM-12+000999999V0202501N004119999999N0000001N9-00221+99999102581ADDGF102991999999999999999999
0029029110999991921021013004+63083+021617FM-12+000999999V0202701N010819999999N0000001N9+00001+99999102671ADDGF104991999999999999999999
0029029110999991921021020004+63083+021617FM-12+000999999V0202701N010819999999N0000001N9+00171+99999102301ADDGF108991999999999999999999
0035029110999991921021106004+63083+021617FM-12+000999999V0202501N009819999999N0000001N9+00281+99999100781ADDGF108991999999999999999999MW1601
0035029110999991921021113004+63083+021617FM-12+000999999V0202501N009819999999N0000001N9+00281+99999099911ADDGF108991999999999999999999MW1601
0029029110999991921021120004+63083+021617FM-12+000999999V0202701N006219999999N0000001N9+00221+99999099661ADDGF100991999999999999999999
0029029110999991921021206004+63083+021617FM-12+000999999V0200501N010819999999N0000001N9-00501+99999100761ADDGF103991999999999999999999
0029029110999991921021213004+63083+021617FM-12+000999999V0203601N005119999999N0000001N9-00391+99999101401ADDGF102991999999999999999999
0029029110999991921021220004+63083+021617FM-12+000999999V0202001N004119999999N0000001N9-00611+99999100951ADDGF106991999999999999999999
0035029110999991921021306004+63083+021617FM-12+000999999V0201801N004119999999N0000001N9-00561+99999099281ADDGF108991999999999999999999MW1721
0029029110999991921021313004+63083+021617FM-12+000999999V0202501N005119999999N0000001N9+00221+99999098601ADDGF108991999999999999999999
0029029110999991921021320004+63083+021617FM-12+000999999V0202701N001019999999N0000001N9+00061+99999097711ADDGF108991999999999999999999
0029029110999991921021406004+63083+021617FM-12+000999999V0200501N010819999999N0000001N9-00941+99999097951ADDGF108991999999999999999999
0035029110999991921021413004+63083+021617FM-12+000999999V0200201N010819999999N0000001N9-01171+99999098861ADDGF106991999999999999999999MW1861
0029029110999991921021420004+63083+021617FM-12+000999999V0200501N013919999999N0000001N9-01221+99999099761ADDGF106991999999999999999999
0029029110999991921021506004+63083+021617FM-12+000999999V0203601N002119999999N0000001N9-01441+99999100661ADDGF100991999999999999999999
0029029110999991921021513004+63083+021617FM-12+000999999V0202701N002119999999N0000001N9-01001+99999100861ADDGF100991999999999999999999
0029029110999991921021520004+63083+021617FM-12+000999999V0201801N002119999999N0000001N9-01331+99999100441ADDGF102991999999999999999999
0029029110999991921021606004+63083+021617FM-12+000999999V0202301N004119999999N0000001N9-01001+99999100031ADDGF106991999999999999999999
0035029110999991921021613004+63083+021617FM-12+000999999V0201801N007219999999N0000001N9-00781+99999100101ADDGF108991999999999999999999MW1861
0029029110999991921021620004+63083+021617FM-12+000999999V0202001N008719999999N0000001N9-00781+99999100301ADDGF108991999999999999999999
0029029110999991921021706004+63083+021617FM-12+000999999V0201601N002119999999N0000001N9-00721+99999100511ADDGF108991999999999999999999
0029029110999991921021713004+63083+021617FM-12+000999999V0200501N004119999999N0000001N9-00671+99999100671ADDGF106991999999999999999999
0029029110999991921021720004+63083+021617FM-12+000999999V0200901N001019999999N0000001N9-01111+99999100841ADDGF106991999999999999999999
0029029110999991921021806004+63083+021617FM-12+000999999V0200201N002119999999N0000001N9-01501+99999101111ADDGF100991999999999999999999
0029029110999991921021813004+63083+021617FM-12+000999999V0203601N002119999999N0000001N9-01111+99999101351ADDGF106991999999999999999999
0029029110999991921021820004+63083+021617FM-12+000999999V0209991C000019999999N0000001N9-01721+99999101561ADDGF100991999999999999999999
0029029110999991921021906004+63083+021617FM-12+000999999V0202301N004119999999N0000001N9-00561+99999101041ADDGF108991999999999999999999
0029029110999991921021913004+63083+021617FM-12+000999999V0203601N002119999999N0000001N9-00221+99999101361ADDGF104991999999999999999999
0029029110999991921021920004+63083+021617FM-12+000999999V0201601N001019999999N0000001N9-01111+99999101741ADDGF100991999999999999999999
0029029110999991921022006004+63083+021617FM-12+000999999V0202301N004119999999N0000001N9-00391+99999101801ADDGF108991999999999999999999
0029029110999991921022013004+63083+021617FM-12+000999999V0202301N005119999999N0000001N9+00061+99999101781ADDGF106991999999999999999999
0029029110999991921022020004+63083+021617FM-12+000999999V0202701N004119999999N0000001N9+00001+99999101671ADDGF106991999999999999999999
0029029110999991921022106004+63083+021617FM-12+000999999V0202901N001019999999N0000001N9-00111+99999101781ADDGF100991999999999999999999
0029029110999991921022113004+63083+021617FM-12+000999999V0202901N002119999999N0000001N9+00391+99999102101ADDGF102991999999999999999999
0029029110999991921022120004+63083+021617FM-12+000999999V0202901N001019999999N0000001N9+00001+99999102391ADDGF100991999999999999999999
0029029110999991921022206004+63083+021617FM-12+000999999V0202301N002119999999N0000001N9-00221+99999102551ADDGF100991999999999999999999
0029029110999991921022213004+63083+021617FM-12+000999999V0202301N002119999999N0000001N9+00331+99999102591ADDGF100991999999999999999999
0029029110999991921022220004+63083+021617FM-12+000999999V0202501N001019999999N0000001N9-00391+99999102681ADDGF100991999999999999999999
0029029110999991921022306004+63083+021617FM-12+000999999V0201601N002119999999N0000001N9-00671+99999102661ADDGF100991999999999999999999
0029029110999991921022313004+63083+021617FM-12+000999999V0202501N004119999999N0000001N9+00061+99999102631ADDGF108991999999999999999999
0029029110999991921022320004+63083+021617FM-12+000999999V0202001N004119999999N0000001N9-00171+99999102791ADDGF108991999999999999999999
0029029110999991921022406004+63083+021617FM-12+000999999V0201801N002119999999N0000001N9-00171+99999102801ADDGF106991999999999999999999
0029029110999991921022413004+63083+021617FM-12+000999999V0202301N004119999999N0000001N9+00171+99999102901ADDGF100991999999999999999999
0029029110999991921022420004+63083+021617FM-12+000999999V0201801N002119999999N0000001N9-00441+99999102981ADDGF100991999999999999999999
0029029110999991921022506004+63083+021617FM-12+000999999V0201401N002119999999N0000001N9-00441+99999102821ADDGF100991999999999999999999
0029029110999991921022513004+63083+021617FM-12+000999999V0202001N002119999999N0000001N9+00111+99999102781ADDGF100991999999999999999999
0029029110999991921022520004+63083+021617FM-12+000999999V0201801N004119999999N0000001N9-00171+99999102431ADDGF100991999999999999999999
0029029110999991921022606004+63083+021617FM-12+000999999V0202001N006219999999N0000001N9-00061+99999101921ADDGF100991999999999999999999
0029029110999991921022613004+63083+021617FM-12+000999999V0202001N008719999999N0000001N9+00001+99999101881ADDGF108991999999999999999999
0029029110999991921022620004+63083+021617FM-12+000999999V0201801N002119999999N0000001N9-00061+99999101751ADDGF100991999999999999999999
0035029110999991921022706004+63083+021617FM-12+000999999V0202001N009819999999N0000001N9+00061+99999100951ADDGF108991999999999999999999MW1901
0029029110999991921022713004+63083+021617FM-12+000999999V0202001N008219999999N0000001N9+00171+99999100181ADDGF106991999999999999999999
0029029110999991921022720004+63083+021617FM-12+000999999V0202001N006219999999N0000001N9+00281+99999099761ADDGF100991999999999999999999
0029029110999991921022806004+63083+021617FM-12+000999999V0203601N006219999999N0000001N9-00171+99999100361ADDGF103991999999999999999999
0029029110999991921022813004+63083+021617FM-12+000999999V0201801N002119999999N0000001N9+00281+99999100381ADDGF106991999999999999999999
0029029110999991921022820004+63083+021617FM-12+000999999V0201801N006219999999N0000001N9+00281+99999099751ADDGF100991999999999999999999
0029029110999991921030106004+63083+021617FM-12+000999999V0202701N004119999999N0000001N9-00111+99999100421ADDGF100991999999999999999999
0029029110999991921030113004+63083+021617FM-12+000999999V0202301N006219999999N0000001N9+00331+99999100711ADDGF100991999999999999999999
0029029110999991921030120004+63083+021617FM-12+000999999V0202301N004119999999N0000001N9+00061+99999100271ADDGF100991999999999999999999
0029029110999991921030206004+63083+021617FM-12+000999999V0202301N008719999999N0000001N9+00281+99999099111ADDGF106991999999999999999999
0009029110999991921030213004+63083+021617FM-12+000999999V0202301N004119999999N0000001N9+00171+99999099081ADDMW1701
0029029110999991921030220004+63083+021617FM-12+000999999V0202301N006219999999N0000001N9+00001+99999099021ADDGF108991999999999999999999
0029029110999991921030306004+63083+021617FM-12+000999999V0202701N002119999999N0000001N9-00561+99999099221ADDGF100991999999999999999999
0029029110999991921030313004+63083+021617FM-12+000999999V0203201N002119999999N0000001N9-00111+99999099521ADDGF100991999999999999999999
0029029110999991921030320004+63083+021617FM-12+000999999V0200201N002119999999N0000001N9-00721+99999100031ADDGF100991999999999999999999
0029029110999991921030406004+63083+021617FM-12+000999999V0201601N002119999999N0000001N9-00331+99999099351ADDGF108991999999999999999999
0009029110999991921030413004+63083+021617FM-12+000999999V0202001N008719999999N0000001N9+00001+99999098031ADDMW1721
0035029110999991921030420004+63083+021617FM-12+000999999V0202001N007219999999N0000001N9+00061+99999096761ADDGF108991999999999999999999MW1721
0029029110999991921030506004+63083+021617FM-12+000999999V0203201N004119999999N0000001N9-00671+99999096791ADDGF108991999999999999999999
0009029110999991921030513004+63083+021617FM-12+000999999V0203201N004119999999N0000001N9-00561+99999097751ADDMW1721
0029029110999991921030520004+63083+021617FM-12+000999999V0203201N010819999999N0000001N9-00501+99999098441ADDGF108991999999999999999999
0029029110999991921030606004+63083+021617FM-12+000999999V0203201N004119999999N0000001N9-00721+99999099601ADDGF102991999999999999999999
0029029110999991921030613004+63083+021617FM-12+000999999V0202701N004119999999N0000001N9-00221+99999100321ADDGF102991999999999999999999
0029029110999991921030620004+63083+021617FM-12+000999999V0202301N001019999999N0000001N9-00891+99999100441ADDGF100991999999999999999999
0029029110999991921030706004+63083+021617FM-12+000999999V0201801N002119999999N0000001N9-01171+99999100441ADDGF103991999999999999999999
0029029110999991921030713004+63083+021617FM-12+000999999V0202701N002119999999N0000001N9-00331+99999100601ADDGF102991999999999999999999
0029029110999991921030720004+63083+021617FM-12+000999999V0202701N002119999999N0000001N9-00781+99999100721ADDGF100991999999999999999999
0029029110999991921030806004+63083+021617FM-12+000999999V0202501N001019999999N0000001N9-01561+99999100881ADDGF100991999999999999999999
0029029110999991921030813004+63083+021617FM-12+000999999V0202501N001019999999N0000001N9-00331+99999100921ADDGF100991999999999999999999
0029029110999991921030820004+63083+021617FM-12+000999999V0202701N001019999999N0000001N9-00941+99999100791ADDGF100991999999999999999999
0029029110999991921030906004+63083+021617FM-12+000999999V0201801N001019999999N0000001N9-00781+99999100471ADDGF108991999999999999999999
0029029110999991921030913004+63083+021617FM-12+000999999V0202301N002119999999N0000001N9+00111+99999100561ADDGF100991999999999999999999
0029029110999991921030920004+63083+021617FM-12+000999999V0202001N004119999999N0000001N9-00221+99999100191ADDGF108991999999999999999999
0029029110999991921031006004+63083+021617FM-12+000999999V0202701N002119999999N0000001N9+00001+99999099711ADDGF108991999999999999999999
0029029110999991921031013004+63083+021617FM-12+000999999V0202701N004119999999N0000001N9+00441+99999100441ADDGF101991999999999999999999
0029029110999991921031020004+63083+021617FM-12+000999999V0201801N002119999999N0000001N9-00331+99999100881ADDGF100991999999999999999999
0029029110999991921031106004+63083+021617FM-12+000999999V0201601N002119999999N0000001N9+00171+99999100951ADDGF108991999999999999999999
0029029110999991921031113004+63083+021617FM-12+000999999V0202001N004119999999N0000001N9+00441+99999100951ADDGF103991999999999999999999
0029029110999991921031120004+63083+021617FM-12+000999999V0202001N006219999999N0000001N9+00441+99999100951ADDGF102991999999999999999999
0029029110999991921031206004+63083+021617FM-12+000999999V0202001N007219999999N0000001N9+00111+99999100941ADDGF100991999999999999999999
0029029110999991921031213004+63083+021617FM-12+000999999V0202301N006219999999N0000001N9+00391+99999101261ADDGF102991999999999999999999
0029029110999991921031220004+63083+021617FM-12+000999999V0202001N006219999999N0000001N9+00061+99999101751ADDGF100991999999999999999999
0029029110999991921031306004+63083+021617FM-12+000999999V0201801N004119999999N0000001N9-00111+99999102111ADDGF104991999999999999999999
0029029110999991921031313004+63083+021617FM-12+000999999V0202001N004119999999N0000001N9+00111+99999102361ADDGF106991999999999999999999
0029029110999991921031320004+63083+021617FM-12+000999999V0202001N004119999999N0000001N9-00061+99999102401ADDGF100991999999999999999999
0029029110999991921031406004+63083+021617FM-12+000999999V0201801N004119999999N0000001N9-00061+99999102301ADDGF108991999999999999999999
0029029110999991921031413004+63083+021617FM-12+000999999V0201801N004119999999N0000001N9+00721+99999102301ADDGF100991999999999999999999
0029029110999991921031420004+63083+021617FM-12+000999999V0201801N002119999999N0000001N9+00281+99999102121ADDGF100991999999999999999999
0029029110999991921031506004+63083+021617FM-12+000999999V0202001N004119999999N0000001N9+00111+99999102031ADDGF108991999999999999999999
0029029110999991921031513004+63083+021617FM-12+000999999V0202301N004119999999N0000001N9+00441+99999102151ADDGF100991999999999999999999
0029029110999991921031520004+63083+021617FM-12+000999999V0202301N006219999999N0000001N9+00331+99999102301ADDGF102991999999999999999999
0029029110999991921031606004+63083+021617FM-12+000999999V0202001N006219999999N0000001N9+00331+99999102151ADDGF108991999999999999999999
0029029110999991921031613004+63083+021617FM-12+000999999V0202301N008219999999N0000001N9+00441+99999102151ADDGF102991999999999999999999
0029029110999991921031620004+63083+021617FM-12+000999999V0201601N002119999999N0000001N9+00281+99999102081ADDGF104991999999999999999999
0029029110999991921031706004+63083+021617FM-12+000999999V0202301N006219999999N0000001N9+00441+99999101471ADDGF106991999999999999999999
0029029110999991921031713004+63083+021617FM-12+000999999V0202301N008219999999N0000001N9+00501+99999101481ADDGF106991999999999999999999
0029029110999991921031720004+63083+021617FM-12+000999999V0202501N002119999999N0000001N9+00331+99999101581ADDGF106991999999999999999999
0029029110999991921031806004+63083+021617FM-12+000999999V0202301N002119999999N0000001N9+00221+99999101951ADDGF100991999999999999999999
0029029110999991921031813004+63083+021617FM-12+000999999V0202301N004119999999N0000001N9+00501+99999102321ADDGF101991999999999999999999
0029029110999991921031820004+63083+021617FM-12+000999999V0201801N001019999999N0000001N9+00111+99999102191ADDGF106991999999999999999999
0046029110999991921031906004+63083+021617FM-12+000999999V0201601N004119999999N0000001N9+00111+99999101561ADDAJ100009199999999GF108991999999999999999999
0029029110999991921031913004+63083+021617FM-12+000999999V0201801N004119999999N0000001N9+00891+99999100921ADDGF101991999999999999999999
0029029110999991921031920004+63083+021617FM-12+000999999V0202001N004119999999N0000001N9+00111+99999100511ADDGF104991999999999999999999
0046029110999991921032006004+63083+021617FM-12+000999999V0202001N006219999999N0000001N9+00221+99999099911ADDAJ100009199999999GF106991999999999999999999
0009029110999991921032013004+63083+021617FM-12+000999999V0201801N006219999999N0000001N9+00171+99999099681ADDMW1691
0029029110999991921032020004+63083+021617FM-12+000999999V0202301N001019999999N0000001N9+00061+99999099701ADDGF108991999999999999999999
0046029110999991921032106004+63083+021617FM-12+000999999V0203201N004119999999N0000001N9+00061+99999100041ADDAJ100009199999999GF108991999999999999999999
0029029110999991921032113004+63083+021617FM-12+000999999V0203201N002119999999N0000001N9+00111+99999100321ADDGF106991999999999999999999
0029029110999991921032120004+63083+021617FM-12+000999999V0203201N001019999999N0000001N9+00061+99999100421ADDGF108991999999999999999999
0046029110999991921032206004+63083+021617FM-12+000999999V0201401N002119999999N0000001N9-00061+99999100201ADDAJ100009199999999GF106991999999999999999999
0035029110999991921032213004+63083+021617FM-12+000999999V0202001N004119999999N0000001N9+00171+99999099751ADDGF108991999999999999999999MW1681
0029029110999991921032220004+63083+021617FM-12+000999999V0202001N002119999999N0000001N9+00171+99999099681ADDGF108991999999999999999999
0046029110999991921032306004+63083+021617FM-12+000999999V0202701N004119999999N0000001N9+00111+99999100241ADDAJ100009199999999GF103991999999999999999999
0029029110999991921032313004+63083+021617FM-12+000999999V0202701N008219999999N0000001N9+00561+99999100541ADDGF103991999999999999999999
0029029110999991921032320004+63083+021617FM-12+000999999V0209991C000019999999N0000001N9+00171+99999100391ADDGF108991999999999999999999
0046029110999991921032406004+63083+021617FM-12+000999999V0202301N006219999999N0000001N9+00221+99999099601ADDAJ100009199999999GF102991999999999999999999
0029029110999991921032413004+63083+021617FM-12+000999999V0202301N006219999999N0000001N9+00561+99999099841ADDGF103991999999999999999999
0035029110999991921032420004+63083+021617FM-12+000999999V0201601N002119999999N0000001N9+00391+99999099421ADDGF108991999999999999999999MW1601
0046029110999991921032506004+63083+021617FM-12+000999999V0202701N009819999999N0000001N9+00281+99999099431ADDAJ100009199999999GF100991999999999999999999
0029029110999991921032513004+63083+021617FM-12+000999999V0202701N010819999999N0000001N9+00501+99999100041ADDGF100991999999999999999999
0029029110999991921032520004+63083+021617FM-12+000999999V0202701N009819999999N0000001N9+00221+99999100541ADDGF100991999999999999999999
0046029110999991921032606004+63083+021617FM-12+000999999V0202701N006219999999N0000001N9+00061+99999100961ADDAJ100009199999999GF100991999999999999999999
0029029110999991921032613004+63083+021617FM-12+000999999V0202301N006219999999N0000001N9+00441+99999100991ADDGF100991999999999999999999
0029029110999991921032620004+63083+021617FM-12+000999999V0202301N004119999999N0000001N9+00111+99999100881ADDGF100991999999999999999999
0046029110999991921032706004+63083+021617FM-12+000999999V0202001N001019999999N0000001N9-00221+99999100631ADDAJ100009199999999GF100991999999999999999999
0029029110999991921032713004+63083+021617FM-12+000999999V0201801N004119999999N0000001N9+00831+99999100281ADDGF106991999999999999999999
0035029110999991921032720004+63083+021617FM-12+000999999V0201601N007219999999N0000001N9+00221+99999099541ADDGF108991999999999999999999MW1621
0052029110999991921032806004+63083+021617FM-12+000999999V0201401N007219999999N0000001N9+00061+99999098071ADDAJ100009199999999GF108991999999999999999999MW1691
0035029110999991921032813004+63083+021617FM-12+000999999V0201601N006219999999N0000001N9+00281+99999098041ADDGF107991999999999999999999MW1721
0029029110999991921032820004+63083+021617FM-12+000999999V0201801N006219999999N0000001N9+00001+99999097991ADDGF108991999999999999999999
0046029110999991921032906004+63083+021617FM-12+000999999V0202301N006219999999N0000001N9+00061+99999098591ADDAJ100009199999999GF102991999999999999999999
0029029110999991921032913004+63083+021617FM-12+000999999V0202301N006219999999N0000001N9+00281+99999099321ADDGF100991999999999999999999
0029029110999991921032920004+63083+021617FM-12+000999999V0201801N002119999999N0000001N9+00111+99999099591ADDGF108991999999999999999999
0046029110999991921033006004+63083+021617FM-12+000999999V0202301N006219999999N0000001N9+00221+99999099221ADDAJ100009199999999GF108991999999999999999999
0029029110999991921033013004+63083+021617FM-12+000999999V0202301N007219999999N0000001N9+00501+99999099621ADDGF103991999999999999999999
0029029110999991921033020004+63083+021617FM-12+000999999V0202001N006219999999N0000001N9+00221+99999099391ADDGF102991999999999999999999
0052029110999991921033106004+63083+021617FM-12+000999999V0201601N002119999999N0000001N9+00061+99999098721ADDAJ100009199999999GF108991999999999999999999MW1691
0009029110999991921033113004+63083+021617FM-12+000999999V0201801N002119999999N0000001N9+00281+99999098381ADDMW1691
0035029110999991921033120004+63083+021617FM-12+000999999V0200501N006219999999N0000001N9+00061+99999098881ADDGF108991999999999999999999MW1621
0052029110999991921040106004+63083+021617FM-12+000999999V0203201N004119999999N0000001N9-00061+99999100081ADDAJ100009199999999GF108991999999999999999999MW1701
0029029110999991921040113004+63083+021617FM-12+000999999V0203401N007219999999N0000001N9+00331+99999101031ADDGF101991999999999999999999
0029029110999991921040120004+63083+021617FM-12+000999999V0202501N004119999999N0000001N9-00061+99999101431ADDGF100991999999999999999999
0046029110999991921040206004+63083+021617FM-12+000999999V0202301N008219999999N0000001N9+00221+99999101301ADDAJ100009199999999GF108991999999999999999999
0029029110999991921040213004+63083+021617FM-12+000999999V0202001N006219999999N0000001N9+00611+99999101241ADDGF106991999999999999999999
0029029110999991921040220004+63083+021617FM-12+000999999V0201801N006219999999N0000001N9+00441+99999100881ADDGF100991999999999999999999
0046029110999991921040306004+63083+021617FM-12+000999999V0202301N004119999999N0000001N9+00441+99999100981ADDAJ100009199999999GF106991999999999999999999
0029029110999991921040313004+63083+021617FM-12+000999999V0202501N002119999999N0000001N9+01111+99999101001ADDGF106991999999999999999999
0029029110999991921040320004+63083+021617FM-12+000999999V0201801N006219999999N0000001N9+00611+99999100721ADDGF100991999999999999999999
0046029110999991921040406004+63083+021617FM-12+000999999V0202001N009819999999N0000001N9+00671+99999100511ADDAJ100009199999999GF100991999999999999999999
0029029110999991921040413004+63083+021617FM-12+000999999V0201801N008719999999N0000001N9+00611+99999100561ADDGF107991999999999999999999
0035029110999991921040420004+63083+021617FM-12+000999999V0202001N009819999999N0000001N9+00501+99999100231ADDGF108991999999999999999999MW1641
0046029110999991921040506004+63083+021617FM-12+000999999V0202301N001019999999N0000001N9+00061+99999100321ADDAJ100009199999999GF100991999999999999999999
0029029110999991921040513004+63083+021617FM-12+000999999V0202501N006219999999N0000001N9+00501+99999100681ADDGF100991999999999999999999
0029029110999991921040520004+63083+021617FM-12+000999999V0202301N002119999999N0000001N9+00111+99999100751ADDGF100991999999999999999999
0046029110999991921040606004+63083+021617FM-12+000999999V0202501N004119999999N0000001N9+00061+99999101261ADDAJ100009199999999GF101991999999999999999999
0029029110999991921040613004+63083+021617FM-12+000999999V0203601N004119999999N0000001N9+00441+99999102121ADDGF100991999999999999999999
0029029110999991921040620004+63083+021617FM-12+000999999V0200501N002119999999N0000001N9+00001+99999102781ADDGF100991999999999999999999
0046029110999991921040706004+63083+021617FM-12+000999999V0200501N002119999999N0000001N9-00061+99999103361ADDAJ100009199999999GF100991999999999999999999
0029029110999991921040713004+63083+021617FM-12+000999999V0202901N002119999999N0000001N9+00721+99999103431ADDGF102991999999999999999999
0029029110999991921040720004+63083+021617FM-12+000999999V0202901N002119999999N0000001N9+00001+99999103461ADDGF104991999999999999999999
0046029110999991921040806004+63083+021617FM-12+000999999V0202901N002119999999N0000001N9+00171+99999103581ADDAJ100009199999999GF104991999999999999999999
0029029110999991921040813004+63083+021617FM-12+000999999V0203401N002119999999N0000001N9+01111+99999103911ADDGF104991999999999999999999
0029029110999991921040820004+63083+021617FM-12+000999999V0203601N001019999999N0000001N9+00331+99999104161ADDGF100991999999999999999999
0046029110999991921040906004+63083+021617FM-12+000999999V0200501N001019999999N0000001N9+00111+99999104381ADDAJ100009199999999GF100991999999999999999999
0029029110999991921040913004+63083+021617FM-12+000999999V0202701N004119999999N0000001N9+01001+99999104231ADDGF100991999999999999999999
0029029110999991921040920004+63083+021617FM-12+000999999V0202301N006219999999N0000001N9+00501+99999103831ADDGF100991999999999999999999
0046029110999991921041006004+63083+021617FM-12+000999999V0202301N004119999999N0000001N9+00391+99999103481ADDAJ100009199999999GF100991999999999999999999
0029029110999991921041013004+63083+021617FM-12+000999999V0202301N004119999999N0000001N9+01001+99999103231ADDGF100991999999999999999999
0029029110999991921041020004+63083+021617FM-12+000999999V0202301N004119999999N0000001N9+00441+99999102751ADDGF100991999999999999999999
0046029110999991921041106004+63083+021617FM-12+000999999V0202301N004119999999N0000001N9+00331+99999102151ADDAJ100009199999999GF103991999999999999999999
0029029110999991921041113004+63083+021617FM-12+000999999V0202701N006219999999N0000001N9+00721+99999101801ADDGF103991999999999999999999
0029029110999991921041120004+63083+021617FM-12+000999999V0202501N001019999999N0000001N9+00331+99999101591ADDGF106991999999999999999999
0046029110999991921041206004+63083+021617FM-12+000999999V0202501N001019999999N0000001N9+00331+99999101231ADDAJ100009199999999GF106991999999999999999999
0029029110999991921041213004+63083+021617FM-12+000999999V0202301N006219999999N0000001N9+01001+99999100761ADDGF102991999999999999999999
0035029110999991921041220004+63083+021617FM-12+000999999V0201801N007219999999N0000001N9+00781+99999099881ADDGF108991999999999999999999MW1621
0046029110999991921041306004+63083+021617FM-12+000999999V0202501N001019999999N0000001N9+00331+99999099391ADDAJ100009199999999GF106991999999999999999999
0029029110999991921041313004+63083+021617FM-12+000999999V0202901N001019999999N0000001N9+00501+99999099111ADDGF106991999999999999999999
0029029110999991921041320004+63083+021617FM-12+000999999V0202301N002119999999N0000001N9+00171+99999098761ADDGF108991999999999999999999
0046029110999991921041406004+63083+021617FM-12+000999999V0203201N004119999999N0000001N9+00061+99999098551ADDAJ100009199999999GF101991999999999999999999
0029029110999991921041413004+63083+021617FM-12+000999999V0202701N002119999999N0000001N9+00441+99999098701ADDGF101991999999999999999999
0029029110999991921041420004+63083+021617FM-12+000999999V0202001N002119999999N0000001N9+00061+99999098801ADDGF106991999999999999999999
0046029110999991921041506004+63083+021617FM-12+000999999V0200501N004119999999N0000001N9-00111+99999098541ADDAJ100009199999999GF108991999999999999999999
0035029110999991921041513004+63083+021617FM-12+000999999V0201601N002119999999N0000001N9+00061+99999098111ADDGF108991999999999999999999MW1721
0035029110999991921041520004+63083+021617FM-12+000999999V0201601N001019999999N0000001N9+00111+99999098081ADDGF108991999999999999999999MW1741
0046029110999991921041606004+63083+021617FM-12+000999999V0202301N002119999999N0000001N9+00171+99999098911ADDAJ100009199999999GF100991999999999999999999
0029029110999991921041613004+63083+021617FM-12+000999999V0202501N004119999999N0000001N9+00671+99999099381ADDGF101991999999999999999999
0029029110999991921041620004+63083+021617FM-12+000999999V0201801N002119999999N0000001N9+00281+99999099701ADDGF106991999999999999999999
0046029110999991921041706004+63083+021617FM-12+000999999V0202001N005119999999N0000001N9+00281+99999100191ADDAJ100009199999999GF108991999999999999999999
0029029110999991921041713004+63083+021617FM-12+000999999V0202301N004119999999N0000001N9+00781+99999100631ADDGF102991999999999999999999
0029029110999991921041720004+63083+021617FM-12+000999999V0203601N001019999999N0000001N9+00061+99999100961ADDGF100991999999999999999999
0046029110999991921041806004+63083+021617FM-12+000999999V0200201N004119999999N0000001N9+00001+99999100781ADDAJ100009199999999GF108991999999999999999999
0029029110999991921041813004+63083+021617FM-12+000999999V0200501N005119999999N0000001N9+00281+99999100541ADDGF108991999999999999999999
0035029110999991921041820004+63083+021617FM-12+000999999V0200501N010819999999N0000001N9+00061+99999100021ADDGF108991999999999999999999MW1681
0052029110999991921041906004+63083+021617FM-12+000999999V0200501N001019999999N0000001N9+00171+99999099741ADDAJ100009199999999GF108991999999999999999999MW1621
0035029110999991921041913004+63083+021617FM-12+000999999V0201801N006219999999N0000001N9+00501+99999100261ADDGF108991999999999999999999MW1641
0035029110999991921041920004+63083+021617FM-12+000999999V0201601N007219999999N0000001N9+00281+99999100821ADDGF108991999999999999999999MW1641
0052029110999991921042006004+63083+021617FM-12+000999999V0201801N007219999999N0000001N9+00331+99999101631ADDAJ100009199999999GF108991999999999999999999MW1621
0029029110999991921042013004+63083+021617FM-12+000999999V0202701N002119999999N0000001N9+00501+99999101951ADDGF103991999999999999999999
0029029110999991921042020004+63083+021617FM-12+000999999V0200201N002119999999N0000001N9+00171+99999101991ADDGF101991999999999999999999
0046029110999991921042106004+63083+021617FM-12+000999999V0200501N001019999999N0000001N9+00221+99999101911ADDAJ100009199999999GF107991999999999999999999
0029029110999991921042113004+63083+021617FM-12+000999999V0202701N002119999999N0000001N9+00941+99999101801ADDGF102991999999999999999999
0029029110999991921042120004+63083+021617FM-12+000999999V0203201N002119999999N0000001N9+00441+99999101741ADDGF106991999999999999999999
0046029110999991921042206004+63083+021617FM-12+000999999V0202701N004119999999N0000001N9+00281+99999101861ADDAJ100009199999999GF108991999999999999999999
0029029110999991921042213004+63083+021617FM-12+000999999V0202701N002119999999N0000001N9+00891+99999102261ADDGF102991999999999999999999
0029029110999991921042220004+63083+021617FM-12+000999999V0202701N001019999999N0000001N9+00281+99999102511ADDGF101991999999999999999999
0046029110999991921042306004+63083+021617FM-12+000999999V0201801N002119999999N0000001N9+00331+99999102671ADDAJ100009199999999GF100991999999999999999999
0029029110999991921042313004+63083+021617FM-12+000999999V0202701N002119999999N0000001N9+01061+99999103001ADDGF100991999999999999999999
0029029110999991921042320004+63083+021617FM-12+000999999V0203401N001019999999N0000001N9+00501+99999103061ADDGF100991999999999999999999
0046029110999991921042406004+63083+021617FM-12+000999999V0200701N002119999999N0000001N9+00721+99999103201ADDAJ100009199999999GF106991999999999999999999
0029029110999991921042413004+63083+021617FM-12+000999999V0200201N001019999999N0000001N9+01561+99999103241ADDGF104991999999999999999999
0029029110999991921042420004+63083+021617FM-12+000999999V0200201N002119999999N0000001N9+00891+99999103481ADDGF106991999999999999999999
0046029110999991921042506004+63083+021617FM-12+000999999V0201101N001019999999N0000001N9+01171+99999103801ADDAJ100009199999999GF100991999999999999999999
0029029110999991921042513004+63083+021617FM-12+000999999V0203601N002119999999N0000001N9+01831+99999104061ADDGF102991999999999999999999
0029029110999991921042520004+63083+021617FM-12+000999999V0200701N001019999999N0000001N9+01061+99999103961ADDGF101991999999999999999999
0046029110999991921042606004+63083+021617FM-12+000999999V0201401N002119999999N0000001N9+01331+99999104181ADDAJ100009199999999GF100991999999999999999999
0029029110999991921042613004+63083+021617FM-12+000999999V0203601N002119999999N0000001N9+02281+99999104181ADDGF104991999999999999999999
0029029110999991921042620004+63083+021617FM-12+000999999V0200201N002119999999N0000001N9+01281+99999104101ADDGF100991999999999999999999
0046029110999991921042706004+63083+021617FM-12+000999999V0203601N001019999999N0000001N9+01111+99999104081ADDAJ100009199999999GF100991999999999999999999
0029029110999991921042713004+63083+021617FM-12+000999999V0202701N002119999999N0000001N9+02061+99999104031ADDGF100991999999999999999999
0029029110999991921042720004+63083+021617FM-12+000999999V0202701N001019999999N0000001N9+01171+99999103671ADDGF100991999999999999999999
0046029110999991921042806004+63083+021617FM-12+000999999V0202701N001019999999N0000001N9+01061+99999103271ADDAJ100009199999999GF100991999999999999999999
0029029110999991921042813004+63083+021617FM-12+000999999V0202701N001019999999N0000001N9+01721+99999103101ADDGF100991999999999999999999
0029029110999991921042820004+63083+021617FM-12+000999999V0200201N007219999999N0000001N9+00831+99999103021ADDGF102991999999999999999999
0046029110999991921042906004+63083+021617FM-12+000999999V0200201N007219999999N0000001N9+00331+99999103281ADDAJ100009199999999GF106991999999999999999999
0029029110999991921042913004+63083+021617FM-12+000999999V0200201N004119999999N0000001N9+00501+99999103401ADDGF100991999999999999999999
0029029110999991921042920004+63083+021617FM-12+000999999V0200201N001019999999N0000001N9+00391+99999103031ADDGF100991999999999999999999
0046029110999991921043006004+63083+021617FM-12+000999999V0202701N001019999999N0000001N9+00671+99999102781ADDAJ100009199999999GF100991999999999999999999
0029029110999991921043013004+63083+021617FM-12+000999999V0203601N003119999999N0000001N9+01331+99999102641ADDGF101991999999999999999999
0029029110999991921043020004+63083+021617FM-12+000999999V0202901N001019999999N0000001N9+00671+99999102361ADDGF100991999999999999999999
0029029110999991921050106004+63083+021617FM-12+000999999V0202301N002119999999N0000001N9+00831+99999999999ADDGF103991999999999999999999
0029029110999991921050113004+63083+021617FM-12+000999999V0202701N004119999999N0000001N9+01171+99999999999ADDGF104991999999999999999999
0029029110999991921050120004+63083+021617FM-12+000999999V0202501N005119999999N0000001N9+00831+99999999999ADDGF103991999999999999999999
0029029110999991921050206004+63083+021617FM-12+000999999V0202501N004119999999N0000001N9+00721+99999999999ADDGF103991999999999999999999
0029029110999991921050213004+63083+021617FM-12+000999999V0203601N002119999999N0000001N9+00611+99999999999ADDGF103991999999999999999999
0029029110999991921050220004+63083+021617FM-12+000999999V0200201N002119999999N0000001N9+00281+99999999999ADDGF102991999999999999999999
0029029110999991921050306004+63083+021617FM-12+000999999V0203201N001019999999N0000001N9+00331+99999999999ADDGF102991999999999999999999
0029029110999991921050313004+63083+021617FM-12+000999999V0202701N002119999999N0000001N9+00721+99999999999ADDGF103991999999999999999999
0029029110999991921050320004+63083+021617FM-12+000999999V0202501N004119999999N0000001N9+00391+99999999999ADDGF102991999999999999999999
0029029110999991921050406004+63083+021617FM-12+000999999V0202301N001019999999N0000001N9+00281+99999999999ADDGF102991999999999999999999
0029029110999991921050413004+63083+021617FM-12+000999999V0202701N006219999999N0000001N9+00831+99999999999ADDGF103991999999999999999999
0029029110999991921050420004+63083+021617FM-12+000999999V0202501N001019999999N0000001N9+00501+99999999999ADDGF103991999999999999999999
0029029110999991921050506004+63083+021617FM-12+000999999V0202301N001019999999N0000001N9+00671+99999999999ADDGF103991999999999999999999
0029029110999991921050513004+63083+021617FM-12+000999999V0202701N004119999999N0000001N9+01111+99999999999ADDGF104991999999999999999999
0029029110999991921050520004+63083+021617FM-12+000999999V0202701N002119999999N0000001N9+00671+99999999999ADDGF103991999999999999999999
0029029110999991921050606004+63083+021617FM-12+000999999V0202501N001019999999N0000001N9+00441+99999999999ADDGF103991999999999999999999
0029029110999991921050613004+63083+021617FM-12+000999999V0202701N005119999999N0000001N9+00891+99999999999ADDGF103991999999999999999999
0029029110999991921050620004+63083+021617FM-12+000999999V0202001N001019999999N0000001N9+00611+99999999999ADDGF103991999999999999999999
0029029110999991921050706004+63083+021617FM-12+000999999V0202001N002119999999N0000001N9+00221+99999999999ADDGF102991999999999999999999
0029029110999991921050713004+63083+021617FM-12+000999999V0202701N006219999999N0000001N9+00891+99999999999ADDGF103991999999999999999999
0029029110999991921050720004+63083+021617FM-12+000999999V0202001N006219999999N0000001N9+00671+99999999999ADDGF103991999999999999999999
0029029110999991921050806004+63083+021617FM-12+000999999V0202001N008719999999N0000001N9+00671+99999999999ADDGF103991999999999999999999
0029029110999991921050813004+63083+021617FM-12+000999999V0201801N008719999999N0000001N9+01111+99999999999ADDGF104991999999999999999999
0029029110999991921050820004+63083+021617FM-12+000999999V0201801N009819999999N0000001N9+01171+99999999999ADDGF104991999999999999999999
0029029110999991921050906004+63083+021617FM-12+000999999V0202001N007219999999N0000001N9+01111+99999999999ADDGF104991999999999999999999
0029029110999991921050913004+63083+021617FM-12+000999999V0202001N006219999999N0000001N9+01831+99999999999ADDGF105991999999999999999999
0029029110999991921050920004+63083+021617FM-12+000999999V0201801N004119999999N0000001N9+01001+99999999999ADDGF104991999999999999999999
0029029110999991921051006004+63083+021617FM-12+000999999V0200201N004119999999N0000001N9+00671+99999999999ADDGF103991999999999999999999
0029029110999991921051013004+63083+021617FM-12+000999999V0203601N004119999999N0000001N9+00831+99999999999ADDGF103991999999999999999999
0029029110999991921051020004+63083+021617FM-12+000999999V0200501N002119999999N0000001N9+00671+99999999999ADDGF103991999999999999999999
0029029110999991921051106004+63083+021617FM-12+000999999V0200701N001019999999N0000001N9+00501+99999999999ADDGF103991999999999999999999
0029029110999991921051113004+63083+021617FM-12+000999999V0203601N004119999999N0000001N9+00941+99999999999ADDGF103991999999999999999999
0029029110999991921051120004+63083+021617FM-12+000999999V0200201N002119999999N0000001N9+00781+99999999999ADDGF103991999999999999999999
0029029110999991921051206004+63083+021617FM-12+000999999V0200901N001019999999N0000001N9+00331+99999999999ADDGF102991999999999999999999
0029029110999991921051213004+63083+021617FM-12+000999999V0200701N002119999999N0000001N9+01221+99999999999ADDGF104991999999999999999999
0029029110999991921051220004+63083+021617FM-12+000999999V0200201N002119999999N0000001N9+00331+99999999999ADDGF102991999999999999999999
0029029110999991921051306004+63083+021617FM-12+000999999V0200201N001019999999N0000001N9+00501+99999999999ADDGF103991999999999999999999
0029029110999991921051313004+63083+021617FM-12+000999999V0202701N004119999999N0000001N9+01441+99999999999ADDGF104991999999999999999999
0029029110999991921051320004+63083+021617FM-12+000999999V0202001N005119999999N0000001N9+01221+99999999999ADDGF104991999999999999999999
0029029110999991921051406004+63083+021617FM-12+000999999V0202001N006219999999N0000001N9+01001+99999999999ADDGF104991999999999999999999
0029029110999991921051413004+63083+021617FM-12+000999999V0202301N006219999999N0000001N9+01281+99999999999ADDGF104991999999999999999999
0029029110999991921051420004+63083+021617FM-12+000999999V0201801N004119999999N0000001N9+01171+99999999999ADDGF104991999999999999999999
0029029110999991921051506004+63083+021617FM-12+000999999V0201801N004119999999N0000001N9+01171+99999999999ADDGF104991999999999999999999
0029029110999991921051513004+63083+021617FM-12+000999999V0202001N008719999999N0000001N9+01561+99999999999ADDGF105991999999999999999999
0029029110999991921051520004+63083+021617FM-12+000999999V0201801N006219999999N0000001N9+01501+99999999999ADDGF104991999999999999999999
0029029110999991921051606004+63083+021617FM-12+000999999V0202301N002119999999N0000001N9+01001+99999999999ADDGF104991999999999999999999
0029029110999991921051613004+63083+021617FM-12+000999999V0203401N006219999999N0000001N9+00611+99999999999ADDGF103991999999999999999999
0029029110999991921051620004+63083+021617FM-12+000999999V0202501N001019999999N0000001N9+00721+99999999999ADDGF103991999999999999999999
0029029110999991921051706004+63083+021617FM-12+000999999V0203601N004119999999N0000001N9+00891+99999999999ADDGF103991999999999999999999
0029029110999991921051713004+63083+021617FM-12+000999999V0202701N002119999999N0000001N9+01331+99999999999ADDGF104991999999999999999999
0029029110999991921051720004+63083+021617FM-12+000999999V0202501N002119999999N0000001N9+00941+99999999999ADDGF103991999999999999999999
0029029110999991921051806004+63083+021617FM-12+000999999V0202001N002119999999N0000001N9+00781+99999999999ADDGF103991999999999999999999
0029029110999991921051813004+63083+021617FM-12+000999999V0202701N006219999999N0000001N9+01781+99999999999ADDGF105991999999999999999999
0029029110999991921051820004+63083+021617FM-12+000999999V0202001N002119999999N0000001N9+01281+99999999999ADDGF104991999999999999999999
0029029110999991921051906004+63083+021617FM-12+000999999V0201801N004119999999N0000001N9+00941+99999999999ADDGF103991999999999999999999
0029029110999991921051913004+63083+021617FM-12+000999999V0202001N007219999999N0000001N9+01561+99999999999ADDGF105991999999999999999999
0029029110999991921051920004+63083+021617FM-12+000999999V0201801N006219999999N0000001N9+01331+99999999999ADDGF104991999999999999999999
0029029110999991921052006004+63083+021617FM-12+000999999V0201801N002119999999N0000001N9+00941+99999999999ADDGF103991999999999999999999
0029029110999991921052013004+63083+021617FM-12+000999999V0202001N006219999999N0000001N9+01561+99999999999ADDGF105991999999999999999999
0029029110999991921052020004+63083+021617FM-12+000999999V0201801N005119999999N0000001N9+01441+99999999999ADDGF104991999999999999999999
0029029110999991921052106004+63083+021617FM-12+000999999V0202301N004119999999N0000001N9+01061+99999999999ADDGF104991999999999999999999
0029029110999991921052113004+63083+021617FM-12+000999999V0202701N006219999999N0000001N9+01441+99999999999ADDGF104991999999999999999999
0029029110999991921052120004+63083+021617FM-12+000999999V0203401N003119999999N0000001N9+01171+99999999999ADDGF104991999999999999999999
0029029110999991921052206004+63083+021617FM-12+000999999V0202301N003119999999N0000001N9+01001+99999999999ADDGF104991999999999999999999
0029029110999991921052213004+63083+021617FM-12+000999999V0202001N009819999999N0000001N9+01721+99999999999ADDGF105991999999999999999999
0029029110999991921052220004+63083+021617FM-12+000999999V0202301N006219999999N0000001N9+01501+99999999999ADDGF104991999999999999999999
0046029110999991921052306004+63083+021617FM-12+000999999V0202901N006219999999N0000001N9+01001+99999101681ADDAJ100009199999999GF100991999999999999999999
0029029110999991921052313004+63083+021617FM-12+000999999V0202701N005119999999N0000001N9+01221+99999999999ADDGF104991999999999999999999
0029029110999991921052320004+63083+021617FM-12+000999999V0203201N005119999999N0000001N9+01001+99999999999ADDGF104991999999999999999999
0029029110999991921052406004+63083+021617FM-12+000999999V0202901N004119999999N0000001N9+00831+99999999999ADDGF103991999999999999999999
0029029110999991921052413004+63083+021617FM-12+000999999V0201801N006219999999N0000001N9+01281+99999999999ADDGF104991999999999999999999
0029029110999991921052420004+63083+021617FM-12+000999999V0201801N008219999999N0000001N9+01281+99999999999ADDGF104991999999999999999999
0029029110999991921052506004+63083+021617FM-12+000999999V0202901N006219999999N0000001N9+00941+99999999999ADDGF103991999999999999999999
0029029110999991921052513004+63083+021617FM-12+000999999V0202701N007219999999N0000001N9+01221+99999999999ADDGF104991999999999999999999
0029029110999991921052520004+63083+021617FM-12+000999999V0202501N006219999999N0000001N9+01061+99999999999ADDGF104991999999999999999999
0029029110999991921052606004+63083+021617FM-12+000999999V0201101N002119999999N0000001N9+01281+99999999999ADDGF104991999999999999999999
0029029110999991921052613004+63083+021617FM-12+000999999V0202001N007219999999N0000001N9+02171+99999999999ADDGF106991999999999999999999
0029029110999991921052620004+63083+021617FM-12+000999999V0201801N005119999999N0000001N9+01721+99999999999ADDGF105991999999999999999999
0029029110999991921052706004+63083+021617FM-12+000999999V0201801N006219999999N0000001N9+01561+99999999999ADDGF105991999999999999999999
0029029110999991921052713004+63083+021617FM-12+000999999V0202001N009819999999N0000001N9+02331+99999999999ADDGF106991999999999999999999
0029029110999991921052720004+63083+021617FM-12+000999999V0202001N004119999999N0000001N9+01831+99999999999ADDGF105991999999999999999999
0029029110999991921052806004+63083+021617FM-12+000999999V0202001N001019999999N0000001N9+01671+99999999999ADDGF105991999999999999999999
0029029110999991921052813004+63083+021617FM-12+000999999V0202901N001019999999N0000001N9+01941+99999999999ADDGF105991999999999999999999
0029029110999991921052820004+63083+021617FM-12+000999999V0202501N001019999999N0000001N9+01671+99999999999ADDGF105991999999999999999999
0029029110999991921052906004+63083+021617FM-12+000999999V0201801N004119999999N0000001N9+01391+99999999999ADDGF104991999999999999999999
0029029110999991921052913004+63083+021617FM-12+000999999V0202001N007219999999N0000001N9+02061+99999999999ADDGF105991999999999999999999
0029029110999991921052920004+63083+021617FM-12+000999999V0202301N004119999999N0000001N9+01281+99999999999ADDGF104991999999999999999999
0029029110999991921053006004+63083+021617FM-12+000999999V0202301N004119999999N0000001N9+01171+99999999999ADDGF104991999999999999999999
0029029110999991921053013004+63083+021617FM-12+000999999V0202001N005119999999N0000001N9+01331+99999999999ADDGF104991999999999999999999
0029029110999991921053020004+63083+021617FM-12+000999999V0202001N004119999999N0000001N9+01281+99999999999ADDGF104991999999999999999999
0029029110999991921053106004+63083+021617FM-12+000999999V0202001N002119999999N0000001N9+01221+99999999999ADDGF104991999999999999999999
0029029110999991921053113004+63083+021617FM-12+000999999V0201801N008219999999N0000001N9+02001+99999999999ADDGF105991999999999999999999
0029029110999991921053120004+63083+021617FM-12+000999999V0201801N006219999999N0000001N9+01561+99999999999ADDGF105991999999999999999999
0046029110999991921060106004+63083+021617FM-12+000999999V0202301N009819999999N0000001N9+01441+99999101791ADDAJ100009199999999GF101991999999999999999999
0029029110999991921060113004+63083+021617FM-12+000999999V0202501N008719999999N0000001N9+01561+99999102021ADDGF100991999999999999999999
0029029110999991921060120004+63083+021617FM-12+000999999V0202001N006219999999N0000001N9+01501+99999102151ADDGF100991999999999999999999
0046029110999991921060206004+63083+021617FM-12+000999999V0200501N006219999999N0000001N9+01441+99999102551ADDAJ100009199999999GF100991999999999999999999
0029029110999991921060213004+63083+021617FM-12+000999999V0203601N004119999999N0000001N9+02001+99999102551ADDGF100991999999999999999999
0029029110999991921060220004+63083+021617FM-12+000999999V0202501N003119999999N0000001N9+01501+99999102341ADDGF100991999999999999999999
0046029110999991921060306004+63083+021617FM-12+000999999V0202701N004119999999N0000001N9+01331+99999101981ADDAJ100009199999999GF100991999999999999999999
0029029110999991921060313004+63083+021617FM-12+000999999V0202701N007219999999N0000001N9+01671+99999102141ADDGF100991999999999999999999
0029029110999991921060320004+63083+021617FM-12+000999999V0202901N006219999999N0000001N9+01331+99999102021ADDGF102991999999999999999999
0046029110999991921060406004+63083+021617FM-12+000999999V0202901N006219999999N0000001N9+01111+99999102271ADDAJ100009199999999GF100991999999999999999999
0035029110999991921060420004+63083+021617FM-12+000999999V0202301N006219999999N0000001N9+01111+99999101481ADDGF108991999999999999999999MW1601
0052029110999991921060506004+63083+021617FM-12+000999999V0203401N006219999999N0000001N9+00721+99999100861ADDAJ100009199999999GF108991999999999999999999MW1641
0029029110999991921060513004+63083+021617FM-12+000999999V0200201N005119999999N0000001N9+01061+99999101021ADDGF100991999999999999999999
0029029110999991921060520004+63083+021617FM-12+000999999V0203201N005119999999N0000001N9+00941+99999101081ADDGF106991999999999999999999
0046029110999991921060606004+63083+021617FM-12+000999999V0203601N006219999999N0000001N9+00781+99999101351ADDAJ100009199999999GF102991999999999999999999
0029029110999991921060613004+63083+021617FM-12+000999999V0202701N003119999999N0000001N9+01061+99999101381ADDGF102991999999999999999999
0029029110999991921060620004+63083+021617FM-12+000999999V0202501N005119999999N0000001N9+01061+99999101151ADDGF102991999999999999999999
0046029110999991921060706004+63083+021617FM-12+000999999V0203201N004119999999N0000001N9+01171+99999100961ADDAJ100009199999999GF108991999999999999999999
0029029110999991921060713004+63083+021617FM-12+000999999V0202701N002119999999N0000001N9+01671+99999100961ADDGF104991999999999999999999
0029029110999991921060720004+63083+021617FM-12+000999999V0202701N002119999999N0000001N9+01391+99999100921ADDGF100991999999999999999999
0046029110999991921060806004+63083+021617FM-12+000999999V0203601N004119999999N0000001N9+01281+99999100981ADDAJ100009199999999GF100991999999999999999999
0029029110999991921060813004+63083+021617FM-12+000999999V0203601N004119999999N0000001N9+01501+99999100951ADDGF100991999999999999999999
0029029110999991921060820004+63083+021617FM-12+000999999V0203601N002119999999N0000001N9+01171+99999100801ADDGF102991999999999999999999
0046029110999991921060906004+63083+021617FM-12+000999999V0200201N004119999999N0000001N9+01501+99999100641ADDAJ100009199999999GF100991999999999999999999
0029029110999991921060913004+63083+021617FM-12+000999999V0202901N004119999999N0000001N9+02061+99999100391ADDGF100991999999999999999999
0029029110999991921060920004+63083+021617FM-12+000999999V0202701N002119999999N0000001N9+01441+99999100241ADDGF103991999999999999999999
0046029110999991921061006004+63083+021617FM-12+000999999V0201801N002119999999N0000001N9+01441+99999100191ADDAJ100009199999999GF104991999999999999999999
0029029110999991921061013004+63083+021617FM-12+000999999V0202701N004119999999N0000001N9+02061+99999100261ADDGF102991999999999999999999
0029029110999991921061020004+63083+021617FM-12+000999999V0200501N001019999999N0000001N9+01781+99999100241ADDGF106991999999999999999999
0046029110999991921061106004+63083+021617FM-12+000999999V0202001N007219999999N0000001N9+01391+99999100181ADDAJ100009199999999GF104991999999999999999999
0029029110999991921061113004+63083+021617FM-12+000999999V0201801N005119999999N0000001N9+01721+99999100311ADDGF108991999999999999999999
0029029110999991921061120004+63083+021617FM-12+000999999V0201801N004119999999N0000001N9+01441+99999100261ADDGF102991999999999999999999
0046029110999991921061206004+63083+021617FM-12+000999999V0201801N006219999999N0000001N9+01281+99999100281ADDAJ100009199999999GF104991999999999999999999
0029029110999991921061213004+63083+021617FM-12+000999999V0202301N007219999999N0000001N9+01671+99999100471ADDGF102991999999999999999999
0029029110999991921061220004+63083+021617FM-12+000999999V0202301N004119999999N0000001N9+01111+99999100661ADDGF104991999999999999999999
0052029110999991921061306004+63083+021617FM-12+000999999V0200701N002119999999N0000001N9+01061+99999100471ADDAJ100009199999999GF108991999999999999999999MW1621
0035029110999991921061313004+63083+021617FM-12+000999999V0200201N004119999999N0000001N9+01171+99999100561ADDGF106991999999999999999999MW1901
0035029110999991921061320004+63083+021617FM-12+000999999V0203601N001019999999N0000001N9+01061+99999100781ADDGF108991999999999999999999MW1621
0046029110999991921061406004+63083+021617FM-12+000999999V0203601N001019999999N0000001N9+00941+99999101181ADDAJ100009199999999GF106991999999999999999999
0029029110999991921061413004+63083+021617FM-12+000999999V0202701N004119999999N0000001N9+01331+99999101481ADDGF100991999999999999999999
0029029110999991921061420004+63083+021617FM-12+000999999V0202301N005119999999N0000001N9+01171+99999101541ADDGF100991999999999999999999
0046029110999991921061506004+63083+021617FM-12+000999999V0201601N004119999999N0000001N9+01111+99999101241ADDAJ100009199999999GF103991999999999999999999
0035029110999991921061513004+63083+021617FM-12+000999999V0202701N007219999999N0000001N9+01331+99999101241ADDGF106991999999999999999999MW1621
0029029110999991921061520004+63083+021617FM-12+000999999V0201801N004119999999N0000001N9+01001+99999101181ADDGF108991999999999999999999
0046029110999991921061606004+63083+021617FM-12+000999999V0203401N004119999999N0000001N9+01061+99999101271ADDAJ100009199999999GF100991999999999999999999
0029029110999991921061613004+63083+021617FM-12+000999999V0202701N006219999999N0000001N9+01331+99999101511ADDGF102991999999999999999999
0029029110999991921061620004+63083+021617FM-12+000999999V0203201N004119999999N0000001N9+01111+99999101501ADDGF100991999999999999999999
0046029110999991921061706004+63083+021617FM-12+000999999V0202901N004119999999N0000001N9+01221+99999101351ADDAJ100009199999999GF100991999999999999999999
0029029110999991921061713004+63083+021617FM-12+000999999V0201801N006219999999N0000001N9+01721+99999100961ADDGF101991999999999999999999
0029029110999991921061720004+63083+021617FM-12+000999999V0201801N004119999999N0000001N9+01391+99999100281ADDGF106991999999999999999999
0052029110999991921061806004+63083+021617FM-12+000999999V0201401N006219999999N0000001N9+01281+99999099861ADDAJ100009199999999GF106991999999999999999999MW1601
0029029110999991921061813004+63083+021617FM-12+000999999V0201801N004119999999N0000001N9+01721+99999100031ADDGF107991999999999999999999
0029029110999991921061820004+63083+021617FM-12+000999999V0200201N006219999999N0000001N9+01281+99999100031ADDGF104991999999999999999999
0046029110999991921061906004+63083+021617FM-12+000999999V0200501N006219999999N0000001N9+01111+99999099751ADDAJ100009199999999GF108991999999999999999999
0035029110999991921061913004+63083+021617FM-12+000999999V0203601N006219999999N0000001N9+00941+99999099551ADDGF108991999999999999999999MW1641
0035029110999991921061920004+63083+021617FM-12+000999999V0200201N002119999999N0000001N9+01001+99999099031ADDGF108991999999999999999999MW1641
0046029110999991921062006004+63083+021617FM-12+000999999V0201801N008219999999N0000001N9+01001+99999098701ADDAJ100009199999999GF108991999999999999999999
0035029110999991921062013004+63083+021617FM-12+000999999V0202301N008219999999N0000001N9+00831+99999098981ADDGF108991999999999999999999MW1621
0029029110999991921062020004+63083+021617FM-12+000999999V0201801N004119999999N0000001N9+00781+99999099161ADDGF106991999999999999999999
0046029110999991921062106004+63083+021617FM-12+000999999V0201401N002119999999N0000001N9+01001+99999099511ADDAJ100009199999999GF106991999999999999999999
0035029110999991921062113004+63083+021617FM-12+000999999V0201801N005119999999N0000001N9+01061+99999100031ADDGF107991999999999999999999MW1621
0029029110999991921062120004+63083+021617FM-12+000999999V0201801N004119999999N0000001N9+01111+99999100231ADDGF101991999999999999999999
0052029110999991921062206004+63083+021617FM-12+000999999V0201401N002119999999N0000001N9+01061+99999100631ADDAJ100009199999999GF107991999999999999999999MW1621
0029029110999991921062213004+63083+021617FM-12+000999999V0200901N004119999999N0000001N9+01501+99999100741ADDGF107991999999999999999999
0029029110999991921062220004+63083+021617FM-12+000999999V0202501N004119999999N0000001N9+00941+99999100881ADDGF108991999999999999999999
0046029110999991921062306004+63083+021617FM-12+000999999V0202301N002119999999N0000001N9+01001+99999100741ADDAJ100009199999999GF107991999999999999999999
0029029110999991921062313004+63083+021617FM-12+000999999V0202701N005119999999N0000001N9+01281+99999100801ADDGF102991999999999999999999
0029029110999991921062320004+63083+021617FM-12+000999999V0202501N005119999999N0000001N9+01171+99999100781ADDGF106991999999999999999999
0046029110999991921062406004+63083+021617FM-12+000999999V0202301N002119999999N0000001N9+01221+99999100941ADDAJ100009199999999GF106991999999999999999999
0029029110999991921062413004+63083+021617FM-12+000999999V0202701N004119999999N0000001N9+01721+99999101221ADDGF103991999999999999999999
0029029110999991921062420004+63083+021617FM-12+000999999V0202901N002119999999N0000001N9+01441+99999101351ADDGF100991999999999999999999
0046029110999991921062506004+63083+021617FM-12+000999999V0203601N004119999999N0000001N9+01221+99999101401ADDAJ100009199999999GF100991999999999999999999
0029029110999991921062513004+63083+021617FM-12+000999999V0203401N006219999999N0000001N9+01611+99999101221ADDGF100991999999999999999999
0029029110999991921062520004+63083+021617FM-12+000999999V0203401N002119999999N0000001N9+01221+99999101101ADDGF102991999999999999999999
0046029110999991921062606004+63083+021617FM-12+000999999V0203401N001019999999N0000001N9+01111+99999100821ADDAJ100009199999999GF108991999999999999999999
0029029110999991921062613004+63083+021617FM-12+000999999V0203601N002119999999N0000001N9+01721+99999100591ADDGF108991999999999999999999
0029029110999991921062620004+63083+021617FM-12+000999999V0203601N001019999999N0000001N9+01441+99999100471ADDGF102991999999999999999999
0046029110999991921062706004+63083+021617FM-12+000999999V0203601N001019999999N0000001N9+01281+99999100431ADDAJ100009199999999GF106991999999999999999999
0029029110999991921062713004+63083+021617FM-12+000999999V0202701N005119999999N0000001N9+01501+99999100681ADDGF102991999999999999999999
0029029110999991921062720004+63083+021617FM-12+000999999V0202701N002119999999N0000001N9+01331+99999100711ADDGF105991999999999999999999
0046029110999991921062806004+63083+021617FM-12+000999999V0203401N004119999999N0000001N9+01221+99999100561ADDAJ100009199999999GF100991999999999999999999
0029029110999991921062813004+63083+021617FM-12+000999999V0202701N005119999999N0000001N9+01441+99999100551ADDGF100991999999999999999999
0029029110999991921062820004+63083+021617FM-12+000999999V0202701N002119999999N0000001N9+01281+99999100351ADDGF101991999999999999999999
0046029110999991921062906004+63083+021617FM-12+000999999V0203401N006219999999N0000001N9+01061+99999100121ADDAJ100009199999999GF108991999999999999999999
0035029110999991921062913004+63083+021617FM-12+000999999V0203401N003119999999N0000001N9+01391+99999099981ADDGF107991999999999999999999MW1621
0035029110999991921062920004+63083+021617FM-12+000999999V0203601N006219999999N0000001N9+01111+99999099541ADDGF108991999999999999999999MW1621
0046029110999991921063006004+63083+021617FM-12+000999999V0200201N007219999999N0000001N9+01111+99999099801ADDAJ100009199999999GF108991999999999999999999
0035029110999991921063013004+63083+021617FM-12+000999999V0200501N009819999999N0000001N9+01111+99999100381ADDGF108991999999999999999999MW1601
0029029110999991921063020004+63083+021617FM-12+000999999V0200201N005119999999N0000001N9+01171+99999100681ADDGF106991999999999999999999
0046029110999991921070106004+63083+021617FM-12+000999999V0200201N006219999999N0000001N9+01171+99999101141ADDAJ100009199999999GF104991999999999999999999
0029029110999991921070113004+63083+021617FM-12+000999999V0200201N004119999999N0000001N9+01281+99999101461ADDGF105991999999999999999999
0029029110999991921070120004+63083+021617FM-12+000999999V0200201N002119999999N0000001N9+01281+99999101501ADDGF103991999999999999999999
0046029110999991921070206004+63083+021617FM-12+000999999V0200201N002119999999N0000001N9+01391+99999101701ADDAJ100009199999999GF100991999999999999999999
0029029110999991921070213004+63083+021617FM-12+000999999V0203601N002119999999N0000001N9+01671+99999101791ADDGF103991999999999999999999
0029029110999991921070220004+63083+021617FM-12+000999999V0203601N001019999999N0000001N9+01441+99999101671ADDGF100991999999999999999999
0046029110999991921070306004+63083+021617FM-12+000999999V0200901N002119999999N0000001N9+01331+99999101681ADDAJ100009199999999GF100991999999999999999999
0029029110999991921070313004+63083+021617FM-12+000999999V0202701N004119999999N0000001N9+01831+99999101701ADDGF100991999999999999999999
0029029110999991921070320004+63083+021617FM-12+000999999V0202701N002119999999N0000001N9+01501+99999101561ADDGF100991999999999999999999
0046029110999991921070406004+63083+021617FM-12+000999999V0202701N002119999999N0000001N9+01671+99999101471ADDAJ100009199999999GF100991999999999999999999
0029029110999991921070413004+63083+021617FM-12+000999999V0202901N002119999999N0000001N9+01831+99999101421ADDGF101991999999999999999999
0029029110999991921070420004+63083+021617FM-12+000999999V0202301N004119999999N0000001N9+01441+99999101161ADDGF104991999999999999999999
0046029110999991921070506004+63083+021617FM-12+000999999V0202901N004119999999N0000001N9+01281+99999101071ADDAJ100009199999999GF102991999999999999999999
0029029110999991921070513004+63083+021617FM-12+000999999V0202701N002119999999N0000001N9+01281+99999101101ADDGF105991999999999999999999
0029029110999991921070520004+63083+021617FM-12+000999999V0202501N004119999999N0000001N9+01281+99999100981ADDGF106991999999999999999999
0046029110999991921070606004+63083+021617FM-12+000999999V0203601N001019999999N0000001N9+01281+99999100981ADDAJ100009199999999GF103991999999999999999999
0029029110999991921070613004+63083+021617FM-12+000999999V0203401N004119999999N0000001N9+01671+99999101101ADDGF102991999999999999999999
0029029110999991921070620004+63083+021617FM-12+000999999V0203401N002119999999N0000001N9+01221+99999101221ADDGF104991999999999999999999
0046029110999991921070706004+63083+021617FM-12+000999999V0203401N002119999999N0000001N9+01501+99999101231ADDAJ100009199999999GF101991999999999999999999
0029029110999991921070713004+63083+021617FM-12+000999999V0203401N002119999999N0000001N9+01831+99999101361ADDGF102991999999999999999999
0029029110999991921070720004+63083+021617FM-12+000999999V0202301N001019999999N0000001N9+01331+99999101561ADDGF102991999999999999999999
0046029110999991921070806004+63083+021617FM-12+000999999V0201801N004119999999N0000001N9+01281+99999101551ADDAJ100009199999999GF102991999999999999999999
0029029110999991921070813004+63083+021617FM-12+000999999V0202701N006219999999N0000001N9+01831+99999101621ADDGF102991999999999999999999
0029029110999991921070820004+63083+021617FM-12+000999999V0201801N004119999999N0000001N9+01721+99999101201ADDGF106991999999999999999999
0046029110999991921070906004+63083+021617FM-12+000999999V0203201N002119999999N0000001N9+01561+99999101101ADDAJ100009199999999GF102991999999999999999999
0029029110999991921070913004+63083+021617FM-12+000999999V0202701N003119999999N0000001N9+01831+99999101201ADDGF100991999999999999999999
0029029110999991921070920004+63083+021617FM-12+000999999V0203401N005119999999N0000001N9+01561+99999101101ADDGF107991999999999999999999
0046029110999991921071006004+63083+021617FM-12+000999999V0202701N006219999999N0000001N9+01391+99999100991ADDAJ100009199999999GF107991999999999999999999
0029029110999991921071013004+63083+021617FM-12+000999999V0202701N004119999999N0000001N9+01391+99999100801ADDGF108991999999999999999999
0029029110999991921071020004+63083+021617FM-12+000999999V0203401N004119999999N0000001N9+01441+99999100701ADDGF106991999999999999999999
0046029110999991921071106004+63083+021617FM-12+000999999V0202701N006219999999N0000001N9+01441+99999100681ADDAJ100009199999999GF106991999999999999999999
0035029110999991921071113004+63083+021617FM-12+000999999V0202301N004119999999N0000001N9+01331+99999100421ADDGF108991999999999999999999MW1621
0035029110999991921071120004+63083+021617FM-12+000999999V0201401N001019999999N0000001N9+01281+99999099351ADDGF108991999999999999999999MW1641
0052029110999991921071206004+63083+021617FM-12+000999999V0203401N004119999999N0000001N9+01171+99999098641ADDAJ100009199999999GF108991999999999999999999MW1641
0035029110999991921071213004+63083+021617FM-12+000999999V0203601N009819999999N0000001N9+01001+99999098961ADDGF108991999999999999999999MW1641
0029029110999991921071220004+63083+021617FM-12+000999999V0203201N004119999999N0000001N9+01111+99999099161ADDGF108991999999999999999999
0052029110999991921071306004+63083+021617FM-12+000999999V0203401N008219999999N0000001N9+00891+99999099241ADDAJ100009199999999GF108991999999999999999999MW1621
0029029110999991921071313004+63083+021617FM-12+000999999V0203601N004119999999N0000001N9+01111+99999099521ADDGF108991999999999999999999
0035029110999991921071320004+63083+021617FM-12+000999999V0203601N006219999999N0000001N9+01061+99999099661ADDGF108991999999999999999999MW1601
0052029110999991921071406004+63083+021617FM-12+000999999V0200201N012919999999N0000001N9+00891+99999099831ADDAJ100009199999999GF108991999999999999999999MW1641
0029029110999991921071413004+63083+021617FM-12+000999999V0203601N010819999999N0000001N9+01111+99999100471ADDGF107991999999999999999999
0029029110999991921071420004+63083+021617FM-12+000999999V0200201N005119999999N0000001N9+01111+99999100871ADDGF103991999999999999999999
0046029110999991921071506004+63083+021617FM-12+000999999V0200201N006219999999N0000001N9+01111+99999101281ADDAJ100009199999999GF101991999999999999999999
0029029110999991921071513004+63083+021617FM-12+000999999V0200501N005119999999N0000001N9+01331+99999101641ADDGF100991999999999999999999
0029029110999991921071520004+63083+021617FM-12+000999999V0203601N002119999999N0000001N9+01171+99999101701ADDGF102991999999999999999999
0046029110999991921071606004+63083+021617FM-12+000999999V0202001N003119999999N0000001N9+01171+99999101721ADDAJ100009199999999GF102991999999999999999999
0029029110999991921071613004+63083+021617FM-12+000999999V0202701N002119999999N0000001N9+01721+99999101781ADDGF101991999999999999999999
0029029110999991921071620004+63083+021617FM-12+000999999V0203601N001019999999N0000001N9+01221+99999101741ADDGF103991999999999999999999
0052029110999991921071706004+63083+021617FM-12+000999999V0200201N004119999999N0000001N9+01061+99999101741ADDAJ100009199999999GF108991999999999999999999MW1621
0029029110999991921071713004+63083+021617FM-12+000999999V0200201N007219999999N0000001N9+01111+99999101951ADDGF108991999999999999999999
0029029110999991921071720004+63083+021617FM-12+000999999V0200201N005119999999N0000001N9+01061+99999102081ADDGF100991999999999999999999
0046029110999991921071806004+63083+021617FM-12+000999999V0200201N004119999999N0000001N9+01281+99999102151ADDAJ100009199999999GF100991999999999999999999
0029029110999991921071813004+63083+021617FM-12+000999999V0203601N005119999999N0000001N9+01561+99999102041ADDGF100991999999999999999999
0029029110999991921071820004+63083+021617FM-12+000999999V0203201N001019999999N0000001N9+01281+99999101671ADDGF104991999999999999999999
0052029110999991921071906004+63083+021617FM-12+000999999V0201101N001019999999N0000001N9+01061+99999101341ADDAJ100009199999999GF108991999999999999999999MW1601
0029029110999991921071913004+63083+021617FM-12+000999999V0200201N003119999999N0000001N9+01441+99999101501ADDGF104991999999999999999999
0029029110999991921071920004+63083+021617FM-12+000999999V0200201N004119999999N0000001N9+01061+99999101471ADDGF104991999999999999999999
0046029110999991921072006004+63083+021617FM-12+000999999V0200701N001019999999N0000001N9+01391+99999101511ADDAJ100009199999999GF101991999999999999999999
0029029110999991921072013004+63083+021617FM-12+000999999V0200501N002119999999N0000001N9+01611+99999101441ADDGF106991999999999999999999
0029029110999991921072020004+63083+021617FM-12+000999999V0200201N001019999999N0000001N9+01281+99999101161ADDGF102991999999999999999999
0046029110999991921072106004+63083+021617FM-12+000999999V0200501N001019999999N0000001N9+01171+99999100881ADDAJ100009199999999GF107991999999999999999999
0029029110999991921072113004+63083+021617FM-12+000999999V0200901N004119999999N0000001N9+02061+99999100671ADDGF106991999999999999999999
0029029110999991921072120004+63083+021617FM-12+000999999V0200701N001019999999N0000001N9+01501+99999100541ADDGF106991999999999999999999
0046029110999991921072206004+63083+021617FM-12+000999999V0200701N001019999999N0000001N9+01561+99999100501ADDAJ100009199999999GF101991999999999999999999
0029029110999991921072213004+63083+021617FM-12+000999999V0200501N003119999999N0000001N9+01721+99999100471ADDGF106991999999999999999999
0029029110999991921072220004+63083+021617FM-12+000999999V0203201N002119999999N0000001N9+01611+99999100191ADDGF106991999999999999999999
0046029110999991921072306004+63083+021617FM-12+000999999V0201401N002119999999N0000001N9+01221+99999099751ADDAJ100009199999999GF106991999999999999999999
0035029110999991921072313004+63083+021617FM-12+000999999V0201801N002119999999N0000001N9+01441+99999099101ADDGF108991999999999999999999MW1621
0029029110999991921072320004+63083+021617FM-12+000999999V0200501N004119999999N0000001N9+01331+99999098601ADDGF104991999999999999999999
0046029110999991921072406004+63083+021617FM-12+000999999V0200501N001019999999N0000001N9+01281+99999098591ADDAJ100009199999999GF108991999999999999999999
0029029110999991921072413004+63083+021617FM-12+000999999V0202301N002119999999N0000001N9+01441+99999098591ADDGF108991999999999999999999
0029029110999991921072420004+63083+021617FM-12+000999999V0202001N005119999999N0000001N9+01221+99999098481ADDGF108991999999999999999999
0046029110999991921072506004+63083+021617FM-12+000999999V0201801N001019999999N0000001N9+01171+99999098631ADDAJ100009199999999GF108991999999999999999999
0029029110999991921072513004+63083+021617FM-12+000999999V0203601N006219999999N0000001N9+01441+99999099311ADDGF102991999999999999999999
0029029110999991921072520004+63083+021617FM-12+000999999V0203601N002119999999N0000001N9+01441+99999100121ADDGF101991999999999999999999
0046029110999991921072606004+63083+021617FM-12+000999999V0202501N002119999999N0000001N9+01441+99999100751ADDAJ100009199999999GF100991999999999999999999
0029029110999991921072613004+63083+021617FM-12+000999999V0202501N003119999999N0000001N9+01721+99999100961ADDGF102991999999999999999999
0029029110999991921072620004+63083+021617FM-12+000999999V0201801N006219999999N0000001N9+01561+99999100741ADDGF108991999999999999999999
0046029110999991921072706004+63083+021617FM-12+000999999V0202301N006219999999N0000001N9+01561+99999100191ADDAJ100009199999999GF108991999999999999999999
0029029110999991921072713004+63083+021617FM-12+000999999V0202501N009819999999N0000001N9+01611+99999100121ADDGF106991999999999999999999
0029029110999991921072720004+63083+021617FM-12+000999999V0202501N006219999999N0000001N9+01441+99999100021ADDGF101991999999999999999999
0046029110999991921072806004+63083+021617FM-12+000999999V0203401N001019999999N0000001N9+01561+99999100221ADDAJ100009199999999GF101991999999999999999999
0029029110999991921072813004+63083+021617FM-12+000999999V0202701N004119999999N0000001N9+01721+99999100361ADDGF101991999999999999999999
0029029110999991921072820004+63083+021617FM-12+000999999V0202501N006219999999N0000001N9+01441+99999100461ADDGF100991999999999999999999
0046029110999991921072906004+63083+021617FM-12+000999999V0202901N004119999999N0000001N9+01391+99999100921ADDAJ100009199999999GF100991999999999999999999
0029029110999991921072913004+63083+021617FM-12+000999999V0202701N003119999999N0000001N9+01721+99999101231ADDGF100991999999999999999999
0029029110999991921072920004+63083+021617FM-12+000999999V0202701N001019999999N0000001N9+01331+99999101081ADDGF104991999999999999999999
0046029110999991921073006004+63083+021617FM-12+000999999V0201101N004119999999N0000001N9+01221+99999100431ADDAJ100009199999999GF108991999999999999999999
0035029110999991921073013004+63083+021617FM-12+000999999V0201401N004119999999N0000001N9+01501+99999100181ADDGF108991999999999999999999MW1621
0035029110999991921073020004+63083+021617FM-12+000999999V0202301N004119999999N0000001N9+01561+99999099721ADDGF108991999999999999999999MW1621
0046029110999991921073106004+63083+021617FM-12+000999999V0203201N007219999999N0000001N9+01171+99999099911ADDAJ100009199999999GF108991999999999999999999
0029029110999991921073113004+63083+021617FM-12+000999999V0203401N008219999999N0000001N9+01671+99999100591ADDGF106991999999999999999999
0029029110999991921073120004+63083+021617FM-12+000999999V0202501N006219999999N0000001N9+01441+99999100761ADDGF106991999999999999999999
0046029110999991921080106004+63083+021617FM-12+000999999V0202001N001019999999N0000001N9+01221+99999100861ADDAJ100009199999999GF106991999999999999999999
0029029110999991921080113004+63083+021617FM-12+000999999V0202701N002119999999N0000001N9+01781+99999101031ADDGF102991999999999999999999
0029029110999991921080120004+63083+021617FM-12+000999999V0202701N002119999999N0000001N9+01391+99999101071ADDGF100991999999999999999999
0046029110999991921080206004+63083+021617FM-12+000999999V0202301N001019999999N0000001N9+01001+99999101241ADDAJ100009199999999GF106991999999999999999999
0029029110999991921080213004+63083+021617FM-12+000999999V0202701N002119999999N0000001N9+02171+99999101361ADDGF100991999999999999999999
0029029110999991921080220004+63083+021617FM-12+000999999V0202701N001019999999N0000001N9+01561+99999101401ADDGF106991999999999999999999
0046029110999991921080306004+63083+021617FM-12+000999999V0201601N004119999999N0000001N9+01611+99999101311ADDAJ100009199999999GF106991999999999999999999
0029029110999991921080313004+63083+021617FM-12+000999999V0202001N007219999999N0000001N9+02441+99999101141ADDGF107991999999999999999999
0029029110999991921080320004+63083+021617FM-12+000999999V0202501N006219999999N0000001N9+02111+99999100911ADDGF106991999999999999999999
0046029110999991921080406004+63083+021617FM-12+000999999V0201801N002119999999N0000001N9+01781+99999100911ADDAJ100009199999999GF106991999999999999999999
0029029110999991921080413004+63083+021617FM-12+000999999V0202701N002119999999N0000001N9+02331+99999100791ADDGF102991999999999999999999
0029029110999991921080420004+63083+021617FM-12+000999999V0202301N004119999999N0000001N9+01671+99999100461ADDGF106991999999999999999999
0046029110999991921080506004+63083+021617FM-12+000999999V0203201N004119999999N0000001N9+01441+99999100541ADDAJ100009199999999GF105991999999999999999999
0029029110999991921080513004+63083+021617FM-12+000999999V0202901N002119999999N0000001N9+01831+99999100661ADDGF100991999999999999999999
0029029110999991921080520004+63083+021617FM-12+000999999V0202001N004119999999N0000001N9+01391+99999100321ADDGF102991999999999999999999
0046029110999991921080606004+63083+021617FM-12+000999999V0201801N002119999999N0000001N9+01281+99999099861ADDAJ100009199999999GF106991999999999999999999
0029029110999991921080613004+63083+021617FM-12+000999999V0201801N002119999999N0000001N9+01501+99999099621ADDGF108991999999999999999999
0035029110999991921080620004+63083+021617FM-12+000999999V0200901N004119999999N0000001N9+01391+99999098591ADDGF108991999999999999999999MW1621
0052029110999991921080706004+63083+021617FM-12+000999999V0202001N004119999999N0000001N9+01391+99999098001ADDAJ100009199999999GF108991999999999999999999MW1621
0029029110999991921080713004+63083+021617FM-12+000999999V0201801N004119999999N0000001N9+01441+99999098241ADDGF107991999999999999999999
0029029110999991921080720004+63083+021617FM-12+000999999V0202001N002119999999N0000001N9+01331+99999098391ADDGF106991999999999999999999
0046029110999991921080806004+63083+021617FM-12+000999999V0201801N004119999999N0000001N9+01171+99999098241ADDAJ100009199999999GF107991999999999999999999
0029029110999991921080813004+63083+021617FM-12+000999999V0200901N001019999999N0000001N9+01501+99999098301ADDGF106991999999999999999999
0029029110999991921080820004+63083+021617FM-12+000999999V0201101N001019999999N0000001N9+01111+99999098401ADDGF106991999999999999999999
0046029110999991921080906004+63083+021617FM-12+000999999V0201101N001019999999N0000001N9+01001+99999098351ADDAJ100009199999999GF100991999999999999999999
0029029110999991921080913004+63083+021617FM-12+000999999V0201401N002119999999N0000001N9+01671+99999098481ADDGF103991999999999999999999
0029029110999991921080920004+63083+021617FM-12+000999999V0202001N001019999999N0000001N9+01331+99999098861ADDGF105991999999999999999999
0046029110999991921081006004+63083+021617FM-12+000999999V0201101N001019999999N0000001N9+01001+99999099591ADDAJ100009199999999GF106991999999999999999999
0029029110999991921081013004+63083+021617FM-12+000999999V0202901N002119999999N0000001N9+01721+99999100121ADDGF104991999999999999999999
0029029110999991921081020004+63083+021617FM-12+000999999V0203601N001019999999N0000001N9+01331+99999100461ADDGF102991999999999999999999
0046029110999991921081106004+63083+021617FM-12+000999999V0200201N001019999999N0000001N9+01331+99999100841ADDAJ100009199999999GF100991999999999999999999
0029029110999991921081113004+63083+021617FM-12+000999999V0202701N004119999999N0000001N9+01721+99999101061ADDGF101991999999999999999999
0029029110999991921081120004+63083+021617FM-12+000999999V0202501N001019999999N0000001N9+01391+99999101101ADDGF103991999999999999999999
0046029110999991921081206004+63083+021617FM-12+000999999V0201801N002119999999N0000001N9+01061+99999101301ADDAJ100009199999999GF108991999999999999999999
0029029110999991921081213004+63083+021617FM-12+000999999V0202701N001019999999N0000001N9+02001+99999101341ADDGF102991999999999999999999
0029029110999991921081220004+63083+021617FM-12+000999999V0202901N001019999999N0000001N9+01441+99999101231ADDGF106991999999999999999999
0052029110999991921081306004+63083+021617FM-12+000999999V0200501N001019999999N0000001N9+01331+99999101081ADDAJ100009199999999GF108991999999999999999999MW1601
0029029110999991921081313004+63083+021617FM-12+000999999V0200901N001019999999N0000001N9+02111+99999100671ADDGF106991999999999999999999
0029029110999991921081320004+63083+021617FM-12+000999999V0201101N001019999999N0000001N9+01831+99999100431ADDGF108991999999999999999999
0046029110999991921081406004+63083+021617FM-12+000999999V0201101N004119999999N0000001N9+01671+99999100391ADDAJ100009199999999GF100991999999999999999999
0029029110999991921081413004+63083+021617FM-12+000999999V0201401N001019999999N0000001N9+02391+99999100441ADDGF106991999999999999999999
0035029110999991921081420004+63083+021617FM-12+000999999V0201401N001019999999N0000001N9+01941+99999100501ADDGF108991999999999999999999MW1601
0046029110999991921081506004+63083+021617FM-12+000999999V0201101N001019999999N0000001N9+01781+99999100601ADDAJ100009199999999GF103991999999999999999999
0029029110999991921081513004+63083+021617FM-12+000999999V0202901N001019999999N0000001N9+02281+99999100631ADDGF103991999999999999999999
0035029110999991921081520004+63083+021617FM-12+000999999V0202001N005119999999N0000001N9+01441+99999100991ADDGF108991999999999999999999MW1641
0046029110999991921081606004+63083+021617FM-12+000999999V0201401N002119999999N0000001N9+01171+99999101151ADDAJ100009199999999GF108991999999999999999999
0035029110999991921081613004+63083+021617FM-12+000999999V0202701N004119999999N0000001N9+01721+99999101301ADDGF106991999999999999999999MW1621
0029029110999991921081620004+63083+021617FM-12+000999999V0201801N001019999999N0000001N9+01391+99999101321ADDGF106991999999999999999999
0046029110999991921081706004+63083+021617FM-12+000999999V0201401N002119999999N0000001N9+01171+99999101361ADDAJ100009199999999GF106991999999999999999999
0029029110999991921081713004+63083+021617FM-12+000999999V0202301N002119999999N0000001N9+01501+99999101431ADDGF106991999999999999999999
0035029110999991921081720004+63083+021617FM-12+000999999V0202001N004119999999N0000001N9+01331+99999101391ADDGF108991999999999999999999MW1621
0046029110999991921081806004+63083+021617FM-12+000999999V0203201N002119999999N0000001N9+01221+99999101761ADDAJ100009199999999GF106991999999999999999999
0029029110999991921081813004+63083+021617FM-12+000999999V0202701N005119999999N0000001N9+01441+99999102021ADDGF104991999999999999999999
0029029110999991921081820004+63083+021617FM-12+000999999V0202901N001019999999N0000001N9+01281+99999101951ADDGF106991999999999999999999
0046029110999991921081906004+63083+021617FM-12+000999999V0202701N001019999999N0000001N9+01281+99999101981ADDAJ100009199999999GF100991999999999999999999
0029029110999991921081913004+63083+021617FM-12+000999999V0202701N002119999999N0000001N9+01721+99999102061ADDGF100991999999999999999999
0029029110999991921081920004+63083+021617FM-12+000999999V0202301N001019999999N0000001N9+01331+99999101901ADDGF106991999999999999999999
0046029110999991921082006004+63083+021617FM-12+000999999V0202301N004119999999N0000001N9+01331+99999101791ADDAJ100009199999999GF106991999999999999999999
0029029110999991921082013004+63083+021617FM-12+000999999V0202701N002119999999N0000001N9+01831+99999101801ADDGF100991999999999999999999
0029029110999991921082020004+63083+021617FM-12+000999999V0202301N002119999999N0000001N9+01501+99999101641ADDGF106991999999999999999999
0046029110999991921082106004+63083+021617FM-12+000999999V0202001N002119999999N0000001N9+01561+99999101521ADDAJ100009199999999GF103991999999999999999999
0029029110999991921082113004+63083+021617FM-12+000999999V0202301N004119999999N0000001N9+02171+99999101501ADDGF101991999999999999999999
0029029110999991921082120004+63083+021617FM-12+000999999V0202001N001019999999N0000001N9+01611+99999101481ADDGF101991999999999999999999
0046029110999991921082206004+63083+021617FM-12+000999999V0200501N002119999999N0000001N9+01391+99999101641ADDAJ100009199999999GF106991999999999999999999
0029029110999991921082213004+63083+021617FM-12+000999999V0203601N002119999999N0000001N9+01721+99999101991ADDGF100991999999999999999999
0029029110999991921082220004+63083+021617FM-12+000999999V0200201N001019999999N0000001N9+01061+99999102111ADDGF104991999999999999999999
0046029110999991921082306004+63083+021617FM-12+000999999V0200501N001019999999N0000001N9+01001+99999102341ADDAJ100009199999999GF106991999999999999999999
0029029110999991921082313004+63083+021617FM-12+000999999V0200901N001019999999N0000001N9+01611+99999102391ADDGF101991999999999999999999
0029029110999991921082320004+63083+021617FM-12+000999999V0200201N001019999999N0000001N9+01111+99999102201ADDGF100991999999999999999999
0046029110999991921082406004+63083+021617FM-12+000999999V0201601N002119999999N0000001N9+01111+99999102021ADDAJ100009199999999GF102991999999999999999999
0029029110999991921082413004+63083+021617FM-12+000999999V0201801N005119999999N0000001N9+02171+99999101801ADDGF100991999999999999999999
0029029110999991921082420004+63083+021617FM-12+000999999V0201801N006219999999N0000001N9+01561+99999101461ADDGF102991999999999999999999
0046029110999991921082506004+63083+021617FM-12+000999999V0201801N006219999999N0000001N9+01501+99999101231ADDAJ100009199999999GF106991999999999999999999
0029029110999991921082513004+63083+021617FM-12+000999999V0202001N010819999999N0000001N9+01941+99999100991ADDGF102991999999999999999999
0029029110999991921082520004+63083+021617FM-12+000999999V0201601N005119999999N0000001N9+01561+99999100831ADDGF106991999999999999999999
0046029110999991921082606004+63083+021617FM-12+000999999V0201601N002119999999N0000001N9+01221+99999100541ADDAJ100009199999999GF100991999999999999999999
0029029110999991921082613004+63083+021617FM-12+000999999V0202001N005119999999N0000001N9+02111+99999100321ADDGF105991999999999999999999
0029029110999991921082620004+63083+021617FM-12+000999999V0201401N005119999999N0000001N9+01611+99999100151ADDGF106991999999999999999999
0052029110999991921082706004+63083+021617FM-12+000999999V0201101N002119999999N0000001N9+01171+99999100021ADDAJ100009199999999GF108991999999999999999999MW1621
0029029110999991921082713004+63083+021617FM-12+000999999V0202301N004119999999N0000001N9+01281+99999100301ADDGF108991999999999999999999
0029029110999991921082720004+63083+021617FM-12+000999999V0201101N002119999999N0000001N9+00941+99999100121ADDGF108991999999999999999999
0046029110999991921082806004+63083+021617FM-12+000999999V0202301N005119999999N0000001N9+01171+99999099561ADDAJ100009199999999GF106991999999999999999999
0029029110999991921082813004+63083+021617FM-12+000999999V0202301N008219999999N0000001N9+01391+99999099901ADDGF102991999999999999999999
0029029110999991921082820004+63083+021617FM-12+000999999V0202501N008719999999N0000001N9+01281+99999100061ADDGF102991999999999999999999
0046029110999991921082906004+63083+021617FM-12+000999999V0202901N006219999999N0000001N9+01061+99999100721ADDAJ100009199999999GF100991999999999999999999
0029029110999991921082913004+63083+021617FM-12+000999999V0202701N007219999999N0000001N9+01281+99999101401ADDGF101991999999999999999999
