0076012620999991929010106004+64800+010550FM-12+003799999V0203601N006719999999N0200001N9+00001+99999101111ADDAY111999GF107991999061004501001001MD1310341+9999MW1161EQDQ01+000022SCOTLC
0068012620999991929010206004+64800+010550FM-12+003799999V0202301N00931004501CN0040001N9+00221+99999102371ADDAA199000391AY161999GF108991081061004501999999MD1810061+9999MW1511
0051012620999991929010306004+64800+010550FM-12+003799999V0202701N00101030001CN0100001N9+00611+99999102631ADDAY121999GF108991041051000751021001MD1810061+9999
0062012620999991929010406004+64800+010550FM-12+003799999V0203201N00261030001CN0200001N9+00501+99999102561ADDAA199005091AY161999GF108991041051000751021001MD1110201+9999
0068012620999991929010506004+64800+010550FM-12+003799999V0202501N00461030001CN0100001N9+00501+99999103401ADDAA199001091AY181999GF108991021061002501021001MD1310061+9999MW1161
0062012620999991929010606004+64800+010550FM-12+003799999V0201601N00261030001CN0200001N9+00281+99999103601ADDAA199001091AY121999GF108991021051001501021001MD1810061+9999
0051012620999991929010806004+64800+010550FM-12+003799999V0201801N00461220001CN0500001N9+00221+99999104291ADDAY101999GF101991999999022501999999MD1110061+9999
0076012620999991929010906004+64800+010550FM-12+003799999V0202501N006719999999N0200001N9+00391+99999104261ADDAY121999GF108991999061004501001001MD1810141+9999MW1161EQDQ01+000012SCOTLC
0088012620999991929011006004+64800+010550FM-12+003799999V0202901N00461220001CN0500001N9+00501+99999104191ADDAY111999GF104991999051002501001001EQDQ01+000012SCOTLCQ02+000032APCTENQ03+000002APC3  
0068012620999991929011106004+64800+010550FM-12+003799999V0203201N00671030001CN0100001N9+00611+99999103711ADDAA199001091AY161999GF108991021061002501021001MD1610201+9999MW1161
0068012620999991929011206004+64800+010550FM-12+003799999V0202901N00671001501CN0040001N9+00611+99999102841ADDAA199000591AY161999GF108991081061001501999999MD1810261+9999MW1531
0076012620999991929011306004+64800+010550FM-12+003799999V0203601N019019999999N0500001N9+00281+99999100821ADDAY171999GF108991999051000751001001MD1310401+9999MW1161EQDQ01+000022SCOTLC
0068012620999991929011406004+64800+010550FM-12+003799999V0203601N00931002401CN0100001N9-00111+99999102021ADDAA199000391AY181999GF107991061061002501021001MD1810261+9999MW1161
0097012620999991929011506004+64800+010550FM-12+003799999V0200901N00671220001CN0500001N9-00501+99999100591ADDAA199000591AY171999GF104991999061001501001001MD1310602+9999EQDQ01+000012SCOTLCQ02+000602APC3  
0089012620999991929011606004+64800+010550FM-12+003799999V0201101N00461220001CN0500001N9-00721+99999100901ADDAA199000391AY171999GF102991021061004501001001MW1161EQDQ01+000042APCTENQ02+000202APC3  
0057012620999991929011706004+64800+010550FM-12+003799999V0201801N00671030001CN0500001N9-00501+99999100631ADDAY121999GF108991021061008001021001MD1810141+9999MW1161
0089012620999991929011806004+64800+010550FM-12+003799999V0201401N01231030001CN0100001N9-00611+99999098871ADDAA199000691AY171999GF108991041061002501021001MW1161EQDQ01+000042APCTENQ02+000142APC3  
0070012620999991929011906004+64800+010550FM-12+003799999V0201601N00261220001CN0500001N9-00501+99999101581ADDAY101999GF102991999061008001001001MD1310341+9999EQDQ01+000012SCOTLC
0051012620999991929012006004+64800+010550FM-12+003799999V0201601N00671030001CN0200001N9-00221+99999101631ADDAY121999GF108991021061008001021001MD1810261+9999
0068012620999991929012106004+64800+010550FM-12+003799999V0202701N00931002401CN0040001N9+00391+99999101131ADDAA199003091AY161999GF108991081061002501999999MD1810141+9999MW1631
0068012620999991929012206004+64800+010550FM-12+003799999V0202501N00261002401CN0100001N9+00221+99999102371ADDAA199002091AY161999GF108991081061002501999999MD1310061+9999MW1621
0068012620999991929012306004+64800+010550FM-12+003799999V0200701N00461030001CN0200001N9+00111+99999102631ADDAA199002091AY141999GF108991021061002501021001MD1310061+9999MW1681
0051012620999991929012406004+64800+010550FM-12+003799999V0201401N00461220001CN0500001N9-00391+99999102871ADDAY111999GF102991011051002501021001MD1810201+9999
0062012620999991929012506004+64800+010550FM-12+003799999V0201401N00461220001CN0500001N9-00611+99999102201ADDAA199002091AY111999GF101991999999012501999999MD1310201+9999
0051012620999991929012606004+64800+010550FM-12+003799999V0201401N00461220001CN0500001N9-00721+99999102301ADDAY111999GF104991001001999999021021MD1610141+9999
0072012620999991929012706004+64800+010550FM-12+003799999V0201401N004619999999N0500001N9-00501+99999102021ADDAY111999GF107991999999017501999999EQDQ01+000082APCTENQ02+000002APC3  
0051012620999991929012906004+64800+010550FM-12+003799999V0201401N00931030001CN0500001N9+00001+99999102601ADDAY121999GF108991011061012501021001MD1310141+9999
0051012620999991929013006004+64800+010550FM-12+003799999V0201601N00671220001CN0500001N9-00111+99999102751ADDAY101999GF101991999999004501999999MD1990141+9999
0057012620999991929013106004+64800+010550FM-12+003799999V0201601N00461030001CN0200001N9+00111+99999102021ADDAY121999GF108991021061002501021001MD1810061+9999MW1161
0089012620999991929020106004+64800+010550FM-12+003799999V0201601N00261000601CN0040001N9+00281+99999102031ADDAA199003091AY161999GF108991081061000751999999MW1631EQDQ01+000042APCTENQ02+000062APC3  
0068012620999991929020306004+64800+010550FM-12+003799999V0201401N00461030001CN0200001N9+00281+99999102031ADDAA199000691AY161999GF108991011061004501021001MD1990061+9999MW1161
0057012620999991929020406004+64800+010550FM-12+003799999V0201801N00461030001CN0200001N9+00281+99999101981ADDAY121999GF108991021061002501021001MD1810141+9999MW1161
0051012620999991929020506004+64800+010550FM-12+003799999V0201401N00461220001CN0500001N9-00221+99999102081ADDAY101999GF101991999999004501999999MD1310061+9999
0068012620999991929020606004+64800+010550FM-12+003799999V0201801N00461030001CN0100001N9+00111+99999102391ADDAA199001091AY161999GF108991041061004501021001MD1410001+9999MW1601
0068012620999991929020706004+64800+010550FM-12+003799999V0202501N00671002401CN0100001N9+00391+99999102501ADDAA199000691AY161999GF108991081061002501999999MD1610061+9999MW1511
0051012620999991929020806004+64800+010550FM-12+003799999V0201801N00461220001CN0500001N9+00221+99999102301ADDAY111999GF102991011051000251001021MD1810141+9999
0068012620999991929020906004+64800+010550FM-12+003799999V0201801N00461002401CN0040001N9+00111+99999101681ADDAA199000691AY161999GF108991081061002501999999MD1610061+9999MW1511
0068012620999991929021006004+64800+010550FM-12+003799999V0201601N00931030001CN0200001N9+00001+99999101761ADDAA199000691AY171999GF108991021061004501021001MD1510001+9999MW1161
0068012620999991929021106004+64800+010550FM-12+003799999V0201801N00461004501CN0010001N9-00221+99999102821ADDAA199000691AY171999GF108991081061004501999999MD1310201+9999MW1711
0051012620999991929021206004+64800+010550FM-12+003799999V0201401N00261220001CN0500001N9-00611+99999103321ADDAY101999GF101991011061004501001001MD1310061+9999
0088012620999991929021306004+64800+010550FM-12+003799999V0201401N00671220001CN0500001N9-00501+99999103321ADDAY101999GF101991999001999999021001EQDQ01+000002SCOTLCQ02+000022APCTENQ03+000002APC3  
0051012620999991929021406004+64800+010550FM-12+003799999V0201401N00931220001CN0500001N9-00391+99999103271ADDAY101999GF102991999999022501999999MD1210141+9999
0070012620999991929021506004+64800+010550FM-12+003799999V0201401N01231220001CN0500001N9-00501+99999103011ADDAY101999GF101991999001999999021001MD1710141+9999EQDQ01+000002SCOTLC
0070012620999991929021606004+64800+010550FM-12+003799999V0201401N01231220001CN0500001N9-00391+99999103061ADDAY101999GF101991999001999999021001MD1710141+9999EQDQ01+000002SCOTLC
0051012620999991929021706004+64800+010550FM-12+003799999V0201401N00671220001CN0500001N9-00221+99999103431ADDAY101999GF100991001001999999001001MD1210061+9999
0072012620999991929021806004+64800+010550FM-12+003799999V0201601N00261220001CN0500001N9-00281+99999103601ADDAY101999GF101991011061004501001001EQDQ01+000032APCTENQ02+000002APC3  
0076012620999991929021906004+64800+010550FM-12+003799999V0201401N00261000151CN0000001N9-00221+99999103681ADDAY161999GF106991999051000251999999MD1510141+9999MW1161EQDQ01+000082SCOTLC
0051012620999991929022006004+64800+010550FM-12+003799999V0201601N00261030001CN0200001N9-00221+99999103571ADDAY121999GF108991021051004501021001MD1810141+9999
0068012620999991929022106004+64800+010550FM-12+003799999V0202501N00931002401CN0020001N9+00111+99999102501ADDAA199000391AY171999GF108991081061002501999999MD1810201+9999MW1681
0068012620999991929022206004+64800+010550FM-12+003799999V0200901N00261000151CN0002001N9+00221+99999101271ADDAA199002091AY141999GF108991081051000251999999MD1810061+9999MW1431
0051012620999991929022306004+64800+010550FM-12+003799999V0201101N00671220001CN0500001N9-00611+99999101981ADDAY101999GF101991011011002501001001MD1310141+9999
0070012620999991929022406004+64800+010550FM-12+003799999V0201101N01231220001CN0500001N9+99999+99999102521ADDAY101999GF101991999999022501999999MD1410001+9999EQDQ01 +03783ATOT  
0088012620999991929022506004+64800+010550FM-12+003799999V0201401N00671220001CN0500001N9-00721+99999102671ADDAY101999GF101991999001999999021001EQDQ01+000002SCOTLCQ02+000032APCTENQ03+000002APC3  
0070012620999991929022606004+64800+010550FM-12+003799999V0201601N002619999999N0500001N9-00611+99999102531ADDAY111999GF107991999061008001001001MD1810061+9999EQDQ01+000012SCOTLC
0068012620999991929022706004+64800+010550FM-12+003799999V0203401N00671030001CN0100001N9+00221+99999102441ADDAA199000591AY171999GF108991021061002501021001MD1810061+9999MW1161
0068012620999991929022806004+64800+010550FM-12+003799999V0202701N00261004501CN0100001N9+00221+99999103001ADDAA199000391AY171999GF108991081061004501999999MD1310061+9999MW1681
