0035029350999991923010106004+62233+025733FM-12+009499999V0209991C000019999999N0000001N9+00001+99999098601ADDGF108991999999999999999999MW1721
0035029350999991923010113004+62233+025733FM-12+009499999V0209991C000019999999N0000001N9+00001+99999098201ADDGF108991999999999999999999MW1721
0035029350999991923010120004+62233+025733FM-12+009499999V0209991C000019999999N0000001N9+00061+99999098441ADDGF108991999999999999999999MW1721
0029029350999991923010206004+62233+025733FM-12+009499999V0209991C000019999999N0000001N9+00061+99999099241ADDGF108991999999999999999999
0029029350999991923010213004+62233+025733FM-12+009499999V0202701N003119999999N0000001N9+00061+99999099661ADDGF108991999999999999999999
0035029350999991923010220004+62233+025733FM-12+009499999V0209991C000019999999N0000001N9+00001+99999099921ADDGF108991999999999999999999MW1621
0029029350999991923010306004+62233+025733FM-12+009499999V0209991C000019999999N0000001N9-00061+99999100181ADDGF108991999999999999999999
0029029350999991923010313004+62233+025733FM-12+009499999V0201801N005119999999N0000001N9+00061+99999100261ADDGF108991999999999999999999
0035029350999991923010320004+62233+025733FM-12+009499999V0201801N005119999999N0000001N9+00001+99999100201ADDGF108991999999999999999999MW1721
0029029350999991923010406004+62233+025733FM-12+009499999V0201101N005119999999N0000001N9-00061+99999100301ADDGF108991999999999999999999
0035029350999991923010413004+62233+025733FM-12+009499999V0201801N003119999999N0000001N9+00001+99999100391ADDGF108991999999999999999999MW1721
0035029350999991923010420004+62233+025733FM-12+009499999V0201801N003119999999N0000001N9+00061+99999100391ADDGF108991999999999999999999MW1721
0029029350999991923010506004+62233+025733FM-12+009499999V0202301N001019999999N0000001N9+00111+99999100481ADDGF108991999999999999999999
0029029350999991923010513004+62233+025733FM-12+009499999V0209991C000019999999N0000001N9+00111+99999100671ADDGF108991999999999999999999
0029029350999991923010520004+62233+025733FM-12+009499999V0209991C000019999999N0000001N9+00111+99999100791ADDGF108991999999999999999999
0029029350999991923010606004+62233+025733FM-12+009499999V0209991C000019999999N0000001N9+00001+99999101041ADDGF108991999999999999999999
0029029350999991923010613004+62233+025733FM-12+009499999V0209991C000019999999N0000001N9+00061+99999101111ADDGF108991999999999999999999
0029029350999991923010620004+62233+025733FM-12+009499999V0209991C000019999999N0000001N9+00061+99999101141ADDGF108991999999999999999999
0029029350999991923010706004+62233+025733FM-12+009499999V0201801N001019999999N0000001N9-00171+99999100961ADDGF108991999999999999999999
0035029350999991923010713004+62233+025733FM-12+009499999V0209991C000019999999N0000001N9-00221+99999100881ADDGF108991999999999999999999MW1721
0029029350999991923010720004+62233+025733FM-12+009499999V0201801N001019999999N0000001N9-00331+99999100751ADDGF108991999999999999999999
0029029350999991923010806004+62233+025733FM-12+009499999V0201801N003119999999N0000001N9-00441+99999100401ADDGF108991999999999999999999
0035029350999991923010813004+62233+025733FM-12+009499999V0201401N005119999999N0000001N9-00331+99999100141ADDGF108991999999999999999999MW1721
0029029350999991923010820004+62233+025733FM-12+009499999V0201801N003119999999N0000001N9-00171+99999099761ADDGF108991999999999999999999
0035029350999991923010906004+62233+025733FM-12+009499999V0201801N008719999999N0000001N9-00061+99999098821ADDGF108991999999999999999999MW1721
0029029350999991923010913004+62233+025733FM-12+009499999V0201801N003119999999N0000001N9+00061+99999098661ADDGF108991999999999999999999
0029029350999991923010920004+62233+025733FM-12+009499999V0202501N001019999999N0000001N9+00111+99999099061ADDGF108991999999999999999999
0029029350999991923011006004+62233+025733FM-12+009499999V0201801N007219999999N0000001N9+00001+99999099231ADDGF108991999999999999999999
0035029350999991923011013004+62233+025733FM-12+009499999V0209991C000019999999N0000001N9+00061+99999099241ADDGF108991999999999999999999MW1721
0029029350999991923011020004+62233+025733FM-12+009499999V0201801N001019999999N0000001N9-00061+99999099101ADDGF108991999999999999999999
0029029350999991923011106004+62233+025733FM-12+009499999V0201801N003119999999N0000001N9+00001+99999099031ADDGF108991999999999999999999
0029029350999991923011113004+62233+025733FM-12+009499999V0209991C000019999999N0000001N9+00001+99999099161ADDGF106991999999999999999999
0029029350999991923011120004+62233+025733FM-12+009499999V0209991C000019999999N0000001N9+00061+99999099241ADDGF108991999999999999999999
0029029350999991923011206004+62233+025733FM-12+009499999V0201801N003119999999N0000001N9+00061+99999099081ADDGF108991999999999999999999
0035029350999991923011213004+62233+025733FM-12+009499999V0201801N003119999999N0000001N9+00061+99999099101ADDGF108991999999999999999999MW1721
0035029350999991923011220004+62233+025733FM-12+009499999V0201601N001019999999N0000001N9+00061+99999099101ADDGF108991999999999999999999MW1721
0035029350999991923011306004+62233+025733FM-12+009499999V0201801N001019999999N0000001N9+00001+99999099241ADDGF108991999999999999999999MW1721
0035029350999991923011313004+62233+025733FM-12+009499999V0203601N003119999999N0000001N9-00221+99999099581ADDGF108991999999999999999999MW1721
0029029350999991923011320004+62233+025733FM-12+009499999V0209991C000019999999N0000001N9-00501+99999099981ADDGF100991999999999999999999
0029029350999991923011406004+62233+025733FM-12+009499999V0203201N001019999999N0000001N9-00561+99999100161ADDGF108991999999999999999999
0029029350999991923011413004+62233+025733FM-12+009499999V0209991C000019999999N0000001N9-00611+99999099861ADDGF108991999999999999999999
0029029350999991923011420004+62233+025733FM-12+009499999V0201801N003119999999N0000001N9-00331+99999099061ADDGF108991999999999999999999
0035029350999991923011506004+62233+025733FM-12+009499999V0201801N008719999999N0000001N9-00221+99999098441ADDGF108991999999999999999999MW1721
0035029350999991923011513004+62233+025733FM-12+009499999V0201801N005119999999N0000001N9-00221+99999098441ADDGF108991999999999999999999MW1721
0029029350999991923011520004+62233+025733FM-12+009499999V0209991C000019999999N0000001N9-00331+99999098761ADDGF108991999999999999999999
0029029350999991923011606004+62233+025733FM-12+009499999V0201801N003119999999N0000001N9-00561+99999099881ADDGF108991999999999999999999
0035029350999991923011613004+62233+025733FM-12+009499999V0209991C000019999999N0000001N9-00561+99999100831ADDGF108991999999999999999999MW1721
0035029350999991923011620004+62233+025733FM-12+009499999V0209991C000019999999N0000001N9-00441+99999101431ADDGF108991999999999999999999MW1721
0029029350999991923011706004+62233+025733FM-12+009499999V0200901N001019999999N0000001N9-00721+99999101861ADDGF108991999999999999999999
0029029350999991923011713004+62233+025733FM-12+009499999V0201401N001019999999N0000001N9-00781+99999102071ADDGF108991999999999999999999
0029029350999991923011720004+62233+025733FM-12+009499999V0209991C000019999999N0000001N9-00941+99999102241ADDGF108991999999999999999999
0029029350999991923011806004+62233+025733FM-12+009499999V0201401N001019999999N0000001N9-01061+99999102221ADDGF108991999999999999999999
0035029350999991923011813004+62233+025733FM-12+009499999V0201401N001019999999N0000001N9-00941+99999102181ADDGF108991999999999999999999MW1721
0035029350999991923011820004+62233+025733FM-12+009499999V0209991C000019999999N0000001N9-01001+99999102031ADDGF108991999999999999999999MW1721
0029029350999991923011906004+62233+025733FM-12+009499999V0201101N003119999999N0000001N9-00831+99999101381ADDGF108991999999999999999999
0035029350999991923011913004+62233+025733FM-12+009499999V0200901N003119999999N0000001N9-00781+99999100741ADDGF108991999999999999999999MW1721
0029029350999991923011920004+62233+025733FM-12+009499999V0201601N001019999999N0000001N9-00671+99999099941ADDGF108991999999999999999999
0035029350999991923012006004+62233+025733FM-12+009499999V0201101N011819999999N0000001N9-00501+99999098421ADDGF108991999999999999999999MW1721
0035029350999991923012013004+62233+025733FM-12+009499999V0201101N008719999999N0000001N9-00391+99999097991ADDGF108991999999999999999999MW1721
0029029350999991923012020004+62233+025733FM-12+009499999V0201401N008719999999N0000001N9-00281+99999098111ADDGF108991999999999999999999
0035029350999991923012106004+62233+025733FM-12+009499999V0201801N008719999999N0000001N9-00171+99999098391ADDGF108991999999999999999999MW1721
0029029350999991923012113004+62233+025733FM-12+009499999V0202701N001019999999N0000001N9-00061+99999098821ADDGF107991999999999999999999
0029029350999991923012120004+62233+025733FM-12+009499999V0202701N003119999999N0000001N9-00221+99999098911ADDGF106991999999999999999999
0035029350999991923012206004+62233+025733FM-12+009499999V0201801N011819999999N0000001N9-00171+99999097471ADDGF108991999999999999999999MW1721
0029029350999991923012213004+62233+025733FM-12+009499999V0202701N007219999999N0000001N9-00061+99999097311ADDGF106991999999999999999999
0029029350999991923012220004+62233+025733FM-12+009499999V0202701N003119999999N0000001N9-00611+99999097381ADDGF100991999999999999999999
0029029350999991923012306004+62233+025733FM-12+009499999V0202701N001019999999N0000001N9-00441+99999097721ADDGF108991999999999999999999
0029029350999991923012313004+62233+025733FM-12+009499999V0202901N001019999999N0000001N9-00441+99999098221ADDGF108991999999999999999999
0029029350999991923012320004+62233+025733FM-12+009499999V0209991C000019999999N0000001N9-00441+99999098621ADDGF108991999999999999999999
0029029350999991923012406004+62233+025733FM-12+009499999V0209991C000019999999N0000001N9-01391+99999098181ADDGF100991999999999999999999
0035029350999991923012413004+62233+025733FM-12+009499999V0201801N001019999999N0000001N9-00671+99999097321ADDGF108991999999999999999999MW1721
0029029350999991923012420004+62233+025733FM-12+009499999V0209991C000019999999N0000001N9-00331+99999097261ADDGF108991999999999999999999
0029029350999991923012506004+62233+025733FM-12+009499999V0202701N005119999999N0000001N9-00221+99999097831ADDGF108991999999999999999999
0029029350999991923012513004+62233+025733FM-12+009499999V0202901N005119999999N0000001N9-00281+99999098461ADDGF103991999999999999999999
0035029350999991923012520004+62233+025733FM-12+009499999V0202901N005119999999N0000001N9-00171+99999097831ADDGF108991999999999999999999MW1721
0029029350999991923012606004+62233+025733FM-12+009499999V0203201N008719999999N0000001N9+00281+99999097381ADDGF106991999999999999999999
0029029350999991923012613004+62233+025733FM-12+009499999V0202701N008719999999N0000001N9-00111+99999097481ADDGF104991999999999999999999
0029029350999991923012620004+62233+025733FM-12+009499999V0202701N011819999999N0000001N9-00221+99999097511ADDGF103991999999999999999999
0029029350999991923012706004+62233+025733FM-12+009499999V0202701N011819999999N0000001N9-00501+99999097641ADDGF102991999999999999999999
0029029350999991923012713004+62233+025733FM-12+009499999V0209991C000019999999N0000001N9-00501+99999097161ADDGF108991999999999999999999
0035029350999991923012720004+62233+025733FM-12+009499999V0202701N001019999999N0000001N9-00671+99999096591ADDGF108991999999999999999999MW1721
0029029350999991923012806004+62233+025733FM-12+009499999V0209991C000019999999N0000001N9-00831+99999097231ADDGF100991999999999999999999
0029029350999991923012813004+62233+025733FM-12+009499999V0202701N007219999999N0000001N9-00721+99999097701ADDGF100991999999999999999999
0029029350999991923012820004+62233+025733FM-12+009499999V0209991C000019999999N0000001N9-01061+99999097761ADDGF101991999999999999999999
0029029350999991923012906004+62233+025733FM-12+009499999V0202701N007219999999N0000001N9-01061+99999097601ADDGF100991999999999999999999
0029029350999991923012913004+62233+025733FM-12+009499999V0202701N005119999999N0000001N9-00831+99999097591ADDGF102991999999999999999999
0029029350999991923012920004+62233+025733FM-12+009499999V0209991C000019999999N0000001N9-00941+99999097721ADDGF100991999999999999999999
0029029350999991923013006004+62233+025733FM-12+009499999V0203201N003119999999N0000001N9-01111+99999097961ADDGF103991999999999999999999
0035029350999991923013013004+62233+025733FM-12+009499999V0209991C000019999999N0000001N9-00831+99999098281ADDGF108991999999999999999999MW1721
0029029350999991923013020004+62233+025733FM-12+009499999V0203601N001019999999N0000001N9-00611+99999098621ADDGF108991999999999999999999
0029029350999991923013106004+62233+025733FM-12+009499999V0203601N001019999999N0000001N9-01561+99999098781ADDGF100991999999999999999999
0035029350999991923013113004+62233+025733FM-12+009499999V0209991C000019999999N0000001N9-01061+99999099181ADDGF108991999999999999999999MW1721
0029029350999991923013120004+62233+025733FM-12+009499999V0209991C000019999999N0000001N9-01441+99999099461ADDGF100991999999999999999999
0029029350999991923020106004+62233+025733FM-12+009499999V0203601N001019999999N0000001N9-01611+99999099661ADDGF104991999999999999999999
0029029350999991923020113004+62233+025733FM-12+009499999V0203601N001019999999N0000001N9-01721+99999099641ADDGF106991999999999999999999
0029029350999991923020120004+62233+025733FM-12+009499999V0209991C000019999999N0000001N9-01781+99999099391ADDGF100991999999999999999999
0035029350999991923020206004+62233+025733FM-12+009499999V0201601N007219999999N0000001N9-00941+99999098231ADDGF108991999999999999999999MW1721
0035029350999991923020213004+62233+025733FM-12+009499999V0201601N003119999999N0000001N9-00781+99999097421ADDGF108991999999999999999999MW1721
0035029350999991923020220004+62233+025733FM-12+009499999V0209991C000019999999N0000001N9-00781+99999097221ADDGF108991999999999999999999MW1721
0029029350999991923020306004+62233+025733FM-12+009499999V0209991C000019999999N0000001N9-01061+99999097751ADDGF106991999999999999999999
0035029350999991923020313004+62233+025733FM-12+009499999V0203601N001019999999N0000001N9-01061+99999098341ADDGF106991999999999999999999MW1701
0029029350999991923020320004+62233+025733FM-12+009499999V0209991C000019999999N0000001N9-01501+99999098801ADDGF100991999999999999999999
0029029350999991923020406004+62233+025733FM-12+009499999V0209991C000019999999N0000001N9-02281+99999099501ADDGF100991999999999999999999
0029029350999991923020413004+62233+025733FM-12+009499999V0209991C000019999999N0000001N9-01941+99999099911ADDGF100991999999999999999999
0029029350999991923020420004+62233+025733FM-12+009499999V0209991C000019999999N0000001N9-02501+99999100191ADDGF100991999999999999999999
0029029350999991923020506004+62233+025733FM-12+009499999V0209991C000019999999N0000001N9-02111+99999100431ADDGF102991999999999999999999
0035029350999991923020513004+62233+025733FM-12+009499999V0201801N005119999999N0000001N9-01391+99999100551ADDGF108991999999999999999999MW1721
0029029350999991923020520004+62233+025733FM-12+009499999V0201801N005119999999N0000001N9-01331+99999100501ADDGF108991999999999999999999
0029029350999991923020606004+62233+025733FM-12+009499999V0201401N005119999999N0000001N9-01061+99999100271ADDGF108991999999999999999999
0035029350999991923020613004+62233+025733FM-12+009499999V0202001N001019999999N0000001N9-00221+99999100221ADDGF108991999999999999999999MW1701
0029029350999991923020620004+62233+025733FM-12+009499999V0201801N001019999999N0000001N9-00171+99999100301ADDGF108991999999999999999999
0029029350999991923020706004+62233+025733FM-12+009499999V0202701N001019999999N0000001N9-00111+99999100481ADDGF108991999999999999999999
0029029350999991923020713004+62233+025733FM-12+009499999V0202701N005119999999N0000001N9-00061+99999100761ADDGF106991999999999999999999
0029029350999991923020720004+62233+025733FM-12+009499999V0202501N001019999999N0000001N9-00221+99999100991ADDGF105991999999999999999999
0029029350999991923020806004+62233+025733FM-12+009499999V0209991C000019999999N0000001N9-00281+99999101381ADDGF108991999999999999999999
0029029350999991923020813004+62233+025733FM-12+009499999V0209991C000019999999N0000001N9-00171+99999101501ADDGF108991999999999999999999
0029029350999991923020820004+62233+025733FM-12+009499999V0209991C000019999999N0000001N9-00281+99999101601ADDGF108991999999999999999999
0029029350999991923020906004+62233+025733FM-12+009499999V0209991C000019999999N0000001N9-00331+99999101901ADDGF108991999999999999999999
0029029350999991923020913004+62233+025733FM-12+009499999V0209991C000019999999N0000001N9-00331+99999102261ADDGF108991999999999999999999
0029029350999991923020920004+62233+025733FM-12+009499999V0201101N003119999999N0000001N9-00671+99999102701ADDGF108991999999999999999999
0029029350999991923021006004+62233+025733FM-12+009499999V0209991C000019999999N0000001N9-01171+99999103391ADDGF103991999999999999999999
0029029350999991923021013004+62233+025733FM-12+009499999V0209991C000019999999N0000001N9-00941+99999103591ADDGF100991999999999999999999
0029029350999991923021020004+62233+025733FM-12+009499999V0209991C000019999999N0000001N9-01671+99999103541ADDGF100991999999999999999999
0029029350999991923021106004+62233+025733FM-12+009499999V0209991C000019999999N0000001N9-01441+99999102831ADDGF108991999999999999999999
0035029350999991923021113004+62233+025733FM-12+009499999V0200201N001019999999N0000001N9-01001+99999102781ADDGF108991999999999999999999MW1721
0029029350999991923021120004+62233+025733FM-12+009499999V0201401N001019999999N0000001N9-01061+99999103041ADDGF108991999999999999999999
0029029350999991923021206004+62233+025733FM-12+009499999V0201801N001019999999N0000001N9-01441+99999103541ADDGF108991999999999999999999
0029029350999991923021213004+62233+025733FM-12+009499999V0209991C000019999999N0000001N9-01171+99999103671ADDGF100991999999999999999999
0029029350999991923021220004+62233+025733FM-12+009499999V0209991C000019999999N0000001N9-02061+99999103581ADDGF100991999999999999999999
0029029350999991923021306004+62233+025733FM-12+009499999V0209991C000019999999N0000001N9-02671+99999103361ADDGF108991999999999999999999
0029029350999991923021313004+62233+025733FM-12+009499999V0201801N001019999999N0000001N9-01831+99999103111ADDGF100991999999999999999999
0029029350999991923021320004+62233+025733FM-12+009499999V0209991C000019999999N0000001N9-02221+99999102831ADDGF100991999999999999999999
0029029350999991923021406004+62233+025733FM-12+009499999V0209991C000019999999N0000001N9-02721+99999102281ADDGF106991999999999999999999
0029029350999991923021413004+62233+025733FM-12+009499999V0201801N001019999999N0000001N9-01611+99999102061ADDGF103991999999999999999999
0029029350999991923021420004+62233+025733FM-12+009499999V0203601N001019999999N0000001N9-01941+99999101861ADDGF100991999999999999999999
0029029350999991923021506004+62233+025733FM-12+009499999V0201801N001019999999N0000001N9-02281+99999101581ADDGF108991999999999999999999
0029029350999991923021513004+62233+025733FM-12+009499999V0209991C000019999999N0000001N9-01721+99999101401ADDGF100991999999999999999999
0029029350999991923021520004+62233+025733FM-12+009499999V0209991C000019999999N0000001N9-02061+99999101281ADDGF100991999999999999999999
0029029350999991923021606004+62233+025733FM-12+009499999V0209991C000019999999N0000001N9-01831+99999101151ADDGF108991999999999999999999
0029029350999991923021613004+62233+025733FM-12+009499999V0201801N001019999999N0000001N9-01781+99999101041ADDGF108991999999999999999999
0029029350999991923021620004+62233+025733FM-12+009499999V0201401N002119999999N0000001N9-01831+99999100991ADDGF101991999999999999999999
0029029350999991923021706004+62233+025733FM-12+009499999V0209991C000019999999N0000001N9-01781+99999100941ADDGF108991999999999999999999
0029029350999991923021713004+62233+025733FM-12+009499999V0209991C000019999999N0000001N9-01671+99999100901ADDGF108991999999999999999999
0029029350999991923021720004+62233+025733FM-12+009499999V0209991C000019999999N0000001N9-01721+99999100831ADDGF108991999999999999999999
0029029350999991923021806004+62233+025733FM-12+009499999V0209991C000019999999N0000001N9-01781+99999100541ADDGF108991999999999999999999
0029029350999991923021813004+62233+025733FM-12+009499999V0201801N001019999999N0000001N9-01441+99999100351ADDGF108991999999999999999999
0029029350999991923021820004+62233+025733FM-12+009499999V0209991C000019999999N0000001N9-01611+99999100221ADDGF100991999999999999999999
0029029350999991923021906004+62233+025733FM-12+009499999V0209991C000019999999N0000001N9-01611+99999999999ADDGF108991999999999999999999
0035029350999991923021913004+62233+025733FM-12+009499999V0209991C000019999999N0000001N9-01331+99999099911ADDGF108991999999999999999999MW1721
0029029350999991923021920004+62233+025733FM-12+009499999V0209991C000019999999N0000001N9-01611+99999099791ADDGF108991999999999999999999
0029029350999991923022006004+62233+025733FM-12+009499999V0209991C000019999999N0000001N9-02001+99999099601ADDGF104991999999999999999999
0029029350999991923022013004+62233+025733FM-12+009499999V0209991C000019999999N0000001N9-01331+99999099581ADDGF100991999999999999999999
0029029350999991923022020004+62233+025733FM-12+009499999V0201801N001019999999N0000001N9-01941+99999099581ADDGF100991999999999999999999
0029029350999991923022106004+62233+025733FM-12+009499999V0209991C000019999999N0000001N9-02671+99999099551ADDGF102991999999999999999999
0029029350999991923022113004+62233+025733FM-12+009499999V0209991C000019999999N0000001N9-01441+99999099541ADDGF100991999999999999999999
0029029350999991923022120004+62233+025733FM-12+009499999V0209991C000019999999N0000001N9-01891+99999099541ADDGF100991999999999999999999
0029029350999991923022206004+62233+025733FM-12+009499999V0209991C000019999999N0000001N9-01891+99999099561ADDGF108991999999999999999999
0035029350999991923022213004+62233+025733FM-12+009499999V0201801N001019999999N0000001N9-01061+99999099701ADDGF106991999999999999999999MW1721
0029029350999991923022220004+62233+025733FM-12+009499999V0209991C000019999999N0000001N9-01561+99999099921ADDGF100991999999999999999999
0029029350999991923022306004+62233+025733FM-12+009499999V0209991C000019999999N0000001N9-01721+99999100221ADDGF108991999999999999999999
0029029350999991923022313004+62233+025733FM-12+009499999V0209991C000019999999N0000001N9-01221+99999100361ADDGF100991999999999999999999
0029029350999991923022320004+62233+025733FM-12+009499999V0209991C000019999999N0000001N9-01501+99999100441ADDGF108991999999999999999999
0029029350999991923022406004+62233+025733FM-12+009499999V0209991C000019999999N0000001N9-01501+99999100441ADDGF108991999999999999999999
0035029350999991923022413004+62233+025733FM-12+009499999V0201801N001019999999N0000001N9-01171+99999100421ADDGF106991999999999999999999MW1721
0029029350999991923022420004+62233+025733FM-12+009499999V0209991C000019999999N0000001N9-01501+99999100481ADDGF107991999999999999999999
0029029350999991923022506004+62233+025733FM-12+009499999V0201801N001019999999N0000001N9-01941+99999100401ADDGF108991999999999999999999
0029029350999991923022513004+62233+025733FM-12+009499999V0201801N001019999999N0000001N9-01561+99999100381ADDGF100991999999999999999999
0029029350999991923022520004+62233+025733FM-12+009499999V0201801N001019999999N0000001N9-01781+99999100311ADDGF100991999999999999999999
0029029350999991923022606004+62233+025733FM-12+009499999V0209991C000019999999N0000001N9-01721+99999100141ADDGF108991999999999999999999
0029029350999991923022613004+62233+025733FM-12+009499999V0201801N001019999999N0000001N9-01441+99999099981ADDGF108991999999999999999999
0029029350999991923022620004+62233+025733FM-12+009499999V0209991C000019999999N0000001N9-01561+99999099871ADDGF108991999999999999999999
0029029350999991923022706004+62233+025733FM-12+009499999V0209991C000019999999N0000001N9-01611+99999099681ADDGF108991999999999999999999
0029029350999991923022713004+62233+025733FM-12+009499999V0209991C000019999999N0000001N9-01501+99999099641ADDGF100991999999999999999999
0029029350999991923022720004+62233+025733FM-12+009499999V0209991C000019999999N0000001N9-01941+99999099681ADDGF106991999999999999999999
0029029350999991923022806004+62233+025733FM-12+009499999V0209991C000019999999N0000001N9-02331+99999099781ADDGF108991999999999999999999
0035029350999991923022813004+62233+025733FM-12+009499999V0209991C000019999999N0000001N9-01391+99999099991ADDGF108991999999999999999999MW1721
0029029350999991923022820004+62233+025733FM-12+009499999V0201801N001019999999N0000001N9-01441+99999100181ADDGF108991999999999999999999
0029029350999991923030106004+62233+025733FM-12+009499999V0209991C000019999999N0000001N9-02671+99999100561ADDGF100991999999999999999999
0029029350999991923030113004+62233+025733FM-12+009499999V0201801N001019999999N0000001N9-01281+99999100861ADDGF100991999999999999999999
0029029350999991923030120004+62233+025733FM-12+009499999V0209991C000019999999N0000001N9-01671+99999101041ADDGF100991999999999999999999
0029029350999991923030206004+62233+025733FM-12+009499999V0209991C000019999999N0000001N9-02001+99999101141ADDGF100991999999999999999999
0029029350999991923030213004+62233+025733FM-12+009499999V0209991C000019999999N0000001N9-01061+99999101101ADDGF100991999999999999999999
0029029350999991923030220004+62233+025733FM-12+009499999V0200501N001019999999N0000001N9-01501+99999101001ADDGF100991999999999999999999
0029029350999991923030306004+62233+025733FM-12+009499999V0209991C000019999999N0000001N9-01831+99999101021ADDGF100991999999999999999999
0029029350999991923030313004+62233+025733FM-12+009499999V0203601N001019999999N0000001N9-00721+99999100951ADDGF100991999999999999999999
0029029350999991923030320004+62233+025733FM-12+009499999V0200501N001019999999N0000001N9-01061+99999100921ADDGF100991999999999999999999
0029029350999991923030406004+62233+025733FM-12+009499999V0209991C000019999999N0000001N9-01561+99999100951ADDGF100991999999999999999999
0029029350999991923030413004+62233+025733FM-12+009499999V0200201N001019999999N0000001N9-00611+99999100961ADDGF100991999999999999999999
0029029350999991923030420004+62233+025733FM-12+009499999V0209991C000019999999N0000001N9-01221+99999101021ADDGF100991999999999999999999
0029029350999991923030506004+62233+025733FM-12+009499999V0209991C000019999999N0000001N9-02281+99999101101ADDGF105991999999999999999999
0029029350999991923030513004+62233+025733FM-12+009499999V0209991C000019999999N0000001N9-00611+99999101061ADDGF102991999999999999999999
0029029350999991923030520004+62233+025733FM-12+009499999V0209991C000019999999N0000001N9-01611+99999101061ADDGF100991999999999999999999
0029029350999991923030606004+62233+025733FM-12+009499999V0209991C000019999999N0000001N9-02561+99999101111ADDGF100991999999999999999999
0029029350999991923030613004+62233+025733FM-12+009499999V0200201N001019999999N0000001N9-00441+99999101081ADDGF101991999999999999999999
0029029350999991923030620004+62233+025733FM-12+009499999V0209991C000019999999N0000001N9-01281+99999101021ADDGF100991999999999999999999
0029029350999991923030706004+62233+025733FM-12+009499999V0201801N001019999999N0000001N9-01061+99999101031ADDGF108991999999999999999999
0029029350999991923030713004+62233+025733FM-12+009499999V0201801N003119999999N0000001N9-00281+99999101031ADDGF100991999999999999999999
0029029350999991923030720004+62233+025733FM-12+009499999V0209991C000019999999N0000001N9-01061+99999101141ADDGF100991999999999999999999
0029029350999991923030806004+62233+025733FM-12+009499999V0209991C000019999999N0000001N9-01781+99999101201ADDGF100991999999999999999999
0029029350999991923030813004+62233+025733FM-12+009499999V0209991C000019999999N0000001N9-00441+99999101241ADDGF102991999999999999999999
0029029350999991923030820004+62233+025733FM-12+009499999V0209991C000019999999N0000001N9-01331+99999101361ADDGF100991999999999999999999
0029029350999991923030906004+62233+025733FM-12+009499999V0209991C000019999999N0000001N9-01331+99999101661ADDGF108991999999999999999999
0029029350999991923030913004+62233+025733FM-12+009499999V0201801N001019999999N0000001N9-00671+99999101841ADDGF108991999999999999999999
0029029350999991923030920004+62233+025733FM-12+009499999V0209991C000019999999N0000001N9-01061+99999101981ADDGF108991999999999999999999
0029029350999991923031006004+62233+025733FM-12+009499999V0209991C000019999999N0000001N9-00891+99999101981ADDGF108991999999999999999999
0029029350999991923031013004+62233+025733FM-12+009499999V0209991C000019999999N0000001N9-00721+99999102021ADDGF105991999999999999999999
0029029350999991923031020004+62233+025733FM-12+009499999V0209991C000019999999N0000001N9-01331+99999101991ADDGF100991999999999999999999
0029029350999991923031106004+62233+025733FM-12+009499999V0209991C000019999999N0000001N9-02171+99999102231ADDGF100991999999999999999999
0029029350999991923031113004+62233+025733FM-12+009499999V0209991C000019999999N0000001N9-00561+99999102341ADDGF100991999999999999999999
0029029350999991923031120004+62233+025733FM-12+009499999V0209991C000019999999N0000001N9-00721+99999102471ADDGF100991999999999999999999
0029029350999991923031206004+62233+025733FM-12+009499999V0209991C000019999999N0000001N9-01001+99999102561ADDGF108991999999999999999999
0029029350999991923031213004+62233+025733FM-12+009499999V0209991C000019999999N0000001N9-00391+99999102551ADDGF108991999999999999999999
0029029350999991923031220004+62233+025733FM-12+009499999V0209991C000019999999N0000001N9-00561+99999102391ADDGF108991999999999999999999
0029029350999991923031306004+62233+025733FM-12+009499999V0209991C000019999999N0000001N9-01171+99999102061ADDGF108991999999999999999999
0029029350999991923031313004+62233+025733FM-12+009499999V0201801N001019999999N0000001N9+00111+99999101901ADDGF100991999999999999999999
0029029350999991923031320004+62233+025733FM-12+009499999V0209991C000019999999N0000001N9-00561+99999101781ADDGF100991999999999999999999
0029029350999991923031406004+62233+025733FM-12+009499999V0209991C000019999999N0000001N9-00941+99999101621ADDGF108991999999999999999999
0029029350999991923031413004+62233+025733FM-12+009499999V0202701N001019999999N0000001N9-00441+99999101591ADDGF108991999999999999999999
0029029350999991923031420004+62233+025733FM-12+009499999V0202701N001019999999N0000001N9-00391+99999101341ADDGF108991999999999999999999
0029029350999991923031506004+62233+025733FM-12+009499999V0203601N001019999999N0000001N9-00171+99999100941ADDGF108991999999999999999999
0029029350999991923031513004+62233+025733FM-12+009499999V0203401N003119999999N0000001N9+00831+99999101041ADDGF102991999999999999999999
0029029350999991923031520004+62233+025733FM-12+009499999V0209991C000019999999N0000001N9+00171+99999101271ADDGF100991999999999999999999
0029029350999991923031606004+62233+025733FM-12+009499999V0209991C000019999999N0000001N9+00001+99999101321ADDGF102991999999999999999999
0029029350999991923031613004+62233+025733FM-12+009499999V0203601N003119999999N0000001N9+00831+99999101471ADDGF100991999999999999999999
0029029350999991923031620004+62233+025733FM-12+009499999V0209991C000019999999N0000001N9+00111+99999101581ADDGF100991999999999999999999
0029029350999991923031706004+62233+025733FM-12+009499999V0209991C000019999999N0000001N9-00061+99999101301ADDGF103991999999999999999999
0029029350999991923031713004+62233+025733FM-12+009499999V0203401N001019999999N0000001N9+00721+99999101111ADDGF103991999999999999999999
0029029350999991923031720004+62233+025733FM-12+009499999V0200501N005119999999N0000001N9+00441+99999101161ADDGF100991999999999999999999
0029029350999991923031806004+62233+025733FM-12+009499999V0209991C000019999999N0000001N9-00171+99999101431ADDGF102991999999999999999999
0029029350999991923031813004+62233+025733FM-12+009499999V0203601N001019999999N0000001N9+00831+99999101201ADDGF103991999999999999999999
0029029350999991923031820004+62233+025733FM-12+009499999V0203601N001019999999N0000001N9+00331+99999100901ADDGF100991999999999999999999
0029029350999991923031906004+62233+025733FM-12+009499999V0209991C000019999999N0000001N9-00111+99999100661ADDGF100991999999999999999999
0029029350999991923031913004+62233+025733FM-12+009499999V0203401N001019999999N0000001N9+00721+99999100511ADDGF102991999999999999999999
0029029350999991923031920004+62233+025733FM-12+009499999V0209991C000019999999N0000001N9+00331+99999100441ADDGF100991999999999999999999
0029029350999991923032006004+62233+025733FM-12+009499999V0203601N001019999999N0000001N9+00061+99999100031ADDGF100991999999999999999999
0029029350999991923032013004+62233+025733FM-12+009499999V0203401N001019999999N0000001N9+00671+99999100271ADDGF101991999999999999999999
0029029350999991923032020004+62233+025733FM-12+009499999V0209991C000019999999N0000001N9+00001+99999100501ADDGF100991999999999999999999
0029029350999991923032106004+62233+025733FM-12+009499999V0203401N001019999999N0000001N9+00061+99999100631ADDGF108991999999999999999999
0029029350999991923032113004+62233+025733FM-12+009499999V0203201N001019999999N0000001N9+01001+99999100711ADDGF101991999999999999999999
0029029350999991923032120004+62233+025733FM-12+009499999V0209991C000019999999N0000001N9+00281+99999100791ADDGF100991999999999999999999
0029029350999991923032206004+62233+025733FM-12+009499999V0209991C000019999999N0000001N9-00171+99999100601ADDGF100991999999999999999999
0029029350999991923032213004+62233+025733FM-12+009499999V0202701N001019999999N0000001N9+00671+99999100381ADDGF102991999999999999999999
0029029350999991923032220004+62233+025733FM-12+009499999V0202701N005119999999N0000001N9+00391+99999100341ADDGF100991999999999999999999
0029029350999991923032306004+62233+025733FM-12+009499999V0209991C000019999999N0000001N9-00111+99999100881ADDGF102991999999999999999999
0029029350999991923032313004+62233+025733FM-12+009499999V0209991C000019999999N0000001N9+00671+99999101081ADDGF100991999999999999999999
0029029350999991923032320004+62233+025733FM-12+009499999V0209991C000019999999N0000001N9-00171+99999101151ADDGF100991999999999999999999
0029029350999991923032406004+62233+025733FM-12+009499999V0209991C000019999999N0000001N9+00001+99999101121ADDGF100991999999999999999999
0029029350999991923032413004+62233+025733FM-12+009499999V0200501N005119999999N0000001N9+01061+99999100881ADDGF100991999999999999999999
0029029350999991923032420004+62233+025733FM-12+009499999V0209991C000019999999N0000001N9+00391+99999100821ADDGF100991999999999999999999
0029029350999991923032506004+62233+025733FM-12+009499999V0209991C000019999999N0000001N9-00111+99999101061ADDGF100991999999999999999999
0029029350999991923032513004+62233+025733FM-12+009499999V0203601N003119999999N0000001N9+00891+99999101301ADDGF101991999999999999999999
0029029350999991923032520004+62233+025733FM-12+009499999V0209991C000019999999N0000001N9-00061+99999101521ADDGF100991999999999999999999
0029029350999991923032606004+62233+025733FM-12+009499999V0209991C000019999999N0000001N9-00781+99999101881ADDGF100991999999999999999999
0029029350999991923032613004+62233+025733FM-12+009499999V0209991C000019999999N0000001N9+00611+99999101991ADDGF100991999999999999999999
0029029350999991923032620004+62233+025733FM-12+009499999V0209991C000019999999N0000001N9-00171+99999101861ADDGF102991999999999999999999
0029029350999991923032706004+62233+025733FM-12+009499999V0209991C000019999999N0000001N9-00281+99999101471ADDGF105991999999999999999999
0029029350999991923032713004+62233+025733FM-12+009499999V0200201N003119999999N0000001N9+00281+99999101191ADDGF108991999999999999999999
0029029350999991923032720004+62233+025733FM-12+009499999V0203201N001019999999N0000001N9+00171+99999101081ADDGF100991999999999999999999
0029029350999991923032806004+62233+025733FM-12+009499999V0209991C000019999999N0000001N9+00001+99999100981ADDGF108991999999999999999999
0029029350999991923032813004+62233+025733FM-12+009499999V0203601N001019999999N0000001N9+00721+99999100881ADDGF100991999999999999999999
0029029350999991923032820004+62233+025733FM-12+009499999V0203401N003119999999N0000001N9+00391+99999100511ADDGF100991999999999999999999
0029029350999991923032906004+62233+025733FM-12+009499999V0203601N001019999999N0000001N9+00061+99999100621ADDGF100991999999999999999999
0029029350999991923032913004+62233+025733FM-12+009499999V0203601N005119999999N0000001N9+00561+99999101041ADDGF102991999999999999999999
0029029350999991923032920004+62233+025733FM-12+009499999V0209991C000019999999N0000001N9-00111+99999101391ADDGF100991999999999999999999
0035029350999991923033006004+62233+025733FM-12+009499999V0201801N003119999999N0000001N9-00501+99999101081ADDGF108991999999999999999999MW1721
0035029350999991923033013004+62233+025733FM-12+009499999V0201101N005119999999N0000001N9-00331+99999100661ADDGF108991999999999999999999MW1721
0029029350999991923033020004+62233+025733FM-12+009499999V0200901N001019999999N0000001N9-00561+99999101161ADDGF106991999999999999999999
0029029350999991923033106004+62233+025733FM-12+009499999V0209991C000019999999N0000001N9-01111+99999101831ADDGF103991999999999999999999
0029029350999991923033113004+62233+025733FM-12+009499999V0200901N001019999999N0000001N9+00061+99999101831ADDGF101991999999999999999999
0029029350999991923033120004+62233+025733FM-12+009499999V0209991C000019999999N0000001N9-00671+99999101631ADDGF100991999999999999999999
0029029350999991923040106004+62233+025733FM-12+009499999V0209991C000019999999N0000001N9-01441+99999101391ADDGF100991999999999999999999
0029029350999991923040113004+62233+025733FM-12+009499999V0202701N007219999999N0000001N9+00501+99999101031ADDGF101991999999999999999999
0029029350999991923040120004+62233+025733FM-12+009499999V0209991C000019999999N0000001N9+00111+99999100941ADDGF104991999999999999999999
0029029350999991923040206004+62233+025733FM-12+009499999V0203601N001019999999N0000001N9-00331+99999101081ADDGF100991999999999999999999
0029029350999991923040213004+62233+025733FM-12+009499999V0209991C000019999999N0000001N9+00441+99999101141ADDGF100991999999999999999999
0029029350999991923040220004+62233+025733FM-12+009499999V0209991C000019999999N0000001N9-00171+99999101151ADDGF100991999999999999999999
0029029350999991923040306004+62233+025733FM-12+009499999V0209991C000019999999N0000001N9-00061+99999101321ADDGF108991999999999999999999
0029029350999991923040313004+62233+025733FM-12+009499999V0209991C000019999999N0000001N9+00671+99999101431ADDGF100991999999999999999999
0029029350999991923040320004+62233+025733FM-12+009499999V0209991C000019999999N0000001N9+00171+99999101431ADDGF100991999999999999999999
0029029350999991923040406004+62233+025733FM-12+009499999V0209991C000019999999N0000001N9+00111+99999101391ADDGF108991999999999999999999
0029029350999991923040413004+62233+025733FM-12+009499999V0209991C000019999999N0000001N9+00331+99999101311ADDGF108991999999999999999999
0029029350999991923040420004+62233+025733FM-12+009499999V0209991C000019999999N0000001N9+00111+99999101351ADDGF108991999999999999999999
0035029350999991923040506004+62233+025733FM-12+009499999V0209991C000019999999N0000001N9+00001+99999101551ADDGF108991999999999999999999MW1721
0029029350999991923040513004+62233+025733FM-12+009499999V0209991C000019999999N0000001N9+00441+99999101601ADDGF108991999999999999999999
0029029350999991923040520004+62233+025733FM-12+009499999V0209991C000019999999N0000001N9+00221+99999101621ADDGF108991999999999999999999
0029029350999991923040606004+62233+025733FM-12+009499999V0209991C000019999999N0000001N9+00171+99999101601ADDGF108991999999999999999999
0029029350999991923040613004+62233+025733FM-12+009499999V0200201N003119999999N0000001N9+00611+99999101481ADDGF107991999999999999999999
0029029350999991923040620004+62233+025733FM-12+009499999V0209991C000019999999N0000001N9+00281+99999101471ADDGF108991999999999999999999
0029029350999991923040706004+62233+025733FM-12+009499999V0209991C000019999999N0000001N9-00441+99999101601ADDGF108991999999999999999999
0029029350999991923040713004+62233+025733FM-12+009499999V0200201N003119999999N0000001N9+00441+99999101471ADDGF106991999999999999999999
0029029350999991923040720004+62233+025733FM-12+009499999V0209991C000019999999N0000001N9-00061+99999101391ADDGF100991999999999999999999
0029029350999991923040806004+62233+025733FM-12+009499999V0202701N005119999999N0000001N9+00061+99999101121ADDGF100991999999999999999999
0029029350999991923040813004+62233+025733FM-12+009499999V0203401N005119999999N0000001N9+00831+99999100831ADDGF102991999999999999999999
0029029350999991923040820004+62233+025733FM-12+009499999V0209991C000019999999N0000001N9+00111+99999100841ADDGF101991999999999999999999
0029029350999991923040906004+62233+025733FM-12+009499999V0209991C000019999999N0000001N9-00221+99999101021ADDGF100991999999999999999999
0029029350999991923040913004+62233+025733FM-12+009499999V0203201N001019999999N0000001N9+00831+99999100911ADDGF101991999999999999999999
0029029350999991923040920004+62233+025733FM-12+009499999V0209991C000019999999N0000001N9+00061+99999100641ADDGF100991999999999999999999
0029029350999991923041006004+62233+025733FM-12+009499999V0209991C000019999999N0000001N9+00061+99999100301ADDGF100991999999999999999999
0029029350999991923041013004+62233+025733FM-12+009499999V0203401N005119999999N0000001N9+00721+99999100191ADDGF105991999999999999999999
0029029350999991923041020004+62233+025733FM-12+009499999V0209991C000019999999N0000001N9+00111+99999100351ADDGF100991999999999999999999
0035029350999991923041106004+62233+025733FM-12+009499999V0209991C000019999999N0000001N9+00001+99999099951ADDGF108991999999999999999999MW1721
0029029350999991923041113004+62233+025733FM-12+009499999V0202701N005119999999N0000001N9+00331+99999099951ADDGF100991999999999999999999
0029029350999991923041120004+62233+025733FM-12+009499999V0209991C000019999999N0000001N9-00221+99999100221ADDGF101991999999999999999999
0029029350999991923041206004+62233+025733FM-12+009499999V0203601N005119999999N0000001N9-00671+99999100791ADDGF100991999999999999999999
0029029350999991923041213004+62233+025733FM-12+009499999V0200901N001019999999N0000001N9+00281+99999100871ADDGF100991999999999999999999
0029029350999991923041220004+62233+025733FM-12+009499999V0209991C000019999999N0000001N9-00331+99999100821ADDGF100991999999999999999999
0029029350999991923041306004+62233+025733FM-12+009499999V0209991C000019999999N0000001N9-00891+99999100821ADDGF100991999999999999999999
0029029350999991923041313004+62233+025733FM-12+009499999V0209991C000019999999N0000001N9+00501+99999100601ADDGF100991999999999999999999
0029029350999991923041320004+62233+025733FM-12+009499999V0209991C000019999999N0000001N9-00171+99999100481ADDGF100991999999999999999999
0029029350999991923041406004+62233+025733FM-12+009499999V0209991C000019999999N0000001N9-00281+99999100261ADDGF108991999999999999999999
0029029350999991923041413004+62233+025733FM-12+009499999V0201101N003119999999N0000001N9+00061+99999100101ADDGF108991999999999999999999
0035029350999991923041420004+62233+025733FM-12+009499999V0209991C000019999999N0000001N9-00171+99999099901ADDGF108991999999999999999999MW1721
0035029350999991923041506004+62233+025733FM-12+009499999V0209991C000019999999N0000001N9-00221+99999099381ADDGF108991999999999999999999MW1721
0029029350999991923041513004+62233+025733FM-12+009499999V0209991C000019999999N0000001N9+00001+99999099421ADDGF108991999999999999999999
0035029350999991923041520004+62233+025733FM-12+009499999V0200201N003119999999N0000001N9-00061+99999099561ADDGF108991999999999999999999MW1621
0029029350999991923041606004+62233+025733FM-12+009499999V0200201N003119999999N0000001N9-00501+99999100031ADDGF102991999999999999999999
0029029350999991923041613004+62233+025733FM-12+009499999V0203601N001019999999N0000001N9+00391+99999100241ADDGF100991999999999999999999
0029029350999991923041620004+62233+025733FM-12+009499999V0209991C000019999999N0000001N9-00331+99999100511ADDGF100991999999999999999999
0029029350999991923041706004+62233+025733FM-12+009499999V0209991C000019999999N0000001N9-00721+99999100961ADDGF100991999999999999999999
0029029350999991923041713004+62233+025733FM-12+009499999V0209991C000019999999N0000001N9+00671+99999100991ADDGF100991999999999999999999
0029029350999991923041720004+62233+025733FM-12+009499999V0209991C000019999999N0000001N9-00061+99999100911ADDGF100991999999999999999999
0029029350999991923041806004+62233+025733FM-12+009499999V0209991C000019999999N0000001N9-00501+99999100781ADDGF100991999999999999999999
0029029350999991923041813004+62233+025733FM-12+009499999V0200201N003119999999N0000001N9+00781+99999100351ADDGF100991999999999999999999
0029029350999991923041820004+62233+025733FM-12+009499999V0209991C000019999999N0000001N9+00061+99999100021ADDGF100991999999999999999999
0029029350999991923041906004+62233+025733FM-12+009499999V0209991C000019999999N0000001N9-00331+99999099441ADDGF100991999999999999999999
0029029350999991923041913004+62233+025733FM-12+009499999V0203401N001019999999N0000001N9+00891+99999099161ADDGF100991999999999999999999
0029029350999991923041920004+62233+025733FM-12+009499999V0209991C000019999999N0000001N9+00111+99999099161ADDGF100991999999999999999999
0029029350999991923042006004+62233+025733FM-12+009499999V0203601N001019999999N0000001N9-00171+99999099281ADDGF100991999999999999999999
0029029350999991923042013004+62233+025733FM-12+009499999V0209991C000019999999N0000001N9+00061+99999099541ADDGF108991999999999999999999
0029029350999991923042020004+62233+025733FM-12+009499999V0203601N003119999999N0000001N9-00221+99999099741ADDGF106991999999999999999999
0029029350999991923042106004+62233+025733FM-12+009499999V0209991C000019999999N0000001N9-00611+99999099741ADDGF100991999999999999999999
0029029350999991923042113004+62233+025733FM-12+009499999V0203401N003119999999N0000001N9+00061+99999099561ADDGF100991999999999999999999
0029029350999991923042120004+62233+025733FM-12+009499999V0209991C000019999999N0000001N9-00281+99999099361ADDGF104991999999999999999999
0029029350999991923042206004+62233+025733FM-12+009499999V0202901N003119999999N0000001N9-00281+99999099221ADDGF104991999999999999999999
0029029350999991923042213004+62233+025733FM-12+009499999V0203601N001019999999N0000001N9+00061+99999099471ADDGF104991999999999999999999
0029029350999991923042220004+62233+025733FM-12+009499999V0209991C000019999999N0000001N9-00391+99999099631ADDGF100991999999999999999999
0029029350999991923042306004+62233+025733FM-12+009499999V0203601N001019999999N0000001N9-00561+99999099921ADDGF100991999999999999999999
0029029350999991923042313004+62233+025733FM-12+009499999V0200201N001019999999N0000001N9+00281+99999100021ADDGF100991999999999999999999
0029029350999991923042320004+62233+025733FM-12+009499999V0209991C000019999999N0000001N9-00281+99999100121ADDGF100991999999999999999999
0029029350999991923042406004+62233+025733FM-12+009499999V0203601N001019999999N0000001N9-00501+99999100111ADDGF106991999999999999999999
0029029350999991923042413004+62233+025733FM-12+009499999V0200901N005119999999N0000001N9+00221+99999099921ADDGF102991999999999999999999
0029029350999991923042420004+62233+025733FM-12+009499999V0200901N003119999999N0000001N9-00221+99999099701ADDGF100991999999999999999999
0029029350999991923042506004+62233+025733FM-12+009499999V0203601N005119999999N0000001N9-00441+99999099381ADDGF108991999999999999999999
0029029350999991923042513004+62233+025733FM-12+009499999V0200501N005119999999N0000001N9+00111+99999099341ADDGF106991999999999999999999
0029029350999991923042520004+62233+025733FM-12+009499999V0200901N003119999999N0000001N9-00331+99999099591ADDGF100991999999999999999999
0029029350999991923042606004+62233+025733FM-12+009499999V0209991C000019999999N0000001N9-00671+99999099961ADDGF100991999999999999999999
0029029350999991923042613004+62233+025733FM-12+009499999V0200901N003119999999N0000001N9+00391+99999100071ADDGF100991999999999999999999
0029029350999991923042620004+62233+025733FM-12+009499999V0209991C000019999999N0000001N9-00171+99999100061ADDGF100991999999999999999999
0035029350999991923042706004+62233+025733FM-12+009499999V0200901N005119999999N0000001N9-00171+99999099581ADDGF108991999999999999999999MW1721
0035029350999991923042713004+62233+025733FM-12+009499999V0200901N003119999999N0000001N9+00001+99999098741ADDGF108991999999999999999999MW1721
0035029350999991923042720004+62233+025733FM-12+009499999V0209991C000019999999N0000001N9+00111+99999098031ADDGF108991999999999999999999MW1621
0035029350999991923042806004+62233+025733FM-12+009499999V0202701N003119999999N0000001N9+00061+99999097921ADDGF108991999999999999999999MW1621
0029029350999991923042813004+62233+025733FM-12+009499999V0202301N003119999999N0000001N9+00281+99999098381ADDGF108991999999999999999999
0029029350999991923042820004+62233+025733FM-12+009499999V0202701N001019999999N0000001N9+00061+99999098621ADDGF106991999999999999999999
0029029350999991923042906004+62233+025733FM-12+009499999V0202701N001019999999N0000001N9+00061+99999098721ADDGF106991999999999999999999
0029029350999991923042913004+62233+025733FM-12+009499999V0200501N001019999999N0000001N9+00331+99999098641ADDGF106991999999999999999999
0029029350999991923042920004+62233+025733FM-12+009499999V0209991C000019999999N0000001N9-00281+99999099071ADDGF100991999999999999999999
0029029350999991923043006004+62233+025733FM-12+009499999V0203201N003119999999N0000001N9-00171+99999099481ADDGF108991999999999999999999
0029029350999991923043013004+62233+025733FM-12+009499999V0203601N001019999999N0000001N9+00721+99999099741ADDGF102991999999999999999999
0029029350999991923043020004+62233+025733FM-12+009499999V0209991C000019999999N0000001N9+00171+99999099781ADDGF100991999999999999999999
0029029350999991923050106004+62233+025733FM-12+009499999V0202301N003119999999N0000001N9+00221+99999099631ADDGF100991999999999999999999
0035029350999991923050113004+62233+025733FM-12+009499999V0202701N001019999999N0000001N9+00331+99999099621ADDGF108991999999999999999999MW1621
0029029350999991923050120004+62233+025733FM-12+009499999V0209991C000019999999N0000001N9+00221+99999099401ADDGF108991999999999999999999
0035029350999991923050206004+62233+025733FM-12+009499999V0203601N003119999999N0000001N9+00171+99999099191ADDGF108991999999999999999999MW1621
0029029350999991923050213004+62233+025733FM-12+009499999V0200501N003119999999N0000001N9+00331+99999099441ADDGF108991999999999999999999
0029029350999991923050220004+62233+025733FM-12+009499999V0209991C000019999999N0000001N9+00171+99999099641ADDGF100991999999999999999999
0029029350999991923050306004+62233+025733FM-12+009499999V0209991C000019999999N0000001N9-00111+99999099981ADDGF100991999999999999999999
0029029350999991923050313004+62233+025733FM-12+009499999V0203601N001019999999N0000001N9+00561+99999100071ADDGF104991999999999999999999
0029029350999991923050320004+62233+025733FM-12+009499999V0209991C000019999999N0000001N9+00061+99999100181ADDGF100991999999999999999999
0029029350999991923050406004+62233+025733FM-12+009499999V0209991C000019999999N0000001N9+00001+99999100391ADDGF100991999999999999999999
0029029350999991923050413004+62233+025733FM-12+009499999V0200901N001019999999N0000001N9+00831+99999100561ADDGF103991999999999999999999
0029029350999991923050420004+62233+025733FM-12+009499999V0209991C000019999999N0000001N9+00171+99999100641ADDGF100991999999999999999999
0035029350999991923050506004+62233+025733FM-12+009499999V0201801N001019999999N0000001N9+00001+99999100601ADDGF108991999999999999999999MW1721
0029029350999991923050513004+62233+025733FM-12+009499999V0201401N005119999999N0000001N9+00721+99999100271ADDGF108991999999999999999999
0035029350999991923050520004+62233+025733FM-12+009499999V0209991C000019999999N0000001N9+00391+99999100221ADDGF108991999999999999999999MW1621
0029029350999991923050606004+62233+025733FM-12+009499999V0209991C000019999999N0000001N9+00331+99999100321ADDGF108991999999999999999999
0029029350999991923050613004+62233+025733FM-12+009499999V0209991C000019999999N0000001N9+01001+99999100391ADDGF108991999999999999999999
0029029350999991923050620004+62233+025733FM-12+009499999V0201601N003119999999N0000001N9+00611+99999100111ADDGF108991999999999999999999
0035029350999991923050706004+62233+025733FM-12+009499999V0201401N001019999999N0000001N9+00281+99999099121ADDGF108991999999999999999999MW1621
0035029350999991923050713004+62233+025733FM-12+009499999V0209991C000019999999N0000001N9+00391+99999098871ADDGF108991999999999999999999MW1621
0029029350999991923050720004+62233+025733FM-12+009499999V0209991C000019999999N0000001N9+00331+99999099031ADDGF100991999999999999999999
0029029350999991923050806004+62233+025733FM-12+009499999V0202701N003119999999N0000001N9+00501+99999099121ADDGF100991999999999999999999
0029029350999991923050813004+62233+025733FM-12+009499999V0203601N005119999999N0000001N9+01001+99999099341ADDGF102991999999999999999999
0029029350999991923050820004+62233+025733FM-12+009499999V0209991C000019999999N0000001N9+00391+99999099591ADDGF100991999999999999999999
0029029350999991923050906004+62233+025733FM-12+009499999V0209991C000019999999N0000001N9+00111+99999099521ADDGF100991999999999999999999
0029029350999991923050913004+62233+025733FM-12+009499999V0201601N003119999999N0000001N9+01111+99999099361ADDGF106991999999999999999999
0029029350999991923050920004+62233+025733FM-12+009499999V0201601N001019999999N0000001N9+00281+99999099351ADDGF105991999999999999999999
0029029350999991923051006004+62233+025733FM-12+009499999V0203601N003119999999N0000001N9+00331+99999099231ADDGF108991999999999999999999
0029029350999991923051013004+62233+025733FM-12+009499999V0209991C000019999999N0000001N9+00891+99999099261ADDGF102991999999999999999999
0029029350999991923051020004+62233+025733FM-12+009499999V0209991C000019999999N0000001N9+00391+99999099281ADDGF100991999999999999999999
0029029350999991923051106004+62233+025733FM-12+009499999V0209991C000019999999N0000001N9+00331+99999099341ADDGF100991999999999999999999
0029029350999991923051113004+62233+025733FM-12+009499999V0200501N003119999999N0000001N9+01281+99999099341ADDGF102991999999999999999999
0029029350999991923051120004+62233+025733FM-12+009499999V0203601N001019999999N0000001N9+00611+99999099391ADDGF107991999999999999999999
0029029350999991923051206004+62233+025733FM-12+009499999V0203601N003119999999N0000001N9+00221+99999099521ADDGF108991999999999999999999
0029029350999991923051213004+62233+025733FM-12+009499999V0200501N003119999999N0000001N9+00781+99999099721ADDGF107991999999999999999999
0029029350999991923051220004+62233+025733FM-12+009499999V0209991C000019999999N0000001N9+00561+99999100161ADDGF100991999999999999999999
0029029350999991923051306004+62233+025733FM-12+009499999V0201401N005119999999N0000001N9+00501+99999100381ADDGF100991999999999999999999
0029029350999991923051313004+62233+025733FM-12+009499999V0201401N005119999999N0000001N9+01111+99999100391ADDGF102991999999999999999999
0029029350999991923051320004+62233+025733FM-12+009499999V0209991C000019999999N0000001N9+00561+99999099681ADDGF100991999999999999999999
0029029350999991923051406004+62233+025733FM-12+009499999V0201401N005119999999N0000001N9+00441+99999099921ADDGF105991999999999999999999
0029029350999991923051413004+62233+025733FM-12+009499999V0201801N003119999999N0000001N9+01221+99999099831ADDGF106991999999999999999999
0029029350999991923051420004+62233+025733FM-12+009499999V0201601N005119999999N0000001N9+00831+99999099311ADDGF107991999999999999999999
0029029350999991923051506004+62233+025733FM-12+009499999V0201101N003119999999N0000001N9+00501+99999099401ADDGF106991999999999999999999
0029029350999991923051513004+62233+025733FM-12+009499999V0202701N005119999999N0000001N9+01281+99999099741ADDGF104991999999999999999999
0029029350999991923051520004+62233+025733FM-12+009499999V0202701N003119999999N0000001N9+00831+99999100181ADDGF102991999999999999999999
0035029350999991923051606004+62233+025733FM-12+009499999V0203201N003119999999N0000001N9+00331+99999100141ADDGF108991999999999999999999MW1621
0035029350999991923051613004+62233+025733FM-12+009499999V0209991C000019999999N0000001N9+00441+99999099911ADDGF108991999999999999999999MW1621
0029029350999991923051620004+62233+025733FM-12+009499999V0209991C000019999999N0000001N9+00561+99999100241ADDGF103991999999999999999999
0029029350999991923051706004+62233+025733FM-12+009499999V0209991C000019999999N0000001N9+00501+99999100481ADDGF100991999999999999999999
0029029350999991923051713004+62233+025733FM-12+009499999V0201401N005119999999N0000001N9+01281+99999100221ADDGF105991999999999999999999
0029029350999991923051720004+62233+025733FM-12+009499999V0209991C000019999999N0000001N9+00891+99999099881ADDGF108991999999999999999999
0029029350999991923051806004+62233+025733FM-12+009499999V0201601N003119999999N0000001N9+00561+99999100071ADDGF102991999999999999999999
0029029350999991923051813004+62233+025733FM-12+009499999V0202701N003119999999N0000001N9+01391+99999100311ADDGF102991999999999999999999
0029029350999991923051820004+62233+025733FM-12+009499999V0209991C000019999999N0000001N9+01061+99999100221ADDGF100991999999999999999999
0029029350999991923051906004+62233+025733FM-12+009499999V0209991C000019999999N0000001N9+00671+99999100161ADDGF102991999999999999999999
0029029350999991923051913004+62233+025733FM-12+009499999V0200201N001019999999N0000001N9+01781+99999100021ADDGF103991999999999999999999
0029029350999991923051920004+62233+025733FM-12+009499999V0209991C000019999999N0000001N9+01221+99999099951ADDGF105991999999999999999999
0029029350999991923052006004+62233+025733FM-12+009499999V0209991C000019999999N0000001N9+01001+99999100341ADDGF100991999999999999999999
0029029350999991923052013004+62233+025733FM-12+009499999V0200901N003119999999N0000001N9+01501+99999100121ADDGF106991999999999999999999
0029029350999991923052020004+62233+025733FM-12+009499999V0209991C000019999999N0000001N9+01061+99999100101ADDGF103991999999999999999999
0029029350999991923052106004+62233+025733FM-12+009499999V0201801N003119999999N0000001N9+00891+99999100271ADDGF100991999999999999999999
0029029350999991923052113004+62233+025733FM-12+009499999V0201801N001019999999N0000001N9+01391+99999100261ADDGF106991999999999999999999
0029029350999991923052120004+62233+025733FM-12+009499999V0209991C000019999999N0000001N9+01171+99999100351ADDGF108991999999999999999999
0029029350999991923052206004+62233+025733FM-12+009499999V0209991C000019999999N0000001N9+01001+99999100351ADDGF100991999999999999999999
0029029350999991923052213004+62233+025733FM-12+009499999V0201801N005119999999N0000001N9+01941+99999100021ADDGF102991999999999999999999
0029029350999991923052220004+62233+025733FM-12+009499999V0209991C000019999999N0000001N9+01331+99999099711ADDGF103991999999999999999999
0035029350999991923052306004+62233+025733FM-12+009499999V0209991C000019999999N0000001N9+00781+99999099421ADDGF108991999999999999999999MW1621
0029029350999991923052313004+62233+025733FM-12+009499999V0202301N003119999999N0000001N9+01441+99999099351ADDGF106991999999999999999999
0029029350999991923052320004+62233+025733FM-12+009499999V0209991C000019999999N0000001N9+00781+99999099391ADDGF101991999999999999999999
0029029350999991923052406004+62233+025733FM-12+009499999V0201801N001019999999N0000001N9+00721+99999099381ADDGF100991999999999999999999
0029029350999991923052413004+62233+025733FM-12+009499999V0201401N003119999999N0000001N9+01281+99999099261ADDGF108991999999999999999999
0029029350999991923052420004+62233+025733FM-12+009499999V0209991C000019999999N0000001N9+00671+99999099201ADDGF106991999999999999999999
0029029350999991923052506004+62233+025733FM-12+009499999V0203201N005119999999N0000001N9+00891+99999099041ADDGF104991999999999999999999
0029029350999991923052513004+62233+025733FM-12+009499999V0203601N001019999999N0000001N9+01331+99999099581ADDGF107991999999999999999999
0029029350999991923052520004+62233+025733FM-12+009499999V0202901N001019999999N0000001N9+01171+99999100191ADDGF106991999999999999999999
0029029350999991923052606004+62233+025733FM-12+009499999V0209991C000019999999N0000001N9+00831+99999100801ADDGF100991999999999999999999
0029029350999991923052613004+62233+025733FM-12+009499999V0202301N001019999999N0000001N9+01891+99999100901ADDGF101991999999999999999999
0029029350999991923052620004+62233+025733FM-12+009499999V0209991C000019999999N0000001N9+01221+99999100901ADDGF100991999999999999999999
0029029350999991923052706004+62233+025733FM-12+009499999V0209991C000019999999N0000001N9+01001+99999100561ADDGF106991999999999999999999
0035029350999991923052713004+62233+025733FM-12+009499999V0209991C000019999999N0000001N9+01001+99999100081ADDGF108991999999999999999999MW1621
0029029350999991923052720004+62233+025733FM-12+009499999V0209991C000019999999N0000001N9+01001+99999099701ADDGF102991999999999999999999
0029029350999991923052806004+62233+025733FM-12+009499999V0203601N005119999999N0000001N9+00781+99999099351ADDGF102991999999999999999999
0029029350999991923052813004+62233+025733FM-12+009499999V0203601N003119999999N0000001N9+01281+99999099261ADDGF103991999999999999999999
0029029350999991923052820004+62233+025733FM-12+009499999V0209991C000019999999N0000001N9+00781+99999099471ADDGF100991999999999999999999
0029029350999991923052906004+62233+025733FM-12+009499999V0203601N005119999999N0000001N9+00441+99999099661ADDGF108991999999999999999999
0029029350999991923052913004+62233+025733FM-12+009499999V0202701N005119999999N0000001N9+00831+99999099781ADDGF107991999999999999999999
0029029350999991923052920004+62233+025733FM-12+009499999V0202701N001019999999N0000001N9+00611+99999099801ADDGF106991999999999999999999
0029029350999991923053006004+62233+025733FM-12+009499999V0209991C000019999999N0000001N9+00281+99999099951ADDGF108991999999999999999999
0029029350999991923053013004+62233+025733FM-12+009499999V0202501N003119999999N0000001N9+00611+99999100261ADDGF106991999999999999999999
0029029350999991923053020004+62233+025733FM-12+009499999V0209991C000019999999N0000001N9+00331+99999100441ADDGF100991999999999999999999
0029029350999991923053106004+62233+025733FM-12+009499999V0209991C000019999999N0000001N9+00441+99999100791ADDGF102991999999999999999999
0029029350999991923053113004+62233+025733FM-12+009499999V0202701N001019999999N0000001N9+01061+99999100631ADDGF107991999999999999999999
0029029350999991923053120004+62233+025733FM-12+009499999V0202701N005119999999N0000001N9+00781+99999100321ADDGF107991999999999999999999
0029029350999991923060106004+62233+025733FM-12+009499999V0209991C000019999999N0000001N9+00611+99999099881ADDGF108991999999999999999999
0029029350999991923060113004+62233+025733FM-12+009499999V0202701N001019999999N0000001N9+00941+99999099561ADDGF108991999999999999999999
0035029350999991923060120004+62233+025733FM-12+009499999V0203601N003119999999N0000001N9+00561+99999099471ADDGF108991999999999999999999MW1621
0029029350999991923060206004+62233+025733FM-12+009499999V0203601N003119999999N0000001N9+00611+99999099601ADDGF100991999999999999999999
0029029350999991923060213004+62233+025733FM-12+009499999V0200201N002119999999N0000001N9+00941+99999099621ADDGF107991999999999999999999
0029029350999991923060220004+62233+025733FM-12+009499999V0203601N001019999999N0000001N9+00561+99999099541ADDGF105991999999999999999999
0029029350999991923060306004+62233+025733FM-12+009499999V0202701N003119999999N0000001N9+00671+99999099201ADDGF108991999999999999999999
0029029350999991923060313004+62233+025733FM-12+009499999V0202701N005119999999N0000001N9+00891+99999099001ADDGF106991999999999999999999
0029029350999991923060320004+62233+025733FM-12+009499999V0202701N001019999999N0000001N9+00501+99999098761ADDGF107991999999999999999999
0029029350999991923060406004+62233+025733FM-12+009499999V0209991C000019999999N0000001N9+00611+99999098431ADDGF106991999999999999999999
0029029350999991923060413004+62233+025733FM-12+009499999V0203601N001019999999N0000001N9+00941+99999098391ADDGF108991999999999999999999
0035029350999991923060420004+62233+025733FM-12+009499999V0203401N001019999999N0000001N9+00441+99999098441ADDGF108991999999999999999999MW1621
0029029350999991923060506004+62233+025733FM-12+009499999V0209991C000019999999N0000001N9+00331+99999098351ADDGF108991999999999999999999
0029029350999991923060513004+62233+025733FM-12+009499999V0203601N001019999999N0000001N9+00501+99999098621ADDGF106991999999999999999999
0029029350999991923060520004+62233+025733FM-12+009499999V0209991C000019999999N0000001N9+00391+99999098721ADDGF100991999999999999999999
0029029350999991923060606004+62233+025733FM-12+009499999V0209991C000019999999N0000001N9+00501+99999098791ADDGF100991999999999999999999
0029029350999991923060613004+62233+025733FM-12+009499999V0201401N003119999999N0000001N9+01281+99999098781ADDGF105991999999999999999999
0035029350999991923060620004+62233+025733FM-12+009499999V0203401N001019999999N0000001N9+00561+99999098911ADDGF108991999999999999999999MW1621
0029029350999991923060706004+62233+025733FM-12+009499999V0209991C000019999999N0000001N9+00441+99999098991ADDGF100991999999999999999999
0029029350999991923060713004+62233+025733FM-12+009499999V0202701N002119999999N0000001N9+01001+99999098951ADDGF107991999999999999999999
0035029350999991923060720004+62233+025733FM-12+009499999V0209991C000019999999N0000001N9+00441+99999099151ADDGF106991999999999999999999MW1621
0029029350999991923060806004+62233+025733FM-12+009499999V0202701N005119999999N0000001N9+00671+99999099441ADDGF100991999999999999999999
0029029350999991923060813004+62233+025733FM-12+009499999V0202501N005119999999N0000001N9+01171+99999099481ADDGF105991999999999999999999
0029029350999991923060820004+62233+025733FM-12+009499999V0202701N001019999999N0000001N9+00891+99999099341ADDGF108991999999999999999999
0035029350999991923060906004+62233+025733FM-12+009499999V0202701N005119999999N0000001N9+00831+99999097621ADDGF108991999999999999999999MW1621
0029029350999991923060913004+62233+025733FM-12+009499999V0203201N003119999999N0000001N9+01001+99999097781ADDGF108991999999999999999999
0029029350999991923060920004+62233+025733FM-12+009499999V0209991C000019999999N0000001N9+01061+99999097781ADDGF106991999999999999999999
0029029350999991923061006004+62233+025733FM-12+009499999V0202701N001019999999N0000001N9+01061+99999098321ADDGF100991999999999999999999
0029029350999991923061013004+62233+025733FM-12+009499999V0202901N007219999999N0000001N9+01331+99999098711ADDGF106991999999999999999999
0029029350999991923061020004+62233+025733FM-12+009499999V0209991C000019999999N0000001N9+01111+99999099001ADDGF100991999999999999999999
0035029350999991923061106004+62233+025733FM-12+009499999V0209991C000019999999N0000001N9+00721+99999098551ADDGF108991999999999999999999MW1621
0029029350999991923061113004+62233+025733FM-12+009499999V0202701N006219999999N0000001N9+01281+99999098301ADDGF107991999999999999999999
0035029350999991923061120004+62233+025733FM-12+009499999V0209991C000019999999N0000001N9+01001+99999098201ADDGF108991999999999999999999MW1621
0029029350999991923061206004+62233+025733FM-12+009499999V0209991C000019999999N0000001N9+00941+99999098391ADDGF108991999999999999999999
0029029350999991923061213004+62233+025733FM-12+009499999V0203601N003119999999N0000001N9+00941+99999098621ADDGF108991999999999999999999
0029029350999991923061220004+62233+025733FM-12+009499999V0203401N001019999999N0000001N9+00721+99999098911ADDGF108991999999999999999999
0029029350999991923061306004+62233+025733FM-12+009499999V0200901N001019999999N0000001N9+00611+99999098941ADDGF108991999999999999999999
0029029350999991923061313004+62233+025733FM-12+009499999V0209991C000019999999N0000001N9+00941+99999099031ADDGF107991999999999999999999
0029029350999991923061320004+62233+025733FM-12+009499999V0209991C000019999999N0000001N9+00831+99999099121ADDGF106991999999999999999999
0029029350999991923061406004+62233+025733FM-12+009499999V0209991C000019999999N0000001N9+00721+99999099341ADDGF102991999999999999999999
0029029350999991923061413004+62233+025733FM-12+009499999V0200901N002119999999N0000001N9+01391+99999099381ADDGF106991999999999999999999
0029029350999991923061420004+62233+025733FM-12+009499999V0200901N001019999999N0000001N9+01221+99999099421ADDGF107991999999999999999999
0029029350999991923061506004+62233+025733FM-12+009499999V0201801N003119999999N0000001N9+01001+99999099341ADDGF108991999999999999999999
0035029350999991923061513004+62233+025733FM-12+009499999V0201801N001019999999N0000001N9+01331+99999099391ADDGF108991999999999999999999MW1621
0029029350999991923061520004+62233+025733FM-12+009499999V0209991C000019999999N0000001N9+01171+99999099391ADDGF102991999999999999999999
0029029350999991923061606004+62233+025733FM-12+009499999V0201801N005119999999N0000001N9+01111+99999099421ADDGF106991999999999999999999
0029029350999991923061613004+62233+025733FM-12+009499999V0201801N003119999999N0000001N9+01441+99999099501ADDGF105991999999999999999999
0035029350999991923061620004+62233+025733FM-12+009499999V0201401N003119999999N0000001N9+00891+99999099681ADDGF108991999999999999999999MW1621
0029029350999991923061706004+62233+025733FM-12+009499999V0201801N005119999999N0000001N9+00941+99999100081ADDGF102991999999999999999999
0029029350999991923061713004+62233+025733FM-12+009499999V0201801N003119999999N0000001N9+01441+99999100441ADDGF105991999999999999999999
0035029350999991923061720004+62233+025733FM-12+009499999V0209991C000019999999N0000001N9+01111+99999100601ADDGF108991999999999999999999MW1621
0029029350999991923061806004+62233+025733FM-12+009499999V0209991C000019999999N0000001N9+00891+99999100681ADDGF108991999999999999999999
0029029350999991923061813004+62233+025733FM-12+009499999V0209991C000019999999N0000001N9+01441+99999100621ADDGF107991999999999999999999
0035029350999991923061820004+62233+025733FM-12+009499999V0209991C000019999999N0000001N9+01171+99999100501ADDGF108991999999999999999999MW1621
0029029350999991923061906004+62233+025733FM-12+009499999V0209991C000019999999N0000001N9+01171+99999100271ADDGF108991999999999999999999
0029029350999991923061913004+62233+025733FM-12+009499999V0203401N001019999999N0000001N9+02001+99999100111ADDGF102991999999999999999999
0029029350999991923061920004+62233+025733FM-12+009499999V0209991C000019999999N0000001N9+01721+99999099871ADDGF100991999999999999999999
0029029350999991923062006004+62233+025733FM-12+009499999V0209991C000019999999N0000001N9+01441+99999099711ADDGF108991999999999999999999
0029029350999991923062013004+62233+025733FM-12+009499999V0209991C000019999999N0000001N9+01831+99999099681ADDGF106991999999999999999999
0029029350999991923062020004+62233+025733FM-12+009499999V0209991C000019999999N0000001N9+01671+99999099561ADDGF103991999999999999999999
0035029350999991923062106004+62233+025733FM-12+009499999V0209991C000019999999N0000001N9+01501+99999099111ADDGF108991999999999999999999MW1621
0035029350999991923062113004+62233+025733FM-12+009499999V0200901N003119999999N0000001N9+01331+99999099081ADDGF108991999999999999999999MW1621
0029029350999991923062120004+62233+025733FM-12+009499999V0201801N005119999999N0000001N9+01221+99999098921ADDGF108991999999999999999999
0029029350999991923062206004+62233+025733FM-12+009499999V0201801N003119999999N0000001N9+01281+99999098601ADDGF106991999999999999999999
0029029350999991923062213004+62233+025733FM-12+009499999V0201601N003119999999N0000001N9+01221+99999098321ADDGF108991999999999999999999
0029029350999991923062220004+62233+025733FM-12+009499999V0202701N002119999999N0000001N9+01001+99999098031ADDGF108991999999999999999999
0035029350999991923062306004+62233+025733FM-12+009499999V0203401N005119999999N0000001N9+00671+99999097741ADDGF108991999999999999999999MW1621
0029029350999991923062313004+62233+025733FM-12+009499999V0203601N005119999999N0000001N9+01171+99999097961ADDGF108991999999999999999999
0029029350999991923062320004+62233+025733FM-12+009499999V0202301N003119999999N0000001N9+01001+99999098021ADDGF106991999999999999999999
0029029350999991923062406004+62233+025733FM-12+009499999V0209991C000019999999N0000001N9+00891+99999097551ADDGF100991999999999999999999
0029029350999991923062413004+62233+025733FM-12+009499999V0202901N001019999999N0000001N9+00891+99999097521ADDGF106991999999999999999999
0029029350999991923062420004+62233+025733FM-12+009499999V0209991C000019999999N0000001N9+00781+99999097741ADDGF106991999999999999999999
0029029350999991923062506004+62233+025733FM-12+009499999V0202501N005119999999N0000001N9+00831+99999097901ADDGF102991999999999999999999
0035029350999991923062513004+62233+025733FM-12+009499999V0202501N005119999999N0000001N9+00721+99999098141ADDGF108991999999999999999999MW1621
0029029350999991923062520004+62233+025733FM-12+009499999V0209991C000019999999N0000001N9+00781+99999098541ADDGF105991999999999999999999
0029029350999991923062606004+62233+025733FM-12+009499999V0209991C000019999999N0000001N9+00891+99999099141ADDGF108991999999999999999999
0029029350999991923062613004+62233+025733FM-12+009499999V0202701N003119999999N0000001N9+01221+99999099421ADDGF106991999999999999999999
0029029350999991923062620004+62233+025733FM-12+009499999V0209991C000019999999N0000001N9+00941+99999099631ADDGF105991999999999999999999
0029029350999991923062706004+62233+025733FM-12+009499999V0202701N001019999999N0000001N9+00941+99999100061ADDGF103991999999999999999999
0029029350999991923062713004+62233+025733FM-12+009499999V0201801N003119999999N0000001N9+01611+99999100311ADDGF104991999999999999999999
0029029350999991923062720004+62233+025733FM-12+009499999V0209991C000019999999N0000001N9+01001+99999100471ADDGF102991999999999999999999
0029029350999991923062806004+62233+025733FM-12+009499999V0202701N001019999999N0000001N9+00891+99999100591ADDGF102991999999999999999999
0029029350999991923062813004+62233+025733FM-12+009499999V0202301N001019999999N0000001N9+01611+99999100541ADDGF106991999999999999999999
0035029350999991923062820004+62233+025733FM-12+009499999V0202301N001019999999N0000001N9+01001+99999100381ADDGF108991999999999999999999MW1621
0029029350999991923062906004+62233+025733FM-12+009499999V0203201N003119999999N0000001N9+01061+99999100351ADDGF102991999999999999999999
0029029350999991923062913004+62233+025733FM-12+009499999V0201801N003119999999N0000001N9+01561+99999100381ADDGF105991999999999999999999
0029029350999991923062920004+62233+025733FM-12+009499999V0209991C000019999999N0000001N9+01331+99999100321ADDGF102991999999999999999999
0029029350999991923063006004+62233+025733FM-12+009499999V0209991C000019999999N0000001N9+01171+99999100321ADDGF100991999999999999999999
0029029350999991923063013004+62233+025733FM-12+009499999V0201801N001019999999N0000001N9+01671+99999100321ADDGF106991999999999999999999
0029029350999991923063020004+62233+025733FM-12+009499999V0209991C000019999999N0000001N9+01391+99999100241ADDGF102991999999999999999999
0029029350999991923070106004+62233+025733FM-12+009499999V0209991C000019999999N0000001N9+01391+99999100161ADDGF104991999999999999999999
0029029350999991923070113004+62233+025733FM-12+009499999V0203401N002119999999N0000001N9+01941+99999099961ADDGF106991999999999999999999
0029029350999991923070120004+62233+025733FM-12+009499999V0203601N002119999999N0000001N9+01441+99999099991ADDGF107991999999999999999999
0029029350999991923070206004+62233+025733FM-12+009499999V0202701N003119999999N0000001N9+01391+99999100071ADDGF106991999999999999999999
0029029350999991923070213004+62233+025733FM-12+009499999V0201801N003119999999N0000001N9+01721+99999100161ADDGF106991999999999999999999
0029029350999991923070220004+62233+025733FM-12+009499999V0201401N001019999999N0000001N9+01501+99999100301ADDGF104991999999999999999999
0029029350999991923070306004+62233+025733FM-12+009499999V0209991C000019999999N0000001N9+01441+99999100631ADDGF100991999999999999999999
0029029350999991923070313004+62233+025733FM-12+009499999V0203401N001019999999N0000001N9+02331+99999100621ADDGF101991999999999999999999
0029029350999991923070320004+62233+025733FM-12+009499999V0209991C000019999999N0000001N9+01781+99999100601ADDGF102991999999999999999999
0029029350999991923070406004+62233+025733FM-12+009499999V0209991C000019999999N0000001N9+01721+99999100841ADDGF100991999999999999999999
0029029350999991923070413004+62233+025733FM-12+009499999V0201801N003119999999N0000001N9+02441+99999100831ADDGF103991999999999999999999
0029029350999991923070420004+62233+025733FM-12+009499999V0209991C000019999999N0000001N9+01781+99999100871ADDGF107991999999999999999999
0029029350999991923070506004+62233+025733FM-12+009499999V0209991C000019999999N0000001N9+01721+99999101071ADDGF100991999999999999999999
0029029350999991923070513004+62233+025733FM-12+009499999V0202301N001019999999N0000001N9+02281+99999101101ADDGF105991999999999999999999
0029029350999991923070520004+62233+025733FM-12+009499999V0202501N001019999999N0000001N9+02001+99999101101ADDGF107991999999999999999999
0029029350999991923070606004+62233+025733FM-12+009499999V0209991C000019999999N0000001N9+01721+99999101311ADDGF100991999999999999999999
0029029350999991923070613004+62233+025733FM-12+009499999V0201801N001019999999N0000001N9+02501+99999101191ADDGF103991999999999999999999
0029029350999991923070620004+62233+025733FM-12+009499999V0209991C000019999999N0000001N9+01721+99999101081ADDGF107991999999999999999999
0029029350999991923070706004+62233+025733FM-12+009499999V0209991C000019999999N0000001N9+01671+99999101121ADDGF100991999999999999999999
0029029350999991923070713004+62233+025733FM-12+009499999V0203401N001019999999N0000001N9+02221+99999101001ADDGF104991999999999999999999
0029029350999991923070720004+62233+025733FM-12+009499999V0209991C000019999999N0000001N9+01721+99999100921ADDGF100991999999999999999999
0029029350999991923070806004+62233+025733FM-12+009499999V0209991C000019999999N0000001N9+01441+99999100831ADDGF100991999999999999999999
0029029350999991923070813004+62233+025733FM-12+009499999V0200901N005119999999N0000001N9+02111+99999100801ADDGF105991999999999999999999
0029029350999991923070820004+62233+025733FM-12+009499999V0209991C000019999999N0000001N9+01561+99999101061ADDGF105991999999999999999999
0029029350999991923070906004+62233+025733FM-12+009499999V0209991C000019999999N0000001N9+01391+99999101421ADDGF100991999999999999999999
0029029350999991923070913004+62233+025733FM-12+009499999V0203601N001019999999N0000001N9+02111+99999101381ADDGF102991999999999999999999
0029029350999991923070920004+62233+025733FM-12+009499999V0209991C000019999999N0000001N9+01671+99999101311ADDGF101991999999999999999999
0029029350999991923071006004+62233+025733FM-12+009499999V0209991C000019999999N0000001N9+01441+99999101381ADDGF100991999999999999999999
0029029350999991923071013004+62233+025733FM-12+009499999V0203601N001019999999N0000001N9+02671+99999101181ADDGF100991999999999999999999
0029029350999991923071020004+62233+025733FM-12+009499999V0209991C000019999999N0000001N9+02001+99999101181ADDGF102991999999999999999999
0029029350999991923071106004+62233+025733FM-12+009499999V0209991C000019999999N0000001N9+01721+99999101241ADDGF106991999999999999999999
0029029350999991923071113004+62233+025733FM-12+009499999V0209991C000019999999N0000001N9+02781+99999101121ADDGF104991999999999999999999
0029029350999991923071120004+62233+025733FM-12+009499999V0209991C000019999999N0000001N9+02221+99999100991ADDGF102991999999999999999999
0029029350999991923071206004+62233+025733FM-12+009499999V0209991C000019999999N0000001N9+01831+99999100941ADDGF100991999999999999999999
0029029350999991923071213004+62233+025733FM-12+009499999V0209991C000019999999N0000001N9+02941+99999100641ADDGF102991999999999999999999
0029029350999991923071220004+62233+025733FM-12+009499999V0209991C000019999999N0000001N9+02501+99999100311ADDGF107991999999999999999999
0029029350999991923071306004+62233+025733FM-12+009499999V0209991C000019999999N0000001N9+01941+99999100341ADDGF106991999999999999999999
0029029350999991923071313004+62233+025733FM-12+009499999V0209991C000019999999N0000001N9+02781+99999100081ADDGF102991999999999999999999
0029029350999991923071320004+62233+025733FM-12+009499999V0209991C000019999999N0000001N9+02331+99999099821ADDGF103991999999999999999999
0029029350999991923071406004+62233+025733FM-12+009499999V0203601N003119999999N0000001N9+01561+99999099831ADDGF108991999999999999999999
0029029350999991923071413004+62233+025733FM-12+009499999V0203201N003119999999N0000001N9+01781+99999099701ADDGF106991999999999999999999
0029029350999991923071420004+62233+025733FM-12+009499999V0202901N003119999999N0000001N9+01501+99999099681ADDGF106991999999999999999999
0029029350999991923071506004+62233+025733FM-12+009499999V0203201N003119999999N0000001N9+01391+99999099761ADDGF103991999999999999999999
0029029350999991923071513004+62233+025733FM-12+009499999V0203401N003119999999N0000001N9+01721+99999099921ADDGF104991999999999999999999
0029029350999991923071520004+62233+025733FM-12+009499999V0209991C000019999999N0000001N9+01331+99999100071ADDGF101991999999999999999999
0029029350999991923071606004+62233+025733FM-12+009499999V0209991C000019999999N0000001N9+01221+99999100311ADDGF100991999999999999999999
0029029350999991923071613004+62233+025733FM-12+009499999V0203601N001019999999N0000001N9+02061+99999100301ADDGF102991999999999999999999
0029029350999991923071620004+62233+025733FM-12+009499999V0209991C000019999999N0000001N9+01561+99999100231ADDGF100991999999999999999999
0029029350999991923071706004+62233+025733FM-12+009499999V0209991C000019999999N0000001N9+01391+99999100231ADDGF100991999999999999999999
0029029350999991923071713004+62233+025733FM-12+009499999V0201801N005119999999N0000001N9+02281+99999100111ADDGF102991999999999999999999
0029029350999991923071720004+62233+025733FM-12+009499999V0209991C000019999999N0000001N9+01721+99999999999ADDGF100991999999999999999999
0029029350999991923071806004+62233+025733FM-12+009499999V0209991C000019999999N0000001N9+01611+99999099881ADDGF100991999999999999999999
0029029350999991923071813004+62233+025733FM-12+009499999V0201401N001019999999N0000001N9+01891+99999099881ADDGF106991999999999999999999
0029029350999991923071820004+62233+025733FM-12+009499999V0201401N001019999999N0000001N9+01721+99999099841ADDGF107991999999999999999999
0029029350999991923071906004+62233+025733FM-12+009499999V0209991C000019999999N0000001N9+01501+99999099671ADDGF105991999999999999999999
0035029350999991923071913004+62233+025733FM-12+009499999V0209991C000019999999N0000001N9+01501+99999099631ADDGF108991999999999999999999MW1621
0029029350999991923071920004+62233+025733FM-12+009499999V0209991C000019999999N0000001N9+01441+99999099421ADDGF106991999999999999999999
0029029350999991923072006004+62233+025733FM-12+009499999V0209991C000019999999N0000001N9+01281+99999099221ADDGF108991999999999999999999
0029029350999991923072013004+62233+025733FM-12+009499999V0201801N001019999999N0000001N9+02111+99999099111ADDGF104991999999999999999999
0029029350999991923072020004+62233+025733FM-12+009499999V0209991C000019999999N0000001N9+01501+99999099021ADDGF106991999999999999999999
0029029350999991923072106004+62233+025733FM-12+009499999V0209991C000019999999N0000001N9+01561+99999098821ADDGF103991999999999999999999
0029029350999991923072113004+62233+025733FM-12+009499999V0203601N005119999999N0000001N9+01941+99999098701ADDGF105991999999999999999999
0029029350999991923072120004+62233+025733FM-12+009499999V0209991C000019999999N0000001N9+01391+99999098581ADDGF102991999999999999999999
0029029350999991923072206004+62233+025733FM-12+009499999V0202701N003119999999N0000001N9+01391+99999098321ADDGF103991999999999999999999
0029029350999991923072213004+62233+025733FM-12+009499999V0202501N008219999999N0000001N9+02001+99999098391ADDGF102991999999999999999999
0029029350999991923072220004+62233+025733FM-12+009499999V0209991C000019999999N0000001N9+01391+99999098631ADDGF100991999999999999999999
0029029350999991923072306004+62233+025733FM-12+009499999V0209991C000019999999N0000001N9+01221+99999098751ADDGF100991999999999999999999
0035029350999991923072313004+62233+025733FM-12+009499999V0209991C000019999999N0000001N9+01391+99999098741ADDGF108991999999999999999999MW1621
0029029350999991923072320004+62233+025733FM-12+009499999V0209991C000019999999N0000001N9+01281+99999098511ADDGF104991999999999999999999
0029029350999991923072406004+62233+025733FM-12+009499999V0201801N003119999999N0000001N9+01441+99999098361ADDGF108991999999999999999999
0029029350999991923072413004+62233+025733FM-12+009499999V0201801N001019999999N0000001N9+01501+99999098201ADDGF108991999999999999999999
0029029350999991923072420004+62233+025733FM-12+009499999V0202301N001019999999N0000001N9+01391+99999097871ADDGF107991999999999999999999
0029029350999991923072506004+62233+025733FM-12+009499999V0203601N003119999999N0000001N9+01391+99999097961ADDGF108991999999999999999999
0035029350999991923072513004+62233+025733FM-12+009499999V0202001N003119999999N0000001N9+01331+99999098191ADDGF108991999999999999999999MW1621
0029029350999991923072520004+62233+025733FM-12+009499999V0202001N005119999999N0000001N9+01171+99999098501ADDGF108991999999999999999999
0029029350999991923072606004+62233+025733FM-12+009499999V0209991C000019999999N0000001N9+01221+99999098541ADDGF103991999999999999999999
0029029350999991923072613004+62233+025733FM-12+009499999V0201401N001019999999N0000001N9+01941+99999098471ADDGF103991999999999999999999
0029029350999991923072620004+62233+025733FM-12+009499999V0209991C000019999999N0000001N9+01391+99999098461ADDGF104991999999999999999999
0029029350999991923072706004+62233+025733FM-12+009499999V0209991C000019999999N0000001N9+01331+99999098461ADDGF102991999999999999999999
0029029350999991923072713004+62233+025733FM-12+009499999V0209991C000019999999N0000001N9+02001+99999098391ADDGF103991999999999999999999
0029029350999991923072720004+62233+025733FM-12+009499999V0209991C000019999999N0000001N9+01441+99999098461ADDGF104991999999999999999999
0029029350999991923072806004+62233+025733FM-12+009499999V0209991C000019999999N0000001N9+01561+99999098541ADDGF102991999999999999999999
0029029350999991923072813004+62233+025733FM-12+009499999V0203601N001019999999N0000001N9+02221+99999098511ADDGF102991999999999999999999
0029029350999991923072820004+62233+025733FM-12+009499999V0203601N001019999999N0000001N9+01671+99999098551ADDGF102991999999999999999999
0029029350999991923072906004+62233+025733FM-12+009499999V0209991C000019999999N0000001N9+01391+99999098581ADDGF105991999999999999999999
0029029350999991923072913004+62233+025733FM-12+009499999V0202701N003119999999N0000001N9+02111+99999098591ADDGF106991999999999999999999
0029029350999991923072920004+62233+025733FM-12+009499999V0209991C000019999999N0000001N9+01611+99999098711ADDGF104991999999999999999999
0029029350999991923073006004+62233+025733FM-12+009499999V0209991C000019999999N0000001N9+01331+99999098781ADDGF105991999999999999999999
0029029350999991923073013004+62233+025733FM-12+009499999V0202701N001019999999N0000001N9+01941+99999098681ADDGF103991999999999999999999
0029029350999991923073020004+62233+025733FM-12+009499999V0203601N001019999999N0000001N9+01721+99999098591ADDGF105991999999999999999999
0029029350999991923073106004+62233+025733FM-12+009499999V0209991C000019999999N0000001N9+01331+99999098461ADDGF108991999999999999999999
0029029350999991923073113004+62233+025733FM-12+009499999V0203601N001019999999N0000001N9+01611+99999098461ADDGF107991999999999999999999
0029029350999991923073120004+62233+025733FM-12+009499999V0209991C000019999999N0000001N9+01501+99999098461ADDGF106991999999999999999999
0029029350999991923080106004+62233+025733FM-12+009499999V0209991C000019999999N0000001N9+01391+99999098441ADDGF108991999999999999999999
0029029350999991923080113004+62233+025733FM-12+009499999V0203601N001019999999N0000001N9+01671+99999098621ADDGF107991999999999999999999
0029029350999991923080120004+62233+025733FM-12+009499999V0200501N003119999999N0000001N9+01441+99999098721ADDGF108991999999999999999999
0029029350999991923080206004+62233+025733FM-12+009499999V0200501N005119999999N0000001N9+01221+99999098641ADDGF108991999999999999999999
0029029350999991923080213004+62233+025733FM-12+009499999V0200501N005119999999N0000001N9+01281+99999098701ADDGF108991999999999999999999
0029029350999991923080220004+62233+025733FM-12+009499999V0200501N005119999999N0000001N9+01221+99999098981ADDGF108991999999999999999999
0029029350999991923080306004+62233+025733FM-12+009499999V0200501N001019999999N0000001N9+01061+99999099421ADDGF108991999999999999999999
0029029350999991923080313004+62233+025733FM-12+009499999V0200501N001019999999N0000001N9+01721+99999099661ADDGF101991999999999999999999
0029029350999991923080320004+62233+025733FM-12+009499999V0200201N001019999999N0000001N9+01221+99999099861ADDGF103991999999999999999999
0029029350999991923080406004+62233+025733FM-12+009499999V0200201N001019999999N0000001N9+01221+99999099951ADDGF102991999999999999999999
0029029350999991923080413004+62233+025733FM-12+009499999V0201101N001019999999N0000001N9+01721+99999099871ADDGF106991999999999999999999
0029029350999991923080420004+62233+025733FM-12+009499999V0209991C000019999999N0000001N9+01391+99999099831ADDGF108991999999999999999999
0029029350999991923080506004+62233+025733FM-12+009499999V0209991C000019999999N0000001N9+01111+99999100081ADDGF100991999999999999999999
0029029350999991923080513004+62233+025733FM-12+009499999V0200501N003119999999N0000001N9+01781+99999100081ADDGF103991999999999999999999
0029029350999991923080520004+62233+025733FM-12+009499999V0209991C000019999999N0000001N9+01281+99999999999ADDGF100991999999999999999999
0029029350999991923080606004+62233+025733FM-12+009499999V0203401N001019999999N0000001N9+01221+99999099991ADDGF102991999999999999999999
0029029350999991923080613004+62233+025733FM-12+009499999V0203401N001019999999N0000001N9+01831+99999099881ADDGF104991999999999999999999
0029029350999991923080620004+62233+025733FM-12+009499999V0209991C000019999999N0000001N9+01391+99999099881ADDGF100991999999999999999999
0029029350999991923080706004+62233+025733FM-12+009499999V0209991C000019999999N0000001N9+01001+99999100041ADDGF100991999999999999999999
0029029350999991923080713004+62233+025733FM-12+009499999V0209991C000019999999N0000001N9+01891+99999099961ADDGF100991999999999999999999
0029029350999991923080720004+62233+025733FM-12+009499999V0209991C000019999999N0000001N9+01221+99999099841ADDGF100991999999999999999999
0029029350999991923080806004+62233+025733FM-12+009499999V0203601N001019999999N0000001N9+01111+99999099901ADDGF100991999999999999999999
0029029350999991923080813004+62233+025733FM-12+009499999V0203601N005119999999N0000001N9+01781+99999099791ADDGF103991999999999999999999
0029029350999991923080820004+62233+025733FM-12+009499999V0209991C000019999999N0000001N9+01281+99999099801ADDGF100991999999999999999999
0029029350999991923080906004+62233+025733FM-12+009499999V0203601N001019999999N0000001N9+01171+99999099991ADDGF100991999999999999999999
0029029350999991923080913004+62233+025733FM-12+009499999V0203601N001019999999N0000001N9+02001+99999999999ADDGF100991999999999999999999
0029029350999991923080920004+62233+025733FM-12+009499999V0209991C000019999999N0000001N9+01331+99999099981ADDGF107991999999999999999999
0035029350999991923081006004+62233+025733FM-12+009499999V0203401N001019999999N0000001N9+01171+99999099441ADDGF108991999999999999999999MW1621
0035029350999991923081013004+62233+025733FM-12+009499999V0201601N001019999999N0000001N9+01221+99999099041ADDGF108991999999999999999999MW1621
0035029350999991923081020004+62233+025733FM-12+009499999V0201601N001019999999N0000001N9+01171+99999098681ADDGF108991999999999999999999MW1621
0035029350999991923081106004+62233+025733FM-12+009499999V0209991C000019999999N0000001N9+01221+99999098471ADDGF108991999999999999999999MW1621
0035029350999991923081113004+62233+025733FM-12+009499999V0209991C000019999999N0000001N9+01281+99999098781ADDGF108991999999999999999999MW1621
0035029350999991923081120004+62233+025733FM-12+009499999V0200201N001019999999N0000001N9+01001+99999099221ADDGF108991999999999999999999MW1621
0029029350999991923081206004+62233+025733FM-12+009499999V0203601N003119999999N0000001N9+00941+99999099671ADDGF108991999999999999999999
0029029350999991923081213004+62233+025733FM-12+009499999V0200201N003119999999N0000001N9+01001+99999099981ADDGF108991999999999999999999
0029029350999991923081220004+62233+025733FM-12+009499999V0209991C000019999999N0000001N9+00781+99999100181ADDGF108991999999999999999999
0029029350999991923081306004+62233+025733FM-12+009499999V0203601N001019999999N0000001N9+01061+99999100231ADDGF100991999999999999999999
0029029350999991923081313004+62233+025733FM-12+009499999V0203601N003119999999N0000001N9+01831+99999100161ADDGF105991999999999999999999
0029029350999991923081320004+62233+025733FM-12+009499999V0209991C000019999999N0000001N9+01061+99999100101ADDGF102991999999999999999999
0029029350999991923081406004+62233+025733FM-12+009499999V0200201N001019999999N0000001N9+01001+99999099941ADDGF100991999999999999999999
0029029350999991923081413004+62233+025733FM-12+009499999V0203601N001019999999N0000001N9+01671+99999099801ADDGF105991999999999999999999
0029029350999991923081420004+62233+025733FM-12+009499999V0209991C000019999999N0000001N9+01061+99999099761ADDGF101991999999999999999999
0029029350999991923081506004+62233+025733FM-12+009499999V0209991C000019999999N0000001N9+00891+99999099631ADDGF106991999999999999999999
0029029350999991923081513004+62233+025733FM-12+009499999V0201401N003119999999N0000001N9+01561+99999099381ADDGF107991999999999999999999
0029029350999991923081520004+62233+025733FM-12+009499999V0209991C000019999999N0000001N9+01171+99999099141ADDGF108991999999999999999999
0035029350999991923081606004+62233+025733FM-12+009499999V0209991C000019999999N0000001N9+01111+99999098661ADDGF108991999999999999999999MW1621
0035029350999991923081613004+62233+025733FM-12+009499999V0203601N005119999999N0000001N9+01441+99999098181ADDGF108991999999999999999999MW1621
0035029350999991923081620004+62233+025733FM-12+009499999V0203601N005119999999N0000001N9+01111+99999097681ADDGF108991999999999999999999MW1621
0029029350999991923081706004+62233+025733FM-12+009499999V0203601N007219999999N0000001N9+00941+99999097361ADDGF108991999999999999999999
0029029350999991923081713004+62233+025733FM-12+009499999V0200201N005119999999N0000001N9+01171+99999097881ADDGF108991999999999999999999
0029029350999991923081720004+62233+025733FM-12+009499999V0209991C000019999999N0000001N9+01001+99999098241ADDGF106991999999999999999999
0029029350999991923081806004+62233+025733FM-12+009499999V0203601N005119999999N0000001N9+00831+99999098401ADDGF108991999999999999999999
0029029350999991923081813004+62233+025733FM-12+009499999V0209991C000019999999N0000001N9+01171+99999098621ADDGF105991999999999999999999
0029029350999991923081820004+62233+025733FM-12+009499999V0209991C000019999999N0000001N9+00891+99999098761ADDGF108991999999999999999999
0029029350999991923081906004+62233+025733FM-12+009499999V0203601N003119999999N0000001N9+01001+99999099041ADDGF108991999999999999999999
0029029350999991923081913004+62233+025733FM-12+009499999V0203601N003119999999N0000001N9+01111+99999099301ADDGF107991999999999999999999
0029029350999991923081920004+62233+025733FM-12+009499999V0209991C000019999999N0000001N9+00941+99999099401ADDGF108991999999999999999999
0029029350999991923082006004+62233+025733FM-12+009499999V0209991C000019999999N0000001N9+00891+99999099561ADDGF106991999999999999999999
0029029350999991923082013004+62233+025733FM-12+009499999V0209991C000019999999N0000001N9+01281+99999099551ADDGF106991999999999999999999
0029029350999991923082020004+62233+025733FM-12+009499999V0209991C000019999999N0000001N9+00891+99999099541ADDGF102991999999999999999999
0029029350999991923082106004+62233+025733FM-12+009499999V0209991C000019999999N0000001N9+00941+99999099541ADDGF106991999999999999999999
0029029350999991923082113004+62233+025733FM-12+009499999V0200201N005119999999N0000001N9+01441+99999099621ADDGF104991999999999999999999
0029029350999991923082120004+62233+025733FM-12+009499999V0209991C000019999999N0000001N9+00891+99999099671ADDGF100991999999999999999999
0029029350999991923082206004+62233+025733FM-12+009499999V0209991C000019999999N0000001N9+00561+99999099981ADDGF103991999999999999999999
0029029350999991923082213004+62233+025733FM-12+009499999V0201801N003119999999N0000001N9+01781+99999099951ADDGF101991999999999999999999
0029029350999991923082220004+62233+025733FM-12+009499999V0209991C000019999999N0000001N9+01171+99999099761ADDGF100991999999999999999999
0035029350999991923082306004+62233+025733FM-12+009499999V0201101N003119999999N0000001N9+01221+99999099151ADDGF108991999999999999999999MW1621
0029029350999991923082313004+62233+025733FM-12+009499999V0202701N001019999999N0000001N9+01781+99999099201ADDGF105991999999999999999999
0029029350999991923082320004+62233+025733FM-12+009499999V0202501N001019999999N0000001N9+01111+99999099421ADDGF102991999999999999999999
0029029350999991923082406004+62233+025733FM-12+009499999V0200901N001019999999N0000001N9+01111+99999099511ADDGF108991999999999999999999
0029029350999991923082413004+62233+025733FM-12+009499999V0202701N003119999999N0000001N9+01611+99999099541ADDGF108991999999999999999999
0029029350999991923082420004+62233+025733FM-12+009499999V0209991C000019999999N0000001N9+01171+99999099701ADDGF100991999999999999999999
0029029350999991923082506004+62233+025733FM-12+009499999V0209991C000019999999N0000001N9+01171+99999099951ADDGF106991999999999999999999
0029029350999991923082513004+62233+025733FM-12+009499999V0201401N005119999999N0000001N9+01721+99999100041ADDGF108991999999999999999999
0029029350999991923082520004+62233+025733FM-12+009499999V0201401N005119999999N0000001N9+01391+99999099801ADDGF103991999999999999999999
0035029350999991923082606004+62233+025733FM-12+009499999V0201801N003119999999N0000001N9+01281+99999099081ADDGF108991999999999999999999MW1621
0029029350999991923082613004+62233+025733FM-12+009499999V0201801N003119999999N0000001N9+01781+99999099191ADDGF105991999999999999999999
0029029350999991923082620004+62233+025733FM-12+009499999V0201801N003119999999N0000001N9+01281+99999099441ADDGF108991999999999999999999
0029029350999991923082706004+62233+025733FM-12+009499999V0202301N003119999999N0000001N9+01171+99999099701ADDGF102991999999999999999999
0029029350999991923082713004+62233+025733FM-12+009499999V0202301N003119999999N0000001N9+01831+99999099861ADDGF108991999999999999999999
0035029350999991923082720004+62233+025733FM-12+009499999V0201801N005119999999N0000001N9+01331+99999099831ADDGF108991999999999999999999MW1621
0035029350999991923082806004+62233+025733FM-12+009499999V0209991C000019999999N0000001N9+01221+99999099631ADDGF108991999999999999999999MW1621
0029029350999991923082813004+62233+025733FM-12+009499999V0201801N003119999999N0000001N9+01941+99999099391ADDGF108991999999999999999999
0029029350999991923082820004+62233+025733FM-12+009499999V0209991C000019999999N0000001N9+01561+99999099201ADDGF108991999999999999999999
0029029350999991923082906004+62233+025733FM-12+009499999V0209991C000019999999N0000001N9+01281+99999099461ADDGF108991999999999999999999
0029029350999991923082913004+62233+025733FM-12+009499999V0201401N003119999999N0000001N9+01561+99999099741ADDGF108991999999999999999999
0029029350999991923082920004+62233+025733FM-12+009499999V0209991C000019999999N0000001N9+01111+99999099881ADDGF100991999999999999999999
0029029350999991923083006004+62233+025733FM-12+009499999V0209991C000019999999N0000001N9+01111+99999100121ADDGF108991999999999999999999
0029029350999991923083013004+62233+025733FM-12+009499999V0201401N005119999999N0000001N9+01721+99999100151ADDGF103991999999999999999999
0029029350999991923083020004+62233+025733FM-12+009499999V0209991C000019999999N0000001N9+01221+99999100201ADDGF108991999999999999999999
0035029350999991923083106004+62233+025733FM-12+009499999V0209991C000019999999N0000001N9+01171+99999099781ADDGF108991999999999999999999MW1621
0029029350999991923083113004+62233+025733FM-12+009499999V0201401N003119999999N0000001N9+01501+99999099681ADDGF105991999999999999999999
0029029350999991923083120004+62233+025733FM-12+009499999V0201801N003119999999N0000001N9+01171+99999099521ADDGF108991999999999999999999
0029029350999991923090106004+62233+025733FM-12+009499999V0202701N003119999999N0000001N9+01171+99999099481ADDGF106991999999999999999999
0029029350999991923090113004+62233+025733FM-12+009499999V0201401N005119999999N0000001N9+01501+99999100151ADDGF108991999999999999999999
0029029350999991923090120004+62233+025733FM-12+009499999V0209991C000019999999N0000001N9+01221+99999100541ADDGF108991999999999999999999
0035029350999991923090206004+62233+025733FM-12+009499999V0203601N003119999999N0000001N9+01111+99999099741ADDGF108991999999999999999999MW1621
0035029350999991923090213004+62233+025733FM-12+009499999V0201601N004119999999N0000001N9+01331+99999099261ADDGF108991999999999999999999MW1621
0029029350999991923090220004+62233+025733FM-12+009499999V0201801N001019999999N0000001N9+01111+99999099471ADDGF108991999999999999999999
0029029350999991923090306004+62233+025733FM-12+009499999V0203601N007219999999N0000001N9+01061+99999099461ADDGF108991999999999999999999
