0081014270999991929010106004+58100+006567FM-12+000999999V0203401N00671220001CN0500001N9+00111+99999101271ADDAA199001091AY161999GF102991999001999999021001MD1310261+9999EQDQ01+000002SCOTLC
0051014270999991929010306004+58100+006567FM-12+000999999V0200701N00101220001CN0500001N9-00611+99999103701ADDAY101999GF101991999999999999999999MD1310061+9999
0051014270999991929010406004+58100+006567FM-12+000999999V0200701N00101220001CN0500001N9-00611+99999103311ADDAY101999GF102991999999999999999021MD1510001+9999
0072014270999991929010506004+58100+006567FM-12+000999999V0200201N00261075001CN0200001N9-00281+99999103541ADDAY111999GF108991021051008001001081EQDQ01+000032APCTENQ02+000002APC3  
0089014270999991929010606004+58100+006567FM-12+000999999V0200901N00931004501CN0200001N9+00001+99999103491ADDAA199000691AY161999GF108991081061004501999999MW1711EQDQ01+000032APCTENQ02+000002APC3  
0088014270999991929010706004+58100+006567FM-12+000999999V0200701N006719999999N0200001N9-00111+99999103531ADDAY111999GF106991999061008001001001EQDQ01+000042SCOTLCQ02+000022APCTENQ03+000002APC3  
0051014270999991929010806004+58100+006567FM-12+000999999V0200701N00671007801CN0200001N9+00001+99999104341ADDAY121999GF108991081061008001999999MD1310201+9999
0051014270999991929010906004+58100+006567FM-12+000999999V0200901N00671007801CN0200001N9+00001+99999104631ADDAY121999GF108991081061008001999999MD1810061+9999
0051014270999991929011006004+58100+006567FM-12+000999999V0200701N00671007801CN0200001N9-00111+99999104121ADDAY121999GF108991081061008001999999MD1810061+9999
0051014270999991929011106004+58100+006567FM-12+000999999V0209991C00001220001CN0500001N9-00221+99999104261ADDAY101999GF101991999999999999999999MD1810061+9999
0051014270999991929011206004+58100+006567FM-12+000999999V0200501N00101220001CN0500001N9-00221+99999103441ADDAY101999GF104991001001999999021081MD1810061+9999
0037014270999991929011406004+58100+006567FM-12+000999999V0200501N00261220001CN0500001N9-00221+99999102301ADDAY101999GF100991001001999999001001
0083014270999991929011506004+58100+006567FM-12+000999999V0200201N00671220001CN0500001N9-00111+99999099601ADDAA199006091AY171999GF102991999999999999001001EQDQ01+000072APCTENQ02+000002APC3  
0051014270999991929011606004+58100+006567FM-12+000999999V0203201N00671220001CN0500001N9-00891+99999100711ADDAY101999GF101991999999999999999999MD1010061+9999
0051014270999991929011706004+58100+006567FM-12+000999999V0200501N00671220001CN0500001N9-01001+99999100801ADDAY101999GF101991999999999999999999MD1310141+9999
0081014270999991929011806004+58100+006567FM-12+000999999V0202701N02261002401CN0040001N9+00391+99999999999ADDAA199001091AY171999GF108991081061002501999999MD1810401+9999EQDQ01+000001APOSP 
0062014270999991929011906004+58100+006567FM-12+000999999V0203201N004619999999N0200001N9+00221+99999101401ADDAA199000691AY111999GF106991999999999999001001MD1310261+9999
0057014270999991929012006004+58100+006567FM-12+000999999V0201101N00671004501CN0100001N9+00001+99999102431ADDAY171999GF108991081061004501999999MD1310061+9999MW1231
0051014270999991929012106004+58100+006567FM-12+000999999V0200901N002619999999N0040001N9+00111+99999102591ADDAY141999GF106991999999999999999999MD1310061+9999
0068014270999991929012206004+58100+006567FM-12+000999999V0209991C00001002401CN0040001N9+00111+99999102521ADDAA199000391AY161999GF108991081061002501999999MD1810061+9999MW1511
0072014270999991929012306004+58100+006567FM-12+000999999V0200501N00261012301CN0200001N9+00001+99999102611ADDAY111999GF106991061051012501001001EQDQ01+000012APCTENQ02+000002APC3  
0068014270999991929012406004+58100+006567FM-12+000999999V0200701N00461007801CN0200001N9-00221+99999102471ADDAA199000691AY171999GF106991061061008001001001MD1310061+9999MW1161
0051014270999991929012506004+58100+006567FM-12+000999999V0200501N00261015001CN0200001N9-00501+99999102031ADDAY111999GF108991081051017501999999MD1810141+9999
0051014270999991929012606004+58100+006567FM-12+000999999V0200501N002619999999N0200001N9-00501+99999102121ADDAY121999GF108991999999999999021001MD1310061+9999
0072014270999991929012806004+58100+006567FM-12+000999999V0200501N002619999999N0200001N9-00501+99999101801ADDAY111999GF106991999999999999021001EQDQ01+000032APCTENQ02+000002APC3  
0051014270999991929012906004+58100+006567FM-12+000999999V0201101N00261007801CN0200001N9-00111+99999102431ADDAY111999GF108991081061008001999999MD1310141+9999
0062014270999991929013006004+58100+006567FM-12+000999999V0201401N01231002401CN0100001N9+00001+99999102911ADDAA199001091AY121999GF108991081061002501999999MD1310061+9999
0089014270999991929013106004+58100+006567FM-12+000999999V0201101N015419999999N0100001N9+00001+99999102931ADDAA199004091AY171999GF108991999999999999001001MW1211EQDQ01+000032APCTENQ02+000002APC3  
0051014270999991929020106004+58100+006567FM-12+000999999V0201101N01231002401CN0100001N9-00111+99999102751ADDAY121999GF108991081061002501999999MD1810061+9999
0051014270999991929020206004+58100+006567FM-12+000999999V0201101N01541220001CN0200001N9-00281+99999102561ADDAY101999GF102991999999999999999999MD1710061+9999
0072014270999991929020306004+58100+006567FM-12+000999999V0200901N00931220001CN0200001N9-00391+99999102671ADDAY111999GF104991041051012501001001EQDQ01+000032APCTENQ02+000002APC3  
0051014270999991929020406004+58100+006567FM-12+000999999V0200701N00461012301CN0200001N9-00391+99999102161ADDAY111999GF108991081051012501999999MD1810201+9999
0062014270999991929020506004+58100+006567FM-12+000999999V0200701N01541007801CN0200001N9-00221+99999102081ADDAA199001091AY171999GF107991071061008001001001MD1310201+9999
0051014270999991929020606004+58100+006567FM-12+000999999V0200901N00461012301CN0200001N9-00221+99999102921ADDAY121999GF108991081051012501999999MD1410001+9999
0081014270999991929020706004+58100+006567FM-12+000999999V0200701N002619999999N0200001N9-00221+99999103281ADDAA199000691AY121999GF108991999061012501001001MD1810061+9999EQDQ01+000042SCOTLC
0051014270999991929020806004+58100+006567FM-12+000999999V0200901N00461007801CN0200001N9+00001+99999102471ADDAY121999GF108991081061008001999999MD1810141+9999
0068014270999991929020906004+58100+006567FM-12+000999999V0200901N00931002401CN0040001N9-00111+99999102231ADDAA199000691AY171999GF108991081061002501999999MD1810061+9999MW1711
0068014270999991929021006004+58100+006567FM-12+000999999V0201401N015419999999N0040001N9-00611+99999102421ADDAA199000391AY171999GF108991999999999999001001MD1310201+9999MW1701
0068014270999991929021106004+58100+006567FM-12+000999999V0201401N01231004501CN0040001N9-00611+99999103321ADDAA199000691AY171999GF108991081061004501999999MD1310061+9999MW1701
0083014270999991929021206004+58100+006567FM-12+000999999V0200701N015419999999N0200001N9-00891+99999103141ADDAA199000691AY111999GF106991999999999999031001EQDQ01+000022APCTENQ02+000002APC3  
0081014270999991929021306004+58100+006567FM-12+000999999V0200501N004619999999N0200001N9-00721+99999102601ADDAA199000691AY101999GF108991999061008001001001MD1810261+9999EQDQ01+000042SCOTLC
0062014270999991929021406004+58100+006567FM-12+000999999V0200701N01231030001CN0200001N9-00721+99999102401ADDAA199000691AY171999GF107991041061008001021001MD1210061+9999
0068014270999991929021506004+58100+006567FM-12+000999999V0200701N01901004501CN0200001N9-00611+99999102071ADDAA199000691AY171999GF108991081061004501999999MD1310061+9999MW1711
0068014270999991929021606004+58100+006567FM-12+000999999V0200701N022619999999N0020001N9-00781+99999101871ADDAA199000691AY171999GF108991999999999999001001MD1310201+9999MW1711
0068014270999991929021706004+58100+006567FM-12+000999999V0200701N01231002401CN0040001N9-00721+99999102701ADDAA199000691AY171999GF108991081061002501999999MD1310141+9999MW1701
0078014270999991929021806004+58100+006567FM-12+000999999V0200701N01231004501CN0100001N9-00391+99999103321ADDAY171999GF108991081061004501999999MW1231EQDQ01+000022APCTENQ02+000002APC3  
0083014270999991929021906004+58100+006567FM-12+000999999V0200701N00931004501CN0200001N9-00391+99999103541ADDAA199000691AY171999GF108991081061004501999999EQDQ01+000042APCTENQ02+000062APC3  
0072014270999991929022006004+58100+006567FM-12+000999999V0200701N00671012301CN0200001N9-00281+99999103861ADDAY121999GF107991071051012501001001EQDQ01+000032APCTENQ02+000002APC3  
0051014270999991929022106004+58100+006567FM-12+000999999V0201601N00671007801CN0200001N9+00001+99999103501ADDAY111999GF108991081051008001999999MD1810261+9999
0068014270999991929022206004+58100+006567FM-12+000999999V0202701N006719999999N0005001N9+00281+99999101441ADDAA199002091AY141999GF108991999999999999001001MD1810401+9999MW1611
0051014270999991929022306004+58100+006567FM-12+000999999V0200901N01231012301CN0200001N9-00221+99999101311ADDAY121999GF108991081051012501999999MD1310061+9999
0051014270999991929022406004+58100+006567FM-12+000999999V0200701N01541012301CN0200001N9-00891+99999102031ADDAY111999GF108991081051012501999999MD1210061+9999
0051014270999991929022506004+58100+006567FM-12+000999999V0200701N00931007801CN0200001N9-01111+99999102331ADDAY121999GF108991081061008001999999MD1310141+9999
0051014270999991929022606004+58100+006567FM-12+000999999V0200901N00461220001CN0200001N9-01221+99999102381ADDAY101999GF102991999999999999001001MD1210061+9999
0051014270999991929022706004+58100+006567FM-12+000999999V0200501N00261220001CN0200001N9-00891+99999102611ADDAY101999GF101991011011012501001001MD1310141+9999
0051014270999991929022806004+58100+006567FM-12+000999999V0203201N00671220001CN0500001N9-00281+99999103401ADDAY101999GF101991999999999999001001MD1310201+9999
