0062011060999991930010106004+67500+012067FM-12+001199999V0202301N00671012301CN0200001N9+00391+99999098391ADDAA199000691AY111999GF107991061011012501021001MD1310061+9999
0057011060999991930010112004+67500+012067FM-12+001199999V0201801N00261030001CN0100001N9+00281+99999098351ADDAY161999GF108991021061008001021001MD1810061+9999MW1211
0087011060999991930010206004+67500+012067FM-12+001199999V0202001N00931220001CN0100001N9+00281+99999098501ADDAA199001091AY181999GF104991999011008001001001MD1310061+9999MW1831EQDQ01+000022SCOTLC
0068011060999991930010306004+67500+012067FM-12+001199999V0202301N01541030001CN0100001N9+00501+99999098331ADDAA199005091AY181999GF108991021061012501021001MD1610061+9999MW1901
0057011060999991930010312004+67500+012067FM-12+001199999V0201801N01231030001CN0200001N9+00501+99999098131ADDAY181999GF108991041011008001021001MD1810341+9999MW1541
0087011060999991930010406004+67500+012067FM-12+001199999V0202001N012319999999N0100001N9+00391+99999097531ADDAA199003091AY161999GF106991999011008001001001MD1710061+9999MW1621EQDQ01+000042SCOTLC
0051011060999991930010412004+67500+012067FM-12+001199999V0201601N01231075001CN0500001N9+00391+99999097431ADDAY111999GF106991021011012501001081MD1810061+9999
0068011060999991930010506004+67500+012067FM-12+001199999V0203201N01541007801CN0040001N9+00391+99999098111ADDAA199002091AY171999GF108991081061008001999999MD1310061+9999MW1681
0092011060999991930010512004+67500+012067FM-12+001199999V0202501N006719999999N0100001N9+00391+99999099072ADDAY181999GF106991999011008001001001MD1210461+9999MW1161EQDQ01+000042SCOTLCQ02+099073APOSLP
0062011060999991930010606004+67500+012067FM-12+001199999V0201401N00671012301CN0040001N9+00221+99999098471ADDAY161999GF108991999061012501001001MW1601EQDQ01+000072SCOTLC
0078011060999991930010612004+67500+012067FM-12+001199999V0200901N002619999999N0500001N9+00111+99999098391ADDAY161999GF108991999999017501999999MW1211EQDQ01+000082APCTENQ02+000002APC3  
0051011060999991930010706004+67500+012067FM-12+001199999V0202301N00261220001CN0500001N9+00221+99999098911ADDAY111999GF102991021011012501001001MD1310201+9999
0057011060999991930010712004+67500+012067FM-12+001199999V0202301N00671075001CN0200001N9+00281+99999099041ADDAY181999GF106991021011012501001081MD1310061+9999MW1211
0087011060999991930010806004+67500+012067FM-12+001199999V0202301N01901220001CN0100001N9+00501+99999098271ADDAA199007091AY181999GF104991999011008001001001MD1510061+9999MW1801EQDQ01+000022SCOTLC
0051011060999991930010812004+67500+012067FM-12+001199999V0202001N01231030001CN0100001N9+00501+99999098521ADDAY161999GF108991021011012501021001MD1010001+9999
0068011060999991930010906004+67500+012067FM-12+001199999V0202001N01231220001CN0200001N9+00391+99999098231ADDAA199001091AY181999GF104991021061008001021001MD1810061+9999MW1801
0057011060999991930010912004+67500+012067FM-12+001199999V0202301N01541030001CN0100001N9+00501+99999098271ADDAY181999GF108991041061008001021001MD1010061+9999MW1811
0105011060999991930011006004+67500+012067FM-12+001199999V0202301N012319999999N0100001N9+00501+99999098301ADDAA199002091AY161999GF108991999011008001001001MW1621EQDQ01+000042SCOTLCQ02+000032APCTENQ03+000002APC3  
0057011060999991930011012004+67500+012067FM-12+001199999V0202301N01231030001CN0100001N9+00391+99999098261ADDAY181999GF107991041061008001021001MD1210061+9999MW1621
0105011060999991930011106004+67500+012067FM-12+001199999V0202001N009319999999N0100001N9+00391+99999098191ADDAA199007091AY181999GF107991999011008001001001MW1831EQDQ01+000022SCOTLCQ02+000042APCTENQ03+000062APC3  
0089011060999991930011206004+67500+012067FM-12+001199999V0201801N00931030001CN0040001N9+00281+99999097831ADDAA199003091AY181999GF108991041061008001021001MW1811EQDQ01+000042APCTENQ02+000062APC3  
0051011060999991930011212004+67500+012067FM-12+001199999V0201801N01541012301CN0200001N9+00501+99999098121ADDAY181999GF107991061011012501001081MD1210261+9999
0072011060999991930011306004+67500+012067FM-12+001199999V0201601N00931030001CN0500001N9+00501+99999098161ADDAY121999GF108991021011017501021001EQDQ01+000022APCTENQ02+000002APC3  
0051011060999991930011312004+67500+012067FM-12+001199999V0201801N00931030001CN0500001N9+00391+99999098381ADDAY121999GF106991021011017501021001MD1310141+9999
0068011060999991930011406004+67500+012067FM-12+001199999V0201801N01901030001CN0100001N9+00391+99999098901ADDAA199003091AY161999GF108991041061008001021001MD1110061+9999MW1621
0076011060999991930011412004+67500+012067FM-12+001199999V0201801N015419999999N0100001N9+00501+99999099001ADDAY181999GF106991999011008001001001MD1210061+9999MW1901EQDQ01+000042SCOTLC
0068011060999991930011506004+67500+012067FM-12+001199999V0201801N01541007801CN0040001N9+00221+99999099171ADDAA199003091AY181999GF108991081061008001999999MD1210141+9999MW1801
0051011060999991930011512004+67500+012067FM-12+001199999V0202001N01541030001CN0200001N9+00391+99999099361ADDAY121999GF108991021011012501021001MD1310141+9999
0087011060999991930011606004+67500+012067FM-12+001199999V0202501N019019999999N0200001N9+00281+99999099771ADDAA199001091AY181999GF108991999061012501001001MD1310261+9999MW1811EQDQ01+000042SCOTLC
0108011060999991930011612004+67500+012067FM-12+001199999V0202701N012319999999N0200001N9+00281+99999100662ADDAY181999GF107991999011008001001001MD1210602+9999MW1831EQDQ01+000042SCOTLCQ02+100663APOSLPQ03+000602APC3  
0068011060999991930011706004+67500+012067FM-12+001199999V0201801N00671030001CN0200001N9+00281+99999102161ADDAA199002091AY181999GF106991041011012501021001MD1990141+9999MW1231
0051011060999991930011712004+67500+012067FM-12+001199999V0201801N019019999999N0200001N9+00501+99999101571ADDAY161999GF108991999999012501999999MD1810461+9999
0068011060999991930011806004+67500+012067FM-12+001199999V0201801N01901030001CN0040001N9+00611+99999099871ADDAA199004091AY161999GF108991041061008001021001MD1710261+9999MW1631
0057011060999991930011812004+67500+012067FM-12+001199999V0202001N01541030001CN0040001N9+00721+99999099501ADDAY161999GF108991041061008001021001MD1810261+9999MW1621
0057011060999991930011912004+67500+012067FM-12+001199999V0202301N02261007801CN0040001N9+00611+99999098911ADDAY161999GF108991081061008001999999MD1810261+9999MW1621
0087011060999991930012006004+67500+012067FM-12+001199999V0202301N019019999999N0200001N9+00611+99999097681ADDAA199007091AY181999GF106991999011008001001001MD1710261+9999MW1801EQDQ01+000042SCOTLC
0057011060999991930012012004+67500+012067FM-12+001199999V0202001N022619999999N0020001N9+00501+99999097571ADDAY181999GF108991999999008001999999MD1210061+9999MW1801
0103011060999991930012106004+67500+012067FM-12+001199999V0203201N019019999999N0200001N9+00221+99999099371ADDAA199001091AY181999GF107991999011004501001001MD1310602+9999MW1891EQDQ01+000042SCOTLCQ02+000602APC3  
0108011060999991930012112004+67500+012067FM-12+001199999V0202901N015419999999N0100001N9+00111+99999100242ADDAY181999GF106991999011008001001001MD1310542+9999MW1851EQDQ01+000042SCOTLCQ02+100243APOSLPQ03+000542APC3  
0105011060999991930012206004+67500+012067FM-12+001199999V0202301N00261007801CN0200001N9+00001+99999101411ADDAA199000391AY181999GF107991999011008001001001MW1891EQDQ01+000062SCOTLCQ02+000032APCTENQ03+000002APC3  
0057011060999991930012212004+67500+012067FM-12+001199999V0201801N00931007801CN0100001N9+00221+99999101201ADDAY171999GF108991081061008001999999MD1810261+9999MW1681
0089011060999991930012306004+67500+012067FM-12+001199999V0202301N00671030001CN0100001N9+00281+99999100421ADDAA199004091AY161999GF106991041061008001021001MW1801EQDQ01+000042APCTENQ02+000062APC3  
0078011060999991930012312004+67500+012067FM-12+001199999V0202701N01231007801CN0040001N9+00221+99999100401ADDAY181999GF108991061061008001001081MW1831EQDQ01+000022APCTENQ02+000002APC3  
0051011060999991930012406004+67500+012067FM-12+001199999V0201601N00461030001CN0500001N9+00281+99999100151ADDAY111999GF108991041051012501021001MD1310061+9999
0051011060999991930012412004+67500+012067FM-12+001199999V0202301N00461030001CN0500001N9+00501+99999100381ADDAY111999GF107991021011012501021001MD1310141+9999
0051011060999991930012506004+67500+012067FM-12+001199999V0201401N00261220001CN0500001N9+00281+99999100901ADDAY111999GF104991021011012501021001MD1310061+9999
0057011060999991930012512004+67500+012067FM-12+001199999V0200901N00931075001CN0500001N9+00281+99999100991ADDAY181999GF106991041011012501001021MD1010001+9999MW1211
0051011060999991930012606004+67500+012067FM-12+001199999V0200501N01231220001CN0500001N9+00221+99999100501ADDAY101999GF102991999999022501999999MD1710141+9999
0051011060999991930012612004+67500+012067FM-12+001199999V0200501N012319999999N0500001N9+00111+99999100291ADDAY101999GF106991999999017501999999MD1810201+9999
0051011060999991930012706004+67500+012067FM-12+001199999V0200901N00931220001CN0500001N9+00001+99999100501ADDAY101999GF101991999999017501999999MD1310261+9999
0070011060999991930012712004+67500+012067FM-12+001199999V0200901N009319999999N0500001N9+00001+99999100871ADDAY111999GF106991999011017501001001MD1310341+9999EQDQ01+000022SCOTLC
0051011060999991930012806004+67500+012067FM-12+001199999V0200901N00931220001CN0500001N9-00281+99999101131ADDAY111999GF104991011011017501021001MD1710061+9999
0051011060999991930012812004+67500+012067FM-12+001199999V0200901N00931220001CN0500001N9-00281+99999101011ADDAY101999GF102991011011017501001021MD1810141+9999
0051011060999991930012906004+67500+012067FM-12+001199999V0200701N00671030001CN0500001N9-00111+99999101101ADDAY111999GF107991021011012501021001MD1310061+9999
0051011060999991930012912004+67500+012067FM-12+001199999V0200901N00461012301CN0500001N9-00111+99999101281ADDAY111999GF107991061051012501031001MD1310141+9999
0037011060999991930013006004+67500+012067FM-12+001199999V0200701N006719999999N0500001N9-00221+99999100271ADDAY111999GF106991999999012501999999
0088011060999991930013012004+67500+012067FM-12+001199999V0200901N00671220001CN0500001N9-00221+99999101282ADDAY111999GF104991041051017501001001EQDQ01+101283APOSLPQ02+000032APCTENQ03+000002APC3  
0070011060999991930013106004+67500+012067FM-12+001199999V0200901N006719999999N0500001N9-00111+99999101431ADDAY111999GF106991999011017501001001MD1410001+9999EQDQ01+000022SCOTLC
0051011060999991930013112004+67500+012067FM-12+001199999V0200701N00671220001CN0500001N9-00111+99999101701ADDAY111999GF104991041011012501001001MD1310141+9999
0051011060999991930020106004+67500+012067FM-12+001199999V0200901N00931220001CN0500001N9-00111+99999102101ADDAY101999GF102991021011017501001001MD1310201+9999
0051011060999991930020112004+67500+012067FM-12+001199999V0201101N00931220001CN0500001N9-00221+99999102231ADDAY101999GF100991001001999999001001MD1010001+9999
0051011060999991930020212004+67500+012067FM-12+001199999V0201401N009319999999N0500001N9-00221+99999102261ADDAY111999GF107991999999017501999999MD1990061+9999
0087011060999991930020306004+67500+012067FM-12+001199999V0201601N012319999999N0040001N9-00221+99999101891ADDAA199000691AY111999GF108991999011008001001001MD1810061+9999MW1711EQDQ01+000042SCOTLC
0057011060999991930020312004+67500+012067FM-12+001199999V0201401N00931030001CN0100001N9-00281+99999101841ADDAY171999GF108991041061008001021001MD1990061+9999MW1851
0094011060999991930020406004+67500+012067FM-12+001199999V0200901N004619999999N0200001N9-00221+99999101431ADDAY181999GF106991011091999999031001MW1231EQDQ01+000992SCOLCBQ02+000082APCTENQ03+000002APC3  
0051011060999991930020412004+67500+012067FM-12+001199999V0200701N00261075001CN0500001N9-00221+99999101431ADDAY111999GF107991021011017501001081MD1710061+9999
0051011060999991930020506004+67500+012067FM-12+001199999V0200701N00931220001CN0500001N9-00111+99999101501ADDAY101999GF102991021011017501001001MD1210141+9999
0076011060999991930020512004+67500+012067FM-12+001199999V0203201N012319999999N0040001N9-00111+99999101661ADDAY181999GF107991999011008001001001MD1310061+9999MW1161EQDQ01+000042SCOTLC
0105011060999991930020606004+67500+012067FM-12+001199999V0203201N009319999999N0040001N9+00001+99999101831ADDAA199001091AY181999GF106991999011008001001001MW1861EQDQ01+000022SCOTLCQ02+000032APCTENQ03+000002APC3  
0076011060999991930020612004+67500+012067FM-12+001199999V0203201N012319999999N0100001N9+00001+99999101971ADDAY181999GF107991999011012501001001MD1110061+9999MW1861EQDQ01+000022SCOTLC
0087011060999991930020706004+67500+012067FM-12+001199999V0203401N006719999999N0100001N9-00111+99999102381ADDAA199001091AY181999GF106991999011008001001001MD1310061+9999MW1851EQDQ01+000022SCOTLC
0057011060999991930020712004+67500+012067FM-12+001199999V0203401N00671220001CN0200001N9+00001+99999102501ADDAY171999GF104991041011012501001081MD1210061+9999MW1161
0068011060999991930020806004+67500+012067FM-12+001199999V0202001N00261012301CN0040001N9+00001+99999102871ADDAA199001091AY171999GF108991081061012501999999MD1310061+9999MW1701
0051011060999991930020812004+67500+012067FM-12+001199999V0202301N00671075001CN0500001N9+00221+99999102871ADDAY111999GF107991041051012501001081MD1310061+9999
0087011060999991930020906004+67500+012067FM-12+001199999V0202701N006719999999N0100001N9+00391+99999102111ADDAA199003091AY161999GF108991999011008001001001MD1210061+9999MW1621EQDQ01+000022SCOTLC
0076011060999991930020912004+67500+012067FM-12+001199999V0202501N006719999999N0200001N9+00501+99999102071ADDAY161999GF108991999011008001001001MD1810061+9999MW1501EQDQ01+000022SCOTLC
0105011060999991930021006004+67500+012067FM-12+001199999V0202701N015419999999N0200001N9+00281+99999101131ADDAA199002091AY181999GF106991999011012501001001MW1901EQDQ01+000022SCOTLCQ02+000082APCTENQ03+000002APC3  
0076011060999991930021012004+67500+012067FM-12+001199999V0203201N019019999999N0040001N9+00281+99999101031ADDAY181999GF107991999011008001001001MD1990141+9999MW1901EQDQ01+000022SCOTLC
0062011060999991930021106004+67500+012067FM-12+001199999V0202901N00931030001CN0500001N9+00001+99999101761ADDAA199000391AY171999GF108991021011012501021001MD1310201+9999
0086011060999991930021112004+67500+012067FM-12+001199999V0201801N009319999999N0040001N9+00281+99999101231ADDAY121999GF108991999051002501001001MD1810542+9999EQDQ01+000022SCOTLCQ02+000542APC3  
0087011060999991930021206004+67500+012067FM-12+001199999V0202501N019019999999N0040001N9+00501+99999099361ADDAA199001091AY161999GF108991999011008001001001MD1810261+9999MW1621EQDQ01+000042SCOTLC
0076011060999991930021212004+67500+012067FM-12+001199999V0202501N02261220001CN0040001N9+00281+99999099171ADDAY181999GF104991999011008001001001MD1710061+9999MW1861EQDQ01+000022SCOTLC
0068011060999991930021306004+67500+012067FM-12+001199999V0202301N01231030001CN0100001N9+00281+99999099281ADDAA199002091AY181999GF108991041061012501021001MD1990201+9999MW1621
0092011060999991930021312004+67500+012067FM-12+001199999V0202301N02261007801CN0020001N9+00611+99999098442ADDAY161999GF108991081061008001999999MD1810602+9999MW1631EQDQ01+098443APOSLPQ02+000602APC3  
0068011060999991930021406004+67500+012067FM-12+001199999V0202301N01231007801CN0040001N9+00221+99999098121ADDAA199005091AY171999GF108991061061008001021001MD1710201+9999MW1681
0078011060999991930021412004+67500+012067FM-12+001199999V0202501N01231075001CN0040001N9+00221+99999098101ADDAY181999GF106991041011012501001021MW1161EQDQ01+000072APCTENQ02+000002APC3  
0062011060999991930021506004+67500+012067FM-12+001199999V0203201N00671220001CN0005001N9+00001+99999098701ADDAA199005091AY171999GF102991021011012501999001MD1310261+9999
0057011060999991930021512004+67500+012067FM-12+001199999V0202001N00461075001CN0200001N9+00001+99999098961ADDAY171999GF106991021061008001001021MD1210141+9999MW1861
0068011060999991930021606004+67500+012067FM-12+001199999V0202901N00931030001CN0100001N9+00001+99999100661ADDAA199001091AY171999GF107991041061008001021001MD1310341+9999MW1901
0057011060999991930021612004+67500+012067FM-12+001199999V0202001N00931030001CN0200001N9+00221+99999100901ADDAY181999GF107991021061012501021001MD1110061+9999MW1161
0068011060999991930021706004+67500+012067FM-12+001199999V0202301N00931007801CN0040001N9+00501+99999101671ADDAA199000391AY161999GF108991081061008001999999MD1310261+9999MW1601
0076011060999991930021712004+67500+012067FM-12+001199999V0202501N009319999999N0040001N9+00501+99999102101ADDAY161999GF108991999051004501001001MD1310261+9999MW1501EQDQ01+000042SCOTLC
0087011060999991930021806004+67500+012067FM-12+001199999V0202301N015419999999N0010001N9+00501+99999102301ADDAA199000691AY141999GF108991999051004501001001MD1510061+9999MW1501EQDQ01+000042SCOTLC
0057011060999991930021812004+67500+012067FM-12+001199999V0202301N01231030001CN0040001N9+00611+99999102401ADDAY161999GF108991041061008001021001MD1310061+9999MW1521
0087011060999991930021906004+67500+012067FM-12+001199999V0202301N015419999999N0040001N9+00501+99999102531ADDAA199001091AY181999GF108991999011008001001001MD1310141+9999MW1521EQDQ01+000022SCOTLC
0051011060999991930021912004+67500+012067FM-12+001199999V0202301N012319999999N0100001N9+00611+99999102591ADDAY161999GF108991999999012501999999MD1310061+9999
0068011060999991930022006004+67500+012067FM-12+001199999V0202001N01231030001CN0040001N9+00501+99999102471ADDAA199000591AY161999GF108991041061012501021001MD1710061+9999MW1851
0076011060999991930022012004+67500+012067FM-12+001199999V0202001N012319999999N0040001N9+00391+99999102371ADDAY161999GF108991999061008001001001MD1310141+9999MW1801EQDQ01+000042SCOTLC
0087011060999991930022106004+67500+012067FM-12+001199999V0202301N012319999999N0040001N9+00501+99999101901ADDAA199002091AY161999GF108991999011008001001001MD1810061+9999MW1621EQDQ01+000042SCOTLC
0076011060999991930022112004+67500+012067FM-12+001199999V0202001N015419999999N0100001N9+00501+99999101761ADDAY161999GF108991999011008001001001MD1810141+9999MW1621EQDQ01+000022SCOTLC
0048011060999991930022206004+67500+012067FM-12+001199999V0202301N012319999999N0200001N9+00391+99999102151ADDAA199000591AY181999GF106991999999012501999999
0094011060999991930022212004+67500+012067FM-12+001199999V0202301N012319999999N0100001N9+00501+99999102261ADDAY181999GF106991999011008001001001MW1801EQDQ01+000022SCOTLCQ02+000032APCTENQ03+000002APC3  
0081011060999991930022306004+67500+012067FM-12+001199999V0202901N00931220001CN0200001N9+00281+99999103571ADDAA199001091AY161999GF104991021011012501001081MD1310542+9999EQDQ01+000542APC3  
0051011060999991930022312004+67500+012067FM-12+001199999V0202001N00671075001CN0500001N9+00391+99999103891ADDAY111999GF106991021011017501001081MD1010141+9999
0087011060999991930022406004+67500+012067FM-12+001199999V0202301N012319999999N0100001N9+00501+99999103591ADDAA199000391AY161999GF108991999011008001001001MD1810141+9999MW1601EQDQ01+000042SCOTLC
0057011060999991930022412004+67500+012067FM-12+001199999V0202301N01231007801CN0040001N9+00501+99999103571ADDAY161999GF108991081061008001999999MD1610061+9999MW1601
0087011060999991930022506004+67500+012067FM-12+001199999V0202001N006719999999N0100001N9+00501+99999103261ADDAA199000591AY161999GF108991999011008001001001MD1810141+9999MW1601EQDQ01+000022SCOTLC
0051011060999991930022512004+67500+012067FM-12+001199999V0201801N004619999999N0100001N9+00501+99999103041ADDAY161999GF108991999999012501999999MD1810141+9999
0051011060999991930022606004+67500+012067FM-12+001199999V0201801N00461220001CN0500001N9+00391+99999101811ADDAY101999GF102991021011012501001081MD1810341+9999
0051011060999991930022612004+67500+012067FM-12+001199999V0202001N00461220001CN0200001N9+00501+99999101491ADDAY111999GF102991021011012501001021MD1810201+9999
0087011060999991930022706004+67500+012067FM-12+001199999V0202501N006719999999N0040001N9+00391+99999100731ADDAA199001091AY161999GF108991999011008001001001MD1810201+9999MW1161EQDQ01+000042SCOTLC
0051011060999991930022712004+67500+012067FM-12+001199999V0202001N01231220001CN0200001N9+00501+99999100661ADDAY111999GF104991021011008001001081MD1810061+9999
0087011060999991930022806004+67500+012067FM-12+001199999V0202301N019019999999N0040001N9+00611+99999099671ADDAA199005091AY161999GF108991999011008001001001MD1810201+9999MW1631EQDQ01+000022SCOTLC
0057011060999991930022812004+67500+012067FM-12+001199999V0202901N01541030001CN0040001N9+00281+99999100231ADDAY161999GF108991021061008001021001MD1310461+9999MW1621
