0087012620999991930010106004+64800+010550FM-12+003799999V0202701N00931220001CN0200001N9+00501+99999098911ADDAA199015091AY181999GF104991999061002501001001MD1110141+9999MW1161EQDQ01+000022SCOTLC
0037012620999991930010206004+64800+010550FM-12+003799999V0201401N00461220001CN0500001N9+00221+99999098561ADDAY101999GF101991999999999999999999
0062012620999991930010306004+64800+010550FM-12+003799999V0201801N00461030001CN0200001N9+00501+99999098831ADDAA199006091AY161999GF108991021051002501021001MD1990201+9999
0057012620999991930010406004+64800+010550FM-12+003799999V0201601N00931030001CN0200001N9+00391+99999097361ADDAY121999GF108991021061004501021001MD1810401+9999MW1161
0087012620999991930010506004+64800+010550FM-12+003799999V0203201N00671002401CN0100001N9+00501+99999099181ADDAA199006091AY171999GF108991081061002501999999MD1310542+9999MW1681EQDQ01+000542APC3  
0078012620999991930010606004+64800+010550FM-12+003799999V0201601N00461030001CN0500001N9+00611+99999098551ADDAY161999GF107991021051002501021001MW1211EQDQ01+000012APCTENQ02+000002APC3  
0089012620999991930010706004+64800+010550FM-12+003799999V0202901N00671030001CN0200001N9+00391+99999099331ADDAA199002091AY161999GF108991041061002501021001MW1161EQDQ01+000042APCTENQ02+000062APC3  
0048012620999991930010806004+64800+010550FM-12+003799999V0202501N00461030001CN0200001N9+00721+99999099131ADDAA199008091AY161999GF108991021051002501021001
0068012620999991930010906004+64800+010550FM-12+003799999V0202501N01231030001CN0200001N9+00501+99999098861ADDAA199002091AY121999GF108991021061002501021001MD1310061+9999MW1621
0105012620999991930011006004+64800+010550FM-12+003799999V0202501N012319999999N0005001N9+00501+99999098771ADDAA199002091AY161999GF108991999061002501001001MW1161EQDQ01+000022SCOTLCQ02+000022APCTENQ03+000002APC3  
0051012620999991930011106004+64800+010550FM-12+003799999V0201401N00671220001CN0500001N9+00281+99999098331ADDAY101999GF101991011051004501001001MD1810261+9999
0051012620999991930011206004+64800+010550FM-12+003799999V0201801N00671220001CN0500001N9+00391+99999097931ADDAY101999GF101991999999022501999999MD1310201+9999
0051012620999991930011306004+64800+010550FM-12+003799999V0201601N00461030001CN0500001N9+00391+99999097431ADDAY121999GF108991021051008001021001MD1310261+9999
0068012620999991930011406004+64800+010550FM-12+003799999V0202501N01231001501CN0020001N9+00391+99999099361ADDAA199004091AY161999GF108991081061001501999999MD1310141+9999MW1651
0087012620999991930011506004+64800+010550FM-12+003799999V0202701N00461220001CN0200001N9+00501+99999099811ADDAA199001091AY181999GF104991999061002501001001MD1310201+9999MW1161EQDQ01+000022SCOTLC
0087012620999991930011606004+64800+010550FM-12+003799999V0203201N002619999999N0200001N9+00281+99999100691ADDAA199001091AY181999GF108991999061001501001001MD1310401+9999MW1161EQDQ01+000042SCOTLC
0062012620999991930011706004+64800+010550FM-12+003799999V0201601N00461030001CN0500001N9+00281+99999102461ADDAA199000591AY121999GF108991011051004501021001MD1810261+9999
0087012620999991930011806004+64800+010550FM-12+003799999V0201801N004619999999N0500001N9+00611+99999100601ADDAA199003091AY161999GF108991999051004501001001MD1810141+9999MW1211EQDQ01+000022SCOTLC
0062012620999991930011906004+64800+010550FM-12+003799999V0201401N00461030001CN0100001N9+00721+99999099771ADDAA199000391AY181999GF108991011051004501021001MD1810261+9999
0087012620999991930012006004+64800+010550FM-12+003799999V0202501N015419999999N0200001N9+00501+99999098871ADDAA199008091AY161999GF106991999051004501001001MD1710141+9999MW1211EQDQ01+000042SCOTLC
0068012620999991930012106004+64800+010550FM-12+003799999V0203201N00931004501CN0040001N9+00221+99999100201ADDAA199000391AY181999GF108991081061004501999999MD1310461+9999MW1681
0062012620999991930012206004+64800+010550FM-12+003799999V0201601N00461030001CN0500001N9+00221+99999101441ADDAA199000691AY121999GF108991011051008001021001MD1810141+9999
0089012620999991930012306004+64800+010550FM-12+003799999V0202701N00461030001CN0200001N9+00501+99999100951ADDAA199003091AY161999GF108991021061002501021001MW1161EQDQ01+000012APCTENQ02+000002APC3  
0068012620999991930012406004+64800+010550FM-12+003799999V0202701N00461001501CN0040001N9+00391+99999100501ADDAA199005091AY161999GF108991081061001501999999MD1310201+9999MW1651
0051012620999991930012506004+64800+010550FM-12+003799999V0201101N00461220001CN0500001N9+00281+99999100611ADDAY101999GF101991999999022501999999MD1810061+9999
0051012620999991930012606004+64800+010550FM-12+003799999V0201101N00671030001CN0500001N9+00221+99999100101ADDAY121999GF108991021051022501021001MD1510201+9999
0062012620999991930012806004+64800+010550FM-12+003799999V0202001N00261030001CN0200001N9+00221+99999100731ADDAA199000691AY121999GF108991021051000251021001MD1810201+9999
0062012620999991930012906004+64800+010550FM-12+003799999V0201101N00461030001CN0500001N9-00111+99999100911ADDAA199000691AY121999GF108991011051004501021001MD1310061+9999
0072012620999991930013006004+64800+010550FM-12+003799999V0201401N00461030001CN0500001N9-00221+99999100971ADDAY111999GF107991011051008001021001EQDQ01+000032APCTENQ02+000002APC3  
0051012620999991930013106004+64800+010550FM-12+003799999V0201101N00461220001CN0500001N9-00281+99999101171ADDAY101999GF101991011011012501001001MD1310141+9999
0072012620999991930020106004+64800+010550FM-12+003799999V0201101N00931220001CN0500001N9-00281+99999095301ADDAY101999GF104991021011017501001021EQDQ01+000042APCTENQ02+000062APC3  
0072012620999991930020206004+64800+010550FM-12+003799999V0201101N019019999999N0500001N9-00501+99999101501ADDAY121999GF108991999999022501999999EQDQ01+000032APCTENQ02+000002APC3  
0051012620999991930020306004+64800+010550FM-12+003799999V0201401N01541030001CN0500001N9-00391+99999101411ADDAY121999GF108991011011017501021001MD1810141+9999
0051012620999991930020406004+64800+010550FM-12+003799999V0201101N00671030001CN0500001N9-00221+99999101031ADDAY121999GF108991021051017501021001MD1510001+9999
0072012620999991930020506004+64800+010550FM-12+003799999V0200901N00461220001CN0500001N9-00281+99999101131ADDAY101999GF101991011051002501001001EQDQ01+000042APCTENQ02+000062APC3  
0068012620999991930020606004+64800+010550FM-12+003799999V0202301N00261220001CN0200001N9-00221+99999102081ADDAA199000691AY181999GF102991021061002501001001MD1310141+9999MW1161
0105012620999991930020706004+64800+010550FM-12+003799999V0203601N002619999999N0200001N9+00111+99999102731ADDAA199000391AY181999GF108991999061000751001001MW1161EQDQ01+000042SCOTLCQ02+000032APCTENQ03+000002APC3  
0068012620999991930020806004+64800+010550FM-12+003799999V0201401N00261030001CN0200001N9+00111+99999103031ADDAA199000691AY121999GF106991021061004501021001MD1310141+9999MW1161
0089012620999991930020906004+64800+010550FM-12+003799999V0202901N00671030001CN0100001N9+00611+99999102711ADDAA199002091AY161999GF108991041051000751021001MW1161EQDQ01+000032APCTENQ02+000002APC3  
0068012620999991930021006004+64800+010550FM-12+003799999V0203201N00931001501CN0040001N9+00391+99999101871ADDAA199002091AY161999GF108991081061001501999999MD1510201+9999MW1631
0057012620999991930021106004+64800+010550FM-12+003799999V0202901N00461030001CN0100001N9+00281+99999102231ADDAY121999GF108991041051000251021001MD1810061+9999MW1161
0068012620999991930021306004+64800+010550FM-12+003799999V0202701N01541001501CN0020001N9+00611+99999100231ADDAA199001091AY161999GF108991081061001501999999MD1610401+9999MW1621
0068012620999991930021406004+64800+010550FM-12+003799999V0202701N01541000601CN0020001N9+00281+99999098961ADDAA199012091AY161999GF108991081061000751999999MD1410001+9999MW1651
0105012620999991930021506004+64800+010550FM-12+003799999V0203201N00461220001CN0200001N9+00111+99999098931ADDAA199000591AY111999GF104991999061004501001001MW1161EQDQ01+000022SCOTLCQ02+000042APCTENQ03+000062APC3  
0087012620999991930021606004+64800+010550FM-12+003799999V0200501N00461000151CN0010001N9+00111+99999101071ADDAA199000591AY171999GF108991999061000251001001MD1310341+9999MW1851EQDQ01+000072SCOTLC
0062012620999991930021706004+64800+010550FM-12+003799999V0202901N00461030001CN0200001N9+00501+99999102471ADDAA199001091AY161999GF108991011051002501021001MD1310141+9999
0087012620999991930021806004+64800+010550FM-12+003799999V0202501N009319999999N0100001N9+00501+99999103261ADDAA199001091AY161999GF108991999051000751001001MD1310061+9999MW1501EQDQ01+000022SCOTLC
0089012620999991930021906004+64800+010550FM-12+003799999V0202501N00931030001CN0100001N9+00501+99999103261ADDAA199000591AY181999GF108991041051000251021001MW1211EQDQ01+000032APCTENQ02+000002APC3  
0051012620999991930022006004+64800+010550FM-12+003799999V0201801N00261220001CN0500001N9+00111+99999102921ADDAY101999GF101991011051002501001001MD1810061+9999
0051012620999991930022106004+64800+010550FM-12+003799999V0202301N00671075001CN0500001N9+00501+99999102611ADDAY111999GF108991021051004501001021MD1810061+9999
0068012620999991930022206004+64800+010550FM-12+003799999V0202301N01231002401CN0040001N9+00391+99999102771ADDAA199006091AY161999GF108991081061002501999999MD1110141+9999MW1621
0087012620999991930022306004+64800+010550FM-12+003799999V0202701N001019999999N0200001N9+00501+99999103871ADDAA199001091AY161999GF108991999051000251001001MD1310261+9999MW1211EQDQ01+000022SCOTLC
0072012620999991930022406004+64800+010550FM-12+003799999V0202301N00461030001CN0500001N9+00501+99999104101ADDAY121999GF108991021051004501021001EQDQ01+000032APCTENQ02+000002APC3  
0051012620999991930022506004+64800+010550FM-12+003799999V0201101N00261075001CN0500001N9+00221+99999103301ADDAY111999GF106991011051008001001021MD1810201+9999
0070012620999991930022606004+64800+010550FM-12+003799999V0202301N004619999999N0500001N9+00281+99999101991ADDAY111999GF107991999051004501001001MD1810201+9999EQDQ01+000022SCOTLC
0087012620999991930022706004+64800+010550FM-12+003799999V0202301N00931000601CN0040001N9+00281+99999101331ADDAA199002091AY161999GF108991999061000751001001MD1210061+9999MW1511EQDQ01+000062SCOTLC
0089012620999991930022806004+64800+010550FM-12+003799999V0202501N01541000601CN0020001N9+00611+99999101241ADDAA199005091AY161999GF108991081061000751999999MW1631EQDQ01+000042APCTENQ02+000062APC3  
