0029029700999991921010106004+60100+019950FM-12+001499999V0200901N005119999999N0000001N9-00331+99999101561ADDGF108991999999999999999999
0029029700999991921010113004+60100+019950FM-12+001499999V0200901N005119999999N0000001N9-00391+99999101541ADDGF108991999999999999999999
0029029700999991921010120004+60100+019950FM-12+001499999V0200901N006219999999N0000001N9-00331+99999101541ADDGF108991999999999999999999
0035029700999991921010206004+60100+019950FM-12+001499999V0201401N002119999999N0000001N9-00111+99999101461ADDGF108991999999999999999999MW1721
0035029700999991921010213004+60100+019950FM-12+001499999V0201601N005119999999N0000001N9+00001+99999101281ADDGF108991999999999999999999MW1721
0035029700999991921010220004+60100+019950FM-12+001499999V0201801N005119999999N0000001N9+00221+99999100961ADDGF108991999999999999999999MW1621
0029029700999991921010306004+60100+019950FM-12+001499999V0209991C000019999999N0000001N9+00171+99999100921ADDGF108991999999999999999999
0029029700999991921010313004+60100+019950FM-12+001499999V0209991C000019999999N0000001N9+00111+99999101181ADDGF108991999999999999999999
0029029700999991921010320004+60100+019950FM-12+001499999V0209991C000019999999N0000001N9-00171+99999101481ADDGF108991999999999999999999
0029029700999991921010406004+60100+019950FM-12+001499999V0209991C000019999999N0000001N9-00221+99999101661ADDGF108991999999999999999999
0029029700999991921010413004+60100+019950FM-12+001499999V0209991C000019999999N0000001N9-00171+99999101641ADDGF108991999999999999999999
0035029700999991921010420004+60100+019950FM-12+001499999V0201801N005119999999N0000001N9+00221+99999101181ADDGF108991999999999999999999MW1621
0052029700999991921010506004+60100+019950FM-12+001499999V0202301N005119999999N0000001N9+00331+99999099881ADDAJ100009199999999GF108991999999999999999999MW1621
0029029700999991921010513004+60100+019950FM-12+001499999V0203201N003119999999N0000001N9+00061+99999100261ADDGF102991999999999999999999
0029029700999991921010520004+60100+019950FM-12+001499999V0209991C000019999999N0000001N9+00001+99999100721ADDGF100991999999999999999999
0046029700999991921010606004+60100+019950FM-12+001499999V0202301N003119999999N0000001N9+00171+99999100821ADDAJ100009199999999GF104991999999999999999999
0029029700999991921010613004+60100+019950FM-12+001499999V0202301N007219999999N0000001N9+00221+99999100721ADDGF106991999999999999999999
0029029700999991921010620004+60100+019950FM-12+001499999V0202301N007219999999N0000001N9+00281+99999100511ADDGF108991999999999999999999
0046029700999991921010706004+60100+019950FM-12+001499999V0202301N007219999999N0000001N9+00441+99999099911ADDAJ100009199999999GF108991999999999999999999
0029029700999991921010713004+60100+019950FM-12+001499999V0202301N007219999999N0000001N9+00501+99999099951ADDGF108991999999999999999999
0029029700999991921010720004+60100+019950FM-12+001499999V0202301N006219999999N0000001N9+00331+99999100561ADDGF100991999999999999999999
0046029700999991921010806004+60100+019950FM-12+001499999V0202301N007219999999N0000001N9+00171+99999100961ADDAJ100009199999999GF108991999999999999999999
0029029700999991921010813004+60100+019950FM-12+001499999V0202001N005119999999N0000001N9+00331+99999100721ADDGF108991999999999999999999
0029029700999991921010820004+60100+019950FM-12+001499999V0202301N011819999999N0000001N9+00331+99999100101ADDGF108991999999999999999999
0046029700999991921010906004+60100+019950FM-12+001499999V0202301N005119999999N0000001N9+00281+99999099951ADDAJ100009199999999GF104991999999999999999999
0035029700999991921010913004+60100+019950FM-12+001499999V0202301N003119999999N0000001N9+00281+99999099471ADDGF108991999999999999999999MW1621
0035029700999991921010920004+60100+019950FM-12+001499999V0209991C000019999999N0000001N9+00111+99999098881ADDGF108991999999999999999999MW1621
0046029700999991921011006004+60100+019950FM-12+001499999V0209991C000019999999N0000001N9+00061+99999098641ADDAJ100009199999999GF108991999999999999999999
0035029700999991921011013004+60100+019950FM-12+001499999V0200901N003119999999N0000001N9+00061+99999098221ADDGF108991999999999999999999MW1721
0029029700999991921011020004+60100+019950FM-12+001499999V0209991C000019999999N0000001N9+00001+99999098711ADDGF108991999999999999999999
0029029700999991921011106004+60100+019950FM-12+001499999V0200901N006219999999N0000001N9+00001+99999097791ADDGF108991999999999999999999
0035029700999991921011113004+60100+019950FM-12+001499999V0200501N006219999999N0000001N9-00061+99999097381ADDGF108991999999999999999999MW1861
0035029700999991921011120004+60100+019950FM-12+001499999V0200201N005119999999N0000001N9-00281+99999098061ADDGF108991999999999999999999MW1861
0029029700999991921011206004+60100+019950FM-12+001499999V0200501N001019999999N0000001N9-00561+99999098941ADDGF108991999999999999999999
0029029700999991921011213004+60100+019950FM-12+001499999V0200501N002119999999N0000001N9-00721+99999099521ADDGF106991999999999999999999
0029029700999991921011220004+60100+019950FM-12+001499999V0201401N005119999999N0000001N9-00781+99999100121ADDGF108991999999999999999999
0029029700999991921011306004+60100+019950FM-12+001499999V0201601N003119999999N0000001N9-00281+99999100191ADDGF108991999999999999999999
0035029700999991921011313004+60100+019950FM-12+001499999V0201601N011819999999N0000001N9-00111+99999099921ADDGF108991999999999999999999MW1861
0035029700999991921011320004+60100+019950FM-12+001499999V0201801N005119999999N0000001N9-00171+99999099621ADDGF108991999999999999999999MW1861
0029029700999991921011406004+60100+019950FM-12+001499999V0202701N007219999999N0000001N9-00281+99999099141ADDGF108991999999999999999999
0029029700999991921011413004+60100+019950FM-12+001499999V0202901N002119999999N0000001N9-00441+99999099721ADDGF102991999999999999999999
0029029700999991921011420004+60100+019950FM-12+001499999V0209991C000019999999N0000001N9-00501+99999100361ADDGF102991999999999999999999
0029029700999991921011506004+60100+019950FM-12+001499999V0202701N002119999999N0000001N9-00331+99999100841ADDGF101991999999999999999999
0029029700999991921011513004+60100+019950FM-12+001499999V0203601N003119999999N0000001N9-00061+99999101591ADDGF102991999999999999999999
0029029700999991921011520004+60100+019950FM-12+001499999V0209991C000019999999N0000001N9-00501+99999102581ADDGF100991999999999999999999
0029029700999991921011606004+60100+019950FM-12+001499999V0202301N008719999999N0000001N9-00171+99999102601ADDGF106991999999999999999999
0035029700999991921011613004+60100+019950FM-12+001499999V0202301N008719999999N0000001N9+00061+99999101761ADDGF106991999999999999999999MW1381
0029029700999991921011620004+60100+019950FM-12+001499999V0202301N013919999999N0000001N9+00221+99999101181ADDGF108991999999999999999999
0029029700999991921011706004+60100+019950FM-12+001499999V0202301N005119999999N0000001N9+00221+99999100921ADDGF108991999999999999999999
0029029700999991921011713004+60100+019950FM-12+001499999V0202301N011819999999N0000001N9+00171+99999100261ADDGF108991999999999999999999
0029029700999991921011720004+60100+019950FM-12+001499999V0202301N007219999999N0000001N9+00221+99999099221ADDGF108991999999999999999999
0035029700999991921011806004+60100+019950FM-12+001499999V0202301N005119999999N0000001N9+00061+99999097511ADDGF108991999999999999999999MW1701
0029029700999991921011813004+60100+019950FM-12+001499999V0202301N005119999999N0000001N9+00171+99999096981ADDGF107991999999999999999999
0029029700999991921011820004+60100+019950FM-12+001499999V0202301N003119999999N0000001N9+00171+99999096741ADDGF106991999999999999999999
0029029700999991921011906004+60100+019950FM-12+001499999V0209991C000019999999N0000001N9+00111+99999097081ADDGF108991999999999999999999
0035029700999991921011913004+60100+019950FM-12+001499999V0209991C000019999999N0000001N9+00001+99999097791ADDGF108991999999999999999999MW1701
0035029700999991921011920004+60100+019950FM-12+001499999V0203201N005119999999N0000001N9+00061+99999098561ADDGF108991999999999999999999MW1701
0046029700999991921012006004+60100+019950FM-12+001499999V0209991C000019999999N0000001N9-00061+99999099591ADDAJ100009199999999GF102991999999999999999999
0029029700999991921012013004+60100+019950FM-12+001499999V0202301N007219999999N0000001N9+00171+99999098701ADDGF107991999999999999999999
0029029700999991921012020004+60100+019950FM-12+001499999V0202701N007219999999N0000001N9+00281+99999098361ADDGF106991999999999999999999
0046029700999991921012106004+60100+019950FM-12+001499999V0203201N006219999999N0000001N9+00111+99999099471ADDAJ100009199999999GF100991999999999999999999
0029029700999991921012113004+60100+019950FM-12+001499999V0203201N006219999999N0000001N9+00001+99999100341ADDGF102991999999999999999999
0029029700999991921012120004+60100+019950FM-12+001499999V0202301N003119999999N0000001N9+00061+99999099751ADDGF108991999999999999999999
0052029700999991921012206004+60100+019950FM-12+001499999V0202301N005119999999N0000001N9+00391+99999097581ADDAJ100009199999999GF108991999999999999999999MW1621
0029029700999991921012213004+60100+019950FM-12+001499999V0209991C000019999999N0000001N9+00111+99999097061ADDGF108991999999999999999999
0029029700999991921012220004+60100+019950FM-12+001499999V0203201N011819999999N0000001N9+00061+99999097541ADDGF108991999999999999999999
0046029700999991921012306004+60100+019950FM-12+001499999V0203201N007219999999N0000001N9-00331+99999098681ADDAJ100009199999999GF101991999999999999999999
0029029700999991921012313004+60100+019950FM-12+001499999V0203401N011819999999N0000001N9-00331+99999099181ADDGF102991999999999999999999
0029029700999991921012320004+60100+019950FM-12+001499999V0202701N005119999999N0000001N9-00561+99999099111ADDGF102991999999999999999999
0046029700999991921012406004+60100+019950FM-12+001499999V0200901N005119999999N0000001N9-00611+99999098551ADDAJ100009199999999GF100991999999999999999999
0035029700999991921012413004+60100+019950FM-12+001499999V0203201N005119999999N0000001N9-00331+99999099191ADDGF104991999999999999999999MW1901
0035029700999991921012420004+60100+019950FM-12+001499999V0203401N006219999999N0000001N9-00391+99999099861ADDGF108991999999999999999999MW1721
0029029700999991921012506004+60100+019950FM-12+001499999V0202701N004119999999N0000001N9-00391+99999100801ADDGF108991999999999999999999
0029029700999991921012513004+60100+019950FM-12+001499999V0203201N003119999999N0000001N9-00111+99999100981ADDGF105991999999999999999999
0029029700999991921012520004+60100+019950FM-12+001499999V0203401N003119999999N0000001N9-00281+99999101241ADDGF103991999999999999999999
0029029700999991921012606004+60100+019950FM-12+001499999V0209991C000019999999N0000001N9-00441+99999100781ADDGF104991999999999999999999
0029029700999991921012613004+60100+019950FM-12+001499999V0209991C000019999999N0000001N9-00391+99999100241ADDGF104991999999999999999999
0035029700999991921012620004+60100+019950FM-12+001499999V0209991C000019999999N0000001N9-00221+99999099671ADDGF108991999999999999999999MW1721
0029029700999991921012706004+60100+019950FM-12+001499999V0209991C000019999999N0000001N9-00391+99999099041ADDGF108991999999999999999999
0035029700999991921012713004+60100+019950FM-12+001499999V0200501N005119999999N0000001N9-00611+99999099741ADDGF107991999999999999999999MW1381
0035029700999991921012720004+60100+019950FM-12+001499999V0209991C000019999999N0000001N9-00671+99999100461ADDGF108991999999999999999999MW1721
0029029700999991921012806004+60100+019950FM-12+001499999V0209991C000019999999N0000001N9-00941+99999101231ADDGF106991999999999999999999
0029029700999991921012813004+60100+019950FM-12+001499999V0202301N003119999999N0000001N9-00391+99999101271ADDGF101991999999999999999999
0029029700999991921012820004+60100+019950FM-12+001499999V0201801N008719999999N0000001N9-00111+99999100521ADDGF108991999999999999999999
0035029700999991921012906004+60100+019950FM-12+001499999V0201401N007219999999N0000001N9+00001+99999097672ADDGF108991999999999999999999MW1721
0035029700999991921012913004+60100+019950FM-12+001499999V0203601N003119999999N0000001N9-00221+99999098041ADDGF108991999999999999999999MW1721
0029029700999991921012920004+60100+019950FM-12+001499999V0209991C000019999999N0000001N9-00671+99999099741ADDGF100991999999999999999999
0029029700999991921013006004+60100+019950FM-12+001499999V0209991C000019999999N0000001N9-00941+99999100021ADDGF102991999999999999999999
0029029700999991921013013004+60100+019950FM-12+001499999V0209991C000019999999N0000001N9+00111+99999099711ADDGF108991999999999999999999
0029029700999991921013020004+60100+019950FM-12+001499999V0202001N004119999999N0000001N9+00221+99999098911ADDGF108991999999999999999999
0029029700999991921013106004+60100+019950FM-12+001499999V0202701N003119999999N0000001N9-00111+99999099221ADDGF108991999999999999999999
0029029700999991921013113004+60100+019950FM-12+001499999V0209991C000019999999N0000001N9+00061+99999099681ADDGF108991999999999999999999
0029029700999991921013120004+60100+019950FM-12+001499999V0209991C000019999999N0000001N9-00221+99999099901ADDGF108991999999999999999999
0029029700999991921020106004+60100+019950FM-12+001499999V0200901N005119999999N0000001N9-00671+99999100511ADDGF108991999999999999999999
0029029700999991921020113004+60100+019950FM-12+001499999V0209991C000019999999N0000001N9-00561+99999101031ADDGF108991999999999999999999
0029029700999991921020120004+60100+019950FM-12+001499999V0200901N002119999999N0000001N9-00611+99999101541ADDGF108991999999999999999999
0029029700999991921020206004+60100+019950FM-12+001499999V0200901N003119999999N0000001N9-00441+99999102081ADDGF108991999999999999999999
0029029700999991921020213004+60100+019950FM-12+001499999V0200901N003119999999N0000001N9-00281+99999102361ADDGF100991999999999999999999
0029029700999991921020220004+60100+019950FM-12+001499999V0200901N008719999999N0000001N9-00561+99999102621ADDGF108991999999999999999999
0029029700999991921020306004+60100+019950FM-12+001499999V0200901N008719999999N0000001N9-00441+99999102881ADDGF108991999999999999999999
0029029700999991921020313004+60100+019950FM-12+001499999V0201401N007219999999N0000001N9-00281+99999103281ADDGF106991999999999999999999
0029029700999991921020320004+60100+019950FM-12+001499999V0200901N007219999999N0000001N9-00501+99999103481ADDGF108991999999999999999999
0029029700999991921020406004+60100+019950FM-12+001499999V0201101N005119999999N0000001N9-00331+99999103681ADDGF108991999999999999999999
0000029700999991921020413004+60100+019950FM-12+001499999V0201101N004119999999N0000001N9-00281+99999103681
0029029700999991921020420004+60100+019950FM-12+001499999V0201401N003119999999N0000001N9-00221+99999103581ADDGF108991999999999999999999
0029029700999991921020506004+60100+019950FM-12+001499999V0201401N003119999999N0000001N9-00171+99999103621ADDGF108991999999999999999999
0000029700999991921020513004+60100+019950FM-12+001499999V0201401N003119999999N0000001N9-00111+99999103821
0029029700999991921020520004+60100+019950FM-12+001499999V0201101N003119999999N0000001N9-00171+99999103841ADDGF108991999999999999999999
0029029700999991921020606004+60100+019950FM-12+001499999V0201801N002119999999N0000001N9-00171+99999103801ADDGF108991999999999999999999
0029029700999991921020613004+60100+019950FM-12+001499999V0202001N004119999999N0000001N9-00061+99999103921ADDGF108991999999999999999999
0029029700999991921020620004+60100+019950FM-12+001499999V0202301N005119999999N0000001N9-00061+99999103961ADDGF108991999999999999999999
0029029700999991921020706004+60100+019950FM-12+001499999V0209991C000019999999N0000001N9-00721+99999103921ADDGF108991999999999999999999
0029029700999991921020713004+60100+019950FM-12+001499999V0202001N001019999999N0000001N9+00001+99999104031ADDGF102991999999999999999999
0029029700999991921020720004+60100+019950FM-12+001499999V0209991C000019999999N0000001N9-00831+99999104141ADDGF100991999999999999999999
0029029700999991921020806004+60100+019950FM-12+001499999V0209991C000019999999N0000001N9-00441+99999104181ADDGF108991999999999999999999
0035029700999991921020813004+60100+019950FM-12+001499999V0201801N002119999999N0000001N9-00221+99999104221ADDGF108991999999999999999999MW1701
0035029700999991921020820004+60100+019950FM-12+001499999V0202501N001019999999N0000001N9-00221+99999104041ADDGF108991999999999999999999MW1701
0029029700999991921020906004+60100+019950FM-12+001499999V0202301N002119999999N0000001N9-00111+99999103741ADDGF108991999999999999999999
0029029700999991921020913004+60100+019950FM-12+001499999V0202301N005119999999N0000001N9+00061+99999103431ADDGF104991999999999999999999
0029029700999991921020920004+60100+019950FM-12+001499999V0203401N004119999999N0000001N9-00281+99999103261ADDGF107991999999999999999999
0029029700999991921021006004+60100+019950FM-12+001499999V0202701N004119999999N0000001N9-00281+99999103181ADDGF108991999999999999999999
0029029700999991921021013004+60100+019950FM-12+001499999V0202701N004119999999N0000001N9+00111+99999103311ADDGF100991999999999999999999
0029029700999991921021020004+60100+019950FM-12+001499999V0202301N006219999999N0000001N9-00061+99999102991ADDGF100991999999999999999999
0029029700999991921021106004+60100+019950FM-12+001499999V0202301N008719999999N0000001N9-00111+99999101761ADDGF108991999999999999999999
0029029700999991921021113004+60100+019950FM-12+001499999V0202301N005119999999N0000001N9+00171+99999100951ADDGF105991999999999999999999
0029029700999991921021120004+60100+019950FM-12+001499999V0202701N004119999999N0000001N9+00171+99999100671ADDGF108991999999999999999999
0029029700999991921021206004+60100+019950FM-12+001499999V0203201N006219999999N0000001N9-00111+99999101111ADDGF107991999999999999999999
0029029700999991921021213004+60100+019950FM-12+001499999V0203601N003119999999N0000001N9-00061+99999101601ADDGF106991999999999999999999
0029029700999991921021220004+60100+019950FM-12+001499999V0209991C000019999999N0000001N9-00331+99999101391ADDGF108991999999999999999999
0029029700999991921021306004+60100+019950FM-12+001499999V0202301N005119999999N0000001N9+00061+99999099781ADDGF106991999999999999999999
0029029700999991921021313004+60100+019950FM-12+001499999V0202501N003119999999N0000001N9+00331+99999099181ADDGF106991999999999999999999
0029029700999991921021320004+60100+019950FM-12+001499999V0202501N002119999999N0000001N9+00221+99999098111ADDGF108991999999999999999999
0029029700999991921021406004+60100+019950FM-12+001499999V0203401N004119999999N0000001N9+00061+99999097941ADDGF103991999999999999999999
0009029700999991921021413004+60100+019950FM-12+001499999V0203601N006219999999N0000001N9-00501+99999098501ADDMW1381
0035029700999991921021420004+60100+019950FM-12+001499999V0203601N011819999999N0000001N9-00831+99999099281ADDGF108991999999999999999999MW1381
0029029700999991921021506004+60100+019950FM-12+001499999V0203601N008219999999N0000001N9-00831+99999100341ADDGF108991999999999999999999
0029029700999991921021513004+60100+019950FM-12+001499999V0200201N003119999999N0000001N9-00721+99999100841ADDGF101991999999999999999999
0029029700999991921021520004+60100+019950FM-12+001499999V0209991C000019999999N0000001N9-01501+99999100591ADDGF100991999999999999999999
0029029700999991921021606004+60100+019950FM-12+001499999V0201401N002119999999N0000001N9-00561+99999100101ADDGF108991999999999999999999
0029029700999991921021613004+60100+019950FM-12+001499999V0201801N008219999999N0000001N9-00501+99999100321ADDGF108991999999999999999999
0029029700999991921021620004+60100+019950FM-12+001499999V0201801N003119999999N0000001N9-00501+99999100631ADDGF108991999999999999999999
0029029700999991921021706004+60100+019950FM-12+001499999V0202301N005119999999N0000001N9-00171+99999100551ADDGF108991999999999999999999
0029029700999991921021713004+60100+019950FM-12+001499999V0202301N005119999999N0000001N9-00111+99999100351ADDGF108991999999999999999999
0029029700999991921021720004+60100+019950FM-12+001499999V0209991C000019999999N0000001N9-00221+99999100351ADDGF108991999999999999999999
0029029700999991921021806004+60100+019950FM-12+001499999V0200201N002119999999N0000001N9-00501+99999100551ADDGF108991999999999999999999
0029029700999991921021813004+60100+019950FM-12+001499999V0203601N009819999999N0000001N9-00501+99999101031ADDGF108991999999999999999999
0029029700999991921021820004+60100+019950FM-12+001499999V0200201N005119999999N0000001N9-00611+99999101511ADDGF105991999999999999999999
0029029700999991921021906004+60100+019950FM-12+001499999V0209991C000019999999N0000001N9-00501+99999101631ADDGF108991999999999999999999
0000029700999991921021913004+60100+019950FM-12+001499999V0203401N003119999999N0000001N9+00221+99999101421
0029029700999991921021920004+60100+019950FM-12+001499999V0209991C000019999999N0000001N9-00441+99999101821ADDGF100991999999999999999999
0035029700999991921022006004+60100+019950FM-12+001499999V0209991C000019999999N0000001N9-00391+99999102081ADDGF108991999999999999999999MW1701
0029029700999991921022013004+60100+019950FM-12+001499999V0209991C000019999999N0000001N9+00111+99999102241ADDGF107991999999999999999999
0029029700999991921022020004+60100+019950FM-12+001499999V0202701N005119999999N0000001N9+00221+99999102241ADDGF108991999999999999999999
0029029700999991921022106004+60100+019950FM-12+001499999V0209991C000019999999N0000001N9-00561+99999102231ADDGF106991999999999999999999
0029029700999991921022113004+60100+019950FM-12+001499999V0203401N002119999999N0000001N9+00441+99999102421ADDGF100991999999999999999999
0029029700999991921022120004+60100+019950FM-12+001499999V0209991C000019999999N0000001N9-00441+99999102661ADDGF100991999999999999999999
0029029700999991921022206004+60100+019950FM-12+001499999V0209991C000019999999N0000001N9-00781+99999102861ADDGF104991999999999999999999
0029029700999991921022213004+60100+019950FM-12+001499999V0202501N002119999999N0000001N9+00281+99999102981ADDGF100991999999999999999999
0029029700999991921022220004+60100+019950FM-12+001499999V0209991C000019999999N0000001N9-00061+99999102921ADDGF100991999999999999999999
0029029700999991921022306004+60100+019950FM-12+001499999V0202301N002119999999N0000001N9-00221+99999103001ADDGF108991999999999999999999
0000029700999991921022313004+60100+019950FM-12+001499999V0202301N003119999999N0000001N9-00221+99999103061
0029029700999991921022320004+60100+019950FM-12+001499999V0202301N005119999999N0000001N9+00001+99999103081ADDGF108991999999999999999999
0029029700999991921022406004+60100+019950FM-12+001499999V0202301N004119999999N0000001N9-00171+99999103151ADDGF102991999999999999999999
0029029700999991921022413004+60100+019950FM-12+001499999V0202301N004119999999N0000001N9+00221+99999103261ADDGF100991999999999999999999
0029029700999991921022420004+60100+019950FM-12+001499999V0202301N005119999999N0000001N9+00061+99999103261ADDGF100991999999999999999999
0029029700999991921022506004+60100+019950FM-12+001499999V0202301N003119999999N0000001N9-00111+99999103181ADDGF104991999999999999999999
0029029700999991921022513004+60100+019950FM-12+001499999V0202301N003119999999N0000001N9+00171+99999103121ADDGF100991999999999999999999
0029029700999991921022520004+60100+019950FM-12+001499999V0202001N005119999999N0000001N9-00111+99999102991ADDGF106991999999999999999999
0029029700999991921022606004+60100+019950FM-12+001499999V0202301N004119999999N0000001N9-00061+99999102581ADDGF108991999999999999999999
0029029700999991921022613004+60100+019950FM-12+001499999V0202301N004119999999N0000001N9+00001+99999102341ADDGF106991999999999999999999
0029029700999991921022620004+60100+019950FM-12+001499999V0202701N002119999999N0000001N9-00061+99999102201ADDGF108991999999999999999999
0029029700999991921022706004+60100+019950FM-12+001499999V0202301N003119999999N0000001N9-00111+99999101741ADDGF108991999999999999999999
0029029700999991921022713004+60100+019950FM-12+001499999V0202301N006219999999N0000001N9+00221+99999100791ADDGF106991999999999999999999
0029029700999991921022720004+60100+019950FM-12+001499999V0209991C000019999999N0000001N9+00281+99999100481ADDGF108991999999999999999999
0029029700999991921022806004+60100+019950FM-12+001499999V0202901N003119999999N0000001N9+00171+99999100681ADDGF100991999999999999999999
0029029700999991921022813004+60100+019950FM-12+001499999V0202501N003119999999N0000001N9+00441+99999100741ADDGF101991999999999999999999
0029029700999991921022820004+60100+019950FM-12+001499999V0202301N005119999999N0000001N9+00171+99999100321ADDGF100991999999999999999999
0029029700999991921030106004+60100+019950FM-12+001499999V0209991C000019999999N0000001N9+00001+99999100981ADDGF100991999999999999999999
0029029700999991921030113004+60100+019950FM-12+001499999V0202301N003119999999N0000001N9+00501+99999101421ADDGF101991999999999999999999
0029029700999991921030120004+60100+019950FM-12+001499999V0202301N006219999999N0000001N9+00281+99999100901ADDGF100991999999999999999999
0029029700999991921030206004+60100+019950FM-12+001499999V0202301N006219999999N0000001N9+00281+99999099991ADDGF108991999999999999999999
0029029700999991921030213004+60100+019950FM-12+001499999V0202301N004119999999N0000001N9+00331+99999099761ADDGF108991999999999999999999
0029029700999991921030220004+60100+019950FM-12+001499999V0202501N009819999999N0000001N9+00281+99999099461ADDGF100991999999999999999999
0029029700999991921030306004+60100+019950FM-12+001499999V0202901N004119999999N0000001N9-00061+99999099401ADDGF106991999999999999999999
0029029700999991921030313004+60100+019950FM-12+001499999V0202901N005119999999N0000001N9+00171+99999100101ADDGF100991999999999999999999
0029029700999991921030320004+60100+019950FM-12+001499999V0202701N008219999999N0000001N9+00001+99999100501ADDGF100991999999999999999999
0029029700999991921030406004+60100+019950FM-12+001499999V0202301N005119999999N0000001N9+00111+99999099941ADDGF108991999999999999999999
0035029700999991921030413004+60100+019950FM-12+001499999V0202001N019019999999N0000001N9+00111+99999098671ADDGF108991999999999999999999MW1701
0029029700999991921030420004+60100+019950FM-12+001499999V0202301N019019999999N0000001N9+00221+99999097591ADDGF108991999999999999999999
0029029700999991921030506004+60100+019950FM-12+001499999V0202301N008719999999N0000001N9+00171+99999097601ADDGF108991999999999999999999
0029029700999991921030513004+60100+019950FM-12+001499999V0202701N006219999999N0000001N9+00281+99999098871ADDGF101991999999999999999999
0029029700999991921030520004+60100+019950FM-12+001499999V0202701N013919999999N0000001N9+00001+99999099541ADDGF100991999999999999999999
0029029700999991921030606004+60100+019950FM-12+001499999V0202701N003119999999N0000001N9-00331+99999100351ADDGF101991999999999999999999
0029029700999991921030613004+60100+019950FM-12+001499999V0202501N004119999999N0000001N9-00061+99999100591ADDGF104991999999999999999999
0029029700999991921030620004+60100+019950FM-12+001499999V0209991C000019999999N0000001N9-00281+99999100511ADDGF108991999999999999999999
0029029700999991921030706004+60100+019950FM-12+001499999V0203601N001019999999N0000001N9-00441+99999100391ADDGF104991999999999999999999
0029029700999991921030713004+60100+019950FM-12+001499999V0200501N003119999999N0000001N9+00001+99999100511ADDGF102991999999999999999999
0029029700999991921030720004+60100+019950FM-12+001499999V0203601N001019999999N0000001N9-00281+99999100761ADDGF102991999999999999999999
0029029700999991921030806004+60100+019950FM-12+001499999V0202901N001019999999N0000001N9-00501+99999101121ADDGF101991999999999999999999
0029029700999991921030813004+60100+019950FM-12+001499999V0202701N001019999999N0000001N9+00001+99999101231ADDGF100991999999999999999999
0035029700999991921030820004+60100+019950FM-12+001499999V0202301N007219999999N0000001N9-00061+99999100951ADDGF108991999999999999999999MW1701
0029029700999991921030906004+60100+019950FM-12+001499999V0202301N002119999999N0000001N9+00001+99999100601ADDGF108991999999999999999999
0029029700999991921030913004+60100+019950FM-12+001499999V0202301N003119999999N0000001N9+00281+99999100741ADDGF101991999999999999999999
0029029700999991921030920004+60100+019950FM-12+001499999V0202001N004119999999N0000001N9+00221+99999100631ADDGF108991999999999999999999
0035029700999991921031006004+60100+019950FM-12+001499999V0202001N004119999999N0000001N9+00281+99999100321ADDGF107991999999999999999999MW1621
0029029700999991921031013004+60100+019950FM-12+001499999V0202301N002119999999N0000001N9+00721+99999100781ADDGF100991999999999999999999
0029029700999991921031020004+60100+019950FM-12+001499999V0202301N004119999999N0000001N9+00331+99999101021ADDGF108991999999999999999999
0029029700999991921031106004+60100+019950FM-12+001499999V0202301N004119999999N0000001N9+00281+99999101351ADDGF107991999999999999999999
0029029700999991921031113004+60100+019950FM-12+001499999V0202301N004119999999N0000001N9+00441+99999101521ADDGF100991999999999999999999
0029029700999991921031120004+60100+019950FM-12+001499999V0202301N006219999999N0000001N9+00221+99999101421ADDGF100991999999999999999999
0029029700999991921031206004+60100+019950FM-12+001499999V0202301N004119999999N0000001N9+00111+99999101511ADDGF102991999999999999999999
0029029700999991921031213004+60100+019950FM-12+001499999V0202301N004119999999N0000001N9+00441+99999101801ADDGF100991999999999999999999
0029029700999991921031220004+60100+019950FM-12+001499999V0202301N002119999999N0000001N9+00111+99999102061ADDGF100991999999999999999999
0029029700999991921031306004+60100+019950FM-12+001499999V0209991C000019999999N0000001N9+00001+99999102241ADDGF104991999999999999999999
0029029700999991921031313004+60100+019950FM-12+001499999V0202001N001019999999N0000001N9+00561+99999102471ADDGF100991999999999999999999
0029029700999991921031320004+60100+019950FM-12+001499999V0201801N001019999999N0000001N9+00171+99999102471ADDGF100991999999999999999999
0029029700999991921031406004+60100+019950FM-12+001499999V0201801N001019999999N0000001N9+00171+99999102391ADDGF102991999999999999999999
0029029700999991921031413004+60100+019950FM-12+001499999V0201801N004119999999N0000001N9+00501+99999102361ADDGF100991999999999999999999
0029029700999991921031420004+60100+019950FM-12+001499999V0202001N003119999999N0000001N9+00221+99999102271ADDGF100991999999999999999999
0046029700999991921031506004+60100+019950FM-12+001499999V0202501N003119999999N0000001N9+00281+99999102441ADDAJ100009199999999GF108991999999999999999999
0029029700999991921031513004+60100+019950FM-12+001499999V0202301N004119999999N0000001N9+00671+99999102681ADDGF100991999999999999999999
0029029700999991921031520004+60100+019950FM-12+001499999V0202301N001019999999N0000001N9+00281+99999102921ADDGF100991999999999999999999
0046029700999991921031606004+60100+019950FM-12+001499999V0202301N003119999999N0000001N9+00221+99999102791ADDAJ100009199999999GF102991999999999999999999
0029029700999991921031613004+60100+019950FM-12+001499999V0202301N007219999999N0000001N9+00561+99999102821ADDGF102991999999999999999999
0029029700999991921031620004+60100+019950FM-12+001499999V0202301N006219999999N0000001N9+00331+99999102741ADDGF100991999999999999999999
0046029700999991921031706004+60100+019950FM-12+001499999V0202301N007219999999N0000001N9+00331+99999102321ADDAJ100009199999999GF103991999999999999999999
0029029700999991921031713004+60100+019950FM-12+001499999V0202001N006219999999N0000001N9+00501+99999102161ADDGF108991999999999999999999
0029029700999991921031720004+60100+019950FM-12+001499999V0202501N004119999999N0000001N9+00561+99999102161ADDGF108991999999999999999999
0046029700999991921031806004+60100+019950FM-12+001499999V0202701N001019999999N0000001N9+00111+99999102341ADDAJ100009199999999GF100991999999999999999999
0000029700999991921031813004+60100+019950FM-12+001499999V0202301N001019999999N0000001N9+00221+99999102521
0029029700999991921031820004+60100+019950FM-12+001499999V0209991C000019999999N0000001N9+00061+99999102281ADDGF108991999999999999999999
0046029700999991921031906004+60100+019950FM-12+001499999V0201801N004119999999N0000001N9+00331+99999101461ADDAJ100009199999999GF108991999999999999999999
0000029700999991921031913004+60100+019950FM-12+001499999V0202501N004119999999N0000001N9+00391+99999101221
0029029700999991921031920004+60100+019950FM-12+001499999V0202501N004119999999N0000001N9+00281+99999101111ADDGF100991999999999999999999
0046029700999991921032006004+60100+019950FM-12+001499999V0202301N006219999999N0000001N9+00221+99999100361ADDAJ100009199999999GF103991999999999999999999
0000029700999991921032013004+60100+019950FM-12+001499999V0202001N008219999999N0000001N9+00281+99999100151
0029029700999991921032020004+60100+019950FM-12+001499999V0202301N003119999999N0000001N9+00281+99999100161ADDGF100991999999999999999999
0046029700999991921032106004+60100+019950FM-12+001499999V0202301N003119999999N0000001N9+00171+99999100241ADDAJ100009199999999GF108991999999999999999999
0029029700999991921032113004+60100+019950FM-12+001499999V0202301N001019999999N0000001N9+00721+99999100361ADDGF100991999999999999999999
0029029700999991921032120004+60100+019950FM-12+001499999V0209991C000019999999N0000001N9+00171+99999100621ADDGF106991999999999999999999
0046029700999991921032206004+60100+019950FM-12+001499999V0202301N004119999999N0000001N9+00221+99999100421ADDAJ100009199999999GF108991999999999999999999
0000029700999991921032213004+60100+019950FM-12+001499999V0202301N003119999999N0000001N9+00441+99999100121
0029029700999991921032220004+60100+019950FM-12+001499999V0202501N006219999999N0000001N9+00671+99999100031ADDGF108991999999999999999999
0046029700999991921032306004+60100+019950FM-12+001499999V0209991C000019999999N0000001N9+00221+99999100911ADDAJ100009199999999GF100991999999999999999999
0029029700999991921032313004+60100+019950FM-12+001499999V0202701N005119999999N0000001N9+00941+99999101201ADDGF102991999999999999999999
0029029700999991921032320004+60100+019950FM-12+001499999V0202501N008219999999N0000001N9+00501+99999101121ADDGF106991999999999999999999
0046029700999991921032406004+60100+019950FM-12+001499999V0202701N005119999999N0000001N9+00611+99999100191ADDAJ100009199999999GF108991999999999999999999
0000029700999991921032413004+60100+019950FM-12+001499999V0202501N005119999999N0000001N9+00721+99999100461
0029029700999991921032420004+60100+019950FM-12+001499999V0202501N005119999999N0000001N9+00611+99999099921ADDGF108991999999999999999999
0046029700999991921032506004+60100+019950FM-12+001499999V0202701N011819999999N0000001N9+00781+99999100471ADDAJ100009199999999GF100991999999999999999999
0029029700999991921032513004+60100+019950FM-12+001499999V0202701N005119999999N0000001N9+01221+99999100911ADDGF100991999999999999999999
0029029700999991921032520004+60100+019950FM-12+001499999V0209991C000019999999N0000001N9+00441+99999101101ADDGF100991999999999999999999
0046029700999991921032606004+60100+019950FM-12+001499999V0209991C000019999999N0000001N9-00171+99999101461ADDAJ100009199999999GF100991999999999999999999
0029029700999991921032613004+60100+019950FM-12+001499999V0203401N003119999999N0000001N9+00671+99999101421ADDGF100991999999999999999999
0029029700999991921032620004+60100+019950FM-12+001499999V0209991C000019999999N0000001N9+00111+99999101121ADDGF100991999999999999999999
0046029700999991921032706004+60100+019950FM-12+001499999V0201401N005119999999N0000001N9+00281+99999100431ADDAJ100009199999999GF108991999999999999999999
0000029700999991921032713004+60100+019950FM-12+001499999V0201401N007219999999N0000001N9+00171+99999099821
0029029700999991921032720004+60100+019950FM-12+001499999V0202001N004119999999N0000001N9+00281+99999098841ADDGF108991999999999999999999
0046029700999991921032806004+60100+019950FM-12+001499999V0202301N005119999999N0000001N9+00171+99999098511ADDAJ100009199999999GF107991999999999999999999
0009029700999991921032813004+60100+019950FM-12+001499999V0202301N007219999999N0000001N9+00111+99999098561ADDMW1691
0029029700999991921032820004+60100+019950FM-12+001499999V0202301N002119999999N0000001N9+00221+99999098941ADDGF108991999999999999999999
0046029700999991921032906004+60100+019950FM-12+001499999V0202301N008219999999N0000001N9+00111+99999099391ADDAJ100009199999999GF100991999999999999999999
0000029700999991921032913004+60100+019950FM-12+001499999V0201801N003119999999N0000001N9+00281+99999099641
0035029700999991921032920004+60100+019950FM-12+001499999V0202001N007219999999N0000001N9+00441+99999099511ADDGF108991999999999999999999MW1621
0046029700999991921033006004+60100+019950FM-12+001499999V0202301N004119999999N0000001N9+00391+99999100021ADDAJ100009199999999GF108991999999999999999999
0029029700999991921033013004+60100+019950FM-12+001499999V0202301N007219999999N0000001N9+00561+99999100221ADDGF100991999999999999999999
0029029700999991921033020004+60100+019950FM-12+001499999V0202301N006219999999N0000001N9+00391+99999100031ADDGF100991999999999999999999
0046029700999991921033106004+60100+019950FM-12+001499999V0202301N007219999999N0000001N9+00281+99999098981ADDAJ100009199999999GF108991999999999999999999
0029029700999991921033113004+60100+019950FM-12+001499999V0202501N007219999999N0000001N9+00391+99999098591ADDGF107991999999999999999999
0029029700999991921033120004+60100+019950FM-12+001499999V0209991C000019999999N0000001N9+00171+99999099231ADDGF100991999999999999999999
0046029700999991921040106004+60100+019950FM-12+001499999V0203201N002119999999N0000001N9+00171+99999100311ADDAJ100009199999999GF106991999999999999999999
0029029700999991921040113004+60100+019950FM-12+001499999V0203201N007219999999N0000001N9+00501+99999101301ADDGF102991999999999999999999
0029029700999991921040120004+60100+019950FM-12+001499999V0209991C000019999999N0000001N9-00221+99999101711ADDGF100991999999999999999999
0046029700999991921040206004+60100+019950FM-12+001499999V0202301N004119999999N0000001N9+00281+99999101721ADDAJ100009199999999GF108991999999999999999999
0029029700999991921040213004+60100+019950FM-12+001499999V0202001N005119999999N0000001N9+00671+99999101711ADDGF104991999999999999999999
0029029700999991921040220004+60100+019950FM-12+001499999V0202001N005119999999N0000001N9+00391+99999101421ADDGF100991999999999999999999
0046029700999991921040306004+60100+019950FM-12+001499999V0202001N002119999999N0000001N9+00441+99999101341ADDAJ100009199999999GF102991999999999999999999
0029029700999991921040313004+60100+019950FM-12+001499999V0202001N003119999999N0000001N9+00671+99999101351ADDGF102991999999999999999999
0029029700999991921040320004+60100+019950FM-12+001499999V0202301N008219999999N0000001N9+00501+99999101241ADDGF100991999999999999999999
0046029700999991921040406004+60100+019950FM-12+001499999V0202301N005119999999N0000001N9+00281+99999101181ADDAJ100009199999999GF108991999999999999999999
0000029700999991921040413004+60100+019950FM-12+001499999V0202301N011819999999N0000001N9+00561+99999100871
0035029700999991921040420004+60100+019950FM-12+001499999V0202301N005119999999N0000001N9+00391+99999100551ADDGF108991999999999999999999MW1621
0046029700999991921040506004+60100+019950FM-12+001499999V0209991C000019999999N0000001N9+00111+99999100631ADDAJ100009199999999GF108991999999999999999999
0000029700999991921040513004+60100+019950FM-12+001499999V0202301N003119999999N0000001N9+00221+99999100911
0029029700999991921040520004+60100+019950FM-12+001499999V0209991C000019999999N0000001N9+00061+99999100981ADDGF108991999999999999999999
0046029700999991921040606004+60100+019950FM-12+001499999V0203601N001019999999N0000001N9+00171+99999101351ADDAJ100009199999999GF100991999999999999999999
0029029700999991921040613004+60100+019950FM-12+001499999V0200501N004119999999N0000001N9+00611+99999101841ADDGF101991999999999999999999
0029029700999991921040620004+60100+019950FM-12+001499999V0203601N007219999999N0000001N9+00221+99999102421ADDGF100991999999999999999999
0046029700999991921040706004+60100+019950FM-12+001499999V0200501N005119999999N0000001N9+00281+99999103081ADDAJ100009199999999GF100991999999999999999999
0029029700999991921040713004+60100+019950FM-12+001499999V0200201N008719999999N0000001N9+00671+99999103151ADDGF100991999999999999999999
0029029700999991921040720004+60100+019950FM-12+001499999V0203601N003119999999N0000001N9+00281+99999103261ADDGF100991999999999999999999
0046029700999991921040806004+60100+019950FM-12+001499999V0209991C000019999999N0000001N9+00221+99999103461ADDAJ100009199999999GF100991999999999999999999
0029029700999991921040813004+60100+019950FM-12+001499999V0200701N003119999999N0000001N9+01001+99999103711ADDGF100991999999999999999999
0029029700999991921040820004+60100+019950FM-12+001499999V0209991C000019999999N0000001N9+00001+99999103991ADDGF100991999999999999999999
0046029700999991921040906004+60100+019950FM-12+001499999V0209991C000019999999N0000001N9+00171+99999104351ADDAJ100009199999999GF100991999999999999999999
0029029700999991921040913004+60100+019950FM-12+001499999V0202301N001019999999N0000001N9+00941+99999104481ADDGF100991999999999999999999
0029029700999991921040920004+60100+019950FM-12+001499999V0209991C000019999999N0000001N9+00061+99999104201ADDGF100991999999999999999999
0046029700999991921041006004+60100+019950FM-12+001499999V0209991C000019999999N0000001N9+00331+99999103921ADDAJ100009199999999GF100991999999999999999999
0029029700999991921041013004+60100+019950FM-12+001499999V0202301N003119999999N0000001N9+00831+99999103591ADDGF102991999999999999999999
0029029700999991921041020004+60100+019950FM-12+001499999V0202301N005119999999N0000001N9+00501+99999103161ADDGF100991999999999999999999
0046029700999991921041106004+60100+019950FM-12+001499999V0202301N003119999999N0000001N9+00441+99999102521ADDAJ100009199999999GF100991999999999999999999
0029029700999991921041113004+60100+019950FM-12+001499999V0202301N005119999999N0000001N9+00831+99999102111ADDGF106991999999999999999999
0029029700999991921041120004+60100+019950FM-12+001499999V0202301N003119999999N0000001N9+00501+99999101761ADDGF102991999999999999999999
0046029700999991921041206004+60100+019950FM-12+001499999V0209991C000019999999N0000001N9+00441+99999101351ADDAJ100009199999999GF108991999999999999999999
0029029700999991921041213004+60100+019950FM-12+001499999V0202001N003119999999N0000001N9+01111+99999100921ADDGF100991999999999999999999
0029029700999991921041220004+60100+019950FM-12+001499999V0202301N005119999999N0000001N9+00611+99999100181ADDGF102991999999999999999999
0046029700999991921041306004+60100+019950FM-12+001499999V0202301N002119999999N0000001N9+00501+99999099701ADDAJ100009199999999GF107991999999999999999999
0000029700999991921041313004+60100+019950FM-12+001499999V0202501N002119999999N0000001N9+00561+99999099221
0035029700999991921041320004+60100+019950FM-12+001499999V0202301N006219999999N0000001N9+00441+99999098641ADDGF108991999999999999999999MW1601
0046029700999991921041406004+60100+019950FM-12+001499999V0203201N002119999999N0000001N9+00171+99999098711ADDAJ100009199999999GF108991999999999999999999
0029029700999991921041413004+60100+019950FM-12+001499999V0202001N004119999999N0000001N9+00441+99999098521ADDGF106991999999999999999999
0029029700999991921041420004+60100+019950FM-12+001499999V0201101N004119999999N0000001N9+00281+99999098461ADDGF108991999999999999999999
0046029700999991921041506004+60100+019950FM-12+001499999V0202001N004119999999N0000001N9+00331+99999098031ADDAJ100009199999999GF108991999999999999999999
0009029700999991921041513004+60100+019950FM-12+001499999V0201801N004119999999N0000001N9+00331+99999098101ADDMW1621
0029029700999991921041520004+60100+019950FM-12+001499999V0202301N003119999999N0000001N9+00111+99999098641ADDGF103991999999999999999999
0046029700999991921041606004+60100+019950FM-12+001499999V0202301N005119999999N0000001N9+00391+99999099431ADDAJ100009199999999GF102991999999999999999999
0000029700999991921041613004+60100+019950FM-12+001499999V0201801N005119999999N0000001N9+00391+99999099601
0029029700999991921041620004+60100+019950FM-12+001499999V0202301N003119999999N0000001N9+00331+99999099821ADDGF100991999999999999999999
0046029700999991921041706004+60100+019950FM-12+001499999V0209991C000019999999N0000001N9+00391+99999100431ADDAJ100009199999999GF103991999999999999999999
0029029700999991921041713004+60100+019950FM-12+001499999V0209991C000019999999N0000001N9+00671+99999100631ADDGF105991999999999999999999
0029029700999991921041720004+60100+019950FM-12+001499999V0209991C000019999999N0000001N9+00331+99999100631ADDGF106991999999999999999999
0052029700999991921041806004+60100+019950FM-12+001499999V0200501N005119999999N0000001N9+00281+99999100151ADDAJ100009199999999GF108991999999999999999999MW1621
0029029700999991921041813004+60100+019950FM-12+001499999V0200501N007219999999N0000001N9+00281+99999099701ADDGF108991999999999999999999
0035029700999991921041820004+60100+019950FM-12+001499999V0200501N003119999999N0000001N9+00221+99999099161ADDGF108991999999999999999999MW1621
0052029700999991921041906004+60100+019950FM-12+001499999V0201401N007219999999N0000001N9+00281+99999098741ADDAJ100009199999999GF108991999999999999999999MW1621
0035029700999991921041913004+60100+019950FM-12+001499999V0201601N007219999999N0000001N9+00391+99999099911ADDGF108991999999999999999999MW1621
0029029700999991921041920004+60100+019950FM-12+001499999V0201801N007219999999N0000001N9+00391+99999100841ADDGF108991999999999999999999
0046029700999991921042006004+60100+019950FM-12+001499999V0201801N004119999999N0000001N9+00441+99999101481ADDAJ100009199999999GF104991999999999999999999
0029029700999991921042013004+60100+019950FM-12+001499999V0201601N005119999999N0000001N9+00671+99999101751ADDGF103991999999999999999999
0029029700999991921042020004+60100+019950FM-12+001499999V0209991C000019999999N0000001N9+00391+99999101871ADDGF106991999999999999999999
0046029700999991921042106004+60100+019950FM-12+001499999V0209991C000019999999N0000001N9+00331+99999101791ADDAJ100009199999999GF100991999999999999999999
0029029700999991921042113004+60100+019950FM-12+001499999V0200701N001019999999N0000001N9+00891+99999101741ADDGF106991999999999999999999
0035029700999991921042120004+60100+019950FM-12+001499999V0200201N001019999999N0000001N9+00331+99999101661ADDGF108991999999999999999999MW1621
0046029700999991921042206004+60100+019950FM-12+001499999V0209991C000019999999N0000001N9+00441+99999102061ADDAJ100009199999999GF103991999999999999999999
0029029700999991921042213004+60100+019950FM-12+001499999V0202301N003119999999N0000001N9+00781+99999102301ADDGF101991999999999999999999
0029029700999991921042220004+60100+019950FM-12+001499999V0209991C000019999999N0000001N9+00441+99999102481ADDGF100991999999999999999999
0046029700999991921042306004+60100+019950FM-12+001499999V0209991C000019999999N0000001N9+00501+99999102641ADDAJ100009199999999GF101991999999999999999999
0029029700999991921042313004+60100+019950FM-12+001499999V0202901N003119999999N0000001N9+01111+99999102721ADDGF106991999999999999999999
0029029700999991921042320004+60100+019950FM-12+001499999V0200501N003119999999N0000001N9+00671+99999102561ADDGF101991999999999999999999
0046029700999991921042406004+60100+019950FM-12+001499999V0200901N003119999999N0000001N9+01061+99999102581ADDAJ100009199999999GF101991999999999999999999
0029029700999991921042413004+60100+019950FM-12+001499999V0200901N001019999999N0000001N9+01721+99999102861ADDGF100991999999999999999999
0029029700999991921042420004+60100+019950FM-12+001499999V0209991C000019999999N0000001N9+01061+99999103181ADDGF105991999999999999999999
0046029700999991921042506004+60100+019950FM-12+001499999V0201101N003119999999N0000001N9+01001+99999103511ADDAJ100009199999999GF101991999999999999999999
0029029700999991921042513004+60100+019950FM-12+001499999V0200901N003119999999N0000001N9+01831+99999103741ADDGF100991999999999999999999
0029029700999991921042520004+60100+019950FM-12+001499999V0209991C000019999999N0000001N9+01001+99999103791ADDGF100991999999999999999999
0046029700999991921042606004+60100+019950FM-12+001499999V0201101N002119999999N0000001N9+01281+99999103841ADDAJ100009199999999GF100991999999999999999999
0029029700999991921042613004+60100+019950FM-12+001499999V0200901N001019999999N0000001N9+02111+99999103901ADDGF101991999999999999999999
0029029700999991921042620004+60100+019950FM-12+001499999V0209991C000019999999N0000001N9+00941+99999103901ADDGF100991999999999999999999
0046029700999991921042706004+60100+019950FM-12+001499999V0209991C000019999999N0000001N9+01331+99999103841ADDAJ100009199999999GF100991999999999999999999
0029029700999991921042713004+60100+019950FM-12+001499999V0202301N003119999999N0000001N9+01561+99999103821ADDGF100991999999999999999999
0029029700999991921042720004+60100+019950FM-12+001499999V0209991C000019999999N0000001N9+01171+99999103601ADDGF107991999999999999999999
0046029700999991921042806004+60100+019950FM-12+001499999V0209991C000019999999N0000001N9+01111+99999103341ADDAJ100009199999999GF108991999999999999999999
0029029700999991921042813004+60100+019950FM-12+001499999V0203201N002119999999N0000001N9+01941+99999103081ADDGF101991999999999999999999
0029029700999991921042820004+60100+019950FM-12+001499999V0209991C000019999999N0000001N9+00941+99999102881ADDGF100991999999999999999999
0046029700999991921042906004+60100+019950FM-12+001499999V0200201N005119999999N0000001N9+00671+99999102951ADDAJ100009199999999GF100991999999999999999999
0029029700999991921042913004+60100+019950FM-12+001499999V0203601N005119999999N0000001N9+00831+99999102981ADDGF106991999999999999999999
0029029700999991921042920004+60100+019950FM-12+001499999V0200201N001019999999N0000001N9+00441+99999102871ADDGF100991999999999999999999
0046029700999991921043006004+60100+019950FM-12+001499999V0200501N003119999999N0000001N9+00721+99999102681ADDAJ100009199999999GF100991999999999999999999
0029029700999991921043013004+60100+019950FM-12+001499999V0200201N003119999999N0000001N9+01281+99999102431ADDGF100991999999999999999999
0029029700999991921043020004+60100+019950FM-12+001499999V0209991C000019999999N0000001N9+00331+99999102421ADDGF102991999999999999999999
0046029700999991921050106004+60100+019950FM-12+001499999V0209991C000019999999N0000001N9+00781+99999102111ADDAJ100009199999999GF102991999999999999999999
0029029700999991921050113004+60100+019950FM-12+001499999V0202501N003119999999N0000001N9+01501+99999101881ADDGF101991999999999999999999
0029029700999991921050120004+60100+019950FM-12+001499999V0202301N003119999999N0000001N9+00671+99999101281ADDGF100991999999999999999999
0046029700999991921050206004+60100+019950FM-12+001499999V0202301N005119999999N0000001N9+00721+99999100501ADDAJ100009199999999GF100991999999999999999999
0029029700999991921050213004+60100+019950FM-12+001499999V0202001N008719999999N0000001N9+00941+99999100141ADDGF104991999999999999999999
0029029700999991921050220004+60100+019950FM-12+001499999V0209991C000019999999N0000001N9+00501+99999099801ADDGF104991999999999999999999
0046029700999991921050306004+60100+019950FM-12+001499999V0209991C000019999999N0000001N9+00331+99999099551ADDAJ100009199999999GF108991999999999999999999
0000029700999991921050313004+60100+019950FM-12+001499999V0203601N002119999999N0000001N9+00331+99999099761
0029029700999991921050320004+60100+019950FM-12+001499999V0209991C000019999999N0000001N9-00061+99999099831ADDGF100991999999999999999999
0046029700999991921050406004+60100+019950FM-12+001499999V0209991C000019999999N0000001N9+00441+99999099871ADDAJ100009199999999GF100991999999999999999999
0029029700999991921050413004+60100+019950FM-12+001499999V0202301N003119999999N0000001N9+00831+99999099951ADDGF103991999999999999999999
0029029700999991921050420004+60100+019950FM-12+001499999V0209991C000019999999N0000001N9+00171+99999099981ADDGF100991999999999999999999
0046029700999991921050506004+60100+019950FM-12+001499999V0209991C000019999999N0000001N9+00611+99999100111ADDAJ100009199999999GF106991999999999999999999
0029029700999991921050513004+60100+019950FM-12+001499999V0202501N002119999999N0000001N9+00941+99999100361ADDGF106991999999999999999999
0029029700999991921050520004+60100+019950FM-12+001499999V0202301N001019999999N0000001N9+00441+99999100711ADDGF101991999999999999999999
0046029700999991921050606004+60100+019950FM-12+001499999V0202301N004119999999N0000001N9+00611+99999100961ADDAJ100009199999999GF108991999999999999999999
0029029700999991921050613004+60100+019950FM-12+001499999V0201801N005119999999N0000001N9+00891+99999101001ADDGF102991999999999999999999
0029029700999991921050620004+60100+019950FM-12+001499999V0209991C000019999999N0000001N9+00331+99999100981ADDGF102991999999999999999999
0046029700999991921050706004+60100+019950FM-12+001499999V0202301N004119999999N0000001N9+00561+99999100991ADDAJ100009199999999GF100991999999999999999999
0029029700999991921050713004+60100+019950FM-12+001499999V0202301N005119999999N0000001N9+00941+99999101221ADDGF100991999999999999999999
0029029700999991921050720004+60100+019950FM-12+001499999V0201801N007219999999N0000001N9+00611+99999101261ADDGF104991999999999999999999
0046029700999991921050806004+60100+019950FM-12+001499999V0202301N007219999999N0000001N9+00721+99999101311ADDAJ100009199999999GF108991999999999999999999
0029029700999991921050813004+60100+019950FM-12+001499999V0202301N008219999999N0000001N9+01061+99999101471ADDGF101991999999999999999999
0029029700999991921050820004+60100+019950FM-12+001499999V0201801N006219999999N0000001N9+00721+99999101461ADDGF102991999999999999999999
0046029700999991921050906004+60100+019950FM-12+001499999V0202001N006219999999N0000001N9+01001+99999101241ADDAJ100009199999999GF100991999999999999999999
0029029700999991921050913004+60100+019950FM-12+001499999V0201801N005119999999N0000001N9+01171+99999101351ADDGF100991999999999999999999
0029029700999991921050920004+60100+019950FM-12+001499999V0202301N003119999999N0000001N9+00831+99999101481ADDGF101991999999999999999999
0046029700999991921051006004+60100+019950FM-12+001499999V0209991C000019999999N0000001N9+01061+99999101711ADDAJ100009199999999GF106991999999999999999999
0029029700999991921051013004+60100+019950FM-12+001499999V0201801N005119999999N0000001N9+01561+99999101701ADDGF100991999999999999999999
0029029700999991921051020004+60100+019950FM-12+001499999V0202901N001019999999N0000001N9+00781+99999101641ADDGF106991999999999999999999
0046029700999991921051106004+60100+019950FM-12+001499999V0203201N003119999999N0000001N9+00561+99999101881ADDAJ100009199999999GF108991999999999999999999
0029029700999991921051113004+60100+019950FM-12+001499999V0209991C000019999999N0000001N9+01061+99999101911ADDGF106991999999999999999999
0029029700999991921051120004+60100+019950FM-12+001499999V0209991C000019999999N0000001N9+00611+99999101791ADDGF108991999999999999999999
0046029700999991921051206004+60100+019950FM-12+001499999V0200201N001019999999N0000001N9+00781+99999101711ADDAJ100009199999999GF106991999999999999999999
0029029700999991921051213004+60100+019950FM-12+001499999V0209991C000019999999N0000001N9+01171+99999101801ADDGF106991999999999999999999
0029029700999991921051220004+60100+019950FM-12+001499999V0203601N001019999999N0000001N9+00671+99999101921ADDGF100991999999999999999999
0046029700999991921051306004+60100+019950FM-12+001499999V0209991C000019999999N0000001N9+01111+99999102181ADDAJ100009199999999GF100991999999999999999999
0029029700999991921051313004+60100+019950FM-12+001499999V0202301N003119999999N0000001N9+01221+99999102271ADDGF100991999999999999999999
0029029700999991921051320004+60100+019950FM-12+001499999V0202301N003119999999N0000001N9+00831+99999102151ADDGF100991999999999999999999
0046029700999991921051406004+60100+019950FM-12+001499999V0202301N005119999999N0000001N9+00891+99999102161ADDAJ100009199999999GF100991999999999999999999
0029029700999991921051413004+60100+019950FM-12+001499999V0202301N007219999999N0000001N9+01171+99999102141ADDGF102991999999999999999999
0029029700999991921051420004+60100+019950FM-12+001499999V0202301N003119999999N0000001N9+00831+99999102061ADDGF102991999999999999999999
0046029700999991921051506004+60100+019950FM-12+001499999V0209991C000019999999N0000001N9+01111+99999102071ADDAJ100009199999999GF102991999999999999999999
0029029700999991921051513004+60100+019950FM-12+001499999V0202301N001019999999N0000001N9+01561+99999102041ADDGF100991999999999999999999
0029029700999991921051520004+60100+019950FM-12+001499999V0202001N003119999999N0000001N9+01001+99999101761ADDGF100991999999999999999999
0046029700999991921051606004+60100+019950FM-12+001499999V0202301N004119999999N0000001N9+01001+99999101271ADDAJ100009199999999GF100991999999999999999999
0029029700999991921051613004+60100+019950FM-12+001499999V0203601N003119999999N0000001N9+01171+99999101351ADDGF106991999999999999999999
0029029700999991921051620004+60100+019950FM-12+001499999V0209991C000019999999N0000001N9+00721+99999101751ADDGF100991999999999999999999
0046029700999991921051706004+60100+019950FM-12+001499999V0203201N001019999999N0000001N9+01111+99999101961ADDAJ100009199999999GF100991999999999999999999
0029029700999991921051713004+60100+019950FM-12+001499999V0209991C000019999999N0000001N9+01611+99999101921ADDGF100991999999999999999999
0029029700999991921051720004+60100+019950FM-12+001499999V0209991C000019999999N0000001N9+00561+99999101911ADDGF100991999999999999999999
0046029700999991921051806004+60100+019950FM-12+001499999V0202301N002119999999N0000001N9+01061+99999102021ADDAJ100009199999999GF100991999999999999999999
0029029700999991921051813004+60100+019950FM-12+001499999V0202001N004119999999N0000001N9+01391+99999102001ADDGF101991999999999999999999
0029029700999991921051820004+60100+019950FM-12+001499999V0209991C000019999999N0000001N9+00831+99999101941ADDGF102991999999999999999999
0046029700999991921051906004+60100+019950FM-12+001499999V0209991C000019999999N0000001N9+01221+99999101881ADDAJ100009199999999GF107991999999999999999999
0029029700999991921051913004+60100+019950FM-12+001499999V0201601N003119999999N0000001N9+01441+99999101831ADDGF100991999999999999999999
0029029700999991921051920004+60100+019950FM-12+001499999V0202001N005119999999N0000001N9+01221+99999101601ADDGF106991999999999999999999
0046029700999991921052006004+60100+019950FM-12+001499999V0202301N002119999999N0000001N9+01331+99999101391ADDAJ100009199999999GF106991999999999999999999
0029029700999991921052013004+60100+019950FM-12+001499999V0201401N003119999999N0000001N9+01441+99999101311ADDGF101991999999999999999999
0029029700999991921052020004+60100+019950FM-12+001499999V0202301N003119999999N0000001N9+01001+99999101111ADDGF106991999999999999999999
0046029700999991921052106004+60100+019950FM-12+001499999V0202701N003119999999N0000001N9+01111+99999101151ADDAJ100009199999999GF106991999999999999999999
0029029700999991921052113004+60100+019950FM-12+001499999V0202901N006219999999N0000001N9+01441+99999101681ADDGF100991999999999999999999
0029029700999991921052120004+60100+019950FM-12+001499999V0209991C000019999999N0000001N9+00721+99999102081ADDGF100991999999999999999999
0046029700999991921052206004+60100+019950FM-12+001499999V0209991C000019999999N0000001N9+01221+99999102351ADDAJ100009199999999GF100991999999999999999999
0029029700999991921052213004+60100+019950FM-12+001499999V0202301N006219999999N0000001N9+01501+99999102161ADDGF100991999999999999999999
0029029700999991921052220004+60100+019950FM-12+001499999V0202301N004119999999N0000001N9+01061+99999101711ADDGF100991999999999999999999
0046029700999991921052306004+60100+019950FM-12+001499999V0203601N006219999999N0000001N9+01331+99999101841ADDAJ100009199999999GF102991999999999999999999
0029029700999991921052313004+60100+019950FM-12+001499999V0200501N006219999999N0000001N9+01331+99999102311ADDGF100991999999999999999999
0029029700999991921052320004+60100+019950FM-12+001499999V0209991C000019999999N0000001N9+00611+99999102521ADDGF102991999999999999999999
0046029700999991921052406004+60100+019950FM-12+001499999V0209991C000019999999N0000001N9+01171+99999102721ADDAJ100009199999999GF100991999999999999999999
0029029700999991921052413004+60100+019950FM-12+001499999V0202301N007219999999N0000001N9+01221+99999102351ADDGF102991999999999999999999
0029029700999991921052420004+60100+019950FM-12+001499999V0202301N007219999999N0000001N9+01001+99999101861ADDGF106991999999999999999999
0046029700999991921052506004+60100+019950FM-12+001499999V0202301N004119999999N0000001N9+01111+99999101621ADDAJ100009199999999GF107991999999999999999999
0029029700999991921052513004+60100+019950FM-12+001499999V0202301N001019999999N0000001N9+01441+99999101661ADDGF100991999999999999999999
0029029700999991921052520004+60100+019950FM-12+001499999V0209991C000019999999N0000001N9+01171+99999101641ADDGF102991999999999999999999
0046029700999991921052606004+60100+019950FM-12+001499999V0202001N002119999999N0000001N9+01391+99999101581ADDAJ100009199999999GF100991999999999999999999
0029029700999991921052613004+60100+019950FM-12+001499999V0201601N003119999999N0000001N9+01831+99999101601ADDGF100991999999999999999999
0029029700999991921052620004+60100+019950FM-12+001499999V0209991C000019999999N0000001N9+01221+99999101481ADDGF100991999999999999999999
0046029700999991921052706004+60100+019950FM-12+001499999V0209991C000019999999N0000001N9+01501+99999101351ADDAJ100009199999999GF100991999999999999999999
0029029700999991921052713004+60100+019950FM-12+001499999V0201801N001019999999N0000001N9+01561+99999101261ADDGF100991999999999999999999
0029029700999991921052720004+60100+019950FM-12+001499999V0201601N001019999999N0000001N9+01441+99999100921ADDGF101991999999999999999999
0046029700999991921052806004+60100+019950FM-12+001499999V0209991C000019999999N0000001N9+01441+99999100601ADDAJ100009199999999GF100991999999999999999999
0029029700999991921052813004+60100+019950FM-12+001499999V0201401N003119999999N0000001N9+01561+99999100551ADDGF102991999999999999999999
0029029700999991921052820004+60100+019950FM-12+001499999V0201601N002119999999N0000001N9+01171+99999100401ADDGF100991999999999999999999
0046029700999991921052906004+60100+019950FM-12+001499999V0201601N003119999999N0000001N9+01331+99999100431ADDAJ100009199999999GF102991999999999999999999
0029029700999991921052913004+60100+019950FM-12+001499999V0202001N005119999999N0000001N9+01721+99999100301ADDGF102991999999999999999999
0029029700999991921052920004+60100+019950FM-12+001499999V0202001N002119999999N0000001N9+01171+99999100741ADDGF100991999999999999999999
0046029700999991921053006004+60100+019950FM-12+001499999V0202301N003119999999N0000001N9+01281+99999101191ADDAJ100009199999999GF100991999999999999999999
0029029700999991921053013004+60100+019950FM-12+001499999V0202301N005119999999N0000001N9+01391+99999101551ADDGF100991999999999999999999
0029029700999991921053020004+60100+019950FM-12+001499999V0202301N001019999999N0000001N9+01111+99999101801ADDGF100991999999999999999999
0046029700999991921053106004+60100+019950FM-12+001499999V0201601N001019999999N0000001N9+01331+99999102061ADDAJ100009199999999GF100991999999999999999999
0029029700999991921053113004+60100+019950FM-12+001499999V0201601N005119999999N0000001N9+01611+99999102151ADDGF100991999999999999999999
0029029700999991921053120004+60100+019950FM-12+001499999V0201601N003119999999N0000001N9+01281+99999102031ADDGF100991999999999999999999
0046029700999991921060106004+60100+019950FM-12+001499999V0202301N003119999999N0000001N9+01391+99999102181ADDAJ100009199999999GF100991999999999999999999
0029029700999991921060113004+60100+019950FM-12+001499999V0202301N003119999999N0000001N9+02061+99999102351ADDGF100991999999999999999999
0029029700999991921060120004+60100+019950FM-12+001499999V0202301N003119999999N0000001N9+01391+99999102381ADDGF104991999999999999999999
0046029700999991921060206004+60100+019950FM-12+001499999V0203201N001019999999N0000001N9+01831+99999102561ADDAJ100009199999999GF101991999999999999999999
0029029700999991921060213004+60100+019950FM-12+001499999V0202301N001019999999N0000001N9+02111+99999102601ADDGF100991999999999999999999
0029029700999991921060220004+60100+019950FM-12+001499999V0202301N001019999999N0000001N9+01441+99999102421ADDGF100991999999999999999999
0046029700999991921060306004+60100+019950FM-12+001499999V0202301N004119999999N0000001N9+01441+99999102201ADDAJ100009199999999GF105991999999999999999999
0029029700999991921060313004+60100+019950FM-12+001499999V0200501N004119999999N0000001N9+01891+99999102301ADDGF100991999999999999999999
0029029700999991921060320004+60100+019950FM-12+001499999V0209991C000019999999N0000001N9+01221+99999102351ADDGF102991999999999999999999
0046029700999991921060406004+60100+019950FM-12+001499999V0200501N001019999999N0000001N9+01441+99999102511ADDAJ100009199999999GF104991999999999999999999
0029029700999991921060413004+60100+019950FM-12+001499999V0201401N001019999999N0000001N9+01831+99999102231ADDGF101991999999999999999999
0029029700999991921060420004+60100+019950FM-12+001499999V0201801N001019999999N0000001N9+01331+99999101501ADDGF100991999999999999999999
0046029700999991921060506004+60100+019950FM-12+001499999V0203601N006219999999N0000001N9+01111+99999100791ADDAJ100009199999999GF104991999999999999999999
0029029700999991921060513004+60100+019950FM-12+001499999V0200501N006219999999N0000001N9+01001+99999101041ADDGF107991999999999999999999
0029029700999991921060520004+60100+019950FM-12+001499999V0200501N005119999999N0000001N9+00831+99999101141ADDGF104991999999999999999999
0046029700999991921060606004+60100+019950FM-12+001499999V0203601N007219999999N0000001N9+00941+99999101431ADDAJ100009199999999GF101991999999999999999999
0029029700999991921060613004+60100+019950FM-12+001499999V0203401N008719999999N0000001N9+01001+99999101711ADDGF100991999999999999999999
0029029700999991921060620004+60100+019950FM-12+001499999V0209991C000019999999N0000001N9+00831+99999101591ADDGF104991999999999999999999
0046029700999991921060706004+60100+019950FM-12+001499999V0203201N005119999999N0000001N9+01281+99999101311ADDAJ100009199999999GF108991999999999999999999
0029029700999991921060713004+60100+019950FM-12+001499999V0203601N004119999999N0000001N9+01611+99999101241ADDGF102991999999999999999999
0029029700999991921060720004+60100+019950FM-12+001499999V0209991C000019999999N0000001N9+01281+99999101101ADDGF100991999999999999999999
0046029700999991921060806004+60100+019950FM-12+001499999V0200201N001019999999N0000001N9+01441+99999101001ADDAJ100009199999999GF100991999999999999999999
0029029700999991921060813004+60100+019950FM-12+001499999V0203201N003119999999N0000001N9+01781+99999101021ADDGF102991999999999999999999
0029029700999991921060820004+60100+019950FM-12+001499999V0209991C000019999999N0000001N9+01001+99999100791ADDGF100991999999999999999999
0046029700999991921060906004+60100+019950FM-12+001499999V0209991C000019999999N0000001N9+01501+99999100561ADDAJ100009199999999GF100991999999999999999999
0029029700999991921060913004+60100+019950FM-12+001499999V0202301N001019999999N0000001N9+01781+99999100421ADDGF100991999999999999999999
0029029700999991921060920004+60100+019950FM-12+001499999V0209991C000019999999N0000001N9+01331+99999100261ADDGF102991999999999999999999
0046029700999991921061006004+60100+019950FM-12+001499999V0201401N003119999999N0000001N9+01561+99999100101ADDAJ100009199999999GF107991999999999999999999
0029029700999991921061013004+60100+019950FM-12+001499999V0201401N004119999999N0000001N9+01561+99999100081ADDGF107991999999999999999999
0029029700999991921061020004+60100+019950FM-12+001499999V0201601N003119999999N0000001N9+01221+99999100101ADDGF108991999999999999999999
0046029700999991921061106004+60100+019950FM-12+001499999V0201801N007219999999N0000001N9+01281+99999100151ADDAJ100009199999999GF104991999999999999999999
0000029700999991921061113004+60100+019950FM-12+001499999V0201601N008219999999N0000001N9+01391+99999100221
0029029700999991921061120004+60100+019950FM-12+001499999V0201801N003119999999N0000001N9+01171+99999100201ADDGF102991999999999999999999
0046029700999991921061206004+60100+019950FM-12+001499999V0202301N003119999999N0000001N9+01281+99999100311ADDAJ100009199999999GF100991999999999999999999
0029029700999991921061213004+60100+019950FM-12+001499999V0202301N005119999999N0000001N9+01441+99999100361ADDGF102991999999999999999999
0029029700999991921061220004+60100+019950FM-12+001499999V0201401N003119999999N0000001N9+01171+99999100421ADDGF108991999999999999999999
0046029700999991921061306004+60100+019950FM-12+001499999V0202301N003119999999N0000001N9+01171+99999100271ADDAJ100009199999999GF107991999999999999999999
0029029700999991921061313004+60100+019950FM-12+001499999V0202701N004119999999N0000001N9+00941+99999100511ADDGF108991999999999999999999
0035029700999991921061320004+60100+019950FM-12+001499999V0202701N002119999999N0000001N9+00721+99999100661ADDGF108991999999999999999999MW1601
0046029700999991921061406004+60100+019950FM-12+001499999V0203201N002119999999N0000001N9+01171+99999101381ADDAJ100009199999999GF107991999999999999999999
0029029700999991921061413004+60100+019950FM-12+001499999V0203401N003119999999N0000001N9+01501+99999101641ADDGF101991999999999999999999
0029029700999991921061420004+60100+019950FM-12+001499999V0202001N001019999999N0000001N9+00941+99999101801ADDGF100991999999999999999999
0046029700999991921061506004+60100+019950FM-12+001499999V0202301N002119999999N0000001N9+01391+99999101511ADDAJ100009199999999GF102991999999999999999999
0009029700999991921061513004+60100+019950FM-12+001499999V0202001N002119999999N0000001N9+01221+99999101361ADDMW1621
0035029700999991921061520004+60100+019950FM-12+001499999V0209991C000019999999N0000001N9+01001+99999101201ADDGF108991999999999999999999MW1621
0046029700999991921061606004+60100+019950FM-12+001499999V0203601N006219999999N0000001N9+01001+99999101581ADDAJ100009199999999GF103991999999999999999999
0029029700999991921061613004+60100+019950FM-12+001499999V0203201N007219999999N0000001N9+01281+99999101871ADDGF102991999999999999999999
0029029700999991921061620004+60100+019950FM-12+001499999V0209991C000019999999N0000001N9+00721+99999101941ADDGF100991999999999999999999
0046029700999991921061706004+60100+019950FM-12+001499999V0202301N005119999999N0000001N9+01221+99999101551ADDAJ100009199999999GF103991999999999999999999
0029029700999991921061713004+60100+019950FM-12+001499999V0202301N007219999999N0000001N9+01441+99999101031ADDGF102991999999999999999999
0029029700999991921061720004+60100+019950FM-12+001499999V0201401N003119999999N0000001N9+01171+99999100361ADDGF104991999999999999999999
0046029700999991921061806004+60100+019950FM-12+001499999V0202301N003119999999N0000001N9+01281+99999099701ADDAJ100009199999999GF107991999999999999999999
0009029700999991921061813004+60100+019950FM-12+001499999V0203601N002119999999N0000001N9+01001+99999099661ADDMW1621
0029029700999991921061820004+60100+019950FM-12+001499999V0200901N002119999999N0000001N9+01281+99999099461ADDGF108991999999999999999999
0046029700999991921061906004+60100+019950FM-12+001499999V0209991C000019999999N0000001N9+01111+99999099431ADDAJ100009199999999GF108991999999999999999999
0009029700999991921061913004+60100+019950FM-12+001499999V0209991C000019999999N0000001N9+01171+99999099511ADDMW1621
0035029700999991921061920004+60100+019950FM-12+001499999V0209991C000019999999N0000001N9+01001+99999099591ADDGF108991999999999999999999MW1621
0052029700999991921062006004+60100+019950FM-12+001499999V0202301N003119999999N0000001N9+00941+99999099381ADDAJ100009199999999GF108991999999999999999999MW1621
0035029700999991921062013004+60100+019950FM-12+001499999V0202301N005119999999N0000001N9+01111+99999099421ADDGF107991999999999999999999MW1621
0035029700999991921062020004+60100+019950FM-12+001499999V0201401N001019999999N0000001N9+01061+99999099241ADDGF108991999999999999999999MW1621
0046029700999991921062106004+60100+019950FM-12+001499999V0202301N005119999999N0000001N9+01061+99999099321ADDAJ100009199999999GF107991999999999999999999
0029029700999991921062113004+60100+019950FM-12+001499999V0202301N007219999999N0000001N9+01221+99999099841ADDGF103991999999999999999999
0029029700999991921062120004+60100+019950FM-12+001499999V0201801N001019999999N0000001N9+01061+99999100321ADDGF103991999999999999999999
0052029700999991921062206004+60100+019950FM-12+001499999V0209991C000019999999N0000001N9+00891+99999100511ADDAJ100009199999999GF108991999999999999999999MW1621
0029029700999991921062213004+60100+019950FM-12+001499999V0202301N002119999999N0000001N9+01331+99999100881ADDGF105991999999999999999999
0029029700999991921062220004+60100+019950FM-12+001499999V0209991C000019999999N0000001N9+00941+99999100991ADDGF100991999999999999999999
0046029700999991921062306004+60100+019950FM-12+001499999V0203201N001019999999N0000001N9+01281+99999100921ADDAJ100009199999999GF101991999999999999999999
0029029700999991921062313004+60100+019950FM-12+001499999V0209991C000019999999N0000001N9+01671+99999100961ADDGF101991999999999999999999
0029029700999991921062320004+60100+019950FM-12+001499999V0209991C000019999999N0000001N9+01111+99999101061ADDGF101991999999999999999999
0046029700999991921062406004+60100+019950FM-12+001499999V0209991C000019999999N0000001N9+01441+99999101121ADDAJ100009199999999GF101991999999999999999999
0029029700999991921062413004+60100+019950FM-12+001499999V0202301N001019999999N0000001N9+01831+99999101271ADDGF101991999999999999999999
0029029700999991921062420004+60100+019950FM-12+001499999V0203201N001019999999N0000001N9+01331+99999101401ADDGF102991999999999999999999
0046029700999991921062506004+60100+019950FM-12+001499999V0203601N006219999999N0000001N9+01221+99999101401ADDAJ100009199999999GF100991999999999999999999
0029029700999991921062513004+60100+019950FM-12+001499999V0203201N008719999999N0000001N9+01561+99999101391ADDGF100991999999999999999999
0029029700999991921062520004+60100+019950FM-12+001499999V0209991C000019999999N0000001N9+00941+99999101231ADDGF101991999999999999999999
0046029700999991921062606004+60100+019950FM-12+001499999V0202001N001019999999N0000001N9+01441+99999100821ADDAJ100009199999999GF103991999999999999999999
0029029700999991921062613004+60100+019950FM-12+001499999V0202301N001019999999N0000001N9+01941+99999100601ADDGF100991999999999999999999
0029029700999991921062620004+60100+019950FM-12+001499999V0202501N002119999999N0000001N9+01611+99999100581ADDGF101991999999999999999999
0052029700999991921062706004+60100+019950FM-12+001499999V0202701N001019999999N0000001N9+01221+99999100701ADDAJ100009199999999GF108991999999999999999999MW1621
0009029700999991921062713004+60100+019950FM-12+001499999V0203601N001019999999N0000001N9+01221+99999100831ADDMW1621
0029029700999991921062720004+60100+019950FM-12+001499999V0209991C000019999999N0000001N9+00941+99999100761ADDGF107991999999999999999999
0046029700999991921062806004+60100+019950FM-12+001499999V0203601N002119999999N0000001N9+01171+99999100591ADDAJ100009199999999GF106991999999999999999999
0029029700999991921062813004+60100+019950FM-12+001499999V0203201N003119999999N0000001N9+01281+99999100641ADDGF101991999999999999999999
0029029700999991921062820004+60100+019950FM-12+001499999V0209991C000019999999N0000001N9+00941+99999100511ADDGF100991999999999999999999
0046029700999991921062906004+60100+019950FM-12+001499999V0203401N004119999999N0000001N9+01171+99999100241ADDAJ100009199999999GF106991999999999999999999
0000029700999991921062913004+60100+019950FM-12+001499999V0203201N006219999999N0000001N9+01221+99999100301
0035029700999991921062920004+60100+019950FM-12+001499999V0202901N001019999999N0000001N9+01001+99999100101ADDGF108991999999999999999999MW1621
0052029700999991921063006004+60100+019950FM-12+001499999V0203401N006219999999N0000001N9+00891+99999099781ADDAJ100009199999999GF108991999999999999999999MW1621
0029029700999991921063013004+60100+019950FM-12+001499999V0203601N003119999999N0000001N9+01391+99999100111ADDGF107991999999999999999999
0029029700999991921063020004+60100+019950FM-12+001499999V0203601N003119999999N0000001N9+01111+99999100551ADDGF108991999999999999999999
0046029700999991921070106004+60100+019950FM-12+001499999V0203601N003119999999N0000001N9+01281+99999100991ADDAJ100009199999999GF108991999999999999999999
0000029700999991921070113004+60100+019950FM-12+001499999V0203201N002119999999N0000001N9+01391+99999101271
0029029700999991921070120004+60100+019950FM-12+001499999V0209991C000019999999N0000001N9+01111+99999101401ADDGF106991999999999999999999
0046029700999991921070206004+60100+019950FM-12+001499999V0209991C000019999999N0000001N9+01501+99999101471ADDAJ100009199999999GF100991999999999999999999
0029029700999991921070213004+60100+019950FM-12+001499999V0209991C000019999999N0000001N9+01671+99999101601ADDGF106991999999999999999999
0029029700999991921070220004+60100+019950FM-12+001499999V0209991C000019999999N0000001N9+01171+99999101621ADDGF101991999999999999999999
0046029700999991921070306004+60100+019950FM-12+001499999V0209991C000019999999N0000001N9+01561+99999101621ADDAJ100009199999999GF103991999999999999999999
0029029700999991921070313004+60100+019950FM-12+001499999V0209991C000019999999N0000001N9+01781+99999101591ADDGF104991999999999999999999
0029029700999991921070320004+60100+019950FM-12+001499999V0209991C000019999999N0000001N9+01221+99999101561ADDGF100991999999999999999999
0046029700999991921070406004+60100+019950FM-12+001499999V0209991C000019999999N0000001N9+01441+99999101441ADDAJ100009199999999GF100991999999999999999999
0000029700999991921070413004+60100+019950FM-12+001499999V0202301N001019999999N0000001N9+01281+99999101441
0029029700999991921070420004+60100+019950FM-12+001499999V0209991C000019999999N0000001N9+01221+99999101321ADDGF108991999999999999999999
0046029700999991921070506004+60100+019950FM-12+001499999V0200901N001019999999N0000001N9+01331+99999101061ADDAJ100009199999999GF108991999999999999999999
0000029700999991921070513004+60100+019950FM-12+001499999V0203201N003119999999N0000001N9+01001+99999101181
0029029700999991921070520004+60100+019950FM-12+001499999V0209991C000019999999N0000001N9+00891+99999101231ADDGF102991999999999999999999
0046029700999991921070606004+60100+019950FM-12+001499999V0203401N001019999999N0000001N9+01221+99999101191ADDAJ100009199999999GF101991999999999999999999
0029029700999991921070613004+60100+019950FM-12+001499999V0203201N006219999999N0000001N9+01331+99999101321ADDGF102991999999999999999999
0029029700999991921070620004+60100+019950FM-12+001499999V0209991C000019999999N0000001N9+01001+99999101391ADDGF100991999999999999999999
0046029700999991921070706004+60100+019950FM-12+001499999V0202901N001019999999N0000001N9+01391+99999101481ADDAJ100009199999999GF100991999999999999999999
0029029700999991921070713004+60100+019950FM-12+001499999V0203601N003119999999N0000001N9+01671+99999101631ADDGF101991999999999999999999
0029029700999991921070720004+60100+019950FM-12+001499999V0209991C000019999999N0000001N9+01061+99999101741ADDGF100991999999999999999999
0046029700999991921070806004+60100+019950FM-12+001499999V0209991C000019999999N0000001N9+01441+99999101751ADDAJ100009199999999GF100991999999999999999999
0029029700999991921070813004+60100+019950FM-12+001499999V0201601N006219999999N0000001N9+01831+99999101681ADDGF102991999999999999999999
0029029700999991921070820004+60100+019950FM-12+001499999V0202301N003119999999N0000001N9+01561+99999101461ADDGF102991999999999999999999
0052029700999991921070906004+60100+019950FM-12+001499999V0202301N001019999999N0000001N9+01391+99999101121ADDAJ100009199999999GF107991999999999999999999MW1621
0029029700999991921070913004+60100+019950FM-12+001499999V0203601N004119999999N0000001N9+01611+99999101321ADDGF107991999999999999999999
0029029700999991921070920004+60100+019950FM-12+001499999V0209991C000019999999N0000001N9+01281+99999101501ADDGF100991999999999999999999
0046029700999991921071006004+60100+019950FM-12+001499999V0202301N001019999999N0000001N9+01441+99999101311ADDAJ100009199999999GF108991999999999999999999
0029029700999991921071013004+60100+019950FM-12+001499999V0202701N006219999999N0000001N9+02061+99999100871ADDGF103991999999999999999999
0029029700999991921071020004+60100+019950FM-12+001499999V0209991C000019999999N0000001N9+01221+99999101101ADDGF100991999999999999999999
0046029700999991921071106004+60100+019950FM-12+001499999V0209991C000019999999N0000001N9+01611+99999101061ADDAJ100009199999999GF101991999999999999999999
0029029700999991921071113004+60100+019950FM-12+001499999V0202001N005119999999N0000001N9+01721+99999100351ADDGF103991999999999999999999
0029029700999991921071120004+60100+019950FM-12+001499999V0202501N001019999999N0000001N9+01331+99999099631ADDGF103991999999999999999999
0052029700999991921071206004+60100+019950FM-12+001499999V0202701N004119999999N0000001N9+00941+99999099021ADDAJ100009199999999GF108991999999999999999999MW1621
0029029700999991921071213004+60100+019950FM-12+001499999V0203201N006219999999N0000001N9+01441+99999099601ADDGF106991999999999999999999
0035029700999991921071220004+60100+019950FM-12+001499999V0203201N004119999999N0000001N9+01221+99999099901ADDGF108991999999999999999999MW1621
0046029700999991921071306004+60100+019950FM-12+001499999V0203201N007219999999N0000001N9+01001+99999999999ADDAJ100009199999999GF108991999999999999999999
0029029700999991921071313004+60100+019950FM-12+001499999V0202701N006219999999N0000001N9+01441+99999100161ADDGF102991999999999999999999
0029029700999991921071320004+60100+019950FM-12+001499999V0203201N003119999999N0000001N9+01221+99999100191ADDGF107991999999999999999999
0046029700999991921071406004+60100+019950FM-12+001499999V0203201N007219999999N0000001N9+01001+99999100191ADDAJ100009199999999GF108991999999999999999999
0029029700999991921071413004+60100+019950FM-12+001499999V0203201N008219999999N0000001N9+01001+99999100551ADDGF108991999999999999999999
0029029700999991921071420004+60100+019950FM-12+001499999V0203401N003119999999N0000001N9+01001+99999100951ADDGF102991999999999999999999
0046029700999991921071506004+60100+019950FM-12+001499999V0203401N003119999999N0000001N9+01331+99999101391ADDAJ100009199999999GF102991999999999999999999
0029029700999991921071513004+60100+019950FM-12+001499999V0202901N003119999999N0000001N9+01561+99999101641ADDGF101991999999999999999999
0029029700999991921071520004+60100+019950FM-12+001499999V0209991C000019999999N0000001N9+00941+99999101781ADDGF100991999999999999999999
0046029700999991921071606004+60100+019950FM-12+001499999V0209991C000019999999N0000001N9+01331+99999101871ADDAJ100009199999999GF100991999999999999999999
0029029700999991921071613004+60100+019950FM-12+001499999V0203201N001019999999N0000001N9+01671+99999101881ADDGF100991999999999999999999
0029029700999991921071620004+60100+019950FM-12+001499999V0202501N001019999999N0000001N9+01281+99999101791ADDGF108991999999999999999999
0046029700999991921071706004+60100+019950FM-12+001499999V0200201N001019999999N0000001N9+01331+99999101721ADDAJ100009199999999GF102991999999999999999999
0029029700999991921071713004+60100+019950FM-12+001499999V0200201N005119999999N0000001N9+01561+99999101701ADDGF106991999999999999999999
0029029700999991921071720004+60100+019950FM-12+001499999V0203401N001019999999N0000001N9+01001+99999101901ADDGF100991999999999999999999
0046029700999991921071806004+60100+019950FM-12+001499999V0203201N003119999999N0000001N9+01331+99999102021ADDAJ100009199999999GF100991999999999999999999
0029029700999991921071813004+60100+019950FM-12+001499999V0200501N003119999999N0000001N9+01781+99999101981ADDGF101991999999999999999999
0029029700999991921071820004+60100+019950FM-12+001499999V0209991C000019999999N0000001N9+01001+99999101751ADDGF100991999999999999999999
0046029700999991921071906004+60100+019950FM-12+001499999V0209991C000019999999N0000001N9+01281+99999101271ADDAJ100009199999999GF103991999999999999999999
0029029700999991921071913004+60100+019950FM-12+001499999V0200201N001019999999N0000001N9+02061+99999101151ADDGF100991999999999999999999
0029029700999991921071920004+60100+019950FM-12+001499999V0209991C000019999999N0000001N9+01221+99999101351ADDGF101991999999999999999999
0046029700999991921072006004+60100+019950FM-12+001499999V0209991C000019999999N0000001N9+01221+99999101261ADDAJ100009199999999GF106991999999999999999999
0029029700999991921072013004+60100+019950FM-12+001499999V0202301N001019999999N0000001N9+01611+99999101191ADDGF103991999999999999999999
0035029700999991921072020004+60100+019950FM-12+001499999V0209991C000019999999N0000001N9+01061+99999101081ADDGF103991999999999999999999MW1001
0046029700999991921072106004+60100+019950FM-12+001499999V0202001N001019999999N0000001N9+01391+99999100671ADDAJ100009199999999GF108991999999999999999999
0029029700999991921072113004+60100+019950FM-12+001499999V0201601N004119999999N0000001N9+01391+99999100431ADDGF108991999999999999999999
0029029700999991921072120004+60100+019950FM-12+001499999V0209991C000019999999N0000001N9+01331+99999100261ADDGF104991999999999999999999
0046029700999991921072206004+60100+019950FM-12+001499999V0200501N001019999999N0000001N9+01561+99999100231ADDAJ100009199999999GF104991999999999999999999
0029029700999991921072213004+60100+019950FM-12+001499999V0202301N001019999999N0000001N9+02001+99999100391ADDGF104991999999999999999999
0029029700999991921072220004+60100+019950FM-12+001499999V0209991C000019999999N0000001N9+01331+99999100231ADDGF107991999999999999999999
0052029700999991921072306004+60100+019950FM-12+001499999V0201601N005119999999N0000001N9+01331+99999099421ADDAJ100009199999999GF108991999999999999999999MW1621
0035029700999991921072313004+60100+019950FM-12+001499999V0201601N003119999999N0000001N9+01331+99999098191ADDGF108991999999999999999999MW1621
0029029700999991921072320004+60100+019950FM-12+001499999V0202701N004119999999N0000001N9+01221+99999098431ADDGF103991999999999999999999
0046029700999991921072406004+60100+019950FM-12+001499999V0202701N003119999999N0000001N9+01281+99999098961ADDAJ100009199999999GF101991999999999999999999
0029029700999991921072413004+60100+019950FM-12+001499999V0202501N003119999999N0000001N9+01611+99999098961ADDGF104991999999999999999999
0029029700999991921072420004+60100+019950FM-12+001499999V0202501N003119999999N0000001N9+01171+99999099081ADDGF107991999999999999999999
0046029700999991921072506004+60100+019950FM-12+001499999V0202501N007219999999N0000001N9+01221+99999099471ADDAJ100009199999999GF102991999999999999999999
0035029700999991921072513004+60100+019950FM-12+001499999V0203201N009819999999N0000001N9+01501+99999999999ADDGF107991999999999999999999MW1621
0029029700999991921072520004+60100+019950FM-12+001499999V0202901N007219999999N0000001N9+01441+99999100591ADDGF108991999999999999999999
0046029700999991921072606004+60100+019950FM-12+001499999V0209991C000019999999N0000001N9+01441+99999101181ADDAJ100009199999999GF101991999999999999999999
0029029700999991921072613004+60100+019950FM-12+001499999V0202001N001019999999N0000001N9+01721+99999101301ADDGF100991999999999999999999
0029029700999991921072620004+60100+019950FM-12+001499999V0202301N004119999999N0000001N9+01391+99999101041ADDGF102991999999999999999999
0046029700999991921072706004+60100+019950FM-12+001499999V0202301N003119999999N0000001N9+01501+99999100801ADDAJ100009199999999GF107991999999999999999999
0029029700999991921072713004+60100+019950FM-12+001499999V0202301N003119999999N0000001N9+01781+99999100701ADDGF103991999999999999999999
0029029700999991921072720004+60100+019950FM-12+001499999V0202301N003119999999N0000001N9+01501+99999100621ADDGF101991999999999999999999
0046029700999991921072806004+60100+019950FM-12+001499999V0202301N003119999999N0000001N9+01331+99999100601ADDAJ100009199999999GF100991999999999999999999
0029029700999991921072813004+60100+019950FM-12+001499999V0202301N003119999999N0000001N9+01831+99999100621ADDGF101991999999999999999999
0029029700999991921072820004+60100+019950FM-12+001499999V0209991C000019999999N0000001N9+01221+99999100751ADDGF101991999999999999999999
0046029700999991921072906004+60100+019950FM-12+001499999V0209991C000019999999N0000001N9+01501+99999101001ADDAJ100009199999999GF102991999999999999999999
0029029700999991921072913004+60100+019950FM-12+001499999V0201801N003119999999N0000001N9+01831+99999101111ADDGF100991999999999999999999
0035029700999991921072920004+60100+019950FM-12+001499999V0201401N004119999999N0000001N9+01611+99999100781ADDGF107991999999999999999999MW1621
0046029700999991921073006004+60100+019950FM-12+001499999V0201801N001019999999N0000001N9+01561+99999100311ADDAJ100009199999999GF106991999999999999999999
0029029700999991921073013004+60100+019950FM-12+001499999V0202301N001019999999N0000001N9+01721+99999099981ADDGF102991999999999999999999
0029029700999991921073020004+60100+019950FM-12+001499999V0203201N004119999999N0000001N9+01391+99999100421ADDGF108991999999999999999999
0046029700999991921073106004+60100+019950FM-12+001499999V0203601N007219999999N0000001N9+01221+99999101001ADDAJ100009199999999GF100991999999999999999999
0029029700999991921073113004+60100+019950FM-12+001499999V0209991C000019999999N0000001N9+01561+99999101231ADDGF100991999999999999999999
0029029700999991921073120004+60100+019950FM-12+001499999V0209991C000019999999N0000001N9+01441+99999101151ADDGF102991999999999999999999
0046029700999991921080106004+60100+019950FM-12+001499999V0209991C000019999999N0000001N9+01501+99999100941ADDAJ100009199999999GF101991999999999999999999
0029029700999991921080113004+60100+019950FM-12+001499999V0202301N001019999999N0000001N9+01671+99999101121ADDGF105991999999999999999999
0029029700999991921080120004+60100+019950FM-12+001499999V0209991C000019999999N0000001N9+01441+99999101151ADDGF102991999999999999999999
0046029700999991921080206004+60100+019950FM-12+001499999V0209991C000019999999N0000001N9+01501+99999101301ADDAJ100009199999999GF106991999999999999999999
0029029700999991921080213004+60100+019950FM-12+001499999V0202301N001019999999N0000001N9+01781+99999101401ADDGF105991999999999999999999
0029029700999991921080220004+60100+019950FM-12+001499999V0209991C000019999999N0000001N9+01561+99999101421ADDGF106991999999999999999999
0046029700999991921080306004+60100+019950FM-12+001499999V0201401N001019999999N0000001N9+01781+99999101351ADDAJ100009199999999GF100991999999999999999999
0029029700999991921080313004+60100+019950FM-12+001499999V0202001N004119999999N0000001N9+02281+99999101271ADDGF100991999999999999999999
0029029700999991921080320004+60100+019950FM-12+001499999V0201801N003119999999N0000001N9+01611+99999101161ADDGF101991999999999999999999
0046029700999991921080406004+60100+019950FM-12+001499999V0201801N004119999999N0000001N9+01891+99999100831ADDAJ100009199999999GF102991999999999999999999
0029029700999991921080413004+60100+019950FM-12+001499999V0202301N004119999999N0000001N9+02001+99999100801ADDGF100991999999999999999999
0029029700999991921080420004+60100+019950FM-12+001499999V0202701N003119999999N0000001N9+01561+99999100881ADDGF107991999999999999999999
0046029700999991921080506004+60100+019950FM-12+001499999V0202301N004119999999N0000001N9+01331+99999100981ADDAJ100009199999999GF106991999999999999999999
0029029700999991921080513004+60100+019950FM-12+001499999V0202301N003119999999N0000001N9+01781+99999100861ADDGF101991999999999999999999
0029029700999991921080520004+60100+019950FM-12+001499999V0202301N003119999999N0000001N9+01501+99999100601ADDGF101991999999999999999999
0046029700999991921080606004+60100+019950FM-12+001499999V0202301N003119999999N0000001N9+01501+99999099951ADDAJ100009199999999GF108991999999999999999999
0029029700999991921080613004+60100+019950FM-12+001499999V0202301N006219999999N0000001N9+01561+99999099121ADDGF108991999999999999999999
0029029700999991921080620004+60100+019950FM-12+001499999V0202301N003119999999N0000001N9+01501+99999098581ADDGF107991999999999999999999
0046029700999991921080706004+60100+019950FM-12+001499999V0202301N006219999999N0000001N9+01391+99999098341ADDAJ100009199999999GF107991999999999999999999
0029029700999991921080713004+60100+019950FM-12+001499999V0202301N003119999999N0000001N9+01561+99999098381ADDGF105991999999999999999999
0035029700999991921080720004+60100+019950FM-12+001499999V0202901N004119999999N0000001N9+01061+99999098831ADDGF108991999999999999999999MW1621
0046029700999991921080806004+60100+019950FM-12+001499999V0202301N004119999999N0000001N9+01061+99999098741ADDAJ100009199999999GF103991999999999999999999
0035029700999991921080813004+60100+019950FM-12+001499999V0202701N004119999999N0000001N9+01111+99999098741ADDGF108991999999999999999999MW1621
0029029700999991921080820004+60100+019950FM-12+001499999V0209991C000019999999N0000001N9+01061+99999098831ADDGF104991999999999999999999
0046029700999991921080906004+60100+019950FM-12+001499999V0202701N004119999999N0000001N9+01001+99999098631ADDAJ100009199999999GF106991999999999999999999
0035029700999991921080913004+60100+019950FM-12+001499999V0202701N003119999999N0000001N9+01111+99999098721ADDGF108991999999999999999999MW1621
0029029700999991921080920004+60100+019950FM-12+001499999V0209991C000019999999N0000001N9+01061+99999099071ADDGF108991999999999999999999
0046029700999991921081006004+60100+019950FM-12+001499999V0209991C000019999999N0000001N9+01281+99999099591ADDAJ100009199999999GF107991999999999999999999
0029029700999991921081013004+60100+019950FM-12+001499999V0209991C000019999999N0000001N9+01611+99999100141ADDGF106991999999999999999999
0029029700999991921081020004+60100+019950FM-12+001499999V0209991C000019999999N0000001N9+01221+99999100561ADDGF106991999999999999999999
0046029700999991921081106004+60100+019950FM-12+001499999V0209991C000019999999N0000001N9+01281+99999100951ADDAJ100009199999999GF107991999999999999999999
0029029700999991921081113004+60100+019950FM-12+001499999V0202501N003119999999N0000001N9+01781+99999101141ADDGF102991999999999999999999
0029029700999991921081120004+60100+019950FM-12+001499999V0202301N001019999999N0000001N9+01281+99999101241ADDGF102991999999999999999999
0052029700999991921081206004+60100+019950FM-12+001499999V0209991C000019999999N0000001N9+01391+99999101321ADDAJ100009199999999GF108991999999999999999999MW1621
0029029700999991921081213004+60100+019950FM-12+001499999V0201401N002119999999N0000001N9+01611+99999101271ADDGF106991999999999999999999
0029029700999991921081220004+60100+019950FM-12+001499999V0201101N003119999999N0000001N9+01501+99999100991ADDGF107991999999999999999999
0046029700999991921081306004+60100+019950FM-12+001499999V0201101N004119999999N0000001N9+01611+99999100381ADDAJ100009199999999GF105991999999999999999999
0029029700999991921081313004+60100+019950FM-12+001499999V0201401N004119999999N0000001N9+01721+99999100161ADDGF107991999999999999999999
0029029700999991921081320004+60100+019950FM-12+001499999V0201401N004119999999N0000001N9+01831+99999100021ADDGF106991999999999999999999
0046029700999991921081406004+60100+019950FM-12+001499999V0201401N003119999999N0000001N9+01671+99999099991ADDAJ100009199999999GF107991999999999999999999
0029029700999991921081413004+60100+019950FM-12+001499999V0201401N003119999999N0000001N9+01891+99999100111ADDGF105991999999999999999999
0029029700999991921081420004+60100+019950FM-12+001499999V0201401N003119999999N0000001N9+01941+99999100161ADDGF103991999999999999999999
0046029700999991921081506004+60100+019950FM-12+001499999V0201601N001019999999N0000001N9+01501+99999100421ADDAJ100009199999999GF102991999999999999999999
0029029700999991921081513004+60100+019950FM-12+001499999V0201401N002119999999N0000001N9+01561+99999100591ADDGF104991999999999999999999
0029029700999991921081520004+60100+019950FM-12+001499999V0201801N005119999999N0000001N9+01391+99999100791ADDGF102991999999999999999999
0046029700999991921081606004+60100+019950FM-12+001499999V0201601N005119999999N0000001N9+01441+99999100911ADDAJ100009199999999GF104991999999999999999999
0029029700999991921081613004+60100+019950FM-12+001499999V0201601N007219999999N0000001N9+01611+99999101151ADDGF102991999999999999999999
0029029700999991921081620004+60100+019950FM-12+001499999V0201601N004119999999N0000001N9+01331+99999101231ADDGF102991999999999999999999
0046029700999991921081706004+60100+019950FM-12+001499999V0202001N003119999999N0000001N9+01391+99999101441ADDAJ100009199999999GF108991999999999999999999
0029029700999991921081713004+60100+019950FM-12+001499999V0202001N002119999999N0000001N9+01441+99999101671ADDGF108991999999999999999999
0029029700999991921081720004+60100+019950FM-12+001499999V0202301N001019999999N0000001N9+01281+99999101871ADDGF100991999999999999999999
0046029700999991921081806004+60100+019950FM-12+001499999V0209991C000019999999N0000001N9+01391+99999102021ADDAJ100009199999999GF102991999999999999999999
0029029700999991921081813004+60100+019950FM-12+001499999V0202301N003119999999N0000001N9+01721+99999102071ADDGF106991999999999999999999
0029029700999991921081820004+60100+019950FM-12+001499999V0209991C000019999999N0000001N9+00941+99999102061ADDGF100991999999999999999999
0046029700999991921081906004+60100+019950FM-12+001499999V0209991C000019999999N0000001N9+01171+99999102101ADDAJ100009199999999GF101991999999999999999999
0029029700999991921081913004+60100+019950FM-12+001499999V0209991C000019999999N0000001N9+01781+99999102111ADDGF100991999999999999999999
0029029700999991921081920004+60100+019950FM-12+001499999V0209991C000019999999N0000001N9+01001+99999102101ADDGF100991999999999999999999
0046029700999991921082006004+60100+019950FM-12+001499999V0202301N001019999999N0000001N9+01391+99999102081ADDAJ100009199999999GF103991999999999999999999
0029029700999991921082013004+60100+019950FM-12+001499999V0202301N001019999999N0000001N9+01781+99999102031ADDGF101991999999999999999999
0029029700999991921082020004+60100+019950FM-12+001499999V0202301N001019999999N0000001N9+01391+99999101921ADDGF100991999999999999999999
0046029700999991921082106004+60100+019950FM-12+001499999V0202301N001019999999N0000001N9+01501+99999101911ADDAJ100009199999999GF101991999999999999999999
0029029700999991921082113004+60100+019950FM-12+001499999V0202301N005119999999N0000001N9+01721+99999101981ADDGF100991999999999999999999
0029029700999991921082120004+60100+019950FM-12+001499999V0202301N001019999999N0000001N9+01501+99999101821ADDGF100991999999999999999999
0046029700999991921082206004+60100+019950FM-12+001499999V0202501N002119999999N0000001N9+01501+99999101841ADDAJ100009199999999GF100991999999999999999999
0029029700999991921082213004+60100+019950FM-12+001499999V0202301N002119999999N0000001N9+02001+99999101911ADDGF100991999999999999999999
0029029700999991921082220004+60100+019950FM-12+001499999V0209991C000019999999N0000001N9+01331+99999101991ADDGF100991999999999999999999
0046029700999991921082306004+60100+019950FM-12+001499999V0209991C000019999999N0000001N9+01441+99999102031ADDAJ100009199999999GF100991999999999999999999
0029029700999991921082313004+60100+019950FM-12+001499999V0202001N001019999999N0000001N9+02001+99999102151ADDGF100991999999999999999999
0029029700999991921082320004+60100+019950FM-12+001499999V0209991C000019999999N0000001N9+01171+99999102121ADDGF101991999999999999999999
0046029700999991921082406004+60100+019950FM-12+001499999V0202301N002119999999N0000001N9+01501+99999102111ADDAJ100009199999999GF103991999999999999999999
0029029700999991921082413004+60100+019950FM-12+001499999V0201801N007219999999N0000001N9+01831+99999102061ADDGF101991999999999999999999
0029029700999991921082420004+60100+019950FM-12+001499999V0202301N005119999999N0000001N9+01441+99999101871ADDGF100991999999999999999999
0046029700999991921082506004+60100+019950FM-12+001499999V0202001N005119999999N0000001N9+01561+99999101591ADDAJ100009199999999GF100991999999999999999999
0029029700999991921082513004+60100+019950FM-12+001499999V0202301N007219999999N0000001N9+01781+99999101341ADDGF102991999999999999999999
0029029700999991921082520004+60100+019950FM-12+001499999V0201801N007219999999N0000001N9+01501+99999100981ADDGF102991999999999999999999
0046029700999991921082606004+60100+019950FM-12+001499999V0201601N004119999999N0000001N9+01611+99999100341ADDAJ100009199999999GF102991999999999999999999
0029029700999991921082613004+60100+019950FM-12+001499999V0201801N004119999999N0000001N9+01611+99999100151ADDGF108991999999999999999999
0035029700999991921082620004+60100+019950FM-12+001499999V0209991C000019999999N0000001N9+01281+99999100121ADDGF108991999999999999999999MW1621
0046029700999991921082706004+60100+019950FM-12+001499999V0201801N001019999999N0000001N9+01061+99999100441ADDAJ100009199999999GF101991999999999999999999
0029029700999991921082713004+60100+019950FM-12+001499999V0201801N007219999999N0000001N9+01501+99999100541ADDGF106991999999999999999999
0035029700999991921082720004+60100+019950FM-12+001499999V0202001N006219999999N0000001N9+01331+99999099941ADDGF108991999999999999999999MW1621
0046029700999991921082806004+60100+019950FM-12+001499999V0202501N007219999999N0000001N9+01221+99999100361ADDAJ100009199999999GF107991999999999999999999
0029029700999991921082813004+60100+019950FM-12+001499999V0202301N008219999999N0000001N9+01281+99999100511ADDGF107991999999999999999999
0029029700999991921082820004+60100+019950FM-12+001499999V0202701N003119999999N0000001N9+01281+99999100841ADDGF100991999999999999999999
