0029028970999991925010106004+64217+027767FM-12+014699999V0202001N003119999999N0000001N9+00001+99999097831ADDGF100991999999999999999999
0029028970999991925010113004+64217+027767FM-12+014699999V0202001N006219999999N0000001N9+00061+99999098081ADDGF108991999999999999999999
0029028970999991925010120004+64217+027767FM-12+014699999V0209991C000019999999N0000001N9+00001+99999097981ADDGF108991999999999999999999
0029028970999991925010206004+64217+027767FM-12+014699999V0201801N009819999999N0000001N9-00061+99999097741ADDGF108991999999999999999999
0029028970999991925010213004+64217+027767FM-12+014699999V0201801N004119999999N0000001N9-00111+99999097351ADDGF108991999999999999999999
0029028970999991925010220004+64217+027767FM-12+014699999V0201801N009819999999N0000001N9-00061+99999096541ADDGF108991999999999999999999
0029028970999991925010306004+64217+027767FM-12+014699999V0200901N004119999999N0000001N9+00001+99999095581ADDGF108991999999999999999999
0035028970999991925010313004+64217+027767FM-12+014699999V0200901N004119999999N0000001N9+00001+99999104632ADDGF108991999999999999999999MW1721
0029028970999991925010320004+64217+027767FM-12+014699999V0200901N002119999999N0000001N9+00001+99999104631ADDGF108991999999999999999999
0029028970999991925010406004+64217+027767FM-12+014699999V0209991C000019999999N0000001N9-00221+99999095312ADDGF108991999999999999999999
0029028970999991925010413004+64217+027767FM-12+014699999V0209991C000019999999N0000001N9-00221+99999096031ADDGF108991999999999999999999
0029028970999991925010420004+64217+027767FM-12+014699999V0209991C000019999999N0000001N9-00221+99999096261ADDGF108991999999999999999999
0029028970999991925010506004+64217+027767FM-12+014699999V0209991C000019999999N0000001N9-00171+99999096001ADDGF108991999999999999999999
0029028970999991925010513004+64217+027767FM-12+014699999V0202301N001019999999N0000001N9-00281+99999096161ADDGF102991999999999999999999
0029028970999991925010520004+64217+027767FM-12+014699999V0209991C000019999999N0000001N9-00221+99999096241ADDGF108991999999999999999999
0029028970999991925010606004+64217+027767FM-12+014699999V0209991C000019999999N0000001N9-00111+99999096601ADDGF108991999999999999999999
0029028970999991925010613004+64217+027767FM-12+014699999V0209991C000019999999N0000001N9-00441+99999096721ADDGF108991999999999999999999
0029028970999991925010620004+64217+027767FM-12+014699999V0209991C000019999999N0000001N9-00561+99999096921ADDGF108991999999999999999999
0029028970999991925010706004+64217+027767FM-12+014699999V0209991C000019999999N0000001N9-01001+99999097271ADDGF100991999999999999999999
0029028970999991925010713004+64217+027767FM-12+014699999V0209991C000019999999N0000001N9-00831+99999097401ADDGF108991999999999999999999
0029028970999991925010720004+64217+027767FM-12+014699999V0209991C000019999999N0000001N9-00781+99999097581ADDGF108991999999999999999999
0029028970999991925010806004+64217+027767FM-12+014699999V0209991C000019999999N0000001N9-00941+99999098021ADDGF108991999999999999999999
0029028970999991925010813004+64217+027767FM-12+014699999V0209991C000019999999N0000001N9-00781+99999098391ADDGF108991999999999999999999
0029028970999991925010820004+64217+027767FM-12+014699999V0209991C000019999999N0000001N9-00781+99999098361ADDGF108991999999999999999999
0029028970999991925010906004+64217+027767FM-12+014699999V0209991C000019999999N0000001N9-00781+99999097901ADDGF108991999999999999999999
0029028970999991925010913004+64217+027767FM-12+014699999V0209991C000019999999N0000001N9-00611+99999097801ADDGF108991999999999999999999
0029028970999991925010920004+64217+027767FM-12+014699999V0209991C000019999999N0000001N9-00561+99999097881ADDGF108991999999999999999999
0029028970999991925011006004+64217+027767FM-12+014699999V0209991C000019999999N0000001N9-00501+99999098271ADDGF108991999999999999999999
0029028970999991925011013004+64217+027767FM-12+014699999V0202701N002119999999N0000001N9-00721+99999098791ADDGF108991999999999999999999
0029028970999991925011020004+64217+027767FM-12+014699999V0209991C000019999999N0000001N9-00781+99999098881ADDGF108991999999999999999999
0029028970999991925011106004+64217+027767FM-12+014699999V0209991C000019999999N0000001N9-00671+99999098661ADDGF108991999999999999999999
0029028970999991925011113004+64217+027767FM-12+014699999V0201601N004119999999N0000001N9-00671+99999098791ADDGF108991999999999999999999
0029028970999991925011120004+64217+027767FM-12+014699999V0209991C000019999999N0000001N9-00721+99999099161ADDGF108991999999999999999999
0029028970999991925011206004+64217+027767FM-12+014699999V0209991C000019999999N0000001N9-00501+99999098951ADDGF108991999999999999999999
0029028970999991925011213004+64217+027767FM-12+014699999V0202701N004119999999N0000001N9+00001+99999099151ADDGF108991999999999999999999
0029028970999991925011220004+64217+027767FM-12+014699999V0209991C000019999999N0000001N9-00061+99999099241ADDGF102991999999999999999999
0029028970999991925011306004+64217+027767FM-12+014699999V0209991C000019999999N0000001N9-00171+99999099231ADDGF107991999999999999999999
0029028970999991925011313004+64217+027767FM-12+014699999V0209991C000019999999N0000001N9+00001+99999099111ADDGF100991999999999999999999
0029028970999991925011320004+64217+027767FM-12+014699999V0209991C000019999999N0000001N9+00001+99999099151ADDGF108991999999999999999999
0029028970999991925011406004+64217+027767FM-12+014699999V0209991C000019999999N0000001N9-00061+99999099241ADDGF108991999999999999999999
0029028970999991925011413004+64217+027767FM-12+014699999V0209991C000019999999N0000001N9-00061+99999099351ADDGF108991999999999999999999
0029028970999991925011420004+64217+027767FM-12+014699999V0202701N013919999999N0000001N9-00061+99999098281ADDGF108991999999999999999999
0029028970999991925011506004+64217+027767FM-12+014699999V0202001N013919999999N0000001N9+00281+99999097261ADDGF102991999999999999999999
0029028970999991925011513004+64217+027767FM-12+014699999V0202301N013919999999N0000001N9+00281+99999097151ADDGF100991999999999999999999
0029028970999991925011520004+64217+027767FM-12+014699999V0202301N007219999999N0000001N9+00061+99999096761ADDGF100991999999999999999999
0029028970999991925011606004+64217+027767FM-12+014699999V0202701N013919999999N0000001N9-00061+99999096601ADDGF108991999999999999999999
0029028970999991925011613004+64217+027767FM-12+014699999V0202701N009819999999N0000001N9-00171+99999097911ADDGF102991999999999999999999
0029028970999991925011620004+64217+027767FM-12+014699999V0202701N009819999999N0000001N9+00111+99999097241ADDGF100991999999999999999999
0029028970999991925011706004+64217+027767FM-12+014699999V0202701N013919999999N0000001N9+00221+99999097521ADDGF108991999999999999999999
0029028970999991925011713004+64217+027767FM-12+014699999V0202701N005119999999N0000001N9+00221+99999098141ADDGF101991999999999999999999
0029028970999991925011720004+64217+027767FM-12+014699999V0202701N003119999999N0000001N9-00171+99999099271ADDGF101991999999999999999999
0029028970999991925011806004+64217+027767FM-12+014699999V0202701N004119999999N0000001N9-00061+99999099791ADDGF108991999999999999999999
0029028970999991925011813004+64217+027767FM-12+014699999V0202701N006219999999N0000001N9+00111+99999099421ADDGF101991999999999999999999
0029028970999991925011820004+64217+027767FM-12+014699999V0209991C000019999999N0000001N9+00001+99999099141ADDGF100991999999999999999999
0029028970999991925011906004+64217+027767FM-12+014699999V0202701N013919999999N0000001N9+00171+99999098161ADDGF102991999999999999999999
0029028970999991925011913004+64217+027767FM-12+014699999V0202701N019019999999N0000001N9+00061+99999097541ADDGF106991999999999999999999
0029028970999991925011920004+64217+027767FM-12+014699999V0202701N020119999999N0000001N9-00221+99999099181ADDGF100991999999999999999999
0029028970999991925012006004+64217+027767FM-12+014699999V0202301N006219999999N0000001N9-00561+99999100521ADDGF106991999999999999999999
0029028970999991925012013004+64217+027767FM-12+014699999V0202301N006219999999N0000001N9+00001+99999100681ADDGF100991999999999999999999
0029028970999991925012020004+64217+027767FM-12+014699999V0202301N002119999999N0000001N9-00061+99999100601ADDGF100991999999999999999999
0029028970999991925012106004+64217+027767FM-12+014699999V0202301N006219999999N0000001N9+00111+99999100471ADDGF108991999999999999999999
0029028970999991925012113004+64217+027767FM-12+014699999V0202701N006219999999N0000001N9+00221+99999100681ADDGF104991999999999999999999
0029028970999991925012120004+64217+027767FM-12+014699999V0202701N004119999999N0000001N9+00001+99999100861ADDGF100991999999999999999999
0029028970999991925012206004+64217+027767FM-12+014699999V0209991C000019999999N0000001N9-00331+99999101081ADDGF100991999999999999999999
0029028970999991925012213004+64217+027767FM-12+014699999V0209991C000019999999N0000001N9-00281+99999101201ADDGF108991999999999999999999
0029028970999991925012220004+64217+027767FM-12+014699999V0209991C000019999999N0000001N9-00391+99999101201ADDGF108991999999999999999999
0029028970999991925012306004+64217+027767FM-12+014699999V0209991C000019999999N0000001N9-00781+99999101191ADDGF101991999999999999999999
0029028970999991925012313004+64217+027767FM-12+014699999V0209991C000019999999N0000001N9-00721+99999101141ADDGF108991999999999999999999
0029028970999991925012320004+64217+027767FM-12+014699999V0200901N006219999999N0000001N9-00331+99999100951ADDGF108991999999999999999999
0029028970999991925012406004+64217+027767FM-12+014699999V0202301N003119999999N0000001N9-00331+99999100751ADDGF108991999999999999999999
0029028970999991925012413004+64217+027767FM-12+014699999V0209991C000019999999N0000001N9-00391+99999100721ADDGF108991999999999999999999
0029028970999991925012420004+64217+027767FM-12+014699999V0209991C000019999999N0000001N9-00221+99999100671ADDGF108991999999999999999999
0029028970999991925012506004+64217+027767FM-12+014699999V0202301N004119999999N0000001N9-00281+99999100741ADDGF108991999999999999999999
0029028970999991925012513004+64217+027767FM-12+014699999V0202301N004119999999N0000001N9-00331+99999100981ADDGF101991999999999999999999
0029028970999991925012520004+64217+027767FM-12+014699999V0209991C000019999999N0000001N9-00331+99999101141ADDGF108991999999999999999999
0029028970999991925012606004+64217+027767FM-12+014699999V0209991C000019999999N0000001N9-00611+99999101321ADDGF108991999999999999999999
0029028970999991925012613004+64217+027767FM-12+014699999V0209991C000019999999N0000001N9-00331+99999101041ADDGF108991999999999999999999
0029028970999991925012620004+64217+027767FM-12+014699999V0209991C000019999999N0000001N9-00061+99999100321ADDGF108991999999999999999999
0029028970999991925012706004+64217+027767FM-12+014699999V0209991C000019999999N0000001N9+00001+99999999999ADDGF100991999999999999999999
0029028970999991925012713004+64217+027767FM-12+014699999V0202301N002119999999N0000001N9+00111+99999100021ADDGF104991999999999999999999
0029028970999991925012720004+64217+027767FM-12+014699999V0209991C000019999999N0000001N9-00221+99999100111ADDGF100991999999999999999999
0029028970999991925012806004+64217+027767FM-12+014699999V0209991C000019999999N0000001N9-00441+99999999999ADDGF100991999999999999999999
0029028970999991925012813004+64217+027767FM-12+014699999V0209991C000019999999N0000001N9-00331+99999100041ADDGF100991999999999999999999
0029028970999991925012820004+64217+027767FM-12+014699999V0209991C000019999999N0000001N9-00611+99999100061ADDGF108991999999999999999999
0029028970999991925012906004+64217+027767FM-12+014699999V0209991C000019999999N0000001N9-00781+99999100031ADDGF108991999999999999999999
0029028970999991925012913004+64217+027767FM-12+014699999V0209991C000019999999N0000001N9-00391+99999099841ADDGF108991999999999999999999
0029028970999991925012920004+64217+027767FM-12+014699999V0209991C000019999999N0000001N9-00441+99999099521ADDGF108991999999999999999999
0029028970999991925013006004+64217+027767FM-12+014699999V0201801N004119999999N0000001N9-00391+99999098801ADDGF108991999999999999999999
0029028970999991925013013004+64217+027767FM-12+014699999V0201601N004119999999N0000001N9-00281+99999098401ADDGF108991999999999999999999
0029028970999991925013020004+64217+027767FM-12+014699999V0201601N009819999999N0000001N9-00221+99999097991ADDGF108991999999999999999999
0029028970999991925013106004+64217+027767FM-12+014699999V0200901N007219999999N0000001N9-00221+99999097711ADDGF108991999999999999999999
0029028970999991925013113004+64217+027767FM-12+014699999V0201401N005119999999N0000001N9-00221+99999097481ADDGF108991999999999999999999
0029028970999991925013120004+64217+027767FM-12+014699999V0201401N005119999999N0000001N9-00171+99999097311ADDGF108991999999999999999999
0029028970999991925020106004+64217+027767FM-12+014699999V0200901N004119999999N0000001N9-00331+99999097261ADDGF108991999999999999999999
0029028970999991925020113004+64217+027767FM-12+014699999V0200901N004119999999N0000001N9-00501+99999097311ADDGF108991999999999999999999
0029028970999991925020120004+64217+027767FM-12+014699999V0209991C000019999999N0000001N9-00561+99999097561ADDGF108991999999999999999999
0029028970999991925020206004+64217+027767FM-12+014699999V0209991C000019999999N0000001N9-00561+99999098151ADDGF108991999999999999999999
0029028970999991925020213004+64217+027767FM-12+014699999V0209991C000019999999N0000001N9-00611+99999098341ADDGF108991999999999999999999
0029028970999991925020220004+64217+027767FM-12+014699999V0209991C000019999999N0000001N9-00721+99999098301ADDGF108991999999999999999999
0029028970999991925020306004+64217+027767FM-12+014699999V0209991C000019999999N0000001N9-00561+99999097791ADDGF108991999999999999999999
0029028970999991925020313004+64217+027767FM-12+014699999V0209991C000019999999N0000001N9-00281+99999097541ADDGF108991999999999999999999
0029028970999991925020320004+64217+027767FM-12+014699999V0209991C000019999999N0000001N9-00171+99999097471ADDGF108991999999999999999999
0029028970999991925020406004+64217+027767FM-12+014699999V0209991C000019999999N0000001N9-00501+99999097581ADDGF108991999999999999999999
0029028970999991925020413004+64217+027767FM-12+014699999V0209991C000019999999N0000001N9-00441+99999097271ADDGF104991999999999999999999
0029028970999991925020420004+64217+027767FM-12+014699999V0209991C000019999999N0000001N9-00331+99999097191ADDGF100991999999999999999999
0029028970999991925020506004+64217+027767FM-12+014699999V0209991C000019999999N0000001N9-00611+99999097681ADDGF100991999999999999999999
0029028970999991925020513004+64217+027767FM-12+014699999V0209991C000019999999N0000001N9-00441+99999097721ADDGF102991999999999999999999
0035028970999991925020520004+64217+027767FM-12+014699999V0202301N007219999999N0000001N9-00441+99999096801ADDGF108991999999999999999999MW1861
0029028970999991925020606004+64217+027767FM-12+014699999V0202301N001019999999N0000001N9-00061+99999096151ADDGF108991999999999999999999
0029028970999991925020613004+64217+027767FM-12+014699999V0202301N002119999999N0000001N9-00111+99999096151ADDGF103991999999999999999999
0029028970999991925020620004+64217+027767FM-12+014699999V0202301N001019999999N0000001N9-00111+99999095981ADDGF108991999999999999999999
0029028970999991925020706004+64217+027767FM-12+014699999V0202701N001019999999N0000001N9-00171+99999096311ADDGF108991999999999999999999
0029028970999991925020713004+64217+027767FM-12+014699999V0202701N002119999999N0000001N9-00221+99999097031ADDGF108991999999999999999999
0029028970999991925020720004+64217+027767FM-12+014699999V0202701N001019999999N0000001N9-00671+99999097781ADDGF108991999999999999999999
0029028970999991925020806004+64217+027767FM-12+014699999V0209991C000019999999N0000001N9-00671+99999098601ADDGF100991999999999999999999
0029028970999991925020813004+64217+027767FM-12+014699999V0209991C000019999999N0000001N9-00891+99999098941ADDGF108991999999999999999999
0029028970999991925020820004+64217+027767FM-12+014699999V0209991C000019999999N0000001N9-00941+99999099081ADDGF100991999999999999999999
0029028970999991925020906004+64217+027767FM-12+014699999V0201801N004119999999N0000001N9-00611+99999098301ADDGF108991999999999999999999
0035028970999991925020913004+64217+027767FM-12+014699999V0201801N009819999999N0000001N9-00281+99999097711ADDGF108991999999999999999999MW1381
0035028970999991925020920004+64217+027767FM-12+014699999V0202301N011819999999N0000001N9-00221+99999097071ADDGF108991999999999999999999MW1381
0029028970999991925021006004+64217+027767FM-12+014699999V0209991C000019999999N0000001N9-00061+99999096511ADDGF108991999999999999999999
0029028970999991925021013004+64217+027767FM-12+014699999V0201801N001019999999N0000001N9+00111+99999096911ADDGF108991999999999999999999
0029028970999991925021020004+64217+027767FM-12+014699999V0209991C000019999999N0000001N9-00061+99999097351ADDGF108991999999999999999999
0029028970999991925021106004+64217+027767FM-12+014699999V0200901N007219999999N0000001N9-00331+99999097081ADDGF108991999999999999999999
0029028970999991925021113004+64217+027767FM-12+014699999V0201401N002119999999N0000001N9-00171+99999096241ADDGF108991999999999999999999
0029028970999991925021120004+64217+027767FM-12+014699999V0201401N001019999999N0000001N9+00061+99999096541ADDGF108991999999999999999999
0029028970999991925021206004+64217+027767FM-12+014699999V0209991C000019999999N0000001N9-00061+99999097541ADDGF108991999999999999999999
0029028970999991925021213004+64217+027767FM-12+014699999V0209991C000019999999N0000001N9+00111+99999097911ADDGF108991999999999999999999
0029028970999991925021220004+64217+027767FM-12+014699999V0201801N003119999999N0000001N9+00331+99999097781ADDGF108991999999999999999999
0029028970999991925021306004+64217+027767FM-12+014699999V0202001N009819999999N0000001N9+00221+99999097841ADDGF108991999999999999999999
0029028970999991925021313004+64217+027767FM-12+014699999V0202301N004119999999N0000001N9+00281+99999098261ADDGF108991999999999999999999
0029028970999991925021320004+64217+027767FM-12+014699999V0202301N001019999999N0000001N9+00221+99999098881ADDGF108991999999999999999999
0029028970999991925021406004+64217+027767FM-12+014699999V0201801N007219999999N0000001N9+00111+99999099351ADDGF108991999999999999999999
0029028970999991925021413004+64217+027767FM-12+014699999V0201801N004119999999N0000001N9+00281+99999099751ADDGF100991999999999999999999
0029028970999991925021420004+64217+027767FM-12+014699999V0209991C000019999999N0000001N9-00171+99999099751ADDGF100991999999999999999999
0029028970999991925021506004+64217+027767FM-12+014699999V0209991C000019999999N0000001N9+00001+99999099581ADDGF108991999999999999999999
0029028970999991925021513004+64217+027767FM-12+014699999V0201801N001019999999N0000001N9+00111+99999099591ADDGF108991999999999999999999
0029028970999991925021520004+64217+027767FM-12+014699999V0209991C000019999999N0000001N9+00061+99999099391ADDGF108991999999999999999999
0029028970999991925021606004+64217+027767FM-12+014699999V0209991C000019999999N0000001N9+00061+99999099121ADDGF108991999999999999999999
0029028970999991925021613004+64217+027767FM-12+014699999V0209991C000019999999N0000001N9+00111+99999099241ADDGF108991999999999999999999
0029028970999991925021620004+64217+027767FM-12+014699999V0209991C000019999999N0000001N9+00001+99999099201ADDGF108991999999999999999999
0029028970999991925021706004+64217+027767FM-12+014699999V0209991C000019999999N0000001N9+00001+99999099121ADDGF108991999999999999999999
0035028970999991925021713004+64217+027767FM-12+014699999V0209991C000019999999N0000001N9+00061+99999098981ADDGF108991999999999999999999MW1721
0029028970999991925021720004+64217+027767FM-12+014699999V0209991C000019999999N0000001N9-00061+99999098641ADDGF108991999999999999999999
0035028970999991925021806004+64217+027767FM-12+014699999V0200901N004119999999N0000001N9-00221+99999097521ADDGF108991999999999999999999MW1721
0035028970999991925021813004+64217+027767FM-12+014699999V0200701N003119999999N0000001N9-00171+99999097061ADDGF108991999999999999999999MW1721
0029028970999991925021820004+64217+027767FM-12+014699999V0209991C000019999999N0000001N9-00501+99999097591ADDGF108991999999999999999999
0029028970999991925021906004+64217+027767FM-12+014699999V0209991C000019999999N0000001N9-00781+99999098071ADDGF108991999999999999999999
0029028970999991925021913004+64217+027767FM-12+014699999V0209991C000019999999N0000001N9-00611+99999098401ADDGF108991999999999999999999
0029028970999991925021920004+64217+027767FM-12+014699999V0209991C000019999999N0000001N9-00891+99999098661ADDGF108991999999999999999999
0029028970999991925022006004+64217+027767FM-12+014699999V0209991C000019999999N0000001N9-00941+99999098881ADDGF108991999999999999999999
0029028970999991925022013004+64217+027767FM-12+014699999V0209991C000019999999N0000001N9-00721+99999099071ADDGF100991999999999999999999
0029028970999991925022020004+64217+027767FM-12+014699999V0209991C000019999999N0000001N9-01441+99999099071ADDGF100991999999999999999999
0029028970999991925022106004+64217+027767FM-12+014699999V0209991C000019999999N0000001N9-01221+99999099121ADDGF108991999999999999999999
0029028970999991925022113004+64217+027767FM-12+014699999V0209991C000019999999N0000001N9-01171+99999099361ADDGF106991999999999999999999
0029028970999991925022120004+64217+027767FM-12+014699999V0209991C000019999999N0000001N9-01331+99999099541ADDGF108991999999999999999999
0029028970999991925022206004+64217+027767FM-12+014699999V0209991C000019999999N0000001N9-01611+99999099801ADDGF108991999999999999999999
0029028970999991925022213004+64217+027767FM-12+014699999V0209991C000019999999N0000001N9-01501+99999100201ADDGF100991999999999999999999
0035028970999991925022220004+64217+027767FM-12+014699999V0209991C000019999999N0000001N9-01391+99999100361ADDGF108991999999999999999999MW1721
0029028970999991925022306004+64217+027767FM-12+014699999V0209991C000019999999N0000001N9-01221+99999100701ADDGF100991999999999999999999
0029028970999991925022313004+64217+027767FM-12+014699999V0203601N003119999999N0000001N9-00831+99999100751ADDGF104991999999999999999999
0029028970999991925022320004+64217+027767FM-12+014699999V0203601N003119999999N0000001N9-00561+99999100821ADDGF108991999999999999999999
0029028970999991925022406004+64217+027767FM-12+014699999V0209991C000019999999N0000001N9-00561+99999100761ADDGF108991999999999999999999
0029028970999991925022413004+64217+027767FM-12+014699999V0209991C000019999999N0000001N9-00501+99999100911ADDGF104991999999999999999999
0029028970999991925022420004+64217+027767FM-12+014699999V0209991C000019999999N0000001N9-01001+99999100791ADDGF100991999999999999999999
0029028970999991925022506004+64217+027767FM-12+014699999V0209991C000019999999N0000001N9-01331+99999100951ADDGF108991999999999999999999
0029028970999991925022513004+64217+027767FM-12+014699999V0209991C000019999999N0000001N9-00891+99999100831ADDGF100991999999999999999999
0029028970999991925022520004+64217+027767FM-12+014699999V0209991C000019999999N0000001N9-01281+99999100551ADDGF108991999999999999999999
0029028970999991925022606004+64217+027767FM-12+014699999V0209991C000019999999N0000001N9-01281+99999099951ADDGF100991999999999999999999
0029028970999991925022613004+64217+027767FM-12+014699999V0209991C000019999999N0000001N9-00831+99999100071ADDGF108991999999999999999999
0029028970999991925022620004+64217+027767FM-12+014699999V0209991C000019999999N0000001N9-00941+99999100081ADDGF108991999999999999999999
0029028970999991925022706004+64217+027767FM-12+014699999V0209991C000019999999N0000001N9-01001+99999099881ADDGF108991999999999999999999
0029028970999991925022713004+64217+027767FM-12+014699999V0200501N003119999999N0000001N9-00831+99999099751ADDGF108991999999999999999999
0035028970999991925022720004+64217+027767FM-12+014699999V0200901N003119999999N0000001N9-00941+99999099631ADDGF108991999999999999999999MW1721
0029028970999991925022806004+64217+027767FM-12+014699999V0200501N004119999999N0000001N9-01061+99999099621ADDGF107991999999999999999999
0035028970999991925022813004+64217+027767FM-12+014699999V0200501N002119999999N0000001N9-00671+99999099661ADDGF108991999999999999999999MW1701
0035028970999991925022820004+64217+027767FM-12+014699999V0200501N002119999999N0000001N9-00671+99999099681ADDGF108991999999999999999999MW1701
0029028970999991925030106004+64217+027767FM-12+014699999V0209991C000019999999N0000001N9-00831+99999099681ADDGF108991999999999999999999
0029028970999991925030113004+64217+027767FM-12+014699999V0200901N004119999999N0000001N9-00831+99999099781ADDGF108991999999999999999999
0029028970999991925030120004+64217+027767FM-12+014699999V0209991C000019999999N0000001N9-01171+99999099951ADDGF104991999999999999999999
0029028970999991925030206004+64217+027767FM-12+014699999V0209991C000019999999N0000001N9-01721+99999100021ADDGF102991999999999999999999
0029028970999991925030213004+64217+027767FM-12+014699999V0209991C000019999999N0000001N9-01001+99999100121ADDGF100991999999999999999999
0029028970999991925030220004+64217+027767FM-12+014699999V0209991C000019999999N0000001N9-01391+99999100111ADDGF104991999999999999999999
0029028970999991925030306004+64217+027767FM-12+014699999V0209991C000019999999N0000001N9-01831+99999100161ADDGF100991999999999999999999
0029028970999991925030313004+64217+027767FM-12+014699999V0209991C000019999999N0000001N9-00891+99999100301ADDGF100991999999999999999999
0029028970999991925030320004+64217+027767FM-12+014699999V0209991C000019999999N0000001N9-01781+99999100111ADDGF100991999999999999999999
0035028970999991925030406004+64217+027767FM-12+014699999V0202001N003119999999N0000001N9-01061+99999099301ADDGF108991999999999999999999MW1721
0035028970999991925030413004+64217+027767FM-12+014699999V0202001N008219999999N0000001N9-00331+99999098551ADDGF108991999999999999999999MW1721
0029028970999991925030420004+64217+027767FM-12+014699999V0202001N003119999999N0000001N9-00391+99999097981ADDGF108991999999999999999999
0029028970999991925030506004+64217+027767FM-12+014699999V0209991C000019999999N0000001N9-01221+99999097781ADDGF100991999999999999999999
0029028970999991925030513004+64217+027767FM-12+014699999V0209991C000019999999N0000001N9-00501+99999097431ADDGF100991999999999999999999
0029028970999991925030520004+64217+027767FM-12+014699999V0209991C000019999999N0000001N9-00941+99999097021ADDGF100991999999999999999999
0029028970999991925030606004+64217+027767FM-12+014699999V0209991C000019999999N0000001N9-01221+99999096641ADDGF101991999999999999999999
0035028970999991925030613004+64217+027767FM-12+014699999V0200501N003119999999N0000001N9-00781+99999096781ADDGF108991999999999999999999MW1701
0029028970999991925030620004+64217+027767FM-12+014699999V0200501N003119999999N0000001N9-01671+99999096921ADDGF100991999999999999999999
0029028970999991925030706004+64217+027767FM-12+014699999V0200501N003119999999N0000001N9-01831+99999096951ADDGF107991999999999999999999
0029028970999991925030713004+64217+027767FM-12+014699999V0200501N004119999999N0000001N9-01221+99999097021ADDGF104991999999999999999999
0029028970999991925030720004+64217+027767FM-12+014699999V0200501N001019999999N0000001N9-01501+99999097181ADDGF108991999999999999999999
0029028970999991925030806004+64217+027767FM-12+014699999V0209991C000019999999N0000001N9-02001+99999097581ADDGF100991999999999999999999
0029028970999991925030813004+64217+027767FM-12+014699999V0209991C000019999999N0000001N9-01061+99999097741ADDGF100991999999999999999999
0029028970999991925030820004+64217+027767FM-12+014699999V0209991C000019999999N0000001N9-01831+99999097991ADDGF100991999999999999999999
0029028970999991925030906004+64217+027767FM-12+014699999V0209991C000019999999N0000001N9-02111+99999098341ADDGF108991999999999999999999
0029028970999991925030913004+64217+027767FM-12+014699999V0209991C000019999999N0000001N9-01281+99999098701ADDGF106991999999999999999999
0029028970999991925030920004+64217+027767FM-12+014699999V0209991C000019999999N0000001N9-01941+99999098961ADDGF104991999999999999999999
0029028970999991925031006004+64217+027767FM-12+014699999V0209991C000019999999N0000001N9-01891+99999099421ADDGF108991999999999999999999
0029028970999991925031013004+64217+027767FM-12+014699999V0209991C000019999999N0000001N9-01331+99999099761ADDGF106991999999999999999999
0029028970999991925031020004+64217+027767FM-12+014699999V0209991C000019999999N0000001N9-02061+99999999999ADDGF108991999999999999999999
0029028970999991925031106004+64217+027767FM-12+014699999V0200501N003119999999N0000001N9-01561+99999100101ADDGF108991999999999999999999
0029028970999991925031113004+64217+027767FM-12+014699999V0200501N006219999999N0000001N9-01561+99999100081ADDGF106991999999999999999999
0029028970999991925031120004+64217+027767FM-12+014699999V0200501N008219999999N0000001N9-01501+99999099871ADDGF108991999999999999999999
0035028970999991925031206004+64217+027767FM-12+014699999V0200201N009819999999N0000001N9-01561+99999099321ADDGF108991999999999999999999MW1721
0035028970999991925031213004+64217+027767FM-12+014699999V0203601N006219999999N0000001N9-01281+99999099341ADDGF108991999999999999999999MW1721
0029028970999991925031220004+64217+027767FM-12+014699999V0203601N003119999999N0000001N9-01281+99999099681ADDGF108991999999999999999999
0029028970999991925031306004+64217+027767FM-12+014699999V0209991C000019999999N0000001N9-01441+99999099641ADDGF108991999999999999999999
0029028970999991925031313004+64217+027767FM-12+014699999V0200901N003119999999N0000001N9-00891+99999099581ADDGF104991999999999999999999
0029028970999991925031320004+64217+027767FM-12+014699999V0209991C000019999999N0000001N9-01001+99999099591ADDGF108991999999999999999999
0029028970999991925031406004+64217+027767FM-12+014699999V0200901N003119999999N0000001N9-01281+99999099721ADDGF108991999999999999999999
0035028970999991925031413004+64217+027767FM-12+014699999V0200901N006219999999N0000001N9-00611+99999099881ADDGF108991999999999999999999MW1701
0029028970999991925031420004+64217+027767FM-12+014699999V0200901N003119999999N0000001N9-00671+99999099921ADDGF104991999999999999999999
0029028970999991925031506004+64217+027767FM-12+014699999V0209991C000019999999N0000001N9-01061+99999100271ADDGF107991999999999999999999
0029028970999991925031513004+64217+027767FM-12+014699999V0200901N003119999999N0000001N9-00561+99999100511ADDGF104991999999999999999999
0029028970999991925031520004+64217+027767FM-12+014699999V0209991C000019999999N0000001N9-01391+99999100801ADDGF104991999999999999999999
0029028970999991925031606004+64217+027767FM-12+014699999V0209991C000019999999N0000001N9-02391+99999101081ADDGF102991999999999999999999
0029028970999991925031613004+64217+027767FM-12+014699999V0202701N003119999999N0000001N9-00831+99999101031ADDGF100991999999999999999999
0029028970999991925031620004+64217+027767FM-12+014699999V0209991C000019999999N0000001N9-01781+99999100861ADDGF100991999999999999999999
0029028970999991925031706004+64217+027767FM-12+014699999V0209991C000019999999N0000001N9-02331+99999100621ADDGF108991999999999999999999
0029028970999991925031713004+64217+027767FM-12+014699999V0209991C000019999999N0000001N9-00391+99999100441ADDGF100991999999999999999999
0029028970999991925031720004+64217+027767FM-12+014699999V0209991C000019999999N0000001N9-01331+99999100361ADDGF100991999999999999999999
0029028970999991925031806004+64217+027767FM-12+014699999V0209991C000019999999N0000001N9-01221+99999100121ADDGF108991999999999999999999
0029028970999991925031813004+64217+027767FM-12+014699999V0202301N003119999999N0000001N9-00391+99999099861ADDGF108991999999999999999999
0029028970999991925031820004+64217+027767FM-12+014699999V0209991C000019999999N0000001N9-00331+99999099391ADDGF108991999999999999999999
0029028970999991925031906004+64217+027767FM-12+014699999V0209991C000019999999N0000001N9+00001+99999098591ADDGF108991999999999999999999
0035028970999991925031913004+64217+027767FM-12+014699999V0202301N003119999999N0000001N9+00171+99999098221ADDGF108991999999999999999999MW1621
0029028970999991925031920004+64217+027767FM-12+014699999V0209991C000019999999N0000001N9-00171+99999098201ADDGF100991999999999999999999
0029028970999991925032006004+64217+027767FM-12+014699999V0202301N003119999999N0000001N9-00611+99999097881ADDGF100991999999999999999999
0029028970999991925032013004+64217+027767FM-12+014699999V0202301N003119999999N0000001N9+00171+99999097701ADDGF104991999999999999999999
0029028970999991925032020004+64217+027767FM-12+014699999V0202301N003119999999N0000001N9-00221+99999097601ADDGF104991999999999999999999
0035028970999991925032106004+64217+027767FM-12+014699999V0209991C000019999999N0000001N9-00561+99999097671ADDGF108991999999999999999999MW1721
0029028970999991925032113004+64217+027767FM-12+014699999V0209991C000019999999N0000001N9-00171+99999098001ADDGF108991999999999999999999
0029028970999991925032120004+64217+027767FM-12+014699999V0209991C000019999999N0000001N9-00281+99999098351ADDGF108991999999999999999999
0029028970999991925032206004+64217+027767FM-12+014699999V0209991C000019999999N0000001N9-01061+99999098951ADDGF100991999999999999999999
0029028970999991925032213004+64217+027767FM-12+014699999V0202701N001019999999N0000001N9-00061+99999099271ADDGF100991999999999999999999
0029028970999991925032220004+64217+027767FM-12+014699999V0209991C000019999999N0000001N9-00941+99999099281ADDGF100991999999999999999999
0029028970999991925032306004+64217+027767FM-12+014699999V0209991C000019999999N0000001N9-01781+99999099461ADDGF100991999999999999999999
0029028970999991925032313004+64217+027767FM-12+014699999V0209991C000019999999N0000001N9+00061+99999099551ADDGF102991999999999999999999
0029028970999991925032320004+64217+027767FM-12+014699999V0209991C000019999999N0000001N9-00561+99999099641ADDGF104991999999999999999999
0029028970999991925032406004+64217+027767FM-12+014699999V0209991C000019999999N0000001N9-00941+99999099881ADDGF108991999999999999999999
0029028970999991925032413004+64217+027767FM-12+014699999V0209991C000019999999N0000001N9-00221+99999099981ADDGF100991999999999999999999
0029028970999991925032420004+64217+027767FM-12+014699999V0209991C000019999999N0000001N9-00391+99999100041ADDGF100991999999999999999999
0029028970999991925032506004+64217+027767FM-12+014699999V0209991C000019999999N0000001N9-01061+99999100281ADDGF100991999999999999999999
0029028970999991925032513004+64217+027767FM-12+014699999V0201801N004119999999N0000001N9+00111+99999100361ADDGF107991999999999999999999
0029028970999991925032520004+64217+027767FM-12+014699999V0209991C000019999999N0000001N9-00171+99999100321ADDGF107991999999999999999999
0029028970999991925032606004+64217+027767FM-12+014699999V0209991C000019999999N0000001N9-00331+99999100341ADDGF108991999999999999999999
0035028970999991925032613004+64217+027767FM-12+014699999V0202301N001019999999N0000001N9-00061+99999100321ADDGF108991999999999999999999MW1721
0029028970999991925032620004+64217+027767FM-12+014699999V0209991C000019999999N0000001N9-00171+99999100271ADDGF108991999999999999999999
0029028970999991925032706004+64217+027767FM-12+014699999V0209991C000019999999N0000001N9-00561+99999100391ADDGF108991999999999999999999
0029028970999991925032713004+64217+027767FM-12+014699999V0209991C000019999999N0000001N9-00221+99999100311ADDGF100991999999999999999999
0029028970999991925032720004+64217+027767FM-12+014699999V0209991C000019999999N0000001N9-00111+99999100201ADDGF100991999999999999999999
0029028970999991925032806004+64217+027767FM-12+014699999V0200901N004119999999N0000001N9-01061+99999100111ADDGF108991999999999999999999
0029028970999991925032813004+64217+027767FM-12+014699999V0200901N003119999999N0000001N9-00061+99999099881ADDGF104991999999999999999999
0029028970999991925032820004+64217+027767FM-12+014699999V0200901N003119999999N0000001N9-00561+99999099641ADDGF104991999999999999999999
0029028970999991925032906004+64217+027767FM-12+014699999V0200501N009819999999N0000001N9-01061+99999099001ADDGF108991999999999999999999
0035028970999991925032913004+64217+027767FM-12+014699999V0200501N019019999999N0000001N9-00941+99999098581ADDGF108991999999999999999999MW1861
0035028970999991925032920004+64217+027767FM-12+014699999V0200501N008219999999N0000001N9-01111+99999098381ADDGF108991999999999999999999MW1861
0029028970999991925033006004+64217+027767FM-12+014699999V0209991C000019999999N0000001N9-01441+99999098641ADDGF102991999999999999999999
0029028970999991925033013004+64217+027767FM-12+014699999V0202301N003119999999N0000001N9-00611+99999099151ADDGF100991999999999999999999
0029028970999991925033020004+64217+027767FM-12+014699999V0209991C000019999999N0000001N9-00671+99999098921ADDGF100991999999999999999999
0029028970999991925033106004+64217+027767FM-12+014699999V0201601N008219999999N0000001N9-00281+99999098081ADDGF108991999999999999999999
0029028970999991925033113004+64217+027767FM-12+014699999V0202001N008219999999N0000001N9+00111+99999097671ADDGF108991999999999999999999
0029028970999991925033120004+64217+027767FM-12+014699999V0209991C000019999999N0000001N9+00001+99999097621ADDGF108991999999999999999999
0029028970999991925040106004+64217+027767FM-12+014699999V0202301N003119999999N0000001N9-00171+99999098321ADDGF100991999999999999999999
0029028970999991925040113004+64217+027767FM-12+014699999V0202301N003119999999N0000001N9+00441+99999098631ADDGF100991999999999999999999
0029028970999991925040120004+64217+027767FM-12+014699999V0202301N001019999999N0000001N9+00221+99999098521ADDGF108991999999999999999999
0035028970999991925040206004+64217+027767FM-12+014699999V0202301N003119999999N0000001N9+00061+99999097751ADDGF108991999999999999999999MW1721
0029028970999991925040213004+64217+027767FM-12+014699999V0202701N003119999999N0000001N9+00171+99999098601ADDGF100991999999999999999999
0029028970999991925040220004+64217+027767FM-12+014699999V0209991C000019999999N0000001N9-00281+99999099071ADDGF100991999999999999999999
0029028970999991925040306004+64217+027767FM-12+014699999V0201801N003119999999N0000001N9-00171+99999098711ADDGF108991999999999999999999
0029028970999991925040313004+64217+027767FM-12+014699999V0201801N004119999999N0000001N9+00281+99999098381ADDGF108991999999999999999999
0035028970999991925040320004+64217+027767FM-12+014699999V0201801N002119999999N0000001N9+00061+99999097761ADDGF108991999999999999999999MW1691
0035028970999991925040406004+64217+027767FM-12+014699999V0202301N007219999999N0000001N9-00061+99999097831ADDGF108991999999999999999999MW1701
0029028970999991925040413004+64217+027767FM-12+014699999V0202301N007219999999N0000001N9+00331+99999098441ADDGF104991999999999999999999
0029028970999991925040420004+64217+027767FM-12+014699999V0202301N003119999999N0000001N9+00001+99999099061ADDGF108991999999999999999999
0029028970999991925040506004+64217+027767FM-12+014699999V0209991C000019999999N0000001N9-00391+99999100421ADDGF100991999999999999999999
0029028970999991925040513004+64217+027767FM-12+014699999V0201801N001019999999N0000001N9+00391+99999100461ADDGF100991999999999999999999
0029028970999991925040520004+64217+027767FM-12+014699999V0209991C000019999999N0000001N9+00111+99999100241ADDGF108991999999999999999999
0029028970999991925040606004+64217+027767FM-12+014699999V0209991C000019999999N0000001N9-00221+99999100121ADDGF100991999999999999999999
0029028970999991925040613004+64217+027767FM-12+014699999V0209991C000019999999N0000001N9+00501+99999100151ADDGF100991999999999999999999
0029028970999991925040620004+64217+027767FM-12+014699999V0209991C000019999999N0000001N9+00001+99999100151ADDGF100991999999999999999999
0029028970999991925040706004+64217+027767FM-12+014699999V0209991C000019999999N0000001N9-00331+99999100071ADDGF107991999999999999999999
0029028970999991925040713004+64217+027767FM-12+014699999V0202301N002119999999N0000001N9+00831+99999099881ADDGF100991999999999999999999
0029028970999991925040720004+64217+027767FM-12+014699999V0209991C000019999999N0000001N9+00111+99999099911ADDGF100991999999999999999999
0029028970999991925040806004+64217+027767FM-12+014699999V0209991C000019999999N0000001N9+00111+99999100111ADDGF100991999999999999999999
0029028970999991925040813004+64217+027767FM-12+014699999V0209991C000019999999N0000001N9+01001+99999100311ADDGF100991999999999999999999
0029028970999991925040820004+64217+027767FM-12+014699999V0209991C000019999999N0000001N9+00171+99999100361ADDGF100991999999999999999999
0029028970999991925040906004+64217+027767FM-12+014699999V0209991C000019999999N0000001N9+00441+99999100261ADDGF100991999999999999999999
0029028970999991925040913004+64217+027767FM-12+014699999V0209991C000019999999N0000001N9+01281+99999100081ADDGF100991999999999999999999
0029028970999991925040920004+64217+027767FM-12+014699999V0209991C000019999999N0000001N9+00111+99999100111ADDGF104991999999999999999999
0029028970999991925041006004+64217+027767FM-12+014699999V0209991C000019999999N0000001N9-00061+99999100261ADDGF101991999999999999999999
0029028970999991925041013004+64217+027767FM-12+014699999V0202701N001019999999N0000001N9+00831+99999100401ADDGF102991999999999999999999
0029028970999991925041020004+64217+027767FM-12+014699999V0209991C000019999999N0000001N9+00221+99999100671ADDGF102991999999999999999999
0029028970999991925041106004+64217+027767FM-12+014699999V0209991C000019999999N0000001N9+00111+99999101031ADDGF108991999999999999999999
0029028970999991925041113004+64217+027767FM-12+014699999V0209991C000019999999N0000001N9+00611+99999101031ADDGF108991999999999999999999
0029028970999991925041120004+64217+027767FM-12+014699999V0209991C000019999999N0000001N9+00441+99999100721ADDGF108991999999999999999999
0029028970999991925041206004+64217+027767FM-12+014699999V0209991C000019999999N0000001N9+00061+99999100231ADDGF106991999999999999999999
0029028970999991925041213004+64217+027767FM-12+014699999V0209991C000019999999N0000001N9+01061+99999099701ADDGF104991999999999999999999
0029028970999991925041220004+64217+027767FM-12+014699999V0209991C000019999999N0000001N9+00171+99999099351ADDGF108991999999999999999999
0029028970999991925041306004+64217+027767FM-12+014699999V0209991C000019999999N0000001N9+00061+99999099101ADDGF107991999999999999999999
0029028970999991925041313004+64217+027767FM-12+014699999V0201101N003119999999N0000001N9+01001+99999099121ADDGF105991999999999999999999
0029028970999991925041320004+64217+027767FM-12+014699999V0209991C000019999999N0000001N9+00331+99999099421ADDGF105991999999999999999999
0029028970999991925041406004+64217+027767FM-12+014699999V0209991C000019999999N0000001N9-00171+99999099681ADDGF108991999999999999999999
0029028970999991925041413004+64217+027767FM-12+014699999V0200901N001019999999N0000001N9+00831+99999099861ADDGF100991999999999999999999
0029028970999991925041420004+64217+027767FM-12+014699999V0209991C000019999999N0000001N9+00281+99999099801ADDGF100991999999999999999999
0029028970999991925041506004+64217+027767FM-12+014699999V0209991C000019999999N0000001N9+00171+99999099881ADDGF100991999999999999999999
0029028970999991925041513004+64217+027767FM-12+014699999V0202301N004119999999N0000001N9+01061+99999099761ADDGF100991999999999999999999
0029028970999991925041520004+64217+027767FM-12+014699999V0209991C000019999999N0000001N9+00501+99999099511ADDGF100991999999999999999999
0029028970999991925041606004+64217+027767FM-12+014699999V0209991C000019999999N0000001N9+00781+99999099001ADDGF100991999999999999999999
0029028970999991925041613004+64217+027767FM-12+014699999V0201601N004119999999N0000001N9+01331+99999098661ADDGF100991999999999999999999
0029028970999991925041620004+64217+027767FM-12+014699999V0209991C000019999999N0000001N9+00721+99999098431ADDGF104991999999999999999999
0046028970999991925041706004+64217+027767FM-12+014699999V0209991C000019999999N0000001N9+00671+99999098191ADDAJ100009199999999GF104991999999999999999999
0035028970999991925041713004+64217+027767FM-12+014699999V0201601N003119999999N0000001N9+00721+99999098121ADDGF108991999999999999999999MW1601
0029028970999991925041720004+64217+027767FM-12+014699999V0209991C000019999999N0000001N9+00501+99999098041ADDGF108991999999999999999999
0046028970999991925041806004+64217+027767FM-12+014699999V0202301N003119999999N0000001N9+00281+99999098001ADDAJ100009199999999GF108991999999999999999999
0029028970999991925041813004+64217+027767FM-12+014699999V0209991C000019999999N0000001N9+00501+99999098261ADDGF108991999999999999999999
0035028970999991925041820004+64217+027767FM-12+014699999V0209991C000019999999N0000001N9+00331+99999098201ADDGF108991999999999999999999MW1601
0046028970999991925041906004+64217+027767FM-12+014699999V0202001N001019999999N0000001N9+00331+99999098281ADDAJ100009199999999GF100991999999999999999999
0035028970999991925041913004+64217+027767FM-12+014699999V0202001N001019999999N0000001N9+00501+99999098431ADDGF107991999999999999999999MW1621
0029028970999991925041920004+64217+027767FM-12+014699999V0209991C000019999999N0000001N9+00171+99999098601ADDGF106991999999999999999999
0046028970999991925042006004+64217+027767FM-12+014699999V0209991C000019999999N0000001N9+00061+99999098981ADDAJ100009199999999GF108991999999999999999999
0029028970999991925042013004+64217+027767FM-12+014699999V0202701N003119999999N0000001N9+00611+99999099101ADDGF104991999999999999999999
0029028970999991925042020004+64217+027767FM-12+014699999V0209991C000019999999N0000001N9+00001+99999099151ADDGF100991999999999999999999
0052028970999991925042106004+64217+027767FM-12+014699999V0209991C000019999999N0000001N9-00061+99999099261ADDAJ100009199999999GF108991999999999999999999MW1721
0029028970999991925042113004+64217+027767FM-12+014699999V0209991C000019999999N0000001N9+00391+99999099391ADDGF106991999999999999999999
0029028970999991925042120004+64217+027767FM-12+014699999V0209991C000019999999N0000001N9+00061+99999099421ADDGF108991999999999999999999
0046028970999991925042206004+64217+027767FM-12+014699999V0209991C000019999999N0000001N9-00171+99999099561ADDAJ100009199999999GF100991999999999999999999
0029028970999991925042213004+64217+027767FM-12+014699999V0209991C000019999999N0000001N9+00221+99999099601ADDGF102991999999999999999999
0029028970999991925042220004+64217+027767FM-12+014699999V0209991C000019999999N0000001N9-00171+99999099601ADDGF100991999999999999999999
0046028970999991925042306004+64217+027767FM-12+014699999V0209991C000019999999N0000001N9-00221+99999099701ADDAJ100009199999999GF100991999999999999999999
0029028970999991925042313004+64217+027767FM-12+014699999V0200901N003119999999N0000001N9+00221+99999099561ADDGF100991999999999999999999
0029028970999991925042320004+64217+027767FM-12+014699999V0200901N003119999999N0000001N9-00111+99999099381ADDGF108991999999999999999999
0052028970999991925042406004+64217+027767FM-12+014699999V0200901N007219999999N0000001N9-00441+99999099231ADDAJ100009199999999GF108991999999999999999999MW1721
0035028970999991925042413004+64217+027767FM-12+014699999V0201801N003119999999N0000001N9-00171+99999099111ADDGF108991999999999999999999MW1721
0029028970999991925042420004+64217+027767FM-12+014699999V0209991C000019999999N0000001N9+00111+99999098801ADDGF108991999999999999999999
0029028970999991925042506004+64217+027767FM-12+014699999V0209991C000019999999N0000001N9+00441+99999098511ADDGF108991999999999999999999
0029028970999991925042513004+64217+027767FM-12+014699999V0201801N003119999999N0000001N9+00941+99999098401ADDGF106991999999999999999999
0029028970999991925042520004+64217+027767FM-12+014699999V0209991C000019999999N0000001N9+00331+99999098201ADDGF104991999999999999999999
0046028970999991925042606004+64217+027767FM-12+014699999V0209991C000019999999N0000001N9+00331+99999098271ADDAJ100009199999999GF100991999999999999999999
0029028970999991925042613004+64217+027767FM-12+014699999V0202701N001019999999N0000001N9+00941+99999098381ADDGF100991999999999999999999
0029028970999991925042620004+64217+027767FM-12+014699999V0209991C000019999999N0000001N9+00281+99999098561ADDGF100991999999999999999999
0046028970999991925042706004+64217+027767FM-12+014699999V0209991C000019999999N0000001N9+00281+99999098821ADDAJ100009199999999GF101991999999999999999999
0029028970999991925042713004+64217+027767FM-12+014699999V0202701N001019999999N0000001N9+00941+99999098861ADDGF102991999999999999999999
0029028970999991925042720004+64217+027767FM-12+014699999V0209991C000019999999N0000001N9+00561+99999098741ADDGF106991999999999999999999
0052028970999991925042806004+64217+027767FM-12+014699999V0200501N003119999999N0000001N9-00111+99999098961ADDAJ100009199999999GF108991999999999999999999MW1721
0035028970999991925042813004+64217+027767FM-12+014699999V0200501N002119999999N0000001N9+00111+99999099441ADDGF108991999999999999999999MW1691
0029028970999991925042820004+64217+027767FM-12+014699999V0209991C000019999999N0000001N9-00331+99999099821ADDGF104991999999999999999999
0046028970999991925042906004+64217+027767FM-12+014699999V0209991C000019999999N0000001N9-00171+99999100361ADDAJ100009199999999GF100991999999999999999999
0029028970999991925042913004+64217+027767FM-12+014699999V0209991C000019999999N0000001N9+00441+99999100641ADDGF100991999999999999999999
0029028970999991925042920004+64217+027767FM-12+014699999V0209991C000019999999N0000001N9+00001+99999100661ADDGF100991999999999999999999
0052028970999991925043006004+64217+027767FM-12+014699999V0200501N007219999999N0000001N9-00331+99999099881ADDAJ100009199999999GF108991999999999999999999MW1721
0029028970999991925043013004+64217+027767FM-12+014699999V0200501N006219999999N0000001N9-00171+99999099591ADDGF108991999999999999999999
0035028970999991925043020004+64217+027767FM-12+014699999V0200901N006219999999N0000001N9+00001+99999099281ADDGF108991999999999999999999MW1691
0029028970999991925050106004+64217+027767FM-12+014699999V0200901N006219999999N0000001N9+00001+99999098281ADDGF108991999999999999999999
0029028970999991925050113004+64217+027767FM-12+014699999V0202001N003119999999N0000001N9+00281+99999098631ADDGF108991999999999999999999
0029028970999991925050120004+64217+027767FM-12+014699999V0209991C000019999999N0000001N9+00281+99999099071ADDGF108991999999999999999999
0046028970999991925050206004+64217+027767FM-12+014699999V0209991C000019999999N0000001N9+00001+99999099591ADDAJ100009199999999GF108991999999999999999999
0029028970999991925050213004+64217+027767FM-12+014699999V0202301N003119999999N0000001N9+00281+99999100021ADDGF108991999999999999999999
0029028970999991925050220004+64217+027767FM-12+014699999V0209991C000019999999N0000001N9+00221+99999100151ADDGF104991999999999999999999
0046028970999991925050306004+64217+027767FM-12+014699999V0209991C000019999999N0000001N9+00501+99999100421ADDAJ100009199999999GF107991999999999999999999
0029028970999991925050313004+64217+027767FM-12+014699999V0209991C000019999999N0000001N9+01281+99999100401ADDGF104991999999999999999999
0029028970999991925050320004+64217+027767FM-12+014699999V0209991C000019999999N0000001N9+00831+99999100181ADDGF100991999999999999999999
0046028970999991925050406004+64217+027767FM-12+014699999V0209991C000019999999N0000001N9+00721+99999099911ADDAJ100009199999999GF104991999999999999999999
0029028970999991925050413004+64217+027767FM-12+014699999V0201801N004119999999N0000001N9+01501+99999099501ADDGF106991999999999999999999
0029028970999991925050420004+64217+027767FM-12+014699999V0209991C000019999999N0000001N9+00671+99999099361ADDGF108991999999999999999999
0046028970999991925050506004+64217+027767FM-12+014699999V0202301N003119999999N0000001N9+00331+99999099551ADDAJ100009199999999GF108991999999999999999999
0029028970999991925050513004+64217+027767FM-12+014699999V0202701N007219999999N0000001N9+00781+99999099911ADDGF102991999999999999999999
0029028970999991925050520004+64217+027767FM-12+014699999V0209991C000019999999N0000001N9+00281+99999100181ADDGF100991999999999999999999
0046028970999991925050606004+64217+027767FM-12+014699999V0209991C000019999999N0000001N9+00391+99999100591ADDAJ100009199999999GF100991999999999999999999
0029028970999991925050613004+64217+027767FM-12+014699999V0209991C000019999999N0000001N9+00781+99999100581ADDGF104991999999999999999999
0029028970999991925050620004+64217+027767FM-12+014699999V0209991C000019999999N0000001N9+00331+99999100391ADDGF104991999999999999999999
0046028970999991925050706004+64217+027767FM-12+014699999V0203601N003119999999N0000001N9+00611+99999100431ADDAJ100009199999999GF100991999999999999999999
0029028970999991925050713004+64217+027767FM-12+014699999V0209991C000019999999N0000001N9+00941+99999100441ADDGF102991999999999999999999
0029028970999991925050720004+64217+027767FM-12+014699999V0209991C000019999999N0000001N9+00331+99999100351ADDGF102991999999999999999999
0046028970999991925050806004+64217+027767FM-12+014699999V0209991C000019999999N0000001N9+00501+99999100471ADDAJ100009199999999GF106991999999999999999999
0029028970999991925050813004+64217+027767FM-12+014699999V0201801N001019999999N0000001N9+01391+99999100271ADDGF101991999999999999999999
0029028970999991925050820004+64217+027767FM-12+014699999V0209991C000019999999N0000001N9+00721+99999100061ADDGF100991999999999999999999
0046028970999991925050906004+64217+027767FM-12+014699999V0200901N001019999999N0000001N9+00781+99999100021ADDAJ100009199999999GF102991999999999999999999
0029028970999991925050913004+64217+027767FM-12+014699999V0201601N001019999999N0000001N9+01441+99999099871ADDGF108991999999999999999999
0035028970999991925050920004+64217+027767FM-12+014699999V0201601N001019999999N0000001N9+00891+99999099591ADDGF108991999999999999999999MW1621
0046028970999991925051006004+64217+027767FM-12+014699999V0209991C000019999999N0000001N9+00941+99999099661ADDAJ100009199999999GF108991999999999999999999
0029028970999991925051013004+64217+027767FM-12+014699999V0209991C000019999999N0000001N9+01001+99999099881ADDGF107991999999999999999999
0029028970999991925051020004+64217+027767FM-12+014699999V0209991C000019999999N0000001N9+00891+99999099881ADDGF108991999999999999999999
0046028970999991925051106004+64217+027767FM-12+014699999V0209991C000019999999N0000001N9+00941+99999099991ADDAJ100009199999999GF106991999999999999999999
0029028970999991925051113004+64217+027767FM-12+014699999V0202701N002119999999N0000001N9+01721+99999100031ADDGF104991999999999999999999
0029028970999991925051120004+64217+027767FM-12+014699999V0209991C000019999999N0000001N9+01281+99999099941ADDGF100991999999999999999999
0052028970999991925051206004+64217+027767FM-12+014699999V0209991C000019999999N0000001N9+00781+99999099601ADDAJ100009199999999GF108991999999999999999999MW1621
0029028970999991925051213004+64217+027767FM-12+014699999V0202701N002119999999N0000001N9+01331+99999099461ADDGF108991999999999999999999
0029028970999991925051220004+64217+027767FM-12+014699999V0209991C000019999999N0000001N9+01061+99999099541ADDGF106991999999999999999999
0046028970999991925051306004+64217+027767FM-12+014699999V0202701N001019999999N0000001N9+01001+99999099631ADDAJ100009199999999GF102991999999999999999999
0029028970999991925051313004+64217+027767FM-12+014699999V0202701N007219999999N0000001N9+01501+99999099701ADDGF104991999999999999999999
0029028970999991925051320004+64217+027767FM-12+014699999V0209991C000019999999N0000001N9+01001+99999099551ADDGF108991999999999999999999
0052028970999991925051406004+64217+027767FM-12+014699999V0202701N002119999999N0000001N9+00561+99999099281ADDAJ100009199999999GF108991999999999999999999MW1641
0029028970999991925051413004+64217+027767FM-12+014699999V0202701N002119999999N0000001N9+00671+99999099801ADDGF108991999999999999999999
0029028970999991925051420004+64217+027767FM-12+014699999V0209991C000019999999N0000001N9+00611+99999099961ADDGF104991999999999999999999
0046028970999991925051506004+64217+027767FM-12+014699999V0209991C000019999999N0000001N9+00721+99999100061ADDAJ100009199999999GF102991999999999999999999
0029028970999991925051513004+64217+027767FM-12+014699999V0202701N007219999999N0000001N9+01171+99999100021ADDGF104991999999999999999999
0029028970999991925051520004+64217+027767FM-12+014699999V0209991C000019999999N0000001N9+00671+99999100031ADDGF100991999999999999999999
0046028970999991925051606004+64217+027767FM-12+014699999V0202701N004119999999N0000001N9+00721+99999100121ADDAJ100009199999999GF100991999999999999999999
0029028970999991925051613004+64217+027767FM-12+014699999V0202701N004119999999N0000001N9+01171+99999100071ADDGF104991999999999999999999
0029028970999991925051620004+64217+027767FM-12+014699999V0209991C000019999999N0000001N9+00721+99999100121ADDGF104991999999999999999999
0046028970999991925051706004+64217+027767FM-12+014699999V0209991C000019999999N0000001N9+00891+99999100501ADDAJ100009199999999GF100991999999999999999999
0029028970999991925051713004+64217+027767FM-12+014699999V0201601N001019999999N0000001N9+01281+99999100661ADDGF106991999999999999999999
0029028970999991925051720004+64217+027767FM-12+014699999V0209991C000019999999N0000001N9+00831+99999100781ADDGF100991999999999999999999
0046028970999991925051806004+64217+027767FM-12+014699999V0202301N001019999999N0000001N9+01111+99999100791ADDAJ100009199999999GF100991999999999999999999
0029028970999991925051813004+64217+027767FM-12+014699999V0202701N007219999999N0000001N9+01831+99999100521ADDGF100991999999999999999999
0029028970999991925051820004+64217+027767FM-12+014699999V0209991C000019999999N0000001N9+01391+99999100241ADDGF100991999999999999999999
0046028970999991925051906004+64217+027767FM-12+014699999V0202701N001019999999N0000001N9+01171+99999100261ADDAJ100009199999999GF100991999999999999999999
0029028970999991925051913004+64217+027767FM-12+014699999V0202701N004119999999N0000001N9+01561+99999099991ADDGF102991999999999999999999
0029028970999991925051920004+64217+027767FM-12+014699999V0202701N007219999999N0000001N9+01111+99999099791ADDGF107991999999999999999999
0046028970999991925052006004+64217+027767FM-12+014699999V0202701N001019999999N0000001N9+01001+99999099601ADDAJ100009199999999GF104991999999999999999999
0029028970999991925052013004+64217+027767FM-12+014699999V0202701N007219999999N0000001N9+01111+99999099421ADDGF104991999999999999999999
0029028970999991925052020004+64217+027767FM-12+014699999V0202701N001019999999N0000001N9+00781+99999099101ADDGF106991999999999999999999
0046028970999991925052106004+64217+027767FM-12+014699999V0200501N008719999999N0000001N9+00501+99999098761ADDAJ100009199999999GF108991999999999999999999
0029028970999991925052113004+64217+027767FM-12+014699999V0203601N008719999999N0000001N9+00721+99999098551ADDGF107991999999999999999999
0029028970999991925052120004+64217+027767FM-12+014699999V0200501N013919999999N0000001N9+00331+99999098311ADDGF108991999999999999999999
0052028970999991925052206004+64217+027767FM-12+014699999V0203601N008719999999N0000001N9-00061+99999097871ADDAJ100009199999999GF108991999999999999999999MW1721
0029028970999991925052213004+64217+027767FM-12+014699999V0203201N011819999999N0000001N9+00111+99999098001ADDGF108991999999999999999999
0029028970999991925052220004+64217+027767FM-12+014699999V0203201N004119999999N0000001N9-00061+99999098191ADDGF108991999999999999999999
0029028970999991925052306004+64217+027767FM-12+014699999V0203601N006219999999N0000001N9-00221+99999098631ADDGF108991999999999999999999
0029028970999991925052313004+64217+027767FM-12+014699999V0203601N001019999999N0000001N9+00061+99999099181ADDGF107991999999999999999999
0029028970999991925052320004+64217+027767FM-12+014699999V0209991C000019999999N0000001N9+00061+99999099351ADDGF108991999999999999999999
0046028970999991925052406004+64217+027767FM-12+014699999V0209991C000019999999N0000001N9+00111+99999099661ADDAJ100009199999999GF107991999999999999999999
0029028970999991925052413004+64217+027767FM-12+014699999V0202701N001019999999N0000001N9+00331+99999099821ADDGF108991999999999999999999
0029028970999991925052420004+64217+027767FM-12+014699999V0209991C000019999999N0000001N9+00171+99999099911ADDGF108991999999999999999999
0046028970999991925052506004+64217+027767FM-12+014699999V0202301N001019999999N0000001N9+00331+99999100071ADDAJ100009199999999GF108991999999999999999999
0029028970999991925052513004+64217+027767FM-12+014699999V0202701N003119999999N0000001N9+00831+99999099991ADDGF108991999999999999999999
0029028970999991925052520004+64217+027767FM-12+014699999V0209991C000019999999N0000001N9+00781+99999099871ADDGF108991999999999999999999
0046028970999991925052606004+64217+027767FM-12+014699999V0202001N001019999999N0000001N9+00561+99999099641ADDAJ100009199999999GF108991999999999999999999
0029028970999991925052613004+64217+027767FM-12+014699999V0209991C000019999999N0000001N9+01061+99999099481ADDGF108991999999999999999999
0029028970999991925052620004+64217+027767FM-12+014699999V0209991C000019999999N0000001N9+00781+99999099391ADDGF100991999999999999999999
0046028970999991925052706004+64217+027767FM-12+014699999V0200901N001019999999N0000001N9+01001+99999099471ADDAJ100009199999999GF100991999999999999999999
0029028970999991925052713004+64217+027767FM-12+014699999V0200901N001019999999N0000001N9+01391+99999099561ADDGF104991999999999999999999
0029028970999991925052720004+64217+027767FM-12+014699999V0209991C000019999999N0000001N9+00781+99999099821ADDGF102991999999999999999999
0046028970999991925052806004+64217+027767FM-12+014699999V0201601N004119999999N0000001N9+00441+99999100181ADDAJ100009199999999GF108991999999999999999999
0029028970999991925052813004+64217+027767FM-12+014699999V0200901N003119999999N0000001N9+01111+99999100231ADDGF104991999999999999999999
0029028970999991925052820004+64217+027767FM-12+014699999V0209991C000019999999N0000001N9+00831+99999100231ADDGF100991999999999999999999
0046028970999991925052906004+64217+027767FM-12+014699999V0200201N001019999999N0000001N9+01001+99999100461ADDAJ100009199999999GF102991999999999999999999
0029028970999991925052913004+64217+027767FM-12+014699999V0201801N001019999999N0000001N9+01831+99999100461ADDGF104991999999999999999999
0029028970999991925052920004+64217+027767FM-12+014699999V0209991C000019999999N0000001N9+00831+99999100271ADDGF100991999999999999999999
0046028970999991925053006004+64217+027767FM-12+014699999V0201801N003119999999N0000001N9+01501+99999100111ADDAJ100009199999999GF100991999999999999999999
0029028970999991925053013004+64217+027767FM-12+014699999V0201401N008719999999N0000001N9+01941+99999099801ADDGF100991999999999999999999
0029028970999991925053020004+64217+027767FM-12+014699999V0209991C000019999999N0000001N9+01561+99999099481ADDGF107991999999999999999999
0046028970999991925053106004+64217+027767FM-12+014699999V0209991C000019999999N0000001N9+01281+99999099281ADDAJ100009199999999GF108991999999999999999999
0029028970999991925053113004+64217+027767FM-12+014699999V0202301N001019999999N0000001N9+01671+99999098911ADDGF108991999999999999999999
0029028970999991925053120004+64217+027767FM-12+014699999V0209991C000019999999N0000001N9+01171+99999098781ADDGF104991999999999999999999
0046028970999991925060106004+64217+027767FM-12+014699999V0209991C000019999999N0000001N9+01171+99999098701ADDAJ100009199999999GF108991999999999999999999
0029028970999991925060113004+64217+027767FM-12+014699999V0202701N003119999999N0000001N9+01561+99999098861ADDGF104991999999999999999999
0029028970999991925060120004+64217+027767FM-12+014699999V0209991C000019999999N0000001N9+00941+99999098991ADDGF108991999999999999999999
0046028970999991925060206004+64217+027767FM-12+014699999V0209991C999999999999N0000001N9+01061+99999099441ADDAJ100009199999999GF100991999999999999999999
0029028970999991925060213004+64217+027767FM-12+014699999V0202701N003119999999N0000001N9+01671+99999099501ADDGF102991999999999999999999
0029028970999991925060220004+64217+027767FM-12+014699999V0202701N007219999999N0000001N9+01111+99999099581ADDGF106991999999999999999999
0046028970999991925060306004+64217+027767FM-12+014699999V0202301N001019999999N0000001N9+01061+99999099601ADDAJ100009199999999GF104991999999999999999999
0029028970999991925060313004+64217+027767FM-12+014699999V0201601N001019999999N0000001N9+01281+99999099421ADDGF108991999999999999999999
0029028970999991925060320004+64217+027767FM-12+014699999V0209991C000019999999N0000001N9+01001+99999099261ADDGF102991999999999999999999
0046028970999991925060406004+64217+027767FM-12+014699999V0200901N003119999999N0000001N9+01281+99999099141ADDAJ100009199999999GF102991999999999999999999
0029028970999991925060413004+64217+027767FM-12+014699999V0202701N003119999999N0000001N9+01171+99999099221ADDGF104991999999999999999999
0029028970999991925060420004+64217+027767FM-12+014699999V0200501N001019999999N0000001N9+00941+99999099561ADDGF107991999999999999999999
0046028970999991925060506004+64217+027767FM-12+014699999V0203601N003119999999N0000001N9+00891+99999099911ADDAJ100009199999999GF108991999999999999999999
0029028970999991925060513004+64217+027767FM-12+014699999V0203601N003119999999N0000001N9+01221+99999100121ADDGF107991999999999999999999
0029028970999991925060520004+64217+027767FM-12+014699999V0209991C000019999999N0000001N9+00941+99999100361ADDGF108991999999999999999999
0046028970999991925060606004+64217+027767FM-12+014699999V0200901N004119999999N0000001N9+00671+99999100861ADDAJ100009199999999GF100991999999999999999999
0029028970999991925060613004+64217+027767FM-12+014699999V0202701N003119999999N0000001N9+01221+99999100871ADDGF100991999999999999999999
0029028970999991925060620004+64217+027767FM-12+014699999V0209991C000019999999N0000001N9+01111+99999100821ADDGF100991999999999999999999
0046028970999991925060706004+64217+027767FM-12+014699999V0202301N004119999999N0000001N9+01281+99999100761ADDAJ100009199999999GF108991999999999999999999
0029028970999991925060713004+64217+027767FM-12+014699999V0202301N002119999999N0000001N9+01671+99999100401ADDGF108991999999999999999999
0029028970999991925060720004+64217+027767FM-12+014699999V0209991C000019999999N0000001N9+01221+99999100191ADDGF108991999999999999999999
0046028970999991925060806004+64217+027767FM-12+014699999V0202301N004119999999N0000001N9+01221+99999100161ADDAJ100009199999999GF106991999999999999999999
0029028970999991925060813004+64217+027767FM-12+014699999V0200501N003119999999N0000001N9+01391+99999100221ADDGF107991999999999999999999
0029028970999991925060820004+64217+027767FM-12+014699999V0209991C000019999999N0000001N9+01281+99999100321ADDGF100991999999999999999999
0046028970999991925060906004+64217+027767FM-12+014699999V0209991C000019999999N0000001N9+01331+99999100441ADDAJ100009199999999GF104991999999999999999999
0029028970999991925060913004+64217+027767FM-12+014699999V0202701N003119999999N0000001N9+01671+99999999999ADDGF104991999999999999999999
0029028970999991925060920004+64217+027767FM-12+014699999V0209991C000019999999N0000001N9+01331+99999099781ADDGF108991999999999999999999
0046028970999991925061006004+64217+027767FM-12+014699999V0203201N003119999999N0000001N9+01671+99999099911ADDAJ100009199999999GF100991999999999999999999
0029028970999991925061013004+64217+027767FM-12+014699999V0202701N003119999999N0000001N9+01441+99999099761ADDGF106991999999999999999999
0029028970999991925061020004+64217+027767FM-12+014699999V0203201N003119999999N0000001N9+01171+99999099871ADDGF100991999999999999999999
0046028970999991925061106004+64217+027767FM-12+014699999V0200701N001019999999N0000001N9+00561+99999100311ADDAJ100009199999999GF108991999999999999999999
0029028970999991925061113004+64217+027767FM-12+014699999V0209991C000019999999N0000001N9+01001+99999099871ADDGF108991999999999999999999
0035028970999991925061120004+64217+027767FM-12+014699999V0209991C000019999999N0000001N9+00721+99999099221ADDGF108991999999999999999999MW1621
0046028970999991925061206004+64217+027767FM-12+014699999V0202901N001019999999N0000001N9+00941+99999098231ADDAJ100009199999999GF108991999999999999999999
0029028970999991925061213004+64217+027767FM-12+014699999V0202701N002119999999N0000001N9+00891+99999098001ADDGF108991999999999999999999
0029028970999991925061220004+64217+027767FM-12+014699999V0202701N001019999999N0000001N9+00781+99999097941ADDGF108991999999999999999999
0046028970999991925061306004+64217+027767FM-12+014699999V0200501N003119999999N0000001N9+00611+99999097961ADDAJ100009199999999GF108991999999999999999999
0029028970999991925061313004+64217+027767FM-12+014699999V0200901N002119999999N0000001N9+01001+99999098121ADDGF108991999999999999999999
0029028970999991925061320004+64217+027767FM-12+014699999V0209991C000019999999N0000001N9+00831+99999098061ADDGF107991999999999999999999
0046028970999991925061406004+64217+027767FM-12+014699999V0200901N007219999999N0000001N9+00891+99999097901ADDAJ100009199999999GF101991999999999999999999
0029028970999991925061413004+64217+027767FM-12+014699999V0200901N007219999999N0000001N9+01331+99999097801ADDGF104991999999999999999999
0029028970999991925061420004+64217+027767FM-12+014699999V0200501N007219999999N0000001N9+00941+99999097981ADDGF104991999999999999999999
0046028970999991925061506004+64217+027767FM-12+014699999V0200701N003119999999N0000001N9+01001+99999098321ADDAJ100009199999999GF104991999999999999999999
0029028970999991925061513004+64217+027767FM-12+014699999V0200901N002119999999N0000001N9+01501+99999098511ADDGF106991999999999999999999
0035028970999991925061520004+64217+027767FM-12+014699999V0202501N001019999999N0000001N9+01001+99999098581ADDGF108991999999999999999999MW1621
0046028970999991925061606004+64217+027767FM-12+014699999V0202301N001019999999N0000001N9+01001+99999098461ADDAJ100009199999999GF108991999999999999999999
0029028970999991925061613004+64217+027767FM-12+014699999V0201801N001019999999N0000001N9+01331+99999098271ADDGF107991999999999999999999
0029028970999991925061620004+64217+027767FM-12+014699999V0209991C000019999999N0000001N9+01061+99999098101ADDGF108991999999999999999999
0046028970999991925061706004+64217+027767FM-12+014699999V0209991C000019999999N0000001N9+01221+99999097751ADDAJ100009199999999GF108991999999999999999999
0029028970999991925061713004+64217+027767FM-12+014699999V0201101N003119999999N0000001N9+01671+99999097621ADDGF106991999999999999999999
0029028970999991925061720004+64217+027767FM-12+014699999V0200901N003119999999N0000001N9+01501+99999097591ADDGF106991999999999999999999
0046028970999991925061806004+64217+027767FM-12+014699999V0200901N007219999999N0000001N9+01391+99999097701ADDAJ100009199999999GF108991999999999999999999
0029028970999991925061813004+64217+027767FM-12+014699999V0201101N003119999999N0000001N9+01941+99999097961ADDGF106991999999999999999999
0029028970999991925061820004+64217+027767FM-12+014699999V0203601N003119999999N0000001N9+01721+99999098061ADDGF102991999999999999999999
0046028970999991925061906004+64217+027767FM-12+014699999V0200901N007219999999N0000001N9+01391+99999098231ADDAJ100009199999999GF101991999999999999999999
0029028970999991925061913004+64217+027767FM-12+014699999V0200501N008219999999N0000001N9+01781+99999098181ADDGF104991999999999999999999
0029028970999991925061920004+64217+027767FM-12+014699999V0200201N007219999999N0000001N9+01501+99999098281ADDGF104991999999999999999999
0046028970999991925062006004+64217+027767FM-12+014699999V0200201N006219999999N0000001N9+01001+99999098461ADDAJ100009199999999GF108991999999999999999999
0035028970999991925062013004+64217+027767FM-12+014699999V0200201N006219999999N0000001N9+00781+99999098781ADDGF108991999999999999999999MW1621
0029028970999991925062020004+64217+027767FM-12+014699999V0200201N002119999999N0000001N9+00611+99999098961ADDGF108991999999999999999999
0046028970999991925062106004+64217+027767FM-12+014699999V0200501N007219999999N0000001N9+00561+99999099111ADDAJ100009199999999GF108991999999999999999999
0029028970999991925062113004+64217+027767FM-12+014699999V0200901N003119999999N0000001N9+01221+99999099241ADDGF106991999999999999999999
0029028970999991925062120004+64217+027767FM-12+014699999V0200901N002119999999N0000001N9+00891+99999099401ADDGF104991999999999999999999
0046028970999991925062206004+64217+027767FM-12+014699999V0200901N001019999999N0000001N9+00891+99999099681ADDAJ100009199999999GF108991999999999999999999
0029028970999991925062213004+64217+027767FM-12+014699999V0200501N002119999999N0000001N9+01671+99999099871ADDGF108991999999999999999999
0029028970999991925062220004+64217+027767FM-12+014699999V0209991C000019999999N0000001N9+01281+99999100121ADDGF107991999999999999999999
0046028970999991925062306004+64217+027767FM-12+014699999V0209991C000019999999N0000001N9+01501+99999100181ADDAJ100009199999999GF100991999999999999999999
0029028970999991925062313004+64217+027767FM-12+014699999V0202701N003119999999N0000001N9+01831+99999100201ADDGF100991999999999999999999
0029028970999991925062320004+64217+027767FM-12+014699999V0209991C000019999999N0000001N9+01561+99999100141ADDGF100991999999999999999999
0046028970999991925062406004+64217+027767FM-12+014699999V0200201N001019999999N0000001N9+01721+99999099791ADDAJ100009199999999GF100991999999999999999999
0029028970999991925062413004+64217+027767FM-12+014699999V0200501N007219999999N0000001N9+02001+99999099191ADDGF108991999999999999999999
0029028970999991925062420004+64217+027767FM-12+014699999V0203601N001019999999N0000001N9+01171+99999098751ADDGF108991999999999999999999
0046028970999991925062506004+64217+027767FM-12+014699999V0201401N001019999999N0000001N9+01331+99999098021ADDAJ100009199999999GF108991999999999999999999
0035028970999991925062513004+64217+027767FM-12+014699999V0201801N003119999999N0000001N9+01331+99999098111ADDGF108991999999999999999999MW1621
0029028970999991925062520004+64217+027767FM-12+014699999V0209991C000019999999N0000001N9+01331+99999098151ADDGF108991999999999999999999
0046028970999991925062606004+64217+027767FM-12+014699999V0202001N003119999999N0000001N9+01441+99999098701ADDAJ100009199999999GF104991999999999999999999
0029028970999991925062613004+64217+027767FM-12+014699999V0201801N004119999999N0000001N9+02001+99999098831ADDGF104991999999999999999999
0029028970999991925062620004+64217+027767FM-12+014699999V0209991C000019999999N0000001N9+01331+99999098821ADDGF108991999999999999999999
0046028970999991925062706004+64217+027767FM-12+014699999V0203601N004119999999N0000001N9+00941+99999098621ADDAJ100009199999999GF108991999999999999999999
0029028970999991925062713004+64217+027767FM-12+014699999V0202701N003119999999N0000001N9+01281+99999098701ADDGF108991999999999999999999
0029028970999991925062720004+64217+027767FM-12+014699999V0209991C000019999999N0000001N9+01281+99999098871ADDGF104991999999999999999999
0046028970999991925062806004+64217+027767FM-12+014699999V0202701N003119999999N0000001N9+01281+99999099071ADDAJ100009199999999GF102991999999999999999999
0029028970999991925062813004+64217+027767FM-12+014699999V0202701N007219999999N0000001N9+01781+99999099261ADDGF102991999999999999999999
0029028970999991925062820004+64217+027767FM-12+014699999V0202701N004119999999N0000001N9+01281+99999099461ADDGF100991999999999999999999
0046028970999991925062906004+64217+027767FM-12+014699999V0202901N003119999999N0000001N9+01221+99999099901ADDAJ100009199999999GF100991999999999999999999
0029028970999991925062913004+64217+027767FM-12+014699999V0202701N003119999999N0000001N9+01561+99999100151ADDGF105991999999999999999999
0029028970999991925062920004+64217+027767FM-12+014699999V0209991C000019999999N0000001N9+01281+99999100231ADDGF102991999999999999999999
0046028970999991925063006004+64217+027767FM-12+014699999V0200501N001019999999N0000001N9+01501+99999100501ADDAJ100009199999999GF104991999999999999999999
0029028970999991925063013004+64217+027767FM-12+014699999V0203601N001019999999N0000001N9+01501+99999100601ADDGF107991999999999999999999
0029028970999991925063020004+64217+027767FM-12+014699999V0209991C000019999999N0000001N9+01281+99999100671ADDGF107991999999999999999999
0046028970999991925070106004+64217+027767FM-12+014699999V0209991C000019999999N0000001N9+01441+99999100841ADDAJ100009199999999GF100991999999999999999999
0029028970999991925070113004+64217+027767FM-12+014699999V0200501N003119999999N0000001N9+01891+99999100781ADDGF101991999999999999999999
0029028970999991925070120004+64217+027767FM-12+014699999V0209991C000019999999N0000001N9+01501+99999100821ADDGF100991999999999999999999
0046028970999991925070206004+64217+027767FM-12+014699999V0209991C000019999999N0000001N9+01721+99999101001ADDAJ100009199999999GF100991999999999999999999
0029028970999991925070213004+64217+027767FM-12+014699999V0200501N003119999999N0000001N9+02221+99999100791ADDGF100991999999999999999999
0029028970999991925070220004+64217+027767FM-12+014699999V0200501N001019999999N0000001N9+01831+99999100661ADDGF100991999999999999999999
0046028970999991925070306004+64217+027767FM-12+014699999V0200901N001019999999N0000001N9+01781+99999100661ADDAJ100009199999999GF100991999999999999999999
0029028970999991925070313004+64217+027767FM-12+014699999V0200901N003119999999N0000001N9+02331+99999100501ADDGF102991999999999999999999
0029028970999991925070320004+64217+027767FM-12+014699999V0209991C000019999999N0000001N9+02221+99999100361ADDGF100991999999999999999999
0046028970999991925070406004+64217+027767FM-12+014699999V0200901N001019999999N0000001N9+01941+99999100391ADDAJ100009199999999GF101991999999999999999999
0029028970999991925070413004+64217+027767FM-12+014699999V0200901N001019999999N0000001N9+02561+99999100341ADDGF104991999999999999999999
0029028970999991925070420004+64217+027767FM-12+014699999V0209991C000019999999N0000001N9+02171+99999100201ADDGF102991999999999999999999
0046028970999991925070506004+64217+027767FM-12+014699999V0209991C000019999999N0000001N9+01781+99999100241ADDAJ100009199999999GF104991999999999999999999
0029028970999991925070513004+64217+027767FM-12+014699999V0200901N003119999999N0000001N9+02781+99999100061ADDGF102991999999999999999999
0029028970999991925070520004+64217+027767FM-12+014699999V0209991C000019999999N0000001N9+02221+99999099871ADDGF102991999999999999999999
0046028970999991925070606004+64217+027767FM-12+014699999V0209991C000019999999N0000001N9+02501+99999099751ADDAJ100009199999999GF100991999999999999999999
0029028970999991925070613004+64217+027767FM-12+014699999V0209991C000019999999N0000001N9+02831+99999099601ADDGF104991999999999999999999
0029028970999991925070620004+64217+027767FM-12+014699999V0209991C000019999999N0000001N9+02441+99999099511ADDGF107991999999999999999999
0046028970999991925070706004+64217+027767FM-12+014699999V0209991C000019999999N0000001N9+02391+99999099551ADDAJ100009199999999GF100991999999999999999999
0029028970999991925070713004+64217+027767FM-12+014699999V0201801N003119999999N0000001N9+02831+99999099441ADDGF102991999999999999999999
0029028970999991925070720004+64217+027767FM-12+014699999V0209991C000019999999N0000001N9+02391+99999099361ADDGF100991999999999999999999
0046028970999991925070806004+64217+027767FM-12+014699999V0209991C000019999999N0000001N9+02441+99999099301ADDAJ100009199999999GF100991999999999999999999
0029028970999991925070813004+64217+027767FM-12+014699999V0209991C000019999999N0000001N9+02891+99999099221ADDGF104991999999999999999999
0029028970999991925070820004+64217+027767FM-12+014699999V0209991C000019999999N0000001N9+02501+99999099151ADDGF106991999999999999999999
0046028970999991925070906004+64217+027767FM-12+014699999V0209991C000019999999N0000001N9+02501+99999099161ADDAJ100009199999999GF100991999999999999999999
0029028970999991925070913004+64217+027767FM-12+014699999V0201801N001019999999N0000001N9+02611+99999099081ADDGF107991999999999999999999
0029028970999991925070920004+64217+027767FM-12+014699999V0209991C000019999999N0000001N9+02501+99999099041ADDGF102991999999999999999999
0046028970999991925071006004+64217+027767FM-12+014699999V0209991C000019999999N0000001N9+02501+99999098991ADDAJ100009199999999GF100991999999999999999999
0035028970999991925071013004+64217+027767FM-12+014699999V0201801N008219999999N0000001N9+02061+99999098941ADDGF108991999999999999999999MW1621
0029028970999991925071020004+64217+027767FM-12+014699999V0209991C000019999999N0000001N9+01721+99999099001ADDGF107991999999999999999999
0046028970999991925071106004+64217+027767FM-12+014699999V0202301N003119999999N0000001N9+01611+99999099161ADDAJ100009199999999GF104991999999999999999999
0029028970999991925071113004+64217+027767FM-12+014699999V0202701N003119999999N0000001N9+01891+99999099461ADDGF106991999999999999999999
0029028970999991925071120004+64217+027767FM-12+014699999V0209991C000019999999N0000001N9+01671+99999099591ADDGF106991999999999999999999
0046028970999991925071206004+64217+027767FM-12+014699999V0209991C000019999999N0000001N9+01671+99999099781ADDAJ100009199999999GF104991999999999999999999
0029028970999991925071213004+64217+027767FM-12+014699999V0202701N004119999999N0000001N9+01781+99999099831ADDGF108991999999999999999999
0029028970999991925071220004+64217+027767FM-12+014699999V0209991C000019999999N0000001N9+01441+99999099961ADDGF108991999999999999999999
0046028970999991925071306004+64217+027767FM-12+014699999V0202701N001019999999N0000001N9+01281+99999100101ADDAJ100009199999999GF108991999999999999999999
0029028970999991925071313004+64217+027767FM-12+014699999V0202701N003119999999N0000001N9+01941+99999100181ADDGF106991999999999999999999
0029028970999991925071320004+64217+027767FM-12+014699999V0209991C000019999999N0000001N9+01721+99999100271ADDGF102991999999999999999999
0046028970999991925071406004+64217+027767FM-12+014699999V0209991C000019999999N0000001N9+01611+99999100501ADDAJ100009199999999GF102991999999999999999999
0029028970999991925071413004+64217+027767FM-12+014699999V0203601N001019999999N0000001N9+02061+99999100511ADDGF104991999999999999999999
0029028970999991925071420004+64217+027767FM-12+014699999V0209991C000019999999N0000001N9+01671+99999100511ADDGF102991999999999999999999
0046028970999991925071506004+64217+027767FM-12+014699999V0209991C000019999999N0000001N9+01611+99999100641ADDAJ100009199999999GF105991999999999999999999
0029028970999991925071513004+64217+027767FM-12+014699999V0200901N001019999999N0000001N9+02061+99999100481ADDGF102991999999999999999999
0029028970999991925071520004+64217+027767FM-12+014699999V0209991C000019999999N0000001N9+01781+99999100351ADDGF100991999999999999999999
0046028970999991925071606004+64217+027767FM-12+014699999V0209991C000019999999N0000001N9+01721+99999100281ADDAJ100009199999999GF100991999999999999999999
0029028970999991925071613004+64217+027767FM-12+014699999V0200901N003119999999N0000001N9+02221+99999100081ADDGF102991999999999999999999
0029028970999991925071620004+64217+027767FM-12+014699999V0209991C000019999999N0000001N9+01721+99999100031ADDGF100991999999999999999999
0046028970999991925071706004+64217+027767FM-12+014699999V0209991C000019999999N0000001N9+01671+99999099961ADDAJ100009199999999GF100991999999999999999999
0029028970999991925071713004+64217+027767FM-12+014699999V0201601N001019999999N0000001N9+01831+99999100061ADDGF104991999999999999999999
0029028970999991925071720004+64217+027767FM-12+014699999V0209991C000019999999N0000001N9+01501+99999099981ADDGF102991999999999999999999
0046028970999991925071806004+64217+027767FM-12+014699999V0203601N001019999999N0000001N9+01671+99999099941ADDAJ100009199999999GF100991999999999999999999
0029028970999991925071813004+64217+027767FM-12+014699999V0203601N003119999999N0000001N9+02221+99999099751ADDGF102991999999999999999999
0029028970999991925071820004+64217+027767FM-12+014699999V0209991C000019999999N0000001N9+01831+99999099711ADDGF100991999999999999999999
0046028970999991925071906004+64217+027767FM-12+014699999V0209991C000019999999N0000001N9+01721+99999099881ADDAJ100009199999999GF100991999999999999999999
0029028970999991925071913004+64217+027767FM-12+014699999V0202701N003119999999N0000001N9+02781+99999099801ADDGF102991999999999999999999
0029028970999991925071920004+64217+027767FM-12+014699999V0209991C000019999999N0000001N9+02281+99999099791ADDGF100991999999999999999999
0046028970999991925072006004+64217+027767FM-12+014699999V0202701N001019999999N0000001N9+01721+99999099921ADDAJ100009199999999GF101991999999999999999999
0029028970999991925072013004+64217+027767FM-12+014699999V0202701N004119999999N0000001N9+02501+99999099941ADDGF104991999999999999999999
0029028970999991925072020004+64217+027767FM-12+014699999V0209991C000019999999N0000001N9+01891+99999100071ADDGF101991999999999999999999
0046028970999991925072106004+64217+027767FM-12+014699999V0203201N001019999999N0000001N9+01781+99999100341ADDAJ100009199999999GF101991999999999999999999
0029028970999991925072113004+64217+027767FM-12+014699999V0203201N004119999999N0000001N9+02501+99999100471ADDGF102991999999999999999999
0029028970999991925072120004+64217+027767FM-12+014699999V0209991C000019999999N0000001N9+02111+99999100511ADDGF100991999999999999999999
0046028970999991925072206004+64217+027767FM-12+014699999V0209991C000019999999N0000001N9+01831+99999100701ADDAJ100009199999999GF100991999999999999999999
0029028970999991925072213004+64217+027767FM-12+014699999V0202701N001019999999N0000001N9+02721+99999100591ADDGF102991999999999999999999
0029028970999991925072220004+64217+027767FM-12+014699999V0209991C000019999999N0000001N9+02221+99999100421ADDGF102991999999999999999999
0046028970999991925072306004+64217+027767FM-12+014699999V0202301N003119999999N0000001N9+01831+99999100421ADDAJ100009199999999GF100991999999999999999999
0029028970999991925072313004+64217+027767FM-12+014699999V0202301N004119999999N0000001N9+02891+99999100191ADDGF104991999999999999999999
0029028970999991925072320004+64217+027767FM-12+014699999V0209991C000019999999N0000001N9+02171+99999100021ADDGF106991999999999999999999
0046028970999991925072406004+64217+027767FM-12+014699999V0209991C000019999999N0000001N9+01781+99999099911ADDAJ100009199999999GF100991999999999999999999
0029028970999991925072413004+64217+027767FM-12+014699999V0202701N004119999999N0000001N9+02671+99999099681ADDGF104991999999999999999999
0029028970999991925072420004+64217+027767FM-12+014699999V0202701N003119999999N0000001N9+01831+99999099681ADDGF102991999999999999999999
0046028970999991925072506004+64217+027767FM-12+014699999V0202701N003119999999N0000001N9+01671+99999999999ADDAJ100009199999999GF100991999999999999999999
0029028970999991925072513004+64217+027767FM-12+014699999V0202701N004119999999N0000001N9+02061+99999100081ADDGF100991999999999999999999
0029028970999991925072520004+64217+027767FM-12+014699999V0202701N001019999999N0000001N9+01781+99999100161ADDGF102991999999999999999999
0046028970999991925072606004+64217+027767FM-12+014699999V0209991C000019999999N0000001N9+01721+99999100201ADDAJ100009199999999GF100991999999999999999999
0029028970999991925072613004+64217+027767FM-12+014699999V0202701N001019999999N0000001N9+02671+99999100071ADDGF102991999999999999999999
0029028970999991925072620004+64217+027767FM-12+014699999V0209991C000019999999N0000001N9+02111+99999099941ADDGF104991999999999999999999
0046028970999991925072706004+64217+027767FM-12+014699999V0202301N003119999999N0000001N9+01781+99999099821ADDAJ100009199999999GF100991999999999999999999
0035028970999991925072713004+64217+027767FM-12+014699999V0202701N003119999999N0000001N9+02331+99999099621ADDGF106991999999999999999999MW1171
0029028970999991925072720004+64217+027767FM-12+014699999V0202001N004119999999N0000001N9+01781+99999099591ADDGF108991999999999999999999
0046028970999991925072806004+64217+027767FM-12+014699999V0201801N003119999999N0000001N9+01831+99999099241ADDAJ100009199999999GF102991999999999999999999
0029028970999991925072813004+64217+027767FM-12+014699999V0202001N004119999999N0000001N9+02831+99999098961ADDGF108991999999999999999999
0029028970999991925072820004+64217+027767FM-12+014699999V0209991C000019999999N0000001N9+01781+99999098981ADDGF108991999999999999999999
0046028970999991925072906004+64217+027767FM-12+014699999V0202001N001019999999N0000001N9+01671+99999098901ADDAJ100009199999999GF102991999999999999999999
0029028970999991925072913004+64217+027767FM-12+014699999V0202701N001019999999N0000001N9+02221+99999098821ADDGF105991999999999999999999
0035028970999991925072920004+64217+027767FM-12+014699999V0202301N001019999999N0000001N9+02221+99999098831ADDGF106991999999999999999999MW1171
0046028970999991925073006004+64217+027767FM-12+014699999V0202701N001019999999N0000001N9+01501+99999098991ADDAJ100009199999999GF105991999999999999999999
0029028970999991925073013004+64217+027767FM-12+014699999V0202701N001019999999N0000001N9+02221+99999098951ADDGF106991999999999999999999
0029028970999991925073020004+64217+027767FM-12+014699999V0209991C000019999999N0000001N9+01671+99999098801ADDGF106991999999999999999999
0046028970999991925073106004+64217+027767FM-12+014699999V0209991C000019999999N0000001N9+01671+99999098791ADDAJ100009199999999GF105991999999999999999999
0029028970999991925073113004+64217+027767FM-12+014699999V0202301N001019999999N0000001N9+02331+99999098631ADDGF104991999999999999999999
0029028970999991925073120004+64217+027767FM-12+014699999V0209991C000019999999N0000001N9+01831+99999098511ADDGF106991999999999999999999
0046028970999991925080106004+64217+027767FM-12+014699999V0209991C000019999999N0000001N9+01501+99999098401ADDAJ100009199999999GF107991999999999999999999
0029028970999991925080113004+64217+027767FM-12+014699999V0200901N003119999999N0000001N9+02391+99999098151ADDGF107991999999999999999999
0029028970999991925080120004+64217+027767FM-12+014699999V0209991C000019999999N0000001N9+01561+99999098151ADDGF108991999999999999999999
0046028970999991925080206004+64217+027767FM-12+014699999V0202701N001019999999N0000001N9+01501+99999098231ADDAJ100009199999999GF108991999999999999999999
0029028970999991925080213004+64217+027767FM-12+014699999V0202701N001019999999N0000001N9+01891+99999098471ADDGF107991999999999999999999
0029028970999991925080220004+64217+027767FM-12+014699999V0209991C000019999999N0000001N9+01671+99999098511ADDGF101991999999999999999999
0046028970999991925080306004+64217+027767FM-12+014699999V0200901N001019999999N0000001N9+01331+99999098561ADDAJ100009199999999GF108991999999999999999999
0029028970999991925080313004+64217+027767FM-12+014699999V0209991C000019999999N0000001N9+01441+99999098591ADDGF108991999999999999999999
0035028970999991925080320004+64217+027767FM-12+014699999V0209991C000019999999N0000001N9+01441+99999098481ADDGF108991999999999999999999MW1621
0046028970999991925080406004+64217+027767FM-12+014699999V0209991C000019999999N0000001N9+01501+99999098381ADDAJ100009199999999GF102991999999999999999999
0029028970999991925080413004+64217+027767FM-12+014699999V0200901N001019999999N0000001N9+01891+99999098461ADDGF106991999999999999999999
0029028970999991925080420004+64217+027767FM-12+014699999V0200701N005119999999N0000001N9+01611+99999098501ADDGF107991999999999999999999
0052028970999991925080506004+64217+027767FM-12+014699999V0200701N005119999999N0000001N9+01001+99999098351ADDAJ100009199999999GF108991999999999999999999MW1621
0035028970999991925080513004+64217+027767FM-12+014699999V0200501N007219999999N0000001N9+01171+99999098151ADDGF108991999999999999999999MW1621
0029028970999991925080520004+64217+027767FM-12+014699999V0200501N005119999999N0000001N9+01001+99999098061ADDGF108991999999999999999999
0046028970999991925080606004+64217+027767FM-12+014699999V0200901N007219999999N0000001N9+00941+99999097901ADDAJ100009199999999GF108991999999999999999999
0035028970999991925080613004+64217+027767FM-12+014699999V0200901N002119999999N0000001N9+00891+99999098041ADDGF108991999999999999999999MW1621
0035028970999991925080620004+64217+027767FM-12+014699999V0203601N001019999999N0000001N9+00891+99999098231ADDGF108991999999999999999999MW1621
0046028970999991925080706004+64217+027767FM-12+014699999V0200901N003119999999N0000001N9+00721+99999098751ADDAJ100009199999999GF108991999999999999999999
0029028970999991925080713004+64217+027767FM-12+014699999V0200901N004119999999N0000001N9+01391+99999099061ADDGF101991999999999999999999
0029028970999991925080720004+64217+027767FM-12+014699999V0209991C000019999999N0000001N9+00941+99999099381ADDGF100991999999999999999999
0046028970999991925080806004+64217+027767FM-12+014699999V0209991C000019999999N0000001N9+01111+99999099671ADDAJ100009199999999GF100991999999999999999999
0029028970999991925080813004+64217+027767FM-12+014699999V0202701N003119999999N0000001N9+01831+99999099801ADDGF100991999999999999999999
0029028970999991925080820004+64217+027767FM-12+014699999V0209991C000019999999N0000001N9+01281+99999099901ADDGF100991999999999999999999
0046028970999991925080906004+64217+027767FM-12+014699999V0209991C000019999999N0000001N9+01331+99999100041ADDAJ100009199999999GF100991999999999999999999
0029028970999991925080913004+64217+027767FM-12+014699999V0203201N001019999999N0000001N9+02001+99999100141ADDGF100991999999999999999999
0029028970999991925080920004+64217+027767FM-12+014699999V0209991C000019999999N0000001N9+01331+99999100141ADDGF100991999999999999999999
0046028970999991925081006004+64217+027767FM-12+014699999V0209991C000019999999N0000001N9+01501+99999100191ADDAJ100009199999999GF100991999999999999999999
0029028970999991925081013004+64217+027767FM-12+014699999V0202301N003119999999N0000001N9+02281+99999100041ADDGF100991999999999999999999
0029028970999991925081020004+64217+027767FM-12+014699999V0209991C000019999999N0000001N9+01441+99999099781ADDGF104991999999999999999999
0046028970999991925081106004+64217+027767FM-12+014699999V0209991C000019999999N0000001N9+01331+99999099471ADDAJ100009199999999GF108991999999999999999999
0029028970999991925081113004+64217+027767FM-12+014699999V0202001N003119999999N0000001N9+01891+99999099321ADDGF108991999999999999999999
0029028970999991925081120004+64217+027767FM-12+014699999V0202301N007219999999N0000001N9+01721+99999099001ADDGF108991999999999999999999
0046028970999991925081206004+64217+027767FM-12+014699999V0202301N001019999999N0000001N9+01781+99999099041ADDAJ100009199999999GF108991999999999999999999
0029028970999991925081213004+64217+027767FM-12+014699999V0200901N007219999999N0000001N9+02281+99999099431ADDGF104991999999999999999999
0029028970999991925081220004+64217+027767FM-12+014699999V0200901N003119999999N0000001N9+01611+99999099881ADDGF100991999999999999999999
0046028970999991925081306004+64217+027767FM-12+014699999V0209991C000019999999N0000001N9+01441+99999100361ADDAJ100009199999999GF100991999999999999999999
0029028970999991925081313004+64217+027767FM-12+014699999V0202301N004119999999N0000001N9+02221+99999100281ADDGF104991999999999999999999
0029028970999991925081320004+64217+027767FM-12+014699999V0202301N003119999999N0000001N9+01561+99999100081ADDGF104991999999999999999999
0046028970999991925081406004+64217+027767FM-12+014699999V0202301N007219999999N0000001N9+01561+99999099801ADDAJ100009199999999GF108991999999999999999999
0029028970999991925081413004+64217+027767FM-12+014699999V0202301N007219999999N0000001N9+02061+99999099601ADDGF107991999999999999999999
0029028970999991925081420004+64217+027767FM-12+014699999V0202301N006219999999N0000001N9+01721+99999099431ADDGF108991999999999999999999
0046028970999991925081506004+64217+027767FM-12+014699999V0209991C000019999999N0000001N9+01501+99999099281ADDAJ100009199999999GF108991999999999999999999
0029028970999991925081513004+64217+027767FM-12+014699999V0200701N001019999999N0000001N9+01891+99999099111ADDGF108991999999999999999999
0029028970999991925081520004+64217+027767FM-12+014699999V0209991C000019999999N0000001N9+01561+99999098831ADDGF108991999999999999999999
0052028970999991925081606004+64217+027767FM-12+014699999V0209991C000019999999N0000001N9+01501+99999098561ADDAJ100009199999999GF108991999999999999999999MW1621
0029028970999991925081613004+64217+027767FM-12+014699999V0209991C000019999999N0000001N9+01781+99999098431ADDGF108991999999999999999999
0029028970999991925081620004+64217+027767FM-12+014699999V0209991C000019999999N0000001N9+01561+99999098421ADDGF108991999999999999999999
0046028970999991925081706004+64217+027767FM-12+014699999V0203201N001019999999N0000001N9+01501+99999098321ADDAJ100009199999999GF108991999999999999999999
0029028970999991925081713004+64217+027767FM-12+014699999V0200501N003119999999N0000001N9+02001+99999098081ADDGF108991999999999999999999
0029028970999991925081720004+64217+027767FM-12+014699999V0209991C000019999999N0000001N9+01391+99999098191ADDGF108991999999999999999999
0046028970999991925081806004+64217+027767FM-12+014699999V0209991C000019999999N0000001N9+01441+99999098231ADDAJ100009199999999GF104991999999999999999999
0029028970999991925081813004+64217+027767FM-12+014699999V0202001N003119999999N0000001N9+02001+99999098501ADDGF104991999999999999999999
0029028970999991925081820004+64217+027767FM-12+014699999V0209991C000019999999N0000001N9+01281+99999098671ADDGF102991999999999999999999
0046028970999991925081906004+64217+027767FM-12+014699999V0209991C000019999999N0000001N9+01331+99999098701ADDAJ100009199999999GF100991999999999999999999
0029028970999991925081913004+64217+027767FM-12+014699999V0209991C000019999999N0000001N9+02061+99999098631ADDGF102991999999999999999999
0029028970999991925081920004+64217+027767FM-12+014699999V0209991C000019999999N0000001N9+01501+99999098581ADDGF104991999999999999999999
0046028970999991925082006004+64217+027767FM-12+014699999V0209991C000019999999N0000001N9+01331+99999098551ADDAJ100009199999999GF108991999999999999999999
0029028970999991925082013004+64217+027767FM-12+014699999V0203601N002119999999N0000001N9+01721+99999098631ADDGF108991999999999999999999
0029028970999991925082020004+64217+027767FM-12+014699999V0209991C000019999999N0000001N9+01171+99999098741ADDGF108991999999999999999999
0046028970999991925082106004+64217+027767FM-12+014699999V0200901N004119999999N0000001N9+00941+99999099031ADDAJ100009199999999GF108991999999999999999999
0029028970999991925082113004+64217+027767FM-12+014699999V0200501N006219999999N0000001N9+01281+99999099241ADDGF108991999999999999999999
0029028970999991925082120004+64217+027767FM-12+014699999V0209991C000019999999N0000001N9+01001+99999099541ADDGF108991999999999999999999
0046028970999991925082206004+64217+027767FM-12+014699999V0209991C000019999999N0000001N9+01001+99999099871ADDAJ100009199999999GF102991999999999999999999
0029028970999991925082213004+64217+027767FM-12+014699999V0200901N001019999999N0000001N9+01561+99999999999ADDGF100991999999999999999999
0029028970999991925082220004+64217+027767FM-12+014699999V0209991C000019999999N0000001N9+00941+99999100141ADDGF104991999999999999999999
0046028970999991925082306004+64217+027767FM-12+014699999V0209991C000019999999N0000001N9+00891+99999100481ADDAJ100009199999999GF100991999999999999999999
0029028970999991925082313004+64217+027767FM-12+014699999V0200901N001019999999N0000001N9+01561+99999100471ADDGF104991999999999999999999
0029028970999991925082320004+64217+027767FM-12+014699999V0209991C000019999999N0000001N9+00891+99999100521ADDGF104991999999999999999999
0046028970999991925082406004+64217+027767FM-12+014699999V0209991C000019999999N0000001N9+00611+99999100621ADDAJ100009199999999GF100991999999999999999999
0029028970999991925082413004+64217+027767FM-12+014699999V0209991C000019999999N0000001N9+01831+99999100521ADDGF100991999999999999999999
0029028970999991925082420004+64217+027767FM-12+014699999V0209991C000019999999N0000001N9+00831+99999100471ADDGF100991999999999999999999
0046028970999991925082506004+64217+027767FM-12+014699999V0209991C000019999999N0000001N9+00831+99999100501ADDAJ100009199999999GF100991999999999999999999
0029028970999991925082513004+64217+027767FM-12+014699999V0209991C000019999999N0000001N9+01891+99999100401ADDGF100991999999999999999999
0029028970999991925082520004+64217+027767FM-12+014699999V0209991C000019999999N0000001N9+00831+99999100321ADDGF100991999999999999999999
0046028970999991925082606004+64217+027767FM-12+014699999V0209991C000019999999N0000001N9+00721+99999100431ADDAJ100009199999999GF100991999999999999999999
0029028970999991925082613004+64217+027767FM-12+014699999V0202701N003119999999N0000001N9+01891+99999100381ADDGF100991999999999999999999
0029028970999991925082620004+64217+027767FM-12+014699999V0209991C000019999999N0000001N9+01001+99999100361ADDGF100991999999999999999999
0046028970999991925082706004+64217+027767FM-12+014699999V0209991C000019999999N0000001N9+01061+99999100461ADDAJ100009199999999GF100991999999999999999999
0029028970999991925082713004+64217+027767FM-12+014699999V0200901N001019999999N0000001N9+01941+99999100481ADDGF102991999999999999999999
0029028970999991925082720004+64217+027767FM-12+014699999V0209991C000019999999N0000001N9+01221+99999100381ADDGF104991999999999999999999
0046028970999991925082806004+64217+027767FM-12+014699999V0200901N001019999999N0000001N9+01221+99999100271ADDAJ100009199999999GF100991999999999999999999
0029028970999991925082813004+64217+027767FM-12+014699999V0200901N004119999999N0000001N9+01831+99999099981ADDGF102991999999999999999999
0029028970999991925082820004+64217+027767FM-12+014699999V0209991C000019999999N0000001N9+01061+99999099821ADDGF100991999999999999999999
0046028970999991925082906004+64217+027767FM-12+014699999V0200901N001019999999N0000001N9+00781+99999099641ADDAJ100009199999999GF108991999999999999999999
