0046029700999991925010106004+60100+019950FM-12+001499999V0202001N005119999999N0000001N9+00331+99999099601ADDAJ100009199999999GF106991999999999999999999
0029029700999991925010113004+60100+019950FM-12+001499999V0202301N005119999999N0000001N9+00281+99999099391ADDGF108991999999999999999999
0029029700999991925010120004+60100+019950FM-12+001499999V0202301N004119999999N0000001N9+00281+99999099551ADDGF101991999999999999999999
0046029700999991925010206004+60100+019950FM-12+001499999V0202001N005119999999N0000001N9+00331+99999098901ADDAJ100009199999999GF108991999999999999999999
0029029700999991925010213004+60100+019950FM-12+001499999V0202001N005119999999N0000001N9+00391+99999097741ADDGF107991999999999999999999
0029029700999991925010220004+60100+019950FM-12+001499999V0202301N007219999999N0000001N9+00441+99999097661ADDGF107991999999999999999999
0046029700999991925010306004+60100+019950FM-12+001499999V0202301N007219999999N0000001N9+00391+99999095861ADDAJ100009199999999GF108991999999999999999999
0029029700999991925010313004+60100+019950FM-12+001499999V0202301N008719999999N0000001N9+00281+99999096791ADDGF106991999999999999999999
0029029700999991925010320004+60100+019950FM-12+001499999V0202701N007219999999N0000001N9+00281+99999097711ADDGF100991999999999999999999
0046029700999991925010406004+60100+019950FM-12+001499999V0202701N005119999999N0000001N9+00221+99999098401ADDAJ100009199999999GF100991999999999999999999
0029029700999991925010413004+60100+019950FM-12+001499999V0202301N004119999999N0000001N9+00391+99999098741ADDGF108991999999999999999999
0029029700999991925010420004+60100+019950FM-12+001499999V0202501N004119999999N0000001N9+00331+99999098301ADDGF108991999999999999999999
0046029700999991925010506004+60100+019950FM-12+001499999V0202901N004119999999N0000001N9+00001+99999099041ADDAJ100009199999999GF100991999999999999999999
0029029700999991925010513004+60100+019950FM-12+001499999V0202501N003119999999N0000001N9+00111+99999099541ADDGF100991999999999999999999
0029029700999991925010520004+60100+019950FM-12+001499999V0202301N003119999999N0000001N9+00111+99999099471ADDGF100991999999999999999999
0046029700999991925010606004+60100+019950FM-12+001499999V0202701N005119999999N0000001N9+00221+99999099031ADDAJ100009199999999GF107991999999999999999999
0029029700999991925010613004+60100+019950FM-12+001499999V0202901N002119999999N0000001N9+00061+99999099101ADDGF107991999999999999999999
0029029700999991925010620004+60100+019950FM-12+001499999V0202901N001019999999N0000001N9-00061+99999099481ADDGF100991999999999999999999
0046029700999991925010706004+60100+019950FM-12+001499999V0202701N002119999999N0000001N9-00111+99999099831ADDAJ100009199999999GF100991999999999999999999
0029029700999991925010713004+60100+019950FM-12+001499999V0209991C000019999999N0000001N9-00061+99999099581ADDGF102991999999999999999999
0035029700999991925010720004+60100+019950FM-12+001499999V0201401N001019999999N0000001N9+00001+99999099081ADDGF108991999999999999999999MW1721
0035029700999991925010806004+60100+019950FM-12+001499999V0209991C000019999999N0000001N9+00001+99999100151ADDGF108991999999999999999999MW1701
0029029700999991925010813004+60100+019950FM-12+001499999V0209991C000019999999N0000001N9+00001+99999100511ADDGF100991999999999999999999
0029029700999991925010820004+60100+019950FM-12+001499999V0202301N001019999999N0000001N9+00221+99999100281ADDGF108991999999999999999999
0046029700999991925010906004+60100+019950FM-12+001499999V0202501N002119999999N0000001N9+00331+99999099591ADDAJ100009199999999GF108991999999999999999999
0035029700999991925010913004+60100+019950FM-12+001499999V0202501N003119999999N0000001N9+00331+99999099341ADDGF108991999999999999999999MW1601
0035029700999991925010920004+60100+019950FM-12+001499999V0209991C000019999999N0000001N9+00111+99999099471ADDGF108991999999999999999999MW1601
0046029700999991925011006004+60100+019950FM-12+001499999V0203601N005119999999N0000001N9+00061+99999100601ADDAJ100009199999999GF108991999999999999999999
0029029700999991925011013004+60100+019950FM-12+001499999V0200201N005119999999N0000001N9+00111+99999101351ADDGF105991999999999999999999
0029029700999991925011020004+60100+019950FM-12+001499999V0202501N001019999999N0000001N9+00001+99999101301ADDGF108991999999999999999999
0046029700999991925011106004+60100+019950FM-12+001499999V0202501N003119999999N0000001N9+00221+99999100301ADDAJ100009199999999GF108991999999999999999999
0029029700999991925011113004+60100+019950FM-12+001499999V0202901N001019999999N0000001N9+00441+99999100681ADDGF102991999999999999999999
0029029700999991925011120004+60100+019950FM-12+001499999V0209991C000019999999N0000001N9+00281+99999101231ADDGF108991999999999999999999
0046029700999991925011206004+60100+019950FM-12+001499999V0202901N001019999999N0000001N9+00441+99999101701ADDAJ100009199999999GF102991999999999999999999
0029029700999991925011213004+60100+019950FM-12+001499999V0202501N001019999999N0000001N9+00441+99999101831ADDGF100991999999999999999999
0029029700999991925011220004+60100+019950FM-12+001499999V0209991C000019999999N0000001N9-00171+99999101901ADDGF100991999999999999999999
0046029700999991925011306004+60100+019950FM-12+001499999V0202301N005119999999N0000001N9+00111+99999101761ADDAJ100009199999999GF108991999999999999999999
0029029700999991925011313004+60100+019950FM-12+001499999V0202001N005119999999N0000001N9+00331+99999101791ADDGF106991999999999999999999
0029029700999991925011320004+60100+019950FM-12+001499999V0202301N007219999999N0000001N9+00331+99999101781ADDGF108991999999999999999999
0046029700999991925011406004+60100+019950FM-12+001499999V0202501N006219999999N0000001N9+00281+99999101901ADDAJ100009199999999GF108991999999999999999999
0029029700999991925011413004+60100+019950FM-12+001499999V0202001N009819999999N0000001N9+00171+99999101641ADDGF108991999999999999999999
0029029700999991925011420004+60100+019950FM-12+001499999V0202301N008219999999N0000001N9+00331+99999100911ADDGF108991999999999999999999
0046029700999991925011506004+60100+019950FM-12+001499999V0202501N008719999999N0000001N9+00501+99999100671ADDAJ100009199999999GF108991999999999999999999
0029029700999991925011513004+60100+019950FM-12+001499999V0202301N005119999999N0000001N9+00391+99999100181ADDGF108991999999999999999999
0029029700999991925011520004+60100+019950FM-12+001499999V0202501N006219999999N0000001N9+00441+99999099751ADDGF100991999999999999999999
0046029700999991925011606004+60100+019950FM-12+001499999V0202501N006219999999N0000001N9+00281+99999101101ADDAJ100009199999999GF100991999999999999999999
0029029700999991925011613004+60100+019950FM-12+001499999V0202501N006219999999N0000001N9+00391+99999101191ADDGF107991999999999999999999
0029029700999991925011620004+60100+019950FM-12+001499999V0202301N008719999999N0000001N9+00611+99999101021ADDGF106991999999999999999999
0046029700999991925011706004+60100+019950FM-12+001499999V0202501N007219999999N0000001N9+00441+99999101431ADDAJ100009199999999GF100991999999999999999999
0029029700999991925011713004+60100+019950FM-12+001499999V0203201N003119999999N0000001N9+00561+99999101831ADDGF100991999999999999999999
0029029700999991925011720004+60100+019950FM-12+001499999V0209991C000019999999N0000001N9+00061+99999102341ADDGF100991999999999999999999
0046029700999991925011806004+60100+019950FM-12+001499999V0202301N004119999999N0000001N9+00281+99999102311ADDAJ100009199999999GF100991999999999999999999
0029029700999991925011813004+60100+019950FM-12+001499999V0202301N005119999999N0000001N9+00441+99999102201ADDGF108991999999999999999999
0029029700999991925011820004+60100+019950FM-12+001499999V0202301N005119999999N0000001N9+00561+99999101981ADDGF108991999999999999999999
0046029700999991925011906004+60100+019950FM-12+001499999V0203201N004119999999N0000001N9+00671+99999101791ADDAJ100009199999999GF108991999999999999999999
0029029700999991925011913004+60100+019950FM-12+001499999V0202901N008219999999N0000001N9+00391+99999102741ADDGF100991999999999999999999
0029029700999991925011920004+60100+019950FM-12+001499999V0202901N008219999999N0000001N9+00221+99999103561ADDGF100991999999999999999999
0046029700999991925012006004+60100+019950FM-12+001499999V0202901N001019999999N0000001N9-00061+99999104111ADDAJ100009199999999GF100991999999999999999999
0029029700999991925012013004+60100+019950FM-12+001499999V0202701N004119999999N0000001N9+00171+99999104101ADDGF100991999999999999999999
0029029700999991925012020004+60100+019950FM-12+001499999V0209991C000019999999N0000001N9-00171+99999103911ADDGF100991999999999999999999
0046029700999991925012106004+60100+019950FM-12+001499999V0202701N001019999999N0000001N9-00221+99999103741ADDAJ100009199999999GF100991999999999999999999
0029029700999991925012113004+60100+019950FM-12+001499999V0202901N003119999999N0000001N9-00061+99999103711ADDGF100991999999999999999999
0029029700999991925012120004+60100+019950FM-12+001499999V0202901N001019999999N0000001N9-00111+99999103741ADDGF100991999999999999999999
0046029700999991925012206004+60100+019950FM-12+001499999V0202501N003119999999N0000001N9-00171+99999103631ADDAJ100009199999999GF100991999999999999999999
0029029700999991925012213004+60100+019950FM-12+001499999V0202301N003119999999N0000001N9+00001+99999103541ADDGF100991999999999999999999
0029029700999991925012220004+60100+019950FM-12+001499999V0202501N001019999999N0000001N9-00221+99999103191ADDGF100991999999999999999999
0046029700999991925012306004+60100+019950FM-12+001499999V0209991C000019999999N0000001N9-00111+99999102741ADDAJ100009199999999GF100991999999999999999999
0000029700999991925012313004+60100+019950FM-12+001499999V0202501N001019999999N0000001N9+00111+99999102481
0029029700999991925012320004+60100+019950FM-12+001499999V0202001N002119999999N0000001N9+00111+99999102381ADDGF108991999999999999999999
0046029700999991925012406004+60100+019950FM-12+001499999V0202501N001019999999N0000001N9-00281+99999102511ADDAJ100009199999999GF108991999999999999999999
0029029700999991925012413004+60100+019950FM-12+001499999V0202501N001019999999N0000001N9-00221+99999102721ADDGF108991999999999999999999
0029029700999991925012420004+60100+019950FM-12+001499999V0209991C000019999999N0000001N9-00331+99999102801ADDGF108991999999999999999999
0046029700999991925012506004+60100+019950FM-12+001499999V0209991C000019999999N0000001N9+00061+99999103191ADDAJ100009199999999GF108991999999999999999999
0029029700999991925012513004+60100+019950FM-12+001499999V0203601N005119999999N0000001N9+00221+99999103581ADDGF100991999999999999999999
0029029700999991925012520004+60100+019950FM-12+001499999V0209991C000019999999N0000001N9-00281+99999104041ADDGF100991999999999999999999
0046029700999991925012606004+60100+019950FM-12+001499999V0203201N001019999999N0000001N9-00171+99999104041ADDAJ100009199999999GF100991999999999999999999
0029029700999991925012613004+60100+019950FM-12+001499999V0202901N001019999999N0000001N9+00111+99999103961ADDGF100991999999999999999999
0029029700999991925012620004+60100+019950FM-12+001499999V0202901N001019999999N0000001N9-00171+99999103551ADDGF100991999999999999999999
0046029700999991925012706004+60100+019950FM-12+001499999V0202901N001019999999N0000001N9-00111+99999103081ADDAJ100009199999999GF100991999999999999999999
0029029700999991925012713004+60100+019950FM-12+001499999V0203201N001019999999N0000001N9+00281+99999102861ADDGF100991999999999999999999
0029029700999991925012720004+60100+019950FM-12+001499999V0209991C000019999999N0000001N9-00331+99999102741ADDGF100991999999999999999999
0046029700999991925012806004+60100+019950FM-12+001499999V0209991C000019999999N0000001N9-00331+99999102301ADDAJ100009199999999GF108991999999999999999999
0029029700999991925012813004+60100+019950FM-12+001499999V0209991C000019999999N0000001N9-00061+99999102081ADDGF102991999999999999999999
0029029700999991925012820004+60100+019950FM-12+001499999V0202301N005119999999N0000001N9-00111+99999101881ADDGF108991999999999999999999
0029029700999991925012906004+60100+019950FM-12+001499999V0201401N001019999999N0000001N9-00061+99999101541ADDGF108991999999999999999999
0029029700999991925012913004+60100+019950FM-12+001499999V0202301N003119999999N0000001N9+00111+99999101191ADDGF106991999999999999999999
0029029700999991925012920004+60100+019950FM-12+001499999V0202001N002119999999N0000001N9-00061+99999100911ADDGF107991999999999999999999
0052029700999991925013006004+60100+019950FM-12+001499999V0202001N004119999999N0000001N9+00111+99999099151ADDAJ100009199999999GF108991999999999999999999MW1621
0029029700999991925013013004+60100+019950FM-12+001499999V0202001N004119999999N0000001N9+00221+99999098761ADDGF108991999999999999999999
0029029700999991925013020004+60100+019950FM-12+001499999V0202301N004119999999N0000001N9+00171+99999098801ADDGF100991999999999999999999
0046029700999991925013106004+60100+019950FM-12+001499999V0202301N003119999999N0000001N9+00171+99999098761ADDAJ100009199999999GF106991999999999999999999
0035029700999991925013113004+60100+019950FM-12+001499999V0201401N003119999999N0000001N9+00171+99999097881ADDGF108991999999999999999999MW1601
0029029700999991925013120004+60100+019950FM-12+001499999V0202701N002119999999N0000001N9+00111+99999097621ADDGF108991999999999999999999
0035029700999991925020106004+60100+019950FM-12+001499999V0202901N002119999999N0000001N9+00061+99999097821ADDGF108991999999999999999999MW1721
0035029700999991925020113004+60100+019950FM-12+001499999V0203401N002119999999N0000001N9+00061+99999097901ADDGF108991999999999999999999MW1721
0035029700999991925020120004+60100+019950FM-12+001499999V0203601N005119999999N0000001N9+00001+99999098801ADDGF108991999999999999999999MW1721
0029029700999991925020206004+60100+019950FM-12+001499999V0203601N003119999999N0000001N9+00061+99999100231ADDGF108991999999999999999999
0029029700999991925020213004+60100+019950FM-12+001499999V0203201N007219999999N0000001N9+00171+99999100711ADDGF108991999999999999999999
0029029700999991925020220004+60100+019950FM-12+001499999V0202701N003119999999N0000001N9-00061+99999100561ADDGF106991999999999999999999
0029029700999991925020306004+60100+019950FM-12+001499999V0202701N003119999999N0000001N9+00001+99999099961ADDGF106991999999999999999999
0029029700999991925020313004+60100+019950FM-12+001499999V0202701N003119999999N0000001N9+00221+99999100271ADDGF100991999999999999999999
0029029700999991925020320004+60100+019950FM-12+001499999V0202501N001019999999N0000001N9+00111+99999100401ADDGF100991999999999999999999
0029029700999991925020406004+60100+019950FM-12+001499999V0202301N003119999999N0000001N9+00221+99999099421ADDGF108991999999999999999999
0029029700999991925020413004+60100+019950FM-12+001499999V0203401N004119999999N0000001N9+00281+99999099601ADDGF102991999999999999999999
0029029700999991925020420004+60100+019950FM-12+001499999V0203201N002119999999N0000001N9+00061+99999100341ADDGF100991999999999999999999
0029029700999991925020506004+60100+019950FM-12+001499999V0202501N002119999999N0000001N9-00061+99999100621ADDGF100991999999999999999999
0029029700999991925020513004+60100+019950FM-12+001499999V0202001N011819999999N0000001N9+00221+99999099781ADDGF108991999999999999999999
0029029700999991925020520004+60100+019950FM-12+001499999V0202301N007219999999N0000001N9+00331+99999099111ADDGF108991999999999999999999
0046029700999991925020606004+60100+019950FM-12+001499999V0202501N008219999999N0000001N9+00221+99999099001ADDAJ100009199999999GF104991999999999999999999
0029029700999991925020613004+60100+019950FM-12+001499999V0202301N015919999999N0000001N9+00441+99999098801ADDGF100991999999999999999999
0029029700999991925020620004+60100+019950FM-12+001499999V0202501N007219999999N0000001N9+00281+99999098871ADDGF100991999999999999999999
0046029700999991925020706004+60100+019950FM-12+001499999V0202701N003119999999N0000001N9+00001+99999099221ADDAJ100009199999999GF100991999999999999999999
0029029700999991925020713004+60100+019950FM-12+001499999V0209991C000019999999N0000001N9+00221+99999099791ADDGF100991999999999999999999
0029029700999991925020720004+60100+019950FM-12+001499999V0209991C000019999999N0000001N9-00441+99999100231ADDGF100991999999999999999999
0046029700999991925020806004+60100+019950FM-12+001499999V0209991C000019999999N0000001N9-00781+99999100521ADDAJ100009199999999GF100991999999999999999999
0029029700999991925020813004+60100+019950FM-12+001499999V0209991C000019999999N0000001N9+00171+99999100551ADDGF100991999999999999999999
0029029700999991925020820004+60100+019950FM-12+001499999V0202001N003119999999N0000001N9+00171+99999100281ADDGF108991999999999999999999
0046029700999991925020906004+60100+019950FM-12+001499999V0201601N008219999999N0000001N9+00221+99999098881ADDAJ100009199999999GF108991999999999999999999
0035029700999991925020913004+60100+019950FM-12+001499999V0201601N019019999999N0000001N9+00111+99999097941ADDGF108991999999999999999999MW1721
0029029700999991925020920004+60100+019950FM-12+001499999V0202501N004119999999N0000001N9+00281+99999098151ADDGF108991999999999999999999
0046029700999991925021006004+60100+019950FM-12+001499999V0202301N003119999999N0000001N9+00171+99999098581ADDAJ100009199999999GF100991999999999999999999
0029029700999991925021013004+60100+019950FM-12+001499999V0202501N003119999999N0000001N9+00221+99999099441ADDGF100991999999999999999999
0029029700999991925021020004+60100+019950FM-12+001499999V0202301N005119999999N0000001N9+00281+99999099461ADDGF108991999999999999999999
0046029700999991925021106004+60100+019950FM-12+001499999V0202301N007219999999N0000001N9+00611+99999098461ADDAJ100009199999999GF102991999999999999999999
0029029700999991925021113004+60100+019950FM-12+001499999V0202301N005119999999N0000001N9+00441+99999098941ADDGF108991999999999999999999
0035029700999991925021120004+60100+019950FM-12+001499999V0202301N006219999999N0000001N9+00391+99999099261ADDGF108991999999999999999999MW1601
0046029700999991925021206004+60100+019950FM-12+001499999V0202301N005119999999N0000001N9+00391+99999099591ADDAJ100009199999999GF108991999999999999999999
0029029700999991925021213004+60100+019950FM-12+001499999V0202301N005119999999N0000001N9+00441+99999099501ADDGF106991999999999999999999
0029029700999991925021220004+60100+019950FM-12+001499999V0202301N004119999999N0000001N9+00441+99999099591ADDGF100991999999999999999999
0046029700999991925021306004+60100+019950FM-12+001499999V0202301N004119999999N0000001N9+00331+99999100071ADDAJ100009199999999GF101991999999999999999999
0029029700999991925021313004+60100+019950FM-12+001499999V0202301N004119999999N0000001N9+00391+99999100621ADDGF100991999999999999999999
0029029700999991925021320004+60100+019950FM-12+001499999V0202301N003119999999N0000001N9+00221+99999100941ADDGF100991999999999999999999
0046029700999991925021406004+60100+019950FM-12+001499999V0201401N001019999999N0000001N9+00061+99999100991ADDAJ100009199999999GF108991999999999999999999
0029029700999991925021413004+60100+019950FM-12+001499999V0201401N003119999999N0000001N9+00281+99999100801ADDGF108991999999999999999999
0035029700999991925021420004+60100+019950FM-12+001499999V0201401N002119999999N0000001N9+00281+99999100711ADDGF108991999999999999999999MW1621
0046029700999991925021506004+60100+019950FM-12+001499999V0201401N003119999999N0000001N9+00331+99999100581ADDAJ100009199999999GF108991999999999999999999
0029029700999991925021513004+60100+019950FM-12+001499999V0202001N002119999999N0000001N9+00391+99999100751ADDGF108991999999999999999999
0029029700999991925021520004+60100+019950FM-12+001499999V0209991C000019999999N0000001N9+00281+99999100941ADDGF108991999999999999999999
0046029700999991925021606004+60100+019950FM-12+001499999V0209991C000019999999N0000001N9+00171+99999100701ADDAJ100009199999999GF108991999999999999999999
0029029700999991925021613004+60100+019950FM-12+001499999V0200901N001019999999N0000001N9+00221+99999100621ADDGF108991999999999999999999
0029029700999991925021620004+60100+019950FM-12+001499999V0209991C000019999999N0000001N9+00281+99999100501ADDGF108991999999999999999999
0046029700999991925021706004+60100+019950FM-12+001499999V0202501N003119999999N0000001N9+00281+99999100481ADDAJ100009199999999GF108991999999999999999999
0035029700999991925021713004+60100+019950FM-12+001499999V0209991C000019999999N0000001N9+00281+99999100401ADDGF108991999999999999999999MW1601
0035029700999991925021720004+60100+019950FM-12+001499999V0202301N001019999999N0000001N9+00061+99999099991ADDGF108991999999999999999999MW1701
0046029700999991925021806004+60100+019950FM-12+001499999V0209991C000019999999N0000001N9+00061+99999100221ADDAJ100009199999999GF108991999999999999999999
0035029700999991925021813004+60100+019950FM-12+001499999V0203401N001019999999N0000001N9+00061+99999100431ADDGF108991999999999999999999MW1701
0035029700999991925021820004+60100+019950FM-12+001499999V0209991C000019999999N0000001N9-00061+99999100321ADDGF108991999999999999999999MW1701
0035029700999991925021906004+60100+019950FM-12+001499999V0200201N001019999999N0000001N9-00221+99999100191ADDGF108991999999999999999999MW1701
0029029700999991925021913004+60100+019950FM-12+001499999V0209991C000019999999N0000001N9-00111+99999100361ADDGF108991999999999999999999
0029029700999991925021920004+60100+019950FM-12+001499999V0200201N001019999999N0000001N9-00331+99999100481ADDGF100991999999999999999999
0029029700999991925022006004+60100+019950FM-12+001499999V0200501N003119999999N0000001N9-00441+99999100721ADDGF107991999999999999999999
0035029700999991925022013004+60100+019950FM-12+001499999V0200201N003119999999N0000001N9-00281+99999100911ADDGF101991999999999999999999MW1721
0029029700999991925022020004+60100+019950FM-12+001499999V0209991C000019999999N0000001N9-00721+99999101081ADDGF107991999999999999999999
0029029700999991925022106004+60100+019950FM-12+001499999V0202301N005119999999N0000001N9-00391+99999101041ADDGF108991999999999999999999
0035029700999991925022113004+60100+019950FM-12+001499999V0202701N003119999999N0000001N9-00171+99999101181ADDGF107991999999999999999999MW1701
0029029700999991925022120004+60100+019950FM-12+001499999V0209991C000019999999N0000001N9-00331+99999101481ADDGF106991999999999999999999
0029029700999991925022206004+60100+019950FM-12+001499999V0209991C000019999999N0000001N9-00611+99999101761ADDGF108991999999999999999999
0029029700999991925022213004+60100+019950FM-12+001499999V0202501N005119999999N0000001N9-00171+99999102001ADDGF108991999999999999999999
0029029700999991925022220004+60100+019950FM-12+001499999V0202501N002119999999N0000001N9-00111+99999102301ADDGF102991999999999999999999
0029029700999991925022306004+60100+019950FM-12+001499999V0209991C000019999999N0000001N9-00441+99999102511ADDGF108991999999999999999999
0029029700999991925022313004+60100+019950FM-12+001499999V0201101N003119999999N0000001N9+00061+99999102441ADDGF108991999999999999999999
0029029700999991925022320004+60100+019950FM-12+001499999V0201401N007219999999N0000001N9-00061+99999101961ADDGF108991999999999999999999
0035029700999991925022406004+60100+019950FM-12+001499999V0200901N005119999999N0000001N9-00281+99999101541ADDGF108991999999999999999999MW1721
0035029700999991925022413004+60100+019950FM-12+001499999V0201101N003119999999N0000001N9-00061+99999101521ADDGF108991999999999999999999MW1721
0029029700999991925022420004+60100+019950FM-12+001499999V0201101N004119999999N0000001N9+00001+99999101471ADDGF108991999999999999999999
0035029700999991925022506004+60100+019950FM-12+001499999V0201101N004119999999N0000001N9-00111+99999101301ADDGF108991999999999999999999MW1721
0035029700999991925022513004+60100+019950FM-12+001499999V0201101N004119999999N0000001N9+00001+99999101311ADDGF108991999999999999999999MW1721
0035029700999991925022520004+60100+019950FM-12+001499999V0201401N005119999999N0000001N9+00001+99999101191ADDGF108991999999999999999999MW1721
0029029700999991925022606004+60100+019950FM-12+001499999V0200901N004119999999N0000001N9-00111+99999101221ADDGF108991999999999999999999
0029029700999991925022613004+60100+019950FM-12+001499999V0200901N005119999999N0000001N9-00061+99999101201ADDGF108991999999999999999999
0029029700999991925022620004+60100+019950FM-12+001499999V0200901N004119999999N0000001N9-00171+99999101031ADDGF108991999999999999999999
0035029700999991925022706004+60100+019950FM-12+001499999V0200701N003119999999N0000001N9-00221+99999100551ADDGF108991999999999999999999MW1721
0029029700999991925022713004+60100+019950FM-12+001499999V0200901N003119999999N0000001N9+00001+99999100561ADDGF108991999999999999999999
0029029700999991925022720004+60100+019950FM-12+001499999V0200901N001019999999N0000001N9+00061+99999100481ADDGF108991999999999999999999
0029029700999991925022806004+60100+019950FM-12+001499999V0200901N001019999999N0000001N9+00061+99999100341ADDGF108991999999999999999999
0029029700999991925022813004+60100+019950FM-12+001499999V0200901N001019999999N0000001N9+00061+99999100401ADDGF108991999999999999999999
0035029700999991925022820004+60100+019950FM-12+001499999V0200901N001019999999N0000001N9+00061+99999100551ADDGF108991999999999999999999MW1691
0029029700999991925030106004+60100+019950FM-12+001499999V0209991C000019999999N0000001N9+00001+99999100801ADDGF108991999999999999999999
0000029700999991925030113004+60100+019950FM-12+001499999V0209991C000019999999N0000001N9+00111+99999101121
0029029700999991925030120004+60100+019950FM-12+001499999V0209991C000019999999N0000001N9+00001+99999101401ADDGF108991999999999999999999
0029029700999991925030206004+60100+019950FM-12+001499999V0203601N001019999999N0000001N9-00061+99999101581ADDGF108991999999999999999999
0029029700999991925030213004+60100+019950FM-12+001499999V0203601N002119999999N0000001N9+00061+99999101791ADDGF108991999999999999999999
0035029700999991925030220004+60100+019950FM-12+001499999V0203401N001019999999N0000001N9-00171+99999102031ADDGF108991999999999999999999MW1701
0029029700999991925030306004+60100+019950FM-12+001499999V0209991C000019999999N0000001N9-00281+99999102191ADDGF108991999999999999999999
0029029700999991925030313004+60100+019950FM-12+001499999V0203401N003119999999N0000001N9+00061+99999102351ADDGF101991999999999999999999
0029029700999991925030320004+60100+019950FM-12+001499999V0209991C000019999999N0000001N9-00441+99999102281ADDGF100991999999999999999999
0029029700999991925030406004+60100+019950FM-12+001499999V0202501N003119999999N0000001N9-00221+99999101671ADDGF103991999999999999999999
0029029700999991925030413004+60100+019950FM-12+001499999V0202701N001019999999N0000001N9+00001+99999101111ADDGF108991999999999999999999
0029029700999991925030420004+60100+019950FM-12+001499999V0202701N002119999999N0000001N9-00061+99999100781ADDGF107991999999999999999999
0029029700999991925030506004+60100+019950FM-12+001499999V0202701N001019999999N0000001N9-00221+99999100521ADDGF106991999999999999999999
0029029700999991925030513004+60100+019950FM-12+001499999V0202701N002119999999N0000001N9+00061+99999999999ADDGF108991999999999999999999
0035029700999991925030520004+60100+019950FM-12+001499999V0202301N006219999999N0000001N9-00061+99999098481ADDGF108991999999999999999999MW1721
0029029700999991925030606004+60100+019950FM-12+001499999V0202901N001019999999N0000001N9+00061+99999097321ADDGF107991999999999999999999
0029029700999991925030613004+60100+019950FM-12+001499999V0202901N013919999999N0000001N9+00001+99999097551ADDGF108991999999999999999999
0035029700999991925030620004+60100+019950FM-12+001499999V0202701N005119999999N0000001N9-00281+99999097911ADDGF108991999999999999999999MW1701
0029029700999991925030706004+60100+019950FM-12+001499999V0209991C000019999999N0000001N9-00281+99999098121ADDGF108991999999999999999999
0035029700999991925030713004+60100+019950FM-12+001499999V0203601N001019999999N0000001N9-00171+99999098441ADDGF108991999999999999999999MW1701
0029029700999991925030720004+60100+019950FM-12+001499999V0209991C000019999999N0000001N9-00441+99999098751ADDGF106991999999999999999999
0035029700999991925030806004+60100+019950FM-12+001499999V0203201N001019999999N0000001N9-00501+99999099151ADDGF108991999999999999999999MW1701
0029029700999991925030813004+60100+019950FM-12+001499999V0200501N001019999999N0000001N9-00331+99999099421ADDGF108991999999999999999999
0029029700999991925030820004+60100+019950FM-12+001499999V0200701N003119999999N0000001N9-00441+99999099561ADDGF108991999999999999999999
0029029700999991925030906004+60100+019950FM-12+001499999V0200701N001019999999N0000001N9-00671+99999099831ADDGF102991999999999999999999
0029029700999991925030913004+60100+019950FM-12+001499999V0200701N003119999999N0000001N9-00281+99999100201ADDGF100991999999999999999999
0029029700999991925030920004+60100+019950FM-12+001499999V0200701N004119999999N0000001N9-00611+99999100601ADDGF100991999999999999999999
0029029700999991925031006004+60100+019950FM-12+001499999V0200501N001019999999N0000001N9-01061+99999101181ADDGF100991999999999999999999
0009029700999991925031013004+60100+019950FM-12+001499999V0200201N005119999999N0000001N9-00441+99999101511ADDMW1721
0035029700999991925031020004+60100+019950FM-12+001499999V0200201N001019999999N0000001N9-00721+99999101761ADDGF108991999999999999999999MW1701
0035029700999991925031106004+60100+019950FM-12+001499999V0200501N003119999999N0000001N9-00831+99999101711ADDGF108991999999999999999999MW1701
0029029700999991925031113004+60100+019950FM-12+001499999V0200201N008719999999N0000001N9-00831+99999101671ADDGF108991999999999999999999
0029029700999991925031120004+60100+019950FM-12+001499999V0200501N004119999999N0000001N9-00781+99999101121ADDGF108991999999999999999999
0035029700999991925031206004+60100+019950FM-12+001499999V0203601N007219999999N0000001N9-00721+99999100801ADDGF108991999999999999999999MW1861
0035029700999991925031213004+60100+019950FM-12+001499999V0200501N005119999999N0000001N9-00781+99999100761ADDGF108991999999999999999999MW1861
0035029700999991925031220004+60100+019950FM-12+001499999V0200201N002119999999N0000001N9-01001+99999100901ADDGF108991999999999999999999MW1861
0029029700999991925031306004+60100+019950FM-12+001499999V0209991C000019999999N0000001N9-01501+99999100841ADDGF102991999999999999999999
0029029700999991925031313004+60100+019950FM-12+001499999V0209991C000019999999N0000001N9-00671+99999100901ADDGF108991999999999999999999
0029029700999991925031320004+60100+019950FM-12+001499999V0209991C000019999999N0000001N9-01391+99999100901ADDGF100991999999999999999999
0029029700999991925031406004+60100+019950FM-12+001499999V0209991C000019999999N0000001N9-01391+99999100901ADDGF103991999999999999999999
0029029700999991925031413004+60100+019950FM-12+001499999V0202301N003119999999N0000001N9-00441+99999101121ADDGF100991999999999999999999
0029029700999991925031420004+60100+019950FM-12+001499999V0209991C000019999999N0000001N9-01001+99999101341ADDGF106991999999999999999999
0029029700999991925031506004+60100+019950FM-12+001499999V0209991C000019999999N0000001N9-01441+99999101661ADDGF106991999999999999999999
0029029700999991925031513004+60100+019950FM-12+001499999V0209991C000019999999N0000001N9-00391+99999102061ADDGF107991999999999999999999
0029029700999991925031520004+60100+019950FM-12+001499999V0209991C000019999999N0000001N9-01221+99999102551ADDGF100991999999999999999999
0029029700999991925031606004+60100+019950FM-12+001499999V0209991C000019999999N0000001N9-01721+99999102981ADDGF100991999999999999999999
0029029700999991925031613004+60100+019950FM-12+001499999V0200501N001019999999N0000001N9-00111+99999103021ADDGF106991999999999999999999
0029029700999991925031620004+60100+019950FM-12+001499999V0209991C000019999999N0000001N9-01281+99999102821ADDGF100991999999999999999999
0029029700999991925031706004+60100+019950FM-12+001499999V0202301N001019999999N0000001N9-00391+99999102271ADDGF107991999999999999999999
0035029700999991925031713004+60100+019950FM-12+001499999V0202301N001019999999N0000001N9-00221+99999102001ADDGF106991999999999999999999MW1701
0029029700999991925031720004+60100+019950FM-12+001499999V0209991C000019999999N0000001N9-00561+99999102191ADDGF108991999999999999999999
0029029700999991925031806004+60100+019950FM-12+001499999V0209991C000019999999N0000001N9-00941+99999102231ADDGF108991999999999999999999
0029029700999991925031813004+60100+019950FM-12+001499999V0202301N003119999999N0000001N9+00171+99999102121ADDGF100991999999999999999999
0029029700999991925031820004+60100+019950FM-12+001499999V0202301N002119999999N0000001N9+00111+99999101911ADDGF106991999999999999999999
0029029700999991925031906004+60100+019950FM-12+001499999V0202301N003119999999N0000001N9-00061+99999101391ADDGF106991999999999999999999
0029029700999991925031913004+60100+019950FM-12+001499999V0202301N002119999999N0000001N9+00281+99999100951ADDGF107991999999999999999999
0029029700999991925031920004+60100+019950FM-12+001499999V0209991C000019999999N0000001N9+00171+99999100961ADDGF106991999999999999999999
0029029700999991925032006004+60100+019950FM-12+001499999V0209991C000019999999N0000001N9-00611+99999100441ADDGF100991999999999999999999
0029029700999991925032013004+60100+019950FM-12+001499999V0209991C000019999999N0000001N9+00221+99999100031ADDGF107991999999999999999999
0029029700999991925032020004+60100+019950FM-12+001499999V0202901N001019999999N0000001N9-00391+99999099871ADDGF101991999999999999999999
0029029700999991925032106004+60100+019950FM-12+001499999V0209991C000019999999N0000001N9-00061+99999099951ADDGF106991999999999999999999
0029029700999991925032113004+60100+019950FM-12+001499999V0203201N003119999999N0000001N9+00331+99999100351ADDGF100991999999999999999999
0029029700999991925032120004+60100+019950FM-12+001499999V0209991C000019999999N0000001N9-00331+99999100591ADDGF100991999999999999999999
0029029700999991925032206004+60100+019950FM-12+001499999V0209991C000019999999N0000001N9-00441+99999100881ADDGF102991999999999999999999
0029029700999991925032213004+60100+019950FM-12+001499999V0203201N001019999999N0000001N9+00171+99999101071ADDGF104991999999999999999999
0029029700999991925032220004+60100+019950FM-12+001499999V0209991C000019999999N0000001N9-00561+99999101301ADDGF100991999999999999999999
0029029700999991925032306004+60100+019950FM-12+001499999V0209991C000019999999N0000001N9-00831+99999101431ADDGF106991999999999999999999
0029029700999991925032313004+60100+019950FM-12+001499999V0202301N001019999999N0000001N9+00221+99999101561ADDGF104991999999999999999999
0029029700999991925032320004+60100+019950FM-12+001499999V0202301N003119999999N0000001N9+00001+99999101581ADDGF100991999999999999999999
0029029700999991925032406004+60100+019950FM-12+001499999V0202301N002119999999N0000001N9+00061+99999101601ADDGF106991999999999999999999
0029029700999991925032413004+60100+019950FM-12+001499999V0202301N003119999999N0000001N9+00221+99999101701ADDGF102991999999999999999999
0029029700999991925032420004+60100+019950FM-12+001499999V0202001N003119999999N0000001N9+00001+99999101781ADDGF100991999999999999999999
0029029700999991925032506004+60100+019950FM-12+001499999V0209991C000019999999N0000001N9+00061+99999101921ADDGF107991999999999999999999
0029029700999991925032513004+60100+019950FM-12+001499999V0201601N002119999999N0000001N9+00221+99999102031ADDGF107991999999999999999999
0029029700999991925032520004+60100+019950FM-12+001499999V0201801N002119999999N0000001N9+00001+99999102071ADDGF100991999999999999999999
0029029700999991925032606004+60100+019950FM-12+001499999V0209991C000019999999N0000001N9-00441+99999102141ADDGF106991999999999999999999
0029029700999991925032613004+60100+019950FM-12+001499999V0201801N002119999999N0000001N9+00391+99999102161ADDGF102991999999999999999999
0029029700999991925032620004+60100+019950FM-12+001499999V0209991C000019999999N0000001N9-00221+99999102121ADDGF105991999999999999999999
0029029700999991925032706004+60100+019950FM-12+001499999V0209991C000019999999N0000001N9-00671+99999102021ADDGF102991999999999999999999
0029029700999991925032713004+60100+019950FM-12+001499999V0200901N001019999999N0000001N9+00171+99999101911ADDGF100991999999999999999999
0029029700999991925032720004+60100+019950FM-12+001499999V0209991C000019999999N0000001N9-00391+99999101591ADDGF100991999999999999999999
0029029700999991925032806004+60100+019950FM-12+001499999V0200901N001019999999N0000001N9-00221+99999100921ADDGF108991999999999999999999
0035029700999991925032813004+60100+019950FM-12+001499999V0200701N001019999999N0000001N9-00061+99999100501ADDGF108991999999999999999999MW1721
0035029700999991925032820004+60100+019950FM-12+001499999V0200501N001019999999N0000001N9-00171+99999100121ADDGF108991999999999999999999MW1721
0035029700999991925032906004+60100+019950FM-12+001499999V0200201N001019999999N0000001N9-00171+99999099881ADDGF108991999999999999999999MW1701
0029029700999991925032913004+60100+019950FM-12+001499999V0202901N003119999999N0000001N9-00061+99999100241ADDGF108991999999999999999999
0029029700999991925032920004+60100+019950FM-12+001499999V0209991C000019999999N0000001N9-00281+99999100781ADDGF108991999999999999999999
0029029700999991925033006004+60100+019950FM-12+001499999V0209991C000019999999N0000001N9-00891+99999101081ADDGF100991999999999999999999
0029029700999991925033013004+60100+019950FM-12+001499999V0202301N004119999999N0000001N9+00281+99999101161ADDGF103991999999999999999999
0029029700999991925033020004+60100+019950FM-12+001499999V0202001N005119999999N0000001N9+00171+99999100701ADDGF108991999999999999999999
0029029700999991925033106004+60100+019950FM-12+001499999V0202301N007219999999N0000001N9+00281+99999100081ADDGF108991999999999999999999
0029029700999991925033113004+60100+019950FM-12+001499999V0202301N007219999999N0000001N9+00331+99999099911ADDGF108991999999999999999999
0029029700999991925033120004+60100+019950FM-12+001499999V0202301N006219999999N0000001N9+00331+99999100081ADDGF104991999999999999999999
0029029700999991925040106004+60100+019950FM-12+001499999V0202001N001019999999N0000001N9+00111+99999100541ADDGF106991999999999999999999
0029029700999991925040113004+60100+019950FM-12+001499999V0202001N002119999999N0000001N9+00441+99999100441ADDGF100991999999999999999999
0035029700999991925040120004+60100+019950FM-12+001499999V0202001N004119999999N0000001N9+00281+99999099981ADDGF108991999999999999999999MW1621
0029029700999991925040206004+60100+019950FM-12+001499999V0202901N002119999999N0000001N9+00111+99999100621ADDGF108991999999999999999999
0029029700999991925040213004+60100+019950FM-12+001499999V0202001N002119999999N0000001N9+00281+99999101021ADDGF106991999999999999999999
0029029700999991925040220004+60100+019950FM-12+001499999V0202301N005119999999N0000001N9+00111+99999100821ADDGF100991999999999999999999
0046029700999991925040306004+60100+019950FM-12+001499999V0202301N005119999999N0000001N9+00171+99999100241ADDAJ100009199999999GF106991999999999999999999
0029029700999991925040313004+60100+019950FM-12+001499999V0202301N004119999999N0000001N9+00331+99999099901ADDGF103991999999999999999999
0029029700999991925040320004+60100+019950FM-12+001499999V0202501N003119999999N0000001N9+00171+99999100221ADDGF100991999999999999999999
0046029700999991925040406004+60100+019950FM-12+001499999V0202501N001019999999N0000001N9+00061+99999100721ADDAJ100009199999999GF103991999999999999999999
0029029700999991925040413004+60100+019950FM-12+001499999V0202301N003119999999N0000001N9+00441+99999101081ADDGF100991999999999999999999
0029029700999991925040420004+60100+019950FM-12+001499999V0202701N001019999999N0000001N9+00221+99999101521ADDGF100991999999999999999999
0046029700999991925040506004+60100+019950FM-12+001499999V0209991C000019999999N0000001N9-00171+99999102221ADDAJ100009199999999GF100991999999999999999999
0029029700999991925040513004+60100+019950FM-12+001499999V0202301N001019999999N0000001N9+00561+99999102271ADDGF100991999999999999999999
0029029700999991925040520004+60100+019950FM-12+001499999V0202001N001019999999N0000001N9+00111+99999102191ADDGF100991999999999999999999
0046029700999991925040606004+60100+019950FM-12+001499999V0202301N001019999999N0000001N9+00171+99999102181ADDAJ100009199999999GF100991999999999999999999
0029029700999991925040613004+60100+019950FM-12+001499999V0202301N002119999999N0000001N9+00611+99999102101ADDGF100991999999999999999999
0029029700999991925040620004+60100+019950FM-12+001499999V0209991C000019999999N0000001N9-00111+99999102141ADDGF100991999999999999999999
0046029700999991925040706004+60100+019950FM-12+001499999V0209991C000019999999N0000001N9-00061+99999102071ADDAJ100009199999999GF100991999999999999999999
0029029700999991925040713004+60100+019950FM-12+001499999V0202301N003119999999N0000001N9+00891+99999102081ADDGF102991999999999999999999
0029029700999991925040720004+60100+019950FM-12+001499999V0202301N001019999999N0000001N9+00001+99999102021ADDGF100991999999999999999999
0046029700999991925040806004+60100+019950FM-12+001499999V0209991C000019999999N0000001N9-00061+99999102001ADDAJ100009199999999GF101991999999999999999999
0029029700999991925040813004+60100+019950FM-12+001499999V0202301N001019999999N0000001N9+01171+99999102151ADDGF100991999999999999999999
0029029700999991925040820004+60100+019950FM-12+001499999V0209991C000019999999N0000001N9-00061+99999102121ADDGF101991999999999999999999
0046029700999991925040906004+60100+019950FM-12+001499999V0209991C000019999999N0000001N9+00171+99999102111ADDAJ100009199999999GF100991999999999999999999
0029029700999991925040913004+60100+019950FM-12+001499999V0209991C000019999999N0000001N9+01061+99999102081ADDGF100991999999999999999999
0029029700999991925040920004+60100+019950FM-12+001499999V0209991C000019999999N0000001N9+00061+99999102121ADDGF100991999999999999999999
0046029700999991925041006004+60100+019950FM-12+001499999V0209991C000019999999N0000001N9+00171+99999102191ADDAJ100009199999999GF100991999999999999999999
0029029700999991925041013004+60100+019950FM-12+001499999V0202001N001019999999N0000001N9+01061+99999102301ADDGF100991999999999999999999
0029029700999991925041020004+60100+019950FM-12+001499999V0209991C000019999999N0000001N9+00111+99999102421ADDGF100991999999999999999999
0046029700999991925041106004+60100+019950FM-12+001499999V0209991C000019999999N0000001N9+00331+99999102501ADDAJ100009199999999GF100991999999999999999999
0029029700999991925041113004+60100+019950FM-12+001499999V0200901N002119999999N0000001N9+01281+99999102561ADDGF100991999999999999999999
0029029700999991925041120004+60100+019950FM-12+001499999V0209991C000019999999N0000001N9+00171+99999102501ADDGF100991999999999999999999
0046029700999991925041206004+60100+019950FM-12+001499999V0209991C000019999999N0000001N9+00111+99999102191ADDAJ100009199999999GF102991999999999999999999
0029029700999991925041213004+60100+019950FM-12+001499999V0202301N002119999999N0000001N9+00941+99999101921ADDGF103991999999999999999999
0029029700999991925041220004+60100+019950FM-12+001499999V0209991C000019999999N0000001N9+00281+99999101581ADDGF104991999999999999999999
0046029700999991925041306004+60100+019950FM-12+001499999V0209991C000019999999N0000001N9+00391+99999101021ADDAJ100009199999999GF108991999999999999999999
0029029700999991925041313004+60100+019950FM-12+001499999V0203601N001019999999N0000001N9+00441+99999100941ADDGF108991999999999999999999
0029029700999991925041320004+60100+019950FM-12+001499999V0203201N001019999999N0000001N9+00111+99999100901ADDGF107991999999999999999999
0046029700999991925041406004+60100+019950FM-12+001499999V0203201N001019999999N0000001N9+00281+99999100881ADDAJ100009199999999GF108991999999999999999999
0029029700999991925041413004+60100+019950FM-12+001499999V0209991C000019999999N0000001N9+00331+99999101141ADDGF108991999999999999999999
0029029700999991925041420004+60100+019950FM-12+001499999V0201401N001019999999N0000001N9+00221+99999101281ADDGF108991999999999999999999
0046029700999991925041506004+60100+019950FM-12+001499999V0201101N005119999999N0000001N9+00441+99999101021ADDAJ100009199999999GF108991999999999999999999
0029029700999991925041513004+60100+019950FM-12+001499999V0201401N005119999999N0000001N9+00671+99999100751ADDGF102991999999999999999999
0035029700999991925041520004+60100+019950FM-12+001499999V0201601N004119999999N0000001N9+00501+99999100401ADDGF108991999999999999999999MW1601
0046029700999991925041606004+60100+019950FM-12+001499999V0201601N003119999999N0000001N9+00391+99999099591ADDAJ100009199999999GF108991999999999999999999
0029029700999991925041613004+60100+019950FM-12+001499999V0201801N004119999999N0000001N9+00561+99999099581ADDGF108991999999999999999999
0035029700999991925041620004+60100+019950FM-12+001499999V0201401N001019999999N0000001N9+00441+99999099271ADDGF108991999999999999999999MW1621
0052029700999991925041706004+60100+019950FM-12+001499999V0201601N005119999999N0000001N9+00171+99999098431ADDAJ100009199999999GF108991999999999999999999MW1621
0029029700999991925041713004+60100+019950FM-12+001499999V0202501N006219999999N0000001N9+00331+99999099321ADDGF106991999999999999999999
0029029700999991925041720004+60100+019950FM-12+001499999V0202501N001019999999N0000001N9+00221+99999099761ADDGF101991999999999999999999
0046029700999991925041806004+60100+019950FM-12+001499999V0209991C000019999999N0000001N9+00331+99999099801ADDAJ100009199999999GF106991999999999999999999
0029029700999991925041813004+60100+019950FM-12+001499999V0202001N002119999999N0000001N9+00501+99999100061ADDGF106991999999999999999999
0029029700999991925041820004+60100+019950FM-12+001499999V0209991C000019999999N0000001N9+00001+99999100181ADDGF108991999999999999999999
0046029700999991925041906004+60100+019950FM-12+001499999V0201101N003119999999N0000001N9+00171+99999100321ADDAJ100009199999999GF108991999999999999999999
0029029700999991925041913004+60100+019950FM-12+001499999V0209991C000019999999N0000001N9+00561+99999100501ADDGF105991999999999999999999
0029029700999991925041920004+60100+019950FM-12+001499999V0209991C000019999999N0000001N9+00001+99999100671ADDGF102991999999999999999999
0046029700999991925042006004+60100+019950FM-12+001499999V0203401N002119999999N0000001N9+00331+99999100721ADDAJ100009199999999GF106991999999999999999999
0029029700999991925042013004+60100+019950FM-12+001499999V0203601N003119999999N0000001N9+00721+99999100911ADDGF100991999999999999999999
0029029700999991925042020004+60100+019950FM-12+001499999V0203401N003119999999N0000001N9+00111+99999101041ADDGF100991999999999999999999
0046029700999991925042106004+60100+019950FM-12+001499999V0200201N003119999999N0000001N9+00281+99999101021ADDAJ100009199999999GF100991999999999999999999
0029029700999991925042113004+60100+019950FM-12+001499999V0200201N004119999999N0000001N9+00781+99999101241ADDGF100991999999999999999999
0029029700999991925042120004+60100+019950FM-12+001499999V0203401N001019999999N0000001N9+00171+99999101351ADDGF100991999999999999999999
0046029700999991925042206004+60100+019950FM-12+001499999V0203401N001019999999N0000001N9+00391+99999101361ADDAJ100009199999999GF102991999999999999999999
0029029700999991925042213004+60100+019950FM-12+001499999V0202901N003119999999N0000001N9+00831+99999101421ADDGF100991999999999999999999
0029029700999991925042220004+60100+019950FM-12+001499999V0202001N006219999999N0000001N9+00331+99999101201ADDGF103991999999999999999999
0046029700999991925042306004+60100+019950FM-12+001499999V0202501N006219999999N0000001N9+00501+99999100981ADDAJ100009199999999GF108991999999999999999999
0029029700999991925042313004+60100+019950FM-12+001499999V0202001N007219999999N0000001N9+00561+99999100721ADDGF108991999999999999999999
0029029700999991925042320004+60100+019950FM-12+001499999V0202001N004119999999N0000001N9+00561+99999100421ADDGF108991999999999999999999
0046029700999991925042406004+60100+019950FM-12+001499999V0202001N005119999999N0000001N9+00611+99999100271ADDAJ100009199999999GF105991999999999999999999
0029029700999991925042413004+60100+019950FM-12+001499999V0202001N007219999999N0000001N9+00721+99999100151ADDGF102991999999999999999999
0029029700999991925042420004+60100+019950FM-12+001499999V0202001N002119999999N0000001N9+00501+99999100361ADDGF104991999999999999999999
0046029700999991925042506004+60100+019950FM-12+001499999V0202301N003119999999N0000001N9+00501+99999100271ADDAJ100009199999999GF103991999999999999999999
0029029700999991925042513004+60100+019950FM-12+001499999V0202501N005119999999N0000001N9+01061+99999100231ADDGF101991999999999999999999
0029029700999991925042520004+60100+019950FM-12+001499999V0202301N001019999999N0000001N9+00501+99999100221ADDGF102991999999999999999999
0046029700999991925042606004+60100+019950FM-12+001499999V0209991C000019999999N0000001N9+00561+99999100141ADDAJ100009199999999GF107991999999999999999999
0029029700999991925042613004+60100+019950FM-12+001499999V0202901N002119999999N0000001N9+01221+99999100431ADDGF102991999999999999999999
0029029700999991925042620004+60100+019950FM-12+001499999V0209991C000019999999N0000001N9+00391+99999100671ADDGF103991999999999999999999
0046029700999991925042706004+60100+019950FM-12+001499999V0200701N005119999999N0000001N9+00671+99999100501ADDAJ100009199999999GF100991999999999999999999
0029029700999991925042713004+60100+019950FM-12+001499999V0200701N007219999999N0000001N9+00611+99999100431ADDGF108991999999999999999999
0029029700999991925042720004+60100+019950FM-12+001499999V0200201N003119999999N0000001N9+00391+99999100551ADDGF107991999999999999999999
0046029700999991925042806004+60100+019950FM-12+001499999V0200201N003119999999N0000001N9+00331+99999100861ADDAJ100009199999999GF107991999999999999999999
0029029700999991925042813004+60100+019950FM-12+001499999V0200501N004119999999N0000001N9+00721+99999101261ADDGF101991999999999999999999
0029029700999991925042820004+60100+019950FM-12+001499999V0209991C000019999999N0000001N9-00061+99999101551ADDGF100991999999999999999999
0046029700999991925042906004+60100+019950FM-12+001499999V0200701N004119999999N0000001N9+00331+99999101671ADDAJ100009199999999GF103991999999999999999999
0029029700999991925042913004+60100+019950FM-12+001499999V0200501N007219999999N0000001N9+00561+99999101311ADDGF108991999999999999999999
0035029700999991925042920004+60100+019950FM-12+001499999V0200501N007219999999N0000001N9+00331+99999100471ADDGF108991999999999999999999MW1621
0052029700999991925043006004+60100+019950FM-12+001499999V0201101N003119999999N0000001N9+00391+99999999999ADDAJ100009199999999GF108991999999999999999999MW1601
0029029700999991925043013004+60100+019950FM-12+001499999V0201401N003119999999N0000001N9+00441+99999100221ADDGF108991999999999999999999
0029029700999991925043020004+60100+019950FM-12+001499999V0201401N003119999999N0000001N9+00391+99999100281ADDGF108991999999999999999999
0046029700999991925050106004+60100+019950FM-12+001499999V0209991C000019999999N0000001N9+00501+99999100121ADDAJ100009199999999GF106991999999999999999999
0029029700999991925050113004+60100+019950FM-12+001499999V0202501N001019999999N0000001N9+00501+99999100661ADDGF106991999999999999999999
0029029700999991925050120004+60100+019950FM-12+001499999V0209991C000019999999N0000001N9+00221+99999101341ADDGF107991999999999999999999
0046029700999991925050206004+60100+019950FM-12+001499999V0201101N001019999999N0000001N9+00561+99999101711ADDAJ100009199999999GF102991999999999999999999
0029029700999991925050213004+60100+019950FM-12+001499999V0201401N003119999999N0000001N9+00781+99999101801ADDGF108991999999999999999999
0029029700999991925050220004+60100+019950FM-12+001499999V0201101N005119999999N0000001N9+00721+99999101661ADDGF101991999999999999999999
0046029700999991925050306004+60100+019950FM-12+001499999V0201401N007219999999N0000001N9+00781+99999101341ADDAJ100009199999999GF106991999999999999999999
0035029700999991925050313004+60100+019950FM-12+001499999V0201801N001019999999N0000001N9+00561+99999101381ADDGF108991999999999999999999MW1621
0029029700999991925050320004+60100+019950FM-12+001499999V0201801N001019999999N0000001N9+00561+99999101401ADDGF108991999999999999999999
0046029700999991925050406004+60100+019950FM-12+001499999V0202001N002119999999N0000001N9+00561+99999101341ADDAJ100009199999999GF103991999999999999999999
0029029700999991925050413004+60100+019950FM-12+001499999V0202301N003119999999N0000001N9+00781+99999101581ADDGF106991999999999999999999
0029029700999991925050420004+60100+019950FM-12+001499999V0209991C000019999999N0000001N9+00331+99999101761ADDGF100991999999999999999999
0046029700999991925050506004+60100+019950FM-12+001499999V0201101N002119999999N0000001N9+00831+99999101961ADDAJ100009199999999GF100991999999999999999999
0029029700999991925050513004+60100+019950FM-12+001499999V0201101N003119999999N0000001N9+01281+99999102071ADDGF101991999999999999999999
0029029700999991925050520004+60100+019950FM-12+001499999V0209991C000019999999N0000001N9+00501+99999102121ADDGF101991999999999999999999
0046029700999991925050606004+60100+019950FM-12+001499999V0201101N002119999999N0000001N9+00721+99999102141ADDAJ100009199999999GF102991999999999999999999
0029029700999991925050613004+60100+019950FM-12+001499999V0201101N003119999999N0000001N9+01171+99999101991ADDGF106991999999999999999999
0029029700999991925050620004+60100+019950FM-12+001499999V0209991C000019999999N0000001N9+00831+99999101821ADDGF107991999999999999999999
0046029700999991925050706004+60100+019950FM-12+001499999V0200901N007219999999N0000001N9+00941+99999101641ADDAJ100009199999999GF106991999999999999999999
0029029700999991925050713004+60100+019950FM-12+001499999V0200901N007219999999N0000001N9+01221+99999101581ADDGF102991999999999999999999
0029029700999991925050720004+60100+019950FM-12+001499999V0200701N003119999999N0000001N9+00891+99999101421ADDGF107991999999999999999999
0046029700999991925050806004+60100+019950FM-12+001499999V0200901N004119999999N0000001N9+00781+99999101181ADDAJ100009199999999GF107991999999999999999999
0029029700999991925050813004+60100+019950FM-12+001499999V0200901N004119999999N0000001N9+01061+99999101141ADDGF107991999999999999999999
0029029700999991925050820004+60100+019950FM-12+001499999V0209991C000019999999N0000001N9+00781+99999101121ADDGF106991999999999999999999
0046029700999991925050906004+60100+019950FM-12+001499999V0209991C000019999999N0000001N9+00721+99999101071ADDAJ100009199999999GF108991999999999999999999
0029029700999991925050913004+60100+019950FM-12+001499999V0202301N001019999999N0000001N9+01111+99999101321ADDGF108991999999999999999999
0029029700999991925050920004+60100+019950FM-12+001499999V0209991C000019999999N0000001N9+00721+99999101461ADDGF108991999999999999999999
0046029700999991925051006004+60100+019950FM-12+001499999V0209991C000019999999N0000001N9+00671+99999101501ADDAJ100009199999999GF108991999999999999999999
0029029700999991925051013004+60100+019950FM-12+001499999V0202301N001019999999N0000001N9+00941+99999101741ADDGF108991999999999999999999
0029029700999991925051020004+60100+019950FM-12+001499999V0209991C000019999999N0000001N9+00721+99999101741ADDGF108991999999999999999999
0046029700999991925051106004+60100+019950FM-12+001499999V0201601N002119999999N0000001N9+00611+99999101781ADDAJ100009199999999GF108991999999999999999999
0035029700999991925051113004+60100+019950FM-12+001499999V0201101N003119999999N0000001N9+00781+99999101561ADDGF108991999999999999999999MW1621
0029029700999991925051120004+60100+019950FM-12+001499999V0201601N001019999999N0000001N9+00721+99999101271ADDGF108991999999999999999999
0046029700999991925051206004+60100+019950FM-12+001499999V0202301N001019999999N0000001N9+00721+99999101481ADDAJ100009199999999GF108991999999999999999999
0029029700999991925051213004+60100+019950FM-12+001499999V0202301N002119999999N0000001N9+01281+99999101631ADDGF101991999999999999999999
0029029700999991925051220004+60100+019950FM-12+001499999V0201601N003119999999N0000001N9+00831+99999101721ADDGF106991999999999999999999
0046029700999991925051306004+60100+019950FM-12+001499999V0202301N001019999999N0000001N9+00941+99999101871ADDAJ100009199999999GF100991999999999999999999
0029029700999991925051313004+60100+019950FM-12+001499999V0202301N006219999999N0000001N9+01111+99999101801ADDGF106991999999999999999999
0029029700999991925051320004+60100+019950FM-12+001499999V0202501N002119999999N0000001N9+00891+99999101701ADDGF107991999999999999999999
0046029700999991925051406004+60100+019950FM-12+001499999V0200201N002119999999N0000001N9+01061+99999102031ADDAJ100009199999999GF100991999999999999999999
0029029700999991925051413004+60100+019950FM-12+001499999V0201101N004119999999N0000001N9+01331+99999102201ADDGF104991999999999999999999
0029029700999991925051420004+60100+019950FM-12+001499999V0209991C000019999999N0000001N9+00671+99999102061ADDGF101991999999999999999999
0046029700999991925051506004+60100+019950FM-12+001499999V0203401N002119999999N0000001N9+00941+99999102151ADDAJ100009199999999GF106991999999999999999999
0029029700999991925051513004+60100+019950FM-12+001499999V0203601N002119999999N0000001N9+01281+99999102231ADDGF100991999999999999999999
0029029700999991925051520004+60100+019950FM-12+001499999V0209991C000019999999N0000001N9+00391+99999102221ADDGF100991999999999999999999
0046029700999991925051606004+60100+019950FM-12+001499999V0209991C000019999999N0000001N9+01061+99999102321ADDAJ100009199999999GF100991999999999999999999
0029029700999991925051613004+60100+019950FM-12+001499999V0202301N003119999999N0000001N9+01331+99999102201ADDGF100991999999999999999999
0029029700999991925051620004+60100+019950FM-12+001499999V0202301N002119999999N0000001N9+00671+99999102041ADDGF100991999999999999999999
0046029700999991925051706004+60100+019950FM-12+001499999V0202301N002119999999N0000001N9+00941+99999102141ADDAJ100009199999999GF106991999999999999999999
0029029700999991925051713004+60100+019950FM-12+001499999V0202301N004119999999N0000001N9+01331+99999102221ADDGF102991999999999999999999
0029029700999991925051720004+60100+019950FM-12+001499999V0209991C000019999999N0000001N9+00831+99999102281ADDGF101991999999999999999999
0046029700999991925051806004+60100+019950FM-12+001499999V0202301N002119999999N0000001N9+01061+99999102581ADDAJ100009199999999GF106991999999999999999999
0029029700999991925051813004+60100+019950FM-12+001499999V0202301N004119999999N0000001N9+01281+99999102441ADDGF101991999999999999999999
0029029700999991925051820004+60100+019950FM-12+001499999V0209991C000019999999N0000001N9+00831+99999102261ADDGF100991999999999999999999
0046029700999991925051906004+60100+019950FM-12+001499999V0203401N002119999999N0000001N9+01671+99999102221ADDAJ100009199999999GF100991999999999999999999
0029029700999991925051913004+60100+019950FM-12+001499999V0202301N002119999999N0000001N9+02171+99999102041ADDGF100991999999999999999999
0029029700999991925051920004+60100+019950FM-12+001499999V0209991C000019999999N0000001N9+01171+99999101741ADDGF100991999999999999999999
0046029700999991925052006004+60100+019950FM-12+001499999V0209991C000019999999N0000001N9+01611+99999101321ADDAJ100009199999999GF102991999999999999999999
0029029700999991925052013004+60100+019950FM-12+001499999V0203401N004119999999N0000001N9+01781+99999101151ADDGF100991999999999999999999
0029029700999991925052020004+60100+019950FM-12+001499999V0209991C000019999999N0000001N9+01111+99999100791ADDGF107991999999999999999999
0052029700999991925052106004+60100+019950FM-12+001499999V0203601N003119999999N0000001N9+00561+99999100261ADDAJ100009199999999GF108991999999999999999999MW1621
0029029700999991925052113004+60100+019950FM-12+001499999V0203601N007219999999N0000001N9+00671+99999100261ADDGF106991999999999999999999
0029029700999991925052120004+60100+019950FM-12+001499999V0202701N005119999999N0000001N9+00441+99999100241ADDGF100991999999999999999999
0046029700999991925052206004+60100+019950FM-12+001499999V0203401N004119999999N0000001N9+00611+99999100241ADDAJ100009199999999GF106991999999999999999999
0029029700999991925052213004+60100+019950FM-12+001499999V0200201N003119999999N0000001N9+00781+99999100471ADDGF101991999999999999999999
0029029700999991925052220004+60100+019950FM-12+001499999V0209991C000019999999N0000001N9+00221+99999100641ADDGF102991999999999999999999
0046029700999991925052306004+60100+019950FM-12+001499999V0200201N002119999999N0000001N9+00501+99999100961ADDAJ100009199999999GF101991999999999999999999
0029029700999991925052313004+60100+019950FM-12+001499999V0200901N004119999999N0000001N9+00671+99999101191ADDGF106991999999999999999999
0029029700999991925052320004+60100+019950FM-12+001499999V0200501N001019999999N0000001N9+00221+99999101311ADDGF102991999999999999999999
0046029700999991925052406004+60100+019950FM-12+001499999V0200501N003119999999N0000001N9+00501+99999101421ADDAJ100009199999999GF101991999999999999999999
0029029700999991925052413004+60100+019950FM-12+001499999V0200901N004119999999N0000001N9+00781+99999101541ADDGF101991999999999999999999
0029029700999991925052420004+60100+019950FM-12+001499999V0200901N002119999999N0000001N9+00501+99999101551ADDGF101991999999999999999999
0046029700999991925052506004+60100+019950FM-12+001499999V0201101N004119999999N0000001N9+00891+99999101461ADDAJ100009199999999GF106991999999999999999999
0029029700999991925052513004+60100+019950FM-12+001499999V0201101N006219999999N0000001N9+01171+99999101381ADDGF107991999999999999999999
0029029700999991925052520004+60100+019950FM-12+001499999V0200901N004119999999N0000001N9+00941+99999101151ADDGF107991999999999999999999
0046029700999991925052606004+60100+019950FM-12+001499999V0200701N001019999999N0000001N9+00831+99999100741ADDAJ100009199999999GF108991999999999999999999
0029029700999991925052613004+60100+019950FM-12+001499999V0200501N001019999999N0000001N9+01391+99999100621ADDGF106991999999999999999999
0029029700999991925052620004+60100+019950FM-12+001499999V0200501N001019999999N0000001N9+00941+99999100741ADDGF108991999999999999999999
0046029700999991925052706004+60100+019950FM-12+001499999V0200501N002119999999N0000001N9+01111+99999100791ADDAJ100009199999999GF106991999999999999999999
0029029700999991925052713004+60100+019950FM-12+001499999V0202301N001019999999N0000001N9+01391+99999101021ADDGF102991999999999999999999
0029029700999991925052720004+60100+019950FM-12+001499999V0209991C000019999999N0000001N9+00831+99999101181ADDGF106991999999999999999999
0046029700999991925052806004+60100+019950FM-12+001499999V0202001N001019999999N0000001N9+01171+99999101271ADDAJ100009199999999GF100991999999999999999999
0029029700999991925052813004+60100+019950FM-12+001499999V0201601N002119999999N0000001N9+01171+99999101351ADDGF102991999999999999999999
0029029700999991925052820004+60100+019950FM-12+001499999V0201101N003119999999N0000001N9+00891+99999101351ADDGF103991999999999999999999
0046029700999991925052906004+60100+019950FM-12+001499999V0201101N004119999999N0000001N9+01281+99999101301ADDAJ100009199999999GF100991999999999999999999
0029029700999991925052913004+60100+019950FM-12+001499999V0201601N004119999999N0000001N9+01781+99999101341ADDGF100991999999999999999999
0029029700999991925052920004+60100+019950FM-12+001499999V0201401N003119999999N0000001N9+01281+99999101191ADDGF108991999999999999999999
0046029700999991925053006004+60100+019950FM-12+001499999V0209991C000019999999N0000001N9+01171+99999101001ADDAJ100009199999999GF108991999999999999999999
0029029700999991925053013004+60100+019950FM-12+001499999V0202301N001019999999N0000001N9+01561+99999101151ADDGF101991999999999999999999
0029029700999991925053020004+60100+019950FM-12+001499999V0202001N003119999999N0000001N9+00941+99999101101ADDGF107991999999999999999999
0046029700999991925053106004+60100+019950FM-12+001499999V0202001N004119999999N0000001N9+00891+99999100841ADDAJ100009199999999GF108991999999999999999999
0035029700999991925053113004+60100+019950FM-12+001499999V0209991C000019999999N0000001N9+00941+99999100761ADDGF108991999999999999999999MW1621
0029029700999991925053120004+60100+019950FM-12+001499999V0202001N007219999999N0000001N9+00891+99999100751ADDGF100991999999999999999999
0046029700999991925060106004+60100+019950FM-12+001499999V0202501N004119999999N0000001N9+01061+99999100941ADDAJ100009199999999GF102991999999999999999999
0029029700999991925060113004+60100+019950FM-12+001499999V0202501N002119999999N0000001N9+01441+99999101151ADDGF101991999999999999999999
0029029700999991925060120004+60100+019950FM-12+001499999V0202501N001019999999N0000001N9+01281+99999101381ADDGF103991999999999999999999
0046029700999991925060206004+60100+019950FM-12+001499999V0202501N004119999999N0000001N9+01111+99999101661ADDAJ100009199999999GF100991999999999999999999
0029029700999991925060213004+60100+019950FM-12+001499999V0202301N005119999999N0000001N9+01221+99999101661ADDGF101991999999999999999999
0029029700999991925060220004+60100+019950FM-12+001499999V0202301N002119999999N0000001N9+00941+99999101541ADDGF100991999999999999999999
0046029700999991925060306004+60100+019950FM-12+001499999V0202501N002119999999N0000001N9+01061+99999101341ADDAJ100009199999999GF100991999999999999999999
0029029700999991925060313004+60100+019950FM-12+001499999V0202001N001019999999N0000001N9+01501+99999101141ADDGF100991999999999999999999
0029029700999991925060320004+60100+019950FM-12+001499999V0203401N004119999999N0000001N9+01331+99999100901ADDGF106991999999999999999999
0046029700999991925060406004+60100+019950FM-12+001499999V0203401N004119999999N0000001N9+01061+99999101061ADDAJ100009199999999GF106991999999999999999999
0029029700999991925060413004+60100+019950FM-12+001499999V0203201N003119999999N0000001N9+01391+99999101221ADDGF100991999999999999999999
0029029700999991925060420004+60100+019950FM-12+001499999V0203401N004119999999N0000001N9+01061+99999101631ADDGF100991999999999999999999
0046029700999991925060506004+60100+019950FM-12+001499999V0200201N003119999999N0000001N9+01331+99999101981ADDAJ100009199999999GF100991999999999999999999
0029029700999991925060513004+60100+019950FM-12+001499999V0203401N003119999999N0000001N9+01671+99999102081ADDGF100991999999999999999999
0029029700999991925060520004+60100+019950FM-12+001499999V0209991C000019999999N0000001N9+01001+99999102201ADDGF100991999999999999999999
0046029700999991925060606004+60100+019950FM-12+001499999V0209991C000019999999N0000001N9+01391+99999102461ADDAJ100009199999999GF100991999999999999999999
0029029700999991925060613004+60100+019950FM-12+001499999V0200901N001019999999N0000001N9+01831+99999102461ADDGF100991999999999999999999
0029029700999991925060620004+60100+019950FM-12+001499999V0209991C000019999999N0000001N9+01061+99999102461ADDGF100991999999999999999999
0046029700999991925060706004+60100+019950FM-12+001499999V0202501N001019999999N0000001N9+01221+99999102481ADDAJ100009199999999GF108991999999999999999999
0029029700999991925060713004+60100+019950FM-12+001499999V0202501N006219999999N0000001N9+01391+99999102271ADDGF101991999999999999999999
0029029700999991925060720004+60100+019950FM-12+001499999V0209991C000019999999N0000001N9+01281+99999102181ADDGF105991999999999999999999
0046029700999991925060806004+60100+019950FM-12+001499999V0200201N002119999999N0000001N9+01331+99999102301ADDAJ100009199999999GF101991999999999999999999
0029029700999991925060813004+60100+019950FM-12+001499999V0203601N003119999999N0000001N9+01331+99999102311ADDGF106991999999999999999999
0029029700999991925060820004+60100+019950FM-12+001499999V0203601N001019999999N0000001N9+01061+99999102321ADDGF102991999999999999999999
0046029700999991925060906004+60100+019950FM-12+001499999V0203601N001019999999N0000001N9+01501+99999102301ADDAJ100009199999999GF102991999999999999999999
0029029700999991925060913004+60100+019950FM-12+001499999V0202901N003119999999N0000001N9+01781+99999102201ADDGF100991999999999999999999
0029029700999991925060920004+60100+019950FM-12+001499999V0203601N004119999999N0000001N9+01501+99999101861ADDGF108991999999999999999999
0046029700999991925061006004+60100+019950FM-12+001499999V0203601N005119999999N0000001N9+01441+99999101751ADDAJ100009199999999GF101991999999999999999999
0029029700999991925061013004+60100+019950FM-12+001499999V0200501N004119999999N0000001N9+01781+99999101961ADDGF104991999999999999999999
0029029700999991925061020004+60100+019950FM-12+001499999V0203401N001019999999N0000001N9+01281+99999101861ADDGF100991999999999999999999
0046029700999991925061106004+60100+019950FM-12+001499999V0202901N001019999999N0000001N9+01561+99999101681ADDAJ100009199999999GF106991999999999999999999
0029029700999991925061113004+60100+019950FM-12+001499999V0202301N001019999999N0000001N9+01671+99999101511ADDGF102991999999999999999999
0029029700999991925061120004+60100+019950FM-12+001499999V0202301N001019999999N0000001N9+01281+99999101021ADDGF108991999999999999999999
0046029700999991925061206004+60100+019950FM-12+001499999V0203201N002119999999N0000001N9+01001+99999100601ADDAJ100009199999999GF108991999999999999999999
0029029700999991925061213004+60100+019950FM-12+001499999V0200701N005119999999N0000001N9+01501+99999100551ADDGF100991999999999999999999
0029029700999991925061220004+60100+019950FM-12+001499999V0209991C000019999999N0000001N9+01061+99999100461ADDGF101991999999999999999999
0046029700999991925061306004+60100+019950FM-12+001499999V0200201N003119999999N0000001N9+01171+99999100361ADDAJ100009199999999GF101991999999999999999999
0029029700999991925061313004+60100+019950FM-12+001499999V0203601N005119999999N0000001N9+01501+99999100191ADDGF100991999999999999999999
0029029700999991925061320004+60100+019950FM-12+001499999V0202001N002119999999N0000001N9+01061+99999099661ADDGF106991999999999999999999
0052029700999991925061406004+60100+019950FM-12+001499999V0201801N004119999999N0000001N9+01061+99999098711ADDAJ100009199999999GF108991999999999999999999MW1621
0035029700999991925061413004+60100+019950FM-12+001499999V0203201N003119999999N0000001N9+01061+99999098551ADDGF108991999999999999999999MW1621
0035029700999991925061420004+60100+019950FM-12+001499999V0203201N003119999999N0000001N9+00891+99999098631ADDGF108991999999999999999999MW1621
0046029700999991925061506004+60100+019950FM-12+001499999V0200501N001019999999N0000001N9+01001+99999098981ADDAJ100009199999999GF108991999999999999999999
0029029700999991925061513004+60100+019950FM-12+001499999V0200501N003119999999N0000001N9+01441+99999099661ADDGF108991999999999999999999
0029029700999991925061520004+60100+019950FM-12+001499999V0203601N002119999999N0000001N9+01061+99999100071ADDGF107991999999999999999999
0046029700999991925061606004+60100+019950FM-12+001499999V0209991C000019999999N0000001N9+01221+99999100161ADDAJ100009199999999GF107991999999999999999999
0029029700999991925061613004+60100+019950FM-12+001499999V0202301N002119999999N0000001N9+01561+99999099951ADDGF102991999999999999999999
0029029700999991925061620004+60100+019950FM-12+001499999V0202001N004119999999N0000001N9+01171+99999099381ADDGF107991999999999999999999
0052029700999991925061706004+60100+019950FM-12+001499999V0202501N003119999999N0000001N9+01111+99999098601ADDAJ100009199999999GF108991999999999999999999MW1621
0035029700999991925061713004+60100+019950FM-12+001499999V0202501N004119999999N0000001N9+01171+99999098581ADDGF108991999999999999999999MW1621
0029029700999991925061720004+60100+019950FM-12+001499999V0202501N004119999999N0000001N9+00781+99999098841ADDGF102991999999999999999999
0046029700999991925061806004+60100+019950FM-12+001499999V0201601N003119999999N0000001N9+01111+99999098911ADDAJ100009199999999GF101991999999999999999999
0029029700999991925061813004+60100+019950FM-12+001499999V0201801N001019999999N0000001N9+01441+99999099421ADDGF104991999999999999999999
0029029700999991925061820004+60100+019950FM-12+001499999V0209991C000019999999N0000001N9+00941+99999099801ADDGF103991999999999999999999
0046029700999991925061906004+60100+019950FM-12+001499999V0203201N002119999999N0000001N9+01001+99999099881ADDAJ100009199999999GF107991999999999999999999
0035029700999991925061913004+60100+019950FM-12+001499999V0203201N002119999999N0000001N9+01061+99999099741ADDGF108991999999999999999999MW1621
0029029700999991925061920004+60100+019950FM-12+001499999V0203201N002119999999N0000001N9+01061+99999099821ADDGF106991999999999999999999
0046029700999991925062006004+60100+019950FM-12+001499999V0200201N002119999999N0000001N9+01391+99999099911ADDAJ100009199999999GF100991999999999999999999
0029029700999991925062013004+60100+019950FM-12+001499999V0200501N001019999999N0000001N9+01831+99999100101ADDGF103991999999999999999999
0029029700999991925062020004+60100+019950FM-12+001499999V0200201N001019999999N0000001N9+01221+99999100161ADDGF102991999999999999999999
0046029700999991925062106004+60100+019950FM-12+001499999V0209991C000019999999N0000001N9+01221+99999100141ADDAJ100009199999999GF106991999999999999999999
0029029700999991925062113004+60100+019950FM-12+001499999V0200201N002119999999N0000001N9+01501+99999100431ADDGF107991999999999999999999
0029029700999991925062120004+60100+019950FM-12+001499999V0209991C000019999999N0000001N9+01001+99999100701ADDGF100991999999999999999999
0046029700999991925062206004+60100+019950FM-12+001499999V0200701N002119999999N0000001N9+01391+99999101041ADDAJ100009199999999GF105991999999999999999999
0029029700999991925062213004+60100+019950FM-12+001499999V0200901N001019999999N0000001N9+01781+99999101271ADDGF107991999999999999999999
0029029700999991925062220004+60100+019950FM-12+001499999V0209991C000019999999N0000001N9+01391+99999101391ADDGF102991999999999999999999
0046029700999991925062306004+60100+019950FM-12+001499999V0200901N002119999999N0000001N9+01501+99999101351ADDAJ100009199999999GF107991999999999999999999
0029029700999991925062313004+60100+019950FM-12+001499999V0200901N003119999999N0000001N9+02111+99999101351ADDGF103991999999999999999999
0029029700999991925062320004+60100+019950FM-12+001499999V0209991C000019999999N0000001N9+01671+99999101241ADDGF102991999999999999999999
0046029700999991925062406004+60100+019950FM-12+001499999V0200201N003119999999N0000001N9+01671+99999100671ADDAJ100009199999999GF107991999999999999999999
0029029700999991925062413004+60100+019950FM-12+001499999V0200201N005119999999N0000001N9+01671+99999100081ADDGF108991999999999999999999
0035029700999991925062420004+60100+019950FM-12+001499999V0200201N005119999999N0000001N9+01331+99999099661ADDGF108991999999999999999999MW1621
0052029700999991925062506004+60100+019950FM-12+001499999V0203401N006219999999N0000001N9+01111+99999099681ADDAJ100009199999999GF108991999999999999999999MW1621
0029029700999991925062513004+60100+019950FM-12+001499999V0203201N007219999999N0000001N9+01561+99999100161ADDGF105991999999999999999999
0029029700999991925062520004+60100+019950FM-12+001499999V0202301N003119999999N0000001N9+01171+99999100401ADDGF102991999999999999999999
0046029700999991925062606004+60100+019950FM-12+001499999V0202001N003119999999N0000001N9+01331+99999100351ADDAJ100009199999999GF102991999999999999999999
0029029700999991925062613004+60100+019950FM-12+001499999V0202301N003119999999N0000001N9+01721+99999100381ADDGF101991999999999999999999
0029029700999991925062620004+60100+019950FM-12+001499999V0200201N001019999999N0000001N9+01111+99999100361ADDGF102991999999999999999999
0046029700999991925062706004+60100+019950FM-12+001499999V0200201N004119999999N0000001N9+01441+99999100511ADDAJ100009199999999GF101991999999999999999999
0029029700999991925062713004+60100+019950FM-12+001499999V0203201N001019999999N0000001N9+01561+99999100781ADDGF105991999999999999999999
0029029700999991925062720004+60100+019950FM-12+001499999V0209991C000019999999N0000001N9+01111+99999101081ADDGF100991999999999999999999
0046029700999991925062806004+60100+019950FM-12+001499999V0203201N001019999999N0000001N9+01611+99999101181ADDAJ100009199999999GF100991999999999999999999
0029029700999991925062813004+60100+019950FM-12+001499999V0202901N003119999999N0000001N9+01831+99999101311ADDGF100991999999999999999999
0029029700999991925062820004+60100+019950FM-12+001499999V0200501N001019999999N0000001N9+01221+99999101511ADDGF100991999999999999999999
0046029700999991925062906004+60100+019950FM-12+001499999V0200201N003119999999N0000001N9+01501+99999101701ADDAJ100009199999999GF100991999999999999999999
0029029700999991925062913004+60100+019950FM-12+001499999V0200201N005119999999N0000001N9+02001+99999101781ADDGF100991999999999999999999
0029029700999991925062920004+60100+019950FM-12+001499999V0203601N001019999999N0000001N9+01441+99999101761ADDGF100991999999999999999999
0046029700999991925063006004+60100+019950FM-12+001499999V0200201N002119999999N0000001N9+01781+99999101831ADDAJ100009199999999GF100991999999999999999999
0029029700999991925063013004+60100+019950FM-12+001499999V0200501N004119999999N0000001N9+02111+99999101861ADDGF100991999999999999999999
0029029700999991925063020004+60100+019950FM-12+001499999V0200201N002119999999N0000001N9+01611+99999101941ADDGF100991999999999999999999
0046029700999991925070106004+60100+019950FM-12+001499999V0200501N001019999999N0000001N9+01671+99999102111ADDAJ100009199999999GF100991999999999999999999
0029029700999991925070113004+60100+019950FM-12+001499999V0200501N002119999999N0000001N9+01891+99999102111ADDGF100991999999999999999999
0029029700999991925070120004+60100+019950FM-12+001499999V0200201N001019999999N0000001N9+01441+99999102031ADDGF100991999999999999999999
0046029700999991925070206004+60100+019950FM-12+001499999V0200501N003119999999N0000001N9+01671+99999102031ADDAJ100009199999999GF100991999999999999999999
0029029700999991925070213004+60100+019950FM-12+001499999V0200201N004119999999N0000001N9+02001+99999101901ADDGF100991999999999999999999
0029029700999991925070220004+60100+019950FM-12+001499999V0200501N001019999999N0000001N9+01781+99999101741ADDGF107991999999999999999999
0046029700999991925070306004+60100+019950FM-12+001499999V0200501N002119999999N0000001N9+01611+99999101471ADDAJ100009199999999GF108991999999999999999999
0029029700999991925070313004+60100+019950FM-12+001499999V0209991C000019999999N0000001N9+01781+99999101321ADDGF108991999999999999999999
0029029700999991925070320004+60100+019950FM-12+001499999V0209991C000019999999N0000001N9+01561+99999101241ADDGF104991999999999999999999
0046029700999991925070406004+60100+019950FM-12+001499999V0201101N002119999999N0000001N9+01721+99999101151ADDAJ100009199999999GF108991999999999999999999
0029029700999991925070413004+60100+019950FM-12+001499999V0209991C000019999999N0000001N9+01831+99999101341ADDGF108991999999999999999999
0029029700999991925070420004+60100+019950FM-12+001499999V0209991C000019999999N0000001N9+01781+99999101341ADDGF106991999999999999999999
0046029700999991925070506004+60100+019950FM-12+001499999V0209991C000019999999N0000001N9+01721+99999100961ADDAJ100009199999999GF108991999999999999999999
0029029700999991925070513004+60100+019950FM-12+001499999V0201401N001019999999N0000001N9+01721+99999100881ADDGF108991999999999999999999
0029029700999991925070520004+60100+019950FM-12+001499999V0201601N001019999999N0000001N9+01501+99999100951ADDGF108991999999999999999999
0046029700999991925070606004+60100+019950FM-12+001499999V0201601N001019999999N0000001N9+01781+99999100881ADDAJ100009199999999GF105991999999999999999999
0029029700999991925070613004+60100+019950FM-12+001499999V0209991C000019999999N0000001N9+02221+99999100821ADDGF106991999999999999999999
0029029700999991925070620004+60100+019950FM-12+001499999V0209991C000019999999N0000001N9+01941+99999100921ADDGF106991999999999999999999
0046029700999991925070706004+60100+019950FM-12+001499999V0201101N001019999999N0000001N9+01941+99999100761ADDAJ100009199999999GF106991999999999999999999
0029029700999991925070713004+60100+019950FM-12+001499999V0201101N003119999999N0000001N9+02441+99999100761ADDGF100991999999999999999999
0029029700999991925070720004+60100+019950FM-12+001499999V0209991C000019999999N0000001N9+02001+99999100751ADDGF103991999999999999999999
0046029700999991925070806004+60100+019950FM-12+001499999V0202001N002119999999N0000001N9+02001+99999100521ADDAJ100009199999999GF101991999999999999999999
0029029700999991925070813004+60100+019950FM-12+001499999V0201401N003119999999N0000001N9+02281+99999100471ADDGF101991999999999999999999
0029029700999991925070820004+60100+019950FM-12+001499999V0209991C000019999999N0000001N9+01891+99999100361ADDGF106991999999999999999999
0046029700999991925070906004+60100+019950FM-12+001499999V0209991C000019999999N0000001N9+02001+99999100161ADDAJ100009199999999GF105991999999999999999999
0029029700999991925070913004+60100+019950FM-12+001499999V0201801N005119999999N0000001N9+01891+99999100151ADDGF108991999999999999999999
0029029700999991925070920004+60100+019950FM-12+001499999V0201601N001019999999N0000001N9+01611+99999100191ADDGF108991999999999999999999
0046029700999991925071006004+60100+019950FM-12+001499999V0202001N004119999999N0000001N9+01611+99999100031ADDAJ100009199999999GF108991999999999999999999
0029029700999991925071013004+60100+019950FM-12+001499999V0202301N004119999999N0000001N9+01671+99999100351ADDGF106991999999999999999999
0029029700999991925071020004+60100+019950FM-12+001499999V0202301N001019999999N0000001N9+01501+99999100461ADDGF102991999999999999999999
0046029700999991925071106004+60100+019950FM-12+001499999V0202001N002119999999N0000001N9+01501+99999100871ADDAJ100009199999999GF103991999999999999999999
0029029700999991925071113004+60100+019950FM-12+001499999V0202001N008219999999N0000001N9+01611+99999101121ADDGF107991999999999999999999
0029029700999991925071120004+60100+019950FM-12+001499999V0202301N002119999999N0000001N9+01441+99999101301ADDGF108991999999999999999999
0046029700999991925071206004+60100+019950FM-12+001499999V0200701N002119999999N0000001N9+01561+99999101591ADDAJ100009199999999GF103991999999999999999999
0029029700999991925071213004+60100+019950FM-12+001499999V0200701N003119999999N0000001N9+01831+99999101801ADDGF103991999999999999999999
0029029700999991925071220004+60100+019950FM-12+001499999V0209991C000019999999N0000001N9+01221+99999102001ADDGF100991999999999999999999
0046029700999991925071306004+60100+019950FM-12+001499999V0209991C000019999999N0000001N9+01671+99999102181ADDAJ100009199999999GF107991999999999999999999
0029029700999991925071313004+60100+019950FM-12+001499999V0203401N002119999999N0000001N9+02111+99999102301ADDGF100991999999999999999999
0029029700999991925071320004+60100+019950FM-12+001499999V0209991C000019999999N0000001N9+01501+99999102351ADDGF100991999999999999999999
0046029700999991925071406004+60100+019950FM-12+001499999V0200501N001019999999N0000001N9+01831+99999102421ADDAJ100009199999999GF100991999999999999999999
0029029700999991925071413004+60100+019950FM-12+001499999V0203201N004119999999N0000001N9+02281+99999102401ADDGF106991999999999999999999
0029029700999991925071420004+60100+019950FM-12+001499999V0209991C000019999999N0000001N9+01561+99999102241ADDGF101991999999999999999999
0046029700999991925071506004+60100+019950FM-12+001499999V0209991C000019999999N0000001N9+01941+99999102151ADDAJ100009199999999GF100991999999999999999999
0029029700999991925071513004+60100+019950FM-12+001499999V0209991C000019999999N0000001N9+02391+99999102001ADDGF102991999999999999999999
0029029700999991925071520004+60100+019950FM-12+001499999V0209991C000019999999N0000001N9+01781+99999101911ADDGF102991999999999999999999
0046029700999991925071606004+60100+019950FM-12+001499999V0202301N001019999999N0000001N9+01831+99999101791ADDAJ100009199999999GF103991999999999999999999
0029029700999991925071613004+60100+019950FM-12+001499999V0202301N004119999999N0000001N9+02501+99999101671ADDGF100991999999999999999999
0029029700999991925071620004+60100+019950FM-12+001499999V0202501N001019999999N0000001N9+01941+99999101541ADDGF101991999999999999999999
0046029700999991925071706004+60100+019950FM-12+001499999V0202501N001019999999N0000001N9+01891+99999101441ADDAJ100009199999999GF101991999999999999999999
0029029700999991925071713004+60100+019950FM-12+001499999V0202301N003119999999N0000001N9+02331+99999101311ADDGF100991999999999999999999
0029029700999991925071720004+60100+019950FM-12+001499999V0209991C000019999999N0000001N9+01891+99999101281ADDGF102991999999999999999999
0046029700999991925071806004+60100+019950FM-12+001499999V0209991C000019999999N0000001N9+02001+99999101301ADDAJ100009199999999GF100991999999999999999999
0029029700999991925071813004+60100+019950FM-12+001499999V0209991C000019999999N0000001N9+02221+99999101341ADDGF100991999999999999999999
0029029700999991925071820004+60100+019950FM-12+001499999V0209991C000019999999N0000001N9+01721+99999101431ADDGF100991999999999999999999
0046029700999991925071906004+60100+019950FM-12+001499999V0203201N001019999999N0000001N9+02061+99999101551ADDAJ100009199999999GF100991999999999999999999
0029029700999991925071913004+60100+019950FM-12+001499999V0200701N001019999999N0000001N9+02611+99999101581ADDGF101991999999999999999999
0029029700999991925071920004+60100+019950FM-12+001499999V0209991C000019999999N0000001N9+01671+99999101661ADDGF100991999999999999999999
0046029700999991925072006004+60100+019950FM-12+001499999V0209991C000019999999N0000001N9+02061+99999101741ADDAJ100009199999999GF102991999999999999999999
0029029700999991925072013004+60100+019950FM-12+001499999V0202701N003119999999N0000001N9+02671+99999101871ADDGF100991999999999999999999
0029029700999991925072020004+60100+019950FM-12+001499999V0202701N002119999999N0000001N9+01941+99999101991ADDGF102991999999999999999999
0046029700999991925072106004+60100+019950FM-12+001499999V0209991C000019999999N0000001N9+02221+99999102181ADDAJ100009199999999GF100991999999999999999999
0029029700999991925072113004+60100+019950FM-12+001499999V0209991C000019999999N0000001N9+02671+99999102221ADDGF104991999999999999999999
0029029700999991925072120004+60100+019950FM-12+001499999V0209991C000019999999N0000001N9+01891+99999102201ADDGF100991999999999999999999
0046029700999991925072206004+60100+019950FM-12+001499999V0209991C000019999999N0000001N9+02221+99999102341ADDAJ100009199999999GF100991999999999999999999
0029029700999991925072213004+60100+019950FM-12+001499999V0202301N002119999999N0000001N9+02671+99999102361ADDGF100991999999999999999999
0029029700999991925072220004+60100+019950FM-12+001499999V0209991C000019999999N0000001N9+02001+99999102301ADDGF100991999999999999999999
0046029700999991925072306004+60100+019950FM-12+001499999V0209991C000019999999N0000001N9+02221+99999102271ADDAJ100009199999999GF100991999999999999999999
0029029700999991925072313004+60100+019950FM-12+001499999V0202501N007219999999N0000001N9+02501+99999102161ADDGF100991999999999999999999
0029029700999991925072320004+60100+019950FM-12+001499999V0202501N003119999999N0000001N9+02171+99999101901ADDGF100991999999999999999999
0046029700999991925072406004+60100+019950FM-12+001499999V0202501N003119999999N0000001N9+02221+99999101841ADDAJ100009199999999GF100991999999999999999999
0029029700999991925072413004+60100+019950FM-12+001499999V0202301N004119999999N0000001N9+02671+99999101641ADDGF100991999999999999999999
0029029700999991925072420004+60100+019950FM-12+001499999V0209991C000019999999N0000001N9+02171+99999101471ADDGF100991999999999999999999
0046029700999991925072506004+60100+019950FM-12+001499999V0209991C000019999999N0000001N9+02281+99999101541ADDAJ100009199999999GF101991999999999999999999
0029029700999991925072513004+60100+019950FM-12+001499999V0201601N001019999999N0000001N9+02671+99999101541ADDGF100991999999999999999999
0029029700999991925072520004+60100+019950FM-12+001499999V0209991C000019999999N0000001N9+01891+99999101471ADDGF100991999999999999999999
0046029700999991925072606004+60100+019950FM-12+001499999V0209991C000019999999N0000001N9+02331+99999101421ADDAJ100009199999999GF100991999999999999999999
0029029700999991925072613004+60100+019950FM-12+001499999V0201601N001019999999N0000001N9+02671+99999101281ADDGF100991999999999999999999
0029029700999991925072620004+60100+019950FM-12+001499999V0201401N001019999999N0000001N9+02331+99999101201ADDGF100991999999999999999999
0046029700999991925072706004+60100+019950FM-12+001499999V0201401N003119999999N0000001N9+02441+99999100991ADDAJ100009199999999GF100991999999999999999999
0029029700999991925072713004+60100+019950FM-12+001499999V0201601N004119999999N0000001N9+02561+99999100871ADDGF100991999999999999999999
0029029700999991925072720004+60100+019950FM-12+001499999V0209991C000019999999N0000001N9+02281+99999100701ADDGF101991999999999999999999
0046029700999991925072806004+60100+019950FM-12+001499999V0209991C000019999999N0000001N9+02221+99999100281ADDAJ100009199999999GF106991999999999999999999
0029029700999991925072813004+60100+019950FM-12+001499999V0202301N008219999999N0000001N9+02391+99999100261ADDGF105991999999999999999999
0029029700999991925072820004+60100+019950FM-12+001499999V0202501N003119999999N0000001N9+02001+99999100391ADDGF102991999999999999999999
0046029700999991925072906004+60100+019950FM-12+001499999V0202001N002119999999N0000001N9+02061+99999100361ADDAJ100009199999999GF107991999999999999999999
0029029700999991925072913004+60100+019950FM-12+001499999V0202301N008219999999N0000001N9+02111+99999100481ADDGF103991999999999999999999
0029029700999991925072920004+60100+019950FM-12+001499999V0202301N005119999999N0000001N9+01831+99999100401ADDGF100991999999999999999999
0046029700999991925073006004+60100+019950FM-12+001499999V0202301N005119999999N0000001N9+01781+99999100341ADDAJ100009199999999GF106991999999999999999999
0029029700999991925073013004+60100+019950FM-12+001499999V0202301N006219999999N0000001N9+02061+99999100361ADDGF100991999999999999999999
0029029700999991925073020004+60100+019950FM-12+001499999V0202001N004119999999N0000001N9+01781+99999100261ADDGF107991999999999999999999
0046029700999991925073106004+60100+019950FM-12+001499999V0202001N005119999999N0000001N9+01671+99999099831ADDAJ100009199999999GF108991999999999999999999
0029029700999991925073113004+60100+019950FM-12+001499999V0202301N004119999999N0000001N9+01941+99999099881ADDGF100991999999999999999999
0029029700999991925073120004+60100+019950FM-12+001499999V0202301N004119999999N0000001N9+01721+99999099871ADDGF102991999999999999999999
0046029700999991925080106004+60100+019950FM-12+001499999V0202501N004119999999N0000001N9+01781+99999099881ADDAJ100009199999999GF101991999999999999999999
0029029700999991925080113004+60100+019950FM-12+001499999V0202301N006219999999N0000001N9+01941+99999099941ADDGF101991999999999999999999
0029029700999991925080120004+60100+019950FM-12+001499999V0202301N003119999999N0000001N9+01721+99999099921ADDGF105991999999999999999999
0046029700999991925080206004+60100+019950FM-12+001499999V0202501N001019999999N0000001N9+01721+99999099961ADDAJ100009199999999GF101991999999999999999999
0029029700999991925080213004+60100+019950FM-12+001499999V0202301N003119999999N0000001N9+01941+99999100081ADDGF105991999999999999999999
0029029700999991925080220004+60100+019950FM-12+001499999V0202301N003119999999N0000001N9+01671+99999100181ADDGF100991999999999999999999
0046029700999991925080306004+60100+019950FM-12+001499999V0202501N003119999999N0000001N9+01781+99999100271ADDAJ100009199999999GF102991999999999999999999
0029029700999991925080313004+60100+019950FM-12+001499999V0202301N004119999999N0000001N9+02171+99999100321ADDGF102991999999999999999999
0029029700999991925080320004+60100+019950FM-12+001499999V0209991C000019999999N0000001N9+01501+99999100351ADDGF103991999999999999999999
0046029700999991925080406004+60100+019950FM-12+001499999V0209991C000019999999N0000001N9+01721+99999100111ADDAJ100009199999999GF104991999999999999999999
0029029700999991925080413004+60100+019950FM-12+001499999V0209991C000019999999N0000001N9+01781+99999100041ADDGF106991999999999999999999
0029029700999991925080420004+60100+019950FM-12+001499999V0203601N002119999999N0000001N9+01501+99999099911ADDGF102991999999999999999999
0046029700999991925080506004+60100+019950FM-12+001499999V0203601N004119999999N0000001N9+01561+99999099501ADDAJ100009199999999GF108991999999999999999999
0035029700999991925080513004+60100+019950FM-12+001499999V0203601N003119999999N0000001N9+01611+99999099441ADDGF108991999999999999999999MW1621
0029029700999991925080520004+60100+019950FM-12+001499999V0203201N003119999999N0000001N9+01501+99999099391ADDGF107991999999999999999999
0052029700999991925080606004+60100+019950FM-12+001499999V0202901N002119999999N0000001N9+01441+99999099361ADDAJ100009199999999GF108991999999999999999999MW1621
0029029700999991925080613004+60100+019950FM-12+001499999V0203201N004119999999N0000001N9+01501+99999099801ADDGF108991999999999999999999
0029029700999991925080620004+60100+019950FM-12+001499999V0203401N002119999999N0000001N9+01331+99999100071ADDGF107991999999999999999999
0046029700999991925080706004+60100+019950FM-12+001499999V0203201N004119999999N0000001N9+01441+99999100341ADDAJ100009199999999GF108991999999999999999999
0035029700999991925080713004+60100+019950FM-12+001499999V0209991C000019999999N0000001N9+01391+99999100781ADDGF108991999999999999999999MW1621
0029029700999991925080720004+60100+019950FM-12+001499999V0203401N002119999999N0000001N9+01331+99999101031ADDGF107991999999999999999999
0046029700999991925080806004+60100+019950FM-12+001499999V0200201N001019999999N0000001N9+01501+99999101351ADDAJ100009199999999GF108991999999999999999999
0029029700999991925080813004+60100+019950FM-12+001499999V0209991C000019999999N0000001N9+01721+99999101501ADDGF102991999999999999999999
0029029700999991925080820004+60100+019950FM-12+001499999V0203401N001019999999N0000001N9+01001+99999101551ADDGF101991999999999999999999
0046029700999991925080906004+60100+019950FM-12+001499999V0209991C000019999999N0000001N9+01391+99999101681ADDAJ100009199999999GF102991999999999999999999
0029029700999991925080913004+60100+019950FM-12+001499999V0202001N002119999999N0000001N9+01891+99999101751ADDGF104991999999999999999999
0029029700999991925080920004+60100+019950FM-12+001499999V0201801N001019999999N0000001N9+01671+99999101781ADDGF106991999999999999999999
0046029700999991925081006004+60100+019950FM-12+001499999V0202001N002119999999N0000001N9+01721+99999101601ADDAJ100009199999999GF108991999999999999999999
0029029700999991925081013004+60100+019950FM-12+001499999V0201801N003119999999N0000001N9+01781+99999101551ADDGF108991999999999999999999
0029029700999991925081020004+60100+019950FM-12+001499999V0202001N005119999999N0000001N9+01671+99999101181ADDGF108991999999999999999999
0046029700999991925081106004+60100+019950FM-12+001499999V0201801N002119999999N0000001N9+01721+99999100761ADDAJ100009199999999GF108991999999999999999999
0029029700999991925081113004+60100+019950FM-12+001499999V0201801N005119999999N0000001N9+02111+99999100401ADDGF100991999999999999999999
0029029700999991925081120004+60100+019950FM-12+001499999V0202501N001019999999N0000001N9+01831+99999100801ADDGF107991999999999999999999
0046029700999991925081206004+60100+019950FM-12+001499999V0202501N003119999999N0000001N9+01721+99999101321ADDAJ100009199999999GF106991999999999999999999
0029029700999991925081213004+60100+019950FM-12+001499999V0202301N002119999999N0000001N9+01781+99999101681ADDGF108991999999999999999999
0029029700999991925081220004+60100+019950FM-12+001499999V0209991C000019999999N0000001N9+01441+99999101901ADDGF100991999999999999999999
0046029700999991925081306004+60100+019950FM-12+001499999V0202301N003119999999N0000001N9+01561+99999102081ADDAJ100009199999999GF100991999999999999999999
0029029700999991925081313004+60100+019950FM-12+001499999V0201801N003119999999N0000001N9+01941+99999102041ADDGF100991999999999999999999
0029029700999991925081320004+60100+019950FM-12+001499999V0202301N001019999999N0000001N9+01561+99999101881ADDGF100991999999999999999999
0046029700999991925081406004+60100+019950FM-12+001499999V0202301N002119999999N0000001N9+01781+99999101581ADDAJ100009199999999GF106991999999999999999999
0029029700999991925081413004+60100+019950FM-12+001499999V0202301N006219999999N0000001N9+01941+99999101311ADDGF106991999999999999999999
0029029700999991925081420004+60100+019950FM-12+001499999V0202301N003119999999N0000001N9+01671+99999101041ADDGF102991999999999999999999
0046029700999991925081506004+60100+019950FM-12+001499999V0203601N002119999999N0000001N9+01501+99999100921ADDAJ100009199999999GF108991999999999999999999
0029029700999991925081513004+60100+019950FM-12+001499999V0200501N004119999999N0000001N9+01781+99999100881ADDGF104991999999999999999999
0029029700999991925081520004+60100+019950FM-12+001499999V0209991C000019999999N0000001N9+01061+99999100791ADDGF103991999999999999999999
0046029700999991925081606004+60100+019950FM-12+001499999V0209991C000019999999N0000001N9+01391+99999100581ADDAJ100009199999999GF105991999999999999999999
0029029700999991925081613004+60100+019950FM-12+001499999V0203201N002119999999N0000001N9+01441+99999100551ADDGF106991999999999999999999
0029029700999991925081620004+60100+019950FM-12+001499999V0209991C000019999999N0000001N9+01061+99999100441ADDGF106991999999999999999999
0046029700999991925081706004+60100+019950FM-12+001499999V0209991C000019999999N0000001N9+01331+99999100151ADDAJ100009199999999GF101991999999999999999999
0029029700999991925081713004+60100+019950FM-12+001499999V0202901N001019999999N0000001N9+01561+99999100061ADDGF107991999999999999999999
0029029700999991925081720004+60100+019950FM-12+001499999V0209991C000019999999N0000001N9+01001+99999099921ADDGF105991999999999999999999
0052029700999991925081806004+60100+019950FM-12+001499999V0209991C000019999999N0000001N9+01331+99999099561ADDAJ100009199999999GF108991999999999999999999MW1621
0029029700999991925081813004+60100+019950FM-12+001499999V0201601N002119999999N0000001N9+01671+99999099621ADDGF106991999999999999999999
0029029700999991925081820004+60100+019950FM-12+001499999V0209991C000019999999N0000001N9+01111+99999099831ADDGF102991999999999999999999
0046029700999991925081906004+60100+019950FM-12+001499999V0200501N001019999999N0000001N9+01331+99999099911ADDAJ100009199999999GF108991999999999999999999
0029029700999991925081913004+60100+019950FM-12+001499999V0203601N006219999999N0000001N9+01611+99999100061ADDGF108991999999999999999999
0029029700999991925081920004+60100+019950FM-12+001499999V0203401N001019999999N0000001N9+01391+99999100201ADDGF105991999999999999999999
0046029700999991925082006004+60100+019950FM-12+001499999V0203401N001019999999N0000001N9+01561+99999100361ADDAJ100009199999999GF107991999999999999999999
0029029700999991925082013004+60100+019950FM-12+001499999V0203401N002119999999N0000001N9+02061+99999100501ADDGF101991999999999999999999
0029029700999991925082020004+60100+019950FM-12+001499999V0209991C000019999999N0000001N9+01221+99999100601ADDGF100991999999999999999999
0046029700999991925082106004+60100+019950FM-12+001499999V0200501N001019999999N0000001N9+01501+99999100681ADDAJ100009199999999GF105991999999999999999999
0029029700999991925082113004+60100+019950FM-12+001499999V0200201N002119999999N0000001N9+01721+99999100901ADDGF108991999999999999999999
0029029700999991925082120004+60100+019950FM-12+001499999V0209991C000019999999N0000001N9+01391+99999101111ADDGF106991999999999999999999
0046029700999991925082206004+60100+019950FM-12+001499999V0203201N001019999999N0000001N9+01331+99999101341ADDAJ100009199999999GF108991999999999999999999
0029029700999991925082213004+60100+019950FM-12+001499999V0203201N003119999999N0000001N9+01671+99999101511ADDGF108991999999999999999999
0029029700999991925082220004+60100+019950FM-12+001499999V0209991C000019999999N0000001N9+01441+99999101661ADDGF108991999999999999999999
0046029700999991925082306004+60100+019950FM-12+001499999V0209991C000019999999N0000001N9+01501+99999101781ADDAJ100009199999999GF106991999999999999999999
0029029700999991925082313004+60100+019950FM-12+001499999V0200901N002119999999N0000001N9+01941+99999101831ADDGF106991999999999999999999
0029029700999991925082320004+60100+019950FM-12+001499999V0200901N001019999999N0000001N9+01281+99999101871ADDGF102991999999999999999999
0046029700999991925082406004+60100+019950FM-12+001499999V0200901N001019999999N0000001N9+01611+99999101841ADDAJ100009199999999GF106991999999999999999999
0029029700999991925082413004+60100+019950FM-12+001499999V0201101N002119999999N0000001N9+01781+99999101831ADDGF102991999999999999999999
0029029700999991925082420004+60100+019950FM-12+001499999V0209991C000019999999N0000001N9+01391+99999101761ADDGF100991999999999999999999
0046029700999991925082506004+60100+019950FM-12+001499999V0201101N004119999999N0000001N9+01561+99999101631ADDAJ100009199999999GF102991999999999999999999
0029029700999991925082513004+60100+019950FM-12+001499999V0201101N003119999999N0000001N9+01721+99999101641ADDGF103991999999999999999999
0029029700999991925082520004+60100+019950FM-12+001499999V0201101N002119999999N0000001N9+01441+99999101661ADDGF100991999999999999999999
0046029700999991925082606004+60100+019950FM-12+001499999V0201101N004119999999N0000001N9+01501+99999101671ADDAJ100009199999999GF100991999999999999999999
0029029700999991925082613004+60100+019950FM-12+001499999V0200901N001019999999N0000001N9+01831+99999101701ADDGF102991999999999999999999
0029029700999991925082620004+60100+019950FM-12+001499999V0209991C000019999999N0000001N9+01171+99999101761ADDGF100991999999999999999999
