0029029350999991925010106004+62233+025733FM-12+009499999V0202701N001019999999N0000001N9+00111+99999098791ADDGF105991999999999999999999
0029029350999991925010113004+62233+025733FM-12+009499999V0200501N005119999999N0000001N9+00171+99999098801ADDGF106991999999999999999999
0029029350999991925010120004+62233+025733FM-12+009499999V0201601N003119999999N0000001N9+00111+99999098601ADDGF108991999999999999999999
0029029350999991925010206004+62233+025733FM-12+009499999V0201601N005119999999N0000001N9+00061+99999098391ADDGF108991999999999999999999
0029029350999991925010213004+62233+025733FM-12+009499999V0201401N007219999999N0000001N9+00111+99999097671ADDGF108991999999999999999999
0029029350999991925010220004+62233+025733FM-12+009499999V0201601N005119999999N0000001N9+00061+99999096901ADDGF108991999999999999999999
0035029350999991925010306004+62233+025733FM-12+009499999V0200901N007219999999N0000001N9+00061+99999095401ADDGF108991999999999999999999MW1721
0054029350999991925010313004+62233+025733FM-12+009499999V0201801N003119999999N0000001N9+00061+99999999999ADDGF108991999999999999999999MW1721EQDQ01 104683APOSLP
0035029350999991925010320004+62233+025733FM-12+009499999V0202701N003119999999N0000001N9+00171+99999095201ADDGF108991999999999999999999MW1621
0029029350999991925010406004+62233+025733FM-12+009499999V0202701N003119999999N0000001N9+00111+99999096481ADDGF108991999999999999999999
0029029350999991925010413004+62233+025733FM-12+009499999V0202701N001019999999N0000001N9+00001+99999097101ADDGF100991999999999999999999
0029029350999991925010420004+62233+025733FM-12+009499999V0202701N001019999999N0000001N9+00001+99999097121ADDGF108991999999999999999999
0029029350999991925010506004+62233+025733FM-12+009499999V0202701N003119999999N0000001N9-00221+99999096991ADDGF100991999999999999999999
0029029350999991925010513004+62233+025733FM-12+009499999V0202501N005119999999N0000001N9-00111+99999097351ADDGF103991999999999999999999
0029029350999991925010520004+62233+025733FM-12+009499999V0202501N007219999999N0000001N9-00061+99999097481ADDGF100991999999999999999999
0029029350999991925010606004+62233+025733FM-12+009499999V0202501N003119999999N0000001N9-00111+99999097401ADDGF108991999999999999999999
0035029350999991925010613004+62233+025733FM-12+009499999V0202501N001019999999N0000001N9-00061+99999097391ADDGF108991999999999999999999MW1721
0029029350999991925010620004+62233+025733FM-12+009499999V0209991C000019999999N0000001N9-00171+99999097471ADDGF108991999999999999999999
0029029350999991925010706004+62233+025733FM-12+009499999V0203601N001019999999N0000001N9-00391+99999097941ADDGF108991999999999999999999
0029029350999991925010713004+62233+025733FM-12+009499999V0203601N001019999999N0000001N9-00281+99999098041ADDGF108991999999999999999999
0029029350999991925010720004+62233+025733FM-12+009499999V0203601N001019999999N0000001N9-00391+99999098121ADDGF108991999999999999999999
0029029350999991925010806004+62233+025733FM-12+009499999V0203601N001019999999N0000001N9-00721+99999098751ADDGF108991999999999999999999
0035029350999991925010813004+62233+025733FM-12+009499999V0203601N001019999999N0000001N9-00721+99999099151ADDGF108991999999999999999999MW1701
0029029350999991925010820004+62233+025733FM-12+009499999V0209991C000019999999N0000001N9-00441+99999099101ADDGF108991999999999999999999
0029029350999991925010906004+62233+025733FM-12+009499999V0203201N001019999999N0000001N9-00221+99999098511ADDGF108991999999999999999999
0029029350999991925010913004+62233+025733FM-12+009499999V0203601N001019999999N0000001N9-00111+99999098191ADDGF108991999999999999999999
0029029350999991925010920004+62233+025733FM-12+009499999V0203601N003119999999N0000001N9-00111+99999098381ADDGF108991999999999999999999
0035029350999991925011006004+62233+025733FM-12+009499999V0203601N003119999999N0000001N9-00331+99999099061ADDGF108991999999999999999999MW1721
0029029350999991925011013004+62233+025733FM-12+009499999V0203601N001019999999N0000001N9-00281+99999099831ADDGF108991999999999999999999
0029029350999991925011020004+62233+025733FM-12+009499999V0209991C000019999999N0000001N9-00441+99999099711ADDGF108991999999999999999999
0035029350999991925011106004+62233+025733FM-12+009499999V0202501N001019999999N0000001N9-00331+99999099231ADDGF108991999999999999999999MW1721
0035029350999991925011113004+62233+025733FM-12+009499999V0209991C000019999999N0000001N9-00221+99999099081ADDGF108991999999999999999999MW1721
0035029350999991925011120004+62233+025733FM-12+009499999V0209991C000019999999N0000001N9-00281+99999099721ADDGF108991999999999999999999MW1721
0029029350999991925011206004+62233+025733FM-12+009499999V0201801N003119999999N0000001N9+00221+99999099831ADDGF108991999999999999999999
0029029350999991925011213004+62233+025733FM-12+009499999V0202701N001019999999N0000001N9+00221+99999100061ADDGF100991999999999999999999
0029029350999991925011220004+62233+025733FM-12+009499999V0202701N001019999999N0000001N9+00061+99999100261ADDGF100991999999999999999999
0029029350999991925011306004+62233+025733FM-12+009499999V0202701N001019999999N0000001N9+00171+99999100261ADDGF100991999999999999999999
0029029350999991925011313004+62233+025733FM-12+009499999V0202701N003119999999N0000001N9+00061+99999100201ADDGF108991999999999999999999
0029029350999991925011320004+62233+025733FM-12+009499999V0202701N005119999999N0000001N9+00061+99999100181ADDGF108991999999999999999999
0029029350999991925011406004+62233+025733FM-12+009499999V0202701N001019999999N0000001N9+00061+99999100121ADDGF103991999999999999999999
0029029350999991925011413004+62233+025733FM-12+009499999V0201801N001019999999N0000001N9+00001+99999100281ADDGF108991999999999999999999
0029029350999991925011420004+62233+025733FM-12+009499999V0200901N005119999999N0000001N9+00171+99999099581ADDGF108991999999999999999999
0029029350999991925011506004+62233+025733FM-12+009499999V0202701N007219999999N0000001N9+00331+99999098791ADDGF108991999999999999999999
0029029350999991925011513004+62233+025733FM-12+009499999V0202701N005119999999N0000001N9+00391+99999098541ADDGF103991999999999999999999
0029029350999991925011520004+62233+025733FM-12+009499999V0202701N007219999999N0000001N9+00281+99999097781ADDGF106991999999999999999999
0029029350999991925011606004+62233+025733FM-12+009499999V0203601N007219999999N0000001N9+00171+99999098181ADDGF106991999999999999999999
0029029350999991925011613004+62233+025733FM-12+009499999V0202701N005119999999N0000001N9+00061+99999099181ADDGF102991999999999999999999
0029029350999991925011620004+62233+025733FM-12+009499999V0202701N011819999999N0000001N9+00391+99999098701ADDGF102991999999999999999999
0029029350999991925011706004+62233+025733FM-12+009499999V0202701N008719999999N0000001N9+00561+99999098791ADDGF108991999999999999999999
0035029350999991925011713004+62233+025733FM-12+009499999V0203601N005119999999N0000001N9+00441+99999099511ADDGF106991999999999999999999MW1621
0029029350999991925011720004+62233+025733FM-12+009499999V0202701N007219999999N0000001N9+00221+99999100581ADDGF105991999999999999999999
0029029350999991925011806004+62233+025733FM-12+009499999V0202301N001019999999N0000001N9-00061+99999100821ADDGF106991999999999999999999
0029029350999991925011813004+62233+025733FM-12+009499999V0202701N001019999999N0000001N9+00001+99999100551ADDGF108991999999999999999999
0029029350999991925011820004+62233+025733FM-12+009499999V0209991C000019999999N0000001N9-00061+99999100361ADDGF100991999999999999999999
0029029350999991925011906004+62233+025733FM-12+009499999V0202701N007219999999N0000001N9+00501+99999099541ADDGF108991999999999999999999
0029029350999991925011913004+62233+025733FM-12+009499999V0202701N007219999999N0000001N9+00221+99999099821ADDGF101991999999999999999999
0029029350999991925011920004+62233+025733FM-12+009499999V0203401N018019999999N0000001N9+00001+99999100601ADDGF105991999999999999999999
0029029350999991925012006004+62233+025733FM-12+009499999V0202701N015919999999N0000001N9+00001+99999101821ADDGF100991999999999999999999
0029029350999991925012013004+62233+025733FM-12+009499999V0202701N003119999999N0000001N9+00111+99999101831ADDGF100991999999999999999999
0029029350999991925012020004+62233+025733FM-12+009499999V0202701N003119999999N0000001N9+00001+99999101741ADDGF100991999999999999999999
0029029350999991925012106004+62233+025733FM-12+009499999V0202701N005119999999N0000001N9+00001+99999101681ADDGF104991999999999999999999
0029029350999991925012113004+62233+025733FM-12+009499999V0202701N003119999999N0000001N9+00221+99999101761ADDGF102991999999999999999999
0029029350999991925012120004+62233+025733FM-12+009499999V0202701N005119999999N0000001N9+00061+99999101861ADDGF100991999999999999999999
0029029350999991925012206004+62233+025733FM-12+009499999V0202701N001019999999N0000001N9-00331+99999101991ADDGF100991999999999999999999
0029029350999991925012213004+62233+025733FM-12+009499999V0209991C000019999999N0000001N9-00171+99999101911ADDGF100991999999999999999999
0029029350999991925012220004+62233+025733FM-12+009499999V0209991C000019999999N0000001N9-00611+99999101921ADDGF108991999999999999999999
0029029350999991925012306004+62233+025733FM-12+009499999V0202701N001019999999N0000001N9-00441+99999101791ADDGF108991999999999999999999
0029029350999991925012313004+62233+025733FM-12+009499999V0201801N001019999999N0000001N9-00391+99999101661ADDGF108991999999999999999999
0029029350999991925012320004+62233+025733FM-12+009499999V0200901N005119999999N0000001N9-00171+99999101541ADDGF106991999999999999999999
0029029350999991925012406004+62233+025733FM-12+009499999V0201801N003119999999N0000001N9-00221+99999101351ADDGF108991999999999999999999
0029029350999991925012413004+62233+025733FM-12+009499999V0201801N001019999999N0000001N9-00171+99999101381ADDGF108991999999999999999999
0029029350999991925012420004+62233+025733FM-12+009499999V0201801N001019999999N0000001N9-00111+99999101391ADDGF108991999999999999999999
0029029350999991925012506004+62233+025733FM-12+009499999V0202701N001019999999N0000001N9-00221+99999101561ADDGF108991999999999999999999
0029029350999991925012513004+62233+025733FM-12+009499999V0203201N001019999999N0000001N9-00171+99999101961ADDGF106991999999999999999999
0029029350999991925012520004+62233+025733FM-12+009499999V0209991C000019999999N0000001N9-00331+99999102221ADDGF100991999999999999999999
0029029350999991925012606004+62233+025733FM-12+009499999V0202701N001019999999N0000001N9-00391+99999102201ADDGF100991999999999999999999
0029029350999991925012613004+62233+025733FM-12+009499999V0202701N001019999999N0000001N9-00221+99999101951ADDGF103991999999999999999999
0029029350999991925012620004+62233+025733FM-12+009499999V0209991C000019999999N0000001N9-00221+99999101541ADDGF100991999999999999999999
0029029350999991925012706004+62233+025733FM-12+009499999V0203201N003119999999N0000001N9-00111+99999101041ADDGF100991999999999999999999
0029029350999991925012713004+62233+025733FM-12+009499999V0203601N003119999999N0000001N9+00221+99999100981ADDGF106991999999999999999999
0029029350999991925012720004+62233+025733FM-12+009499999V0203601N001019999999N0000001N9-00061+99999100961ADDGF105991999999999999999999
0029029350999991925012806004+62233+025733FM-12+009499999V0203601N001019999999N0000001N9-00561+99999100831ADDGF100991999999999999999999
0029029350999991925012813004+62233+025733FM-12+009499999V0203601N001019999999N0000001N9-00331+99999100711ADDGF102991999999999999999999
0029029350999991925012820004+62233+025733FM-12+009499999V0209991C000019999999N0000001N9-00781+99999100701ADDGF100991999999999999999999
0029029350999991925012906004+62233+025733FM-12+009499999V0203601N009819999999N0000001N9-01171+99999100631ADDGF106991999999999999999999
0029029350999991925012913004+62233+025733FM-12+009499999V0203601N001019999999N0000001N9-00721+99999100431ADDGF108991999999999999999999
0029029350999991925012920004+62233+025733FM-12+009499999V0203601N001019999999N0000001N9-00441+99999100061ADDGF108991999999999999999999
0029029350999991925013006004+62233+025733FM-12+009499999V0201401N005119999999N0000001N9-00171+99999099161ADDGF108991999999999999999999
0035029350999991925013013004+62233+025733FM-12+009499999V0201601N007219999999N0000001N9-00171+99999098581ADDGF108991999999999999999999MW1701
0035029350999991925013020004+62233+025733FM-12+009499999V0201401N003119999999N0000001N9-00221+99999098231ADDGF108991999999999999999999MW1701
0029029350999991925013106004+62233+025733FM-12+009499999V0201801N002119999999N0000001N9-00061+99999098061ADDGF108991999999999999999999
0029029350999991925013113004+62233+025733FM-12+009499999V0201801N003119999999N0000001N9+00061+99999097741ADDGF108991999999999999999999
0029029350999991925013120004+62233+025733FM-12+009499999V0201401N005119999999N0000001N9+00001+99999097431ADDGF108991999999999999999999
0035029350999991925020106004+62233+025733FM-12+009499999V0200901N005119999999N0000001N9-00061+99999097101ADDGF108991999999999999999999MW1721
0035029350999991925020113004+62233+025733FM-12+009499999V0200501N001019999999N0000001N9-00171+99999097151ADDGF108991999999999999999999MW1721
0029029350999991925020120004+62233+025733FM-12+009499999V0200201N001019999999N0000001N9-00281+99999097641ADDGF108991999999999999999999
0029029350999991925020206004+62233+025733FM-12+009499999V0203601N003119999999N0000001N9-00611+99999098581ADDGF108991999999999999999999
0029029350999991925020213004+62233+025733FM-12+009499999V0203601N001019999999N0000001N9-00441+99999098981ADDGF108991999999999999999999
0029029350999991925020220004+62233+025733FM-12+009499999V0203601N001019999999N0000001N9-00501+99999099031ADDGF108991999999999999999999
0029029350999991925020306004+62233+025733FM-12+009499999V0203201N001019999999N0000001N9-00281+99999098461ADDGF108991999999999999999999
0029029350999991925020313004+62233+025733FM-12+009499999V0202301N001019999999N0000001N9-00171+99999098311ADDGF108991999999999999999999
0035029350999991925020320004+62233+025733FM-12+009499999V0202701N001019999999N0000001N9+00061+99999098441ADDGF108991999999999999999999MW1721
0029029350999991925020406004+62233+025733FM-12+009499999V0202701N001019999999N0000001N9-00561+99999098401ADDGF108991999999999999999999
0035029350999991925020413004+62233+025733FM-12+009499999V0200701N003119999999N0000001N9-00221+99999097821ADDGF108991999999999999999999MW1721
0029029350999991925020420004+62233+025733FM-12+009499999V0200501N003119999999N0000001N9-00171+99999098031ADDGF108991999999999999999999
0029029350999991925020506004+62233+025733FM-12+009499999V0202301N001019999999N0000001N9-00611+99999098671ADDGF100991999999999999999999
0029029350999991925020513004+62233+025733FM-12+009499999V0201801N001019999999N0000001N9-00281+99999098631ADDGF100991999999999999999999
0029029350999991925020520004+62233+025733FM-12+009499999V0201401N003119999999N0000001N9+00001+99999097661ADDGF108991999999999999999999
0029029350999991925020606004+62233+025733FM-12+009499999V0202701N005119999999N0000001N9+00171+99999097221ADDGF106991999999999999999999
0029029350999991925020613004+62233+025733FM-12+009499999V0202701N003119999999N0000001N9+00111+99999097181ADDGF108991999999999999999999
0029029350999991925020620004+62233+025733FM-12+009499999V0202701N005119999999N0000001N9+00171+99999096921ADDGF102991999999999999999999
0029029350999991925020706004+62233+025733FM-12+009499999V0202301N001019999999N0000001N9-00061+99999097351ADDGF108991999999999999999999
0029029350999991925020713004+62233+025733FM-12+009499999V0203201N005119999999N0000001N9-00061+99999098081ADDGF102991999999999999999999
0029029350999991925020720004+62233+025733FM-12+009499999V0209991C000019999999N0000001N9-00501+99999098541ADDGF100991999999999999999999
0029029350999991925020806004+62233+025733FM-12+009499999V0209991C000019999999N0000001N9-01561+99999099461ADDGF100991999999999999999999
0029029350999991925020813004+62233+025733FM-12+009499999V0209991C000019999999N0000001N9-00831+99999099581ADDGF100991999999999999999999
0029029350999991925020820004+62233+025733FM-12+009499999V0209991C000019999999N0000001N9-01171+99999099581ADDGF101991999999999999999999
0029029350999991925020906004+62233+025733FM-12+009499999V0201801N005119999999N0000001N9-00281+99999098751ADDGF108991999999999999999999
0029029350999991925020913004+62233+025733FM-12+009499999V0200701N005119999999N0000001N9+00001+99999097941ADDGF108991999999999999999999
0035029350999991925020920004+62233+025733FM-12+009499999V0201601N011819999999N0000001N9-00061+99999097111ADDGF108991999999999999999999MW1721
0029029350999991925021006004+62233+025733FM-12+009499999V0201801N005119999999N0000001N9+00111+99999097161ADDGF108991999999999999999999
0029029350999991925021013004+62233+025733FM-12+009499999V0202701N003119999999N0000001N9+00221+99999097671ADDGF108991999999999999999999
0029029350999991925021020004+62233+025733FM-12+009499999V0202701N003119999999N0000001N9-00171+99999098301ADDGF100991999999999999999999
0035029350999991925021106004+62233+025733FM-12+009499999V0201401N008719999999N0000001N9+00061+99999097281ADDGF108991999999999999999999MW1721
0029029350999991925021113004+62233+025733FM-12+009499999V0202501N005119999999N0000001N9+00331+99999097201ADDGF106991999999999999999999
0029029350999991925021120004+62233+025733FM-12+009499999V0202701N005119999999N0000001N9+00331+99999097681ADDGF108991999999999999999999
0029029350999991925021206004+62233+025733FM-12+009499999V0202701N001019999999N0000001N9+00281+99999098301ADDGF108991999999999999999999
0029029350999991925021213004+62233+025733FM-12+009499999V0202301N001019999999N0000001N9+00331+99999098561ADDGF108991999999999999999999
0029029350999991925021220004+62233+025733FM-12+009499999V0201801N005119999999N0000001N9+00331+99999098461ADDGF108991999999999999999999
0029029350999991925021306004+62233+025733FM-12+009499999V0202701N003119999999N0000001N9+00221+99999098801ADDGF102991999999999999999999
0029029350999991925021313004+62233+025733FM-12+009499999V0202301N005119999999N0000001N9+00331+99999099201ADDGF104991999999999999999999
0029029350999991925021320004+62233+025733FM-12+009499999V0202701N001019999999N0000001N9+00111+99999099711ADDGF100991999999999999999999
0029029350999991925021406004+62233+025733FM-12+009499999V0202701N003119999999N0000001N9+00111+99999100141ADDGF108991999999999999999999
0029029350999991925021413004+62233+025733FM-12+009499999V0201801N001019999999N0000001N9+00171+99999100271ADDGF103991999999999999999999
0029029350999991925021420004+62233+025733FM-12+009499999V0200901N001019999999N0000001N9+00061+99999100181ADDGF108991999999999999999999
0035029350999991925021506004+62233+025733FM-12+009499999V0201401N001019999999N0000001N9+00061+99999100021ADDGF108991999999999999999999MW1621
0029029350999991925021513004+62233+025733FM-12+009499999V0201801N001019999999N0000001N9+00111+99999100031ADDGF108991999999999999999999
0029029350999991925021520004+62233+025733FM-12+009499999V0201401N005119999999N0000001N9+00061+99999100021ADDGF108991999999999999999999
0029029350999991925021606004+62233+025733FM-12+009499999V0201601N001019999999N0000001N9+00111+99999099781ADDGF108991999999999999999999
0029029350999991925021613004+62233+025733FM-12+009499999V0201801N001019999999N0000001N9+00171+99999099781ADDGF108991999999999999999999
0029029350999991925021620004+62233+025733FM-12+009499999V0201801N001019999999N0000001N9+00111+99999099721ADDGF108991999999999999999999
0029029350999991925021706004+62233+025733FM-12+009499999V0201801N001019999999N0000001N9+00061+99999099521ADDGF108991999999999999999999
0029029350999991925021713004+62233+025733FM-12+009499999V0201601N001019999999N0000001N9+00111+99999099381ADDGF108991999999999999999999
0029029350999991925021720004+62233+025733FM-12+009499999V0209991C000019999999N0000001N9+00111+99999099001ADDGF108991999999999999999999
0029029350999991925021806004+62233+025733FM-12+009499999V0202701N003119999999N0000001N9+00111+99999098071ADDGF108991999999999999999999
0029029350999991925021813004+62233+025733FM-12+009499999V0202701N005119999999N0000001N9-00061+99999098281ADDGF108991999999999999999999
0029029350999991925021820004+62233+025733FM-12+009499999V0202701N007219999999N0000001N9-00221+99999098711ADDGF106991999999999999999999
0029029350999991925021906004+62233+025733FM-12+009499999V0202701N003119999999N0000001N9-00331+99999098791ADDGF108991999999999999999999
0029029350999991925021913004+62233+025733FM-12+009499999V0202701N003119999999N0000001N9-00391+99999098941ADDGF108991999999999999999999
0035029350999991925021920004+62233+025733FM-12+009499999V0202701N001019999999N0000001N9-00671+99999099181ADDGF108991999999999999999999MW1701
0029029350999991925022006004+62233+025733FM-12+009499999V0202701N001019999999N0000001N9-00941+99999099441ADDGF106991999999999999999999
0029029350999991925022013004+62233+025733FM-12+009499999V0203601N001019999999N0000001N9-00721+99999099541ADDGF106991999999999999999999
0029029350999991925022020004+62233+025733FM-12+009499999V0203601N001019999999N0000001N9-01221+99999099641ADDGF100991999999999999999999
0029029350999991925022106004+62233+025733FM-12+009499999V0203601N001019999999N0000001N9-01611+99999099861ADDGF100991999999999999999999
0029029350999991925022113004+62233+025733FM-12+009499999V0203601N001019999999N0000001N9-00671+99999099981ADDGF106991999999999999999999
0035029350999991925022120004+62233+025733FM-12+009499999V0203601N001019999999N0000001N9-00721+99999100031ADDGF108991999999999999999999MW1701
0029029350999991925022206004+62233+025733FM-12+009499999V0203601N003119999999N0000001N9-01001+99999100471ADDGF108991999999999999999999
0029029350999991925022213004+62233+025733FM-12+009499999V0203601N001019999999N0000001N9-00831+99999100901ADDGF100991999999999999999999
0029029350999991925022220004+62233+025733FM-12+009499999V0209991C000019999999N0000001N9-01441+99999101031ADDGF100991999999999999999999
0035029350999991925022306004+62233+025733FM-12+009499999V0203601N001019999999N0000001N9-00721+99999101361ADDGF108991999999999999999999MW1701
0029029350999991925022313004+62233+025733FM-12+009499999V0203601N001019999999N0000001N9-00111+99999101511ADDGF107991999999999999999999
0029029350999991925022320004+62233+025733FM-12+009499999V0209991C000019999999N0000001N9-00441+99999101511ADDGF108991999999999999999999
0029029350999991925022406004+62233+025733FM-12+009499999V0203601N001019999999N0000001N9-00721+99999101111ADDGF108991999999999999999999
0035029350999991925022413004+62233+025733FM-12+009499999V0200901N001019999999N0000001N9-00561+99999101061ADDGF106991999999999999999999MW1701
0029029350999991925022420004+62233+025733FM-12+009499999V0201101N001019999999N0000001N9-00781+99999101111ADDGF108991999999999999999999
0029029350999991925022506004+62233+025733FM-12+009499999V0200901N001019999999N0000001N9-00671+99999101041ADDGF108991999999999999999999
0035029350999991925022513004+62233+025733FM-12+009499999V0200901N003119999999N0000001N9-00501+99999100911ADDGF108991999999999999999999MW1721
0029029350999991925022520004+62233+025733FM-12+009499999V0200901N001019999999N0000001N9-00721+99999100721ADDGF108991999999999999999999
0029029350999991925022606004+62233+025733FM-12+009499999V0200901N001019999999N0000001N9-00781+99999100421ADDGF108991999999999999999999
0029029350999991925022613004+62233+025733FM-12+009499999V0200901N001019999999N0000001N9-00561+99999100421ADDGF108991999999999999999999
0029029350999991925022620004+62233+025733FM-12+009499999V0200901N001019999999N0000001N9-00891+99999100351ADDGF105991999999999999999999
0035029350999991925022706004+62233+025733FM-12+009499999V0200901N003119999999N0000001N9-00781+99999999999ADDGF108991999999999999999999MW1721
0035029350999991925022713004+62233+025733FM-12+009499999V0200901N001019999999N0000001N9-00501+99999099841ADDGF108991999999999999999999MW1721
0029029350999991925022720004+62233+025733FM-12+009499999V0201401N001019999999N0000001N9-00501+99999099831ADDGF108991999999999999999999
0029029350999991925022806004+62233+025733FM-12+009499999V0209991C000019999999N0000001N9-00611+99999099701ADDGF108991999999999999999999
0035029350999991925022813004+62233+025733FM-12+009499999V0209991C000019999999N0000001N9-00331+99999099821ADDGF108991999999999999999999MW1721
0035029350999991925022820004+62233+025733FM-12+009499999V0202701N001019999999N0000001N9-00281+99999099821ADDGF108991999999999999999999MW1721
0035029350999991925030106004+62233+025733FM-12+009499999V0202701N001019999999N0000001N9-00501+99999099871ADDGF108991999999999999999999MW1721
0035029350999991925030113004+62233+025733FM-12+009499999V0200901N001019999999N0000001N9-00331+99999100071ADDGF108991999999999999999999MW1721
0029029350999991925030120004+62233+025733FM-12+009499999V0200901N001019999999N0000001N9-00561+99999100241ADDGF108991999999999999999999
0029029350999991925030206004+62233+025733FM-12+009499999V0202701N001019999999N0000001N9-00781+99999100461ADDGF108991999999999999999999
0029029350999991925030213004+62233+025733FM-12+009499999V0200901N001019999999N0000001N9-00501+99999100521ADDGF108991999999999999999999
0035029350999991925030220004+62233+025733FM-12+009499999V0200901N001019999999N0000001N9-00721+99999100661ADDGF108991999999999999999999MW1721
0029029350999991925030306004+62233+025733FM-12+009499999V0200901N001019999999N0000001N9-01171+99999100781ADDGF108991999999999999999999
0029029350999991925030313004+62233+025733FM-12+009499999V0200701N001019999999N0000001N9-00671+99999100901ADDGF106991999999999999999999
0029029350999991925030320004+62233+025733FM-12+009499999V0209991C000019999999N0000001N9-01441+99999100871ADDGF100991999999999999999999
0029029350999991925030406004+62233+025733FM-12+009499999V0200901N001019999999N0000001N9-00611+99999100221ADDGF108991999999999999999999
0035029350999991925030413004+62233+025733FM-12+009499999V0202501N005119999999N0000001N9-00111+99999099521ADDGF108991999999999999999999MW1721
0029029350999991925030420004+62233+025733FM-12+009499999V0200901N005119999999N0000001N9-00061+99999098941ADDGF108991999999999999999999
0029029350999991925030506004+62233+025733FM-12+009499999V0209991C000019999999N0000001N9-00831+99999098581ADDGF100991999999999999999999
0029029350999991925030513004+62233+025733FM-12+009499999V0202701N003119999999N0000001N9-00331+99999098381ADDGF108991999999999999999999
0029029350999991925030520004+62233+025733FM-12+009499999V0202701N001019999999N0000001N9-00501+99999097641ADDGF106991999999999999999999
0035029350999991925030606004+62233+025733FM-12+009499999V0200901N005119999999N0000001N9-00441+99999096671ADDGF108991999999999999999999MW1721
0029029350999991925030613004+62233+025733FM-12+009499999V0200901N003119999999N0000001N9-00281+99999096581ADDGF108991999999999999999999
0035029350999991925030620004+62233+025733FM-12+009499999V0200501N005119999999N0000001N9-00441+99999096871ADDGF108991999999999999999999MW1721
0029029350999991925030706004+62233+025733FM-12+009499999V0200501N003119999999N0000001N9-01061+99999097121ADDGF108991999999999999999999
0029029350999991925030713004+62233+025733FM-12+009499999V0200201N001019999999N0000001N9-00781+99999097341ADDGF101991999999999999999999
0029029350999991925030720004+62233+025733FM-12+009499999V0203601N001019999999N0000001N9-01331+99999097621ADDGF100991999999999999999999
0035029350999991925030806004+62233+025733FM-12+009499999V0203601N001019999999N0000001N9-01171+99999098061ADDGF108991999999999999999999MW1721
0035029350999991925030813004+62233+025733FM-12+009499999V0209991C000019999999N0000001N9-00781+99999098181ADDGF107991999999999999999999MW1721
0029029350999991925030820004+62233+025733FM-12+009499999V0209991C000019999999N0000001N9-01171+99999098471ADDGF100991999999999999999999
0029029350999991925030906004+62233+025733FM-12+009499999V0203601N003119999999N0000001N9-01391+99999098941ADDGF108991999999999999999999
0029029350999991925030913004+62233+025733FM-12+009499999V0203601N001019999999N0000001N9-01001+99999099261ADDGF100991999999999999999999
0029029350999991925030920004+62233+025733FM-12+009499999V0203601N001019999999N0000001N9-01721+99999099521ADDGF100991999999999999999999
0029029350999991925031006004+62233+025733FM-12+009499999V0203601N001019999999N0000001N9-02061+99999099961ADDGF108991999999999999999999
0035029350999991925031013004+62233+025733FM-12+009499999V0203601N003119999999N0000001N9-00891+99999100221ADDGF108991999999999999999999MW1721
0029029350999991925031020004+62233+025733FM-12+009499999V0203601N001019999999N0000001N9-01221+99999100471ADDGF107991999999999999999999
0029029350999991925031106004+62233+025733FM-12+009499999V0209991C000019999999N0000001N9-01831+99999100351ADDGF100991999999999999999999
0035029350999991925031113004+62233+025733FM-12+009499999V0200201N003119999999N0000001N9-01171+99999100021ADDGF108991999999999999999999MW1721
0035029350999991925031120004+62233+025733FM-12+009499999V0200501N007219999999N0000001N9-01111+99999099601ADDGF108991999999999999999999MW1721
0029029350999991925031206004+62233+025733FM-12+009499999V0203601N007219999999N0000001N9-01281+99999099271ADDGF108991999999999999999999
0035029350999991925031213004+62233+025733FM-12+009499999V0200501N007219999999N0000001N9-01001+99999099321ADDGF107991999999999999999999MW1721
0029029350999991925031220004+62233+025733FM-12+009499999V0200501N001019999999N0000001N9-01111+99999099631ADDGF108991999999999999999999
0035029350999991925031306004+62233+025733FM-12+009499999V0203601N003119999999N0000001N9-01111+99999099711ADDGF108991999999999999999999MW1721
0029029350999991925031313004+62233+025733FM-12+009499999V0203601N001019999999N0000001N9-00671+99999099761ADDGF108991999999999999999999
0029029350999991925031320004+62233+025733FM-12+009499999V0209991C000019999999N0000001N9-01171+99999099941ADDGF100991999999999999999999
0029029350999991925031406004+62233+025733FM-12+009499999V0203601N001019999999N0000001N9-01001+99999099831ADDGF105991999999999999999999
0035029350999991925031413004+62233+025733FM-12+009499999V0203601N003119999999N0000001N9-00561+99999999999ADDGF108991999999999999999999MW1721
0035029350999991925031420004+62233+025733FM-12+009499999V0200501N001019999999N0000001N9-00831+99999100071ADDGF108991999999999999999999MW1721
0029029350999991925031506004+62233+025733FM-12+009499999V0209991C000019999999N0000001N9-01061+99999100511ADDGF108991999999999999999999
0035029350999991925031513004+62233+025733FM-12+009499999V0200201N001019999999N0000001N9-00441+99999100801ADDGF108991999999999999999999MW1721
0035029350999991925031520004+62233+025733FM-12+009499999V0200201N001019999999N0000001N9-00671+99999101021ADDGF108991999999999999999999MW1721
0029029350999991925031606004+62233+025733FM-12+009499999V0209991C000019999999N0000001N9-01441+99999101621ADDGF100991999999999999999999
0029029350999991925031613004+62233+025733FM-12+009499999V0200201N001019999999N0000001N9-00561+99999101641ADDGF104991999999999999999999
0029029350999991925031620004+62233+025733FM-12+009499999V0209991C000019999999N0000001N9-01221+99999101431ADDGF100991999999999999999999
0029029350999991925031706004+62233+025733FM-12+009499999V0209991C000019999999N0000001N9-02281+99999101181ADDGF100991999999999999999999
0029029350999991925031713004+62233+025733FM-12+009499999V0200201N001019999999N0000001N9-00281+99999101041ADDGF100991999999999999999999
0029029350999991925031720004+62233+025733FM-12+009499999V0209991C000019999999N0000001N9-01221+99999101061ADDGF100991999999999999999999
0029029350999991925031806004+62233+025733FM-12+009499999V0203601N001019999999N0000001N9-00781+99999100901ADDGF106991999999999999999999
0029029350999991925031813004+62233+025733FM-12+009499999V0202901N001019999999N0000001N9-00171+99999100701ADDGF108991999999999999999999
0029029350999991925031820004+62233+025733FM-12+009499999V0202901N001019999999N0000001N9-00111+99999100401ADDGF108991999999999999999999
0029029350999991925031906004+62233+025733FM-12+009499999V0202501N003119999999N0000001N9+00061+99999099681ADDGF106991999999999999999999
0029029350999991925031913004+62233+025733FM-12+009499999V0202701N008719999999N0000001N9+00501+99999099341ADDGF106991999999999999999999
0029029350999991925031920004+62233+025733FM-12+009499999V0202701N003119999999N0000001N9+00221+99999099201ADDGF100991999999999999999999
0029029350999991925032006004+62233+025733FM-12+009499999V0202701N001019999999N0000001N9-00391+99999098921ADDGF101991999999999999999999
0029029350999991925032013004+62233+025733FM-12+009499999V0202701N003119999999N0000001N9+00441+99999098641ADDGF102991999999999999999999
0029029350999991925032020004+62233+025733FM-12+009499999V0209991C000019999999N0000001N9-00061+99999098471ADDGF100991999999999999999999
0029029350999991925032106004+62233+025733FM-12+009499999V0202501N001019999999N0000001N9-00441+99999098441ADDGF108991999999999999999999
0029029350999991925032113004+62233+025733FM-12+009499999V0202901N001019999999N0000001N9+00221+99999098711ADDGF106991999999999999999999
0029029350999991925032120004+62233+025733FM-12+009499999V0200201N001019999999N0000001N9-00111+99999098951ADDGF100991999999999999999999
0029029350999991925032206004+62233+025733FM-12+009499999V0203601N001019999999N0000001N9-00391+99999099701ADDGF106991999999999999999999
0029029350999991925032213004+62233+025733FM-12+009499999V0200201N001019999999N0000001N9+00281+99999099701ADDGF105991999999999999999999
0029029350999991925032220004+62233+025733FM-12+009499999V0209991C000019999999N0000001N9-00441+99999099751ADDGF100991999999999999999999
0035029350999991925032306004+62233+025733FM-12+009499999V0203601N001019999999N0000001N9-00721+99999999999ADDGF108991999999999999999999MW1721
0035029350999991925032313004+62233+025733FM-12+009499999V0202701N003119999999N0000001N9-00061+99999100201ADDGF106991999999999999999999MW1721
0029029350999991925032320004+62233+025733FM-12+009499999V0209991C000019999999N0000001N9-00611+99999100361ADDGF100991999999999999999999
0029029350999991925032406004+62233+025733FM-12+009499999V0209991C000019999999N0000001N9-01611+99999100551ADDGF100991999999999999999999
0029029350999991925032413004+62233+025733FM-12+009499999V0202701N003119999999N0000001N9+00561+99999100591ADDGF101991999999999999999999
0029029350999991925032420004+62233+025733FM-12+009499999V0209991C000019999999N0000001N9-00281+99999100701ADDGF100991999999999999999999
0029029350999991925032506004+62233+025733FM-12+009499999V0209991C000019999999N0000001N9-01281+99999101021ADDGF100991999999999999999999
0029029350999991925032513004+62233+025733FM-12+009499999V0201401N003119999999N0000001N9+00281+99999101041ADDGF100991999999999999999999
0029029350999991925032520004+62233+025733FM-12+009499999V0209991C000019999999N0000001N9-00331+99999100911ADDGF100991999999999999999999
0029029350999991925032606004+62233+025733FM-12+009499999V0201401N003119999999N0000001N9-00501+99999101121ADDGF108991999999999999999999
0029029350999991925032613004+62233+025733FM-12+009499999V0201401N003119999999N0000001N9+00331+99999100921ADDGF102991999999999999999999
0029029350999991925032620004+62233+025733FM-12+009499999V0209991C000019999999N0000001N9-00221+99999100981ADDGF100991999999999999999999
0035029350999991925032706004+62233+025733FM-12+009499999V0201601N001019999999N0000001N9-00391+99999100921ADDGF108991999999999999999999MW1721
0029029350999991925032713004+62233+025733FM-12+009499999V0201601N001019999999N0000001N9+00171+99999100861ADDGF108991999999999999999999
0029029350999991925032720004+62233+025733FM-12+009499999V0201601N001019999999N0000001N9-00281+99999100681ADDGF102991999999999999999999
0029029350999991925032806004+62233+025733FM-12+009499999V0209991C000019999999N0000001N9-00781+99999100231ADDGF106991999999999999999999
0029029350999991925032813004+62233+025733FM-12+009499999V0201101N003119999999N0000001N9+00061+99999099921ADDGF107991999999999999999999
0035029350999991925032820004+62233+025733FM-12+009499999V0201101N003119999999N0000001N9-00171+99999099581ADDGF108991999999999999999999MW1721
0035029350999991925032906004+62233+025733FM-12+009499999V0203601N001019999999N0000001N9-00501+99999098621ADDGF108991999999999999999999MW1721
0035029350999991925032913004+62233+025733FM-12+009499999V0203601N001019999999N0000001N9-00331+99999098521ADDGF108991999999999999999999MW1721
0029029350999991925032920004+62233+025733FM-12+009499999V0203601N001019999999N0000001N9-00501+99999098751ADDGF108991999999999999999999
0029029350999991925033006004+62233+025733FM-12+009499999V0203201N001019999999N0000001N9-01061+99999099621ADDGF102991999999999999999999
0029029350999991925033013004+62233+025733FM-12+009499999V0209991C000019999999N0000001N9-00061+99999099791ADDGF100991999999999999999999
0029029350999991925033020004+62233+025733FM-12+009499999V0201101N001019999999N0000001N9-00501+99999099581ADDGF106991999999999999999999
0029029350999991925033106004+62233+025733FM-12+009499999V0201601N005119999999N0000001N9+00001+99999098841ADDGF108991999999999999999999
0029029350999991925033113004+62233+025733FM-12+009499999V0201401N005119999999N0000001N9+00281+99999098621ADDGF108991999999999999999999
0035029350999991925033120004+62233+025733FM-12+009499999V0202701N003119999999N0000001N9+00171+99999098471ADDGF108991999999999999999999MW1621
0029029350999991925040106004+62233+025733FM-12+009499999V0202701N001019999999N0000001N9+00111+99999099161ADDGF106991999999999999999999
0029029350999991925040113004+62233+025733FM-12+009499999V0201801N001019999999N0000001N9+00831+99999099381ADDGF102991999999999999999999
0035029350999991925040120004+62233+025733FM-12+009499999V0201801N001019999999N0000001N9+00281+99999099181ADDGF108991999999999999999999MW1621
0029029350999991925040206004+62233+025733FM-12+009499999V0201401N003119999999N0000001N9+00221+99999098591ADDGF106991999999999999999999
0029029350999991925040213004+62233+025733FM-12+009499999V0203601N003119999999N0000001N9+00561+99999099541ADDGF102991999999999999999999
0029029350999991925040220004+62233+025733FM-12+009499999V0209991C000019999999N0000001N9+00001+99999099641ADDGF100991999999999999999999
0029029350999991925040306004+62233+025733FM-12+009499999V0201401N005119999999N0000001N9-00061+99999099431ADDGF108991999999999999999999
0029029350999991925040313004+62233+025733FM-12+009499999V0201401N005119999999N0000001N9+00501+99999098911ADDGF108991999999999999999999
0029029350999991925040320004+62233+025733FM-12+009499999V0201401N003119999999N0000001N9+00171+99999098631ADDGF108991999999999999999999
0029029350999991925040406004+62233+025733FM-12+009499999V0202701N003119999999N0000001N9-00061+99999099001ADDGF101991999999999999999999
0029029350999991925040413004+62233+025733FM-12+009499999V0202701N005119999999N0000001N9+00671+99999099391ADDGF101991999999999999999999
0029029350999991925040420004+62233+025733FM-12+009499999V0202701N001019999999N0000001N9+00061+99999099881ADDGF102991999999999999999999
0029029350999991925040506004+62233+025733FM-12+009499999V0200201N001019999999N0000001N9+00001+99999100901ADDGF102991999999999999999999
0029029350999991925040513004+62233+025733FM-12+009499999V0209991C000019999999N0000001N9+00611+99999100951ADDGF100991999999999999999999
0029029350999991925040520004+62233+025733FM-12+009499999V0209991C000019999999N0000001N9-00061+99999100861ADDGF100991999999999999999999
0029029350999991925040606004+62233+025733FM-12+009499999V0209991C000019999999N0000001N9-00171+99999100901ADDGF100991999999999999999999
0029029350999991925040613004+62233+025733FM-12+009499999V0202701N001019999999N0000001N9+01001+99999100711ADDGF102991999999999999999999
0029029350999991925040620004+62233+025733FM-12+009499999V0209991C000019999999N0000001N9+00281+99999100681ADDGF100991999999999999999999
0029029350999991925040706004+62233+025733FM-12+009499999V0209991C000019999999N0000001N9-00221+99999100781ADDGF100991999999999999999999
0029029350999991925040713004+62233+025733FM-12+009499999V0202501N001019999999N0000001N9+01281+99999100631ADDGF100991999999999999999999
0029029350999991925040720004+62233+025733FM-12+009499999V0209991C000019999999N0000001N9+00441+99999100631ADDGF100991999999999999999999
0029029350999991925040806004+62233+025733FM-12+009499999V0209991C000019999999N0000001N9-00061+99999100801ADDGF103991999999999999999999
0029029350999991925040813004+62233+025733FM-12+009499999V0209991C000019999999N0000001N9+01561+99999100911ADDGF105991999999999999999999
0029029350999991925040820004+62233+025733FM-12+009499999V0209991C000019999999N0000001N9+00501+99999100951ADDGF103991999999999999999999
0029029350999991925040906004+62233+025733FM-12+009499999V0209991C000019999999N0000001N9+00001+99999100911ADDGF100991999999999999999999
0029029350999991925040913004+62233+025733FM-12+009499999V0201801N001019999999N0000001N9+01611+99999100681ADDGF100991999999999999999999
0029029350999991925040920004+62233+025733FM-12+009499999V0209991C000019999999N0000001N9+00391+99999100721ADDGF100991999999999999999999
0029029350999991925041006004+62233+025733FM-12+009499999V0209991C000019999999N0000001N9+00061+99999100941ADDGF100991999999999999999999
0029029350999991925041013004+62233+025733FM-12+009499999V0203401N001019999999N0000001N9+01611+99999100821ADDGF100991999999999999999999
0029029350999991925041020004+62233+025733FM-12+009499999V0209991C000019999999N0000001N9+00561+99999100981ADDGF100991999999999999999999
0029029350999991925041106004+62233+025733FM-12+009499999V0209991C000019999999N0000001N9+00111+99999101401ADDGF100991999999999999999999
0029029350999991925041113004+62233+025733FM-12+009499999V0203401N001019999999N0000001N9+01391+99999101401ADDGF100991999999999999999999
0029029350999991925041120004+62233+025733FM-12+009499999V0209991C000019999999N0000001N9+00441+99999101261ADDGF100991999999999999999999
0029029350999991925041206004+62233+025733FM-12+009499999V0209991C000019999999N0000001N9+00221+99999100841ADDGF100991999999999999999999
0029029350999991925041213004+62233+025733FM-12+009499999V0201601N003119999999N0000001N9+01391+99999100341ADDGF105991999999999999999999
0029029350999991925041220004+62233+025733FM-12+009499999V0201601N003119999999N0000001N9+00671+99999100071ADDGF108991999999999999999999
0029029350999991925041306004+62233+025733FM-12+009499999V0202701N001019999999N0000001N9+00391+99999099561ADDGF105991999999999999999999
0029029350999991925041313004+62233+025733FM-12+009499999V0209991C000019999999N0000001N9+00561+99999099471ADDGF107991999999999999999999
0029029350999991925041320004+62233+025733FM-12+009499999V0209991C000019999999N0000001N9+00331+99999099621ADDGF108991999999999999999999
0029029350999991925041406004+62233+025733FM-12+009499999V0209991C000019999999N0000001N9+00061+99999100071ADDGF100991999999999999999999
0029029350999991925041413004+62233+025733FM-12+009499999V0200901N001019999999N0000001N9+01171+99999100111ADDGF102991999999999999999999
0029029350999991925041420004+62233+025733FM-12+009499999V0209991C000019999999N0000001N9+00501+99999100101ADDGF100991999999999999999999
0029029350999991925041506004+62233+025733FM-12+009499999V0209991C000019999999N0000001N9+00171+99999100391ADDGF100991999999999999999999
0029029350999991925041513004+62233+025733FM-12+009499999V0201601N001019999999N0000001N9+01331+99999100191ADDGF100991999999999999999999
0029029350999991925041520004+62233+025733FM-12+009499999V0209991C000019999999N0000001N9+00721+99999099981ADDGF100991999999999999999999
0029029350999991925041606004+62233+025733FM-12+009499999V0209991C000019999999N0000001N9+00441+99999099281ADDGF100991999999999999999999
0029029350999991925041613004+62233+025733FM-12+009499999V0201801N007219999999N0000001N9+01441+99999098911ADDGF102991999999999999999999
0029029350999991925041620004+62233+025733FM-12+009499999V0202701N001019999999N0000001N9+00781+99999098741ADDGF107991999999999999999999
0029029350999991925041706004+62233+025733FM-12+009499999V0200901N005119999999N0000001N9+00611+99999098241ADDGF108991999999999999999999
0029029350999991925041713004+62233+025733FM-12+009499999V0201601N007219999999N0000001N9+00891+99999098431ADDGF104991999999999999999999
0035029350999991925041720004+62233+025733FM-12+009499999V0201401N013919999999N0000001N9+00501+99999098541ADDGF108991999999999999999999MW1621
0029029350999991925041806004+62233+025733FM-12+009499999V0202701N005119999999N0000001N9+00281+99999098761ADDGF102991999999999999999999
0029029350999991925041813004+62233+025733FM-12+009499999V0202501N005119999999N0000001N9+00941+99999098841ADDGF108991999999999999999999
0029029350999991925041820004+62233+025733FM-12+009499999V0202501N003119999999N0000001N9+00441+99999098921ADDGF106991999999999999999999
0029029350999991925041906004+62233+025733FM-12+009499999V0202501N001019999999N0000001N9+00221+99999099121ADDGF108991999999999999999999
0029029350999991925041913004+62233+025733FM-12+009499999V0201601N003119999999N0000001N9+00831+99999099191ADDGF104991999999999999999999
0029029350999991925041920004+62233+025733FM-12+009499999V0209991C000019999999N0000001N9+00171+99999099321ADDGF105991999999999999999999
0029029350999991925042006004+62233+025733FM-12+009499999V0201601N001019999999N0000001N9+00061+99999099431ADDGF100991999999999999999999
0029029350999991925042013004+62233+025733FM-12+009499999V0201601N005119999999N0000001N9+00671+99999099661ADDGF108991999999999999999999
0029029350999991925042020004+62233+025733FM-12+009499999V0209991C000019999999N0000001N9+00281+99999099561ADDGF100991999999999999999999
0029029350999991925042106004+62233+025733FM-12+009499999V0203601N001019999999N0000001N9+00001+99999099631ADDGF100991999999999999999999
0029029350999991925042113004+62233+025733FM-12+009499999V0200201N005119999999N0000001N9+00671+99999099761ADDGF107991999999999999999999
0029029350999991925042120004+62233+025733FM-12+009499999V0209991C000019999999N0000001N9+00221+99999099741ADDGF100991999999999999999999
0029029350999991925042206004+62233+025733FM-12+009499999V0203201N001019999999N0000001N9+00061+99999099961ADDGF108991999999999999999999
0029029350999991925042213004+62233+025733FM-12+009499999V0200201N003119999999N0000001N9+00671+99999999999ADDGF104991999999999999999999
0029029350999991925042220004+62233+025733FM-12+009499999V0203401N001019999999N0000001N9+00221+99999999999ADDGF108991999999999999999999
0029029350999991925042306004+62233+025733FM-12+009499999V0203401N001019999999N0000001N9+00061+99999099981ADDGF106991999999999999999999
0035029350999991925042313004+62233+025733FM-12+009499999V0201401N005119999999N0000001N9+00501+99999099901ADDGF108991999999999999999999MW1621
0035029350999991925042320004+62233+025733FM-12+009499999V0201401N001019999999N0000001N9+00391+99999099631ADDGF108991999999999999999999MW1621
0029029350999991925042406004+62233+025733FM-12+009499999V0200701N001019999999N0000001N9+00441+99999099471ADDGF108991999999999999999999
0029029350999991925042413004+62233+025733FM-12+009499999V0200901N005119999999N0000001N9+01561+99999099381ADDGF103991999999999999999999
0029029350999991925042420004+62233+025733FM-12+009499999V0200701N005119999999N0000001N9+01001+99999099321ADDGF100991999999999999999999
0029029350999991925042506004+62233+025733FM-12+009499999V0202701N001019999999N0000001N9+00671+99999099241ADDGF108991999999999999999999
0035029350999991925042513004+62233+025733FM-12+009499999V0209991C000019999999N0000001N9+00721+99999098911ADDGF108991999999999999999999MW1621
0029029350999991925042520004+62233+025733FM-12+009499999V0209991C000019999999N0000001N9+00501+99999098941ADDGF100991999999999999999999
0029029350999991925042606004+62233+025733FM-12+009499999V0209991C000019999999N0000001N9+00281+99999098991ADDGF104991999999999999999999
0029029350999991925042613004+62233+025733FM-12+009499999V0209991C000019999999N0000001N9+01111+99999099061ADDGF102991999999999999999999
0029029350999991925042620004+62233+025733FM-12+009499999V0209991C000019999999N0000001N9+00441+99999099281ADDGF100991999999999999999999
0029029350999991925042706004+62233+025733FM-12+009499999V0202501N001019999999N0000001N9+00111+99999099461ADDGF103991999999999999999999
0029029350999991925042713004+62233+025733FM-12+009499999V0202501N001019999999N0000001N9+01111+99999099161ADDGF108991999999999999999999
0029029350999991925042720004+62233+025733FM-12+009499999V0203601N001019999999N0000001N9+00721+99999098981ADDGF108991999999999999999999
0029029350999991925042806004+62233+025733FM-12+009499999V0200201N001019999999N0000001N9+00331+99999099271ADDGF108991999999999999999999
0035029350999991925042813004+62233+025733FM-12+009499999V0203201N003119999999N0000001N9+00391+99999099741ADDGF108991999999999999999999MW1621
0035029350999991925042820004+62233+025733FM-12+009499999V0203201N003119999999N0000001N9+00061+99999100201ADDGF108991999999999999999999MW1721
0029029350999991925042906004+62233+025733FM-12+009499999V0200501N005119999999N0000001N9+00001+99999100791ADDGF108991999999999999999999
0029029350999991925042913004+62233+025733FM-12+009499999V0200501N005119999999N0000001N9+00281+99999100871ADDGF108991999999999999999999
0035029350999991925042920004+62233+025733FM-12+009499999V0203601N005119999999N0000001N9+00111+99999100661ADDGF108991999999999999999999MW1721
0035029350999991925043006004+62233+025733FM-12+009499999V0200501N003119999999N0000001N9+00061+99999099671ADDGF108991999999999999999999MW1621
0029029350999991925043013004+62233+025733FM-12+009499999V0200901N003119999999N0000001N9+00331+99999099561ADDGF108991999999999999999999
0035029350999991925043020004+62233+025733FM-12+009499999V0200201N001019999999N0000001N9+00221+99999099441ADDGF108991999999999999999999MW1621
0052029350999991925050106004+62233+025733FM-12+009499999V0209991C000019999999N0000001N9+00111+99999098831ADDAJ100009199999999GF108991999999999999999999MW1621
0029029350999991925050113004+62233+025733FM-12+009499999V0201101N001019999999N0000001N9+00501+99999099281ADDGF107991999999999999999999
0035029350999991925050120004+62233+025733FM-12+009499999V0201101N001019999999N0000001N9+00391+99999099751ADDGF107991999999999999999999MW1601
0052029350999991925050206004+62233+025733FM-12+009499999V0202701N005119999999N0000001N9+00111+99999100461ADDAJ100009199999999GF108991999999999999999999MW1721
0029029350999991925050213004+62233+025733FM-12+009499999V0202501N002119999999N0000001N9+00891+99999100741ADDGF103991999999999999999999
0029029350999991925050220004+62233+025733FM-12+009499999V0209991C000019999999N0000001N9+00561+99999100961ADDGF105991999999999999999999
0046029350999991925050306004+62233+025733FM-12+009499999V0200901N001019999999N0000001N9+00611+99999101001ADDAJ100009199999999GF100991999999999999999999
0029029350999991925050313004+62233+025733FM-12+009499999V0200901N001019999999N0000001N9+01611+99999100621ADDGF101991999999999999999999
0029029350999991925050320004+62233+025733FM-12+009499999V0209991C000019999999N0000001N9+00831+99999100441ADDGF102991999999999999999999
0046029350999991925050406004+62233+025733FM-12+009499999V0201801N001019999999N0000001N9+00831+99999100281ADDAJ100009199999999GF106991999999999999999999
0035029350999991925050413004+62233+025733FM-12+009499999V0203601N001019999999N0000001N9+00831+99999100101ADDGF108991999999999999999999MW1621
0029029350999991925050420004+62233+025733FM-12+009499999V0202701N001019999999N0000001N9+00721+99999100161ADDGF107991999999999999999999
0046029350999991925050506004+62233+025733FM-12+009499999V0202701N001019999999N0000001N9+00501+99999100441ADDAJ100009199999999GF101991999999999999999999
0029029350999991925050513004+62233+025733FM-12+009499999V0202701N001019999999N0000001N9+01391+99999100631ADDGF101991999999999999999999
0029029350999991925050520004+62233+025733FM-12+009499999V0209991C000019999999N0000001N9+00721+99999100781ADDGF100991999999999999999999
0046029350999991925050606004+62233+025733FM-12+009499999V0203201N001019999999N0000001N9+00441+99999101191ADDAJ100009199999999GF102991999999999999999999
0029029350999991925050613004+62233+025733FM-12+009499999V0203201N001019999999N0000001N9+01281+99999101071ADDGF100991999999999999999999
0029029350999991925050620004+62233+025733FM-12+009499999V0209991C000019999999N0000001N9+00831+99999100881ADDGF100991999999999999999999
0046029350999991925050706004+62233+025733FM-12+009499999V0203201N001019999999N0000001N9+00501+99999100941ADDAJ100009199999999GF102991999999999999999999
0029029350999991925050713004+62233+025733FM-12+009499999V0200201N003119999999N0000001N9+01501+99999100801ADDGF102991999999999999999999
0029029350999991925050720004+62233+025733FM-12+009499999V0209991C000019999999N0000001N9+00831+99999100751ADDGF100991999999999999999999
0046029350999991925050806004+62233+025733FM-12+009499999V0200201N001019999999N0000001N9+00611+99999100711ADDAJ100009199999999GF103991999999999999999999
0029029350999991925050813004+62233+025733FM-12+009499999V0200901N003119999999N0000001N9+01671+99999100481ADDGF104991999999999999999999
0029029350999991925050820004+62233+025733FM-12+009499999V0209991C000019999999N0000001N9+01001+99999100421ADDGF102991999999999999999999
0052029350999991925050906004+62233+025733FM-12+009499999V0200901N001019999999N0000001N9+00671+99999100191ADDAJ100009199999999GF108991999999999999999999MW1621
0035029350999991925050913004+62233+025733FM-12+009499999V0200901N005119999999N0000001N9+01111+99999100201ADDGF108991999999999999999999MW1621
0029029350999991925050920004+62233+025733FM-12+009499999V0209991C000019999999N0000001N9+01221+99999100281ADDGF108991999999999999999999
0046029350999991925051006004+62233+025733FM-12+009499999V0203401N001019999999N0000001N9+01061+99999100381ADDAJ100009199999999GF108991999999999999999999
0029029350999991925051013004+62233+025733FM-12+009499999V0209991C000019999999N0000001N9+01221+99999100461ADDGF108991999999999999999999
0029029350999991925051020004+62233+025733FM-12+009499999V0209991C000019999999N0000001N9+01001+99999100501ADDGF103991999999999999999999
0046029350999991925051106004+62233+025733FM-12+009499999V0209991C000019999999N0000001N9+00941+99999100671ADDAJ100009199999999GF104991999999999999999999
0029029350999991925051113004+62233+025733FM-12+009499999V0201401N001019999999N0000001N9+01441+99999100641ADDGF108991999999999999999999
0035029350999991925051120004+62233+025733FM-12+009499999V0201401N001019999999N0000001N9+01281+99999100511ADDGF108991999999999999999999MW1621
0046029350999991925051206004+62233+025733FM-12+009499999V0209991C000019999999N0000001N9+01221+99999100141ADDAJ100009199999999GF108991999999999999999999
0029029350999991925051213004+62233+025733FM-12+009499999V0201101N005119999999N0000001N9+01671+99999100281ADDGF106991999999999999999999
0029029350999991925051220004+62233+025733FM-12+009499999V0209991C000019999999N0000001N9+01281+99999100351ADDGF102991999999999999999999
0046029350999991925051306004+62233+025733FM-12+009499999V0202701N001019999999N0000001N9+01001+99999100501ADDAJ100009199999999GF106991999999999999999999
0029029350999991925051313004+62233+025733FM-12+009499999V0202501N005119999999N0000001N9+01781+99999100441ADDGF108991999999999999999999
0029029350999991925051320004+62233+025733FM-12+009499999V0202901N001019999999N0000001N9+01281+99999100181ADDGF100991999999999999999999
0046029350999991925051406004+62233+025733FM-12+009499999V0202701N003119999999N0000001N9+01001+99999100151ADDAJ100009199999999GF108991999999999999999999
0029029350999991925051413004+62233+025733FM-12+009499999V0202701N005119999999N0000001N9+01561+99999100581ADDGF104991999999999999999999
0029029350999991925051420004+62233+025733FM-12+009499999V0202701N001019999999N0000001N9+01171+99999100601ADDGF102991999999999999999999
0046029350999991925051506004+62233+025733FM-12+009499999V0202701N001019999999N0000001N9+00831+99999100711ADDAJ100009199999999GF103991999999999999999999
0029029350999991925051513004+62233+025733FM-12+009499999V0203401N005119999999N0000001N9+01501+99999100681ADDGF104991999999999999999999
0029029350999991925051520004+62233+025733FM-12+009499999V0202901N003119999999N0000001N9+01111+99999100701ADDGF103991999999999999999999
0046029350999991925051606004+62233+025733FM-12+009499999V0209991C000019999999N0000001N9+00721+99999100871ADDAJ100009199999999GF100991999999999999999999
0029029350999991925051613004+62233+025733FM-12+009499999V0202901N003119999999N0000001N9+01501+99999100661ADDGF106991999999999999999999
0029029350999991925051620004+62233+025733FM-12+009499999V0203601N001019999999N0000001N9+01221+99999100671ADDGF107991999999999999999999
0046029350999991925051706004+62233+025733FM-12+009499999V0203601N003119999999N0000001N9+01171+99999100961ADDAJ100009199999999GF100991999999999999999999
0029029350999991925051713004+62233+025733FM-12+009499999V0200201N003119999999N0000001N9+01501+99999101101ADDGF103991999999999999999999
0029029350999991925051720004+62233+025733FM-12+009499999V0209991C000019999999N0000001N9+01061+99999101151ADDGF100991999999999999999999
0046029350999991925051806004+62233+025733FM-12+009499999V0203601N001019999999N0000001N9+01061+99999101511ADDAJ100009199999999GF100991999999999999999999
0029029350999991925051813004+62233+025733FM-12+009499999V0201401N003119999999N0000001N9+01941+99999101271ADDGF100991999999999999999999
0029029350999991925051820004+62233+025733FM-12+009499999V0209991C000019999999N0000001N9+01441+99999101041ADDGF102991999999999999999999
0046029350999991925051906004+62233+025733FM-12+009499999V0201801N001019999999N0000001N9+01331+99999100921ADDAJ100009199999999GF100991999999999999999999
0029029350999991925051913004+62233+025733FM-12+009499999V0202701N001019999999N0000001N9+02331+99999100551ADDGF106991999999999999999999
0029029350999991925051920004+62233+025733FM-12+009499999V0203601N001019999999N0000001N9+01611+99999100401ADDGF100991999999999999999999
0046029350999991925052006004+62233+025733FM-12+009499999V0203601N001019999999N0000001N9+01061+99999100191ADDAJ100009199999999GF108991999999999999999999
0029029350999991925052013004+62233+025733FM-12+009499999V0203601N001019999999N0000001N9+01611+99999099841ADDGF105991999999999999999999
0029029350999991925052020004+62233+025733FM-12+009499999V0209991C000019999999N0000001N9+01331+99999099511ADDGF105991999999999999999999
0046029350999991925052106004+62233+025733FM-12+009499999V0202701N003119999999N0000001N9+01001+99999098841ADDAJ100009199999999GF104991999999999999999999
0035029350999991925052113004+62233+025733FM-12+009499999V0202901N001019999999N0000001N9+00781+99999098361ADDGF108991999999999999999999MW1621
0035029350999991925052120004+62233+025733FM-12+009499999V0203601N003119999999N0000001N9+00111+99999098271ADDGF108991999999999999999999MW1721
0052029350999991925052206004+62233+025733FM-12+009499999V0203601N008719999999N0000001N9+00001+99999098151ADDAJ100009199999999GF108991999999999999999999MW1721
0029029350999991925052213004+62233+025733FM-12+009499999V0203401N005119999999N0000001N9+00281+99999098351ADDGF108991999999999999999999
0035029350999991925052220004+62233+025733FM-12+009499999V0203401N003119999999N0000001N9+00171+99999098751ADDGF108991999999999999999999MW1721
0046029350999991925052306004+62233+025733FM-12+009499999V0203201N007219999999N0000001N9+00111+99999099281ADDAJ100009199999999GF104991999999999999999999
0029029350999991925052313004+62233+025733FM-12+009499999V0203601N005119999999N0000001N9+00331+99999099751ADDGF108991999999999999999999
0035029350999991925052320004+62233+025733FM-12+009499999V0209991C000019999999N0000001N9+00171+99999100041ADDGF108991999999999999999999MW1721
0052029350999991925052406004+62233+025733FM-12+009499999V0203601N003119999999N0000001N9+00171+99999100281ADDAJ100009199999999GF108991999999999999999999MW1721
0029029350999991925052413004+62233+025733FM-12+009499999V0203601N001019999999N0000001N9+00501+99999100431ADDGF107991999999999999999999
0029029350999991925052420004+62233+025733FM-12+009499999V0209991C000019999999N0000001N9+00441+99999100431ADDGF107991999999999999999999
0046029350999991925052506004+62233+025733FM-12+009499999V0209991C000019999999N0000001N9+00441+99999100551ADDAJ100009199999999GF100991999999999999999999
0029029350999991925052513004+62233+025733FM-12+009499999V0201801N001019999999N0000001N9+01391+99999100591ADDGF103991999999999999999999
0029029350999991925052520004+62233+025733FM-12+009499999V0209991C000019999999N0000001N9+00941+99999100311ADDGF102991999999999999999999
0046029350999991925052606004+62233+025733FM-12+009499999V0200701N001019999999N0000001N9+00721+99999100101ADDAJ100009199999999GF100991999999999999999999
0029029350999991925052613004+62233+025733FM-12+009499999V0200201N001019999999N0000001N9+01671+99999099741ADDGF100991999999999999999999
0029029350999991925052620004+62233+025733FM-12+009499999V0209991C000019999999N0000001N9+01171+99999099751ADDGF101991999999999999999999
0046029350999991925052706004+62233+025733FM-12+009499999V0203601N001019999999N0000001N9+01001+99999099821ADDAJ100009199999999GF100991999999999999999999
0029029350999991925052713004+62233+025733FM-12+009499999V0200501N001019999999N0000001N9+01721+99999099861ADDGF103991999999999999999999
0029029350999991925052720004+62233+025733FM-12+009499999V0209991C000019999999N0000001N9+01281+99999099941ADDGF106991999999999999999999
0046029350999991925052806004+62233+025733FM-12+009499999V0209991C000019999999N0000001N9+01001+99999100361ADDAJ100009199999999GF108991999999999999999999
0029029350999991925052813004+62233+025733FM-12+009499999V0200901N003119999999N0000001N9+01671+99999100481ADDGF106991999999999999999999
0029029350999991925052820004+62233+025733FM-12+009499999V0209991C000019999999N0000001N9+01171+99999100581ADDGF101991999999999999999999
0046029350999991925052906004+62233+025733FM-12+009499999V0209991C000019999999N0000001N9+01111+99999100801ADDAJ100009199999999GF106991999999999999999999
0029029350999991925052913004+62233+025733FM-12+009499999V0200901N003119999999N0000001N9+01781+99999100791ADDGF107991999999999999999999
0029029350999991925052920004+62233+025733FM-12+009499999V0209991C000019999999N0000001N9+01391+99999100701ADDGF100991999999999999999999
0046029350999991925053006004+62233+025733FM-12+009499999V0201801N001019999999N0000001N9+01281+99999100511ADDAJ100009199999999GF100991999999999999999999
0029029350999991925053013004+62233+025733FM-12+009499999V0201401N007219999999N0000001N9+02061+99999100231ADDGF105991999999999999999999
0029029350999991925053020004+62233+025733FM-12+009499999V0201401N003119999999N0000001N9+01671+99999099951ADDGF106991999999999999999999
0046029350999991925053106004+62233+025733FM-12+009499999V0201401N005119999999N0000001N9+01441+99999099741ADDAJ100009199999999GF106991999999999999999999
0029029350999991925053113004+62233+025733FM-12+009499999V0201401N003119999999N0000001N9+01391+99999099581ADDGF108991999999999999999999
0029029350999991925053120004+62233+025733FM-12+009499999V0209991C000019999999N0000001N9+01001+99999099391ADDGF104991999999999999999999
0046029350999991925060106004+62233+025733FM-12+009499999V0203201N003119999999N0000001N9+01001+99999099381ADDAJ100009199999999GF108991999999999999999999
0029029350999991925060113004+62233+025733FM-12+009499999V0202701N005119999999N0000001N9+01221+99999099461ADDGF106991999999999999999999
0029029350999991925060120004+62233+025733FM-12+009499999V0209991C000019999999N0000001N9+00891+99999099701ADDGF105991999999999999999999
0046029350999991925060206004+62233+025733FM-12+009499999V0202701N003119999999N0000001N9+01171+99999100161ADDAJ100009199999999GF100991999999999999999999
0035029350999991925060213004+62233+025733FM-12+009499999V0202501N007219999999N0000001N9+01221+99999100301ADDGF104991999999999999999999MW1621
0029029350999991925060220004+62233+025733FM-12+009499999V0209991C000019999999N0000001N9+01001+99999100141ADDGF104991999999999999999999
0046029350999991925060306004+62233+025733FM-12+009499999V0202001N003119999999N0000001N9+01061+99999100111ADDAJ100009199999999GF100991999999999999999999
0029029350999991925060313004+62233+025733FM-12+009499999V0203401N001019999999N0000001N9+01561+99999099791ADDGF106991999999999999999999
0029029350999991925060320004+62233+025733FM-12+009499999V0209991C000019999999N0000001N9+01331+99999099701ADDGF106991999999999999999999
0046029350999991925060406004+62233+025733FM-12+009499999V0203601N001019999999N0000001N9+01061+99999099511ADDAJ100009199999999GF105991999999999999999999
0029029350999991925060413004+62233+025733FM-12+009499999V0200201N003119999999N0000001N9+01721+99999099561ADDGF104991999999999999999999
0029029350999991925060420004+62233+025733FM-12+009499999V0200201N005119999999N0000001N9+01061+99999099831ADDGF105991999999999999999999
0046029350999991925060506004+62233+025733FM-12+009499999V0203601N005119999999N0000001N9+00941+99999100381ADDAJ100009199999999GF108991999999999999999999
0029029350999991925060513004+62233+025733FM-12+009499999V0203601N005119999999N0000001N9+01561+99999100441ADDGF104991999999999999999999
0029029350999991925060520004+62233+025733FM-12+009499999V0200201N001019999999N0000001N9+01171+99999100831ADDGF106991999999999999999999
0046029350999991925060606004+62233+025733FM-12+009499999V0200501N005119999999N0000001N9+01061+99999101181ADDAJ100009199999999GF104991999999999999999999
0029029350999991925060613004+62233+025733FM-12+009499999V0200501N003119999999N0000001N9+01611+99999101341ADDGF106991999999999999999999
0029029350999991925060620004+62233+025733FM-12+009499999V0209991C000019999999N0000001N9+01111+99999101201ADDGF100991999999999999999999
0046029350999991925060706004+62233+025733FM-12+009499999V0200201N003119999999N0000001N9+01221+99999101381ADDAJ100009199999999GF100991999999999999999999
0029029350999991925060713004+62233+025733FM-12+009499999V0201801N001019999999N0000001N9+01831+99999100961ADDGF105991999999999999999999
0029029350999991925060720004+62233+025733FM-12+009499999V0201601N003119999999N0000001N9+01441+99999100761ADDGF107991999999999999999999
0046029350999991925060806004+62233+025733FM-12+009499999V0201601N001019999999N0000001N9+01331+99999100741ADDAJ100009199999999GF106991999999999999999999
0029029350999991925060813004+62233+025733FM-12+009499999V0203401N003119999999N0000001N9+01611+99999100821ADDGF108991999999999999999999
0029029350999991925060820004+62233+025733FM-12+009499999V0209991C000019999999N0000001N9+01441+99999100741ADDGF104991999999999999999999
0046029350999991925060906004+62233+025733FM-12+009499999V0203401N003119999999N0000001N9+01221+99999100901ADDAJ100009199999999GF100991999999999999999999
0029029350999991925060913004+62233+025733FM-12+009499999V0202501N001019999999N0000001N9+01721+99999100541ADDGF108991999999999999999999
0029029350999991925060920004+62233+025733FM-12+009499999V0202701N001019999999N0000001N9+01561+99999100301ADDGF107991999999999999999999
0046029350999991925061006004+62233+025733FM-12+009499999V0203401N001019999999N0000001N9+01391+99999100431ADDAJ100009199999999GF100991999999999999999999
0029029350999991925061013004+62233+025733FM-12+009499999V0203601N003119999999N0000001N9+02001+99999100361ADDGF104991999999999999999999
0029029350999991925061020004+62233+025733FM-12+009499999V0200501N007219999999N0000001N9+01391+99999100221ADDGF100991999999999999999999
0046029350999991925061106004+62233+025733FM-12+009499999V0203601N001019999999N0000001N9+01171+99999100471ADDAJ100009199999999GF106991999999999999999999
0029029350999991925061113004+62233+025733FM-12+009499999V0203401N001019999999N0000001N9+01501+99999100201ADDGF107991999999999999999999
0035029350999991925061120004+62233+025733FM-12+009499999V0209991C000019999999N0000001N9+01171+99999099871ADDGF108991999999999999999999MW1621
0046029350999991925061206004+62233+025733FM-12+009499999V0203601N001019999999N0000001N9+01001+99999099001ADDAJ100009199999999GF108991999999999999999999
0029029350999991925061213004+62233+025733FM-12+009499999V0203601N005119999999N0000001N9+01441+99999098601ADDGF106991999999999999999999
0029029350999991925061220004+62233+025733FM-12+009499999V0203601N001019999999N0000001N9+01221+99999098541ADDGF102991999999999999999999
0046029350999991925061306004+62233+025733FM-12+009499999V0203201N007219999999N0000001N9+00941+99999098421ADDAJ100009199999999GF108991999999999999999999
0029029350999991925061313004+62233+025733FM-12+009499999V0203601N005119999999N0000001N9+01111+99999098551ADDGF108991999999999999999999
0029029350999991925061320004+62233+025733FM-12+009499999V0203601N001019999999N0000001N9+01001+99999098471ADDGF100991999999999999999999
0046029350999991925061406004+62233+025733FM-12+009499999V0203601N003119999999N0000001N9+01111+99999098161ADDAJ100009199999999GF106991999999999999999999
0029029350999991925061413004+62233+025733FM-12+009499999V0201401N003119999999N0000001N9+01671+99999097951ADDGF104991999999999999999999
0029029350999991925061420004+62233+025733FM-12+009499999V0209991C000019999999N0000001N9+01221+99999097991ADDGF103991999999999999999999
0052029350999991925061506004+62233+025733FM-12+009499999V0203601N001019999999N0000001N9+00941+99999098461ADDAJ100009199999999GF108991999999999999999999MW1621
0029029350999991925061513004+62233+025733FM-12+009499999V0200901N005119999999N0000001N9+01671+99999098801ADDGF106991999999999999999999
0029029350999991925061520004+62233+025733FM-12+009499999V0209991C000019999999N0000001N9+01331+99999098961ADDGF103991999999999999999999
0046029350999991925061606004+62233+025733FM-12+009499999V0200501N001019999999N0000001N9+01221+99999099061ADDAJ100009199999999GF106991999999999999999999
0029029350999991925061613004+62233+025733FM-12+009499999V0200501N001019999999N0000001N9+01441+99999098831ADDGF108991999999999999999999
0029029350999991925061620004+62233+025733FM-12+009499999V0209991C000019999999N0000001N9+01331+99999098591ADDGF107991999999999999999999
0046029350999991925061706004+62233+025733FM-12+009499999V0201801N001019999999N0000001N9+01281+99999098041ADDAJ100009199999999GF107991999999999999999999
0029029350999991925061713004+62233+025733FM-12+009499999V0201101N005119999999N0000001N9+01611+99999097831ADDGF108991999999999999999999
0035029350999991925061720004+62233+025733FM-12+009499999V0201801N001019999999N0000001N9+01331+99999097831ADDGF108991999999999999999999MW1621
0052029350999991925061806004+62233+025733FM-12+009499999V0201801N001019999999N0000001N9+01061+99999097941ADDAJ100009199999999GF108991999999999999999999MW1621
0029029350999991925061813004+62233+025733FM-12+009499999V0201801N001019999999N0000001N9+01721+99999098311ADDGF105991999999999999999999
0029029350999991925061820004+62233+025733FM-12+009499999V0201801N001019999999N0000001N9+01281+99999098501ADDGF108991999999999999999999
0052029350999991925061906004+62233+025733FM-12+009499999V0203601N005119999999N0000001N9+01171+99999098271ADDAJ100009199999999GF108991999999999999999999MW1621
0029029350999991925061913004+62233+025733FM-12+009499999V0203601N005119999999N0000001N9+01441+99999098391ADDGF108991999999999999999999
0035029350999991925061920004+62233+025733FM-12+009499999V0200501N007219999999N0000001N9+01111+99999098581ADDGF108991999999999999999999MW1621
0046029350999991925062006004+62233+025733FM-12+009499999V0203601N003119999999N0000001N9+01001+99999098791ADDAJ100009199999999GF108991999999999999999999
0029029350999991925062013004+62233+025733FM-12+009499999V0200501N001019999999N0000001N9+01221+99999099071ADDGF108991999999999999999999
0035029350999991925062020004+62233+025733FM-12+009499999V0203601N003119999999N0000001N9+00721+99999099151ADDGF108991999999999999999999MW1621
0046029350999991925062106004+62233+025733FM-12+009499999V0200501N003119999999N0000001N9+01001+99999099341ADDAJ100009199999999GF108991999999999999999999
0029029350999991925062113004+62233+025733FM-12+009499999V0200701N001019999999N0000001N9+01781+99999099511ADDGF103991999999999999999999
0029029350999991925062120004+62233+025733FM-12+009499999V0209991C000019999999N0000001N9+01221+99999099551ADDGF103991999999999999999999
0046029350999991925062206004+62233+025733FM-12+009499999V0209991C000019999999N0000001N9+01171+99999100151ADDAJ100009199999999GF102991999999999999999999
0029029350999991925062213004+62233+025733FM-12+009499999V0201401N003119999999N0000001N9+02111+99999100341ADDGF103991999999999999999999
0029029350999991925062220004+62233+025733FM-12+009499999V0209991C000019999999N0000001N9+01441+99999100341ADDGF100991999999999999999999
0046029350999991925062306004+62233+025733FM-12+009499999V0209991C000019999999N0000001N9+01391+99999100661ADDAJ100009199999999GF100991999999999999999999
0029029350999991925062313004+62233+025733FM-12+009499999V0203601N001019999999N0000001N9+02391+99999100511ADDGF102991999999999999999999
0029029350999991925062320004+62233+025733FM-12+009499999V0209991C000019999999N0000001N9+01941+99999100391ADDGF102991999999999999999999
0046029350999991925062406004+62233+025733FM-12+009499999V0200501N005119999999N0000001N9+01781+99999099751ADDAJ100009199999999GF106991999999999999999999
0035029350999991925062413004+62233+025733FM-12+009499999V0200201N001019999999N0000001N9+01391+99999099061ADDGF108991999999999999999999MW1621
0035029350999991925062420004+62233+025733FM-12+009499999V0200201N003119999999N0000001N9+01281+99999098641ADDGF108991999999999999999999MW1621
0046029350999991925062506004+62233+025733FM-12+009499999V0201801N001019999999N0000001N9+01331+99999098361ADDAJ100009199999999GF107991999999999999999999
0029029350999991925062513004+62233+025733FM-12+009499999V0201401N003119999999N0000001N9+01561+99999098441ADDGF108991999999999999999999
0035029350999991925062520004+62233+025733FM-12+009499999V0202701N001019999999N0000001N9+01281+99999098921ADDGF107991999999999999999999MW1621
0046029350999991925062606004+62233+025733FM-12+009499999V0202701N001019999999N0000001N9+01331+99999099421ADDAJ100009199999999GF100991999999999999999999
0029029350999991925062613004+62233+025733FM-12+009499999V0201401N003119999999N0000001N9+02001+99999099401ADDGF108991999999999999999999
0035029350999991925062620004+62233+025733FM-12+009499999V0201601N001019999999N0000001N9+01331+99999099241ADDGF108991999999999999999999MW1621
0046029350999991925062706004+62233+025733FM-12+009499999V0202701N003119999999N0000001N9+01171+99999099071ADDAJ100009199999999GF108991999999999999999999
0029029350999991925062713004+62233+025733FM-12+009499999V0203601N001019999999N0000001N9+01501+99999099281ADDGF107991999999999999999999
0029029350999991925062720004+62233+025733FM-12+009499999V0209991C000019999999N0000001N9+01501+99999099461ADDGF103991999999999999999999
0046029350999991925062806004+62233+025733FM-12+009499999V0209991C000019999999N0000001N9+01391+99999099791ADDAJ100009199999999GF100991999999999999999999
0029029350999991925062813004+62233+025733FM-12+009499999V0203601N003119999999N0000001N9+02061+99999099921ADDGF102991999999999999999999
0029029350999991925062820004+62233+025733FM-12+009499999V0203601N001019999999N0000001N9+01561+99999100081ADDGF100991999999999999999999
0046029350999991925062906004+62233+025733FM-12+009499999V0203601N005119999999N0000001N9+01281+99999100541ADDAJ100009199999999GF100991999999999999999999
0029029350999991925062913004+62233+025733FM-12+009499999V0203601N005119999999N0000001N9+01941+99999100581ADDGF101991999999999999999999
0029029350999991925062920004+62233+025733FM-12+009499999V0209991C000019999999N0000001N9+01611+99999100661ADDGF100991999999999999999999
0046029350999991925063006004+62233+025733FM-12+009499999V0203601N003119999999N0000001N9+01561+99999100781ADDAJ100009199999999GF100991999999999999999999
0029029350999991925063013004+62233+025733FM-12+009499999V0200201N003119999999N0000001N9+02001+99999100861ADDGF104991999999999999999999
0029029350999991925063020004+62233+025733FM-12+009499999V0203601N003119999999N0000001N9+01501+99999100981ADDGF102991999999999999999999
0046029350999991925070106004+62233+025733FM-12+009499999V0203601N005119999999N0000001N9+01391+99999101061ADDAJ100009199999999GF100991999999999999999999
0029029350999991925070113004+62233+025733FM-12+009499999V0203601N007219999999N0000001N9+02001+99999101071ADDGF100991999999999999999999
0029029350999991925070120004+62233+025733FM-12+009499999V0203601N001019999999N0000001N9+01671+99999101101ADDGF100991999999999999999999
0046029350999991925070206004+62233+025733FM-12+009499999V0203601N007219999999N0000001N9+01441+99999101231ADDAJ100009199999999GF100991999999999999999999
0029029350999991925070213004+62233+025733FM-12+009499999V0200701N007219999999N0000001N9+02221+99999100921ADDGF100991999999999999999999
0029029350999991925070220004+62233+025733FM-12+009499999V0200501N001019999999N0000001N9+01721+99999100781ADDGF108991999999999999999999
0046029350999991925070306004+62233+025733FM-12+009499999V0200701N001019999999N0000001N9+01611+99999100751ADDAJ100009199999999GF106991999999999999999999
0029029350999991925070313004+62233+025733FM-12+009499999V0200701N003119999999N0000001N9+02561+99999100601ADDGF101991999999999999999999
0029029350999991925070320004+62233+025733FM-12+009499999V0200201N003119999999N0000001N9+02111+99999100521ADDGF100991999999999999999999
0046029350999991925070406004+62233+025733FM-12+009499999V0200201N003119999999N0000001N9+01721+99999100541ADDAJ100009199999999GF108991999999999999999999
0029029350999991925070413004+62233+025733FM-12+009499999V0200701N003119999999N0000001N9+02671+99999100541ADDGF100991999999999999999999
0035029350999991925070420004+62233+025733FM-12+009499999V0209991C000019999999N0000001N9+02001+99999100441ADDGF106991999999999999999999MW1621
0046029350999991925070506004+62233+025733FM-12+009499999V0201401N001019999999N0000001N9+02061+99999100401ADDAJ100009199999999GF108991999999999999999999
0029029350999991925070513004+62233+025733FM-12+009499999V0201101N001019999999N0000001N9+02831+99999100261ADDGF104991999999999999999999
0029029350999991925070520004+62233+025733FM-12+009499999V0201601N001019999999N0000001N9+02171+99999100191ADDGF106991999999999999999999
0046029350999991925070606004+62233+025733FM-12+009499999V0201801N003119999999N0000001N9+02061+99999100101ADDAJ100009199999999GF100991999999999999999999
0029029350999991925070613004+62233+025733FM-12+009499999V0201801N003119999999N0000001N9+02941+99999099911ADDGF100991999999999999999999
0029029350999991925070620004+62233+025733FM-12+009499999V0209991C000019999999N0000001N9+02221+99999099981ADDGF100991999999999999999999
0046029350999991925070706004+62233+025733FM-12+009499999V0201801N001019999999N0000001N9+02001+99999099941ADDAJ100009199999999GF102991999999999999999999
0029029350999991925070713004+62233+025733FM-12+009499999V0201801N001019999999N0000001N9+03061+99999099911ADDGF101991999999999999999999
0029029350999991925070720004+62233+025733FM-12+009499999V0209991C000019999999N0000001N9+02441+99999099911ADDGF101991999999999999999999
0046029350999991925070806004+62233+025733FM-12+009499999V0201801N001019999999N0000001N9+02171+99999099791ADDAJ100009199999999GF100991999999999999999999
0029029350999991925070813004+62233+025733FM-12+009499999V0201401N001019999999N0000001N9+03061+99999099591ADDGF102991999999999999999999
0029029350999991925070820004+62233+025733FM-12+009499999V0209991C000019999999N0000001N9+02331+99999099631ADDGF101991999999999999999999
0046029350999991925070906004+62233+025733FM-12+009499999V0201801N001019999999N0000001N9+02061+99999099561ADDAJ100009199999999GF100991999999999999999999
0029029350999991925070913004+62233+025733FM-12+009499999V0201601N005119999999N0000001N9+03111+99999099431ADDGF101991999999999999999999
0029029350999991925070920004+62233+025733FM-12+009499999V0209991C000019999999N0000001N9+02331+99999099221ADDGF102991999999999999999999
0046029350999991925071006004+62233+025733FM-12+009499999V0201601N005119999999N0000001N9+02061+99999099261ADDAJ100009199999999GF107991999999999999999999
0029029350999991925071013004+62233+025733FM-12+009499999V0200901N003119999999N0000001N9+02001+99999099381ADDGF106991999999999999999999
0029029350999991925071020004+62233+025733FM-12+009499999V0201601N003119999999N0000001N9+01721+99999099561ADDGF107991999999999999999999
0046029350999991925071106004+62233+025733FM-12+009499999V0200701N007219999999N0000001N9+01391+99999099841ADDAJ100009199999999GF105991999999999999999999
0029029350999991925071113004+62233+025733FM-12+009499999V0201401N003119999999N0000001N9+02111+99999099961ADDGF102991999999999999999999
0035029350999991925071120004+62233+025733FM-12+009499999V0202501N001019999999N0000001N9+01611+99999100231ADDGF108991999999999999999999MW1621
0046029350999991925071206004+62233+025733FM-12+009499999V0201801N001019999999N0000001N9+01561+99999100391ADDAJ100009199999999GF107991999999999999999999
0029029350999991925071213004+62233+025733FM-12+009499999V0209991C000019999999N0000001N9+01611+99999100351ADDGF108991999999999999999999
0029029350999991925071220004+62233+025733FM-12+009499999V0209991C000019999999N0000001N9+01561+99999100481ADDGF106991999999999999999999
0046029350999991925071306004+62233+025733FM-12+009499999V0202701N005119999999N0000001N9+01561+99999100791ADDAJ100009199999999GF101991999999999999999999
0029029350999991925071313004+62233+025733FM-12+009499999V0203201N001019999999N0000001N9+02061+99999100841ADDGF106991999999999999999999
0029029350999991925071320004+62233+025733FM-12+009499999V0209991C000019999999N0000001N9+01831+99999100861ADDGF100991999999999999999999
0046029350999991925071406004+62233+025733FM-12+009499999V0203401N001019999999N0000001N9+01611+99999101121ADDAJ100009199999999GF101991999999999999999999
0029029350999991925071413004+62233+025733FM-12+009499999V0200201N001019999999N0000001N9+02561+99999100961ADDGF100991999999999999999999
0029029350999991925071420004+62233+025733FM-12+009499999V0203201N001019999999N0000001N9+01891+99999100871ADDGF102991999999999999999999
0046029350999991925071506004+62233+025733FM-12+009499999V0203201N001019999999N0000001N9+01671+99999100991ADDAJ100009199999999GF104991999999999999999999
0029029350999991925071513004+62233+025733FM-12+009499999V0201801N001019999999N0000001N9+02611+99999100861ADDGF102991999999999999999999
0029029350999991925071520004+62233+025733FM-12+009499999V0209991C000019999999N0000001N9+01831+99999100721ADDGF107991999999999999999999
0046029350999991925071606004+62233+025733FM-12+009499999V0202701N001019999999N0000001N9+01611+99999100661ADDAJ100009199999999GF100991999999999999999999
0029029350999991925071613004+62233+025733FM-12+009499999V0201401N001019999999N0000001N9+02221+99999100471ADDGF107991999999999999999999
0029029350999991925071620004+62233+025733FM-12+009499999V0201801N001019999999N0000001N9+01671+99999100501ADDGF106991999999999999999999
0046029350999991925071706004+62233+025733FM-12+009499999V0209991C000019999999N0000001N9+01561+99999100441ADDAJ100009199999999GF106991999999999999999999
0029029350999991925071713004+62233+025733FM-12+009499999V0201801N001019999999N0000001N9+02331+99999100311ADDGF104991999999999999999999
0029029350999991925071720004+62233+025733FM-12+009499999V0209991C000019999999N0000001N9+01891+99999100341ADDGF106991999999999999999999
0046029350999991925071806004+62233+025733FM-12+009499999V0201801N001019999999N0000001N9+01561+99999100341ADDAJ100009199999999GF100991999999999999999999
0029029350999991925071813004+62233+025733FM-12+009499999V0200701N003119999999N0000001N9+02391+99999100201ADDGF102991999999999999999999
0029029350999991925071820004+62233+025733FM-12+009499999V0203601N001019999999N0000001N9+02061+99999100191ADDGF100991999999999999999999
0046029350999991925071906004+62233+025733FM-12+009499999V0203601N001019999999N0000001N9+02061+99999100281ADDAJ100009199999999GF100991999999999999999999
0029029350999991925071913004+62233+025733FM-12+009499999V0203601N003119999999N0000001N9+02721+99999100281ADDGF100991999999999999999999
0029029350999991925071920004+62233+025733FM-12+009499999V0203601N003119999999N0000001N9+02061+99999100311ADDGF100991999999999999999999
0046029350999991925072006004+62233+025733FM-12+009499999V0203601N001019999999N0000001N9+02001+99999100501ADDAJ100009199999999GF106991999999999999999999
0029029350999991925072013004+62233+025733FM-12+009499999V0203201N003119999999N0000001N9+02781+99999100431ADDGF103991999999999999999999
0029029350999991925072020004+62233+025733FM-12+009499999V0200201N001019999999N0000001N9+02001+99999100631ADDGF104991999999999999999999
0046029350999991925072106004+62233+025733FM-12+009499999V0203601N001019999999N0000001N9+01721+99999100901ADDAJ100009199999999GF102991999999999999999999
0029029350999991925072113004+62233+025733FM-12+009499999V0203601N003119999999N0000001N9+02561+99999100951ADDGF101991999999999999999999
0029029350999991925072120004+62233+025733FM-12+009499999V0203601N001019999999N0000001N9+02171+99999101001ADDGF100991999999999999999999
0046029350999991925072206004+62233+025733FM-12+009499999V0203601N001019999999N0000001N9+01721+99999101191ADDAJ100009199999999GF101991999999999999999999
0029029350999991925072213004+62233+025733FM-12+009499999V0203401N001019999999N0000001N9+02891+99999101041ADDGF101991999999999999999999
0029029350999991925072220004+62233+025733FM-12+009499999V0203601N001019999999N0000001N9+02331+99999101021ADDGF100991999999999999999999
0046029350999991925072306004+62233+025733FM-12+009499999V0203601N001019999999N0000001N9+02001+99999101061ADDAJ100009199999999GF100991999999999999999999
0029029350999991925072313004+62233+025733FM-12+009499999V0203201N001019999999N0000001N9+02941+99999100881ADDGF100991999999999999999999
0029029350999991925072320004+62233+025733FM-12+009499999V0209991C000019999999N0000001N9+02441+99999100641ADDGF100991999999999999999999
0046029350999991925072406004+62233+025733FM-12+009499999V0209991C000019999999N0000001N9+02061+99999100561ADDAJ100009199999999GF100991999999999999999999
0029029350999991925072413004+62233+025733FM-12+009499999V0201601N003119999999N0000001N9+03171+99999100201ADDGF102991999999999999999999
0029029350999991925072420004+62233+025733FM-12+009499999V0209991C000019999999N0000001N9+02611+99999100261ADDGF102991999999999999999999
0046029350999991925072506004+62233+025733FM-12+009499999V0209991C000019999999N0000001N9+02111+99999100471ADDAJ100009199999999GF102991999999999999999999
0029029350999991925072513004+62233+025733FM-12+009499999V0203401N001019999999N0000001N9+02781+99999100551ADDGF101991999999999999999999
0029029350999991925072520004+62233+025733FM-12+009499999V0209991C000019999999N0000001N9+02171+99999100591ADDGF100991999999999999999999
0046029350999991925072606004+62233+025733FM-12+009499999V0209991C000019999999N0000001N9+01941+99999100671ADDAJ100009199999999GF102991999999999999999999
0029029350999991925072613004+62233+025733FM-12+009499999V0209991C000019999999N0000001N9+03001+99999100441ADDGF102991999999999999999999
0029029350999991925072620004+62233+025733FM-12+009499999V0201801N001019999999N0000001N9+02221+99999100311ADDGF106991999999999999999999
0046029350999991925072706004+62233+025733FM-12+009499999V0201401N005119999999N0000001N9+02111+99999100381ADDAJ100009199999999GF100991999999999999999999
0029029350999991925072713004+62233+025733FM-12+009499999V0201401N005119999999N0000001N9+03001+99999100161ADDGF104991999999999999999999
0029029350999991925072720004+62233+025733FM-12+009499999V0201801N001019999999N0000001N9+02441+99999100071ADDGF100991999999999999999999
0046029350999991925072806004+62233+025733FM-12+009499999V0201801N001019999999N0000001N9+02171+99999099781ADDAJ100009199999999GF106991999999999999999999
0029029350999991925072813004+62233+025733FM-12+009499999V0201101N008719999999N0000001N9+03001+99999099461ADDGF103991999999999999999999
0029029350999991925072820004+62233+025733FM-12+009499999V0201601N001019999999N0000001N9+02221+99999099431ADDGF100991999999999999999999
0046029350999991925072906004+62233+025733FM-12+009499999V0201101N001019999999N0000001N9+02061+99999099401ADDAJ100009199999999GF103991999999999999999999
0029029350999991925072913004+62233+025733FM-12+009499999V0201801N001019999999N0000001N9+02331+99999099401ADDGF106991999999999999999999
0029029350999991925072920004+62233+025733FM-12+009499999V0202701N003119999999N0000001N9+01721+99999099401ADDGF108991999999999999999999
0046029350999991925073006004+62233+025733FM-12+009499999V0209991C000019999999N0000001N9+01721+99999099551ADDAJ100009199999999GF102991999999999999999999
0029029350999991925073013004+62233+025733FM-12+009499999V0201101N001019999999N0000001N9+02171+99999099361ADDGF106991999999999999999999
0029029350999991925073020004+62233+025733FM-12+009499999V0202701N001019999999N0000001N9+01721+99999099381ADDGF106991999999999999999999
0029029350999991925073113004+62233+025733FM-12+009499999V0201601N001019999999N0000001N9+02281+99999099041ADDGF106991999999999999999999
0029029350999991925073120004+62233+025733FM-12+009499999V0202301N001019999999N0000001N9+01721+99999098991ADDGF108991999999999999999999
0052029350999991925080106004+62233+025733FM-12+009499999V0202701N001019999999N0000001N9+01561+99999098711ADDAJ100009199999999GF108991999999999999999999MW1621
0029029350999991925080113004+62233+025733FM-12+009499999V0202701N003119999999N0000001N9+01781+99999098701ADDGF106991999999999999999999
0029029350999991925080120004+62233+025733FM-12+009499999V0203201N001019999999N0000001N9+01561+99999098801ADDGF100991999999999999999999
0046029350999991925080206004+62233+025733FM-12+009499999V0203201N003119999999N0000001N9+01671+99999099021ADDAJ100009199999999GF106991999999999999999999
0035029350999991925080213004+62233+025733FM-12+009499999V0203201N003119999999N0000001N9+01831+99999099081ADDGF108991999999999999999999MW1621
0035029350999991925080220004+62233+025733FM-12+009499999V0201601N001019999999N0000001N9+01781+99999099061ADDGF108991999999999999999999MW1621
0052029350999991925080306004+62233+025733FM-12+009499999V0209991C000019999999N0000001N9+01441+99999099081ADDAJ100009199999999GF108991999999999999999999MW1621
0029029350999991925080313004+62233+025733FM-12+009499999V0201601N001019999999N0000001N9+01831+99999099021ADDGF106991999999999999999999
0029029350999991925080320004+62233+025733FM-12+009499999V0203201N001019999999N0000001N9+01561+99999099111ADDGF100991999999999999999999
0046029350999991925080406004+62233+025733FM-12+009499999V0202701N001019999999N0000001N9+01281+99999098991ADDAJ100009199999999GF108991999999999999999999
0029029350999991925080413004+62233+025733FM-12+009499999V0202701N001019999999N0000001N9+02171+99999098861ADDGF106991999999999999999999
0035029350999991925080420004+62233+025733FM-12+009499999V0203201N001019999999N0000001N9+01721+99999098681ADDGF108991999999999999999999MW1621
0052029350999991925080506004+62233+025733FM-12+009499999V0200501N005119999999N0000001N9+01391+99999098231ADDAJ100009199999999GF108991999999999999999999MW1621
0029029350999991925080513004+62233+025733FM-12+009499999V0203601N003119999999N0000001N9+01501+99999097991ADDGF108991999999999999999999
0029029350999991925080520004+62233+025733FM-12+009499999V0203601N003119999999N0000001N9+01501+99999097991ADDGF108991999999999999999999
0046029350999991925080606004+62233+025733FM-12+009499999V0203601N001019999999N0000001N9+01331+99999098141ADDAJ100009199999999GF108991999999999999999999
0029029350999991925080613004+62233+025733FM-12+009499999V0200501N001019999999N0000001N9+01391+99999098321ADDGF108991999999999999999999
0035029350999991925080620004+62233+025733FM-12+009499999V0203601N001019999999N0000001N9+01171+99999098551ADDGF108991999999999999999999MW1621
0046029350999991925080706004+62233+025733FM-12+009499999V0203601N003119999999N0000001N9+01061+99999098991ADDAJ100009199999999GF108991999999999999999999
0029029350999991925080713004+62233+025733FM-12+009499999V0203601N003119999999N0000001N9+01171+99999099401ADDGF108991999999999999999999
0029029350999991925080720004+62233+025733FM-12+009499999V0203601N001019999999N0000001N9+01001+99999099821ADDGF100991999999999999999999
0046029350999991925080806004+62233+025733FM-12+009499999V0203601N001019999999N0000001N9+00831+99999100121ADDAJ100009199999999GF100991999999999999999999
0029029350999991925080813004+62233+025733FM-12+009499999V0201401N001019999999N0000001N9+01891+99999100361ADDGF100991999999999999999999
0029029350999991925080820004+62233+025733FM-12+009499999V0209991C000019999999N0000001N9+01281+99999100461ADDGF100991999999999999999999
0046029350999991925080906004+62233+025733FM-12+009499999V0209991C000019999999N0000001N9+00781+99999100641ADDAJ100009199999999GF100991999999999999999999
0029029350999991925080913004+62233+025733FM-12+009499999V0201101N001019999999N0000001N9+02111+99999100701ADDGF100991999999999999999999
0029029350999991925080920004+62233+025733FM-12+009499999V0209991C000019999999N0000001N9+01331+99999100521ADDGF100991999999999999999999
0046029350999991925081006004+62233+025733FM-12+009499999V0209991C000019999999N0000001N9+01001+99999100721ADDAJ100009199999999GF100991999999999999999999
0029029350999991925081013004+62233+025733FM-12+009499999V0201801N001019999999N0000001N9+02061+99999100511ADDGF104991999999999999999999
0029029350999991925081020004+62233+025733FM-12+009499999V0209991C000019999999N0000001N9+01441+99999100321ADDGF106991999999999999999999
0046029350999991925081106004+62233+025733FM-12+009499999V0201801N001019999999N0000001N9+01561+99999099991ADDAJ100009199999999GF107991999999999999999999
0035029350999991925081113004+62233+025733FM-12+009499999V0201801N005119999999N0000001N9+01831+99999099901ADDGF108991999999999999999999MW1621
0029029350999991925081120004+62233+025733FM-12+009499999V0201801N005119999999N0000001N9+01721+99999099541ADDGF102991999999999999999999
0046029350999991925081206004+62233+025733FM-12+009499999V0203201N001019999999N0000001N9+01781+99999099951ADDAJ100009199999999GF106991999999999999999999
0029029350999991925081213004+62233+025733FM-12+009499999V0203201N005119999999N0000001N9+02331+99999100271ADDGF103991999999999999999999
0029029350999991925081220004+62233+025733FM-12+009499999V0209991C000019999999N0000001N9+01721+99999100641ADDGF102991999999999999999999
0046029350999991925081306004+62233+025733FM-12+009499999V0209991C000019999999N0000001N9+01331+99999101001ADDAJ100009199999999GF100991999999999999999999
0029029350999991925081313004+62233+025733FM-12+009499999V0201601N003119999999N0000001N9+01941+99999100921ADDGF108991999999999999999999
0029029350999991925081320004+62233+025733FM-12+009499999V0201601N001019999999N0000001N9+01561+99999100701ADDGF100991999999999999999999
0046029350999991925081406004+62233+025733FM-12+009499999V0201801N003119999999N0000001N9+01441+99999100471ADDAJ100009199999999GF100991999999999999999999
0029029350999991925081413004+62233+025733FM-12+009499999V0201601N003119999999N0000001N9+02221+99999100221ADDGF106991999999999999999999
0029029350999991925081420004+62233+025733FM-12+009499999V0209991C000019999999N0000001N9+01781+99999099961ADDGF108991999999999999999999
0046029350999991925081506004+62233+025733FM-12+009499999V0201401N001019999999N0000001N9+01671+99999099751ADDAJ100009199999999GF106991999999999999999999
0029029350999991925081513004+62233+025733FM-12+009499999V0209991C000019999999N0000001N9+01831+99999099431ADDGF106991999999999999999999
0029029350999991925081520004+62233+025733FM-12+009499999V0201801N001019999999N0000001N9+01561+99999099361ADDGF107991999999999999999999
0046029350999991925081606004+62233+025733FM-12+009499999V0203401N003119999999N0000001N9+01281+99999099041ADDAJ100009199999999GF108991999999999999999999
0029029350999991925081613004+62233+025733FM-12+009499999V0203201N001019999999N0000001N9+01441+99999099101ADDGF108991999999999999999999
0029029350999991925081620004+62233+025733FM-12+009499999V0209991C000019999999N0000001N9+01501+99999099111ADDGF108991999999999999999999
0052029350999991925081706004+62233+025733FM-12+009499999V0203401N001019999999N0000001N9+01281+99999098821ADDAJ100009199999999GF108991999999999999999999MW1621
0029029350999991925081713004+62233+025733FM-12+009499999V0203201N003119999999N0000001N9+01781+99999098871ADDGF106991999999999999999999
0029029350999991925081720004+62233+025733FM-12+009499999V0209991C000019999999N0000001N9+01281+99999098761ADDGF103991999999999999999999
0046029350999991925081806004+62233+025733FM-12+009499999V0202901N001019999999N0000001N9+01221+99999098721ADDAJ100009199999999GF102991999999999999999999
0029029350999991925081813004+62233+025733FM-12+009499999V0202301N003119999999N0000001N9+01831+99999098981ADDGF103991999999999999999999
0029029350999991925081820004+62233+025733FM-12+009499999V0209991C000019999999N0000001N9+01221+99999099071ADDGF100991999999999999999999
0046029350999991925081906004+62233+025733FM-12+009499999V0200701N003119999999N0000001N9+01441+99999098911ADDAJ100009199999999GF106991999999999999999999
0029029350999991925081913004+62233+025733FM-12+009499999V0200501N003119999999N0000001N9+02001+99999098951ADDGF105991999999999999999999
0029029350999991925081920004+62233+025733FM-12+009499999V0209991C000019999999N0000001N9+01561+99999098961ADDGF106991999999999999999999
0046029350999991925082006004+62233+025733FM-12+009499999V0203201N001019999999N0000001N9+01391+99999099021ADDAJ100009199999999GF103991999999999999999999
0029029350999991925082013004+62233+025733FM-12+009499999V0200501N003119999999N0000001N9+02061+99999099071ADDGF105991999999999999999999
0035029350999991925082020004+62233+025733FM-12+009499999V0209991C000019999999N0000001N9+01561+99999099111ADDGF108991999999999999999999MW1621
0046029350999991925082106004+62233+025733FM-12+009499999V0203601N005119999999N0000001N9+01221+99999099351ADDAJ100009199999999GF108991999999999999999999
0029029350999991925082113004+62233+025733FM-12+009499999V0200201N005119999999N0000001N9+01331+99999099591ADDGF108991999999999999999999
0029029350999991925082120004+62233+025733FM-12+009499999V0203601N001019999999N0000001N9+01221+99999099911ADDGF108991999999999999999999
0046029350999991925082206004+62233+025733FM-12+009499999V0203601N001019999999N0000001N9+01171+99999100241ADDAJ100009199999999GF108991999999999999999999
0029029350999991925082213004+62233+025733FM-12+009499999V0203601N001019999999N0000001N9+01331+99999100471ADDGF108991999999999999999999
0029029350999991925082220004+62233+025733FM-12+009499999V0209991C000019999999N0000001N9+01281+99999100541ADDGF108991999999999999999999
0046029350999991925082306004+62233+025733FM-12+009499999V0209991C000019999999N0000001N9+01221+99999100861ADDAJ100009199999999GF108991999999999999999999
0029029350999991925082313004+62233+025733FM-12+009499999V0201601N001019999999N0000001N9+01941+99999100911ADDGF103991999999999999999999
0029029350999991925082320004+62233+025733FM-12+009499999V0209991C000019999999N0000001N9+01111+99999100961ADDGF103991999999999999999999
0046029350999991925082406004+62233+025733FM-12+009499999V0209991C000019999999N0000001N9+00611+99999101041ADDAJ100009199999999GF106991999999999999999999
0029029350999991925082413004+62233+025733FM-12+009499999V0201601N005119999999N0000001N9+02001+99999100981ADDGF101991999999999999999999
0029029350999991925082420004+62233+025733FM-12+009499999V0209991C000019999999N0000001N9+01111+99999100901ADDGF100991999999999999999999
0046029350999991925082506004+62233+025733FM-12+009499999V0209991C000019999999N0000001N9+00611+99999100951ADDAJ100009199999999GF106991999999999999999999
0029029350999991925082513004+62233+025733FM-12+009499999V0201101N003119999999N0000001N9+01941+99999100871ADDGF100991999999999999999999
0029029350999991925082520004+62233+025733FM-12+009499999V0201601N001019999999N0000001N9+01061+99999100801ADDGF100991999999999999999999
0046029350999991925082606004+62233+025733FM-12+009499999V0209991C000019999999N0000001N9+00671+99999100871ADDAJ100009199999999GF100991999999999999999999
0029029350999991925082613004+62233+025733FM-12+009499999V0203601N001019999999N0000001N9+02171+99999100781ADDGF100991999999999999999999
0029029350999991925082620004+62233+025733FM-12+009499999V0209991C000019999999N0000001N9+01171+99999100791ADDGF100991999999999999999999
0046029350999991925082706004+62233+025733FM-12+009499999V0203601N001019999999N0000001N9+00831+99999100901ADDAJ100009199999999GF102991999999999999999999
0029029350999991925082713004+62233+025733FM-12+009499999V0200201N001019999999N0000001N9+02171+99999100791ADDGF102991999999999999999999
0029029350999991925082720004+62233+025733FM-12+009499999V0201601N001019999999N0000001N9+01171+99999100781ADDGF100991999999999999999999
0046029350999991925082806004+62233+025733FM-12+009499999V0209991C000019999999N0000001N9+00721+99999100481ADDAJ100009199999999GF102991999999999999999999
0029029350999991925082813004+62233+025733FM-12+009499999V0203401N003119999999N0000001N9+01671+99999100341ADDGF101991999999999999999999
0029029350999991925082820004+62233+025733FM-12+009499999V0209991C000019999999N0000001N9+01111+99999100181ADDGF100991999999999999999999
0046029350999991925082906004+62233+025733FM-12+009499999V0209991C000019999999N0000001N9+01001+99999099871ADDAJ100009199999999GF108991999999999999999999
0035029350999991925082913004+62233+025733FM-12+009499999V0203401N001019999999N0000001N9+01171+99999099601ADDGF108991999999999999999999MW1621
