0029029110999991922010106004+63083+021617FM-12+000999999V0201801N001019999999N0000001N9-00831+99999099301ADDGF101991999999999999999999
0035029110999991922010113004+63083+021617FM-12+000999999V0201601N003119999999N0000001N9-00561+99999098551ADDGF107991999999999999999999MW1481
0035029110999991922010120004+63083+021617FM-12+000999999V0201601N005119999999N0000001N9-00331+99999097071ADDGF108991999999999999999999MW1721
0035029110999991922010206004+63083+021617FM-12+000999999V0201801N001019999999N0000001N9-00441+99999096181ADDGF106991999999999999999999MW1481
0035029110999991922010213004+63083+021617FM-12+000999999V0201601N002119999999N0000001N9-00331+99999095641ADDGF102991999999999999999999MW1481
0035029110999991922010220004+63083+021617FM-12+000999999V0200501N001019999999N0000001N9-00281+99999095681ADDGF108991999999999999999999MW1481
0029029110999991922010306004+63083+021617FM-12+000999999V0200501N001019999999N0000001N9-00781+99999096471ADDGF108991999999999999999999
0035029110999991922010313004+63083+021617FM-12+000999999V0200501N001019999999N0000001N9-00781+99999096901ADDGF108991999999999999999999MW1721
0035029110999991922010320004+63083+021617FM-12+000999999V0200501N001019999999N0000001N9-00721+99999097111ADDGF108991999999999999999999MW1721
0035029110999991922010406004+63083+021617FM-12+000999999V0200201N003119999999N0000001N9-00671+99999097321ADDGF108991999999999999999999MW1721
0035029110999991922010413004+63083+021617FM-12+000999999V0202901N001019999999N0000001N9-00721+99999097701ADDGF108991999999999999999999MW1721
0035029110999991922010420004+63083+021617FM-12+000999999V0203601N002119999999N0000001N9-00781+99999098421ADDGF108991999999999999999999MW1481
0029029110999991922010506004+63083+021617FM-12+000999999V0200701N002119999999N0000001N9-01721+99999099351ADDGF102991999999999999999999
0029029110999991922010513004+63083+021617FM-12+000999999V0200501N002119999999N0000001N9-01501+99999099921ADDGF108991999999999999999999
0029029110999991922010520004+63083+021617FM-12+000999999V0200501N001019999999N0000001N9-01111+99999100441ADDGF104991999999999999999999
0029029110999991922010606004+63083+021617FM-12+000999999V0200201N001019999999N0000001N9-00891+99999100861ADDGF108991999999999999999999
0029029110999991922010613004+63083+021617FM-12+000999999V0200201N002119999999N0000001N9-00671+99999100871ADDGF108991999999999999999999
0029029110999991922010620004+63083+021617FM-12+000999999V0200201N003119999999N0000001N9-00671+99999100791ADDGF108991999999999999999999
0029029110999991922010706004+63083+021617FM-12+000999999V0200201N002119999999N0000001N9-00611+99999100741ADDGF108991999999999999999999
0029029110999991922010713004+63083+021617FM-12+000999999V0203201N001019999999N0000001N9-00721+99999100901ADDGF108991999999999999999999
0029029110999991922010720004+63083+021617FM-12+000999999V0202701N001019999999N0000001N9-01001+99999100951ADDGF106991999999999999999999
0035029110999991922010806004+63083+021617FM-12+000999999V0201401N001019999999N0000001N9-00831+99999100781ADDGF107991999999999999999999MW1481
0029029110999991922010813004+63083+021617FM-12+000999999V0201101N002119999999N0000001N9-00941+99999100621ADDGF106991999999999999999999
0035029110999991922010820004+63083+021617FM-12+000999999V0201101N002119999999N0000001N9-00671+99999100271ADDGF108991999999999999999999MW1721
0029029110999991922010906004+63083+021617FM-12+000999999V0201801N001019999999N0000001N9-00331+99999100421ADDGF108991999999999999999999
0029029110999991922010913004+63083+021617FM-12+000999999V0202001N004119999999N0000001N9-00061+99999100671ADDGF108991999999999999999999
0029029110999991922010920004+63083+021617FM-12+000999999V0202001N003119999999N0000001N9-00111+99999100761ADDGF108991999999999999999999
0029029110999991922011006004+63083+021617FM-12+000999999V0201401N004119999999N0000001N9-00611+99999100141ADDGF108991999999999999999999
0035029110999991922011013004+63083+021617FM-12+000999999V0201401N004119999999N0000001N9-00941+99999099461ADDGF108991999999999999999999MW1721
0035029110999991922011020004+63083+021617FM-12+000999999V0201101N002119999999N0000001N9-00671+99999098941ADDGF108991999999999999999999MW1721
0029029110999991922011106004+63083+021617FM-12+000999999V0201801N001019999999N0000001N9-00501+99999099271ADDGF108991999999999999999999
0029029110999991922011113004+63083+021617FM-12+000999999V0200901N002119999999N0000001N9-00561+99999099591ADDGF108991999999999999999999
0029029110999991922011120004+63083+021617FM-12+000999999V0200701N001019999999N0000001N9-00831+99999100141ADDGF108991999999999999999999
0029029110999991922011206004+63083+021617FM-12+000999999V0200501N003119999999N0000001N9-01001+99999100961ADDGF106991999999999999999999
0029029110999991922011213004+63083+021617FM-12+000999999V0200501N002119999999N0000001N9-01001+99999101621ADDGF107991999999999999999999
0029029110999991922011220004+63083+021617FM-12+000999999V0200501N003119999999N0000001N9-01061+99999102191ADDGF108991999999999999999999
0029029110999991922011306004+63083+021617FM-12+000999999V0200701N003119999999N0000001N9-00891+99999102751ADDGF108991999999999999999999
0029029110999991922011313004+63083+021617FM-12+000999999V0200701N001019999999N0000001N9-00611+99999103061ADDGF108991999999999999999999
0029029110999991922011320004+63083+021617FM-12+000999999V0200701N001019999999N0000001N9-00611+99999103281ADDGF108991999999999999999999
0029029110999991922011406004+63083+021617FM-12+000999999V0200501N001019999999N0000001N9-00831+99999103351ADDGF108991999999999999999999
0029029110999991922011413004+63083+021617FM-12+000999999V0200501N003119999999N0000001N9-01061+99999103461ADDGF108991999999999999999999
0029029110999991922011420004+63083+021617FM-12+000999999V0200501N003119999999N0000001N9-00941+99999103261ADDGF108991999999999999999999
0029029110999991922011506004+63083+021617FM-12+000999999V0200701N003119999999N0000001N9-00941+99999102881ADDGF106991999999999999999999
0029029110999991922011513004+63083+021617FM-12+000999999V0200901N004119999999N0000001N9-01171+99999102861ADDGF102991999999999999999999
0029029110999991922011520004+63083+021617FM-12+000999999V0200901N004119999999N0000001N9-01391+99999102711ADDGF100991999999999999999999
0029029110999991922011606004+63083+021617FM-12+000999999V0200701N002119999999N0000001N9-01611+99999102541ADDGF107991999999999999999999
0029029110999991922011613004+63083+021617FM-12+000999999V0200701N002119999999N0000001N9-01781+99999102381ADDGF102991999999999999999999
0035029110999991922011620004+63083+021617FM-12+000999999V0200501N002119999999N0000001N9-01441+99999101911ADDGF108991999999999999999999MW1721
0029029110999991922011706004+63083+021617FM-12+000999999V0200701N003119999999N0000001N9-01221+99999101871ADDGF108991999999999999999999
0029029110999991922011713004+63083+021617FM-12+000999999V0200901N002119999999N0000001N9-01331+99999102241ADDGF108991999999999999999999
0029029110999991922011720004+63083+021617FM-12+000999999V0200701N001019999999N0000001N9-01611+99999102391ADDGF104991999999999999999999
0029029110999991922011806004+63083+021617FM-12+000999999V0200501N001019999999N0000001N9-01441+99999102401ADDGF108991999999999999999999
0029029110999991922011813004+63083+021617FM-12+000999999V0200701N001019999999N0000001N9-01441+99999102591ADDGF104991999999999999999999
0029029110999991922011820004+63083+021617FM-12+000999999V0200701N001019999999N0000001N9-01501+99999102601ADDGF108991999999999999999999
0029029110999991922011906004+63083+021617FM-12+000999999V0200701N001019999999N0000001N9-02001+99999102681ADDGF102991999999999999999999
0029029110999991922011913004+63083+021617FM-12+000999999V0200501N001019999999N0000001N9-01891+99999102781ADDGF102991999999999999999999
0029029110999991922011920004+63083+021617FM-12+000999999V0203601N001019999999N0000001N9-01441+99999102821ADDGF107991999999999999999999
0029029110999991922012006004+63083+021617FM-12+000999999V0201401N001019999999N0000001N9-01331+99999103041ADDGF108991999999999999999999
0029029110999991922012013004+63083+021617FM-12+000999999V0201601N001019999999N0000001N9-01331+99999103261ADDGF108991999999999999999999
0029029110999991922012020004+63083+021617FM-12+000999999V0201601N002119999999N0000001N9-01391+99999103301ADDGF103991999999999999999999
0029029110999991922012106004+63083+021617FM-12+000999999V0201601N002119999999N0000001N9-01221+99999103461ADDGF108991999999999999999999
0029029110999991922012113004+63083+021617FM-12+000999999V0201601N003119999999N0000001N9-01061+99999103701ADDGF108991999999999999999999
0035029110999991922012120004+63083+021617FM-12+000999999V0201601N003119999999N0000001N9-01221+99999103751ADDGF108991999999999999999999MW1761
0029029110999991922012206004+63083+021617FM-12+000999999V0201601N003119999999N0000001N9-00831+99999103801ADDGF108991999999999999999999
0029029110999991922012213004+63083+021617FM-12+000999999V0201801N002119999999N0000001N9-00501+99999103921ADDGF108991999999999999999999
0029029110999991922012220004+63083+021617FM-12+000999999V0202001N004119999999N0000001N9-00171+99999104021ADDGF108991999999999999999999
0029029110999991922012306004+63083+021617FM-12+000999999V0202001N003119999999N0000001N9-00221+99999104141ADDGF107991999999999999999999
0029029110999991922012313004+63083+021617FM-12+000999999V0202301N002119999999N0000001N9-00221+99999104151ADDGF100991999999999999999999
0029029110999991922012320004+63083+021617FM-12+000999999V0201801N001019999999N0000001N9-01221+99999104021ADDGF100991999999999999999999
0029029110999991922012406004+63083+021617FM-12+000999999V0202301N001019999999N0000001N9-00891+99999103831ADDGF108991999999999999999999
0029029110999991922012413004+63083+021617FM-12+000999999V0200501N002119999999N0000001N9-00501+99999103881ADDGF107991999999999999999999
0029029110999991922012420004+63083+021617FM-12+000999999V0200201N001019999999N0000001N9-00671+99999104101ADDGF108991999999999999999999
0029029110999991922012506004+63083+021617FM-12+000999999V0201801N001019999999N0000001N9-00941+99999104071ADDGF108991999999999999999999
0029029110999991922012513004+63083+021617FM-12+000999999V0201801N001019999999N0000001N9-00941+99999103911ADDGF108991999999999999999999
0029029110999991922012520004+63083+021617FM-12+000999999V0202301N001019999999N0000001N9-00611+99999103461ADDGF108991999999999999999999
0035029110999991922012606004+63083+021617FM-12+000999999V0202301N002119999999N0000001N9-00501+99999103191ADDGF108991999999999999999999MW1701
0035029110999991922012613004+63083+021617FM-12+000999999V0202301N002119999999N0000001N9-00501+99999102981ADDGF108991999999999999999999MW1481
0035029110999991922012620004+63083+021617FM-12+000999999V0202001N002119999999N0000001N9-00561+99999102711ADDGF108991999999999999999999MW1481
0035029110999991922012706004+63083+021617FM-12+000999999V0209991C000019999999N0000001N9-00611+99999102421ADDGF108991999999999999999999MW1481
0029029110999991922012713004+63083+021617FM-12+000999999V0200501N001019999999N0000001N9-00721+99999102441ADDGF108991999999999999999999
0035029110999991922012720004+63083+021617FM-12+000999999V0209991C000019999999N0000001N9-00671+99999102421ADDGF108991999999999999999999MW1481
0035029110999991922012806004+63083+021617FM-12+000999999V0201801N001019999999N0000001N9-00561+99999102111ADDGF108991999999999999999999MW1481
0029029110999991922012813004+63083+021617FM-12+000999999V0202301N001019999999N0000001N9-00441+99999101911ADDGF108991999999999999999999
0035029110999991922012820004+63083+021617FM-12+000999999V0202001N002119999999N0000001N9-00501+99999101631ADDGF108991999999999999999999MW1481
0035029110999991922012906004+63083+021617FM-12+000999999V0202301N003119999999N0000001N9-00561+99999101431ADDGF108991999999999999999999MW1481
0035029110999991922012913004+63083+021617FM-12+000999999V0202301N003119999999N0000001N9-00561+99999101431ADDGF108991999999999999999999MW1481
0029029110999991922012920004+63083+021617FM-12+000999999V0202301N002119999999N0000001N9-00611+99999101241ADDGF108991999999999999999999
0029029110999991922013006004+63083+021617FM-12+000999999V0202301N003119999999N0000001N9-00501+99999100871ADDGF108991999999999999999999
0029029110999991922013013004+63083+021617FM-12+000999999V0202001N004119999999N0000001N9-00441+99999100711ADDGF108991999999999999999999
0029029110999991922013020004+63083+021617FM-12+000999999V0202301N003119999999N0000001N9-00501+99999100561ADDGF108991999999999999999999
0029029110999991922013106004+63083+021617FM-12+000999999V0209991C000019999999N0000001N9-00831+99999100591ADDGF108991999999999999999999
0035029110999991922013113004+63083+021617FM-12+000999999V0200501N001019999999N0000001N9-00721+99999100921ADDGF108991999999999999999999MW1701
0035029110999991922013120004+63083+021617FM-12+000999999V0209991C000019999999N0000001N9-00721+99999101191ADDGF108991999999999999999999MW1701
0035029110999991922020106004+63083+021617FM-12+000999999V0200501N002119999999N0000001N9-01331+99999101541ADDGF100991999999999999999999MW1481
0035029110999991922020113004+63083+021617FM-12+000999999V0200201N002119999999N0000001N9-01331+99999101951ADDGF100991999999999999999999MW1481
0035029110999991922020120004+63083+021617FM-12+000999999V0200201N001019999999N0000001N9-01671+99999102201ADDGF100991999999999999999999MW1481
0035029110999991922020206004+63083+021617FM-12+000999999V0200501N001019999999N0000001N9-02001+99999102351ADDGF100991999999999999999999MW1481
0035029110999991922020213004+63083+021617FM-12+000999999V0200501N001019999999N0000001N9-01501+99999102581ADDGF108991999999999999999999MW1481
0035029110999991922020220004+63083+021617FM-12+000999999V0200501N001019999999N0000001N9-01611+99999102541ADDGF106991999999999999999999MW1481
0035029110999991922020306004+63083+021617FM-12+000999999V0200201N001019999999N0000001N9-02001+99999102301ADDGF100991999999999999999999MW1481
0035029110999991922020313004+63083+021617FM-12+000999999V0200501N001019999999N0000001N9-01941+99999102121ADDGF100991999999999999999999MW1481
0035029110999991922020320004+63083+021617FM-12+000999999V0200501N001019999999N0000001N9-02501+99999102071ADDGF101991999999999999999999MW1481
0035029110999991922020406004+63083+021617FM-12+000999999V0200201N001019999999N0000001N9-02831+99999102031ADDGF100991999999999999999999MW1481
0035029110999991922020413004+63083+021617FM-12+000999999V0200201N002119999999N0000001N9-02281+99999102071ADDGF100991999999999999999999MW1481
0035029110999991922020420004+63083+021617FM-12+000999999V0200201N001019999999N0000001N9-02281+99999102121ADDGF100991999999999999999999MW1481
0035029110999991922020506004+63083+021617FM-12+000999999V0200501N004119999999N0000001N9-02281+99999102321ADDGF101991999999999999999999MW1481
0029029110999991922020513004+63083+021617FM-12+000999999V0200201N002119999999N0000001N9-01781+99999102661ADDGF101991999999999999999999
0035029110999991922020520004+63083+021617FM-12+000999999V0200201N001019999999N0000001N9-02001+99999102821ADDGF100991999999999999999999MW1481
0035029110999991922020606004+63083+021617FM-12+000999999V0200201N001019999999N0000001N9-02061+99999102901ADDGF100991999999999999999999MW1481
0029029110999991922020613004+63083+021617FM-12+000999999V0200201N001019999999N0000001N9-01561+99999103101ADDGF100991999999999999999999
0035029110999991922020620004+63083+021617FM-12+000999999V0200901N001019999999N0000001N9-02061+99999103141ADDGF100991999999999999999999MW1481
0035029110999991922020706004+63083+021617FM-12+000999999V0201101N001019999999N0000001N9-02221+99999103041ADDGF101991999999999999999999MW1481
0035029110999991922020713004+63083+021617FM-12+000999999V0200901N001019999999N0000001N9-01781+99999102881ADDGF106991999999999999999999MW1481
0035029110999991922020720004+63083+021617FM-12+000999999V0209991C000019999999N0000001N9-02061+99999102661ADDGF106991999999999999999999MW1481
0035029110999991922020806004+63083+021617FM-12+000999999V0202001N003119999999N0000001N9-01221+99999102231ADDGF108991999999999999999999MW1481
0035029110999991922020813004+63083+021617FM-12+000999999V0201801N003119999999N0000001N9-01061+99999102101ADDGF108991999999999999999999MW1701
0029029110999991922020820004+63083+021617FM-12+000999999V0201801N003119999999N0000001N9-00891+99999101711ADDGF108991999999999999999999
0035029110999991922020906004+63083+021617FM-12+000999999V0202301N005119999999N0000001N9-00281+99999101721ADDGF108991999999999999999999MW1481
0029029110999991922020913004+63083+021617FM-12+000999999V0202501N003119999999N0000001N9-00111+99999102481ADDGF106991999999999999999999
0035029110999991922020920004+63083+021617FM-12+000999999V0202701N001019999999N0000001N9-00561+99999102921ADDGF100991999999999999999999MW1481
0035029110999991922021006004+63083+021617FM-12+000999999V0202301N001019999999N0000001N9-00671+99999103281ADDGF107991999999999999999999MW1481
0029029110999991922021013004+63083+021617FM-12+000999999V0202001N005119999999N0000001N9-00221+99999103431ADDGF106991999999999999999999
0029029110999991922021020004+63083+021617FM-12+000999999V0202301N007219999999N0000001N9-00281+99999102961ADDGF107991999999999999999999
0029029110999991922021106004+63083+021617FM-12+000999999V0202301N006219999999N0000001N9-00171+99999102191ADDGF108991999999999999999999
0029029110999991922021113004+63083+021617FM-12+000999999V0202301N006219999999N0000001N9+00061+99999101761ADDGF108991999999999999999999
0029029110999991922021120004+63083+021617FM-12+000999999V0202701N001019999999N0000001N9-00061+99999101461ADDGF106991999999999999999999
0029029110999991922021206004+63083+021617FM-12+000999999V0202501N003119999999N0000001N9+00171+99999101361ADDGF106991999999999999999999
0029029110999991922021213004+63083+021617FM-12+000999999V0202301N002119999999N0000001N9+00171+99999101511ADDGF101991999999999999999999
0029029110999991922021220004+63083+021617FM-12+000999999V0202701N001019999999N0000001N9-00221+99999101401ADDGF103991999999999999999999
0035029110999991922021306004+63083+021617FM-12+000999999V0202501N001019999999N0000001N9-00391+99999101221ADDGF101991999999999999999999MW1481
0029029110999991922021313004+63083+021617FM-12+000999999V0202301N001019999999N0000001N9+00061+99999101041ADDGF100991999999999999999999
0035029110999991922021320004+63083+021617FM-12+000999999V0201801N001019999999N0000001N9-00441+99999100601ADDGF108991999999999999999999MW1701
0035029110999991922021406004+63083+021617FM-12+000999999V0201801N002119999999N0000001N9-00561+99999100161ADDGF101991999999999999999999MW1481
0029029110999991922021413004+63083+021617FM-12+000999999V0202001N004119999999N0000001N9-00061+99999099981ADDGF103991999999999999999999
0029029110999991922021420004+63083+021617FM-12+000999999V0201601N001019999999N0000001N9-00281+99999099641ADDGF108991999999999999999999
0029029110999991922021506004+63083+021617FM-12+000999999V0201101N001019999999N0000001N9-00331+99999099241ADDGF108991999999999999999999
0029029110999991922021513004+63083+021617FM-12+000999999V0200701N001019999999N0000001N9-00171+99999099521ADDGF108991999999999999999999
0029029110999991922021520004+63083+021617FM-12+000999999V0200201N001019999999N0000001N9-00331+99999099901ADDGF108991999999999999999999
0029029110999991922021606004+63083+021617FM-12+000999999V0200201N002119999999N0000001N9-00561+99999100511ADDGF108991999999999999999999
0029029110999991922021613004+63083+021617FM-12+000999999V0200201N002119999999N0000001N9-00391+99999100881ADDGF108991999999999999999999
0029029110999991922021620004+63083+021617FM-12+000999999V0200701N001019999999N0000001N9-00671+99999101261ADDGF108991999999999999999999
0035029110999991922021706004+63083+021617FM-12+000999999V0209991C000019999999N0000001N9-01441+99999101421ADDGF108991999999999999999999MW1481
0029029110999991922021713004+63083+021617FM-12+000999999V0209991C000019999999N0000001N9-01001+99999101421ADDGF104991999999999999999999
0029029110999991922021720004+63083+021617FM-12+000999999V0201801N001019999999N0000001N9-01221+99999101201ADDGF108991999999999999999999
0029029110999991922021806004+63083+021617FM-12+000999999V0201101N001019999999N0000001N9-00721+99999100881ADDGF108991999999999999999999
0035029110999991922021813004+63083+021617FM-12+000999999V0201601N001019999999N0000001N9-00391+99999100681ADDGF108991999999999999999999MW1721
0029029110999991922021820004+63083+021617FM-12+000999999V0201401N001019999999N0000001N9-00611+99999100461ADDGF108991999999999999999999
0029029110999991922021906004+63083+021617FM-12+000999999V0200901N001019999999N0000001N9-00781+99999100041ADDGF108991999999999999999999
0029029110999991922021913004+63083+021617FM-12+000999999V0200901N001019999999N0000001N9-00501+99999100031ADDGF102991999999999999999999
0029029110999991922021920004+63083+021617FM-12+000999999V0201101N001019999999N0000001N9-00721+99999999999ADDGF108991999999999999999999
0029029110999991922022006004+63083+021617FM-12+000999999V0200901N001019999999N0000001N9-00781+99999099861ADDGF108991999999999999999999
0029029110999991922022013004+63083+021617FM-12+000999999V0200901N001019999999N0000001N9-00441+99999099871ADDGF108991999999999999999999
0029029110999991922022020004+63083+021617FM-12+000999999V0200701N001019999999N0000001N9-00831+99999099941ADDGF102991999999999999999999
0035029110999991922022106004+63083+021617FM-12+000999999V0200901N001019999999N0000001N9-00561+99999100121ADDGF108991999999999999999999MW1481
0029029110999991922022113004+63083+021617FM-12+000999999V0200701N001019999999N0000001N9-00331+99999100441ADDGF103991999999999999999999
0029029110999991922022120004+63083+021617FM-12+000999999V0200201N001019999999N0000001N9-00721+99999100721ADDGF104991999999999999999999
0035029110999991922022206004+63083+021617FM-12+000999999V0201601N001019999999N0000001N9-00611+99999100821ADDGF108991999999999999999999MW1721
0029029110999991922022213004+63083+021617FM-12+000999999V0202001N003119999999N0000001N9-00111+99999100901ADDGF108991999999999999999999
0029029110999991922022220004+63083+021617FM-12+000999999V0202001N007219999999N0000001N9-00111+99999100751ADDGF108991999999999999999999
0035029110999991922022306004+63083+021617FM-12+000999999V0201601N005119999999N0000001N9-00221+99999100351ADDGF108991999999999999999999MW1701
0029029110999991922022313004+63083+021617FM-12+000999999V0201801N003119999999N0000001N9+00001+99999100231ADDGF108991999999999999999999
0029029110999991922022320004+63083+021617FM-12+000999999V0202001N004119999999N0000001N9-00061+99999100271ADDGF108991999999999999999999
0029029110999991922022406004+63083+021617FM-12+000999999V0201601N003119999999N0000001N9-00061+99999100271ADDGF108991999999999999999999
0029029110999991922022413004+63083+021617FM-12+000999999V0201601N005119999999N0000001N9+00061+99999100261ADDGF108991999999999999999999
0029029110999991922022420004+63083+021617FM-12+000999999V0201801N001019999999N0000001N9-00061+99999100561ADDGF108991999999999999999999
0029029110999991922022506004+63083+021617FM-12+000999999V0201601N003119999999N0000001N9-00061+99999100141ADDGF108991999999999999999999
0029029110999991922022513004+63083+021617FM-12+000999999V0201801N005119999999N0000001N9+00171+99999099861ADDGF108991999999999999999999
0029029110999991922022520004+63083+021617FM-12+000999999V0201801N003119999999N0000001N9+00061+99999099791ADDGF104991999999999999999999
0029029110999991922022606004+63083+021617FM-12+000999999V0202301N001019999999N0000001N9+00001+99999099881ADDGF102991999999999999999999
0029029110999991922022613004+63083+021617FM-12+000999999V0201801N003119999999N0000001N9+00171+99999099511ADDGF108991999999999999999999
0029029110999991922022620004+63083+021617FM-12+000999999V0202301N003119999999N0000001N9+00171+99999098871ADDGF108991999999999999999999
0029029110999991922022706004+63083+021617FM-12+000999999V0200201N001019999999N0000001N9-00171+99999099301ADDGF108991999999999999999999
0035029110999991922022713004+63083+021617FM-12+000999999V0201601N001019999999N0000001N9+00111+99999099191ADDGF108991999999999999999999MW1701
0035029110999991922022720004+63083+021617FM-12+000999999V0201401N001019999999N0000001N9+00061+99999098641ADDGF108991999999999999999999MW1721
0035029110999991922022806004+63083+021617FM-12+000999999V0201401N001019999999N0000001N9+00061+99999098401ADDGF108991999999999999999999MW1721
0029029110999991922022813004+63083+021617FM-12+000999999V0203401N003119999999N0000001N9-00561+99999099061ADDGF108991999999999999999999
0029029110999991922022820004+63083+021617FM-12+000999999V0203201N001019999999N0000001N9-00501+99999099341ADDGF108991999999999999999999
0029029110999991922030106004+63083+021617FM-12+000999999V0203401N001019999999N0000001N9-00721+99999099591ADDGF108991999999999999999999
0029029110999991922030113004+63083+021617FM-12+000999999V0209991C000019999999N0000001N9-00501+99999099951ADDGF103991999999999999999999
0029029110999991922030120004+63083+021617FM-12+000999999V0201401N001019999999N0000001N9-00941+99999099981ADDGF101991999999999999999999
0035029110999991922030206004+63083+021617FM-12+000999999V0200901N001019999999N0000001N9-00611+99999100031ADDGF108991999999999999999999MW1481
0029029110999991922030213004+63083+021617FM-12+000999999V0200901N001019999999N0000001N9-00281+99999100141ADDGF108991999999999999999999
0029029110999991922030220004+63083+021617FM-12+000999999V0200701N001019999999N0000001N9-00441+99999100351ADDGF108991999999999999999999
0029029110999991922030306004+63083+021617FM-12+000999999V0200701N001019999999N0000001N9-00501+99999100601ADDGF108991999999999999999999
0035029110999991922030313004+63083+021617FM-12+000999999V0201601N001019999999N0000001N9-00221+99999100841ADDGF108991999999999999999999MW1701
0029029110999991922030320004+63083+021617FM-12+000999999V0209991C000019999999N0000001N9-00331+99999100791ADDGF104991999999999999999999
0029029110999991922030406004+63083+021617FM-12+000999999V0201801N005119999999N0000001N9-00171+99999100261ADDGF108991999999999999999999
0035029110999991922030413004+63083+021617FM-12+000999999V0201801N004119999999N0000001N9+00001+99999099901ADDGF108991999999999999999999MW1701
0029029110999991922030420004+63083+021617FM-12+000999999V0201801N002119999999N0000001N9+00001+99999099441ADDGF108991999999999999999999
0029029110999991922030506004+63083+021617FM-12+000999999V0203201N001019999999N0000001N9-00221+99999099231ADDGF108991999999999999999999
0029029110999991922030513004+63083+021617FM-12+000999999V0202701N001019999999N0000001N9-00221+99999099501ADDGF108991999999999999999999
0029029110999991922030520004+63083+021617FM-12+000999999V0202501N001019999999N0000001N9-00281+99999099561ADDGF108991999999999999999999
0035029110999991922030606004+63083+021617FM-12+000999999V0201101N002119999999N0000001N9-00391+99999098911ADDGF108991999999999999999999MW1701
0035029110999991922030613004+63083+021617FM-12+000999999V0200701N001019999999N0000001N9-00281+99999098431ADDGF108991999999999999999999MW1701
0035029110999991922030620004+63083+021617FM-12+000999999V0203601N001019999999N0000001N9-00561+99999098661ADDGF108991999999999999999999MW1701
0029029110999991922030706004+63083+021617FM-12+000999999V0203401N005119999999N0000001N9-00891+99999098501ADDGF108991999999999999999999
0029029110999991922030713004+63083+021617FM-12+000999999V0203601N001019999999N0000001N9-00941+99999099351ADDGF101991999999999999999999
0029029110999991922030720004+63083+021617FM-12+000999999V0209991C000019999999N0000001N9-01281+99999099601ADDGF108991999999999999999999
0035029110999991922030806004+63083+021617FM-12+000999999V0200501N004119999999N0000001N9-01001+99999099221ADDGF108991999999999999999999MW1721
0035029110999991922030813004+63083+021617FM-12+000999999V0200201N004119999999N0000001N9-00781+99999098781ADDGF108991999999999999999999MW1741
0035029110999991922030820004+63083+021617FM-12+000999999V0200201N007219999999N0000001N9-01061+99999098901ADDGF108991999999999999999999MW1741
0029029110999991922030906004+63083+021617FM-12+000999999V0203601N006219999999N0000001N9-01281+99999099241ADDGF108991999999999999999999
0029029110999991922030913004+63083+021617FM-12+000999999V0203601N006219999999N0000001N9-00831+99999099601ADDGF108991999999999999999999
0035029110999991922030920004+63083+021617FM-12+000999999V0203601N003119999999N0000001N9-00781+99999100061ADDGF108991999999999999999999MW1721
0029029110999991922031006004+63083+021617FM-12+000999999V0203601N004119999999N0000001N9-01111+99999100791ADDGF101991999999999999999999
0029029110999991922031013004+63083+021617FM-12+000999999V0202701N001019999999N0000001N9-00721+99999101181ADDGF100991999999999999999999
0029029110999991922031020004+63083+021617FM-12+000999999V0201801N001019999999N0000001N9-01061+99999101151ADDGF100991999999999999999999
0035029110999991922031106004+63083+021617FM-12+000999999V0202001N007219999999N0000001N9-00611+99999100361ADDGF107991999999999999999999MW1481
0035029110999991922031113004+63083+021617FM-12+000999999V0202001N011819999999N0000001N9-00391+99999099871ADDGF107991999999999999999999MW1381
0029029110999991922031120004+63083+021617FM-12+000999999V0202001N008219999999N0000001N9-00061+99999099191ADDGF107991999999999999999999
0029029110999991922031206004+63083+021617FM-12+000999999V0202501N005119999999N0000001N9-00891+99999099141ADDGF102991999999999999999999
0029029110999991922031213004+63083+021617FM-12+000999999V0202301N007219999999N0000001N9-00171+99999098621ADDGF106991999999999999999999
0029029110999991922031220004+63083+021617FM-12+000999999V0203201N002119999999N0000001N9-00671+99999099401ADDGF104991999999999999999999
0029029110999991922031306004+63083+021617FM-12+000999999V0203201N007219999999N0000001N9-00221+99999100501ADDGF108991999999999999999999
0029029110999991922031313004+63083+021617FM-12+000999999V0203601N007219999999N0000001N9-00061+99999101071ADDGF106991999999999999999999
0029029110999991922031320004+63083+021617FM-12+000999999V0203201N001019999999N0000001N9-00441+99999101221ADDGF106991999999999999999999
0035029110999991922031406004+63083+021617FM-12+000999999V0200901N001019999999N0000001N9-01281+99999101001ADDGF106991999999999999999999MW1481
0029029110999991922031413004+63083+021617FM-12+000999999V0200201N002119999999N0000001N9-00281+99999101031ADDGF107991999999999999999999
0035029110999991922031420004+63083+021617FM-12+000999999V0203601N001019999999N0000001N9-01281+99999101301ADDGF101991999999999999999999MW1481
0029029110999991922031506004+63083+021617FM-12+000999999V0202701N001019999999N0000001N9-01671+99999101561ADDGF108991999999999999999999
0029029110999991922031513004+63083+021617FM-12+000999999V0202701N001019999999N0000001N9-00331+99999101461ADDGF108991999999999999999999
0035029110999991922031520004+63083+021617FM-12+000999999V0202001N001019999999N0000001N9-00561+99999100871ADDGF108991999999999999999999MW1701
0029029110999991922031606004+63083+021617FM-12+000999999V0200701N001019999999N0000001N9-00611+99999099951ADDGF108991999999999999999999
0035029110999991922031613004+63083+021617FM-12+000999999V0203601N007219999999N0000001N9-00391+99999100631ADDGF108991999999999999999999MW1381
0029029110999991922031620004+63083+021617FM-12+000999999V0203601N004119999999N0000001N9-00501+99999101201ADDGF102991999999999999999999
0035029110999991922031706004+63083+021617FM-12+000999999V0203201N002119999999N0000001N9-01171+99999101481ADDGF100991999999999999999999MW1481
0029029110999991922031713004+63083+021617FM-12+000999999V0203601N005119999999N0000001N9-00501+99999101521ADDGF102991999999999999999999
0029029110999991922031720004+63083+021617FM-12+000999999V0200201N001019999999N0000001N9-00671+99999101561ADDGF108991999999999999999999
0035029110999991922031806004+63083+021617FM-12+000999999V0203401N001019999999N0000001N9-01781+99999101711ADDGF100991999999999999999999MW1481
0029029110999991922031813004+63083+021617FM-12+000999999V0202301N003119999999N0000001N9-00441+99999101431ADDGF106991999999999999999999
0035029110999991922031820004+63083+021617FM-12+000999999V0203601N001019999999N0000001N9-00671+99999101241ADDGF108991999999999999999999MW1721
0035029110999991922031906004+63083+021617FM-12+000999999V0203601N001019999999N0000001N9-02111+99999101301ADDGF102991999999999999999999MW1481
0029029110999991922031913004+63083+021617FM-12+000999999V0200201N001019999999N0000001N9-00891+99999101201ADDGF100991999999999999999999
0035029110999991922031920004+63083+021617FM-12+000999999V0200501N001019999999N0000001N9-01721+99999101101ADDGF101991999999999999999999MW1481
0035029110999991922032006004+63083+021617FM-12+000999999V0200501N002119999999N0000001N9-01561+99999101181ADDGF108991999999999999999999MW1701
0029029110999991922032013004+63083+021617FM-12+000999999V0203601N003119999999N0000001N9-01061+99999101271ADDGF100991999999999999999999
0035029110999991922032020004+63083+021617FM-12+000999999V0203601N001019999999N0000001N9-01831+99999101261ADDGF100991999999999999999999MW1481
0035029110999991922032106004+63083+021617FM-12+000999999V0202301N003119999999N0000001N9-01391+99999101061ADDGF106991999999999999999999MW1481
0029029110999991922032113004+63083+021617FM-12+000999999V0202701N001019999999N0000001N9-00721+99999101081ADDGF102991999999999999999999
0035029110999991922032120004+63083+021617FM-12+000999999V0202301N001019999999N0000001N9-01171+99999101121ADDGF100991999999999999999999MW1481
0035029110999991922032206004+63083+021617FM-12+000999999V0201801N001019999999N0000001N9-01941+99999101341ADDGF101991999999999999999999MW1481
0029029110999991922032213004+63083+021617FM-12+000999999V0202301N005119999999N0000001N9-00061+99999101341ADDGF100991999999999999999999
0029029110999991922032220004+63083+021617FM-12+000999999V0202001N006219999999N0000001N9-00221+99999101111ADDGF105991999999999999999999
0029029110999991922032306004+63083+021617FM-12+000999999V0202301N003119999999N0000001N9+00001+99999100821ADDGF106991999999999999999999
0029029110999991922032313004+63083+021617FM-12+000999999V0202501N004119999999N0000001N9+00391+99999100951ADDGF104991999999999999999999
0029029110999991922032320004+63083+021617FM-12+000999999V0202301N001019999999N0000001N9+00221+99999100981ADDGF108991999999999999999999
0029029110999991922032406004+63083+021617FM-12+000999999V0202001N003119999999N0000001N9+00171+99999100991ADDGF107991999999999999999999
0029029110999991922032413004+63083+021617FM-12+000999999V0202001N003119999999N0000001N9+00221+99999101041ADDGF108991999999999999999999
0029029110999991922032420004+63083+021617FM-12+000999999V0202001N001019999999N0000001N9-00061+99999100961ADDGF104991999999999999999999
0029029110999991922032506004+63083+021617FM-12+000999999V0200901N003119999999N0000001N9-00331+99999100461ADDGF108991999999999999999999
0035029110999991922032513004+63083+021617FM-12+000999999V0201601N003119999999N0000001N9-00281+99999100241ADDGF108991999999999999999999MW1721
0035029110999991922032520004+63083+021617FM-12+000999999V0201401N001019999999N0000001N9-00281+99999100111ADDGF108991999999999999999999MW1701
0029029110999991922032606004+63083+021617FM-12+000999999V0201401N001019999999N0000001N9-00391+99999099841ADDGF108991999999999999999999
0035029110999991922032613004+63083+021617FM-12+000999999V0201401N001019999999N0000001N9-00111+99999099791ADDGF108991999999999999999999MW1701
0035029110999991922032620004+63083+021617FM-12+000999999V0200501N001019999999N0000001N9-00331+99999099821ADDGF108991999999999999999999MW1701
0035029110999991922032706004+63083+021617FM-12+000999999V0200501N001019999999N0000001N9-00501+99999099911ADDGF108991999999999999999999MW1701
0029029110999991922032713004+63083+021617FM-12+000999999V0202701N001019999999N0000001N9-00111+99999100181ADDGF104991999999999999999999
0029029110999991922032720004+63083+021617FM-12+000999999V0200201N001019999999N0000001N9-00501+99999100401ADDGF100991999999999999999999
0029029110999991922032806004+63083+021617FM-12+000999999V0200501N001019999999N0000001N9-00441+99999100631ADDGF108991999999999999999999
0029029110999991922032813004+63083+021617FM-12+000999999V0203601N003119999999N0000001N9-00391+99999100601ADDGF100991999999999999999999
0029029110999991922032820004+63083+021617FM-12+000999999V0200501N001019999999N0000001N9-00671+99999100521ADDGF108991999999999999999999
0035029110999991922032906004+63083+021617FM-12+000999999V0203601N003119999999N0000001N9-00561+99999100381ADDGF108991999999999999999999MW1721
0035029110999991922032913004+63083+021617FM-12+000999999V0203601N008719999999N0000001N9-00441+99999100471ADDGF108991999999999999999999MW1721
0029029110999991922032920004+63083+021617FM-12+000999999V0203601N006219999999N0000001N9-00221+99999100351ADDGF108991999999999999999999
0035029110999991922033006004+63083+021617FM-12+000999999V0200201N009819999999N0000001N9-00331+99999100121ADDGF108991999999999999999999MW1721
0035029110999991922033013004+63083+021617FM-12+000999999V0200201N014919999999N0000001N9-00171+99999100141ADDGF108991999999999999999999MW1721
0035029110999991922033020004+63083+021617FM-12+000999999V0200201N006219999999N0000001N9-00171+99999100191ADDGF108991999999999999999999MW1721
0035029110999991922033106004+63083+021617FM-12+000999999V0200201N005119999999N0000001N9-00281+99999100551ADDGF108991999999999999999999MW1701
0035029110999991922033113004+63083+021617FM-12+000999999V0200201N001019999999N0000001N9+00001+99999100751ADDGF108991999999999999999999MW1701
0035029110999991922033120004+63083+021617FM-12+000999999V0201801N001019999999N0000001N9-00111+99999100791ADDGF108991999999999999999999MW1701
0029029110999991922040106004+63083+021617FM-12+000999999V0201601N001019999999N0000001N9-00391+99999100781ADDGF107991999999999999999999
0029029110999991922040113004+63083+021617FM-12+000999999V0202301N001019999999N0000001N9+00061+99999100761ADDGF104991999999999999999999
0029029110999991922040120004+63083+021617FM-12+000999999V0200501N001019999999N0000001N9-00391+99999100671ADDGF100991999999999999999999
0029029110999991922040206004+63083+021617FM-12+000999999V0200701N003119999999N0000001N9-00281+99999100151ADDGF108991999999999999999999
0035029110999991922040213004+63083+021617FM-12+000999999V0200901N006219999999N0000001N9+00001+99999099801ADDGF108991999999999999999999MW1701
0029029110999991922040220004+63083+021617FM-12+000999999V0200901N002119999999N0000001N9-00111+99999099631ADDGF108991999999999999999999
0035029110999991922040306004+63083+021617FM-12+000999999V0201601N004119999999N0000001N9-00111+99999099481ADDGF108991999999999999999999MW1701
0035029110999991922040313004+63083+021617FM-12+000999999V0202001N005119999999N0000001N9-00061+99999099791ADDGF108991999999999999999999MW1701
0029029110999991922040320004+63083+021617FM-12+000999999V0201601N001019999999N0000001N9-00331+99999100041ADDGF104991999999999999999999
0035029110999991922040406004+63083+021617FM-12+000999999V0201601N002119999999N0000001N9-00221+99999999999ADDGF108991999999999999999999MW1701
0029029110999991922040413004+63083+021617FM-12+000999999V0201801N001019999999N0000001N9+00331+99999099941ADDGF104991999999999999999999
0029029110999991922040420004+63083+021617FM-12+000999999V0203601N002119999999N0000001N9-00331+99999099921ADDGF104991999999999999999999
0035029110999991922040506004+63083+021617FM-12+000999999V0203601N003119999999N0000001N9-00781+99999100021ADDGF108991999999999999999999MW1481
0029029110999991922040513004+63083+021617FM-12+000999999V0203601N005119999999N0000001N9-00281+99999100161ADDGF107991999999999999999999
0029029110999991922040520004+63083+021617FM-12+000999999V0203601N003119999999N0000001N9-00611+99999100201ADDGF104991999999999999999999
0029029110999991922040606004+63083+021617FM-12+000999999V0200201N006219999999N0000001N9-00501+99999100141ADDGF106991999999999999999999
0035029110999991922040613004+63083+021617FM-12+000999999V0200201N009819999999N0000001N9-00221+99999100191ADDGF108991999999999999999999MW1721
0035029110999991922040620004+63083+021617FM-12+000999999V0200201N007219999999N0000001N9-00171+99999099941ADDGF108991999999999999999999MW1721
0035029110999991922040706004+63083+021617FM-12+000999999V0200201N008719999999N0000001N9-00391+99999099511ADDGF108991999999999999999999MW1721
0035029110999991922040713004+63083+021617FM-12+000999999V0200201N004119999999N0000001N9-00221+99999099501ADDGF108991999999999999999999MW1721
0035029110999991922040720004+63083+021617FM-12+000999999V0203601N004119999999N0000001N9-00441+99999099511ADDGF108991999999999999999999MW1721
0029029110999991922040806004+63083+021617FM-12+000999999V0203201N003119999999N0000001N9-00781+99999099901ADDGF107991999999999999999999
0029029110999991922040813004+63083+021617FM-12+000999999V0202501N003119999999N0000001N9-00561+99999100381ADDGF104991999999999999999999
0029029110999991922040820004+63083+021617FM-12+000999999V0201801N001019999999N0000001N9-00671+99999100481ADDGF108991999999999999999999
0035029110999991922040906004+63083+021617FM-12+000999999V0201801N004119999999N0000001N9-00561+99999100481ADDGF108991999999999999999999MW1721
0029029110999991922040913004+63083+021617FM-12+000999999V0202501N002119999999N0000001N9+00061+99999100601ADDGF104991999999999999999999
0029029110999991922040920004+63083+021617FM-12+000999999V0200201N001019999999N0000001N9-00561+99999100701ADDGF102991999999999999999999
0029029110999991922041006004+63083+021617FM-12+000999999V0200201N002119999999N0000001N9-01061+99999100601ADDGF106991999999999999999999
0029029110999991922041013004+63083+021617FM-12+000999999V0203601N005119999999N0000001N9-00611+99999100421ADDGF104991999999999999999999
0029029110999991922041020004+63083+021617FM-12+000999999V0203601N003119999999N0000001N9-00781+99999100161ADDGF108991999999999999999999
0029029110999991922041106004+63083+021617FM-12+000999999V0202701N001019999999N0000001N9-00611+99999100021ADDGF108991999999999999999999
0029029110999991922041113004+63083+021617FM-12+000999999V0202301N005119999999N0000001N9-00221+99999100201ADDGF101991999999999999999999
0029029110999991922041120004+63083+021617FM-12+000999999V0201601N005119999999N0000001N9-00331+99999100201ADDGF107991999999999999999999
0035029110999991922041206004+63083+021617FM-12+000999999V0202001N001019999999N0000001N9-00831+99999100741ADDGF100991999999999999999999MW1481
0029029110999991922041213004+63083+021617FM-12+000999999V0202501N001019999999N0000001N9+00111+99999101201ADDGF100991999999999999999999
0029029110999991922041220004+63083+021617FM-12+000999999V0209991C000019999999N0000001N9-00441+99999101471ADDGF100991999999999999999999
0029029110999991922041306004+63083+021617FM-12+000999999V0201401N001019999999N0000001N9-00441+99999101581ADDGF100991999999999999999999
0029029110999991922041313004+63083+021617FM-12+000999999V0201601N005119999999N0000001N9+00671+99999101561ADDGF106991999999999999999999
0029029110999991922041320004+63083+021617FM-12+000999999V0201401N005119999999N0000001N9+00331+99999101201ADDGF108991999999999999999999
0029029110999991922041406004+63083+021617FM-12+000999999V0201801N005119999999N0000001N9+00111+99999999999ADDGF108991999999999999999999
0035029110999991922041413004+63083+021617FM-12+000999999V0202001N005119999999N0000001N9+00221+99999099901ADDGF108991999999999999999999MW1621
0029029110999991922041420004+63083+021617FM-12+000999999V0202701N001019999999N0000001N9+00061+99999100301ADDGF108991999999999999999999
0029029110999991922041506004+63083+021617FM-12+000999999V0201801N001019999999N0000001N9+00171+99999101151ADDGF101991999999999999999999
0029029110999991922041513004+63083+021617FM-12+000999999V0201801N001019999999N0000001N9+00671+99999101351ADDGF106991999999999999999999
0035029110999991922041520004+63083+021617FM-12+000999999V0200901N003119999999N0000001N9+00561+99999100741ADDGF108991999999999999999999MW1601
0029029110999991922041606004+63083+021617FM-12+000999999V0202301N002119999999N0000001N9+00281+99999100471ADDGF108991999999999999999999
0029029110999991922041613004+63083+021617FM-12+000999999V0202501N001019999999N0000001N9+00561+99999100661ADDGF108991999999999999999999
0035029110999991922041620004+63083+021617FM-12+000999999V0209991C000019999999N0000001N9+00281+99999100541ADDGF108991999999999999999999MW1621
0029029110999991922041706004+63083+021617FM-12+000999999V0202301N004119999999N0000001N9+00331+99999100241ADDGF101991999999999999999999
0029029110999991922041713004+63083+021617FM-12+000999999V0202301N003119999999N0000001N9+00721+99999100631ADDGF102991999999999999999999
0029029110999991922041720004+63083+021617FM-12+000999999V0202501N001019999999N0000001N9+00171+99999101071ADDGF100991999999999999999999
0029029110999991922041806004+63083+021617FM-12+000999999V0202901N003119999999N0000001N9+00061+99999101541ADDGF100991999999999999999999
0029029110999991922041813004+63083+021617FM-12+000999999V0202701N003119999999N0000001N9+00501+99999101801ADDGF100991999999999999999999
0029029110999991922041820004+63083+021617FM-12+000999999V0203401N001019999999N0000001N9+00221+99999102021ADDGF104991999999999999999999
0029029110999991922041906004+63083+021617FM-12+000999999V0203601N009819999999N0000001N9-00061+99999102551ADDGF106991999999999999999999
0029029110999991922041913004+63083+021617FM-12+000999999V0203601N011819999999N0000001N9-00061+99999102801ADDGF102991999999999999999999
0029029110999991922041920004+63083+021617FM-12+000999999V0200201N002119999999N0000001N9-00391+99999102861ADDGF100991999999999999999999
0035029110999991922042006004+63083+021617FM-12+000999999V0200901N001019999999N0000001N9-00331+99999102951ADDGF100991999999999999999999MW1481
0029029110999991922042013004+63083+021617FM-12+000999999V0202901N001019999999N0000001N9+00111+99999102741ADDGF100991999999999999999999
0029029110999991922042020004+63083+021617FM-12+000999999V0209991C000019999999N0000001N9-00331+99999102461ADDGF100991999999999999999999
0029029110999991922042106004+63083+021617FM-12+000999999V0202001N003119999999N0000001N9+00001+99999102181ADDGF108991999999999999999999
0029029110999991922042113004+63083+021617FM-12+000999999V0202301N004119999999N0000001N9+00221+99999101961ADDGF107991999999999999999999
0029029110999991922042120004+63083+021617FM-12+000999999V0209991C000019999999N0000001N9-00061+99999101861ADDGF102991999999999999999999
0029029110999991922042206004+63083+021617FM-12+000999999V0201601N001019999999N0000001N9+00061+99999101831ADDGF100991999999999999999999
0029029110999991922042213004+63083+021617FM-12+000999999V0202701N001019999999N0000001N9+00441+99999101801ADDGF100991999999999999999999
0029029110999991922042220004+63083+021617FM-12+000999999V0209991C000019999999N0000001N9-00061+99999101881ADDGF100991999999999999999999
0029029110999991922042306004+63083+021617FM-12+000999999V0202001N001019999999N0000001N9+00001+99999101991ADDGF108991999999999999999999
0029029110999991922042313004+63083+021617FM-12+000999999V0202301N002119999999N0000001N9+00281+99999102071ADDGF107991999999999999999999
0029029110999991922042320004+63083+021617FM-12+000999999V0209991C000019999999N0000001N9-00061+99999102021ADDGF100991999999999999999999
0029029110999991922042406004+63083+021617FM-12+000999999V0200901N001019999999N0000001N9+00061+99999101801ADDGF108991999999999999999999
0029029110999991922042413004+63083+021617FM-12+000999999V0201801N001019999999N0000001N9+01061+99999101551ADDGF102991999999999999999999
0029029110999991922042420004+63083+021617FM-12+000999999V0200201N001019999999N0000001N9+00171+99999101391ADDGF105991999999999999999999
0029029110999991922042506004+63083+021617FM-12+000999999V0200501N002119999999N0000001N9+00391+99999100991ADDGF108991999999999999999999
0029029110999991922042513004+63083+021617FM-12+000999999V0201601N003119999999N0000001N9+00831+99999100841ADDGF107991999999999999999999
0029029110999991922042520004+63083+021617FM-12+000999999V0201401N003119999999N0000001N9+00441+99999100911ADDGF104991999999999999999999
0029029110999991922042606004+63083+021617FM-12+000999999V0200901N002119999999N0000001N9+00331+99999100871ADDGF108991999999999999999999
0029029110999991922042613004+63083+021617FM-12+000999999V0201601N004119999999N0000001N9+00721+99999100911ADDGF108991999999999999999999
0029029110999991922042620004+63083+021617FM-12+000999999V0200701N001019999999N0000001N9+00391+99999100991ADDGF108991999999999999999999
0029029110999991922042706004+63083+021617FM-12+000999999V0201101N001019999999N0000001N9+00561+99999100911ADDGF101991999999999999999999
0029029110999991922042713004+63083+021617FM-12+000999999V0201401N004119999999N0000001N9+01441+99999100911ADDGF104991999999999999999999
0029029110999991922042720004+63083+021617FM-12+000999999V0200901N002119999999N0000001N9+00721+99999100981ADDGF102991999999999999999999
0046029110999991922042806004+63083+021617FM-12+000999999V0201101N004119999999N0000001N9+00721+99999100841ADDAJ100009199999999GF104991999999999999999999
0029029110999991922042813004+63083+021617FM-12+000999999V0201401N003119999999N0000001N9+00831+99999101081ADDGF108991999999999999999999
0029029110999991922042820004+63083+021617FM-12+000999999V0200701N002119999999N0000001N9+00611+99999101141ADDGF101991999999999999999999
0046029110999991922042906004+63083+021617FM-12+000999999V0201401N005119999999N0000001N9+00941+99999100861ADDAJ100009199999999GF108991999999999999999999
0029029110999991922042913004+63083+021617FM-12+000999999V0202001N001019999999N0000001N9+00441+99999101401ADDGF108991999999999999999999
0029029110999991922042920004+63083+021617FM-12+000999999V0200501N002119999999N0000001N9+00061+99999101511ADDGF108991999999999999999999
0052029110999991922043006004+63083+021617FM-12+000999999V0202901N001019999999N0000001N9+00001+99999101221ADDAJ100009199999999GF108991999999999999999999MW1601
0029029110999991922043013004+63083+021617FM-12+000999999V0202501N002119999999N0000001N9+00331+99999101261ADDGF106991999999999999999999
0029029110999991922043020004+63083+021617FM-12+000999999V0202301N001019999999N0000001N9-00111+99999101441ADDGF108991999999999999999999
0029029110999991922050106004+63083+021617FM-12+000999999V0200701N001019999999N0000001N9+00001+99999999999ADDGF102991999999999999999999
0029029110999991922050113004+63083+021617FM-12+000999999V0200201N005119999999N0000001N9+00781+99999999999ADDGF103991999999999999999999
0029029110999991922050120004+63083+021617FM-12+000999999V0200201N003119999999N0000001N9+00391+99999999999ADDGF102991999999999999999999
0029029110999991922050206004+63083+021617FM-12+000999999V0201101N003119999999N0000001N9+00671+99999999999ADDGF103991999999999999999999
0029029110999991922050213004+63083+021617FM-12+000999999V0201401N004119999999N0000001N9+01221+99999999999ADDGF104991999999999999999999
0029029110999991922050220004+63083+021617FM-12+000999999V0209991C000019999999N0000001N9+00441+99999999999ADDGF103991999999999999999999
0029029110999991922050306004+63083+021617FM-12+000999999V0202301N001019999999N0000001N9+00221+99999999999ADDGF102991999999999999999999
0029029110999991922050313004+63083+021617FM-12+000999999V0202301N005119999999N0000001N9+00611+99999999999ADDGF103991999999999999999999
0029029110999991922050320004+63083+021617FM-12+000999999V0201801N003119999999N0000001N9+00501+99999999999ADDGF103991999999999999999999
0029029110999991922050406004+63083+021617FM-12+000999999V0201801N005119999999N0000001N9+00561+99999999999ADDGF103991999999999999999999
0029029110999991922050413004+63083+021617FM-12+000999999V0202001N008219999999N0000001N9+01061+99999999999ADDGF104991999999999999999999
0029029110999991922050420004+63083+021617FM-12+000999999V0201801N001019999999N0000001N9+00501+99999999999ADDGF103991999999999999999999
0029029110999991922050506004+63083+021617FM-12+000999999V0201401N001019999999N0000001N9+00611+99999999999ADDGF103991999999999999999999
0029029110999991922050513004+63083+021617FM-12+000999999V0202901N001019999999N0000001N9+01001+99999999999ADDGF104991999999999999999999
0029029110999991922050520004+63083+021617FM-12+000999999V0209991C000019999999N0000001N9+00561+99999999999ADDGF103991999999999999999999
0029029110999991922050606004+63083+021617FM-12+000999999V0201801N003119999999N0000001N9+00391+99999999999ADDGF102991999999999999999999
0029029110999991922050613004+63083+021617FM-12+000999999V0202301N005119999999N0000001N9+00941+99999999999ADDGF103991999999999999999999
0029029110999991922050620004+63083+021617FM-12+000999999V0202001N001019999999N0000001N9+00611+99999999999ADDGF103991999999999999999999
0029029110999991922050706004+63083+021617FM-12+000999999V0201801N001019999999N0000001N9+00671+99999999999ADDGF103991999999999999999999
0029029110999991922050713004+63083+021617FM-12+000999999V0202301N003119999999N0000001N9+01061+99999999999ADDGF104991999999999999999999
0029029110999991922050720004+63083+021617FM-12+000999999V0202001N001019999999N0000001N9+00441+99999999999ADDGF103991999999999999999999
0029029110999991922050806004+63083+021617FM-12+000999999V0201801N005119999999N0000001N9+00501+99999999999ADDGF103991999999999999999999
0029029110999991922050813004+63083+021617FM-12+000999999V0202301N004119999999N0000001N9+00611+99999999999ADDGF103991999999999999999999
0029029110999991922050820004+63083+021617FM-12+000999999V0202301N002119999999N0000001N9+00391+99999999999ADDGF102991999999999999999999
0029029110999991922050906004+63083+021617FM-12+000999999V0202701N001019999999N0000001N9+00671+99999999999ADDGF103991999999999999999999
0029029110999991922050913004+63083+021617FM-12+000999999V0202701N001019999999N0000001N9+00611+99999999999ADDGF103991999999999999999999
0029029110999991922050920004+63083+021617FM-12+000999999V0203401N005119999999N0000001N9+00501+99999999999ADDGF103991999999999999999999
0029029110999991922051006004+63083+021617FM-12+000999999V0203601N008219999999N0000001N9+00281+99999999999ADDGF102991999999999999999999
0029029110999991922051013004+63083+021617FM-12+000999999V0203601N009819999999N0000001N9+00671+99999999999ADDGF103991999999999999999999
0029029110999991922051020004+63083+021617FM-12+000999999V0203401N004119999999N0000001N9+00391+99999999999ADDGF102991999999999999999999
0029029110999991922051106004+63083+021617FM-12+000999999V0203201N003119999999N0000001N9+00391+99999999999ADDGF102991999999999999999999
0029029110999991922051113004+63083+021617FM-12+000999999V0202701N003119999999N0000001N9+00611+99999999999ADDGF103991999999999999999999
0029029110999991922051120004+63083+021617FM-12+000999999V0202701N003119999999N0000001N9+00331+99999999999ADDGF102991999999999999999999
0029029110999991922051206004+63083+021617FM-12+000999999V0203201N001019999999N0000001N9+00391+99999999999ADDGF102991999999999999999999
0029029110999991922051213004+63083+021617FM-12+000999999V0202501N003119999999N0000001N9+00671+99999999999ADDGF103991999999999999999999
0029029110999991922051306004+63083+021617FM-12+000999999V0202301N001019999999N0000001N9+00441+99999999999ADDGF103991999999999999999999
0029029110999991922051313004+63083+021617FM-12+000999999V0202501N003119999999N0000001N9+00781+99999999999ADDGF103991999999999999999999
0029029110999991922051320004+63083+021617FM-12+000999999V0202001N002119999999N0000001N9+00441+99999999999ADDGF103991999999999999999999
0029029110999991922051406004+63083+021617FM-12+000999999V0203401N001019999999N0000001N9+00611+99999999999ADDGF103991999999999999999999
0029029110999991922051413004+63083+021617FM-12+000999999V0202501N003119999999N0000001N9+00721+99999999999ADDGF103991999999999999999999
0029029110999991922051620004+63083+021617FM-12+000999999V0202701N003119999999N0000001N9+00561+99999999999ADDGF103991999999999999999999
0029029110999991922051706004+63083+021617FM-12+000999999V0202701N001019999999N0000001N9+00671+99999999999ADDGF103991999999999999999999
0029029110999991922051713004+63083+021617FM-12+000999999V0202501N003119999999N0000001N9+00941+99999999999ADDGF103991999999999999999999
0029029110999991922051720004+63083+021617FM-12+000999999V0202001N001019999999N0000001N9+00561+99999999999ADDGF103991999999999999999999
0029029110999991922051806004+63083+021617FM-12+000999999V0200701N002119999999N0000001N9+01061+99999999999ADDGF104991999999999999999999
0029029110999991922051813004+63083+021617FM-12+000999999V0202701N001019999999N0000001N9+01001+99999999999ADDGF104991999999999999999999
0029029110999991922051820004+63083+021617FM-12+000999999V0201601N001019999999N0000001N9+01001+99999999999ADDGF104991999999999999999999
0029029110999991922051906004+63083+021617FM-12+000999999V0201401N002119999999N0000001N9+01171+99999999999ADDGF104991999999999999999999
0029029110999991922051913004+63083+021617FM-12+000999999V0202001N002119999999N0000001N9+01111+99999999999ADDGF104991999999999999999999
0029029110999991922051920004+63083+021617FM-12+000999999V0201801N003119999999N0000001N9+01001+99999999999ADDGF104991999999999999999999
0029029110999991922052006004+63083+021617FM-12+000999999V0201601N001019999999N0000001N9+00941+99999999999ADDGF103991999999999999999999
0029029110999991922052013004+63083+021617FM-12+000999999V0203601N001019999999N0000001N9+00891+99999999999ADDGF103991999999999999999999
0029029110999991922052020004+63083+021617FM-12+000999999V0202701N001019999999N0000001N9+00831+99999999999ADDGF103991999999999999999999
0029029110999991922052106004+63083+021617FM-12+000999999V0202701N001019999999N0000001N9+00831+99999999999ADDGF103991999999999999999999
0029029110999991922052113004+63083+021617FM-12+000999999V0202701N002119999999N0000001N9+01171+99999999999ADDGF104991999999999999999999
0029029110999991922052120004+63083+021617FM-12+000999999V0202501N001019999999N0000001N9+00941+99999999999ADDGF103991999999999999999999
0029029110999991922052206004+63083+021617FM-12+000999999V0201601N001019999999N0000001N9+01221+99999999999ADDGF104991999999999999999999
0029029110999991922052220004+63083+021617FM-12+000999999V0201801N001019999999N0000001N9+01111+99999999999ADDGF104991999999999999999999
0029029110999991922052306004+63083+021617FM-12+000999999V0201801N004119999999N0000001N9+00941+99999999999ADDGF103991999999999999999999
0029029110999991922052313004+63083+021617FM-12+000999999V0202001N005119999999N0000001N9+00941+99999999999ADDGF103991999999999999999999
0029029110999991922052320004+63083+021617FM-12+000999999V0202001N001019999999N0000001N9+00831+99999999999ADDGF103991999999999999999999
0029029110999991922052406004+63083+021617FM-12+000999999V0209991C000019999999N0000001N9+00941+99999999999ADDGF103991999999999999999999
0029029110999991922052413004+63083+021617FM-12+000999999V0202701N001019999999N0000001N9+01331+99999999999ADDGF104991999999999999999999
0029029110999991922052420004+63083+021617FM-12+000999999V0202501N002119999999N0000001N9+99999+99999999999ADDGF102991999999999999999999
0029029110999991922052506004+63083+021617FM-12+000999999V0201401N001019999999N0000001N9+01221+99999999999ADDGF104991999999999999999999
0029029110999991922052513004+63083+021617FM-12+000999999V0203601N001019999999N0000001N9+01171+99999999999ADDGF104991999999999999999999
0029029110999991922052520004+63083+021617FM-12+000999999V0202701N001019999999N0000001N9+01001+99999999999ADDGF104991999999999999999999
0029029110999991922052606004+63083+021617FM-12+000999999V0203601N001019999999N0000001N9+01111+99999999999ADDGF104991999999999999999999
0029029110999991922052613004+63083+021617FM-12+000999999V0200201N002119999999N0000001N9+01391+99999999999ADDGF104991999999999999999999
0029029110999991922052620004+63083+021617FM-12+000999999V0202301N002119999999N0000001N9+01001+99999999999ADDGF104991999999999999999999
0029029110999991922052706004+63083+021617FM-12+000999999V0201601N007219999999N0000001N9+01171+99999999999ADDGF104991999999999999999999
0029029110999991922052713004+63083+021617FM-12+000999999V0202301N004119999999N0000001N9+99999+99999999999ADDGF102991999999999999999999
0029029110999991922052720004+63083+021617FM-12+000999999V0202001N001019999999N0000001N9+00831+99999999999ADDGF103991999999999999999999
0029029110999991922052806004+63083+021617FM-12+000999999V0202901N003119999999N0000001N9+00941+99999999999ADDGF103991999999999999999999
0029029110999991922052813004+63083+021617FM-12+000999999V0202901N005119999999N0000001N9+01281+99999999999ADDGF104991999999999999999999
0029029110999991922052820004+63083+021617FM-12+000999999V0203201N007219999999N0000001N9+00831+99999999999ADDGF103991999999999999999999
0029029110999991922052906004+63083+021617FM-12+000999999V0203201N005119999999N0000001N9+00611+99999999999ADDGF103991999999999999999999
0029029110999991922052913004+63083+021617FM-12+000999999V0202501N005119999999N0000001N9+00941+99999999999ADDGF103991999999999999999999
0029029110999991922052920004+63083+021617FM-12+000999999V0202501N004119999999N0000001N9+00891+99999999999ADDGF103991999999999999999999
0029029110999991922053006004+63083+021617FM-12+000999999V0202501N008219999999N0000001N9+00831+99999999999ADDGF103991999999999999999999
0029029110999991922053013004+63083+021617FM-12+000999999V0202501N005119999999N0000001N9+01001+99999999999ADDGF104991999999999999999999
0029029110999991922053020004+63083+021617FM-12+000999999V0202001N003119999999N0000001N9+00721+99999999999ADDGF103991999999999999999999
0029029110999991922053106004+63083+021617FM-12+000999999V0202001N002119999999N0000001N9+00721+99999999999ADDGF103991999999999999999999
0029029110999991922053113004+63083+021617FM-12+000999999V0203401N005119999999N0000001N9+00891+99999999999ADDGF103991999999999999999999
0029029110999991922053120004+63083+021617FM-12+000999999V0203401N005119999999N0000001N9+00501+99999999999ADDGF103991999999999999999999
0046029110999991922060106004+63083+021617FM-12+000999999V0203601N008219999999N0000001N9+00721+99999099801ADDAJ100009199999999GF101991999999999999999999
0029029110999991922060113004+63083+021617FM-12+000999999V0203601N008219999999N0000001N9+01001+99999100311ADDGF105991999999999999999999
0029029110999991922060120004+63083+021617FM-12+000999999V0203601N005119999999N0000001N9+00671+99999100601ADDGF105991999999999999999999
0046029110999991922060206004+63083+021617FM-12+000999999V0203601N008219999999N0000001N9+00611+99999101101ADDAJ100009199999999GF108991999999999999999999
0029029110999991922060213004+63083+021617FM-12+000999999V0200201N006219999999N0000001N9+00891+99999101381ADDGF100991999999999999999999
0029029110999991922060220004+63083+021617FM-12+000999999V0203401N001019999999N0000001N9+00721+99999101361ADDGF102991999999999999999999
0046029110999991922060306004+63083+021617FM-12+000999999V0200901N001019999999N0000001N9+01111+99999101241ADDAJ100009199999999GF104991999999999999999999
0029029110999991922060313004+63083+021617FM-12+000999999V0200201N007219999999N0000001N9+00941+99999101361ADDGF101991999999999999999999
0029029110999991922060320004+63083+021617FM-12+000999999V0200201N001019999999N0000001N9+00671+99999101341ADDGF101991999999999999999999
0046029110999991922060406004+63083+021617FM-12+000999999V0201401N001019999999N0000001N9+00831+99999101311ADDAJ100009199999999GF101991999999999999999999
0029029110999991922060413004+63083+021617FM-12+000999999V0202501N004119999999N0000001N9+99999+99999101161ADDGF102991999999999999999999
0029029110999991922060420004+63083+021617FM-12+000999999V0202301N001019999999N0000001N9+99999+99999101021ADDGF108991999999999999999999
0046029110999991922060506004+63083+021617FM-12+000999999V0202301N002119999999N0000001N9+01061+99999100921ADDAJ100009199999999GF106991999999999999999999
0029029110999991922060513004+63083+021617FM-12+000999999V0202501N002119999999N0000001N9+01111+99999100991ADDGF107991999999999999999999
0029029110999991922060520004+63083+021617FM-12+000999999V0202701N001019999999N0000001N9+00941+99999100991ADDGF106991999999999999999999
0046029110999991922060606004+63083+021617FM-12+000999999V0200901N001019999999N0000001N9+01221+99999100801ADDAJ100009199999999GF102991999999999999999999
0029029110999991922060613004+63083+021617FM-12+000999999V0200201N002119999999N0000001N9+01611+99999100591ADDGF104991999999999999999999
0029029110999991922060620004+63083+021617FM-12+000999999V0203601N001019999999N0000001N9+01061+99999100541ADDGF102991999999999999999999
0046029110999991922060706004+63083+021617FM-12+000999999V0203601N001019999999N0000001N9+01221+99999100591ADDAJ100009199999999GF106991999999999999999999
0029029110999991922060713004+63083+021617FM-12+000999999V0200201N003119999999N0000001N9+01561+99999100781ADDGF102991999999999999999999
0029029110999991922060720004+63083+021617FM-12+000999999V0209991C000019999999N0000001N9+01281+99999100911ADDGF102991999999999999999999
0046029110999991922060806004+63083+021617FM-12+000999999V0201601N001019999999N0000001N9+01171+99999100951ADDAJ100009199999999GF107991999999999999999999
0029029110999991922060813004+63083+021617FM-12+000999999V0202501N003119999999N0000001N9+99999+99999101041ADDGF101991999999999999999999
0029029110999991922060820004+63083+021617FM-12+000999999V0202001N001019999999N0000001N9+01061+99999100981ADDGF106991999999999999999999
0046029110999991922060906004+63083+021617FM-12+000999999V0200201N003119999999N0000001N9+00941+99999101041ADDAJ100009199999999GF106991999999999999999999
0029029110999991922060913004+63083+021617FM-12+000999999V0200201N005119999999N0000001N9+01171+99999101221ADDGF104991999999999999999999
0029029110999991922060920004+63083+021617FM-12+000999999V0200201N001019999999N0000001N9+01171+99999101321ADDGF101991999999999999999999
0046029110999991922061006004+63083+021617FM-12+000999999V0203601N001019999999N0000001N9+01391+99999101321ADDAJ100009199999999GF101991999999999999999999
0029029110999991922061013004+63083+021617FM-12+000999999V0200201N006219999999N0000001N9+01501+99999101241ADDGF101991999999999999999999
0029029110999991922061020004+63083+021617FM-12+000999999V0200201N003119999999N0000001N9+01221+99999101141ADDGF104991999999999999999999
0046029110999991922061106004+63083+021617FM-12+000999999V0200201N002119999999N0000001N9+01611+99999100951ADDAJ100009199999999GF100991999999999999999999
0029029110999991922061113004+63083+021617FM-12+000999999V0200201N006219999999N0000001N9+01781+99999100781ADDGF101991999999999999999999
0029029110999991922061120004+63083+021617FM-12+000999999V0200201N002119999999N0000001N9+01281+99999100751ADDGF106991999999999999999999
0046029110999991922061206004+63083+021617FM-12+000999999V0203601N002119999999N0000001N9+01221+99999100921ADDAJ100009199999999GF105991999999999999999999
0029029110999991922061213004+63083+021617FM-12+000999999V0200201N006219999999N0000001N9+01611+99999101021ADDGF102991999999999999999999
0029029110999991922061220004+63083+021617FM-12+000999999V0200201N001019999999N0000001N9+01221+99999101151ADDGF104991999999999999999999
0046029110999991922061306004+63083+021617FM-12+000999999V0200701N001019999999N0000001N9+01331+99999101121ADDAJ100009199999999GF108991999999999999999999
0029029110999991922061313004+63083+021617FM-12+000999999V0200201N001019999999N0000001N9+01611+99999101041ADDGF106991999999999999999999
0029029110999991922061320004+63083+021617FM-12+000999999V0201401N001019999999N0000001N9+01721+99999100951ADDGF106991999999999999999999
0046029110999991922061406004+63083+021617FM-12+000999999V0201401N001019999999N0000001N9+01611+99999100981ADDAJ100009199999999GF102991999999999999999999
0029029110999991922061413004+63083+021617FM-12+000999999V0201801N001019999999N0000001N9+01671+99999100901ADDGF108991999999999999999999
0029029110999991922061420004+63083+021617FM-12+000999999V0202001N001019999999N0000001N9+01501+99999100821ADDGF108991999999999999999999
0046029110999991922061506004+63083+021617FM-12+000999999V0200701N001019999999N0000001N9+01441+99999100791ADDAJ100009199999999GF108991999999999999999999
0029029110999991922061513004+63083+021617FM-12+000999999V0200201N002119999999N0000001N9+01781+99999100741ADDGF108991999999999999999999
0029029110999991922061520004+63083+021617FM-12+000999999V0202701N001019999999N0000001N9+01441+99999100601ADDGF108991999999999999999999
0046029110999991922061606004+63083+021617FM-12+000999999V0202301N002119999999N0000001N9+01171+99999100561ADDAJ100009199999999GF108991999999999999999999
0029029110999991922061613004+63083+021617FM-12+000999999V0202501N003119999999N0000001N9+01441+99999100561ADDGF106991999999999999999999
0029029110999991922061620004+63083+021617FM-12+000999999V0202301N004119999999N0000001N9+01391+99999100641ADDGF100991999999999999999999
0046029110999991922061706004+63083+021617FM-12+000999999V0203201N001019999999N0000001N9+99999+99999101081ADDAJ100009199999999GF101991999999999999999999
0029029110999991922061713004+63083+021617FM-12+000999999V0202701N001019999999N0000001N9+01891+99999101111ADDGF100991999999999999999999
0029029110999991922061720004+63083+021617FM-12+000999999V0200201N001019999999N0000001N9+01561+99999100921ADDGF104991999999999999999999
0046029110999991922061806004+63083+021617FM-12+000999999V0201601N002119999999N0000001N9+01501+99999101111ADDAJ100009199999999GF100991999999999999999999
0029029110999991922061813004+63083+021617FM-12+000999999V0202701N001019999999N0000001N9+02221+99999101181ADDGF104991999999999999999999
0029029110999991922061820004+63083+021617FM-12+000999999V0201801N001019999999N0000001N9+01671+99999101191ADDGF108991999999999999999999
0046029110999991922061906004+63083+021617FM-12+000999999V0201101N001019999999N0000001N9+01671+99999100911ADDAJ100009199999999GF108991999999999999999999
0029029110999991922061913004+63083+021617FM-12+000999999V0200901N003119999999N0000001N9+02281+99999100621ADDGF106991999999999999999999
0029029110999991922061920004+63083+021617FM-12+000999999V0200901N001019999999N0000001N9+01721+99999100391ADDGF108991999999999999999999
0052029110999991922062006004+63083+021617FM-12+000999999V0200901N001019999999N0000001N9+01671+99999100111ADDAJ100009199999999GF108991999999999999999999MW1601
0035029110999991922062013004+63083+021617FM-12+000999999V0200201N001019999999N0000001N9+01941+99999100241ADDGF108991999999999999999999MW1621
0029029110999991922062020004+63083+021617FM-12+000999999V0203201N001019999999N0000001N9+01501+99999100481ADDGF106991999999999999999999
0052029110999991922062106004+63083+021617FM-12+000999999V0200901N001019999999N0000001N9+01561+99999100631ADDAJ100009199999999GF108991999999999999999999MW1601
0029029110999991922062113004+63083+021617FM-12+000999999V0200701N001019999999N0000001N9+02001+99999100631ADDGF108991999999999999999999
0035029110999991922062120004+63083+021617FM-12+000999999V0201601N001019999999N0000001N9+01441+99999100501ADDGF108991999999999999999999MW1601
0046029110999991922062206004+63083+021617FM-12+000999999V0203401N002119999999N0000001N9+01221+99999100351ADDAJ100009199999999GF108991999999999999999999
0029029110999991922062213004+63083+021617FM-12+000999999V0202701N001019999999N0000001N9+01561+99999100281ADDGF107991999999999999999999
0029029110999991922062220004+63083+021617FM-12+000999999V0202701N001019999999N0000001N9+99999+99999100181ADDGF107991999999999999999999
0046029110999991922062306004+63083+021617FM-12+000999999V0200901N001019999999N0000001N9+99999+99999100031ADDAJ100009199999999GF108991999999999999999999
0029029110999991922062313004+63083+021617FM-12+000999999V0202301N004119999999N0000001N9+99999+99999100111ADDGF105991999999999999999999
0029029110999991922062320004+63083+021617FM-12+000999999V0202001N004119999999N0000001N9+99999+99999100261ADDGF102991999999999999999999
0046029110999991922062406004+63083+021617FM-12+000999999V0202501N003119999999N0000001N9+01111+99999100361ADDAJ100009199999999GF100991999999999999999999
0029029110999991922062413004+63083+021617FM-12+000999999V0202501N001019999999N0000001N9+01331+99999100391ADDGF106991999999999999999999
0029029110999991922062420004+63083+021617FM-12+000999999V0202701N001019999999N0000001N9+99999+99999100241ADDGF107991999999999999999999
0046029110999991922062506004+63083+021617FM-12+000999999V0202701N001019999999N0000001N9+01331+99999100151ADDAJ100009199999999GF100991999999999999999999
0029029110999991922062513004+63083+021617FM-12+000999999V0202501N002119999999N0000001N9+01671+99999100321ADDGF102991999999999999999999
0029029110999991922062520004+63083+021617FM-12+000999999V0202001N001019999999N0000001N9+01391+99999100401ADDGF101991999999999999999999
0046029110999991922062606004+63083+021617FM-12+000999999V0201601N001019999999N0000001N9+01501+99999100361ADDAJ100009199999999GF102991999999999999999999
0029029110999991922062613004+63083+021617FM-12+000999999V0201401N004119999999N0000001N9+02111+99999100041ADDGF107991999999999999999999
0035029110999991922062620004+63083+021617FM-12+000999999V0201601N002119999999N0000001N9+01171+99999099871ADDGF108991999999999999999999MW1621
0046029110999991922062706004+63083+021617FM-12+000999999V0201601N005119999999N0000001N9+01221+99999099861ADDAJ100009199999999GF108991999999999999999999
0029029110999991922062713004+63083+021617FM-12+000999999V0202001N007219999999N0000001N9+99999+99999999999ADDGF104991999999999999999999
0029029110999991922062720004+63083+021617FM-12+000999999V0201801N003119999999N0000001N9+01281+99999100101ADDGF102991999999999999999999
0046029110999991922062806004+63083+021617FM-12+000999999V0201401N001019999999N0000001N9+01281+99999099911ADDAJ100009199999999GF108991999999999999999999
0035029110999991922062813004+63083+021617FM-12+000999999V0201601N001019999999N0000001N9+99999+99999099671ADDGF108991999999999999999999MW1621
0029029110999991922062820004+63083+021617FM-12+000999999V0201601N001019999999N0000001N9+01221+99999099521ADDGF108991999999999999999999
0046029110999991922062906004+63083+021617FM-12+000999999V0202001N001019999999N0000001N9+00941+99999099561ADDAJ100009199999999GF108991999999999999999999
0029029110999991922062913004+63083+021617FM-12+000999999V0202301N004119999999N0000001N9+01611+99999099751ADDGF102991999999999999999999
0029029110999991922062920004+63083+021617FM-12+000999999V0201801N001019999999N0000001N9+01391+99999099591ADDGF108991999999999999999999
0046029110999991922063006004+63083+021617FM-12+000999999V0202001N006219999999N0000001N9+01171+99999099581ADDAJ100009199999999GF103991999999999999999999
0029029110999991922063013004+63083+021617FM-12+000999999V0202001N009819999999N0000001N9+01441+99999099991ADDGF102991999999999999999999
0029029110999991922063020004+63083+021617FM-12+000999999V0202001N004119999999N0000001N9+01171+99999100271ADDGF102991999999999999999999
0046029110999991922070106004+63083+021617FM-12+000999999V0202001N001019999999N0000001N9+01281+99999100781ADDAJ100009199999999GF101991999999999999999999
0029029110999991922070113004+63083+021617FM-12+000999999V0202001N008219999999N0000001N9+01501+99999101071ADDGF102991999999999999999999
0029029110999991922070120004+63083+021617FM-12+000999999V0202001N005119999999N0000001N9+01281+99999101141ADDGF101991999999999999999999
0046029110999991922070206004+63083+021617FM-12+000999999V0202001N003119999999N0000001N9+01331+99999101401ADDAJ100009199999999GF102991999999999999999999
0029029110999991922070213004+63083+021617FM-12+000999999V0202301N006219999999N0000001N9+01671+99999101721ADDGF100991999999999999999999
0029029110999991922070220004+63083+021617FM-12+000999999V0201801N003119999999N0000001N9+99999+99999101861ADDGF102991999999999999999999
0046029110999991922070306004+63083+021617FM-12+000999999V0201801N003119999999N0000001N9+01561+99999101911ADDAJ100009199999999GF101991999999999999999999
0029029110999991922070313004+63083+021617FM-12+000999999V0201801N001019999999N0000001N9+02061+99999101841ADDGF108991999999999999999999
0029029110999991922070320004+63083+021617FM-12+000999999V0201401N001019999999N0000001N9+01671+99999101641ADDGF107991999999999999999999
0052029110999991922070406004+63083+021617FM-12+000999999V0201601N001019999999N0000001N9+01441+99999101381ADDAJ100009199999999GF108991999999999999999999MW1621
0029029110999991922070413004+63083+021617FM-12+000999999V0202501N002119999999N0000001N9+01721+99999101351ADDGF106991999999999999999999
0029029110999991922070420004+63083+021617FM-12+000999999V0209991C000019999999N0000001N9+01501+99999101191ADDGF103991999999999999999999
0046029110999991922070506004+63083+021617FM-12+000999999V0201601N001019999999N0000001N9+01561+99999100881ADDAJ100009199999999GF108991999999999999999999
0029029110999991922070513004+63083+021617FM-12+000999999V0202001N003119999999N0000001N9+01941+99999100791ADDGF105991999999999999999999
0029029110999991922070520004+63083+021617FM-12+000999999V0201801N001019999999N0000001N9+01441+99999100721ADDGF108991999999999999999999
0046029110999991922070606004+63083+021617FM-12+000999999V0202001N001019999999N0000001N9+01441+99999100721ADDAJ100009199999999GF108991999999999999999999
0029029110999991922070613004+63083+021617FM-12+000999999V0201801N002119999999N0000001N9+01561+99999100831ADDGF108991999999999999999999
0029029110999991922070620004+63083+021617FM-12+000999999V0201601N001019999999N0000001N9+01671+99999100671ADDGF108991999999999999999999
0046029110999991922070706004+63083+021617FM-12+000999999V0201601N004119999999N0000001N9+02001+99999999999ADDAJ100009199999999GF108991999999999999999999
0029029110999991922070713004+63083+021617FM-12+000999999V0202001N008219999999N0000001N9+01891+99999100361ADDGF101991999999999999999999
0029029110999991922070720004+63083+021617FM-12+000999999V0202001N005119999999N0000001N9+01501+99999100511ADDGF101991999999999999999999
0046029110999991922070806004+63083+021617FM-12+000999999V0202001N002119999999N0000001N9+01441+99999100721ADDAJ100009199999999GF108991999999999999999999
0029029110999991922070813004+63083+021617FM-12+000999999V0202301N005119999999N0000001N9+01671+99999100921ADDGF101991999999999999999999
0029029110999991922070820004+63083+021617FM-12+000999999V0202001N002119999999N0000001N9+01391+99999101141ADDGF101991999999999999999999
0046029110999991922070906004+63083+021617FM-12+000999999V0200701N001019999999N0000001N9+01671+99999101601ADDAJ100009199999999GF102991999999999999999999
0029029110999991922070913004+63083+021617FM-12+000999999V0202301N004119999999N0000001N9+01941+99999101741ADDGF102991999999999999999999
0029029110999991922070920004+63083+021617FM-12+000999999V0202001N003119999999N0000001N9+01501+99999101711ADDGF108991999999999999999999
0046029110999991922071006004+63083+021617FM-12+000999999V0201401N004119999999N0000001N9+01721+99999101221ADDAJ100009199999999GF102991999999999999999999
0029029110999991922071013004+63083+021617FM-12+000999999V0202001N008219999999N0000001N9+01671+99999100921ADDGF102991999999999999999999
0029029110999991922071020004+63083+021617FM-12+000999999V0201801N008219999999N0000001N9+01501+99999100831ADDGF108991999999999999999999
0046029110999991922071106004+63083+021617FM-12+000999999V0201801N005119999999N0000001N9+01391+99999100671ADDAJ100009199999999GF108991999999999999999999
0035029110999991922071113004+63083+021617FM-12+000999999V0202301N004119999999N0000001N9+01441+99999100741ADDGF106991999999999999999999MW1601
0029029110999991922071120004+63083+021617FM-12+000999999V0202701N003119999999N0000001N9+01441+99999101031ADDGF105991999999999999999999
0046029110999991922071206004+63083+021617FM-12+000999999V0200201N003119999999N0000001N9+01221+99999101631ADDAJ100009199999999GF108991999999999999999999
0029029110999991922071213004+63083+021617FM-12+000999999V0200201N004119999999N0000001N9+01671+99999101861ADDGF102991999999999999999999
0029029110999991922071220004+63083+021617FM-12+000999999V0203601N001019999999N0000001N9+01331+99999101921ADDGF101991999999999999999999
0046029110999991922071306004+63083+021617FM-12+000999999V0203601N003119999999N0000001N9+01501+99999101991ADDAJ100009199999999GF100991999999999999999999
0029029110999991922071313004+63083+021617FM-12+000999999V0200201N006219999999N0000001N9+01501+99999101941ADDGF100991999999999999999999
0029029110999991922071320004+63083+021617FM-12+000999999V0200201N001019999999N0000001N9+01171+99999101761ADDGF100991999999999999999999
0046029110999991922071406004+63083+021617FM-12+000999999V0200201N001019999999N0000001N9+01221+99999101701ADDAJ100009199999999GF108991999999999999999999
0029029110999991922071413004+63083+021617FM-12+000999999V0200201N004119999999N0000001N9+01561+99999101521ADDGF102991999999999999999999
0029029110999991922071420004+63083+021617FM-12+000999999V0200201N001019999999N0000001N9+01111+99999101391ADDGF100991999999999999999999
0046029110999991922071506004+63083+021617FM-12+000999999V0200201N001019999999N0000001N9+01221+99999101261ADDAJ100009199999999GF108991999999999999999999
0029029110999991922071513004+63083+021617FM-12+000999999V0203601N002119999999N0000001N9+99999+99999101081ADDGF102991999999999999999999
0029029110999991922071520004+63083+021617FM-12+000999999V0200201N001019999999N0000001N9+01331+99999100981ADDGF103991999999999999999999
0046029110999991922071606004+63083+021617FM-12+000999999V0200201N001019999999N0000001N9+01671+99999100841ADDAJ100009199999999GF104991999999999999999999
0029029110999991922071613004+63083+021617FM-12+000999999V0200201N003119999999N0000001N9+01721+99999100761ADDGF108991999999999999999999
0029029110999991922071620004+63083+021617FM-12+000999999V0200201N001019999999N0000001N9+01391+99999100661ADDGF104991999999999999999999
0046029110999991922071706004+63083+021617FM-12+000999999V0200701N001019999999N0000001N9+99999+99999100501ADDAJ100009199999999GF102991999999999999999999
0029029110999991922071713004+63083+021617FM-12+000999999V0200501N004119999999N0000001N9+02171+99999100341ADDGF105991999999999999999999
0029029110999991922071720004+63083+021617FM-12+000999999V0200701N003119999999N0000001N9+01781+99999100301ADDGF108991999999999999999999
0046029110999991922071806004+63083+021617FM-12+000999999V0200501N005119999999N0000001N9+01781+99999100121ADDAJ100009199999999GF104991999999999999999999
0029029110999991922071813004+63083+021617FM-12+000999999V0200201N008219999999N0000001N9+02001+99999999999ADDGF100991999999999999999999
0029029110999991922071820004+63083+021617FM-12+000999999V0200201N003119999999N0000001N9+01561+99999099981ADDGF101991999999999999999999
0046029110999991922071906004+63083+021617FM-12+000999999V0200501N004119999999N0000001N9+01441+99999099961ADDAJ100009199999999GF105991999999999999999999
0029029110999991922071913004+63083+021617FM-12+000999999V0200201N006219999999N0000001N9+01721+99999099981ADDGF107991999999999999999999
0029029110999991922071920004+63083+021617FM-12+000999999V0200201N002119999999N0000001N9+01441+99999999999ADDGF107991999999999999999999
0046029110999991922072006004+63083+021617FM-12+000999999V0203601N002119999999N0000001N9+99999+99999999999ADDAJ100009199999999GF108991999999999999999999
0029029110999991922072013004+63083+021617FM-12+000999999V0203601N003119999999N0000001N9+01721+99999100111ADDGF104991999999999999999999
0029029110999991922072020004+63083+021617FM-12+000999999V0203601N001019999999N0000001N9+01331+99999100261ADDGF105991999999999999999999
0046029110999991922072106004+63083+021617FM-12+000999999V0203601N002119999999N0000001N9+01561+99999100421ADDAJ100009199999999GF107991999999999999999999
0029029110999991922072113004+63083+021617FM-12+000999999V0203601N003119999999N0000001N9+02001+99999100481ADDGF101991999999999999999999
0029029110999991922072120004+63083+021617FM-12+000999999V0203201N001019999999N0000001N9+01671+99999100361ADDGF100991999999999999999999
0046029110999991922072206004+63083+021617FM-12+000999999V0203601N003119999999N0000001N9+01671+99999099951ADDAJ100009199999999GF102991999999999999999999
0035029110999991922072213004+63083+021617FM-12+000999999V0203601N006219999999N0000001N9+01391+99999099901ADDGF108991999999999999999999MW1621
0029029110999991922072220004+63083+021617FM-12+000999999V0203601N002119999999N0000001N9+01391+99999099791ADDGF108991999999999999999999
0046029110999991922072306004+63083+021617FM-12+000999999V0201101N001019999999N0000001N9+01611+99999099781ADDAJ100009199999999GF108991999999999999999999
0035029110999991922072313004+63083+021617FM-12+000999999V0200901N001019999999N0000001N9+99999+99999099901ADDGF107991999999999999999999MW1621
0029029110999991922072320004+63083+021617FM-12+000999999V0201101N001019999999N0000001N9+01721+99999100021ADDGF102991999999999999999999
0046029110999991922072406004+63083+021617FM-12+000999999V0202501N001019999999N0000001N9+01501+99999100221ADDAJ100009199999999GF108991999999999999999999
0029029110999991922072413004+63083+021617FM-12+000999999V0202701N002119999999N0000001N9+01721+99999100361ADDGF106991999999999999999999
0029029110999991922072420004+63083+021617FM-12+000999999V0202701N001019999999N0000001N9+01501+99999100381ADDGF108991999999999999999999
0046029110999991922072506004+63083+021617FM-12+000999999V0201101N001019999999N0000001N9+01721+99999100441ADDAJ100009199999999GF100991999999999999999999
0029029110999991922072513004+63083+021617FM-12+000999999V0200501N003119999999N0000001N9+02171+99999100441ADDGF104991999999999999999999
0029029110999991922072520004+63083+021617FM-12+000999999V0200501N001019999999N0000001N9+01941+99999100501ADDGF105991999999999999999999
0046029110999991922072606004+63083+021617FM-12+000999999V0200701N001019999999N0000001N9+01831+99999100661ADDAJ100009199999999GF106991999999999999999999
0029029110999991922072613004+63083+021617FM-12+000999999V0200201N004119999999N0000001N9+02171+99999100681ADDGF104991999999999999999999
0029029110999991922072620004+63083+021617FM-12+000999999V0200201N001019999999N0000001N9+01671+99999100741ADDGF101991999999999999999999
0046029110999991922072706004+63083+021617FM-12+000999999V0200501N001019999999N0000001N9+01721+99999100661ADDAJ100009199999999GF100991999999999999999999
0029029110999991922072713004+63083+021617FM-12+000999999V0200201N008219999999N0000001N9+01721+99999100541ADDGF100991999999999999999999
0029029110999991922072720004+63083+021617FM-12+000999999V0200201N002119999999N0000001N9+01331+99999100401ADDGF100991999999999999999999
0046029110999991922072806004+63083+021617FM-12+000999999V0203601N003119999999N0000001N9+01611+99999100201ADDAJ100009199999999GF100991999999999999999999
0029029110999991922072813004+63083+021617FM-12+000999999V0203601N006219999999N0000001N9+01781+99999100151ADDGF101991999999999999999999
0029029110999991922072820004+63083+021617FM-12+000999999V0203601N002119999999N0000001N9+01441+99999100141ADDGF100991999999999999999999
0046029110999991922072906004+63083+021617FM-12+000999999V0203601N002119999999N0000001N9+01561+99999100081ADDAJ100009199999999GF108991999999999999999999
0029029110999991922072913004+63083+021617FM-12+000999999V0203401N004119999999N0000001N9+01611+99999100121ADDGF108991999999999999999999
0035029110999991922072920004+63083+021617FM-12+000999999V0202901N004119999999N0000001N9+01331+99999100041ADDGF108991999999999999999999MW1621
0046029110999991922073006004+63083+021617FM-12+000999999V0202901N001019999999N0000001N9+01391+99999099951ADDAJ100009199999999GF108991999999999999999999
0029029110999991922073013004+63083+021617FM-12+000999999V0202501N002119999999N0000001N9+01501+99999100141ADDGF108991999999999999999999
0029029110999991922073020004+63083+021617FM-12+000999999V0202301N002119999999N0000001N9+01441+99999100231ADDGF108991999999999999999999
0046029110999991922073106004+63083+021617FM-12+000999999V0202001N001019999999N0000001N9+01501+99999100271ADDAJ100009199999999GF108991999999999999999999
0029029110999991922073113004+63083+021617FM-12+000999999V0202301N003119999999N0000001N9+01781+99999100351ADDGF106991999999999999999999
0029029110999991922073120004+63083+021617FM-12+000999999V0201801N001019999999N0000001N9+01561+99999100391ADDGF102991999999999999999999
0046029110999991922080106004+63083+021617FM-12+000999999V0201801N002119999999N0000001N9+01501+99999100511ADDAJ100009199999999GF106991999999999999999999
0029029110999991922080113004+63083+021617FM-12+000999999V0202001N005119999999N0000001N9+01941+99999100601ADDGF102991999999999999999999
0029029110999991922080120004+63083+021617FM-12+000999999V0201801N003119999999N0000001N9+01391+99999100521ADDGF101991999999999999999999
0046029110999991922080206004+63083+021617FM-12+000999999V0202301N009819999999N0000001N9+01391+99999100621ADDAJ100009199999999GF102991999999999999999999
0029029110999991922080213004+63083+021617FM-12+000999999V0202001N009819999999N0000001N9+01611+99999100991ADDGF103991999999999999999999
0029029110999991922080220004+63083+021617FM-12+000999999V0202001N003119999999N0000001N9+01441+99999101181ADDGF102991999999999999999999
0046029110999991922080306004+63083+021617FM-12+000999999V0201601N003119999999N0000001N9+01331+99999101281ADDAJ100009199999999GF108991999999999999999999
0035029110999991922080313004+63083+021617FM-12+000999999V0203401N001019999999N0000001N9+01281+99999101281ADDGF108991999999999999999999MW1641
0035029110999991922080320004+63083+021617FM-12+000999999V0200701N001019999999N0000001N9+01441+99999101071ADDGF108991999999999999999999MW1621
0052029110999991922080406004+63083+021617FM-12+000999999V0202901N001019999999N0000001N9+01221+99999100831ADDAJ100009199999999GF108991999999999999999999MW1621
0029029110999991922080413004+63083+021617FM-12+000999999V0202901N001019999999N0000001N9+01561+99999100781ADDGF103991999999999999999999
0029029110999991922080420004+63083+021617FM-12+000999999V0202501N002119999999N0000001N9+01281+99999100741ADDGF102991999999999999999999
0046029110999991922080506004+63083+021617FM-12+000999999V0202001N002119999999N0000001N9+01171+99999100541ADDAJ100009199999999GF108991999999999999999999
0029029110999991922080513004+63083+021617FM-12+000999999V0202301N005119999999N0000001N9+01611+99999100641ADDGF102991999999999999999999
0029029110999991922080520004+63083+021617FM-12+000999999V0201801N001019999999N0000001N9+01281+99999100801ADDGF101991999999999999999999
0046029110999991922080606004+63083+021617FM-12+000999999V0201601N001019999999N0000001N9+01331+99999101021ADDAJ100009199999999GF101991999999999999999999
0029029110999991922080613004+63083+021617FM-12+000999999V0200501N002119999999N0000001N9+01891+99999100991ADDGF104991999999999999999999
0029029110999991922080620004+63083+021617FM-12+000999999V0200201N002119999999N0000001N9+01441+99999100951ADDGF108991999999999999999999
0046029110999991922080706004+63083+021617FM-12+000999999V0200201N002119999999N0000001N9+01441+99999100701ADDAJ100009199999999GF108991999999999999999999
0029029110999991922080713004+63083+021617FM-12+000999999V0203601N005119999999N0000001N9+01611+99999100521ADDGF108991999999999999999999
0029029110999991922080720004+63083+021617FM-12+000999999V0202701N003119999999N0000001N9+01441+99999100341ADDGF108991999999999999999999
0046029110999991922080806004+63083+021617FM-12+000999999V0202901N002119999999N0000001N9+01501+99999100301ADDAJ100009199999999GF102991999999999999999999
0029029110999991922080813004+63083+021617FM-12+000999999V0202301N006219999999N0000001N9+01671+99999100521ADDGF101991999999999999999999
0029029110999991922080820004+63083+021617FM-12+000999999V0202301N004119999999N0000001N9+01501+99999100681ADDGF102991999999999999999999
0046029110999991922080906004+63083+021617FM-12+000999999V0202501N003119999999N0000001N9+01441+99999100961ADDAJ100009199999999GF102991999999999999999999
0029029110999991922080913004+63083+021617FM-12+000999999V0202701N001019999999N0000001N9+01721+99999101061ADDGF103991999999999999999999
0029029110999991922080920004+63083+021617FM-12+000999999V0200201N001019999999N0000001N9+01281+99999100941ADDGF102991999999999999999999
0046029110999991922081006004+63083+021617FM-12+000999999V0203601N001019999999N0000001N9+01331+99999100671ADDAJ100009199999999GF108991999999999999999999
0029029110999991922081013004+63083+021617FM-12+000999999V0203601N006219999999N0000001N9+01561+99999100561ADDGF108991999999999999999999
0029029110999991922081020004+63083+021617FM-12+000999999V0203601N005119999999N0000001N9+01391+99999100561ADDGF108991999999999999999999
0052029110999991922081106004+63083+021617FM-12+000999999V0203401N005119999999N0000001N9+01221+99999100591ADDAJ100009199999999GF108991999999999999999999MW1641
0035029110999991922081113004+63083+021617FM-12+000999999V0200201N003119999999N0000001N9+01391+99999100641ADDGF108991999999999999999999MW1621
0029029110999991922081120004+63083+021617FM-12+000999999V0200501N001019999999N0000001N9+01281+99999100801ADDGF108991999999999999999999
0046029110999991922081206004+63083+021617FM-12+000999999V0200201N005119999999N0000001N9+01171+99999100961ADDAJ100009199999999GF108991999999999999999999
0029029110999991922081213004+63083+021617FM-12+000999999V0200201N008219999999N0000001N9+01171+99999101031ADDGF108991999999999999999999
0029029110999991922081220004+63083+021617FM-12+000999999V0203601N005119999999N0000001N9+01001+99999101111ADDGF108991999999999999999999
0046029110999991922081306004+63083+021617FM-12+000999999V0203401N005119999999N0000001N9+01001+99999101041ADDAJ100009199999999GF108991999999999999999999
0029029110999991922081313004+63083+021617FM-12+000999999V0200201N005119999999N0000001N9+01221+99999101031ADDGF107991999999999999999999
0029029110999991922081320004+63083+021617FM-12+000999999V0200201N002119999999N0000001N9+01001+99999101031ADDGF108991999999999999999999
0046029110999991922081406004+63083+021617FM-12+000999999V0200501N001019999999N0000001N9+01061+99999100981ADDAJ100009199999999GF108991999999999999999999
0029029110999991922081413004+63083+021617FM-12+000999999V0203601N003119999999N0000001N9+01441+99999100921ADDGF104991999999999999999999
0029029110999991922081420004+63083+021617FM-12+000999999V0203601N001019999999N0000001N9+01111+99999100941ADDGF107991999999999999999999
0046029110999991922081506004+63083+021617FM-12+000999999V0200201N002119999999N0000001N9+01061+99999100961ADDAJ100009199999999GF104991999999999999999999
0029029110999991922081513004+63083+021617FM-12+000999999V0200501N003119999999N0000001N9+01441+99999100961ADDGF105991999999999999999999
0029029110999991922081520004+63083+021617FM-12+000999999V0200501N001019999999N0000001N9+01001+99999101001ADDGF102991999999999999999999
0046029110999991922081606004+63083+021617FM-12+000999999V0200501N001019999999N0000001N9+01171+99999101111ADDAJ100009199999999GF105991999999999999999999
0029029110999991922081613004+63083+021617FM-12+000999999V0203601N003119999999N0000001N9+01501+99999101191ADDGF102991999999999999999999
0029029110999991922081620004+63083+021617FM-12+000999999V0200201N001019999999N0000001N9+00941+99999101301ADDGF100991999999999999999999
0046029110999991922081706004+63083+021617FM-12+000999999V0201601N001019999999N0000001N9+01001+99999101441ADDAJ100009199999999GF106991999999999999999999
0029029110999991922081713004+63083+021617FM-12+000999999V0202901N001019999999N0000001N9+01671+99999101461ADDGF101991999999999999999999
0029029110999991922081720004+63083+021617FM-12+000999999V0201401N001019999999N0000001N9+01001+99999101321ADDGF101991999999999999999999
0046029110999991922081806004+63083+021617FM-12+000999999V0201401N001019999999N0000001N9+01171+99999101081ADDAJ100009199999999GF108991999999999999999999
0035029110999991922081813004+63083+021617FM-12+000999999V0201401N002119999999N0000001N9+01331+99999100921ADDGF108991999999999999999999MW1601
0035029110999991922081820004+63083+021617FM-12+000999999V0201101N003119999999N0000001N9+01391+99999100681ADDGF108991999999999999999999MW1621
0046029110999991922081906004+63083+021617FM-12+000999999V0201801N001019999999N0000001N9+01331+99999100641ADDAJ100009199999999GF108991999999999999999999
0035029110999991922081913004+63083+021617FM-12+000999999V0209991C000019999999N0000001N9+01561+99999100661ADDGF108991999999999999999999MW1601
0029029110999991922081920004+63083+021617FM-12+000999999V0209991C000019999999N0000001N9+01281+99999100621ADDGF107991999999999999999999
0046029110999991922082006004+63083+021617FM-12+000999999V0202501N001019999999N0000001N9+01281+99999100521ADDAJ100009199999999GF106991999999999999999999
0029029110999991922082013004+63083+021617FM-12+000999999V0202501N001019999999N0000001N9+01561+99999100721ADDGF107991999999999999999999
0029029110999991922082020004+63083+021617FM-12+000999999V0209991C000019999999N0000001N9+01281+99999100801ADDGF107991999999999999999999
0052029110999991922082106004+63083+021617FM-12+000999999V0203601N002119999999N0000001N9+01221+99999100711ADDAJ100009199999999GF108991999999999999999999MW1601
0029029110999991922082113004+63083+021617FM-12+000999999V0201801N002119999999N0000001N9+01441+99999100881ADDGF108991999999999999999999
0029029110999991922082120004+63083+021617FM-12+000999999V0200201N001019999999N0000001N9+01281+99999101001ADDGF106991999999999999999999
0046029110999991922082206004+63083+021617FM-12+000999999V0203601N001019999999N0000001N9+01281+99999100961ADDAJ100009199999999GF108991999999999999999999
0029029110999991922082213004+63083+021617FM-12+000999999V0203201N001019999999N0000001N9+01561+99999101001ADDGF107991999999999999999999
0029029110999991922082220004+63083+021617FM-12+000999999V0202301N002119999999N0000001N9+01281+99999101151ADDGF106991999999999999999999
0046029110999991922082306004+63083+021617FM-12+000999999V0201101N002119999999N0000001N9+01111+99999100991ADDAJ100009199999999GF108991999999999999999999
0029029110999991922082313004+63083+021617FM-12+000999999V0201401N004119999999N0000001N9+01831+99999100631ADDGF107991999999999999999999
0029029110999991922082320004+63083+021617FM-12+000999999V0200901N004119999999N0000001N9+01501+99999100381ADDGF107991999999999999999999
0052029110999991922082406004+63083+021617FM-12+000999999V0201101N004119999999N0000001N9+01501+99999100031ADDAJ100009199999999GF108991999999999999999999MW1601
0029029110999991922082413004+63083+021617FM-12+000999999V0201101N004119999999N0000001N9+01721+99999099981ADDGF108991999999999999999999
0035029110999991922082420004+63083+021617FM-12+000999999V0201101N006219999999N0000001N9+01781+99999099801ADDGF108991999999999999999999MW1621
0046029110999991922082506004+63083+021617FM-12+000999999V0201101N003119999999N0000001N9+01331+99999100061ADDAJ100009199999999GF107991999999999999999999
0035029110999991922082513004+63083+021617FM-12+000999999V0201601N003119999999N0000001N9+01501+99999100271ADDGF105991999999999999999999MW1621
0029029110999991922082520004+63083+021617FM-12+000999999V0201801N001019999999N0000001N9+01281+99999100511ADDGF102991999999999999999999
0046029110999991922082606004+63083+021617FM-12+000999999V0201601N001019999999N0000001N9+01221+99999100751ADDAJ100009199999999GF102991999999999999999999
0029029110999991922082613004+63083+021617FM-12+000999999V0201601N002119999999N0000001N9+01831+99999100901ADDGF105991999999999999999999
0029029110999991922082620004+63083+021617FM-12+000999999V0201601N001019999999N0000001N9+01281+99999100911ADDGF102991999999999999999999
0046029110999991922082706004+63083+021617FM-12+000999999V0201601N001019999999N0000001N9+01281+99999100961ADDAJ100009199999999GF104991999999999999999999
0029029110999991922082713004+63083+021617FM-12+000999999V0202701N001019999999N0000001N9+01501+99999101191ADDGF106991999999999999999999
0029029110999991922082720004+63083+021617FM-12+000999999V0202301N001019999999N0000001N9+01281+99999101351ADDGF103991999999999999999999
0046029110999991922082806004+63083+021617FM-12+000999999V0201801N001019999999N0000001N9+01111+99999101581ADDAJ100009199999999GF108991999999999999999999
0029029110999991922082813004+63083+021617FM-12+000999999V0202301N005119999999N0000001N9+01781+99999101631ADDGF104991999999999999999999
0029029110999991922082820004+63083+021617FM-12+000999999V0201801N003119999999N0000001N9+01281+99999101481ADDGF105991999999999999999999
0046029110999991922082906004+63083+021617FM-12+000999999V0202001N005119999999N0000001N9+01501+99999101321ADDAJ100009199999999GF108991999999999999999999
0029029110999991922082913004+63083+021617FM-12+000999999V0202301N007219999999N0000001N9+01781+99999101421ADDGF102991999999999999999999
0029029110999991922082920004+63083+021617FM-12+000999999V0201801N001019999999N0000001N9+01331+99999101441ADDGF106991999999999999999999
0046029110999991922083006004+63083+021617FM-12+000999999V0201601N001019999999N0000001N9+01391+99999101511ADDAJ100009199999999GF108991999999999999999999
0029029110999991922083013004+63083+021617FM-12+000999999V0202701N001019999999N0000001N9+01781+99999101551ADDGF107991999999999999999999
0035029110999991922083020004+63083+021617FM-12+000999999V0209991C000019999999N0000001N9+01441+99999101511ADDGF108991999999999999999999MW1601
0046029110999991922083106004+63083+021617FM-12+000999999V0200701N001019999999N0000001N9+01441+99999101551ADDAJ100009199999999GF107991999999999999999999
0029029110999991922083113004+63083+021617FM-12+000999999V0200501N001019999999N0000001N9+02061+99999101541ADDGF103991999999999999999999
0029029110999991922083120004+63083+021617FM-12+000999999V0200901N001019999999N0000001N9+01561+99999101581ADDGF108991999999999999999999
0046029110999991922090106004+63083+021617FM-12+000999999V0201101N001019999999N0000001N9+01441+99999101711ADDAJ100009199999999GF108991999999999999999999
