0029029110999991925010106004+63083+021617FM-12+000999999V0202301N007219999999N0000001N9+00111+99999099441ADDGF103991999999999999999999
0035029110999991925010113004+63083+021617FM-12+000999999V0201401N011819999999N0000001N9+00221+99999099231ADDGF108991999999999999999999MW1601
0029029110999991925010120004+63083+021617FM-12+000999999V0201801N008719999999N0000001N9+00111+99999099081ADDGF105991999999999999999999
0035029110999991925010206004+63083+021617FM-12+000999999V0202301N008719999999N0000001N9+00221+99999098841ADDGF108991999999999999999999MW1641
0035029110999991925010213004+63083+021617FM-12+000999999V0202001N013919999999N0000001N9+00111+99999097551ADDGF108991999999999999999999MW1641
0029029110999991925010220004+63083+021617FM-12+000999999V0201401N008719999999N0000001N9+00221+99999097261ADDGF108991999999999999999999
0029029110999991925010306004+63083+021617FM-12+000999999V0201101N005119999999N0000001N9+00061+99999096041ADDGF108991999999999999999999
0029029110999991925010313004+63083+021617FM-12+000999999V0201601N003119999999N0000001N9+00061+99999095831ADDGF108991999999999999999999
0029029110999991925010320004+63083+021617FM-12+000999999V0202701N009819999999N0000001N9+00171+99999096711ADDGF108991999999999999999999
0029029110999991925010406004+63083+021617FM-12+000999999V0202701N007219999999N0000001N9+00221+99999097711ADDGF100991999999999999999999
0029029110999991925010413004+63083+021617FM-12+000999999V0202701N007219999999N0000001N9+00111+99999098141ADDGF102991999999999999999999
0029029110999991925010420004+63083+021617FM-12+000999999V0202001N005119999999N0000001N9-00061+99999098061ADDGF100991999999999999999999
0029029110999991925010506004+63083+021617FM-12+000999999V0202701N007219999999N0000001N9+00111+99999098241ADDGF100991999999999999999999
0029029110999991925010513004+63083+021617FM-12+000999999V0202701N011819999999N0000001N9+00221+99999098581ADDGF103991999999999999999999
0029029110999991925010520004+63083+021617FM-12+000999999V0202501N008719999999N0000001N9+00171+99999098671ADDGF102991999999999999999999
0029029110999991925010606004+63083+021617FM-12+000999999V0202001N005119999999N0000001N9+00001+99999098431ADDGF108991999999999999999999
0029029110999991925010613004+63083+021617FM-12+000999999V0203401N005119999999N0000001N9+00001+99999098621ADDGF105991999999999999999999
0029029110999991925010620004+63083+021617FM-12+000999999V0203201N003119999999N0000001N9-00111+99999098911ADDGF100991999999999999999999
0029029110999991925010706004+63083+021617FM-12+000999999V0203401N005119999999N0000001N9-00111+99999099221ADDGF100991999999999999999999
0029029110999991925010713004+63083+021617FM-12+000999999V0203601N003119999999N0000001N9-00391+99999099361ADDGF106991999999999999999999
0029029110999991925010720004+63083+021617FM-12+000999999V0209991C000019999999N0000001N9-00331+99999099441ADDGF108991999999999999999999
0029029110999991925010806004+63083+021617FM-12+000999999V0201601N005119999999N0000001N9-00441+99999099991ADDGF108991999999999999999999
0029029110999991925010813004+63083+021617FM-12+000999999V0201801N005119999999N0000001N9-00331+99999100021ADDGF108991999999999999999999
0029029110999991925010820004+63083+021617FM-12+000999999V0202001N005119999999N0000001N9-00111+99999099911ADDGF104991999999999999999999
0029029110999991925010906004+63083+021617FM-12+000999999V0202501N003119999999N0000001N9-00111+99999099501ADDGF104991999999999999999999
0029029110999991925010913004+63083+021617FM-12+000999999V0209991C000019999999N0000001N9-00111+99999099431ADDGF108991999999999999999999
0029029110999991925010920004+63083+021617FM-12+000999999V0209991C000019999999N0000001N9-00221+99999099721ADDGF108991999999999999999999
0029029110999991925011006004+63083+021617FM-12+000999999V0203401N003119999999N0000001N9-00331+99999100621ADDGF100991999999999999999999
0029029110999991925011013004+63083+021617FM-12+000999999V0203401N007219999999N0000001N9-00221+99999100951ADDGF102991999999999999999999
0029029110999991925011020004+63083+021617FM-12+000999999V0202501N005119999999N0000001N9-00221+99999100901ADDGF108991999999999999999999
0029029110999991925011106004+63083+021617FM-12+000999999V0202301N005119999999N0000001N9+00001+99999099881ADDGF108991999999999999999999
0029029110999991925011113004+63083+021617FM-12+000999999V0203201N003119999999N0000001N9+00061+99999100441ADDGF108991999999999999999999
0029029110999991925011120004+63083+021617FM-12+000999999V0209991C000019999999N0000001N9-00061+99999100881ADDGF104991999999999999999999
0029029110999991925011206004+63083+021617FM-12+000999999V0202301N007219999999N0000001N9+00391+99999101101ADDGF106991999999999999999999
0029029110999991925011213004+63083+021617FM-12+000999999V0202701N009819999999N0000001N9+00331+99999101361ADDGF100991999999999999999999
0029029110999991925011220004+63083+021617FM-12+000999999V0202501N007219999999N0000001N9+00441+99999101401ADDGF108991999999999999999999
0029029110999991925011306004+63083+021617FM-12+000999999V0202301N007219999999N0000001N9+00061+99999101261ADDGF102991999999999999999999
0029029110999991925011313004+63083+021617FM-12+000999999V0202501N007219999999N0000001N9+00061+99999101241ADDGF108991999999999999999999
0029029110999991925011320004+63083+021617FM-12+000999999V0202001N007219999999N0000001N9+00001+99999101141ADDGF108991999999999999999999
0029029110999991925011406004+63083+021617FM-12+000999999V0202301N005119999999N0000001N9+00001+99999101191ADDGF104991999999999999999999
0029029110999991925011413004+63083+021617FM-12+000999999V0202001N007219999999N0000001N9+00171+99999100781ADDGF108991999999999999999999
0035029110999991925011420004+63083+021617FM-12+000999999V0202701N023119999999N0000001N9+00111+99999100081ADDGF108991999999999999999999MW1621
0029029110999991925011506004+63083+021617FM-12+000999999V0201801N023119999999N0000001N9+00391+99999099361ADDGF100991999999999999999999
0029029110999991925011513004+63083+021617FM-12+000999999V0202301N023119999999N0000001N9+00331+99999099301ADDGF104991999999999999999999
0029029110999991925011520004+63083+021617FM-12+000999999V0202701N011819999999N0000001N9+00331+99999098791ADDGF108991999999999999999999
0029029110999991925011606004+63083+021617FM-12+000999999V0202701N023119999999N0000001N9+00221+99999100021ADDGF100991999999999999999999
0029029110999991925011613004+63083+021617FM-12+000999999V0202701N023119999999N0000001N9+00221+99999100241ADDGF108991999999999999999999
0035029110999991925011620004+63083+021617FM-12+000999999V0202501N008719999999N0000001N9+00331+99999099901ADDGF108991999999999999999999MW1601
0029029110999991925011706004+63083+021617FM-12+000999999V0202701N023119999999N0000001N9+00441+99999100281ADDGF100991999999999999999999
0029029110999991925011713004+63083+021617FM-12+000999999V0202701N008719999999N0000001N9+00441+99999101111ADDGF101991999999999999999999
0029029110999991925011720004+63083+021617FM-12+000999999V0202501N005119999999N0000001N9+00281+99999101921ADDGF100991999999999999999999
0029029110999991925011806004+63083+021617FM-12+000999999V0202001N011819999999N0000001N9+00221+99999101621ADDGF100991999999999999999999
0029029110999991925011813004+63083+021617FM-12+000999999V0202001N008719999999N0000001N9+00111+99999101501ADDGF102991999999999999999999
0029029110999991925011820004+63083+021617FM-12+000999999V0202001N008719999999N0000001N9+00111+99999101181ADDGF100991999999999999999999
0029029110999991925011906004+63083+021617FM-12+000999999V0202701N023119999999N0000001N9+00281+99999100921ADDGF100991999999999999999999
0029029110999991925011913004+63083+021617FM-12+000999999V0202901N023119999999N0000001N9+00171+99999101541ADDGF106991999999999999999999
0029029110999991925011920004+63083+021617FM-12+000999999V0203201N023119999999N0000001N9+00111+99999102581ADDGF100991999999999999999999
0029029110999991925012006004+63083+021617FM-12+000999999V0202901N023119999999N0000001N9+00111+99999103361ADDGF102991999999999999999999
0029029110999991925012013004+63083+021617FM-12+000999999V0203201N011819999999N0000001N9+00221+99999103231ADDGF106991999999999999999999
0029029110999991925012020004+63083+021617FM-12+000999999V0202301N011819999999N0000001N9+00221+99999103111ADDGF100991999999999999999999
0029029110999991925012106004+63083+021617FM-12+000999999V0202501N008719999999N0000001N9+00221+99999103221ADDGF100991999999999999999999
0029029110999991925012113004+63083+021617FM-12+000999999V0202501N009819999999N0000001N9+00221+99999103141ADDGF100991999999999999999999
0029029110999991925012120004+63083+021617FM-12+000999999V0202501N007219999999N0000001N9+00111+99999103231ADDGF100991999999999999999999
0029029110999991925012206004+63083+021617FM-12+000999999V0202701N003119999999N0000001N9-00171+99999103311ADDGF108991999999999999999999
0029029110999991925012213004+63083+021617FM-12+000999999V0202701N003119999999N0000001N9-00061+99999103151ADDGF108991999999999999999999
0029029110999991925012220004+63083+021617FM-12+000999999V0209991C000019999999N0000001N9-00061+99999103021ADDGF108991999999999999999999
0029029110999991925012306004+63083+021617FM-12+000999999V0202001N003119999999N0000001N9-00221+99999102821ADDGF108991999999999999999999
0029029110999991925012313004+63083+021617FM-12+000999999V0209991C000019999999N0000001N9-00281+99999102621ADDGF108991999999999999999999
0029029110999991925012320004+63083+021617FM-12+000999999V0201601N005119999999N0000001N9-00111+99999102431ADDGF108991999999999999999999
0029029110999991925012406004+63083+021617FM-12+000999999V0209991C000019999999N0000001N9-00061+99999102401ADDGF108991999999999999999999
0029029110999991925012413004+63083+021617FM-12+000999999V0202701N005119999999N0000001N9-00111+99999102461ADDGF108991999999999999999999
0029029110999991925012420004+63083+021617FM-12+000999999V0202301N003119999999N0000001N9-00171+99999102661ADDGF108991999999999999999999
0029029110999991925012506004+63083+021617FM-12+000999999V0209991C000019999999N0000001N9-00111+99999103081ADDGF100991999999999999999999
0029029110999991925012513004+63083+021617FM-12+000999999V0203201N005119999999N0000001N9+00001+99999103481ADDGF100991999999999999999999
0029029110999991925012520004+63083+021617FM-12+000999999V0202701N005119999999N0000001N9+00001+99999103641ADDGF100991999999999999999999
0029029110999991925012606004+63083+021617FM-12+000999999V0203201N005119999999N0000001N9+00061+99999103631ADDGF100991999999999999999999
0029029110999991925012613004+63083+021617FM-12+000999999V0203201N006219999999N0000001N9+00111+99999103381ADDGF102991999999999999999999
0029029110999991925012620004+63083+021617FM-12+000999999V0202701N011819999999N0000001N9+00171+99999103031ADDGF100991999999999999999999
0029029110999991925012706004+63083+021617FM-12+000999999V0202701N007219999999N0000001N9+00061+99999102741ADDGF100991999999999999999999
0029029110999991925012713004+63083+021617FM-12+000999999V0202701N007219999999N0000001N9+00221+99999102581ADDGF100991999999999999999999
0029029110999991925012720004+63083+021617FM-12+000999999V0209991C000019999999N0000001N9-00111+99999102461ADDGF100991999999999999999999
0029029110999991925012806004+63083+021617FM-12+000999999V0209991C000019999999N0000001N9-00281+99999102181ADDGF100991999999999999999999
0029029110999991925012813004+63083+021617FM-12+000999999V0209991C000019999999N0000001N9-00331+99999102021ADDGF108991999999999999999999
0029029110999991925012820004+63083+021617FM-12+000999999V0209991C000019999999N0000001N9-00391+99999101911ADDGF108991999999999999999999
0029029110999991925012906004+63083+021617FM-12+000999999V0209991C000019999999N0000001N9-00331+99999101821ADDGF108991999999999999999999
0029029110999991925012913004+63083+021617FM-12+000999999V0200901N003119999999N0000001N9-00221+99999101361ADDGF108991999999999999999999
0029029110999991925012920004+63083+021617FM-12+000999999V0201401N008719999999N0000001N9-00111+99999100681ADDGF108991999999999999999999
0035029110999991925013006004+63083+021617FM-12+000999999V0201401N007219999999N0000001N9-00171+99999099661ADDGF108991999999999999999999MW1701
0035029110999991925013013004+63083+021617FM-12+000999999V0201401N007219999999N0000001N9-00111+99999099041ADDGF108991999999999999999999MW1701
0029029110999991925013020004+63083+021617FM-12+000999999V0201401N008719999999N0000001N9+00001+99999098841ADDGF108991999999999999999999
0029029110999991925013106004+63083+021617FM-12+000999999V0201601N004119999999N0000001N9+00061+99999098671ADDGF108991999999999999999999
0035029110999991925013113004+63083+021617FM-12+000999999V0201401N003119999999N0000001N9+00111+99999098271ADDGF108991999999999999999999MW1701
0029029110999991925013120004+63083+021617FM-12+000999999V0200901N005119999999N0000001N9+00111+99999098191ADDGF108991999999999999999999
0029029110999991925020106004+63083+021617FM-12+000999999V0200701N005119999999N0000001N9+00001+99999098301ADDGF108991999999999999999999
0035029110999991925020113004+63083+021617FM-12+000999999V0200901N008719999999N0000001N9+00001+99999098581ADDGF108991999999999999999999MW1701
0029029110999991925020120004+63083+021617FM-12+000999999V0200501N005119999999N0000001N9-00221+99999099271ADDGF108991999999999999999999
0029029110999991925020206004+63083+021617FM-12+000999999V0203201N005119999999N0000001N9-00061+99999100151ADDGF108991999999999999999999
0029029110999991925020213004+63083+021617FM-12+000999999V0202901N005119999999N0000001N9-00111+99999100361ADDGF100991999999999999999999
0029029110999991925020220004+63083+021617FM-12+000999999V0209991C000019999999N0000001N9-00331+99999100071ADDGF106991999999999999999999
0029029110999991925020306004+63083+021617FM-12+000999999V0202301N007219999999N0000001N9-00111+99999099551ADDGF103991999999999999999999
0029029110999991925020313004+63083+021617FM-12+000999999V0202901N007219999999N0000001N9+00111+99999099541ADDGF102991999999999999999999
0029029110999991925020320004+63083+021617FM-12+000999999V0202301N007219999999N0000001N9+00001+99999099761ADDGF100991999999999999999999
0029029110999991925020406004+63083+021617FM-12+000999999V0202001N005119999999N0000001N9-00061+99999099041ADDGF108991999999999999999999
0029029110999991925020413004+63083+021617FM-12+000999999V0209991C000019999999N0000001N9+00001+99999099071ADDGF108991999999999999999999
0029029110999991925020420004+63083+021617FM-12+000999999V0202701N008719999999N0000001N9-00061+99999099501ADDGF100991999999999999999999
0029029110999991925020506004+63083+021617FM-12+000999999V0202701N008719999999N0000001N9-00111+99999099881ADDGF100991999999999999999999
0029029110999991925020513004+63083+021617FM-12+000999999V0202301N011819999999N0000001N9+00111+99999099121ADDGF108991999999999999999999
0035029110999991925020520004+63083+021617FM-12+000999999V0202501N011819999999N0000001N9+00221+99999098181ADDGF108991999999999999999999MW1641
0029029110999991925020606004+63083+021617FM-12+000999999V0202501N008719999999N0000001N9+00001+99999098101ADDGF102991999999999999999999
0029029110999991925020613004+63083+021617FM-12+000999999V0202501N011819999999N0000001N9+00111+99999097801ADDGF103991999999999999999999
0029029110999991925020620004+63083+021617FM-12+000999999V0202001N015919999999N0000001N9+00221+99999097481ADDGF104991999999999999999999
0029029110999991925020706004+63083+021617FM-12+000999999V0209991C000019999999N0000001N9-00221+99999098581ADDGF102991999999999999999999
0029029110999991925020713004+63083+021617FM-12+000999999V0203401N003119999999N0000001N9-00331+99999099511ADDGF100991999999999999999999
0029029110999991925020720004+63083+021617FM-12+000999999V0209991C000019999999N0000001N9-00501+99999100101ADDGF100991999999999999999999
0029029110999991925020806004+63083+021617FM-12+000999999V0209991C000019999999N0000001N9-01001+99999100511ADDGF100991999999999999999999
0029029110999991925020813004+63083+021617FM-12+000999999V0201801N005119999999N0000001N9-00171+99999100391ADDGF100991999999999999999999
0029029110999991925020820004+63083+021617FM-12+000999999V0201801N005119999999N0000001N9-00221+99999999999ADDGF108991999999999999999999
0029029110999991925020906004+63083+021617FM-12+000999999V0201601N011819999999N0000001N9+00001+99999098961ADDGF108991999999999999999999
0029029110999991925020913004+63083+021617FM-12+000999999V0201601N011819999999N0000001N9+00061+99999098111ADDGF108991999999999999999999
0029029110999991925020920004+63083+021617FM-12+000999999V0201401N008719999999N0000001N9-00061+99999097761ADDGF108991999999999999999999
0029029110999991925021006004+63083+021617FM-12+000999999V0202001N003119999999N0000001N9-00111+99999097951ADDGF102991999999999999999999
0029029110999991925021013004+63083+021617FM-12+000999999V0202701N011819999999N0000001N9+00001+99999098821ADDGF108991999999999999999999
0029029110999991925021020004+63083+021617FM-12+000999999V0201801N003119999999N0000001N9-00331+99999099161ADDGF100991999999999999999999
0029029110999991925021106004+63083+021617FM-12+000999999V0201801N003119999999N0000001N9+00061+99999097421ADDGF108991999999999999999999
0029029110999991925021113004+63083+021617FM-12+000999999V0202501N011819999999N0000001N9+00281+99999098021ADDGF102991999999999999999999
0029029110999991925021120004+63083+021617FM-12+000999999V0202301N007219999999N0000001N9+00111+99999098711ADDGF108991999999999999999999
0029029110999991925021206004+63083+021617FM-12+000999999V0202301N003119999999N0000001N9+00001+99999099281ADDGF108991999999999999999999
0029029110999991925021213004+63083+021617FM-12+000999999V0202001N007219999999N0000001N9+00331+99999099181ADDGF108991999999999999999999
0029029110999991925021220004+63083+021617FM-12+000999999V0202501N019019999999N0000001N9+00391+99999098751ADDGF100991999999999999999999
0029029110999991925021306004+63083+021617FM-12+000999999V0202301N023119999999N0000001N9+00221+99999099401ADDGF108991999999999999999999
0029029110999991925021313004+63083+021617FM-12+000999999V0202501N023119999999N0000001N9+00281+99999099871ADDGF102991999999999999999999
0029029110999991925021320004+63083+021617FM-12+000999999V0202501N023119999999N0000001N9+00221+99999100341ADDGF100991999999999999999999
0029029110999991925021406004+63083+021617FM-12+000999999V0202001N007219999999N0000001N9+00061+99999100921ADDGF108991999999999999999999
0029029110999991925021413004+63083+021617FM-12+000999999V0201801N003119999999N0000001N9+00391+99999101071ADDGF100991999999999999999999
0029029110999991925021420004+63083+021617FM-12+000999999V0201401N003119999999N0000001N9+00111+99999101031ADDGF108991999999999999999999
0029029110999991925021506004+63083+021617FM-12+000999999V0209991C000019999999N0000001N9+00061+99999101001ADDGF108991999999999999999999
0029029110999991925021513004+63083+021617FM-12+000999999V0201101N003119999999N0000001N9+00221+99999100761ADDGF108991999999999999999999
0029029110999991925021520004+63083+021617FM-12+000999999V0202001N005119999999N0000001N9+00221+99999100701ADDGF108991999999999999999999
0029029110999991925021606004+63083+021617FM-12+000999999V0202301N005119999999N0000001N9+00061+99999100881ADDGF108991999999999999999999
0029029110999991925021613004+63083+021617FM-12+000999999V0209991C000019999999N0000001N9+00111+99999100831ADDGF108991999999999999999999
0029029110999991925021620004+63083+021617FM-12+000999999V0209991C000019999999N0000001N9+00111+99999100821ADDGF108991999999999999999999
0029029110999991925021706004+63083+021617FM-12+000999999V0200901N003119999999N0000001N9+00111+99999100721ADDGF108991999999999999999999
0029029110999991925021713004+63083+021617FM-12+000999999V0200901N007219999999N0000001N9+00061+99999100421ADDGF108991999999999999999999
0035029110999991925021720004+63083+021617FM-12+000999999V0200901N003119999999N0000001N9+00001+99999100191ADDGF108991999999999999999999MW1691
0035029110999991925021806004+63083+021617FM-12+000999999V0200201N008719999999N0000001N9-00111+99999099481ADDGF108991999999999999999999MW1721
0029029110999991925021813004+63083+021617FM-12+000999999V0203201N008719999999N0000001N9-00221+99999100061ADDGF108991999999999999999999
0029029110999991925021820004+63083+021617FM-12+000999999V0203201N005119999999N0000001N9-00221+99999100111ADDGF108991999999999999999999
0029029110999991925021906004+63083+021617FM-12+000999999V0200201N003119999999N0000001N9-00391+99999100151ADDGF108991999999999999999999
0029029110999991925021913004+63083+021617FM-12+000999999V0200501N003119999999N0000001N9-00221+99999100441ADDGF108991999999999999999999
0029029110999991925021920004+63083+021617FM-12+000999999V0209991C000019999999N0000001N9-00501+99999100701ADDGF104991999999999999999999
0029029110999991925022006004+63083+021617FM-12+000999999V0200501N003119999999N0000001N9-00721+99999100991ADDGF100991999999999999999999
0029029110999991925022013004+63083+021617FM-12+000999999V0209991C000019999999N0000001N9-00561+99999100961ADDGF100991999999999999999999
0029029110999991925022020004+63083+021617FM-12+000999999V0200501N005119999999N0000001N9-00781+99999100821ADDGF108991999999999999999999
0029029110999991925022106004+63083+021617FM-12+000999999V0201801N003119999999N0000001N9-00611+99999100791ADDGF108991999999999999999999
0029029110999991925022113004+63083+021617FM-12+000999999V0200501N003119999999N0000001N9-00561+99999101081ADDGF105991999999999999999999
0035029110999991925022120004+63083+021617FM-12+000999999V0209991C000019999999N0000001N9-00721+99999101381ADDGF108991999999999999999999MW1701
0029029110999991925022206004+63083+021617FM-12+000999999V0200901N005119999999N0000001N9-01561+99999101821ADDGF108991999999999999999999
0029029110999991925022213004+63083+021617FM-12+000999999V0201601N003119999999N0000001N9-00721+99999101991ADDGF102991999999999999999999
0029029110999991925022220004+63083+021617FM-12+000999999V0201601N005119999999N0000001N9-00891+99999102161ADDGF100991999999999999999999
0029029110999991925022306004+63083+021617FM-12+000999999V0201601N003119999999N0000001N9-00501+99999102181ADDGF102991999999999999999999
0029029110999991925022313004+63083+021617FM-12+000999999V0202501N003119999999N0000001N9-00111+99999102421ADDGF108991999999999999999999
0029029110999991925022320004+63083+021617FM-12+000999999V0201601N005119999999N0000001N9-00331+99999102401ADDGF104991999999999999999999
0029029110999991925022406004+63083+021617FM-12+000999999V0201101N005119999999N0000001N9-00721+99999102201ADDGF102991999999999999999999
0029029110999991925022413004+63083+021617FM-12+000999999V0200901N007219999999N0000001N9-00391+99999102191ADDGF105991999999999999999999
0029029110999991925022420004+63083+021617FM-12+000999999V0200901N003119999999N0000001N9-00611+99999102391ADDGF102991999999999999999999
0029029110999991925022506004+63083+021617FM-12+000999999V0200901N007219999999N0000001N9-00671+99999102241ADDGF108991999999999999999999
0029029110999991925022513004+63083+021617FM-12+000999999V0200901N007219999999N0000001N9-00441+99999102031ADDGF108991999999999999999999
0029029110999991925022520004+63083+021617FM-12+000999999V0200901N007219999999N0000001N9-00501+99999101821ADDGF108991999999999999999999
0029029110999991925022606004+63083+021617FM-12+000999999V0200901N003119999999N0000001N9-00721+99999101671ADDGF108991999999999999999999
0029029110999991925022613004+63083+021617FM-12+000999999V0200901N007219999999N0000001N9-00501+99999101641ADDGF106991999999999999999999
0029029110999991925022620004+63083+021617FM-12+000999999V0200701N005119999999N0000001N9-00831+99999101621ADDGF100991999999999999999999
0029029110999991925022706004+63083+021617FM-12+000999999V0200701N008719999999N0000001N9-01111+99999101471ADDGF108991999999999999999999
0035029110999991925022713004+63083+021617FM-12+000999999V0200501N008719999999N0000001N9-00611+99999101081ADDGF108991999999999999999999MW1721
0035029110999991925022720004+63083+021617FM-12+000999999V0200901N007219999999N0000001N9-00721+99999101041ADDGF108991999999999999999999MW1721
0029029110999991925022806004+63083+021617FM-12+000999999V0201101N005119999999N0000001N9-00501+99999101041ADDGF108991999999999999999999
0035029110999991925022813004+63083+021617FM-12+000999999V0200901N005119999999N0000001N9-00391+99999100991ADDGF108991999999999999999999MW1721
0035029110999991925022820004+63083+021617FM-12+000999999V0200901N005119999999N0000001N9-00441+99999100961ADDGF108991999999999999999999MW1721
0035029110999991925030106004+63083+021617FM-12+000999999V0200901N003119999999N0000001N9-00441+99999101071ADDGF108991999999999999999999MW1721
0035029110999991925030113004+63083+021617FM-12+000999999V0201101N005119999999N0000001N9-00221+99999101241ADDGF108991999999999999999999MW1721
0029029110999991925030120004+63083+021617FM-12+000999999V0200901N003119999999N0000001N9-00501+99999101441ADDGF108991999999999999999999
0035029110999991925030206004+63083+021617FM-12+000999999V0209991C000019999999N0000001N9-00611+99999101641ADDGF108991999999999999999999MW1701
0029029110999991925030213004+63083+021617FM-12+000999999V0200201N007219999999N0000001N9-00501+99999101881ADDGF106991999999999999999999
0029029110999991925030220004+63083+021617FM-12+000999999V0209991C000019999999N0000001N9-01001+99999102061ADDGF100991999999999999999999
0029029110999991925030306004+63083+021617FM-12+000999999V0209991C000019999999N0000001N9-01331+99999102241ADDGF100991999999999999999999
0029029110999991925030313004+63083+021617FM-12+000999999V0202301N005119999999N0000001N9-00391+99999102191ADDGF100991999999999999999999
0029029110999991925030320004+63083+021617FM-12+000999999V0209991C000019999999N0000001N9-00611+99999101941ADDGF108991999999999999999999
0029029110999991925030406004+63083+021617FM-12+000999999V0202301N007219999999N0000001N9-00111+99999100961ADDGF104991999999999999999999
0029029110999991925030413004+63083+021617FM-12+000999999V0202701N008719999999N0000001N9+00111+99999100431ADDGF108991999999999999999999
0029029110999991925030420004+63083+021617FM-12+000999999V0203201N007219999999N0000001N9-00221+99999100361ADDGF101991999999999999999999
0029029110999991925030506004+63083+021617FM-12+000999999V0209991C000019999999N0000001N9-00721+99999100111ADDGF102991999999999999999999
0029029110999991925030513004+63083+021617FM-12+000999999V0202701N003119999999N0000001N9-00221+99999099361ADDGF105991999999999999999999
0035029110999991925030520004+63083+021617FM-12+000999999V0201401N005119999999N0000001N9-00221+99999098221ADDGF108991999999999999999999MW1721
0029029110999991925030606004+63083+021617FM-12+000999999V0200701N007219999999N0000001N9-00331+99999097561ADDGF108991999999999999999999
0035029110999991925030613004+63083+021617FM-12+000999999V0200201N007219999999N0000001N9-00221+99999097961ADDGF108991999999999999999999MW1721
0029029110999991925030620004+63083+021617FM-12+000999999V0200501N008219999999N0000001N9-00721+99999098241ADDGF108991999999999999999999
0035029110999991925030706004+63083+021617FM-12+000999999V0200501N007219999999N0000001N9-01111+99999098521ADDGF108991999999999999999999MW1701
0035029110999991925030713004+63083+021617FM-12+000999999V0200201N003119999999N0000001N9-01111+99999098751ADDGF107991999999999999999999MW1701
0029029110999991925030720004+63083+021617FM-12+000999999V0200701N005119999999N0000001N9-01061+99999098821ADDGF108991999999999999999999
0029029110999991925030806004+63083+021617FM-12+000999999V0203401N003119999999N0000001N9-01501+99999099301ADDGF104991999999999999999999
0029029110999991925030813004+63083+021617FM-12+000999999V0203201N003119999999N0000001N9-01221+99999099701ADDGF102991999999999999999999
0029029110999991925030820004+63083+021617FM-12+000999999V0209991C000019999999N0000001N9-02001+99999099951ADDGF100991999999999999999999
0029029110999991925030906004+63083+021617FM-12+000999999V0209991C000019999999N0000001N9-02061+99999100261ADDGF100991999999999999999999
0029029110999991925030913004+63083+021617FM-12+000999999V0209991C000019999999N0000001N9-01061+99999100541ADDGF106991999999999999999999
0029029110999991925030920004+63083+021617FM-12+000999999V0209991C000019999999N0000001N9-01221+99999100881ADDGF106991999999999999999999
0029029110999991925031006004+63083+021617FM-12+000999999V0209991C000019999999N0000001N9-01721+99999101341ADDGF100991999999999999999999
0029029110999991925031013004+63083+021617FM-12+000999999V0203601N005119999999N0000001N9-01061+99999101711ADDGF103991999999999999999999
0029029110999991925031020004+63083+021617FM-12+000999999V0209991C000019999999N0000001N9-01721+99999101981ADDGF100991999999999999999999
0029029110999991925031106004+63083+021617FM-12+000999999V0200201N005119999999N0000001N9-01441+99999102031ADDGF108991999999999999999999
0035029110999991925031113004+63083+021617FM-12+000999999V0200501N008719999999N0000001N9-01061+99999101991ADDGF108991999999999999999999MW1721
0035029110999991925031120004+63083+021617FM-12+000999999V0200501N019019999999N0000001N9-01061+99999101721ADDGF108991999999999999999999MW1721
0029029110999991925031206004+63083+021617FM-12+000999999V0200501N015919999999N0000001N9-01281+99999101231ADDGF108991999999999999999999
0035029110999991925031213004+63083+021617FM-12+000999999V0200201N015919999999N0000001N9-01111+99999101191ADDGF108991999999999999999999MW1721
0035029110999991925031220004+63083+021617FM-12+000999999V0200201N008719999999N0000001N9-01221+99999101321ADDGF108991999999999999999999MW1721
0029029110999991925031306004+63083+021617FM-12+000999999V0200501N007219999999N0000001N9-01221+99999101361ADDGF102991999999999999999999
0029029110999991925031313004+63083+021617FM-12+000999999V0200201N008719999999N0000001N9-01001+99999101141ADDGF108991999999999999999999
0029029110999991925031320004+63083+021617FM-12+000999999V0200501N005119999999N0000001N9-01221+99999101071ADDGF100991999999999999999999
0029029110999991925031406004+63083+021617FM-12+000999999V0200501N003119999999N0000001N9-01611+99999101111ADDGF105991999999999999999999
0029029110999991925031413004+63083+021617FM-12+000999999V0200901N007219999999N0000001N9-00891+99999101241ADDGF108991999999999999999999
0029029110999991925031420004+63083+021617FM-12+000999999V0209991C000019999999N0000001N9-01061+99999101401ADDGF106991999999999999999999
0029029110999991925031506004+63083+021617FM-12+000999999V0200901N005119999999N0000001N9-01441+99999101821ADDGF100991999999999999999999
0029029110999991925031513004+63083+021617FM-12+000999999V0200201N007219999999N0000001N9-00781+99999102231ADDGF106991999999999999999999
0035029110999991925031520004+63083+021617FM-12+000999999V0200501N003119999999N0000001N9-00831+99999102681ADDGF104991999999999999999999MW1701
0029029110999991925031606004+63083+021617FM-12+000999999V0200501N006219999999N0000001N9-01331+99999103141ADDGF100991999999999999999999
0029029110999991925031613004+63083+021617FM-12+000999999V0209991C000019999999N0000001N9-00781+99999103191ADDGF100991999999999999999999
0029029110999991925031620004+63083+021617FM-12+000999999V0209991C000019999999N0000001N9-01781+99999102791ADDGF100991999999999999999999
0029029110999991925031706004+63083+021617FM-12+000999999V0201401N005119999999N0000001N9-01111+99999102101ADDGF108991999999999999999999
0035029110999991925031713004+63083+021617FM-12+000999999V0202001N007219999999N0000001N9-00331+99999101981ADDGF108991999999999999999999MW1701
0029029110999991925031720004+63083+021617FM-12+000999999V0202501N007219999999N0000001N9-00331+99999101961ADDGF108991999999999999999999
0029029110999991925031806004+63083+021617FM-12+000999999V0202501N003119999999N0000001N9-00441+99999101781ADDGF108991999999999999999999
0029029110999991925031813004+63083+021617FM-12+000999999V0202001N011819999999N0000001N9+00001+99999101471ADDGF108991999999999999999999
0029029110999991925031820004+63083+021617FM-12+000999999V0202501N007219999999N0000001N9+00111+99999101241ADDGF104991999999999999999999
0029029110999991925031906004+63083+021617FM-12+000999999V0202301N011819999999N0000001N9+00391+99999100621ADDGF108991999999999999999999
0029029110999991925031913004+63083+021617FM-12+000999999V0202701N007219999999N0000001N9+00221+99999100471ADDGF105991999999999999999999
0029029110999991925031920004+63083+021617FM-12+000999999V0202701N007219999999N0000001N9+00001+99999100431ADDGF100991999999999999999999
0029029110999991925032006004+63083+021617FM-12+000999999V0202701N007219999999N0000001N9-00221+99999099921ADDGF100991999999999999999999
0029029110999991925032013004+63083+021617FM-12+000999999V0202501N011819999999N0000001N9+00061+99999099581ADDGF100991999999999999999999
0029029110999991925032020004+63083+021617FM-12+000999999V0201801N007219999999N0000001N9-00221+99999099401ADDGF100991999999999999999999
0029029110999991925032106004+63083+021617FM-12+000999999V0209991C000019999999N0000001N9-00721+99999099591ADDGF100991999999999999999999
0029029110999991925032113004+63083+021617FM-12+000999999V0203601N003119999999N0000001N9+00001+99999100111ADDGF100991999999999999999999
0029029110999991925032120004+63083+021617FM-12+000999999V0209991C000019999999N0000001N9-00331+99999100511ADDGF100991999999999999999999
0029029110999991925032206004+63083+021617FM-12+000999999V0200501N005119999999N0000001N9-00391+99999100861ADDGF108991999999999999999999
0029029110999991925032213004+63083+021617FM-12+000999999V0200501N005119999999N0000001N9+00001+99999101081ADDGF100991999999999999999999
0029029110999991925032220004+63083+021617FM-12+000999999V0209991C000019999999N0000001N9-00331+99999101141ADDGF100991999999999999999999
0029029110999991925032306004+63083+021617FM-12+000999999V0200201N003119999999N0000001N9-00561+99999101221ADDGF100991999999999999999999
0029029110999991925032313004+63083+021617FM-12+000999999V0202501N003119999999N0000001N9+00001+99999101351ADDGF102991999999999999999999
0029029110999991925032320004+63083+021617FM-12+000999999V0202301N005119999999N0000001N9-00391+99999101381ADDGF100991999999999999999999
0029029110999991925032406004+63083+021617FM-12+000999999V0201601N005119999999N0000001N9-00441+99999101361ADDGF104991999999999999999999
0029029110999991925032413004+63083+021617FM-12+000999999V0202001N008719999999N0000001N9+00221+99999101481ADDGF102991999999999999999999
0029029110999991925032420004+63083+021617FM-12+000999999V0201801N005119999999N0000001N9-00221+99999101601ADDGF100991999999999999999999
0029029110999991925032506004+63083+021617FM-12+000999999V0201801N007219999999N0000001N9-00221+99999101741ADDGF108991999999999999999999
0035029110999991925032513004+63083+021617FM-12+000999999V0201801N008719999999N0000001N9+00061+99999101861ADDGF108991999999999999999999MW1701
0029029110999991925032520004+63083+021617FM-12+000999999V0202301N007219999999N0000001N9+00001+99999101881ADDGF108991999999999999999999
0035029110999991925032606004+63083+021617FM-12+000999999V0202001N004119999999N0000001N9+00001+99999101911ADDGF108991999999999999999999MW1701
0035029110999991925032613004+63083+021617FM-12+000999999V0202301N006219999999N0000001N9+00061+99999101991ADDGF108991999999999999999999MW1701
0029029110999991925032620004+63083+021617FM-12+000999999V0202501N005119999999N0000001N9+00001+99999102061ADDGF108991999999999999999999
0029029110999991925032706004+63083+021617FM-12+000999999V0201401N003119999999N0000001N9-00061+99999102141ADDGF108991999999999999999999
0029029110999991925032713004+63083+021617FM-12+000999999V0202501N005119999999N0000001N9+00221+99999101991ADDGF104991999999999999999999
0029029110999991925032720004+63083+021617FM-12+000999999V0209991C000019999999N0000001N9-00111+99999101801ADDGF107991999999999999999999
0029029110999991925032806004+63083+021617FM-12+000999999V0202001N005119999999N0000001N9-00441+99999101361ADDGF101991999999999999999999
0029029110999991925032813004+63083+021617FM-12+000999999V0201401N003119999999N0000001N9+00281+99999101061ADDGF100991999999999999999999
0029029110999991925032820004+63083+021617FM-12+000999999V0200901N005119999999N0000001N9-00111+99999100901ADDGF108991999999999999999999
0035029110999991925032906004+63083+021617FM-12+000999999V0200901N007219999999N0000001N9-00441+99999100281ADDGF108991999999999999999999MW1721
0029029110999991925032913004+63083+021617FM-12+000999999V0200501N008719999999N0000001N9-00501+99999100241ADDGF108991999999999999999999
0035029110999991925032920004+63083+021617FM-12+000999999V0203201N007219999999N0000001N9-00891+99999100501ADDGF102991999999999999999999MW1721
0029029110999991925033006004+63083+021617FM-12+000999999V0203201N003119999999N0000001N9-01221+99999100911ADDGF108991999999999999999999
0029029110999991925033013004+63083+021617FM-12+000999999V0201601N007219999999N0000001N9-00111+99999100561ADDGF102991999999999999999999
0029029110999991925033020004+63083+021617FM-12+000999999V0202001N011819999999N0000001N9+00001+99999100111ADDGF103991999999999999999999
0029029110999991925033106004+63083+021617FM-12+000999999V0202501N023119999999N0000001N9+00221+99999099201ADDGF108991999999999999999999
0029029110999991925033113004+63083+021617FM-12+000999999V0202301N015919999999N0000001N9+00281+99999099161ADDGF108991999999999999999999
0029029110999991925033120004+63083+021617FM-12+000999999V0202001N007219999999N0000001N9+00111+99999099671ADDGF101991999999999999999999
0029029110999991925040106004+63083+021617FM-12+000999999V0202301N007219999999N0000001N9+00001+99999100351ADDGF102991999999999999999999
0029029110999991925040113004+63083+021617FM-12+000999999V0202301N003119999999N0000001N9+00331+99999100361ADDGF108991999999999999999999
0035029110999991925040120004+63083+021617FM-12+000999999V0200901N005119999999N0000001N9+00001+99999099741ADDGF108991999999999999999999MW1721
0029029110999991925040206004+63083+021617FM-12+000999999V0203201N003119999999N0000001N9-00331+99999100141ADDGF100991999999999999999999
0029029110999991925040213004+63083+021617FM-12+000999999V0202701N003119999999N0000001N9+00111+99999100681ADDGF103991999999999999999999
0029029110999991925040220004+63083+021617FM-12+000999999V0201801N009819999999N0000001N9-00061+99999100561ADDGF108991999999999999999999
0035029110999991925040306004+63083+021617FM-12+000999999V0202001N007219999999N0000001N9+00001+99999099951ADDGF108991999999999999999999MW1721
0035029110999991925040313004+63083+021617FM-12+000999999V0202301N009819999999N0000001N9+00111+99999099431ADDGF108991999999999999999999MW1721
0029029110999991925040320004+63083+021617FM-12+000999999V0202301N007219999999N0000001N9-00061+99999099441ADDGF102991999999999999999999
0029029110999991925040406004+63083+021617FM-12+000999999V0202501N009819999999N0000001N9-00061+99999099991ADDGF100991999999999999999999
0035029110999991925040413004+63083+021617FM-12+000999999V0202001N015919999999N0000001N9+00001+99999100431ADDGF108991999999999999999999MW1721
0029029110999991925040420004+63083+021617FM-12+000999999V0209991C000019999999N0000001N9-00221+99999101441ADDGF100991999999999999999999
0029029110999991925040506004+63083+021617FM-12+000999999V0200901N003119999999N0000001N9-00941+99999102141ADDGF100991999999999999999999
0029029110999991925040513004+63083+021617FM-12+000999999V0202301N008219999999N0000001N9+00281+99999101981ADDGF100991999999999999999999
0029029110999991925040520004+63083+021617FM-12+000999999V0201801N006219999999N0000001N9-00061+99999101841ADDGF102991999999999999999999
0029029110999991925040606004+63083+021617FM-12+000999999V0201801N003119999999N0000001N9-00111+99999101861ADDGF100991999999999999999999
0029029110999991925040613004+63083+021617FM-12+000999999V0202701N003119999999N0000001N9+00441+99999101941ADDGF100991999999999999999999
0029029110999991925040620004+63083+021617FM-12+000999999V0202501N003119999999N0000001N9+00001+99999101911ADDGF100991999999999999999999
0029029110999991925040706004+63083+021617FM-12+000999999V0201801N003119999999N0000001N9+00001+99999101841ADDGF102991999999999999999999
0029029110999991925040713004+63083+021617FM-12+000999999V0209991C000019999999N0000001N9+00501+99999101781ADDGF100991999999999999999999
0029029110999991925040720004+63083+021617FM-12+000999999V0202301N003119999999N0000001N9+00221+99999101831ADDGF100991999999999999999999
0029029110999991925040806004+63083+021617FM-12+000999999V0209991C000019999999N0000001N9+00061+99999101991ADDGF100991999999999999999999
0029029110999991925040813004+63083+021617FM-12+000999999V0209991C000019999999N0000001N9+00941+99999102101ADDGF100991999999999999999999
0029029110999991925040820004+63083+021617FM-12+000999999V0209991C000019999999N0000001N9+00111+99999102021ADDGF100991999999999999999999
0029029110999991925040906004+63083+021617FM-12+000999999V0202301N005119999999N0000001N9+00061+99999101861ADDGF100991999999999999999999
0029029110999991925040913004+63083+021617FM-12+000999999V0202501N005119999999N0000001N9+00671+99999101901ADDGF100991999999999999999999
0029029110999991925040920004+63083+021617FM-12+000999999V0209991C000019999999N0000001N9+00171+99999102001ADDGF100991999999999999999999
0029029110999991925041006004+63083+021617FM-12+000999999V0202501N003119999999N0000001N9-00111+99999102151ADDGF100991999999999999999999
0029029110999991925041013004+63083+021617FM-12+000999999V0200201N003119999999N0000001N9+01061+99999102281ADDGF100991999999999999999999
0029029110999991925041020004+63083+021617FM-12+000999999V0209991C000019999999N0000001N9+00391+99999102431ADDGF100991999999999999999999
0029029110999991925041106004+63083+021617FM-12+000999999V0209991C000019999999N0000001N9-00061+99999102671ADDGF100991999999999999999999
0029029110999991925041113004+63083+021617FM-12+000999999V0200201N003119999999N0000001N9+00941+99999102551ADDGF100991999999999999999999
0029029110999991925041120004+63083+021617FM-12+000999999V0209991C000019999999N0000001N9+00221+99999102421ADDGF100991999999999999999999
0029029110999991925041206004+63083+021617FM-12+000999999V0200201N003119999999N0000001N9+00111+99999101911ADDGF108991999999999999999999
0029029110999991925041213004+63083+021617FM-12+000999999V0202701N003119999999N0000001N9+00501+99999101681ADDGF102991999999999999999999
0029029110999991925041220004+63083+021617FM-12+000999999V0202701N003119999999N0000001N9+00331+99999101301ADDGF108991999999999999999999
0029029110999991925041306004+63083+021617FM-12+000999999V0203601N003119999999N0000001N9+00281+99999100961ADDGF108991999999999999999999
0029029110999991925041313004+63083+021617FM-12+000999999V0203601N007219999999N0000001N9+00501+99999101021ADDGF105991999999999999999999
0029029110999991925041320004+63083+021617FM-12+000999999V0203601N005119999999N0000001N9+00111+99999101031ADDGF100991999999999999999999
0029029110999991925041406004+63083+021617FM-12+000999999V0200901N005119999999N0000001N9+00111+99999101191ADDGF100991999999999999999999
0029029110999991925041413004+63083+021617FM-12+000999999V0203601N007219999999N0000001N9+00721+99999101201ADDGF106991999999999999999999
0029029110999991925041420004+63083+021617FM-12+000999999V0209991C000019999999N0000001N9+00721+99999101231ADDGF108991999999999999999999
0029029110999991925041506004+63083+021617FM-12+000999999V0201801N005119999999N0000001N9+00171+99999101381ADDGF108991999999999999999999
0029029110999991925041513004+63083+021617FM-12+000999999V0201101N007219999999N0000001N9+00721+99999101061ADDGF108991999999999999999999
0029029110999991925041520004+63083+021617FM-12+000999999V0201401N007219999999N0000001N9+00891+99999100481ADDGF100991999999999999999999
0035029110999991925041606004+63083+021617FM-12+000999999V0200901N007219999999N0000001N9+00611+99999100021ADDGF108991999999999999999999MW1621
0035029110999991925041613004+63083+021617FM-12+000999999V0201601N005119999999N0000001N9+00781+99999099801ADDGF108991999999999999999999MW1621
0035029110999991925041620004+63083+021617FM-12+000999999V0209991C000019999999N0000001N9+00441+99999099701ADDGF108991999999999999999999MW1621
0035029110999991925041706004+63083+021617FM-12+000999999V0201101N005119999999N0000001N9+00611+99999099111ADDGF108991999999999999999999MW1621
0035029110999991925041713004+63083+021617FM-12+000999999V0201601N005119999999N0000001N9+00561+99999099141ADDGF108991999999999999999999MW1621
0035029110999991925041720004+63083+021617FM-12+000999999V0201801N005119999999N0000001N9+00111+99999099191ADDGF108991999999999999999999MW1621
0029029110999991925041806004+63083+021617FM-12+000999999V0201801N007219999999N0000001N9+00221+99999099701ADDGF102991999999999999999999
0029029110999991925041813004+63083+021617FM-12+000999999V0200501N008719999999N0000001N9+00391+99999099981ADDGF104991999999999999999999
0029029110999991925041820004+63083+021617FM-12+000999999V0202701N005119999999N0000001N9+00061+99999100021ADDGF102991999999999999999999
0029029110999991925041906004+63083+021617FM-12+000999999V0202301N005119999999N0000001N9+00001+99999100141ADDGF103991999999999999999999
0029029110999991925041913004+63083+021617FM-12+000999999V0202501N005119999999N0000001N9+00501+99999100351ADDGF102991999999999999999999
0029029110999991925041920004+63083+021617FM-12+000999999V0209991C000019999999N0000001N9+00111+99999100511ADDGF102991999999999999999999
0029029110999991925042006004+63083+021617FM-12+000999999V0200201N006219999999N0000001N9+00111+99999100881ADDGF100991999999999999999999
0029029110999991925042013004+63083+021617FM-12+000999999V0203601N008719999999N0000001N9+00501+99999101041ADDGF102991999999999999999999
0029029110999991925042020004+63083+021617FM-12+000999999V0200201N008719999999N0000001N9+00001+99999101081ADDGF101991999999999999999999
0029029110999991925042106004+63083+021617FM-12+000999999V0200501N003119999999N0000001N9+00111+99999101081ADDGF102991999999999999999999
0029029110999991925042113004+63083+021617FM-12+000999999V0203201N005119999999N0000001N9+00501+99999101231ADDGF108991999999999999999999
0029029110999991925042120004+63083+021617FM-12+000999999V0209991C000019999999N0000001N9+00111+99999101221ADDGF103991999999999999999999
0029029110999991925042206004+63083+021617FM-12+000999999V0203401N003119999999N0000001N9+00111+99999101201ADDGF100991999999999999999999
0029029110999991925042213004+63083+021617FM-12+000999999V0203201N005119999999N0000001N9+00441+99999101221ADDGF103991999999999999999999
0029029110999991925042220004+63083+021617FM-12+000999999V0209991C000019999999N0000001N9+00111+99999101081ADDGF102991999999999999999999
0029029110999991925042306004+63083+021617FM-12+000999999V0201101N006219999999N0000001N9+00171+99999100671ADDGF108991999999999999999999
0035029110999991925042313004+63083+021617FM-12+000999999V0202001N005119999999N0000001N9+00441+99999100551ADDGF108991999999999999999999MW1601
0035029110999991925042320004+63083+021617FM-12+000999999V0201401N007219999999N0000001N9+00501+99999100241ADDGF108991999999999999999999MW1601
0035029110999991925042406004+63083+021617FM-12+000999999V0202001N007219999999N0000001N9+00501+99999100141ADDGF108991999999999999999999MW1601
0035029110999991925042413004+63083+021617FM-12+000999999V0202701N005119999999N0000001N9+00611+99999100081ADDGF108991999999999999999999MW1601
0029029110999991925042420004+63083+021617FM-12+000999999V0202001N007219999999N0000001N9+00501+99999100071ADDGF108991999999999999999999
0029029110999991925042506004+63083+021617FM-12+000999999V0201801N003119999999N0000001N9+00331+99999100151ADDGF102991999999999999999999
0029029110999991925042513004+63083+021617FM-12+000999999V0202301N008719999999N0000001N9+00831+99999100071ADDGF108991999999999999999999
0029029110999991925042520004+63083+021617FM-12+000999999V0202301N004119999999N0000001N9+00331+99999100031ADDGF100991999999999999999999
0029029110999991925042606004+63083+021617FM-12+000999999V0202001N003119999999N0000001N9+00221+99999100041ADDGF105991999999999999999999
0029029110999991925042613004+63083+021617FM-12+000999999V0203201N005119999999N0000001N9+00611+99999100241ADDGF104991999999999999999999
0029029110999991925042620004+63083+021617FM-12+000999999V0202501N007219999999N0000001N9+00441+99999100471ADDGF100991999999999999999999
0029029110999991925042706004+63083+021617FM-12+000999999V0203201N003119999999N0000001N9+00331+99999100641ADDGF100991999999999999999999
0029029110999991925042713004+63083+021617FM-12+000999999V0202701N005119999999N0000001N9+00671+99999100621ADDGF102991999999999999999999
0029029110999991925042720004+63083+021617FM-12+000999999V0203601N007219999999N0000001N9+00221+99999100551ADDGF101991999999999999999999
0029029110999991925042806004+63083+021617FM-12+000999999V0203601N011819999999N0000001N9+00061+99999100881ADDGF106991999999999999999999
0029029110999991925042813004+63083+021617FM-12+000999999V0203601N011819999999N0000001N9+00221+99999101301ADDGF104991999999999999999999
0029029110999991925042820004+63083+021617FM-12+000999999V0200501N007219999999N0000001N9-00061+99999101681ADDGF101991999999999999999999
0029029110999991925042906004+63083+021617FM-12+000999999V0200901N003119999999N0000001N9+00001+99999102111ADDGF100991999999999999999999
0029029110999991925042913004+63083+021617FM-12+000999999V0200201N007219999999N0000001N9+00831+99999102031ADDGF102991999999999999999999
0029029110999991925042920004+63083+021617FM-12+000999999V0200901N008719999999N0000001N9+00391+99999101861ADDGF108991999999999999999999
0035029110999991925043006004+63083+021617FM-12+000999999V0200501N007219999999N0000001N9-00061+99999101001ADDGF108991999999999999999999MW1721
0029029110999991925043013004+63083+021617FM-12+000999999V0200501N007219999999N0000001N9+00061+99999100861ADDGF108991999999999999999999
0029029110999991925043020004+63083+021617FM-12+000999999V0200501N007219999999N0000001N9+00061+99999100761ADDGF108991999999999999999999
0029029110999991925050106004+63083+021617FM-12+000999999V0200201N007219999999N0000001N9-00061+99999999999ADDGF102991999999999999999999
0029029110999991925050113004+63083+021617FM-12+000999999V0202701N005119999999N0000001N9+00001+99999999999ADDGF102991999999999999999999
0029029110999991925050120004+63083+021617FM-12+000999999V0201801N007219999999N0000001N9+00111+99999999999ADDGF102991999999999999999999
0029029110999991925050206004+63083+021617FM-12+000999999V0202001N007219999999N0000001N9+00281+99999999999ADDGF102991999999999999999999
0029029110999991925050213004+63083+021617FM-12+000999999V0202301N007219999999N0000001N9+00611+99999999999ADDGF103991999999999999999999
0029029110999991925050220004+63083+021617FM-12+000999999V0209991C000019999999N0000001N9+00441+99999999999ADDGF103991999999999999999999
0029029110999991925050306004+63083+021617FM-12+000999999V0201101N008719999999N0000001N9+00721+99999999999ADDGF103991999999999999999999
0029029110999991925050313004+63083+021617FM-12+000999999V0201401N007219999999N0000001N9+01441+99999999999ADDGF104991999999999999999999
0029029110999991925050320004+63083+021617FM-12+000999999V0201801N007219999999N0000001N9+00721+99999999999ADDGF103991999999999999999999
0029029110999991925050406004+63083+021617FM-12+000999999V0201801N005119999999N0000001N9+00671+99999999999ADDGF103991999999999999999999
0029029110999991925050413004+63083+021617FM-12+000999999V0201801N007219999999N0000001N9+00611+99999999999ADDGF103991999999999999999999
0029029110999991925050420004+63083+021617FM-12+000999999V0202501N007219999999N0000001N9+00501+99999999999ADDGF103991999999999999999999
0029029110999991925050506004+63083+021617FM-12+000999999V0203201N004119999999N0000001N9+00391+99999999999ADDGF102991999999999999999999
0029029110999991925050513004+63083+021617FM-12+000999999V0202701N005119999999N0000001N9+00721+99999999999ADDGF103991999999999999999999
0029029110999991925050520004+63083+021617FM-12+000999999V0202701N003119999999N0000001N9+00441+99999999999ADDGF103991999999999999999999
0029029110999991925050606004+63083+021617FM-12+000999999V0209991C000019999999N0000001N9+00391+99999999999ADDGF102991999999999999999999
0029029110999991925050613004+63083+021617FM-12+000999999V0202701N003119999999N0000001N9+00721+99999999999ADDGF103991999999999999999999
0029029110999991925050620004+63083+021617FM-12+000999999V0200501N005119999999N0000001N9+00611+99999999999ADDGF103991999999999999999999
0029029110999991925050706004+63083+021617FM-12+000999999V0201101N004119999999N0000001N9+00561+99999999999ADDGF103991999999999999999999
0029029110999991925050713004+63083+021617FM-12+000999999V0203201N003119999999N0000001N9+01111+99999999999ADDGF104991999999999999999999
0029029110999991925050720004+63083+021617FM-12+000999999V0200501N005119999999N0000001N9+00781+99999999999ADDGF103991999999999999999999
0029029110999991925050806004+63083+021617FM-12+000999999V0201401N005119999999N0000001N9+00721+99999999999ADDGF103991999999999999999999
0029029110999991925050813004+63083+021617FM-12+000999999V0200901N007219999999N0000001N9+01611+99999999999ADDGF105991999999999999999999
0029029110999991925050820004+63083+021617FM-12+000999999V0209991C000019999999N0000001N9+01111+99999999999ADDGF104991999999999999999999
0029029110999991925050906004+63083+021617FM-12+000999999V0201101N005119999999N0000001N9+00781+99999999999ADDGF103991999999999999999999
0029029110999991925050913004+63083+021617FM-12+000999999V0209991C000019999999N0000001N9+00891+99999999999ADDGF103991999999999999999999
0029029110999991925050920004+63083+021617FM-12+000999999V0202701N005119999999N0000001N9+00721+99999999999ADDGF103991999999999999999999
0029029110999991925051006004+63083+021617FM-12+000999999V0209991C000019999999N0000001N9+00721+99999999999ADDGF103991999999999999999999
0029029110999991925051013004+63083+021617FM-12+000999999V0201801N007219999999N0000001N9+00941+99999999999ADDGF103991999999999999999999
0029029110999991925051020004+63083+021617FM-12+000999999V0202301N007219999999N0000001N9+00831+99999999999ADDGF103991999999999999999999
0029029110999991925051106004+63083+021617FM-12+000999999V0202701N007219999999N0000001N9+00721+99999999999ADDGF103991999999999999999999
0029029110999991925051113004+63083+021617FM-12+000999999V0209991C000019999999N0000001N9+00891+99999999999ADDGF103991999999999999999999
0029029110999991925051120004+63083+021617FM-12+000999999V0200201N005119999999N0000001N9+00831+99999999999ADDGF103991999999999999999999
0029029110999991925051206004+63083+021617FM-12+000999999V0202501N007219999999N0000001N9+00611+99999999999ADDGF103991999999999999999999
0029029110999991925051213004+63083+021617FM-12+000999999V0202301N011819999999N0000001N9+01001+99999999999ADDGF104991999999999999999999
0029029110999991925051220004+63083+021617FM-12+000999999V0202301N008719999999N0000001N9+00941+99999999999ADDGF103991999999999999999999
0029029110999991925051306004+63083+021617FM-12+000999999V0202301N005119999999N0000001N9+00831+99999999999ADDGF103991999999999999999999
0029029110999991925051313004+63083+021617FM-12+000999999V0202301N008719999999N0000001N9+01281+99999999999ADDGF104991999999999999999999
0029029110999991925051320004+63083+021617FM-12+000999999V0202501N008719999999N0000001N9+00831+99999999999ADDGF103991999999999999999999
0029029110999991925051406004+63083+021617FM-12+000999999V0203201N005119999999N0000001N9+00721+99999999999ADDGF103991999999999999999999
0029029110999991925051413004+63083+021617FM-12+000999999V0202701N007219999999N0000001N9+01221+99999999999ADDGF104991999999999999999999
0029029110999991925051420004+63083+021617FM-12+000999999V0202701N005119999999N0000001N9+00831+99999999999ADDGF103991999999999999999999
0029029110999991925051506004+63083+021617FM-12+000999999V0203201N003119999999N0000001N9+00781+99999999999ADDGF103991999999999999999999
0029029110999991925051513004+63083+021617FM-12+000999999V0202901N007219999999N0000001N9+01111+99999999999ADDGF104991999999999999999999
0029029110999991925051520004+63083+021617FM-12+000999999V0202701N005119999999N0000001N9+00831+99999999999ADDGF103991999999999999999999
0029029110999991925051606004+63083+021617FM-12+000999999V0203201N003119999999N0000001N9+00781+99999999999ADDGF103991999999999999999999
0029029110999991925051613004+63083+021617FM-12+000999999V0202501N007219999999N0000001N9+01221+99999999999ADDGF104991999999999999999999
0029029110999991925051620004+63083+021617FM-12+000999999V0202501N005119999999N0000001N9+00891+99999999999ADDGF103991999999999999999999
0029029110999991925051706004+63083+021617FM-12+000999999V0201601N003119999999N0000001N9+00891+99999999999ADDGF103991999999999999999999
0029029110999991925051713004+63083+021617FM-12+000999999V0200201N007219999999N0000001N9+01671+99999999999ADDGF105991999999999999999999
0029029110999991925051720004+63083+021617FM-12+000999999V0200501N004119999999N0000001N9+01221+99999999999ADDGF104991999999999999999999
0029029110999991925051806004+63083+021617FM-12+000999999V0201801N007219999999N0000001N9+01221+99999999999ADDGF104991999999999999999999
0029029110999991925051813004+63083+021617FM-12+000999999V0202301N007219999999N0000001N9+01721+99999999999ADDGF105991999999999999999999
0029029110999991925051820004+63083+021617FM-12+000999999V0202501N005119999999N0000001N9+01221+99999999999ADDGF104991999999999999999999
0029029110999991925051906004+63083+021617FM-12+000999999V0209991C000019999999N0000001N9+01001+99999999999ADDGF104991999999999999999999
0029029110999991925051913004+63083+021617FM-12+000999999V0203401N003119999999N0000001N9+01831+99999999999ADDGF105991999999999999999999
0029029110999991925051920004+63083+021617FM-12+000999999V0200501N005119999999N0000001N9+01441+99999999999ADDGF104991999999999999999999
0029029110999991925052006004+63083+021617FM-12+000999999V0200201N005119999999N0000001N9+00941+99999999999ADDGF103991999999999999999999
0029029110999991925052013004+63083+021617FM-12+000999999V0200201N003119999999N0000001N9+01331+99999999999ADDGF104991999999999999999999
0029029110999991925052020004+63083+021617FM-12+000999999V0202701N004119999999N0000001N9+01001+99999999999ADDGF104991999999999999999999
0029029110999991925052106004+63083+021617FM-12+000999999V0200501N007219999999N0000001N9+00561+99999999999ADDGF103991999999999999999999
0029029110999991925052113004+63083+021617FM-12+000999999V0200501N009819999999N0000001N9+00611+99999999999ADDGF103991999999999999999999
0029029110999991925052120004+63083+021617FM-12+000999999V0200201N008719999999N0000001N9+00441+99999999999ADDGF103991999999999999999999
0029029110999991925052206004+63083+021617FM-12+000999999V0200201N008719999999N0000001N9+00221+99999999999ADDGF102991999999999999999999
0029029110999991925052213004+63083+021617FM-12+000999999V0200501N011819999999N0000001N9+00331+99999999999ADDGF102991999999999999999999
0029029110999991925052220004+63083+021617FM-12+000999999V0200201N008719999999N0000001N9+00171+99999999999ADDGF102991999999999999999999
0029029110999991925052306004+63083+021617FM-12+000999999V0200201N007219999999N0000001N9+00221+99999999999ADDGF102991999999999999999999
0029029110999991925052313004+63083+021617FM-12+000999999V0200201N008719999999N0000001N9+00281+99999999999ADDGF102991999999999999999999
0029029110999991925052320004+63083+021617FM-12+000999999V0200501N003119999999N0000001N9+00111+99999999999ADDGF102991999999999999999999
0029029110999991925052406004+63083+021617FM-12+000999999V0200901N005119999999N0000001N9+00221+99999999999ADDGF102991999999999999999999
0029029110999991925052413004+63083+021617FM-12+000999999V0202901N005119999999N0000001N9+00671+99999999999ADDGF103991999999999999999999
0029029110999991925052420004+63083+021617FM-12+000999999V0202701N003119999999N0000001N9+00441+99999999999ADDGF103991999999999999999999
0029029110999991925052506004+63083+021617FM-12+000999999V0202001N005119999999N0000001N9+00441+99999999999ADDGF103991999999999999999999
0029029110999991925052513004+63083+021617FM-12+000999999V0202501N008719999999N0000001N9+00941+99999999999ADDGF103991999999999999999999
0029029110999991925052520004+63083+021617FM-12+000999999V0209991C000019999999N0000001N9+00721+99999999999ADDGF103991999999999999999999
0029029110999991925052606004+63083+021617FM-12+000999999V0209991C000019999999N0000001N9+00721+99999999999ADDGF103991999999999999999999
0029029110999991925052613004+63083+021617FM-12+000999999V0200201N007219999999N0000001N9+01331+99999999999ADDGF104991999999999999999999
0029029110999991925052620004+63083+021617FM-12+000999999V0200501N005119999999N0000001N9+00941+99999999999ADDGF103991999999999999999999
0029029110999991925052706004+63083+021617FM-12+000999999V0209991C000019999999N0000001N9+00941+99999999999ADDGF103991999999999999999999
0029029110999991925052713004+63083+021617FM-12+000999999V0200201N007219999999N0000001N9+01611+99999999999ADDGF105991999999999999999999
0029029110999991925052720004+63083+021617FM-12+000999999V0209991C000019999999N0000001N9+01331+99999999999ADDGF104991999999999999999999
0029029110999991925052806004+63083+021617FM-12+000999999V0201401N003119999999N0000001N9+01221+99999999999ADDGF104991999999999999999999
0029029110999991925052813004+63083+021617FM-12+000999999V0203201N003119999999N0000001N9+01331+99999999999ADDGF104991999999999999999999
0029029110999991925052820004+63083+021617FM-12+000999999V0200901N007219999999N0000001N9+01391+99999999999ADDGF104991999999999999999999
0029029110999991925052906004+63083+021617FM-12+000999999V0201601N007219999999N0000001N9+01171+99999999999ADDGF104991999999999999999999
0029029110999991925052913004+63083+021617FM-12+000999999V0201801N007219999999N0000001N9+01941+99999999999ADDGF105991999999999999999999
0029029110999991925052920004+63083+021617FM-12+000999999V0201401N005119999999N0000001N9+01671+99999999999ADDGF105991999999999999999999
0029029110999991925053006004+63083+021617FM-12+000999999V0201401N007219999999N0000001N9+01441+99999999999ADDGF104991999999999999999999
0029029110999991925053013004+63083+021617FM-12+000999999V0202001N008719999999N0000001N9+01281+99999999999ADDGF104991999999999999999999
0029029110999991925053020004+63083+021617FM-12+000999999V0202501N007219999999N0000001N9+01221+99999999999ADDGF104991999999999999999999
0029029110999991925053106004+63083+021617FM-12+000999999V0201601N007219999999N0000001N9+01001+99999999999ADDGF104991999999999999999999
0029029110999991925053113004+63083+021617FM-12+000999999V0202301N007219999999N0000001N9+01281+99999999999ADDGF104991999999999999999999
0029029110999991925053120004+63083+021617FM-12+000999999V0202001N007219999999N0000001N9+01001+99999999999ADDGF104991999999999999999999
0029029110999991925060106004+63083+021617FM-12+000999999V0202001N007219999999N0000001N9+01061+99999100321ADDGF100991999999999999999999
0029029110999991925060113004+63083+021617FM-12+000999999V0202501N007219999999N0000001N9+01501+99999100741ADDGF100991999999999999999999
0029029110999991925060120004+63083+021617FM-12+000999999V0202701N005119999999N0000001N9+01171+99999100921ADDGF101991999999999999999999
0029029110999991925060206004+63083+021617FM-12+000999999V0202001N003119999999N0000001N9+01061+99999101111ADDGF100991999999999999999999
0029029110999991925060213004+63083+021617FM-12+000999999V0202001N008719999999N0000001N9+01221+99999101351ADDGF106991999999999999999999
0035029110999991925060220004+63083+021617FM-12+000999999V0202301N005119999999N0000001N9+01111+99999101221ADDGF106991999999999999999999MW1601
0029029110999991925060306004+63083+021617FM-12+000999999V0201801N003119999999N0000001N9+00891+99999101081ADDGF100991999999999999999999
0029029110999991925060313004+63083+021617FM-12+000999999V0202701N005119999999N0000001N9+01391+99999101021ADDGF102991999999999999999999
0029029110999991925060320004+63083+021617FM-12+000999999V0203601N003119999999N0000001N9+01061+99999100941ADDGF101991999999999999999999
0029029110999991925060406004+63083+021617FM-12+000999999V0203601N005119999999N0000001N9+01001+99999101141ADDGF100991999999999999999999
0029029110999991925060413004+63083+021617FM-12+000999999V0203601N015919999999N0000001N9+01281+99999101281ADDGF100991999999999999999999
0029029110999991925060420004+63083+021617FM-12+000999999V0203601N005119999999N0000001N9+01061+99999101601ADDGF100991999999999999999999
0029029110999991925060506004+63083+021617FM-12+000999999V0200201N005119999999N0000001N9+01221+99999101871ADDGF101991999999999999999999
0029029110999991925060513004+63083+021617FM-12+000999999V0200501N008719999999N0000001N9+01501+99999102071ADDGF101991999999999999999999
0029029110999991925060520004+63083+021617FM-12+000999999V0200201N003119999999N0000001N9+01111+99999102241ADDGF100991999999999999999999
0029029110999991925060606004+63083+021617FM-12+000999999V0200501N003119999999N0000001N9+01001+99999102511ADDGF100991999999999999999999
0029029110999991925060613004+63083+021617FM-12+000999999V0202701N007219999999N0000001N9+01561+99999102511ADDGF100991999999999999999999
0029029110999991925060620004+63083+021617FM-12+000999999V0209991C000019999999N0000001N9+01331+99999102421ADDGF102991999999999999999999
0029029110999991925060706004+63083+021617FM-12+000999999V0201801N007219999999N0000001N9+01331+99999102161ADDGF108991999999999999999999
0035029110999991925060713004+63083+021617FM-12+000999999V0202301N008719999999N0000001N9+01281+99999102061ADDGF108991999999999999999999MW1171
0029029110999991925060720004+63083+021617FM-12+000999999V0202901N007219999999N0000001N9+01331+99999101951ADDGF107991999999999999999999
0029029110999991925060806004+63083+021617FM-12+000999999V0200201N007219999999N0000001N9+01111+99999102321ADDGF100991999999999999999999
0029029110999991925060813004+63083+021617FM-12+000999999V0200201N007219999999N0000001N9+01441+99999102191ADDGF104991999999999999999999
0029029110999991925060820004+63083+021617FM-12+000999999V0203401N003119999999N0000001N9+01331+99999102271ADDGF100991999999999999999999
0029029110999991925060906004+63083+021617FM-12+000999999V0203201N005119999999N0000001N9+01281+99999102161ADDGF103991999999999999999999
0029029110999991925060913004+63083+021617FM-12+000999999V0202501N005119999999N0000001N9+01441+99999101901ADDGF108991999999999999999999
0029029110999991925060920004+63083+021617FM-12+000999999V0209991C000019999999N0000001N9+01441+99999101561ADDGF108991999999999999999999
0029029110999991925061006004+63083+021617FM-12+000999999V0200201N005119999999N0000001N9+01221+99999101901ADDGF100991999999999999999999
0029029110999991925061013004+63083+021617FM-12+000999999V0200201N007219999999N0000001N9+01721+99999101911ADDGF100991999999999999999999
0029029110999991925061020004+63083+021617FM-12+000999999V0200501N003119999999N0000001N9+01441+99999101831ADDGF106991999999999999999999
0029029110999991925061106004+63083+021617FM-12+000999999V0200501N003119999999N0000001N9+01331+99999101701ADDGF108991999999999999999999
0029029110999991925061113004+63083+021617FM-12+000999999V0202701N005119999999N0000001N9+01561+99999101361ADDGF108991999999999999999999
0029029110999991925061120004+63083+021617FM-12+000999999V0202501N003119999999N0000001N9+01281+99999100871ADDGF107991999999999999999999
0029029110999991925061206004+63083+021617FM-12+000999999V0203201N007219999999N0000001N9+01111+99999100381ADDGF108991999999999999999999
0029029110999991925061213004+63083+021617FM-12+000999999V0202501N008719999999N0000001N9+01561+99999100161ADDGF104991999999999999999999
0029029110999991925061220004+63083+021617FM-12+000999999V0203401N007219999999N0000001N9+01221+99999100071ADDGF102991999999999999999999
0029029110999991925061306004+63083+021617FM-12+000999999V0203601N007219999999N0000001N9+01061+99999100021ADDGF100991999999999999999999
0029029110999991925061313004+63083+021617FM-12+000999999V0202701N007219999999N0000001N9+01391+99999100031ADDGF101991999999999999999999
0029029110999991925061320004+63083+021617FM-12+000999999V0202701N003119999999N0000001N9+01111+99999099551ADDGF102991999999999999999999
0029029110999991925061406004+63083+021617FM-12+000999999V0201401N007219999999N0000001N9+00891+99999099071ADDGF108991999999999999999999
0035029110999991925061413004+63083+021617FM-12+000999999V0201401N007219999999N0000001N9+01001+99999098981ADDGF108991999999999999999999MW1621
0035029110999991925061420004+63083+021617FM-12+000999999V0209991C000019999999N0000001N9+01061+99999099121ADDGF108991999999999999999999MW1621
0029029110999991925061506004+63083+021617FM-12+000999999V0200501N003119999999N0000001N9+01061+99999099671ADDGF108991999999999999999999
0029029110999991925061513004+63083+021617FM-12+000999999V0200901N005119999999N0000001N9+01441+99999100021ADDGF108991999999999999999999
0029029110999991925061520004+63083+021617FM-12+000999999V0200901N003119999999N0000001N9+01221+99999100121ADDGF108991999999999999999999
0029029110999991925061606004+63083+021617FM-12+000999999V0202301N003119999999N0000001N9+01221+99999100071ADDGF108991999999999999999999
0029029110999991925061613004+63083+021617FM-12+000999999V0202501N007219999999N0000001N9+01561+99999099901ADDGF103991999999999999999999
0029029110999991925061620004+63083+021617FM-12+000999999V0209991C000019999999N0000001N9+01331+99999099481ADDGF106991999999999999999999
0035029110999991925061706004+63083+021617FM-12+000999999V0201401N007219999999N0000001N9+01111+99999098681ADDGF108991999999999999999999MW1621
0035029110999991925061713004+63083+021617FM-12+000999999V0209991C000019999999N0000001N9+01331+99999098591ADDGF108991999999999999999999MW1621
0029029110999991925061720004+63083+021617FM-12+000999999V0200901N003119999999N0000001N9+01111+99999098641ADDGF108991999999999999999999
0035029110999991925061806004+63083+021617FM-12+000999999V0202501N005119999999N0000001N9+00891+99999099061ADDGF108991999999999999999999MW1601
0029029110999991925061813004+63083+021617FM-12+000999999V0202701N003119999999N0000001N9+01061+99999099701ADDGF108991999999999999999999
0029029110999991925061820004+63083+021617FM-12+000999999V0203601N003119999999N0000001N9+00941+99999100021ADDGF108991999999999999999999
0029029110999991925061906004+63083+021617FM-12+000999999V0200201N007219999999N0000001N9+01281+99999099901ADDGF100991999999999999999999
0029029110999991925061913004+63083+021617FM-12+000999999V0200201N011819999999N0000001N9+01611+99999099841ADDGF100991999999999999999999
0029029110999991925061920004+63083+021617FM-12+000999999V0200201N008719999999N0000001N9+01331+99999099921ADDGF102991999999999999999999
0029029110999991925062006004+63083+021617FM-12+000999999V0200201N003119999999N0000001N9+01391+99999100061ADDGF108991999999999999999999
0029029110999991925062013004+63083+021617FM-12+000999999V0200201N008719999999N0000001N9+01611+99999100301ADDGF103991999999999999999999
0029029110999991925062020004+63083+021617FM-12+000999999V0200901N008719999999N0000001N9+01331+99999100351ADDGF107991999999999999999999
0029029110999991925062106004+63083+021617FM-12+000999999V0200901N007219999999N0000001N9+00831+99999100511ADDGF108991999999999999999999
0029029110999991925062113004+63083+021617FM-12+000999999V0200201N007219999999N0000001N9+01501+99999100751ADDGF102991999999999999999999
0029029110999991925062120004+63083+021617FM-12+000999999V0200501N007219999999N0000001N9+01111+99999101141ADDGF101991999999999999999999
0029029110999991925062206004+63083+021617FM-12+000999999V0200901N005119999999N0000001N9+01061+99999101361ADDGF103991999999999999999999
0029029110999991925062213004+63083+021617FM-12+000999999V0200201N007219999999N0000001N9+01561+99999101551ADDGF100991999999999999999999
0029029110999991925062220004+63083+021617FM-12+000999999V0200501N005119999999N0000001N9+01221+99999101681ADDGF100991999999999999999999
0029029110999991925062306004+63083+021617FM-12+000999999V0200501N005119999999N0000001N9+01331+99999101941ADDGF100991999999999999999999
0029029110999991925062313004+63083+021617FM-12+000999999V0200201N005119999999N0000001N9+01891+99999101711ADDGF101991999999999999999999
0029029110999991925062320004+63083+021617FM-12+000999999V0200501N003119999999N0000001N9+01501+99999101501ADDGF104991999999999999999999
0029029110999991925062406004+63083+021617FM-12+000999999V0200501N007219999999N0000001N9+01441+99999101161ADDGF108991999999999999999999
0029029110999991925062413004+63083+021617FM-12+000999999V0200201N015919999999N0000001N9+01611+99999100681ADDGF100991999999999999999999
0029029110999991925062420004+63083+021617FM-12+000999999V0200201N007219999999N0000001N9+01441+99999100231ADDGF108991999999999999999999
0035029110999991925062506004+63083+021617FM-12+000999999V0200201N008719999999N0000001N9+01221+99999099721ADDGF108991999999999999999999MW1601
0035029110999991925062513004+63083+021617FM-12+000999999V0203401N005119999999N0000001N9+01171+99999099801ADDGF108991999999999999999999MW1601
0029029110999991925062520004+63083+021617FM-12+000999999V0202301N007219999999N0000001N9+01331+99999099921ADDGF102991999999999999999999
0029029110999991925062606004+63083+021617FM-12+000999999V0202301N007219999999N0000001N9+01061+99999100341ADDGF104991999999999999999999
0029029110999991925062613004+63083+021617FM-12+000999999V0202701N007219999999N0000001N9+01331+99999100511ADDGF100991999999999999999999
0029029110999991925062620004+63083+021617FM-12+000999999V0202901N004119999999N0000001N9+01221+99999100501ADDGF100991999999999999999999
0029029110999991925062706004+63083+021617FM-12+000999999V0203601N005119999999N0000001N9+01331+99999100561ADDGF100991999999999999999999
0029029110999991925062713004+63083+021617FM-12+000999999V0202701N007219999999N0000001N9+01501+99999100621ADDGF100991999999999999999999
0029029110999991925062720004+63083+021617FM-12+000999999V0203401N001019999999N0000001N9+01391+99999100781ADDGF106991999999999999999999
0029029110999991925062806004+63083+021617FM-12+000999999V0202701N005119999999N0000001N9+01441+99999101001ADDGF100991999999999999999999
0029029110999991925062813004+63083+021617FM-12+000999999V0203601N007219999999N0000001N9+01721+99999101281ADDGF100991999999999999999999
0029029110999991925062820004+63083+021617FM-12+000999999V0209991C000019999999N0000001N9+01441+99999101471ADDGF100991999999999999999999
0029029110999991925062906004+63083+021617FM-12+000999999V0209991C000019999999N0000001N9+01331+99999101751ADDGF100991999999999999999999
0029029110999991925062913004+63083+021617FM-12+000999999V0202701N005119999999N0000001N9+01831+99999101861ADDGF100991999999999999999999
0029029110999991925062920004+63083+021617FM-12+000999999V0200201N003119999999N0000001N9+01501+99999101921ADDGF101991999999999999999999
0029029110999991925063006004+63083+021617FM-12+000999999V0200901N003119999999N0000001N9+01441+99999102101ADDGF100991999999999999999999
0029029110999991925063013004+63083+021617FM-12+000999999V0200201N008719999999N0000001N9+01891+99999102101ADDGF100991999999999999999999
0029029110999991925063020004+63083+021617FM-12+000999999V0200501N006219999999N0000001N9+01611+99999102151ADDGF100991999999999999999999
0029029110999991925070106004+63083+021617FM-12+000999999V0200901N008719999999N0000001N9+01441+99999102351ADDGF100991999999999999999999
0029029110999991925070113004+63083+021617FM-12+000999999V0200501N008719999999N0000001N9+01721+99999102351ADDGF100991999999999999999999
0029029110999991925070120004+63083+021617FM-12+000999999V0200201N006219999999N0000001N9+01441+99999102471ADDGF100991999999999999999999
0029029110999991925070206004+63083+021617FM-12+000999999V0200901N005119999999N0000001N9+01561+99999102521ADDGF100991999999999999999999
0029029110999991925070213004+63083+021617FM-12+000999999V0200201N008719999999N0000001N9+01941+99999102241ADDGF100991999999999999999999
0029029110999991925070220004+63083+021617FM-12+000999999V0209991C000019999999N0000001N9+01611+99999102121ADDGF100991999999999999999999
0029029110999991925070306004+63083+021617FM-12+000999999V0200701N005119999999N0000001N9+01611+99999101981ADDGF108991999999999999999999
0029029110999991925070313004+63083+021617FM-12+000999999V0200201N008219999999N0000001N9+02111+99999101801ADDGF104991999999999999999999
0029029110999991925070320004+63083+021617FM-12+000999999V0200501N005119999999N0000001N9+01611+99999101701ADDGF100991999999999999999999
0029029110999991925070406004+63083+021617FM-12+000999999V0200901N007219999999N0000001N9+01941+99999101711ADDGF100991999999999999999999
0029029110999991925070413004+63083+021617FM-12+000999999V0200901N007219999999N0000001N9+02611+99999101591ADDGF105991999999999999999999
0029029110999991925070420004+63083+021617FM-12+000999999V0200901N007219999999N0000001N9+01831+99999101471ADDGF102991999999999999999999
0029029110999991925070506004+63083+021617FM-12+000999999V0200501N007219999999N0000001N9+01721+99999101521ADDGF108991999999999999999999
0029029110999991925070513004+63083+021617FM-12+000999999V0200901N007219999999N0000001N9+02721+99999101151ADDGF104991999999999999999999
0035029110999991925070520004+63083+021617FM-12+000999999V0209991C000019999999N0000001N9+01891+99999100981ADDGF106991999999999999999999MW1621
0029029110999991925070606004+63083+021617FM-12+000999999V0209991C000019999999N0000001N9+02001+99999101041ADDGF100991999999999999999999
0029029110999991925070613004+63083+021617FM-12+000999999V0201101N005119999999N0000001N9+02001+99999100991ADDGF108991999999999999999999
0029029110999991925070620004+63083+021617FM-12+000999999V0209991C000019999999N0000001N9+02111+99999100941ADDGF103991999999999999999999
0029029110999991925070706004+63083+021617FM-12+000999999V0209991C000019999999N0000001N9+01941+99999100961ADDGF100991999999999999999999
0029029110999991925070713004+63083+021617FM-12+000999999V0209991C000019999999N0000001N9+02501+99999101061ADDGF100991999999999999999999
0029029110999991925070720004+63083+021617FM-12+000999999V0200901N003119999999N0000001N9+02281+99999100901ADDGF102991999999999999999999
0029029110999991925070806004+63083+021617FM-12+000999999V0200901N003119999999N0000001N9+02221+99999100711ADDGF102991999999999999999999
0029029110999991925070813004+63083+021617FM-12+000999999V0201801N007219999999N0000001N9+02831+99999100561ADDGF102991999999999999999999
0029029110999991925070820004+63083+021617FM-12+000999999V0202901N003119999999N0000001N9+02111+99999100601ADDGF102991999999999999999999
0029029110999991925070906004+63083+021617FM-12+000999999V0200901N003119999999N0000001N9+02221+99999100461ADDGF100991999999999999999999
0035029110999991925070913004+63083+021617FM-12+000999999V0202901N005119999999N0000001N9+02061+99999100341ADDGF106991999999999999999999MW1641
0029029110999991925070920004+63083+021617FM-12+000999999V0201801N005119999999N0000001N9+02001+99999100301ADDGF100991999999999999999999
0035029110999991925071006004+63083+021617FM-12+000999999V0201401N005119999999N0000001N9+01671+99999100201ADDGF108991999999999999999999MW1601
0035029110999991925071013004+63083+021617FM-12+000999999V0203201N003119999999N0000001N9+01891+99999100231ADDGF107991999999999999999999MW1171
0029029110999991925071020004+63083+021617FM-12+000999999V0202001N007219999999N0000001N9+01561+99999100361ADDGF102991999999999999999999
0035029110999991925071106004+63083+021617FM-12+000999999V0201801N013919999999N0000001N9+01441+99999100481ADDGF108991999999999999999999MW1621
0029029110999991925071113004+63083+021617FM-12+000999999V0202301N023119999999N0000001N9+01501+99999100861ADDGF108991999999999999999999
0029029110999991925071120004+63083+021617FM-12+000999999V0202301N008219999999N0000001N9+01331+99999101121ADDGF102991999999999999999999
0035029110999991925071206004+63083+021617FM-12+000999999V0203401N005119999999N0000001N9+01221+99999101401ADDGF108991999999999999999999MW1601
0029029110999991925071213004+63083+021617FM-12+000999999V0202501N007219999999N0000001N9+01561+99999101671ADDGF100991999999999999999999
0029029110999991925071220004+63083+021617FM-12+000999999V0202501N003119999999N0000001N9+01501+99999101721ADDGF106991999999999999999999
0029029110999991925071306004+63083+021617FM-12+000999999V0202701N003119999999N0000001N9+01501+99999101941ADDGF100991999999999999999999
0029029110999991925071313004+63083+021617FM-12+000999999V0202701N003119999999N0000001N9+01941+99999102141ADDGF100991999999999999999999
0029029110999991925071320004+63083+021617FM-12+000999999V0202501N003119999999N0000001N9+01721+99999102141ADDGF100991999999999999999999
0029029110999991925071406004+63083+021617FM-12+000999999V0203601N005119999999N0000001N9+01561+99999102341ADDGF100991999999999999999999
0029029110999991925071413004+63083+021617FM-12+000999999V0203201N005119999999N0000001N9+01941+99999102351ADDGF100991999999999999999999
0029029110999991925071420004+63083+021617FM-12+000999999V0203601N003119999999N0000001N9+01561+99999102191ADDGF102991999999999999999999
0029029110999991925071506004+63083+021617FM-12+000999999V0209991C000019999999N0000001N9+01611+99999102141ADDGF104991999999999999999999
0029029110999991925071513004+63083+021617FM-12+000999999V0200501N005119999999N0000001N9+02001+99999102061ADDGF104991999999999999999999
0029029110999991925071520004+63083+021617FM-12+000999999V0209991C000019999999N0000001N9+01781+99999101881ADDGF101991999999999999999999
0029029110999991925071606004+63083+021617FM-12+000999999V0209991C000019999999N0000001N9+01671+99999101751ADDGF106991999999999999999999
0029029110999991925071613004+63083+021617FM-12+000999999V0200701N003119999999N0000001N9+01941+99999101621ADDGF107991999999999999999999
0029029110999991925071620004+63083+021617FM-12+000999999V0200201N003119999999N0000001N9+01721+99999101551ADDGF102991999999999999999999
0029029110999991925071706004+63083+021617FM-12+000999999V0209991C000019999999N0000001N9+01671+99999101501ADDGF100991999999999999999999
0029029110999991925071713004+63083+021617FM-12+000999999V0203201N003119999999N0000001N9+02171+99999101431ADDGF107991999999999999999999
0029029110999991925071720004+63083+021617FM-12+000999999V0209991C000019999999N0000001N9+02001+99999101381ADDGF100991999999999999999999
0029029110999991925071806004+63083+021617FM-12+000999999V0201101N003119999999N0000001N9+01721+99999101431ADDGF100991999999999999999999
0029029110999991925071813004+63083+021617FM-12+000999999V0203601N005119999999N0000001N9+02331+99999101431ADDGF100991999999999999999999
0029029110999991925071820004+63083+021617FM-12+000999999V0200201N003119999999N0000001N9+01831+99999101441ADDGF100991999999999999999999
0029029110999991925071906004+63083+021617FM-12+000999999V0200201N003119999999N0000001N9+01831+99999101551ADDGF100991999999999999999999
0029029110999991925071913004+63083+021617FM-12+000999999V0202701N005119999999N0000001N9+02221+99999101501ADDGF100991999999999999999999
0029029110999991925071920004+63083+021617FM-12+000999999V0209991C000019999999N0000001N9+01891+99999101561ADDGF104991999999999999999999
0029029110999991925072006004+63083+021617FM-12+000999999V0202701N005119999999N0000001N9+01941+99999101741ADDGF100991999999999999999999
0029029110999991925072013004+63083+021617FM-12+000999999V0203201N003119999999N0000001N9+02221+99999101831ADDGF102991999999999999999999
0029029110999991925072020004+63083+021617FM-12+000999999V0200201N003119999999N0000001N9+02001+99999101991ADDGF100991999999999999999999
0029029110999991925072106004+63083+021617FM-12+000999999V0209991C000019999999N0000001N9+01891+99999102201ADDGF100991999999999999999999
0029029110999991925072113004+63083+021617FM-12+000999999V0202701N005119999999N0000001N9+02441+99999102221ADDGF101991999999999999999999
0029029110999991925072120004+63083+021617FM-12+000999999V0203601N005119999999N0000001N9+02111+99999102161ADDGF100991999999999999999999
0029029110999991925072206004+63083+021617FM-12+000999999V0200201N003119999999N0000001N9+01941+99999102351ADDGF100991999999999999999999
0029029110999991925072213004+63083+021617FM-12+000999999V0202501N005119999999N0000001N9+02561+99999102311ADDGF100991999999999999999999
0029029110999991925072220004+63083+021617FM-12+000999999V0202501N004119999999N0000001N9+02221+99999102271ADDGF101991999999999999999999
0029029110999991925072306004+63083+021617FM-12+000999999V0202501N005119999999N0000001N9+02171+99999102031ADDGF100991999999999999999999
0029029110999991925072313004+63083+021617FM-12+000999999V0202001N009819999999N0000001N9+02611+99999101841ADDGF100991999999999999999999
0029029110999991925072320004+63083+021617FM-12+000999999V0200901N007219999999N0000001N9+02221+99999101631ADDGF100991999999999999999999
0029029110999991925072406004+63083+021617FM-12+000999999V0200201N003119999999N0000001N9+02171+99999101551ADDGF100991999999999999999999
0029029110999991925072413004+63083+021617FM-12+000999999V0203201N002119999999N0000001N9+02611+99999101511ADDGF100991999999999999999999
0029029110999991925072420004+63083+021617FM-12+000999999V0202901N005119999999N0000001N9+02221+99999101511ADDGF107991999999999999999999
0029029110999991925072506004+63083+021617FM-12+000999999V0200501N007219999999N0000001N9+01831+99999101801ADDGF106991999999999999999999
0029029110999991925072513004+63083+021617FM-12+000999999V0200501N007219999999N0000001N9+02061+99999102001ADDGF100991999999999999999999
0029029110999991925072520004+63083+021617FM-12+000999999V0200701N006219999999N0000001N9+01671+99999101781ADDGF100991999999999999999999
0029029110999991925072606004+63083+021617FM-12+000999999V0200901N007219999999N0000001N9+01611+99999101631ADDGF104991999999999999999999
0029029110999991925072613004+63083+021617FM-12+000999999V0202701N007219999999N0000001N9+02441+99999101351ADDGF102991999999999999999999
0029029110999991925072620004+63083+021617FM-12+000999999V0201601N005119999999N0000001N9+02331+99999101231ADDGF104991999999999999999999
0029029110999991925072706004+63083+021617FM-12+000999999V0201401N005119999999N0000001N9+02171+99999101141ADDGF100991999999999999999999
0029029110999991925072713004+63083+021617FM-12+000999999V0202001N007219999999N0000001N9+02831+99999100911ADDGF103991999999999999999999
0029029110999991925072720004+63083+021617FM-12+000999999V0200901N006219999999N0000001N9+02331+99999100831ADDGF100991999999999999999999
0029029110999991925072806004+63083+021617FM-12+000999999V0201801N007219999999N0000001N9+02111+99999100521ADDGF100991999999999999999999
0035029110999991925072813004+63083+021617FM-12+000999999V0200901N003119999999N0000001N9+01891+99999100381ADDGF108991999999999999999999MW1621
0029029110999991925072820004+63083+021617FM-12+000999999V0201801N007219999999N0000001N9+02001+99999100271ADDGF102991999999999999999999
0029029110999991925072906004+63083+021617FM-12+000999999V0201801N007219999999N0000001N9+01891+99999100231ADDGF106991999999999999999999
0029029110999991925072913004+63083+021617FM-12+000999999V0202301N008719999999N0000001N9+02221+99999100421ADDGF104991999999999999999999
0029029110999991925072920004+63083+021617FM-12+000999999V0201801N005119999999N0000001N9+01831+99999100421ADDGF103991999999999999999999
0029029110999991925073006004+63083+021617FM-12+000999999V0201601N005119999999N0000001N9+01611+99999100401ADDGF100991999999999999999999
0029029110999991925073013004+63083+021617FM-12+000999999V0202301N003119999999N0000001N9+01611+99999100361ADDGF100991999999999999999999
0029029110999991925073020004+63083+021617FM-12+000999999V0201801N005119999999N0000001N9+01721+99999100321ADDGF102991999999999999999999
0029029110999991925073106004+63083+021617FM-12+000999999V0201401N005119999999N0000001N9+01611+99999100181ADDGF107991999999999999999999
0035029110999991925073113004+63083+021617FM-12+000999999V0201601N005119999999N0000001N9+01561+99999100081ADDGF108991999999999999999999MW1641
0029029110999991925073120004+63083+021617FM-12+000999999V0201101N005119999999N0000001N9+01611+99999099911ADDGF107991999999999999999999
0029029110999991925080106004+63083+021617FM-12+000999999V0201101N003119999999N0000001N9+01331+99999099881ADDGF104991999999999999999999
0035029110999991925080113004+63083+021617FM-12+000999999V0201101N003119999999N0000001N9+01561+99999099821ADDGF108991999999999999999999MW1621
0029029110999991925080120004+63083+021617FM-12+000999999V0201101N005119999999N0000001N9+01611+99999099831ADDGF103991999999999999999999
0029029110999991925080206004+63083+021617FM-12+000999999V0201401N003119999999N0000001N9+01501+99999099941ADDGF100991999999999999999999
0035029110999991925080213004+63083+021617FM-12+000999999V0202301N003119999999N0000001N9+01831+99999100081ADDGF105991999999999999999999MW1641
0029029110999991925080220004+63083+021617FM-12+000999999V0209991C000019999999N0000001N9+01671+99999100151ADDGF104991999999999999999999
0035029110999991925080306004+63083+021617FM-12+000999999V0203401N007219999999N0000001N9+01441+99999100231ADDGF108991999999999999999999MW1641
0035029110999991925080313004+63083+021617FM-12+000999999V0203201N003119999999N0000001N9+01611+99999100301ADDGF108991999999999999999999MW1641
0035029110999991925080320004+63083+021617FM-12+000999999V0203601N007219999999N0000001N9+01281+99999100301ADDGF108991999999999999999999MW1641
0029029110999991925080406004+63083+021617FM-12+000999999V0203601N005119999999N0000001N9+01331+99999100221ADDGF108991999999999999999999
0029029110999991925080413004+63083+021617FM-12+000999999V0203601N005119999999N0000001N9+01501+99999100231ADDGF108991999999999999999999
0029029110999991925080420004+63083+021617FM-12+000999999V0200201N006219999999N0000001N9+01441+99999100101ADDGF108991999999999999999999
0035029110999991925080506004+63083+021617FM-12+000999999V0200201N006219999999N0000001N9+01501+99999099801ADDGF108991999999999999999999MW1621
0035029110999991925080513004+63083+021617FM-12+000999999V0200201N006219999999N0000001N9+01441+99999099641ADDGF108991999999999999999999MW1621
0035029110999991925080520004+63083+021617FM-12+000999999V0200501N008719999999N0000001N9+01221+99999099551ADDGF108991999999999999999999MW1621
0029029110999991925080606004+63083+021617FM-12+000999999V0200501N007219999999N0000001N9+01061+99999099561ADDGF108991999999999999999999
0029029110999991925080613004+63083+021617FM-12+000999999V0200201N008719999999N0000001N9+01221+99999099821ADDGF108991999999999999999999
0029029110999991925080620004+63083+021617FM-12+000999999V0200201N006219999999N0000001N9+01061+99999100041ADDGF108991999999999999999999
0029029110999991925080706004+63083+021617FM-12+000999999V0200501N005119999999N0000001N9+01171+99999100441ADDGF108991999999999999999999
0029029110999991925080713004+63083+021617FM-12+000999999V0200501N008719999999N0000001N9+01221+99999100841ADDGF100991999999999999999999
0029029110999991925080720004+63083+021617FM-12+000999999V0200201N004119999999N0000001N9+00941+99999101151ADDGF101991999999999999999999
0029029110999991925080806004+63083+021617FM-12+000999999V0200201N003119999999N0000001N9+01221+99999101421ADDGF100991999999999999999999
0029029110999991925080813004+63083+021617FM-12+000999999V0203201N005119999999N0000001N9+01721+99999101541ADDGF100991999999999999999999
0029029110999991925080820004+63083+021617FM-12+000999999V0209991C000019999999N0000001N9+01221+99999101541ADDGF100991999999999999999999
0029029110999991925080906004+63083+021617FM-12+000999999V0209991C000019999999N0000001N9+01221+99999101681ADDGF100991999999999999999999
0029029110999991925080913004+63083+021617FM-12+000999999V0202701N003119999999N0000001N9+01721+99999101751ADDGF100991999999999999999999
0029029110999991925080920004+63083+021617FM-12+000999999V0209991C000019999999N0000001N9+01391+99999101671ADDGF100991999999999999999999
0029029110999991925081006004+63083+021617FM-12+000999999V0201401N005119999999N0000001N9+01331+99999101641ADDGF100991999999999999999999
0029029110999991925081013004+63083+021617FM-12+000999999V0201801N005119999999N0000001N9+01891+99999101441ADDGF108991999999999999999999
0035029110999991925081020004+63083+021617FM-12+000999999V0202001N005119999999N0000001N9+01611+99999101141ADDGF108991999999999999999999MW1641
0029029110999991925081106004+63083+021617FM-12+000999999V0202001N007219999999N0000001N9+01561+99999100701ADDGF108991999999999999999999
0035029110999991925081113004+63083+021617FM-12+000999999V0201601N007219999999N0000001N9+01611+99999100431ADDGF108991999999999999999999MW1621
0029029110999991925081120004+63083+021617FM-12+000999999V0202301N008219999999N0000001N9+01721+99999100321ADDGF108991999999999999999999
0029029110999991925081206004+63083+021617FM-12+000999999V0202501N005119999999N0000001N9+01611+99999100841ADDGF108991999999999999999999
0029029110999991925081213004+63083+021617FM-12+000999999V0202301N008719999999N0000001N9+01721+99999101301ADDGF100991999999999999999999
0029029110999991925081220004+63083+021617FM-12+000999999V0202301N005119999999N0000001N9+01561+99999101641ADDGF100991999999999999999999
0029029110999991925081306004+63083+021617FM-12+000999999V0201601N003119999999N0000001N9+01391+99999101881ADDGF100991999999999999999999
0029029110999991925081313004+63083+021617FM-12+000999999V0202301N007219999999N0000001N9+01941+99999101721ADDGF100991999999999999999999
0029029110999991925081320004+63083+021617FM-12+000999999V0202301N008719999999N0000001N9+01611+99999101551ADDGF108991999999999999999999
0029029110999991925081406004+63083+021617FM-12+000999999V0201801N005119999999N0000001N9+01611+99999101241ADDGF107991999999999999999999
0029029110999991925081413004+63083+021617FM-12+000999999V0202301N007219999999N0000001N9+01831+99999101021ADDGF106991999999999999999999
0029029110999991925081420004+63083+021617FM-12+000999999V0202501N005119999999N0000001N9+01611+99999100831ADDGF108991999999999999999999
0029029110999991925081506004+63083+021617FM-12+000999999V0203201N003119999999N0000001N9+01281+99999100921ADDGF107991999999999999999999
0029029110999991925081513004+63083+021617FM-12+000999999V0203201N002119999999N0000001N9+01611+99999100791ADDGF100991999999999999999999
0029029110999991925081520004+63083+021617FM-12+000999999V0209991C000019999999N0000001N9+01221+99999100741ADDGF102991999999999999999999
0029029110999991925081606004+63083+021617FM-12+000999999V0209991C000019999999N0000001N9+01221+99999100521ADDGF106991999999999999999999
0029029110999991925081613004+63083+021617FM-12+000999999V0203201N005119999999N0000001N9+01671+99999100361ADDGF100991999999999999999999
0029029110999991925081620004+63083+021617FM-12+000999999V0209991C000019999999N0000001N9+01441+99999100311ADDGF100991999999999999999999
0029029110999991925081706004+63083+021617FM-12+000999999V0209991C000019999999N0000001N9+01331+99999100041ADDGF106991999999999999999999
0029029110999991925081713004+63083+021617FM-12+000999999V0202901N003119999999N0000001N9+01561+99999099921ADDGF108991999999999999999999
0029029110999991925081720004+63083+021617FM-12+000999999V0202701N003119999999N0000001N9+01441+99999099791ADDGF108991999999999999999999
0029029110999991925081806004+63083+021617FM-12+000999999V0202001N002119999999N0000001N9+01111+99999099701ADDGF103991999999999999999999
0029029110999991925081813004+63083+021617FM-12+000999999V0201101N003119999999N0000001N9+01611+99999099911ADDGF106991999999999999999999
0029029110999991925081820004+63083+021617FM-12+000999999V0209991C000019999999N0000001N9+01331+99999100201ADDGF101991999999999999999999
0029029110999991925081906004+63083+021617FM-12+000999999V0203201N003119999999N0000001N9+01221+99999100261ADDGF102991999999999999999999
0029029110999991925081913004+63083+021617FM-12+000999999V0203601N005119999999N0000001N9+01831+99999100261ADDGF102991999999999999999999
0029029110999991925081920004+63083+021617FM-12+000999999V0203601N005119999999N0000001N9+01441+99999100311ADDGF101991999999999999999999
0029029110999991925082006004+63083+021617FM-12+000999999V0203601N006219999999N0000001N9+01441+99999100461ADDGF108991999999999999999999
0029029110999991925082013004+63083+021617FM-12+000999999V0203601N007219999999N0000001N9+01441+99999100591ADDGF108991999999999999999999
0029029110999991925082020004+63083+021617FM-12+000999999V0203601N005119999999N0000001N9+01221+99999100631ADDGF108991999999999999999999
0029029110999991925082106004+63083+021617FM-12+000999999V0200501N003119999999N0000001N9+01331+99999100751ADDGF108991999999999999999999
0035029110999991925082113004+63083+021617FM-12+000999999V0200201N008719999999N0000001N9+01221+99999100991ADDGF108991999999999999999999MW1601
0035029110999991925082120004+63083+021617FM-12+000999999V0200501N003119999999N0000001N9+01221+99999101201ADDGF108991999999999999999999MW1601
0035029110999991925082206004+63083+021617FM-12+000999999V0209991C000019999999N0000001N9+01171+99999101431ADDGF108991999999999999999999MW1621
0035029110999991925082213004+63083+021617FM-12+000999999V0200501N003119999999N0000001N9+01331+99999101591ADDGF108991999999999999999999MW1621
0029029110999991925082220004+63083+021617FM-12+000999999V0209991C000019999999N0000001N9+01221+99999101711ADDGF108991999999999999999999
0029029110999991925082306004+63083+021617FM-12+000999999V0209991C000019999999N0000001N9+01221+99999101871ADDGF108991999999999999999999
0029029110999991925082313004+63083+021617FM-12+000999999V0201101N003119999999N0000001N9+01501+99999101951ADDGF108991999999999999999999
0029029110999991925082320004+63083+021617FM-12+000999999V0209991C000019999999N0000001N9+01331+99999101961ADDGF108991999999999999999999
0029029110999991925082406004+63083+021617FM-12+000999999V0201101N003119999999N0000001N9+01221+99999102001ADDGF108991999999999999999999
0029029110999991925082413004+63083+021617FM-12+000999999V0201801N003119999999N0000001N9+01721+99999101981ADDGF106991999999999999999999
0029029110999991925082420004+63083+021617FM-12+000999999V0203201N003119999999N0000001N9+01221+99999101981ADDGF100991999999999999999999
0029029110999991925082506004+63083+021617FM-12+000999999V0201101N005119999999N0000001N9+00941+99999102021ADDGF100991999999999999999999
0029029110999991925082513004+63083+021617FM-12+000999999V0201801N003119999999N0000001N9+01831+99999101941ADDGF102991999999999999999999
0029029110999991925082520004+63083+021617FM-12+000999999V0200201N003119999999N0000001N9+01221+99999101921ADDGF100991999999999999999999
0029029110999991925082606004+63083+021617FM-12+000999999V0209991C000019999999N0000001N9+00941+99999102001ADDGF100991999999999999999999
0029029110999991925082613004+63083+021617FM-12+000999999V0203201N005119999999N0000001N9+01721+99999101981ADDGF100991999999999999999999
0029029110999991925082620004+63083+021617FM-12+000999999V0200201N003119999999N0000001N9+01331+99999101981ADDGF100991999999999999999999
0029029110999991925082706004+63083+021617FM-12+000999999V0200901N003119999999N0000001N9+00941+99999102031ADDGF100991999999999999999999
0029029110999991925082713004+63083+021617FM-12+000999999V0201801N003119999999N0000001N9+01941+99999101921ADDGF103991999999999999999999
0029029110999991925082720004+63083+021617FM-12+000999999V0200701N005119999999N0000001N9+01391+99999101751ADDGF102991999999999999999999
0029029110999991925082806004+63083+021617FM-12+000999999V0201101N003119999999N0000001N9+01061+99999101591ADDGF100991999999999999999999
0029029110999991925082813004+63083+021617FM-12+000999999V0201601N003119999999N0000001N9+01831+99999101391ADDGF103991999999999999999999
0029029110999991925082820004+63083+021617FM-12+000999999V0201401N003119999999N0000001N9+01331+99999101281ADDGF100991999999999999999999
0029029110999991925082906004+63083+021617FM-12+000999999V0200901N003119999999N0000001N9+01221+99999101161ADDGF102991999999999999999999
0029029110999991925082913004+63083+021617FM-12+000999999V0200901N003119999999N0000001N9+01611+99999100711ADDGF103991999999999999999999
0029029110999991925082920004+63083+021617FM-12+000999999V0209991C000019999999N0000001N9+01281+99999100281ADDGF105991999999999999999999
0029029110999991925083006004+63083+021617FM-12+000999999V0201101N007219999999N0000001N9+00941+99999099951ADDGF108991999999999999999999
0035029110999991925083013004+63083+021617FM-12+000999999V0200901N002119999999N0000001N9+01441+99999099841ADDGF108991999999999999999999MW1601
0029029110999991925083020004+63083+021617FM-12+000999999V0201401N003119999999N0000001N9+01331+99999099921ADDGF105991999999999999999999
0029029110999991925083106004+63083+021617FM-12+000999999V0209991C000019999999N0000001N9+01221+99999100061ADDGF108991999999999999999999
0029029110999991925083113004+63083+021617FM-12+000999999V0202501N007219999999N0000001N9+01501+99999100111ADDGF104991999999999999999999
0029029110999991925083120004+63083+021617FM-12+000999999V0202001N007219999999N0000001N9+01221+99999099841ADDGF108991999999999999999999
0035029110999991925090106004+63083+021617FM-12+000999999V0201601N005119999999N0000001N9+01001+99999098781ADDGF108991999999999999999999MW1601
0029029110999991925090113004+63083+021617FM-12+000999999V0203201N008719999999N0000001N9+01331+99999098391ADDGF104991999999999999999999
0029029110999991925090120004+63083+021617FM-12+000999999V0209991C000019999999N0000001N9+01111+99999098471ADDGF103991999999999999999999
0029029110999991925090206004+63083+021617FM-12+000999999V0202501N005119999999N0000001N9+01111+99999098181ADDGF100991999999999999999999
0029029110999991925090213004+63083+021617FM-12+000999999V0202701N005119999999N0000001N9+01281+99999098241ADDGF102991999999999999999999
0035029110999991925090220004+63083+021617FM-12+000999999V0201601N005119999999N0000001N9+01001+99999098181ADDGF106991999999999999999999MW1621
0029029110999991925090306004+63083+021617FM-12+000999999V0201401N003119999999N0000001N9+00611+99999098061ADDGF100991999999999999999999
0029029110999991925090313004+63083+021617FM-12+000999999V0202701N003119999999N0000001N9+01221+99999098201ADDGF105991999999999999999999
