0029028970999991926010106004+64217+027767FM-12+014699999V0202701N005119999999N0000001N9-00941+99999096341ADDGF108991999999999999999999
0029028970999991926010113004+64217+027767FM-12+014699999V0202701N007219999999N0000001N9-01111+99999097041ADDGF108991999999999999999999
0029028970999991926010120004+64217+027767FM-12+014699999V0209991C000019999999N0000001N9-01331+99999097761ADDGF100991999999999999999999
0029028970999991926010206004+64217+027767FM-12+014699999V0209991C000019999999N0000001N9-01331+99999098221ADDGF108991999999999999999999
0029028970999991926010213004+64217+027767FM-12+014699999V0209991C000019999999N0000001N9-01281+99999098401ADDGF108991999999999999999999
0029028970999991926010220004+64217+027767FM-12+014699999V0209991C000019999999N0000001N9-01001+99999098431ADDGF108991999999999999999999
0029028970999991926010306004+64217+027767FM-12+014699999V0209991C000019999999N0000001N9-00611+99999098231ADDGF108991999999999999999999
0029028970999991926010313004+64217+027767FM-12+014699999V0202701N004119999999N0000001N9-00941+99999098701ADDGF101991999999999999999999
0029028970999991926010320004+64217+027767FM-12+014699999V0209991C000019999999N0000001N9-01391+99999099081ADDGF100991999999999999999999
0029028970999991926010406004+64217+027767FM-12+014699999V0209991C000019999999N0000001N9-01611+99999099511ADDGF100991999999999999999999
0029028970999991926010413004+64217+027767FM-12+014699999V0209991C000019999999N0000001N9-01781+99999099801ADDGF100991999999999999999999
0029028970999991926010420004+64217+027767FM-12+014699999V0209991C000019999999N0000001N9-02281+99999099871ADDGF100991999999999999999999
0029028970999991926010506004+64217+027767FM-12+014699999V0209991C000019999999N0000001N9-02171+99999100071ADDGF108991999999999999999999
0029028970999991926010513004+64217+027767FM-12+014699999V0209991C000019999999N0000001N9-01671+99999100341ADDGF108991999999999999999999
0029028970999991926010520004+64217+027767FM-12+014699999V0209991C000019999999N0000001N9-01891+99999100941ADDGF108991999999999999999999
0029028970999991926010606004+64217+027767FM-12+014699999V0209991C000019999999N0000001N9-02561+99999101801ADDGF100991999999999999999999
0029028970999991926010613004+64217+027767FM-12+014699999V0209991C000019999999N0000001N9-02391+99999102041ADDGF100991999999999999999999
0029028970999991926010620004+64217+027767FM-12+014699999V0209991C000019999999N0000001N9-02501+99999102021ADDGF100991999999999999999999
0029028970999991926010706004+64217+027767FM-12+014699999V0209991C000019999999N0000001N9-02561+99999101501ADDGF100991999999999999999999
0029028970999991926010713004+64217+027767FM-12+014699999V0200901N001019999999N0000001N9-02501+99999101221ADDGF100991999999999999999999
0029028970999991926010720004+64217+027767FM-12+014699999V0200901N001019999999N0000001N9-02891+99999100881ADDGF100991999999999999999999
0029028970999991926010806004+64217+027767FM-12+014699999V0209991C000019999999N0000001N9-03171+99999100791ADDGF100991999999999999999999
0029028970999991926010813004+64217+027767FM-12+014699999V0200701N003119999999N0000001N9-02611+99999100881ADDGF100991999999999999999999
0029028970999991926010820004+64217+027767FM-12+014699999V0200701N003119999999N0000001N9-01891+99999101071ADDGF100991999999999999999999
0029028970999991926010906004+64217+027767FM-12+014699999V0200701N004119999999N0000001N9-02561+99999101441ADDGF100991999999999999999999
0029028970999991926010913004+64217+027767FM-12+014699999V0200901N005119999999N0000001N9-02781+99999101661ADDGF100991999999999999999999
0029028970999991926010920004+64217+027767FM-12+014699999V0200901N002119999999N0000001N9-03111+99999101821ADDGF100991999999999999999999
0029028970999991926011006004+64217+027767FM-12+014699999V0200901N001019999999N0000001N9-03171+99999102141ADDGF100991999999999999999999
0029028970999991926011013004+64217+027767FM-12+014699999V0209991C000019999999N0000001N9-02671+99999102241ADDGF100991999999999999999999
0029028970999991926011020004+64217+027767FM-12+014699999V0209991C000019999999N0000001N9-02331+99999102121ADDGF100991999999999999999999
0035028970999991926011106004+64217+027767FM-12+014699999V0202301N005119999999N0000001N9-01781+99999102001ADDGF108991999999999999999999MW1721
0035028970999991926011113004+64217+027767FM-12+014699999V0202301N006219999999N0000001N9-01441+99999102041ADDGF108991999999999999999999MW1721
0029028970999991926011120004+64217+027767FM-12+014699999V0202301N002119999999N0000001N9-01281+99999101981ADDGF108991999999999999999999
0029028970999991926011206004+64217+027767FM-12+014699999V0202301N007219999999N0000001N9-01061+99999101981ADDGF108991999999999999999999
0029028970999991926011213004+64217+027767FM-12+014699999V0202301N007219999999N0000001N9-00941+99999102001ADDGF108991999999999999999999
0029028970999991926011220004+64217+027767FM-12+014699999V0202301N004119999999N0000001N9-00941+99999102021ADDGF108991999999999999999999
0029028970999991926011306004+64217+027767FM-12+014699999V0202001N004119999999N0000001N9-00941+99999101961ADDGF108991999999999999999999
0029028970999991926011313004+64217+027767FM-12+014699999V0202301N004119999999N0000001N9-00831+99999102001ADDGF108991999999999999999999
0029028970999991926011320004+64217+027767FM-12+014699999V0202301N002119999999N0000001N9-00671+99999102081ADDGF108991999999999999999999
0029028970999991926011406004+64217+027767FM-12+014699999V0202301N001019999999N0000001N9-00671+99999101911ADDGF104991999999999999999999
0029028970999991926011413004+64217+027767FM-12+014699999V0202301N001019999999N0000001N9-00671+99999101961ADDGF102991999999999999999999
0029028970999991926011420004+64217+027767FM-12+014699999V0209991C000019999999N0000001N9-01171+99999101991ADDGF100991999999999999999999
0029028970999991926011506004+64217+027767FM-12+014699999V0209991C000019999999N0000001N9-01611+99999101881ADDGF100991999999999999999999
0029028970999991926011513004+64217+027767FM-12+014699999V0209991C000019999999N0000001N9-01391+99999101741ADDGF100991999999999999999999
0029028970999991926011520004+64217+027767FM-12+014699999V0209991C000019999999N0000001N9-01281+99999101481ADDGF100991999999999999999999
0029028970999991926011606004+64217+027767FM-12+014699999V0202301N001019999999N0000001N9-01111+99999101031ADDGF108991999999999999999999
0029028970999991926011613004+64217+027767FM-12+014699999V0202301N001019999999N0000001N9-00671+99999100821ADDGF108991999999999999999999
0029028970999991926011620004+64217+027767FM-12+014699999V0209991C000019999999N0000001N9-00671+99999100721ADDGF108991999999999999999999
0029028970999991926011706004+64217+027767FM-12+014699999V0200901N003119999999N0000001N9-00891+99999100761ADDGF108991999999999999999999
0029028970999991926011713004+64217+027767FM-12+014699999V0200901N003119999999N0000001N9-00781+99999100861ADDGF108991999999999999999999
0029028970999991926011720004+64217+027767FM-12+014699999V0200901N005119999999N0000001N9-01391+99999100861ADDGF108991999999999999999999
0029028970999991926011806004+64217+027767FM-12+014699999V0202001N001019999999N0000001N9-01171+99999100721ADDGF108991999999999999999999
0035028970999991926011813004+64217+027767FM-12+014699999V0202001N001019999999N0000001N9-01111+99999100791ADDGF108991999999999999999999MW1721
0029028970999991926011820004+64217+027767FM-12+014699999V0202001N001019999999N0000001N9-01171+99999100761ADDGF108991999999999999999999
0029028970999991926011906004+64217+027767FM-12+014699999V0209991C000019999999N0000001N9-01331+99999100781ADDGF108991999999999999999999
0035028970999991926011913004+64217+027767FM-12+014699999V0201801N003119999999N0000001N9-01331+99999100671ADDGF108991999999999999999999MW1701
0029028970999991926011920004+64217+027767FM-12+014699999V0201801N003119999999N0000001N9-01171+99999100541ADDGF108991999999999999999999
0029028970999991926012006004+64217+027767FM-12+014699999V0209991C000019999999N0000001N9-01831+99999100361ADDGF100991999999999999999999
0029028970999991926012013004+64217+027767FM-12+014699999V0202301N001019999999N0000001N9-01561+99999100261ADDGF100991999999999999999999
0029028970999991926012020004+64217+027767FM-12+014699999V0209991C000019999999N0000001N9-01391+99999100101ADDGF100991999999999999999999
0029028970999991926012106004+64217+027767FM-12+014699999V0209991C000019999999N0000001N9-02061+99999099951ADDGF100991999999999999999999
0035028970999991926012113004+64217+027767FM-12+014699999V0209991C000019999999N0000001N9-01561+99999099901ADDGF108991999999999999999999MW1701
0035028970999991926012120004+64217+027767FM-12+014699999V0209991C000019999999N0000001N9-01331+99999099801ADDGF108991999999999999999999MW1701
0029028970999991926012206004+64217+027767FM-12+014699999V0209991C000019999999N0000001N9-01171+99999099761ADDGF108991999999999999999999
0035028970999991926012213004+64217+027767FM-12+014699999V0209991C000019999999N0000001N9-01111+99999099831ADDGF108991999999999999999999MW1721
0029028970999991926012220004+64217+027767FM-12+014699999V0209991C000019999999N0000001N9-01171+99999099791ADDGF108991999999999999999999
0029028970999991926012306004+64217+027767FM-12+014699999V0209991C000019999999N0000001N9-01331+99999099641ADDGF108991999999999999999999
0035028970999991926012313004+64217+027767FM-12+014699999V0209991C000019999999N0000001N9-01331+99999099581ADDGF108991999999999999999999MW1701
0029028970999991926012320004+64217+027767FM-12+014699999V0209991C000019999999N0000001N9-01671+99999099481ADDGF108991999999999999999999
0029028970999991926012406004+64217+027767FM-12+014699999V0202301N006219999999N0000001N9-00941+99999099421ADDGF108991999999999999999999
0029028970999991926012413004+64217+027767FM-12+014699999V0201801N004119999999N0000001N9-00941+99999099221ADDGF108991999999999999999999
0035028970999991926012420004+64217+027767FM-12+014699999V0201801N005119999999N0000001N9-01171+99999098481ADDGF108991999999999999999999MW1721
0029028970999991926012506004+64217+027767FM-12+014699999V0200901N001019999999N0000001N9-01281+99999097911ADDGF108991999999999999999999
0035028970999991926012513004+64217+027767FM-12+014699999V0200901N001019999999N0000001N9-01171+99999097911ADDGF108991999999999999999999MW1721
0035028970999991926012520004+64217+027767FM-12+014699999V0200901N003119999999N0000001N9-01171+99999097881ADDGF108991999999999999999999MW1721
0029028970999991926012606004+64217+027767FM-12+014699999V0200501N001019999999N0000001N9-01171+99999097661ADDGF108991999999999999999999
0029028970999991926012613004+64217+027767FM-12+014699999V0200501N004119999999N0000001N9-01281+99999097921ADDGF108991999999999999999999
0029028970999991926012620004+64217+027767FM-12+014699999V0209991C000019999999N0000001N9-01441+99999098761ADDGF100991999999999999999999
0029028970999991926012706004+64217+027767FM-12+014699999V0209991C000019999999N0000001N9-01781+99999099661ADDGF100991999999999999999999
0029028970999991926012713004+64217+027767FM-12+014699999V0209991C000019999999N0000001N9-01671+99999099801ADDGF100991999999999999999999
0029028970999991926012720004+64217+027767FM-12+014699999V0209991C000019999999N0000001N9-01561+99999099681ADDGF100991999999999999999999
0029028970999991926012806004+64217+027767FM-12+014699999V0209991C000019999999N0000001N9-01781+99999099311ADDGF108991999999999999999999
0035028970999991926012813004+64217+027767FM-12+014699999V0209991C000019999999N0000001N9-01561+99999099181ADDGF108991999999999999999999MW1721
0029028970999991926012820004+64217+027767FM-12+014699999V0209991C000019999999N0000001N9-02061+99999099301ADDGF100991999999999999999999
0029028970999991926012906004+64217+027767FM-12+014699999V0209991C000019999999N0000001N9-03111+99999099741ADDGF100991999999999999999999
0029028970999991926012913004+64217+027767FM-12+014699999V0209991C000019999999N0000001N9-02561+99999100101ADDGF100991999999999999999999
0029028970999991926012920004+64217+027767FM-12+014699999V0209991C000019999999N0000001N9-02831+99999100161ADDGF100991999999999999999999
0029028970999991926013006004+64217+027767FM-12+014699999V0209991C000019999999N0000001N9-01891+99999099601ADDGF108991999999999999999999
0029028970999991926013013004+64217+027767FM-12+014699999V0202301N001019999999N0000001N9-01441+99999099501ADDGF108991999999999999999999
0029028970999991926013020004+64217+027767FM-12+014699999V0209991C000019999999N0000001N9-00891+99999099441ADDGF108991999999999999999999
0029028970999991926013106004+64217+027767FM-12+014699999V0209991C000019999999N0000001N9-00891+99999099201ADDGF108991999999999999999999
0029028970999991926013113004+64217+027767FM-12+014699999V0209991C000019999999N0000001N9-00781+99999099261ADDGF108991999999999999999999
0029028970999991926013120004+64217+027767FM-12+014699999V0209991C000019999999N0000001N9-00781+99999099431ADDGF108991999999999999999999
0029028970999991926020106004+64217+027767FM-12+014699999V0209991C000019999999N0000001N9-00831+99999099511ADDGF108991999999999999999999
0035028970999991926020113004+64217+027767FM-12+014699999V0202301N001019999999N0000001N9-00781+99999099421ADDGF108991999999999999999999MW1701
0029028970999991926020120004+64217+027767FM-12+014699999V0202301N005119999999N0000001N9-00671+99999099021ADDGF108991999999999999999999
0029028970999991926020206004+64217+027767FM-12+014699999V0202301N001019999999N0000001N9-00441+99999098721ADDGF108991999999999999999999
0029028970999991926020213004+64217+027767FM-12+014699999V0202701N004119999999N0000001N9-00671+99999098881ADDGF108991999999999999999999
0029028970999991926020220004+64217+027767FM-12+014699999V0209991C000019999999N0000001N9-00781+99999099111ADDGF108991999999999999999999
0029028970999991926020306004+64217+027767FM-12+014699999V0200501N001019999999N0000001N9-00781+99999099601ADDGF108991999999999999999999
0035028970999991926020313004+64217+027767FM-12+014699999V0200501N004119999999N0000001N9-01171+99999100141ADDGF108991999999999999999999MW1701
0029028970999991926020320004+64217+027767FM-12+014699999V0200501N006219999999N0000001N9-01561+99999100591ADDGF100991999999999999999999
0029028970999991926020406004+64217+027767FM-12+014699999V0209991C000019999999N0000001N9-01831+99999100951ADDGF100991999999999999999999
0029028970999991926020413004+64217+027767FM-12+014699999V0200901N001019999999N0000001N9-01611+99999101341ADDGF100991999999999999999999
0029028970999991926020420004+64217+027767FM-12+014699999V0200901N004119999999N0000001N9-02001+99999101601ADDGF100991999999999999999999
0029028970999991926020506004+64217+027767FM-12+014699999V0200901N004119999999N0000001N9-02561+99999101981ADDGF100991999999999999999999
0029028970999991926020513004+64217+027767FM-12+014699999V0209991C000019999999N0000001N9-01831+99999102231ADDGF100991999999999999999999
0029028970999991926020520004+64217+027767FM-12+014699999V0209991C000019999999N0000001N9-01891+99999102311ADDGF102991999999999999999999
0029028970999991926020606004+64217+027767FM-12+014699999V0209991C000019999999N0000001N9-02831+99999102431ADDGF100991999999999999999999
0029028970999991926020613004+64217+027767FM-12+014699999V0209991C000019999999N0000001N9-02281+99999102511ADDGF100991999999999999999999
0029028970999991926020620004+64217+027767FM-12+014699999V0209991C000019999999N0000001N9-02501+99999102401ADDGF100991999999999999999999
0029028970999991926020706004+64217+027767FM-12+014699999V0209991C000019999999N0000001N9-01941+99999102261ADDGF108991999999999999999999
0029028970999991926020713004+64217+027767FM-12+014699999V0209991C000019999999N0000001N9-01671+99999102181ADDGF104991999999999999999999
0029028970999991926020720004+64217+027767FM-12+014699999V0209991C000019999999N0000001N9-02171+99999102111ADDGF100991999999999999999999
0029028970999991926020806004+64217+027767FM-12+014699999V0209991C000019999999N0000001N9-02391+99999102111ADDGF100991999999999999999999
0029028970999991926020813004+64217+027767FM-12+014699999V0209991C000019999999N0000001N9-01941+99999102151ADDGF100991999999999999999999
0029028970999991926020820004+64217+027767FM-12+014699999V0209991C000019999999N0000001N9-02331+99999102141ADDGF100991999999999999999999
0029028970999991926020906004+64217+027767FM-12+014699999V0209991C000019999999N0000001N9-02671+99999102101ADDGF100991999999999999999999
0029028970999991926020913004+64217+027767FM-12+014699999V0209991C000019999999N0000001N9-01441+99999102101ADDGF100991999999999999999999
0029028970999991926020920004+64217+027767FM-12+014699999V0209991C000019999999N0000001N9-02061+99999101951ADDGF100991999999999999999999
0029028970999991926021006004+64217+027767FM-12+014699999V0200901N003119999999N0000001N9-02671+99999101721ADDGF100991999999999999999999
0029028970999991926021013004+64217+027767FM-12+014699999V0200901N003119999999N0000001N9-01781+99999101551ADDGF100991999999999999999999
0029028970999991926021020004+64217+027767FM-12+014699999V0200901N002119999999N0000001N9-02061+99999101241ADDGF100991999999999999999999
0029028970999991926021106004+64217+027767FM-12+014699999V0200901N006219999999N0000001N9-01891+99999100621ADDGF100991999999999999999999
0035028970999991926021113004+64217+027767FM-12+014699999V0201801N006219999999N0000001N9-01111+99999100081ADDGF108991999999999999999999MW1721
0029028970999991926021120004+64217+027767FM-12+014699999V0201801N004119999999N0000001N9-01111+99999099921ADDGF108991999999999999999999
0029028970999991926021206004+64217+027767FM-12+014699999V0201801N003119999999N0000001N9-00891+99999099441ADDGF108991999999999999999999
0029028970999991926021213004+64217+027767FM-12+014699999V0202301N003119999999N0000001N9-00611+99999099341ADDGF108991999999999999999999
0029028970999991926021220004+64217+027767FM-12+014699999V0202301N002119999999N0000001N9-01111+99999099441ADDGF100991999999999999999999
0029028970999991926021306004+64217+027767FM-12+014699999V0209991C000019999999N0000001N9-01171+99999099601ADDGF100991999999999999999999
0029028970999991926021313004+64217+027767FM-12+014699999V0202301N001019999999N0000001N9-00561+99999099601ADDGF100991999999999999999999
0029028970999991926021320004+64217+027767FM-12+014699999V0209991C000019999999N0000001N9-00721+99999099631ADDGF108991999999999999999999
0029028970999991926021406004+64217+027767FM-12+014699999V0209991C000019999999N0000001N9-01281+99999999999ADDGF108991999999999999999999
0029028970999991926021413004+64217+027767FM-12+014699999V0209991C000019999999N0000001N9-00721+99999100231ADDGF100991999999999999999999
0029028970999991926021420004+64217+027767FM-12+014699999V0209991C000019999999N0000001N9-01781+99999100381ADDGF100991999999999999999999
0029028970999991926021506004+64217+027767FM-12+014699999V0201801N001019999999N0000001N9-01441+99999099911ADDGF108991999999999999999999
0029028970999991926021513004+64217+027767FM-12+014699999V0201801N001019999999N0000001N9-01001+99999099261ADDGF108991999999999999999999
0029028970999991926021520004+64217+027767FM-12+014699999V0201801N008219999999N0000001N9-00561+99999098981ADDGF108991999999999999999999
0029028970999991926021606004+64217+027767FM-12+014699999V0209991C000019999999N0000001N9-00441+99999098271ADDGF108991999999999999999999
0035028970999991926021613004+64217+027767FM-12+014699999V0201801N001019999999N0000001N9-00171+99999097871ADDGF108991999999999999999999MW1721
0029028970999991926021620004+64217+027767FM-12+014699999V0209991C000019999999N0000001N9-00061+99999097871ADDGF108991999999999999999999
0029028970999991926021706004+64217+027767FM-12+014699999V0209991C000019999999N0000001N9-00441+99999098151ADDGF108991999999999999999999
0035028970999991926021713004+64217+027767FM-12+014699999V0209991C000019999999N0000001N9-00501+99999098471ADDGF108991999999999999999999MW1721
0029028970999991926021720004+64217+027767FM-12+014699999V0209991C000019999999N0000001N9-00501+99999098401ADDGF108991999999999999999999
0029028970999991926021806004+64217+027767FM-12+014699999V0201801N004119999999N0000001N9+00001+99999098021ADDGF108991999999999999999999
0035028970999991926021813004+64217+027767FM-12+014699999V0201801N004119999999N0000001N9+00001+99999097631ADDGF108991999999999999999999MW1691
0029028970999991926021820004+64217+027767FM-12+014699999V0201801N002119999999N0000001N9-00171+99999097161ADDGF108991999999999999999999
0029028970999991926021906004+64217+027767FM-12+014699999V0209991C000019999999N0000001N9-00171+99999097241ADDGF108991999999999999999999
0035028970999991926021913004+64217+027767FM-12+014699999V0202301N001019999999N0000001N9-00111+99999097601ADDGF108991999999999999999999MW1721
0029028970999991926021920004+64217+027767FM-12+014699999V0209991C000019999999N0000001N9-00891+99999098381ADDGF107991999999999999999999
0029028970999991926022006004+64217+027767FM-12+014699999V0209991C000019999999N0000001N9-01281+99999099641ADDGF108991999999999999999999
0029028970999991926022013004+64217+027767FM-12+014699999V0209991C000019999999N0000001N9-01001+99999100241ADDGF100991999999999999999999
0029028970999991926022020004+64217+027767FM-12+014699999V0209991C000019999999N0000001N9-02061+99999100401ADDGF100991999999999999999999
0035028970999991926022106004+64217+027767FM-12+014699999V0201801N005119999999N0000001N9-01561+99999100191ADDGF108991999999999999999999MW1721
0035028970999991926022113004+64217+027767FM-12+014699999V0201801N005119999999N0000001N9-01391+99999099711ADDGF108991999999999999999999MW1721
0029028970999991926022120004+64217+027767FM-12+014699999V0201801N003119999999N0000001N9-01561+99999099791ADDGF108991999999999999999999
0029028970999991926022206004+64217+027767FM-12+014699999V0209991C000019999999N0000001N9-02831+99999100381ADDGF100991999999999999999999
0029028970999991926022213004+64217+027767FM-12+014699999V0209991C000019999999N0000001N9-01781+99999100751ADDGF100991999999999999999999
0029028970999991926022220004+64217+027767FM-12+014699999V0209991C000019999999N0000001N9-02221+99999100701ADDGF100991999999999999999999
0029028970999991926022306004+64217+027767FM-12+014699999V0202301N008219999999N0000001N9-01611+99999100201ADDGF108991999999999999999999
0029028970999991926022313004+64217+027767FM-12+014699999V0202301N008219999999N0000001N9-01001+99999099941ADDGF108991999999999999999999
0029028970999991926022320004+64217+027767FM-12+014699999V0202301N006219999999N0000001N9-00891+99999099641ADDGF108991999999999999999999
0029028970999991926022406004+64217+027767FM-12+014699999V0202301N004119999999N0000001N9-01061+99999099261ADDGF108991999999999999999999
0029028970999991926022413004+64217+027767FM-12+014699999V0202301N003119999999N0000001N9-00671+99999099581ADDGF108991999999999999999999
0029028970999991926022420004+64217+027767FM-12+014699999V0209991C000019999999N0000001N9-00721+99999100201ADDGF108991999999999999999999
0029028970999991926022506004+64217+027767FM-12+014699999V0209991C000019999999N0000001N9-00561+99999100761ADDGF108991999999999999999999
0029028970999991926022513004+64217+027767FM-12+014699999V0209991C000019999999N0000001N9+00001+99999100911ADDGF108991999999999999999999
0029028970999991926022520004+64217+027767FM-12+014699999V0209991C000019999999N0000001N9-00221+99999100861ADDGF108991999999999999999999
0029028970999991926022606004+64217+027767FM-12+014699999V0201801N004119999999N0000001N9-00061+99999100751ADDGF108991999999999999999999
0029028970999991926022613004+64217+027767FM-12+014699999V0202001N006219999999N0000001N9+00171+99999100671ADDGF108991999999999999999999
0029028970999991926022620004+64217+027767FM-12+014699999V0202001N008219999999N0000001N9+00111+99999100511ADDGF108991999999999999999999
0029028970999991926022706004+64217+027767FM-12+014699999V0202301N008219999999N0000001N9+00111+99999100591ADDGF108991999999999999999999
0035028970999991926022713004+64217+027767FM-12+014699999V0202301N004119999999N0000001N9+00111+99999100741ADDGF108991999999999999999999MW1691
0035028970999991926022720004+64217+027767FM-12+014699999V0202301N002119999999N0000001N9+00061+99999100801ADDGF108991999999999999999999MW1691
0029028970999991926022806004+64217+027767FM-12+014699999V0202301N008719999999N0000001N9-00221+99999100231ADDGF108991999999999999999999
0029028970999991926022813004+64217+027767FM-12+014699999V0202301N006219999999N0000001N9-00391+99999100121ADDGF108991999999999999999999
0029028970999991926022820004+64217+027767FM-12+014699999V0202301N002119999999N0000001N9-00561+99999100241ADDGF108991999999999999999999
0029028970999991926030106004+64217+027767FM-12+014699999V0202301N005119999999N0000001N9-00221+99999099871ADDGF108991999999999999999999
0029028970999991926030113004+64217+027767FM-12+014699999V0202301N005119999999N0000001N9-00111+99999098921ADDGF108991999999999999999999
0029028970999991926030120004+64217+027767FM-12+014699999V0202301N013919999999N0000001N9+00061+99999097921ADDGF108991999999999999999999
0029028970999991926030206004+64217+027767FM-12+014699999V0202001N005119999999N0000001N9+00001+99999096361ADDGF108991999999999999999999
0029028970999991926030213004+64217+027767FM-12+014699999V0202701N005119999999N0000001N9-00221+99999096671ADDGF107991999999999999999999
0029028970999991926030220004+64217+027767FM-12+014699999V0202701N003119999999N0000001N9-00441+99999096551ADDGF100991999999999999999999
0029028970999991926030306004+64217+027767FM-12+014699999V0209991C000019999999N0000001N9-00891+99999096591ADDGF100991999999999999999999
0029028970999991926030313004+64217+027767FM-12+014699999V0202701N003119999999N0000001N9-00331+99999096981ADDGF100991999999999999999999
0029028970999991926030320004+64217+027767FM-12+014699999V0209991C000019999999N0000001N9-01061+99999096751ADDGF100991999999999999999999
0029028970999991926030406004+64217+027767FM-12+014699999V0200901N006219999999N0000001N9-00611+99999104962ADDGF108991999999999999999999
0035028970999991926030413004+64217+027767FM-12+014699999V0209991C000019999999N0000001N9-00221+99999104661ADDGF108991999999999999999999MW1721
0029028970999991926030420004+64217+027767FM-12+014699999V0202701N002119999999N0000001N9-00391+99999095182ADDGF108991999999999999999999
0029028970999991926030506004+64217+027767FM-12+014699999V0209991C000019999999N0000001N9-00561+99999095631ADDGF108991999999999999999999
0029028970999991926030513004+64217+027767FM-12+014699999V0209991C000019999999N0000001N9-00441+99999096231ADDGF104991999999999999999999
0029028970999991926030520004+64217+027767FM-12+014699999V0209991C000019999999N0000001N9-00561+99999096511ADDGF108991999999999999999999
0029028970999991926030606004+64217+027767FM-12+014699999V0209991C000019999999N0000001N9-00941+99999096841ADDGF100991999999999999999999
0029028970999991926030613004+64217+027767FM-12+014699999V0201601N001019999999N0000001N9-00281+99999096801ADDGF108991999999999999999999
0029028970999991926030620004+64217+027767FM-12+014699999V0209991C000019999999N0000001N9-00721+99999097121ADDGF108991999999999999999999
0029028970999991926030706004+64217+027767FM-12+014699999V0209991C000019999999N0000001N9-00501+99999097511ADDGF108991999999999999999999
0029028970999991926030713004+64217+027767FM-12+014699999V0202301N004119999999N0000001N9-00331+99999098061ADDGF108991999999999999999999
0029028970999991926030720004+64217+027767FM-12+014699999V0209991C000019999999N0000001N9-00501+99999098301ADDGF104991999999999999999999
0029028970999991926030806004+64217+027767FM-12+014699999V0209991C000019999999N0000001N9-00941+99999098521ADDGF108991999999999999999999
0029028970999991926030813004+64217+027767FM-12+014699999V0209991C000019999999N0000001N9-00441+99999098551ADDGF102991999999999999999999
0035028970999991926030820004+64217+027767FM-12+014699999V0201801N002119999999N0000001N9-00441+99999098151ADDGF100991999999999999999999MW1001
0029028970999991926030906004+64217+027767FM-12+014699999V0201801N008719999999N0000001N9-00221+99999096801ADDGF108991999999999999999999
0035028970999991926030913004+64217+027767FM-12+014699999V0202301N008719999999N0000001N9+00061+99999095321ADDGF108991999999999999999999MW1691
0029028970999991926030920004+64217+027767FM-12+014699999V0202701N002119999999N0000001N9+00001+99999095711ADDGF102991999999999999999999
0029028970999991926031006004+64217+027767FM-12+014699999V0202301N006219999999N0000001N9-00331+99999095521ADDGF102991999999999999999999
0035028970999991926031013004+64217+027767FM-12+014699999V0202701N003119999999N0000001N9-00221+99999095841ADDGF108991999999999999999999MW1701
0029028970999991926031020004+64217+027767FM-12+014699999V0202901N003119999999N0000001N9-00721+99999096761ADDGF108991999999999999999999
0029028970999991926031106004+64217+027767FM-12+014699999V0209991C000019999999N0000001N9-01561+99999097911ADDGF100991999999999999999999
0029028970999991926031113004+64217+027767FM-12+014699999V0202701N003119999999N0000001N9-00221+99999097981ADDGF100991999999999999999999
0029028970999991926031120004+64217+027767FM-12+014699999V0201401N007219999999N0000001N9-00501+99999096981ADDGF108991999999999999999999
0029028970999991926031206004+64217+027767FM-12+014699999V0202701N004119999999N0000001N9-00561+99999095321ADDGF108991999999999999999999
0029028970999991926031213004+64217+027767FM-12+014699999V0202701N006219999999N0000001N9-00671+99999095361ADDGF108991999999999999999999
0029028970999991926031220004+64217+027767FM-12+014699999V0202701N006219999999N0000001N9-00891+99999095381ADDGF108991999999999999999999
0029028970999991926031306004+64217+027767FM-12+014699999V0202901N001019999999N0000001N9-01171+99999096021ADDGF108991999999999999999999
0029028970999991926031313004+64217+027767FM-12+014699999V0202901N006219999999N0000001N9-00561+99999096441ADDGF106991999999999999999999
0029028970999991926031320004+64217+027767FM-12+014699999V0202901N007219999999N0000001N9-00941+99999096921ADDGF104991999999999999999999
0029028970999991926031406004+64217+027767FM-12+014699999V0202701N006219999999N0000001N9-00941+99999097221ADDGF108991999999999999999999
0029028970999991926031413004+64217+027767FM-12+014699999V0203201N001019999999N0000001N9-00561+99999097511ADDGF106991999999999999999999
0029028970999991926031420004+64217+027767FM-12+014699999V0203201N004119999999N0000001N9-00561+99999097591ADDGF100991999999999999999999
0029028970999991926031506004+64217+027767FM-12+014699999V0202701N004119999999N0000001N9-00561+99999097661ADDGF106991999999999999999999
0029028970999991926031513004+64217+027767FM-12+014699999V0202901N006219999999N0000001N9-00281+99999097861ADDGF106991999999999999999999
0029028970999991926031520004+64217+027767FM-12+014699999V0202901N006219999999N0000001N9-00441+99999098321ADDGF106991999999999999999999
0029028970999991926031606004+64217+027767FM-12+014699999V0202901N004119999999N0000001N9-00941+99999098681ADDGF108991999999999999999999
0029028970999991926031613004+64217+027767FM-12+014699999V0203601N001019999999N0000001N9-00111+99999098961ADDGF106991999999999999999999
0035028970999991926031620004+64217+027767FM-12+014699999V0209991C000019999999N0000001N9-00891+99999099431ADDGF100991999999999999999999MW1001
0029028970999991926031706004+64217+027767FM-12+014699999V0209991C000019999999N0000001N9-01941+99999099801ADDGF102991999999999999999999
0029028970999991926031713004+64217+027767FM-12+014699999V0203601N004119999999N0000001N9-00281+99999099751ADDGF102991999999999999999999
0029028970999991926031720004+64217+027767FM-12+014699999V0209991C000019999999N0000001N9-00281+99999099551ADDGF102991999999999999999999
0029028970999991926031806004+64217+027767FM-12+014699999V0209991C000019999999N0000001N9-00331+99999099581ADDGF108991999999999999999999
0029028970999991926031813004+64217+027767FM-12+014699999V0200201N001019999999N0000001N9-00171+99999099631ADDGF108991999999999999999999
0029028970999991926031820004+64217+027767FM-12+014699999V0209991C000019999999N0000001N9-00221+99999099601ADDGF108991999999999999999999
0029028970999991926031906004+64217+027767FM-12+014699999V0209991C000019999999N0000001N9-00831+99999100281ADDGF108991999999999999999999
0029028970999991926031913004+64217+027767FM-12+014699999V0209991C000019999999N0000001N9-00171+99999100621ADDGF100991999999999999999999
0029028970999991926031920004+64217+027767FM-12+014699999V0209991C000019999999N0000001N9-01391+99999100721ADDGF100991999999999999999999
0029028970999991926032006004+64217+027767FM-12+014699999V0209991C000019999999N0000001N9-00891+99999100381ADDGF108991999999999999999999
0035028970999991926032013004+64217+027767FM-12+014699999V0202701N003119999999N0000001N9-00331+99999099901ADDGF108991999999999999999999MW1721
0029028970999991926032020004+64217+027767FM-12+014699999V0209991C000019999999N0000001N9-00501+99999099881ADDGF108991999999999999999999
0029028970999991926032106004+64217+027767FM-12+014699999V0209991C000019999999N0000001N9-00781+99999100271ADDGF107991999999999999999999
0029028970999991926032113004+64217+027767FM-12+014699999V0203201N004119999999N0000001N9-00281+99999100311ADDGF106991999999999999999999
0029028970999991926032120004+64217+027767FM-12+014699999V0209991C000019999999N0000001N9-00831+99999100401ADDGF106991999999999999999999
0029028970999991926032206004+64217+027767FM-12+014699999V0209991C000019999999N0000001N9-01501+99999100221ADDGF106991999999999999999999
0029028970999991926032213004+64217+027767FM-12+014699999V0202701N004119999999N0000001N9-00671+99999099861ADDGF108991999999999999999999
0029028970999991926032220004+64217+027767FM-12+014699999V0209991C000019999999N0000001N9-00721+99999099551ADDGF108991999999999999999999
0029028970999991926032306004+64217+027767FM-12+014699999V0209991C000019999999N0000001N9-00671+99999099031ADDGF104991999999999999999999
0029028970999991926032313004+64217+027767FM-12+014699999V0202301N004119999999N0000001N9+00001+99999098621ADDGF108991999999999999999999
0029028970999991926032320004+64217+027767FM-12+014699999V0209991C000019999999N0000001N9-00281+99999098461ADDGF108991999999999999999999
0029028970999991926032406004+64217+027767FM-12+014699999V0202701N006219999999N0000001N9-00171+99999096941ADDGF104991999999999999999999
0029028970999991926032413004+64217+027767FM-12+014699999V0202701N011819999999N0000001N9-00281+99999097191ADDGF104991999999999999999999
0029028970999991926032420004+64217+027767FM-12+014699999V0202701N011819999999N0000001N9-00441+99999097581ADDGF104991999999999999999999
0029028970999991926032506004+64217+027767FM-12+014699999V0203201N006219999999N0000001N9-00501+99999098791ADDGF104991999999999999999999
0029028970999991926032513004+64217+027767FM-12+014699999V0202701N006219999999N0000001N9-00171+99999099381ADDGF100991999999999999999999
0029028970999991926032520004+64217+027767FM-12+014699999V0209991C000019999999N0000001N9-00891+99999099641ADDGF100991999999999999999999
0029028970999991926032606004+64217+027767FM-12+014699999V0209991C000019999999N0000001N9-01281+99999099341ADDGF108991999999999999999999
0029028970999991926032613004+64217+027767FM-12+014699999V0202701N004119999999N0000001N9-00331+99999099261ADDGF108991999999999999999999
0029028970999991926032620004+64217+027767FM-12+014699999V0209991C000019999999N0000001N9-00891+99999099781ADDGF100991999999999999999999
0029028970999991926032706004+64217+027767FM-12+014699999V0209991C000019999999N0000001N9-01391+99999100201ADDGF100991999999999999999999
0029028970999991926032713004+64217+027767FM-12+014699999V0202001N006219999999N0000001N9+00221+99999100121ADDGF104991999999999999999999
0029028970999991926032720004+64217+027767FM-12+014699999V0209991C000019999999N0000001N9-00221+99999099641ADDGF100991999999999999999999
0029028970999991926032806004+64217+027767FM-12+014699999V0202301N001019999999N0000001N9-00501+99999099551ADDGF100991999999999999999999
0029028970999991926032813004+64217+027767FM-12+014699999V0202301N006219999999N0000001N9+00171+99999099551ADDGF100991999999999999999999
0029028970999991926032820004+64217+027767FM-12+014699999V0202301N001019999999N0000001N9-00111+99999099581ADDGF100991999999999999999999
0029028970999991926032906004+64217+027767FM-12+014699999V0209991C000019999999N0000001N9-00671+99999099701ADDGF100991999999999999999999
0029028970999991926032913004+64217+027767FM-12+014699999V0202301N003119999999N0000001N9+00111+99999099741ADDGF100991999999999999999999
0029028970999991926032920004+64217+027767FM-12+014699999V0202301N002119999999N0000001N9-00391+99999099751ADDGF100991999999999999999999
0029028970999991926033006004+64217+027767FM-12+014699999V0209991C000019999999N0000001N9-01001+99999099601ADDGF106991999999999999999999
0029028970999991926033013004+64217+027767FM-12+014699999V0201801N004119999999N0000001N9+00001+99999099461ADDGF108991999999999999999999
0029028970999991926033020004+64217+027767FM-12+014699999V0201801N006219999999N0000001N9-00281+99999099101ADDGF108991999999999999999999
0029028970999991926033106004+64217+027767FM-12+014699999V0201401N003119999999N0000001N9-00441+99999098391ADDGF108991999999999999999999
0035028970999991926033113004+64217+027767FM-12+014699999V0201401N004119999999N0000001N9-00441+99999098071ADDGF108991999999999999999999MW1701
0029028970999991926033120004+64217+027767FM-12+014699999V0201401N003119999999N0000001N9-00561+99999097881ADDGF108991999999999999999999
0035028970999991926040106004+64217+027767FM-12+014699999V0209991C000019999999N0000001N9-00561+99999097951ADDGF108991999999999999999999MW1721
0035028970999991926040113004+64217+027767FM-12+014699999V0209991C000019999999N0000001N9-00331+99999098361ADDGF108991999999999999999999MW1721
0029028970999991926040120004+64217+027767FM-12+014699999V0209991C000019999999N0000001N9-00221+99999099191ADDGF108991999999999999999999
0029028970999991926040206004+64217+027767FM-12+014699999V0209991C000019999999N0000001N9-00221+99999100361ADDGF104991999999999999999999
0029028970999991926040213004+64217+027767FM-12+014699999V0203401N003119999999N0000001N9+00061+99999100901ADDGF108991999999999999999999
0029028970999991926040220004+64217+027767FM-12+014699999V0209991C000019999999N0000001N9-00331+99999101321ADDGF100991999999999999999999
0029028970999991926040306004+64217+027767FM-12+014699999V0209991C000019999999N0000001N9-01001+99999101741ADDGF100991999999999999999999
0029028970999991926040313004+64217+027767FM-12+014699999V0202701N001019999999N0000001N9-00391+99999101671ADDGF100991999999999999999999
0029028970999991926040320004+64217+027767FM-12+014699999V0209991C000019999999N0000001N9-00611+99999101021ADDGF108991999999999999999999
0035028970999991926040406004+64217+027767FM-12+014699999V0209991C000019999999N0000001N9-00441+99999099871ADDGF108991999999999999999999MW1721
0035028970999991926040413004+64217+027767FM-12+014699999V0202701N002119999999N0000001N9+00061+99999099621ADDGF108991999999999999999999MW1721
0029028970999991926040420004+64217+027767FM-12+014699999V0209991C000019999999N0000001N9+00001+99999099391ADDGF108991999999999999999999
0029028970999991926040506004+64217+027767FM-12+014699999V0209991C000019999999N0000001N9+00111+99999098241ADDGF108991999999999999999999
0035028970999991926040513004+64217+027767FM-12+014699999V0202701N002119999999N0000001N9+00061+99999097801ADDGF108991999999999999999999MW1691
0029028970999991926040520004+64217+027767FM-12+014699999V0209991C000019999999N0000001N9+00061+99999098061ADDGF108991999999999999999999
0029028970999991926040606004+64217+027767FM-12+014699999V0200501N002119999999N0000001N9-00831+99999099021ADDGF104991999999999999999999
0029028970999991926040613004+64217+027767FM-12+014699999V0203601N003119999999N0000001N9-00671+99999099381ADDGF102991999999999999999999
0029028970999991926040620004+64217+027767FM-12+014699999V0209991C000019999999N0000001N9-00891+99999099871ADDGF100991999999999999999999
0029028970999991926040706004+64217+027767FM-12+014699999V0209991C000019999999N0000001N9-01781+99999100461ADDGF100991999999999999999999
0029028970999991926040713004+64217+027767FM-12+014699999V0202701N003119999999N0000001N9-00281+99999100481ADDGF100991999999999999999999
0029028970999991926040720004+64217+027767FM-12+014699999V0209991C000019999999N0000001N9-01171+99999100341ADDGF100991999999999999999999
0029028970999991926040806004+64217+027767FM-12+014699999V0209991C000019999999N0000001N9-01671+99999099981ADDGF100991999999999999999999
0029028970999991926040813004+64217+027767FM-12+014699999V0202301N001019999999N0000001N9+00001+99999099511ADDGF100991999999999999999999
0029028970999991926040820004+64217+027767FM-12+014699999V0209991C000019999999N0000001N9-00441+99999099141ADDGF108991999999999999999999
0029028970999991926040906004+64217+027767FM-12+014699999V0209991C000019999999N0000001N9-00441+99999098781ADDGF108991999999999999999999
0029028970999991926040913004+64217+027767FM-12+014699999V0201801N004119999999N0000001N9+00001+99999098641ADDGF108991999999999999999999
0029028970999991926040920004+64217+027767FM-12+014699999V0209991C000019999999N0000001N9-00171+99999098511ADDGF108991999999999999999999
0029028970999991926041006004+64217+027767FM-12+014699999V0202301N001019999999N0000001N9-00281+99999098271ADDGF108991999999999999999999
0035028970999991926041013004+64217+027767FM-12+014699999V0202301N003119999999N0000001N9+00001+99999098221ADDGF108991999999999999999999MW1691
0029028970999991926041020004+64217+027767FM-12+014699999V0209991C000019999999N0000001N9-00331+99999098431ADDGF104991999999999999999999
0029028970999991926041106004+64217+027767FM-12+014699999V0209991C000019999999N0000001N9-00721+99999098681ADDGF100991999999999999999999
0029028970999991926041113004+64217+027767FM-12+014699999V0202701N001019999999N0000001N9-00111+99999098841ADDGF100991999999999999999999
0029028970999991926041120004+64217+027767FM-12+014699999V0209991C000019999999N0000001N9-00441+99999098791ADDGF100991999999999999999999
0035028970999991926041206004+64217+027767FM-12+014699999V0209991C000019999999N0000001N9-00441+99999097801ADDGF108991999999999999999999MW1721
0029028970999991926041213004+64217+027767FM-12+014699999V0202701N003119999999N0000001N9-00221+99999098301ADDGF108991999999999999999999
0029028970999991926041220004+64217+027767FM-12+014699999V0209991C000019999999N0000001N9-00941+99999098791ADDGF100991999999999999999999
0029028970999991926041306004+64217+027767FM-12+014699999V0209991C000019999999N0000001N9-01061+99999098761ADDGF106991999999999999999999
0029028970999991926041313004+64217+027767FM-12+014699999V0202701N001019999999N0000001N9+00001+99999098751ADDGF104991999999999999999999
0029028970999991926041320004+64217+027767FM-12+014699999V0209991C000019999999N0000001N9-00781+99999098951ADDGF100991999999999999999999
0029028970999991926041406004+64217+027767FM-12+014699999V0209991C000019999999N0000001N9-01171+99999099311ADDGF100991999999999999999999
0029028970999991926041413004+64217+027767FM-12+014699999V0202701N001019999999N0000001N9-00061+99999099401ADDGF100991999999999999999999
0029028970999991926041420004+64217+027767FM-12+014699999V0209991C000019999999N0000001N9-00781+99999099461ADDGF100991999999999999999999
0029028970999991926041506004+64217+027767FM-12+014699999V0209991C000019999999N0000001N9-01001+99999099641ADDGF100991999999999999999999
0029028970999991926041513004+64217+027767FM-12+014699999V0202701N003119999999N0000001N9+00111+99999099761ADDGF102991999999999999999999
0029028970999991926041520004+64217+027767FM-12+014699999V0209991C000019999999N0000001N9-00391+99999099821ADDGF100991999999999999999999
0029028970999991926041606004+64217+027767FM-12+014699999V0200501N004119999999N0000001N9-00781+99999099721ADDGF108991999999999999999999
0035028970999991926041613004+64217+027767FM-12+014699999V0200901N006219999999N0000001N9-00281+99999099561ADDGF108991999999999999999999MW1721
0035028970999991926041620004+64217+027767FM-12+014699999V0200901N006219999999N0000001N9-00441+99999099301ADDGF108991999999999999999999MW1721
0035028970999991926041706004+64217+027767FM-12+014699999V0200901N004119999999N0000001N9-00441+99999098801ADDGF108991999999999999999999MW1721
0029028970999991926041713004+64217+027767FM-12+014699999V0201801N001019999999N0000001N9+00001+99999098801ADDGF108991999999999999999999
0029028970999991926041720004+64217+027767FM-12+014699999V0209991C000019999999N0000001N9+00061+99999098881ADDGF108991999999999999999999
0029028970999991926041806004+64217+027767FM-12+014699999V0209991C000019999999N0000001N9-00281+99999099151ADDGF108991999999999999999999
0029028970999991926041813004+64217+027767FM-12+014699999V0201401N004119999999N0000001N9+00221+99999099181ADDGF106991999999999999999999
0029028970999991926041820004+64217+027767FM-12+014699999V0209991C000019999999N0000001N9-00061+99999099081ADDGF104991999999999999999999
0029028970999991926041906004+64217+027767FM-12+014699999V0200501N006219999999N0000001N9-00171+99999098881ADDGF106991999999999999999999
0029028970999991926041913004+64217+027767FM-12+014699999V0200901N008219999999N0000001N9+00281+99999098621ADDGF106991999999999999999999
0029028970999991926041920004+64217+027767FM-12+014699999V0209991C000019999999N0000001N9+00061+99999098391ADDGF108991999999999999999999
0029028970999991926042006004+64217+027767FM-12+014699999V0209991C000019999999N0000001N9+00111+99999098301ADDGF108991999999999999999999
0029028970999991926042013004+64217+027767FM-12+014699999V0209991C000019999999N0000001N9+00611+99999098631ADDGF100991999999999999999999
0029028970999991926042020004+64217+027767FM-12+014699999V0209991C000019999999N0000001N9-00111+99999098831ADDGF100991999999999999999999
0029028970999991926042106004+64217+027767FM-12+014699999V0209991C000019999999N0000001N9+00111+99999099161ADDGF101991999999999999999999
0029028970999991926042113004+64217+027767FM-12+014699999V0200901N003119999999N0000001N9+00781+99999099041ADDGF108991999999999999999999
0029028970999991926042120004+64217+027767FM-12+014699999V0209991C000019999999N0000001N9+00221+99999099081ADDGF108991999999999999999999
0029028970999991926042206004+64217+027767FM-12+014699999V0201401N005119999999N0000001N9+00391+99999099061ADDGF108991999999999999999999
0029028970999991926042213004+64217+027767FM-12+014699999V0200901N005119999999N0000001N9+01111+99999098951ADDGF104991999999999999999999
0029028970999991926042220004+64217+027767FM-12+014699999V0209991C000019999999N0000001N9+00441+99999099071ADDGF108991999999999999999999
0029028970999991926042306004+64217+027767FM-12+014699999V0209991C000019999999N0000001N9+00221+99999099701ADDGF108991999999999999999999
0029028970999991926042313004+64217+027767FM-12+014699999V0209991C000019999999N0000001N9+00441+99999099871ADDGF108991999999999999999999
0029028970999991926042320004+64217+027767FM-12+014699999V0209991C000019999999N0000001N9+00281+99999099831ADDGF108991999999999999999999
0029028970999991926042406004+64217+027767FM-12+014699999V0209991C000019999999N0000001N9+00281+99999099921ADDGF108991999999999999999999
0029028970999991926042413004+64217+027767FM-12+014699999V0209991C000019999999N0000001N9+00281+99999100231ADDGF108991999999999999999999
0029028970999991926042420004+64217+027767FM-12+014699999V0209991C000019999999N0000001N9+00171+99999100341ADDGF108991999999999999999999
0029028970999991926042506004+64217+027767FM-12+014699999V0209991C000019999999N0000001N9+00221+99999100781ADDGF108991999999999999999999
0029028970999991926042513004+64217+027767FM-12+014699999V0202701N001019999999N0000001N9+00441+99999100941ADDGF108991999999999999999999
0029028970999991926042520004+64217+027767FM-12+014699999V0209991C000019999999N0000001N9+00171+99999101041ADDGF107991999999999999999999
0029028970999991926042606004+64217+027767FM-12+014699999V0209991C000019999999N0000001N9+00111+99999101261ADDGF100991999999999999999999
0029028970999991926042613004+64217+027767FM-12+014699999V0202701N003119999999N0000001N9+00891+99999101311ADDGF100991999999999999999999
0029028970999991926042620004+64217+027767FM-12+014699999V0209991C000019999999N0000001N9+00061+99999101321ADDGF102991999999999999999999
0029028970999991926042706004+64217+027767FM-12+014699999V0209991C000019999999N0000001N9+00391+99999101841ADDGF100991999999999999999999
0029028970999991926042713004+64217+027767FM-12+014699999V0209991C000019999999N0000001N9+01171+99999101671ADDGF100991999999999999999999
0029028970999991926042720004+64217+027767FM-12+014699999V0209991C000019999999N0000001N9+00611+99999101601ADDGF100991999999999999999999
0029028970999991926042806004+64217+027767FM-12+014699999V0209991C000019999999N0000001N9+00281+99999101601ADDGF100991999999999999999999
0029028970999991926042813004+64217+027767FM-12+014699999V0202701N001019999999N0000001N9+01221+99999101341ADDGF100991999999999999999999
0029028970999991926042820004+64217+027767FM-12+014699999V0209991C000019999999N0000001N9+00391+99999101061ADDGF100991999999999999999999
0029028970999991926042906004+64217+027767FM-12+014699999V0209991C000019999999N0000001N9+00781+99999100871ADDGF100991999999999999999999
0029028970999991926042913004+64217+027767FM-12+014699999V0209991C000019999999N0000001N9+01391+99999100681ADDGF100991999999999999999999
0029028970999991926042920004+64217+027767FM-12+014699999V0209991C000019999999N0000001N9+00501+99999100441ADDGF100991999999999999999999
0046028970999991926043006004+64217+027767FM-12+014699999V0209991C000019999999N0000001N9+00561+99999100441ADDAJ100009199999999GF100991999999999999999999
0029028970999991926043013004+64217+027767FM-12+014699999V0202701N003119999999N0000001N9+01111+99999100441ADDGF100991999999999999999999
0029028970999991926043020004+64217+027767FM-12+014699999V0209991C000019999999N0000001N9+00221+99999100361ADDGF104991999999999999999999
0046028970999991926050106004+64217+027767FM-12+014699999V0209991C000019999999N0000001N9+00221+99999100231ADDAJ100009199999999GF108991999999999999999999
0029028970999991926050113004+64217+027767FM-12+014699999V0203601N003119999999N0000001N9+01061+99999100041ADDGF107991999999999999999999
0029028970999991926050120004+64217+027767FM-12+014699999V0203601N002119999999N0000001N9+00671+99999099901ADDGF107991999999999999999999
0046028970999991926050206004+64217+027767FM-12+014699999V0203601N001019999999N0000001N9+00391+99999100031ADDAJ100009199999999GF108991999999999999999999
0029028970999991926050213004+64217+027767FM-12+014699999V0203601N001019999999N0000001N9+00501+99999100121ADDGF104991999999999999999999
0029028970999991926050220004+64217+027767FM-12+014699999V0209991C000019999999N0000001N9+00281+99999100111ADDGF108991999999999999999999
0046028970999991926050306004+64217+027767FM-12+014699999V0200501N004119999999N0000001N9+00171+99999099991ADDAJ100009199999999GF108991999999999999999999
0029028970999991926050313004+64217+027767FM-12+014699999V0200501N006219999999N0000001N9+00561+99999099671ADDGF106991999999999999999999
0029028970999991926050320004+64217+027767FM-12+014699999V0209991C000019999999N0000001N9+00001+99999099511ADDGF102991999999999999999999
0046028970999991926050406004+64217+027767FM-12+014699999V0200901N006219999999N0000001N9-00221+99999100021ADDAJ100009199999999GF100991999999999999999999
0029028970999991926050413004+64217+027767FM-12+014699999V0200501N006219999999N0000001N9+00171+99999100221ADDGF100991999999999999999999
0029028970999991926050420004+64217+027767FM-12+014699999V0209991C000019999999N0000001N9-00281+99999100401ADDGF100991999999999999999999
0046028970999991926050506004+64217+027767FM-12+014699999V0200901N006219999999N0000001N9-00441+99999100781ADDAJ100009199999999GF100991999999999999999999
0029028970999991926050513004+64217+027767FM-12+014699999V0200901N006219999999N0000001N9+00001+99999100711ADDGF100991999999999999999999
0029028970999991926050520004+64217+027767FM-12+014699999V0200901N003119999999N0000001N9-00171+99999100551ADDGF108991999999999999999999
0046028970999991926050606004+64217+027767FM-12+014699999V0200901N006219999999N0000001N9-00331+99999100701ADDAJ100009199999999GF108991999999999999999999
0029028970999991926050613004+64217+027767FM-12+014699999V0200901N006219999999N0000001N9+00171+99999100681ADDGF108991999999999999999999
0029028970999991926050620004+64217+027767FM-12+014699999V0200901N006219999999N0000001N9-00061+99999100361ADDGF108991999999999999999999
0046028970999991926050706004+64217+027767FM-12+014699999V0200901N008219999999N0000001N9-00171+99999100301ADDAJ100009199999999GF108991999999999999999999
0029028970999991926050713004+64217+027767FM-12+014699999V0201401N008219999999N0000001N9+00501+99999100121ADDGF108991999999999999999999
0029028970999991926050720004+64217+027767FM-12+014699999V0201401N003119999999N0000001N9+00281+99999100031ADDGF108991999999999999999999
0046028970999991926050806004+64217+027767FM-12+014699999V0200901N004119999999N0000001N9+00221+99999099941ADDAJ100009199999999GF108991999999999999999999
0029028970999991926050813004+64217+027767FM-12+014699999V0200901N004119999999N0000001N9+00331+99999099981ADDGF108991999999999999999999
0035028970999991926050820004+64217+027767FM-12+014699999V0209991C000019999999N0000001N9+00221+99999099911ADDGF108991999999999999999999MW1621
0046028970999991926050906004+64217+027767FM-12+014699999V0200901N006219999999N0000001N9+00391+99999099721ADDAJ100009199999999GF108991999999999999999999
0029028970999991926050913004+64217+027767FM-12+014699999V0200901N004119999999N0000001N9+00941+99999099641ADDGF106991999999999999999999
0029028970999991926050920004+64217+027767FM-12+014699999V0200901N002119999999N0000001N9+00611+99999099551ADDGF108991999999999999999999
0046028970999991926051006004+64217+027767FM-12+014699999V0200501N003119999999N0000001N9+00391+99999099311ADDAJ100009199999999GF108991999999999999999999
0029028970999991926051013004+64217+027767FM-12+014699999V0203601N006219999999N0000001N9+00941+99999099341ADDGF108991999999999999999999
0029028970999991926051020004+64217+027767FM-12+014699999V0200501N002119999999N0000001N9+00561+99999099341ADDGF108991999999999999999999
0046028970999991926051106004+64217+027767FM-12+014699999V0200501N004119999999N0000001N9+00281+99999099351ADDAJ100009199999999GF108991999999999999999999
0029028970999991926051113004+64217+027767FM-12+014699999V0200901N004119999999N0000001N9+00721+99999099281ADDGF108991999999999999999999
0029028970999991926051120004+64217+027767FM-12+014699999V0209991C000019999999N0000001N9+00671+99999099141ADDGF108991999999999999999999
0046028970999991926051206004+64217+027767FM-12+014699999V0200901N007219999999N0000001N9+00441+99999099041ADDAJ100009199999999GF108991999999999999999999
0029028970999991926051213004+64217+027767FM-12+014699999V0202301N006219999999N0000001N9+01171+99999099151ADDGF108991999999999999999999
0029028970999991926051220004+64217+027767FM-12+014699999V0209991C000019999999N0000001N9+00721+99999099341ADDGF104991999999999999999999
0046028970999991926051306004+64217+027767FM-12+014699999V0202301N006219999999N0000001N9+00941+99999099391ADDAJ100009199999999GF100991999999999999999999
0029028970999991926051313004+64217+027767FM-12+014699999V0201801N009819999999N0000001N9+01171+99999099181ADDGF108991999999999999999999
0029028970999991926051320004+64217+027767FM-12+014699999V0209991C000019999999N0000001N9+00781+99999099191ADDGF106991999999999999999999
0046028970999991926051406004+64217+027767FM-12+014699999V0209991C000019999999N0000001N9+00721+99999099511ADDAJ100009199999999GF104991999999999999999999
0029028970999991926051413004+64217+027767FM-12+014699999V0200901N001019999999N0000001N9+01331+99999099431ADDGF108991999999999999999999
0029028970999991926051420004+64217+027767FM-12+014699999V0209991C000019999999N0000001N9+00781+99999099311ADDGF100991999999999999999999
0046028970999991926051506004+64217+027767FM-12+014699999V0209991C000019999999N0000001N9+00561+99999099221ADDAJ100009199999999GF108991999999999999999999
0029028970999991926051513004+64217+027767FM-12+014699999V0202701N003119999999N0000001N9+00831+99999099301ADDGF108991999999999999999999
0029028970999991926051520004+64217+027767FM-12+014699999V0209991C000019999999N0000001N9+00671+99999099391ADDGF107991999999999999999999
0046028970999991926051606004+64217+027767FM-12+014699999V0209991C000019999999N0000001N9+00721+99999099441ADDAJ100009199999999GF104991999999999999999999
0029028970999991926051613004+64217+027767FM-12+014699999V0202701N004119999999N0000001N9+01221+99999099431ADDGF105991999999999999999999
0029028970999991926051620004+64217+027767FM-12+014699999V0209991C000019999999N0000001N9+00831+99999099441ADDGF104991999999999999999999
0046028970999991926051706004+64217+027767FM-12+014699999V0209991C000019999999N0000001N9+00501+99999099461ADDAJ100009199999999GF108991999999999999999999
0029028970999991926051713004+64217+027767FM-12+014699999V0209991C000019999999N0000001N9+01331+99999099381ADDGF108991999999999999999999
0035028970999991926051720004+64217+027767FM-12+014699999V0209991C000019999999N0000001N9+00671+99999099301ADDGF108991999999999999999999MW1621
0052028970999991926051806004+64217+027767FM-12+014699999V0200901N009819999999N0000001N9+00501+99999099221ADDAJ100009199999999GF108991999999999999999999MW1601
0029028970999991926051813004+64217+027767FM-12+014699999V0200901N006219999999N0000001N9+00781+99999099401ADDGF108991999999999999999999
0029028970999991926051820004+64217+027767FM-12+014699999V0209991C000019999999N0000001N9+00941+99999099441ADDGF100991999999999999999999
0046028970999991926051906004+64217+027767FM-12+014699999V0209991C000019999999N0000001N9+00441+99999099991ADDAJ100009199999999GF108991999999999999999999
0029028970999991926051913004+64217+027767FM-12+014699999V0202701N001019999999N0000001N9+00721+99999100311ADDGF108991999999999999999999
0029028970999991926051920004+64217+027767FM-12+014699999V0209991C000019999999N0000001N9+00611+99999100551ADDGF100991999999999999999999
0046028970999991926052006004+64217+027767FM-12+014699999V0200901N004119999999N0000001N9+00781+99999100921ADDAJ100009199999999GF104991999999999999999999
0029028970999991926052013004+64217+027767FM-12+014699999V0201401N004119999999N0000001N9+01441+99999100961ADDGF100991999999999999999999
0029028970999991926052020004+64217+027767FM-12+014699999V0209991C000019999999N0000001N9+01001+99999100881ADDGF100991999999999999999999
0046028970999991926052106004+64217+027767FM-12+014699999V0200501N004119999999N0000001N9+00721+99999100921ADDAJ100009199999999GF100991999999999999999999
0029028970999991926052113004+64217+027767FM-12+014699999V0203601N004119999999N0000001N9+01721+99999100581ADDGF100991999999999999999999
0035028970999991926052120004+64217+027767FM-12+014699999V0209991C000019999999N0000001N9+01331+99999100321ADDGF108991999999999999999999MW1621
0046028970999991926052206004+64217+027767FM-12+014699999V0209991C000019999999N0000001N9+01061+99999100261ADDAJ100009199999999GF108991999999999999999999
0029028970999991926052213004+64217+027767FM-12+014699999V0202701N001019999999N0000001N9+01171+99999100231ADDGF108991999999999999999999
0029028970999991926052220004+64217+027767FM-12+014699999V0209991C000019999999N0000001N9+01061+99999100141ADDGF108991999999999999999999
0046028970999991926052306004+64217+027767FM-12+014699999V0209991C000019999999N0000001N9+00891+99999100191ADDAJ100009199999999GF108991999999999999999999
0029028970999991926052313004+64217+027767FM-12+014699999V0202701N001019999999N0000001N9+01671+99999100031ADDGF104991999999999999999999
0029028970999991926052320004+64217+027767FM-12+014699999V0209991C000019999999N0000001N9+01281+99999099791ADDGF100991999999999999999999
0046028970999991926052406004+64217+027767FM-12+014699999V0200901N001019999999N0000001N9+00671+99999099401ADDAJ100009199999999GF108991999999999999999999
0029028970999991926052413004+64217+027767FM-12+014699999V0200901N001019999999N0000001N9+01281+99999099241ADDGF107991999999999999999999
0029028970999991926052420004+64217+027767FM-12+014699999V0209991C000019999999N0000001N9+00781+99999099381ADDGF100991999999999999999999
0046028970999991926052506004+64217+027767FM-12+014699999V0202701N004119999999N0000001N9+00441+99999099511ADDAJ100009199999999GF104991999999999999999999
0029028970999991926052513004+64217+027767FM-12+014699999V0202701N006219999999N0000001N9+00781+99999099761ADDGF102991999999999999999999
0029028970999991926052520004+64217+027767FM-12+014699999V0209991C000019999999N0000001N9+00441+99999099861ADDGF100991999999999999999999
0046028970999991926052606004+64217+027767FM-12+014699999V0209991C000019999999N0000001N9+00281+99999099981ADDAJ100009199999999GF108991999999999999999999
0029028970999991926052613004+64217+027767FM-12+014699999V0202701N003119999999N0000001N9+00501+99999099911ADDGF108991999999999999999999
0029028970999991926052620004+64217+027767FM-12+014699999V0209991C000019999999N0000001N9+00221+99999099911ADDGF100991999999999999999999
0029028970999991926052713004+64217+027767FM-12+014699999V0202701N004119999999N0000001N9+00721+99999099881ADDGF106991999999999999999999
0029028970999991926052720004+64217+027767FM-12+014699999V0209991C000019999999N0000001N9+00281+99999099831ADDGF100991999999999999999999
0046028970999991926052806004+64217+027767FM-12+014699999V0209991C000019999999N0000001N9+00221+99999099991ADDAJ100009199999999GF108991999999999999999999
0029028970999991926052813004+64217+027767FM-12+014699999V0202701N004119999999N0000001N9+00721+99999100081ADDGF104991999999999999999999
0029028970999991926052820004+64217+027767FM-12+014699999V0209991C000019999999N0000001N9+00391+99999100221ADDGF100991999999999999999999
0029028970999991926052913004+64217+027767FM-12+014699999V0200901N006219999999N0000001N9+01061+99999100341ADDGF108991999999999999999999
0029028970999991926052920004+64217+027767FM-12+014699999V0209991C000019999999N0000001N9+00941+99999100191ADDGF108991999999999999999999
0029028970999991926053013004+64217+027767FM-12+014699999V0201801N008719999999N0000001N9+01891+99999099831ADDGF100991999999999999999999
0035028970999991926053020004+64217+027767FM-12+014699999V0201801N004119999999N0000001N9+01221+99999099701ADDGF108991999999999999999999MW1621
0029028970999991926053113004+64217+027767FM-12+014699999V0201801N006219999999N0000001N9+01501+99999099191ADDGF108991999999999999999999
0029028970999991926053120004+64217+027767FM-12+014699999V0209991C000019999999N0000001N9+01331+99999099081ADDGF108991999999999999999999
0029028970999991926060113004+64217+027767FM-12+014699999V0202301N007219999999N0000001N9+02111+99999099141ADDGF105991999999999999999999
0029028970999991926060120004+64217+027767FM-12+014699999V0202001N001019999999N0000001N9+01781+99999099231ADDGF104991999999999999999999
0029028970999991926060213004+64217+027767FM-12+014699999V0201601N011819999999N0000001N9+02221+99999098871ADDGF104991999999999999999999
0029028970999991926060220004+64217+027767FM-12+014699999V0209991C000019999999N0000001N9+01441+99999099461ADDGF100991999999999999999999
0029028970999991926060313004+64217+027767FM-12+014699999V0202701N007219999999N0000001N9+01941+99999100031ADDGF102991999999999999999999
0029028970999991926060320004+64217+027767FM-12+014699999V0202701N002119999999N0000001N9+01501+99999099991ADDGF100991999999999999999999
0035028970999991926060413004+64217+027767FM-12+014699999V0201801N001019999999N0000001N9+01441+99999100071ADDGF108991999999999999999999MW1621
0029028970999991926060420004+64217+027767FM-12+014699999V0209991C000019999999N0000001N9+01441+99999100071ADDGF105991999999999999999999
0029028970999991926060513004+64217+027767FM-12+014699999V0202701N003119999999N0000001N9+02171+99999100201ADDGF102991999999999999999999
0029028970999991926060520004+64217+027767FM-12+014699999V0209991C000019999999N0000001N9+01501+99999100241ADDGF100991999999999999999999
0029028970999991926060613004+64217+027767FM-12+014699999V0200901N002119999999N0000001N9+02281+99999100341ADDGF102991999999999999999999
0029028970999991926060620004+64217+027767FM-12+014699999V0209991C000019999999N0000001N9+02001+99999100231ADDGF102991999999999999999999
0035028970999991926060713004+64217+027767FM-12+014699999V0202301N006219999999N0000001N9+02281+99999099901ADDGF108991999999999999999999MW1621
0035028970999991926060720004+64217+027767FM-12+014699999V0202301N002119999999N0000001N9+01561+99999099581ADDGF107991999999999999999999MW1171
0029028970999991926060813004+64217+027767FM-12+014699999V0203601N006219999999N0000001N9+01111+99999099661ADDGF108991999999999999999999
0029028970999991926060820004+64217+027767FM-12+014699999V0200501N003119999999N0000001N9+00721+99999099961ADDGF107991999999999999999999
0029028970999991926060913004+64217+027767FM-12+014699999V0201601N006219999999N0000001N9+01561+99999100361ADDGF102991999999999999999999
0029028970999991926060920004+64217+027767FM-12+014699999V0200501N002119999999N0000001N9+00721+99999100361ADDGF102991999999999999999999
0029028970999991926061013004+64217+027767FM-12+014699999V0200501N003119999999N0000001N9+01391+99999100421ADDGF100991999999999999999999
0029028970999991926061020004+64217+027767FM-12+014699999V0209991C000019999999N0000001N9+01221+99999100311ADDGF100991999999999999999999
0029028970999991926061113004+64217+027767FM-12+014699999V0200901N003119999999N0000001N9+01781+99999100301ADDGF102991999999999999999999
0029028970999991926061120004+64217+027767FM-12+014699999V0209991C000019999999N0000001N9+01561+99999100201ADDGF100991999999999999999999
0029028970999991926061213004+64217+027767FM-12+014699999V0203601N001019999999N0000001N9+01891+99999100231ADDGF104991999999999999999999
0029028970999991926061220004+64217+027767FM-12+014699999V0209991C000019999999N0000001N9+01781+99999100151ADDGF100991999999999999999999
0029028970999991926061313004+64217+027767FM-12+014699999V0202701N004119999999N0000001N9+02171+99999100281ADDGF103991999999999999999999
0029028970999991926061320004+64217+027767FM-12+014699999V0209991C000019999999N0000001N9+01891+99999100181ADDGF100991999999999999999999
0029028970999991926061413004+64217+027767FM-12+014699999V0202701N007219999999N0000001N9+01891+99999100031ADDGF100991999999999999999999
0029028970999991926061420004+64217+027767FM-12+014699999V0202701N001019999999N0000001N9+01501+99999099871ADDGF100991999999999999999999
0029028970999991926061513004+64217+027767FM-12+014699999V0202701N006219999999N0000001N9+02001+99999099541ADDGF104991999999999999999999
0029028970999991926061520004+64217+027767FM-12+014699999V0209991C000019999999N0000001N9+01831+99999099221ADDGF105991999999999999999999
0029028970999991926061613004+64217+027767FM-12+014699999V0203601N008719999999N0000001N9+01441+99999098901ADDGF108991999999999999999999
0035028970999991926061620004+64217+027767FM-12+014699999V0209991C000019999999N0000001N9+00941+99999098881ADDGF108991999999999999999999MW1621
0029028970999991926061713004+64217+027767FM-12+014699999V0203601N004119999999N0000001N9+00611+99999098721ADDGF108991999999999999999999
0029028970999991926061720004+64217+027767FM-12+014699999V0203601N006219999999N0000001N9+00501+99999098591ADDGF106991999999999999999999
0029028970999991926061813004+64217+027767FM-12+014699999V0202701N006219999999N0000001N9+00561+99999098191ADDGF106991999999999999999999
0029028970999991926061820004+64217+027767FM-12+014699999V0202701N008219999999N0000001N9+00501+99999098111ADDGF108991999999999999999999
0035028970999991926061913004+64217+027767FM-12+014699999V0202701N008219999999N0000001N9+00171+99999097941ADDGF108991999999999999999999MW1691
0035028970999991926061920004+64217+027767FM-12+014699999V0202701N009819999999N0000001N9+00331+99999098061ADDGF108991999999999999999999MW1691
0035028970999991926062013004+64217+027767FM-12+014699999V0202701N006219999999N0000001N9+00331+99999098701ADDGF108991999999999999999999MW1621
0029028970999991926062020004+64217+027767FM-12+014699999V0209991C000019999999N0000001N9+00391+99999098821ADDGF104991999999999999999999
0029028970999991926062113004+64217+027767FM-12+014699999V0202901N003119999999N0000001N9+01281+99999098841ADDGF103991999999999999999999
0029028970999991926062120004+64217+027767FM-12+014699999V0209991C000019999999N0000001N9+01061+99999098791ADDGF106991999999999999999999
0029028970999991926062213004+64217+027767FM-12+014699999V0209991C000019999999N0000001N9+01501+99999098591ADDGF108991999999999999999999
0029028970999991926062220004+64217+027767FM-12+014699999V0209991C000019999999N0000001N9+01111+99999098631ADDGF108991999999999999999999
0029028970999991926062313004+64217+027767FM-12+014699999V0201801N003119999999N0000001N9+01721+99999098481ADDGF107991999999999999999999
0029028970999991926062320004+64217+027767FM-12+014699999V0209991C000019999999N0000001N9+01221+99999098541ADDGF102991999999999999999999
0029028970999991926062413004+64217+027767FM-12+014699999V0200901N006219999999N0000001N9+01501+99999099041ADDGF108991999999999999999999
0029028970999991926062420004+64217+027767FM-12+014699999V0209991C000019999999N0000001N9+00941+99999099391ADDGF100991999999999999999999
0035028970999991926062513004+64217+027767FM-12+014699999V0209991C000019999999N0000001N9+01671+99999099801ADDGF107991999999999999999999MW1621
0029028970999991926062520004+64217+027767FM-12+014699999V0209991C000019999999N0000001N9+01391+99999099861ADDGF100991999999999999999999
0029028970999991926062613004+64217+027767FM-12+014699999V0202701N003119999999N0000001N9+02171+99999100351ADDGF102991999999999999999999
0035028970999991926062620004+64217+027767FM-12+014699999V0209991C000019999999N0000001N9+01561+99999100391ADDGF108991999999999999999999MW1621
0029028970999991926062713004+64217+027767FM-12+014699999V0201801N004119999999N0000001N9+02061+99999100141ADDGF106991999999999999999999
0029028970999991926062720004+64217+027767FM-12+014699999V0209991C000019999999N0000001N9+01781+99999099991ADDGF107991999999999999999999
0035028970999991926062813004+64217+027767FM-12+014699999V0209991C000019999999N0000001N9+01941+99999099991ADDGF108991999999999999999999MW1621
0029028970999991926062820004+64217+027767FM-12+014699999V0209991C000019999999N0000001N9+01611+99999100141ADDGF108991999999999999999999
0035028970999991926062913004+64217+027767FM-12+014699999V0209991C000019999999N0000001N9+01441+99999100361ADDGF108991999999999999999999MW1621
0029028970999991926062920004+64217+027767FM-12+014699999V0209991C000019999999N0000001N9+01501+99999100191ADDGF106991999999999999999999
0029028970999991926063013004+64217+027767FM-12+014699999V0209991C000019999999N0000001N9+02171+99999100271ADDGF102991999999999999999999
0029028970999991926063020004+64217+027767FM-12+014699999V0209991C000019999999N0000001N9+01831+99999100191ADDGF107991999999999999999999
0029028970999991926070113004+64217+027767FM-12+014699999V0203401N005119999999N0000001N9+01441+99999100701ADDGF105991999999999999999999
0029028970999991926070120004+64217+027767FM-12+014699999V0209991C000019999999N0000001N9+01501+99999100821ADDGF102991999999999999999999
0029028970999991926070213004+64217+027767FM-12+014699999V0203401N005119999999N0000001N9+02001+99999100871ADDGF106991999999999999999999
0029028970999991926070220004+64217+027767FM-12+014699999V0209991C000019999999N0000001N9+01501+99999100581ADDGF104991999999999999999999
0029028970999991926070313004+64217+027767FM-12+014699999V0203401N003119999999N0000001N9+01331+99999100161ADDGF106991999999999999999999
0029028970999991926070320004+64217+027767FM-12+014699999V0209991C000019999999N0000001N9+01391+99999999999ADDGF102991999999999999999999
0029028970999991926070413004+64217+027767FM-12+014699999V0203201N006219999999N0000001N9+01611+99999099741ADDGF104991999999999999999999
0029028970999991926070420004+64217+027767FM-12+014699999V0203201N001019999999N0000001N9+01171+99999099801ADDGF104991999999999999999999
0029028970999991926070513004+64217+027767FM-12+014699999V0202701N003119999999N0000001N9+01671+99999099941ADDGF104991999999999999999999
0029028970999991926070520004+64217+027767FM-12+014699999V0209991C000019999999N0000001N9+01441+99999099781ADDGF100991999999999999999999
0029028970999991926070613004+64217+027767FM-12+014699999V0202701N006219999999N0000001N9+01831+99999099231ADDGF106991999999999999999999
0029028970999991926070620004+64217+027767FM-12+014699999V0202701N004119999999N0000001N9+01561+99999099161ADDGF100991999999999999999999
0029028970999991926070713004+64217+027767FM-12+014699999V0202701N006219999999N0000001N9+01441+99999099561ADDGF106991999999999999999999
0029028970999991926070720004+64217+027767FM-12+014699999V0203601N004119999999N0000001N9+01221+99999099751ADDGF101991999999999999999999
0029028970999991926070813004+64217+027767FM-12+014699999V0202901N004119999999N0000001N9+01671+99999100241ADDGF106991999999999999999999
0029028970999991926070820004+64217+027767FM-12+014699999V0209991C000019999999N0000001N9+01391+99999100111ADDGF104991999999999999999999
0029028970999991926070913004+64217+027767FM-12+014699999V0202701N002119999999N0000001N9+01891+99999100061ADDGF107991999999999999999999
0029028970999991926070920004+64217+027767FM-12+014699999V0209991C000019999999N0000001N9+01831+99999099631ADDGF100991999999999999999999
0029028970999991926071013004+64217+027767FM-12+014699999V0202701N001019999999N0000001N9+01501+99999099381ADDGF107991999999999999999999
0029028970999991926071020004+64217+027767FM-12+014699999V0209991C000019999999N0000001N9+01671+99999099421ADDGF104991999999999999999999
0029028970999991926071113004+64217+027767FM-12+014699999V0200501N006219999999N0000001N9+01781+99999099761ADDGF108991999999999999999999
0029028970999991926071120004+64217+027767FM-12+014699999V0209991C000019999999N0000001N9+01671+99999099701ADDGF106991999999999999999999
0029028970999991926071213004+64217+027767FM-12+014699999V0202701N006219999999N0000001N9+01671+99999099221ADDGF108991999999999999999999
0029028970999991926071220004+64217+027767FM-12+014699999V0209991C000019999999N0000001N9+01561+99999099241ADDGF100991999999999999999999
0035028970999991926071313004+64217+027767FM-12+014699999V0202701N006219999999N0000001N9+01831+99999098911ADDGF108991999999999999999999MW1621
0029028970999991926071320004+64217+027767FM-12+014699999V0202701N006219999999N0000001N9+01561+99999098751ADDGF106991999999999999999999
0029028970999991926071413004+64217+027767FM-12+014699999V0202701N006219999999N0000001N9+01671+99999098951ADDGF104991999999999999999999
0029028970999991926071420004+64217+027767FM-12+014699999V0209991C000019999999N0000001N9+01391+99999098591ADDGF108991999999999999999999
0029028970999991926071513004+64217+027767FM-12+014699999V0202701N004119999999N0000001N9+01281+99999098261ADDGF107991999999999999999999
0029028970999991926071520004+64217+027767FM-12+014699999V0209991C000019999999N0000001N9+01061+99999098501ADDGF102991999999999999999999
0029028970999991926071613004+64217+027767FM-12+014699999V0202701N004119999999N0000001N9+01331+99999099191ADDGF106991999999999999999999
0029028970999991926071620004+64217+027767FM-12+014699999V0209991C000019999999N0000001N9+01001+99999099311ADDGF106991999999999999999999
0029028970999991926071713004+64217+027767FM-12+014699999V0209991C000019999999N0000001N9+01501+99999099381ADDGF106991999999999999999999
0029028970999991926071720004+64217+027767FM-12+014699999V0209991C000019999999N0000001N9+01281+99999099421ADDGF100991999999999999999999
0029028970999991926071813004+64217+027767FM-12+014699999V0202301N003119999999N0000001N9+01781+99999099431ADDGF108991999999999999999999
0029028970999991926071820004+64217+027767FM-12+014699999V0209991C000019999999N0000001N9+01281+99999099431ADDGF108991999999999999999999
0035028970999991926071913004+64217+027767FM-12+014699999V0202701N003119999999N0000001N9+01721+99999098991ADDGF108991999999999999999999MW1621
0029028970999991926071920004+64217+027767FM-12+014699999V0202701N001019999999N0000001N9+01501+99999098791ADDGF106991999999999999999999
0029028970999991926072013004+64217+027767FM-12+014699999V0202701N003119999999N0000001N9+01941+99999098671ADDGF103991999999999999999999
0029028970999991926072020004+64217+027767FM-12+014699999V0209991C000019999999N0000001N9+01391+99999098671ADDGF100991999999999999999999
0029028970999991926072113004+64217+027767FM-12+014699999V0203601N003119999999N0000001N9+01891+99999098681ADDGF103991999999999999999999
0029028970999991926072120004+64217+027767FM-12+014699999V0203601N001019999999N0000001N9+01441+99999098681ADDGF100991999999999999999999
0029028970999991926072213004+64217+027767FM-12+014699999V0203601N006219999999N0000001N9+01831+99999098911ADDGF102991999999999999999999
0029028970999991926072220004+64217+027767FM-12+014699999V0209991C000019999999N0000001N9+01331+99999098911ADDGF100991999999999999999999
0029028970999991926072313004+64217+027767FM-12+014699999V0200501N005119999999N0000001N9+02061+99999099151ADDGF100991999999999999999999
0029028970999991926072320004+64217+027767FM-12+014699999V0209991C000019999999N0000001N9+01611+99999098991ADDGF100991999999999999999999
0029028970999991926072413004+64217+027767FM-12+014699999V0200501N003119999999N0000001N9+02391+99999098681ADDGF104991999999999999999999
0029028970999991926072420004+64217+027767FM-12+014699999V0209991C000019999999N0000001N9+01721+99999098681ADDGF108991999999999999999999
0029028970999991926072513004+64217+027767FM-12+014699999V0202701N003119999999N0000001N9+02061+99999098781ADDGF104991999999999999999999
0029028970999991926072520004+64217+027767FM-12+014699999V0202701N003119999999N0000001N9+01831+99999098781ADDGF104991999999999999999999
0029028970999991926072613004+64217+027767FM-12+014699999V0200901N005119999999N0000001N9+02281+99999098631ADDGF102991999999999999999999
0029028970999991926072620004+64217+027767FM-12+014699999V0209991C000019999999N0000001N9+01721+99999098581ADDGF102991999999999999999999
0029028970999991926072713004+64217+027767FM-12+014699999V0200501N001019999999N0000001N9+02111+99999098641ADDGF106991999999999999999999
0029028970999991926072720004+64217+027767FM-12+014699999V0200501N001019999999N0000001N9+01721+99999098721ADDGF106991999999999999999999
0029028970999991926072813004+64217+027767FM-12+014699999V0200501N003119999999N0000001N9+02001+99999099081ADDGF104991999999999999999999
0029028970999991926072820004+64217+027767FM-12+014699999V0209991C000019999999N0000001N9+01501+99999099311ADDGF100991999999999999999999
0029028970999991926072913004+64217+027767FM-12+014699999V0202701N001019999999N0000001N9+02171+99999099471ADDGF102991999999999999999999
0029028970999991926072920004+64217+027767FM-12+014699999V0200501N003119999999N0000001N9+01721+99999099391ADDGF108991999999999999999999
0035028970999991926073013004+64217+027767FM-12+014699999V0203601N003119999999N0000001N9+01721+99999099551ADDGF108991999999999999999999MW1621
0029028970999991926073020004+64217+027767FM-12+014699999V0209991C000019999999N0000001N9+01391+99999099671ADDGF100991999999999999999999
0029028970999991926073113004+64217+027767FM-12+014699999V0200501N004119999999N0000001N9+01941+99999099631ADDGF102991999999999999999999
0029028970999991926073120004+64217+027767FM-12+014699999V0209991C000019999999N0000001N9+01441+99999099591ADDGF100991999999999999999999
0029028970999991926080113004+64217+027767FM-12+014699999V0203601N008219999999N0000001N9+02061+99999099671ADDGF100991999999999999999999
0029028970999991926080120004+64217+027767FM-12+014699999V0209991C000019999999N0000001N9+01561+99999099881ADDGF100991999999999999999999
0029028970999991926080213004+64217+027767FM-12+014699999V0202901N003119999999N0000001N9+01781+99999100161ADDGF106991999999999999999999
0029028970999991926080220004+64217+027767FM-12+014699999V0203601N006219999999N0000001N9+01331+99999100061ADDGF106991999999999999999999
0029028970999991926080313004+64217+027767FM-12+014699999V0200501N001019999999N0000001N9+01501+99999100121ADDGF108991999999999999999999
0029028970999991926080320004+64217+027767FM-12+014699999V0200501N001019999999N0000001N9+01221+99999100191ADDGF108991999999999999999999
0029028970999991926080413004+64217+027767FM-12+014699999V0203201N001019999999N0000001N9+01671+99999100201ADDGF108991999999999999999999
0029028970999991926080420004+64217+027767FM-12+014699999V0209991C000019999999N0000001N9+01561+99999100221ADDGF108991999999999999999999
0029028970999991926080513004+64217+027767FM-12+014699999V0202701N003119999999N0000001N9+01611+99999100681ADDGF102991999999999999999999
0029028970999991926080520004+64217+027767FM-12+014699999V0202701N001019999999N0000001N9+01281+99999100761ADDGF100991999999999999999999
0029028970999991926080613004+64217+027767FM-12+014699999V0209991C000019999999N0000001N9+01611+99999100721ADDGF108991999999999999999999
0029028970999991926080620004+64217+027767FM-12+014699999V0209991C000019999999N0000001N9+01391+99999100521ADDGF108991999999999999999999
0029028970999991926080713004+64217+027767FM-12+014699999V0209991C000019999999N0000001N9+01941+99999100201ADDGF108991999999999999999999
0029028970999991926080720004+64217+027767FM-12+014699999V0209991C000019999999N0000001N9+01391+99999100021ADDGF105991999999999999999999
0029028970999991926080813004+64217+027767FM-12+014699999V0209991C000019999999N0000001N9+02171+99999099941ADDGF102991999999999999999999
0029028970999991926080820004+64217+027767FM-12+014699999V0209991C000019999999N0000001N9+01561+99999099911ADDGF100991999999999999999999
0029028970999991926080913004+64217+027767FM-12+014699999V0203601N004119999999N0000001N9+02001+99999099861ADDGF108991999999999999999999
0029028970999991926080920004+64217+027767FM-12+014699999V0209991C000019999999N0000001N9+01281+99999099961ADDGF108991999999999999999999
0029028970999991926081013004+64217+027767FM-12+014699999V0200501N001019999999N0000001N9+01781+99999100121ADDGF106991999999999999999999
0029028970999991926081020004+64217+027767FM-12+014699999V0209991C000019999999N0000001N9+01281+99999099991ADDGF106991999999999999999999
0029028970999991926081113004+64217+027767FM-12+014699999V0202701N001019999999N0000001N9+02001+99999099821ADDGF102991999999999999999999
0029028970999991926081120004+64217+027767FM-12+014699999V0209991C000019999999N0000001N9+01721+99999099621ADDGF102991999999999999999999
0029028970999991926081213004+64217+027767FM-12+014699999V0202701N001019999999N0000001N9+02221+99999099481ADDGF105991999999999999999999
0029028970999991926081220004+64217+027767FM-12+014699999V0209991C000019999999N0000001N9+01611+99999099321ADDGF100991999999999999999999
0029028970999991926081313004+64217+027767FM-12+014699999V0202301N003119999999N0000001N9+02441+99999099241ADDGF104991999999999999999999
0029028970999991926081320004+64217+027767FM-12+014699999V0209991C000019999999N0000001N9+01671+99999099201ADDGF105991999999999999999999
0029028970999991926081413004+64217+027767FM-12+014699999V0202301N003119999999N0000001N9+02111+99999099161ADDGF104991999999999999999999
0029028970999991926081420004+64217+027767FM-12+014699999V0209991C000019999999N0000001N9+01501+99999099141ADDGF106991999999999999999999
0029028970999991926081513004+64217+027767FM-12+014699999V0201801N004119999999N0000001N9+02111+99999098901ADDGF102991999999999999999999
0029028970999991926081520004+64217+027767FM-12+014699999V0209991C000019999999N0000001N9+01611+99999098741ADDGF100991999999999999999999
0029028970999991926081613004+64217+027767FM-12+014699999V0200901N006219999999N0000001N9+01891+99999098521ADDGF104991999999999999999999
0029028970999991926081620004+64217+027767FM-12+014699999V0200901N006219999999N0000001N9+01501+99999098511ADDGF108991999999999999999999
0029028970999991926081713004+64217+027767FM-12+014699999V0200501N006219999999N0000001N9+01331+99999099061ADDGF108991999999999999999999
0029028970999991926081720004+64217+027767FM-12+014699999V0209991C000019999999N0000001N9+00941+99999099141ADDGF100991999999999999999999
0029028970999991926081813004+64217+027767FM-12+014699999V0202701N004119999999N0000001N9+01941+99999099191ADDGF101991999999999999999999
0029028970999991926081820004+64217+027767FM-12+014699999V0209991C000019999999N0000001N9+01391+99999099061ADDGF104991999999999999999999
0029028970999991926081913004+64217+027767FM-12+014699999V0203601N004119999999N0000001N9+01501+99999098841ADDGF108991999999999999999999
0029028970999991926081920004+64217+027767FM-12+014699999V0209991C000019999999N0000001N9+01331+99999098841ADDGF108991999999999999999999
0029028970999991926082013004+64217+027767FM-12+014699999V0201801N001019999999N0000001N9+01781+99999098681ADDGF106991999999999999999999
0029028970999991926082020004+64217+027767FM-12+014699999V0209991C000019999999N0000001N9+01331+99999098641ADDGF108991999999999999999999
0029028970999991926082113004+64217+027767FM-12+014699999V0202701N006219999999N0000001N9+01831+99999098161ADDGF106991999999999999999999
0035028970999991926082120004+64217+027767FM-12+014699999V0209991C000019999999N0000001N9+01221+99999097841ADDGF108991999999999999999999MW1621
0029028970999991926082213004+64217+027767FM-12+014699999V0202001N004119999999N0000001N9+01501+99999096761ADDGF104991999999999999999999
0029028970999991926082220004+64217+027767FM-12+014699999V0209991C000019999999N0000001N9+01281+99999096821ADDGF104991999999999999999999
0029028970999991926082313004+64217+027767FM-12+014699999V0200901N004119999999N0000001N9+01721+99999097381ADDGF105991999999999999999999
0029028970999991926082320004+64217+027767FM-12+014699999V0209991C000019999999N0000001N9+01281+99999097471ADDGF106991999999999999999999
0035028970999991926082413004+64217+027767FM-12+014699999V0203201N004119999999N0000001N9+01441+99999097341ADDGF108991999999999999999999MW1621
0029028970999991926082420004+64217+027767FM-12+014699999V0203201N001019999999N0000001N9+01331+99999097441ADDGF108991999999999999999999
0035028970999991926082513004+64217+027767FM-12+014699999V0202701N005119999999N0000001N9+01111+99999097511ADDGF108991999999999999999999MW1621
0029028970999991926082520004+64217+027767FM-12+014699999V0209991C000019999999N0000001N9+01061+99999097541ADDGF108991999999999999999999
0029028970999991926082613004+64217+027767FM-12+014699999V0202701N004119999999N0000001N9+01501+99999097421ADDGF104991999999999999999999
0029028970999991926082620004+64217+027767FM-12+014699999V0209991C000019999999N0000001N9+01111+99999097401ADDGF108991999999999999999999
0035028970999991926082713004+64217+027767FM-12+014699999V0203201N002119999999N0000001N9+01221+99999098021ADDGF108991999999999999999999MW1621
0029028970999991926082720004+64217+027767FM-12+014699999V0209991C000019999999N0000001N9+01111+99999098261ADDGF104991999999999999999999
0029028970999991926082813004+64217+027767FM-12+014699999V0203201N004119999999N0000001N9+01221+99999099071ADDGF108991999999999999999999
0029028970999991926082820004+64217+027767FM-12+014699999V0209991C000019999999N0000001N9+00941+99999099191ADDGF102991999999999999999999
0029028970999991926082913004+64217+027767FM-12+014699999V0202701N006219999999N0000001N9+01331+99999099781ADDGF104991999999999999999999
0029028970999991926082920004+64217+027767FM-12+014699999V0209991C000019999999N0000001N9+01001+99999100141ADDGF100991999999999999999999
0029028970999991926083013004+64217+027767FM-12+014699999V0202701N004119999999N0000001N9+01441+99999100581ADDGF103991999999999999999999
0029028970999991926083020004+64217+027767FM-12+014699999V0209991C000019999999N0000001N9+01221+99999100401ADDGF108991999999999999999999
0029028970999991926083113004+64217+027767FM-12+014699999V0202701N004119999999N0000001N9+02001+99999099921ADDGF100991999999999999999999
0029028970999991926083120004+64217+027767FM-12+014699999V0209991C000019999999N0000001N9+01221+99999099321ADDGF108991999999999999999999
0029028970999991926090113004+64217+027767FM-12+014699999V0202701N008719999999N0000001N9+01391+99999098871ADDGF104991999999999999999999
0029028970999991926090120004+64217+027767FM-12+014699999V0202701N008219999999N0000001N9+00891+99999098801ADDGF102991999999999999999999
0029028970999991926090213004+64217+027767FM-12+014699999V0202701N008219999999N0000001N9+00891+99999098751ADDGF106991999999999999999999
0029028970999991926090220004+64217+027767FM-12+014699999V0202701N006219999999N0000001N9+00721+99999098871ADDGF106991999999999999999999
0029028970999991926090313004+64217+027767FM-12+014699999V0202701N003119999999N0000001N9+00891+99999099461ADDGF104991999999999999999999
0029028970999991926090320004+64217+027767FM-12+014699999V0209991C000019999999N0000001N9+00221+99999099791ADDGF100991999999999999999999
0029028970999991926090413004+64217+027767FM-12+014699999V0200901N003119999999N0000001N9+01221+99999100061ADDGF102991999999999999999999
0029028970999991926090420004+64217+027767FM-12+014699999V0200901N001019999999N0000001N9+00781+99999099841ADDGF108991999999999999999999
0035028970999991926090513004+64217+027767FM-12+014699999V0201801N006219999999N0000001N9+01061+99999098921ADDGF108991999999999999999999MW1621
0035028970999991926090520004+64217+027767FM-12+014699999V0209991C000019999999N0000001N9+01221+99999098301ADDGF108991999999999999999999MW1621
0029028970999991926090613004+64217+027767FM-12+014699999V0202701N004119999999N0000001N9+01331+99999098421ADDGF106991999999999999999999
0029028970999991926090620004+64217+027767FM-12+014699999V0209991C000019999999N0000001N9+00781+99999098351ADDGF100991999999999999999999
0035028970999991926090713004+64217+027767FM-12+014699999V0201801N004119999999N0000001N9+01001+99999097551ADDGF108991999999999999999999MW1621
0029028970999991926090720004+64217+027767FM-12+014699999V0202701N001019999999N0000001N9+00671+99999097511ADDGF104991999999999999999999
0029028970999991926090813004+64217+027767FM-12+014699999V0202701N004119999999N0000001N9+01221+99999097381ADDGF104991999999999999999999
0035028970999991926090820004+64217+027767FM-12+014699999V0209991C000019999999N0000001N9+00671+99999097591ADDGF108991999999999999999999MW1621
0029028970999991926090913004+64217+027767FM-12+014699999V0202701N004119999999N0000001N9+00941+99999098141ADDGF108991999999999999999999
0029028970999991926090920004+64217+027767FM-12+014699999V0202701N006219999999N0000001N9+00721+99999098461ADDGF106991999999999999999999
0029028970999991926091013004+64217+027767FM-12+014699999V0202701N004119999999N0000001N9+01001+99999099041ADDGF104991999999999999999999
0029028970999991926091020004+64217+027767FM-12+014699999V0209991C000019999999N0000001N9+00611+99999099111ADDGF104991999999999999999999
0029028970999991926091113004+64217+027767FM-12+014699999V0202001N006219999999N0000001N9+01441+99999099041ADDGF102991999999999999999999
0035028970999991926091120004+64217+027767FM-12+014699999V0202701N008219999999N0000001N9+01001+99999098721ADDGF105991999999999999999999MW1621
0035028970999991926091213004+64217+027767FM-12+014699999V0201801N006219999999N0000001N9+01171+99999097671ADDGF108991999999999999999999MW1621
0029028970999991926091220004+64217+027767FM-12+014699999V0201801N008219999999N0000001N9+01281+99999097161ADDGF108991999999999999999999
0029028970999991926091313004+64217+027767FM-12+014699999V0202701N006219999999N0000001N9+00941+99999097581ADDGF105991999999999999999999
0029028970999991926091320004+64217+027767FM-12+014699999V0209991C000019999999N0000001N9+00441+99999097911ADDGF100991999999999999999999
0029028970999991926091413004+64217+027767FM-12+014699999V0202501N006219999999N0000001N9+00941+99999098221ADDGF105991999999999999999999
0029028970999991926091420004+64217+027767FM-12+014699999V0202701N006219999999N0000001N9+00281+99999098621ADDGF100991999999999999999999
0029028970999991926091513004+64217+027767FM-12+014699999V0202301N006219999999N0000001N9+00721+99999099241ADDGF104991999999999999999999
0029028970999991926091520004+64217+027767FM-12+014699999V0209991C000019999999N0000001N9+00281+99999099221ADDGF100991999999999999999999
0029028970999991926091613004+64217+027767FM-12+014699999V0200501N004119999999N0000001N9+00781+99999098711ADDGF108991999999999999999999
0035028970999991926091620004+64217+027767FM-12+014699999V0200501N006219999999N0000001N9+00391+99999098631ADDGF108991999999999999999999MW1621
0029028970999991926091713004+64217+027767FM-12+014699999V0203201N004119999999N0000001N9+00561+99999098951ADDGF108991999999999999999999
0029028970999991926091720004+64217+027767FM-12+014699999V0209991C000019999999N0000001N9+00221+99999098961ADDGF100991999999999999999999
0035028970999991926091813004+64217+027767FM-12+014699999V0202701N006219999999N0000001N9+00331+99999099271ADDGF108991999999999999999999MW1621
0029028970999991926091820004+64217+027767FM-12+014699999V0202701N006219999999N0000001N9+00501+99999099741ADDGF108991999999999999999999
0029028970999991926091913004+64217+027767FM-12+014699999V0202701N004119999999N0000001N9+01061+99999100941ADDGF101991999999999999999999
0029028970999991926091920004+64217+027767FM-12+014699999V0209991C000019999999N0000001N9+00501+99999101031ADDGF100991999999999999999999
0029028970999991926092013004+64217+027767FM-12+014699999V0201401N004119999999N0000001N9+01061+99999101281ADDGF100991999999999999999999
0029028970999991926092020004+64217+027767FM-12+014699999V0209991C000019999999N0000001N9+00671+99999101351ADDGF108991999999999999999999
0029028970999991926092113004+64217+027767FM-12+014699999V0201801N003119999999N0000001N9+01501+99999101181ADDGF105991999999999999999999
0029028970999991926092120004+64217+027767FM-12+014699999V0209991C000019999999N0000001N9+00831+99999100961ADDGF100991999999999999999999
0029028970999991926092213004+64217+027767FM-12+014699999V0200901N003119999999N0000001N9+01891+99999100541ADDGF100991999999999999999999
0029028970999991926092220004+64217+027767FM-12+014699999V0209991C000019999999N0000001N9+01061+99999100431ADDGF100991999999999999999999
0029028970999991926092313004+64217+027767FM-12+014699999V0200901N001019999999N0000001N9+01721+99999100591ADDGF102991999999999999999999
0029028970999991926092320004+64217+027767FM-12+014699999V0209991C000019999999N0000001N9+00831+99999100721ADDGF100991999999999999999999
0029028970999991926092413004+64217+027767FM-12+014699999V0200501N001019999999N0000001N9+01721+99999100661ADDGF100991999999999999999999
0029028970999991926092420004+64217+027767FM-12+014699999V0209991C000019999999N0000001N9+00561+99999100581ADDGF100991999999999999999999
0029028970999991926092513004+64217+027767FM-12+014699999V0200901N003119999999N0000001N9+00941+99999100721ADDGF104991999999999999999999
0029028970999991926092520004+64217+027767FM-12+014699999V0209991C000019999999N0000001N9+00671+99999100751ADDGF108991999999999999999999
0029028970999991926092613004+64217+027767FM-12+014699999V0200901N004119999999N0000001N9+00781+99999100581ADDGF100991999999999999999999
0029028970999991926092620004+64217+027767FM-12+014699999V0209991C000019999999N0000001N9+00171+99999100581ADDGF100991999999999999999999
0029028970999991926092713004+64217+027767FM-12+014699999V0209991C000019999999N0000001N9+00671+99999100841ADDGF108991999999999999999999
0029028970999991926092720004+64217+027767FM-12+014699999V0209991C000019999999N0000001N9+00561+99999101021ADDGF108991999999999999999999
0029028970999991926092813004+64217+027767FM-12+014699999V0201801N004119999999N0000001N9+00671+99999101271ADDGF108991999999999999999999
0029028970999991926092820004+64217+027767FM-12+014699999V0209991C000019999999N0000001N9+00501+99999101341ADDGF108991999999999999999999
0029028970999991926092913004+64217+027767FM-12+014699999V0202001N004119999999N0000001N9+01001+99999101121ADDGF108991999999999999999999
0029028970999991926092920004+64217+027767FM-12+014699999V0209991C000019999999N0000001N9+00721+99999100951ADDGF108991999999999999999999
0029028970999991926093013004+64217+027767FM-12+014699999V0209991C000019999999N0000001N9+00831+99999100581ADDGF108991999999999999999999
0029028970999991926093020004+64217+027767FM-12+014699999V0209991C000019999999N0000001N9+00561+99999100471ADDGF108991999999999999999999
0029028970999991926100113004+64217+027767FM-12+014699999V0202301N004119999999N0000001N9+00891+99999099591ADDGF108991999999999999999999
0035028970999991926100120004+64217+027767FM-12+014699999V0202301N009819999999N0000001N9+00831+99999099281ADDGF108991999999999999999999MW1621
0029028970999991926100213004+64217+027767FM-12+014699999V0202701N006219999999N0000001N9+00831+99999100141ADDGF101991999999999999999999
0029028970999991926100220004+64217+027767FM-12+014699999V0202701N001019999999N0000001N9+00331+99999100201ADDGF100991999999999999999999
0029028970999991926100313004+64217+027767FM-12+014699999V0209991C000019999999N0000001N9+00561+99999099901ADDGF108991999999999999999999
0029028970999991926100320004+64217+027767FM-12+014699999V0209991C000019999999N0000001N9+00221+99999099801ADDGF100991999999999999999999
0029028970999991926100413004+64217+027767FM-12+014699999V0202701N001019999999N0000001N9+00221+99999100201ADDGF104991999999999999999999
0029028970999991926100420004+64217+027767FM-12+014699999V0209991C000019999999N0000001N9-00171+99999100231ADDGF100991999999999999999999
0029028970999991926100513004+64217+027767FM-12+014699999V0202701N008719999999N0000001N9+00671+99999098991ADDGF104991999999999999999999
0029028970999991926100520004+64217+027767FM-12+014699999V0202701N006219999999N0000001N9+00221+99999099161ADDGF100991999999999999999999
0029028970999991926100613004+64217+027767FM-12+014699999V0203601N003119999999N0000001N9+00221+99999100261ADDGF100991999999999999999999
0029028970999991926100620004+64217+027767FM-12+014699999V0209991C000019999999N0000001N9-00221+99999100501ADDGF100991999999999999999999
0029028970999991926100713004+64217+027767FM-12+014699999V0202701N001019999999N0000001N9+00441+99999100431ADDGF104991999999999999999999
0029028970999991926100720004+64217+027767FM-12+014699999V0202701N004119999999N0000001N9+00061+99999100081ADDGF108991999999999999999999
0029028970999991926100813004+64217+027767FM-12+014699999V0201801N004119999999N0000001N9+00501+99999099141ADDGF108991999999999999999999
0029028970999991926100820004+64217+027767FM-12+014699999V0201801N001019999999N0000001N9+00671+99999098741ADDGF108991999999999999999999
0035028970999991926100913004+64217+027767FM-12+014699999V0201801N004119999999N0000001N9+00671+99999097781ADDGF108991999999999999999999MW1601
0029028970999991926100920004+64217+027767FM-12+014699999V0209991C000019999999N0000001N9+00721+99999097381ADDGF108991999999999999999999
0035028970999991926101013004+64217+027767FM-12+014699999V0201401N006219999999N0000001N9+00831+99999096261ADDGF108991999999999999999999MW1621
0029028970999991926101020004+64217+027767FM-12+014699999V0209991C000019999999N0000001N9+00831+99999095761ADDGF108991999999999999999999
0029028970999991926101113004+64217+027767FM-12+014699999V0202001N001019999999N0000001N9+00831+99999095201ADDGF108991999999999999999999
0029028970999991926101120004+64217+027767FM-12+014699999V0202701N002119999999N0000001N9+00331+99999095521ADDGF108991999999999999999999
0035028970999991926101213004+64217+027767FM-12+014699999V0202701N004119999999N0000001N9+00281+99999096421ADDGF108991999999999999999999MW1621
0035028970999991926101220004+64217+027767FM-12+014699999V0202701N004119999999N0000001N9+00281+99999096901ADDGF108991999999999999999999MW1621
0035028970999991926101313004+64217+027767FM-12+014699999V0202701N001019999999N0000001N9+00221+99999097311ADDGF108991999999999999999999MW1621
0029028970999991926101320004+64217+027767FM-12+014699999V0209991C000019999999N0000001N9+00111+99999097441ADDGF108991999999999999999999
0029028970999991926101413004+64217+027767FM-12+014699999V0209991C000019999999N0000001N9+00171+99999097621ADDGF108991999999999999999999
0029028970999991926101420004+64217+027767FM-12+014699999V0209991C000019999999N0000001N9+00001+99999097601ADDGF108991999999999999999999
0029028970999991926101513004+64217+027767FM-12+014699999V0200501N001019999999N0000001N9+00061+99999097551ADDGF108991999999999999999999
0029028970999991926101520004+64217+027767FM-12+014699999V0200501N004119999999N0000001N9-00061+99999097711ADDGF108991999999999999999999
0029028970999991926101613004+64217+027767FM-12+014699999V0209991C000019999999N0000001N9+00001+99999098241ADDGF108991999999999999999999
0029028970999991926101620004+64217+027767FM-12+014699999V0209991C000019999999N0000001N9-00171+99999098381ADDGF108991999999999999999999
0029028970999991926101713004+64217+027767FM-12+014699999V0209991C000019999999N0000001N9-00111+99999098501ADDGF104991999999999999999999
0029028970999991926101720004+64217+027767FM-12+014699999V0209991C000019999999N0000001N9-00331+99999098561ADDGF104991999999999999999999
0029028970999991926101813004+64217+027767FM-12+014699999V0202701N004119999999N0000001N9+00171+99999098561ADDGF104991999999999999999999
0029028970999991926101820004+64217+027767FM-12+014699999V0209991C000019999999N0000001N9-00281+99999098641ADDGF100991999999999999999999
0029028970999991926101913004+64217+027767FM-12+014699999V0209991C000019999999N0000001N9-00061+99999098861ADDGF108991999999999999999999
0029028970999991926101920004+64217+027767FM-12+014699999V0209991C000019999999N0000001N9-00111+99999098881ADDGF108991999999999999999999
0029028970999991926102013004+64217+027767FM-12+014699999V0200901N001019999999N0000001N9+00001+99999098911ADDGF108991999999999999999999
0029028970999991926102020004+64217+027767FM-12+014699999V0209991C000019999999N0000001N9-00061+99999098921ADDGF108991999999999999999999
