0070030910999991928010106004+57167-002100FM-12+002499999V0202001N00101220001CN0040001N9+00221+99999102331ADDAY101999GF102991999001999999021001MD1990061+9999EQDQ01+000002SCOTLC
0083030910999991928010206004+57167-002100FM-12+002499999V0202701N00261004501CN0040001N9+00611+99999099871ADDAA199009091AY161999GF108991081061004501999999EQDQ01+000042APCTENQ02+000062APC3  
0062030910999991928010306004+57167-002100FM-12+002499999V0202901N00461220001CN0040001N9+00221+99999101171ADDAA199001091AY101999GF101991011051012501001001MD1310341+9999
0062030910999991928010406004+57167-002100FM-12+002499999V0201801N00261030001CN0040001N9+00611+99999100401ADDAA199000591AY111999GF108991041061008001021001MD1710201+9999
0070030910999991928010506004+57167-002100FM-12+002499999V0202701N00931220001CN0100001N9+00391+99999100441ADDAY101999GF101991999001999999031001MD1310341+9999EQDQ01+000002SCOTLC
0087030910999991928010706004+57167-002100FM-12+002499999V0201801N00461004501CN0040001N9+00281+99999100331ADDAA199004091AY161999GF108991081061004501999999MD1810542+9999MW1611EQDQ01+000542APC3  
0062030910999991928010806004+57167-002100FM-12+002499999V0202501N00461220001CN0200001N9+00391+99999099031ADDAA199000591AY181999GF101991011091008001999001MD1210141+9999
0051030910999991928010906004+57167-002100FM-12+002499999V0201801N00461220001CN0040001N9+00281+99999099801ADDAY101999GF104991001001999999031081MD1990061+9999
0051030910999991928011006004+57167-002100FM-12+002499999V0202001N00461220001CN0100001N9+00391+99999099171ADDAY101999GF104991021011004501001081MD1710341+9999
0062030910999991928011106004+57167-002100FM-12+002499999V0202301N00461220001CN0200001N9+00221+99999099471ADDAA199000391AY101999GF101991011011008001001001MD1310341+9999
0087030910999991928011206004+57167-002100FM-12+002499999V0201601N00671004501CN0040001N9+00391+99999099901ADDAA199001091AY111999GF108991081061004501999999MD1810542+9999MW1611EQDQ01+000542APC3  
0070030910999991928011306004+57167-002100FM-12+002499999V0202001N00671220001CN0200001N9+00611+99999097891ADDAY111999GF102991999001999999031001MD1810201+9999EQDQ01+000002SCOTLC
0051030910999991928011406004+57167-002100FM-12+002499999V0209991C00001030001CN0040001N9+00391+99999099971ADDAY111999GF108991021051012501021001MD1310201+9999
0081030910999991928011606004+57167-002100FM-12+002499999V0203201N00461220001CN0200001N9+00391+99999099391ADDAA199005091AY161999GF104991999011008001001001MD1310401+9999EQDQ01+000012SCOTLC
0068030910999991928011706004+57167-002100FM-12+002499999V0200701N00671004501CN0100001N9+00391+99999100991ADDAA199007091AY161999GF108991081051004501999999MD1310261+9999MW1611
0070030910999991928011806004+57167-002100FM-12+002499999V0202001N00101220001CN0020001N9+00281+99999100561ADDAY161999GF101991011051999999021001MD1310141+9999EQDQ01+000992SCOLCB
0057030910999991928012006004+57167-002100FM-12+002499999V0201601N00931030001CN0040001N9+00721+99999101141ADDAY111999GF108991011061004501021001MD1710341+9999MW1231
0087030910999991928012106004+57167-002100FM-12+002499999V0201601N00671030001CN0040001N9+00721+99999100481ADDAA199000691AY111999GF107991041061004501021001MD1810542+9999MW1611EQDQ01+000542APC3  
0070030910999991928012206004+57167-002100FM-12+002499999V0202301N00101220001CN0040001N9+00281+99999100401ADDAY111999GF106991999001999999021001MD1310401+9999EQDQ01+000002SCOTLC
0051030910999991928012306004+57167-002100FM-12+002499999V0201801N00261030001CN0000501N9+00281+99999100861ADDAY161999GF108991041051012501021001MD1810141+9999
0081030910999991928012406004+57167-002100FM-12+002499999V0202001N00461220001CN0040001N9+00501+99999099131ADDAA199000591AY101999GF102991999001999999031001MD1710061+9999EQDQ01+000002SCOTLC
0070030910999991928012506004+57167-002100FM-12+002499999V0202501N00461220001CN0100001N9+00221+99999100571ADDAY101999GF101991999001999999031001MD1310341+9999EQDQ01+000002SCOTLC
0062030910999991928012606004+57167-002100FM-12+002499999V0202301N00671220001CN0100001N9+00281+99999099761ADDAA199000591AY101999GF101991011051012501001001MD1310201+9999
0068030910999991928012706004+57167-002100FM-12+002499999V0202901N00931007801CN0100001N9+00221+99999100521ADDAA199003091AY171999GF106991061091008001001001MD1310461+9999MW1231
0068030910999991928012806004+57167-002100FM-12+002499999V0202001N00461004501CN0100001N9+00281+99999100731ADDAA199000391AY161999GF108991081061004501999999MD1810461+9999MW1601
0051030910999991928012906004+57167-002100FM-12+002499999V0202001N00461220001CN0100001N9+00221+99999099931ADDAY101999GF104991021011004501001021MD1410001+9999
0083030910999991928013006004+57167-002100FM-12+002499999V0209991C00001030001CN0040001N9+00111+99999099431ADDAA199006091AY111999GF106991021051012501031001EQDQ01+000032APCTENQ02+000002APC3  
0070030910999991928013106004+57167-002100FM-12+002499999V0201801N00101220001CN0040001N9+00111+99999100121ADDAY101999GF101991999001999999031001MD1110061+9999EQDQ01+000002SCOTLC
0062030910999991928020106004+57167-002100FM-12+002499999V0202001N00461030001CN0200001N9+00391+99999097571ADDAA199000591AY111999GF106991021011008001031001MD1610201+9999
0051030910999991928020206004+57167-002100FM-12+002499999V0202301N00671030001CN0200001N9+00221+99999099141ADDAY101999GF106991021051012501031999MD1210141+9999
0070030910999991928020306004+57167-002100FM-12+002499999V0202901N00931030001CN0200001N9+00281+99999099721ADDAY111999GF107991021051012501031001MD1310542+9999EQDQ01+000542APC3  
0068030910999991928020406004+57167-002100FM-12+002499999V0201801N00671030001CN0100001N9+00391+99999101091ADDAA199000691AY161999GF108991041061004501021001MD1810341+9999MW1611
0081030910999991928020506004+57167-002100FM-12+002499999V0202001N00461220001CN0200001N9+00391+99999099951ADDAA199000691AY111999GF106991999001999999031001MD1210061+9999EQDQ01+000002SCOTLC
0062030910999991928020606004+57167-002100FM-12+002499999V0202301N00671220001CN0200001N9+00721+99999100901ADDAA199001091AY181999GF102991021011008001001001MD1310141+9999
0089030910999991928020706004+57167-002100FM-12+002499999V0202301N00461030001CN0100001N9+00781+99999100661ADDAA199000391AY161999GF108991041061004501021001MW1611EQDQ01+000042APCTENQ02+000142APC3  
0051030910999991928020806004+57167-002100FM-12+002499999V0202001N00671030001CN0200001N9+01001+99999101041ADDAY111999GF106991011051004501031001MD1710061+9999
0051030910999991928020906004+57167-002100FM-12+002499999V0202301N00671220001CN0200001N9+00501+99999100041ADDAY101999GF101991011011004501001021MD1210141+9999
0070030910999991928021006004+57167-002100FM-12+002499999V0201601N00461007801CN0040001N9+00391+99999099841ADDAY111999GF108991061051008001021001MD1810542+9999EQDQ01+000542APC3  
0068030910999991928021106004+57167-002100FM-12+002499999V0202501N00671007801CN0200001N9+00281+99999097041ADDAA199000691AY161999GF107991071061008001001001MD1610061+9999MW1601
0062030910999991928021206004+57167-002100FM-12+002499999V0209991C00001220001CN0200001N9+00111+99999099401ADDAA199000591AY181999GF102991021051012501001001MD1010001+9999
0051030910999991928021306004+57167-002100FM-12+002499999V0202301N00261220001CN0040001N9+00001+99999099551ADDAY101999GF104991011051012501031999MD1710061+9999
0062030910999991928021406004+57167-002100FM-12+002499999V0202501N00461220001CN0200001N9+00221+99999099311ADDAA199001091AY101999GF101991011051012501001001MD1310201+9999
0048030910999991928021506004+57167-002100FM-12+002499999V0201801N006719999999N0010001N9+00501+99999099671ADDAA199000691AY111999GF199999999999002501999999
0051030910999991928021606004+57167-002100FM-12+002499999V0209991C00001007801CN0040001N9+00501+99999099761ADDAY111999GF107991071051008001001001MD1810261+9999
0062030910999991928021706004+57167-002100FM-12+002499999V0202701N00931220001CN0200001N9+00281+99999099581ADDAA199000391AY181999GF106991001001999999031081MD1210401+9999
0051030910999991928021806004+57167-002100FM-12+002499999V0202001N00461012301CN0200001N9+00391+99999101701ADDAY111999GF108991081051012501999999MD1990061+9999
0051030910999991928021906004+57167-002100FM-12+002499999V0202701N00261007801CN0200001N9+00891+99999102261ADDAY101999GF106991061051008001031001MD1310201+9999
0072030910999991928022006004+57167-002100FM-12+002499999V0202001N00461220001CN0100001N9+00501+99999103011ADDAY101999GF102991011051008001021001EQDQ01+000032APCTENQ02+000002APC3  
0051030910999991928022106004+57167-002100FM-12+002499999V0202001N00261220001CN0020001N9+00391+99999102701ADDAY101999GF101991011051002501001001MD1110061+9999
0051030910999991928022206004+57167-002100FM-12+002499999V0202901N00261012301CN0200001N9+00781+99999102841ADDAY111999GF108991081051012501999999MD1310201+9999
0057030910999991928022306004+57167-002100FM-12+002499999V0202901N00261220001CN0005001N9-00221+99999103761ADDAY101999GF100991001001999999001001MD1610061+9999MW1461
0072030910999991928022406004+57167-002100FM-12+002499999V0201601N00671030001CN0040001N9+00501+99999102871ADDAY111999GF108991021051004501031001EQDQ01+000032APCTENQ02+000002APC3  
0081030910999991928022506004+57167-002100FM-12+002499999V0202001N00101220001CN0040001N9+00111+99999102571ADDAA199000691AY111999GF102991999001999999021001MD1310141+9999EQDQ01+000002SCOTLC
0105030910999991928022606004+57167-002100FM-12+002499999V0209991C00001220001CN0020001N9+00111+99999102841ADDAA199000691AY141999GF101991999001999999031001MW1421EQDQ01+000002SCOTLCQ02+000032APCTENQ03+000002APC3  
0072030910999991928022706004+57167-002100FM-12+002499999V0201601N00461001501CN0020001N9+00391+99999102801ADDAY141999GF108991081051001501999999EQDQ01+000032APCTENQ02+000002APC3  
0062030910999991928022806004+57167-002100FM-12+002499999V0201601N00461002401CN0040001N9+00391+99999102601ADDAA199000691AY111999GF107991071051002501001001MD1610061+9999
0070030910999991928022906004+57167-002100FM-12+002499999V0201401N012319999999N0040001N9+00391+99999101871ADDAY111999GF108991999051004501001001MD1810141+9999EQDQ01+000042SCOTLC
0037030910999991928060506004+57167-002100FM-12+002499999V0202901N002619999999N0200001N9+00721+99999101601ADDAY111999GF106991999999012501999999
0068030910999991928061006004+57167-002100FM-12+002499999V0203401N00261001501CN0040001N9+00891+99999098501ADDAA199003091AY161999GF108991081061001501999999MD1410001+9999MW1211
0051030910999991928061106004+57167-002100FM-12+002499999V0202701N00671220001CN0200001N9+00891+99999100301ADDAY111999GF104991011011008001031001MD1310341+9999
0062030910999991928061206004+57167-002100FM-12+002499999V0203201N00461220001CN0200001N9+00221+99999101831ADDAA199002091AY101999GF101991011011008001031001MD1310201+9999
0051030910999991928061506004+57167-002100FM-12+002499999V0202901N00671075001CN0200001N9+00781+99999101441ADDAY111999GF106991041011008001001081MD1210061+9999
0051030910999991928061606004+57167-002100FM-12+002499999V0202901N00671220001CN0200001N9+00781+99999101991ADDAY101999GF104991011011008001031001MD1010061+9999
0068030910999991928061706004+57167-002100FM-12+002499999V0202901N00461007801CN0200001N9+01001+99999101151ADDAA199000691AY111999GF108991061061008001031001MD1810141+9999MW1601
0083030910999991928061806004+57167-002100FM-12+002499999V0202901N00461007801CN0200001N9+00781+99999100871ADDAA199000691AY181999GF107991071091008001001001EQDQ01+000022APCTENQ02+000002APC3  
0062030910999991928062006004+57167-002100FM-12+002499999V0203201N00461220001CN0200001N9+01001+99999100921ADDAA199000691AY101999GF102991021011008001001001MD1310141+9999
0081030910999991928062706004+57167-002100FM-12+002499999V0203201N00671004501CN0200001N9+01001+99999999999ADDAA199000691AY101999GF107991999011004501001001MD1310261+9999EQDQ01+000062SCOTLC
0051030910999991928070106004+57167-002100FM-12+002499999V0202501N00461075001CN0200001N9+01281+99999100801ADDAY101999GF106991011051012501001091MD1310141+9999
0068030910999991928070406004+57167-002100FM-12+002499999V0202901N00261030001CN0200001N9+01001+99999101321ADDAA199003091AY161999GF107991021091008001021001MD1110061+9999MW1211
0089030910999991928070606004+57167-002100FM-12+002499999V0202701N00261007801CN0200001N9+01221+99999099701ADDAA199004091AY161999GF106991061091008001021001MW1211EQDQ01+000042APCTENQ02+000062APC3  
0062030910999991928070706004+57167-002100FM-12+002499999V0202901N00461220001CN0200001N9+01111+99999101911ADDAA199000691AY101999GF104991041011008001001001MD1310261+9999
0051030910999991928071106004+57167-002100FM-12+002499999V0202301N00461220001CN0200001N9+01781+99999100921ADDAY111999GF104991011011008001031001MD1210141+9999
0062030910999991928071606004+57167-002100FM-12+002499999V0203201N00101220001CN0200001N9+01281+99999102631ADDAA199000591AY101999GF102991021051012501031001MD1310141+9999
0083030910999991928071806004+57167-002100FM-12+002499999V0202901N00461007801CN0200001N9+01611+99999101731ADDAA199000691AY111999GF107991061011008001031001EQDQ01+000042APCTENQ02+000062APC3  
0072030910999991928071906004+57167-002100FM-12+002499999V0202501N00261030001CN0200001N9+01281+99999101971ADDAY111999GF107991021051012501021001EQDQ01+000032APCTENQ02+000002APC3  
0051030910999991928072006004+57167-002100FM-12+002499999V0202701N00261075001CN0200001N9+01501+99999101631ADDAY111999GF106991041051008001001081MD1110061+9999
0051030910999991928072106004+57167-002100FM-12+002499999V0202901N00461007801CN0200001N9+01391+99999101911ADDAY101999GF106991061051008001001001MD1310201+9999
0051030910999991928072206004+57167-002100FM-12+002499999V0202901N00101220001CN0200001N9+01391+99999101831ADDAY101999GF104991011051012501031001MD1310061+9999
0051030910999991928072306004+57167-002100FM-12+002499999V0202501N00261002401CN0020001N9+01221+99999101871ADDAY121999GF108991081051002501999999MD1810061+9999
0088030910999991928072506004+57167-002100FM-12+002499999V0202501N00261220001CN0200001N9+01391+99999101101ADDAY111999GF104991999011008001001001EQDQ01+000012SCOTLCQ02+000032APCTENQ03+000002APC3  
0070030910999991928072606004+57167-002100FM-12+002499999V0202501N002619999999N0200001N9+01501+99999100861ADDAY111999GF106991999011008001001001MD1210061+9999EQDQ01+000012SCOTLC
0051030910999991928072806004+57167-002100FM-12+002499999V0202701N00461220001CN0200001N9+01111+99999100071ADDAY111999GF101991011051012501001001MD1810141+9999
0081030910999991928072906004+57167-002100FM-12+002499999V0202901N004619999999N0200001N9+00891+99999100061ADDAA199000591AY111999GF107991999011008001001001MD1310061+9999EQDQ01+000012SCOTLC
0062030910999991928073006004+57167-002100FM-12+002499999V0202901N00671030001CN0200001N9+01221+99999100161ADDAA199001091AY181999GF106991041061004501031001MD1810201+9999
0062030910999991928073106004+57167-002100FM-12+002499999V0202901N00671220001CN0200001N9+00781+99999101041ADDAA199000691AY101999GF101991011011008001001021MD1310141+9999
0062030910999991928080106004+57167-002100FM-12+002499999V0203201N00461220001CN0200001N9+00781+99999101871ADDAA199000691AY101999GF101991011051012501001001MD1310141+9999
0105030910999991928080406004+57167-002100FM-12+002499999V0203401N00261220001CN0100001N9+01391+99999101771ADDAA199000691AY111999GF108991999001999999021001MW1601EQDQ01+000002SCOTLCQ02+000042APCTENQ03+000062APC3  
0088030910999991928080806004+57167-002100FM-12+002499999V0202901N00461220001CN0200001N9+01281+99999100501ADDAY101999GF104991999001999999031001EQDQ01+000002SCOTLCQ02+000032APCTENQ03+000002APC3  
0051030910999991928080906004+57167-002100FM-12+002499999V0202501N00461220001CN0200001N9+01501+99999100831ADDAY101999GF101991011011008001031001MD1310141+9999
0070030910999991928081006004+57167-002100FM-12+002499999V0202501N00461220001CN0200001N9+01391+99999101491ADDAY101999GF102991999001999999031001MD1210141+9999EQDQ01+000002SCOTLC
0081030910999991928081606004+57167-002100FM-12+002499999V0202901N004619999999N0200001N9+01221+99999101321ADDAA199002091AY111999GF107991999011008001001001MD1310201+9999EQDQ01+000012SCOTLC
0081030910999991928081706004+57167-002100FM-12+002499999V0202901N002619999999N0200001N9+01221+99999101771ADDAA199001091AY111999GF107991999011008001001001MD1310141+9999EQDQ01+000012SCOTLC
0081030910999991928082806004+57167-002100FM-12+002499999V0203201N001019999999N0200001N9+01111+99999100121ADDAA199000691AY111999GF107991999011008001001001MD1310141+9999EQDQ01+000012SCOTLC
0087030910999991928090106004+57167-002100FM-12+002499999V0203201N00101220001CN0010001N9+00501+99999102271ADDAA199000691AY101999GF101991999001999999031001MD1110061+9999MW1461EQDQ01+000002SCOTLC
0062030910999991928090306004+57167-002100FM-12+002499999V0201801N00461012301CN0100001N9+01391+99999101131ADDAA199003091AY161999GF108991071051012501021001MD1710061+9999
0048030910999991928090406004+57167-002100FM-12+002499999V0202901N001019999999N0100001N9+01281+99999101181ADDAA199001091AY161999GF199999999999004501999999
0068030910999991928090506004+57167-002100FM-12+002499999V0203401N00101002401CN0040001N9+01221+99999100901ADDAA199003091AY161999GF108991081061002501999999MD1410001+9999MW1511
0087030910999991928090606004+57167-002100FM-12+002499999V0203401N006719999999N0200001N9+01111+99999100771ADDAA199012091AY161999GF106991999061004501001001MD1310261+9999MW1211EQDQ01+000022SCOTLC
0089030910999991928090706004+57167-002100FM-12+002499999V0201801N00261030001CN0100001N9+01281+99999101391ADDAA199001091AY161999GF108991011061004501021001MW1601EQDQ01+000032APCTENQ02+000002APC3  
0051030910999991928090806004+57167-002100FM-12+002499999V0202001N00101220001CN0040001N9+01281+99999101131ADDAY101999GF101991011051001501001091MD1210201+9999
0068030910999991928090906004+57167-002100FM-12+002499999V0200901N00101000151CN0005001N9+01221+99999100921ADDAA199009091AY161999GF108991081061000251999999MD1810061+9999MW1631
0062030910999991928091106004+57167-002100FM-12+002499999V0202701N00461220001CN0200001N9+00891+99999101931ADDAA199000391AY101999GF101991001001999999001021MD1310261+9999
0070030910999991928091306004+57167-002100FM-12+002499999V0203201N00101220001CN0020001N9+00891+99999102631ADDAY101999GF101991999001999999031001MD1310061+9999EQDQ01+000002SCOTLC
0072030910999991928091406004+57167-002100FM-12+002499999V0201801N00261220001CN0040001N9+01221+99999102631ADDAY101999GF100991001001999999001001EQDQ01+000042APCTENQ02+000062APC3  
0076030910999991928091506004+57167-002100FM-12+002499999V0202901N00461004501CN0200001N9+01001+99999103031ADDAY161999GF107991999061004501001001MD1310141+9999MW1601EQDQ01+000062SCOTLC
0051030910999991928091606004+57167-002100FM-12+002499999V0202001N00261220001CN0100001N9+01001+99999102521ADDAY101999GF104991001001999999031021MD1810141+9999
0068030910999991928091706004+57167-002100FM-12+002499999V0202701N00261004501CN0040001N9+01221+99999999999ADDAA199004091AY161999GF108991081061004501999999MD1810141+9999MW1631
0062030910999991928091806004+57167-002100FM-12+002499999V0202001N00101220001CN0100001N9+01111+99999101141ADDAA199000691AY101999GF101991011011004501001021MD1310261+9999
0072030910999991928091906004+57167-002100FM-12+002499999V0209991C00001220001CN0200001N9+00501+99999101731ADDAY101999GF101991011051012501001001EQDQ01+000032APCTENQ02+000002APC3  
0056030910999991928092006004+57167-002100FM-12+002499999V0202001N00461220001CN0200001N9+99999+99999999999ADDAY101999GF102991999011008001001001EQDQ01+000012SCOTLC
0051030910999991928092206004+57167-002100FM-12+002499999V0202901N00461007801CN0200001N9+00721+99999103201ADDAY111999GF108991081051008001999999MD1310061+9999
0068030910999991928092306004+57167-002100FM-12+002499999V0203201N00261007801CN0100001N9+00781+99999102691ADDAA199000691AY161999GF108991061061008001021001MD1810201+9999MW1601
0081030910999991928092506004+57167-002100FM-12+002499999V0203401N00461004501CN0100001N9+00781+99999101711ADDAA199009091AY111999GF107991999061004501001001MD1310201+9999EQDQ01+000062SCOTLC
0062030910999991928092606004+57167-002100FM-12+002499999V0203201N00461007801CN0200001N9+00781+99999102121ADDAA199000691AY111999GF106991061051008001001001MD1310141+9999
0051030910999991928092706004+57167-002100FM-12+002499999V0202901N00461007801CN0200001N9+00781+99999101351ADDAY111999GF107991071051008001001001MD1810061+9999
0068030910999991928092806004+57167-002100FM-12+002499999V0203601N00671030001CN0200001N9+00611+99999101491ADDAA199006091AY161999GF106991041061008001031001MD1310261+9999MW1211
0072030910999991928092906004+57167-002100FM-12+002499999V0202901N00261220001CN0200001N9+00281+99999101761ADDAY111999GF106991999001999999031001EQDQ01+000002SCOTLCQ02+000002APC3  
0062030910999991928093006004+57167-002100FM-12+002499999V0203201N00461220001CN0200001N9+00391+99999101761ADDAA199000591AY181999GF101991011091008001001001MD1310141+9999
0051030910999991928100106004+57167-002100FM-12+002499999V0202701N00101220001CN0040001N9+00221+99999102031ADDAY101999GF102991001001999999001081MD1810061+9999
0062030910999991928100206004+57167-002100FM-12+002499999V0202901N00261012301CN0040001N9+00781+99999102001ADDAA199000691AY111999GF107991071051012501001001MD1310201+9999
0051030910999991928100306004+57167-002100FM-12+002499999V0203201N00261220001CN0020001N9+00221+99999102521ADDAY101999GF100991001001999999001001MD1310061+9999
0078030910999991928100406004+57167-002100FM-12+002499999V0201801N00261007801CN0010001N9+00891+99999102331ADDAY141999GF107991071051008001001001MW1101EQDQ01+000022APCTENQ02+000002APC3  
0051030910999991928100506004+57167-002100FM-12+002499999V0201601N00671007801CN0040001N9+01111+99999101751ADDAY111999GF106991061051008001021001MD1810061+9999
0081030910999991928100606004+57167-002100FM-12+002499999V0202301N001019999999N0040001N9+01111+99999101171ADDAA199055091AY161999GF107991999061008001001001MD1410001+9999EQDQ01+000022SCOTLC
0068030910999991928100706004+57167-002100FM-12+002499999V0202001N00261030001CN0200001N9+01001+99999101671ADDAA199000691AY161999GF107991041061008001021001MD1810061+9999MW1601
0068030910999991928100806004+57167-002100FM-12+002499999V0201801N00261004501CN0040001N9+01281+99999100461ADDAA199000591AY161999GF107991061061004501021001MD1710061+9999MW1601
0051030910999991928100906004+57167-002100FM-12+002499999V0202501N00261030001CN0100001N9+00781+99999099801ADDAY101999GF106991011051008001031001MD1510061+9999
0062030910999991928101006004+57167-002100FM-12+002499999V0201601N00261220001CN0200001N9+00891+99999999999ADDAA199000591AY101999GF101991011011008001001021MD1310341+9999
0062030910999991928101106004+57167-002100FM-12+002499999V0200901N00671030001CN0200001N9-01781+99999101071ADDAA199000591AY181999GF106991011011004501031001MD1710141+9999
0062030910999991928101206004+57167-002100FM-12+002499999V0202901N00101220001CN0040001N9+00281+99999101631ADDAA199001091AY101999GF102991021011008001001001MD1310141+9999
0087030910999991928101306004+57167-002100FM-12+002499999V0203201N00461220001CN0200001N9+00611+99999102081ADDAA199000391AY181999GF104991999061004501001001MD1310061+9999MW1601EQDQ01+000022SCOTLC
0070030910999991928101406004+57167-002100FM-12+002499999V0203201N001019999999N0100001N9+00391+99999102241ADDAY181999GF107991999061004501001001MD1610141+9999EQDQ01+000042SCOTLC
0062030910999991928101506004+57167-002100FM-12+002499999V0201601N00261030001CN0020001N9+00891+99999101461ADDAA199000691AY111999GF107991021061008001021001MD1210061+9999
0068030910999991928101606004+57167-002100FM-12+002499999V0201801N00671004501CN0040001N9+00891+99999100991ADDAA199000691AY161999GF108991081061004501999999MD1810201+9999MW1601
0081030910999991928101706004+57167-002100FM-12+002499999V0202301N00101220001CN0100001N9+00781+99999100731ADDAA199006091AY161999GF102991999001999999031001MD1310261+9999EQDQ01+000002SCOTLC
0062030910999991928101806004+57167-002100FM-12+002499999V0201801N00101030001CN0040001N9+00891+99999100431ADDAA199000691AY111999GF106991041051004501021001MD1710261+9999
0081030910999991928101906004+57167-002100FM-12+002499999V0202001N00261220001CN0200001N9+00781+99999098911ADDAA199005091AY101999GF102991011011008001031001MD1310602+9999EQDQ01+000602APC3  
0062030910999991928102006004+57167-002100FM-12+002499999V0201601N01231007801CN0100001N9+01111+99999096831ADDAA199013091AY161999GF107991071061008001001001MD1510461+9999
0051030910999991928102106004+57167-002100FM-12+002499999V0202001N00261220001CN0200001N9+00611+99999099171ADDAY101999GF102991011051017501001021MD1710141+9999
0062030910999991928102206004+57167-002100FM-12+002499999V0202701N00101220001CN0020001N9+00611+99999099501ADDAA199000391AY101999GF102991021011008001001021MD1310061+9999
0062030910999991928102306004+57167-002100FM-12+002499999V0202501N00101220001CN0040001N9-00111+99999099681ADDAA199000691AY101999GF101991011091008001031001MD1310061+9999
0062030910999991928102406004+57167-002100FM-12+002499999V0201801N00671220001CN0100001N9+01111+99999098471ADDAA199003091AY181999GF104991041051008001001091MD1710061+9999
0062030910999991928102506004+57167-002100FM-12+002499999V0202001N00261220001CN0200001N9+00891+99999099281ADDAA199000691AY111999GF102991011051012501031001MD1310461+9999
0068030910999991928102606004+57167-002100FM-12+002499999V0201601N00671030001CN0100001N9+00891+99999099271ADDAA199000691AY101999GF106991021061004501031001MD1810261+9999MW1601
0081030910999991928102706004+57167-002100FM-12+002499999V0200201N00101030001CN0040001N9+01001+99999100351ADDAA199000591AY121999GF107991021051008001031001MD1310542+9999EQDQ01+000542APC3  
0062030910999991928102806004+57167-002100FM-12+002499999V0202701N00461220001CN0200001N9+00611+99999100641ADDAA199001091AY101999GF101991011091008001001021MD1710061+9999
0083030910999991928102906004+57167-002100FM-12+002499999V0202901N00101220001CN0100001N9+00391+99999100551ADDAA199000691AY101999GF104991011051012501031001EQDQ01+000022APCTENQ02+000002APC3  
0089030910999991928103006004+57167-002100FM-12+002499999V0202301N00261030001CN0040001N9+00891+99999099111ADDAA199005091AY161999GF107991041061008001021001MW1601EQDQ01+000042APCTENQ02+000202APC3  
0087030910999991928103106004+57167-002100FM-12+002499999V0202901N00261004501CN0040001N9+00781+99999099861ADDAA199002091AY161999GF108991081061004501999999MD1310542+9999MW1601EQDQ01+000542APC3  
0087030910999991928110106004+57167-002100FM-12+002499999V0203201N004619999999N0200001N9+00501+99999102311ADDAA199001091AY111999GF106991999011008001001001MD1310201+9999MW1161EQDQ01+000012SCOTLC
0068030910999991928110206004+57167-002100FM-12+002499999V0203601N00671007801CN0100001N9+00501+99999102021ADDAA199001091AY181999GF106991061091008001001001MD1810061+9999MW1621
0057030910999991928110306004+57167-002100FM-12+002499999V0200501N00671004501CN0100001N9+00611+99999101331ADDAY161999GF108991081061004501999999MD1610061+9999MW1621
0062030910999991928110506004+57167-002100FM-12+002499999V0203201N00261220001CN0040001N9+00391+99999101171ADDAA199000591AY111999GF104991041011008001031001MD1310061+9999
0105030910999991928110606004+57167-002100FM-12+002499999V0203201N004619999999N0100001N9+00611+99999101501ADDAA199000591AY181999GF107991999061008001001001MW1801EQDQ01+000022SCOTLCQ02+000032APCTENQ03+000002APC3  
0051030910999991928110706004+57167-002100FM-12+002499999V0203201N00461030001CN0200001N9+00391+99999101471ADDAY111999GF107991041011008001031001MD1310061+9999
0051030910999991928110806004+57167-002100FM-12+002499999V0203201N00461220001CN0100001N9+00111+99999101701ADDAY101999GF101991011011008001001001MD1310061+9999
0072030910999991928110906004+57167-002100FM-12+002499999V0203201N00261220001CN0040001N9-00281+99999102081ADDAY101999GF100991001001999999001001EQDQ01+000032APCTENQ02+000002APC3  
0051030910999991928111106004+57167-002100FM-12+002499999V0202301N00261220001CN0200001N9+00501+99999100831ADDAY101999GF102991011051012501001081MD1010001+9999
0072030910999991928111306004+57167-002100FM-12+002499999V0202301N00261220001CN0200001N9+00781+99999099941ADDAY101999GF102991011011004501031001EQDQ01+000022APCTENQ02+000002APC3  
0051030910999991928111406004+57167-002100FM-12+002499999V0209991C00001220001CN0100001N9+00391+99999100371ADDAY101999GF102991021051004501001001MD1410001+9999
0062030910999991928111606004+57167-002100FM-12+002499999V0202301N00261220001CN0100001N9+00391+99999097941ADDAA199000691AY101999GF101991011011008001031001MD1010061+9999
0089030910999991928111706004+57167-002100FM-12+002499999V0202701N00461220001CN0200001N9+00611+99999097221ADDAA199001091AY161999GF102991021011008001031001MW1211EQDQ01+000042APCTENQ02+000062APC3  
0062030910999991928111806004+57167-002100FM-12+002499999V0202701N00671220001CN0200001N9+00611+99999099761ADDAA199001091AY101999GF101991011051008001001001MD1310461+9999
0068030910999991928111906004+57167-002100FM-12+002499999V0201601N00671004501CN0020001N9+01001+99999099351ADDAA199004091AY161999GF108991081061004501999999MD1810341+9999MW1601
0081030910999991928112406004+57167-002100FM-12+002499999V0202901N00931220001CN0200001N9+00391+99999097631ADDAA199007091AY161999GF101991011051012501021001MD1310602+9999EQDQ01+000602APC3  
0092030910999991928112506004+57167-002100FM-12+002499999V0202701N009319999999N0200001N9+00781+99999096901ADDAY161999GF106991999051002501001001MD1990862+9999MW1211EQDQ01+000012SCOTLCQ02+000862APC3  
0068030910999991928112606004+57167-002100FM-12+002499999V0202901N00931220001CN0200001N9+00501+99999099181ADDAA199000591AY181999GF104991041091008001001001MD1310401+9999MW1831
0051030910999991928112706004+57167-002100FM-12+002499999V0203201N00671220001CN0200001N9+00281+99999099831ADDAY101999GF101991011091008001031001MD1310201+9999
0068030910999991928112806004+57167-002100FM-12+002499999V0203201N00461030001CN0100001N9+00221+99999102201ADDAA199005091AY181999GF106991041091004501031001MD1310341+9999MW1831
0068030910999991928112906004+57167-002100FM-12+002499999V0209991C00001004501CN0010001N9+00611+99999101871ADDAA199000691AY161999GF108991081061004501999999MD1810141+9999MW1601
0051030910999991928113006004+57167-002100FM-12+002499999V0202901N00671030001CN0100001N9+01221+99999101801ADDAY111999GF107991041051012501031001MD1310141+9999
0051030910999991928120106004+57167-002100FM-12+002499999V0203201N00671220001CN0200001N9+00891+99999102301ADDAY111999GF104991021011008001031001MD1210201+9999
0070030910999991928120206004+57167-002100FM-12+002499999V0202901N00261220001CN0100001N9-00111+99999102641ADDAY101999GF101991999001999999031001MD1010141+9999EQDQ01+000002SCOTLC
0062030910999991928120306004+57167-002100FM-12+002499999V0202501N00261220001CN0040001N9+00391+99999102381ADDAA199000391AY111999GF104991001001999999031081MD1310341+9999
0051030910999991928120406004+57167-002100FM-12+002499999V0202001N00461007801CN0040001N9+00391+99999102211ADDAY111999GF108991061051008001021001MD1810341+9999
0051030910999991928120506004+57167-002100FM-12+002499999V0202301N00461220001CN0100001N9+00781+99999101041ADDAY111999GF101991011051012501001001MD1210061+9999
0087030910999991928120706004+57167-002100FM-12+002499999V0202901N01231030001CN0100001N9+00111+99999100101ADDAA199002091AY171999GF106991041091008001021001MD1210662+9999MW1721EQDQ01+000662APC3  
0062030910999991928120806004+57167-002100FM-12+002499999V0202901N00671220001CN0100001N9+00111+99999101261ADDAA199001091AY181999GF101991011091008001001001MD1210141+9999
0051030910999991928120906004+57167-002100FM-12+002499999V0202301N00101030001CN0200001N9+00001+99999100971ADDAY101999GF107991011051008001021001MD1810201+9999
0051030910999991928121106004+57167-002100FM-12+002499999V0201401N00671007801CN0100001N9+00611+99999099671ADDAY111999GF108991081051008001999999MD1310201+9999
0068030910999991928121206004+57167-002100FM-12+002499999V0201101N00931004501CN0040001N9+00391+99999100921ADDAA199000391AY161999GF108991081061004501999999MD1310201+9999MW1601
0062030910999991928121306004+57167-002100FM-12+002499999V0201101N00671007801CN0200001N9+00391+99999101931ADDAA199001091AY181999GF107991071051008001001001MD1310141+9999
0051030910999991928121406004+57167-002100FM-12+002499999V0200901N00261015001CN0100001N9+00221+99999101801ADDAY111999GF107991071051017501001001MD1810061+9999
0068030910999991928121606004+57167-002100FM-12+002499999V0201601N00931007801CN0040001N9+00391+99999101511ADDAA199000591AY161999GF108991061061008001021001MD1810401+9999MW1601
0062030910999991928121706004+57167-002100FM-12+002499999V0202501N00261220001CN0100001N9+00501+99999101571ADDAA199004091AY111999GF101991011051012501001001MD1310261+9999
0072030910999991928121806004+57167-002100FM-12+002499999V0202501N00261220001CN0040001N9-00111+99999102831ADDAY101999GF102991001001999999001021EQDQ01+000032APCTENQ02+000002APC3  
0062030910999991928121906004+57167-002100FM-12+002499999V0209991C00001220001CN0040001N9+00221+99999102331ADDAA199006091AY161999GF101991011051012501001001MD1310061+9999
0062030910999991928122006004+57167-002100FM-12+002499999V0203201N00461220001CN0200001N9+00221+99999101721ADDAA199003091AY111999GF101991011051012501001001MD1310061+9999
0072030910999991928122106004+57167-002100FM-12+002499999V0209991C00001220001CN0040001N9+00111+99999102101ADDAY111999GF106991999001999999031001EQDQ01+000002SCOTLCQ02+000002APC3  
0070030910999991928122206004+57167-002100FM-12+002499999V0202001N00261220001CN0040001N9+00221+99999101351ADDAY101999GF104991999001999999031001MD1810201+9999EQDQ01+000002SCOTLC
0076030910999991928122306004+57167-002100FM-12+002499999V0202501N00261220001CN0200001N9+00221+99999102341ADDAY101999GF101991999001999999031001MD1210061+9999MW1891EQDQ01+000002SCOTLC
0057030910999991928122406004+57167-002100FM-12+002499999V0201601N00461004501CN0040001N9+00781+99999100151ADDAY161999GF108991081061004501999999MD1810261+9999MW1611
0051030910999991928122506004+57167-002100FM-12+002499999V0202701N00261220001CN0010001N9+00221+99999100701ADDAY101999GF101991999999017501999999MD1310141+9999
0051030910999991928122706004+57167-002100FM-12+002499999V0202901N00671220001CN0200001N9+00221+99999101311ADDAY101999GF101991011091012501001001MD1310261+9999
0051030910999991928122806004+57167-002100FM-12+002499999V0203201N00461012301CN0100001N9-00111+99999101411ADDAY101999GF106991061051012501001001MD1810061+9999
0068030910999991928122906004+57167-002100FM-12+002499999V0201101N00931004501CN0100001N9+00391+99999100031ADDAA199001091AY161999GF108991081061004501999999MD1810401+9999MW1611
0076030910999991928123006004+57167-002100FM-12+002499999V0200901N01541004501CN0200001N9+00281+99999100231ADDAY171999GF107991999091004501001001MD1310061+9999MW1681EQDQ01+000062SCOTLC
0051030910999991928123106004+57167-002100FM-12+002499999V0200501N00931220001CN0200001N9+00281+99999101601ADDAY101999GF102991021011008001001001MD1310261+9999
