0035028970999991921010106004+64217+027767FM-12+014699999V0209991C000019999999N0000001N9-01561+99999104641ADDGF108991999999999999999999MW1481
0035028970999991921010113004+64217+027767FM-12+014699999V0209991C000019999999N0000001N9-01611+99999100272ADDGF108991999999999999999999MW1481
0029028970999991921010120004+64217+027767FM-12+014699999V0209991C000019999999N0000001N9-01831+99999100351ADDGF108991999999999999999999
0029028970999991921010206004+64217+027767FM-12+014699999V0209991C000019999999N0000001N9-02221+99999100351ADDGF108991999999999999999999
0029028970999991921010213004+64217+027767FM-12+014699999V0203201N003119999999N0000001N9-02391+99999100581ADDGF100991999999999999999999
0029028970999991921010220004+64217+027767FM-12+014699999V0203201N007219999999N0000001N9-02561+99999100641ADDGF100991999999999999999999
0029028970999991921010306004+64217+027767FM-12+014699999V0203201N007219999999N0000001N9-01831+99999100721ADDGF108991999999999999999999
0029028970999991921010313004+64217+027767FM-12+014699999V0200901N005119999999N0000001N9-01391+99999100751ADDGF108991999999999999999999
0029028970999991921010320004+64217+027767FM-12+014699999V0200901N007219999999N0000001N9-01281+99999100921ADDGF108991999999999999999999
0029028970999991921010406004+64217+027767FM-12+014699999V0200901N008719999999N0000001N9-01171+99999100831ADDGF108991999999999999999999
0029028970999991921010413004+64217+027767FM-12+014699999V0200901N005119999999N0000001N9-01221+99999100671ADDGF108991999999999999999999
0029028970999991921010420004+64217+027767FM-12+014699999V0200901N007219999999N0000001N9-01501+99999100231ADDGF108991999999999999999999
0029028970999991921010506004+64217+027767FM-12+014699999V0200901N007219999999N0000001N9-01281+99999099301ADDGF108991999999999999999999
0035028970999991921010513004+64217+027767FM-12+014699999V0200901N007219999999N0000001N9-00891+99999098721ADDGF108991999999999999999999MW1721
0029028970999991921010520004+64217+027767FM-12+014699999V0200901N005119999999N0000001N9-01061+99999098591ADDGF108991999999999999999999
0029028970999991921010606004+64217+027767FM-12+014699999V0209991C000019999999N0000001N9-01611+99999098801ADDGF100991999999999999999999
0029028970999991921010613004+64217+027767FM-12+014699999V0201601N003119999999N0000001N9-00781+99999098621ADDGF108991999999999999999999
0029028970999991921010620004+64217+027767FM-12+014699999V0201601N003119999999N0000001N9-00501+99999098301ADDGF108991999999999999999999
0029028970999991921010706004+64217+027767FM-12+014699999V0209991C000019999999N0000001N9+00001+99999097681ADDGF108991999999999999999999
0029028970999991921010713004+64217+027767FM-12+014699999V0202501N008719999999N0000001N9+00111+99999097071ADDGF108991999999999999999999
0029028970999991921010720004+64217+027767FM-12+014699999V0202501N007219999999N0000001N9+00111+99999097301ADDGF108991999999999999999999
0029028970999991921010806004+64217+027767FM-12+014699999V0202501N011819999999N0000001N9-00061+99999098001ADDGF100991999999999999999999
0029028970999991921010813004+64217+027767FM-12+014699999V0202901N011819999999N0000001N9-00061+99999098461ADDGF102991999999999999999999
0029028970999991921010820004+64217+027767FM-12+014699999V0209991C000019999999N0000001N9-00281+99999098481ADDGF108991999999999999999999
0035028970999991921010906004+64217+027767FM-12+014699999V0209991C000019999999N0000001N9-00111+99999097401ADDGF108991999999999999999999MW1721
0029028970999991921010913004+64217+027767FM-12+014699999V0202701N005119999999N0000001N9-00111+99999097221ADDGF108991999999999999999999
0029028970999991921010920004+64217+027767FM-12+014699999V0209991C000019999999N0000001N9-00221+99999097321ADDGF108991999999999999999999
0029028970999991921011006004+64217+027767FM-12+014699999V0209991C000019999999N0000001N9-00781+99999097201ADDGF102991999999999999999999
0029028970999991921011013004+64217+027767FM-12+014699999V0200901N007219999999N0000001N9-00721+99999097081ADDGF108991999999999999999999
0029028970999991921011020004+64217+027767FM-12+014699999V0200901N005119999999N0000001N9-00781+99999097201ADDGF108991999999999999999999
0029028970999991921011106004+64217+027767FM-12+014699999V0200901N003119999999N0000001N9-00781+99999097361ADDGF108991999999999999999999
0029028970999991921011113004+64217+027767FM-12+014699999V0200701N005119999999N0000001N9-01001+99999097561ADDGF108991999999999999999999
0029028970999991921011120004+64217+027767FM-12+014699999V0200901N003119999999N0000001N9-01611+99999097711ADDGF100991999999999999999999
0029028970999991921011206004+64217+027767FM-12+014699999V0209991C000019999999N0000001N9-02001+99999098071ADDGF100991999999999999999999
0029028970999991921011213004+64217+027767FM-12+014699999V0209991C000019999999N0000001N9-02441+99999098431ADDGF108991999999999999999999
0029028970999991921011220004+64217+027767FM-12+014699999V0209991C000019999999N0000001N9-02561+99999098791ADDGF100991999999999999999999
0029028970999991921011306004+64217+027767FM-12+014699999V0200901N007219999999N0000001N9-02891+99999099001ADDGF108991999999999999999999
0029028970999991921011313004+64217+027767FM-12+014699999V0202301N008719999999N0000001N9-01671+99999098941ADDGF108991999999999999999999
0029028970999991921011320004+64217+027767FM-12+014699999V0202301N008719999999N0000001N9-01501+99999098761ADDGF104991999999999999999999
0029028970999991921011406004+64217+027767FM-12+014699999V0202301N007219999999N0000001N9-01441+99999098111ADDGF104991999999999999999999
0035028970999991921011413004+64217+027767FM-12+014699999V0200901N005119999999N0000001N9-01391+99999097661ADDGF108991999999999999999999MW1721
0029028970999991921011420004+64217+027767FM-12+014699999V0200901N003119999999N0000001N9-01671+99999097501ADDGF100991999999999999999999
0035028970999991921011506004+64217+027767FM-12+014699999V0203201N008719999999N0000001N9-01441+99999098271ADDGF108991999999999999999999MW1861
0029028970999991921011513004+64217+027767FM-12+014699999V0202901N005119999999N0000001N9-01501+99999099431ADDGF100991999999999999999999
0029028970999991921011520004+64217+027767FM-12+014699999V0209991C000019999999N0000001N9-02281+99999100271ADDGF100991999999999999999999
0029028970999991921011606004+64217+027767FM-12+014699999V0202301N007219999999N0000001N9-01391+99999099791ADDGF108991999999999999999999
0035028970999991921011613004+64217+027767FM-12+014699999V0202501N008719999999N0000001N9-00611+99999098621ADDGF108991999999999999999999MW1861
0029028970999991921011620004+64217+027767FM-12+014699999V0202501N011819999999N0000001N9-00061+99999097591ADDGF108991999999999999999999
0029028970999991921011706004+64217+027767FM-12+014699999V0202901N015919999999N0000001N9+00171+99999097581ADDGF102991999999999999999999
0029028970999991921011713004+64217+027767FM-12+014699999V0202901N007219999999N0000001N9+00001+99999097751ADDGF102991999999999999999999
0029028970999991921011720004+64217+027767FM-12+014699999V0202901N011819999999N0000001N9+00111+99999097161ADDGF108991999999999999999999
0035028970999991921011806004+64217+027767FM-12+014699999V0200901N005119999999N0000001N9-00061+99999096111ADDGF108991999999999999999999MW1721
0035028970999991921011813004+64217+027767FM-12+014699999V0202001N007219999999N0000001N9-00391+99999095511ADDGF108991999999999999999999MW1721
0029028970999991921011820004+64217+027767FM-12+014699999V0202001N005119999999N0000001N9-00331+99999095151ADDGF104991999999999999999999
0029028970999991921011906004+64217+027767FM-12+014699999V0209991C000019999999N0000001N9-00171+99999095561ADDGF108991999999999999999999
0029028970999991921011913004+64217+027767FM-12+014699999V0209991C000019999999N0000001N9-00221+99999095901ADDGF108991999999999999999999
0029028970999991921011920004+64217+027767FM-12+014699999V0209991C000019999999N0000001N9-00331+99999096401ADDGF108991999999999999999999
0029028970999991921012006004+64217+027767FM-12+014699999V0202001N003119999999N0000001N9-00671+99999096961ADDGF108991999999999999999999
0029028970999991921012013004+64217+027767FM-12+014699999V0202001N007219999999N0000001N9-00331+99999096471ADDGF108991999999999999999999
0029028970999991921012020004+64217+027767FM-12+014699999V0202001N005119999999N0000001N9-00281+99999095501ADDGF108991999999999999999999
0029028970999991921012106004+64217+027767FM-12+014699999V0202001N011819999999N0000001N9-00561+99999095741ADDGF108991999999999999999999
0029028970999991921012113004+64217+027767FM-12+014699999V0203201N011819999999N0000001N9-00891+99999096711ADDGF106991999999999999999999
0029028970999991921012120004+64217+027767FM-12+014699999V0209991C000019999999N0000001N9-01441+99999097541ADDGF100991999999999999999999
0029028970999991921012206004+64217+027767FM-12+014699999V0209991C000019999999N0000001N9-01781+99999096841ADDGF100991999999999999999999
0029028970999991921012213004+64217+027767FM-12+014699999V0201401N007219999999N0000001N9-01281+99999095991ADDGF108991999999999999999999
0035028970999991921012220004+64217+027767FM-12+014699999V0200901N015919999999N0000001N9-01171+99999095471ADDGF108991999999999999999999MW1721
0029028970999991921012306004+64217+027767FM-12+014699999V0200901N003119999999N0000001N9-01221+99999095951ADDGF108991999999999999999999
0029028970999991921012313004+64217+027767FM-12+014699999V0209991C000019999999N0000001N9-01221+99999096381ADDGF104991999999999999999999
0029028970999991921012320004+64217+027767FM-12+014699999V0209991C000019999999N0000001N9-01721+99999096551ADDGF100991999999999999999999
0029028970999991921012406004+64217+027767FM-12+014699999V0209991C000019999999N0000001N9-02561+99999096671ADDGF100991999999999999999999
0029028970999991921012413004+64217+027767FM-12+014699999V0203201N003119999999N0000001N9-02171+99999096941ADDGF108991999999999999999999
0029028970999991921012420004+64217+027767FM-12+014699999V0202901N005119999999N0000001N9-02111+99999097581ADDGF100991999999999999999999
0029028970999991921012506004+64217+027767FM-12+014699999V0202501N005119999999N0000001N9-02111+99999098191ADDGF100991999999999999999999
0035028970999991921012513004+64217+027767FM-12+014699999V0209991C000019999999N0000001N9-01561+99999098241ADDGF108991999999999999999999MW1721
0029028970999991921012520004+64217+027767FM-12+014699999V0209991C000019999999N0000001N9-01831+99999098521ADDGF100991999999999999999999
0029028970999991921012606004+64217+027767FM-12+014699999V0209991C000019999999N0000001N9-01781+99999098221ADDGF100991999999999999999999
0029028970999991921012613004+64217+027767FM-12+014699999V0209991C000019999999N0000001N9-01501+99999098031ADDGF101991999999999999999999
0029028970999991921012620004+64217+027767FM-12+014699999V0209991C000019999999N0000001N9-01391+99999097871ADDGF100991999999999999999999
0029028970999991921012706004+64217+027767FM-12+014699999V0209991C000019999999N0000001N9-01941+99999097831ADDGF108991999999999999999999
0029028970999991921012713004+64217+027767FM-12+014699999V0209991C000019999999N0000001N9-02171+99999097911ADDGF104991999999999999999999
0029028970999991921012720004+64217+027767FM-12+014699999V0209991C000019999999N0000001N9-02721+99999098401ADDGF100991999999999999999999
0029028970999991921012806004+64217+027767FM-12+014699999V0202701N003119999999N0000001N9-02111+99999099101ADDGF108991999999999999999999
0029028970999991921012813004+64217+027767FM-12+014699999V0209991C000019999999N0000001N9-02331+99999099301ADDGF108991999999999999999999
0029028970999991921012820004+64217+027767FM-12+014699999V0209991C000019999999N0000001N9-02391+99999099071ADDGF108991999999999999999999
0029028970999991921012906004+64217+027767FM-12+014699999V0200901N005119999999N0000001N9-01941+99999098021ADDGF108991999999999999999999
0029028970999991921012913004+64217+027767FM-12+014699999V0201401N003119999999N0000001N9-01671+99999097671ADDGF108991999999999999999999
0035028970999991921012920004+64217+027767FM-12+014699999V0200901N007219999999N0000001N9-01611+99999097781ADDGF108991999999999999999999MW1721
0029028970999991921013006004+64217+027767FM-12+014699999V0201801N005119999999N0000001N9-01391+99999097601ADDGF108991999999999999999999
0029028970999991921013013004+64217+027767FM-12+014699999V0202301N005119999999N0000001N9-01001+99999097441ADDGF106991999999999999999999
0029028970999991921013020004+64217+027767FM-12+014699999V0201801N005119999999N0000001N9-00831+99999097391ADDGF100991999999999999999999
0029028970999991921013106004+64217+027767FM-12+014699999V0202901N005119999999N0000001N9-01171+99999097341ADDGF108991999999999999999999
0029028970999991921013113004+64217+027767FM-12+014699999V0202901N007219999999N0000001N9-01501+99999097801ADDGF108991999999999999999999
0029028970999991921013120004+64217+027767FM-12+014699999V0202701N007219999999N0000001N9-02001+99999098351ADDGF108991999999999999999999
0035028970999991921020106004+64217+027767FM-12+014699999V0202901N005119999999N0000001N9-01891+99999098841ADDGF108991999999999999999999MW1481
0035028970999991921020113004+64217+027767FM-12+014699999V0202901N003119999999N0000001N9-01561+99999099311ADDGF108991999999999999999999MW1481
0035028970999991921020120004+64217+027767FM-12+014699999V0202501N003119999999N0000001N9-01561+99999099821ADDGF108991999999999999999999MW1481
0029028970999991921020206004+64217+027767FM-12+014699999V0209991C000019999999N0000001N9-02111+99999100441ADDGF108991999999999999999999
0029028970999991921020213004+64217+027767FM-12+014699999V0209991C000019999999N0000001N9-01611+99999101021ADDGF108991999999999999999999
0029028970999991921020220004+64217+027767FM-12+014699999V0209991C000019999999N0000001N9-01941+99999101621ADDGF108991999999999999999999
0029028970999991921020306004+64217+027767FM-12+014699999V0209991C000019999999N0000001N9-02611+99999102151ADDGF100991999999999999999999
0029028970999991921020313004+64217+027767FM-12+014699999V0200701N003119999999N0000001N9-02061+99999102481ADDGF100991999999999999999999
0029028970999991921020320004+64217+027767FM-12+014699999V0200701N005119999999N0000001N9-02501+99999102681ADDGF100991999999999999999999
0029028970999991921020406004+64217+027767FM-12+014699999V0202001N003119999999N0000001N9-02221+99999102741ADDGF100991999999999999999999
0029028970999991921020413004+64217+027767FM-12+014699999V0202001N003119999999N0000001N9-01331+99999102661ADDGF100991999999999999999999
0029028970999991921020420004+64217+027767FM-12+014699999V0209991C000019999999N0000001N9-01611+99999102511ADDGF100991999999999999999999
0029028970999991921020506004+64217+027767FM-12+014699999V0201101N005119999999N0000001N9-02671+99999102541ADDGF100991999999999999999999
0029028970999991921020513004+64217+027767FM-12+014699999V0201101N003119999999N0000001N9-01721+99999102621ADDGF100991999999999999999999
0029028970999991921020520004+64217+027767FM-12+014699999V0201101N003119999999N0000001N9-02001+99999102601ADDGF100991999999999999999999
0029028970999991921020606004+64217+027767FM-12+014699999V0202301N007219999999N0000001N9-01671+99999102221ADDGF100991999999999999999999
0029028970999991921020613004+64217+027767FM-12+014699999V0202001N005119999999N0000001N9-01331+99999101821ADDGF108991999999999999999999
0035028970999991921020620004+64217+027767FM-12+014699999V0202001N008719999999N0000001N9-00831+99999101191ADDGF108991999999999999999999MW1861
0029028970999991921020706004+64217+027767FM-12+014699999V0202901N005119999999N0000001N9-00561+99999101521ADDGF108991999999999999999999
0029028970999991921020713004+64217+027767FM-12+014699999V0203201N003119999999N0000001N9-00781+99999101921ADDGF108991999999999999999999
0029028970999991921020720004+64217+027767FM-12+014699999V0209991C000019999999N0000001N9-00831+99999102111ADDGF108991999999999999999999
0029028970999991921020806004+64217+027767FM-12+014699999V0209991C000019999999N0000001N9-01171+99999102021ADDGF108991999999999999999999
0029028970999991921020813004+64217+027767FM-12+014699999V0202901N003119999999N0000001N9-00831+99999101981ADDGF108991999999999999999999
0029028970999991921020820004+64217+027767FM-12+014699999V0209991C000019999999N0000001N9-00501+99999101791ADDGF108991999999999999999999
0029028970999991921020906004+64217+027767FM-12+014699999V0202301N003119999999N0000001N9-00611+99999101501ADDGF108991999999999999999999
0029028970999991921020913004+64217+027767FM-12+014699999V0202301N003119999999N0000001N9-00671+99999101151ADDGF101991999999999999999999
0029028970999991921020920004+64217+027767FM-12+014699999V0202301N005119999999N0000001N9-00831+99999100641ADDGF100991999999999999999999
0029028970999991921021006004+64217+027767FM-12+014699999V0202901N005119999999N0000001N9-00441+99999100281ADDGF108991999999999999999999
0029028970999991921021013004+64217+027767FM-12+014699999V0202901N007219999999N0000001N9-00221+99999100081ADDGF101991999999999999999999
0029028970999991921021020004+64217+027767FM-12+014699999V0202901N007219999999N0000001N9-00281+99999099761ADDGF108991999999999999999999
0029028970999991921021106004+64217+027767FM-12+014699999V0202701N007219999999N0000001N9+00001+99999098521ADDGF108991999999999999999999
0029028970999991921021113004+64217+027767FM-12+014699999V0202501N005119999999N0000001N9+00281+99999097791ADDGF108991999999999999999999
0035028970999991921021120004+64217+027767FM-12+014699999V0202501N007219999999N0000001N9+00111+99999097121ADDGF108991999999999999999999MW1621
0029028970999991921021206004+64217+027767FM-12+014699999V0202501N010819999999N0000001N9-00891+99999097911ADDGF108991999999999999999999
0029028970999991921021213004+64217+027767FM-12+014699999V0203401N008719999999N0000001N9-00891+99999099001ADDGF100991999999999999999999
0029028970999991921021220004+64217+027767FM-12+014699999V0209991C000019999999N0000001N9-01831+99999099121ADDGF100991999999999999999999
0029028970999991921021306004+64217+027767FM-12+014699999V0200701N005119999999N0000001N9-02111+99999098281ADDGF104991999999999999999999
0035028970999991921021313004+64217+027767FM-12+014699999V0201401N007219999999N0000001N9-01331+99999097421ADDGF108991999999999999999999MW1721
0035028970999991921021320004+64217+027767FM-12+014699999V0201401N006219999999N0000001N9-01281+99999096751ADDGF108991999999999999999999MW1721
0029028970999991921021406004+64217+027767FM-12+014699999V0200701N011819999999N0000001N9-01501+99999096241ADDGF108991999999999999999999
0035028970999991921021413004+64217+027767FM-12+014699999V0200201N008719999999N0000001N9-01441+99999096831ADDGF108991999999999999999999MW1721
0029028970999991921021420004+64217+027767FM-12+014699999V0200201N005119999999N0000001N9-01441+99999097521ADDGF100991999999999999999999
0029028970999991921021506004+64217+027767FM-12+014699999V0209991C000019999999N0000001N9-02441+99999098511ADDGF100991999999999999999999
0029028970999991921021513004+64217+027767FM-12+014699999V0203401N003119999999N0000001N9-01831+99999098661ADDGF100991999999999999999999
0029028970999991921021520004+64217+027767FM-12+014699999V0209991C000019999999N0000001N9-02501+99999098581ADDGF100991999999999999999999
0029028970999991921021606004+64217+027767FM-12+014699999V0209991C000019999999N0000001N9-02061+99999098421ADDGF108991999999999999999999
0029028970999991921021613004+64217+027767FM-12+014699999V0202301N007219999999N0000001N9-01391+99999098401ADDGF108991999999999999999999
0035028970999991921021620004+64217+027767FM-12+014699999V0202501N005119999999N0000001N9-01221+99999098461ADDGF108991999999999999999999MW1721
0029028970999991921021706004+64217+027767FM-12+014699999V0202901N005119999999N0000001N9-01001+99999098781ADDGF108991999999999999999999
0029028970999991921021713004+64217+027767FM-12+014699999V0200501N007219999999N0000001N9-01001+99999099071ADDGF108991999999999999999999
0029028970999991921021720004+64217+027767FM-12+014699999V0209991C000019999999N0000001N9-02171+99999099361ADDGF100991999999999999999999
0029028970999991921021806004+64217+027767FM-12+014699999V0209991C000019999999N0000001N9-02331+99999099581ADDGF100991999999999999999999
0029028970999991921021813004+64217+027767FM-12+014699999V0209991C000019999999N0000001N9-01941+99999099761ADDGF103991999999999999999999
0029028970999991921021820004+64217+027767FM-12+014699999V0209991C000019999999N0000001N9-02391+99999099781ADDGF100991999999999999999999
0035028970999991921021906004+64217+027767FM-12+014699999V0209991C000019999999N0000001N9-01891+99999099181ADDGF108991999999999999999999MW1721
0029028970999991921021913004+64217+027767FM-12+014699999V0209991C000019999999N0000001N9-01391+99999099401ADDGF106991999999999999999999
0029028970999991921021920004+64217+027767FM-12+014699999V0209991C000019999999N0000001N9-01831+99999099881ADDGF100991999999999999999999
0029028970999991921022006004+64217+027767FM-12+014699999V0209991C000019999999N0000001N9-02061+99999099991ADDGF108991999999999999999999
0035028970999991921022013004+64217+027767FM-12+014699999V0202701N005119999999N0000001N9-00831+99999099641ADDGF108991999999999999999999MW1721
0029028970999991921022020004+64217+027767FM-12+014699999V0209991C000019999999N0000001N9-00391+99999099501ADDGF100991999999999999999999
0029028970999991921022106004+64217+027767FM-12+014699999V0209991C000019999999N0000001N9-00721+99999099631ADDGF100991999999999999999999
0029028970999991921022113004+64217+027767FM-12+014699999V0209991C000019999999N0000001N9-00111+99999999999ADDGF104991999999999999999999
0029028970999991921022120004+64217+027767FM-12+014699999V0209991C000019999999N0000001N9-00331+99999100281ADDGF100991999999999999999999
0029028970999991921022206004+64217+027767FM-12+014699999V0209991C000019999999N0000001N9-00721+99999100511ADDGF100991999999999999999999
0029028970999991921022213004+64217+027767FM-12+014699999V0209991C000019999999N0000001N9+00171+99999100561ADDGF100991999999999999999999
0029028970999991921022220004+64217+027767FM-12+014699999V0209991C000019999999N0000001N9-00281+99999100641ADDGF100991999999999999999999
0029028970999991921022306004+64217+027767FM-12+014699999V0209991C000019999999N0000001N9-01331+99999100861ADDGF100991999999999999999999
0029028970999991921022313004+64217+027767FM-12+014699999V0209991C000019999999N0000001N9-00061+99999100821ADDGF100991999999999999999999
0029028970999991921022320004+64217+027767FM-12+014699999V0209991C000019999999N0000001N9-00441+99999100861ADDGF108991999999999999999999
0029028970999991921022406004+64217+027767FM-12+014699999V0202901N005119999999N0000001N9-00391+99999101101ADDGF108991999999999999999999
0029028970999991921022413004+64217+027767FM-12+014699999V0209991C000019999999N0000001N9-00441+99999101311ADDGF108991999999999999999999
0035028970999991921022420004+64217+027767FM-12+014699999V0209991C000019999999N0000001N9-00611+99999101391ADDGF108991999999999999999999MW1701
0029028970999991921022506004+64217+027767FM-12+014699999V0202301N003119999999N0000001N9-00501+99999101201ADDGF108991999999999999999999
0029028970999991921022513004+64217+027767FM-12+014699999V0202001N007219999999N0000001N9-00331+99999101101ADDGF108991999999999999999999
0029028970999991921022520004+64217+027767FM-12+014699999V0209991C000019999999N0000001N9-00391+99999100871ADDGF108991999999999999999999
0029028970999991921022606004+64217+027767FM-12+014699999V0202301N005119999999N0000001N9-00671+99999100241ADDGF100991999999999999999999
0029028970999991921022613004+64217+027767FM-12+014699999V0202301N007219999999N0000001N9-00061+99999099961ADDGF102991999999999999999999
0035028970999991921022620004+64217+027767FM-12+014699999V0202301N005119999999N0000001N9-00221+99999099631ADDGF108991999999999999999999MW1701
0029028970999991921022706004+64217+027767FM-12+014699999V0202301N007219999999N0000001N9-00441+99999099021ADDGF102991999999999999999999
0029028970999991921022713004+64217+027767FM-12+014699999V0202301N008719999999N0000001N9+00061+99999098351ADDGF108991999999999999999999
0029028970999991921022720004+64217+027767FM-12+014699999V0202301N008719999999N0000001N9+00001+99999097841ADDGF108991999999999999999999
0029028970999991921022806004+64217+027767FM-12+014699999V0203201N005119999999N0000001N9-00221+99999097941ADDGF102991999999999999999999
0029028970999991921022813004+64217+027767FM-12+014699999V0203201N003119999999N0000001N9-00331+99999098551ADDGF100991999999999999999999
0035028970999991921022820004+64217+027767FM-12+014699999V0202301N008719999999N0000001N9-00331+99999098041ADDGF108991999999999999999999MW1691
0029028970999991921030106004+64217+027767FM-12+014699999V0202901N010819999999N0000001N9-00171+99999097941ADDGF106991999999999999999999
0029028970999991921030113004+64217+027767FM-12+014699999V0202901N010819999999N0000001N9+00171+99999098511ADDGF104991999999999999999999
0029028970999991921030120004+64217+027767FM-12+014699999V0203201N005119999999N0000001N9-00171+99999098581ADDGF100991999999999999999999
0029028970999991921030206004+64217+027767FM-12+014699999V0202001N011819999999N0000001N9-00111+99999097521ADDGF108991999999999999999999
0035028970999991921030213004+64217+027767FM-12+014699999V0202901N005119999999N0000001N9+00061+99999097141ADDGF108991999999999999999999MW1721
0029028970999991921030220004+64217+027767FM-12+014699999V0202301N007219999999N0000001N9+00001+99999097081ADDGF108991999999999999999999
0029028970999991921030306004+64217+027767FM-12+014699999V0209991C000019999999N0000001N9-00221+99999097281ADDGF108991999999999999999999
0029028970999991921030313004+64217+027767FM-12+014699999V0209991C000019999999N0000001N9-00441+99999097551ADDGF108991999999999999999999
0029028970999991921030320004+64217+027767FM-12+014699999V0209991C000019999999N0000001N9-00831+99999097951ADDGF108991999999999999999999
0029028970999991921030406004+64217+027767FM-12+014699999V0202301N003119999999N0000001N9-00831+99999098141ADDGF108991999999999999999999
0035028970999991921030413004+64217+027767FM-12+014699999V0201801N008719999999N0000001N9-00501+99999097301ADDGF108991999999999999999999MW1861
0035028970999991921030420004+64217+027767FM-12+014699999V0201801N011819999999N0000001N9-00061+99999096031ADDGF108991999999999999999999MW1861
0048028970999991921030506004+64217+027767FM-12+014699999V0202001N008719999999N0000001N9+00001+99999999999ADDGF108991999999999999999999EQDQ01 104983APOSLP
0035028970999991921030513004+64217+027767FM-12+014699999V0202501N011819999999N0000001N9-00671+99999095151ADDGF108991999999999999999999MW1721
0029028970999991921030520004+64217+027767FM-12+014699999V0202501N008719999999N0000001N9-00831+99999095621ADDGF108991999999999999999999
0035028970999991921030606004+64217+027767FM-12+014699999V0203201N010819999999N0000001N9-00671+99999096541ADDGF108991999999999999999999MW1861
0035028970999991921030613004+64217+027767FM-12+014699999V0203201N010819999999N0000001N9-00721+99999097671ADDGF108991999999999999999999MW1861
0029028970999991921030620004+64217+027767FM-12+014699999V0202901N003119999999N0000001N9-01001+99999098521ADDGF108991999999999999999999
0029028970999991921030706004+64217+027767FM-12+014699999V0209991C000019999999N0000001N9-02111+99999098981ADDGF100991999999999999999999
0029028970999991921030713004+64217+027767FM-12+014699999V0209991C000019999999N0000001N9-00891+99999098981ADDGF108991999999999999999999
0029028970999991921030720004+64217+027767FM-12+014699999V0209991C000019999999N0000001N9-01221+99999098861ADDGF100991999999999999999999
0029028970999991921030806004+64217+027767FM-12+014699999V0209991C000019999999N0000001N9-01221+99999098761ADDGF108991999999999999999999
0035028970999991921030813004+64217+027767FM-12+014699999V0202901N007219999999N0000001N9-01221+99999098881ADDGF108991999999999999999999MW1701
0029028970999991921030820004+64217+027767FM-12+014699999V0209991C000019999999N0000001N9-01561+99999099031ADDGF100991999999999999999999
0029028970999991921030906004+64217+027767FM-12+014699999V0200901N003119999999N0000001N9-02111+99999098981ADDGF100991999999999999999999
0029028970999991921030913004+64217+027767FM-12+014699999V0202001N003119999999N0000001N9-00611+99999098981ADDGF100991999999999999999999
0035028970999991921030920004+64217+027767FM-12+014699999V0209991C000019999999N0000001N9-00721+99999098871ADDGF108991999999999999999999MW1701
0035028970999991921031006004+64217+027767FM-12+014699999V0201601N007219999999N0000001N9-00721+99999098111ADDGF108991999999999999999999MW1721
0029028970999991921031013004+64217+027767FM-12+014699999V0209991C000019999999N0000001N9-00281+99999098321ADDGF108991999999999999999999
0029028970999991921031020004+64217+027767FM-12+014699999V0209991C000019999999N0000001N9-00331+99999099081ADDGF108991999999999999999999
0029028970999991921031106004+64217+027767FM-12+014699999V0201801N005119999999N0000001N9-00441+99999099661ADDGF108991999999999999999999
0029028970999991921031113004+64217+027767FM-12+014699999V0201801N005119999999N0000001N9-00061+99999099711ADDGF108991999999999999999999
0029028970999991921031120004+64217+027767FM-12+014699999V0201801N007219999999N0000001N9+00111+99999099601ADDGF108991999999999999999999
0029028970999991921031206004+64217+027767FM-12+014699999V0201801N007219999999N0000001N9+00061+99999099381ADDGF104991999999999999999999
0029028970999991921031213004+64217+027767FM-12+014699999V0202301N010819999999N0000001N9+00561+99999099281ADDGF100991999999999999999999
0029028970999991921031220004+64217+027767FM-12+014699999V0202301N010819999999N0000001N9+00281+99999099871ADDGF108991999999999999999999
0029028970999991921031306004+64217+027767FM-12+014699999V0202501N003119999999N0000001N9-00331+99999100501ADDGF100991999999999999999999
0029028970999991921031313004+64217+027767FM-12+014699999V0202501N005119999999N0000001N9+00671+99999100671ADDGF100991999999999999999999
0029028970999991921031320004+64217+027767FM-12+014699999V0209991C000019999999N0000001N9+00001+99999100781ADDGF100991999999999999999999
0029028970999991921031406004+64217+027767FM-12+014699999V0202001N003119999999N0000001N9-00441+99999100791ADDGF108991999999999999999999
0029028970999991921031413004+64217+027767FM-12+014699999V0202001N003119999999N0000001N9+00501+99999100711ADDGF100991999999999999999999
0029028970999991921031420004+64217+027767FM-12+014699999V0202001N003119999999N0000001N9+00001+99999100701ADDGF100991999999999999999999
0029028970999991921031506004+64217+027767FM-12+014699999V0202001N005119999999N0000001N9-00111+99999100471ADDGF108991999999999999999999
0029028970999991921031513004+64217+027767FM-12+014699999V0202301N003119999999N0000001N9+00111+99999100421ADDGF108991999999999999999999
0029028970999991921031520004+64217+027767FM-12+014699999V0209991C000019999999N0000001N9+00171+99999100501ADDGF108991999999999999999999
0029028970999991921031606004+64217+027767FM-12+014699999V0202701N005119999999N0000001N9+00001+99999100361ADDGF100991999999999999999999
0029028970999991921031613004+64217+027767FM-12+014699999V0202701N005119999999N0000001N9+00441+99999100321ADDGF108991999999999999999999
0029028970999991921031620004+64217+027767FM-12+014699999V0209991C000019999999N0000001N9+00061+99999100281ADDGF100991999999999999999999
0029028970999991921031706004+64217+027767FM-12+014699999V0202501N005119999999N0000001N9+00221+99999099841ADDGF108991999999999999999999
0029028970999991921031713004+64217+027767FM-12+014699999V0202501N005119999999N0000001N9+00391+99999099591ADDGF108991999999999999999999
0029028970999991921031720004+64217+027767FM-12+014699999V0202501N007219999999N0000001N9+00281+99999099591ADDGF104991999999999999999999
0029028970999991921031806004+64217+027767FM-12+014699999V0202701N005119999999N0000001N9-00061+99999099711ADDGF100991999999999999999999
0029028970999991921031813004+64217+027767FM-12+014699999V0202901N007219999999N0000001N9+00501+99999099981ADDGF100991999999999999999999
0029028970999991921031820004+64217+027767FM-12+014699999V0202901N007219999999N0000001N9+00111+99999100201ADDGF100991999999999999999999
0029028970999991921031906004+64217+027767FM-12+014699999V0209991C000019999999N0000001N9-00281+99999100151ADDGF108991999999999999999999
0029028970999991921031913004+64217+027767FM-12+014699999V0202001N005119999999N0000001N9+00611+99999099661ADDGF104991999999999999999999
0029028970999991921031920004+64217+027767FM-12+014699999V0202001N005119999999N0000001N9+00171+99999099201ADDGF108991999999999999999999
0029028970999991921032006004+64217+027767FM-12+014699999V0202301N005119999999N0000001N9+00061+99999098511ADDGF108991999999999999999999
0029028970999991921032013004+64217+027767FM-12+014699999V0202001N005119999999N0000001N9+00221+99999098421ADDGF108991999999999999999999
0029028970999991921032020004+64217+027767FM-12+014699999V0201401N005119999999N0000001N9+00111+99999098261ADDGF108991999999999999999999
0035028970999991921032106004+64217+027767FM-12+014699999V0201601N005119999999N0000001N9+00061+99999098161ADDGF108991999999999999999999MW1721
0029028970999991921032113004+64217+027767FM-12+014699999V0201101N005119999999N0000001N9+00171+99999098281ADDGF108991999999999999999999
0029028970999991921032120004+64217+027767FM-12+014699999V0200901N003119999999N0000001N9+00061+99999098471ADDGF108991999999999999999999
0029028970999991921032206004+64217+027767FM-12+014699999V0200901N005119999999N0000001N9-00111+99999098711ADDGF108991999999999999999999
0029028970999991921032213004+64217+027767FM-12+014699999V0202001N005119999999N0000001N9+00221+99999098591ADDGF108991999999999999999999
0029028970999991921032220004+64217+027767FM-12+014699999V0201601N007219999999N0000001N9+00001+99999098001ADDGF108991999999999999999999
0029028970999991921032306004+64217+027767FM-12+014699999V0202901N003119999999N0000001N9+00001+99999097881ADDGF108991999999999999999999
0029028970999991921032313004+64217+027767FM-12+014699999V0202701N007219999999N0000001N9+00391+99999098281ADDGF103991999999999999999999
0029028970999991921032320004+64217+027767FM-12+014699999V0209991C000019999999N0000001N9-00061+99999098471ADDGF100991999999999999999999
0029028970999991921032406004+64217+027767FM-12+014699999V0200701N003119999999N0000001N9-00171+99999097921ADDGF108991999999999999999999
0029028970999991921032413004+64217+027767FM-12+014699999V0202701N003119999999N0000001N9+00281+99999097821ADDGF108991999999999999999999
0029028970999991921032420004+64217+027767FM-12+014699999V0209991C000019999999N0000001N9+00111+99999097781ADDGF108991999999999999999999
0035028970999991921032506004+64217+027767FM-12+014699999V0202701N003119999999N0000001N9+00111+99999096561ADDGF108991999999999999999999MW1721
0029028970999991921032513004+64217+027767FM-12+014699999V0202701N011819999999N0000001N9+00221+99999097421ADDGF108991999999999999999999
0029028970999991921032520004+64217+027767FM-12+014699999V0202701N012919999999N0000001N9+00171+99999097801ADDGF108991999999999999999999
0029028970999991921032606004+64217+027767FM-12+014699999V0203401N008719999999N0000001N9-00221+99999098471ADDGF101991999999999999999999
0029028970999991921032613004+64217+027767FM-12+014699999V0202701N010819999999N0000001N9+00331+99999098761ADDGF101991999999999999999999
0029028970999991921032620004+64217+027767FM-12+014699999V0202701N007219999999N0000001N9+00171+99999098821ADDGF100991999999999999999999
0029028970999991921032706004+64217+027767FM-12+014699999V0202701N003119999999N0000001N9-00221+99999099021ADDGF100991999999999999999999
0029028970999991921032713004+64217+027767FM-12+014699999V0209991C000019999999N0000001N9+00721+99999098961ADDGF102991999999999999999999
0029028970999991921032720004+64217+027767FM-12+014699999V0209991C000019999999N0000001N9-00171+99999098661ADDGF100991999999999999999999
0035028970999991921032806004+64217+027767FM-12+014699999V0201101N010819999999N0000001N9-00111+99999097311ADDGF108991999999999999999999MW1721
0029028970999991921032813004+64217+027767FM-12+014699999V0201801N007219999999N0000001N9+00171+99999097241ADDGF107991999999999999999999
0029028970999991921032820004+64217+027767FM-12+014699999V0201401N010819999999N0000001N9+00061+99999097181ADDGF100991999999999999999999
0035028970999991921032906004+64217+027767FM-12+014699999V0202001N007219999999N0000001N9-00061+99999096981ADDGF108991999999999999999999MW1721
0029028970999991921032913004+64217+027767FM-12+014699999V0202501N010819999999N0000001N9+00171+99999097441ADDGF108991999999999999999999
0029028970999991921032920004+64217+027767FM-12+014699999V0202501N005119999999N0000001N9+00061+99999098041ADDGF100991999999999999999999
0035028970999991921033006004+64217+027767FM-12+014699999V0201801N005119999999N0000001N9+00061+99999097741ADDGF108991999999999999999999MW1721
0029028970999991921033013004+64217+027767FM-12+014699999V0202501N010819999999N0000001N9+00561+99999097751ADDGF106991999999999999999999
0029028970999991921033020004+64217+027767FM-12+014699999V0202001N008719999999N0000001N9+00331+99999097871ADDGF108991999999999999999999
0029028970999991921033106004+64217+027767FM-12+014699999V0202001N008719999999N0000001N9+00171+99999097391ADDGF108991999999999999999999
0000028970999991921033113004+64217+027767FM-12+014699999V0202001N003119999999N0000001N9+00221+99999097041
0029028970999991921033120004+64217+027767FM-12+014699999V0209991C000019999999N0000001N9+00061+99999096881ADDGF108991999999999999999999
0029028970999991921040106004+64217+027767FM-12+014699999V0203401N010819999999N0000001N9-00061+99999097551ADDGF108991999999999999999999
0029028970999991921040113004+64217+027767FM-12+014699999V0203201N010819999999N0000001N9+00111+99999098431ADDGF100991999999999999999999
0029028970999991921040120004+64217+027767FM-12+014699999V0209991C000019999999N0000001N9-00281+99999099351ADDGF100991999999999999999999
0029028970999991921040206004+64217+027767FM-12+014699999V0202301N007219999999N0000001N9-00331+99999099751ADDGF100991999999999999999999
0029028970999991921040213004+64217+027767FM-12+014699999V0202301N010819999999N0000001N9+00281+99999099581ADDGF108991999999999999999999
0029028970999991921040220004+64217+027767FM-12+014699999V0202301N010819999999N0000001N9+00281+99999099221ADDGF108991999999999999999999
0029028970999991921040306004+64217+027767FM-12+014699999V0202501N007219999999N0000001N9+00331+99999098981ADDGF104991999999999999999999
0029028970999991921040313004+64217+027767FM-12+014699999V0202701N008719999999N0000001N9+00891+99999099311ADDGF102991999999999999999999
0029028970999991921040320004+64217+027767FM-12+014699999V0202301N007219999999N0000001N9+00331+99999099341ADDGF108991999999999999999999
0029028970999991921040406004+64217+027767FM-12+014699999V0202001N007219999999N0000001N9+00281+99999099031ADDGF108991999999999999999999
0029028970999991921040413004+64217+027767FM-12+014699999V0202001N003119999999N0000001N9+00671+99999099161ADDGF108991999999999999999999
0029028970999991921040420004+64217+027767FM-12+014699999V0202001N012919999999N0000001N9+00441+99999099121ADDGF108991999999999999999999
0029028970999991921040506004+64217+027767FM-12+014699999V0202001N011819999999N0000001N9+00501+99999098461ADDGF102991999999999999999999
0029028970999991921040513004+64217+027767FM-12+014699999V0202701N010819999999N0000001N9+00561+99999098861ADDGF102991999999999999999999
0029028970999991921040520004+64217+027767FM-12+014699999V0202301N003119999999N0000001N9+00111+99999099061ADDGF100991999999999999999999
0029028970999991921040606004+64217+027767FM-12+014699999V0209991C000019999999N0000001N9-00061+99999099351ADDGF100991999999999999999999
0029028970999991921040613004+64217+027767FM-12+014699999V0203201N005119999999N0000001N9+00561+99999100101ADDGF100991999999999999999999
0029028970999991921040620004+64217+027767FM-12+014699999V0209991C000019999999N0000001N9-00111+99999100791ADDGF100991999999999999999999
0029028970999991921040706004+64217+027767FM-12+014699999V0209991C000019999999N0000001N9-00331+99999101501ADDGF100991999999999999999999
0029028970999991921040713004+64217+027767FM-12+014699999V0209991C000019999999N0000001N9+00441+99999101641ADDGF100991999999999999999999
0029028970999991921040720004+64217+027767FM-12+014699999V0209991C000019999999N0000001N9-00111+99999101581ADDGF100991999999999999999999
0029028970999991921040806004+64217+027767FM-12+014699999V0202901N003119999999N0000001N9+00171+99999101591ADDGF102991999999999999999999
0029028970999991921040813004+64217+027767FM-12+014699999V0202901N005119999999N0000001N9+00781+99999102001ADDGF100991999999999999999999
0029028970999991921040820004+64217+027767FM-12+014699999V0209991C000019999999N0000001N9+00001+99999102351ADDGF100991999999999999999999
0029028970999991921040906004+64217+027767FM-12+014699999V0209991C000019999999N0000001N9+00061+99999102631ADDGF101991999999999999999999
0029028970999991921040913004+64217+027767FM-12+014699999V0209991C000019999999N0000001N9+00831+99999102261ADDGF100991999999999999999999
0029028970999991921040920004+64217+027767FM-12+014699999V0209991C000019999999N0000001N9+00671+99999101751ADDGF100991999999999999999999
0029028970999991921041006004+64217+027767FM-12+014699999V0202901N003119999999N0000001N9+00281+99999101361ADDGF104991999999999999999999
0029028970999991921041013004+64217+027767FM-12+014699999V0202901N003119999999N0000001N9+00831+99999101081ADDGF103991999999999999999999
0029028970999991921041020004+64217+027767FM-12+014699999V0202901N007219999999N0000001N9+00561+99999100601ADDGF100991999999999999999999
0029028970999991921041106004+64217+027767FM-12+014699999V0202701N008719999999N0000001N9+00441+99999099941ADDGF100991999999999999999999
0029028970999991921041113004+64217+027767FM-12+014699999V0202701N010819999999N0000001N9+00721+99999099631ADDGF106991999999999999999999
0029028970999991921041120004+64217+027767FM-12+014699999V0209991C000019999999N0000001N9+00391+99999099621ADDGF101991999999999999999999
0029028970999991921041206004+64217+027767FM-12+014699999V0209991C000019999999N0000001N9+00061+99999099481ADDGF107991999999999999999999
0029028970999991921041213004+64217+027767FM-12+014699999V0202301N005119999999N0000001N9+00831+99999099071ADDGF106991999999999999999999
0029028970999991921041220004+64217+027767FM-12+014699999V0202301N008719999999N0000001N9+00441+99999098421ADDGF108991999999999999999999
0029028970999991921041306004+64217+027767FM-12+014699999V0202301N007219999999N0000001N9+00331+99999097461ADDGF108991999999999999999999
0029028970999991921041313004+64217+027767FM-12+014699999V0202301N003119999999N0000001N9+00561+99999097241ADDGF106991999999999999999999
0029028970999991921041320004+64217+027767FM-12+014699999V0209991C000019999999N0000001N9+00001+99999097041ADDGF108991999999999999999999
0029028970999991921041406004+64217+027767FM-12+014699999V0201101N003119999999N0000001N9+00061+99999096751ADDGF108991999999999999999999
0029028970999991921041413004+64217+027767FM-12+014699999V0209991C000019999999N0000001N9+00331+99999096901ADDGF108991999999999999999999
0029028970999991921041420004+64217+027767FM-12+014699999V0209991C000019999999N0000001N9+00001+99999097041ADDGF104991999999999999999999
0029028970999991921041506004+64217+027767FM-12+014699999V0209991C000019999999N0000001N9+00061+99999097181ADDGF108991999999999999999999
0029028970999991921041513004+64217+027767FM-12+014699999V0201101N005119999999N0000001N9+00281+99999096881ADDGF108991999999999999999999
0029028970999991921041520004+64217+027767FM-12+014699999V0201801N005119999999N0000001N9+00221+99999096981ADDGF102991999999999999999999
0029028970999991921041606004+64217+027767FM-12+014699999V0202501N008719999999N0000001N9+00111+99999097081ADDGF106991999999999999999999
0029028970999991921041613004+64217+027767FM-12+014699999V0202501N008719999999N0000001N9+00671+99999097881ADDGF104991999999999999999999
0029028970999991921041620004+64217+027767FM-12+014699999V0202501N005119999999N0000001N9+00331+99999098111ADDGF100991999999999999999999
0029028970999991921041706004+64217+027767FM-12+014699999V0202001N003119999999N0000001N9+00171+99999098741ADDGF108991999999999999999999
0029028970999991921041713004+64217+027767FM-12+014699999V0201801N003119999999N0000001N9+00441+99999099161ADDGF108991999999999999999999
0029028970999991921041720004+64217+027767FM-12+014699999V0202001N003119999999N0000001N9+00171+99999099421ADDGF100991999999999999999999
0035028970999991921041806004+64217+027767FM-12+014699999V0200501N003119999999N0000001N9+00171+99999099311ADDGF108991999999999999999999MW1621
0035028970999991921041813004+64217+027767FM-12+014699999V0200201N005119999999N0000001N9+00061+99999098881ADDGF108991999999999999999999MW1721
0035028970999991921041820004+64217+027767FM-12+014699999V0200901N007219999999N0000001N9+00171+99999098631ADDGF108991999999999999999999MW1621
0029028970999991921041906004+64217+027767FM-12+014699999V0201101N007219999999N0000001N9+00671+99999098431ADDGF108991999999999999999999
0029028970999991921041913004+64217+027767FM-12+014699999V0202001N010819999999N0000001N9+01001+99999099281ADDGF104991999999999999999999
0029028970999991921041920004+64217+027767FM-12+014699999V0201801N005119999999N0000001N9+00561+99999099911ADDGF100991999999999999999999
0029028970999991921042006004+64217+027767FM-12+014699999V0202001N005119999999N0000001N9+00671+99999100381ADDGF100991999999999999999999
0029028970999991921042013004+64217+027767FM-12+014699999V0201601N003119999999N0000001N9+01221+99999100431ADDGF102991999999999999999999
0029028970999991921042020004+64217+027767FM-12+014699999V0200201N007219999999N0000001N9+00831+99999100311ADDGF100991999999999999999999
0029028970999991921042106004+64217+027767FM-12+014699999V0209991C000019999999N0000001N9+00501+99999100111ADDGF108991999999999999999999
0029028970999991921042113004+64217+027767FM-12+014699999V0209991C000019999999N0000001N9+00671+99999100141ADDGF108991999999999999999999
0035028970999991921042120004+64217+027767FM-12+014699999V0209991C000019999999N0000001N9+00441+99999099991ADDGF108991999999999999999999MW1621
0029028970999991921042206004+64217+027767FM-12+014699999V0202901N003119999999N0000001N9+00331+99999099951ADDGF108991999999999999999999
0029028970999991921042213004+64217+027767FM-12+014699999V0201101N003119999999N0000001N9+00941+99999100561ADDGF100991999999999999999999
0029028970999991921042220004+64217+027767FM-12+014699999V0200901N005119999999N0000001N9+00561+99999100741ADDGF100991999999999999999999
0035028970999991921042306004+64217+027767FM-12+014699999V0201801N003119999999N0000001N9+00671+99999100961ADDGF108991999999999999999999MW1621
0029028970999991921042313004+64217+027767FM-12+014699999V0202901N003119999999N0000001N9+01061+99999101271ADDGF104991999999999999999999
0029028970999991921042320004+64217+027767FM-12+014699999V0209991C000019999999N0000001N9+00441+99999101501ADDGF100991999999999999999999
0029028970999991921042406004+64217+027767FM-12+014699999V0201601N005119999999N0000001N9+00831+99999101801ADDGF100991999999999999999999
0029028970999991921042413004+64217+027767FM-12+014699999V0200901N005119999999N0000001N9+01781+99999101911ADDGF100991999999999999999999
0029028970999991921042420004+64217+027767FM-12+014699999V0200901N005119999999N0000001N9+01171+99999102081ADDGF100991999999999999999999
0029028970999991921042506004+64217+027767FM-12+014699999V0200901N003119999999N0000001N9+00941+99999102401ADDGF100991999999999999999999
0029028970999991921042513004+64217+027767FM-12+014699999V0200701N007219999999N0000001N9+02061+99999102511ADDGF100991999999999999999999
0029028970999991921042520004+64217+027767FM-12+014699999V0201601N003119999999N0000001N9+00941+99999102551ADDGF100991999999999999999999
0029028970999991921042606004+64217+027767FM-12+014699999V0200901N003119999999N0000001N9+01061+99999102701ADDGF100991999999999999999999
0029028970999991921042613004+64217+027767FM-12+014699999V0202901N003119999999N0000001N9+02221+99999102551ADDGF100991999999999999999999
0029028970999991921042620004+64217+027767FM-12+014699999V0209991C000019999999N0000001N9+01061+99999102391ADDGF100991999999999999999999
0029028970999991921042706004+64217+027767FM-12+014699999V0209991C000019999999N0000001N9+00891+99999102321ADDGF104991999999999999999999
0029028970999991921042713004+64217+027767FM-12+014699999V0202901N003119999999N0000001N9+02061+99999102121ADDGF104991999999999999999999
0029028970999991921042720004+64217+027767FM-12+014699999V0209991C000019999999N0000001N9+01171+99999101831ADDGF100991999999999999999999
0029028970999991921042806004+64217+027767FM-12+014699999V0209991C000019999999N0000001N9+01001+99999101311ADDGF101991999999999999999999
0029028970999991921042813004+64217+027767FM-12+014699999V0202901N003119999999N0000001N9+01831+99999100791ADDGF102991999999999999999999
0035028970999991921042820004+64217+027767FM-12+014699999V0200501N008719999999N0000001N9+00831+99999100791ADDGF108991999999999999999999MW1621
0029028970999991921042906004+64217+027767FM-12+014699999V0200201N010819999999N0000001N9+00061+99999101471ADDGF104991999999999999999999
0029028970999991921042913004+64217+027767FM-12+014699999V0200901N003119999999N0000001N9+00831+99999101361ADDGF100991999999999999999999
0029028970999991921042920004+64217+027767FM-12+014699999V0209991C000019999999N0000001N9+00111+99999100901ADDGF100991999999999999999999
0029028970999991921043006004+64217+027767FM-12+014699999V0202901N005119999999N0000001N9+00281+99999100601ADDGF100991999999999999999999
0029028970999991921043013004+64217+027767FM-12+014699999V0203201N007219999999N0000001N9+00891+99999100521ADDGF104991999999999999999999
0029028970999991921043020004+64217+027767FM-12+014699999V0209991C000019999999N0000001N9+00221+99999100501ADDGF100991999999999999999999
0029028970999991921050106004+64217+027767FM-12+014699999V0202301N007219999999N0000001N9+00611+99999099761ADDGF108991999999999999999999
0000028970999991921050113004+64217+027767FM-12+014699999V0202901N007219999999N0000001N9+01061+99999099381
0029028970999991921050120004+64217+027767FM-12+014699999V0209991C000019999999N0000001N9+00721+99999098991ADDGF108991999999999999999999
0035028970999991921050206004+64217+027767FM-12+014699999V0202501N005119999999N0000001N9+00671+99999098461ADDGF108991999999999999999999MW1621
0009028970999991921050213004+64217+027767FM-12+014699999V0202901N003119999999N0000001N9+00721+99999098351ADDMW1621
0029028970999991921050220004+64217+027767FM-12+014699999V0209991C000019999999N0000001N9+00561+99999098081ADDGF108991999999999999999999
0029028970999991921050306004+64217+027767FM-12+014699999V0202001N005119999999N0000001N9+00721+99999097661ADDGF108991999999999999999999
0000028970999991921050313004+64217+027767FM-12+014699999V0202501N003119999999N0000001N9+00831+99999097871
0029028970999991921050320004+64217+027767FM-12+014699999V0202501N003119999999N0000001N9+00501+99999097821ADDGF108991999999999999999999
0029028970999991921050406004+64217+027767FM-12+014699999V0209991C000019999999N0000001N9+00281+99999098031ADDGF104991999999999999999999
0029028970999991921050413004+64217+027767FM-12+014699999V0203201N005119999999N0000001N9+00831+99999098141ADDGF100991999999999999999999
0029028970999991921050420004+64217+027767FM-12+014699999V0209991C000019999999N0000001N9+00171+99999098161ADDGF100991999999999999999999
0029028970999991921050506004+64217+027767FM-12+014699999V0203401N003119999999N0000001N9+00281+99999098201ADDGF108991999999999999999999
0029028970999991921050513004+64217+027767FM-12+014699999V0202701N008719999999N0000001N9+01061+99999098551ADDGF101991999999999999999999
0029028970999991921050520004+64217+027767FM-12+014699999V0209991C000019999999N0000001N9+00611+99999098981ADDGF100991999999999999999999
0029028970999991921050606004+64217+027767FM-12+014699999V0209991C000019999999N0000001N9+00781+99999099421ADDGF104991999999999999999999
0029028970999991921050613004+64217+027767FM-12+014699999V0209991C000019999999N0000001N9+01171+99999099441ADDGF108991999999999999999999
0029028970999991921050620004+64217+027767FM-12+014699999V0200901N003119999999N0000001N9+00561+99999099301ADDGF108991999999999999999999
0029028970999991921050706004+64217+027767FM-12+014699999V0202901N007219999999N0000001N9+00441+99999098901ADDGF106991999999999999999999
0029028970999991921050713004+64217+027767FM-12+014699999V0202901N007219999999N0000001N9+00941+99999098941ADDGF102991999999999999999999
0029028970999991921050720004+64217+027767FM-12+014699999V0209991C000019999999N0000001N9+00501+99999099261ADDGF100991999999999999999999
0029028970999991921050806004+64217+027767FM-12+014699999V0202001N008719999999N0000001N9+00671+99999099521ADDGF108991999999999999999999
0029028970999991921050813004+64217+027767FM-12+014699999V0202001N013919999999N0000001N9+01331+99999099541ADDGF106991999999999999999999
0029028970999991921050820004+64217+027767FM-12+014699999V0202001N013919999999N0000001N9+01171+99999099631ADDGF100991999999999999999999
0029028970999991921050906004+64217+027767FM-12+014699999V0202001N011819999999N0000001N9+01061+99999099681ADDGF100991999999999999999999
0029028970999991921050913004+64217+027767FM-12+014699999V0202001N015919999999N0000001N9+01781+99999099641ADDGF102991999999999999999999
0029028970999991921050920004+64217+027767FM-12+014699999V0202301N007219999999N0000001N9+01561+99999099501ADDGF108991999999999999999999
0029028970999991921051006004+64217+027767FM-12+014699999V0202901N005119999999N0000001N9+01171+99999099831ADDGF100991999999999999999999
0029028970999991921051013004+64217+027767FM-12+014699999V0202901N007219999999N0000001N9+01061+99999100341ADDGF100991999999999999999999
0029028970999991921051020004+64217+027767FM-12+014699999V0209991C000019999999N0000001N9+00891+99999100361ADDGF104991999999999999999999
0029028970999991921051106004+64217+027767FM-12+014699999V0209991C000019999999N0000001N9+01061+99999099831ADDGF104991999999999999999999
0029028970999991921051113004+64217+027767FM-12+014699999V0202901N007219999999N0000001N9+01561+99999099831ADDGF104991999999999999999999
0029028970999991921051120004+64217+027767FM-12+014699999V0203201N003119999999N0000001N9+00781+99999099961ADDGF108991999999999999999999
0029028970999991921051206004+64217+027767FM-12+014699999V0200501N007219999999N0000001N9+00331+99999100021ADDGF108991999999999999999999
0000028970999991921051213004+64217+027767FM-12+014699999V0200501N007219999999N0000001N9+00611+99999100101
0029028970999991921051220004+64217+027767FM-12+014699999V0209991C000019999999N0000001N9+00561+99999100121ADDGF108991999999999999999999
0029028970999991921051306004+64217+027767FM-12+014699999V0209991C000019999999N0000001N9+00561+99999100281ADDGF100991999999999999999999
0029028970999991921051313004+64217+027767FM-12+014699999V0203201N005119999999N0000001N9+01111+99999100361ADDGF104991999999999999999999
0029028970999991921051320004+64217+027767FM-12+014699999V0202501N003119999999N0000001N9+00831+99999100241ADDGF106991999999999999999999
0029028970999991921051406004+64217+027767FM-12+014699999V0202701N005119999999N0000001N9+01061+99999100021ADDGF108991999999999999999999
0000028970999991921051413004+64217+027767FM-12+014699999V0202701N011819999999N0000001N9+01721+99999099861
0029028970999991921051420004+64217+027767FM-12+014699999V0209991C000019999999N0000001N9+00891+99999099991ADDGF100991999999999999999999
0029028970999991921051506004+64217+027767FM-12+014699999V0202001N003119999999N0000001N9+00941+99999099991ADDGF106991999999999999999999
0029028970999991921051513004+64217+027767FM-12+014699999V0202001N015919999999N0000001N9+02061+99999099831ADDGF102991999999999999999999
0029028970999991921051520004+64217+027767FM-12+014699999V0202701N007219999999N0000001N9+01891+99999099701ADDGF102991999999999999999999
0029028970999991921051606004+64217+027767FM-12+014699999V0202901N003119999999N0000001N9+01331+99999099461ADDGF102991999999999999999999
0029028970999991921051613004+64217+027767FM-12+014699999V0202001N008719999999N0000001N9+02061+99999099101ADDGF102991999999999999999999
0029028970999991921051620004+64217+027767FM-12+014699999V0202901N010819999999N0000001N9+00941+99999098641ADDGF108991999999999999999999
0029028970999991921051706004+64217+027767FM-12+014699999V0203201N008719999999N0000001N9+00831+99999099361ADDGF100991999999999999999999
0029028970999991921051713004+64217+027767FM-12+014699999V0203201N008719999999N0000001N9+01281+99999099791ADDGF101991999999999999999999
0029028970999991921051720004+64217+027767FM-12+014699999V0209991C000019999999N0000001N9+00891+99999100101ADDGF100991999999999999999999
0029028970999991921051806004+64217+027767FM-12+014699999V0209991C000019999999N0000001N9+01061+99999100441ADDGF100991999999999999999999
0029028970999991921051813004+64217+027767FM-12+014699999V0202701N007219999999N0000001N9+01831+99999100381ADDGF100991999999999999999999
0029028970999991921051820004+64217+027767FM-12+014699999V0202001N003119999999N0000001N9+01331+99999100261ADDGF100991999999999999999999
0029028970999991921051906004+64217+027767FM-12+014699999V0202501N005119999999N0000001N9+01281+99999100381ADDGF104991999999999999999999
0029028970999991921051913004+64217+027767FM-12+014699999V0202001N005119999999N0000001N9+01781+99999100341ADDGF102991999999999999999999
0029028970999991921051920004+64217+027767FM-12+014699999V0201801N005119999999N0000001N9+01391+99999100221ADDGF100991999999999999999999
0029028970999991921052006004+64217+027767FM-12+014699999V0202001N003119999999N0000001N9+01281+99999999999ADDGF104991999999999999999999
0000028970999991921052013004+64217+027767FM-12+014699999V0202501N007219999999N0000001N9+01611+99999099861
0029028970999991921052020004+64217+027767FM-12+014699999V0200701N003119999999N0000001N9+01171+99999099581ADDGF108991999999999999999999
0029028970999991921052106004+64217+027767FM-12+014699999V0202301N007219999999N0000001N9+01501+99999099081ADDGF107991999999999999999999
0029028970999991921052113004+64217+027767FM-12+014699999V0202901N015919999999N0000001N9+01721+99999099001ADDGF103991999999999999999999
0029028970999991921052120004+64217+027767FM-12+014699999V0202701N015919999999N0000001N9+00781+99999099521ADDGF108991999999999999999999
0029028970999991921052206004+64217+027767FM-12+014699999V0209991C000019999999N0000001N9+00781+99999100261ADDGF100991999999999999999999
0029028970999991921052213004+64217+027767FM-12+014699999V0202701N008719999999N0000001N9+01611+99999100141ADDGF100991999999999999999999
0029028970999991921052220004+64217+027767FM-12+014699999V0202301N003119999999N0000001N9+01501+99999099661ADDGF100991999999999999999999
0029028970999991921052306004+64217+027767FM-12+014699999V0202701N010819999999N0000001N9+01061+99999099481ADDGF102991999999999999999999
0029028970999991921052313004+64217+027767FM-12+014699999V0202901N019019999999N0000001N9+01111+99999099701ADDGF102991999999999999999999
0029028970999991921052320004+64217+027767FM-12+014699999V0202901N008719999999N0000001N9+00831+99999099951ADDGF100991999999999999999999
0029028970999991921052406004+64217+027767FM-12+014699999V0202901N007219999999N0000001N9+00611+99999100281ADDGF101991999999999999999999
0029028970999991921052413004+64217+027767FM-12+014699999V0203201N007219999999N0000001N9+01111+99999100341ADDGF100991999999999999999999
0029028970999991921052420004+64217+027767FM-12+014699999V0202301N003119999999N0000001N9+01001+99999099781ADDGF108991999999999999999999
0029028970999991921052506004+64217+027767FM-12+014699999V0202701N010819999999N0000001N9+00941+99999099081ADDGF108991999999999999999999
0029028970999991921052513004+64217+027767FM-12+014699999V0202701N015919999999N0000001N9+01281+99999099241ADDGF101991999999999999999999
0029028970999991921052520004+64217+027767FM-12+014699999V0202901N003119999999N0000001N9+01061+99999099481ADDGF100991999999999999999999
0029028970999991921052606004+64217+027767FM-12+014699999V0209991C000019999999N0000001N9+01171+99999100021ADDGF100991999999999999999999
0029028970999991921052613004+64217+027767FM-12+014699999V0202701N005119999999N0000001N9+01941+99999100041ADDGF102991999999999999999999
0029028970999991921052620004+64217+027767FM-12+014699999V0202501N003119999999N0000001N9+01501+99999099951ADDGF100991999999999999999999
0029028970999991921052706004+64217+027767FM-12+014699999V0202301N008719999999N0000001N9+01611+99999099981ADDGF100991999999999999999999
0029028970999991921052713004+64217+027767FM-12+014699999V0202001N007219999999N0000001N9+02391+99999099801ADDGF102991999999999999999999
0029028970999991921052720004+64217+027767FM-12+014699999V0202001N007219999999N0000001N9+01891+99999099631ADDGF100991999999999999999999
0029028970999991921052806004+64217+027767FM-12+014699999V0202301N005119999999N0000001N9+01891+99999099521ADDGF100991999999999999999999
0029028970999991921052813004+64217+027767FM-12+014699999V0202001N007219999999N0000001N9+02441+99999099311ADDGF102991999999999999999999
0029028970999991921052820004+64217+027767FM-12+014699999V0201801N006219999999N0000001N9+01891+99999099111ADDGF100991999999999999999999
0029028970999991921052906004+64217+027767FM-12+014699999V0201801N005119999999N0000001N9+01721+99999098821ADDGF104991999999999999999999
0029028970999991921052913004+64217+027767FM-12+014699999V0202301N007219999999N0000001N9+02061+99999099081ADDGF102991999999999999999999
0029028970999991921052920004+64217+027767FM-12+014699999V0201801N005119999999N0000001N9+01891+99999099021ADDGF101991999999999999999999
0029028970999991921053006004+64217+027767FM-12+014699999V0202701N008719999999N0000001N9+01391+99999099151ADDGF108991999999999999999999
0029028970999991921053013004+64217+027767FM-12+014699999V0202701N008719999999N0000001N9+01781+99999099431ADDGF102991999999999999999999
0029028970999991921053020004+64217+027767FM-12+014699999V0202701N007219999999N0000001N9+01331+99999099921ADDGF100991999999999999999999
0029028970999991921053106004+64217+027767FM-12+014699999V0202701N003119999999N0000001N9+01221+99999100581ADDGF102991999999999999999999
0029028970999991921053113004+64217+027767FM-12+014699999V0202501N007219999999N0000001N9+01941+99999100621ADDGF102991999999999999999999
0029028970999991921053120004+64217+027767FM-12+014699999V0209991C000019999999N0000001N9+01561+99999100481ADDGF100991999999999999999999
0029028970999991921060106004+64217+027767FM-12+014699999V0202301N007219999999N0000001N9+01611+99999100431ADDGF100991999999999999999999
0029028970999991921060113004+64217+027767FM-12+014699999V0202301N008719999999N0000001N9+02331+99999100311ADDGF102991999999999999999999
0029028970999991921060120004+64217+027767FM-12+014699999V0202901N005119999999N0000001N9+01831+99999100351ADDGF100991999999999999999999
0029028970999991921060206004+64217+027767FM-12+014699999V0202901N003119999999N0000001N9+01441+99999100741ADDGF100991999999999999999999
0029028970999991921060213004+64217+027767FM-12+014699999V0202901N007219999999N0000001N9+02061+99999100801ADDGF100991999999999999999999
0029028970999991921060220004+64217+027767FM-12+014699999V0203401N003119999999N0000001N9+01501+99999100621ADDGF100991999999999999999999
0029028970999991921060306004+64217+027767FM-12+014699999V0202901N005119999999N0000001N9+01561+99999100201ADDGF100991999999999999999999
0029028970999991921060313004+64217+027767FM-12+014699999V0202901N008719999999N0000001N9+01831+99999099921ADDGF100991999999999999999999
0029028970999991921060320004+64217+027767FM-12+014699999V0202901N005119999999N0000001N9+01281+99999099961ADDGF100991999999999999999999
0029028970999991921060406004+64217+027767FM-12+014699999V0202901N015919999999N0000001N9+01061+99999100081ADDGF102991999999999999999999
0029028970999991921060413004+64217+027767FM-12+014699999V0202701N015919999999N0000001N9+01281+99999100041ADDGF102991999999999999999999
0029028970999991921060420004+64217+027767FM-12+014699999V0202901N003119999999N0000001N9+00941+99999099671ADDGF106991999999999999999999
0035028970999991921060506004+64217+027767FM-12+014699999V0209991C000019999999N0000001N9+00441+99999099031ADDGF108991999999999999999999MW1621
0029028970999991921060513004+64217+027767FM-12+014699999V0203201N010819999999N0000001N9+00831+99999098861ADDGF108991999999999999999999
0029028970999991921060520004+64217+027767FM-12+014699999V0203201N005119999999N0000001N9+00781+99999098841ADDGF102991999999999999999999
0029028970999991921060606004+64217+027767FM-12+014699999V0203201N008719999999N0000001N9+00561+99999099081ADDGF106991999999999999999999
0000028970999991921060613004+64217+027767FM-12+014699999V0203401N008719999999N0000001N9+00831+99999099241
0029028970999991921060620004+64217+027767FM-12+014699999V0202901N003119999999N0000001N9+00671+99999099281ADDGF106991999999999999999999
0029028970999991921060706004+64217+027767FM-12+014699999V0202301N005119999999N0000001N9+00831+99999099221ADDGF101991999999999999999999
0029028970999991921060713004+64217+027767FM-12+014699999V0202301N003119999999N0000001N9+01281+99999099121ADDGF105991999999999999999999
0029028970999991921060720004+64217+027767FM-12+014699999V0209991C000019999999N0000001N9+01171+99999099141ADDGF106991999999999999999999
0029028970999991921060806004+64217+027767FM-12+014699999V0202301N005119999999N0000001N9+01391+99999098941ADDGF104991999999999999999999
0029028970999991921060813004+64217+027767FM-12+014699999V0200501N005119999999N0000001N9+01721+99999099001ADDGF106991999999999999999999
0029028970999991921060820004+64217+027767FM-12+014699999V0200501N005119999999N0000001N9+01331+99999098941ADDGF104991999999999999999999
0029028970999991921060906004+64217+027767FM-12+014699999V0202301N003119999999N0000001N9+01111+99999098881ADDGF102991999999999999999999
0029028970999991921060913004+64217+027767FM-12+014699999V0202901N003119999999N0000001N9+01561+99999098521ADDGF102991999999999999999999
0029028970999991921060920004+64217+027767FM-12+014699999V0209991C000019999999N0000001N9+01221+99999098521ADDGF104991999999999999999999
0029028970999991921061006004+64217+027767FM-12+014699999V0209991C000019999999N0000001N9+01611+99999098631ADDGF100991999999999999999999
0029028970999991921061013004+64217+027767FM-12+014699999V0202301N005119999999N0000001N9+02331+99999098751ADDGF106991999999999999999999
0029028970999991921061020004+64217+027767FM-12+014699999V0202001N003119999999N0000001N9+01941+99999098951ADDGF104991999999999999999999
0029028970999991921061106004+64217+027767FM-12+014699999V0201801N005119999999N0000001N9+02001+99999099001ADDGF100991999999999999999999
0029028970999991921061113004+64217+027767FM-12+014699999V0202001N005119999999N0000001N9+02221+99999098951ADDGF105991999999999999999999
0029028970999991921061120004+64217+027767FM-12+014699999V0209991C000019999999N0000001N9+01561+99999099071ADDGF100991999999999999999999
0029028970999991921061206004+64217+027767FM-12+014699999V0202001N003119999999N0000001N9+01671+99999099081ADDGF106991999999999999999999
0035028970999991921061213004+64217+027767FM-12+014699999V0202001N007219999999N0000001N9+01441+99999098921ADDGF108991999999999999999999MW1621
0029028970999991921061220004+64217+027767FM-12+014699999V0209991C000019999999N0000001N9+01331+99999099061ADDGF106991999999999999999999
0029028970999991921061306004+64217+027767FM-12+014699999V0201801N003119999999N0000001N9+01221+99999099021ADDGF108991999999999999999999
0029028970999991921061313004+64217+027767FM-12+014699999V0202501N005119999999N0000001N9+01671+99999099071ADDGF106991999999999999999999
0029028970999991921061320004+64217+027767FM-12+014699999V0201801N005119999999N0000001N9+01281+99999099271ADDGF106991999999999999999999
0029028970999991921061406004+64217+027767FM-12+014699999V0202001N003119999999N0000001N9+01501+99999099541ADDGF106991999999999999999999
0029028970999991921061413004+64217+027767FM-12+014699999V0202901N003119999999N0000001N9+01671+99999099621ADDGF106991999999999999999999
0029028970999991921061420004+64217+027767FM-12+014699999V0209991C000019999999N0000001N9+01561+99999099671ADDGF102991999999999999999999
0029028970999991921061506004+64217+027767FM-12+014699999V0202901N005119999999N0000001N9+01281+99999099711ADDGF100991999999999999999999
0029028970999991921061513004+64217+027767FM-12+014699999V0202001N005119999999N0000001N9+01781+99999099511ADDGF102991999999999999999999
0029028970999991921061520004+64217+027767FM-12+014699999V0209991C000019999999N0000001N9+01501+99999099341ADDGF100991999999999999999999
0029028970999991921061606004+64217+027767FM-12+014699999V0202901N003119999999N0000001N9+01171+99999099321ADDGF102991999999999999999999
0029028970999991921061613004+64217+027767FM-12+014699999V0202901N007219999999N0000001N9+01391+99999099391ADDGF103991999999999999999999
0029028970999991921061620004+64217+027767FM-12+014699999V0202901N007219999999N0000001N9+01111+99999099501ADDGF101991999999999999999999
0029028970999991921061706004+64217+027767FM-12+014699999V0202901N007219999999N0000001N9+01001+99999099471ADDGF101991999999999999999999
0029028970999991921061713004+64217+027767FM-12+014699999V0202901N007219999999N0000001N9+01501+99999099341ADDGF101991999999999999999999
0029028970999991921061720004+64217+027767FM-12+014699999V0209991C000019999999N0000001N9+01111+99999099031ADDGF100991999999999999999999
0029028970999991921061806004+64217+027767FM-12+014699999V0202001N005119999999N0000001N9+01561+99999098901ADDGF100991999999999999999999
0029028970999991921061813004+64217+027767FM-12+014699999V0200901N007219999999N0000001N9+02001+99999098671ADDGF100991999999999999999999
0029028970999991921061820004+64217+027767FM-12+014699999V0200701N008719999999N0000001N9+01671+99999098481ADDGF102991999999999999999999
0029028970999991921061906004+64217+027767FM-12+014699999V0203601N005119999999N0000001N9+01171+99999097951ADDGF108991999999999999999999
0009028970999991921061913004+64217+027767FM-12+014699999V0200701N005119999999N0000001N9+01171+99999097671ADDMW1621
0029028970999991921061920004+64217+027767FM-12+014699999V0202001N003119999999N0000001N9+01221+99999097561ADDGF108991999999999999999999
0029028970999991921062006004+64217+027767FM-12+014699999V0202001N007219999999N0000001N9+01221+99999097701ADDGF108991999999999999999999
0035028970999991921062013004+64217+027767FM-12+014699999V0201801N008719999999N0000001N9+01561+99999097701ADDGF108991999999999999999999MW1621
0035028970999991921062020004+64217+027767FM-12+014699999V0202301N005119999999N0000001N9+01001+99999097881ADDGF108991999999999999999999MW1621
0029028970999991921062106004+64217+027767FM-12+014699999V0202001N008719999999N0000001N9+01111+99999098381ADDGF104991999999999999999999
0029028970999991921062113004+64217+027767FM-12+014699999V0202001N010819999999N0000001N9+01611+99999098681ADDGF104991999999999999999999
0029028970999991921062120004+64217+027767FM-12+014699999V0202001N005119999999N0000001N9+01441+99999099141ADDGF104991999999999999999999
0029028970999991921062206004+64217+027767FM-12+014699999V0200701N005119999999N0000001N9+01171+99999099391ADDGF108991999999999999999999
0000028970999991921062213004+64217+027767FM-12+014699999V0202301N007219999999N0000001N9+01891+99999099401
0029028970999991921062220004+64217+027767FM-12+014699999V0201101N003119999999N0000001N9+01671+99999099281ADDGF108991999999999999999999
0029028970999991921062306004+64217+027767FM-12+014699999V0201101N003119999999N0000001N9+01441+99999098901ADDGF108991999999999999999999
0029028970999991921062313004+64217+027767FM-12+014699999V0203201N003119999999N0000001N9+01111+99999098881ADDGF108991999999999999999999
0029028970999991921062320004+64217+027767FM-12+014699999V0209991C000019999999N0000001N9+01331+99999098831ADDGF102991999999999999999999
0029028970999991921062406004+64217+027767FM-12+014699999V0209991C000019999999N0000001N9+01171+99999099111ADDGF100991999999999999999999
0029028970999991921062413004+64217+027767FM-12+014699999V0202901N007219999999N0000001N9+01781+99999099441ADDGF101991999999999999999999
0029028970999991921062420004+64217+027767FM-12+014699999V0209991C000019999999N0000001N9+01331+99999099621ADDGF101991999999999999999999
0029028970999991921062506004+64217+027767FM-12+014699999V0200501N003119999999N0000001N9+01281+99999099601ADDGF108991999999999999999999
0000028970999991921062513004+64217+027767FM-12+014699999V0200201N007219999999N0000001N9+01671+99999099581
0029028970999991921062520004+64217+027767FM-12+014699999V0200501N008719999999N0000001N9+01391+99999099421ADDGF105991999999999999999999
0029028970999991921062606004+64217+027767FM-12+014699999V0200501N005119999999N0000001N9+01441+99999099191ADDGF100991999999999999999999
0029028970999991921062613004+64217+027767FM-12+014699999V0201801N005119999999N0000001N9+01671+99999099191ADDGF102991999999999999999999
0029028970999991921062620004+64217+027767FM-12+014699999V0201401N003119999999N0000001N9+01331+99999099111ADDGF104991999999999999999999
0029028970999991921062706004+64217+027767FM-12+014699999V0201401N005119999999N0000001N9+01501+99999098981ADDGF108991999999999999999999
0029028970999991921062713004+64217+027767FM-12+014699999V0201801N003119999999N0000001N9+02061+99999098821ADDGF108991999999999999999999
0029028970999991921062720004+64217+027767FM-12+014699999V0202901N003119999999N0000001N9+01391+99999098961ADDGF106991999999999999999999
0035028970999991921062806004+64217+027767FM-12+014699999V0202901N003119999999N0000001N9+01061+99999098781ADDGF108991999999999999999999MW1621
0029028970999991921062813004+64217+027767FM-12+014699999V0202901N005119999999N0000001N9+01281+99999098661ADDGF108991999999999999999999
0029028970999991921062820004+64217+027767FM-12+014699999V0209991C000019999999N0000001N9+01331+99999098281ADDGF100991999999999999999999
0029028970999991921062906004+64217+027767FM-12+014699999V0202901N003119999999N0000001N9+01061+99999097921ADDGF108991999999999999999999
0035028970999991921062913004+64217+027767FM-12+014699999V0209991C000019999999N0000001N9+01611+99999097641ADDGF108991999999999999999999MW1641
0035028970999991921062920004+64217+027767FM-12+014699999V0200701N005119999999N0000001N9+01391+99999097861ADDGF108991999999999999999999MW1641
0035028970999991921063006004+64217+027767FM-12+014699999V0209991C000019999999N0000001N9+01061+99999098241ADDGF108991999999999999999999MW1621
0035028970999991921063013004+64217+027767FM-12+014699999V0200201N003119999999N0000001N9+01221+99999098601ADDGF108991999999999999999999MW1621
0029028970999991921063020004+64217+027767FM-12+014699999V0200701N002119999999N0000001N9+01001+99999099001ADDGF108991999999999999999999
0029028970999991921070106004+64217+027767FM-12+014699999V0200501N005119999999N0000001N9+00891+99999099461ADDGF108991999999999999999999
0000028970999991921070113004+64217+027767FM-12+014699999V0200501N005119999999N0000001N9+01111+99999099721
0029028970999991921070120004+64217+027767FM-12+014699999V0209991C000019999999N0000001N9+01001+99999099801ADDGF107991999999999999999999
0029028970999991921070206004+64217+027767FM-12+014699999V0200701N003119999999N0000001N9+01281+99999100081ADDGF100991999999999999999999
0029028970999991921070213004+64217+027767FM-12+014699999V0200501N003119999999N0000001N9+01781+99999100031ADDGF102991999999999999999999
0029028970999991921070220004+64217+027767FM-12+014699999V0209991C000019999999N0000001N9+01561+99999099911ADDGF100991999999999999999999
0029028970999991921070306004+64217+027767FM-12+014699999V0202901N003119999999N0000001N9+01501+99999099991ADDGF102991999999999999999999
0029028970999991921070313004+64217+027767FM-12+014699999V0202901N005119999999N0000001N9+02171+99999099941ADDGF102991999999999999999999
0029028970999991921070320004+64217+027767FM-12+014699999V0209991C000019999999N0000001N9+01721+99999099881ADDGF103991999999999999999999
0029028970999991921070406004+64217+027767FM-12+014699999V0209991C000019999999N0000001N9+01721+99999099821ADDGF102991999999999999999999
0029028970999991921070413004+64217+027767FM-12+014699999V0203201N003119999999N0000001N9+02111+99999099661ADDGF107991999999999999999999
0029028970999991921070420004+64217+027767FM-12+014699999V0203401N003119999999N0000001N9+01501+99999099501ADDGF107991999999999999999999
0029028970999991921070506004+64217+027767FM-12+014699999V0201801N003119999999N0000001N9+01611+99999099271ADDGF104991999999999999999999
0000028970999991921070513004+64217+027767FM-12+014699999V0202501N007219999999N0000001N9+01891+99999099221
0029028970999991921070520004+64217+027767FM-12+014699999V0202901N003119999999N0000001N9+01441+99999099191ADDGF108991999999999999999999
0029028970999991921070606004+64217+027767FM-12+014699999V0202901N003119999999N0000001N9+01171+99999099201ADDGF108991999999999999999999
0000028970999991921070613004+64217+027767FM-12+014699999V0203401N003119999999N0000001N9+01611+99999099231
0029028970999991921070620004+64217+027767FM-12+014699999V0202901N007219999999N0000001N9+01221+99999099151ADDGF104991999999999999999999
0029028970999991921070706004+64217+027767FM-12+014699999V0203401N003119999999N0000001N9+01001+99999099281ADDGF108991999999999999999999
0029028970999991921070713004+64217+027767FM-12+014699999V0203201N005119999999N0000001N9+01501+99999099431ADDGF106991999999999999999999
0029028970999991921070720004+64217+027767FM-12+014699999V0203201N003119999999N0000001N9+01221+99999099681ADDGF104991999999999999999999
0029028970999991921070806004+64217+027767FM-12+014699999V0202901N003119999999N0000001N9+01221+99999099981ADDGF102991999999999999999999
0029028970999991921070813004+64217+027767FM-12+014699999V0202701N005119999999N0000001N9+02001+99999099781ADDGF102991999999999999999999
0029028970999991921070820004+64217+027767FM-12+014699999V0202001N005119999999N0000001N9+01721+99999099601ADDGF105991999999999999999999
0029028970999991921070906004+64217+027767FM-12+014699999V0202001N003119999999N0000001N9+01561+99999099141ADDGF106991999999999999999999
0029028970999991921070913004+64217+027767FM-12+014699999V0202901N005119999999N0000001N9+01831+99999098991ADDGF105991999999999999999999
0029028970999991921070920004+64217+027767FM-12+014699999V0203201N007219999999N0000001N9+01561+99999098991ADDGF107991999999999999999999
0029028970999991921071006004+64217+027767FM-12+014699999V0202901N007219999999N0000001N9+01281+99999098941ADDGF102991999999999999999999
0029028970999991921071013004+64217+027767FM-12+014699999V0202901N003119999999N0000001N9+01611+99999098881ADDGF106991999999999999999999
0029028970999991921071020004+64217+027767FM-12+014699999V0202901N007219999999N0000001N9+01331+99999098831ADDGF108991999999999999999999
0029028970999991921071106004+64217+027767FM-12+014699999V0202301N003119999999N0000001N9+01111+99999098761ADDGF107991999999999999999999
0029028970999991921071113004+64217+027767FM-12+014699999V0202901N005119999999N0000001N9+01781+99999098501ADDGF106991999999999999999999
0035028970999991921071120004+64217+027767FM-12+014699999V0202901N003119999999N0000001N9+01281+99999098241ADDGF108991999999999999999999MW1621
0035028970999991921071206004+64217+027767FM-12+014699999V0202301N003119999999N0000001N9+01221+99999097101ADDGF108991999999999999999999MW1621
0035028970999991921071213004+64217+027767FM-12+014699999V0200701N003119999999N0000001N9+01441+99999096861ADDGF108991999999999999999999MW1621
0035028970999991921071220004+64217+027767FM-12+014699999V0200701N003119999999N0000001N9+01281+99999096641ADDGF108991999999999999999999MW1621
0029028970999991921071306004+64217+027767FM-12+014699999V0209991C000019999999N0000001N9+01171+99999096641ADDGF108991999999999999999999
0009028970999991921071313004+64217+027767FM-12+014699999V0203401N003119999999N0000001N9+01331+99999096721ADDMW1641
0029028970999991921071320004+64217+027767FM-12+014699999V0203401N003119999999N0000001N9+01331+99999097001ADDGF107991999999999999999999
0035028970999991921071406004+64217+027767FM-12+014699999V0203601N007219999999N0000001N9+00891+99999097721ADDGF108991999999999999999999MW1621
0000028970999991921071413004+64217+027767FM-12+014699999V0203601N003119999999N0000001N9+01111+99999098231
0029028970999991921071420004+64217+027767FM-12+014699999V0203401N007219999999N0000001N9+01111+99999098641ADDGF107991999999999999999999
0029028970999991921071506004+64217+027767FM-12+014699999V0203401N003119999999N0000001N9+00891+99999099081ADDGF108991999999999999999999
0029028970999991921071513004+64217+027767FM-12+014699999V0203401N003119999999N0000001N9+01171+99999099471ADDGF107991999999999999999999
0029028970999991921071520004+64217+027767FM-12+014699999V0209991C000019999999N0000001N9+01221+99999099621ADDGF103991999999999999999999
0029028970999991921071606004+64217+027767FM-12+014699999V0203401N003119999999N0000001N9+01111+99999099841ADDGF107991999999999999999999
0029028970999991921071613004+64217+027767FM-12+014699999V0202901N005119999999N0000001N9+01501+99999099821ADDGF106991999999999999999999
0029028970999991921071620004+64217+027767FM-12+014699999V0203401N003119999999N0000001N9+01171+99999099761ADDGF107991999999999999999999
0029028970999991921071706004+64217+027767FM-12+014699999V0200701N003119999999N0000001N9+00941+99999099781ADDGF108991999999999999999999
0029028970999991921071713004+64217+027767FM-12+014699999V0200501N003119999999N0000001N9+01441+99999100081ADDGF105991999999999999999999
0029028970999991921071720004+64217+027767FM-12+014699999V0203601N003119999999N0000001N9+01221+99999100201ADDGF102991999999999999999999
0029028970999991921071806004+64217+027767FM-12+014699999V0200701N003119999999N0000001N9+01331+99999100231ADDGF101991999999999999999999
0029028970999991921071813004+64217+027767FM-12+014699999V0202901N003119999999N0000001N9+01501+99999100021ADDGF106991999999999999999999
0035028970999991921071820004+64217+027767FM-12+014699999V0203401N003119999999N0000001N9+01331+99999099671ADDGF108991999999999999999999MW1621
0029028970999991921071906004+64217+027767FM-12+014699999V0200701N003119999999N0000001N9+00941+99999099621ADDGF107991999999999999999999
0000028970999991921071913004+64217+027767FM-12+014699999V0200701N007219999999N0000001N9+01221+99999099671
0029028970999991921071920004+64217+027767FM-12+014699999V0203601N005119999999N0000001N9+01001+99999099701ADDGF102991999999999999999999
0029028970999991921072006004+64217+027767FM-12+014699999V0209991C000019999999N0000001N9+01171+99999099781ADDGF106991999999999999999999
0000028970999991921072013004+64217+027767FM-12+014699999V0200501N003119999999N0000001N9+01561+99999099721
0029028970999991921072020004+64217+027767FM-12+014699999V0209991C000019999999N0000001N9+01281+99999099601ADDGF108991999999999999999999
0029028970999991921072106004+64217+027767FM-12+014699999V0201401N003119999999N0000001N9+01221+99999099401ADDGF107991999999999999999999
0000028970999991921072113004+64217+027767FM-12+014699999V0201801N003119999999N0000001N9+01501+99999099191
0029028970999991921072120004+64217+027767FM-12+014699999V0209991C000019999999N0000001N9+01331+99999099001ADDGF108991999999999999999999
0029028970999991921072206004+64217+027767FM-12+014699999V0209991C000019999999N0000001N9+01281+99999098801ADDGF107991999999999999999999
0029028970999991921072213004+64217+027767FM-12+014699999V0203201N003119999999N0000001N9+01781+99999098741ADDGF106991999999999999999999
0029028970999991921072220004+64217+027767FM-12+014699999V0209991C000019999999N0000001N9+01331+99999098631ADDGF103991999999999999999999
0029028970999991921072306004+64217+027767FM-12+014699999V0200701N003119999999N0000001N9+01501+99999098431ADDGF102991999999999999999999
0000028970999991921072313004+64217+027767FM-12+014699999V0202301N005119999999N0000001N9+01611+99999098061
0029028970999991921072320004+64217+027767FM-12+014699999V0200901N005119999999N0000001N9+01441+99999097591ADDGF107991999999999999999999
0029028970999991921072406004+64217+027767FM-12+014699999V0200501N007219999999N0000001N9+01391+99999097261ADDGF108991999999999999999999
0000028970999991921072413004+64217+027767FM-12+014699999V0202001N003119999999N0000001N9+01331+99999097281
0029028970999991921072420004+64217+027767FM-12+014699999V0200701N003119999999N0000001N9+01331+99999097081ADDGF108991999999999999999999
0029028970999991921072506004+64217+027767FM-12+014699999V0209991C000019999999N0000001N9+01221+99999096831ADDGF104991999999999999999999
0035028970999991921072513004+64217+027767FM-12+014699999V0200201N005119999999N0000001N9+01441+99999097301ADDGF108991999999999999999999MW1641
0029028970999991921072520004+64217+027767FM-12+014699999V0203401N003119999999N0000001N9+01281+99999098021ADDGF107991999999999999999999
0029028970999991921072606004+64217+027767FM-12+014699999V0203401N003119999999N0000001N9+01391+99999098781ADDGF100991999999999999999999
0029028970999991921072613004+64217+027767FM-12+014699999V0203401N003119999999N0000001N9+02061+99999099111ADDGF101991999999999999999999
0029028970999991921072620004+64217+027767FM-12+014699999V0209991C000019999999N0000001N9+01561+99999099151ADDGF102991999999999999999999
0029028970999991921072706004+64217+027767FM-12+014699999V0200701N003119999999N0000001N9+01221+99999098901ADDGF108991999999999999999999
0000028970999991921072713004+64217+027767FM-12+014699999V0202001N003119999999N0000001N9+01831+99999098441
0029028970999991921072720004+64217+027767FM-12+014699999V0202001N003119999999N0000001N9+01561+99999098191ADDGF106991999999999999999999
0029028970999991921072806004+64217+027767FM-12+014699999V0202901N005119999999N0000001N9+01281+99999098281ADDGF108991999999999999999999
0029028970999991921072813004+64217+027767FM-12+014699999V0202901N008719999999N0000001N9+01941+99999098461ADDGF103991999999999999999999
0029028970999991921072820004+64217+027767FM-12+014699999V0209991C000019999999N0000001N9+01391+99999098581ADDGF100991999999999999999999
0029028970999991921072906004+64217+027767FM-12+014699999V0202701N003119999999N0000001N9+01331+99999098871ADDGF100991999999999999999999
0029028970999991921072913004+64217+027767FM-12+014699999V0202901N007219999999N0000001N9+01781+99999099181ADDGF102991999999999999999999
0029028970999991921072920004+64217+027767FM-12+014699999V0202901N003119999999N0000001N9+01331+99999099431ADDGF100991999999999999999999
0029028970999991921073006004+64217+027767FM-12+014699999V0200701N003119999999N0000001N9+01221+99999099501ADDGF108991999999999999999999
0000028970999991921073013004+64217+027767FM-12+014699999V0202701N003119999999N0000001N9+01391+99999099201
0029028970999991921073020004+64217+027767FM-12+014699999V0202701N011819999999N0000001N9+01061+99999098521ADDGF108991999999999999999999
0029028970999991921073106004+64217+027767FM-12+014699999V0202701N003119999999N0000001N9+01221+99999097951ADDGF108991999999999999999999
0000028970999991921073113004+64217+027767FM-12+014699999V0200201N003119999999N0000001N9+01391+99999098301
0029028970999991921073120004+64217+027767FM-12+014699999V0200701N003119999999N0000001N9+01111+99999098791ADDGF108991999999999999999999
0029028970999991921080106004+64217+027767FM-12+014699999V0200501N003119999999N0000001N9+00941+99999099181ADDGF108991999999999999999999
0000028970999991921080113004+64217+027767FM-12+014699999V0201401N003119999999N0000001N9+01391+99999099361
0029028970999991921080120004+64217+027767FM-12+014699999V0209991C000019999999N0000001N9+01331+99999099501ADDGF108991999999999999999999
0029028970999991921080206004+64217+027767FM-12+014699999V0209991C000019999999N0000001N9+01441+99999099621ADDGF107991999999999999999999
0029028970999991921080213004+64217+027767FM-12+014699999V0202901N003119999999N0000001N9+01671+99999099751ADDGF102991999999999999999999
0029028970999991921080220004+64217+027767FM-12+014699999V0209991C000019999999N0000001N9+01281+99999099871ADDGF100991999999999999999999
0029028970999991921080306004+64217+027767FM-12+014699999V0209991C000019999999N0000001N9+01281+99999099951ADDGF107991999999999999999999
0000028970999991921080313004+64217+027767FM-12+014699999V0201801N003119999999N0000001N9+02001+99999099761
0029028970999991921080320004+64217+027767FM-12+014699999V0200701N003119999999N0000001N9+01941+99999099391ADDGF107991999999999999999999
0029028970999991921080406004+64217+027767FM-12+014699999V0209991C000019999999N0000001N9+01441+99999099471ADDGF108991999999999999999999
0000028970999991921080413004+64217+027767FM-12+014699999V0209991C000019999999N0000001N9+01941+99999099431
0029028970999991921080420004+64217+027767FM-12+014699999V0209991C000019999999N0000001N9+01831+99999098941ADDGF108991999999999999999999
0029028970999991921080506004+64217+027767FM-12+014699999V0200901N003119999999N0000001N9+01781+99999098631ADDGF108991999999999999999999
0029028970999991921080513004+64217+027767FM-12+014699999V0200901N003119999999N0000001N9+01781+99999098671ADDGF107991999999999999999999
0029028970999991921080520004+64217+027767FM-12+014699999V0209991C000019999999N0000001N9+01111+99999098671ADDGF100991999999999999999999
0029028970999991921080606004+64217+027767FM-12+014699999V0209991C000019999999N0000001N9+01391+99999098421ADDGF102991999999999999999999
0029028970999991921080613004+64217+027767FM-12+014699999V0209991C000019999999N0000001N9+01781+99999098191ADDGF106991999999999999999999
0035028970999991921080620004+64217+027767FM-12+014699999V0209991C000019999999N0000001N9+01441+99999097761ADDGF108991999999999999999999MW1621
0035028970999991921080706004+64217+027767FM-12+014699999V0202301N003119999999N0000001N9+01331+99999097041ADDGF108991999999999999999999MW1621
0000028970999991921080713004+64217+027767FM-12+014699999V0202301N003119999999N0000001N9+01671+99999096831
0029028970999991921080720004+64217+027767FM-12+014699999V0202301N003119999999N0000001N9+01331+99999096831ADDGF108991999999999999999999
0029028970999991921080806004+64217+027767FM-12+014699999V0200901N003119999999N0000001N9+01281+99999096841ADDGF108991999999999999999999
0029028970999991921080813004+64217+027767FM-12+014699999V0209991C000019999999N0000001N9+01561+99999096861ADDGF107991999999999999999999
0029028970999991921080820004+64217+027767FM-12+014699999V0209991C000019999999N0000001N9+01331+99999096831ADDGF104991999999999999999999
0029028970999991921080906004+64217+027767FM-12+014699999V0202301N003119999999N0000001N9+01061+99999096821ADDGF106991999999999999999999
0029028970999991921080913004+64217+027767FM-12+014699999V0201601N003119999999N0000001N9+01281+99999097321ADDGF107991999999999999999999
0029028970999991921080920004+64217+027767FM-12+014699999V0209991C000019999999N0000001N9+01171+99999097671ADDGF102991999999999999999999
0029028970999991921081006004+64217+027767FM-12+014699999V0209991C000019999999N0000001N9+01281+99999098161ADDGF103991999999999999999999
0029028970999991921081013004+64217+027767FM-12+014699999V0202901N003119999999N0000001N9+01941+99999098461ADDGF104991999999999999999999
0029028970999991921081020004+64217+027767FM-12+014699999V0209991C000019999999N0000001N9+01391+99999098701ADDGF108991999999999999999999
0029028970999991921081106004+64217+027767FM-12+014699999V0209991C000019999999N0000001N9+01391+99999098831ADDGF108991999999999999999999
0029028970999991921081113004+64217+027767FM-12+014699999V0202901N003119999999N0000001N9+01611+99999099041ADDGF107991999999999999999999
0029028970999991921081120004+64217+027767FM-12+014699999V0209991C000019999999N0000001N9+01391+99999099261ADDGF108991999999999999999999
0035028970999991921081206004+64217+027767FM-12+014699999V0200501N003119999999N0000001N9+01331+99999099561ADDGF108991999999999999999999MW1601
0029028970999991921081213004+64217+027767FM-12+014699999V0202901N003119999999N0000001N9+01721+99999099711ADDGF106991999999999999999999
0029028970999991921081220004+64217+027767FM-12+014699999V0209991C000019999999N0000001N9+01501+99999099721ADDGF108991999999999999999999
0029028970999991921081306004+64217+027767FM-12+014699999V0209991C000019999999N0000001N9+01561+99999099751ADDGF107991999999999999999999
0029028970999991921081313004+64217+027767FM-12+014699999V0201801N003119999999N0000001N9+01941+99999099701ADDGF108991999999999999999999
0029028970999991921081320004+64217+027767FM-12+014699999V0200901N003119999999N0000001N9+01561+99999099521ADDGF107991999999999999999999
0029028970999991921081406004+64217+027767FM-12+014699999V0201601N005119999999N0000001N9+01561+99999099361ADDGF102991999999999999999999
0029028970999991921081413004+64217+027767FM-12+014699999V0201601N005119999999N0000001N9+01941+99999099271ADDGF102991999999999999999999
0029028970999991921081420004+64217+027767FM-12+014699999V0201601N003119999999N0000001N9+01391+99999099301ADDGF100991999999999999999999
0029028970999991921081506004+64217+027767FM-12+014699999V0200901N003119999999N0000001N9+01941+99999099391ADDGF100991999999999999999999
0029028970999991921081513004+64217+027767FM-12+014699999V0201801N003119999999N0000001N9+02611+99999099461ADDGF105991999999999999999999
0029028970999991921081520004+64217+027767FM-12+014699999V0209991C000019999999N0000001N9+01781+99999099541ADDGF100991999999999999999999
0029028970999991921081606004+64217+027767FM-12+014699999V0209991C000019999999N0000001N9+01611+99999099841ADDGF108991999999999999999999
0029028970999991921081613004+64217+027767FM-12+014699999V0202501N003119999999N0000001N9+02111+99999099881ADDGF106991999999999999999999
0029028970999991921081620004+64217+027767FM-12+014699999V0209991C000019999999N0000001N9+01501+99999100021ADDGF102991999999999999999999
0029028970999991921081706004+64217+027767FM-12+014699999V0200901N003119999999N0000001N9+01561+99999100151ADDGF101991999999999999999999
0035028970999991921081713004+64217+027767FM-12+014699999V0202501N003119999999N0000001N9+01831+99999099991ADDGF107991999999999999999999MW1621
0029028970999991921081720004+64217+027767FM-12+014699999V0209991C000019999999N0000001N9+01331+99999099901ADDGF106991999999999999999999
0029028970999991921081806004+64217+027767FM-12+014699999V0202301N003119999999N0000001N9+01781+99999099791ADDGF108991999999999999999999
0029028970999991921081813004+64217+027767FM-12+014699999V0202901N007219999999N0000001N9+01501+99999099991ADDGF104991999999999999999999
0029028970999991921081820004+64217+027767FM-12+014699999V0209991C000019999999N0000001N9+01171+99999100101ADDGF107991999999999999999999
0029028970999991921081906004+64217+027767FM-12+014699999V0209991C000019999999N0000001N9+01001+99999100221ADDGF106991999999999999999999
0029028970999991921081913004+64217+027767FM-12+014699999V0202301N003119999999N0000001N9+01331+99999100261ADDGF107991999999999999999999
0029028970999991921081920004+64217+027767FM-12+014699999V0209991C000019999999N0000001N9+01001+99999100261ADDGF106991999999999999999999
0029028970999991921082006004+64217+027767FM-12+014699999V0209991C000019999999N0000001N9+00891+99999100191ADDGF107991999999999999999999
0000028970999991921082013004+64217+027767FM-12+014699999V0202301N003119999999N0000001N9+01331+99999100151
0029028970999991921082020004+64217+027767FM-12+014699999V0209991C000019999999N0000001N9+01221+99999100071ADDGF107991999999999999999999
0029028970999991921082106004+64217+027767FM-12+014699999V0209991C000019999999N0000001N9+01221+99999100031ADDGF104991999999999999999999
0029028970999991921082113004+64217+027767FM-12+014699999V0202301N003119999999N0000001N9+02171+99999099801ADDGF106991999999999999999999
0029028970999991921082120004+64217+027767FM-12+014699999V0209991C000019999999N0000001N9+01721+99999099741ADDGF107991999999999999999999
0029028970999991921082206004+64217+027767FM-12+014699999V0209991C000019999999N0000001N9+01331+99999099801ADDGF108991999999999999999999
0029028970999991921082213004+64217+027767FM-12+014699999V0203201N005119999999N0000001N9+01671+99999100021ADDGF101991999999999999999999
0029028970999991921082220004+64217+027767FM-12+014699999V0209991C000019999999N0000001N9+01111+99999100271ADDGF104991999999999999999999
0029028970999991921082306004+64217+027767FM-12+014699999V0200201N003119999999N0000001N9+00721+99999100671ADDGF101991999999999999999999
0029028970999991921082313004+64217+027767FM-12+014699999V0201801N003119999999N0000001N9+01561+99999100671ADDGF102991999999999999999999
0029028970999991921082320004+64217+027767FM-12+014699999V0209991C000019999999N0000001N9+00721+99999100661ADDGF101991999999999999999999
0029028970999991921082406004+64217+027767FM-12+014699999V0209991C000019999999N0000001N9+00831+99999100641ADDGF108991999999999999999999
0029028970999991921082413004+64217+027767FM-12+014699999V0202301N003119999999N0000001N9+01441+99999100431ADDGF107991999999999999999999
0029028970999991921082420004+64217+027767FM-12+014699999V0209991C000019999999N0000001N9+01171+99999100161ADDGF106991999999999999999999
0029028970999991921082506004+64217+027767FM-12+014699999V0201801N003119999999N0000001N9+01281+99999099871ADDGF106991999999999999999999
0029028970999991921082513004+64217+027767FM-12+014699999V0201801N005119999999N0000001N9+02001+99999099761ADDGF102991999999999999999999
0029028970999991921082520004+64217+027767FM-12+014699999V0201801N005119999999N0000001N9+01501+99999099661ADDGF102991999999999999999999
0029028970999991921082606004+64217+027767FM-12+014699999V0202001N003119999999N0000001N9+01281+99999099581ADDGF102991999999999999999999
0029028970999991921082613004+64217+027767FM-12+014699999V0201801N007219999999N0000001N9+01941+99999099481ADDGF103991999999999999999999
0029028970999991921082620004+64217+027767FM-12+014699999V0201801N005119999999N0000001N9+01111+99999099351ADDGF101991999999999999999999
0029028970999991921082706004+64217+027767FM-12+014699999V0201601N007219999999N0000001N9+01001+99999099221ADDGF104991999999999999999999
0029028970999991921082713004+64217+027767FM-12+014699999V0201601N008719999999N0000001N9+01721+99999099111ADDGF102991999999999999999999
0029028970999991921082720004+64217+027767FM-12+014699999V0201601N007219999999N0000001N9+01111+99999098961ADDGF101991999999999999999999
0029028970999991921082806004+64217+027767FM-12+014699999V0201801N005119999999N0000001N9+01111+99999098471ADDGF108991999999999999999999
0029028970999991921082813004+64217+027767FM-12+014699999V0201801N005119999999N0000001N9+01111+99999098481ADDGF107991999999999999999999
0029028970999991921082820004+64217+027767FM-12+014699999V0201801N003119999999N0000001N9+01001+99999098481ADDGF107991999999999999999999
0029028970999991921082906004+64217+027767FM-12+014699999V0202501N005119999999N0000001N9+00831+99999098721ADDGF107991999999999999999999
0029028970999991921082913004+64217+027767FM-12+014699999V0202501N005119999999N0000001N9+01111+99999099231ADDGF102991999999999999999999
0029028970999991921082920004+64217+027767FM-12+014699999V0202501N003119999999N0000001N9+00611+99999099231ADDGF101991999999999999999999
0029028970999991921083006004+64217+027767FM-12+014699999V0202701N003119999999N0000001N9+00941+99999099221ADDGF107991999999999999999999
0000028970999991921083013004+64217+027767FM-12+014699999V0200901N013919999999N0000001N9+00941+99999098471
0035028970999991921083020004+64217+027767FM-12+014699999V0200901N007219999999N0000001N9+01331+99999097751ADDGF108991999999999999999999MW1621
0029028970999991921083106004+64217+027767FM-12+014699999V0201801N005119999999N0000001N9+01061+99999097741ADDGF104991999999999999999999
0029028970999991921083113004+64217+027767FM-12+014699999V0201801N003119999999N0000001N9+01281+99999098231ADDGF102991999999999999999999
0029028970999991921083120004+64217+027767FM-12+014699999V0201801N003119999999N0000001N9+00721+99999098561ADDGF104991999999999999999999
0029028970999991921090106004+64217+027767FM-12+014699999V0201401N003119999999N0000001N9+00941+99999098581ADDGF104991999999999999999999
0029028970999991921090113004+64217+027767FM-12+014699999V0201401N003119999999N0000001N9+01111+99999098941ADDGF104991999999999999999999
0029028970999991921090120004+64217+027767FM-12+014699999V0209991C000019999999N0000001N9+00831+99999098961ADDGF107991999999999999999999
0029028970999991921090206004+64217+027767FM-12+014699999V0209991C000019999999N0000001N9+00941+99999098961ADDGF104991999999999999999999
0029028970999991921090213004+64217+027767FM-12+014699999V0202001N001019999999N0000001N9+01501+99999098981ADDGF103991999999999999999999
0029028970999991921090220004+64217+027767FM-12+014699999V0209991C000019999999N0000001N9+00501+99999099031ADDGF100991999999999999999999
0029028970999991921090306004+64217+027767FM-12+014699999V0209991C000019999999N0000001N9+00441+99999098911ADDGF108991999999999999999999
0029028970999991921090313004+64217+027767FM-12+014699999V0203201N001019999999N0000001N9+01501+99999098911ADDGF102991999999999999999999
0029028970999991921090320004+64217+027767FM-12+014699999V0209991C000019999999N0000001N9+00941+99999098951ADDGF100991999999999999999999
0029028970999991921090406004+64217+027767FM-12+014699999V0209991C000019999999N0000001N9+00501+99999098921ADDGF108991999999999999999999
0029028970999991921090413004+64217+027767FM-12+014699999V0200501N005119999999N0000001N9+01111+99999098991ADDGF108991999999999999999999
0029028970999991921090420004+64217+027767FM-12+014699999V0200501N005119999999N0000001N9+01111+99999099151ADDGF108991999999999999999999
0029028970999991921090506004+64217+027767FM-12+014699999V0200501N009819999999N0000001N9+00611+99999099711ADDGF108991999999999999999999
0029028970999991921090513004+64217+027767FM-12+014699999V0203601N007219999999N0000001N9+01111+99999099921ADDGF101991999999999999999999
