0054023610999991930010106004+62617+017950FM-12+000999999V0209991C00001000151CN0040001N9-00221+99999099801ADDAA199002091GF108991081061000251999999MD1310041+9999
0043023610999991930010118004+62617+017950FM-12+000999999V0202701N00101220001CN0500001N9-00221+99999099521ADDGF101991011011008001999999MD1310041+9999
0043023610999991930010206004+62617+017950FM-12+000999999V0202701N00101220001CN0500001N9-00221+99999100681ADDGF102991021011004501999999MD1810041+9999
0043023610999991930010218004+62617+017950FM-12+000999999V0201801N00261002401CN0500001N9+00111+99999099711ADDGF108991081061002501999999MD1310041+9999
0054023610999991930010306004+62617+017950FM-12+000999999V0201801N00671000151CN0500001N9+00221+99999099761ADDAA199002091GF108991081061000251999999MD1310041+9999
0054023610999991930010406004+62617+017950FM-12+000999999V0209991C00001002401CN0020001N9+00001+99999098201ADDAA199000591GF106991061061002501999999MD1810041+9999
0043023610999991930010418004+62617+017950FM-12+000999999V0202301N00101220001CN0500001N9+00111+99999099021ADDGF100991001001999999999999MD1310041+9999
0043023610999991930010506004+62617+017950FM-12+000999999V0209991C00001220001CN0500001N9-00111+99999099711ADDGF100991001001999999999999MD1310101+9999
0043023610999991930010518004+62617+017950FM-12+000999999V0202701N00101220001CN0500001N9+00001+99999100191ADDGF102991021011004501999999MD1310041+9999
0054023610999991930010606004+62617+017950FM-12+000999999V0201801N01231002401CN0020001N9+00281+99999098791ADDAA199002091GF108991081061002501999999MD1810161+9999
0054023610999991930010618004+62617+017950FM-12+000999999V0201801N01541002401CN0500001N9+00221+99999098951ADDAA199004091GF108991081061002501999999MD1810161+9999
0043023610999991930010706004+62617+017950FM-12+000999999V0209991C00001220001CN0500001N9+00281+99999099581ADDGF102991021011004501999999MD1310161+9999
0064023610999991930010718004+62617+017950FM-12+000999999V0201801N00671220001CN0500001N9+00111+99999099831ADDGF104991041011002501999999EQDQ01+000032APCTENQ02+000002APC3  
0064023610999991930010806004+62617+017950FM-12+000999999V0202301N00261220001CN0500001N9+00501+99999099551ADDGF102991021011004501999999EQDQ01+000032APCTENQ02+000002APC3  
0043023610999991930010818004+62617+017950FM-12+000999999V0201801N00671002401CN0500001N9+00501+99999099311ADDGF108991081061002501999999MD1810041+9999
0043023610999991930010906004+62617+017950FM-12+000999999V0202301N00101220001CN0500001N9+00111+99999099701ADDGF104991021061002501999999MD1310041+9999
0064023610999991930010918004+62617+017950FM-12+000999999V0201801N00261002401CN0500001N9+00111+99999099711ADDGF108991081061002501999999EQDQ01+000032APCTENQ02+000002APC3  
0064023610999991930011006004+62617+017950FM-12+000999999V0201801N00261220001CN0500001N9+00221+99999099701ADDGF102991021011004501999999EQDQ01+000032APCTENQ02+000002APC3  
0043023610999991930011018004+62617+017950FM-12+000999999V0201801N01901002401CN0500001N9+00391+99999099351ADDGF108991081061002501999999MD1810041+9999
0043023610999991930011106004+62617+017950FM-12+000999999V0201801N00461220001CN0500001N9+00221+99999099441ADDGF101991011011004501999999MD1310041+9999
0043023610999991930011118004+62617+017950FM-12+000999999V0201801N01901002401CN0500001N9+00281+99999099261ADDGF108991081061002501999999MD1810041+9999
0054023610999991930011206004+62617+017950FM-12+000999999V0201401N01231002401CN0040001N9+00281+99999099201ADDAA199000591GF108991081061002501999999MD1310041+9999
0054023610999991930011218004+62617+017950FM-12+000999999V0201401N00101002401CN0010001N9+00281+99999098921ADDAA199004091GF108991081061002501999999MD1810041+9999
0054023610999991930011306004+62617+017950FM-12+000999999V0201801N00461002401CN0200001N9+00221+99999099061ADDAA199005091GF106991061061002501999999MD1310161+9999
0054023610999991930011318004+62617+017950FM-12+000999999V0201801N00461220001CN0500001N9+00221+99999099791ADDAA199000391GF104991041011002501999999MD1310161+9999
0043023610999991930011406004+62617+017950FM-12+000999999V0201801N00461220001CN0500001N9+00111+99999100271ADDGF104991041011002501999999MD1310041+9999
0043023610999991930011418004+62617+017950FM-12+000999999V0202301N00931002401CN0500001N9+00221+99999100221ADDGF108991081061002501999999MD1810041+9999
0054023610999991930011506004+62617+017950FM-12+000999999V0202301N00101220001CN0500001N9-00111+99999100341ADDAA199001091GF104991041061004501999999MD1310161+9999
0054023610999991930011518004+62617+017950FM-12+000999999V0209991C00001002401CN0020001N9+00111+99999099601ADDAA199064091GF108991081061002501999999MD1810161+9999
0054023610999991930011606004+62617+017950FM-12+000999999V0202701N00101220001CN0500001N9-00111+99999100581ADDAA199001091GF101991011011004501999999MD1310241+9999
0043023610999991930011618004+62617+017950FM-12+000999999V0209991C00001220001CN0500001N9-00281+99999101801ADDGF100991001001999999999999MD1310161+9999
0043023610999991930011718004+62617+017950FM-12+000999999V0201801N00261002401CN0500001N9-00111+99999102841ADDGF106991061061002501999999MD1810241+9999
0043023610999991930011806004+62617+017950FM-12+000999999V0201801N00461002401CN0500001N9+00221+99999101621ADDGF108991081061002501999999MD1810241+9999
0043023610999991930011818004+62617+017950FM-12+000999999V0201601N00461220001CN0500001N9+00281+99999101001ADDGF102991021011002501999999MD1810041+9999
0043023610999991930011906004+62617+017950FM-12+000999999V0201801N00261220001CN0500001N9+00391+99999101991ADDGF102991021011004501999999MD1810161+9999
0043023610999991930011918004+62617+017950FM-12+000999999V0201801N00261220001CN0500001N9+00391+99999100321ADDGF102991021011004501999999MD1810161+9999
0043023610999991930012018004+62617+017950FM-12+000999999V0201801N00261002401CN0500001N9+00501+99999099601ADDGF108991081061002501999999MD1310041+9999
0043023610999991930012106004+62617+017950FM-12+000999999V0202701N00101002401CN0500001N9+00111+99999100031ADDGF106991061061002501999999MD1310201+9999
0043023610999991930012118004+62617+017950FM-12+000999999V0209991C00001220001CN0500001N9+00111+99999101041ADDGF100991001001999999999999MD1310041+9999
0043023610999991930012206004+62617+017950FM-12+000999999V0209991C00001220001CN0500001N9-00281+99999101911ADDGF100991001001999999999999MD1310161+9999
0043023610999991930012218004+62617+017950FM-12+000999999V0209991C00001220001CN0500001N9-00501+99999101791ADDGF100991001001999999999999MD1810041+9999
0043023610999991930012306004+62617+017950FM-12+000999999V0209991C00001220001CN0500001N9-00501+99999101241ADDGF102991021011004501999999MD1810161+9999
0043023610999991930012406004+62617+017950FM-12+000999999V0209991C00001220001CN0500001N9-00221+99999100621ADDGF102991001001999999999999MD1310041+9999
0043023610999991930012418004+62617+017950FM-12+000999999V0209991C00001220001CN0500001N9-00111+99999101051ADDGF102991021011004501999999MD1310161+9999
0043023610999991930012506004+62617+017950FM-12+000999999V0209991C00001220001CN0005001N9-00501+99999101231ADDGF104991041011002501999999MD1310041+9999
0043023610999991930012518004+62617+017950FM-12+000999999V0209991C00001220001CN0005001N9+00001+99999101121ADDGF104991041011002501999999MD1810041+9999
0043023610999991930012618004+62617+017950FM-12+000999999V0202301N00101002401CN0100001N9+00111+99999100391ADDGF108991081061002501999999MD1810161+9999
0043023610999991930012718004+62617+017950FM-12+000999999V0209991C00001002401CN0500001N9-00111+99999101311ADDGF108991081061002501999999MD1310161+9999
0054023610999991930012906004+62617+017950FM-12+000999999V0201101N00261002401CN0500001N9-00221+99999101161ADDAA199010091GF108991081061002501999999MD1310041+9999
0043023610999991930012918004+62617+017950FM-12+000999999V0200901N00261002401CN0500001N9-00391+99999101461ADDGF108991081061002501999999MD1310041+9999
0043023610999991930013006004+62617+017950FM-12+000999999V0209991C00001002401CN0500001N9-00501+99999101621ADDGF108991081061002501999999MD1310041+9999
0064023610999991930013018004+62617+017950FM-12+000999999V0209991C00001002401CN0500001N9-00391+99999101621ADDGF108991081061002501999999EQDQ01+000032APCTENQ02+000002APC3  
0075023610999991930013106004+62617+017950FM-12+000999999V0203201N00101002401CN0500001N9-00391+99999101421ADDAA199001091GF108991081061002501999999EQDQ01+000032APCTENQ02+000002APC3  
0075023610999991930013118004+62617+017950FM-12+000999999V0209991C00001002401CN0100001N9-00391+99999101521ADDAA199000391GF108991081061002501999999EQDQ01+000032APCTENQ02+000002APC3  
0043023610999991930020118004+62617+017950FM-12+000999999V0200501N00931002401CN0100001N9-00611+99999101861ADDGF108991081061002501999999MD1310041+9999
0043023610999991930020206004+62617+017950FM-12+000999999V0200501N00671002401CN0500001N9-00611+99999102231ADDGF106991061061002501999999MD1310041+9999
0043023610999991930020218004+62617+017950FM-12+000999999V0200501N00461004501CN0500001N9-00611+99999102501ADDGF106991061061004501999999MD1310041+9999
0054023610999991930020318004+62617+017950FM-12+000999999V0201101N00461002401CN0100001N9-00501+99999102241ADDAA199000591GF108991081061002501999999MD1810041+9999
0054023610999991930020406004+62617+017950FM-12+000999999V0201401N00101002401CN0500001N9-00281+99999101671ADDAA199000391GF108991081061002501999999MD1810041+9999
0043023610999991930020418004+62617+017950FM-12+000999999V0201401N00101002401CN0500001N9-00281+99999101201ADDGF108991081061002501999999MD1810041+9999
0054023610999991930020518004+62617+017950FM-12+000999999V0200201N00671002401CN0010001N9-00611+99999101101ADDAA199003091GF108991081061002501999999MD1310161+9999
0054023610999991930020606004+62617+017950FM-12+000999999V0203401N00101220001CN0500001N9-01001+99999101841ADDAA199000391GF102991021011004501999999MD1310201+9999
0043023610999991930020618004+62617+017950FM-12+000999999V0209991C00001220001CN0500001N9-01391+99999102191ADDGF102991021011004501999999MD1310041+9999
0043023610999991930020806004+62617+017950FM-12+000999999V0203601N00101220001CN0500001N9-01221+99999103121ADDGF102991021011008001999999MD1310241+9999
0064023610999991930020818004+62617+017950FM-12+000999999V0209991C00001220001CN0500001N9-01221+99999103261ADDGF102991021011004501999999EQDQ01+000032APCTENQ02+000002APC3  
0043023610999991930020906004+62617+017950FM-12+000999999V0209991C00001002401CN0200001N9-00501+99999102471ADDGF108991081061002501999999MD1810361+9999
0054023610999991930020918004+62617+017950FM-12+000999999V0209991C00001002401CN0010001N9-00221+99999102541ADDAA199005091GF108991081061002501999999MD1310161+9999
0043023610999991930021018004+62617+017950FM-12+000999999V0209991C00001220001CN0500001N9+00111+99999101621ADDGF100991001001999999999999MD1310041+9999
0043023610999991930021106004+62617+017950FM-12+000999999V0203201N01231220001CN0500001N9+00221+99999101381ADDGF102991021011008001999999MD1810161+9999
0043023610999991930021218004+62617+017950FM-12+000999999V0202701N00671220001CN0500001N9+00501+99999100321ADDGF102991021011004501999999MD1310041+9999
0043023610999991930021318004+62617+017950FM-12+000999999V0203201N00101002401CN0500001N9+00501+99999100341ADDGF106991061061002501999999MD1810161+9999
0043023610999991930021406004+62617+017950FM-12+000999999V0201801N00461002401CN0500001N9+00391+99999099721ADDGF108991081061002501999999MD1810161+9999
0043023610999991930021418004+62617+017950FM-12+000999999V0209991C00001002401CN0500001N9+00391+99999098951ADDGF108991081061002501999999MD1810161+9999
0043023610999991930021506004+62617+017950FM-12+000999999V0202701N00101002401CN0500001N9+00111+99999098741ADDGF108991081061002501999999MD1990041+9999
0043023610999991930021518004+62617+017950FM-12+000999999V0202901N00101220001CN0500001N9-00111+99999099441ADDGF100991001001999999999999MD1310161+9999
0043023610999991930021618004+62617+017950FM-12+000999999V0209991C00001220001CN0500001N9-00391+99999101701ADDGF100991001001999999999999MD1310401+9999
0043023610999991930021706004+62617+017950FM-12+000999999V0209991C00001004501CN0500001N9-00721+99999102391ADDGF106991061011004501999999MD1310161+9999
0043023610999991930021718004+62617+017950FM-12+000999999V0202701N00101002401CN0500001N9+00501+99999102741ADDGF108991081061002501999999MD1310041+9999
0043023610999991930021806004+62617+017950FM-12+000999999V0202901N00101220001CN0500001N9+00001+99999103321ADDGF102991021011004501999999MD1310201+9999
0064023610999991930021818004+62617+017950FM-12+000999999V0209991C00001220001CN0500001N9+00111+99999103381ADDGF101991011011004501999999EQDQ01+000032APCTENQ02+000002APC3  
0043023610999991930021906004+62617+017950FM-12+000999999V0202701N00101220001CN0500001N9-00111+99999103141ADDGF102991021011004501999999MD1810041+9999
0064023610999991930022006004+62617+017950FM-12+000999999V0209991C00001220001CN0500001N9-00611+99999103021ADDGF100991001001999999999999EQDQ01+000032APCTENQ02+000002APC3  
0064023610999991930022018004+62617+017950FM-12+000999999V0209991C00001220001CN0500001N9-00501+99999102881ADDGF100991001001999999999999EQDQ01+000032APCTENQ02+000002APC3  
0064023610999991930022106004+62617+017950FM-12+000999999V0209991C00001220001CN0500001N9-00891+99999102911ADDGF104991001001999999999999EQDQ01+000032APCTENQ02+000002APC3  
0062023610999991930022118004+62617+017950FM-12+000999999V0209991C00001220001CN0500001N9-00611+99999102941ADDGF100991001001999999999999MD1310041+9999EQDQ01+002302WODIR 
0064023610999991930022206004+62617+017950FM-12+000999999V0202901N002619999999N0100001N9-00501+99999103191ADDGF106991061051999999999999EQDQ01+000032APCTENQ02+000002APC3  
0043023610999991930022318004+62617+017950FM-12+000999999V0209991C00001220001CN0100001N9-00501+99999104381ADDGF100991001001999999999999MD1310161+9999
0043023610999991930022418004+62617+017950FM-12+000999999V0209991C00001220001CN0500001N9-00391+99999103921ADDGF102991021011004501999999MD1810041+9999
0043023610999991930022506004+62617+017950FM-12+000999999V0202701N00101220001CN0500001N9-00891+99999103661ADDGF102991021011004501999999MD1810041+9999
0043023610999991930022606004+62617+017950FM-12+000999999V0202701N00101220001CN0500001N9-00721+99999102581ADDGF100991001001999999999999MD1810161+9999
0043023610999991930022618004+62617+017950FM-12+000999999V0201801N00261220001CN0500001N9-00281+99999102031ADDGF104991041011004501999999MD1810161+9999
0064023610999991930022706004+62617+017950FM-12+000999999V0209991C00001220001CN0500001N9-00781+99999101961ADDGF102991001001999999999999EQDQ01+000032APCTENQ02+000002APC3  
0064023610999991930022718004+62617+017950FM-12+000999999V0209991C00001002401CN0500001N9-00281+99999101991ADDGF106991061061002501999999EQDQ01+000032APCTENQ02+000002APC3  
0043023610999991930030106004+62617+017950FM-12+000999999V0202701N00261004501CN0500001N9+00891+99999101821ADDGF106991061061004501999999MD1310141+9999
0064023610999991930030206004+62617+017950FM-12+000999999V0202701N00461220001CN0040001N9+00111+99999102501ADDGF100991001001999999999999EQDQ01+000032APCTENQ02+000002APC3  
0043023610999991930030218004+62617+017950FM-12+000999999V0202701N00671220001CN0500001N9+00891+99999102151ADDGF104991041011002501999999MD1310081+9999
0043023610999991930030318004+62617+017950FM-12+000999999V0202701N00461220001CN0500001N9+00501+99999101521ADDGF102991021011004501999999MD1810081+9999
0064023610999991930030406004+62617+017950FM-12+000999999V0203201N00261220001CN0500001N9+00391+99999101361ADDGF102991001001999999999999EQDQ01+000032APCTENQ02+000002APC3  
0043023610999991930030506004+62617+017950FM-12+000999999V0209991C00001220001CN0500001N9-00221+99999100511ADDGF104991041061004501999999MD1810081+9999
0043023610999991930030518004+62617+017950FM-12+000999999V0209991C00001220001CN0500001N9-00281+99999101241ADDGF100991001001999999999999MD1310201+9999
0054023610999991930030606004+62617+017950FM-12+000999999V0202701N00261002401CN0020001N9-00221+99999100561ADDAA199000591GF108991081061002501999999MD1810141+9999
0054023610999991930030618004+62617+017950FM-12+000999999V0201801N00261002401CN0500001N9+00611+99999100101ADDAA199000391GF108991081061002501999999MD1310081+9999
0043023610999991930030706004+62617+017950FM-12+000999999V0202501N00461002401CN0500001N9+00281+99999099681ADDGF108991081061002501999999MD1810201+9999
0043023610999991930030718004+62617+017950FM-12+000999999V0202701N00261220001CN0500001N9+00611+99999098761ADDGF102991021011002501999999MD1810281+9999
0043023610999991930030806004+62617+017950FM-12+000999999V0202701N00101220001CN0500001N9+00501+99999098311ADDGF101991011011004501999999MD1310081+9999
0043023610999991930030818004+62617+017950FM-12+000999999V0202701N00671220001CN0500001N9+00391+99999098901ADDGF104991041011002501999999MD1310141+9999
0043023610999991930030906004+62617+017950FM-12+000999999V0202701N00101220001CN0500001N9+00001+99999099521ADDGF102991021021004501999999MD1310141+9999
0054023610999991930030918004+62617+017950FM-12+000999999V0201601N00261002401CN0100001N9+00111+99999099181ADDAA199000691GF108991081061002501999999MD1810141+9999
0054023610999991930031006004+62617+017950FM-12+000999999V0203201N00101002401CN0200001N9+00001+99999097761ADDAA199010091GF108991081061002501999999MD1810141+9999
0054023610999991930031018004+62617+017950FM-12+000999999V0203201N00101002401CN0100001N9-00281+99999098661ADDAA199001091GF108991081061002501999999MD1310141+9999
0054023610999991930031106004+62617+017950FM-12+000999999V0203601N00261002401CN0005001N9-00721+99999099421ADDAA199001091GF108991081061002501999999MD1310141+9999
0054023610999991930031118004+62617+017950FM-12+000999999V0209991C00001220001CN0500001N9-01221+99999100021ADDAA199001091GF102991021011004501999999MD1310081+9999
0064023610999991930031206004+62617+017950FM-12+000999999V0209991C00001220001CN0500001N9-01111+99999100161ADDGF104991041061004501999999EQDQ01+000032APCTENQ02+000002APC3  
0075023610999991930031218004+62617+017950FM-12+000999999V0201401N00101002401CN0500001N9-00281+99999100121ADDAA199000691GF108991081061002501999999EQDQ01+000032APCTENQ02+000002APC3  
0043023610999991930031306004+62617+017950FM-12+000999999V0201801N00101002401CN0200001N9-00281+99999100151ADDGF108991081061002501999999MD1310081+9999
0064023610999991930031406004+62617+017950FM-12+000999999V0209991C00001220001CN0500001N9-01111+99999100101ADDGF102991021011002501999999EQDQ01+000032APCTENQ02+000002APC3  
0064023610999991930031418004+62617+017950FM-12+000999999V0209991C00001220001CN0500001N9-01111+99999100151ADDGF102991021011002501999999EQDQ01+000032APCTENQ02+000002APC3  
0043023610999991930031518004+62617+017950FM-12+000999999V0209991C00001002401CN0500001N9-00391+99999100661ADDGF108991081061002501999999MD1310081+9999
0043023610999991930031606004+62617+017950FM-12+000999999V0200501N00101002401CN0500001N9-00501+99999101021ADDGF108991081061002501999999MD1310081+9999
0064023610999991930031618004+62617+017950FM-12+000999999V0201401N00261002401CN0500001N9-00221+99999100761ADDGF108991081061002501999999EQDQ01+000032APCTENQ02+000002APC3  
0064023610999991930031718004+62617+017950FM-12+000999999V0209991C00001220001CN0500001N9-00281+99999099921ADDGF100991001001999999999999EQDQ01+000032APCTENQ02+000002APC3  
0064023610999991930031806004+62617+017950FM-12+000999999V0209991C00001220001CN0500001N9-01001+99999099941ADDGF100991001001999999999999EQDQ01+000032APCTENQ02+000002APC3  
0064023610999991930031818004+62617+017950FM-12+000999999V0201801N00261002401CN0500001N9-00111+99999100021ADDGF108991081061002501999999EQDQ01+000032APCTENQ02+000002APC3  
0054023610999991930031906004+62617+017950FM-12+000999999V0200901N00671002401CN0010001N9+00001+99999098861ADDAA199005091GF108991081061002501999999MD1810271+9999
0054023610999991930031918004+62617+017950FM-12+000999999V0202001N00671002401CN0500001N9+00001+99999099001ADDAA199002091GF108991081061002501999999MD1310281+9999
0043023610999991930032006004+62617+017950FM-12+000999999V0202001N00101220001CN0500001N9-00111+99999099871ADDGF102991021021002501999999MD1310201+9999
0043023610999991930032018004+62617+017950FM-12+000999999V0201801N00101220001CN0500001N9+00001+99999100031ADDGF102991021011004501999999MD1310061+9999
0043023610999991930032206004+62617+017950FM-12+000999999V0201801N00461004501CN0500001N9+00221+99999100221ADDGF106991061021004501999999MD1310141+9999
0043023610999991930032218004+62617+017950FM-12+000999999V0201801N00461002401CN0500001N9+00281+99999100161ADDGF108991081061002501999999MD1310081+9999
0054023610999991930032306004+62617+017950FM-12+000999999V0202901N00101002401CN0005001N9+00111+99999099471ADDAA199001091GF108991081061002501999999MD1810201+9999
0043023610999991930032406004+62617+017950FM-12+000999999V0202901N00461220001CN0200001N9+00221+99999101261ADDGF104991001001999999999999MD1310341+9999
0043023610999991930032418004+62617+017950FM-12+000999999V0202701N00101220001CN0500001N9+00111+99999101601ADDGF102991021011004501999999MD1310081+9999
0064023610999991930032506004+62617+017950FM-12+000999999V0209991C00001220001CN0500001N9-00221+99999101631ADDGF100991001001999999999999EQDQ01+000032APCTENQ02+000002APC3  
0064023610999991930032518004+62617+017950FM-12+000999999V0209991C00001220001CN0500001N9+00001+99999101551ADDGF104991041011002501999999EQDQ01+000032APCTENQ02+000002APC3  
0043023610999991930032606004+62617+017950FM-12+000999999V0202001N00101002401CN0500001N9-00391+99999101401ADDGF108991081061002501999999MD1810081+9999
0064023610999991930032618004+62617+017950FM-12+000999999V0200901N00261002401CN0500001N9-00111+99999101301ADDGF108991081061002501999999EQDQ01+000032APCTENQ02+000002APC3  
0043023610999991930032706004+62617+017950FM-12+000999999V0203601N00261002401CN0200001N9-00501+99999101701ADDGF108991081061002501999999MD1310201+9999
0054023610999991930032718004+62617+017950FM-12+000999999V0200501N00261002401CN0020001N9-00221+99999101671ADDAA199000391GF108991081061002501999999MD1810081+9999
0075023610999991930032806004+62617+017950FM-12+000999999V0200901N00101002401CN0020001N9-00111+99999101461ADDAA199000391GF108991081061002501999999EQDQ01+000032APCTENQ02+000002APC3  
0075023610999991930032818004+62617+017950FM-12+000999999V0201401N00261002401CN0020001N9+00111+99999101301ADDAA199002091GF108991081061002501999999EQDQ01+000032APCTENQ02+000002APC3  
0064023610999991930032906004+62617+017950FM-12+000999999V0201601N00461002401CN0040001N9+00221+99999101181ADDGF108991081061002501999999EQDQ01+000032APCTENQ02+000002APC3  
0060023610999991930032918004+62617+017950FM-12+000999999V0201801N00671002401CN0010001N9+00221+99999101341ADDAA199004091GF108991081061002501999999MD1310081+9999MW1101
0043023610999991930033006004+62617+017950FM-12+000999999V0201801N00671220001CN0500001N9+00221+99999101621ADDGF104991041061002501999999MD1310081+9999
0043023610999991930033018004+62617+017950FM-12+000999999V0201801N00461002401CN0100001N9+00221+99999101871ADDGF108991081061002501999999MD1310141+9999
0054023610999991930033106004+62617+017950FM-12+000999999V0201801N00261220001CN0500001N9+00281+99999102141ADDAA199000391GF104991041011004501999999MD1310081+9999
0064023610999991930033118004+62617+017950FM-12+000999999V0201801N00461002401CN0005001N9+00221+99999102161ADDGF108991081061002501999999EQDQ01+000032APCTENQ02+000002APC3  
0043023610999991930040106004+62617+017950FM-12+000999999V0202001N00101220001CN0500001N9+00221+99999102381ADDGF101991011011004501999999MD1310141+9999
0043023610999991930040118004+62617+017950FM-12+000999999V0201801N00671220001CN0500001N9+00281+99999102581ADDGF102991021011002501999999MD1310081+9999
0043023610999991930040206004+62617+017950FM-12+000999999V0209991C00001220001CN0500001N9+00391+99999103071ADDGF102991021011004501999999MD1310081+9999
0043023610999991930040218004+62617+017950FM-12+000999999V0201801N00101220001CN0500001N9+00001+99999103301ADDGF100991001001999999999999MD1310081+9999
0043023610999991930040318004+62617+017950FM-12+000999999V0209991C00001220001CN0500001N9+00001+99999103461ADDGF102991001001999999999999MD1810081+9999
0043023610999991930040406004+62617+017950FM-12+000999999V0201801N00101220001CN0500001N9+00111+99999103261ADDGF104991041011004501999999MD1810081+9999
0043023610999991930040506004+62617+017950FM-12+000999999V0200901N00101220001CN0500001N9+00391+99999103191ADDGF100991001001999999999999MD1310081+9999
0043023610999991930040518004+62617+017950FM-12+000999999V0209991C00001220001CN0500001N9+00221+99999103041ADDGF104991041011004501999999MD1810081+9999
0060023610999991930040606004+62617+017950FM-12+000999999V0203601N00101002401CN0500001N9+00111+99999102751ADDAA199000691GF108991081061002501999999MD1810081+9999MW1891
0064023610999991930040618004+62617+017950FM-12+000999999V0209991C00001002401CN0500001N9+00221+99999102671ADDGF108991081061002501999999EQDQ01+000032APCTENQ02+000002APC3  
0054023610999991930040706004+62617+017950FM-12+000999999V0209991C00001002401CN0200001N9+00221+99999102621ADDAA199000391GF108991081061002501999999MD1810081+9999
0075023610999991930040718004+62617+017950FM-12+000999999V0209991C00001002401CN0200001N9+00281+99999102681ADDAA199000691GF108991081061002501999999EQDQ01+000032APCTENQ02+000002APC3  
0064023610999991930040806004+62617+017950FM-12+000999999V0209991C00001002401CN0005001N9+00221+99999102721ADDGF108991081061002501999999EQDQ01+000032APCTENQ02+000002APC3  
0064023610999991930040906004+62617+017950FM-12+000999999V0209991C00001002401CN0100001N9+00281+99999102521ADDGF108991081061002501999999EQDQ01+000032APCTENQ02+000002APC3  
0064023610999991930040918004+62617+017950FM-12+000999999V0209991C00001220001CN0500001N9+00501+99999102141ADDGF102991021011004501999999EQDQ01+000032APCTENQ02+000002APC3  
0043023610999991930041006004+62617+017950FM-12+000999999V0209991C00001220001CN0500001N9+00781+99999101701ADDGF100991001001999999999999MD1810081+9999
0043023610999991930041018004+62617+017950FM-12+000999999V0201801N00261220001CN0500001N9+00611+99999101201ADDGF104991041011004501999999MD1810081+9999
0043023610999991930041106004+62617+017950FM-12+000999999V0202301N00101002401CN0500001N9+00721+99999100671ADDGF106991061061002501999999MD1810081+9999
0054023610999991930041118004+62617+017950FM-12+000999999V0202701N00101004501CN0500001N9+00721+99999100461ADDAA199000691GF106991061061004501999999MD1810081+9999
0043023610999991930041206004+62617+017950FM-12+000999999V0200901N00101220001CN0100001N9+00391+99999100471ADDGF102991021011004501999999MD1810081+9999
0043023610999991930041218004+62617+017950FM-12+000999999V0200901N00101000151CN0000501N9+00221+99999100721ADDGF108991081051000251999999MD1310081+9999
0064023610999991930041306004+62617+017950FM-12+000999999V0200501N00461002401CN0200001N9+00221+99999100871ADDGF108991081061002501999999EQDQ01+000032APCTENQ02+000002APC3  
0043023610999991930041406004+62617+017950FM-12+000999999V0200201N00461002401CN0200001N9+00281+99999100881ADDGF108991081061002501999999MD1810081+9999
0054023610999991930041418004+62617+017950FM-12+000999999V0209991C01231002401CN0200001N9+00391+99999100901ADDAA199002091GF108991081061002501999999MD1310081+9999
0054023610999991930041506004+62617+017950FM-12+000999999V0200901N00101002401CN0040001N9+00391+99999101031ADDAA199012091GF108991081061002501999999MD1310081+9999
0054023610999991930041518004+62617+017950FM-12+000999999V0209991C00001002401CN0200001N9+00501+99999101341ADDAA199001091GF108991081061002501999999MD1310081+9999
0043023610999991930041606004+62617+017950FM-12+000999999V0209991C00001220001CN0500001N9+00501+99999101361ADDGF102991001001999999999999MD1810081+9999
0043023610999991930041618004+62617+017950FM-12+000999999V0203601N00101220001CN0500001N9+00391+99999101101ADDGF104991041011004501999999MD1810081+9999
0064023610999991930041718004+62617+017950FM-12+000999999V0200501N00931002401CN0500001N9-00111+99999101401ADDGF108991081061002501999999EQDQ01+000032APCTENQ02+000002APC3  
0043023610999991930041806004+62617+017950FM-12+000999999V0200201N00931002401CN0500001N9+00001+99999100981ADDGF108991081061002501999999MD1810081+9999
0075023610999991930041906004+62617+017950FM-12+000999999V0203601N01231002401CN0040001N9-00391+99999100961ADDAA199003091GF108991081061002501999999EQDQ01+000032APCTENQ02+000002APC3  
0054023610999991930041918004+62617+017950FM-12+000999999V0203601N00261002401CN0200001N9-00391+99999101271ADDAA199002091GF108991081061002501999999MD1310081+9999
0054023610999991930042006004+62617+017950FM-12+000999999V0203401N00261002401CN0500001N9-00221+99999100881ADDAA199000691GF108991081061002501999999MD1810141+9999
0054023610999991930042018004+62617+017950FM-12+000999999V0200901N00261002401CN0010001N9-00111+99999100501ADDAA199001091GF108991081061002501999999MD1810081+9999
0054023610999991930042118004+62617+017950FM-12+000999999V0209991C00001002401CN0100001N9+00221+99999100921ADDAA199006091GF108991081061002501999999MD1310081+9999
0075023610999991930042206004+62617+017950FM-12+000999999V0209991C00001002401CN0005001N9+00221+99999101071ADDAA199002091GF108991081061002501999999EQDQ01+000032APCTENQ02+000002APC3  
0054023610999991930042218004+62617+017950FM-12+000999999V0200901N00101002401CN0200001N9+00391+99999100841ADDAA199006091GF108991081061002501999999MD1810201+9999
0043023610999991930042318004+62617+017950FM-12+000999999V0202301N00261220001CN0500001N9+00781+99999101511ADDGF100991001001999999999999MD1310141+9999
0043023610999991930042406004+62617+017950FM-12+000999999V0202301N00101220001CN0500001N9+00781+99999102301ADDGF101991001001999999999999MD1310081+9999
0064023610999991930042418004+62617+017950FM-12+000999999V0202301N00101220001CN0500001N9+00611+99999102281ADDGF104991041011002501999999EQDQ01+000032APCTENQ02+000002APC3  
0043023610999991930042506004+62617+017950FM-12+000999999V0200901N00101220001CN0500001N9+00891+99999102791ADDGF101991011011004501999999MD1310141+9999
0043023610999991930042518004+62617+017950FM-12+000999999V0200901N00101220001CN0500001N9+00501+99999103001ADDGF102991021011004501999999MD1310081+9999
0043023610999991930042606004+62617+017950FM-12+000999999V0203601N00261002401CN0500001N9+00281+99999103101ADDGF106991061011002501999999MD1310141+9999
0049023610999991930042618004+62617+017950FM-12+000999999V0200901N00261004501CN0500001N9+00111+99999103261ADDGF106991061061004501999999MD1810141+9999MW1051
0017023610999991930042718004+62617+017950FM-12+000999999V0201801N001019999999N0500001N9+00281+99999102271ADDMD1810141+9999
0064023610999991930042818004+62617+017950FM-12+000999999V0209991C00001220001CN0500001N9+00781+99999101101ADDGF102991021011004501999999EQDQ01+000032APCTENQ02+000002APC3  
0064023610999991930042906004+62617+017950FM-12+000999999V0203401N00461220001CN0500001N9+00501+99999101311ADDGF104991011011999999999999EQDQ01+000032APCTENQ02+000002APC3  
0064023610999991930042918004+62617+017950FM-12+000999999V0202701N00261220001CN0500001N9+00721+99999101241ADDGF104991041011004501999999EQDQ01+000032APCTENQ02+000002APC3  
0043023610999991930043006004+62617+017950FM-12+000999999V0203201N00261220001CN0500001N9+01001+99999101441ADDGF102991001001999999999999MD1310081+9999
0043023610999991930043018004+62617+017950FM-12+000999999V0202301N00261220001CN0500001N9+00891+99999101591ADDGF102991001001999999999999MD1310081+9999
0043023610999991930050106004+62617+017950FM-12+000999999V0209991C00001220001CN0500001N9+01111+99999101951ADDGF102991001001999999999999MD1310081+9999
0054023610999991930050206004+62617+017950FM-12+000999999V0202701N00101220001CN0500001N9+01111+99999101281ADDAA199001091GF102991001001999999999999MD1810081+9999
0064023610999991930050218004+62617+017950FM-12+000999999V0202701N00101220001CN0500001N9+01111+99999101261ADDGF102991001001999999999999EQDQ01+000032APCTENQ02+000002APC3  
0043023610999991930050306004+62617+017950FM-12+000999999V0203201N00671220001CN0500001N9+01001+99999101301ADDGF102991021011004501999999MD1810081+9999
0043023610999991930050318004+62617+017950FM-12+000999999V0203601N00101220001CN0500001N9+00721+99999101481ADDGF101991011011004501999999MD1310081+9999
0043023610999991930050406004+62617+017950FM-12+000999999V0203201N00101220001CN0000501N9+00611+99999101941ADDGF102991021011004501999999MD1310081+9999
0043023610999991930050418004+62617+017950FM-12+000999999V0203601N00101220001CN0500001N9+00781+99999101801ADDGF104991041011004501999999MD1310081+9999
0043023610999991930050506004+62617+017950FM-12+000999999V0209991C00001220001CN0500001N9+00721+99999102061ADDGF101991011011004501999999MD1310081+9999
0043023610999991930050618004+62617+017950FM-12+000999999V0201801N00261220001CN0500001N9+00391+99999101621ADDGF102991021011002501999999MD1810081+9999
0054023610999991930050706004+62617+017950FM-12+000999999V0200901N00261002401CN0200001N9+00391+99999101801ADDAA199000391GF106991061061002501999999MD1310081+9999
0064023610999991930050718004+62617+017950FM-12+000999999V0200901N00261220001CN0500001N9+00391+99999101921ADDGF102991021011004501999999EQDQ01+000032APCTENQ02+000002APC3  
0043023610999991930050818004+62617+017950FM-12+000999999V0200901N00461002401CN0500001N9+00611+99999101401ADDGF108991081061002501999999MD1810101+9999
0054023610999991930050906004+62617+017950FM-12+000999999V0200501N00461002401CN0100001N9+01111+99999101001ADDAA199011091GF108991081061002501999999MD1810141+9999
0054023610999991930051006004+62617+017950FM-12+000999999V0200501N00101002401CN0040001N9+00501+99999100541ADDAA199004091GF108991081061002501999999MD1810081+9999
0054023610999991930051106004+62617+017950FM-12+000999999V0203601N00101001501CN0005001N9+00721+99999100231ADDAA199004091GF108991081061001501999999MD1810141+9999
0075023610999991930051118004+62617+017950FM-12+000999999V0200501N00101000151CN0002001N9+00611+99999100391ADDAA199002091GF108991081051000251999999EQDQ01+000032APCTENQ02+000002APC3  
0054023610999991930051206004+62617+017950FM-12+000999999V0202901N00101001501CN0020001N9+00781+99999100391ADDAA199000391GF108991081061001501999999MD1810081+9999
0043023610999991930051218004+62617+017950FM-12+000999999V0209991C00001220001CN0500001N9+00611+99999100201ADDGF104991021011004501999999MD1810061+9999
0043023610999991930051306004+62617+017950FM-12+000999999V0203201N00101220001CN0500001N9+01111+99999100391ADDGF104991001001999999999999MD1310141+9999
0043023610999991930051406004+62617+017950FM-12+000999999V0203601N00101220001CN0500001N9+00891+99999100861ADDGF102991021011004501999999MD1310081+9999
0043023610999991930051418004+62617+017950FM-12+000999999V0209991C00001220001CN0500001N9+00781+99999101201ADDGF104991041011004501999999MD1310081+9999
0043023610999991930051506004+62617+017950FM-12+000999999V0203601N00101220001CN0500001N9+01111+99999101751ADDGF102991021011008001999999MD1310081+9999
0035023610999991930051518004+62617+017950FM-12+000999999V0202001N002619999999N9999999N9+00891+99999101761EQDQ01+000032APCTENQ02+000002APC3  
0043023610999991930051606004+62617+017950FM-12+000999999V0201801N00261220001CN0500001N9+01221+99999102031ADDGF100991001001999999999999MD1310081+9999
0064023610999991930051618004+62617+017950FM-12+000999999V0201801N00261220001CN0020001N9+00891+99999101941ADDGF102991021011004501999999EQDQ01+000032APCTENQ02+000002APC3  
0043023610999991930051706004+62617+017950FM-12+000999999V0201801N00101002401CN0500001N9+00891+99999101781ADDGF108991081061002501999999MD1810081+9999
0043023610999991930051818004+62617+017950FM-12+000999999V0201801N00671220001CN0500001N9+01001+99999101171ADDGF104991041011002501999999MD1810081+9999
0064023610999991930051906004+62617+017950FM-12+000999999V0201801N00461220001CN0500001N9+01111+99999101181ADDGF102991011011008001999999EQDQ01+000032APCTENQ02+000002APC3  
0017023610999991930052018004+62617+017950FM-12+000999999V0203201N004619999999N0500001N9+01281+99999101321ADDMD1310141+9999
0043023610999991930052206004+62617+017950FM-12+000999999V0203601N00101220001CN0500001N9+01611+99999102631ADDGF100991001001999999999999MD1310081+9999
0017023610999991930052218004+62617+017950FM-12+000999999V0209991C000019999999N0500001N9+01721+99999102351ADDMD1810081+9999
0043023610999991930052306004+62617+017950FM-12+000999999V0209991C00001220001CN0500001N9+01781+99999102701ADDGF100991001001999999999999MD1310081+9999
0064023610999991930052406004+62617+017950FM-12+000999999V0202301N00261220001CN0500001N9+01891+99999102551ADDGF100991001001999999999999EQDQ01+000032APCTENQ02+000002APC3  
0064023610999991930052506004+62617+017950FM-12+000999999V0203601N00261220001CN0500001N9+01501+99999102141ADDGF102991011011004501999999EQDQ01+000032APCTENQ02+000002APC3  
0054023610999991930052606004+62617+017950FM-12+000999999V0200501N00261002401CN0200001N9+01221+99999100971ADDAA199000691GF108991081061002501999999MD1810281+9999
0054023610999991930052618004+62617+017950FM-12+000999999V0200701N001019999999N0500001N9+01111+99999100961ADDAA199001091GF106991061011999999999999MD1810141+9999
0054023610999991930052706004+62617+017950FM-12+000999999V0209991C00001002401CN0020001N9+00891+99999100881ADDAA199000391GF108991081061002501999999MD1810141+9999
0043023610999991930052818004+62617+017950FM-12+000999999V0209991C00001220001CN0500001N9+01221+99999099861ADDGF104991001001999999999999MD1810081+9999
0054023610999991930052918004+62617+017950FM-12+000999999V0203601N00671002401CN0100001N9+01111+99999099911ADDAA199029091GF108991081061002501999999MD1310201+9999
0054023610999991930053006004+62617+017950FM-12+000999999V0203601N00261002401CN0200001N9+01001+99999101111ADDAA199002091GF108991081061002501999999MD1310341+9999
0054023610999991930053018004+62617+017950FM-12+000999999V0200901N00101220001CN0200001N9+00721+99999101921ADDAA199004091GF104991041011002501999999MD1310141+9999
0043023610999991930053106004+62617+017950FM-12+000999999V0202901N00101220001CN0500001N9+01281+99999102021ADDGF101991011011004501999999MD1810081+9999
0043023610999991930060206004+62617+017950FM-12+000999999V0200901N00261004501CN0500001N9+00781+99999102341ADDGF107991061061004501999999MD1810061+9999
0043023610999991930060218004+62617+017950FM-12+000999999V0201101N00261220001CN0500001N9+00501+99999102351ADDGF104991041061004501999999MD1310041+9999
0043023610999991930060306004+62617+017950FM-12+000999999V0203601N00101220001CN0500001N9+01001+99999102501ADDGF102991011011004501999999MD1310041+9999
0062023610999991930060406004+62617+017950FM-12+000999999V0209991C00001220001CN0500001N9+01611+99999102561ADDGF100991001001999999999999MD1310301+9999EQDQ01+003402WODIR 
0043023610999991930060418004+62617+017950FM-12+000999999V0201801N01541220001CN0500001N9+01281+99999102641ADDGF102991001999999999999999MD1310301+9999
0062023610999991930060506004+62617+017950FM-12+000999999V0202301N00261220001CN0500001N9+01721+99999102001ADDGF102991001001999999999999MD1810562+9999EQDQ01+000562APC3  
0054023610999991930060518004+62617+017950FM-12+000999999V0202501N00261002401CN0500001N9+01721+99999101631ADDAA199001091GF106991061001002501999999MD1810121+9999
0043023610999991930060606004+62617+017950FM-12+000999999V0202701N00261220001CN0500001N9+01781+99999101221ADDGF104991021081004501999999MD1810101+9999
0054023610999991930060706004+62617+017950FM-12+000999999V0203601N00261002401CN0200001N9+01111+99999100951ADDAA199001091GF108991081061002501999999MD1810101+9999
0054023610999991930060718004+62617+017950FM-12+000999999V0202701N00101002401CN0200001N9+01221+99999100951ADDAA199003091GF108991081061002501999999MD1810061+9999
0043023610999991930060806004+62617+017950FM-12+000999999V0200501N01231004501CN0500001N9+01001+99999101091ADDGF108991081061004501999999MD1310061+9999
0054023610999991930060818004+62617+017950FM-12+000999999V0203601N00101002401CN0500001N9+00781+99999100951ADDAA199003091GF108991081061002501999999MD1810041+9999
0075023610999991930060906004+62617+017950FM-12+000999999V0209991C00001002401CN0500001N9+01221+99999100741ADDAA199004091GF106991061061002501999999EQDQ01+000032APCTENQ02+000002APC3  
0043023610999991930060918004+62617+017950FM-12+000999999V0201801N00461220001CN0500001N9+01221+99999100631ADDGF104991041011004501999999MD1810061+9999
0043023610999991930061006004+62617+017950FM-12+000999999V0201801N00101004501CN0500001N9+01111+99999100291ADDGF106991061061004501999999MD1810081+9999
0054023610999991930061018004+62617+017950FM-12+000999999V0201801N00931002401CN0100001N9+01391+99999100201ADDAA199000391GF108991081061002501999999MD1310021+9999
0062023610999991930061118004+62617+017950FM-12+000999999V0202701N00261220001CN0500001N9+01221+99999100211ADDAA199006091AY191999GF104991041031004501999999MD1310261+9999
0043023610999991930061206004+62617+017950FM-12+000999999V0203401N00101220001CN0500001N9+01721+99999101331ADDGF102991021071008001999999MD1310341+9999
0000023610999991930061218004+62617+017950FM-12+000999999V02099999999999999999N9999999N9+99999+99999999999
0043023610999991930061306004+62617+017950FM-12+000999999V0203201N001019999999N0500001N9+01501+99999102001ADDGF107991021071004501999999MD1310141+9999
0043023610999991930061318004+62617+017950FM-12+000999999V0202301N00261002401CN0500001N9+01281+99999102131ADDGF108991081061002501999999MD1310061+9999
0043023610999991930061406004+62617+017950FM-12+000999999V0202701N00261220001CN0500001N9+01611+99999102741ADDGF100991001001999999999999MD1310141+9999
0043023610999991930061418004+62617+017950FM-12+000999999V0202301N002619999999N0500001N9+01391+99999102741ADDGF106991011011017501999999MD1310021+9999
0000023610999991930061506004+62617+017950FM-12+000999999V0203601N001019999999N0500001N9+01501+99999999999
0043023610999991930061518004+62617+017950FM-12+000999999V0202301N002619999999N0500001N9+01391+99999102911ADDGF107991021071004501999999MD1810061+9999
0043023610999991930061606004+62617+017950FM-12+000999999V0209991C00001220001CN0500001N9+02001+99999999999ADDGF104991001001999999999999MD1810041+9999
0029023610999991930061618004+62617+017950FM-12+000999999V0202001N00261220001CN0500001N9+01781+99999102601ADDGF104991021011004501999999
0043023610999991930061706004+62617+017950FM-12+000999999V0203601N00261220001CN0500001N9+02001+99999102641ADDGF102991001001999999999999MD1810101+9999
0043023610999991930061718004+62617+017950FM-12+000999999V0202301N00261220001CN0500001N9+02001+99999102211ADDGF104991011011004501999999MD1810141+9999
0043023610999991930061806004+62617+017950FM-12+000999999V0203201N00101220001CN0500001N9+02111+99999102271ADDGF100991001001999999999999MD1810061+9999
0043023610999991930061906004+62617+017950FM-12+000999999V0209991C00001220001CN0500001N9+02221+99999101761ADDGF101991001001999999999999MD1810141+9999
0043023610999991930061918004+62617+017950FM-12+000999999V0201801N002619999999N0200001N9+02111+99999101511ADDGF106991041011004501999999MD1810061+9999
0043023610999991930062006004+62617+017950FM-12+000999999V0203201N00261220001CN0200001N9+02221+99999101591ADDGF102991001001999999999999MD1310101+9999
0043023610999991930062018004+62617+017950FM-12+000999999V0203601N00101220001CN0500001N9+02221+99999101431ADDGF104991011011004501999999MD1810081+9999
0062023610999991930062206004+62617+017950FM-12+000999999V0201101N00101220001CN0500001N9+01781+99999101241ADDGF102991999011004501999999MD1310061+9999EQDQ01+000002SCOTLC
0054023610999991930062218004+62617+017950FM-12+000999999V0200901N00261012301CN0200001N9+01281+99999101271ADDAA199000691GF106991061051012501999999MD1810061+9999
0043023610999991930062318004+62617+017950FM-12+000999999V0200501N00101220001CN0500001N9+01611+99999101131ADDGF104991041061004501999999MD1810081+9999
0054023610999991930062406004+62617+017950FM-12+000999999V0209991C00001002401CN0005001N9+01501+99999100871ADDAA199002091GF106991061031002501999999MD1810061+9999
0043023610999991930062418004+62617+017950FM-12+000999999V0201801N00931220001CN0200001N9+02281+99999100671ADDGF102991001001999999999999MD1810141+9999
0054023610999991930062518004+62617+017950FM-12+000999999V0200901N00261001501CN0005001N9+01501+99999099931ADDAA199001091GF108991081061001501999999MD1810161+9999
0062023610999991930062618004+62617+017950FM-12+000999999V0202901N00671002401CN0500001N9+01391+99999100061ADDAA199000691AY161999GF106991061061002501999999MD1310121+9999
0043023610999991930062706004+62617+017950FM-12+000999999V0202901N00461220001CN0500001N9+01611+99999100611ADDGF104991041011004501999999MD1310081+9999
0051023610999991930062718004+62617+017950FM-12+000999999V0209991C000019999999N0500001N9+01221+99999101071ADDAY171999GF106991011061004501999999MD1310081+9999
0043023610999991930062806004+62617+017950FM-12+000999999V0209991C00001220001CN0500001N9+01721+99999101201ADDGF102991021011004501999999MD1310061+9999
0043023610999991930062818004+62617+017950FM-12+000999999V0200501N00261220001CN0500001N9+01281+99999101111ADDGF100991001001999999999999MD1310061+9999
0043023610999991930062906004+62617+017950FM-12+000999999V0200501N00461002401CN0500001N9+01501+99999101061ADDGF108991081061002501999999MD1810021+9999
0043023610999991930062918004+62617+017950FM-12+000999999V0203601N00261220001CN0500001N9+01611+99999101011ADDGF104991021011004501999999MD1810041+9999
0043023610999991930063006004+62617+017950FM-12+000999999V0203601N00101220001CN0500001N9+02221+99999101181ADDGF100991001001999999999999MD1310081+9999
0029023610999991930070106004+62617+017950FM-12+000999999V0203201N001019999999N0500001N9+01281+99999101471ADDGF107991021011004501999999
0043023610999991930070118004+62617+017950FM-12+000999999V0201801N00461220001CN0500001N9+02221+99999101391ADDGF102991001001999999999999MD1810041+9999
0043023610999991930070206004+62617+017950FM-12+000999999V0203601N00101220001CN0500001N9+02221+99999101701ADDGF100991001001999999999999MD1310101+9999
0064023610999991930070218004+62617+017950FM-12+000999999V0200501N00261220001CN0500001N9+01611+99999101911ADDGF100991001001999999999999EQDQ01+000032APCTENQ02+000002APC3  
0043023610999991930070306004+62617+017950FM-12+000999999V0200701N00101220001CN0500001N9+01891+99999102131ADDGF100991001001999999999999MD1310021+9999
0043023610999991930070318004+62617+017950FM-12+000999999V0209991C00001220001CN0500001N9+01611+99999101931ADDGF100991001001999999999999MD1810041+9999
0043023610999991930070406004+62617+017950FM-12+000999999V0201801N00261220001CN0500001N9+02001+99999102101ADDGF100991001001999999999999MD1310061+9999
0043023610999991930070418004+62617+017950FM-12+000999999V0202301N00261220001CN0500001N9+99999+99999999999ADDGF100991001001999999999999MD1810041+9999
0043023610999991930070506004+62617+017950FM-12+000999999V0200501N00261220001CN0500001N9+02221+99999102031ADDGF102991001001999999999999MD1810141+9999
0062023610999991930070518004+62617+017950FM-12+000999999V0200901N00101220001CN0500001N9+01891+99999101391ADDGF100991999001999999999999MD1810061+9999EQDQ01+000012SCOTLC
0064023610999991930070606004+62617+017950FM-12+000999999V0200201N00261220001CN9999999N9+01891+99999101141ADDGF102991001001999999999999EQDQ01+000032APCTENQ02+000002APC3  
0043023610999991930070706004+62617+017950FM-12+000999999V0200901N00261220001CN0500001N9+02281+99999100521ADDGF104991021051004501999999MD1810241+9999
0043023610999991930070718004+62617+017950FM-12+000999999V0200901N00101004501CN0500001N9+01891+99999100231ADDGF108991061061004501999999MD1810061+9999
0043023610999991930070806004+62617+017950FM-12+000999999V0203601N00261004501CN0500001N9+02001+99999099941ADDGF106991061061004501999999MD1810101+9999
0091023610999991930070818004+62617+017950FM-12+000999999V0203201N00461002401CN0020001N9+01391+99999999999ADDAA199020091GF108991081061002501999999EQDQ01+000001APOSP Q02+000032APCTENQ03+000002APC3  
0043023610999991930070906004+62617+017950FM-12+000999999V0200701N00671220001CN0500001N9+02281+99999100801ADDGF101991001001999999999999MD1310141+9999
0043023610999991930070918004+62617+017950FM-12+000999999V0209991C00001220001CN0500001N9+02281+99999100271ADDGF104991041071004501999999MD1810021+9999
0043023610999991930071018004+62617+017950FM-12+000999999V0200201N00461220001CN0500001N9+01891+99999100511ADDGF104991021061004501999999MD1810041+9999
0043023610999991930071106004+62617+017950FM-12+000999999V0200501N00461007801CN0500001N9+02001+99999100461ADDGF108991071061008001999999MD1810021+9999
0043023610999991930071118004+62617+017950FM-12+000999999V0203601N00261004501CN0500001N9+01781+99999100641ADDGF106991061061004501999999MD1310021+9999
0043023610999991930071218004+62617+017950FM-12+000999999V0203601N00671220001CN0500001N9+01501+99999101221ADDGF102991021011004501999999MD1310041+9999
0043023610999991930071306004+62617+017950FM-12+000999999V0203601N00101220001CN0500001N9+01891+99999101501ADDGF102991001001999999999999MD1310021+9999
0043023610999991930071318004+62617+017950FM-12+000999999V0202701N00101004501CN0500001N9+01891+99999100861ADDGF107991061061004501999999MD1810041+9999
0054023610999991930071406004+62617+017950FM-12+000999999V0203601N00101004501CN0500001N9+01611+99999100831ADDAA199002091GF106991061061004501999999MD1810101+9999
0064023610999991930071418004+62617+017950FM-12+000999999V0200901N00101220001CN0500001N9+01611+99999101031ADDGF101991001001999999999999EQDQ01+000032APCTENQ02+000002APC3  
0043023610999991930071506004+62617+017950FM-12+000999999V0209991C00001004501CN0500001N9+01611+99999100671ADDGF106991061061004501999999MD1810021+9999
0064023610999991930071518004+62617+017950FM-12+000999999V0209991C00001220001CN0500001N9+01781+99999100611ADDGF104991999999004501999999EQDQ01+000032APCTENQ02+000002APC3  
0043023610999991930071706004+62617+017950FM-12+000999999V0209991C00001220001CN0500001N9+02111+99999100191ADDGF102991021071004501999999MD1810101+9999
0043023610999991930071718004+62617+017950FM-12+000999999V0201801N00261220001CN0500001N9+01781+99999100021ADDGF102991021071004501999999MD1810081+9999
0043023610999991930071818004+62617+017950FM-12+000999999V0203601N00461002401CN0500001N9+01721+99999100081ADDGF106991061091002501999999MD1310121+9999
0062023610999991930071906004+62617+017950FM-12+000999999V0203601N00101220001CN0500001N9+01781+99999999999ADDGF102991021071004501999999MD1310021+9999EQDQ01+000001APOSP 
0064023610999991930071918004+62617+017950FM-12+000999999V0200501N00261220001CN0500001N9+01781+99999100301ADDGF104991041061002501999999EQDQ01+000032APCTENQ02+000002APC3  
0043023610999991930072006004+62617+017950FM-12+000999999V0203601N00931220001CN0500001N9+02001+99999100301ADDGF101991011001012501999999MD1810021+9999
0062023610999991930072106004+62617+017950FM-12+000999999V0200501N00461002401CN0500001N9+01611+99999100311ADDAA199019091AY131999GF106991061061002501999999MD1310061+9999
0043023610999991930072118004+62617+017950FM-12+000999999V0200501N00671220001CN0500001N9+01891+99999100611ADDGF104991021061002501999999MD1310101+9999
0043023610999991930072206004+62617+017950FM-12+000999999V0200501N00101220001CN0500001N9+01891+99999100951ADDGF100991001001999999999999MD1310101+9999
0043023610999991930072218004+62617+017950FM-12+000999999V0201801N00101220001CN0500001N9+01891+99999100751ADDGF102991011011004501999999MD1810101+9999
0043023610999991930072306004+62617+017950FM-12+000999999V0209991C00001220001CN0500001N9+02001+99999100531ADDGF104991011011004501999999MD1810081+9999
0043023610999991930072318004+62617+017950FM-12+000999999V0200501N00261220001CN0500001N9+01501+99999100371ADDGF104991041071004501999999MD1810081+9999
0043023610999991930072406004+62617+017950FM-12+000999999V0203601N00461220001CN0500001N9+01721+99999100391ADDGF102991021011004501999999MD1310021+9999
0064023610999991930072418004+62617+017950FM-12+000999999V0209991C00001220001CN0500001N9+01611+99999100521ADDGF101991011001004501999999EQDQ01+000032APCTENQ02+000002APC3  
0043023610999991930072506004+62617+017950FM-12+000999999V0209991C00001220001CN0500001N9+01891+99999100751ADDGF100991001001999999999999MD1310021+9999
0043023610999991930072518004+62617+017950FM-12+000999999V0209991C00001220001CN0500001N9+02001+99999100601ADDGF101991011001008001999999MD1810021+9999
0043023610999991930072606004+62617+017950FM-12+000999999V0200901N00261220001CN0500001N9+01781+99999100971ADDGF104991041011004501999999MD1310061+9999
0043023610999991930072618004+62617+017950FM-12+000999999V0209991C00001220001CN0500001N9+01501+99999100841ADDGF104991021011004501999999MD1810021+9999
0064023610999991930072806004+62617+017950FM-12+000999999V0209991C00001004501CN0500001N9+01611+99999100101ADDGF106991061061004501999999EQDQ01+000032APCTENQ02+000002APC3  
0043023610999991930072818004+62617+017950FM-12+000999999V0201801N001019999999N0200001N9+01721+99999100041ADDGF106991041061002501999999MD1810041+9999
0043023610999991930072906004+62617+017950FM-12+000999999V0209991C00001220001CN0500001N9+01781+99999100101ADDGF104991011011004501999999MD1310021+9999
0043023610999991930072918004+62617+017950FM-12+000999999V0209991C00001220001CN0500001N9+01781+99999100191ADDGF104991021021004501999999MD1310041+9999
0064023610999991930073006004+62617+017950FM-12+000999999V0209991C00001002401CN0200001N9+01611+99999100211ADDGF108991081061002501999999EQDQ01+000032APCTENQ02+000002APC3  
0043023610999991930073018004+62617+017950FM-12+000999999V0209991C00001220001CN0500001N9+01721+99999100291ADDGF104991041071004501999999MD1310041+9999
0043023610999991930073106004+62617+017950FM-12+000999999V0209991C00001220001CN0010001N9+01611+99999100291ADDGF104991041011000751999999MD1810021+9999
0043023610999991930073118004+62617+017950FM-12+000999999V0200901N00101220001CN0500001N9+01781+99999100211ADDGF104991021061004501999999MD1310021+9999
0043023610999991930080106004+62617+017950FM-12+000999999V0203601N00101004501CN0500001N9+01611+99999100341ADDGF106991061031004501999999MD1310061+9999
0054023610999991930080118004+62617+017950FM-12+000999999V0209991C000019999999N0500001N9+01611+99999100481ADDAA199015091GF107991041031002501999999MD1310061+9999
0043023610999991930080318004+62617+017950FM-12+000999999V0201801N00261220001CN0500001N9+01781+99999100911ADDGF101991001001999999999999MD1310041+9999
0043023610999991930080406004+62617+017950FM-12+000999999V0203601N00261220001CN0500001N9+02001+99999100771ADDGF100991001001999999999999MD1810041+9999
0054023610999991930080506004+62617+017950FM-12+000999999V0200901N00261002401CN0200001N9+01781+99999100131ADDAA199000691GF108991081091002501999999MD1810161+9999
0043023610999991930080606004+62617+017950FM-12+000999999V0203601N00101002401CN0500001N9+01781+99999100161ADDGF108991081061002501999999MD1310041+9999
0043023610999991930080618004+62617+017950FM-12+000999999V0200901N001019999999N0500001N9+01891+99999100391ADDGF107991041061002501999999MD1310061+9999
0043023610999991930080706004+62617+017950FM-12+000999999V0203601N00461002401CN0500001N9+01781+99999100471ADDGF108991081061002501999999MD1310041+9999
0043023610999991930080718004+62617+017950FM-12+000999999V0200501N006719999999N0500001N9+01781+99999100661ADDGF106991041061002501999999MD1310021+9999
0054023610999991930080806004+62617+017950FM-12+000999999V0200701N00261002401CN0500001N9+01501+99999100841ADDAA199000591GF108991081061002501999999MD1310021+9999
0064023610999991930080906004+62617+017950FM-12+000999999V0203601N00261220001CN0500001N9+01721+99999101241ADDGF104991041061004501999999EQDQ01+000032APCTENQ02+000002APC3  
0075023610999991930080918004+62617+017950FM-12+000999999V0200701N00671012301CN0200001N9+01501+99999101241ADDAA199001091GF107991071051012501999999EQDQ01+000032APCTENQ02+000002APC3  
0043023610999991930081106004+62617+017950FM-12+000999999V0203601N00101220001CN0500001N9+01721+99999100961ADDGF102991011011004501999999MD1810161+9999
0043023610999991930081118004+62617+017950FM-12+000999999V0203601N00101220001CN0500001N9+01501+99999100631ADDGF102991021011004501999999MD1810141+9999
0043023610999991930081206004+62617+017950FM-12+000999999V0203601N00101220001CN0500001N9+01721+99999100111ADDGF101991011011004501999999MD1810181+9999
0043023610999991930081218004+62617+017950FM-12+000999999V0200501N00101220001CN0500001N9+01611+99999099831ADDGF104991041061002501999999MD1810061+9999
0062023610999991930081306004+62617+017950FM-12+000999999V0203401N00461002401CN0500001N9+01281+99999099471ADDAA199000391AY171999GF108991081061002501999999MD1810081+9999
0043023610999991930081406004+62617+017950FM-12+000999999V0209991C000019999999N0500001N9+01391+99999099101ADDGF106991011071002501999999MD1310041+9999
0043023610999991930081418004+62617+017950FM-12+000999999V0201801N00101220001CN0500001N9+01611+99999101372ADDGF102991001001999999999999MD1310081+9999
0043023610999991930081506004+62617+017950FM-12+000999999V0209991C00001220001CN0500001N9+01611+99999100261ADDGF104991041021004501999999MD1310101+9999
0043023610999991930081518004+62617+017950FM-12+000999999V0200501N00101004501CN0500001N9+01611+99999100611ADDGF106991061061004501999999MD1310081+9999
0054023610999991930081606004+62617+017950FM-12+000999999V0200501N01231002401CN0200001N9+01501+99999100521ADDAA199014091GF108991081061002501999999MD1310041+9999
0054023610999991930081718004+62617+017950FM-12+000999999V0203401N00101220001CN0500001N9+02221+99999100461ADDAA199000391GF102991021011004501999999MD1810101+9999
0054023610999991930081806004+62617+017950FM-12+000999999V0200901N00261002401CN0010001N9+01391+99999100901ADDAA199004091GF108991081061002501999999MD1310201+9999
0054023610999991930081818004+62617+017950FM-12+000999999V0200501N00671001501CN0005001N9+01721+99999101441ADDAA199006091GF108991081061001501999999MD1310061+9999
0054023610999991930081906004+62617+017950FM-12+000999999V0200501N00261001501CN0020001N9+01391+99999101591ADDAA199008091GF108991081061001501999999MD1310101+9999
0043023610999991930082018004+62617+017950FM-12+000999999V0209991C00001220001CN0500001N9+01611+99999102001ADDGF101991001001999999999999MD1310021+9999
0054023610999991930082118004+62617+017950FM-12+000999999V0203601N00671220001CN0500001N9+01781+99999101541ADDAA199000691GF104991011061004501999999MD1810141+9999
0043023610999991930082206004+62617+017950FM-12+000999999V0200901N00261001501CN0500001N9+01781+99999101311ADDGF106991061061001501999999MD1810041+9999
0043023610999991930082306004+62617+017950FM-12+000999999V0209991C00001001501CN0002001N9+01501+99999100991ADDGF108991081061001501999999MD1810041+9999
0054023610999991930082318004+62617+017950FM-12+000999999V0209991C00001002401CN0200001N9+01501+99999100951ADDAA199008091GF108991081061002501999999MD1810041+9999
0043023610999991930082418004+62617+017950FM-12+000999999V0201801N00461220001CN0500001N9+01611+99999100531ADDGF102991001001999999999999MD1810021+9999
0054023610999991930082518004+62617+017950FM-12+000999999V0203201N00261220001CN0500001N9+01501+99999100881ADDAA199000691GF104991041061002501999999MD1310021+9999
0043023610999991930082606004+62617+017950FM-12+000999999V0203201N00931002401CN0500001N9+01501+99999100971ADDGF106991061061002501999999MD1310021+9999
0043023610999991930082618004+62617+017950FM-12+000999999V0203201N009319999999N0500001N9+01611+99999101571ADDGF106991041061002501999999MD1310041+9999
0043023610999991930082706004+62617+017950FM-12+000999999V0200701N00261220001CN0500001N9+01501+99999101811ADDGF102991021011004501999999MD1310061+9999
0043023610999991930082718004+62617+017950FM-12+000999999V0209991C00001220001CN0500001N9+01611+99999102381ADDGF100991001001999999999999MD1310141+9999
0043023610999991930082806004+62617+017950FM-12+000999999V0203401N00101220001CN0500001N9+01611+99999102901ADDGF104991001001999999999999MD1310041+9999
0043023610999991930082906004+62617+017950FM-12+000999999V0202701N00101220001CN0500001N9+01781+99999102631ADDGF102991001001999999999999MD1810061+9999
0043023610999991930083006004+62617+017950FM-12+000999999V0202301N00461220001CN0500001N9+02001+99999102191ADDGF102991001001999999999999MD1810241+9999
0043023610999991930083106004+62617+017950FM-12+000999999V0209991C00001004501CN0500001N9+01721+99999100971ADDGF106991061011004501999999MD1810181+9999
0054023610999991930083118004+62617+017950FM-12+000999999V0202901N00101002401CN0500001N9+01501+99999100711ADDAA199000691GF108991081061002501999999MD1310041+9999
0043023610999991930090206004+62617+017950FM-12+000999999V0209991C00001220001CN0500001N9+01281+99999101091ADDGF102991021999004501999999MD1310021+9999
0043023610999991930090218004+62617+017950FM-12+000999999V0203201N004619999999N0500001N9+01221+99999101061ADDGF106991011061004501999999MD1310041+9999
0043023610999991930090306004+62617+017950FM-12+000999999V0203201N00461220001CN0500001N9+01111+99999101181ADDGF102991001001999999999999MD1310021+9999
0043023610999991930090318004+62617+017950FM-12+000999999V0203201N00261220001CN0500001N9+01221+99999101431ADDGF104991021041002501999999MD1310061+9999
0054023610999991930090406004+62617+017950FM-12+000999999V0203201N00261002401CN0200001N9+00721+99999101601ADDAA199001091GF106991061061002501999999MD1310061+9999
0043023610999991930090418004+62617+017950FM-12+000999999V0203201N00101002401CN0500001N9+01001+99999101951ADDGF106991061091002501999999MD1310061+9999
0043023610999991930090506004+62617+017950FM-12+000999999V0203201N00101220001CN0500001N9+01001+99999102421ADDGF101991011011004501999999MD1310101+9999
0043023610999991930090518004+62617+017950FM-12+000999999V0209991C00001220001CN0500001N9+00721+99999102391ADDGF104991041061004501999999MD1310021+9999
0043023610999991930090606004+62617+017950FM-12+000999999V0203601N00261220001CN0500001N9+00501+99999102511ADDGF101991001001999999999999MD1310061+9999
0079023610999991930090706004+62617+017950FM-12+000999999V0209991C00001002401CN9999999N9+00781+99999102161ADDAA199001091GF108991081061002501999999MD1810021+9999MW1651EQDQ01+500002VODIS 
0064023610999991930090806004+62617+017950FM-12+000999999V0203601N00101220001CN0500001N9+00721+99999102041ADDGF100991001001999999999999EQDQ01+000032APCTENQ02+000002APC3  
0043023610999991930090818004+62617+017950FM-12+000999999V0203601N00261220001CN0500001N9+00781+99999101991ADDGF102991021041004501999999MD1310021+9999
0043023610999991930090906004+62617+017950FM-12+000999999V0203601N00671004501CN0200001N9+00891+99999102191ADDGF108991081061004501999999MD1310041+9999
0054023610999991930090918004+62617+017950FM-12+000999999V0203601N00461001501CN0020001N9+00781+99999102371ADDAA199001091GF108991081061001501999999MD1310061+9999
0043023610999991930091006004+62617+017950FM-12+000999999V0203601N004619999999N0500001N9+00891+99999102371ADDGF106991041061004501999999MD1810021+9999
0083023610999991930091018004+62617+017950FM-12+000999999V0209991C00001220001CN0200001N9+00781+99999102431ADDAA199002091AY161999GF104991041061002501999999EQDQ01+000032APCTENQ02+000002APC3  
0043023610999991930091106004+62617+017950FM-12+000999999V0209991C00001220001CN0500001N9+00891+99999102601ADDGF104991041061002501999999MD1310021+9999
0029023610999991930091218004+62617+017950FM-12+000999999V0201401N00261220001CN0500001N9+00891+99999102831ADDGF104991041999002501999999
0043023610999991930091306004+62617+017950FM-12+000999999V0209991C00001024001CN0000501N9+00611+99999102841ADDGF108991081999999999999999MD1810041+9999
0064023610999991930091318004+62617+017950FM-12+000999999V0200501N00101002401CN0500001N9+00721+99999102691ADDGF106991061061002501999999EQDQ01+000032APCTENQ02+000002APC3  
0043023610999991930091406004+62617+017950FM-12+000999999V0200901N00261002401CN0500001N9+01001+99999102301ADDGF108991081061002501999999MD1810061+9999
0043023610999991930091418004+62617+017950FM-12+000999999V0200901N00461002401CN0500001N9+00891+99999102271ADDGF108991081061002501999999MD1810041+9999
0043023610999991930091506004+62617+017950FM-12+000999999V0200901N00461002401CN0500001N9+01001+99999102001ADDGF108991081061002501999999MD1810061+9999
0035023610999991930091606004+62617+017950FM-12+000999999V0209991C000019999999N0010001N9+01111+99999101601ADDGF108991081061999999999999MW1101
0043023610999991930091618004+62617+017950FM-12+000999999V0209991C00001001501CN0020001N9+01111+99999101001ADDGF108991081061001501999999MD1810061+9999
0043023610999991930091706004+62617+017950FM-12+000999999V0203601N00101220001CN0500001N9+01221+99999100481ADDGF102991021999004501999999MD1810081+9999
0043023610999991930091718004+62617+017950FM-12+000999999V0203201N00261220001CN0500001N9+00781+99999100481ADDGF102991021061004501999999MD1310061+9999
0043023610999991930091806004+62617+017950FM-12+000999999V0203401N01541220001CN0500001N9+00721+99999101011ADDGF100991001001999999999999MD1310141+9999
0043023610999991930091906004+62617+017950FM-12+000999999V0209991C00001220001CN0500001N9+00721+99999102071ADDGF100991001001999999999999MD1310081+9999
0064023610999991930092006004+62617+017950FM-12+000999999V0202701N00101220001CN0500001N9+01001+99999101841ADDGF100991001001999999999999EQDQ01+000032APCTENQ02+000002APC3  
0043023610999991930092018004+62617+017950FM-12+000999999V0201601N00671002401CN0500001N9+00781+99999101331ADDGF106991061061002501999999MD1810141+9999
0054023610999991930092206004+62617+017950FM-12+000999999V0203201N00261001501CN0040001N9+00721+99999100951ADDAA199002091GF108991081061001501999999MD1310081+9999
0054023610999991930092218004+62617+017950FM-12+000999999V0209991C00001002401CN0200001N9+00721+99999101571ADDAA199000391GF108991081061002501999999MD1310201+9999
0054023610999991930092406004+62617+017950FM-12+000999999V0201801N02261001501CN0100001N9+01001+99999100871ADDAA199009091GF108991081061001501999999MD1810401+9999
0054023610999991930092418004+62617+017950FM-12+000999999V0201801N00931002401CN0500001N9+01281+99999100691ADDAA199000691GF106991061061002501999999MD1310021+9999
0054023610999991930092506004+62617+017950FM-12+000999999V0201801N00461002401CN0200001N9+01281+99999100501ADDAA199000691GF108991081061002501999999MD1810021+9999
0054023610999991930092606004+62617+017950FM-12+000999999V0209991C00001220001CN0500001N9+01001+99999100431ADDAA199010091GF104991041061004501999999MD1310061+9999
0043023610999991930092706004+62617+017950FM-12+000999999V0203201N00101220001CN0500001N9+00281+99999102421ADDGF100991001001999999999999MD1310061+9999
0043023610999991930092718004+62617+017950FM-12+000999999V0209991C00001220001CN0500001N9+00781+99999101951ADDGF100991001001999999999999MD1810141+9999
0064023610999991930092818004+62617+017950FM-12+000999999V0209991C00001220001CN0500001N9+00891+99999101941ADDGF102991021021002501999999EQDQ01+000032APCTENQ02+000002APC3  
0043023610999991930092906004+62617+017950FM-12+000999999V0202701N00261002401CN0500001N9+01221+99999101541ADDGF106991061061002501999999MD1810041+9999
0054023610999991930092918004+62617+017950FM-12+000999999V0203201N00261002401CN0040001N9+01111+99999101371ADDAA199000691GF106991061061002501999999MD1810101+9999
0043023610999991930093006004+62617+017950FM-12+000999999V0202901N00261007801CN0500001N9+00501+99999101601ADDGF106991061061008001999999MD1310061+9999
0043023610999991930093018004+62617+017950FM-12+000999999V0209991C00001220001CN0500001N9+00281+99999101371ADDGF100991001001999999999999MD1310021+9999
0043023610999991930100106004+62617+017950FM-12+000999999V0203201N00261220001CN0500001N9+00391+99999101931ADDGF100991001001999999999999MD1310061+9999
0054023610999991930100118004+62617+017950FM-12+000999999V0209991C00001220001CN0500001N9+00111+99999102461ADDAA199045091GF102991021071999999999999MD1310181+9999
0043023610999991930100218004+62617+017950FM-12+000999999V0202301N00261002401CN0500001N9+00781+99999101621ADDGF108991081061002501999999MD1810121+9999
0043023610999991930100306004+62617+017950FM-12+000999999V0202901N00261004501CN0500001N9+00721+99999101011ADDGF107991071051004501999999MD1810161+9999
0043023610999991930100318004+62617+017950FM-12+000999999V0203201N00671220001CN0500001N9+00721+99999101431ADDGF102991021051004501999999MD1310221+9999
0064023610999991930100406004+62617+017950FM-12+000999999V0203201N00101220001CN0500001N9+00391+99999101671ADDGF104991001001999999999999EQDQ01+000032APCTENQ02+000002APC3  
0043023610999991930100418004+62617+017950FM-12+000999999V0209991C00001220001CN0500001N9+00001+99999101241ADDGF102991021011004501999999MD1810141+9999
0054023610999991930100506004+62617+017950FM-12+000999999V0209991C00001001501CN0040001N9+00501+99999100351ADDAA199003091GF108991081061001501999999MD1810261+9999
0054023610999991930100518004+62617+017950FM-12+000999999V0201401N00671002401CN0100001N9+00611+99999099871ADDAA199008091GF108991081061002501999999MD1810061+9999
0054023610999991930100606004+62617+017950FM-12+000999999V0200901N00671002401CN0500001N9+00501+99999099681ADDAA199000691GF108991081061002501999999MD1810041+9999
0043023610999991930100618004+62617+017950FM-12+000999999V0200501N00461220001CN0500001N9+00391+99999099901ADDGF104991041061004501999999MD1310021+9999
0043023610999991930100706004+62617+017950FM-12+000999999V0200901N00261220001CN0500001N9+00221+99999100061ADDGF102991021061004501999999MD1310021+9999
0064023610999991930100718004+62617+017950FM-12+000999999V0209991C00001220001CN0500001N9-00111+99999100041ADDGF102991021061002501999999EQDQ01+000032APCTENQ02+000002APC3  
0043023610999991930100806004+62617+017950FM-12+000999999V0201801N00461220001CN0500001N9+00281+99999099641ADDGF104991041061002501999999MD1810081+9999
0054023610999991930100918004+62617+017950FM-12+000999999V0203401N00931001501CN0100001N9+00221+99999097351ADDAA199008091GF108991081061001501999999MD1810141+9999
0054023610999991930101006004+62617+017950FM-12+000999999V0202901N00671002401CN0040001N9+00111+99999098531ADDAA199001091GF108991081061002501999999MD1310361+9999
0043023610999991930101106004+62617+017950FM-12+000999999V0202901N00101220001CN0500001N9+00111+99999100601ADDGF102991011011004501999999MD1310321+9999
0064023610999991930101118004+62617+017950FM-12+000999999V0209991C00001220001CN0500001N9+00001+99999101001ADDGF100991001001999999999999EQDQ01+000032APCTENQ02+000002APC3  
0043023610999991930101218004+62617+017950FM-12+000999999V0201801N00461001501CN0040001N9+00781+99999100611ADDGF106991061061001501999999MD1810041+9999
0054023610999991930101306004+62617+017950FM-12+000999999V0201801N00461002401CN0020001N9+00721+99999099841ADDAA199006091GF108991081061002501999999MD1810061+9999
0043023610999991930101406004+62617+017950FM-12+000999999V0209991C00001004501CN0500001N9+00391+99999100401ADDGF106991061061004501999999MD1310061+9999
0043023610999991930101418004+62617+017950FM-12+000999999V0202701N00101220001CN0500001N9+00611+99999101031ADDGF102991021061004501999999MD1310121+9999
0054023610999991930101506004+62617+017950FM-12+000999999V0209991C00001002401CN0040001N9+00391+99999101431ADDAA199001091GF108991081061002501999999MD1310061+9999
0054023610999991930101606004+62617+017950FM-12+000999999V0209991C00001000151CN0000001N9+00781+99999101641ADDAA199000591GF108991081061000251999999MD1810061+9999
0051023610999991930101618004+62617+017950FM-12+000999999V0202301N00261001501CN0100001N9+01001+99999101011ADDAY151999GF108991081061001501999999MD1610101+9999
0054023610999991930101706004+62617+017950FM-12+000999999V0209991C00001220001CN0500001N9+00611+99999999999ADDAA199000391GF100991001001999999999999MD1310061+9999
0049023610999991930101806004+62617+017950FM-12+000999999V0202701N00101220001CN0000001N9+00281+99999101241ADDGF102991021001001501999999MD1810061+9999MW1101
0054023610999991930101818004+62617+017950FM-12+000999999V0202301N00931000151CN0000001N9+00891+99999100561ADDAA199002091GF108991081061000251999999MD1810041+9999
0043023610999991930101906004+62617+017950FM-12+000999999V0202701N00101220001CN0500001N9+00721+99999101101ADDGF104991041011004501999999MD1310381+9999
0043023610999991930101918004+62617+017950FM-12+000999999V0209991C00001220001CN0500001N9+00391+99999101711ADDGF100991001001999999999999MD1310101+9999
0043023610999991930102018004+62617+017950FM-12+000999999V0201801N00101000151CN0000501N9+00611+99999101931ADDGF108991081061000251999999MD1310021+9999
0054023610999991930102106004+62617+017950FM-12+000999999V0201401N00101000601CN0005001N9+00721+99999101721ADDAA199000391GF108991081061000751999999MD1810101+9999
0054023610999991930102118004+62617+017950FM-12+000999999V0209991C00001000601CN0005001N9+00721+99999101291ADDAA199001091GF108991081061000751999999MD1810061+9999
0054023610999991930102206004+62617+017950FM-12+000999999V0209991C00001002401CN0020001N9+00721+99999101261ADDAA199000391GF108991081061002501999999MD1810041+9999
0054023610999991930102218004+62617+017950FM-12+000999999V0209991C00001001501CN0040001N9+00781+99999101141ADDAA199000391GF108991081061001501999999MD1310021+9999
0054023610999991930102306004+62617+017950FM-12+000999999V0209991C00001002401CN0000501N9+00721+99999100171ADDAA199001091GF108991081061002501999999MD1810141+9999
0054023610999991930102406004+62617+017950FM-12+000999999V0209991C00001000601CN0005001N9+00501+99999099801ADDAA199001091GF108991081061000751999999MD1810081+9999
0054023610999991930102418004+62617+017950FM-12+000999999V0201101N00101220001CN0500001N9+00781+99999099721ADDAA199000591GF104991041061002501999999MD1310041+9999
0043023610999991930102506004+62617+017950FM-12+000999999V0209991C00001220001CN0000501N9+00721+99999099911ADDGF108991001001999999999999MD1310021+9999
0054023610999991930102606004+62617+017950FM-12+000999999V0201801N00931001501CN0500001N9+00781+99999099281ADDAA199010091GF107991071091001501999999MD1310101+9999
0043023610999991930102618004+62617+017950FM-12+000999999V0202701N00671220001CN0500001N9+00611+99999100351ADDGF100991001001999999999999MD1310341+9999
0043023610999991930102706004+62617+017950FM-12+000999999V0209991C00001220001CN0500001N9+00111+99999101131ADDGF104991021061008001999999MD1310141+9999
0043023610999991930102806004+62617+017950FM-12+000999999V0203201N00101002401CN0200001N9+00501+99999100781ADDGF108991081061002501999999MD1810061+9999
0054023610999991930102818004+62617+017950FM-12+000999999V0203201N00101001501CN0010001N9+00501+99999100371ADDAA199004091GF108991081061001501999999MD1810101+9999
0054023610999991930102906004+62617+017950FM-12+000999999V0202301N00261001501CN0100001N9+00501+99999099471ADDAA199001091GF108991081061001501999999MD1810241+9999
0043023610999991930102918004+62617+017950FM-12+000999999V0202701N00101220001CN0500001N9+00281+99999099601ADDGF100991001001999999999999MD1810101+9999
0043023610999991930103018004+62617+017950FM-12+000999999V0209991C00001002401CN0200001N9+00111+99999099581ADDGF108991081061002501999999MD1810041+9999
0054023610999991930103106004+62617+017950FM-12+000999999V0209991C00001002401CN0200001N9+00281+99999099201ADDAA199005091GF108991081061002501999999MD1810061+9999
0043023610999991930110106004+62617+017950FM-12+000999999V0202701N00101220001CN0500001N9+00001+99999099631ADDGF101991001001004501999999MD1310021+9999
0043023610999991930110118004+62617+017950FM-12+000999999V0202701N00261220001CN0500001N9+00221+99999100041ADDGF102991021061004501999999MD1310101+9999
0043023610999991930110206004+62617+017950FM-12+000999999V0209991C00001220001CN0500001N9-00221+99999100171ADDGF102991001001999999999999MD1810081+9999
0043023610999991930110218004+62617+017950FM-12+000999999V0209991C00001002401CN0500001N9+00281+99999099621ADDGF106991061061002501999999MD1810241+9999
0054023610999991930110318004+62617+017950FM-12+000999999V0201101N00931002401CN0100001N9+00781+99999097941ADDAA199022091GF108991081061002501999999MD1310061+9999
0054023610999991930110406004+62617+017950FM-12+000999999V0201401N00261002401CN0020001N9+00781+99999098401ADDAA199003091GF108991081061002501999999MD1310021+9999
0054023610999991930110418004+62617+017950FM-12+000999999V0202701N00261002401CN0100001N9+00781+99999098231ADDAA199006091GF108991081061002501999999MD1310161+9999
0049023610999991930110506004+62617+017950FM-12+000999999V0202301N00261001501CN0010001N9+00611+99999099991ADDGF108991081061001501999999MD1310301+9999MW1101
0043023610999991930110518004+62617+017950FM-12+000999999V0202301N00101002401CN0200001N9+00501+99999100521ADDGF108991081061002501999999MD1310101+9999
0043023610999991930110606004+62617+017950FM-12+000999999V0209991C00001002401CN0100001N9+00281+99999100501ADDGF108991081061002501999999MD1310041+9999
0043023610999991930110618004+62617+017950FM-12+000999999V0209991C00001220001CN0500001N9-00111+99999100121ADDGF104991001001999999999999MD1810081+9999
0043023610999991930110706004+62617+017950FM-12+000999999V0209991C00001220001CN0500001N9-00281+99999100101ADDGF100991001001999999999999MD1310101+9999
0043023610999991930110718004+62617+017950FM-12+000999999V0202701N00261220001CN0500001N9+00111+99999100331ADDGF102991001001999999999999MD1310041+9999
0043023610999991930110806004+62617+017950FM-12+000999999V0201801N01541002401CN0500001N9+00391+99999099791ADDGF108991081061002501999999MD1810261+9999
0054023610999991930110818004+62617+017950FM-12+000999999V0209991C00001220001CN0500001N9+00111+99999099381ADDAA199009091GF102991021011004501999999MD1310181+9999
0043023610999991930110918004+62617+017950FM-12+000999999V0209991C00001220001CN0500001N9-00111+99999098691ADDGF102991021011008001999999MD1810021+9999
0043023610999991930111006004+62617+017950FM-12+000999999V0209991C00001220001CN0500001N9-00221+99999098931ADDGF102991021011002501999999MD1810041+9999
0043023610999991930111018004+62617+017950FM-12+000999999V0202701N00101220001CN0500001N9-00221+99999098751ADDGF100991001001999999999999MD1810041+9999
0043023610999991930111106004+62617+017950FM-12+000999999V0203201N00101220001CN0500001N9-00221+99999098841ADDGF104991001001999999999999MD1310161+9999
0043023610999991930111206004+62617+017950FM-12+000999999V0209991C00001220001CN0500001N9+00111+99999100961ADDGF100991001001999999999999MD1310141+9999
0043023610999991930111218004+62617+017950FM-12+000999999V0203601N00261004501CN0500001N9+00001+99999100771ADDGF108991081061004501999999MD1810241+9999
0054023610999991930111306004+62617+017950FM-12+000999999V0202701N00671004501CN0500001N9+00281+99999097811ADDAA199001091GF108991081061004501999999MD1310481+9999
0043023610999991930111318004+62617+017950FM-12+000999999V0200501N02261220001CN0500001N9+00391+99999097321ADDGF101991011061004501999999MD1810101+9999
0054023610999991930111506004+62617+017950FM-12+000999999V0200701N002619999999N0200001N9-00501+99999098461ADDAA199001091GF108991081061999999999999MD1810221+9999
0043023610999991930111606004+62617+017950FM-12+000999999V0202701N00261220001CN0500001N9-00221+99999099181ADDGF102991021011004501999999MD1310101+9999
0043023610999991930111618004+62617+017950FM-12+000999999V0203201N00671220001CN0500001N9-00221+99999099571ADDGF100991001001999999999999MD1310101+9999
0043023610999991930111718004+62617+017950FM-12+000999999V0209991C00001220001CN0500001N9-00891+99999100341ADDGF100991001001999999999999MD1310081+9999
0043023610999991930111818004+62617+017950FM-12+000999999V0209991C00001220001CN0500001N9-00721+99999101001ADDGF100991001001999999999999MD1310041+9999
0043023610999991930111906004+62617+017950FM-12+000999999V0209991C00001220001CN0500001N9-00721+99999101191ADDGF100991001001999999999999MD1310081+9999
0043023610999991930111918004+62617+017950FM-12+000999999V0209991C00001220001CN0500001N9-00611+99999101101ADDGF104991041061004501999999MD1310061+9999
0043023610999991930112006004+62617+017950FM-12+000999999V0209991C00001220001CN0500001N9-01111+99999100931ADDGF102991021061004501999999MD1810041+9999
0043023610999991930112018004+62617+017950FM-12+000999999V0209991C00001220001CN0500001N9-01111+99999100991ADDGF100991001001999999999999MD1310061+9999
0043023610999991930112106004+62617+017950FM-12+000999999V0202301N00461220001CN0500001N9-00611+99999100441ADDGF104991041011004501999999MD1810101+9999
0054023610999991930112118004+62617+017950FM-12+000999999V0201801N01541002401CN0500001N9+00221+99999099801ADDAA199000391GF108991081061002501999999MD1810241+9999
0054023610999991930112206004+62617+017950FM-12+000999999V0201801N01541001501CN0005001N9+00281+99999098461ADDAA199009091GF108991081091001501999999MD1810221+9999
0054023610999991930112218004+62617+017950FM-12+000999999V0201401N00671001501CN0010001N9+00391+99999098351ADDAA199013091GF108991081091001501999999MD1310021+9999
0054023610999991930112306004+62617+017950FM-12+000999999V0201401N00461002401CN0500001N9+00221+99999098791ADDAA199004091GF108991081061002501999999MD1310101+9999
0054023610999991930112318004+62617+017950FM-12+000999999V0200901N00261002401CN0500001N9+00111+99999099831ADDAA199000391GF108991081061002501999999MD1310141+9999
0054023610999991930112406004+62617+017950FM-12+000999999V0209991C00001220001CN0500001N9-00221+99999100461ADDAA199001091GF104991041011002501999999MD1310081+9999
0043023610999991930112506004+62617+017950FM-12+000999999V0209991C00001002401CN0500001N9-00221+99999100481ADDGF108991081061002501999999MD1810061+9999
0054023610999991930112518004+62617+017950FM-12+000999999V0200501N00461002401CN0500001N9-00111+99999100441ADDAA199003091GF108991081061002501999999MD1810021+9999
0054023610999991930112606004+62617+017950FM-12+000999999V0203601N00101002401CN0020001N9+00001+99999100391ADDAA199000691GF108991081061002501999999MD1810021+9999
0054023610999991930112618004+62617+017950FM-12+000999999V0201401N00461002401CN0200001N9+00221+99999100351ADDAA199001091GF108991081061002501999999MD1810041+9999
0054023610999991930112706004+62617+017950FM-12+000999999V0209991C00001001501CN0000501N9+00281+99999100031ADDAA199009091GF108991081061001501999999MD1810081+9999
0054023610999991930112718004+62617+017950FM-12+000999999V0209991C00001001501CN0040001N9+00111+99999099941ADDAA199005091GF108991081061001501999999MD1310061+9999
0054023610999991930112806004+62617+017950FM-12+000999999V0209991C00001000601CN0000501N9+00111+99999100431ADDAA199001091GF108991081061000751999999MD1310101+9999
0043023610999991930112818004+62617+017950FM-12+000999999V0209991C00001002401CN0500001N9+00111+99999101301ADDGF108991081061002501999999MD1310241+9999
0043023610999991930112906004+62617+017950FM-12+000999999V0209991C00001220001CN0500001N9-00221+99999101981ADDGF104991041061002501999999MD1310161+9999
0043023610999991930112918004+62617+017950FM-12+000999999V0209991C00001002401CN0100001N9-00221+99999102121ADDGF108991081061002501999999MD1310081+9999
0054023610999991930113006004+62617+017950FM-12+000999999V0203601N00101002401CN0200001N9-00221+99999101681ADDAA199005091GF108991081061002501999999MD1810061+9999
0075023610999991930113018004+62617+017950FM-12+000999999V0209991C00001002401CN0200001N9+00001+99999101441ADDAA199001091GF108991081061002501999999EQDQ01+000032APCTENQ02+000002APC3  
0043023610999991930120106004+62617+017950FM-12+000999999V0209991C00001220001CN0500001N9-00391+99999102121ADDGF102991021061004501999999MD1310141+9999
0043023610999991930120118004+62617+017950FM-12+000999999V0209991C00001004501CN0500001N9-00391+99999102611ADDGF106991061041004501999999MD1310021+9999
0043023610999991930120206004+62617+017950FM-12+000999999V0209991C00001220001CN0500001N9-00391+99999102711ADDGF104991041061004501999999MD1310021+9999
0043023610999991930120218004+62617+017950FM-12+000999999V0209991C00001002401CN0500001N9+00111+99999102441ADDGF108991081061002501999999MD1310041+9999
0043023610999991930120318004+62617+017950FM-12+000999999V0201801N00261002401CN0500001N9+00221+99999100971ADDGF106991061081002501999999MD1810161+9999
0043023610999991930120406004+62617+017950FM-12+000999999V0202301N00101220001CN0500001N9+00281+99999100901ADDGF102991021011004501999999MD1310181+9999
0043023610999991930120418004+62617+017950FM-12+000999999V0202301N00461004501CN0500001N9+00781+99999101201ADDGF106991061061004501999999MD1310061+9999
0043023610999991930120506004+62617+017950FM-12+000999999V0202301N00101004501CN0500001N9+00281+99999101331ADDGF106991061061004501999999MD1810041+9999
0043023610999991930120518004+62617+017950FM-12+000999999V0209991C00001220001CN0500001N9+00001+99999101221ADDGF100991001001999999999999MD1310061+9999
0062023610999991930120606004+62617+017950FM-12+000999999V0209991C00001220001CN0500001N9-00221+99999101071ADDGF100991999001999999999999MD1810041+9999EQDQ01+000022SCOTLC
0043023610999991930120618004+62617+017950FM-12+000999999V0202701N00261220001CN0500001N9-00111+99999101761ADDGF100991001001999999999999MD1310141+9999
0043023610999991930120706004+62617+017950FM-12+000999999V0209991C00001220001CN0500001N9-00501+99999102101ADDGF104991041061004501999999MD1810021+9999
0054023610999991930120718004+62617+017950FM-12+000999999V0201401N00261002401CN0020001N9+00221+99999101841ADDAA199000391GF108991081061002501999999MD1810081+9999
0054023610999991930120806004+62617+017950FM-12+000999999V0201401N00101002401CN0200001N9+00221+99999101501ADDAA199001091GF108991081061002501999999MD1810061+9999
0054023610999991930120906004+62617+017950FM-12+000999999V0201601N00461001501CN0200001N9+00281+99999101101ADDAA199001091GF108991081061001501999999MD1310021+9999
0043023610999991930121018004+62617+017950FM-12+000999999V0209991C00001001501CN0100001N9+00111+99999102301ADDGF106991061061001501999999MD1310101+9999
0064023610999991930121106004+62617+017950FM-12+000999999V0200901N00261002401CN0500001N9+00111+99999102371ADDGF108991081061002501999999EQDQ01+000032APCTENQ02+000002APC3  
0054023610999991930121118004+62617+017950FM-12+000999999V0201401N00931001501CN0500001N9+00111+99999102151ADDAA199003091GF108991081061001501999999MD1810061+9999
0043023610999991930121518004+62617+017950FM-12+000999999V0201401N00261220001CN0500001N9-00111+99999103221ADDGF102991021011004501999999MD1310021+9999
0043023610999991930121606004+62617+017950FM-12+000999999V0201401N00671220001CN0500001N9+00001+99999103301ADDGF104991041061002501999999MD1310021+9999
0043023610999991930121618004+62617+017950FM-12+000999999V0201401N00461002401CN0500001N9-00281+99999103541ADDGF108991081061002501999999MD1310061+9999
0043023610999991930121706004+62617+017950FM-12+000999999V0200501N00671002401CN0500001N9-00391+99999103491ADDGF106991061061002501999999MD1310021+9999
0043023610999991930121806004+62617+017950FM-12+000999999V0203601N00261002401CN0500001N9-00721+99999103321ADDGF108991081061002501999999MD1310021+9999
0054023610999991930121818004+62617+017950FM-12+000999999V0203601N00101002401CN0500001N9-00721+99999103191ADDAA199000391GF108991081061002501999999MD1810041+9999
0043023610999991930121906004+62617+017950FM-12+000999999V0201801N00931220001CN0500001N9-00281+99999102231ADDGF104991041061002501999999MD1810081+9999
0062023610999991930121918004+62617+017950FM-12+000999999V0201801N00261002401CN0500001N9-00111+99999101681ADDAA199000691AY161999GF108991081061002501999999MD1810101+9999
0043023610999991930122006004+62617+017950FM-12+000999999V0209991C00001004501CN0500001N9+00001+99999101761ADDGF106991061061004501999999MD1810061+9999
0043023610999991930122018004+62617+017950FM-12+000999999V0209991C00001220001CN0500001N9+00281+99999101391ADDGF102991021011004501999999MD1310101+9999
0043023610999991930122106004+62617+017950FM-12+000999999V0209991C00001220001CN0500001N9-00281+99999101661ADDGF102991021011004501999999MD1810141+9999
0043023610999991930122118004+62617+017950FM-12+000999999V0209991C00001220001CN0500001N9-00501+99999100741ADDGF102991021011004501999999MD1810181+9999
0043023610999991930122206004+62617+017950FM-12+000999999V0209991C00001220001CN9999999N9-00391+99999101011ADDGF108991001001999999999999MD1310141+9999
0043023610999991930122218004+62617+017950FM-12+000999999V0203601N00461004501CN0500001N9-00391+99999101061ADDGF108991081061004501999999MD1310241+9999
0043023610999991930122318004+62617+017950FM-12+000999999V0202701N00101220001CN0500001N9-01001+99999101901ADDGF100991001001999999999999MD1310041+9999
0054023610999991930122418004+62617+017950FM-12+000999999V0203601N00261001501CN0002001N9-00221+99999101661ADDAA199002091GF108991081061001501999999MD1310021+9999
0054023610999991930122518004+62617+017950FM-12+000999999V0203601N00461002401CN0200001N9-01221+99999102351ADDAA199000591GF108991081061002501999999MD1310041+9999
0043023610999991930122618004+62617+017950FM-12+000999999V0209991C00001220001CN0500001N9-00781+99999101931ADDGF102991021061002501999999MD1810141+9999
0043023610999991930122706004+62617+017950FM-12+000999999V0209991C00001220001CN0500001N9-00891+99999102001ADDGF101991011011004501999999MD1310021+9999
0043023610999991930122718004+62617+017950FM-12+000999999V0209991C00001220001CN0500001N9-00891+99999101941ADDGF102991021011004501999999MD1810021+9999
0054023610999991930122818004+62617+017950FM-12+000999999V0201401N01541002401CN0020001N9+00001+99999100911ADDAA199001091GF108991081061002501999999MD1810161+9999
0043023610999991930122906004+62617+017950FM-12+000999999V0209991C00001220001CN0200001N9-00221+99999100461ADDGF104991041061004501999999MD1810041+9999
0054023610999991930122918004+62617+017950FM-12+000999999V0202301N00461002401CN0500001N9+00221+99999100441ADDAA199000391GF108991081061002501999999MD1810041+9999
0043023610999991930123018004+62617+017950FM-12+000999999V0201401N01231002401CN0500001N9+00221+99999100381ADDGF108991081061002501999999MD1810021+9999
0075023610999991930123106004+62617+017950FM-12+000999999V0201401N00931002401CN0100001N9+00221+99999100341ADDAA199007091GF108991081061002501999999EQDQ01+000032APCTENQ02+000002APC3  
0043023610999991930123118004+62617+017950FM-12+000999999V0209991C00001002401CN0500001N9+00221+99999099141ADDGF108991081061002501999999MD1310041+9999
