0064023610999991929080106004+62617+017950FM-12+000999999V0201801N00101220001CN0500001N9+01391+99999099871ADDGF104991041061002501999999EQDQ01+000032APCTENQ02+000002APC3  
0075023610999991929080118004+62617+017950FM-12+000999999V0202001N00101000151CN0005001N9+01281+99999099621ADDAA199000391GF108991081051000251999999EQDQ01+000032APCTENQ02+000002APC3  
0083023610999991929080218004+62617+017950FM-12+000999999V0201401N00261002401CN0200001N9+01391+99999099121ADDAA199000691AY141999GF106991061081002501999999EQDQ01+000032APCTENQ02+000002APC3  
0054023610999991929080306004+62617+017950FM-12+000999999V0203201N00261004501CN0500001N9+01281+99999099481ADDAA199000691GF106991061061004501999999MD1310161+9999
0043023610999991929080318004+62617+017950FM-12+000999999V0202701N00461220001CN0500001N9+01391+99999100361ADDGF104991041011004501999999MD1310201+9999
0062023610999991929080406004+62617+017950FM-12+000999999V0201601N00461220001CN0500001N9+01391+99999100951ADDGF102991999011004501999999MD1310041+9999EQDQ01+000002SCOTLC
0064023610999991929080418004+62617+017950FM-12+000999999V0202301N00461002401CN0500001N9+01501+99999100941ADDGF108991081061002501999999EQDQ01+000032APCTENQ02+000002APC3  
0043023610999991929080506004+62617+017950FM-12+000999999V0202301N00261220001CN0500001N9+01611+99999101191ADDGF104991041061002501999999MD1310041+9999
0043023610999991929080518004+62617+017950FM-12+000999999V0201801N01901004501CN0500001N9+01391+99999100751ADDGF106991061061004501999999MD1810041+9999
0064023610999991929080618004+62617+017950FM-12+000999999V0202701N00261220001CN0500001N9+01501+99999101181ADDGF102991021011004501999999EQDQ01+000032APCTENQ02+000002APC3  
0043023610999991929080706004+62617+017950FM-12+000999999V0200501N00101220001CN0500001N9+01611+99999101341ADDGF104991011061004501999999MD1310061+9999
0043023610999991929080718004+62617+017950FM-12+000999999V0201801N00261220001CN0500001N9+01281+99999101281ADDGF102991021011004501999999MD1810041+9999
0043023610999991929080806004+62617+017950FM-12+000999999V0202001N004619999999N0200001N9+01391+99999101241ADDGF108991041051999999999999MD1310041+9999
0075023610999991929080818004+62617+017950FM-12+000999999V0202301N00261002401CN0100001N9+01391+99999100881ADDAA199001091GF108991081061002501999999EQDQ01+000032APCTENQ02+000002APC3  
0054023610999991929080906004+62617+017950FM-12+000999999V0203601N00101002401CN0040001N9+01281+99999100701ADDAA199011091GF108991081061002501999999MD1810041+9999
0075023610999991929081106004+62617+017950FM-12+000999999V0203201N00101000151CN0002001N9+01221+99999100951ADDAA199000691GF108991081051000251999999EQDQ01+000032APCTENQ02+000002APC3  
0043023610999991929081118004+62617+017950FM-12+000999999V0202301N00671004501CN0500001N9+01501+99999100751ADDGF108991081061004501999999MD1810041+9999
0054023610999991929081206004+62617+017950FM-12+000999999V0200901N00261002401CN0100001N9+01391+99999100451ADDAA199003091GF108991081061002501999999MD1810241+9999
0054023610999991929081218004+62617+017950FM-12+000999999V0202701N00261220001CN0500001N9+01501+99999100441ADDAA199009091GF104991041011004501999999MD1310041+9999
0000023610999991929081306004+62617+017950FM-12+000999999V0202901N001019999999N9999999N9+01501+99999100961
0043023610999991929081318004+62617+017950FM-12+000999999V0209991C00001220001CN0500001N9+01391+99999101301ADDGF104991041011004501999999MD1310041+9999
0075023610999991929081406004+62617+017950FM-12+000999999V0209991C00001002401CN0500001N9+01111+99999101551ADDAA199000591GF108991081061002501999999EQDQ01+000032APCTENQ02+000002APC3  
0054023610999991929081506004+62617+017950FM-12+000999999V0203601N00461002401CN0100001N9+00891+99999100701ADDAA199003091GF108991081061002501999999MD1810161+9999
0075023610999991929081518004+62617+017950FM-12+000999999V0202701N00101220001CN0500001N9+01221+99999100991ADDAA199002091GF104991041011004501999999EQDQ01+000032APCTENQ02+000002APC3  
0043023610999991929081706004+62617+017950FM-12+000999999V0209991C00001220001CN0500001N9+01501+99999101801ADDGF100991001001999999999999MD1310041+9999
0054023610999991929081806004+62617+017950FM-12+000999999V0201801N00671002401CN0020001N9+01391+99999100511ADDAA199008091GF108991081061002501999999MD1810041+9999
0064023610999991929081818004+62617+017950FM-12+000999999V0201801N01541220001CN0500001N9+01721+99999100521ADDGF104991001001999999999999EQDQ01+000032APCTENQ02+000002APC3  
0064023610999991929081906004+62617+017950FM-12+000999999V0201801N00101220001CN0500001N9+01611+99999100631ADDGF104991041011008001999999EQDQ01+000032APCTENQ02+000002APC3  
0075023610999991929081918004+62617+017950FM-12+000999999V0209991C00001002401CN0010001N9+01281+99999100631ADDAA199000691GF108991081061002501999999EQDQ01+000032APCTENQ02+000002APC3  
0054023610999991929082006004+62617+017950FM-12+000999999V0203601N00261002401CN0500001N9+01221+99999999999ADDAA199014091GF108991081061002501999999MD1310061+9999
0043023610999991929082106004+62617+017950FM-12+000999999V0209991C00001220001CN0500001N9+01391+99999102311ADDGF100991001001999999999999MD1310041+9999
0064023610999991929082118004+62617+017950FM-12+000999999V0201801N00461220001CN0500001N9+01281+99999102231ADDGF102991001001999999999999EQDQ01+000032APCTENQ02+000002APC3  
0043023610999991929082206004+62617+017950FM-12+000999999V0202001N001019999999N0200001N9+01221+99999102261ADDGF106991021051999999999999MD1810041+9999
0043023610999991929082306004+62617+017950FM-12+000999999V0209991C00001002401CN0500001N9+01001+99999101981ADDGF107991071011002501999999MD1810041+9999
0043023610999991929082318004+62617+017950FM-12+000999999V0201401N00101220001CN0500001N9+01221+99999101541ADDGF104991021011004501999999MD1810041+9999
0054023610999991929082506004+62617+017950FM-12+000999999V0203601N00101002401CN0100001N9+01001+99999099421ADDAA199006091GF108991081061002501999999MD1810201+9999
0075023610999991929082518004+62617+017950FM-12+000999999V0202301N00101004501CN0500001N9+01001+99999099901ADDAA199005091GF106991061061004501999999EQDQ01+000032APCTENQ02+000002APC3  
0043023610999991929082618004+62617+017950FM-12+000999999V0202701N00461220001CN0500001N9+01221+99999100831ADDGF104991041011999999999999MD1310041+9999
0064023610999991929082706004+62617+017950FM-12+000999999V0202701N00461004501CN0500001N9+01001+99999101111ADDGF106991061011004501999999EQDQ01+000032APCTENQ02+000002APC3  
0043023610999991929082806004+62617+017950FM-12+000999999V0203201N00461220001CN0500001N9+01221+99999101301ADDGF100991001001999999999999MD1310041+9999
0043023610999991929082818004+62617+017950FM-12+000999999V0209991C00001220001CN0500001N9+01221+99999101301ADDGF104991011011004501999999MD1310041+9999
0054023610999991929082906004+62617+017950FM-12+000999999V0201101N00101002401CN0020001N9+01001+99999101081ADDAA199002091GF108991081061002501999999MD1810041+9999
0043023610999991929082918004+62617+017950FM-12+000999999V0201801N00261220001CN0100001N9+01221+99999100301ADDGF101991011011999999999999MD1310161+9999
0064023610999991929083006004+62617+017950FM-12+000999999V0202901N004619999999N0200001N9+01281+99999100261ADDGF106991041051999999999999EQDQ01+000032APCTENQ02+000002APC3  
0043023610999991929083018004+62617+017950FM-12+000999999V0209991C00001220001CN0500001N9+01111+99999100801ADDGF104991001001999999999999MD1310041+9999
0043023610999991929090106004+62617+017950FM-12+000999999V0201401N00101220001CN0020001N9+01221+99999102111ADDGF100991001001999999999999MD1310041+9999
0054023610999991929090206004+62617+017950FM-12+000999999V0201801N00261001501CN0010001N9+01221+99999100981ADDAA199017091GF108991081061001501999999MD1810441+9999
0043023610999991929090218004+62617+017950FM-12+000999999V0201401N001019999999N9999999N9+01221+99999999999ADDGF108991081051999999999999MD1810041+9999
0043023610999991929090306004+62617+017950FM-12+000999999V0203201N00101000601CN0000501N9+01111+99999100521ADDGF108991081051000751999999MD1310161+9999
0043023610999991929090318004+62617+017950FM-12+000999999V0203201N00101002401CN0500001N9+01281+99999101241ADDGF106991061011002501999999MD1310041+9999
0054023610999991929090506004+62617+017950FM-12+000999999V0203201N00101220001CN0500001N9+01221+99999100941ADDAA199002091GF104991021011004501999999MD1810041+9999
0043023610999991929090518004+62617+017950FM-12+000999999V0202301N00101220001CN0500001N9+01221+99999100791ADDGF102991021011004501999999MD1810041+9999
0054023610999991929090606004+62617+017950FM-12+000999999V0203601N00101220001CN0500001N9+01001+99999100161ADDAA199001091GF104991041031004501999999MD1310161+9999
0064023610999991929090618004+62617+017950FM-12+000999999V0203601N01231220001CN0500001N9+01001+99999100071ADDGF104991041061002501999999EQDQ01+000032APCTENQ02+000002APC3  
0043023610999991929090706004+62617+017950FM-12+000999999V0203201N00931220001CN0500001N9+00781+99999101581ADDGF104991041051008001999999MD1310161+9999
0043023610999991929090718004+62617+017950FM-12+000999999V0203401N00461220001CN0500001N9+01111+99999101191ADDGF101991011011008001999999MD1310161+9999
0043023610999991929090806004+62617+017950FM-12+000999999V0203601N00461220001CN0500001N9+00721+99999101361ADDGF102991001001999999999999MD1310041+9999
0043023610999991929090818004+62617+017950FM-12+000999999V0209991C00001220001CN0500001N9+00721+99999100871ADDGF104991041011002501999999MD1810161+9999
0054023610999991929090906004+62617+017950FM-12+000999999V0201101N00261002401CN0200001N9+00611+99999100141ADDAA199005091GF108991081061002501999999MD1810161+9999
0075023610999991929090918004+62617+017950FM-12+000999999V0200901N00101002401CN0040001N9+00501+99999100021ADDAA199010091GF108991081061002501999999EQDQ01+000032APCTENQ02+000002APC3  
0054023610999991929091006004+62617+017950FM-12+000999999V0200501N00101220001CN0500001N9+00721+99999100541ADDAA199004091GF101991011061002501999999MD1310201+9999
0054023610999991929091018004+62617+017950FM-12+000999999V0202701N00101002401CN0040001N9+00781+99999101231ADDAA199000391GF108991081031002501999999MD1310161+9999
0054023610999991929091106004+62617+017950FM-12+000999999V0203201N00101220001CN0500001N9+01001+99999101701ADDAA199002091GF102991001001999999999999MD1310161+9999
0043023610999991929091206004+62617+017950FM-12+000999999V0209991C00001220001CN0500001N9+00891+99999102271ADDGF104991001001999999999999MD1310041+9999
0043023610999991929091306004+62617+017950FM-12+000999999V0201801N00671220001CN0500001N9+01221+99999101541ADDGF104991001001999999999999MD1810041+9999
0054023610999991929091318004+62617+017950FM-12+000999999V0203601N00101002401CN0040001N9+01221+99999101641ADDAA199001091GF108991081061002501999999MD1310041+9999
0075023610999991929091406004+62617+017950FM-12+000999999V0203601N00101220001CN0500001N9+01111+99999101721ADDAA199000591GF102991001001999999999999EQDQ01+000032APCTENQ02+000002APC3  
0043023610999991929091418004+62617+017950FM-12+000999999V0202301N00101000151CN0000501N9+01111+99999101581ADDGF108991081051000251999999MD1810041+9999
0043023610999991929091506004+62617+017950FM-12+000999999V0209991C00001000151CN0000501N9+01111+99999101861ADDGF108991081051000251999999MD1310041+9999
0043023610999991929091518004+62617+017950FM-12+000999999V0209991C00001000151CN0002001N9+01221+99999101751ADDGF108991081051000251999999MD1810041+9999
0043023610999991929091618004+62617+017950FM-12+000999999V0202501N00261220001CN0200001N9+01391+99999102191ADDGF102991021051999999999999MD1310041+9999
0054023610999991929091706004+62617+017950FM-12+000999999V0209991C00001004501CN0100001N9+00781+99999102521ADDAA199000691GF108991081061004501999999MD1310041+9999
0043023610999991929091718004+62617+017950FM-12+000999999V0209991C000019999999N9999999N9+00891+99999102141ADDGF199999999001999999999999MD1810041+9999
0043023610999991929091806004+62617+017950FM-12+000999999V0202301N00461002401CN0000501N9+01001+99999101521ADDGF108991081061002501999999MD1810041+9999
0054023610999991929091918004+62617+017950FM-12+000999999V0201401N01231002401CN0100001N9+01111+99999099921ADDAA199000691GF108991081061002501999999MD1810161+9999
0054023610999991929092006004+62617+017950FM-12+000999999V0201801N00671002401CN0200001N9+01001+99999099261ADDAA199008091GF108991081061002501999999MD1810041+9999
0035023610999991929092018004+62617+017950FM-12+000999999V0201601N004619999999N9999999N9+01111+99999098921EQDQ01+000032APCTENQ02+000002APC3  
0054023610999991929092106004+62617+017950FM-12+000999999V0203601N002619999999N0040001N9+01001+99999098361ADDAA199017091GF108991081061999999999999MD1810201+9999
0054023610999991929092206004+62617+017950FM-12+000999999V0202701N00101220001CN0500001N9+00611+99999099461ADDAA199000691GF104991041031002501999999MD1310401+9999
0043023610999991929092318004+62617+017950FM-12+000999999V0209991C00001220001CN0000001N9+00391+99999102241ADDGF100991001001999999999999MD1310041+9999
0043023610999991929092406004+62617+017950FM-12+000999999V0202301N00931220001CN0500001N9+00781+99999102621ADDGF104991001001999999999999MD1310041+9999
0043023610999991929092418004+62617+017950FM-12+000999999V0209991C00001220001CN0500001N9+00721+99999102661ADDGF104991001001999999999999MD1310041+9999
0064023610999991929092506004+62617+017950FM-12+000999999V0209991C00001220001CN0500001N9+00781+99999102871ADDGF102991021011004501999999EQDQ01+000032APCTENQ02+000002APC3  
0043023610999991929092518004+62617+017950FM-12+000999999V0209991C00001220001CN0500001N9+00781+99999102621ADDGF104991041011004501999999MD1810041+9999
0043023610999991929092618004+62617+017950FM-12+000999999V0202301N00461002401CN0500001N9+01111+99999102481ADDGF106991061031002501999999MD1810041+9999
0043023610999991929092706004+62617+017950FM-12+000999999V0201801N00461000151CN0002001N9+00891+99999101621ADDGF108991081001000251999999MD1810241+9999
0043023610999991929092718004+62617+017950FM-12+000999999V0201801N00671002401CN0200001N9+01111+99999100761ADDGF108991081031002501999999MD1810241+9999
0043023610999991929092806004+62617+017950FM-12+000999999V0202701N00101220001CN0500001N9+00611+99999102001ADDGF104991021011004501999999MD1310041+9999
0043023610999991929092906004+62617+017950FM-12+000999999V0202001N00461002401CN0020001N9+01001+99999100421ADDGF108991081061002501999999MD1310041+9999
0043023610999991929100106004+62617+017950FM-12+000999999V0201601N00671002401CN0500001N9+00781+99999100231ADDGF108991081061002501999999MD1810241+9999
0054023610999991929100118004+62617+017950FM-12+000999999V0209991C00001002401CN0100001N9+00891+99999099911ADDAA199004091GF108991081061002501999999MD1810201+9999
0054023610999991929100206004+62617+017950FM-12+000999999V0202701N00461220001CN0500001N9+00611+99999099751ADDAA199006091GF101991011011008001999999MD1310161+9999
0043023610999991929100218004+62617+017950FM-12+000999999V0202301N00101002401CN0200001N9+00611+99999099461ADDGF108991081061002501999999MD1810201+9999
0054023610999991929100406004+62617+017950FM-12+000999999V0203201N00101002401CN0040001N9+00611+99999099001ADDAA199010091GF108991081061002501999999MD1310201+9999
0049023610999991929100506004+62617+017950FM-12+000999999V0209991C00001001501CN0010001N9+00221+99999100721ADDGF108991081061001501999999MD1310161+9999MW1101
0054023610999991929100606004+62617+017950FM-12+000999999V0209991C00001001501CN0005001N9+00221+99999101421ADDAA199003091GF108991081061001501999999MD1310161+9999
0043023610999991929100618004+62617+017950FM-12+000999999V0209991C00001002401CN0200001N9+00501+99999101901ADDGF108991081061002501999999MD1310041+9999
0043023610999991929100718004+62617+017950FM-12+000999999V0201801N01541220001CN0100001N9+00891+99999099921ADDGF102991021011004501999999MD1810041+9999
0051023610999991929100906004+62617+017950FM-12+000999999V0201401N00261220001CN0100001N9+00721+99999100341ADDAY141999GF104991041051999999999999MD1810161+9999
0054023610999991929100918004+62617+017950FM-12+000999999V0209991C00001002401CN0005001N9+00781+99999099861ADDAA199007091GF108991081061002501999999MD1310041+9999
0054023610999991929101006004+62617+017950FM-12+000999999V0202901N00261220001CN0500001N9+00781+99999100031ADDAA199002091GF104991041061002501999999MD1310161+9999
0064023610999991929101018004+62617+017950FM-12+000999999V0209991C00001220001CN0500001N9+00281+99999100021ADDGF101991011011004501999999EQDQ01+000032APCTENQ02+000002APC3  
0043023610999991929101106004+62617+017950FM-12+000999999V0201801N00671002401CN0200001N9+00721+99999098781ADDGF108991081061002501999999MD1810401+9999
0075023610999991929101118004+62617+017950FM-12+000999999V0209991C00001220001CN0500001N9+00501+99999098041ADDAA199008091GF102991021011004501999999EQDQ01+000032APCTENQ02+000002APC3  
0029023610999991929101206004+62617+017950FM-12+000999999V0202901N01231002401CN0500001N9+00111+99999098821ADDGF108991081061002501999999
0043023610999991929101318004+62617+017950FM-12+000999999V0209991C00001220001CN0500001N9+00281+99999101101ADDGF102991021011008001999999MD1310401+9999
0054023610999991929101406004+62617+017950FM-12+000999999V0202001N00261002401CN0200001N9+00391+99999100991ADDAA199000691GF108991081061002501999999MD1810161+9999
0054023610999991929101418004+62617+017950FM-12+000999999V0209991C00001002401CN0500001N9+00501+99999099841ADDAA199003091GF108991081061002501999999MD1810241+9999
0054023610999991929101506004+62617+017950FM-12+000999999V0202901N00671220001CN0500001N9+00501+99999100961ADDAA199001091GF101991011011004501999999MD1310041+9999
0043023610999991929101518004+62617+017950FM-12+000999999V0202901N01231220001CN0500001N9+00611+99999100721ADDGF102991021011004501999999MD1310441+9999
0064023610999991929101618004+62617+017950FM-12+000999999V0209991C00001220001CN0500001N9-00111+99999101701ADDGF102991001001999999999999EQDQ01+000032APCTENQ02+000002APC3  
0043023610999991929101718004+62617+017950FM-12+000999999V0209991C00001220001CN0500001N9-00281+99999101201ADDGF101991011011004501999999MD1310041+9999
0075023610999991929101806004+62617+017950FM-12+000999999V0200901N00101002401CN0500001N9+00281+99999101181ADDAA199000391GF106991061061002501999999EQDQ01+000032APCTENQ02+000002APC3  
0075023610999991929101818004+62617+017950FM-12+000999999V0200901N00101004501CN0500001N9+00281+99999101441ADDAA199000391GF106991061061004501999999EQDQ01+000032APCTENQ02+000002APC3  
0064023610999991929101906004+62617+017950FM-12+000999999V0201101N00101220001CN0500001N9+00281+99999101541ADDGF104991041061002501999999EQDQ01+000032APCTENQ02+000002APC3  
0043023610999991929101918004+62617+017950FM-12+000999999V0201401N00461004501CN0500001N9+00281+99999101301ADDGF106991061061004501999999MD1810041+9999
0054023610999991929102018004+62617+017950FM-12+000999999V0200501N00261002401CN0020001N9+00221+99999100421ADDAA199009091GF108991081061002501999999MD1810041+9999
0075023610999991929102106004+62617+017950FM-12+000999999V0203201N00261220001CN0200001N9+00221+99999100501ADDAA199000591GF104991041051999999999999EQDQ01+000032APCTENQ02+000002APC3  
0043023610999991929102118004+62617+017950FM-12+000999999V0209991C00001220001CN0500001N9+00111+99999100111ADDGF102991021011004501999999MD1810041+9999
0043023610999991929102206004+62617+017950FM-12+000999999V0209991C00001220001CN0500001N9+00281+99999099351ADDGF104991041011002501999999MD1810041+9999
0043023610999991929102306004+62617+017950FM-12+000999999V0202001N00261220001CN0500001N9+00391+99999099071ADDGF104991041061004501999999MD1310041+9999
0064023610999991929102318004+62617+017950FM-12+000999999V0201801N00671002401CN0500001N9+00721+99999099021ADDGF108991081061002501999999EQDQ01+000032APCTENQ02+000002APC3  
0064023610999991929102418004+62617+017950FM-12+000999999V0201801N01901002401CN0500001N9+00781+99999098861ADDGF106991061061002501999999EQDQ01+000032APCTENQ02+000002APC3  
0043023610999991929102506004+62617+017950FM-12+000999999V0201801N01231002401CN0500001N9+00781+99999099261ADDGF106991061061002501999999MD1310041+9999
0043023610999991929102518004+62617+017950FM-12+000999999V0201801N00931002401CN0020001N9+00781+99999099551ADDGF108991081061002501999999MD1310161+9999
0043023610999991929102606004+62617+017950FM-12+000999999V0209991C00001002401CN0100001N9+00611+99999100401ADDGF108991081061002501999999MD1310161+9999
0054023610999991929102618004+62617+017950FM-12+000999999V0201801N00101002401CN0020001N9+00721+99999100561ADDAA199000391GF108991081061002501999999MD1810041+9999
0054023610999991929102706004+62617+017950FM-12+000999999V0201401N00261002401CN0010001N9+00501+99999100101ADDAA199006091GF108991081061002501999999MD1810041+9999
0054023610999991929102718004+62617+017950FM-12+000999999V0201401N00261002401CN0020001N9+00721+99999099781ADDAA199015091GF108991081061002501999999MD1810041+9999
0054023610999991929102806004+62617+017950FM-12+000999999V0202301N00261002401CN0500001N9+00721+99999099971ADDAA199010091GF108991081061002501999999MD1310201+9999
0054023610999991929102906004+62617+017950FM-12+000999999V0202701N00261220001CN0500001N9+00281+99999099541ADDAA199002091GF102991021011004501999999MD1310041+9999
0043023610999991929102918004+62617+017950FM-12+000999999V0209991C00001220001CN0500001N9+00391+99999099551ADDGF104991041011004501999999MD1310041+9999
0043023610999991929103006004+62617+017950FM-12+000999999V0209991C00001220001CN0500001N9+00391+99999100061ADDGF102991021011004501999999MD1310041+9999
0043023610999991929103018004+62617+017950FM-12+000999999V0209991C00001220001CN0500001N9+00501+99999100511ADDGF104991041011004501999999MD1310041+9999
0043023610999991929103106004+62617+017950FM-12+000999999V0203601N00101220001CN0500001N9+00221+99999102261ADDGF102991021011004501999999MD1310201+9999
0043023610999991929103118004+62617+017950FM-12+000999999V0202701N00101220001CN0500001N9-00221+99999103101ADDGF100991001001999999999999MD1310101+9999
0064023610999991929110106004+62617+017950FM-12+000999999V0203201N00101220001CN0500001N9-00611+99999103191ADDGF102991001001999999999999EQDQ01+000032APCTENQ02+000002APC3  
0043023610999991929110118004+62617+017950FM-12+000999999V0201801N00101220001CN0500001N9+00111+99999102681ADDGF102991021011004501999999MD1810041+9999
0043023610999991929110206004+62617+017950FM-12+000999999V0209991C00001220001CN0500001N9+00111+99999102541ADDGF104991041011002501999999MD1810041+9999
0043023610999991929110306004+62617+017950FM-12+000999999V0201801N00461220001CN0500001N9+00391+99999101221ADDGF104991041061002501999999MD1810041+9999
0043023610999991929110418004+62617+017950FM-12+000999999V0203201N00101220001CN0500001N9+00001+99999100791ADDGF100991001001999999999999MD1310041+9999
0043023610999991929110506004+62617+017950FM-12+000999999V0209991C00001220001CN0500001N9-00281+99999100711ADDGF102991001001999999999999MD1310041+9999
0064023610999991929110518004+62617+017950FM-12+000999999V0209991C00001220001CN0500001N9-00221+99999100841ADDGF100991001001999999999999EQDQ01+000032APCTENQ02+000002APC3  
0054023610999991929110606004+62617+017950FM-12+000999999V0201801N00461000151CN0000501N9+00501+99999100511ADDAA199001091GF108991081051000251999999MD1810041+9999
0043023610999991929110618004+62617+017950FM-12+000999999V0202701N00101220001CN0100001N9+00721+99999100521ADDGF104991041061004501999999MD1310041+9999
0043023610999991929110706004+62617+017950FM-12+000999999V0202001N00261220001CN0020001N9+00281+99999100541ADDGF104991021061004501999999MD1810041+9999
0043023610999991929110718004+62617+017950FM-12+000999999V0201801N00671002401CN0200001N9+00391+99999100301ADDGF108991081061002501999999MD1810041+9999
0043023610999991929110806004+62617+017950FM-12+000999999V0209991C00001220001CN0500001N9+00281+99999100071ADDGF102991021011004501999999MD1810041+9999
0054023610999991929110818004+62617+017950FM-12+000999999V0201801N00931002401CN0200001N9+00501+99999099681ADDAA199000691GF108991081061002501999999MD1310041+9999
0054023610999991929110906004+62617+017950FM-12+000999999V0201801N00461002401CN0100001N9+00501+99999099341ADDAA199003091GF108991081061002501999999MD1310241+9999
0054023610999991929110918004+62617+017950FM-12+000999999V0202701N00261220001CN0500001N9+00391+99999099681ADDAA199001091GF100991001001999999999999MD1810301+9999
0043023610999991929111006004+62617+017950FM-12+000999999V0202301N00101220001CN0500001N9+00221+99999100301ADDGF102991021011008001999999MD1310161+9999
0054023610999991929111018004+62617+017950FM-12+000999999V0201801N01231002401CN0100001N9+00501+99999100221ADDAA199001091GF108991081061002501999999MD1810161+9999
0054023610999991929111118004+62617+017950FM-12+000999999V0201801N00101220001CN0500001N9+00221+99999099761ADDAA199010091GF102991001001999999999999MD1310041+9999
0073023610999991929111206004+62617+017950FM-12+000999999V0201601N02261002401CN0200001N9+00611+99999098881ADDAA199000391GF108991081061002501999999MD1810562+9999EQDQ01+000562APC3  
0054023610999991929111218004+62617+017950FM-12+000999999V0201801N02261002401CN0100001N9+00501+99999098181ADDAA199005091GF108991081061002501999999MD1810041+9999
0043023610999991929111306004+62617+017950FM-12+000999999V0201801N00261220001CN0500001N9+00281+99999099341ADDGF104991021061004501999999MD1310161+9999
0043023610999991929111318004+62617+017950FM-12+000999999V0201601N00461002401CN0500001N9+00391+99999099861ADDGF108991081061002501999999MD1310161+9999
0043023610999991929111418004+62617+017950FM-12+000999999V0209991C00001220001CN0500001N9+00221+99999100901ADDGF102991021011004501999999MD1310041+9999
0054023610999991929111506004+62617+017950FM-12+000999999V0200501N00261002401CN0100001N9+00391+99999100791ADDAA199000391GF108991081061002501999999MD1810041+9999
0054023610999991929111518004+62617+017950FM-12+000999999V0201401N00461002401CN0040001N9+00501+99999100511ADDAA199017091GF108991081061002501999999MD1810041+9999
0054023610999991929111606004+62617+017950FM-12+000999999V0201401N00461002401CN0100001N9+00391+99999100271ADDAA199016091GF108991081061002501999999MD1810041+9999
0075023610999991929111618004+62617+017950FM-12+000999999V0201401N00261002401CN0100001N9+00391+99999100191ADDAA199009091GF108991081061002501999999EQDQ01+000032APCTENQ02+000002APC3  
0054023610999991929111706004+62617+017950FM-12+000999999V0202301N00101002401CN0100001N9+00221+99999100261ADDAA199001091GF108991081061002501999999MD1310041+9999
0043023610999991929111718004+62617+017950FM-12+000999999V0202301N00101220001CN0500001N9+00221+99999100671ADDGF104991041011002501999999MD1310041+9999
0043023610999991929111806004+62617+017950FM-12+000999999V0209991C00001220001CN0500001N9-00391+99999101061ADDGF101991011011004501999999MD1310041+9999
0043023610999991929111818004+62617+017950FM-12+000999999V0202701N00101220001CN0500001N9-00391+99999101201ADDGF102991021011008001999999MD1310041+9999
0043023610999991929111906004+62617+017950FM-12+000999999V0203201N00261002401CN0500001N9-00281+99999101631ADDGF108991081061002501999999MD1310041+9999
0043023610999991929111918004+62617+017950FM-12+000999999V0209991C00001220001CN0500001N9-00111+99999101941ADDGF104991041011004501999999MD1310041+9999
0043023610999991929112006004+62617+017950FM-12+000999999V0209991C00001220001CN0500001N9-00781+99999102311ADDGF102991021011004501999999MD1310041+9999
0043023610999991929112018004+62617+017950FM-12+000999999V0209991C00001220001CN0500001N9-00501+99999102561ADDGF104991041061002501999999MD1310041+9999
0064023610999991929112118004+62617+017950FM-12+000999999V0202301N00101002401CN0100001N9+00221+99999101941ADDGF108991081061002501999999EQDQ01+000032APCTENQ02+000002APC3  
0043023610999991929112206004+62617+017950FM-12+000999999V0202301N00101004501CN0200001N9+00111+99999101601ADDGF106991061061004501999999MD1810041+9999
0043023610999991929112218004+62617+017950FM-12+000999999V0209991C00001002401CN0200001N9+00001+99999101661ADDGF108991081061002501999999MD1310041+9999
0075023610999991929112306004+62617+017950FM-12+000999999V0209991C00001002401CN0020001N9+00221+99999101981ADDAA199001091GF108991081061002501999999EQDQ01+000032APCTENQ02+000002APC3  
0075023610999991929112318004+62617+017950FM-12+000999999V0209991C00001002401CN0200001N9+00221+99999101741ADDAA199003091GF108991081061002501999999EQDQ01+000032APCTENQ02+000002APC3  
0064023610999991929112418004+62617+017950FM-12+000999999V0203601N00261002401CN0005001N9+00281+99999101501ADDGF108991081061002501999999EQDQ01+000032APCTENQ02+000002APC3  
0064023610999991929112506004+62617+017950FM-12+000999999V0209991C00001004501CN0500001N9+00111+99999101421ADDGF106991061061004501999999EQDQ01+000032APCTENQ02+000002APC3  
0054023610999991929112518004+62617+017950FM-12+000999999V0209991C00001002401CN0200001N9+00221+99999101121ADDAA199003091GF108991081061002501999999MD1810041+9999
0054023610999991929112618004+62617+017950FM-12+000999999V0201801N00461002401CN0100001N9+00391+99999100441ADDAA199005091GF108991081061002501999999MD1310041+9999
0049023610999991929112706004+62617+017950FM-12+000999999V0209991C00001002401CN0010001N9+00221+99999100911ADDGF106991061061002501999999MD1310201+9999MW1101
0043023610999991929112718004+62617+017950FM-12+000999999V0209991C00001000151CN0000501N9+00281+99999101181ADDGF108991081051000251999999MD1310041+9999
0064023610999991929112806004+62617+017950FM-12+000999999V0209991C00001000151CN0000501N9+00221+99999101311ADDGF108991081051000251999999EQDQ01+000032APCTENQ02+000002APC3  
0064023610999991929112818004+62617+017950FM-12+000999999V0209991C00001000151CN0000501N9+00221+99999101281ADDGF108991081051000251999999EQDQ01+000032APCTENQ02+000002APC3  
0064023610999991929112918004+62617+017950FM-12+000999999V0209991C00001000151CN0002001N9+00221+99999100991ADDGF108991081051000251999999EQDQ01+000032APCTENQ02+000002APC3  
0054023610999991929113018004+62617+017950FM-12+000999999V0209991C00001002401CN0500001N9+00221+99999100671ADDAA199001091GF108991081061002501999999MD1310041+9999
0054023610999991929120106004+62617+017950FM-12+000999999V0200501N00261002401CN0500001N9+00221+99999100751ADDAA199001091GF106991061061002501999999MD1310041+9999
0043023610999991929120118004+62617+017950FM-12+000999999V0209991C00001002401CN0500001N9+00221+99999100671ADDGF108991081061002501999999MD1810041+9999
0054023610999991929120218004+62617+017950FM-12+000999999V0201401N00461002401CN0100001N9+00391+99999101591ADDAA199009091GF108991081061002501999999MD1810041+9999
0054023610999991929120306004+62617+017950FM-12+000999999V0201601N00261000151CN0000501N9+00501+99999100201ADDAA199001091GF108991081051000251999999MD1310041+9999
0054023610999991929120318004+62617+017950FM-12+000999999V0201801N00101000151CN0000501N9+00221+99999100501ADDAA199001091GF108991081051000251999999MD1310161+9999
0043023610999991929120406004+62617+017950FM-12+000999999V0202301N00101004501CN0500001N9+00391+99999100781ADDGF106991061061004501999999MD1310041+9999
0054023610999991929120418004+62617+017950FM-12+000999999V0209991C00001002401CN0500001N9+00281+99999101421ADDAA199003091GF108991081061002501999999MD1310041+9999
0054023610999991929120518004+62617+017950FM-12+000999999V0201801N00261002401CN0100001N9+00391+99999100631ADDAA199001091GF108991081061002501999999MD1810041+9999
0054023610999991929120618004+62617+017950FM-12+000999999V0201401N00931002401CN0040001N9+00501+99999099711ADDAA199005091GF108991081061002501999999MD1810041+9999
0054023610999991929120706004+62617+017950FM-12+000999999V0201401N00101001501CN0002001N9+00501+99999099471ADDAA199001091GF108991081061001501999999MD1810041+9999
0054023610999991929120718004+62617+017950FM-12+000999999V0201801N00461002401CN0200001N9+00501+99999099341ADDAA199000691GF108991081061002501999999MD1810041+9999
0054023610999991929120806004+62617+017950FM-12+000999999V0201801N01231002401CN0100001N9+00501+99999098401ADDAA199008091GF108991081061002501999999MD1810241+9999
0054023610999991929120818004+62617+017950FM-12+000999999V0201801N00931002401CN0200001N9+00501+99999098781ADDAA199001091GF108991081061002501999999MD1310201+9999
0054023610999991929120906004+62617+017950FM-12+000999999V0201801N00461002401CN0200001N9+00501+99999098951ADDAA199000391GF108991081061002501999999MD1810041+9999
0054023610999991929120918004+62617+017950FM-12+000999999V0201801N00931002401CN0500001N9+00501+99999098641ADDAA199002091GF108991081061002501999999MD1810041+9999
0043023610999991929121006004+62617+017950FM-12+000999999V0201801N00671002401CN0500001N9+00391+99999098681ADDGF106991061061002501999999MD1310041+9999
0054023610999991929121018004+62617+017950FM-12+000999999V0201401N00461002401CN0040001N9+00391+99999097721ADDAA199010091GF108991081061002501999999MD1810101+9999
0054023610999991929121106004+62617+017950FM-12+000999999V0202301N00101220001CN0500001N9+00111+99999098901ADDAA199003091GF102991021011004501999999MD1310301+9999
0043023610999991929121118004+62617+017950FM-12+000999999V0209991C00001002401CN0500001N9+00001+99999099461ADDGF108991081061002501999999MD1310041+9999
0075023610999991929121206004+62617+017950FM-12+000999999V0209991C00001004501CN0500001N9+00001+99999099621ADDAA199000691GF106991061011004501999999EQDQ01+000032APCTENQ02+000002APC3  
0054023610999991929121218004+62617+017950FM-12+000999999V0201401N00261002401CN0200001N9+00281+99999099261ADDAA199004091GF108991081061002501999999MD1310041+9999
0054023610999991929121306004+62617+017950FM-12+000999999V0200501N001019999999N0100001N9+00221+99999100061ADDAA199004091GF108991081061999999999999MD1310041+9999
0054023610999991929121318004+62617+017950FM-12+000999999V0209991C00001220001CN0500001N9-00221+99999100761ADDAA199000691GF102991021011004501999999MD1310161+9999
0075023610999991929121418004+62617+017950FM-12+000999999V0209991C00001220001CN0500001N9+00111+99999100921ADDAA199007091GF102991021011004501999999EQDQ01+000032APCTENQ02+000002APC3  
0043023610999991929121518004+62617+017950FM-12+000999999V0203201N00671220001CN0500001N9+00281+99999098821ADDGF104991041011004501999999MD1310041+9999
0043023610999991929121618004+62617+017950FM-12+000999999V0203201N00461220001CN0500001N9+00111+99999999999ADDGF104991041011004501999999MD1310041+9999
0043023610999991929121718004+62617+017950FM-12+000999999V0209991C00001220001CN0500001N9-00391+99999102621ADDGF100991001001999999999999MD1310161+9999
0043023610999991929121806004+62617+017950FM-12+000999999V0201801N00101220001CN0500001N9+00281+99999102261ADDGF102991021011004501999999MD1810041+9999
0064023610999991929121818004+62617+017950FM-12+000999999V0209991C00001004501CN0500001N9+00111+99999101881ADDGF106991061061004501999999EQDQ01+000032APCTENQ02+000002APC3  
0043023610999991929121906004+62617+017950FM-12+000999999V0209991C00001220001CN0500001N9+00221+99999102101ADDGF104991041011004501999999MD1310041+9999
0064023610999991929121918004+62617+017950FM-12+000999999V0209991C00001220001CN0500001N9-00281+99999101931ADDGF101991011011004501999999EQDQ01+000032APCTENQ02+000002APC3  
0064023610999991929122006004+62617+017950FM-12+000999999V0209991C00001220001CN0500001N9-00111+99999101681ADDGF102991021011004501999999EQDQ01+000032APCTENQ02+000002APC3  
0043023610999991929122018004+62617+017950FM-12+000999999V0209991C00001220001CN0500001N9+00111+99999101861ADDGF101991011011004501999999MD1310041+9999
0017023610999991929122106004+62617+017950FM-12+000999999V0202501N001019999999N9999999N9-00391+99999101921ADDMD1310161+9999
0043023610999991929122118004+62617+017950FM-12+000999999V0201801N00261002401CN0500001N9+00001+99999102741ADDGF106991061061002501999999MD1310041+9999
0043023610999991929122206004+62617+017950FM-12+000999999V0201801N00261002401CN0200001N9+00221+99999102991ADDGF108991081061002501999999MD1310041+9999
0054023610999991929122218004+62617+017950FM-12+000999999V0209991C00001002401CN0100001N9+00281+99999103141ADDAA199001091GF108991081061002501999999MD1310041+9999
0075023610999991929122318004+62617+017950FM-12+000999999V0201801N00101002401CN0500001N9+00111+99999103181ADDAA199002091GF108991081061002501999999EQDQ01+000032APCTENQ02+000002APC3  
0054023610999991929122418004+62617+017950FM-12+000999999V0201401N00101002401CN0100001N9+00001+99999102801ADDAA199004091GF108991081061002501999999MD1810041+9999
0054023610999991929122506004+62617+017950FM-12+000999999V0200901N00461002401CN0500001N9-00221+99999102111ADDAA199002091GF108991081061002501999999MD1810041+9999
0054023610999991929122518004+62617+017950FM-12+000999999V0201401N01231002401CN0005001N9-00111+99999101001ADDAA199004091GF108991081061002501999999MD1810401+9999
0054023610999991929122606004+62617+017950FM-12+000999999V0201401N00461002401CN0200001N9+00281+99999099961ADDAA199007091GF108991081061002501999999MD1310041+9999
0054023610999991929122618004+62617+017950FM-12+000999999V0201601N01231220001CN0500001N9+00391+99999099671ADDAA199000391GF104991041061002501999999MD1810041+9999
0043023610999991929122706004+62617+017950FM-12+000999999V0202701N00261220001CN0500001N9+00111+99999099761ADDGF104991041061002501999999MD1310401+9999
0043023610999991929122718004+62617+017950FM-12+000999999V0202701N00101220001CN0500001N9-00281+99999100821ADDGF100991001001999999999999MD1310041+9999
0043023610999991929122806004+62617+017950FM-12+000999999V0201801N00101004501CN0500001N9+00111+99999100581ADDGF106991061061004501999999MD1810041+9999
0064023610999991929122818004+62617+017950FM-12+000999999V0200501N00671002401CN0500001N9+00221+99999100661ADDGF106991061061002501999999EQDQ01+000032APCTENQ02+000002APC3  
0054023610999991929122918004+62617+017950FM-12+000999999V0201801N01231002401CN0040001N9+00281+99999099721ADDAA199002091GF108991081061002501999999MD1810041+9999
0054023610999991929123018004+62617+017950FM-12+000999999V0201801N00461002401CN0200001N9+00391+99999098391ADDAA199004091GF108991081061002501999999MD1810041+9999
0043023610999991929123106004+62617+017950FM-12+000999999V0202301N00261004501CN0200001N9+00221+99999098581ADDGF106991061061004501999999MD1310161+9999
0043023610999991929123118004+62617+017950FM-12+000999999V0209991C00001002401CN0500001N9+00221+99999099141ADDGF108991081061002501999999MD1310041+9999
