0068014270999991930010106004+58100+006567FM-12+000999999V0202701N00671007801CN0200001N9+00221+99999100551ADDAA199004091AY181999GF107991071091008001001001MD1310061+9999MW1901
0068014270999991930010206004+58100+006567FM-12+000999999V0200901N006719999999N0040001N9+00281+99999097911ADDAA199014091AY161999GF108991999999999999001001MD1610201+9999MW1631
0068014270999991930010306004+58100+006567FM-12+000999999V0202001N012319999999N0040001N9+00611+99999099731ADDAA199004091AY161999GF108991999999999999001001MD1810401+9999MW1511
0062014270999991930010406004+58100+006567FM-12+000999999V0202501N012319999999N0200001N9+00611+99999099631ADDAA199001091AY111999GF107991999999999999001001MD1310141+9999
0068014270999991930010506004+58100+006567FM-12+000999999V0201101N012319999999N0040001N9+00611+99999099531ADDAA199008091AY161999GF108991999999999999001001MD1810261+9999MW1631
0089014270999991930010606004+58100+006567FM-12+000999999V0202001N01541002401CN0100001N9+00501+99999099271ADDAA199000591AY111999GF108991081061002501999999MW1601EQDQ01+000032APCTENQ02+000002APC3  
0068014270999991930010706004+58100+006567FM-12+000999999V0202301N006719999999N0040001N9+00721+99999100631ADDAA199010091AY161999GF108991999999999999001001MD1410001+9999MW1631
0068014270999991930010806004+58100+006567FM-12+000999999V0202001N01541002401CN0040001N9+00721+99999100201ADDAA199000591AY121999GF108991081061002501999999MD1810201+9999MW1611
0062014270999991930010906004+58100+006567FM-12+000999999V0202301N01231004501CN0200001N9+00501+99999100231ADDAA199000591AY181999GF108991081061004501999999MD1610061+9999
0068014270999991930011006004+58100+006567FM-12+000999999V0202301N02261002401CN0100001N9+00501+99999099321ADDAA199007091AY161999GF108991081061002501999999MD1510141+9999MW1211
0068014270999991930011106004+58100+006567FM-12+000999999V0201801N022619999999N0040001N9+00501+99999098231ADDAA199008091AY161999GF108991999999999999001001MD1810461+9999MW1631
0068014270999991930011206004+58100+006567FM-12+000999999V0209991C00001002401CN0040001N9+00111+99999098351ADDAA199003091AY171999GF108991081061002501999999MD1310201+9999MW1681
0068014270999991930011306004+58100+006567FM-12+000999999V0200901N002619999999N0040001N9+00111+99999098691ADDAA199003091AY171999GF108991999999999999001001MD1310401+9999MW1681
0083014270999991930011406004+58100+006567FM-12+000999999V0200901N00461002401CN0040001N9+00391+99999100161ADDAA199000591AY161999GF108991081061002501999999EQDQ01+000072APCTENQ02+000002APC3  
0068014270999991930011506004+58100+006567FM-12+000999999V0201801N009319999999N0020001N9+00721+99999099701ADDAA199013091AY161999GF108991999999999999001001MD1810341+9999MW1631
0057014270999991930011606004+58100+006567FM-12+000999999V0202701N00931220001CN0100001N9+00611+99999101861ADDAY101999GF104991041091008001001001MD1310341+9999MW1161
0072014270999991930011706004+58100+006567FM-12+000999999V0200901N00671004501CN0200001N9+00221+99999103241ADDAY121999GF108991081061004501999999EQDQ01+000032APCTENQ02+000002APC3  
0068014270999991930011806004+58100+006567FM-12+000999999V0201601N006719999999N0020001N9+00611+99999101831ADDAA199008091AY161999GF108991999999999999001001MD1710141+9999MW1211
0068014270999991930011906004+58100+006567FM-12+000999999V0201601N00671000151CN0020001N9+00611+99999101311ADDAA199000591AY141999GF108991081051000251999999MD1810341+9999MW1431
0083014270999991930012006004+58100+006567FM-12+000999999V0202301N006719999999N0040001N9+00611+99999100611ADDAA199000691AY161999GF108991999999999999001001EQDQ01+000082APCTENQ02+000002APC3  
0068014270999991930012106004+58100+006567FM-12+000999999V0202901N00671220001CN0200001N9+00391+99999101511ADDAA199001091AY181999GF104991041091008001001001MD1610261+9999MW1161
0083014270999991930012206004+58100+006567FM-12+000999999V0201601N006719999999N0100001N9+00501+99999102041ADDAA199000691AY111999GF107991999999999999999081EQDQ01+000042APCTENQ02+000062APC3  
0062014270999991930012306004+58100+006567FM-12+000999999V0201401N006719999999N0010001N9+00501+99999101311ADDAA199004091AY141999GF108991999999999999001001MD1810201+9999
0062014270999991930012406004+58100+006567FM-12+000999999V0200901N004619999999N0100001N9+00391+99999101031ADDAA199002091AY121999GF108991999999999999999999MD1810061+9999
0068014270999991930012506004+58100+006567FM-12+000999999V0201101N009319999999N0020001N9+00281+99999100571ADDAA199002091AY161999GF108991999999999999001001MD1810141+9999MW1451
0068014270999991930012606004+58100+006567FM-12+000999999V0200901N009319999999N0040001N9+00001+99999099981ADDAA199005091AY161999GF108991999999999999001001MD1710061+9999MW1681
0072014270999991930012706004+58100+006567FM-12+000999999V0200501N00261220001CN0200001N9-00221+99999101111ADDAY101999GF104991999999999999021001EQDQ01+000022APCTENQ02+000002APC3  
0068014270999991930012806004+58100+006567FM-12+000999999V0200901N006719999999N0040001N9+00001+99999100561ADDAA199000391AY171999GF108991999999999999001001MD1710201+9999MW1681
0051014270999991930012906004+58100+006567FM-12+000999999V0200901N00101220001CN0200001N9-00111+99999100801ADDAY111999GF104991999999999999999021MD1310061+9999
0051014270999991930013006004+58100+006567FM-12+000999999V0200701N00931007801CN0200001N9+00001+99999100781ADDAY121999GF108991081061008001999999MD1810061+9999
0068014270999991930013106004+58100+006567FM-12+000999999V0200901N006719999999N0100001N9+00001+99999100751ADDAA199001091AY171999GF108991999999999999001001MD1810061+9999MW1711
0068014270999991930020106004+58100+006567FM-12+000999999V0200701N01231004501CN0200001N9-00221+99999099831ADDAA199000691AY171999GF108991081061004501999999MD1610141+9999MW1711
0068014270999991930020206004+58100+006567FM-12+000999999V0200701N01541004501CN0200001N9-00501+99999100261ADDAA199000691AY171999GF108991081061004501999999MD1210141+9999MW1231
0083014270999991930020306004+58100+006567FM-12+000999999V0200701N01231007801CN0200001N9-00221+99999100351ADDAA199000691AY171999GF108991081061008001999999EQDQ01+000072APCTENQ02+000002APC3  
0089014270999991930020406004+58100+006567FM-12+000999999V0200501N00671007801CN0200001N9+00001+99999100331ADDAA199000691AY171999GF108991081061008001999999MW1231EQDQ01+000032APCTENQ02+000002APC3  
0089014270999991930020506004+58100+006567FM-12+000999999V0200501N00461002401CN0040001N9-00221+99999100291ADDAA199000691AY171999GF108991081061002501999999MW1711EQDQ01+000042APCTENQ02+000142APC3  
0051014270999991930020606004+58100+006567FM-12+000999999V0200501N001019999999N0200001N9-00221+99999101331ADDAY111999GF107991999999999999001001MD1310261+9999
0051014270999991930020706004+58100+006567FM-12+000999999V0203201N00461220001CN0500001N9-00281+99999103011ADDAY101999GF101991999999999999999999MD1310201+9999
0088014270999991930020806004+58100+006567FM-12+000999999V0200201N00261220001CN0500001N9-00281+99999103431ADDAY101999GF102991999001999999021001EQDQ01+000002SCOTLCQ02+000032APCTENQ03+000002APC3  
0070014270999991930020906004+58100+006567FM-12+000999999V0203601N00461220001CN0500001N9-00221+99999103641ADDAY101999GF102991999011012501001001MD1810061+9999EQDQ01+000012SCOTLC
0094014270999991930021006004+58100+006567FM-12+000999999V0203201N004619999999N0200001N9+00221+99999103491ADDAY111999GF106991999091008001001001MW1161EQDQ01+000022SCOTLCQ02+000032APCTENQ03+000002APC3  
0070014270999991930021106004+58100+006567FM-12+000999999V0203201N00101220001CN0200001N9+00391+99999102771ADDAY111999GF106991999001999999021001MD1710141+9999EQDQ01+000002SCOTLC
0057014270999991930021206004+58100+006567FM-12+000999999V0203201N01231004501CN0200001N9+00501+99999102561ADDAY111999GF107991071061004501001001MD1810061+9999MW1161
0072014270999991930021306004+58100+006567FM-12+000999999V0202701N01231030001CN0100001N9+00501+99999102351ADDAY111999GF107991041051002501021001EQDQ01+000082APCTENQ02+000002APC3  
0051014270999991930021406004+58100+006567FM-12+000999999V0202501N00931004501CN0200001N9+00391+99999101621ADDAY121999GF108991081061004501999999MD1810261+9999
0062014270999991930021506004+58100+006567FM-12+000999999V0202701N00931007801CN0200001N9+00281+99999099531ADDAA199005091AY171999GF106991061061008001001001MD1410001+9999
0051014270999991930021606004+58100+006567FM-12+000999999V0200201N00261220001CN0500001N9+00001+99999101321ADDAY101999GF101991011011012501001001MD1310401+9999
0051014270999991930021706004+58100+006567FM-12+000999999V0200501N00261220001CN0500001N9-00221+99999103061ADDAY101999GF102991011011012501001081MD1310261+9999
0051014270999991930021806004+58100+006567FM-12+000999999V0200901N00101220001CN0500001N9-00221+99999103901ADDAY101999GF100991001001999999001001MD1310141+9999
0037014270999991930021906004+58100+006567FM-12+000999999V0200701N00101220001CN0500001N9-00221+99999103671ADDAY101999GF100991001001999999999999
0088014270999991930022006004+58100+006567FM-12+000999999V0200501N00101220001CN0500001N9-00221+99999103311ADDAY101999GF101991999001999999021001EQDQ01+000002SCOTLCQ02+000082APCTENQ03+000002APC3  
0051014270999991930022106004+58100+006567FM-12+000999999V0201101N00261220001CN0200001N9-00281+99999103101ADDAY141999GF102991021051004501031001MD1310061+9999
0068014270999991930022206004+58100+006567FM-12+000999999V0200501N00461002401CN0040001N9+00001+99999103371ADDAA199000691AY171999GF108991081061002501999999MD1310061+9999MW1681
0051014270999991930022406004+58100+006567FM-12+000999999V0200901N00671007801CN0200001N9+00001+99999104241ADDAY111999GF107991071051008001001001MD1310061+9999
0062014270999991930022506004+58100+006567FM-12+000999999V0200701N01231004501CN0200001N9+00001+99999103201ADDAA199000691AY171999GF108991081061004501999999MD1810141+9999
0062014270999991930022606004+58100+006567FM-12+000999999V0200901N00671004501CN0100001N9+00111+99999102301ADDAA199000691AY171999GF108991061061004501031001MD1810141+9999
0051014270999991930022706004+58100+006567FM-12+000999999V0200901N00671030001CN0200001N9+00001+99999102071ADDAY111999GF107991041051012501031001MD1310141+9999
0051014270999991930022806004+58100+006567FM-12+000999999V0200201N00461220001CN0200001N9+00001+99999103001ADDAY101999GF106991001001999999021021MD1310201+9999
