0089014270999991928010106004+58100+006567FM-12+000999999V0201401N00931002401CN0040001N9-00111+99999103361ADDAA199000691AY171999GF108991081061002501999999MW1711EQDQ01+000032APCTENQ02+000002APC3  
0062014270999991928010206004+58100+006567FM-12+000999999V0201401N012319999999N0100001N9+00111+99999101791ADDAA199000691AY171999GF108991999999999999001001MD1810401+9999
0068014270999991928010306004+58100+006567FM-12+000999999V0200901N002619999999N0040001N9+00001+99999101011ADDAA199017091AY171999GF108991999999999999001001MD1310141+9999MW1681
0070014270999991928010406004+58100+006567FM-12+000999999V0202001N00931002401CN0100001N9+00281+99999100611ADDAY141999GF108991081061002501999999MD1810602+9999EQDQ01+000602APC3  
0089014270999991928010506004+58100+006567FM-12+000999999V0202901N009319999999N0200001N9+00281+99999098801ADDAA199003091AY181999GF107991999999999999001001MW1891EQDQ01+000042APCTENQ02+000062APC3  
0062014270999991928010606004+58100+006567FM-12+000999999V0202501N009319999999N0200001N9+00391+99999099311ADDAA199000591AY111999GF108991999999999999021001MD1810401+9999
0062014270999991928010706004+58100+006567FM-12+000999999V0203201N004619999999N0200001N9+00111+99999100731ADDAA199000691AY101999GF107991999999999999001081MD1310261+9999
0087014270999991928010806004+58100+006567FM-12+000999999V0202301N01231002401CN0100001N9+00501+99999098481ADDAA199012091AY141999GF108991081061002501999999MD1810542+9999MW1631EQDQ01+000542APC3  
0062014270999991928010906004+58100+006567FM-12+000999999V0202701N01901220001CN0200001N9+00501+99999099671ADDAA199000691AY181999GF104991999999999999031001MD1310141+9999
0062014270999991928011006004+58100+006567FM-12+000999999V0202301N00931002401CN0200001N9+00501+99999099861ADDAA199003091AY181999GF108991081061002501999999MD1310061+9999
0089014270999991928011106004+58100+006567FM-12+000999999V0202701N015419999999N0100001N9+00501+99999099171ADDAA199000691AY181999GF106991999999999999001001MW1161EQDQ01+000042APCTENQ02+000142APC3  
0062014270999991928011206004+58100+006567FM-12+000999999V0202701N01541220001CN0100001N9+00501+99999100331ADDAA199002091AY181999GF104991999999999999001001MD1310201+9999
0068014270999991928011306004+58100+006567FM-12+000999999V0202301N012319999999N0040001N9+00611+99999098151ADDAA199020091AY161999GF108991999999999999001001MD1810401+9999MW1431
0068014270999991928011406004+58100+006567FM-12+000999999V0203201N01231220001CN0200001N9+00391+99999099031ADDAA199001091AY181999GF104991041091008001031001MD1310401+9999MW1161
0068014270999991928011506004+58100+006567FM-12+000999999V0200901N009319999999N0040001N9+00001+99999099101ADDAA199001091AY171999GF108991999999999999001001MD1810141+9999MW1731
0068014270999991928011606004+58100+006567FM-12+000999999V0200901N006719999999N0100001N9+00001+99999099771ADDAA199000391AY171999GF108991999999999999001001MD1310141+9999MW1701
0068014270999991928011706004+58100+006567FM-12+000999999V0200501N01231002401CN0100001N9-00221+99999100971ADDAA199000691AY171999GF108991081061002501999999MD1310201+9999MW1711
0051014270999991928011806004+58100+006567FM-12+000999999V0200701N01231030001CN0200001N9-00611+99999103001ADDAY111999GF106991041051012501031001MD1310261+9999
0072014270999991928012006004+58100+006567FM-12+000999999V0200901N004619999999N0200001N9-00281+99999098671ADDAY121999GF108991999999999999001001EQDQ01+000022APCTENQ02+000002APC3  
0068014270999991928012106004+58100+006567FM-12+000999999V0200901N006719999999N0040001N9+00001+99999102131ADDAA199003091AY161999GF108991999999999999001001MD1210061+9999MW1531
0068014270999991928012206004+58100+006567FM-12+000999999V0200901N009319999999N0040001N9+00111+99999100901ADDAA199039091AY161999GF108991999999999999001001MD1610061+9999MW1631
0062014270999991928012306004+58100+006567FM-12+000999999V0200901N009319999999N0100001N9-00221+99999101871ADDAA199004091AY171999GF108991999999999999001001MD1010141+9999
0076014270999991928012406004+58100+006567FM-12+000999999V0201601N01231001501CN0040001N9+00391+99999100121ADDAY171999GF108991081061001501999999MD1810542+9999MW1631EQDQ01+000542APC3  
0089014270999991928012606004+58100+006567FM-12+000999999V0202301N015419999999N0040001N9+00391+99999099951ADDAA199004091AY161999GF108991999999999999001001MW1631EQDQ01+000032APCTENQ02+000002APC3  
0068014270999991928012706004+58100+006567FM-12+000999999V0201101N009319999999N0040001N9+00281+99999100351ADDAA199001091AY161999GF108991999999999999001001MD1810061+9999MW1621
0062014270999991928012806004+58100+006567FM-12+000999999V0203201N00261004501CN0200001N9+00221+99999101071ADDAA199002091AY101999GF107991071061004501001001MD1310141+9999
0062014270999991928012906004+58100+006567FM-12+000999999V0202001N004619999999N0100001N9+00281+99999100151ADDAA199012091AY161999GF107991999999999999001001MD1310261+9999
0068014270999991928013006004+58100+006567FM-12+000999999V0200901N00931002401CN0200001N9+00001+99999100391ADDAA199005091AY171999GF108991081061002501999999MD1810261+9999MW1691
0083014270999991928013106004+58100+006567FM-12+000999999V0201101N00461004501CN0200001N9+00111+99999100551ADDAA199005091AY121999GF107991061061004501001021EQDQ01+000042APCTENQ02+000062APC3  
0062014270999991928020106004+58100+006567FM-12+000999999V0201801N00931002401CN0040001N9+00391+99999098691ADDAA199012091AY171999GF108991081061002501999999MD1810401+9999
0057014270999991928020206004+58100+006567FM-12+000999999V0202501N00931220001CN0200001N9+00281+99999099461ADDAY111999GF104991041091004501001001MD1310201+9999MW1161
0068014270999991928020306004+58100+006567FM-12+000999999V0201101N009319999999N0020001N9+00001+99999099641ADDAA199007091AY171999GF108991999999999999001001MD1810061+9999MW1681
0068014270999991928020406004+58100+006567FM-12+000999999V0202901N00261220001CN0200001N9+00281+99999101871ADDAA199000691AY101999GF104991999999999999001001MD1310261+9999MW1161
0089014270999991928020506004+58100+006567FM-12+000999999V0202301N006719999999N0020001N9+00281+99999100421ADDAA199020091AY161999GF108991999999999999001001MW1431EQDQ01+000032APCTENQ02+000002APC3  
0068014270999991928020606004+58100+006567FM-12+000999999V0202501N00931007801CN0200001N9+00281+99999100611ADDAA199000591AY181999GF106991061091008001001001MD1310141+9999MW1801
0087014270999991928020706004+58100+006567FM-12+000999999V0202301N01901002401CN0040001N9+00391+99999100791ADDAA199003091AY161999GF108991081061002501999999MD1810662+9999MW1631EQDQ01+000662APC3  
0087014270999991928020806004+58100+006567FM-12+000999999V0202701N012319999999N0100001N9+00391+99999100901ADDAA199002091AY161999GF107991999051002501001001MD1710141+9999MW1521EQDQ01+000022SCOTLC
0062014270999991928020906004+58100+006567FM-12+000999999V0202701N02261030001CN0100001N9+00501+99999099301ADDAA199000591AY161999GF108991041061002501021001MD1810261+9999
0068014270999991928021006004+58100+006567FM-12+000999999V0202901N01231004501CN0100001N9+00281+99999099811ADDAA199001091AY181999GF106991061091004501001001MD1210201+9999MW1161
0068014270999991928021106004+58100+006567FM-12+000999999V0200501N001019999999N0010001N9+00001+99999097271ADDAA199005091AY161999GF108991999999999999001001MD1110061+9999MW1681
0062014270999991928021306004+58100+006567FM-12+000999999V0200901N00101220001CN0200001N9-00281+99999099671ADDAA199010091AY101999GF102991021051008001001001MD1110141+9999
0068014270999991928021406004+58100+006567FM-12+000999999V0201101N00931004501CN0020001N9+00001+99999099241ADDAA199000691AY171999GF108991081061004501999999MD1810261+9999MW1711
0062014270999991928021506004+58100+006567FM-12+000999999V0201101N00931004501CN0100001N9-00221+99999100871ADDAA199000691AY171999GF108991081061004501999999MD1110201+9999
0068014270999991928021606004+58100+006567FM-12+000999999V0202701N01231002401CN0100001N9+00391+99999099621ADDAA199005091AY161999GF108991081061002501999999MD1310261+9999MW1601
0089014270999991928021706004+58100+006567FM-12+000999999V0209991C00001002401CN0200001N9+00221+99999098921ADDAA199005091AY161999GF108991081061002501999999MW1211EQDQ01+000032APCTENQ02+000002APC3  
0081014270999991928021806004+58100+006567FM-12+000999999V0203201N00671220001CN0200001N9+00221+99999101151ADDAA199002091AY101999GF102991999011008001001001MD1310341+9999EQDQ01+000012SCOTLC
0068014270999991928021906004+58100+006567FM-12+000999999V0202901N00931030001CN0040001N9+00391+99999101371ADDAA199004091AY141999GF106991041051001501031001MD1310261+9999MW1421
0062014270999991928022006004+58100+006567FM-12+000999999V0201401N00461075001CN0200001N9-00221+99999103551ADDAA199000691AY111999GF106991041051004501001091MD1310341+9999
0062014270999991928022106004+58100+006567FM-12+000999999V0200901N00461007801CN0200001N9+00001+99999103731ADDAA199000691AY121999GF108991081051008001999999MD1810141+9999
0057014270999991928022206004+58100+006567FM-12+000999999V0200901N00461004501CN0100001N9+00221+99999103241ADDAY111999GF108991081061004501999999MD1010001+9999MW1451
0062014270999991928022306004+58100+006567FM-12+000999999V0209991C00001220001CN0200001N9+00111+99999103631ADDAA199000691AY101999GF104991999999999999001001MD1310141+9999
0072014270999991928022406004+58100+006567FM-12+000999999V0200901N00671012301CN0200001N9+00111+99999103671ADDAY121999GF108991061051012501021001EQDQ01+000032APCTENQ02+000002APC3  
0051014270999991928022506004+58100+006567FM-12+000999999V0201101N00931004501CN0200001N9+00001+99999103551ADDAY111999GF106991061061004501001001MD1710061+9999
0051014270999991928022606004+58100+006567FM-12+000999999V0200501N001019999999N0100001N9+00001+99999103321ADDAY111999GF107991999999999999021001MD1810061+9999
0051014270999991928022706004+58100+006567FM-12+000999999V0201101N00671001501CN0100001N9-00111+99999103531ADDAY141999GF107991071051001501001001MD1310061+9999
0072014270999991928022806004+58100+006567FM-12+000999999V0201101N00461220001CN0200001N9-00221+99999103461ADDAY141999GF104991999999999999001081EQDQ01+000032APCTENQ02+000002APC3  
0051014270999991928022906004+58100+006567FM-12+000999999V0200701N00931001501CN0200001N9+00001+99999103181ADDAY111999GF107991071051001501001001MD1510001+9999
