0029029110999991923010106004+63083+021617FM-12+000999999V0201101N002119999999N0000001N9+00061+99999099431ADDGF108991999999999999999999
0029029110999991923010113004+63083+021617FM-12+000999999V0209991C000019999999N0000001N9+00111+99999099321ADDGF108991999999999999999999
0029029110999991923010120004+63083+021617FM-12+000999999V0202701N001019999999N0000001N9+00001+99999099591ADDGF108991999999999999999999
0029029110999991923010206004+63083+021617FM-12+000999999V0209991C000019999999N0000001N9-00061+99999100151ADDGF108991999999999999999999
0029029110999991923010213004+63083+021617FM-12+000999999V0202301N003119999999N0000001N9+00001+99999100561ADDGF108991999999999999999999
0029029110999991923010220004+63083+021617FM-12+000999999V0202001N003119999999N0000001N9+00001+99999100841ADDGF108991999999999999999999
0029029110999991923010306004+63083+021617FM-12+000999999V0201601N005119999999N0000001N9+00001+99999100751ADDGF108991999999999999999999
0035029110999991923010313004+63083+021617FM-12+000999999V0201801N008719999999N0000001N9+00171+99999100501ADDGF108991999999999999999999MW1691
0029029110999991923010320004+63083+021617FM-12+000999999V0201801N008219999999N0000001N9+00171+99999100541ADDGF108991999999999999999999
0035029110999991923010406004+63083+021617FM-12+000999999V0201801N008219999999N0000001N9+00171+99999100661ADDGF108991999999999999999999MW1621
0029029110999991923010413004+63083+021617FM-12+000999999V0202001N005119999999N0000001N9+00171+99999100841ADDGF108991999999999999999999
0029029110999991923010420004+63083+021617FM-12+000999999V0201801N005119999999N0000001N9+00171+99999100961ADDGF108991999999999999999999
0046029110999991923010506004+63083+021617FM-12+000999999V0202001N004119999999N0000001N9+00171+99999101141ADDAJ100009199999999GF108991999999999999999999
0029029110999991923010513004+63083+021617FM-12+000999999V0202001N003119999999N0000001N9+00111+99999101461ADDGF108991999999999999999999
0029029110999991923010520004+63083+021617FM-12+000999999V0201801N002119999999N0000001N9+00171+99999101641ADDGF108991999999999999999999
0046029110999991923010606004+63083+021617FM-12+000999999V0201601N003119999999N0000001N9+00111+99999101781ADDAJ100009199999999GF108991999999999999999999
0029029110999991923010613004+63083+021617FM-12+000999999V0201801N003119999999N0000001N9+00171+99999101841ADDGF108991999999999999999999
0035029110999991923010620004+63083+021617FM-12+000999999V0201401N002119999999N0000001N9+00061+99999101831ADDGF108991999999999999999999MW1721
0029029110999991923010706004+63083+021617FM-12+000999999V0201601N003119999999N0000001N9+00001+99999101621ADDGF108991999999999999999999
0029029110999991923010713004+63083+021617FM-12+000999999V0201601N003119999999N0000001N9+00001+99999101561ADDGF108991999999999999999999
0035029110999991923010720004+63083+021617FM-12+000999999V0201601N003119999999N0000001N9-00171+99999101421ADDGF108991999999999999999999MW1721
0029029110999991923010806004+63083+021617FM-12+000999999V0201601N004119999999N0000001N9-00221+99999100991ADDGF108991999999999999999999
0035029110999991923010813004+63083+021617FM-12+000999999V0201601N006219999999N0000001N9-00061+99999100591ADDGF108991999999999999999999MW1721
0029029110999991923010820004+63083+021617FM-12+000999999V0201601N008719999999N0000001N9+00111+99999099921ADDGF108991999999999999999999
0029029110999991923010906004+63083+021617FM-12+000999999V0202001N005119999999N0000001N9+00111+99999099201ADDGF108991999999999999999999
0029029110999991923010913004+63083+021617FM-12+000999999V0202001N005119999999N0000001N9+00171+99999099381ADDGF102991999999999999999999
0029029110999991923010920004+63083+021617FM-12+000999999V0202301N003119999999N0000001N9+00061+99999099751ADDGF100991999999999999999999
0029029110999991923011006004+63083+021617FM-12+000999999V0201601N005119999999N0000001N9+00111+99999099741ADDGF108991999999999999999999
0035029110999991923011013004+63083+021617FM-12+000999999V0201801N006219999999N0000001N9+00111+99999099631ADDGF108991999999999999999999MW1601
0029029110999991923011020004+63083+021617FM-12+000999999V0201601N002119999999N0000001N9+00111+99999099641ADDGF108991999999999999999999
0029029110999991923011106004+63083+021617FM-12+000999999V0202001N003119999999N0000001N9+00111+99999099661ADDGF108991999999999999999999
0029029110999991923011113004+63083+021617FM-12+000999999V0202001N005119999999N0000001N9+00111+99999099741ADDGF108991999999999999999999
0029029110999991923011120004+63083+021617FM-12+000999999V0202001N004119999999N0000001N9+00111+99999099821ADDGF108991999999999999999999
0029029110999991923011206004+63083+021617FM-12+000999999V0201801N001019999999N0000001N9+00001+99999099841ADDGF102991999999999999999999
0029029110999991923011213004+63083+021617FM-12+000999999V0202901N001019999999N0000001N9-00111+99999099991ADDGF108991999999999999999999
0029029110999991923011220004+63083+021617FM-12+000999999V0203401N001019999999N0000001N9-00281+99999100161ADDGF108991999999999999999999
0029029110999991923011306004+63083+021617FM-12+000999999V0200201N003119999999N0000001N9-00221+99999100661ADDGF108991999999999999999999
0029029110999991923011313004+63083+021617FM-12+000999999V0203601N002119999999N0000001N9-00221+99999100991ADDGF108991999999999999999999
0029029110999991923011320004+63083+021617FM-12+000999999V0202701N001019999999N0000001N9-00331+99999101221ADDGF108991999999999999999999
0029029110999991923011406004+63083+021617FM-12+000999999V0201601N003119999999N0000001N9-00221+99999100761ADDGF108991999999999999999999
0035029110999991923011413004+63083+021617FM-12+000999999V0201601N008719999999N0000001N9-00111+99999099911ADDGF108991999999999999999999MW1721
0035029110999991923011420004+63083+021617FM-12+000999999V0201601N009819999999N0000001N9+00061+99999099071ADDGF108991999999999999999999MW1721
0035029110999991923011506004+63083+021617FM-12+000999999V0201601N008219999999N0000001N9+00061+99999098431ADDGF108991999999999999999999MW1691
0029029110999991923011513004+63083+021617FM-12+000999999V0202001N002119999999N0000001N9+00111+99999098871ADDGF108991999999999999999999
0035029110999991923011520004+63083+021617FM-12+000999999V0201401N002119999999N0000001N9-00061+99999099501ADDGF108991999999999999999999MW1701
0035029110999991923011606004+63083+021617FM-12+000999999V0200701N001019999999N0000001N9-00391+99999100921ADDGF107991999999999999999999MW1701
0035029110999991923011613004+63083+021617FM-12+000999999V0209991C000019999999N0000001N9-00331+99999101881ADDGF108991999999999999999999MW1701
0029029110999991923011620004+63083+021617FM-12+000999999V0209991C000019999999N0000001N9-00721+99999102581ADDGF100991999999999999999999
0029029110999991923011706004+63083+021617FM-12+000999999V0201101N001019999999N0000001N9-00721+99999102961ADDGF108991999999999999999999
0029029110999991923011713004+63083+021617FM-12+000999999V0201101N001019999999N0000001N9-00561+99999103161ADDGF108991999999999999999999
0029029110999991923011720004+63083+021617FM-12+000999999V0209991C000019999999N0000001N9-00561+99999103181ADDGF108991999999999999999999
0029029110999991923011806004+63083+021617FM-12+000999999V0201601N004119999999N0000001N9-00831+99999103081ADDGF108991999999999999999999
0029029110999991923011813004+63083+021617FM-12+000999999V0201601N005119999999N0000001N9-00671+99999102981ADDGF108991999999999999999999
0029029110999991923011820004+63083+021617FM-12+000999999V0201601N006219999999N0000001N9-00671+99999102671ADDGF108991999999999999999999
0029029110999991923011906004+63083+021617FM-12+000999999V0201601N008219999999N0000001N9-00441+99999101521ADDGF108991999999999999999999
0035029110999991923011913004+63083+021617FM-12+000999999V0201801N007219999999N0000001N9-00171+99999100921ADDGF108991999999999999999999MW1721
0029029110999991923011920004+63083+021617FM-12+000999999V0201801N008719999999N0000001N9-00061+99999099951ADDGF108991999999999999999999
0035029110999991923012006004+63083+021617FM-12+000999999V0201401N009819999999N0000001N9+00001+99999098071ADDGF108991999999999999999999MW1721
0029029110999991923012013004+63083+021617FM-12+000999999V0201601N007219999999N0000001N9+00111+99999097981ADDGF108991999999999999999999
0029029110999991923012020004+63083+021617FM-12+000999999V0201801N004119999999N0000001N9+00061+99999098271ADDGF108991999999999999999999
0029029110999991923012106004+63083+021617FM-12+000999999V0202701N002119999999N0000001N9-00281+99999099281ADDGF103991999999999999999999
0029029110999991923012113004+63083+021617FM-12+000999999V0202701N002119999999N0000001N9-00281+99999099801ADDGF101991999999999999999999
0029029110999991923012120004+63083+021617FM-12+000999999V0201601N003119999999N0000001N9-00561+99999099271ADDGF100991999999999999999999
0029029110999991923012206004+63083+021617FM-12+000999999V0202301N005119999999N0000001N9-00061+99999098111ADDGF108991999999999999999999
0029029110999991923012213004+63083+021617FM-12+000999999V0202301N007219999999N0000001N9-00111+99999098121ADDGF103991999999999999999999
0035029110999991923012220004+63083+021617FM-12+000999999V0202701N008219999999N0000001N9-00221+99999098361ADDGF108991999999999999999999MW1721
0029029110999991923012306004+63083+021617FM-12+000999999V0203201N008219999999N0000001N9-00221+99999099001ADDGF108991999999999999999999
0029029110999991923012313004+63083+021617FM-12+000999999V0203201N008719999999N0000001N9-00441+99999099701ADDGF103991999999999999999999
0029029110999991923012320004+63083+021617FM-12+000999999V0202901N002119999999N0000001N9-00781+99999099981ADDGF101991999999999999999999
0029029110999991923012406004+63083+021617FM-12+000999999V0201401N003119999999N0000001N9-00501+99999098421ADDGF108991999999999999999999
0035029110999991923012413004+63083+021617FM-12+000999999V0202701N003119999999N0000001N9-00171+99999097991ADDGF104991999999999999999999MW1721
0029029110999991923012420004+63083+021617FM-12+000999999V0202701N004119999999N0000001N9-00111+99999098301ADDGF108991999999999999999999
0029029110999991923012506004+63083+021617FM-12+000999999V0202701N005119999999N0000001N9-00221+99999099161ADDGF107991999999999999999999
0029029110999991923012513004+63083+021617FM-12+000999999V0202301N007219999999N0000001N9+00061+99999099391ADDGF108991999999999999999999
0029029110999991923012520004+63083+021617FM-12+000999999V0202301N014919999999N0000001N9+00501+99999098201ADDGF108991999999999999999999
0029029110999991923012606004+63083+021617FM-12+000999999V0202901N009819999999N0000001N9+00001+99999098721ADDGF102991999999999999999999
0029029110999991923012613004+63083+021617FM-12+000999999V0202701N012919999999N0000001N9+00001+99999098551ADDGF105991999999999999999999
0029029110999991923012620004+63083+021617FM-12+000999999V0202901N011819999999N0000001N9-00221+99999098711ADDGF100991999999999999999999
0029029110999991923012706004+63083+021617FM-12+000999999V0202701N005119999999N0000001N9-00331+99999098821ADDGF108991999999999999999999
0035029110999991923012713004+63083+021617FM-12+000999999V0209991C000019999999N0000001N9-00331+99999097991ADDGF108991999999999999999999MW1721
0029029110999991923012720004+63083+021617FM-12+000999999V0203201N003119999999N0000001N9-00781+99999098001ADDGF105991999999999999999999
0029029110999991923012806004+63083+021617FM-12+000999999V0203201N002119999999N0000001N9-00891+99999098741ADDGF100991999999999999999999
0029029110999991923012813004+63083+021617FM-12+000999999V0203201N005119999999N0000001N9-00561+99999098921ADDGF101991999999999999999999
0029029110999991923012820004+63083+021617FM-12+000999999V0203201N006219999999N0000001N9-00611+99999099031ADDGF103991999999999999999999
0029029110999991923012906004+63083+021617FM-12+000999999V0202701N002119999999N0000001N9-00671+99999098881ADDGF106991999999999999999999
0029029110999991923012913004+63083+021617FM-12+000999999V0202901N001019999999N0000001N9-00561+99999098881ADDGF104991999999999999999999
0029029110999991923012920004+63083+021617FM-12+000999999V0203201N002119999999N0000001N9-00611+99999098991ADDGF102991999999999999999999
0029029110999991923013006004+63083+021617FM-12+000999999V0203201N003119999999N0000001N9-00831+99999099381ADDGF100991999999999999999999
0029029110999991923013013004+63083+021617FM-12+000999999V0203201N003119999999N0000001N9-00561+99999099781ADDGF100991999999999999999999
0029029110999991923013020004+63083+021617FM-12+000999999V0202901N001019999999N0000001N9-01061+99999099981ADDGF100991999999999999999999
0029029110999991923013106004+63083+021617FM-12+000999999V0209991C000019999999N0000001N9-01561+99999100081ADDGF100991999999999999999999
0029029110999991923013113004+63083+021617FM-12+000999999V0203201N001019999999N0000001N9-01001+99999100241ADDGF108991999999999999999999
0029029110999991923013120004+63083+021617FM-12+000999999V0209991C000019999999N0000001N9-01611+99999100581ADDGF100991999999999999999999
0029029110999991923020106004+63083+021617FM-12+000999999V0201601N001019999999N0000001N9-01501+99999100621ADDGF108991999999999999999999
0029029110999991923020113004+63083+021617FM-12+000999999V0201401N002119999999N0000001N9-01391+99999100341ADDGF103991999999999999999999
0035029110999991923020120004+63083+021617FM-12+000999999V0201401N005119999999N0000001N9-00781+99999099541ADDGF108991999999999999999999MW1721
0029029110999991923020206004+63083+021617FM-12+000999999V0201401N006219999999N0000001N9-00501+99999098231ADDGF108991999999999999999999
0035029110999991923020213004+63083+021617FM-12+000999999V0201401N002119999999N0000001N9-00441+99999097911ADDGF108991999999999999999999MW1701
0029029110999991923020220004+63083+021617FM-12+000999999V0200201N001019999999N0000001N9-00501+99999098151ADDGF108991999999999999999999
0029029110999991923020306004+63083+021617FM-12+000999999V0203601N005119999999N0000001N9-00891+99999099271ADDGF108991999999999999999999
0029029110999991923020313004+63083+021617FM-12+000999999V0203601N003119999999N0000001N9-01061+99999099841ADDGF103991999999999999999999
0029029110999991923020320004+63083+021617FM-12+000999999V0203601N001019999999N0000001N9-01061+99999100241ADDGF108991999999999999999999
0029029110999991923020406004+63083+021617FM-12+000999999V0209991C000019999999N0000001N9-01671+99999100721ADDGF106991999999999999999999
0029029110999991923020413004+63083+021617FM-12+000999999V0201401N001019999999N0000001N9-01221+99999100951ADDGF104991999999999999999999
0029029110999991923020420004+63083+021617FM-12+000999999V0201601N002119999999N0000001N9-01331+99999101001ADDGF108991999999999999999999
0029029110999991923020506004+63083+021617FM-12+000999999V0201601N003119999999N0000001N9-00721+99999100921ADDGF108991999999999999999999
0035029110999991923020513004+63083+021617FM-12+000999999V0201801N007219999999N0000001N9-00281+99999100861ADDGF108991999999999999999999MW1721
0029029110999991923020520004+63083+021617FM-12+000999999V0201801N009819999999N0000001N9-00171+99999100751ADDGF108991999999999999999999
0029029110999991923020606004+63083+021617FM-12+000999999V0202001N009819999999N0000001N9+00061+99999100581ADDGF108991999999999999999999
0029029110999991923020613004+63083+021617FM-12+000999999V0201801N008719999999N0000001N9+00171+99999100681ADDGF104991999999999999999999
0029029110999991923020620004+63083+021617FM-12+000999999V0202001N005119999999N0000001N9+00171+99999100841ADDGF108991999999999999999999
0029029110999991923020706004+63083+021617FM-12+000999999V0202001N005119999999N0000001N9-00061+99999101161ADDGF101991999999999999999999
0029029110999991923020713004+63083+021617FM-12+000999999V0202001N005119999999N0000001N9+00001+99999101661ADDGF107991999999999999999999
0029029110999991923020720004+63083+021617FM-12+000999999V0202001N005119999999N0000001N9-00061+99999101921ADDGF108991999999999999999999
0029029110999991923020806004+63083+021617FM-12+000999999V0202001N003119999999N0000001N9-00061+99999102311ADDGF108991999999999999999999
0029029110999991923020813004+63083+021617FM-12+000999999V0201801N002119999999N0000001N9+00001+99999102561ADDGF108991999999999999999999
0029029110999991923020820004+63083+021617FM-12+000999999V0200901N001019999999N0000001N9-00171+99999102671ADDGF108991999999999999999999
0029029110999991923020906004+63083+021617FM-12+000999999V0201101N001019999999N0000001N9-00391+99999102911ADDGF108991999999999999999999
0029029110999991923020913004+63083+021617FM-12+000999999V0201401N001019999999N0000001N9-00281+99999103221ADDGF108991999999999999999999
0029029110999991923020920004+63083+021617FM-12+000999999V0201101N002119999999N0000001N9-00391+99999103601ADDGF108991999999999999999999
0029029110999991923021006004+63083+021617FM-12+000999999V0201101N002119999999N0000001N9-00781+99999104191ADDGF100991999999999999999999
0029029110999991923021013004+63083+021617FM-12+000999999V0201101N002119999999N0000001N9-00611+99999104481ADDGF100991999999999999999999
0029029110999991923021020004+63083+021617FM-12+000999999V0201101N002119999999N0000001N9-01061+99999104551ADDGF100991999999999999999999
0029029110999991923021106004+63083+021617FM-12+000999999V0200501N001019999999N0000001N9-01331+99999104271ADDGF100991999999999999999999
0035029110999991923021113004+63083+021617FM-12+000999999V0200501N002119999999N0000001N9-01281+99999103921ADDGF108991999999999999999999MW1701
0029029110999991923021120004+63083+021617FM-12+000999999V0200701N001019999999N0000001N9-01061+99999104061ADDGF108991999999999999999999
0035029110999991923021206004+63083+021617FM-12+000999999V0201101N002119999999N0000001N9-01001+99999104421ADDGF108991999999999999999999MW1701
0029029110999991923021213004+63083+021617FM-12+000999999V0201101N001019999999N0000001N9-00891+99999104601ADDGF100991999999999999999999
0029029110999991923021220004+63083+021617FM-12+000999999V0201101N001019999999N0000001N9-01391+99999104561ADDGF100991999999999999999999
0029029110999991923021306004+63083+021617FM-12+000999999V0201601N001019999999N0000001N9-01831+99999104351ADDGF100991999999999999999999
0029029110999991923021313004+63083+021617FM-12+000999999V0209991C000019999999N0000001N9-01001+99999104191ADDGF108991999999999999999999
0029029110999991923021320004+63083+021617FM-12+000999999V0209991C000019999999N0000001N9-01441+99999103841ADDGF100991999999999999999999
0029029110999991923021406004+63083+021617FM-12+000999999V0201801N001019999999N0000001N9-01331+99999103391ADDGF106991999999999999999999
0029029110999991923021413004+63083+021617FM-12+000999999V0209991C000019999999N0000001N9-00941+99999103161ADDGF108991999999999999999999
0029029110999991923021420004+63083+021617FM-12+000999999V0201601N001019999999N0000001N9-01221+99999102921ADDGF100991999999999999999999
0029029110999991923021506004+63083+021617FM-12+000999999V0201401N001019999999N0000001N9-01721+99999102621ADDGF104991999999999999999999
0029029110999991923021513004+63083+021617FM-12+000999999V0200901N001019999999N0000001N9-01111+99999102471ADDGF102991999999999999999999
0029029110999991923021520004+63083+021617FM-12+000999999V0200901N001019999999N0000001N9-01441+99999102271ADDGF100991999999999999999999
0029029110999991923021606004+63083+021617FM-12+000999999V0200701N001019999999N0000001N9-01891+99999102111ADDGF105991999999999999999999
0029029110999991923021613004+63083+021617FM-12+000999999V0200701N001019999999N0000001N9-01441+99999102041ADDGF103991999999999999999999
0029029110999991923021620004+63083+021617FM-12+000999999V0200901N001019999999N0000001N9-01941+99999102031ADDGF100991999999999999999999
0029029110999991923021706004+63083+021617FM-12+000999999V0201101N001019999999N0000001N9-01721+99999101991ADDGF108991999999999999999999
0029029110999991923021713004+63083+021617FM-12+000999999V0200901N001019999999N0000001N9-01561+99999101991ADDGF108991999999999999999999
0029029110999991923021720004+63083+021617FM-12+000999999V0209991C000019999999N0000001N9-01721+99999101911ADDGF108991999999999999999999
0029029110999991923021806004+63083+021617FM-12+000999999V0209991C000019999999N0000001N9-01831+99999101701ADDGF108991999999999999999999
0029029110999991923021813004+63083+021617FM-12+000999999V0209991C000019999999N0000001N9-01441+99999101561ADDGF108991999999999999999999
0029029110999991923021820004+63083+021617FM-12+000999999V0209991C000019999999N0000001N9-01391+99999101351ADDGF108991999999999999999999
0029029110999991923021906004+63083+021617FM-12+000999999V0202301N001019999999N0000001N9-01561+99999101101ADDGF104991999999999999999999
0029029110999991923021913004+63083+021617FM-12+000999999V0202701N001019999999N0000001N9-00781+99999100911ADDGF106991999999999999999999
0029029110999991923021920004+63083+021617FM-12+000999999V0209991C000019999999N0000001N9-01001+99999100831ADDGF108991999999999999999999
0029029110999991923022006004+63083+021617FM-12+000999999V0209991C000019999999N0000001N9-01391+99999100641ADDGF100991999999999999999999
0029029110999991923022013004+63083+021617FM-12+000999999V0202701N001019999999N0000001N9-00781+99999100621ADDGF101991999999999999999999
0029029110999991923022020004+63083+021617FM-12+000999999V0209991C000019999999N0000001N9-01111+99999100661ADDGF108991999999999999999999
0029029110999991923022106004+63083+021617FM-12+000999999V0201801N001019999999N0000001N9-01221+99999100511ADDGF102991999999999999999999
0029029110999991923022113004+63083+021617FM-12+000999999V0202301N002119999999N0000001N9-00561+99999100501ADDGF100991999999999999999999
0029029110999991923022120004+63083+021617FM-12+000999999V0202001N002119999999N0000001N9-00781+99999100461ADDGF107991999999999999999999
0029029110999991923022206004+63083+021617FM-12+000999999V0202001N003119999999N0000001N9-00721+99999100431ADDGF108991999999999999999999
0029029110999991923022213004+63083+021617FM-12+000999999V0202001N005119999999N0000001N9-00391+99999100551ADDGF106991999999999999999999
0029029110999991923022220004+63083+021617FM-12+000999999V0201801N003119999999N0000001N9-00501+99999100711ADDGF108991999999999999999999
0035029110999991923022306004+63083+021617FM-12+000999999V0201601N001019999999N0000001N9-00831+99999100921ADDGF108991999999999999999999MW1701
0035029110999991923022313004+63083+021617FM-12+000999999V0201601N002119999999N0000001N9-00891+99999101141ADDGF108991999999999999999999MW1701
0035029110999991923022320004+63083+021617FM-12+000999999V0201401N002119999999N0000001N9-01001+99999101181ADDGF108991999999999999999999MW1701
0029029110999991923022406004+63083+021617FM-12+000999999V0201601N003119999999N0000001N9-01331+99999101221ADDGF108991999999999999999999
0029029110999991923022413004+63083+021617FM-12+000999999V0201601N001019999999N0000001N9-00831+99999101231ADDGF107991999999999999999999
0035029110999991923022420004+63083+021617FM-12+000999999V0201601N001019999999N0000001N9-00941+99999101241ADDGF108991999999999999999999MW1701
0035029110999991923022506004+63083+021617FM-12+000999999V0201601N002119999999N0000001N9-01111+99999101231ADDGF108991999999999999999999MW1701
0029029110999991923022513004+63083+021617FM-12+000999999V0201801N001019999999N0000001N9-01061+99999101201ADDGF108991999999999999999999
0029029110999991923022520004+63083+021617FM-12+000999999V0201801N002119999999N0000001N9-01501+99999101111ADDGF101991999999999999999999
0029029110999991923022606004+63083+021617FM-12+000999999V0201601N003119999999N0000001N9-01331+99999100921ADDGF108991999999999999999999
0035029110999991923022613004+63083+021617FM-12+000999999V0202001N001019999999N0000001N9-00831+99999100831ADDGF108991999999999999999999MW1721
0029029110999991923022620004+63083+021617FM-12+000999999V0209991C000019999999N0000001N9-01221+99999100821ADDGF106991999999999999999999
0029029110999991923022706004+63083+021617FM-12+000999999V0200201N001019999999N0000001N9-01941+99999100831ADDGF100991999999999999999999
0035029110999991923022713004+63083+021617FM-12+000999999V0203401N001019999999N0000001N9-01171+99999100831ADDGF108991999999999999999999MW1701
0029029110999991923022720004+63083+021617FM-12+000999999V0209991C000019999999N0000001N9-01721+99999100841ADDGF108991999999999999999999
0029029110999991923022806004+63083+021617FM-12+000999999V0200501N002119999999N0000001N9-02281+99999101031ADDGF108991999999999999999999
0029029110999991923022813004+63083+021617FM-12+000999999V0200201N003119999999N0000001N9-01561+99999101231ADDGF100991999999999999999999
0029029110999991923022820004+63083+021617FM-12+000999999V0200701N001019999999N0000001N9-02221+99999101351ADDGF100991999999999999999999
0029029110999991923030106004+63083+021617FM-12+000999999V0200701N001019999999N0000001N9-02221+99999101601ADDGF102991999999999999999999
0029029110999991923030113004+63083+021617FM-12+000999999V0200701N002119999999N0000001N9-01281+99999101871ADDGF106991999999999999999999
0029029110999991923030120004+63083+021617FM-12+000999999V0200901N003119999999N0000001N9-01391+99999102001ADDGF101991999999999999999999
0029029110999991923030206004+63083+021617FM-12+000999999V0200901N002119999999N0000001N9-01561+99999102061ADDGF106991999999999999999999
0029029110999991923030213004+63083+021617FM-12+000999999V0200901N004119999999N0000001N9-00781+99999101961ADDGF102991999999999999999999
0029029110999991923030220004+63083+021617FM-12+000999999V0200901N003119999999N0000001N9-01221+99999101831ADDGF103991999999999999999999
0029029110999991923030306004+63083+021617FM-12+000999999V0201101N003119999999N0000001N9-01111+99999101751ADDGF108991999999999999999999
0029029110999991923030313004+63083+021617FM-12+000999999V0200901N003119999999N0000001N9-00611+99999101831ADDGF103991999999999999999999
0029029110999991923030320004+63083+021617FM-12+000999999V0200901N002119999999N0000001N9-01111+99999101921ADDGF102991999999999999999999
0029029110999991923030406004+63083+021617FM-12+000999999V0200701N001019999999N0000001N9-01441+99999102061ADDGF101991999999999999999999
0029029110999991923030413004+63083+021617FM-12+000999999V0200201N001019999999N0000001N9-00781+99999102151ADDGF102991999999999999999999
0029029110999991923030420004+63083+021617FM-12+000999999V0203601N001019999999N0000001N9-01831+99999102221ADDGF104991999999999999999999
0029029110999991923030506004+63083+021617FM-12+000999999V0209991C000019999999N0000001N9-01941+99999102121ADDGF106991999999999999999999
0029029110999991923030513004+63083+021617FM-12+000999999V0202701N001019999999N0000001N9-00671+99999102071ADDGF101991999999999999999999
0029029110999991923030520004+63083+021617FM-12+000999999V0201601N001019999999N0000001N9-01331+99999101961ADDGF103991999999999999999999
0029029110999991923030606004+63083+021617FM-12+000999999V0201601N003119999999N0000001N9-00671+99999101761ADDGF106991999999999999999999
0029029110999991923030613004+63083+021617FM-12+000999999V0201801N005119999999N0000001N9-00391+99999101711ADDGF108991999999999999999999
0029029110999991923030620004+63083+021617FM-12+000999999V0201601N006219999999N0000001N9-00391+99999101561ADDGF108991999999999999999999
0035029110999991923030706004+63083+021617FM-12+000999999V0201601N005119999999N0000001N9-00611+99999101551ADDGF108991999999999999999999MW1721
0029029110999991923030713004+63083+021617FM-12+000999999V0201601N005119999999N0000001N9-00501+99999101701ADDGF108991999999999999999999
0029029110999991923030720004+63083+021617FM-12+000999999V0201801N005119999999N0000001N9-00441+99999101861ADDGF108991999999999999999999
0029029110999991923030806004+63083+021617FM-12+000999999V0201601N003119999999N0000001N9-00781+99999101951ADDGF108991999999999999999999
0029029110999991923030813004+63083+021617FM-12+000999999V0201801N004119999999N0000001N9-00391+99999102111ADDGF108991999999999999999999
0029029110999991923030820004+63083+021617FM-12+000999999V0201601N002119999999N0000001N9-00561+99999102271ADDGF108991999999999999999999
0029029110999991923030906004+63083+021617FM-12+000999999V0201601N003119999999N0000001N9-00501+99999102621ADDGF108991999999999999999999
0029029110999991923030913004+63083+021617FM-12+000999999V0209991C000019999999N0000001N9-00391+99999102921ADDGF108991999999999999999999
0029029110999991923030920004+63083+021617FM-12+000999999V0209991C000019999999N0000001N9-00501+99999103081ADDGF108991999999999999999999
0029029110999991923031006004+63083+021617FM-12+000999999V0201801N001019999999N0000001N9-00561+99999103071ADDGF108991999999999999999999
0029029110999991923031013004+63083+021617FM-12+000999999V0202501N001019999999N0000001N9-00441+99999103101ADDGF102991999999999999999999
0029029110999991923031020004+63083+021617FM-12+000999999V0209991C000019999999N0000001N9-01111+99999103101ADDGF100991999999999999999999
0035029110999991923031106004+63083+021617FM-12+000999999V0202001N001019999999N0000001N9-01061+99999103261ADDGF108991999999999999999999MW1701
0029029110999991923031113004+63083+021617FM-12+000999999V0202301N002119999999N0000001N9-00941+99999103461ADDGF108991999999999999999999
0029029110999991923031120004+63083+021617FM-12+000999999V0201601N003119999999N0000001N9-01061+99999103561ADDGF108991999999999999999999
0029029110999991923031206004+63083+021617FM-12+000999999V0201601N001019999999N0000001N9-00721+99999103541ADDGF108991999999999999999999
0029029110999991923031213004+63083+021617FM-12+000999999V0202301N004119999999N0000001N9-00501+99999103541ADDGF108991999999999999999999
0029029110999991923031220004+63083+021617FM-12+000999999V0202001N002119999999N0000001N9-00441+99999103401ADDGF108991999999999999999999
0029029110999991923031306004+63083+021617FM-12+000999999V0201601N001019999999N0000001N9-00611+99999103001ADDGF108991999999999999999999
0029029110999991923031313004+63083+021617FM-12+000999999V0202001N003119999999N0000001N9-00391+99999102871ADDGF108991999999999999999999
0029029110999991923031320004+63083+021617FM-12+000999999V0201801N004119999999N0000001N9-00561+99999102701ADDGF108991999999999999999999
0029029110999991923031406004+63083+021617FM-12+000999999V0202001N005119999999N0000001N9-00221+99999102421ADDGF108991999999999999999999
0029029110999991923031413004+63083+021617FM-12+000999999V0202301N005119999999N0000001N9-00061+99999102461ADDGF106991999999999999999999
0029029110999991923031420004+63083+021617FM-12+000999999V0202001N006219999999N0000001N9+00001+99999102161ADDGF100991999999999999999999
0029029110999991923031506004+63083+021617FM-12+000999999V0202901N002119999999N0000001N9+00001+99999102201ADDGF106991999999999999999999
0029029110999991923031513004+63083+021617FM-12+000999999V0202501N001019999999N0000001N9+00391+99999102461ADDGF104991999999999999999999
0029029110999991923031520004+63083+021617FM-12+000999999V0209991C000019999999N0000001N9-00061+99999102541ADDGF107991999999999999999999
0029029110999991923031606004+63083+021617FM-12+000999999V0202501N001019999999N0000001N9-00171+99999102641ADDGF102991999999999999999999
0029029110999991923031613004+63083+021617FM-12+000999999V0203401N004119999999N0000001N9+00611+99999102861ADDGF102991999999999999999999
0029029110999991923031620004+63083+021617FM-12+000999999V0202501N001019999999N0000001N9-00061+99999102831ADDGF100991999999999999999999
0029029110999991923031706004+63083+021617FM-12+000999999V0202501N005119999999N0000001N9+00001+99999102671ADDGF108991999999999999999999
0029029110999991923031713004+63083+021617FM-12+000999999V0202701N001019999999N0000001N9+00441+99999102601ADDGF108991999999999999999999
0029029110999991923031720004+63083+021617FM-12+000999999V0203401N005119999999N0000001N9+00441+99999102641ADDGF101991999999999999999999
0029029110999991923031806004+63083+021617FM-12+000999999V0209991C000019999999N0000001N9-00391+99999102761ADDGF102991999999999999999999
0029029110999991923031813004+63083+021617FM-12+000999999V0202701N003119999999N0000001N9+00281+99999102401ADDGF100991999999999999999999
0029029110999991923031820004+63083+021617FM-12+000999999V0202301N001019999999N0000001N9-00171+99999102161ADDGF100991999999999999999999
0029029110999991923031906004+63083+021617FM-12+000999999V0202501N003119999999N0000001N9-00171+99999101961ADDGF105991999999999999999999
0029029110999991923031913004+63083+021617FM-12+000999999V0202501N001019999999N0000001N9+00391+99999101881ADDGF101991999999999999999999
0029029110999991923031920004+63083+021617FM-12+000999999V0202901N003119999999N0000001N9+00111+99999101671ADDGF103991999999999999999999
0029029110999991923032006004+63083+021617FM-12+000999999V0202901N003119999999N0000001N9+00221+99999101391ADDGF103991999999999999999999
0029029110999991923032013004+63083+021617FM-12+000999999V0209991C000019999999N0000001N9+00561+99999101671ADDGF108991999999999999999999
0029029110999991923032020004+63083+021617FM-12+000999999V0202701N001019999999N0000001N9+00111+99999101671ADDGF100991999999999999999999
0029029110999991923032106004+63083+021617FM-12+000999999V0209991C000019999999N0000001N9-00061+99999101871ADDGF106991999999999999999999
0029029110999991923032113004+63083+021617FM-12+000999999V0202501N001019999999N0000001N9+00331+99999101951ADDGF101991999999999999999999
0029029110999991923032120004+63083+021617FM-12+000999999V0202301N001019999999N0000001N9+00001+99999101901ADDGF100991999999999999999999
0046029110999991923032206004+63083+021617FM-12+000999999V0202701N001019999999N0000001N9-00221+99999101751ADDAJ100009199999999GF104991999999999999999999
0029029110999991923032213004+63083+021617FM-12+000999999V0202701N004119999999N0000001N9+00331+99999101681ADDGF100991999999999999999999
0029029110999991923032220004+63083+021617FM-12+000999999V0202901N001019999999N0000001N9-00061+99999101711ADDGF100991999999999999999999
0046029110999991923032306004+63083+021617FM-12+000999999V0209991C000019999999N0000001N9-00171+99999102081ADDAJ100009199999999GF108991999999999999999999
0029029110999991923032313004+63083+021617FM-12+000999999V0202501N002119999999N0000001N9+00501+99999102121ADDGF104991999999999999999999
0029029110999991923032320004+63083+021617FM-12+000999999V0209991C000019999999N0000001N9+00061+99999102141ADDGF100991999999999999999999
0046029110999991923032406004+63083+021617FM-12+000999999V0201801N001019999999N0000001N9-00111+99999101961ADDAJ100009199999999GF101991999999999999999999
0029029110999991923032413004+63083+021617FM-12+000999999V0202301N003119999999N0000001N9+00391+99999101871ADDGF102991999999999999999999
0029029110999991923032420004+63083+021617FM-12+000999999V0202001N001019999999N0000001N9+00001+99999101951ADDGF101991999999999999999999
0046029110999991923032506004+63083+021617FM-12+000999999V0200501N001019999999N0000001N9-00171+99999102241ADDAJ100009199999999GF101991999999999999999999
0029029110999991923032513004+63083+021617FM-12+000999999V0200201N002119999999N0000001N9+00611+99999102541ADDGF101991999999999999999999
0029029110999991923032520004+63083+021617FM-12+000999999V0200501N002119999999N0000001N9-00221+99999102711ADDGF100991999999999999999999
0046029110999991923032606004+63083+021617FM-12+000999999V0201401N001019999999N0000001N9-00441+99999102991ADDAJ100009199999999GF100991999999999999999999
0029029110999991923032613004+63083+021617FM-12+000999999V0202701N001019999999N0000001N9+00671+99999102951ADDGF104991999999999999999999
0029029110999991923032620004+63083+021617FM-12+000999999V0201801N002119999999N0000001N9+00111+99999102671ADDGF108991999999999999999999
0046029110999991923032706004+63083+021617FM-12+000999999V0201801N001019999999N0000001N9+00061+99999102261ADDAJ100009199999999GF108991999999999999999999
0029029110999991923032713004+63083+021617FM-12+000999999V0202301N001019999999N0000001N9+00331+99999102221ADDGF102991999999999999999999
0029029110999991923032720004+63083+021617FM-12+000999999V0209991C000019999999N0000001N9+00001+99999102151ADDGF100991999999999999999999
0046029110999991923032806004+63083+021617FM-12+000999999V0202701N001019999999N0000001N9-00391+99999102161ADDAJ100009199999999GF100991999999999999999999
0029029110999991923032813004+63083+021617FM-12+000999999V0202501N001019999999N0000001N9+00221+99999102061ADDGF104991999999999999999999
0029029110999991923032820004+63083+021617FM-12+000999999V0202501N001019999999N0000001N9+00061+99999101741ADDGF101991999999999999999999
0046029110999991923032906004+63083+021617FM-12+000999999V0200201N004119999999N0000001N9+00111+99999102161ADDAJ100009199999999GF100991999999999999999999
0029029110999991923032913004+63083+021617FM-12+000999999V0203601N003119999999N0000001N9+00281+99999102591ADDGF102991999999999999999999
0029029110999991923032920004+63083+021617FM-12+000999999V0209991C000019999999N0000001N9-00111+99999102581ADDGF108991999999999999999999
0035029110999991923033006004+63083+021617FM-12+000999999V0202301N005119999999N0000001N9+00061+99999101561ADDGF108991999999999999999999MW1621
0035029110999991923033013004+63083+021617FM-12+000999999V0203401N008719999999N0000001N9+00001+99999101461ADDGF108991999999999999999999MW1691
0029029110999991923033020004+63083+021617FM-12+000999999V0200501N006219999999N0000001N9-00281+99999102351ADDGF108991999999999999999999
0046029110999991923033106004+63083+021617FM-12+000999999V0200501N001019999999N0000001N9-00671+99999103111ADDAJ100009199999999GF101991999999999999999999
0029029110999991923033113004+63083+021617FM-12+000999999V0203401N001019999999N0000001N9+00001+99999103041ADDGF100991999999999999999999
0029029110999991923033120004+63083+021617FM-12+000999999V0209991C000019999999N0000001N9-00441+99999102831ADDGF102991999999999999999999
0046029110999991923040106004+63083+021617FM-12+000999999V0202301N001019999999N0000001N9-00331+99999102401ADDAJ100009199999999GF100991999999999999999999
0029029110999991923040113004+63083+021617FM-12+000999999V0202701N002119999999N0000001N9+00171+99999102341ADDGF103991999999999999999999
0029029110999991923040120004+63083+021617FM-12+000999999V0209991C000019999999N0000001N9-00171+99999102301ADDGF103991999999999999999999
0046029110999991923040206004+63083+021617FM-12+000999999V0203601N002119999999N0000001N9-00281+99999102521ADDAJ100009199999999GF105991999999999999999999
0029029110999991923040213004+63083+021617FM-12+000999999V0203401N004119999999N0000001N9+00441+99999102561ADDGF101991999999999999999999
0029029110999991923040220004+63083+021617FM-12+000999999V0209991C000019999999N0000001N9-00111+99999102521ADDGF102991999999999999999999
0046029110999991923040306004+63083+021617FM-12+000999999V0209991C000019999999N0000001N9+00111+99999102581ADDAJ100009199999999GF108991999999999999999999
0029029110999991923040313004+63083+021617FM-12+000999999V0209991C000019999999N0000001N9+00501+99999102621ADDGF108991999999999999999999
0029029110999991923040320004+63083+021617FM-12+000999999V0209991C000019999999N0000001N9+00171+99999102541ADDGF108991999999999999999999
0046029110999991923040406004+63083+021617FM-12+000999999V0201601N001019999999N0000001N9+00111+99999102301ADDAJ100009199999999GF108991999999999999999999
0029029110999991923040413004+63083+021617FM-12+000999999V0201801N003119999999N0000001N9+00441+99999102301ADDGF108991999999999999999999
0029029110999991923040420004+63083+021617FM-12+000999999V0209991C000019999999N0000001N9+00061+99999102431ADDGF105991999999999999999999
0046029110999991923040506004+63083+021617FM-12+000999999V0209991C000019999999N0000001N9+00001+99999102681ADDAJ100009199999999GF108991999999999999999999
0029029110999991923040513004+63083+021617FM-12+000999999V0202701N001019999999N0000001N9+00331+99999102801ADDGF108991999999999999999999
0029029110999991923040520004+63083+021617FM-12+000999999V0209991C000019999999N0000001N9+00061+99999102821ADDGF106991999999999999999999
0046029110999991923040606004+63083+021617FM-12+000999999V0209991C000019999999N0000001N9-00061+99999102841ADDAJ100009199999999GF108991999999999999999999
0029029110999991923040613004+63083+021617FM-12+000999999V0209991C000019999999N0000001N9+00281+99999102761ADDGF108991999999999999999999
0029029110999991923040620004+63083+021617FM-12+000999999V0209991C000019999999N0000001N9+00001+99999102681ADDGF104991999999999999999999
0046029110999991923040706004+63083+021617FM-12+000999999V0200701N001019999999N0000001N9+00001+99999102741ADDAJ100009199999999GF108991999999999999999999
0029029110999991923040713004+63083+021617FM-12+000999999V0202701N001019999999N0000001N9+00441+99999102701ADDGF102991999999999999999999
0029029110999991923040720004+63083+021617FM-12+000999999V0202001N001019999999N0000001N9+00001+99999102541ADDGF101991999999999999999999
0046029110999991923040806004+63083+021617FM-12+000999999V0202501N002119999999N0000001N9-00061+99999102271ADDAJ100009199999999GF101991999999999999999999
0029029110999991923040813004+63083+021617FM-12+000999999V0202701N001019999999N0000001N9+00281+99999102161ADDGF100991999999999999999999
0029029110999991923040820004+63083+021617FM-12+000999999V0209991C000019999999N0000001N9-00171+99999102121ADDGF100991999999999999999999
0046029110999991923040906004+63083+021617FM-12+000999999V0209991C000019999999N0000001N9-00331+99999102161ADDAJ100009199999999GF100991999999999999999999
0029029110999991923040913004+63083+021617FM-12+000999999V0202501N001019999999N0000001N9+00281+99999102081ADDGF100991999999999999999999
0029029110999991923040920004+63083+021617FM-12+000999999V0202001N001019999999N0000001N9-00061+99999101711ADDGF102991999999999999999999
0046029110999991923041006004+63083+021617FM-12+000999999V0203201N001019999999N0000001N9+00001+99999101541ADDAJ100009199999999GF100991999999999999999999
0029029110999991923041013004+63083+021617FM-12+000999999V0203601N003119999999N0000001N9+00561+99999101601ADDGF102991999999999999999999
0029029110999991923041020004+63083+021617FM-12+000999999V0209991C000019999999N0000001N9+00111+99999101541ADDGF108991999999999999999999
0046029110999991923041106004+63083+021617FM-12+000999999V0203401N003119999999N0000001N9+00171+99999101191ADDAJ100009199999999GF107991999999999999999999
0029029110999991923041113004+63083+021617FM-12+000999999V0203601N003119999999N0000001N9+00501+99999101201ADDGF104991999999999999999999
0029029110999991923041120004+63083+021617FM-12+000999999V0200201N002119999999N0000001N9-00281+99999101541ADDGF106991999999999999999999
0046029110999991923041206004+63083+021617FM-12+000999999V0200501N001019999999N0000001N9-00501+99999102071ADDAJ100009199999999GF100991999999999999999999
0029029110999991923041213004+63083+021617FM-12+000999999V0203401N003119999999N0000001N9+00111+99999102081ADDGF100991999999999999999999
0029029110999991923041220004+63083+021617FM-12+000999999V0209991C000019999999N0000001N9-00391+99999101901ADDGF101991999999999999999999
0052029110999991923041306004+63083+021617FM-12+000999999V0201601N002119999999N0000001N9-00281+99999101661ADDAJ100009199999999GF108991999999999999999999MW1701
0029029110999991923041313004+63083+021617FM-12+000999999V0201801N005119999999N0000001N9+00221+99999101461ADDGF108991999999999999999999
0029029110999991923041320004+63083+021617FM-12+000999999V0201601N003119999999N0000001N9-00061+99999101271ADDGF108991999999999999999999
0035029110999991923041406004+63083+021617FM-12+000999999V0201401N003119999999N0000001N9-00221+99999100861ADDGF108991999999999999999999MW1721
0035029110999991923041413004+63083+021617FM-12+000999999V0201401N003119999999N0000001N9+00061+99999100671ADDGF108991999999999999999999MW1691
0035029110999991923041420004+63083+021617FM-12+000999999V0201101N003119999999N0000001N9-00061+99999100481ADDGF108991999999999999999999MW1721
0029029110999991923041506004+63083+021617FM-12+000999999V0200201N003119999999N0000001N9-00221+99999100431ADDGF108991999999999999999999
0029029110999991923041513004+63083+021617FM-12+000999999V0203601N008219999999N0000001N9-00111+99999100711ADDGF106991999999999999999999
0029029110999991923041520004+63083+021617FM-12+000999999V0200201N005119999999N0000001N9-00221+99999100961ADDGF105991999999999999999999
0029029110999991923041606004+63083+021617FM-12+000999999V0200201N002119999999N0000001N9-00671+99999101401ADDGF100991999999999999999999
0029029110999991923041613004+63083+021617FM-12+000999999V0203601N004119999999N0000001N9+00001+99999101601ADDGF100991999999999999999999
0029029110999991923041620004+63083+021617FM-12+000999999V0209991C000019999999N0000001N9-00501+99999101831ADDGF100991999999999999999999
0029029110999991923041706004+63083+021617FM-12+000999999V0209991C000019999999N0000001N9-00831+99999102141ADDGF100991999999999999999999
0029029110999991923041713004+63083+021617FM-12+000999999V0202901N002119999999N0000001N9+00221+99999102191ADDGF100991999999999999999999
0029029110999991923041720004+63083+021617FM-12+000999999V0209991C000019999999N0000001N9-00331+99999102111ADDGF100991999999999999999999
0029029110999991923041806004+63083+021617FM-12+000999999V0201601N001019999999N0000001N9-00281+99999101821ADDGF100991999999999999999999
0029029110999991923041813004+63083+021617FM-12+000999999V0202901N001019999999N0000001N9+00281+99999101511ADDGF100991999999999999999999
0029029110999991923041820004+63083+021617FM-12+000999999V0209991C000019999999N0000001N9-00221+99999101161ADDGF100991999999999999999999
0029029110999991923041906004+63083+021617FM-12+000999999V0203601N001019999999N0000001N9-00281+99999100621ADDGF100991999999999999999999
0029029110999991923041913004+63083+021617FM-12+000999999V0203201N002119999999N0000001N9+00441+99999100441ADDGF101991999999999999999999
0029029110999991923041920004+63083+021617FM-12+000999999V0203401N001019999999N0000001N9-00221+99999100461ADDGF102991999999999999999999
0052029110999991923042006004+63083+021617FM-12+000999999V0203601N008219999999N0000001N9-00221+99999100671ADDAJ100009199999999GF108991999999999999999999MW1721
0029029110999991923042013004+63083+021617FM-12+000999999V0203601N011819999999N0000001N9-00391+99999101191ADDGF102991999999999999999999
0029029110999991923042020004+63083+021617FM-12+000999999V0203601N005119999999N0000001N9-00671+99999101341ADDGF100991999999999999999999
0046029110999991923042106004+63083+021617FM-12+000999999V0209991C000019999999N0000001N9-00781+99999101041ADDAJ100009199999999GF107991999999999999999999
0029029110999991923042113004+63083+021617FM-12+000999999V0202501N003119999999N0000001N9-00111+99999100581ADDGF102991999999999999999999
0029029110999991923042120004+63083+021617FM-12+000999999V0209991C000019999999N0000001N9-00331+99999100341ADDGF107991999999999999999999
0029029110999991923042206004+63083+021617FM-12+000999999V0202901N001019999999N0000001N9-00891+99999100561ADDGF102991999999999999999999
0029029110999991923042213004+63083+021617FM-12+000999999V0202901N002119999999N0000001N9-00171+99999100751ADDGF105991999999999999999999
0029029110999991923042220004+63083+021617FM-12+000999999V0200201N001019999999N0000001N9-00611+99999100861ADDGF102991999999999999999999
0046029110999991923042306004+63083+021617FM-12+000999999V0201401N001019999999N0000001N9-00721+99999101031ADDAJ100009199999999GF102991999999999999999999
0029029110999991923042313004+63083+021617FM-12+000999999V0201401N001019999999N0000001N9+00441+99999101021ADDGF105991999999999999999999
0029029110999991923042320004+63083+021617FM-12+000999999V0200901N003119999999N0000001N9-00171+99999100991ADDGF107991999999999999999999
0046029110999991923042406004+63083+021617FM-12+000999999V0200901N002119999999N0000001N9-00221+99999101031ADDAJ100009199999999GF108991999999999999999999
0029029110999991923042413004+63083+021617FM-12+000999999V0200701N004119999999N0000001N9+00281+99999100831ADDGF108991999999999999999999
0029029110999991923042420004+63083+021617FM-12+000999999V0200901N003119999999N0000001N9-00111+99999100671ADDGF108991999999999999999999
0046029110999991923042506004+63083+021617FM-12+000999999V0200701N002119999999N0000001N9-00221+99999100541ADDAJ100009199999999GF108991999999999999999999
0029029110999991923042513004+63083+021617FM-12+000999999V0200201N004119999999N0000001N9+00171+99999100501ADDGF102991999999999999999999
0029029110999991923042520004+63083+021617FM-12+000999999V0200201N001019999999N0000001N9-00441+99999100701ADDGF101991999999999999999999
0046029110999991923042606004+63083+021617FM-12+000999999V0201101N003119999999N0000001N9-00111+99999100901ADDAJ100009199999999GF104991999999999999999999
0029029110999991923042613004+63083+021617FM-12+000999999V0202501N003119999999N0000001N9+00281+99999100901ADDGF105991999999999999999999
0029029110999991923042620004+63083+021617FM-12+000999999V0200701N003119999999N0000001N9+00061+99999100801ADDGF108991999999999999999999
0052029110999991923042706004+63083+021617FM-12+000999999V0200901N008219999999N0000001N9-00061+99999100031ADDAJ100009199999999GF108991999999999999999999MW1721
0029029110999991923042713004+63083+021617FM-12+000999999V0201101N006219999999N0000001N9+00061+99999099221ADDGF108991999999999999999999
0035029110999991923042720004+63083+021617FM-12+000999999V0201101N002119999999N0000001N9+00221+99999098641ADDGF108991999999999999999999MW1621
0052029110999991923042806004+63083+021617FM-12+000999999V0203401N007219999999N0000001N9-00221+99999098681ADDAJ100009199999999GF108991999999999999999999MW1721
0029029110999991923042813004+63083+021617FM-12+000999999V0202301N002119999999N0000001N9-00061+99999099521ADDGF108991999999999999999999
0029029110999991923042820004+63083+021617FM-12+000999999V0202301N002119999999N0000001N9-00111+99999099601ADDGF108991999999999999999999
0046029110999991923042906004+63083+021617FM-12+000999999V0203601N003119999999N0000001N9-00331+99999099721ADDAJ100009199999999GF103991999999999999999999
0029029110999991923042913004+63083+021617FM-12+000999999V0203201N002119999999N0000001N9-00061+99999100021ADDGF102991999999999999999999
0029029110999991923042920004+63083+021617FM-12+000999999V0202001N001019999999N0000001N9-00221+99999100231ADDGF108991999999999999999999
0046029110999991923043006004+63083+021617FM-12+000999999V0209991C000019999999N0000001N9-00171+99999100581ADDAJ100009199999999GF108991999999999999999999
0029029110999991923043013004+63083+021617FM-12+000999999V0202501N002119999999N0000001N9+00331+99999100741ADDGF104991999999999999999999
0029029110999991923043020004+63083+021617FM-12+000999999V0201401N001019999999N0000001N9+00331+99999100541ADDGF108991999999999999999999
0029029110999991923050106004+63083+021617FM-12+000999999V0201801N001019999999N0000001N9+00331+99999999999ADDGF102991999999999999999999
0029029110999991923050113004+63083+021617FM-12+000999999V0202301N003119999999N0000001N9+00331+99999999999ADDGF102991999999999999999999
0029029110999991923050120004+63083+021617FM-12+000999999V0200201N001019999999N0000001N9+00171+99999999999ADDGF102991999999999999999999
0029029110999991923050206004+63083+021617FM-12+000999999V0200501N003119999999N0000001N9+00171+99999999999ADDGF102991999999999999999999
0029029110999991923050213004+63083+021617FM-12+000999999V0203601N006219999999N0000001N9+00441+99999999999ADDGF103991999999999999999999
0029029110999991923050220004+63083+021617FM-12+000999999V0200201N003119999999N0000001N9-00171+99999999999ADDGF102991999999999999999999
0029029110999991923050306004+63083+021617FM-12+000999999V0209991C000019999999N0000001N9-00061+99999999999ADDGF102991999999999999999999
0029029110999991923050313004+63083+021617FM-12+000999999V0202701N002119999999N0000001N9+00331+99999999999ADDGF102991999999999999999999
0029029110999991923050320004+63083+021617FM-12+000999999V0202701N001019999999N0000001N9-00171+99999999999ADDGF102991999999999999999999
0029029110999991923050406004+63083+021617FM-12+000999999V0201401N001019999999N0000001N9+00111+99999999999ADDGF102991999999999999999999
0029029110999991923050413004+63083+021617FM-12+000999999V0202701N001019999999N0000001N9+00561+99999999999ADDGF103991999999999999999999
0029029110999991923050420004+63083+021617FM-12+000999999V0201801N002119999999N0000001N9+00331+99999999999ADDGF102991999999999999999999
0029029110999991923050506004+63083+021617FM-12+000999999V0201801N004119999999N0000001N9+00331+99999999999ADDGF102991999999999999999999
0029029110999991923050513004+63083+021617FM-12+000999999V0202001N005119999999N0000001N9+00611+99999999999ADDGF103991999999999999999999
0029029110999991923050520004+63083+021617FM-12+000999999V0201801N002119999999N0000001N9+00501+99999999999ADDGF103991999999999999999999
0029029110999991923050606004+63083+021617FM-12+000999999V0209991C000019999999N0000001N9+00611+99999999999ADDGF103991999999999999999999
0029029110999991923050613004+63083+021617FM-12+000999999V0201101N004119999999N0000001N9+01221+99999999999ADDGF104991999999999999999999
0029029110999991923050620004+63083+021617FM-12+000999999V0201101N003119999999N0000001N9+00721+99999999999ADDGF103991999999999999999999
0029029110999991923050706004+63083+021617FM-12+000999999V0201101N003119999999N0000001N9+00561+99999999999ADDGF103991999999999999999999
0029029110999991923050713004+63083+021617FM-12+000999999V0202301N004119999999N0000001N9+00441+99999999999ADDGF103991999999999999999999
0029029110999991923050720004+63083+021617FM-12+000999999V0202501N003119999999N0000001N9+00331+99999999999ADDGF102991999999999999999999
0029029110999991923050806004+63083+021617FM-12+000999999V0202701N002119999999N0000001N9+00281+99999999999ADDGF102991999999999999999999
0029029110999991923050813004+63083+021617FM-12+000999999V0202301N005119999999N0000001N9+00441+99999999999ADDGF103991999999999999999999
0029029110999991923050820004+63083+021617FM-12+000999999V0202501N001019999999N0000001N9+00061+99999999999ADDGF102991999999999999999999
0029029110999991923050906004+63083+021617FM-12+000999999V0202301N001019999999N0000001N9+00221+99999999999ADDGF102991999999999999999999
0029029110999991923050913004+63083+021617FM-12+000999999V0202901N002119999999N0000001N9+00721+99999999999ADDGF103991999999999999999999
0029029110999991923050920004+63083+021617FM-12+000999999V0200201N001019999999N0000001N9+00171+99999999999ADDGF102991999999999999999999
0029029110999991923051006004+63083+021617FM-12+000999999V0209991C000019999999N0000001N9+00441+99999999999ADDGF103991999999999999999999
0029029110999991923051013004+63083+021617FM-12+000999999V0203601N005119999999N0000001N9+00941+99999999999ADDGF103991999999999999999999
0029029110999991923051020004+63083+021617FM-12+000999999V0209991C000019999999N0000001N9+00441+99999999999ADDGF103991999999999999999999
0029029110999991923051106004+63083+021617FM-12+000999999V0201101N001019999999N0000001N9+00721+99999999999ADDGF103991999999999999999999
0029029110999991923051113004+63083+021617FM-12+000999999V0203601N007219999999N0000001N9+01001+99999999999ADDGF104991999999999999999999
0029029110999991923051120004+63083+021617FM-12+000999999V0200501N003119999999N0000001N9+00561+99999999999ADDGF103991999999999999999999
0029029110999991923051206004+63083+021617FM-12+000999999V0200501N001019999999N0000001N9+00561+99999999999ADDGF103991999999999999999999
0029029110999991923051213004+63083+021617FM-12+000999999V0203601N005119999999N0000001N9+00781+99999999999ADDGF103991999999999999999999
0029029110999991923051220004+63083+021617FM-12+000999999V0200501N001019999999N0000001N9+00391+99999999999ADDGF102991999999999999999999
0029029110999991923051306004+63083+021617FM-12+000999999V0201101N005119999999N0000001N9+00721+99999999999ADDGF103991999999999999999999
0029029110999991923051313004+63083+021617FM-12+000999999V0201101N008719999999N0000001N9+01331+99999999999ADDGF104991999999999999999999
0029029110999991923051320004+63083+021617FM-12+000999999V0201601N009819999999N0000001N9+00611+99999999999ADDGF103991999999999999999999
0029029110999991923051406004+63083+021617FM-12+000999999V0201601N006219999999N0000001N9+00611+99999999999ADDGF103991999999999999999999
0029029110999991923051413004+63083+021617FM-12+000999999V0201601N007219999999N0000001N9+01061+99999999999ADDGF104991999999999999999999
0029029110999991923051420004+63083+021617FM-12+000999999V0201801N005119999999N0000001N9+00281+99999999999ADDGF102991999999999999999999
0029029110999991923051506004+63083+021617FM-12+000999999V0201801N008219999999N0000001N9+00391+99999999999ADDGF102991999999999999999999
0029029110999991923051513004+63083+021617FM-12+000999999V0202001N008719999999N0000001N9+00831+99999999999ADDGF103991999999999999999999
0029029110999991923051520004+63083+021617FM-12+000999999V0201801N005119999999N0000001N9+00671+99999999999ADDGF103991999999999999999999
0029029110999991923051606004+63083+021617FM-12+000999999V0201401N001019999999N0000001N9+00781+99999999999ADDGF103991999999999999999999
0029029110999991923051613004+63083+021617FM-12+000999999V0202501N003119999999N0000001N9+00831+99999999999ADDGF103991999999999999999999
0029029110999991923051620004+63083+021617FM-12+000999999V0202001N002119999999N0000001N9+00721+99999999999ADDGF103991999999999999999999
0029029110999991923051706004+63083+021617FM-12+000999999V0201101N002119999999N0000001N9+00721+99999999999ADDGF103991999999999999999999
0029029110999991923051713004+63083+021617FM-12+000999999V0201401N005119999999N0000001N9+01281+99999999999ADDGF104991999999999999999999
0029029110999991923051720004+63083+021617FM-12+000999999V0201801N004119999999N0000001N9+00721+99999999999ADDGF103991999999999999999999
0029029110999991923051806004+63083+021617FM-12+000999999V0202001N005119999999N0000001N9+00561+99999999999ADDGF103991999999999999999999
0029029110999991923051813004+63083+021617FM-12+000999999V0202001N008719999999N0000001N9+01001+99999999999ADDGF104991999999999999999999
0029029110999991923051820004+63083+021617FM-12+000999999V0201801N004119999999N0000001N9+00721+99999999999ADDGF103991999999999999999999
0029029110999991923051906004+63083+021617FM-12+000999999V0209991C000019999999N0000001N9+00781+99999999999ADDGF103991999999999999999999
0029029110999991923051913004+63083+021617FM-12+000999999V0202701N002119999999N0000001N9+01001+99999999999ADDGF104991999999999999999999
0029029110999991923051920004+63083+021617FM-12+000999999V0201801N001019999999N0000001N9+00891+99999999999ADDGF103991999999999999999999
0029029110999991923052006004+63083+021617FM-12+000999999V0201801N004119999999N0000001N9+00671+99999999999ADDGF103991999999999999999999
0029029110999991923052013004+63083+021617FM-12+000999999V0202301N006219999999N0000001N9+01001+99999999999ADDGF104991999999999999999999
0029029110999991923052113004+63083+021617FM-12+000999999V0201801N005119999999N0000001N9+01111+99999999999ADDGF104991999999999999999999
0029029110999991923052120004+63083+021617FM-12+000999999V0201601N003119999999N0000001N9+01001+99999999999ADDGF104991999999999999999999
0029029110999991923052206004+63083+021617FM-12+000999999V0201601N004119999999N0000001N9+01221+99999999999ADDGF104991999999999999999999
0029029110999991923052213004+63083+021617FM-12+000999999V0201601N002119999999N0000001N9+01391+99999999999ADDGF104991999999999999999999
0029029110999991923052220004+63083+021617FM-12+000999999V0201801N002119999999N0000001N9+00891+99999999999ADDGF103991999999999999999999
0029029110999991923052306004+63083+021617FM-12+000999999V0201801N003119999999N0000001N9+00671+99999999999ADDGF103991999999999999999999
0029029110999991923052313004+63083+021617FM-12+000999999V0202301N005119999999N0000001N9+00941+99999999999ADDGF103991999999999999999999
0029029110999991923052320004+63083+021617FM-12+000999999V0201801N003119999999N0000001N9+00721+99999999999ADDGF103991999999999999999999
0029029110999991923052406004+63083+021617FM-12+000999999V0201601N001019999999N0000001N9+00831+99999999999ADDGF103991999999999999999999
0029029110999991923052413004+63083+021617FM-12+000999999V0202701N002119999999N0000001N9+01061+99999999999ADDGF104991999999999999999999
0029029110999991923052420004+63083+021617FM-12+000999999V0201101N001019999999N0000001N9+00781+99999999999ADDGF103991999999999999999999
0029029110999991923052506004+63083+021617FM-12+000999999V0202901N001019999999N0000001N9+00781+99999999999ADDGF103991999999999999999999
0029029110999991923052513004+63083+021617FM-12+000999999V0202501N003119999999N0000001N9+00941+99999999999ADDGF103991999999999999999999
0029029110999991923052520004+63083+021617FM-12+000999999V0202301N002119999999N0000001N9+00721+99999999999ADDGF103991999999999999999999
0029029110999991923052606004+63083+021617FM-12+000999999V0201601N001019999999N0000001N9+00941+99999999999ADDGF103991999999999999999999
0029029110999991923052613004+63083+021617FM-12+000999999V0202301N004119999999N0000001N9+01281+99999999999ADDGF104991999999999999999999
0029029110999991923052620004+63083+021617FM-12+000999999V0202301N002119999999N0000001N9+00781+99999999999ADDGF103991999999999999999999
0029029110999991923052706004+63083+021617FM-12+000999999V0201801N001019999999N0000001N9+00781+99999999999ADDGF103991999999999999999999
0029029110999991923052713004+63083+021617FM-12+000999999V0202501N002119999999N0000001N9+01281+99999999999ADDGF104991999999999999999999
0029029110999991923052720004+63083+021617FM-12+000999999V0203401N003119999999N0000001N9+00941+99999999999ADDGF103991999999999999999999
0029029110999991923052806004+63083+021617FM-12+000999999V0203201N004119999999N0000001N9+00611+99999999999ADDGF103991999999999999999999
0029029110999991923052813004+63083+021617FM-12+000999999V0202501N004119999999N0000001N9+00891+99999999999ADDGF103991999999999999999999
0029029110999991923052820004+63083+021617FM-12+000999999V0203201N002119999999N0000001N9+00671+99999999999ADDGF103991999999999999999999
0029029110999991923052906004+63083+021617FM-12+000999999V0203601N004119999999N0000001N9+00501+99999999999ADDGF103991999999999999999999
0029029110999991923052913004+63083+021617FM-12+000999999V0202501N004119999999N0000001N9+00671+99999999999ADDGF103991999999999999999999
0029029110999991923052920004+63083+021617FM-12+000999999V0202901N003119999999N0000001N9+00561+99999999999ADDGF103991999999999999999999
0029029110999991923053006004+63083+021617FM-12+000999999V0209991C000019999999N0000001N9+00501+99999999999ADDGF103991999999999999999999
0029029110999991923053013004+63083+021617FM-12+000999999V0203201N003119999999N0000001N9+00831+99999999999ADDGF103991999999999999999999
0029029110999991923053020004+63083+021617FM-12+000999999V0209991C000019999999N0000001N9+00501+99999999999ADDGF103991999999999999999999
0029029110999991923053106004+63083+021617FM-12+000999999V0202001N004119999999N0000001N9+00721+99999999999ADDGF103991999999999999999999
0029029110999991923053113004+63083+021617FM-12+000999999V0202301N006219999999N0000001N9+00831+99999999999ADDGF103991999999999999999999
0029029110999991923053120004+63083+021617FM-12+000999999V0202001N003119999999N0000001N9+00721+99999999999ADDGF103991999999999999999999
0046029110999991923060106004+63083+021617FM-12+000999999V0203601N001019999999N0000001N9+00721+99999100801ADDAJ100009199999999GF108991999999999999999999
0029029110999991923060113004+63083+021617FM-12+000999999V0200201N007219999999N0000001N9+00721+99999100901ADDGF108991999999999999999999
0029029110999991923060120004+63083+021617FM-12+000999999V0203401N002119999999N0000001N9+00501+99999100961ADDGF106991999999999999999999
0046029110999991923060206004+63083+021617FM-12+000999999V0203401N003119999999N0000001N9+00611+99999101021ADDAJ100009199999999GF100991999999999999999999
0029029110999991923060213004+63083+021617FM-12+000999999V0202901N005119999999N0000001N9+00831+99999100921ADDGF106991999999999999999999
0029029110999991923060220004+63083+021617FM-12+000999999V0202501N004119999999N0000001N9+00671+99999100631ADDGF108991999999999999999999
0052029110999991923060306004+63083+021617FM-12+000999999V0202501N004119999999N0000001N9+00561+99999100101ADDAJ100009199999999GF108991999999999999999999MW1621
0029029110999991923060313004+63083+021617FM-12+000999999V0202501N003119999999N0000001N9+00611+99999099951ADDGF104991999999999999999999
0029029110999991923060320004+63083+021617FM-12+000999999V0202701N003119999999N0000001N9+00671+99999099801ADDGF108991999999999999999999
0046029110999991923060406004+63083+021617FM-12+000999999V0203401N002119999999N0000001N9+00561+99999099551ADDAJ100009199999999GF106991999999999999999999
0029029110999991923060413004+63083+021617FM-12+000999999V0202701N003119999999N0000001N9+00831+99999099511ADDGF102991999999999999999999
0029029110999991923060420004+63083+021617FM-12+000999999V0200201N001019999999N0000001N9+00391+99999099581ADDGF107991999999999999999999
0046029110999991923060506004+63083+021617FM-12+000999999V0203401N003119999999N0000001N9+00391+99999099561ADDAJ100009199999999GF105991999999999999999999
0029029110999991923060513004+63083+021617FM-12+000999999V0202701N004119999999N0000001N9+00781+99999099681ADDGF102991999999999999999999
0029029110999991923060520004+63083+021617FM-12+000999999V0202301N004119999999N0000001N9+00501+99999099751ADDGF102991999999999999999999
0046029110999991923060606004+63083+021617FM-12+000999999V0201401N002119999999N0000001N9+00281+99999099761ADDAJ100009199999999GF108991999999999999999999
0029029110999991923060613004+63083+021617FM-12+000999999V0203201N003119999999N0000001N9+00781+99999099861ADDGF106991999999999999999999
0029029110999991923060620004+63083+021617FM-12+000999999V0209991C000019999999N0000001N9+00501+99999099961ADDGF102991999999999999999999
0046029110999991923060706004+63083+021617FM-12+000999999V0202701N002119999999N0000001N9+00721+99999099911ADDAJ100009199999999GF102991999999999999999999
0029029110999991923060713004+63083+021617FM-12+000999999V0202501N008219999999N0000001N9+00891+99999099911ADDGF106991999999999999999999
0035029110999991923060720004+63083+021617FM-12+000999999V0203401N002119999999N0000001N9+00281+99999100221ADDGF105991999999999999999999MW1621
0046029110999991923060806004+63083+021617FM-12+000999999V0202901N001019999999N0000001N9+00721+99999100431ADDAJ100009199999999GF103991999999999999999999
0029029110999991923060813004+63083+021617FM-12+000999999V0202301N006219999999N0000001N9+00831+99999100461ADDGF105991999999999999999999
0035029110999991923060820004+63083+021617FM-12+000999999V0201601N004119999999N0000001N9+00781+99999099921ADDGF108991999999999999999999MW1601
0052029110999991923060906004+63083+021617FM-12+000999999V0202301N008219999999N0000001N9+00781+99999098441ADDAJ100009199999999GF108991999999999999999999MW1621
0029029110999991923060913004+63083+021617FM-12+000999999V0202301N004119999999N0000001N9+01111+99999098681ADDGF104991999999999999999999
0029029110999991923060920004+63083+021617FM-12+000999999V0202301N002119999999N0000001N9+00891+99999098791ADDGF102991999999999999999999
0046029110999991923061006004+63083+021617FM-12+000999999V0202701N004119999999N0000001N9+00941+99999099441ADDAJ100009199999999GF101991999999999999999999
0029029110999991923061013004+63083+021617FM-12+000999999V0202501N004119999999N0000001N9+01331+99999099901ADDGF101991999999999999999999
0029029110999991923061020004+63083+021617FM-12+000999999V0201801N001019999999N0000001N9+01061+99999099941ADDGF102991999999999999999999
0052029110999991923061106004+63083+021617FM-12+000999999V0200901N006219999999N0000001N9+00781+99999099021ADDAJ100009199999999GF108991999999999999999999MW1621
0029029110999991923061113004+63083+021617FM-12+000999999V0202301N002119999999N0000001N9+01061+99999098981ADDGF104991999999999999999999
0035029110999991923061120004+63083+021617FM-12+000999999V0200201N004119999999N0000001N9+00781+99999099241ADDGF108991999999999999999999MW1601
0046029110999991923061206004+63083+021617FM-12+000999999V0203601N005119999999N0000001N9+00671+99999099821ADDAJ100009199999999GF108991999999999999999999
0029029110999991923061213004+63083+021617FM-12+000999999V0203601N008719999999N0000001N9+00831+99999100121ADDGF107991999999999999999999
0029029110999991923061220004+63083+021617FM-12+000999999V0203601N001019999999N0000001N9+00671+99999100271ADDGF106991999999999999999999
0046029110999991923061306004+63083+021617FM-12+000999999V0200501N001019999999N0000001N9+00891+99999100161ADDAJ100009199999999GF106991999999999999999999
0029029110999991923061313004+63083+021617FM-12+000999999V0202701N003119999999N0000001N9+01221+99999100141ADDGF104991999999999999999999
0029029110999991923061320004+63083+021617FM-12+000999999V0202701N002119999999N0000001N9+00781+99999100181ADDGF101991999999999999999999
0046029110999991923061406004+63083+021617FM-12+000999999V0209991C000019999999N0000001N9+01001+99999100311ADDAJ100009199999999GF103991999999999999999999
0029029110999991923061413004+63083+021617FM-12+000999999V0200201N004119999999N0000001N9+01331+99999100351ADDGF108991999999999999999999
0035029110999991923061420004+63083+021617FM-12+000999999V0200901N002119999999N0000001N9+01281+99999100321ADDGF108991999999999999999999MW1621
0046029110999991923061506004+63083+021617FM-12+000999999V0201101N001019999999N0000001N9+01001+99999100161ADDAJ100009199999999GF108991999999999999999999
0035029110999991923061513004+63083+021617FM-12+000999999V0203601N001019999999N0000001N9+01171+99999100231ADDGF108991999999999999999999MW1621
0029029110999991923061520004+63083+021617FM-12+000999999V0201101N001019999999N0000001N9+01061+99999100221ADDGF108991999999999999999999
0052029110999991923061606004+63083+021617FM-12+000999999V0201101N001019999999N0000001N9+01001+99999100061ADDAJ100009199999999GF108991999999999999999999MW1621
0029029110999991923061613004+63083+021617FM-12+000999999V0202301N006219999999N0000001N9+01001+99999100301ADDGF105991999999999999999999
0029029110999991923061620004+63083+021617FM-12+000999999V0201801N003119999999N0000001N9+00831+99999100441ADDGF107991999999999999999999
0046029110999991923061706004+63083+021617FM-12+000999999V0201801N003119999999N0000001N9+00781+99999100791ADDAJ100009199999999GF108991999999999999999999
0029029110999991923061713004+63083+021617FM-12+000999999V0202301N002119999999N0000001N9+00831+99999101201ADDGF108991999999999999999999
0029029110999991923061720004+63083+021617FM-12+000999999V0202501N002119999999N0000001N9+00831+99999101461ADDGF102991999999999999999999
0046029110999991923061806004+63083+021617FM-12+000999999V0209991C000019999999N0000001N9+00671+99999101591ADDAJ100009199999999GF108991999999999999999999
0029029110999991923061813004+63083+021617FM-12+000999999V0202701N001019999999N0000001N9+01331+99999101521ADDGF108991999999999999999999
0029029110999991923061820004+63083+021617FM-12+000999999V0202301N001019999999N0000001N9+01171+99999101421ADDGF102991999999999999999999
0046029110999991923061906004+63083+021617FM-12+000999999V0201601N001019999999N0000001N9+01111+99999101281ADDAJ100009199999999GF100991999999999999999999
0029029110999991923061913004+63083+021617FM-12+000999999V0201401N001019999999N0000001N9+01891+99999101021ADDGF104991999999999999999999
0029029110999991923061920004+63083+021617FM-12+000999999V0209991C000019999999N0000001N9+01391+99999100761ADDGF104991999999999999999999
0046029110999991923062006004+63083+021617FM-12+000999999V0209991C000019999999N0000001N9+01441+99999100581ADDAJ100009199999999GF108991999999999999999999
0029029110999991923062013004+63083+021617FM-12+000999999V0203201N001019999999N0000001N9+01781+99999100521ADDGF108991999999999999999999
0029029110999991923062020004+63083+021617FM-12+000999999V0203601N001019999999N0000001N9+01331+99999100431ADDGF108991999999999999999999
0046029110999991923062106004+63083+021617FM-12+000999999V0203401N001019999999N0000001N9+01171+99999099961ADDAJ100009199999999GF108991999999999999999999
0035029110999991923062113004+63083+021617FM-12+000999999V0202301N001019999999N0000001N9+01331+99999099711ADDGF108991999999999999999999MW1621
0029029110999991923062120004+63083+021617FM-12+000999999V0202001N004119999999N0000001N9+01001+99999099591ADDGF104991999999999999999999
0052029110999991923062206004+63083+021617FM-12+000999999V0202001N003119999999N0000001N9+01001+99999099161ADDAJ100009199999999GF108991999999999999999999MW1621
0035029110999991923062213004+63083+021617FM-12+000999999V0203401N004119999999N0000001N9+00891+99999099111ADDGF108991999999999999999999MW1621
0035029110999991923062220004+63083+021617FM-12+000999999V0202501N004119999999N0000001N9+00831+99999099001ADDGF108991999999999999999999MW1621
0046029110999991923062306004+63083+021617FM-12+000999999V0202901N006219999999N0000001N9+00941+99999098801ADDAJ100009199999999GF103991999999999999999999
0029029110999991923062313004+63083+021617FM-12+000999999V0202301N008719999999N0000001N9+01221+99999098781ADDGF105991999999999999999999
0029029110999991923062320004+63083+021617FM-12+000999999V0202501N006219999999N0000001N9+01061+99999098631ADDGF108991999999999999999999
0052029110999991923062406004+63083+021617FM-12+000999999V0203201N005119999999N0000001N9+00671+99999098421ADDAJ100009199999999GF108991999999999999999999MW1621
0029029110999991923062413004+63083+021617FM-12+000999999V0202501N008219999999N0000001N9+01221+99999098581ADDGF106991999999999999999999
0029029110999991923062420004+63083+021617FM-12+000999999V0202501N007219999999N0000001N9+01001+99999098701ADDGF102991999999999999999999
0046029110999991923062506004+63083+021617FM-12+000999999V0202901N005119999999N0000001N9+00671+99999098781ADDAJ100009199999999GF108991999999999999999999
0029029110999991923062513004+63083+021617FM-12+000999999V0202501N005119999999N0000001N9+01001+99999099061ADDGF106991999999999999999999
0029029110999991923062520004+63083+021617FM-12+000999999V0202501N005119999999N0000001N9+01061+99999099421ADDGF108991999999999999999999
0046029110999991923062606004+63083+021617FM-12+000999999V0202301N003119999999N0000001N9+00891+99999099921ADDAJ100009199999999GF102991999999999999999999
0029029110999991923062613004+63083+021617FM-12+000999999V0202301N004119999999N0000001N9+01111+99999100221ADDGF102991999999999999999999
0029029110999991923062620004+63083+021617FM-12+000999999V0202301N004119999999N0000001N9+00941+99999100421ADDGF102991999999999999999999
0046029110999991923062706004+63083+021617FM-12+000999999V0202001N003119999999N0000001N9+01111+99999100831ADDAJ100009199999999GF101991999999999999999999
0029029110999991923062713004+63083+021617FM-12+000999999V0202501N004119999999N0000001N9+01391+99999101191ADDGF104991999999999999999999
0029029110999991923062720004+63083+021617FM-12+000999999V0209991C000019999999N0000001N9+01171+99999101401ADDGF104991999999999999999999
0046029110999991923062806004+63083+021617FM-12+000999999V0201401N001019999999N0000001N9+01221+99999101521ADDAJ100009199999999GF102991999999999999999999
0029029110999991923062813004+63083+021617FM-12+000999999V0202701N002119999999N0000001N9+01391+99999101511ADDGF104991999999999999999999
0029029110999991923062820004+63083+021617FM-12+000999999V0202701N001019999999N0000001N9+01001+99999101381ADDGF108991999999999999999999
0046029110999991923062906004+63083+021617FM-12+000999999V0202001N002119999999N0000001N9+00941+99999101231ADDAJ100009199999999GF105991999999999999999999
0029029110999991923062913004+63083+021617FM-12+000999999V0202301N006219999999N0000001N9+01281+99999101221ADDGF100991999999999999999999
0029029110999991923062920004+63083+021617FM-12+000999999V0202001N003119999999N0000001N9+01001+99999101241ADDGF101991999999999999999999
0046029110999991923063006004+63083+021617FM-12+000999999V0201801N003119999999N0000001N9+01001+99999101261ADDAJ100009199999999GF107991999999999999999999
0029029110999991923063013004+63083+021617FM-12+000999999V0202301N005119999999N0000001N9+01561+99999101191ADDGF102991999999999999999999
0029029110999991923063020004+63083+021617FM-12+000999999V0202301N002119999999N0000001N9+01171+99999101181ADDGF101991999999999999999999
0046029110999991923070106004+63083+021617FM-12+000999999V0201601N001019999999N0000001N9+01171+99999101111ADDAJ100009199999999GF103991999999999999999999
0029029110999991923070113004+63083+021617FM-12+000999999V0202501N005119999999N0000001N9+01331+99999100991ADDGF107991999999999999999999
0029029110999991923070120004+63083+021617FM-12+000999999V0202001N001019999999N0000001N9+01171+99999100951ADDGF108991999999999999999999
0046029110999991923070206004+63083+021617FM-12+000999999V0202301N004119999999N0000001N9+01111+99999100871ADDAJ100009199999999GF108991999999999999999999
0029029110999991923070213004+63083+021617FM-12+000999999V0202301N005119999999N0000001N9+01391+99999101031ADDGF106991999999999999999999
0029029110999991923070220004+63083+021617FM-12+000999999V0201801N003119999999N0000001N9+01331+99999101161ADDGF107991999999999999999999
0046029110999991923070306004+63083+021617FM-12+000999999V0201801N005119999999N0000001N9+01501+99999101241ADDAJ100009199999999GF108991999999999999999999
0029029110999991923070313004+63083+021617FM-12+000999999V0202001N008219999999N0000001N9+02001+99999101381ADDGF107991999999999999999999
0029029110999991923070320004+63083+021617FM-12+000999999V0201801N004119999999N0000001N9+01721+99999101351ADDGF108991999999999999999999
0046029110999991923070406004+63083+021617FM-12+000999999V0201801N004119999999N0000001N9+01671+99999101441ADDAJ100009199999999GF106991999999999999999999
0029029110999991923070413004+63083+021617FM-12+000999999V0202001N008219999999N0000001N9+01611+99999101601ADDGF108991999999999999999999
0029029110999991923070420004+63083+021617FM-12+000999999V0202001N005119999999N0000001N9+01501+99999101671ADDGF106991999999999999999999
0046029110999991923070506004+63083+021617FM-12+000999999V0201801N003119999999N0000001N9+01561+99999101791ADDAJ100009199999999GF102991999999999999999999
0029029110999991923070513004+63083+021617FM-12+000999999V0202001N008219999999N0000001N9+01781+99999101901ADDGF100991999999999999999999
0029029110999991923070520004+63083+021617FM-12+000999999V0201801N002119999999N0000001N9+01561+99999102061ADDGF104991999999999999999999
0046029110999991923070606004+63083+021617FM-12+000999999V0209991C000019999999N0000001N9+01441+99999102101ADDAJ100009199999999GF108991999999999999999999
0029029110999991923070613004+63083+021617FM-12+000999999V0202701N001019999999N0000001N9+01501+99999102161ADDGF108991999999999999999999
0029029110999991923070620004+63083+021617FM-12+000999999V0202701N001019999999N0000001N9+01501+99999102231ADDGF106991999999999999999999
0046029110999991923070706004+63083+021617FM-12+000999999V0203401N002119999999N0000001N9+01671+99999102301ADDAJ100009199999999GF100991999999999999999999
0029029110999991923070713004+63083+021617FM-12+000999999V0202501N005119999999N0000001N9+01781+99999102221ADDGF101991999999999999999999
0029029110999991923070720004+63083+021617FM-12+000999999V0202701N002119999999N0000001N9+01441+99999102021ADDGF105991999999999999999999
0046029110999991923070806004+63083+021617FM-12+000999999V0203601N004119999999N0000001N9+01391+99999101961ADDAJ100009199999999GF105991999999999999999999
0029029110999991923070813004+63083+021617FM-12+000999999V0203601N008219999999N0000001N9+01561+99999102261ADDGF100991999999999999999999
0029029110999991923070820004+63083+021617FM-12+000999999V0200201N003119999999N0000001N9+01281+99999102431ADDGF100991999999999999999999
0046029110999991923070906004+63083+021617FM-12+000999999V0203601N001019999999N0000001N9+01561+99999102641ADDAJ100009199999999GF102991999999999999999999
0029029110999991923070913004+63083+021617FM-12+000999999V0202701N003119999999N0000001N9+01891+99999102581ADDGF101991999999999999999999
0029029110999991923070920004+63083+021617FM-12+000999999V0202701N001019999999N0000001N9+01501+99999102401ADDGF100991999999999999999999
0046029110999991923071006004+63083+021617FM-12+000999999V0202301N001019999999N0000001N9+01671+99999102351ADDAJ100009199999999GF100991999999999999999999
0029029110999991923071013004+63083+021617FM-12+000999999V0202701N002119999999N0000001N9+02061+99999102321ADDGF104991999999999999999999
0029029110999991923071020004+63083+021617FM-12+000999999V0202301N002119999999N0000001N9+01721+99999102241ADDGF105991999999999999999999
0046029110999991923071106004+63083+021617FM-12+000999999V0203601N004119999999N0000001N9+01831+99999102281ADDAJ100009199999999GF100991999999999999999999
0029029110999991923071113004+63083+021617FM-12+000999999V0202701N002119999999N0000001N9+02331+99999102301ADDGF102991999999999999999999
0029029110999991923071120004+63083+021617FM-12+000999999V0209991C000019999999N0000001N9+01891+99999102161ADDGF105991999999999999999999
0046029110999991923071206004+63083+021617FM-12+000999999V0201801N002119999999N0000001N9+01941+99999101791ADDAJ100009199999999GF108991999999999999999999
0029029110999991923071213004+63083+021617FM-12+000999999V0202301N006219999999N0000001N9+02221+99999101521ADDGF108991999999999999999999
0029029110999991923071220004+63083+021617FM-12+000999999V0209991C000019999999N0000001N9+01891+99999101391ADDGF108991999999999999999999
0046029110999991923071306004+63083+021617FM-12+000999999V0209991C000019999999N0000001N9+01831+99999101271ADDAJ100009199999999GF108991999999999999999999
0029029110999991923071313004+63083+021617FM-12+000999999V0202701N001019999999N0000001N9+02281+99999101111ADDGF107991999999999999999999
0029029110999991923071320004+63083+021617FM-12+000999999V0203401N002119999999N0000001N9+01671+99999101081ADDGF108991999999999999999999
0046029110999991923071406004+63083+021617FM-12+000999999V0202901N006219999999N0000001N9+01441+99999101031ADDAJ100009199999999GF106991999999999999999999
0029029110999991923071413004+63083+021617FM-12+000999999V0202501N009819999999N0000001N9+01721+99999100801ADDGF101991999999999999999999
0029029110999991923071420004+63083+021617FM-12+000999999V0202901N007219999999N0000001N9+01501+99999100821ADDGF107991999999999999999999
0046029110999991923071506004+63083+021617FM-12+000999999V0203401N004119999999N0000001N9+01331+99999101111ADDAJ100009199999999GF100991999999999999999999
0029029110999991923071513004+63083+021617FM-12+000999999V0202501N002119999999N0000001N9+01671+99999101231ADDGF101991999999999999999999
0029029110999991923071520004+63083+021617FM-12+000999999V0209991C000019999999N0000001N9+01441+99999101261ADDGF100991999999999999999999
0046029110999991923071606004+63083+021617FM-12+000999999V0201601N001019999999N0000001N9+01611+99999101341ADDAJ100009199999999GF102991999999999999999999
0029029110999991923071613004+63083+021617FM-12+000999999V0202701N002119999999N0000001N9+02111+99999101231ADDGF103991999999999999999999
0029029110999991923071620004+63083+021617FM-12+000999999V0200501N001019999999N0000001N9+01561+99999101071ADDGF100991999999999999999999
0046029110999991923071706004+63083+021617FM-12+000999999V0201601N002119999999N0000001N9+01721+99999100961ADDAJ100009199999999GF100991999999999999999999
0029029110999991923071713004+63083+021617FM-12+000999999V0201601N004119999999N0000001N9+02441+99999100721ADDGF100991999999999999999999
0029029110999991923071720004+63083+021617FM-12+000999999V0202001N002119999999N0000001N9+01891+99999100661ADDGF104991999999999999999999
0046029110999991923071806004+63083+021617FM-12+000999999V0201401N002119999999N0000001N9+01611+99999100621ADDAJ100009199999999GF108991999999999999999999
0029029110999991923071813004+63083+021617FM-12+000999999V0201101N006219999999N0000001N9+01671+99999100661ADDGF108991999999999999999999
0029029110999991923071820004+63083+021617FM-12+000999999V0201101N003119999999N0000001N9+01391+99999100591ADDGF108991999999999999999999
0046029110999991923071906004+63083+021617FM-12+000999999V0201401N001019999999N0000001N9+01561+99999100431ADDAJ100009199999999GF107991999999999999999999
0029029110999991923071913004+63083+021617FM-12+000999999V0200901N001019999999N0000001N9+01781+99999100341ADDGF108991999999999999999999
0029029110999991923071920004+63083+021617FM-12+000999999V0201801N001019999999N0000001N9+01441+99999100241ADDGF108991999999999999999999
0046029110999991923072006004+63083+021617FM-12+000999999V0209991C000019999999N0000001N9+01501+99999100081ADDAJ100009199999999GF101991999999999999999999
0029029110999991923072013004+63083+021617FM-12+000999999V0202701N002119999999N0000001N9+01781+99999999999ADDGF107991999999999999999999
0029029110999991923072020004+63083+021617FM-12+000999999V0209991C000019999999N0000001N9+01561+99999099921ADDGF101991999999999999999999
0046029110999991923072106004+63083+021617FM-12+000999999V0202701N001019999999N0000001N9+01391+99999099881ADDAJ100009199999999GF106991999999999999999999
0029029110999991923072113004+63083+021617FM-12+000999999V0202701N004119999999N0000001N9+01831+99999099831ADDGF101991999999999999999999
0029029110999991923072120004+63083+021617FM-12+000999999V0203201N001019999999N0000001N9+01611+99999099701ADDGF105991999999999999999999
0046029110999991923072206004+63083+021617FM-12+000999999V0202901N006219999999N0000001N9+01391+99999099541ADDAJ100009199999999GF101991999999999999999999
0029029110999991923072213004+63083+021617FM-12+000999999V0202501N008719999999N0000001N9+01721+99999099591ADDGF101991999999999999999999
0029029110999991923072220004+63083+021617FM-12+000999999V0202701N009819999999N0000001N9+01501+99999099601ADDGF101991999999999999999999
0046029110999991923072306004+63083+021617FM-12+000999999V0202501N004119999999N0000001N9+01221+99999099621ADDAJ100009199999999GF103991999999999999999999
0029029110999991923072313004+63083+021617FM-12+000999999V0202301N004119999999N0000001N9+01331+99999099521ADDGF108991999999999999999999
0029029110999991923072320004+63083+021617FM-12+000999999V0202001N002119999999N0000001N9+01221+99999099391ADDGF101991999999999999999999
0046029110999991923072406004+63083+021617FM-12+000999999V0200901N003119999999N0000001N9+01281+99999099181ADDAJ100009199999999GF108991999999999999999999
0029029110999991923072413004+63083+021617FM-12+000999999V0200901N002119999999N0000001N9+01781+99999099031ADDGF108991999999999999999999
0029029110999991923072420004+63083+021617FM-12+000999999V0209991C000019999999N0000001N9+01441+99999098921ADDGF108991999999999999999999
0046029110999991923072506004+63083+021617FM-12+000999999V0203401N002119999999N0000001N9+01391+99999098791ADDAJ100009199999999GF108991999999999999999999
0035029110999991923072513004+63083+021617FM-12+000999999V0202901N006219999999N0000001N9+01221+99999099101ADDGF108991999999999999999999MW1601
0029029110999991923072520004+63083+021617FM-12+000999999V0202501N008719999999N0000001N9+01281+99999099201ADDGF108991999999999999999999
0046029110999991923072606004+63083+021617FM-12+000999999V0202301N004119999999N0000001N9+01331+99999099181ADDAJ100009199999999GF103991999999999999999999
0029029110999991923072613004+63083+021617FM-12+000999999V0202301N005119999999N0000001N9+01561+99999099301ADDGF104991999999999999999999
0029029110999991923072620004+63083+021617FM-12+000999999V0200201N001019999999N0000001N9+01281+99999099361ADDGF106991999999999999999999
0046029110999991923072706004+63083+021617FM-12+000999999V0209991C000019999999N0000001N9+01501+99999099361ADDAJ100009199999999GF101991999999999999999999
0029029110999991923072713004+63083+021617FM-12+000999999V0203401N004119999999N0000001N9+01831+99999099461ADDGF104991999999999999999999
0029029110999991923072720004+63083+021617FM-12+000999999V0203601N002119999999N0000001N9+01441+99999099601ADDGF106991999999999999999999
0046029110999991923072806004+63083+021617FM-12+000999999V0203601N002119999999N0000001N9+01561+99999099761ADDAJ100009199999999GF102991999999999999999999
0029029110999991923072813004+63083+021617FM-12+000999999V0203201N003119999999N0000001N9+02001+99999099871ADDGF105991999999999999999999
0029029110999991923072820004+63083+021617FM-12+000999999V0202701N002119999999N0000001N9+01561+99999099871ADDGF104991999999999999999999
0046029110999991923072906004+63083+021617FM-12+000999999V0202901N002119999999N0000001N9+01671+99999099761ADDAJ100009199999999GF102991999999999999999999
0029029110999991923072913004+63083+021617FM-12+000999999V0202701N004119999999N0000001N9+02001+99999099801ADDGF103991999999999999999999
0029029110999991923072920004+63083+021617FM-12+000999999V0202501N002119999999N0000001N9+01561+99999099871ADDGF102991999999999999999999
0046029110999991923073006004+63083+021617FM-12+000999999V0202001N001019999999N0000001N9+01561+99999099761ADDAJ100009199999999GF101991999999999999999999
0029029110999991923073013004+63083+021617FM-12+000999999V0202701N003119999999N0000001N9+01831+99999099791ADDGF101991999999999999999999
0029029110999991923073020004+63083+021617FM-12+000999999V0200201N002119999999N0000001N9+01441+99999099741ADDGF107991999999999999999999
0046029110999991923073106004+63083+021617FM-12+000999999V0203601N002119999999N0000001N9+01281+99999099601ADDAJ100009199999999GF108991999999999999999999
0029029110999991923073113004+63083+021617FM-12+000999999V0200201N008219999999N0000001N9+01501+99999099581ADDGF108991999999999999999999
0029029110999991923073120004+63083+021617FM-12+000999999V0200201N002119999999N0000001N9+01281+99999099561ADDGF108991999999999999999999
0046029110999991923080106004+63083+021617FM-12+000999999V0200201N003119999999N0000001N9+01281+99999099601ADDAJ100009199999999GF108991999999999999999999
0029029110999991923080113004+63083+021617FM-12+000999999V0200201N005119999999N0000001N9+01501+99999099741ADDGF108991999999999999999999
0029029110999991923080120004+63083+021617FM-12+000999999V0200201N003119999999N0000001N9+01221+99999099821ADDGF108991999999999999999999
0046029110999991923080206004+63083+021617FM-12+000999999V0200501N004119999999N0000001N9+01221+99999099871ADDAJ100009199999999GF108991999999999999999999
0029029110999991923080213004+63083+021617FM-12+000999999V0200201N008219999999N0000001N9+01391+99999100081ADDGF108991999999999999999999
0029029110999991923080220004+63083+021617FM-12+000999999V0200201N005119999999N0000001N9+01281+99999100381ADDGF108991999999999999999999
0046029110999991923080306004+63083+021617FM-12+000999999V0203401N003119999999N0000001N9+01391+99999100701ADDAJ100009199999999GF100991999999999999999999
0029029110999991923080313004+63083+021617FM-12+000999999V0203601N004119999999N0000001N9+01891+99999100871ADDGF101991999999999999999999
0029029110999991923080320004+63083+021617FM-12+000999999V0200501N001019999999N0000001N9+01171+99999100941ADDGF106991999999999999999999
0046029110999991923080406004+63083+021617FM-12+000999999V0201101N001019999999N0000001N9+01171+99999100941ADDAJ100009199999999GF108991999999999999999999
0029029110999991923080413004+63083+021617FM-12+000999999V0200501N004119999999N0000001N9+01891+99999100871ADDGF105991999999999999999999
0029029110999991923080420004+63083+021617FM-12+000999999V0200201N003119999999N0000001N9+01331+99999100961ADDGF105991999999999999999999
0046029110999991923080506004+63083+021617FM-12+000999999V0200501N001019999999N0000001N9+01391+99999101241ADDAJ100009199999999GF105991999999999999999999
0029029110999991923080513004+63083+021617FM-12+000999999V0203601N003119999999N0000001N9+01941+99999101271ADDGF100991999999999999999999
0029029110999991923080520004+63083+021617FM-12+000999999V0209991C000019999999N0000001N9+01331+99999101221ADDGF101991999999999999999999
0046029110999991923080606004+63083+021617FM-12+000999999V0209991C000019999999N0000001N9+01281+99999101121ADDAJ100009199999999GF100991999999999999999999
0029029110999991923080613004+63083+021617FM-12+000999999V0203601N005119999999N0000001N9+01941+99999101111ADDGF101991999999999999999999
0029029110999991923080620004+63083+021617FM-12+000999999V0200201N003119999999N0000001N9+01171+99999101101ADDGF106991999999999999999999
0046029110999991923080706004+63083+021617FM-12+000999999V0200501N001019999999N0000001N9+01281+99999101071ADDAJ100009199999999GF105991999999999999999999
0029029110999991923080713004+63083+021617FM-12+000999999V0203601N005119999999N0000001N9+01611+99999101041ADDGF106991999999999999999999
0029029110999991923080720004+63083+021617FM-12+000999999V0200201N002119999999N0000001N9+01061+99999100991ADDGF100991999999999999999999
0046029110999991923080806004+63083+021617FM-12+000999999V0200701N001019999999N0000001N9+01221+99999101021ADDAJ100009199999999GF100991999999999999999999
0029029110999991923080813004+63083+021617FM-12+000999999V0203401N005119999999N0000001N9+01721+99999101021ADDGF101991999999999999999999
0029029110999991923080820004+63083+021617FM-12+000999999V0209991C000019999999N0000001N9+01221+99999101001ADDGF101991999999999999999999
0046029110999991923080906004+63083+021617FM-12+000999999V0203601N001019999999N0000001N9+01441+99999101151ADDAJ100009199999999GF104991999999999999999999
0029029110999991923080913004+63083+021617FM-12+000999999V0200201N005119999999N0000001N9+01941+99999101121ADDGF102991999999999999999999
0029029110999991923080920004+63083+021617FM-12+000999999V0209991C000019999999N0000001N9+01501+99999100871ADDGF108991999999999999999999
0052029110999991923081006004+63083+021617FM-12+000999999V0200701N003119999999N0000001N9+01171+99999100141ADDAJ100009199999999GF108991999999999999999999MW1621
0029029110999991923081013004+63083+021617FM-12+000999999V0200201N002119999999N0000001N9+01441+99999099941ADDGF108991999999999999999999
0029029110999991923081020004+63083+021617FM-12+000999999V0200201N004119999999N0000001N9+01281+99999099711ADDGF108991999999999999999999
0046029110999991923081106004+63083+021617FM-12+000999999V0203601N003119999999N0000001N9+01171+99999099791ADDAJ100009199999999GF108991999999999999999999
0029029110999991923081113004+63083+021617FM-12+000999999V0203601N008219999999N0000001N9+01391+99999100081ADDGF106991999999999999999999
0029029110999991923081120004+63083+021617FM-12+000999999V0203601N003119999999N0000001N9+01001+99999100431ADDGF105991999999999999999999
0046029110999991923081206004+63083+021617FM-12+000999999V0200201N004119999999N0000001N9+01221+99999100961ADDAJ100009199999999GF102991999999999999999999
0029029110999991923081213004+63083+021617FM-12+000999999V0203601N005119999999N0000001N9+01441+99999101261ADDGF100991999999999999999999
0029029110999991923081220004+63083+021617FM-12+000999999V0209991C000019999999N0000001N9+01001+99999101351ADDGF101991999999999999999999
0046029110999991923081306004+63083+021617FM-12+000999999V0202901N001019999999N0000001N9+01281+99999101421ADDAJ100009199999999GF101991999999999999999999
0029029110999991923081313004+63083+021617FM-12+000999999V0203601N003119999999N0000001N9+01721+99999101441ADDGF101991999999999999999999
0029029110999991923081320004+63083+021617FM-12+000999999V0209991C000019999999N0000001N9+01111+99999101221ADDGF103991999999999999999999
0046029110999991923081406004+63083+021617FM-12+000999999V0201801N001019999999N0000001N9+01171+99999100921ADDAJ100009199999999GF106991999999999999999999
0029029110999991923081413004+63083+021617FM-12+000999999V0202701N002119999999N0000001N9+01611+99999100881ADDGF106991999999999999999999
0029029110999991923081420004+63083+021617FM-12+000999999V0209991C000019999999N0000001N9+01171+99999100781ADDGF107991999999999999999999
0046029110999991923081506004+63083+021617FM-12+000999999V0201601N001019999999N0000001N9+01111+99999100471ADDAJ100009199999999GF108991999999999999999999
0029029110999991923081513004+63083+021617FM-12+000999999V0202701N001019999999N0000001N9+01781+99999100271ADDGF106991999999999999999999
0029029110999991923081520004+63083+021617FM-12+000999999V0209991C000019999999N0000001N9+01221+99999100101ADDGF106991999999999999999999
0046029110999991923081606004+63083+021617FM-12+000999999V0200201N004119999999N0000001N9+01111+99999099711ADDAJ100009199999999GF108991999999999999999999
0029029110999991923081613004+63083+021617FM-12+000999999V0203601N009819999999N0000001N9+01281+99999099421ADDGF106991999999999999999999
0029029110999991923081620004+63083+021617FM-12+000999999V0203601N009819999999N0000001N9+01171+99999099231ADDGF106991999999999999999999
0046029110999991923081706004+63083+021617FM-12+000999999V0203601N008719999999N0000001N9+01001+99999099161ADDAJ100009199999999GF104991999999999999999999
0035029110999991923081713004+63083+021617FM-12+000999999V0203601N008719999999N0000001N9+01001+99999099481ADDGF108991999999999999999999MW1601
0035029110999991923081720004+63083+021617FM-12+000999999V0203401N005119999999N0000001N9+01001+99999099681ADDGF108991999999999999999999MW1601
0052029110999991923081806004+63083+021617FM-12+000999999V0203401N003119999999N0000001N9+00891+99999099671ADDAJ100009199999999GF108991999999999999999999MW1621
0029029110999991923081813004+63083+021617FM-12+000999999V0203401N002119999999N0000001N9+01061+99999099841ADDGF108991999999999999999999
0029029110999991923081820004+63083+021617FM-12+000999999V0209991C000019999999N0000001N9+00891+99999099961ADDGF104991999999999999999999
0046029110999991923081906004+63083+021617FM-12+000999999V0200201N001019999999N0000001N9+01111+99999100231ADDAJ100009199999999GF107991999999999999999999
0029029110999991923081913004+63083+021617FM-12+000999999V0203601N006219999999N0000001N9+01281+99999100481ADDGF102991999999999999999999
0029029110999991923081920004+63083+021617FM-12+000999999V0203601N001019999999N0000001N9+00781+99999100581ADDGF101991999999999999999999
0046029110999991923082006004+63083+021617FM-12+000999999V0200701N001019999999N0000001N9+00781+99999100681ADDAJ100009199999999GF100991999999999999999999
0029029110999991923082013004+63083+021617FM-12+000999999V0200501N003119999999N0000001N9+01561+99999100631ADDGF104991999999999999999999
0029029110999991923082020004+63083+021617FM-12+000999999V0200201N001019999999N0000001N9+00941+99999100661ADDGF103991999999999999999999
0046029110999991923082106004+63083+021617FM-12+000999999V0209991C000019999999N0000001N9+00941+99999100721ADDAJ100009199999999GF102991999999999999999999
0029029110999991923082113004+63083+021617FM-12+000999999V0202701N003119999999N0000001N9+01561+99999100761ADDGF101991999999999999999999
0029029110999991923082120004+63083+021617FM-12+000999999V0209991C000019999999N0000001N9+01001+99999100781ADDGF100991999999999999999999
0046029110999991923082206004+63083+021617FM-12+000999999V0201601N002119999999N0000001N9+00891+99999100721ADDAJ100009199999999GF108991999999999999999999
0029029110999991923082213004+63083+021617FM-12+000999999V0201601N006219999999N0000001N9+01561+99999100511ADDGF108991999999999999999999
0035029110999991923082220004+63083+021617FM-12+000999999V0201401N009819999999N0000001N9+01331+99999099941ADDGF108991999999999999999999MW1621
0046029110999991923082306004+63083+021617FM-12+000999999V0201801N009819999999N0000001N9+01221+99999099621ADDAJ100009199999999GF108991999999999999999999
0029029110999991923082313004+63083+021617FM-12+000999999V0202001N011819999999N0000001N9+01441+99999099861ADDGF105991999999999999999999
0029029110999991923082320004+63083+021617FM-12+000999999V0201801N008219999999N0000001N9+01221+99999099951ADDGF104991999999999999999999
0046029110999991923082406004+63083+021617FM-12+000999999V0201801N006219999999N0000001N9+01111+99999099991ADDAJ100009199999999GF108991999999999999999999
0029029110999991923082413004+63083+021617FM-12+000999999V0202001N009819999999N0000001N9+01441+99999100201ADDGF106991999999999999999999
0029029110999991923082420004+63083+021617FM-12+000999999V0201801N003119999999N0000001N9+01171+99999100481ADDGF106991999999999999999999
0046029110999991923082506004+63083+021617FM-12+000999999V0201801N002119999999N0000001N9+01171+99999100701ADDAJ100009199999999GF107991999999999999999999
0035029110999991923082513004+63083+021617FM-12+000999999V0201601N004119999999N0000001N9+01501+99999100591ADDGF108991999999999999999999MW1621
0035029110999991923082520004+63083+021617FM-12+000999999V0201801N003119999999N0000001N9+01331+99999100141ADDGF108991999999999999999999MW1621
0046029110999991923082606004+63083+021617FM-12+000999999V0202001N005119999999N0000001N9+01221+99999099741ADDAJ100009199999999GF108991999999999999999999
0029029110999991923082613004+63083+021617FM-12+000999999V0202001N008219999999N0000001N9+01331+99999099921ADDGF108991999999999999999999
0029029110999991923082620004+63083+021617FM-12+000999999V0202001N003119999999N0000001N9+01111+99999100121ADDGF102991999999999999999999
0046029110999991923082706004+63083+021617FM-12+000999999V0201801N005119999999N0000001N9+01111+99999100351ADDAJ100009199999999GF108991999999999999999999
0029029110999991923082713004+63083+021617FM-12+000999999V0201801N008219999999N0000001N9+01391+99999100421ADDGF108991999999999999999999
0029029110999991923082720004+63083+021617FM-12+000999999V0201601N004119999999N0000001N9+01331+99999100311ADDGF108991999999999999999999
0046029110999991923082806004+63083+021617FM-12+000999999V0201401N004119999999N0000001N9+01391+99999099981ADDAJ100009199999999GF108991999999999999999999
0029029110999991923082813004+63083+021617FM-12+000999999V0201801N005119999999N0000001N9+01501+99999099901ADDGF108991999999999999999999
0029029110999991923082820004+63083+021617FM-12+000999999V0201601N003119999999N0000001N9+01281+99999099921ADDGF106991999999999999999999
0046029110999991923082906004+63083+021617FM-12+000999999V0201801N006219999999N0000001N9+01221+99999100101ADDAJ100009199999999GF106991999999999999999999
0029029110999991923082913004+63083+021617FM-12+000999999V0202001N006219999999N0000001N9+01611+99999100441ADDGF107991999999999999999999
0029029110999991923082920004+63083+021617FM-12+000999999V0201801N004119999999N0000001N9+01111+99999100631ADDGF100991999999999999999999
0046029110999991923083006004+63083+021617FM-12+000999999V0201601N002119999999N0000001N9+01171+99999100831ADDAJ100009199999999GF108991999999999999999999
